{
	"Funciones avanzadas/require.sol": {
		"Require": {
			"abi": [
				{
					"inputs": [
						{
							"internalType": "string",
							"name": "_password",
							"type": "string"
						}
					],
					"name": "password",
					"outputs": [
						{
							"internalType": "string",
							"name": "",
							"type": "string"
						}
					],
					"stateMutability": "pure",
					"type": "function"
				}
			],
			"devdoc": {
				"methods": {}
			},
			"evm": {
				"assembly": "    /* \"Funciones avanzadas/require.sol\":98:422  contract Require{\r... */\n  mstore(0x40, 0x80)\n  callvalue\n    /* \"--CODEGEN--\":5:14   */\n  dup1\n    /* \"--CODEGEN--\":2:4   */\n  iszero\n  tag_1\n  jumpi\n    /* \"--CODEGEN--\":27:28   */\n  0x00\n    /* \"--CODEGEN--\":24:25   */\n  dup1\n    /* \"--CODEGEN--\":17:29   */\n  revert\n    /* \"--CODEGEN--\":2:4   */\ntag_1:\n    /* \"Funciones avanzadas/require.sol\":98:422  contract Require{\r... */\n  pop\n  dataSize(sub_0)\n  dup1\n  dataOffset(sub_0)\n  0x00\n  codecopy\n  0x00\n  return\nstop\n\nsub_0: assembly {\n        /* \"Funciones avanzadas/require.sol\":98:422  contract Require{\r... */\n      mstore(0x40, 0x80)\n      callvalue\n        /* \"--CODEGEN--\":5:14   */\n      dup1\n        /* \"--CODEGEN--\":2:4   */\n      iszero\n      tag_1\n      jumpi\n        /* \"--CODEGEN--\":27:28   */\n      0x00\n        /* \"--CODEGEN--\":24:25   */\n      dup1\n        /* \"--CODEGEN--\":17:29   */\n      revert\n        /* \"--CODEGEN--\":2:4   */\n    tag_1:\n        /* \"Funciones avanzadas/require.sol\":98:422  contract Require{\r... */\n      pop\n      jumpi(tag_2, lt(calldatasize, 0x04))\n      shr(0xe0, calldataload(0x00))\n      dup1\n      0x71d3f37a\n      eq\n      tag_3\n      jumpi\n    tag_2:\n        /* \"--CODEGEN--\":12:13   */\n      0x00\n        /* \"--CODEGEN--\":9:10   */\n      dup1\n        /* \"--CODEGEN--\":2:14   */\n      revert\n        /* \"Funciones avanzadas/require.sol\":167:419  function password(string memory _password) public pure returns (string memory) {\r... */\n    tag_3:\n      tag_4\n      0x04\n      dup1\n      calldatasize\n      sub\n      dup2\n      add\n      swap1\n      tag_5\n      swap2\n      swap1\n      jump(tag_6)\n    tag_5:\n      tag_7\n      jump\t// in\n    tag_4:\n      mload(0x40)\n      tag_8\n      swap2\n      swap1\n      jump(tag_9)\n    tag_8:\n      mload(0x40)\n      dup1\n      swap2\n      sub\n      swap1\n      return\n    tag_7:\n        /* \"Funciones avanzadas/require.sol\":231:244  string memory */\n      0x60\n        /* \"Funciones avanzadas/require.sol\":317:343  abi.encodePacked(\"123456\") */\n      add(0x20, mload(0x40))\n      tag_11\n      swap1\n      jump(tag_12)\n    tag_11:\n      mload(0x40)\n        /* \"--CODEGEN--\":49:53   */\n      0x20\n        /* \"--CODEGEN--\":39:46   */\n      dup2\n        /* \"--CODEGEN--\":30:37   */\n      dup4\n        /* \"--CODEGEN--\":26:47   */\n      sub\n        /* \"--CODEGEN--\":22:54   */\n      sub\n        /* \"--CODEGEN--\":13:20   */\n      dup2\n        /* \"--CODEGEN--\":6:55   */\n      mstore\n        /* \"Funciones avanzadas/require.sol\":317:343  abi.encodePacked(\"123456\") */\n      swap1\n      0x40\n      mstore\n        /* \"Funciones avanzadas/require.sol\":307:344  keccak256(abi.encodePacked(\"123456\")) */\n      dup1\n      mload\n      swap1\n      0x20\n      add\n      keccak256\n        /* \"Funciones avanzadas/require.sol\":292:301  _password */\n      dup3\n        /* \"Funciones avanzadas/require.sol\":275:302  abi.encodePacked(_password) */\n      add(0x20, mload(0x40))\n      tag_13\n      swap2\n      swap1\n      jump(tag_14)\n    tag_13:\n      mload(0x40)\n        /* \"--CODEGEN--\":49:53   */\n      0x20\n        /* \"--CODEGEN--\":39:46   */\n      dup2\n        /* \"--CODEGEN--\":30:37   */\n      dup4\n        /* \"--CODEGEN--\":26:47   */\n      sub\n        /* \"--CODEGEN--\":22:54   */\n      sub\n        /* \"--CODEGEN--\":13:20   */\n      dup2\n        /* \"--CODEGEN--\":6:55   */\n      mstore\n        /* \"Funciones avanzadas/require.sol\":275:302  abi.encodePacked(_password) */\n      swap1\n      0x40\n      mstore\n        /* \"Funciones avanzadas/require.sol\":265:303  keccak256(abi.encodePacked(_password)) */\n      dup1\n      mload\n      swap1\n      0x20\n      add\n      keccak256\n        /* \"Funciones avanzadas/require.sol\":265:344  keccak256(abi.encodePacked(_password)) == keccak256(abi.encodePacked(\"123456\")) */\n      eq\n        /* \"Funciones avanzadas/require.sol\":257:371  require(keccak256(abi.encodePacked(_password)) == keccak256(abi.encodePacked(\"123456\")), \"Contraseña incorrecta\") */\n      tag_15\n      jumpi\n      mload(0x40)\n      0x08c379a000000000000000000000000000000000000000000000000000000000\n      dup2\n      mstore\n      0x04\n      add\n      tag_16\n      swap1\n      jump(tag_17)\n    tag_16:\n      mload(0x40)\n      dup1\n      swap2\n      sub\n      swap1\n      revert\n    tag_15:\n        /* \"Funciones avanzadas/require.sol\":382:411  return \"Contraseña Correcta\" */\n      mload(0x40)\n      dup1\n      0x40\n      add\n      0x40\n      mstore\n      dup1\n      0x14\n      dup2\n      mstore\n      0x20\n      add\n      0x436f6e7472617365c3b16120436f727265637461000000000000000000000000\n      dup2\n      mstore\n      pop\n      swap1\n      pop\n        /* \"Funciones avanzadas/require.sol\":167:419  function password(string memory _password) public pure returns (string memory) {\r... */\n      swap2\n      swap1\n      pop\n      jump\t// out\n        /* \"--CODEGEN--\":6:448   */\n    tag_19:\n      0x00\n        /* \"--CODEGEN--\":108:111   */\n      dup3\n        /* \"--CODEGEN--\":101:105   */\n      0x1f\n        /* \"--CODEGEN--\":93:99   */\n      dup4\n        /* \"--CODEGEN--\":89:106   */\n      add\n        /* \"--CODEGEN--\":85:112   */\n      slt\n        /* \"--CODEGEN--\":75:77   */\n      tag_21\n      jumpi\n        /* \"--CODEGEN--\":126:127   */\n      0x00\n        /* \"--CODEGEN--\":123:124   */\n      dup1\n        /* \"--CODEGEN--\":116:128   */\n      revert\n        /* \"--CODEGEN--\":75:77   */\n    tag_21:\n        /* \"--CODEGEN--\":163:169   */\n      dup2\n        /* \"--CODEGEN--\":150:170   */\n      calldataload\n        /* \"--CODEGEN--\":185:250   */\n      tag_22\n        /* \"--CODEGEN--\":200:249   */\n      tag_23\n        /* \"--CODEGEN--\":242:248   */\n      dup3\n        /* \"--CODEGEN--\":200:249   */\n      jump(tag_24)\n    tag_23:\n        /* \"--CODEGEN--\":185:250   */\n      jump(tag_25)\n    tag_22:\n        /* \"--CODEGEN--\":176:250   */\n      swap2\n      pop\n        /* \"--CODEGEN--\":270:276   */\n      dup1\n        /* \"--CODEGEN--\":263:268   */\n      dup3\n        /* \"--CODEGEN--\":256:277   */\n      mstore\n        /* \"--CODEGEN--\":306:310   */\n      0x20\n        /* \"--CODEGEN--\":298:304   */\n      dup4\n        /* \"--CODEGEN--\":294:311   */\n      add\n        /* \"--CODEGEN--\":339:343   */\n      0x20\n        /* \"--CODEGEN--\":332:337   */\n      dup4\n        /* \"--CODEGEN--\":328:344   */\n      add\n        /* \"--CODEGEN--\":374:377   */\n      dup6\n        /* \"--CODEGEN--\":365:371   */\n      dup4\n        /* \"--CODEGEN--\":360:363   */\n      dup4\n        /* \"--CODEGEN--\":356:372   */\n      add\n        /* \"--CODEGEN--\":353:378   */\n      gt\n        /* \"--CODEGEN--\":350:352   */\n      iszero\n      tag_26\n      jumpi\n        /* \"--CODEGEN--\":391:392   */\n      0x00\n        /* \"--CODEGEN--\":388:389   */\n      dup1\n        /* \"--CODEGEN--\":381:393   */\n      revert\n        /* \"--CODEGEN--\":350:352   */\n    tag_26:\n        /* \"--CODEGEN--\":401:442   */\n      tag_27\n        /* \"--CODEGEN--\":435:441   */\n      dup4\n        /* \"--CODEGEN--\":430:433   */\n      dup3\n        /* \"--CODEGEN--\":425:428   */\n      dup5\n        /* \"--CODEGEN--\":401:442   */\n      jump(tag_28)\n    tag_27:\n        /* \"--CODEGEN--\":68:448   */\n      pop\n      pop\n      pop\n      swap3\n      swap2\n      pop\n      pop\n      jump\n        /* \"--CODEGEN--\":456:803   */\n    tag_6:\n      0x00\n        /* \"--CODEGEN--\":570:572   */\n      0x20\n        /* \"--CODEGEN--\":558:567   */\n      dup3\n        /* \"--CODEGEN--\":549:556   */\n      dup5\n        /* \"--CODEGEN--\":545:568   */\n      sub\n        /* \"--CODEGEN--\":541:573   */\n      slt\n        /* \"--CODEGEN--\":538:540   */\n      iszero\n      tag_30\n      jumpi\n        /* \"--CODEGEN--\":586:587   */\n      0x00\n        /* \"--CODEGEN--\":583:584   */\n      dup1\n        /* \"--CODEGEN--\":576:588   */\n      revert\n        /* \"--CODEGEN--\":538:540   */\n    tag_30:\n        /* \"--CODEGEN--\":649:650   */\n      0x00\n        /* \"--CODEGEN--\":638:647   */\n      dup3\n        /* \"--CODEGEN--\":634:651   */\n      add\n        /* \"--CODEGEN--\":621:652   */\n      calldataload\n        /* \"--CODEGEN--\":672:690   */\n      0xffffffffffffffff\n        /* \"--CODEGEN--\":664:670   */\n      dup2\n        /* \"--CODEGEN--\":661:691   */\n      gt\n        /* \"--CODEGEN--\":658:660   */\n      iszero\n      tag_31\n      jumpi\n        /* \"--CODEGEN--\":704:705   */\n      0x00\n        /* \"--CODEGEN--\":701:702   */\n      dup1\n        /* \"--CODEGEN--\":694:706   */\n      revert\n        /* \"--CODEGEN--\":658:660   */\n    tag_31:\n        /* \"--CODEGEN--\":724:787   */\n      tag_32\n        /* \"--CODEGEN--\":779:786   */\n      dup5\n        /* \"--CODEGEN--\":770:776   */\n      dup3\n        /* \"--CODEGEN--\":759:768   */\n      dup6\n        /* \"--CODEGEN--\":755:777   */\n      add\n        /* \"--CODEGEN--\":724:787   */\n      jump(tag_19)\n    tag_32:\n        /* \"--CODEGEN--\":714:787   */\n      swap2\n      pop\n        /* \"--CODEGEN--\":600:793   */\n      pop\n        /* \"--CODEGEN--\":532:803   */\n      swap3\n      swap2\n      pop\n      pop\n      jump\n        /* \"--CODEGEN--\":810:1157   */\n    tag_33:\n      0x00\n        /* \"--CODEGEN--\":922:961   */\n      tag_35\n        /* \"--CODEGEN--\":955:960   */\n      dup3\n        /* \"--CODEGEN--\":922:961   */\n      jump(tag_36)\n    tag_35:\n        /* \"--CODEGEN--\":973:1044   */\n      tag_37\n        /* \"--CODEGEN--\":1037:1043   */\n      dup2\n        /* \"--CODEGEN--\":1032:1035   */\n      dup6\n        /* \"--CODEGEN--\":973:1044   */\n      jump(tag_38)\n    tag_37:\n        /* \"--CODEGEN--\":966:1044   */\n      swap4\n      pop\n        /* \"--CODEGEN--\":1049:1101   */\n      tag_39\n        /* \"--CODEGEN--\":1094:1100   */\n      dup2\n        /* \"--CODEGEN--\":1089:1092   */\n      dup6\n        /* \"--CODEGEN--\":1082:1086   */\n      0x20\n        /* \"--CODEGEN--\":1075:1080   */\n      dup7\n        /* \"--CODEGEN--\":1071:1087   */\n      add\n        /* \"--CODEGEN--\":1049:1101   */\n      jump(tag_40)\n    tag_39:\n        /* \"--CODEGEN--\":1122:1151   */\n      tag_41\n        /* \"--CODEGEN--\":1144:1150   */\n      dup2\n        /* \"--CODEGEN--\":1122:1151   */\n      jump(tag_42)\n    tag_41:\n        /* \"--CODEGEN--\":1117:1120   */\n      dup5\n        /* \"--CODEGEN--\":1113:1152   */\n      add\n        /* \"--CODEGEN--\":1106:1152   */\n      swap2\n      pop\n        /* \"--CODEGEN--\":902:1157   */\n      pop\n      swap3\n      swap2\n      pop\n      pop\n      jump\n        /* \"--CODEGEN--\":1164:1524   */\n    tag_43:\n      0x00\n        /* \"--CODEGEN--\":1294:1333   */\n      tag_45\n        /* \"--CODEGEN--\":1327:1332   */\n      dup3\n        /* \"--CODEGEN--\":1294:1333   */\n      jump(tag_36)\n    tag_45:\n        /* \"--CODEGEN--\":1345:1434   */\n      tag_46\n        /* \"--CODEGEN--\":1427:1433   */\n      dup2\n        /* \"--CODEGEN--\":1422:1425   */\n      dup6\n        /* \"--CODEGEN--\":1345:1434   */\n      jump(tag_47)\n    tag_46:\n        /* \"--CODEGEN--\":1338:1434   */\n      swap4\n      pop\n        /* \"--CODEGEN--\":1439:1491   */\n      tag_48\n        /* \"--CODEGEN--\":1484:1490   */\n      dup2\n        /* \"--CODEGEN--\":1479:1482   */\n      dup6\n        /* \"--CODEGEN--\":1472:1476   */\n      0x20\n        /* \"--CODEGEN--\":1465:1470   */\n      dup7\n        /* \"--CODEGEN--\":1461:1477   */\n      add\n        /* \"--CODEGEN--\":1439:1491   */\n      jump(tag_40)\n    tag_48:\n        /* \"--CODEGEN--\":1512:1518   */\n      dup1\n        /* \"--CODEGEN--\":1507:1510   */\n      dup5\n        /* \"--CODEGEN--\":1503:1519   */\n      add\n        /* \"--CODEGEN--\":1496:1519   */\n      swap2\n      pop\n        /* \"--CODEGEN--\":1274:1524   */\n      pop\n      swap3\n      swap2\n      pop\n      pop\n      jump\n        /* \"--CODEGEN--\":1532:1896   */\n    tag_49:\n      0x00\n        /* \"--CODEGEN--\":1692:1759   */\n      tag_51\n        /* \"--CODEGEN--\":1756:1758   */\n      0x16\n        /* \"--CODEGEN--\":1751:1754   */\n      dup4\n        /* \"--CODEGEN--\":1692:1759   */\n      jump(tag_38)\n    tag_51:\n        /* \"--CODEGEN--\":1685:1759   */\n      swap2\n      pop\n        /* \"--CODEGEN--\":1792:1858   */\n      0x436f6e7472617365c3b16120696e636f72726563746100000000000000000000\n        /* \"--CODEGEN--\":1788:1789   */\n      0x00\n        /* \"--CODEGEN--\":1783:1786   */\n      dup4\n        /* \"--CODEGEN--\":1779:1790   */\n      add\n        /* \"--CODEGEN--\":1772:1859   */\n      mstore\n        /* \"--CODEGEN--\":1887:1889   */\n      0x20\n        /* \"--CODEGEN--\":1882:1885   */\n      dup3\n        /* \"--CODEGEN--\":1878:1890   */\n      add\n        /* \"--CODEGEN--\":1871:1890   */\n      swap1\n      pop\n        /* \"--CODEGEN--\":1678:1896   */\n      swap2\n      swap1\n      pop\n      jump\n        /* \"--CODEGEN--\":1905:2245   */\n    tag_52:\n      0x00\n        /* \"--CODEGEN--\":2083:2167   */\n      tag_54\n        /* \"--CODEGEN--\":2165:2166   */\n      0x06\n        /* \"--CODEGEN--\":2160:2163   */\n      dup4\n        /* \"--CODEGEN--\":2083:2167   */\n      jump(tag_47)\n    tag_54:\n        /* \"--CODEGEN--\":2076:2167   */\n      swap2\n      pop\n        /* \"--CODEGEN--\":2200:2208   */\n      0x3132333435360000000000000000000000000000000000000000000000000000\n        /* \"--CODEGEN--\":2196:2197   */\n      0x00\n        /* \"--CODEGEN--\":2191:2194   */\n      dup4\n        /* \"--CODEGEN--\":2187:2198   */\n      add\n        /* \"--CODEGEN--\":2180:2209   */\n      mstore\n        /* \"--CODEGEN--\":2237:2238   */\n      0x06\n        /* \"--CODEGEN--\":2232:2235   */\n      dup3\n        /* \"--CODEGEN--\":2228:2239   */\n      add\n        /* \"--CODEGEN--\":2221:2239   */\n      swap1\n      pop\n        /* \"--CODEGEN--\":2069:2245   */\n      swap2\n      swap1\n      pop\n      jump\n        /* \"--CODEGEN--\":2253:2519   */\n    tag_14:\n      0x00\n        /* \"--CODEGEN--\":2399:2494   */\n      tag_56\n        /* \"--CODEGEN--\":2490:2493   */\n      dup3\n        /* \"--CODEGEN--\":2481:2487   */\n      dup5\n        /* \"--CODEGEN--\":2399:2494   */\n      jump(tag_43)\n    tag_56:\n        /* \"--CODEGEN--\":2392:2494   */\n      swap2\n      pop\n        /* \"--CODEGEN--\":2511:2514   */\n      dup2\n        /* \"--CODEGEN--\":2504:2514   */\n      swap1\n      pop\n        /* \"--CODEGEN--\":2380:2519   */\n      swap3\n      swap2\n      pop\n      pop\n      jump\n        /* \"--CODEGEN--\":2526:2898   */\n    tag_12:\n      0x00\n        /* \"--CODEGEN--\":2725:2873   */\n      tag_58\n        /* \"--CODEGEN--\":2869:2872   */\n      dup3\n        /* \"--CODEGEN--\":2725:2873   */\n      jump(tag_52)\n    tag_58:\n        /* \"--CODEGEN--\":2718:2873   */\n      swap2\n      pop\n        /* \"--CODEGEN--\":2890:2893   */\n      dup2\n        /* \"--CODEGEN--\":2883:2893   */\n      swap1\n      pop\n        /* \"--CODEGEN--\":2706:2898   */\n      swap2\n      swap1\n      pop\n      jump\n        /* \"--CODEGEN--\":2905:3206   */\n    tag_9:\n      0x00\n        /* \"--CODEGEN--\":3043:3045   */\n      0x20\n        /* \"--CODEGEN--\":3032:3041   */\n      dup3\n        /* \"--CODEGEN--\":3028:3046   */\n      add\n        /* \"--CODEGEN--\":3020:3046   */\n      swap1\n      pop\n        /* \"--CODEGEN--\":3093:3102   */\n      dup2\n        /* \"--CODEGEN--\":3087:3091   */\n      dup2\n        /* \"--CODEGEN--\":3083:3103   */\n      sub\n        /* \"--CODEGEN--\":3079:3080   */\n      0x00\n        /* \"--CODEGEN--\":3068:3077   */\n      dup4\n        /* \"--CODEGEN--\":3064:3081   */\n      add\n        /* \"--CODEGEN--\":3057:3104   */\n      mstore\n        /* \"--CODEGEN--\":3118:3196   */\n      tag_60\n        /* \"--CODEGEN--\":3191:3195   */\n      dup2\n        /* \"--CODEGEN--\":3182:3188   */\n      dup5\n        /* \"--CODEGEN--\":3118:3196   */\n      jump(tag_33)\n    tag_60:\n        /* \"--CODEGEN--\":3110:3196   */\n      swap1\n      pop\n        /* \"--CODEGEN--\":3014:3206   */\n      swap3\n      swap2\n      pop\n      pop\n      jump\n        /* \"--CODEGEN--\":3213:3620   */\n    tag_17:\n      0x00\n        /* \"--CODEGEN--\":3404:3406   */\n      0x20\n        /* \"--CODEGEN--\":3393:3402   */\n      dup3\n        /* \"--CODEGEN--\":3389:3407   */\n      add\n        /* \"--CODEGEN--\":3381:3407   */\n      swap1\n      pop\n        /* \"--CODEGEN--\":3454:3463   */\n      dup2\n        /* \"--CODEGEN--\":3448:3452   */\n      dup2\n        /* \"--CODEGEN--\":3444:3464   */\n      sub\n        /* \"--CODEGEN--\":3440:3441   */\n      0x00\n        /* \"--CODEGEN--\":3429:3438   */\n      dup4\n        /* \"--CODEGEN--\":3425:3442   */\n      add\n        /* \"--CODEGEN--\":3418:3465   */\n      mstore\n        /* \"--CODEGEN--\":3479:3610   */\n      tag_62\n        /* \"--CODEGEN--\":3605:3609   */\n      dup2\n        /* \"--CODEGEN--\":3479:3610   */\n      jump(tag_49)\n    tag_62:\n        /* \"--CODEGEN--\":3471:3610   */\n      swap1\n      pop\n        /* \"--CODEGEN--\":3375:3620   */\n      swap2\n      swap1\n      pop\n      jump\n        /* \"--CODEGEN--\":3627:3883   */\n    tag_25:\n      0x00\n        /* \"--CODEGEN--\":3689:3691   */\n      0x40\n        /* \"--CODEGEN--\":3683:3692   */\n      mload\n        /* \"--CODEGEN--\":3673:3692   */\n      swap1\n      pop\n        /* \"--CODEGEN--\":3727:3731   */\n      dup2\n        /* \"--CODEGEN--\":3719:3725   */\n      dup2\n        /* \"--CODEGEN--\":3715:3732   */\n      add\n        /* \"--CODEGEN--\":3826:3832   */\n      dup2\n        /* \"--CODEGEN--\":3814:3824   */\n      dup2\n        /* \"--CODEGEN--\":3811:3833   */\n      lt\n        /* \"--CODEGEN--\":3790:3808   */\n      0xffffffffffffffff\n        /* \"--CODEGEN--\":3778:3788   */\n      dup3\n        /* \"--CODEGEN--\":3775:3809   */\n      gt\n        /* \"--CODEGEN--\":3772:3834   */\n      or\n        /* \"--CODEGEN--\":3769:3771   */\n      iszero\n      tag_64\n      jumpi\n        /* \"--CODEGEN--\":3847:3848   */\n      0x00\n        /* \"--CODEGEN--\":3844:3845   */\n      dup1\n        /* \"--CODEGEN--\":3837:3849   */\n      revert\n        /* \"--CODEGEN--\":3769:3771   */\n    tag_64:\n        /* \"--CODEGEN--\":3867:3877   */\n      dup1\n        /* \"--CODEGEN--\":3863:3865   */\n      0x40\n        /* \"--CODEGEN--\":3856:3878   */\n      mstore\n        /* \"--CODEGEN--\":3667:3883   */\n      pop\n      swap2\n      swap1\n      pop\n      jump\n        /* \"--CODEGEN--\":3890:4212   */\n    tag_24:\n      0x00\n        /* \"--CODEGEN--\":4034:4052   */\n      0xffffffffffffffff\n        /* \"--CODEGEN--\":4026:4032   */\n      dup3\n        /* \"--CODEGEN--\":4023:4053   */\n      gt\n        /* \"--CODEGEN--\":4020:4022   */\n      iszero\n      tag_66\n      jumpi\n        /* \"--CODEGEN--\":4066:4067   */\n      0x00\n        /* \"--CODEGEN--\":4063:4064   */\n      dup1\n        /* \"--CODEGEN--\":4056:4068   */\n      revert\n        /* \"--CODEGEN--\":4020:4022   */\n    tag_66:\n        /* \"--CODEGEN--\":4133:4137   */\n      0x1f\n        /* \"--CODEGEN--\":4129:4138   */\n      not\n        /* \"--CODEGEN--\":4122:4126   */\n      0x1f\n        /* \"--CODEGEN--\":4114:4120   */\n      dup4\n        /* \"--CODEGEN--\":4110:4127   */\n      add\n        /* \"--CODEGEN--\":4106:4139   */\n      and\n        /* \"--CODEGEN--\":4098:4139   */\n      swap1\n      pop\n        /* \"--CODEGEN--\":4197:4201   */\n      0x20\n        /* \"--CODEGEN--\":4191:4195   */\n      dup2\n        /* \"--CODEGEN--\":4187:4202   */\n      add\n        /* \"--CODEGEN--\":4179:4202   */\n      swap1\n      pop\n        /* \"--CODEGEN--\":3957:4212   */\n      swap2\n      swap1\n      pop\n      jump\n        /* \"--CODEGEN--\":4219:4341   */\n    tag_36:\n      0x00\n        /* \"--CODEGEN--\":4313:4318   */\n      dup2\n        /* \"--CODEGEN--\":4307:4319   */\n      mload\n        /* \"--CODEGEN--\":4297:4319   */\n      swap1\n      pop\n        /* \"--CODEGEN--\":4278:4341   */\n      swap2\n      swap1\n      pop\n      jump\n        /* \"--CODEGEN--\":4349:4512   */\n    tag_38:\n      0x00\n        /* \"--CODEGEN--\":4464:4470   */\n      dup3\n        /* \"--CODEGEN--\":4459:4462   */\n      dup3\n        /* \"--CODEGEN--\":4452:4471   */\n      mstore\n        /* \"--CODEGEN--\":4501:4505   */\n      0x20\n        /* \"--CODEGEN--\":4496:4499   */\n      dup3\n        /* \"--CODEGEN--\":4492:4506   */\n      add\n        /* \"--CODEGEN--\":4477:4506   */\n      swap1\n      pop\n        /* \"--CODEGEN--\":4445:4512   */\n      swap3\n      swap2\n      pop\n      pop\n      jump\n        /* \"--CODEGEN--\":4521:4666   */\n    tag_47:\n      0x00\n        /* \"--CODEGEN--\":4657:4660   */\n      dup2\n        /* \"--CODEGEN--\":4642:4660   */\n      swap1\n      pop\n        /* \"--CODEGEN--\":4635:4666   */\n      swap3\n      swap2\n      pop\n      pop\n      jump\n        /* \"--CODEGEN--\":4675:4820   */\n    tag_28:\n        /* \"--CODEGEN--\":4756:4762   */\n      dup3\n        /* \"--CODEGEN--\":4751:4754   */\n      dup2\n        /* \"--CODEGEN--\":4746:4749   */\n      dup4\n        /* \"--CODEGEN--\":4733:4763   */\n      calldatacopy\n        /* \"--CODEGEN--\":4812:4813   */\n      0x00\n        /* \"--CODEGEN--\":4803:4809   */\n      dup4\n        /* \"--CODEGEN--\":4798:4801   */\n      dup4\n        /* \"--CODEGEN--\":4794:4810   */\n      add\n        /* \"--CODEGEN--\":4787:4814   */\n      mstore\n        /* \"--CODEGEN--\":4726:4820   */\n      pop\n      pop\n      pop\n      jump\n        /* \"--CODEGEN--\":4829:5097   */\n    tag_40:\n        /* \"--CODEGEN--\":4894:4895   */\n      0x00\n        /* \"--CODEGEN--\":4901:5002   */\n    tag_72:\n        /* \"--CODEGEN--\":4915:4921   */\n      dup4\n        /* \"--CODEGEN--\":4912:4913   */\n      dup2\n        /* \"--CODEGEN--\":4909:4922   */\n      lt\n        /* \"--CODEGEN--\":4901:5002   */\n      iszero\n      tag_74\n      jumpi\n        /* \"--CODEGEN--\":4991:4992   */\n      dup1\n        /* \"--CODEGEN--\":4986:4989   */\n      dup3\n        /* \"--CODEGEN--\":4982:4993   */\n      add\n        /* \"--CODEGEN--\":4976:4994   */\n      mload\n        /* \"--CODEGEN--\":4972:4973   */\n      dup2\n        /* \"--CODEGEN--\":4967:4970   */\n      dup5\n        /* \"--CODEGEN--\":4963:4974   */\n      add\n        /* \"--CODEGEN--\":4956:4995   */\n      mstore\n        /* \"--CODEGEN--\":4937:4939   */\n      0x20\n        /* \"--CODEGEN--\":4934:4935   */\n      dup2\n        /* \"--CODEGEN--\":4930:4940   */\n      add\n        /* \"--CODEGEN--\":4925:4940   */\n      swap1\n      pop\n        /* \"--CODEGEN--\":4901:5002   */\n      jump(tag_72)\n    tag_74:\n        /* \"--CODEGEN--\":5017:5023   */\n      dup4\n        /* \"--CODEGEN--\":5014:5015   */\n      dup2\n        /* \"--CODEGEN--\":5011:5024   */\n      gt\n        /* \"--CODEGEN--\":5008:5010   */\n      iszero\n      tag_75\n      jumpi\n        /* \"--CODEGEN--\":5082:5083   */\n      0x00\n        /* \"--CODEGEN--\":5073:5079   */\n      dup5\n        /* \"--CODEGEN--\":5068:5071   */\n      dup5\n        /* \"--CODEGEN--\":5064:5080   */\n      add\n        /* \"--CODEGEN--\":5057:5084   */\n      mstore\n        /* \"--CODEGEN--\":5008:5010   */\n    tag_75:\n        /* \"--CODEGEN--\":4878:5097   */\n      pop\n      pop\n      pop\n      pop\n      jump\n        /* \"--CODEGEN--\":5105:5202   */\n    tag_42:\n      0x00\n        /* \"--CODEGEN--\":5193:5195   */\n      0x1f\n        /* \"--CODEGEN--\":5189:5196   */\n      not\n        /* \"--CODEGEN--\":5184:5186   */\n      0x1f\n        /* \"--CODEGEN--\":5177:5182   */\n      dup4\n        /* \"--CODEGEN--\":5173:5187   */\n      add\n        /* \"--CODEGEN--\":5169:5197   */\n      and\n        /* \"--CODEGEN--\":5159:5197   */\n      swap1\n      pop\n        /* \"--CODEGEN--\":5153:5202   */\n      swap2\n      swap1\n      pop\n      jump\n\n    auxdata: 0xa26469706673582212203fcfcd7b38f2a4ea4be557019bd1964b07186bb8d74250213eef4834c3f8622c64736f6c63430006050033\n}\n",
				"bytecode": {
					"linkReferences": {},
					"object": "608060405234801561001057600080fd5b50610421806100206000396000f3fe608060405234801561001057600080fd5b506004361061002b5760003560e01c806371d3f37a14610030575b600080fd5b61004a6004803603810190610045919061017f565b610060565b60405161005791906102d6565b60405180910390f35b6060604051602001610071906102c1565b604051602081830303815290604052805190602001208260405160200161009891906102aa565b60405160208183030381529060405280519060200120146100ee576040517f08c379a00000000000000000000000000000000000000000000000000000000081526004016100e5906102f8565b60405180910390fd5b6040518060400160405280601481526020017f436f6e7472617365c3b16120436f7272656374610000000000000000000000008152509050919050565b600082601f83011261013c57600080fd5b813561014f61014a82610345565b610318565b9150808252602083016020830185838301111561016b57600080fd5b610176838284610398565b50505092915050565b60006020828403121561019157600080fd5b600082013567ffffffffffffffff8111156101ab57600080fd5b6101b78482850161012b565b91505092915050565b60006101cb82610371565b6101d5818561037c565b93506101e58185602086016103a7565b6101ee816103da565b840191505092915050565b600061020482610371565b61020e818561038d565b935061021e8185602086016103a7565b80840191505092915050565b600061023760168361037c565b91507f436f6e7472617365c3b16120696e636f727265637461000000000000000000006000830152602082019050919050565b600061027760068361038d565b91507f31323334353600000000000000000000000000000000000000000000000000006000830152600682019050919050565b60006102b682846101f9565b915081905092915050565b60006102cc8261026a565b9150819050919050565b600060208201905081810360008301526102f081846101c0565b905092915050565b600060208201905081810360008301526103118161022a565b9050919050565b6000604051905081810181811067ffffffffffffffff8211171561033b57600080fd5b8060405250919050565b600067ffffffffffffffff82111561035c57600080fd5b601f19601f8301169050602081019050919050565b600081519050919050565b600082825260208201905092915050565b600081905092915050565b82818337600083830152505050565b60005b838110156103c55780820151818401526020810190506103aa565b838111156103d4576000848401525b50505050565b6000601f19601f830116905091905056fea26469706673582212203fcfcd7b38f2a4ea4be557019bd1964b07186bb8d74250213eef4834c3f8622c64736f6c63430006050033",
					"opcodes": "PUSH1 0x80 PUSH1 0x40 MSTORE CALLVALUE DUP1 ISZERO PUSH2 0x10 JUMPI PUSH1 0x0 DUP1 REVERT JUMPDEST POP PUSH2 0x421 DUP1 PUSH2 0x20 PUSH1 0x0 CODECOPY PUSH1 0x0 RETURN INVALID PUSH1 0x80 PUSH1 0x40 MSTORE CALLVALUE DUP1 ISZERO PUSH2 0x10 JUMPI PUSH1 0x0 DUP1 REVERT JUMPDEST POP PUSH1 0x4 CALLDATASIZE LT PUSH2 0x2B JUMPI PUSH1 0x0 CALLDATALOAD PUSH1 0xE0 SHR DUP1 PUSH4 0x71D3F37A EQ PUSH2 0x30 JUMPI JUMPDEST PUSH1 0x0 DUP1 REVERT JUMPDEST PUSH2 0x4A PUSH1 0x4 DUP1 CALLDATASIZE SUB DUP2 ADD SWAP1 PUSH2 0x45 SWAP2 SWAP1 PUSH2 0x17F JUMP JUMPDEST PUSH2 0x60 JUMP JUMPDEST PUSH1 0x40 MLOAD PUSH2 0x57 SWAP2 SWAP1 PUSH2 0x2D6 JUMP JUMPDEST PUSH1 0x40 MLOAD DUP1 SWAP2 SUB SWAP1 RETURN JUMPDEST PUSH1 0x60 PUSH1 0x40 MLOAD PUSH1 0x20 ADD PUSH2 0x71 SWAP1 PUSH2 0x2C1 JUMP JUMPDEST PUSH1 0x40 MLOAD PUSH1 0x20 DUP2 DUP4 SUB SUB DUP2 MSTORE SWAP1 PUSH1 0x40 MSTORE DUP1 MLOAD SWAP1 PUSH1 0x20 ADD KECCAK256 DUP3 PUSH1 0x40 MLOAD PUSH1 0x20 ADD PUSH2 0x98 SWAP2 SWAP1 PUSH2 0x2AA JUMP JUMPDEST PUSH1 0x40 MLOAD PUSH1 0x20 DUP2 DUP4 SUB SUB DUP2 MSTORE SWAP1 PUSH1 0x40 MSTORE DUP1 MLOAD SWAP1 PUSH1 0x20 ADD KECCAK256 EQ PUSH2 0xEE JUMPI PUSH1 0x40 MLOAD PUSH32 0x8C379A000000000000000000000000000000000000000000000000000000000 DUP2 MSTORE PUSH1 0x4 ADD PUSH2 0xE5 SWAP1 PUSH2 0x2F8 JUMP JUMPDEST PUSH1 0x40 MLOAD DUP1 SWAP2 SUB SWAP1 REVERT JUMPDEST PUSH1 0x40 MLOAD DUP1 PUSH1 0x40 ADD PUSH1 0x40 MSTORE DUP1 PUSH1 0x14 DUP2 MSTORE PUSH1 0x20 ADD PUSH32 0x436F6E7472617365C3B16120436F727265637461000000000000000000000000 DUP2 MSTORE POP SWAP1 POP SWAP2 SWAP1 POP JUMP JUMPDEST PUSH1 0x0 DUP3 PUSH1 0x1F DUP4 ADD SLT PUSH2 0x13C JUMPI PUSH1 0x0 DUP1 REVERT JUMPDEST DUP2 CALLDATALOAD PUSH2 0x14F PUSH2 0x14A DUP3 PUSH2 0x345 JUMP JUMPDEST PUSH2 0x318 JUMP JUMPDEST SWAP2 POP DUP1 DUP3 MSTORE PUSH1 0x20 DUP4 ADD PUSH1 0x20 DUP4 ADD DUP6 DUP4 DUP4 ADD GT ISZERO PUSH2 0x16B JUMPI PUSH1 0x0 DUP1 REVERT JUMPDEST PUSH2 0x176 DUP4 DUP3 DUP5 PUSH2 0x398 JUMP JUMPDEST POP POP POP SWAP3 SWAP2 POP POP JUMP JUMPDEST PUSH1 0x0 PUSH1 0x20 DUP3 DUP5 SUB SLT ISZERO PUSH2 0x191 JUMPI PUSH1 0x0 DUP1 REVERT JUMPDEST PUSH1 0x0 DUP3 ADD CALLDATALOAD PUSH8 0xFFFFFFFFFFFFFFFF DUP2 GT ISZERO PUSH2 0x1AB JUMPI PUSH1 0x0 DUP1 REVERT JUMPDEST PUSH2 0x1B7 DUP5 DUP3 DUP6 ADD PUSH2 0x12B JUMP JUMPDEST SWAP2 POP POP SWAP3 SWAP2 POP POP JUMP JUMPDEST PUSH1 0x0 PUSH2 0x1CB DUP3 PUSH2 0x371 JUMP JUMPDEST PUSH2 0x1D5 DUP2 DUP6 PUSH2 0x37C JUMP JUMPDEST SWAP4 POP PUSH2 0x1E5 DUP2 DUP6 PUSH1 0x20 DUP7 ADD PUSH2 0x3A7 JUMP JUMPDEST PUSH2 0x1EE DUP2 PUSH2 0x3DA JUMP JUMPDEST DUP5 ADD SWAP2 POP POP SWAP3 SWAP2 POP POP JUMP JUMPDEST PUSH1 0x0 PUSH2 0x204 DUP3 PUSH2 0x371 JUMP JUMPDEST PUSH2 0x20E DUP2 DUP6 PUSH2 0x38D JUMP JUMPDEST SWAP4 POP PUSH2 0x21E DUP2 DUP6 PUSH1 0x20 DUP7 ADD PUSH2 0x3A7 JUMP JUMPDEST DUP1 DUP5 ADD SWAP2 POP POP SWAP3 SWAP2 POP POP JUMP JUMPDEST PUSH1 0x0 PUSH2 0x237 PUSH1 0x16 DUP4 PUSH2 0x37C JUMP JUMPDEST SWAP2 POP PUSH32 0x436F6E7472617365C3B16120696E636F72726563746100000000000000000000 PUSH1 0x0 DUP4 ADD MSTORE PUSH1 0x20 DUP3 ADD SWAP1 POP SWAP2 SWAP1 POP JUMP JUMPDEST PUSH1 0x0 PUSH2 0x277 PUSH1 0x6 DUP4 PUSH2 0x38D JUMP JUMPDEST SWAP2 POP PUSH32 0x3132333435360000000000000000000000000000000000000000000000000000 PUSH1 0x0 DUP4 ADD MSTORE PUSH1 0x6 DUP3 ADD SWAP1 POP SWAP2 SWAP1 POP JUMP JUMPDEST PUSH1 0x0 PUSH2 0x2B6 DUP3 DUP5 PUSH2 0x1F9 JUMP JUMPDEST SWAP2 POP DUP2 SWAP1 POP SWAP3 SWAP2 POP POP JUMP JUMPDEST PUSH1 0x0 PUSH2 0x2CC DUP3 PUSH2 0x26A JUMP JUMPDEST SWAP2 POP DUP2 SWAP1 POP SWAP2 SWAP1 POP JUMP JUMPDEST PUSH1 0x0 PUSH1 0x20 DUP3 ADD SWAP1 POP DUP2 DUP2 SUB PUSH1 0x0 DUP4 ADD MSTORE PUSH2 0x2F0 DUP2 DUP5 PUSH2 0x1C0 JUMP JUMPDEST SWAP1 POP SWAP3 SWAP2 POP POP JUMP JUMPDEST PUSH1 0x0 PUSH1 0x20 DUP3 ADD SWAP1 POP DUP2 DUP2 SUB PUSH1 0x0 DUP4 ADD MSTORE PUSH2 0x311 DUP2 PUSH2 0x22A JUMP JUMPDEST SWAP1 POP SWAP2 SWAP1 POP JUMP JUMPDEST PUSH1 0x0 PUSH1 0x40 MLOAD SWAP1 POP DUP2 DUP2 ADD DUP2 DUP2 LT PUSH8 0xFFFFFFFFFFFFFFFF DUP3 GT OR ISZERO PUSH2 0x33B JUMPI PUSH1 0x0 DUP1 REVERT JUMPDEST DUP1 PUSH1 0x40 MSTORE POP SWAP2 SWAP1 POP JUMP JUMPDEST PUSH1 0x0 PUSH8 0xFFFFFFFFFFFFFFFF DUP3 GT ISZERO PUSH2 0x35C JUMPI PUSH1 0x0 DUP1 REVERT JUMPDEST PUSH1 0x1F NOT PUSH1 0x1F DUP4 ADD AND SWAP1 POP PUSH1 0x20 DUP2 ADD SWAP1 POP SWAP2 SWAP1 POP JUMP JUMPDEST PUSH1 0x0 DUP2 MLOAD SWAP1 POP SWAP2 SWAP1 POP JUMP JUMPDEST PUSH1 0x0 DUP3 DUP3 MSTORE PUSH1 0x20 DUP3 ADD SWAP1 POP SWAP3 SWAP2 POP POP JUMP JUMPDEST PUSH1 0x0 DUP2 SWAP1 POP SWAP3 SWAP2 POP POP JUMP JUMPDEST DUP3 DUP2 DUP4 CALLDATACOPY PUSH1 0x0 DUP4 DUP4 ADD MSTORE POP POP POP JUMP JUMPDEST PUSH1 0x0 JUMPDEST DUP4 DUP2 LT ISZERO PUSH2 0x3C5 JUMPI DUP1 DUP3 ADD MLOAD DUP2 DUP5 ADD MSTORE PUSH1 0x20 DUP2 ADD SWAP1 POP PUSH2 0x3AA JUMP JUMPDEST DUP4 DUP2 GT ISZERO PUSH2 0x3D4 JUMPI PUSH1 0x0 DUP5 DUP5 ADD MSTORE JUMPDEST POP POP POP POP JUMP JUMPDEST PUSH1 0x0 PUSH1 0x1F NOT PUSH1 0x1F DUP4 ADD AND SWAP1 POP SWAP2 SWAP1 POP JUMP INVALID LOG2 PUSH5 0x6970667358 0x22 SLT KECCAK256 EXTCODEHASH 0xCF 0xCD PUSH28 0x38F2A4EA4BE557019BD1964B07186BB8D74250213EEF4834C3F8622C PUSH5 0x736F6C6343 STOP MOD SDIV STOP CALLER "
				},
				"gasEstimates": {
					"creation": {
						"codeDepositCost": "211400",
						"executionCost": "257",
						"totalCost": "211657"
					},
					"external": {
						"password(string)": "infinite"
					}
				},
				"methodIdentifiers": {
					"password(string)": "71d3f37a"
				}
			},
			"storageLayout": {
				"storage": [],
				"types": null
			},
			"userdoc": {
				"methods": {}
			}
		}
	}
}