{
	"Funciones avanzadas/require.sol": {
		"Require": {
			"abi": [
				{
					"inputs": [],
					"name": "cartera",
					"outputs": [
						{
							"internalType": "uint256",
							"name": "",
							"type": "uint256"
						}
					],
					"stateMutability": "view",
					"type": "function"
				},
				{
					"inputs": [
						{
							"internalType": "string",
							"name": "_nombre",
							"type": "string"
						}
					],
					"name": "nuevoNombre",
					"outputs": [],
					"stateMutability": "nonpayable",
					"type": "function"
				},
				{
					"inputs": [
						{
							"internalType": "uint256",
							"name": "_cantidad",
							"type": "uint256"
						}
					],
					"name": "pagar",
					"outputs": [
						{
							"internalType": "uint256",
							"name": "",
							"type": "uint256"
						}
					],
					"stateMutability": "nonpayable",
					"type": "function"
				},
				{
					"inputs": [
						{
							"internalType": "string",
							"name": "_password",
							"type": "string"
						}
					],
					"name": "password",
					"outputs": [
						{
							"internalType": "string",
							"name": "",
							"type": "string"
						}
					],
					"stateMutability": "pure",
					"type": "function"
				}
			],
			"devdoc": {
				"methods": {}
			},
			"evm": {
				"assembly": "    /* \"Funciones avanzadas/require.sol\":98:1030  contract Require{\r... */\n  mstore(0x40, 0x80)\n    /* \"Funciones avanzadas/require.sol\":479:480  0 */\n  0x00\n    /* \"Funciones avanzadas/require.sol\":457:480  uint public cartera = 0 */\n  dup1\n  sstore\n    /* \"Funciones avanzadas/require.sol\":501:502  0 */\n  0x00\n    /* \"Funciones avanzadas/require.sol\":487:502  uint tiempo = 0 */\n  0x01\n  sstore\n    /* \"Funciones avanzadas/require.sol\":98:1030  contract Require{\r... */\n  callvalue\n    /* \"--CODEGEN--\":5:14   */\n  dup1\n    /* \"--CODEGEN--\":2:4   */\n  iszero\n  tag_1\n  jumpi\n    /* \"--CODEGEN--\":27:28   */\n  0x00\n    /* \"--CODEGEN--\":24:25   */\n  dup1\n    /* \"--CODEGEN--\":17:29   */\n  revert\n    /* \"--CODEGEN--\":2:4   */\ntag_1:\n    /* \"Funciones avanzadas/require.sol\":98:1030  contract Require{\r... */\n  pop\n  dataSize(sub_0)\n  dup1\n  dataOffset(sub_0)\n  0x00\n  codecopy\n  0x00\n  return\nstop\n\nsub_0: assembly {\n        /* \"Funciones avanzadas/require.sol\":98:1030  contract Require{\r... */\n      mstore(0x40, 0x80)\n      callvalue\n        /* \"--CODEGEN--\":5:14   */\n      dup1\n        /* \"--CODEGEN--\":2:4   */\n      iszero\n      tag_1\n      jumpi\n        /* \"--CODEGEN--\":27:28   */\n      0x00\n        /* \"--CODEGEN--\":24:25   */\n      dup1\n        /* \"--CODEGEN--\":17:29   */\n      revert\n        /* \"--CODEGEN--\":2:4   */\n    tag_1:\n        /* \"Funciones avanzadas/require.sol\":98:1030  contract Require{\r... */\n      pop\n      jumpi(tag_2, lt(calldatasize, 0x04))\n      shr(0xe0, calldataload(0x00))\n      dup1\n      0x3aa6d208\n      eq\n      tag_3\n      jumpi\n      dup1\n      0x694b9d34\n      eq\n      tag_4\n      jumpi\n      dup1\n      0x71d3f37a\n      eq\n      tag_5\n      jumpi\n      dup1\n      0xf8f552b4\n      eq\n      tag_6\n      jumpi\n    tag_2:\n        /* \"--CODEGEN--\":12:13   */\n      0x00\n        /* \"--CODEGEN--\":9:10   */\n      dup1\n        /* \"--CODEGEN--\":2:14   */\n      revert\n        /* \"Funciones avanzadas/require.sol\":509:715  function pagar(uint _cantidad) public returns(uint){\r... */\n    tag_3:\n      tag_7\n      0x04\n      dup1\n      calldatasize\n      sub\n      dup2\n      add\n      swap1\n      tag_8\n      swap2\n      swap1\n      jump(tag_9)\n    tag_8:\n      tag_10\n      jump\t// in\n    tag_7:\n      mload(0x40)\n      tag_11\n      swap2\n      swap1\n      jump(tag_12)\n    tag_11:\n      mload(0x40)\n      dup1\n      swap2\n      sub\n      swap1\n      return\n        /* \"Funciones avanzadas/require.sol\":457:480  uint public cartera = 0 */\n    tag_4:\n      tag_13\n      tag_14\n      jump\t// in\n    tag_13:\n      mload(0x40)\n      tag_15\n      swap2\n      swap1\n      jump(tag_12)\n    tag_15:\n      mload(0x40)\n      dup1\n      swap2\n      sub\n      swap1\n      return\n        /* \"Funciones avanzadas/require.sol\":167:421  function password(string memory _password) public pure returns (string memory) {\r... */\n    tag_5:\n      tag_16\n      0x04\n      dup1\n      calldatasize\n      sub\n      dup2\n      add\n      swap1\n      tag_17\n      swap2\n      swap1\n      jump(tag_18)\n    tag_17:\n      tag_19\n      jump\t// in\n    tag_16:\n      mload(0x40)\n      tag_20\n      swap2\n      swap1\n      jump(tag_21)\n    tag_20:\n      mload(0x40)\n      dup1\n      swap2\n      sub\n      swap1\n      return\n        /* \"Funciones avanzadas/require.sol\":749:1023  function nuevoNombre(string memory _nombre) public{\r... */\n    tag_6:\n      tag_22\n      0x04\n      dup1\n      calldatasize\n      sub\n      dup2\n      add\n      swap1\n      tag_23\n      swap2\n      swap1\n      jump(tag_18)\n    tag_23:\n      tag_24\n      jump\t// in\n    tag_22:\n      stop\n        /* \"Funciones avanzadas/require.sol\":509:715  function pagar(uint _cantidad) public returns(uint){\r... */\n    tag_10:\n        /* \"Funciones avanzadas/require.sol\":555:559  uint */\n      0x00\n        /* \"Funciones avanzadas/require.sol\":593:602  5 seconds */\n      0x05\n        /* \"Funciones avanzadas/require.sol\":584:590  tiempo */\n      sload(0x01)\n        /* \"Funciones avanzadas/require.sol\":584:602  tiempo + 5 seconds */\n      add\n        /* \"Funciones avanzadas/require.sol\":579:582  now */\n      timestamp\n        /* \"Funciones avanzadas/require.sol\":579:602  now> tiempo + 5 seconds */\n      gt\n        /* \"Funciones avanzadas/require.sol\":571:626  require(now> tiempo + 5 seconds,\"Aún no puedes pagar\") */\n      tag_26\n      jumpi\n      mload(0x40)\n      0x08c379a000000000000000000000000000000000000000000000000000000000\n      dup2\n      mstore\n      0x04\n      add\n      tag_27\n      swap1\n      jump(tag_28)\n    tag_27:\n      mload(0x40)\n      dup1\n      swap2\n      sub\n      swap1\n      revert\n    tag_26:\n        /* \"Funciones avanzadas/require.sol\":646:649  now */\n      timestamp\n        /* \"Funciones avanzadas/require.sol\":637:643  tiempo */\n      0x01\n        /* \"Funciones avanzadas/require.sol\":637:649  tiempo = now */\n      dup2\n      swap1\n      sstore\n      pop\n        /* \"Funciones avanzadas/require.sol\":671:680  _cantidad */\n      dup2\n        /* \"Funciones avanzadas/require.sol\":660:667  cartera */\n      0x00\n      dup1\n        /* \"Funciones avanzadas/require.sol\":660:680  cartera += _cantidad */\n      dup3\n      dup3\n      sload\n      add\n      swap3\n      pop\n      pop\n      dup2\n      swap1\n      sstore\n      pop\n        /* \"Funciones avanzadas/require.sol\":700:707  cartera */\n      sload(0x00)\n        /* \"Funciones avanzadas/require.sol\":693:707  return cartera */\n      swap1\n      pop\n        /* \"Funciones avanzadas/require.sol\":509:715  function pagar(uint _cantidad) public returns(uint){\r... */\n      swap2\n      swap1\n      pop\n      jump\t// out\n        /* \"Funciones avanzadas/require.sol\":457:480  uint public cartera = 0 */\n    tag_14:\n      sload(0x00)\n      dup2\n      jump\t// out\n        /* \"Funciones avanzadas/require.sol\":167:421  function password(string memory _password) public pure returns (string memory) {\r... */\n    tag_19:\n        /* \"Funciones avanzadas/require.sol\":231:244  string memory */\n      0x60\n        /* \"Funciones avanzadas/require.sol\":318:344  abi.encodePacked(\"123456\") */\n      add(0x20, mload(0x40))\n      tag_30\n      swap1\n      jump(tag_31)\n    tag_30:\n      mload(0x40)\n        /* \"--CODEGEN--\":49:53   */\n      0x20\n        /* \"--CODEGEN--\":39:46   */\n      dup2\n        /* \"--CODEGEN--\":30:37   */\n      dup4\n        /* \"--CODEGEN--\":26:47   */\n      sub\n        /* \"--CODEGEN--\":22:54   */\n      sub\n        /* \"--CODEGEN--\":13:20   */\n      dup2\n        /* \"--CODEGEN--\":6:55   */\n      mstore\n        /* \"Funciones avanzadas/require.sol\":318:344  abi.encodePacked(\"123456\") */\n      swap1\n      0x40\n      mstore\n        /* \"Funciones avanzadas/require.sol\":308:345  keccak256(abi.encodePacked(\"123456\")) */\n      dup1\n      mload\n      swap1\n      0x20\n      add\n      keccak256\n        /* \"Funciones avanzadas/require.sol\":293:302  _password */\n      dup3\n        /* \"Funciones avanzadas/require.sol\":276:303  abi.encodePacked(_password) */\n      add(0x20, mload(0x40))\n      tag_32\n      swap2\n      swap1\n      jump(tag_33)\n    tag_32:\n      mload(0x40)\n        /* \"--CODEGEN--\":49:53   */\n      0x20\n        /* \"--CODEGEN--\":39:46   */\n      dup2\n        /* \"--CODEGEN--\":30:37   */\n      dup4\n        /* \"--CODEGEN--\":26:47   */\n      sub\n        /* \"--CODEGEN--\":22:54   */\n      sub\n        /* \"--CODEGEN--\":13:20   */\n      dup2\n        /* \"--CODEGEN--\":6:55   */\n      mstore\n        /* \"Funciones avanzadas/require.sol\":276:303  abi.encodePacked(_password) */\n      swap1\n      0x40\n      mstore\n        /* \"Funciones avanzadas/require.sol\":266:304  keccak256(abi.encodePacked(_password)) */\n      dup1\n      mload\n      swap1\n      0x20\n      add\n      keccak256\n        /* \"Funciones avanzadas/require.sol\":266:345  keccak256(abi.encodePacked(_password)) == keccak256(abi.encodePacked(\"123456\")) */\n      eq\n        /* \"Funciones avanzadas/require.sol\":257:373  require((keccak256(abi.encodePacked(_password)) == keccak256(abi.encodePacked(\"123456\"))), \"Contraseña incorrecta\") */\n      tag_34\n      jumpi\n      mload(0x40)\n      0x08c379a000000000000000000000000000000000000000000000000000000000\n      dup2\n      mstore\n      0x04\n      add\n      tag_35\n      swap1\n      jump(tag_36)\n    tag_35:\n      mload(0x40)\n      dup1\n      swap2\n      sub\n      swap1\n      revert\n    tag_34:\n        /* \"Funciones avanzadas/require.sol\":384:413  return \"Contraseña Correcta\" */\n      mload(0x40)\n      dup1\n      0x40\n      add\n      0x40\n      mstore\n      dup1\n      0x14\n      dup2\n      mstore\n      0x20\n      add\n      0x436f6e7472617365c3b16120436f727265637461000000000000000000000000\n      dup2\n      mstore\n      pop\n      swap1\n      pop\n        /* \"Funciones avanzadas/require.sol\":167:421  function password(string memory _password) public pure returns (string memory) {\r... */\n      swap2\n      swap1\n      pop\n      jump\t// out\n        /* \"Funciones avanzadas/require.sol\":749:1023  function nuevoNombre(string memory _nombre) public{\r... */\n    tag_24:\n        /* \"Funciones avanzadas/require.sol\":814:820  uint i */\n      0x00\n        /* \"Funciones avanzadas/require.sol\":821:822  0 */\n      dup1\n        /* \"Funciones avanzadas/require.sol\":814:822  uint i=0 */\n      swap1\n      pop\n        /* \"Funciones avanzadas/require.sol\":810:984  for(uint i=0; i<nombres.length;i++){\r... */\n    tag_38:\n        /* \"Funciones avanzadas/require.sol\":826:833  nombres */\n      0x02\n        /* \"Funciones avanzadas/require.sol\":826:840  nombres.length */\n      dup1\n      sload\n      swap1\n      pop\n        /* \"Funciones avanzadas/require.sol\":824:825  i */\n      dup2\n        /* \"Funciones avanzadas/require.sol\":824:840  i<nombres.length */\n      lt\n        /* \"Funciones avanzadas/require.sol\":810:984  for(uint i=0; i<nombres.length;i++){\r... */\n      iszero\n      tag_39\n      jumpi\n        /* \"Funciones avanzadas/require.sol\":936:943  nombres */\n      0x02\n        /* \"Funciones avanzadas/require.sol\":944:945  i */\n      dup2\n        /* \"Funciones avanzadas/require.sol\":936:946  nombres[i] */\n      dup2\n      sload\n      dup2\n      lt\n      tag_41\n      jumpi\n      invalid\n    tag_41:\n      swap1\n      0x00\n      mstore\n      keccak256(0x00, 0x20)\n      add\n        /* \"Funciones avanzadas/require.sol\":919:947  abi.encodePacked(nombres[i]) */\n      add(0x20, mload(0x40))\n      tag_43\n      swap2\n      swap1\n      jump(tag_44)\n    tag_43:\n      mload(0x40)\n        /* \"--CODEGEN--\":49:53   */\n      0x20\n        /* \"--CODEGEN--\":39:46   */\n      dup2\n        /* \"--CODEGEN--\":30:37   */\n      dup4\n        /* \"--CODEGEN--\":26:47   */\n      sub\n        /* \"--CODEGEN--\":22:54   */\n      sub\n        /* \"--CODEGEN--\":13:20   */\n      dup2\n        /* \"--CODEGEN--\":6:55   */\n      mstore\n        /* \"Funciones avanzadas/require.sol\":919:947  abi.encodePacked(nombres[i]) */\n      swap1\n      0x40\n      mstore\n        /* \"Funciones avanzadas/require.sol\":909:948  keccak256(abi.encodePacked(nombres[i])) */\n      dup1\n      mload\n      swap1\n      0x20\n      add\n      keccak256\n        /* \"Funciones avanzadas/require.sol\":896:903  _nombre */\n      dup3\n        /* \"Funciones avanzadas/require.sol\":879:904  abi.encodePacked(_nombre) */\n      add(0x20, mload(0x40))\n      tag_45\n      swap2\n      swap1\n      jump(tag_33)\n    tag_45:\n      mload(0x40)\n        /* \"--CODEGEN--\":49:53   */\n      0x20\n        /* \"--CODEGEN--\":39:46   */\n      dup2\n        /* \"--CODEGEN--\":30:37   */\n      dup4\n        /* \"--CODEGEN--\":26:47   */\n      sub\n        /* \"--CODEGEN--\":22:54   */\n      sub\n        /* \"--CODEGEN--\":13:20   */\n      dup2\n        /* \"--CODEGEN--\":6:55   */\n      mstore\n        /* \"Funciones avanzadas/require.sol\":879:904  abi.encodePacked(_nombre) */\n      swap1\n      0x40\n      mstore\n        /* \"Funciones avanzadas/require.sol\":869:905  keccak256(abi.encodePacked(_nombre)) */\n      dup1\n      mload\n      swap1\n      0x20\n      add\n      keccak256\n        /* \"Funciones avanzadas/require.sol\":869:948  keccak256(abi.encodePacked(_nombre)) != keccak256(abi.encodePacked(nombres[i])) */\n      eq\n      iszero\n        /* \"Funciones avanzadas/require.sol\":860:972  require((keccak256(abi.encodePacked(_nombre)) != keccak256(abi.encodePacked(nombres[i]))),\"ya esta en la lista\") */\n      tag_46\n      jumpi\n      mload(0x40)\n      0x08c379a000000000000000000000000000000000000000000000000000000000\n      dup2\n      mstore\n      0x04\n      add\n      tag_47\n      swap1\n      jump(tag_48)\n    tag_47:\n      mload(0x40)\n      dup1\n      swap2\n      sub\n      swap1\n      revert\n    tag_46:\n        /* \"Funciones avanzadas/require.sol\":841:844  i++ */\n      dup1\n      dup1\n      0x01\n      add\n      swap2\n      pop\n      pop\n        /* \"Funciones avanzadas/require.sol\":810:984  for(uint i=0; i<nombres.length;i++){\r... */\n      jump(tag_38)\n    tag_39:\n      pop\n        /* \"Funciones avanzadas/require.sol\":994:1001  nombres */\n      0x02\n        /* \"Funciones avanzadas/require.sol\":1007:1014  _nombre */\n      dup2\n        /* \"Funciones avanzadas/require.sol\":994:1015  nombres.push(_nombre) */\n      swap1\n      dup1\n        /* \"--CODEGEN--\":39:40   */\n      0x01\n        /* \"--CODEGEN--\":33:36   */\n      dup2\n        /* \"--CODEGEN--\":27:37   */\n      sload\n        /* \"--CODEGEN--\":23:41   */\n      add\n        /* \"--CODEGEN--\":57:67   */\n      dup1\n        /* \"--CODEGEN--\":52:55   */\n      dup3\n        /* \"--CODEGEN--\":45:68   */\n      sstore\n        /* \"--CODEGEN--\":79:89   */\n      dup1\n        /* \"--CODEGEN--\":72:89   */\n      swap2\n      pop\n        /* \"--CODEGEN--\":0:93   */\n      pop\n        /* \"Funciones avanzadas/require.sol\":994:1015  nombres.push(_nombre) */\n      0x01\n      swap1\n      sub\n      swap1\n      0x00\n      mstore\n      keccak256(0x00, 0x20)\n      add\n      0x00\n      swap1\n      swap2\n      swap1\n      swap2\n      swap1\n      swap2\n      pop\n      swap1\n      dup1\n      mload\n      swap1\n      0x20\n      add\n      swap1\n      tag_50\n      swap3\n      swap2\n      swap1\n      tag_51\n      jump\t// in\n    tag_50:\n      pop\n        /* \"Funciones avanzadas/require.sol\":749:1023  function nuevoNombre(string memory _nombre) public{\r... */\n      pop\n      jump\t// out\n        /* \"Funciones avanzadas/require.sol\":98:1030  contract Require{\r... */\n    tag_51:\n      dup3\n      dup1\n      sload\n      0x01\n      dup2\n      0x01\n      and\n      iszero\n      0x0100\n      mul\n      sub\n      and\n      0x02\n      swap1\n      div\n      swap1\n      0x00\n      mstore\n      keccak256(0x00, 0x20)\n      swap1\n      0x1f\n      add\n      0x20\n      swap1\n      div\n      dup2\n      add\n      swap3\n      dup3\n      0x1f\n      lt\n      tag_53\n      jumpi\n      dup1\n      mload\n      not(0xff)\n      and\n      dup4\n      dup1\n      add\n      or\n      dup6\n      sstore\n      jump(tag_52)\n    tag_53:\n      dup3\n      dup1\n      add\n      0x01\n      add\n      dup6\n      sstore\n      dup3\n      iszero\n      tag_52\n      jumpi\n      swap2\n      dup3\n      add\n    tag_54:\n      dup3\n      dup2\n      gt\n      iszero\n      tag_55\n      jumpi\n      dup3\n      mload\n      dup3\n      sstore\n      swap2\n      0x20\n      add\n      swap2\n      swap1\n      0x01\n      add\n      swap1\n      jump(tag_54)\n    tag_55:\n    tag_52:\n      pop\n      swap1\n      pop\n      tag_56\n      swap2\n      swap1\n      tag_57\n      jump\t// in\n    tag_56:\n      pop\n      swap1\n      jump\t// out\n    tag_57:\n      tag_58\n      swap2\n      swap1\n    tag_59:\n      dup1\n      dup3\n      gt\n      iszero\n      tag_60\n      jumpi\n      0x00\n      dup2\n      0x00\n      swap1\n      sstore\n      pop\n      0x01\n      add\n      jump(tag_59)\n    tag_60:\n      pop\n      swap1\n      jump\n    tag_58:\n      swap1\n      jump\t// out\n        /* \"--CODEGEN--\":6:448   */\n    tag_62:\n      0x00\n        /* \"--CODEGEN--\":108:111   */\n      dup3\n        /* \"--CODEGEN--\":101:105   */\n      0x1f\n        /* \"--CODEGEN--\":93:99   */\n      dup4\n        /* \"--CODEGEN--\":89:106   */\n      add\n        /* \"--CODEGEN--\":85:112   */\n      slt\n        /* \"--CODEGEN--\":75:77   */\n      tag_64\n      jumpi\n        /* \"--CODEGEN--\":126:127   */\n      0x00\n        /* \"--CODEGEN--\":123:124   */\n      dup1\n        /* \"--CODEGEN--\":116:128   */\n      revert\n        /* \"--CODEGEN--\":75:77   */\n    tag_64:\n        /* \"--CODEGEN--\":163:169   */\n      dup2\n        /* \"--CODEGEN--\":150:170   */\n      calldataload\n        /* \"--CODEGEN--\":185:250   */\n      tag_65\n        /* \"--CODEGEN--\":200:249   */\n      tag_66\n        /* \"--CODEGEN--\":242:248   */\n      dup3\n        /* \"--CODEGEN--\":200:249   */\n      jump(tag_67)\n    tag_66:\n        /* \"--CODEGEN--\":185:250   */\n      jump(tag_68)\n    tag_65:\n        /* \"--CODEGEN--\":176:250   */\n      swap2\n      pop\n        /* \"--CODEGEN--\":270:276   */\n      dup1\n        /* \"--CODEGEN--\":263:268   */\n      dup3\n        /* \"--CODEGEN--\":256:277   */\n      mstore\n        /* \"--CODEGEN--\":306:310   */\n      0x20\n        /* \"--CODEGEN--\":298:304   */\n      dup4\n        /* \"--CODEGEN--\":294:311   */\n      add\n        /* \"--CODEGEN--\":339:343   */\n      0x20\n        /* \"--CODEGEN--\":332:337   */\n      dup4\n        /* \"--CODEGEN--\":328:344   */\n      add\n        /* \"--CODEGEN--\":374:377   */\n      dup6\n        /* \"--CODEGEN--\":365:371   */\n      dup4\n        /* \"--CODEGEN--\":360:363   */\n      dup4\n        /* \"--CODEGEN--\":356:372   */\n      add\n        /* \"--CODEGEN--\":353:378   */\n      gt\n        /* \"--CODEGEN--\":350:352   */\n      iszero\n      tag_69\n      jumpi\n        /* \"--CODEGEN--\":391:392   */\n      0x00\n        /* \"--CODEGEN--\":388:389   */\n      dup1\n        /* \"--CODEGEN--\":381:393   */\n      revert\n        /* \"--CODEGEN--\":350:352   */\n    tag_69:\n        /* \"--CODEGEN--\":401:442   */\n      tag_70\n        /* \"--CODEGEN--\":435:441   */\n      dup4\n        /* \"--CODEGEN--\":430:433   */\n      dup3\n        /* \"--CODEGEN--\":425:428   */\n      dup5\n        /* \"--CODEGEN--\":401:442   */\n      jump(tag_71)\n    tag_70:\n        /* \"--CODEGEN--\":68:448   */\n      pop\n      pop\n      pop\n      swap3\n      swap2\n      pop\n      pop\n      jump\n        /* \"--CODEGEN--\":456:586   */\n    tag_72:\n      0x00\n        /* \"--CODEGEN--\":536:542   */\n      dup2\n        /* \"--CODEGEN--\":523:543   */\n      calldataload\n        /* \"--CODEGEN--\":514:543   */\n      swap1\n      pop\n        /* \"--CODEGEN--\":548:581   */\n      tag_74\n        /* \"--CODEGEN--\":575:580   */\n      dup2\n        /* \"--CODEGEN--\":548:581   */\n      jump(tag_75)\n    tag_74:\n        /* \"--CODEGEN--\":508:586   */\n      swap3\n      swap2\n      pop\n      pop\n      jump\n        /* \"--CODEGEN--\":593:940   */\n    tag_18:\n      0x00\n        /* \"--CODEGEN--\":707:709   */\n      0x20\n        /* \"--CODEGEN--\":695:704   */\n      dup3\n        /* \"--CODEGEN--\":686:693   */\n      dup5\n        /* \"--CODEGEN--\":682:705   */\n      sub\n        /* \"--CODEGEN--\":678:710   */\n      slt\n        /* \"--CODEGEN--\":675:677   */\n      iszero\n      tag_77\n      jumpi\n        /* \"--CODEGEN--\":723:724   */\n      0x00\n        /* \"--CODEGEN--\":720:721   */\n      dup1\n        /* \"--CODEGEN--\":713:725   */\n      revert\n        /* \"--CODEGEN--\":675:677   */\n    tag_77:\n        /* \"--CODEGEN--\":786:787   */\n      0x00\n        /* \"--CODEGEN--\":775:784   */\n      dup3\n        /* \"--CODEGEN--\":771:788   */\n      add\n        /* \"--CODEGEN--\":758:789   */\n      calldataload\n        /* \"--CODEGEN--\":809:827   */\n      0xffffffffffffffff\n        /* \"--CODEGEN--\":801:807   */\n      dup2\n        /* \"--CODEGEN--\":798:828   */\n      gt\n        /* \"--CODEGEN--\":795:797   */\n      iszero\n      tag_78\n      jumpi\n        /* \"--CODEGEN--\":841:842   */\n      0x00\n        /* \"--CODEGEN--\":838:839   */\n      dup1\n        /* \"--CODEGEN--\":831:843   */\n      revert\n        /* \"--CODEGEN--\":795:797   */\n    tag_78:\n        /* \"--CODEGEN--\":861:924   */\n      tag_79\n        /* \"--CODEGEN--\":916:923   */\n      dup5\n        /* \"--CODEGEN--\":907:913   */\n      dup3\n        /* \"--CODEGEN--\":896:905   */\n      dup6\n        /* \"--CODEGEN--\":892:914   */\n      add\n        /* \"--CODEGEN--\":861:924   */\n      jump(tag_62)\n    tag_79:\n        /* \"--CODEGEN--\":851:924   */\n      swap2\n      pop\n        /* \"--CODEGEN--\":737:930   */\n      pop\n        /* \"--CODEGEN--\":669:940   */\n      swap3\n      swap2\n      pop\n      pop\n      jump\n        /* \"--CODEGEN--\":947:1188   */\n    tag_9:\n      0x00\n        /* \"--CODEGEN--\":1051:1053   */\n      0x20\n        /* \"--CODEGEN--\":1039:1048   */\n      dup3\n        /* \"--CODEGEN--\":1030:1037   */\n      dup5\n        /* \"--CODEGEN--\":1026:1049   */\n      sub\n        /* \"--CODEGEN--\":1022:1054   */\n      slt\n        /* \"--CODEGEN--\":1019:1021   */\n      iszero\n      tag_81\n      jumpi\n        /* \"--CODEGEN--\":1067:1068   */\n      0x00\n        /* \"--CODEGEN--\":1064:1065   */\n      dup1\n        /* \"--CODEGEN--\":1057:1069   */\n      revert\n        /* \"--CODEGEN--\":1019:1021   */\n    tag_81:\n        /* \"--CODEGEN--\":1102:1103   */\n      0x00\n        /* \"--CODEGEN--\":1119:1172   */\n      tag_82\n        /* \"--CODEGEN--\":1164:1171   */\n      dup5\n        /* \"--CODEGEN--\":1155:1161   */\n      dup3\n        /* \"--CODEGEN--\":1144:1153   */\n      dup6\n        /* \"--CODEGEN--\":1140:1162   */\n      add\n        /* \"--CODEGEN--\":1119:1172   */\n      jump(tag_72)\n    tag_82:\n        /* \"--CODEGEN--\":1109:1172   */\n      swap2\n      pop\n        /* \"--CODEGEN--\":1081:1178   */\n      pop\n        /* \"--CODEGEN--\":1013:1188   */\n      swap3\n      swap2\n      pop\n      pop\n      jump\n        /* \"--CODEGEN--\":1195:1542   */\n    tag_83:\n      0x00\n        /* \"--CODEGEN--\":1307:1346   */\n      tag_85\n        /* \"--CODEGEN--\":1340:1345   */\n      dup3\n        /* \"--CODEGEN--\":1307:1346   */\n      jump(tag_86)\n    tag_85:\n        /* \"--CODEGEN--\":1358:1429   */\n      tag_87\n        /* \"--CODEGEN--\":1422:1428   */\n      dup2\n        /* \"--CODEGEN--\":1417:1420   */\n      dup6\n        /* \"--CODEGEN--\":1358:1429   */\n      jump(tag_88)\n    tag_87:\n        /* \"--CODEGEN--\":1351:1429   */\n      swap4\n      pop\n        /* \"--CODEGEN--\":1434:1486   */\n      tag_89\n        /* \"--CODEGEN--\":1479:1485   */\n      dup2\n        /* \"--CODEGEN--\":1474:1477   */\n      dup6\n        /* \"--CODEGEN--\":1467:1471   */\n      0x20\n        /* \"--CODEGEN--\":1460:1465   */\n      dup7\n        /* \"--CODEGEN--\":1456:1472   */\n      add\n        /* \"--CODEGEN--\":1434:1486   */\n      jump(tag_90)\n    tag_89:\n        /* \"--CODEGEN--\":1507:1536   */\n      tag_91\n        /* \"--CODEGEN--\":1529:1535   */\n      dup2\n        /* \"--CODEGEN--\":1507:1536   */\n      jump(tag_92)\n    tag_91:\n        /* \"--CODEGEN--\":1502:1505   */\n      dup5\n        /* \"--CODEGEN--\":1498:1537   */\n      add\n        /* \"--CODEGEN--\":1491:1537   */\n      swap2\n      pop\n        /* \"--CODEGEN--\":1287:1542   */\n      pop\n      swap3\n      swap2\n      pop\n      pop\n      jump\n        /* \"--CODEGEN--\":1549:1909   */\n    tag_93:\n      0x00\n        /* \"--CODEGEN--\":1679:1718   */\n      tag_95\n        /* \"--CODEGEN--\":1712:1717   */\n      dup3\n        /* \"--CODEGEN--\":1679:1718   */\n      jump(tag_86)\n    tag_95:\n        /* \"--CODEGEN--\":1730:1819   */\n      tag_96\n        /* \"--CODEGEN--\":1812:1818   */\n      dup2\n        /* \"--CODEGEN--\":1807:1810   */\n      dup6\n        /* \"--CODEGEN--\":1730:1819   */\n      jump(tag_97)\n    tag_96:\n        /* \"--CODEGEN--\":1723:1819   */\n      swap4\n      pop\n        /* \"--CODEGEN--\":1824:1876   */\n      tag_98\n        /* \"--CODEGEN--\":1869:1875   */\n      dup2\n        /* \"--CODEGEN--\":1864:1867   */\n      dup6\n        /* \"--CODEGEN--\":1857:1861   */\n      0x20\n        /* \"--CODEGEN--\":1850:1855   */\n      dup7\n        /* \"--CODEGEN--\":1846:1862   */\n      add\n        /* \"--CODEGEN--\":1824:1876   */\n      jump(tag_90)\n    tag_98:\n        /* \"--CODEGEN--\":1897:1903   */\n      dup1\n        /* \"--CODEGEN--\":1892:1895   */\n      dup5\n        /* \"--CODEGEN--\":1888:1904   */\n      add\n        /* \"--CODEGEN--\":1881:1904   */\n      swap2\n      pop\n        /* \"--CODEGEN--\":1659:1909   */\n      pop\n      swap3\n      swap2\n      pop\n      pop\n      jump\n        /* \"--CODEGEN--\":1941:2825   */\n    tag_99:\n      0x00\n        /* \"--CODEGEN--\":2078:2083   */\n      dup2\n        /* \"--CODEGEN--\":2072:2084   */\n      sload\n        /* \"--CODEGEN--\":2112:2113   */\n      0x01\n        /* \"--CODEGEN--\":2101:2110   */\n      dup2\n        /* \"--CODEGEN--\":2097:2114   */\n      and\n        /* \"--CODEGEN--\":2125:2126   */\n      0x00\n        /* \"--CODEGEN--\":2120:2388   */\n      dup2\n      eq\n      tag_102\n      jumpi\n        /* \"--CODEGEN--\":2399:2400   */\n      0x01\n        /* \"--CODEGEN--\":2394:2819   */\n      dup2\n      eq\n      tag_103\n      jumpi\n        /* \"--CODEGEN--\":2090:2819   */\n      jump(tag_101)\n        /* \"--CODEGEN--\":2120:2388   */\n    tag_102:\n        /* \"--CODEGEN--\":2198:2202   */\n      0x7f\n        /* \"--CODEGEN--\":2194:2195   */\n      0x02\n        /* \"--CODEGEN--\":2183:2192   */\n      dup4\n        /* \"--CODEGEN--\":2179:2196   */\n      div\n        /* \"--CODEGEN--\":2175:2203   */\n      and\n        /* \"--CODEGEN--\":2217:2306   */\n      tag_104\n        /* \"--CODEGEN--\":2299:2305   */\n      dup2\n        /* \"--CODEGEN--\":2294:2297   */\n      dup8\n        /* \"--CODEGEN--\":2217:2306   */\n      jump(tag_97)\n    tag_104:\n        /* \"--CODEGEN--\":2210:2306   */\n      swap6\n      pop\n        /* \"--CODEGEN--\":2344:2348   */\n      0xff\n        /* \"--CODEGEN--\":2340:2349   */\n      not\n        /* \"--CODEGEN--\":2329:2338   */\n      dup4\n        /* \"--CODEGEN--\":2325:2350   */\n      and\n        /* \"--CODEGEN--\":2320:2323   */\n      dup7\n        /* \"--CODEGEN--\":2313:2351   */\n      mstore\n        /* \"--CODEGEN--\":2374:2380   */\n      dup1\n        /* \"--CODEGEN--\":2369:2372   */\n      dup7\n        /* \"--CODEGEN--\":2365:2381   */\n      add\n        /* \"--CODEGEN--\":2358:2381   */\n      swap4\n      pop\n        /* \"--CODEGEN--\":2127:2388   */\n      pop\n        /* \"--CODEGEN--\":2120:2388   */\n      jump(tag_101)\n        /* \"--CODEGEN--\":2394:2819   */\n    tag_103:\n        /* \"--CODEGEN--\":2463:2464   */\n      0x02\n        /* \"--CODEGEN--\":2452:2461   */\n      dup3\n        /* \"--CODEGEN--\":2448:2465   */\n      div\n        /* \"--CODEGEN--\":2479:2568   */\n      tag_105\n        /* \"--CODEGEN--\":2561:2567   */\n      dup2\n        /* \"--CODEGEN--\":2556:2559   */\n      dup8\n        /* \"--CODEGEN--\":2479:2568   */\n      jump(tag_97)\n    tag_105:\n        /* \"--CODEGEN--\":2472:2568   */\n      swap6\n      pop\n        /* \"--CODEGEN--\":2590:2628   */\n      tag_106\n        /* \"--CODEGEN--\":2622:2627   */\n      dup6\n        /* \"--CODEGEN--\":2590:2628   */\n      jump(tag_107)\n    tag_106:\n        /* \"--CODEGEN--\":2644:2645   */\n      0x00\n        /* \"--CODEGEN--\":2652:2782   */\n    tag_108:\n        /* \"--CODEGEN--\":2666:2672   */\n      dup3\n        /* \"--CODEGEN--\":2663:2664   */\n      dup2\n        /* \"--CODEGEN--\":2660:2673   */\n      lt\n        /* \"--CODEGEN--\":2652:2782   */\n      iszero\n      tag_110\n      jumpi\n        /* \"--CODEGEN--\":2731:2738   */\n      dup2\n        /* \"--CODEGEN--\":2725:2739   */\n      sload\n        /* \"--CODEGEN--\":2721:2722   */\n      dup2\n        /* \"--CODEGEN--\":2716:2719   */\n      dup10\n        /* \"--CODEGEN--\":2712:2723   */\n      add\n        /* \"--CODEGEN--\":2705:2740   */\n      mstore\n        /* \"--CODEGEN--\":2772:2773   */\n      0x01\n        /* \"--CODEGEN--\":2763:2770   */\n      dup3\n        /* \"--CODEGEN--\":2759:2774   */\n      add\n        /* \"--CODEGEN--\":2748:2774   */\n      swap2\n      pop\n        /* \"--CODEGEN--\":2688:2692   */\n      0x20\n        /* \"--CODEGEN--\":2685:2686   */\n      dup2\n        /* \"--CODEGEN--\":2681:2693   */\n      add\n        /* \"--CODEGEN--\":2676:2693   */\n      swap1\n      pop\n        /* \"--CODEGEN--\":2652:2782   */\n      jump(tag_108)\n    tag_110:\n        /* \"--CODEGEN--\":2805:2811   */\n      dup3\n        /* \"--CODEGEN--\":2800:2803   */\n      dup9\n        /* \"--CODEGEN--\":2796:2812   */\n      add\n        /* \"--CODEGEN--\":2789:2812   */\n      swap6\n      pop\n        /* \"--CODEGEN--\":2401:2819   */\n      pop\n      pop\n      pop\n        /* \"--CODEGEN--\":2090:2819   */\n    tag_101:\n      pop\n        /* \"--CODEGEN--\":2048:2825   */\n      pop\n      swap3\n      swap2\n      pop\n      pop\n      jump\n        /* \"--CODEGEN--\":2834:3198   */\n    tag_111:\n      0x00\n        /* \"--CODEGEN--\":2994:3061   */\n      tag_113\n        /* \"--CODEGEN--\":3058:3060   */\n      0x16\n        /* \"--CODEGEN--\":3053:3056   */\n      dup4\n        /* \"--CODEGEN--\":2994:3061   */\n      jump(tag_88)\n    tag_113:\n        /* \"--CODEGEN--\":2987:3061   */\n      swap2\n      pop\n        /* \"--CODEGEN--\":3094:3160   */\n      0x436f6e7472617365c3b16120696e636f72726563746100000000000000000000\n        /* \"--CODEGEN--\":3090:3091   */\n      0x00\n        /* \"--CODEGEN--\":3085:3088   */\n      dup4\n        /* \"--CODEGEN--\":3081:3092   */\n      add\n        /* \"--CODEGEN--\":3074:3161   */\n      mstore\n        /* \"--CODEGEN--\":3189:3191   */\n      0x20\n        /* \"--CODEGEN--\":3184:3187   */\n      dup3\n        /* \"--CODEGEN--\":3180:3192   */\n      add\n        /* \"--CODEGEN--\":3173:3192   */\n      swap1\n      pop\n        /* \"--CODEGEN--\":2980:3198   */\n      swap2\n      swap1\n      pop\n      jump\n        /* \"--CODEGEN--\":3207:3526   */\n    tag_114:\n      0x00\n        /* \"--CODEGEN--\":3367:3434   */\n      tag_116\n        /* \"--CODEGEN--\":3431:3433   */\n      0x13\n        /* \"--CODEGEN--\":3426:3429   */\n      dup4\n        /* \"--CODEGEN--\":3367:3434   */\n      jump(tag_88)\n    tag_116:\n        /* \"--CODEGEN--\":3360:3434   */\n      swap2\n      pop\n        /* \"--CODEGEN--\":3467:3488   */\n      0x7961206573746120656e206c61206c6973746100000000000000000000000000\n        /* \"--CODEGEN--\":3463:3464   */\n      0x00\n        /* \"--CODEGEN--\":3458:3461   */\n      dup4\n        /* \"--CODEGEN--\":3454:3465   */\n      add\n        /* \"--CODEGEN--\":3447:3489   */\n      mstore\n        /* \"--CODEGEN--\":3517:3519   */\n      0x20\n        /* \"--CODEGEN--\":3512:3515   */\n      dup3\n        /* \"--CODEGEN--\":3508:3520   */\n      add\n        /* \"--CODEGEN--\":3501:3520   */\n      swap1\n      pop\n        /* \"--CODEGEN--\":3353:3526   */\n      swap2\n      swap1\n      pop\n      jump\n        /* \"--CODEGEN--\":3535:3899   */\n    tag_117:\n      0x00\n        /* \"--CODEGEN--\":3695:3762   */\n      tag_119\n        /* \"--CODEGEN--\":3759:3761   */\n      0x14\n        /* \"--CODEGEN--\":3754:3757   */\n      dup4\n        /* \"--CODEGEN--\":3695:3762   */\n      jump(tag_88)\n    tag_119:\n        /* \"--CODEGEN--\":3688:3762   */\n      swap2\n      pop\n        /* \"--CODEGEN--\":3795:3861   */\n      0x41c3ba6e206e6f20707565646573207061676172000000000000000000000000\n        /* \"--CODEGEN--\":3791:3792   */\n      0x00\n        /* \"--CODEGEN--\":3786:3789   */\n      dup4\n        /* \"--CODEGEN--\":3782:3793   */\n      add\n        /* \"--CODEGEN--\":3775:3862   */\n      mstore\n        /* \"--CODEGEN--\":3890:3892   */\n      0x20\n        /* \"--CODEGEN--\":3885:3888   */\n      dup3\n        /* \"--CODEGEN--\":3881:3893   */\n      add\n        /* \"--CODEGEN--\":3874:3893   */\n      swap1\n      pop\n        /* \"--CODEGEN--\":3681:3899   */\n      swap2\n      swap1\n      pop\n      jump\n        /* \"--CODEGEN--\":3908:4248   */\n    tag_120:\n      0x00\n        /* \"--CODEGEN--\":4086:4170   */\n      tag_122\n        /* \"--CODEGEN--\":4168:4169   */\n      0x06\n        /* \"--CODEGEN--\":4163:4166   */\n      dup4\n        /* \"--CODEGEN--\":4086:4170   */\n      jump(tag_97)\n    tag_122:\n        /* \"--CODEGEN--\":4079:4170   */\n      swap2\n      pop\n        /* \"--CODEGEN--\":4203:4211   */\n      0x3132333435360000000000000000000000000000000000000000000000000000\n        /* \"--CODEGEN--\":4199:4200   */\n      0x00\n        /* \"--CODEGEN--\":4194:4197   */\n      dup4\n        /* \"--CODEGEN--\":4190:4201   */\n      add\n        /* \"--CODEGEN--\":4183:4212   */\n      mstore\n        /* \"--CODEGEN--\":4240:4241   */\n      0x06\n        /* \"--CODEGEN--\":4235:4238   */\n      dup3\n        /* \"--CODEGEN--\":4231:4242   */\n      add\n        /* \"--CODEGEN--\":4224:4242   */\n      swap1\n      pop\n        /* \"--CODEGEN--\":4072:4248   */\n      swap2\n      swap1\n      pop\n      jump\n        /* \"--CODEGEN--\":4256:4369   */\n    tag_123:\n        /* \"--CODEGEN--\":4339:4363   */\n      tag_125\n        /* \"--CODEGEN--\":4357:4362   */\n      dup2\n        /* \"--CODEGEN--\":4339:4363   */\n      jump(tag_126)\n    tag_125:\n        /* \"--CODEGEN--\":4334:4337   */\n      dup3\n        /* \"--CODEGEN--\":4327:4364   */\n      mstore\n        /* \"--CODEGEN--\":4321:4369   */\n      pop\n      pop\n      jump\n        /* \"--CODEGEN--\":4376:4642   */\n    tag_33:\n      0x00\n        /* \"--CODEGEN--\":4522:4617   */\n      tag_128\n        /* \"--CODEGEN--\":4613:4616   */\n      dup3\n        /* \"--CODEGEN--\":4604:4610   */\n      dup5\n        /* \"--CODEGEN--\":4522:4617   */\n      jump(tag_93)\n    tag_128:\n        /* \"--CODEGEN--\":4515:4617   */\n      swap2\n      pop\n        /* \"--CODEGEN--\":4634:4637   */\n      dup2\n        /* \"--CODEGEN--\":4627:4637   */\n      swap1\n      pop\n        /* \"--CODEGEN--\":4503:4642   */\n      swap3\n      swap2\n      pop\n      pop\n      jump\n        /* \"--CODEGEN--\":4649:4909   */\n    tag_44:\n      0x00\n        /* \"--CODEGEN--\":4792:4884   */\n      tag_130\n        /* \"--CODEGEN--\":4880:4883   */\n      dup3\n        /* \"--CODEGEN--\":4871:4877   */\n      dup5\n        /* \"--CODEGEN--\":4792:4884   */\n      jump(tag_99)\n    tag_130:\n        /* \"--CODEGEN--\":4785:4884   */\n      swap2\n      pop\n        /* \"--CODEGEN--\":4901:4904   */\n      dup2\n        /* \"--CODEGEN--\":4894:4904   */\n      swap1\n      pop\n        /* \"--CODEGEN--\":4773:4909   */\n      swap3\n      swap2\n      pop\n      pop\n      jump\n        /* \"--CODEGEN--\":4916:5288   */\n    tag_31:\n      0x00\n        /* \"--CODEGEN--\":5115:5263   */\n      tag_132\n        /* \"--CODEGEN--\":5259:5262   */\n      dup3\n        /* \"--CODEGEN--\":5115:5263   */\n      jump(tag_120)\n    tag_132:\n        /* \"--CODEGEN--\":5108:5263   */\n      swap2\n      pop\n        /* \"--CODEGEN--\":5280:5283   */\n      dup2\n        /* \"--CODEGEN--\":5273:5283   */\n      swap1\n      pop\n        /* \"--CODEGEN--\":5096:5288   */\n      swap2\n      swap1\n      pop\n      jump\n        /* \"--CODEGEN--\":5295:5596   */\n    tag_21:\n      0x00\n        /* \"--CODEGEN--\":5433:5435   */\n      0x20\n        /* \"--CODEGEN--\":5422:5431   */\n      dup3\n        /* \"--CODEGEN--\":5418:5436   */\n      add\n        /* \"--CODEGEN--\":5410:5436   */\n      swap1\n      pop\n        /* \"--CODEGEN--\":5483:5492   */\n      dup2\n        /* \"--CODEGEN--\":5477:5481   */\n      dup2\n        /* \"--CODEGEN--\":5473:5493   */\n      sub\n        /* \"--CODEGEN--\":5469:5470   */\n      0x00\n        /* \"--CODEGEN--\":5458:5467   */\n      dup4\n        /* \"--CODEGEN--\":5454:5471   */\n      add\n        /* \"--CODEGEN--\":5447:5494   */\n      mstore\n        /* \"--CODEGEN--\":5508:5586   */\n      tag_134\n        /* \"--CODEGEN--\":5581:5585   */\n      dup2\n        /* \"--CODEGEN--\":5572:5578   */\n      dup5\n        /* \"--CODEGEN--\":5508:5586   */\n      jump(tag_83)\n    tag_134:\n        /* \"--CODEGEN--\":5500:5586   */\n      swap1\n      pop\n        /* \"--CODEGEN--\":5404:5596   */\n      swap3\n      swap2\n      pop\n      pop\n      jump\n        /* \"--CODEGEN--\":5603:6010   */\n    tag_36:\n      0x00\n        /* \"--CODEGEN--\":5794:5796   */\n      0x20\n        /* \"--CODEGEN--\":5783:5792   */\n      dup3\n        /* \"--CODEGEN--\":5779:5797   */\n      add\n        /* \"--CODEGEN--\":5771:5797   */\n      swap1\n      pop\n        /* \"--CODEGEN--\":5844:5853   */\n      dup2\n        /* \"--CODEGEN--\":5838:5842   */\n      dup2\n        /* \"--CODEGEN--\":5834:5854   */\n      sub\n        /* \"--CODEGEN--\":5830:5831   */\n      0x00\n        /* \"--CODEGEN--\":5819:5828   */\n      dup4\n        /* \"--CODEGEN--\":5815:5832   */\n      add\n        /* \"--CODEGEN--\":5808:5855   */\n      mstore\n        /* \"--CODEGEN--\":5869:6000   */\n      tag_136\n        /* \"--CODEGEN--\":5995:5999   */\n      dup2\n        /* \"--CODEGEN--\":5869:6000   */\n      jump(tag_111)\n    tag_136:\n        /* \"--CODEGEN--\":5861:6000   */\n      swap1\n      pop\n        /* \"--CODEGEN--\":5765:6010   */\n      swap2\n      swap1\n      pop\n      jump\n        /* \"--CODEGEN--\":6017:6424   */\n    tag_48:\n      0x00\n        /* \"--CODEGEN--\":6208:6210   */\n      0x20\n        /* \"--CODEGEN--\":6197:6206   */\n      dup3\n        /* \"--CODEGEN--\":6193:6211   */\n      add\n        /* \"--CODEGEN--\":6185:6211   */\n      swap1\n      pop\n        /* \"--CODEGEN--\":6258:6267   */\n      dup2\n        /* \"--CODEGEN--\":6252:6256   */\n      dup2\n        /* \"--CODEGEN--\":6248:6268   */\n      sub\n        /* \"--CODEGEN--\":6244:6245   */\n      0x00\n        /* \"--CODEGEN--\":6233:6242   */\n      dup4\n        /* \"--CODEGEN--\":6229:6246   */\n      add\n        /* \"--CODEGEN--\":6222:6269   */\n      mstore\n        /* \"--CODEGEN--\":6283:6414   */\n      tag_138\n        /* \"--CODEGEN--\":6409:6413   */\n      dup2\n        /* \"--CODEGEN--\":6283:6414   */\n      jump(tag_114)\n    tag_138:\n        /* \"--CODEGEN--\":6275:6414   */\n      swap1\n      pop\n        /* \"--CODEGEN--\":6179:6424   */\n      swap2\n      swap1\n      pop\n      jump\n        /* \"--CODEGEN--\":6431:6838   */\n    tag_28:\n      0x00\n        /* \"--CODEGEN--\":6622:6624   */\n      0x20\n        /* \"--CODEGEN--\":6611:6620   */\n      dup3\n        /* \"--CODEGEN--\":6607:6625   */\n      add\n        /* \"--CODEGEN--\":6599:6625   */\n      swap1\n      pop\n        /* \"--CODEGEN--\":6672:6681   */\n      dup2\n        /* \"--CODEGEN--\":6666:6670   */\n      dup2\n        /* \"--CODEGEN--\":6662:6682   */\n      sub\n        /* \"--CODEGEN--\":6658:6659   */\n      0x00\n        /* \"--CODEGEN--\":6647:6656   */\n      dup4\n        /* \"--CODEGEN--\":6643:6660   */\n      add\n        /* \"--CODEGEN--\":6636:6683   */\n      mstore\n        /* \"--CODEGEN--\":6697:6828   */\n      tag_140\n        /* \"--CODEGEN--\":6823:6827   */\n      dup2\n        /* \"--CODEGEN--\":6697:6828   */\n      jump(tag_117)\n    tag_140:\n        /* \"--CODEGEN--\":6689:6828   */\n      swap1\n      pop\n        /* \"--CODEGEN--\":6593:6838   */\n      swap2\n      swap1\n      pop\n      jump\n        /* \"--CODEGEN--\":6845:7058   */\n    tag_12:\n      0x00\n        /* \"--CODEGEN--\":6963:6965   */\n      0x20\n        /* \"--CODEGEN--\":6952:6961   */\n      dup3\n        /* \"--CODEGEN--\":6948:6966   */\n      add\n        /* \"--CODEGEN--\":6940:6966   */\n      swap1\n      pop\n        /* \"--CODEGEN--\":6977:7048   */\n      tag_142\n        /* \"--CODEGEN--\":7045:7046   */\n      0x00\n        /* \"--CODEGEN--\":7034:7043   */\n      dup4\n        /* \"--CODEGEN--\":7030:7047   */\n      add\n        /* \"--CODEGEN--\":7021:7027   */\n      dup5\n        /* \"--CODEGEN--\":6977:7048   */\n      jump(tag_123)\n    tag_142:\n        /* \"--CODEGEN--\":6934:7058   */\n      swap3\n      swap2\n      pop\n      pop\n      jump\n        /* \"--CODEGEN--\":7065:7321   */\n    tag_68:\n      0x00\n        /* \"--CODEGEN--\":7127:7129   */\n      0x40\n        /* \"--CODEGEN--\":7121:7130   */\n      mload\n        /* \"--CODEGEN--\":7111:7130   */\n      swap1\n      pop\n        /* \"--CODEGEN--\":7165:7169   */\n      dup2\n        /* \"--CODEGEN--\":7157:7163   */\n      dup2\n        /* \"--CODEGEN--\":7153:7170   */\n      add\n        /* \"--CODEGEN--\":7264:7270   */\n      dup2\n        /* \"--CODEGEN--\":7252:7262   */\n      dup2\n        /* \"--CODEGEN--\":7249:7271   */\n      lt\n        /* \"--CODEGEN--\":7228:7246   */\n      0xffffffffffffffff\n        /* \"--CODEGEN--\":7216:7226   */\n      dup3\n        /* \"--CODEGEN--\":7213:7247   */\n      gt\n        /* \"--CODEGEN--\":7210:7272   */\n      or\n        /* \"--CODEGEN--\":7207:7209   */\n      iszero\n      tag_144\n      jumpi\n        /* \"--CODEGEN--\":7285:7286   */\n      0x00\n        /* \"--CODEGEN--\":7282:7283   */\n      dup1\n        /* \"--CODEGEN--\":7275:7287   */\n      revert\n        /* \"--CODEGEN--\":7207:7209   */\n    tag_144:\n        /* \"--CODEGEN--\":7305:7315   */\n      dup1\n        /* \"--CODEGEN--\":7301:7303   */\n      0x40\n        /* \"--CODEGEN--\":7294:7316   */\n      mstore\n        /* \"--CODEGEN--\":7105:7321   */\n      pop\n      swap2\n      swap1\n      pop\n      jump\n        /* \"--CODEGEN--\":7328:7650   */\n    tag_67:\n      0x00\n        /* \"--CODEGEN--\":7472:7490   */\n      0xffffffffffffffff\n        /* \"--CODEGEN--\":7464:7470   */\n      dup3\n        /* \"--CODEGEN--\":7461:7491   */\n      gt\n        /* \"--CODEGEN--\":7458:7460   */\n      iszero\n      tag_146\n      jumpi\n        /* \"--CODEGEN--\":7504:7505   */\n      0x00\n        /* \"--CODEGEN--\":7501:7502   */\n      dup1\n        /* \"--CODEGEN--\":7494:7506   */\n      revert\n        /* \"--CODEGEN--\":7458:7460   */\n    tag_146:\n        /* \"--CODEGEN--\":7571:7575   */\n      0x1f\n        /* \"--CODEGEN--\":7567:7576   */\n      not\n        /* \"--CODEGEN--\":7560:7564   */\n      0x1f\n        /* \"--CODEGEN--\":7552:7558   */\n      dup4\n        /* \"--CODEGEN--\":7548:7565   */\n      add\n        /* \"--CODEGEN--\":7544:7577   */\n      and\n        /* \"--CODEGEN--\":7536:7577   */\n      swap1\n      pop\n        /* \"--CODEGEN--\":7635:7639   */\n      0x20\n        /* \"--CODEGEN--\":7629:7633   */\n      dup2\n        /* \"--CODEGEN--\":7625:7640   */\n      add\n        /* \"--CODEGEN--\":7617:7640   */\n      swap1\n      pop\n        /* \"--CODEGEN--\":7395:7650   */\n      swap2\n      swap1\n      pop\n      jump\n        /* \"--CODEGEN--\":7657:7815   */\n    tag_107:\n      0x00\n        /* \"--CODEGEN--\":7725:7728   */\n      dup2\n        /* \"--CODEGEN--\":7717:7728   */\n      swap1\n      pop\n        /* \"--CODEGEN--\":7762:7765   */\n      dup2\n        /* \"--CODEGEN--\":7759:7760   */\n      0x00\n        /* \"--CODEGEN--\":7752:7766   */\n      mstore\n        /* \"--CODEGEN--\":7794:7798   */\n      0x20\n        /* \"--CODEGEN--\":7791:7792   */\n      0x00\n        /* \"--CODEGEN--\":7781:7799   */\n      keccak256\n        /* \"--CODEGEN--\":7773:7799   */\n      swap1\n      pop\n        /* \"--CODEGEN--\":7711:7815   */\n      swap2\n      swap1\n      pop\n      jump\n        /* \"--CODEGEN--\":7822:7944   */\n    tag_86:\n      0x00\n        /* \"--CODEGEN--\":7916:7921   */\n      dup2\n        /* \"--CODEGEN--\":7910:7922   */\n      mload\n        /* \"--CODEGEN--\":7900:7922   */\n      swap1\n      pop\n        /* \"--CODEGEN--\":7881:7944   */\n      swap2\n      swap1\n      pop\n      jump\n        /* \"--CODEGEN--\":7952:8115   */\n    tag_88:\n      0x00\n        /* \"--CODEGEN--\":8067:8073   */\n      dup3\n        /* \"--CODEGEN--\":8062:8065   */\n      dup3\n        /* \"--CODEGEN--\":8055:8074   */\n      mstore\n        /* \"--CODEGEN--\":8104:8108   */\n      0x20\n        /* \"--CODEGEN--\":8099:8102   */\n      dup3\n        /* \"--CODEGEN--\":8095:8109   */\n      add\n        /* \"--CODEGEN--\":8080:8109   */\n      swap1\n      pop\n        /* \"--CODEGEN--\":8048:8115   */\n      swap3\n      swap2\n      pop\n      pop\n      jump\n        /* \"--CODEGEN--\":8124:8269   */\n    tag_97:\n      0x00\n        /* \"--CODEGEN--\":8260:8263   */\n      dup2\n        /* \"--CODEGEN--\":8245:8263   */\n      swap1\n      pop\n        /* \"--CODEGEN--\":8238:8269   */\n      swap3\n      swap2\n      pop\n      pop\n      jump\n        /* \"--CODEGEN--\":8277:8349   */\n    tag_126:\n      0x00\n        /* \"--CODEGEN--\":8339:8344   */\n      dup2\n        /* \"--CODEGEN--\":8328:8344   */\n      swap1\n      pop\n        /* \"--CODEGEN--\":8322:8349   */\n      swap2\n      swap1\n      pop\n      jump\n        /* \"--CODEGEN--\":8357:8502   */\n    tag_71:\n        /* \"--CODEGEN--\":8438:8444   */\n      dup3\n        /* \"--CODEGEN--\":8433:8436   */\n      dup2\n        /* \"--CODEGEN--\":8428:8431   */\n      dup4\n        /* \"--CODEGEN--\":8415:8445   */\n      calldatacopy\n        /* \"--CODEGEN--\":8494:8495   */\n      0x00\n        /* \"--CODEGEN--\":8485:8491   */\n      dup4\n        /* \"--CODEGEN--\":8480:8483   */\n      dup4\n        /* \"--CODEGEN--\":8476:8492   */\n      add\n        /* \"--CODEGEN--\":8469:8496   */\n      mstore\n        /* \"--CODEGEN--\":8408:8502   */\n      pop\n      pop\n      pop\n      jump\n        /* \"--CODEGEN--\":8511:8779   */\n    tag_90:\n        /* \"--CODEGEN--\":8576:8577   */\n      0x00\n        /* \"--CODEGEN--\":8583:8684   */\n    tag_154:\n        /* \"--CODEGEN--\":8597:8603   */\n      dup4\n        /* \"--CODEGEN--\":8594:8595   */\n      dup2\n        /* \"--CODEGEN--\":8591:8604   */\n      lt\n        /* \"--CODEGEN--\":8583:8684   */\n      iszero\n      tag_156\n      jumpi\n        /* \"--CODEGEN--\":8673:8674   */\n      dup1\n        /* \"--CODEGEN--\":8668:8671   */\n      dup3\n        /* \"--CODEGEN--\":8664:8675   */\n      add\n        /* \"--CODEGEN--\":8658:8676   */\n      mload\n        /* \"--CODEGEN--\":8654:8655   */\n      dup2\n        /* \"--CODEGEN--\":8649:8652   */\n      dup5\n        /* \"--CODEGEN--\":8645:8656   */\n      add\n        /* \"--CODEGEN--\":8638:8677   */\n      mstore\n        /* \"--CODEGEN--\":8619:8621   */\n      0x20\n        /* \"--CODEGEN--\":8616:8617   */\n      dup2\n        /* \"--CODEGEN--\":8612:8622   */\n      add\n        /* \"--CODEGEN--\":8607:8622   */\n      swap1\n      pop\n        /* \"--CODEGEN--\":8583:8684   */\n      jump(tag_154)\n    tag_156:\n        /* \"--CODEGEN--\":8699:8705   */\n      dup4\n        /* \"--CODEGEN--\":8696:8697   */\n      dup2\n        /* \"--CODEGEN--\":8693:8706   */\n      gt\n        /* \"--CODEGEN--\":8690:8692   */\n      iszero\n      tag_157\n      jumpi\n        /* \"--CODEGEN--\":8764:8765   */\n      0x00\n        /* \"--CODEGEN--\":8755:8761   */\n      dup5\n        /* \"--CODEGEN--\":8750:8753   */\n      dup5\n        /* \"--CODEGEN--\":8746:8762   */\n      add\n        /* \"--CODEGEN--\":8739:8766   */\n      mstore\n        /* \"--CODEGEN--\":8690:8692   */\n    tag_157:\n        /* \"--CODEGEN--\":8560:8779   */\n      pop\n      pop\n      pop\n      pop\n      jump\n        /* \"--CODEGEN--\":8787:8884   */\n    tag_92:\n      0x00\n        /* \"--CODEGEN--\":8875:8877   */\n      0x1f\n        /* \"--CODEGEN--\":8871:8878   */\n      not\n        /* \"--CODEGEN--\":8866:8868   */\n      0x1f\n        /* \"--CODEGEN--\":8859:8864   */\n      dup4\n        /* \"--CODEGEN--\":8855:8869   */\n      add\n        /* \"--CODEGEN--\":8851:8879   */\n      and\n        /* \"--CODEGEN--\":8841:8879   */\n      swap1\n      pop\n        /* \"--CODEGEN--\":8835:8884   */\n      swap2\n      swap1\n      pop\n      jump\n        /* \"--CODEGEN--\":8892:9009   */\n    tag_75:\n        /* \"--CODEGEN--\":8961:8985   */\n      tag_160\n        /* \"--CODEGEN--\":8979:8984   */\n      dup2\n        /* \"--CODEGEN--\":8961:8985   */\n      jump(tag_126)\n    tag_160:\n        /* \"--CODEGEN--\":8954:8959   */\n      dup2\n        /* \"--CODEGEN--\":8951:8986   */\n      eq\n        /* \"--CODEGEN--\":8941:8943   */\n      tag_161\n      jumpi\n        /* \"--CODEGEN--\":9000:9001   */\n      0x00\n        /* \"--CODEGEN--\":8997:8998   */\n      dup1\n        /* \"--CODEGEN--\":8990:9002   */\n      revert\n        /* \"--CODEGEN--\":8941:8943   */\n    tag_161:\n        /* \"--CODEGEN--\":8935:9009   */\n      pop\n      jump\n\n    auxdata: 0xa26469706673582212206a3af22a983f0cd3c7627e9539a1ad47b69ce73664d8ad39fce3c8a6663777d964736f6c63430006050033\n}\n",
				"bytecode": {
					"linkReferences": {},
					"object": "608060405260008055600060015534801561001957600080fd5b506108c8806100296000396000f3fe608060405234801561001057600080fd5b506004361061004c5760003560e01c80633aa6d20814610051578063694b9d341461008157806371d3f37a1461009f578063f8f552b4146100cf575b600080fd5b61006b60048036038101906100669190610479565b6100eb565b604051610078919061076e565b60405180910390f35b610089610154565b604051610096919061076e565b60405180910390f35b6100b960048036038101906100b49190610438565b61015a565b6040516100c691906106ec565b60405180910390f35b6100e960048036038101906100e49190610438565b610225565b005b60006005600154014211610134576040517f08c379a000000000000000000000000000000000000000000000000000000000815260040161012b9061074e565b60405180910390fd5b426001819055508160008082825401925050819055506000549050919050565b60005481565b606060405160200161016b906106d7565b604051602081830303815290604052805190602001208260405160200161019291906106a9565b60405160208183030381529060405280519060200120146101e8576040517f08c379a00000000000000000000000000000000000000000000000000000000081526004016101df9061070e565b60405180910390fd5b6040518060400160405280601481526020017f436f6e7472617365c3b16120436f7272656374610000000000000000000000008152509050919050565b60008090505b6002805490508110156102ea576002818154811061024557fe5b9060005260206000200160405160200161025f91906106c0565b604051602081830303815290604052805190602001208260405160200161028691906106a9565b6040516020818303038152906040528051906020012014156102dd576040517f08c379a00000000000000000000000000000000000000000000000000000000081526004016102d49061072e565b60405180910390fd5b808060010191505061022b565b5060028190806001815401808255809150506001900390600052602060002001600090919091909150908051906020019061032692919061032a565b5050565b828054600181600116156101000203166002900490600052602060002090601f016020900481019282601f1061036b57805160ff1916838001178555610399565b82800160010185558215610399579182015b8281111561039857825182559160200191906001019061037d565b5b5090506103a691906103aa565b5090565b6103cc91905b808211156103c85760008160009055506001016103b0565b5090565b90565b600082601f8301126103e057600080fd5b81356103f36103ee826107b6565b610789565b9150808252602083016020830185838301111561040f57600080fd5b61041a838284610828565b50505092915050565b6000813590506104328161087b565b92915050565b60006020828403121561044a57600080fd5b600082013567ffffffffffffffff81111561046457600080fd5b610470848285016103cf565b91505092915050565b60006020828403121561048b57600080fd5b600061049984828501610423565b91505092915050565b60006104ad826107f7565b6104b78185610802565b93506104c7818560208601610837565b6104d08161086a565b840191505092915050565b60006104e6826107f7565b6104f08185610813565b9350610500818560208601610837565b80840191505092915050565b600081546001811660008114610529576001811461054e57610592565b607f600283041661053a8187610813565b955060ff1983168652808601935050610592565b6002820461055c8187610813565b9550610567856107e2565b60005b828110156105895781548189015260018201915060208101905061056a565b82880195505050505b505092915050565b60006105a7601683610802565b91507f436f6e7472617365c3b16120696e636f727265637461000000000000000000006000830152602082019050919050565b60006105e7601383610802565b91507f7961206573746120656e206c61206c69737461000000000000000000000000006000830152602082019050919050565b6000610627601483610802565b91507f41c3ba6e206e6f207075656465732070616761720000000000000000000000006000830152602082019050919050565b6000610667600683610813565b91507f31323334353600000000000000000000000000000000000000000000000000006000830152600682019050919050565b6106a38161081e565b82525050565b60006106b582846104db565b915081905092915050565b60006106cc828461050c565b915081905092915050565b60006106e28261065a565b9150819050919050565b6000602082019050818103600083015261070681846104a2565b905092915050565b600060208201905081810360008301526107278161059a565b9050919050565b60006020820190508181036000830152610747816105da565b9050919050565b600060208201905081810360008301526107678161061a565b9050919050565b6000602082019050610783600083018461069a565b92915050565b6000604051905081810181811067ffffffffffffffff821117156107ac57600080fd5b8060405250919050565b600067ffffffffffffffff8211156107cd57600080fd5b601f19601f8301169050602081019050919050565b60008190508160005260206000209050919050565b600081519050919050565b600082825260208201905092915050565b600081905092915050565b6000819050919050565b82818337600083830152505050565b60005b8381101561085557808201518184015260208101905061083a565b83811115610864576000848401525b50505050565b6000601f19601f8301169050919050565b6108848161081e565b811461088f57600080fd5b5056fea26469706673582212206a3af22a983f0cd3c7627e9539a1ad47b69ce73664d8ad39fce3c8a6663777d964736f6c63430006050033",
					"opcodes": "PUSH1 0x80 PUSH1 0x40 MSTORE PUSH1 0x0 DUP1 SSTORE PUSH1 0x0 PUSH1 0x1 SSTORE CALLVALUE DUP1 ISZERO PUSH2 0x19 JUMPI PUSH1 0x0 DUP1 REVERT JUMPDEST POP PUSH2 0x8C8 DUP1 PUSH2 0x29 PUSH1 0x0 CODECOPY PUSH1 0x0 RETURN INVALID PUSH1 0x80 PUSH1 0x40 MSTORE CALLVALUE DUP1 ISZERO PUSH2 0x10 JUMPI PUSH1 0x0 DUP1 REVERT JUMPDEST POP PUSH1 0x4 CALLDATASIZE LT PUSH2 0x4C JUMPI PUSH1 0x0 CALLDATALOAD PUSH1 0xE0 SHR DUP1 PUSH4 0x3AA6D208 EQ PUSH2 0x51 JUMPI DUP1 PUSH4 0x694B9D34 EQ PUSH2 0x81 JUMPI DUP1 PUSH4 0x71D3F37A EQ PUSH2 0x9F JUMPI DUP1 PUSH4 0xF8F552B4 EQ PUSH2 0xCF JUMPI JUMPDEST PUSH1 0x0 DUP1 REVERT JUMPDEST PUSH2 0x6B PUSH1 0x4 DUP1 CALLDATASIZE SUB DUP2 ADD SWAP1 PUSH2 0x66 SWAP2 SWAP1 PUSH2 0x479 JUMP JUMPDEST PUSH2 0xEB JUMP JUMPDEST PUSH1 0x40 MLOAD PUSH2 0x78 SWAP2 SWAP1 PUSH2 0x76E JUMP JUMPDEST PUSH1 0x40 MLOAD DUP1 SWAP2 SUB SWAP1 RETURN JUMPDEST PUSH2 0x89 PUSH2 0x154 JUMP JUMPDEST PUSH1 0x40 MLOAD PUSH2 0x96 SWAP2 SWAP1 PUSH2 0x76E JUMP JUMPDEST PUSH1 0x40 MLOAD DUP1 SWAP2 SUB SWAP1 RETURN JUMPDEST PUSH2 0xB9 PUSH1 0x4 DUP1 CALLDATASIZE SUB DUP2 ADD SWAP1 PUSH2 0xB4 SWAP2 SWAP1 PUSH2 0x438 JUMP JUMPDEST PUSH2 0x15A JUMP JUMPDEST PUSH1 0x40 MLOAD PUSH2 0xC6 SWAP2 SWAP1 PUSH2 0x6EC JUMP JUMPDEST PUSH1 0x40 MLOAD DUP1 SWAP2 SUB SWAP1 RETURN JUMPDEST PUSH2 0xE9 PUSH1 0x4 DUP1 CALLDATASIZE SUB DUP2 ADD SWAP1 PUSH2 0xE4 SWAP2 SWAP1 PUSH2 0x438 JUMP JUMPDEST PUSH2 0x225 JUMP JUMPDEST STOP JUMPDEST PUSH1 0x0 PUSH1 0x5 PUSH1 0x1 SLOAD ADD TIMESTAMP GT PUSH2 0x134 JUMPI PUSH1 0x40 MLOAD PUSH32 0x8C379A000000000000000000000000000000000000000000000000000000000 DUP2 MSTORE PUSH1 0x4 ADD PUSH2 0x12B SWAP1 PUSH2 0x74E JUMP JUMPDEST PUSH1 0x40 MLOAD DUP1 SWAP2 SUB SWAP1 REVERT JUMPDEST TIMESTAMP PUSH1 0x1 DUP2 SWAP1 SSTORE POP DUP2 PUSH1 0x0 DUP1 DUP3 DUP3 SLOAD ADD SWAP3 POP POP DUP2 SWAP1 SSTORE POP PUSH1 0x0 SLOAD SWAP1 POP SWAP2 SWAP1 POP JUMP JUMPDEST PUSH1 0x0 SLOAD DUP2 JUMP JUMPDEST PUSH1 0x60 PUSH1 0x40 MLOAD PUSH1 0x20 ADD PUSH2 0x16B SWAP1 PUSH2 0x6D7 JUMP JUMPDEST PUSH1 0x40 MLOAD PUSH1 0x20 DUP2 DUP4 SUB SUB DUP2 MSTORE SWAP1 PUSH1 0x40 MSTORE DUP1 MLOAD SWAP1 PUSH1 0x20 ADD KECCAK256 DUP3 PUSH1 0x40 MLOAD PUSH1 0x20 ADD PUSH2 0x192 SWAP2 SWAP1 PUSH2 0x6A9 JUMP JUMPDEST PUSH1 0x40 MLOAD PUSH1 0x20 DUP2 DUP4 SUB SUB DUP2 MSTORE SWAP1 PUSH1 0x40 MSTORE DUP1 MLOAD SWAP1 PUSH1 0x20 ADD KECCAK256 EQ PUSH2 0x1E8 JUMPI PUSH1 0x40 MLOAD PUSH32 0x8C379A000000000000000000000000000000000000000000000000000000000 DUP2 MSTORE PUSH1 0x4 ADD PUSH2 0x1DF SWAP1 PUSH2 0x70E JUMP JUMPDEST PUSH1 0x40 MLOAD DUP1 SWAP2 SUB SWAP1 REVERT JUMPDEST PUSH1 0x40 MLOAD DUP1 PUSH1 0x40 ADD PUSH1 0x40 MSTORE DUP1 PUSH1 0x14 DUP2 MSTORE PUSH1 0x20 ADD PUSH32 0x436F6E7472617365C3B16120436F727265637461000000000000000000000000 DUP2 MSTORE POP SWAP1 POP SWAP2 SWAP1 POP JUMP JUMPDEST PUSH1 0x0 DUP1 SWAP1 POP JUMPDEST PUSH1 0x2 DUP1 SLOAD SWAP1 POP DUP2 LT ISZERO PUSH2 0x2EA JUMPI PUSH1 0x2 DUP2 DUP2 SLOAD DUP2 LT PUSH2 0x245 JUMPI INVALID JUMPDEST SWAP1 PUSH1 0x0 MSTORE PUSH1 0x20 PUSH1 0x0 KECCAK256 ADD PUSH1 0x40 MLOAD PUSH1 0x20 ADD PUSH2 0x25F SWAP2 SWAP1 PUSH2 0x6C0 JUMP JUMPDEST PUSH1 0x40 MLOAD PUSH1 0x20 DUP2 DUP4 SUB SUB DUP2 MSTORE SWAP1 PUSH1 0x40 MSTORE DUP1 MLOAD SWAP1 PUSH1 0x20 ADD KECCAK256 DUP3 PUSH1 0x40 MLOAD PUSH1 0x20 ADD PUSH2 0x286 SWAP2 SWAP1 PUSH2 0x6A9 JUMP JUMPDEST PUSH1 0x40 MLOAD PUSH1 0x20 DUP2 DUP4 SUB SUB DUP2 MSTORE SWAP1 PUSH1 0x40 MSTORE DUP1 MLOAD SWAP1 PUSH1 0x20 ADD KECCAK256 EQ ISZERO PUSH2 0x2DD JUMPI PUSH1 0x40 MLOAD PUSH32 0x8C379A000000000000000000000000000000000000000000000000000000000 DUP2 MSTORE PUSH1 0x4 ADD PUSH2 0x2D4 SWAP1 PUSH2 0x72E JUMP JUMPDEST PUSH1 0x40 MLOAD DUP1 SWAP2 SUB SWAP1 REVERT JUMPDEST DUP1 DUP1 PUSH1 0x1 ADD SWAP2 POP POP PUSH2 0x22B JUMP JUMPDEST POP PUSH1 0x2 DUP2 SWAP1 DUP1 PUSH1 0x1 DUP2 SLOAD ADD DUP1 DUP3 SSTORE DUP1 SWAP2 POP POP PUSH1 0x1 SWAP1 SUB SWAP1 PUSH1 0x0 MSTORE PUSH1 0x20 PUSH1 0x0 KECCAK256 ADD PUSH1 0x0 SWAP1 SWAP2 SWAP1 SWAP2 SWAP1 SWAP2 POP SWAP1 DUP1 MLOAD SWAP1 PUSH1 0x20 ADD SWAP1 PUSH2 0x326 SWAP3 SWAP2 SWAP1 PUSH2 0x32A JUMP JUMPDEST POP POP JUMP JUMPDEST DUP3 DUP1 SLOAD PUSH1 0x1 DUP2 PUSH1 0x1 AND ISZERO PUSH2 0x100 MUL SUB AND PUSH1 0x2 SWAP1 DIV SWAP1 PUSH1 0x0 MSTORE PUSH1 0x20 PUSH1 0x0 KECCAK256 SWAP1 PUSH1 0x1F ADD PUSH1 0x20 SWAP1 DIV DUP2 ADD SWAP3 DUP3 PUSH1 0x1F LT PUSH2 0x36B JUMPI DUP1 MLOAD PUSH1 0xFF NOT AND DUP4 DUP1 ADD OR DUP6 SSTORE PUSH2 0x399 JUMP JUMPDEST DUP3 DUP1 ADD PUSH1 0x1 ADD DUP6 SSTORE DUP3 ISZERO PUSH2 0x399 JUMPI SWAP2 DUP3 ADD JUMPDEST DUP3 DUP2 GT ISZERO PUSH2 0x398 JUMPI DUP3 MLOAD DUP3 SSTORE SWAP2 PUSH1 0x20 ADD SWAP2 SWAP1 PUSH1 0x1 ADD SWAP1 PUSH2 0x37D JUMP JUMPDEST JUMPDEST POP SWAP1 POP PUSH2 0x3A6 SWAP2 SWAP1 PUSH2 0x3AA JUMP JUMPDEST POP SWAP1 JUMP JUMPDEST PUSH2 0x3CC SWAP2 SWAP1 JUMPDEST DUP1 DUP3 GT ISZERO PUSH2 0x3C8 JUMPI PUSH1 0x0 DUP2 PUSH1 0x0 SWAP1 SSTORE POP PUSH1 0x1 ADD PUSH2 0x3B0 JUMP JUMPDEST POP SWAP1 JUMP JUMPDEST SWAP1 JUMP JUMPDEST PUSH1 0x0 DUP3 PUSH1 0x1F DUP4 ADD SLT PUSH2 0x3E0 JUMPI PUSH1 0x0 DUP1 REVERT JUMPDEST DUP2 CALLDATALOAD PUSH2 0x3F3 PUSH2 0x3EE DUP3 PUSH2 0x7B6 JUMP JUMPDEST PUSH2 0x789 JUMP JUMPDEST SWAP2 POP DUP1 DUP3 MSTORE PUSH1 0x20 DUP4 ADD PUSH1 0x20 DUP4 ADD DUP6 DUP4 DUP4 ADD GT ISZERO PUSH2 0x40F JUMPI PUSH1 0x0 DUP1 REVERT JUMPDEST PUSH2 0x41A DUP4 DUP3 DUP5 PUSH2 0x828 JUMP JUMPDEST POP POP POP SWAP3 SWAP2 POP POP JUMP JUMPDEST PUSH1 0x0 DUP2 CALLDATALOAD SWAP1 POP PUSH2 0x432 DUP2 PUSH2 0x87B JUMP JUMPDEST SWAP3 SWAP2 POP POP JUMP JUMPDEST PUSH1 0x0 PUSH1 0x20 DUP3 DUP5 SUB SLT ISZERO PUSH2 0x44A JUMPI PUSH1 0x0 DUP1 REVERT JUMPDEST PUSH1 0x0 DUP3 ADD CALLDATALOAD PUSH8 0xFFFFFFFFFFFFFFFF DUP2 GT ISZERO PUSH2 0x464 JUMPI PUSH1 0x0 DUP1 REVERT JUMPDEST PUSH2 0x470 DUP5 DUP3 DUP6 ADD PUSH2 0x3CF JUMP JUMPDEST SWAP2 POP POP SWAP3 SWAP2 POP POP JUMP JUMPDEST PUSH1 0x0 PUSH1 0x20 DUP3 DUP5 SUB SLT ISZERO PUSH2 0x48B JUMPI PUSH1 0x0 DUP1 REVERT JUMPDEST PUSH1 0x0 PUSH2 0x499 DUP5 DUP3 DUP6 ADD PUSH2 0x423 JUMP JUMPDEST SWAP2 POP POP SWAP3 SWAP2 POP POP JUMP JUMPDEST PUSH1 0x0 PUSH2 0x4AD DUP3 PUSH2 0x7F7 JUMP JUMPDEST PUSH2 0x4B7 DUP2 DUP6 PUSH2 0x802 JUMP JUMPDEST SWAP4 POP PUSH2 0x4C7 DUP2 DUP6 PUSH1 0x20 DUP7 ADD PUSH2 0x837 JUMP JUMPDEST PUSH2 0x4D0 DUP2 PUSH2 0x86A JUMP JUMPDEST DUP5 ADD SWAP2 POP POP SWAP3 SWAP2 POP POP JUMP JUMPDEST PUSH1 0x0 PUSH2 0x4E6 DUP3 PUSH2 0x7F7 JUMP JUMPDEST PUSH2 0x4F0 DUP2 DUP6 PUSH2 0x813 JUMP JUMPDEST SWAP4 POP PUSH2 0x500 DUP2 DUP6 PUSH1 0x20 DUP7 ADD PUSH2 0x837 JUMP JUMPDEST DUP1 DUP5 ADD SWAP2 POP POP SWAP3 SWAP2 POP POP JUMP JUMPDEST PUSH1 0x0 DUP2 SLOAD PUSH1 0x1 DUP2 AND PUSH1 0x0 DUP2 EQ PUSH2 0x529 JUMPI PUSH1 0x1 DUP2 EQ PUSH2 0x54E JUMPI PUSH2 0x592 JUMP JUMPDEST PUSH1 0x7F PUSH1 0x2 DUP4 DIV AND PUSH2 0x53A DUP2 DUP8 PUSH2 0x813 JUMP JUMPDEST SWAP6 POP PUSH1 0xFF NOT DUP4 AND DUP7 MSTORE DUP1 DUP7 ADD SWAP4 POP POP PUSH2 0x592 JUMP JUMPDEST PUSH1 0x2 DUP3 DIV PUSH2 0x55C DUP2 DUP8 PUSH2 0x813 JUMP JUMPDEST SWAP6 POP PUSH2 0x567 DUP6 PUSH2 0x7E2 JUMP JUMPDEST PUSH1 0x0 JUMPDEST DUP3 DUP2 LT ISZERO PUSH2 0x589 JUMPI DUP2 SLOAD DUP2 DUP10 ADD MSTORE PUSH1 0x1 DUP3 ADD SWAP2 POP PUSH1 0x20 DUP2 ADD SWAP1 POP PUSH2 0x56A JUMP JUMPDEST DUP3 DUP9 ADD SWAP6 POP POP POP POP JUMPDEST POP POP SWAP3 SWAP2 POP POP JUMP JUMPDEST PUSH1 0x0 PUSH2 0x5A7 PUSH1 0x16 DUP4 PUSH2 0x802 JUMP JUMPDEST SWAP2 POP PUSH32 0x436F6E7472617365C3B16120696E636F72726563746100000000000000000000 PUSH1 0x0 DUP4 ADD MSTORE PUSH1 0x20 DUP3 ADD SWAP1 POP SWAP2 SWAP1 POP JUMP JUMPDEST PUSH1 0x0 PUSH2 0x5E7 PUSH1 0x13 DUP4 PUSH2 0x802 JUMP JUMPDEST SWAP2 POP PUSH32 0x7961206573746120656E206C61206C6973746100000000000000000000000000 PUSH1 0x0 DUP4 ADD MSTORE PUSH1 0x20 DUP3 ADD SWAP1 POP SWAP2 SWAP1 POP JUMP JUMPDEST PUSH1 0x0 PUSH2 0x627 PUSH1 0x14 DUP4 PUSH2 0x802 JUMP JUMPDEST SWAP2 POP PUSH32 0x41C3BA6E206E6F20707565646573207061676172000000000000000000000000 PUSH1 0x0 DUP4 ADD MSTORE PUSH1 0x20 DUP3 ADD SWAP1 POP SWAP2 SWAP1 POP JUMP JUMPDEST PUSH1 0x0 PUSH2 0x667 PUSH1 0x6 DUP4 PUSH2 0x813 JUMP JUMPDEST SWAP2 POP PUSH32 0x3132333435360000000000000000000000000000000000000000000000000000 PUSH1 0x0 DUP4 ADD MSTORE PUSH1 0x6 DUP3 ADD SWAP1 POP SWAP2 SWAP1 POP JUMP JUMPDEST PUSH2 0x6A3 DUP2 PUSH2 0x81E JUMP JUMPDEST DUP3 MSTORE POP POP JUMP JUMPDEST PUSH1 0x0 PUSH2 0x6B5 DUP3 DUP5 PUSH2 0x4DB JUMP JUMPDEST SWAP2 POP DUP2 SWAP1 POP SWAP3 SWAP2 POP POP JUMP JUMPDEST PUSH1 0x0 PUSH2 0x6CC DUP3 DUP5 PUSH2 0x50C JUMP JUMPDEST SWAP2 POP DUP2 SWAP1 POP SWAP3 SWAP2 POP POP JUMP JUMPDEST PUSH1 0x0 PUSH2 0x6E2 DUP3 PUSH2 0x65A JUMP JUMPDEST SWAP2 POP DUP2 SWAP1 POP SWAP2 SWAP1 POP JUMP JUMPDEST PUSH1 0x0 PUSH1 0x20 DUP3 ADD SWAP1 POP DUP2 DUP2 SUB PUSH1 0x0 DUP4 ADD MSTORE PUSH2 0x706 DUP2 DUP5 PUSH2 0x4A2 JUMP JUMPDEST SWAP1 POP SWAP3 SWAP2 POP POP JUMP JUMPDEST PUSH1 0x0 PUSH1 0x20 DUP3 ADD SWAP1 POP DUP2 DUP2 SUB PUSH1 0x0 DUP4 ADD MSTORE PUSH2 0x727 DUP2 PUSH2 0x59A JUMP JUMPDEST SWAP1 POP SWAP2 SWAP1 POP JUMP JUMPDEST PUSH1 0x0 PUSH1 0x20 DUP3 ADD SWAP1 POP DUP2 DUP2 SUB PUSH1 0x0 DUP4 ADD MSTORE PUSH2 0x747 DUP2 PUSH2 0x5DA JUMP JUMPDEST SWAP1 POP SWAP2 SWAP1 POP JUMP JUMPDEST PUSH1 0x0 PUSH1 0x20 DUP3 ADD SWAP1 POP DUP2 DUP2 SUB PUSH1 0x0 DUP4 ADD MSTORE PUSH2 0x767 DUP2 PUSH2 0x61A JUMP JUMPDEST SWAP1 POP SWAP2 SWAP1 POP JUMP JUMPDEST PUSH1 0x0 PUSH1 0x20 DUP3 ADD SWAP1 POP PUSH2 0x783 PUSH1 0x0 DUP4 ADD DUP5 PUSH2 0x69A JUMP JUMPDEST SWAP3 SWAP2 POP POP JUMP JUMPDEST PUSH1 0x0 PUSH1 0x40 MLOAD SWAP1 POP DUP2 DUP2 ADD DUP2 DUP2 LT PUSH8 0xFFFFFFFFFFFFFFFF DUP3 GT OR ISZERO PUSH2 0x7AC JUMPI PUSH1 0x0 DUP1 REVERT JUMPDEST DUP1 PUSH1 0x40 MSTORE POP SWAP2 SWAP1 POP JUMP JUMPDEST PUSH1 0x0 PUSH8 0xFFFFFFFFFFFFFFFF DUP3 GT ISZERO PUSH2 0x7CD JUMPI PUSH1 0x0 DUP1 REVERT JUMPDEST PUSH1 0x1F NOT PUSH1 0x1F DUP4 ADD AND SWAP1 POP PUSH1 0x20 DUP2 ADD SWAP1 POP SWAP2 SWAP1 POP JUMP JUMPDEST PUSH1 0x0 DUP2 SWAP1 POP DUP2 PUSH1 0x0 MSTORE PUSH1 0x20 PUSH1 0x0 KECCAK256 SWAP1 POP SWAP2 SWAP1 POP JUMP JUMPDEST PUSH1 0x0 DUP2 MLOAD SWAP1 POP SWAP2 SWAP1 POP JUMP JUMPDEST PUSH1 0x0 DUP3 DUP3 MSTORE PUSH1 0x20 DUP3 ADD SWAP1 POP SWAP3 SWAP2 POP POP JUMP JUMPDEST PUSH1 0x0 DUP2 SWAP1 POP SWAP3 SWAP2 POP POP JUMP JUMPDEST PUSH1 0x0 DUP2 SWAP1 POP SWAP2 SWAP1 POP JUMP JUMPDEST DUP3 DUP2 DUP4 CALLDATACOPY PUSH1 0x0 DUP4 DUP4 ADD MSTORE POP POP POP JUMP JUMPDEST PUSH1 0x0 JUMPDEST DUP4 DUP2 LT ISZERO PUSH2 0x855 JUMPI DUP1 DUP3 ADD MLOAD DUP2 DUP5 ADD MSTORE PUSH1 0x20 DUP2 ADD SWAP1 POP PUSH2 0x83A JUMP JUMPDEST DUP4 DUP2 GT ISZERO PUSH2 0x864 JUMPI PUSH1 0x0 DUP5 DUP5 ADD MSTORE JUMPDEST POP POP POP POP JUMP JUMPDEST PUSH1 0x0 PUSH1 0x1F NOT PUSH1 0x1F DUP4 ADD AND SWAP1 POP SWAP2 SWAP1 POP JUMP JUMPDEST PUSH2 0x884 DUP2 PUSH2 0x81E JUMP JUMPDEST DUP2 EQ PUSH2 0x88F JUMPI PUSH1 0x0 DUP1 REVERT JUMPDEST POP JUMP INVALID LOG2 PUSH5 0x6970667358 0x22 SLT KECCAK256 PUSH11 0x3AF22A983F0CD3C7627E95 CODECOPY LOG1 0xAD SELFBALANCE 0xB6 SWAP13 0xE7 CALLDATASIZE PUSH5 0xD8AD39FCE3 0xC8 0xA6 PUSH7 0x3777D964736F6C PUSH4 0x43000605 STOP CALLER "
				},
				"gasEstimates": {
					"creation": {
						"codeDepositCost": "449600",
						"executionCost": "10498",
						"totalCost": "460098"
					},
					"external": {
						"cartera()": "1129",
						"nuevoNombre(string)": "infinite",
						"pagar(uint256)": "infinite",
						"password(string)": "infinite"
					}
				},
				"methodIdentifiers": {
					"cartera()": "694b9d34",
					"nuevoNombre(string)": "f8f552b4",
					"pagar(uint256)": "3aa6d208",
					"password(string)": "71d3f37a"
				}
			},
			"storageLayout": {
				"storage": [
					{
						"astId": 33,
						"contract": "Funciones avanzadas/require.sol:Require",
						"label": "cartera",
						"offset": 0,
						"slot": "0",
						"type": "t_uint256"
					},
					{
						"astId": 36,
						"contract": "Funciones avanzadas/require.sol:Require",
						"label": "tiempo",
						"offset": 0,
						"slot": "1",
						"type": "t_uint256"
					},
					{
						"astId": 66,
						"contract": "Funciones avanzadas/require.sol:Require",
						"label": "nombres",
						"offset": 0,
						"slot": "2",
						"type": "t_array(t_string_storage)dyn_storage"
					}
				],
				"types": {
					"t_array(t_string_storage)dyn_storage": {
						"base": "t_string_storage",
						"encoding": "dynamic_array",
						"label": "string[]",
						"numberOfBytes": "32"
					},
					"t_string_storage": {
						"encoding": "bytes",
						"label": "string",
						"numberOfBytes": "32"
					},
					"t_uint256": {
						"encoding": "inplace",
						"label": "uint256",
						"numberOfBytes": "32"
					}
				}
			},
			"userdoc": {
				"methods": {}
			}
		}
	}
}