{
	"Funciones avanzadas/require.sol": {
		"Require": {
			"abi": [
				{
					"inputs": [],
					"name": "cartera",
					"outputs": [
						{
							"internalType": "uint256",
							"name": "",
							"type": "uint256"
						}
					],
					"stateMutability": "view",
					"type": "function"
				},
				{
					"inputs": [
						{
							"internalType": "uint256",
							"name": "_cantidad",
							"type": "uint256"
						}
					],
					"name": "pagar",
					"outputs": [
						{
							"internalType": "uint256",
							"name": "",
							"type": "uint256"
						}
					],
					"stateMutability": "nonpayable",
					"type": "function"
				},
				{
					"inputs": [
						{
							"internalType": "string",
							"name": "_password",
							"type": "string"
						}
					],
					"name": "password",
					"outputs": [
						{
							"internalType": "string",
							"name": "",
							"type": "string"
						}
					],
					"stateMutability": "pure",
					"type": "function"
				}
			],
			"devdoc": {
				"methods": {}
			},
			"evm": {
				"assembly": "    /* \"Funciones avanzadas/require.sol\":98:549  contract Require{\r... */\n  mstore(0x40, 0x80)\n    /* \"Funciones avanzadas/require.sol\":477:478  0 */\n  0x00\n    /* \"Funciones avanzadas/require.sol\":455:478  uint public cartera = 0 */\n  dup1\n  sstore\n    /* \"Funciones avanzadas/require.sol\":98:549  contract Require{\r... */\n  callvalue\n    /* \"--CODEGEN--\":5:14   */\n  dup1\n    /* \"--CODEGEN--\":2:4   */\n  iszero\n  tag_1\n  jumpi\n    /* \"--CODEGEN--\":27:28   */\n  0x00\n    /* \"--CODEGEN--\":24:25   */\n  dup1\n    /* \"--CODEGEN--\":17:29   */\n  revert\n    /* \"--CODEGEN--\":2:4   */\ntag_1:\n    /* \"Funciones avanzadas/require.sol\":98:549  contract Require{\r... */\n  pop\n  dataSize(sub_0)\n  dup1\n  dataOffset(sub_0)\n  0x00\n  codecopy\n  0x00\n  return\nstop\n\nsub_0: assembly {\n        /* \"Funciones avanzadas/require.sol\":98:549  contract Require{\r... */\n      mstore(0x40, 0x80)\n      callvalue\n        /* \"--CODEGEN--\":5:14   */\n      dup1\n        /* \"--CODEGEN--\":2:4   */\n      iszero\n      tag_1\n      jumpi\n        /* \"--CODEGEN--\":27:28   */\n      0x00\n        /* \"--CODEGEN--\":24:25   */\n      dup1\n        /* \"--CODEGEN--\":17:29   */\n      revert\n        /* \"--CODEGEN--\":2:4   */\n    tag_1:\n        /* \"Funciones avanzadas/require.sol\":98:549  contract Require{\r... */\n      pop\n      jumpi(tag_2, lt(calldatasize, 0x04))\n      shr(0xe0, calldataload(0x00))\n      dup1\n      0x3aa6d208\n      eq\n      tag_3\n      jumpi\n      dup1\n      0x694b9d34\n      eq\n      tag_4\n      jumpi\n      dup1\n      0x71d3f37a\n      eq\n      tag_5\n      jumpi\n    tag_2:\n        /* \"--CODEGEN--\":12:13   */\n      0x00\n        /* \"--CODEGEN--\":9:10   */\n      dup1\n        /* \"--CODEGEN--\":2:14   */\n      revert\n        /* \"Funciones avanzadas/require.sol\":485:546  function pagar(uint _cantidad) public returns(uint){\r... */\n    tag_3:\n      tag_6\n      0x04\n      dup1\n      calldatasize\n      sub\n      dup2\n      add\n      swap1\n      tag_7\n      swap2\n      swap1\n      jump(tag_8)\n    tag_7:\n      tag_9\n      jump\t// in\n    tag_6:\n      mload(0x40)\n      tag_10\n      swap2\n      swap1\n      jump(tag_11)\n    tag_10:\n      mload(0x40)\n      dup1\n      swap2\n      sub\n      swap1\n      return\n        /* \"Funciones avanzadas/require.sol\":455:478  uint public cartera = 0 */\n    tag_4:\n      tag_12\n      tag_13\n      jump\t// in\n    tag_12:\n      mload(0x40)\n      tag_14\n      swap2\n      swap1\n      jump(tag_11)\n    tag_14:\n      mload(0x40)\n      dup1\n      swap2\n      sub\n      swap1\n      return\n        /* \"Funciones avanzadas/require.sol\":167:419  function password(string memory _password) public pure returns (string memory) {\r... */\n    tag_5:\n      tag_15\n      0x04\n      dup1\n      calldatasize\n      sub\n      dup2\n      add\n      swap1\n      tag_16\n      swap2\n      swap1\n      jump(tag_17)\n    tag_16:\n      tag_18\n      jump\t// in\n    tag_15:\n      mload(0x40)\n      tag_19\n      swap2\n      swap1\n      jump(tag_20)\n    tag_19:\n      mload(0x40)\n      dup1\n      swap2\n      sub\n      swap1\n      return\n        /* \"Funciones avanzadas/require.sol\":485:546  function pagar(uint _cantidad) public returns(uint){\r... */\n    tag_9:\n        /* \"Funciones avanzadas/require.sol\":531:535  uint */\n      0x00\n        /* \"Funciones avanzadas/require.sol\":485:546  function pagar(uint _cantidad) public returns(uint){\r... */\n      swap2\n      swap1\n      pop\n      jump\t// out\n        /* \"Funciones avanzadas/require.sol\":455:478  uint public cartera = 0 */\n    tag_13:\n      sload(0x00)\n      dup2\n      jump\t// out\n        /* \"Funciones avanzadas/require.sol\":167:419  function password(string memory _password) public pure returns (string memory) {\r... */\n    tag_18:\n        /* \"Funciones avanzadas/require.sol\":231:244  string memory */\n      0x60\n        /* \"Funciones avanzadas/require.sol\":317:343  abi.encodePacked(\"123456\") */\n      add(0x20, mload(0x40))\n      tag_23\n      swap1\n      jump(tag_24)\n    tag_23:\n      mload(0x40)\n        /* \"--CODEGEN--\":49:53   */\n      0x20\n        /* \"--CODEGEN--\":39:46   */\n      dup2\n        /* \"--CODEGEN--\":30:37   */\n      dup4\n        /* \"--CODEGEN--\":26:47   */\n      sub\n        /* \"--CODEGEN--\":22:54   */\n      sub\n        /* \"--CODEGEN--\":13:20   */\n      dup2\n        /* \"--CODEGEN--\":6:55   */\n      mstore\n        /* \"Funciones avanzadas/require.sol\":317:343  abi.encodePacked(\"123456\") */\n      swap1\n      0x40\n      mstore\n        /* \"Funciones avanzadas/require.sol\":307:344  keccak256(abi.encodePacked(\"123456\")) */\n      dup1\n      mload\n      swap1\n      0x20\n      add\n      keccak256\n        /* \"Funciones avanzadas/require.sol\":292:301  _password */\n      dup3\n        /* \"Funciones avanzadas/require.sol\":275:302  abi.encodePacked(_password) */\n      add(0x20, mload(0x40))\n      tag_25\n      swap2\n      swap1\n      jump(tag_26)\n    tag_25:\n      mload(0x40)\n        /* \"--CODEGEN--\":49:53   */\n      0x20\n        /* \"--CODEGEN--\":39:46   */\n      dup2\n        /* \"--CODEGEN--\":30:37   */\n      dup4\n        /* \"--CODEGEN--\":26:47   */\n      sub\n        /* \"--CODEGEN--\":22:54   */\n      sub\n        /* \"--CODEGEN--\":13:20   */\n      dup2\n        /* \"--CODEGEN--\":6:55   */\n      mstore\n        /* \"Funciones avanzadas/require.sol\":275:302  abi.encodePacked(_password) */\n      swap1\n      0x40\n      mstore\n        /* \"Funciones avanzadas/require.sol\":265:303  keccak256(abi.encodePacked(_password)) */\n      dup1\n      mload\n      swap1\n      0x20\n      add\n      keccak256\n        /* \"Funciones avanzadas/require.sol\":265:344  keccak256(abi.encodePacked(_password)) == keccak256(abi.encodePacked(\"123456\")) */\n      eq\n        /* \"Funciones avanzadas/require.sol\":257:371  require(keccak256(abi.encodePacked(_password)) == keccak256(abi.encodePacked(\"123456\")), \"Contraseña incorrecta\") */\n      tag_27\n      jumpi\n      mload(0x40)\n      0x08c379a000000000000000000000000000000000000000000000000000000000\n      dup2\n      mstore\n      0x04\n      add\n      tag_28\n      swap1\n      jump(tag_29)\n    tag_28:\n      mload(0x40)\n      dup1\n      swap2\n      sub\n      swap1\n      revert\n    tag_27:\n        /* \"Funciones avanzadas/require.sol\":382:411  return \"Contraseña Correcta\" */\n      mload(0x40)\n      dup1\n      0x40\n      add\n      0x40\n      mstore\n      dup1\n      0x14\n      dup2\n      mstore\n      0x20\n      add\n      0x436f6e7472617365c3b16120436f727265637461000000000000000000000000\n      dup2\n      mstore\n      pop\n      swap1\n      pop\n        /* \"Funciones avanzadas/require.sol\":167:419  function password(string memory _password) public pure returns (string memory) {\r... */\n      swap2\n      swap1\n      pop\n      jump\t// out\n        /* \"--CODEGEN--\":6:448   */\n    tag_31:\n      0x00\n        /* \"--CODEGEN--\":108:111   */\n      dup3\n        /* \"--CODEGEN--\":101:105   */\n      0x1f\n        /* \"--CODEGEN--\":93:99   */\n      dup4\n        /* \"--CODEGEN--\":89:106   */\n      add\n        /* \"--CODEGEN--\":85:112   */\n      slt\n        /* \"--CODEGEN--\":75:77   */\n      tag_33\n      jumpi\n        /* \"--CODEGEN--\":126:127   */\n      0x00\n        /* \"--CODEGEN--\":123:124   */\n      dup1\n        /* \"--CODEGEN--\":116:128   */\n      revert\n        /* \"--CODEGEN--\":75:77   */\n    tag_33:\n        /* \"--CODEGEN--\":163:169   */\n      dup2\n        /* \"--CODEGEN--\":150:170   */\n      calldataload\n        /* \"--CODEGEN--\":185:250   */\n      tag_34\n        /* \"--CODEGEN--\":200:249   */\n      tag_35\n        /* \"--CODEGEN--\":242:248   */\n      dup3\n        /* \"--CODEGEN--\":200:249   */\n      jump(tag_36)\n    tag_35:\n        /* \"--CODEGEN--\":185:250   */\n      jump(tag_37)\n    tag_34:\n        /* \"--CODEGEN--\":176:250   */\n      swap2\n      pop\n        /* \"--CODEGEN--\":270:276   */\n      dup1\n        /* \"--CODEGEN--\":263:268   */\n      dup3\n        /* \"--CODEGEN--\":256:277   */\n      mstore\n        /* \"--CODEGEN--\":306:310   */\n      0x20\n        /* \"--CODEGEN--\":298:304   */\n      dup4\n        /* \"--CODEGEN--\":294:311   */\n      add\n        /* \"--CODEGEN--\":339:343   */\n      0x20\n        /* \"--CODEGEN--\":332:337   */\n      dup4\n        /* \"--CODEGEN--\":328:344   */\n      add\n        /* \"--CODEGEN--\":374:377   */\n      dup6\n        /* \"--CODEGEN--\":365:371   */\n      dup4\n        /* \"--CODEGEN--\":360:363   */\n      dup4\n        /* \"--CODEGEN--\":356:372   */\n      add\n        /* \"--CODEGEN--\":353:378   */\n      gt\n        /* \"--CODEGEN--\":350:352   */\n      iszero\n      tag_38\n      jumpi\n        /* \"--CODEGEN--\":391:392   */\n      0x00\n        /* \"--CODEGEN--\":388:389   */\n      dup1\n        /* \"--CODEGEN--\":381:393   */\n      revert\n        /* \"--CODEGEN--\":350:352   */\n    tag_38:\n        /* \"--CODEGEN--\":401:442   */\n      tag_39\n        /* \"--CODEGEN--\":435:441   */\n      dup4\n        /* \"--CODEGEN--\":430:433   */\n      dup3\n        /* \"--CODEGEN--\":425:428   */\n      dup5\n        /* \"--CODEGEN--\":401:442   */\n      jump(tag_40)\n    tag_39:\n        /* \"--CODEGEN--\":68:448   */\n      pop\n      pop\n      pop\n      swap3\n      swap2\n      pop\n      pop\n      jump\n        /* \"--CODEGEN--\":456:586   */\n    tag_41:\n      0x00\n        /* \"--CODEGEN--\":536:542   */\n      dup2\n        /* \"--CODEGEN--\":523:543   */\n      calldataload\n        /* \"--CODEGEN--\":514:543   */\n      swap1\n      pop\n        /* \"--CODEGEN--\":548:581   */\n      tag_43\n        /* \"--CODEGEN--\":575:580   */\n      dup2\n        /* \"--CODEGEN--\":548:581   */\n      jump(tag_44)\n    tag_43:\n        /* \"--CODEGEN--\":508:586   */\n      swap3\n      swap2\n      pop\n      pop\n      jump\n        /* \"--CODEGEN--\":593:940   */\n    tag_17:\n      0x00\n        /* \"--CODEGEN--\":707:709   */\n      0x20\n        /* \"--CODEGEN--\":695:704   */\n      dup3\n        /* \"--CODEGEN--\":686:693   */\n      dup5\n        /* \"--CODEGEN--\":682:705   */\n      sub\n        /* \"--CODEGEN--\":678:710   */\n      slt\n        /* \"--CODEGEN--\":675:677   */\n      iszero\n      tag_46\n      jumpi\n        /* \"--CODEGEN--\":723:724   */\n      0x00\n        /* \"--CODEGEN--\":720:721   */\n      dup1\n        /* \"--CODEGEN--\":713:725   */\n      revert\n        /* \"--CODEGEN--\":675:677   */\n    tag_46:\n        /* \"--CODEGEN--\":786:787   */\n      0x00\n        /* \"--CODEGEN--\":775:784   */\n      dup3\n        /* \"--CODEGEN--\":771:788   */\n      add\n        /* \"--CODEGEN--\":758:789   */\n      calldataload\n        /* \"--CODEGEN--\":809:827   */\n      0xffffffffffffffff\n        /* \"--CODEGEN--\":801:807   */\n      dup2\n        /* \"--CODEGEN--\":798:828   */\n      gt\n        /* \"--CODEGEN--\":795:797   */\n      iszero\n      tag_47\n      jumpi\n        /* \"--CODEGEN--\":841:842   */\n      0x00\n        /* \"--CODEGEN--\":838:839   */\n      dup1\n        /* \"--CODEGEN--\":831:843   */\n      revert\n        /* \"--CODEGEN--\":795:797   */\n    tag_47:\n        /* \"--CODEGEN--\":861:924   */\n      tag_48\n        /* \"--CODEGEN--\":916:923   */\n      dup5\n        /* \"--CODEGEN--\":907:913   */\n      dup3\n        /* \"--CODEGEN--\":896:905   */\n      dup6\n        /* \"--CODEGEN--\":892:914   */\n      add\n        /* \"--CODEGEN--\":861:924   */\n      jump(tag_31)\n    tag_48:\n        /* \"--CODEGEN--\":851:924   */\n      swap2\n      pop\n        /* \"--CODEGEN--\":737:930   */\n      pop\n        /* \"--CODEGEN--\":669:940   */\n      swap3\n      swap2\n      pop\n      pop\n      jump\n        /* \"--CODEGEN--\":947:1188   */\n    tag_8:\n      0x00\n        /* \"--CODEGEN--\":1051:1053   */\n      0x20\n        /* \"--CODEGEN--\":1039:1048   */\n      dup3\n        /* \"--CODEGEN--\":1030:1037   */\n      dup5\n        /* \"--CODEGEN--\":1026:1049   */\n      sub\n        /* \"--CODEGEN--\":1022:1054   */\n      slt\n        /* \"--CODEGEN--\":1019:1021   */\n      iszero\n      tag_50\n      jumpi\n        /* \"--CODEGEN--\":1067:1068   */\n      0x00\n        /* \"--CODEGEN--\":1064:1065   */\n      dup1\n        /* \"--CODEGEN--\":1057:1069   */\n      revert\n        /* \"--CODEGEN--\":1019:1021   */\n    tag_50:\n        /* \"--CODEGEN--\":1102:1103   */\n      0x00\n        /* \"--CODEGEN--\":1119:1172   */\n      tag_51\n        /* \"--CODEGEN--\":1164:1171   */\n      dup5\n        /* \"--CODEGEN--\":1155:1161   */\n      dup3\n        /* \"--CODEGEN--\":1144:1153   */\n      dup6\n        /* \"--CODEGEN--\":1140:1162   */\n      add\n        /* \"--CODEGEN--\":1119:1172   */\n      jump(tag_41)\n    tag_51:\n        /* \"--CODEGEN--\":1109:1172   */\n      swap2\n      pop\n        /* \"--CODEGEN--\":1081:1178   */\n      pop\n        /* \"--CODEGEN--\":1013:1188   */\n      swap3\n      swap2\n      pop\n      pop\n      jump\n        /* \"--CODEGEN--\":1195:1542   */\n    tag_52:\n      0x00\n        /* \"--CODEGEN--\":1307:1346   */\n      tag_54\n        /* \"--CODEGEN--\":1340:1345   */\n      dup3\n        /* \"--CODEGEN--\":1307:1346   */\n      jump(tag_55)\n    tag_54:\n        /* \"--CODEGEN--\":1358:1429   */\n      tag_56\n        /* \"--CODEGEN--\":1422:1428   */\n      dup2\n        /* \"--CODEGEN--\":1417:1420   */\n      dup6\n        /* \"--CODEGEN--\":1358:1429   */\n      jump(tag_57)\n    tag_56:\n        /* \"--CODEGEN--\":1351:1429   */\n      swap4\n      pop\n        /* \"--CODEGEN--\":1434:1486   */\n      tag_58\n        /* \"--CODEGEN--\":1479:1485   */\n      dup2\n        /* \"--CODEGEN--\":1474:1477   */\n      dup6\n        /* \"--CODEGEN--\":1467:1471   */\n      0x20\n        /* \"--CODEGEN--\":1460:1465   */\n      dup7\n        /* \"--CODEGEN--\":1456:1472   */\n      add\n        /* \"--CODEGEN--\":1434:1486   */\n      jump(tag_59)\n    tag_58:\n        /* \"--CODEGEN--\":1507:1536   */\n      tag_60\n        /* \"--CODEGEN--\":1529:1535   */\n      dup2\n        /* \"--CODEGEN--\":1507:1536   */\n      jump(tag_61)\n    tag_60:\n        /* \"--CODEGEN--\":1502:1505   */\n      dup5\n        /* \"--CODEGEN--\":1498:1537   */\n      add\n        /* \"--CODEGEN--\":1491:1537   */\n      swap2\n      pop\n        /* \"--CODEGEN--\":1287:1542   */\n      pop\n      swap3\n      swap2\n      pop\n      pop\n      jump\n        /* \"--CODEGEN--\":1549:1909   */\n    tag_62:\n      0x00\n        /* \"--CODEGEN--\":1679:1718   */\n      tag_64\n        /* \"--CODEGEN--\":1712:1717   */\n      dup3\n        /* \"--CODEGEN--\":1679:1718   */\n      jump(tag_55)\n    tag_64:\n        /* \"--CODEGEN--\":1730:1819   */\n      tag_65\n        /* \"--CODEGEN--\":1812:1818   */\n      dup2\n        /* \"--CODEGEN--\":1807:1810   */\n      dup6\n        /* \"--CODEGEN--\":1730:1819   */\n      jump(tag_66)\n    tag_65:\n        /* \"--CODEGEN--\":1723:1819   */\n      swap4\n      pop\n        /* \"--CODEGEN--\":1824:1876   */\n      tag_67\n        /* \"--CODEGEN--\":1869:1875   */\n      dup2\n        /* \"--CODEGEN--\":1864:1867   */\n      dup6\n        /* \"--CODEGEN--\":1857:1861   */\n      0x20\n        /* \"--CODEGEN--\":1850:1855   */\n      dup7\n        /* \"--CODEGEN--\":1846:1862   */\n      add\n        /* \"--CODEGEN--\":1824:1876   */\n      jump(tag_59)\n    tag_67:\n        /* \"--CODEGEN--\":1897:1903   */\n      dup1\n        /* \"--CODEGEN--\":1892:1895   */\n      dup5\n        /* \"--CODEGEN--\":1888:1904   */\n      add\n        /* \"--CODEGEN--\":1881:1904   */\n      swap2\n      pop\n        /* \"--CODEGEN--\":1659:1909   */\n      pop\n      swap3\n      swap2\n      pop\n      pop\n      jump\n        /* \"--CODEGEN--\":1917:2281   */\n    tag_68:\n      0x00\n        /* \"--CODEGEN--\":2077:2144   */\n      tag_70\n        /* \"--CODEGEN--\":2141:2143   */\n      0x16\n        /* \"--CODEGEN--\":2136:2139   */\n      dup4\n        /* \"--CODEGEN--\":2077:2144   */\n      jump(tag_57)\n    tag_70:\n        /* \"--CODEGEN--\":2070:2144   */\n      swap2\n      pop\n        /* \"--CODEGEN--\":2177:2243   */\n      0x436f6e7472617365c3b16120696e636f72726563746100000000000000000000\n        /* \"--CODEGEN--\":2173:2174   */\n      0x00\n        /* \"--CODEGEN--\":2168:2171   */\n      dup4\n        /* \"--CODEGEN--\":2164:2175   */\n      add\n        /* \"--CODEGEN--\":2157:2244   */\n      mstore\n        /* \"--CODEGEN--\":2272:2274   */\n      0x20\n        /* \"--CODEGEN--\":2267:2270   */\n      dup3\n        /* \"--CODEGEN--\":2263:2275   */\n      add\n        /* \"--CODEGEN--\":2256:2275   */\n      swap1\n      pop\n        /* \"--CODEGEN--\":2063:2281   */\n      swap2\n      swap1\n      pop\n      jump\n        /* \"--CODEGEN--\":2290:2630   */\n    tag_71:\n      0x00\n        /* \"--CODEGEN--\":2468:2552   */\n      tag_73\n        /* \"--CODEGEN--\":2550:2551   */\n      0x06\n        /* \"--CODEGEN--\":2545:2548   */\n      dup4\n        /* \"--CODEGEN--\":2468:2552   */\n      jump(tag_66)\n    tag_73:\n        /* \"--CODEGEN--\":2461:2552   */\n      swap2\n      pop\n        /* \"--CODEGEN--\":2585:2593   */\n      0x3132333435360000000000000000000000000000000000000000000000000000\n        /* \"--CODEGEN--\":2581:2582   */\n      0x00\n        /* \"--CODEGEN--\":2576:2579   */\n      dup4\n        /* \"--CODEGEN--\":2572:2583   */\n      add\n        /* \"--CODEGEN--\":2565:2594   */\n      mstore\n        /* \"--CODEGEN--\":2622:2623   */\n      0x06\n        /* \"--CODEGEN--\":2617:2620   */\n      dup3\n        /* \"--CODEGEN--\":2613:2624   */\n      add\n        /* \"--CODEGEN--\":2606:2624   */\n      swap1\n      pop\n        /* \"--CODEGEN--\":2454:2630   */\n      swap2\n      swap1\n      pop\n      jump\n        /* \"--CODEGEN--\":2638:2751   */\n    tag_74:\n        /* \"--CODEGEN--\":2721:2745   */\n      tag_76\n        /* \"--CODEGEN--\":2739:2744   */\n      dup2\n        /* \"--CODEGEN--\":2721:2745   */\n      jump(tag_77)\n    tag_76:\n        /* \"--CODEGEN--\":2716:2719   */\n      dup3\n        /* \"--CODEGEN--\":2709:2746   */\n      mstore\n        /* \"--CODEGEN--\":2703:2751   */\n      pop\n      pop\n      jump\n        /* \"--CODEGEN--\":2758:3024   */\n    tag_26:\n      0x00\n        /* \"--CODEGEN--\":2904:2999   */\n      tag_79\n        /* \"--CODEGEN--\":2995:2998   */\n      dup3\n        /* \"--CODEGEN--\":2986:2992   */\n      dup5\n        /* \"--CODEGEN--\":2904:2999   */\n      jump(tag_62)\n    tag_79:\n        /* \"--CODEGEN--\":2897:2999   */\n      swap2\n      pop\n        /* \"--CODEGEN--\":3016:3019   */\n      dup2\n        /* \"--CODEGEN--\":3009:3019   */\n      swap1\n      pop\n        /* \"--CODEGEN--\":2885:3024   */\n      swap3\n      swap2\n      pop\n      pop\n      jump\n        /* \"--CODEGEN--\":3031:3403   */\n    tag_24:\n      0x00\n        /* \"--CODEGEN--\":3230:3378   */\n      tag_81\n        /* \"--CODEGEN--\":3374:3377   */\n      dup3\n        /* \"--CODEGEN--\":3230:3378   */\n      jump(tag_71)\n    tag_81:\n        /* \"--CODEGEN--\":3223:3378   */\n      swap2\n      pop\n        /* \"--CODEGEN--\":3395:3398   */\n      dup2\n        /* \"--CODEGEN--\":3388:3398   */\n      swap1\n      pop\n        /* \"--CODEGEN--\":3211:3403   */\n      swap2\n      swap1\n      pop\n      jump\n        /* \"--CODEGEN--\":3410:3711   */\n    tag_20:\n      0x00\n        /* \"--CODEGEN--\":3548:3550   */\n      0x20\n        /* \"--CODEGEN--\":3537:3546   */\n      dup3\n        /* \"--CODEGEN--\":3533:3551   */\n      add\n        /* \"--CODEGEN--\":3525:3551   */\n      swap1\n      pop\n        /* \"--CODEGEN--\":3598:3607   */\n      dup2\n        /* \"--CODEGEN--\":3592:3596   */\n      dup2\n        /* \"--CODEGEN--\":3588:3608   */\n      sub\n        /* \"--CODEGEN--\":3584:3585   */\n      0x00\n        /* \"--CODEGEN--\":3573:3582   */\n      dup4\n        /* \"--CODEGEN--\":3569:3586   */\n      add\n        /* \"--CODEGEN--\":3562:3609   */\n      mstore\n        /* \"--CODEGEN--\":3623:3701   */\n      tag_83\n        /* \"--CODEGEN--\":3696:3700   */\n      dup2\n        /* \"--CODEGEN--\":3687:3693   */\n      dup5\n        /* \"--CODEGEN--\":3623:3701   */\n      jump(tag_52)\n    tag_83:\n        /* \"--CODEGEN--\":3615:3701   */\n      swap1\n      pop\n        /* \"--CODEGEN--\":3519:3711   */\n      swap3\n      swap2\n      pop\n      pop\n      jump\n        /* \"--CODEGEN--\":3718:4125   */\n    tag_29:\n      0x00\n        /* \"--CODEGEN--\":3909:3911   */\n      0x20\n        /* \"--CODEGEN--\":3898:3907   */\n      dup3\n        /* \"--CODEGEN--\":3894:3912   */\n      add\n        /* \"--CODEGEN--\":3886:3912   */\n      swap1\n      pop\n        /* \"--CODEGEN--\":3959:3968   */\n      dup2\n        /* \"--CODEGEN--\":3953:3957   */\n      dup2\n        /* \"--CODEGEN--\":3949:3969   */\n      sub\n        /* \"--CODEGEN--\":3945:3946   */\n      0x00\n        /* \"--CODEGEN--\":3934:3943   */\n      dup4\n        /* \"--CODEGEN--\":3930:3947   */\n      add\n        /* \"--CODEGEN--\":3923:3970   */\n      mstore\n        /* \"--CODEGEN--\":3984:4115   */\n      tag_85\n        /* \"--CODEGEN--\":4110:4114   */\n      dup2\n        /* \"--CODEGEN--\":3984:4115   */\n      jump(tag_68)\n    tag_85:\n        /* \"--CODEGEN--\":3976:4115   */\n      swap1\n      pop\n        /* \"--CODEGEN--\":3880:4125   */\n      swap2\n      swap1\n      pop\n      jump\n        /* \"--CODEGEN--\":4132:4345   */\n    tag_11:\n      0x00\n        /* \"--CODEGEN--\":4250:4252   */\n      0x20\n        /* \"--CODEGEN--\":4239:4248   */\n      dup3\n        /* \"--CODEGEN--\":4235:4253   */\n      add\n        /* \"--CODEGEN--\":4227:4253   */\n      swap1\n      pop\n        /* \"--CODEGEN--\":4264:4335   */\n      tag_87\n        /* \"--CODEGEN--\":4332:4333   */\n      0x00\n        /* \"--CODEGEN--\":4321:4330   */\n      dup4\n        /* \"--CODEGEN--\":4317:4334   */\n      add\n        /* \"--CODEGEN--\":4308:4314   */\n      dup5\n        /* \"--CODEGEN--\":4264:4335   */\n      jump(tag_74)\n    tag_87:\n        /* \"--CODEGEN--\":4221:4345   */\n      swap3\n      swap2\n      pop\n      pop\n      jump\n        /* \"--CODEGEN--\":4352:4608   */\n    tag_37:\n      0x00\n        /* \"--CODEGEN--\":4414:4416   */\n      0x40\n        /* \"--CODEGEN--\":4408:4417   */\n      mload\n        /* \"--CODEGEN--\":4398:4417   */\n      swap1\n      pop\n        /* \"--CODEGEN--\":4452:4456   */\n      dup2\n        /* \"--CODEGEN--\":4444:4450   */\n      dup2\n        /* \"--CODEGEN--\":4440:4457   */\n      add\n        /* \"--CODEGEN--\":4551:4557   */\n      dup2\n        /* \"--CODEGEN--\":4539:4549   */\n      dup2\n        /* \"--CODEGEN--\":4536:4558   */\n      lt\n        /* \"--CODEGEN--\":4515:4533   */\n      0xffffffffffffffff\n        /* \"--CODEGEN--\":4503:4513   */\n      dup3\n        /* \"--CODEGEN--\":4500:4534   */\n      gt\n        /* \"--CODEGEN--\":4497:4559   */\n      or\n        /* \"--CODEGEN--\":4494:4496   */\n      iszero\n      tag_89\n      jumpi\n        /* \"--CODEGEN--\":4572:4573   */\n      0x00\n        /* \"--CODEGEN--\":4569:4570   */\n      dup1\n        /* \"--CODEGEN--\":4562:4574   */\n      revert\n        /* \"--CODEGEN--\":4494:4496   */\n    tag_89:\n        /* \"--CODEGEN--\":4592:4602   */\n      dup1\n        /* \"--CODEGEN--\":4588:4590   */\n      0x40\n        /* \"--CODEGEN--\":4581:4603   */\n      mstore\n        /* \"--CODEGEN--\":4392:4608   */\n      pop\n      swap2\n      swap1\n      pop\n      jump\n        /* \"--CODEGEN--\":4615:4937   */\n    tag_36:\n      0x00\n        /* \"--CODEGEN--\":4759:4777   */\n      0xffffffffffffffff\n        /* \"--CODEGEN--\":4751:4757   */\n      dup3\n        /* \"--CODEGEN--\":4748:4778   */\n      gt\n        /* \"--CODEGEN--\":4745:4747   */\n      iszero\n      tag_91\n      jumpi\n        /* \"--CODEGEN--\":4791:4792   */\n      0x00\n        /* \"--CODEGEN--\":4788:4789   */\n      dup1\n        /* \"--CODEGEN--\":4781:4793   */\n      revert\n        /* \"--CODEGEN--\":4745:4747   */\n    tag_91:\n        /* \"--CODEGEN--\":4858:4862   */\n      0x1f\n        /* \"--CODEGEN--\":4854:4863   */\n      not\n        /* \"--CODEGEN--\":4847:4851   */\n      0x1f\n        /* \"--CODEGEN--\":4839:4845   */\n      dup4\n        /* \"--CODEGEN--\":4835:4852   */\n      add\n        /* \"--CODEGEN--\":4831:4864   */\n      and\n        /* \"--CODEGEN--\":4823:4864   */\n      swap1\n      pop\n        /* \"--CODEGEN--\":4922:4926   */\n      0x20\n        /* \"--CODEGEN--\":4916:4920   */\n      dup2\n        /* \"--CODEGEN--\":4912:4927   */\n      add\n        /* \"--CODEGEN--\":4904:4927   */\n      swap1\n      pop\n        /* \"--CODEGEN--\":4682:4937   */\n      swap2\n      swap1\n      pop\n      jump\n        /* \"--CODEGEN--\":4944:5066   */\n    tag_55:\n      0x00\n        /* \"--CODEGEN--\":5038:5043   */\n      dup2\n        /* \"--CODEGEN--\":5032:5044   */\n      mload\n        /* \"--CODEGEN--\":5022:5044   */\n      swap1\n      pop\n        /* \"--CODEGEN--\":5003:5066   */\n      swap2\n      swap1\n      pop\n      jump\n        /* \"--CODEGEN--\":5074:5237   */\n    tag_57:\n      0x00\n        /* \"--CODEGEN--\":5189:5195   */\n      dup3\n        /* \"--CODEGEN--\":5184:5187   */\n      dup3\n        /* \"--CODEGEN--\":5177:5196   */\n      mstore\n        /* \"--CODEGEN--\":5226:5230   */\n      0x20\n        /* \"--CODEGEN--\":5221:5224   */\n      dup3\n        /* \"--CODEGEN--\":5217:5231   */\n      add\n        /* \"--CODEGEN--\":5202:5231   */\n      swap1\n      pop\n        /* \"--CODEGEN--\":5170:5237   */\n      swap3\n      swap2\n      pop\n      pop\n      jump\n        /* \"--CODEGEN--\":5246:5391   */\n    tag_66:\n      0x00\n        /* \"--CODEGEN--\":5382:5385   */\n      dup2\n        /* \"--CODEGEN--\":5367:5385   */\n      swap1\n      pop\n        /* \"--CODEGEN--\":5360:5391   */\n      swap3\n      swap2\n      pop\n      pop\n      jump\n        /* \"--CODEGEN--\":5399:5471   */\n    tag_77:\n      0x00\n        /* \"--CODEGEN--\":5461:5466   */\n      dup2\n        /* \"--CODEGEN--\":5450:5466   */\n      swap1\n      pop\n        /* \"--CODEGEN--\":5444:5471   */\n      swap2\n      swap1\n      pop\n      jump\n        /* \"--CODEGEN--\":5479:5624   */\n    tag_40:\n        /* \"--CODEGEN--\":5560:5566   */\n      dup3\n        /* \"--CODEGEN--\":5555:5558   */\n      dup2\n        /* \"--CODEGEN--\":5550:5553   */\n      dup4\n        /* \"--CODEGEN--\":5537:5567   */\n      calldatacopy\n        /* \"--CODEGEN--\":5616:5617   */\n      0x00\n        /* \"--CODEGEN--\":5607:5613   */\n      dup4\n        /* \"--CODEGEN--\":5602:5605   */\n      dup4\n        /* \"--CODEGEN--\":5598:5614   */\n      add\n        /* \"--CODEGEN--\":5591:5618   */\n      mstore\n        /* \"--CODEGEN--\":5530:5624   */\n      pop\n      pop\n      pop\n      jump\n        /* \"--CODEGEN--\":5633:5901   */\n    tag_59:\n        /* \"--CODEGEN--\":5698:5699   */\n      0x00\n        /* \"--CODEGEN--\":5705:5806   */\n    tag_98:\n        /* \"--CODEGEN--\":5719:5725   */\n      dup4\n        /* \"--CODEGEN--\":5716:5717   */\n      dup2\n        /* \"--CODEGEN--\":5713:5726   */\n      lt\n        /* \"--CODEGEN--\":5705:5806   */\n      iszero\n      tag_100\n      jumpi\n        /* \"--CODEGEN--\":5795:5796   */\n      dup1\n        /* \"--CODEGEN--\":5790:5793   */\n      dup3\n        /* \"--CODEGEN--\":5786:5797   */\n      add\n        /* \"--CODEGEN--\":5780:5798   */\n      mload\n        /* \"--CODEGEN--\":5776:5777   */\n      dup2\n        /* \"--CODEGEN--\":5771:5774   */\n      dup5\n        /* \"--CODEGEN--\":5767:5778   */\n      add\n        /* \"--CODEGEN--\":5760:5799   */\n      mstore\n        /* \"--CODEGEN--\":5741:5743   */\n      0x20\n        /* \"--CODEGEN--\":5738:5739   */\n      dup2\n        /* \"--CODEGEN--\":5734:5744   */\n      add\n        /* \"--CODEGEN--\":5729:5744   */\n      swap1\n      pop\n        /* \"--CODEGEN--\":5705:5806   */\n      jump(tag_98)\n    tag_100:\n        /* \"--CODEGEN--\":5821:5827   */\n      dup4\n        /* \"--CODEGEN--\":5818:5819   */\n      dup2\n        /* \"--CODEGEN--\":5815:5828   */\n      gt\n        /* \"--CODEGEN--\":5812:5814   */\n      iszero\n      tag_101\n      jumpi\n        /* \"--CODEGEN--\":5886:5887   */\n      0x00\n        /* \"--CODEGEN--\":5877:5883   */\n      dup5\n        /* \"--CODEGEN--\":5872:5875   */\n      dup5\n        /* \"--CODEGEN--\":5868:5884   */\n      add\n        /* \"--CODEGEN--\":5861:5888   */\n      mstore\n        /* \"--CODEGEN--\":5812:5814   */\n    tag_101:\n        /* \"--CODEGEN--\":5682:5901   */\n      pop\n      pop\n      pop\n      pop\n      jump\n        /* \"--CODEGEN--\":5909:6006   */\n    tag_61:\n      0x00\n        /* \"--CODEGEN--\":5997:5999   */\n      0x1f\n        /* \"--CODEGEN--\":5993:6000   */\n      not\n        /* \"--CODEGEN--\":5988:5990   */\n      0x1f\n        /* \"--CODEGEN--\":5981:5986   */\n      dup4\n        /* \"--CODEGEN--\":5977:5991   */\n      add\n        /* \"--CODEGEN--\":5973:6001   */\n      and\n        /* \"--CODEGEN--\":5963:6001   */\n      swap1\n      pop\n        /* \"--CODEGEN--\":5957:6006   */\n      swap2\n      swap1\n      pop\n      jump\n        /* \"--CODEGEN--\":6014:6131   */\n    tag_44:\n        /* \"--CODEGEN--\":6083:6107   */\n      tag_104\n        /* \"--CODEGEN--\":6101:6106   */\n      dup2\n        /* \"--CODEGEN--\":6083:6107   */\n      jump(tag_77)\n    tag_104:\n        /* \"--CODEGEN--\":6076:6081   */\n      dup2\n        /* \"--CODEGEN--\":6073:6108   */\n      eq\n        /* \"--CODEGEN--\":6063:6065   */\n      tag_105\n      jumpi\n        /* \"--CODEGEN--\":6122:6123   */\n      0x00\n        /* \"--CODEGEN--\":6119:6120   */\n      dup1\n        /* \"--CODEGEN--\":6112:6124   */\n      revert\n        /* \"--CODEGEN--\":6063:6065   */\n    tag_105:\n        /* \"--CODEGEN--\":6057:6131   */\n      pop\n      jump\n\n    auxdata: 0xa2646970667358221220690df552f3042684c82a59fc6deef8d38740aef8f36d86e6d98a9c6f10d516b164736f6c63430006050033\n}\n",
				"bytecode": {
					"linkReferences": {},
					"object": "60806040526000805534801561001457600080fd5b5061051b806100246000396000f3fe608060405234801561001057600080fd5b50600436106100415760003560e01c80633aa6d20814610046578063694b9d341461007657806371d3f37a14610094575b600080fd5b610060600480360381019061005b9190610246565b6100c4565b60405161006d91906103d6565b60405180910390f35b61007e6100cb565b60405161008b91906103d6565b60405180910390f35b6100ae60048036038101906100a99190610205565b6100d1565b6040516100bb9190610394565b60405180910390f35b6000919050565b60005481565b60606040516020016100e29061037f565b60405160208183030381529060405280519060200120826040516020016101099190610368565b604051602081830303815290604052805190602001201461015f576040517f08c379a0000000000000000000000000000000000000000000000000000000008152600401610156906103b6565b60405180910390fd5b6040518060400160405280601481526020017f436f6e7472617365c3b16120436f7272656374610000000000000000000000008152509050919050565b600082601f8301126101ad57600080fd5b81356101c06101bb8261041e565b6103f1565b915080825260208301602083018583830111156101dc57600080fd5b6101e783828461047b565b50505092915050565b6000813590506101ff816104ce565b92915050565b60006020828403121561021757600080fd5b600082013567ffffffffffffffff81111561023157600080fd5b61023d8482850161019c565b91505092915050565b60006020828403121561025857600080fd5b6000610266848285016101f0565b91505092915050565b600061027a8261044a565b6102848185610455565b935061029481856020860161048a565b61029d816104bd565b840191505092915050565b60006102b38261044a565b6102bd8185610466565b93506102cd81856020860161048a565b80840191505092915050565b60006102e6601683610455565b91507f436f6e7472617365c3b16120696e636f727265637461000000000000000000006000830152602082019050919050565b6000610326600683610466565b91507f31323334353600000000000000000000000000000000000000000000000000006000830152600682019050919050565b61036281610471565b82525050565b600061037482846102a8565b915081905092915050565b600061038a82610319565b9150819050919050565b600060208201905081810360008301526103ae818461026f565b905092915050565b600060208201905081810360008301526103cf816102d9565b9050919050565b60006020820190506103eb6000830184610359565b92915050565b6000604051905081810181811067ffffffffffffffff8211171561041457600080fd5b8060405250919050565b600067ffffffffffffffff82111561043557600080fd5b601f19601f8301169050602081019050919050565b600081519050919050565b600082825260208201905092915050565b600081905092915050565b6000819050919050565b82818337600083830152505050565b60005b838110156104a857808201518184015260208101905061048d565b838111156104b7576000848401525b50505050565b6000601f19601f8301169050919050565b6104d781610471565b81146104e257600080fd5b5056fea2646970667358221220690df552f3042684c82a59fc6deef8d38740aef8f36d86e6d98a9c6f10d516b164736f6c63430006050033",
					"opcodes": "PUSH1 0x80 PUSH1 0x40 MSTORE PUSH1 0x0 DUP1 SSTORE CALLVALUE DUP1 ISZERO PUSH2 0x14 JUMPI PUSH1 0x0 DUP1 REVERT JUMPDEST POP PUSH2 0x51B DUP1 PUSH2 0x24 PUSH1 0x0 CODECOPY PUSH1 0x0 RETURN INVALID PUSH1 0x80 PUSH1 0x40 MSTORE CALLVALUE DUP1 ISZERO PUSH2 0x10 JUMPI PUSH1 0x0 DUP1 REVERT JUMPDEST POP PUSH1 0x4 CALLDATASIZE LT PUSH2 0x41 JUMPI PUSH1 0x0 CALLDATALOAD PUSH1 0xE0 SHR DUP1 PUSH4 0x3AA6D208 EQ PUSH2 0x46 JUMPI DUP1 PUSH4 0x694B9D34 EQ PUSH2 0x76 JUMPI DUP1 PUSH4 0x71D3F37A EQ PUSH2 0x94 JUMPI JUMPDEST PUSH1 0x0 DUP1 REVERT JUMPDEST PUSH2 0x60 PUSH1 0x4 DUP1 CALLDATASIZE SUB DUP2 ADD SWAP1 PUSH2 0x5B SWAP2 SWAP1 PUSH2 0x246 JUMP JUMPDEST PUSH2 0xC4 JUMP JUMPDEST PUSH1 0x40 MLOAD PUSH2 0x6D SWAP2 SWAP1 PUSH2 0x3D6 JUMP JUMPDEST PUSH1 0x40 MLOAD DUP1 SWAP2 SUB SWAP1 RETURN JUMPDEST PUSH2 0x7E PUSH2 0xCB JUMP JUMPDEST PUSH1 0x40 MLOAD PUSH2 0x8B SWAP2 SWAP1 PUSH2 0x3D6 JUMP JUMPDEST PUSH1 0x40 MLOAD DUP1 SWAP2 SUB SWAP1 RETURN JUMPDEST PUSH2 0xAE PUSH1 0x4 DUP1 CALLDATASIZE SUB DUP2 ADD SWAP1 PUSH2 0xA9 SWAP2 SWAP1 PUSH2 0x205 JUMP JUMPDEST PUSH2 0xD1 JUMP JUMPDEST PUSH1 0x40 MLOAD PUSH2 0xBB SWAP2 SWAP1 PUSH2 0x394 JUMP JUMPDEST PUSH1 0x40 MLOAD DUP1 SWAP2 SUB SWAP1 RETURN JUMPDEST PUSH1 0x0 SWAP2 SWAP1 POP JUMP JUMPDEST PUSH1 0x0 SLOAD DUP2 JUMP JUMPDEST PUSH1 0x60 PUSH1 0x40 MLOAD PUSH1 0x20 ADD PUSH2 0xE2 SWAP1 PUSH2 0x37F JUMP JUMPDEST PUSH1 0x40 MLOAD PUSH1 0x20 DUP2 DUP4 SUB SUB DUP2 MSTORE SWAP1 PUSH1 0x40 MSTORE DUP1 MLOAD SWAP1 PUSH1 0x20 ADD KECCAK256 DUP3 PUSH1 0x40 MLOAD PUSH1 0x20 ADD PUSH2 0x109 SWAP2 SWAP1 PUSH2 0x368 JUMP JUMPDEST PUSH1 0x40 MLOAD PUSH1 0x20 DUP2 DUP4 SUB SUB DUP2 MSTORE SWAP1 PUSH1 0x40 MSTORE DUP1 MLOAD SWAP1 PUSH1 0x20 ADD KECCAK256 EQ PUSH2 0x15F JUMPI PUSH1 0x40 MLOAD PUSH32 0x8C379A000000000000000000000000000000000000000000000000000000000 DUP2 MSTORE PUSH1 0x4 ADD PUSH2 0x156 SWAP1 PUSH2 0x3B6 JUMP JUMPDEST PUSH1 0x40 MLOAD DUP1 SWAP2 SUB SWAP1 REVERT JUMPDEST PUSH1 0x40 MLOAD DUP1 PUSH1 0x40 ADD PUSH1 0x40 MSTORE DUP1 PUSH1 0x14 DUP2 MSTORE PUSH1 0x20 ADD PUSH32 0x436F6E7472617365C3B16120436F727265637461000000000000000000000000 DUP2 MSTORE POP SWAP1 POP SWAP2 SWAP1 POP JUMP JUMPDEST PUSH1 0x0 DUP3 PUSH1 0x1F DUP4 ADD SLT PUSH2 0x1AD JUMPI PUSH1 0x0 DUP1 REVERT JUMPDEST DUP2 CALLDATALOAD PUSH2 0x1C0 PUSH2 0x1BB DUP3 PUSH2 0x41E JUMP JUMPDEST PUSH2 0x3F1 JUMP JUMPDEST SWAP2 POP DUP1 DUP3 MSTORE PUSH1 0x20 DUP4 ADD PUSH1 0x20 DUP4 ADD DUP6 DUP4 DUP4 ADD GT ISZERO PUSH2 0x1DC JUMPI PUSH1 0x0 DUP1 REVERT JUMPDEST PUSH2 0x1E7 DUP4 DUP3 DUP5 PUSH2 0x47B JUMP JUMPDEST POP POP POP SWAP3 SWAP2 POP POP JUMP JUMPDEST PUSH1 0x0 DUP2 CALLDATALOAD SWAP1 POP PUSH2 0x1FF DUP2 PUSH2 0x4CE JUMP JUMPDEST SWAP3 SWAP2 POP POP JUMP JUMPDEST PUSH1 0x0 PUSH1 0x20 DUP3 DUP5 SUB SLT ISZERO PUSH2 0x217 JUMPI PUSH1 0x0 DUP1 REVERT JUMPDEST PUSH1 0x0 DUP3 ADD CALLDATALOAD PUSH8 0xFFFFFFFFFFFFFFFF DUP2 GT ISZERO PUSH2 0x231 JUMPI PUSH1 0x0 DUP1 REVERT JUMPDEST PUSH2 0x23D DUP5 DUP3 DUP6 ADD PUSH2 0x19C JUMP JUMPDEST SWAP2 POP POP SWAP3 SWAP2 POP POP JUMP JUMPDEST PUSH1 0x0 PUSH1 0x20 DUP3 DUP5 SUB SLT ISZERO PUSH2 0x258 JUMPI PUSH1 0x0 DUP1 REVERT JUMPDEST PUSH1 0x0 PUSH2 0x266 DUP5 DUP3 DUP6 ADD PUSH2 0x1F0 JUMP JUMPDEST SWAP2 POP POP SWAP3 SWAP2 POP POP JUMP JUMPDEST PUSH1 0x0 PUSH2 0x27A DUP3 PUSH2 0x44A JUMP JUMPDEST PUSH2 0x284 DUP2 DUP6 PUSH2 0x455 JUMP JUMPDEST SWAP4 POP PUSH2 0x294 DUP2 DUP6 PUSH1 0x20 DUP7 ADD PUSH2 0x48A JUMP JUMPDEST PUSH2 0x29D DUP2 PUSH2 0x4BD JUMP JUMPDEST DUP5 ADD SWAP2 POP POP SWAP3 SWAP2 POP POP JUMP JUMPDEST PUSH1 0x0 PUSH2 0x2B3 DUP3 PUSH2 0x44A JUMP JUMPDEST PUSH2 0x2BD DUP2 DUP6 PUSH2 0x466 JUMP JUMPDEST SWAP4 POP PUSH2 0x2CD DUP2 DUP6 PUSH1 0x20 DUP7 ADD PUSH2 0x48A JUMP JUMPDEST DUP1 DUP5 ADD SWAP2 POP POP SWAP3 SWAP2 POP POP JUMP JUMPDEST PUSH1 0x0 PUSH2 0x2E6 PUSH1 0x16 DUP4 PUSH2 0x455 JUMP JUMPDEST SWAP2 POP PUSH32 0x436F6E7472617365C3B16120696E636F72726563746100000000000000000000 PUSH1 0x0 DUP4 ADD MSTORE PUSH1 0x20 DUP3 ADD SWAP1 POP SWAP2 SWAP1 POP JUMP JUMPDEST PUSH1 0x0 PUSH2 0x326 PUSH1 0x6 DUP4 PUSH2 0x466 JUMP JUMPDEST SWAP2 POP PUSH32 0x3132333435360000000000000000000000000000000000000000000000000000 PUSH1 0x0 DUP4 ADD MSTORE PUSH1 0x6 DUP3 ADD SWAP1 POP SWAP2 SWAP1 POP JUMP JUMPDEST PUSH2 0x362 DUP2 PUSH2 0x471 JUMP JUMPDEST DUP3 MSTORE POP POP JUMP JUMPDEST PUSH1 0x0 PUSH2 0x374 DUP3 DUP5 PUSH2 0x2A8 JUMP JUMPDEST SWAP2 POP DUP2 SWAP1 POP SWAP3 SWAP2 POP POP JUMP JUMPDEST PUSH1 0x0 PUSH2 0x38A DUP3 PUSH2 0x319 JUMP JUMPDEST SWAP2 POP DUP2 SWAP1 POP SWAP2 SWAP1 POP JUMP JUMPDEST PUSH1 0x0 PUSH1 0x20 DUP3 ADD SWAP1 POP DUP2 DUP2 SUB PUSH1 0x0 DUP4 ADD MSTORE PUSH2 0x3AE DUP2 DUP5 PUSH2 0x26F JUMP JUMPDEST SWAP1 POP SWAP3 SWAP2 POP POP JUMP JUMPDEST PUSH1 0x0 PUSH1 0x20 DUP3 ADD SWAP1 POP DUP2 DUP2 SUB PUSH1 0x0 DUP4 ADD MSTORE PUSH2 0x3CF DUP2 PUSH2 0x2D9 JUMP JUMPDEST SWAP1 POP SWAP2 SWAP1 POP JUMP JUMPDEST PUSH1 0x0 PUSH1 0x20 DUP3 ADD SWAP1 POP PUSH2 0x3EB PUSH1 0x0 DUP4 ADD DUP5 PUSH2 0x359 JUMP JUMPDEST SWAP3 SWAP2 POP POP JUMP JUMPDEST PUSH1 0x0 PUSH1 0x40 MLOAD SWAP1 POP DUP2 DUP2 ADD DUP2 DUP2 LT PUSH8 0xFFFFFFFFFFFFFFFF DUP3 GT OR ISZERO PUSH2 0x414 JUMPI PUSH1 0x0 DUP1 REVERT JUMPDEST DUP1 PUSH1 0x40 MSTORE POP SWAP2 SWAP1 POP JUMP JUMPDEST PUSH1 0x0 PUSH8 0xFFFFFFFFFFFFFFFF DUP3 GT ISZERO PUSH2 0x435 JUMPI PUSH1 0x0 DUP1 REVERT JUMPDEST PUSH1 0x1F NOT PUSH1 0x1F DUP4 ADD AND SWAP1 POP PUSH1 0x20 DUP2 ADD SWAP1 POP SWAP2 SWAP1 POP JUMP JUMPDEST PUSH1 0x0 DUP2 MLOAD SWAP1 POP SWAP2 SWAP1 POP JUMP JUMPDEST PUSH1 0x0 DUP3 DUP3 MSTORE PUSH1 0x20 DUP3 ADD SWAP1 POP SWAP3 SWAP2 POP POP JUMP JUMPDEST PUSH1 0x0 DUP2 SWAP1 POP SWAP3 SWAP2 POP POP JUMP JUMPDEST PUSH1 0x0 DUP2 SWAP1 POP SWAP2 SWAP1 POP JUMP JUMPDEST DUP3 DUP2 DUP4 CALLDATACOPY PUSH1 0x0 DUP4 DUP4 ADD MSTORE POP POP POP JUMP JUMPDEST PUSH1 0x0 JUMPDEST DUP4 DUP2 LT ISZERO PUSH2 0x4A8 JUMPI DUP1 DUP3 ADD MLOAD DUP2 DUP5 ADD MSTORE PUSH1 0x20 DUP2 ADD SWAP1 POP PUSH2 0x48D JUMP JUMPDEST DUP4 DUP2 GT ISZERO PUSH2 0x4B7 JUMPI PUSH1 0x0 DUP5 DUP5 ADD MSTORE JUMPDEST POP POP POP POP JUMP JUMPDEST PUSH1 0x0 PUSH1 0x1F NOT PUSH1 0x1F DUP4 ADD AND SWAP1 POP SWAP2 SWAP1 POP JUMP JUMPDEST PUSH2 0x4D7 DUP2 PUSH2 0x471 JUMP JUMPDEST DUP2 EQ PUSH2 0x4E2 JUMPI PUSH1 0x0 DUP1 REVERT JUMPDEST POP JUMP INVALID LOG2 PUSH5 0x6970667358 0x22 SLT KECCAK256 PUSH10 0xDF552F3042684C82A59 0xFC PUSH14 0xEEF8D38740AEF8F36D86E6D98A9C PUSH16 0x10D516B164736F6C6343000605003300 "
				},
				"gasEstimates": {
					"creation": {
						"codeDepositCost": "261400",
						"executionCost": "5306",
						"totalCost": "266706"
					},
					"external": {
						"cartera()": "1129",
						"pagar(uint256)": "infinite",
						"password(string)": "infinite"
					}
				},
				"methodIdentifiers": {
					"cartera()": "694b9d34",
					"pagar(uint256)": "3aa6d208",
					"password(string)": "71d3f37a"
				}
			},
			"storageLayout": {
				"storage": [
					{
						"astId": 32,
						"contract": "Funciones avanzadas/require.sol:Require",
						"label": "cartera",
						"offset": 0,
						"slot": "0",
						"type": "t_uint256"
					}
				],
				"types": {
					"t_uint256": {
						"encoding": "inplace",
						"label": "uint256",
						"numberOfBytes": "32"
					}
				}
			},
			"userdoc": {
				"methods": {}
			}
		}
	}
}