{
	"Funciones avanzadas/require.sol": {
		"Require": {
			"abi": [
				{
					"inputs": [
						{
							"internalType": "string",
							"name": "_password",
							"type": "string"
						}
					],
					"name": "password",
					"outputs": [
						{
							"internalType": "string",
							"name": "",
							"type": "string"
						}
					],
					"stateMutability": "pure",
					"type": "function"
				}
			],
			"devdoc": {
				"methods": {}
			},
			"evm": {
				"assembly": "    /* \"Funciones avanzadas/require.sol\":98:356  contract Require{\r... */\n  mstore(0x40, 0x80)\n  callvalue\n    /* \"--CODEGEN--\":5:14   */\n  dup1\n    /* \"--CODEGEN--\":2:4   */\n  iszero\n  tag_1\n  jumpi\n    /* \"--CODEGEN--\":27:28   */\n  0x00\n    /* \"--CODEGEN--\":24:25   */\n  dup1\n    /* \"--CODEGEN--\":17:29   */\n  revert\n    /* \"--CODEGEN--\":2:4   */\ntag_1:\n    /* \"Funciones avanzadas/require.sol\":98:356  contract Require{\r... */\n  pop\n  dataSize(sub_0)\n  dup1\n  dataOffset(sub_0)\n  0x00\n  codecopy\n  0x00\n  return\nstop\n\nsub_0: assembly {\n        /* \"Funciones avanzadas/require.sol\":98:356  contract Require{\r... */\n      mstore(0x40, 0x80)\n      callvalue\n        /* \"--CODEGEN--\":5:14   */\n      dup1\n        /* \"--CODEGEN--\":2:4   */\n      iszero\n      tag_1\n      jumpi\n        /* \"--CODEGEN--\":27:28   */\n      0x00\n        /* \"--CODEGEN--\":24:25   */\n      dup1\n        /* \"--CODEGEN--\":17:29   */\n      revert\n        /* \"--CODEGEN--\":2:4   */\n    tag_1:\n        /* \"Funciones avanzadas/require.sol\":98:356  contract Require{\r... */\n      pop\n      jumpi(tag_2, lt(calldatasize, 0x04))\n      shr(0xe0, calldataload(0x00))\n      dup1\n      0x71d3f37a\n      eq\n      tag_3\n      jumpi\n    tag_2:\n        /* \"--CODEGEN--\":12:13   */\n      0x00\n        /* \"--CODEGEN--\":9:10   */\n      dup1\n        /* \"--CODEGEN--\":2:14   */\n      revert\n        /* \"Funciones avanzadas/require.sol\":167:353  function password(string memory _password) public pure returns (string memory) {\r... */\n    tag_3:\n      tag_4\n      0x04\n      dup1\n      calldatasize\n      sub\n      dup2\n      add\n      swap1\n      tag_5\n      swap2\n      swap1\n      jump(tag_6)\n    tag_5:\n      tag_7\n      jump\t// in\n    tag_4:\n      mload(0x40)\n      tag_8\n      swap2\n      swap1\n      jump(tag_9)\n    tag_8:\n      mload(0x40)\n      dup1\n      swap2\n      sub\n      swap1\n      return\n    tag_7:\n        /* \"Funciones avanzadas/require.sol\":231:244  string memory */\n      0x60\n        /* \"Funciones avanzadas/require.sol\":317:343  abi.encodePacked(\"123456\") */\n      add(0x20, mload(0x40))\n      tag_11\n      swap1\n      jump(tag_12)\n    tag_11:\n      mload(0x40)\n        /* \"--CODEGEN--\":49:53   */\n      0x20\n        /* \"--CODEGEN--\":39:46   */\n      dup2\n        /* \"--CODEGEN--\":30:37   */\n      dup4\n        /* \"--CODEGEN--\":26:47   */\n      sub\n        /* \"--CODEGEN--\":22:54   */\n      sub\n        /* \"--CODEGEN--\":13:20   */\n      dup2\n        /* \"--CODEGEN--\":6:55   */\n      mstore\n        /* \"Funciones avanzadas/require.sol\":317:343  abi.encodePacked(\"123456\") */\n      swap1\n      0x40\n      mstore\n        /* \"Funciones avanzadas/require.sol\":307:344  keccak256(abi.encodePacked(\"123456\")) */\n      dup1\n      mload\n      swap1\n      0x20\n      add\n      keccak256\n        /* \"Funciones avanzadas/require.sol\":292:301  _password */\n      dup3\n        /* \"Funciones avanzadas/require.sol\":275:302  abi.encodePacked(_password) */\n      add(0x20, mload(0x40))\n      tag_13\n      swap2\n      swap1\n      jump(tag_14)\n    tag_13:\n      mload(0x40)\n        /* \"--CODEGEN--\":49:53   */\n      0x20\n        /* \"--CODEGEN--\":39:46   */\n      dup2\n        /* \"--CODEGEN--\":30:37   */\n      dup4\n        /* \"--CODEGEN--\":26:47   */\n      sub\n        /* \"--CODEGEN--\":22:54   */\n      sub\n        /* \"--CODEGEN--\":13:20   */\n      dup2\n        /* \"--CODEGEN--\":6:55   */\n      mstore\n        /* \"Funciones avanzadas/require.sol\":275:302  abi.encodePacked(_password) */\n      swap1\n      0x40\n      mstore\n        /* \"Funciones avanzadas/require.sol\":265:303  keccak256(abi.encodePacked(_password)) */\n      dup1\n      mload\n      swap1\n      0x20\n      add\n      keccak256\n        /* \"Funciones avanzadas/require.sol\":265:344  keccak256(abi.encodePacked(_password)) == keccak256(abi.encodePacked(\"123456\")) */\n      eq\n        /* \"Funciones avanzadas/require.sol\":257:345  require(keccak256(abi.encodePacked(_password)) == keccak256(abi.encodePacked(\"123456\"))) */\n      tag_15\n      jumpi\n        /* \"--CODEGEN--\":12:13   */\n      0x00\n        /* \"--CODEGEN--\":9:10   */\n      dup1\n        /* \"--CODEGEN--\":2:14   */\n      revert\n        /* \"Funciones avanzadas/require.sol\":257:345  require(keccak256(abi.encodePacked(_password)) == keccak256(abi.encodePacked(\"123456\"))) */\n    tag_15:\n        /* \"Funciones avanzadas/require.sol\":167:353  function password(string memory _password) public pure returns (string memory) {\r... */\n      swap2\n      swap1\n      pop\n      jump\t// out\n        /* \"--CODEGEN--\":6:448   */\n    tag_17:\n      0x00\n        /* \"--CODEGEN--\":108:111   */\n      dup3\n        /* \"--CODEGEN--\":101:105   */\n      0x1f\n        /* \"--CODEGEN--\":93:99   */\n      dup4\n        /* \"--CODEGEN--\":89:106   */\n      add\n        /* \"--CODEGEN--\":85:112   */\n      slt\n        /* \"--CODEGEN--\":75:77   */\n      tag_19\n      jumpi\n        /* \"--CODEGEN--\":126:127   */\n      0x00\n        /* \"--CODEGEN--\":123:124   */\n      dup1\n        /* \"--CODEGEN--\":116:128   */\n      revert\n        /* \"--CODEGEN--\":75:77   */\n    tag_19:\n        /* \"--CODEGEN--\":163:169   */\n      dup2\n        /* \"--CODEGEN--\":150:170   */\n      calldataload\n        /* \"--CODEGEN--\":185:250   */\n      tag_20\n        /* \"--CODEGEN--\":200:249   */\n      tag_21\n        /* \"--CODEGEN--\":242:248   */\n      dup3\n        /* \"--CODEGEN--\":200:249   */\n      jump(tag_22)\n    tag_21:\n        /* \"--CODEGEN--\":185:250   */\n      jump(tag_23)\n    tag_20:\n        /* \"--CODEGEN--\":176:250   */\n      swap2\n      pop\n        /* \"--CODEGEN--\":270:276   */\n      dup1\n        /* \"--CODEGEN--\":263:268   */\n      dup3\n        /* \"--CODEGEN--\":256:277   */\n      mstore\n        /* \"--CODEGEN--\":306:310   */\n      0x20\n        /* \"--CODEGEN--\":298:304   */\n      dup4\n        /* \"--CODEGEN--\":294:311   */\n      add\n        /* \"--CODEGEN--\":339:343   */\n      0x20\n        /* \"--CODEGEN--\":332:337   */\n      dup4\n        /* \"--CODEGEN--\":328:344   */\n      add\n        /* \"--CODEGEN--\":374:377   */\n      dup6\n        /* \"--CODEGEN--\":365:371   */\n      dup4\n        /* \"--CODEGEN--\":360:363   */\n      dup4\n        /* \"--CODEGEN--\":356:372   */\n      add\n        /* \"--CODEGEN--\":353:378   */\n      gt\n        /* \"--CODEGEN--\":350:352   */\n      iszero\n      tag_24\n      jumpi\n        /* \"--CODEGEN--\":391:392   */\n      0x00\n        /* \"--CODEGEN--\":388:389   */\n      dup1\n        /* \"--CODEGEN--\":381:393   */\n      revert\n        /* \"--CODEGEN--\":350:352   */\n    tag_24:\n        /* \"--CODEGEN--\":401:442   */\n      tag_25\n        /* \"--CODEGEN--\":435:441   */\n      dup4\n        /* \"--CODEGEN--\":430:433   */\n      dup3\n        /* \"--CODEGEN--\":425:428   */\n      dup5\n        /* \"--CODEGEN--\":401:442   */\n      jump(tag_26)\n    tag_25:\n        /* \"--CODEGEN--\":68:448   */\n      pop\n      pop\n      pop\n      swap3\n      swap2\n      pop\n      pop\n      jump\n        /* \"--CODEGEN--\":456:803   */\n    tag_6:\n      0x00\n        /* \"--CODEGEN--\":570:572   */\n      0x20\n        /* \"--CODEGEN--\":558:567   */\n      dup3\n        /* \"--CODEGEN--\":549:556   */\n      dup5\n        /* \"--CODEGEN--\":545:568   */\n      sub\n        /* \"--CODEGEN--\":541:573   */\n      slt\n        /* \"--CODEGEN--\":538:540   */\n      iszero\n      tag_28\n      jumpi\n        /* \"--CODEGEN--\":586:587   */\n      0x00\n        /* \"--CODEGEN--\":583:584   */\n      dup1\n        /* \"--CODEGEN--\":576:588   */\n      revert\n        /* \"--CODEGEN--\":538:540   */\n    tag_28:\n        /* \"--CODEGEN--\":649:650   */\n      0x00\n        /* \"--CODEGEN--\":638:647   */\n      dup3\n        /* \"--CODEGEN--\":634:651   */\n      add\n        /* \"--CODEGEN--\":621:652   */\n      calldataload\n        /* \"--CODEGEN--\":672:690   */\n      0xffffffffffffffff\n        /* \"--CODEGEN--\":664:670   */\n      dup2\n        /* \"--CODEGEN--\":661:691   */\n      gt\n        /* \"--CODEGEN--\":658:660   */\n      iszero\n      tag_29\n      jumpi\n        /* \"--CODEGEN--\":704:705   */\n      0x00\n        /* \"--CODEGEN--\":701:702   */\n      dup1\n        /* \"--CODEGEN--\":694:706   */\n      revert\n        /* \"--CODEGEN--\":658:660   */\n    tag_29:\n        /* \"--CODEGEN--\":724:787   */\n      tag_30\n        /* \"--CODEGEN--\":779:786   */\n      dup5\n        /* \"--CODEGEN--\":770:776   */\n      dup3\n        /* \"--CODEGEN--\":759:768   */\n      dup6\n        /* \"--CODEGEN--\":755:777   */\n      add\n        /* \"--CODEGEN--\":724:787   */\n      jump(tag_17)\n    tag_30:\n        /* \"--CODEGEN--\":714:787   */\n      swap2\n      pop\n        /* \"--CODEGEN--\":600:793   */\n      pop\n        /* \"--CODEGEN--\":532:803   */\n      swap3\n      swap2\n      pop\n      pop\n      jump\n        /* \"--CODEGEN--\":810:1157   */\n    tag_31:\n      0x00\n        /* \"--CODEGEN--\":922:961   */\n      tag_33\n        /* \"--CODEGEN--\":955:960   */\n      dup3\n        /* \"--CODEGEN--\":922:961   */\n      jump(tag_34)\n    tag_33:\n        /* \"--CODEGEN--\":973:1044   */\n      tag_35\n        /* \"--CODEGEN--\":1037:1043   */\n      dup2\n        /* \"--CODEGEN--\":1032:1035   */\n      dup6\n        /* \"--CODEGEN--\":973:1044   */\n      jump(tag_36)\n    tag_35:\n        /* \"--CODEGEN--\":966:1044   */\n      swap4\n      pop\n        /* \"--CODEGEN--\":1049:1101   */\n      tag_37\n        /* \"--CODEGEN--\":1094:1100   */\n      dup2\n        /* \"--CODEGEN--\":1089:1092   */\n      dup6\n        /* \"--CODEGEN--\":1082:1086   */\n      0x20\n        /* \"--CODEGEN--\":1075:1080   */\n      dup7\n        /* \"--CODEGEN--\":1071:1087   */\n      add\n        /* \"--CODEGEN--\":1049:1101   */\n      jump(tag_38)\n    tag_37:\n        /* \"--CODEGEN--\":1122:1151   */\n      tag_39\n        /* \"--CODEGEN--\":1144:1150   */\n      dup2\n        /* \"--CODEGEN--\":1122:1151   */\n      jump(tag_40)\n    tag_39:\n        /* \"--CODEGEN--\":1117:1120   */\n      dup5\n        /* \"--CODEGEN--\":1113:1152   */\n      add\n        /* \"--CODEGEN--\":1106:1152   */\n      swap2\n      pop\n        /* \"--CODEGEN--\":902:1157   */\n      pop\n      swap3\n      swap2\n      pop\n      pop\n      jump\n        /* \"--CODEGEN--\":1164:1524   */\n    tag_41:\n      0x00\n        /* \"--CODEGEN--\":1294:1333   */\n      tag_43\n        /* \"--CODEGEN--\":1327:1332   */\n      dup3\n        /* \"--CODEGEN--\":1294:1333   */\n      jump(tag_34)\n    tag_43:\n        /* \"--CODEGEN--\":1345:1434   */\n      tag_44\n        /* \"--CODEGEN--\":1427:1433   */\n      dup2\n        /* \"--CODEGEN--\":1422:1425   */\n      dup6\n        /* \"--CODEGEN--\":1345:1434   */\n      jump(tag_45)\n    tag_44:\n        /* \"--CODEGEN--\":1338:1434   */\n      swap4\n      pop\n        /* \"--CODEGEN--\":1439:1491   */\n      tag_46\n        /* \"--CODEGEN--\":1484:1490   */\n      dup2\n        /* \"--CODEGEN--\":1479:1482   */\n      dup6\n        /* \"--CODEGEN--\":1472:1476   */\n      0x20\n        /* \"--CODEGEN--\":1465:1470   */\n      dup7\n        /* \"--CODEGEN--\":1461:1477   */\n      add\n        /* \"--CODEGEN--\":1439:1491   */\n      jump(tag_38)\n    tag_46:\n        /* \"--CODEGEN--\":1512:1518   */\n      dup1\n        /* \"--CODEGEN--\":1507:1510   */\n      dup5\n        /* \"--CODEGEN--\":1503:1519   */\n      add\n        /* \"--CODEGEN--\":1496:1519   */\n      swap2\n      pop\n        /* \"--CODEGEN--\":1274:1524   */\n      pop\n      swap3\n      swap2\n      pop\n      pop\n      jump\n        /* \"--CODEGEN--\":1532:1872   */\n    tag_47:\n      0x00\n        /* \"--CODEGEN--\":1710:1794   */\n      tag_49\n        /* \"--CODEGEN--\":1792:1793   */\n      0x06\n        /* \"--CODEGEN--\":1787:1790   */\n      dup4\n        /* \"--CODEGEN--\":1710:1794   */\n      jump(tag_45)\n    tag_49:\n        /* \"--CODEGEN--\":1703:1794   */\n      swap2\n      pop\n        /* \"--CODEGEN--\":1827:1835   */\n      0x3132333435360000000000000000000000000000000000000000000000000000\n        /* \"--CODEGEN--\":1823:1824   */\n      0x00\n        /* \"--CODEGEN--\":1818:1821   */\n      dup4\n        /* \"--CODEGEN--\":1814:1825   */\n      add\n        /* \"--CODEGEN--\":1807:1836   */\n      mstore\n        /* \"--CODEGEN--\":1864:1865   */\n      0x06\n        /* \"--CODEGEN--\":1859:1862   */\n      dup3\n        /* \"--CODEGEN--\":1855:1866   */\n      add\n        /* \"--CODEGEN--\":1848:1866   */\n      swap1\n      pop\n        /* \"--CODEGEN--\":1696:1872   */\n      swap2\n      swap1\n      pop\n      jump\n        /* \"--CODEGEN--\":1880:2146   */\n    tag_14:\n      0x00\n        /* \"--CODEGEN--\":2026:2121   */\n      tag_51\n        /* \"--CODEGEN--\":2117:2120   */\n      dup3\n        /* \"--CODEGEN--\":2108:2114   */\n      dup5\n        /* \"--CODEGEN--\":2026:2121   */\n      jump(tag_41)\n    tag_51:\n        /* \"--CODEGEN--\":2019:2121   */\n      swap2\n      pop\n        /* \"--CODEGEN--\":2138:2141   */\n      dup2\n        /* \"--CODEGEN--\":2131:2141   */\n      swap1\n      pop\n        /* \"--CODEGEN--\":2007:2146   */\n      swap3\n      swap2\n      pop\n      pop\n      jump\n        /* \"--CODEGEN--\":2153:2525   */\n    tag_12:\n      0x00\n        /* \"--CODEGEN--\":2352:2500   */\n      tag_53\n        /* \"--CODEGEN--\":2496:2499   */\n      dup3\n        /* \"--CODEGEN--\":2352:2500   */\n      jump(tag_47)\n    tag_53:\n        /* \"--CODEGEN--\":2345:2500   */\n      swap2\n      pop\n        /* \"--CODEGEN--\":2517:2520   */\n      dup2\n        /* \"--CODEGEN--\":2510:2520   */\n      swap1\n      pop\n        /* \"--CODEGEN--\":2333:2525   */\n      swap2\n      swap1\n      pop\n      jump\n        /* \"--CODEGEN--\":2532:2833   */\n    tag_9:\n      0x00\n        /* \"--CODEGEN--\":2670:2672   */\n      0x20\n        /* \"--CODEGEN--\":2659:2668   */\n      dup3\n        /* \"--CODEGEN--\":2655:2673   */\n      add\n        /* \"--CODEGEN--\":2647:2673   */\n      swap1\n      pop\n        /* \"--CODEGEN--\":2720:2729   */\n      dup2\n        /* \"--CODEGEN--\":2714:2718   */\n      dup2\n        /* \"--CODEGEN--\":2710:2730   */\n      sub\n        /* \"--CODEGEN--\":2706:2707   */\n      0x00\n        /* \"--CODEGEN--\":2695:2704   */\n      dup4\n        /* \"--CODEGEN--\":2691:2708   */\n      add\n        /* \"--CODEGEN--\":2684:2731   */\n      mstore\n        /* \"--CODEGEN--\":2745:2823   */\n      tag_55\n        /* \"--CODEGEN--\":2818:2822   */\n      dup2\n        /* \"--CODEGEN--\":2809:2815   */\n      dup5\n        /* \"--CODEGEN--\":2745:2823   */\n      jump(tag_31)\n    tag_55:\n        /* \"--CODEGEN--\":2737:2823   */\n      swap1\n      pop\n        /* \"--CODEGEN--\":2641:2833   */\n      swap3\n      swap2\n      pop\n      pop\n      jump\n        /* \"--CODEGEN--\":2840:3096   */\n    tag_23:\n      0x00\n        /* \"--CODEGEN--\":2902:2904   */\n      0x40\n        /* \"--CODEGEN--\":2896:2905   */\n      mload\n        /* \"--CODEGEN--\":2886:2905   */\n      swap1\n      pop\n        /* \"--CODEGEN--\":2940:2944   */\n      dup2\n        /* \"--CODEGEN--\":2932:2938   */\n      dup2\n        /* \"--CODEGEN--\":2928:2945   */\n      add\n        /* \"--CODEGEN--\":3039:3045   */\n      dup2\n        /* \"--CODEGEN--\":3027:3037   */\n      dup2\n        /* \"--CODEGEN--\":3024:3046   */\n      lt\n        /* \"--CODEGEN--\":3003:3021   */\n      0xffffffffffffffff\n        /* \"--CODEGEN--\":2991:3001   */\n      dup3\n        /* \"--CODEGEN--\":2988:3022   */\n      gt\n        /* \"--CODEGEN--\":2985:3047   */\n      or\n        /* \"--CODEGEN--\":2982:2984   */\n      iszero\n      tag_57\n      jumpi\n        /* \"--CODEGEN--\":3060:3061   */\n      0x00\n        /* \"--CODEGEN--\":3057:3058   */\n      dup1\n        /* \"--CODEGEN--\":3050:3062   */\n      revert\n        /* \"--CODEGEN--\":2982:2984   */\n    tag_57:\n        /* \"--CODEGEN--\":3080:3090   */\n      dup1\n        /* \"--CODEGEN--\":3076:3078   */\n      0x40\n        /* \"--CODEGEN--\":3069:3091   */\n      mstore\n        /* \"--CODEGEN--\":2880:3096   */\n      pop\n      swap2\n      swap1\n      pop\n      jump\n        /* \"--CODEGEN--\":3103:3425   */\n    tag_22:\n      0x00\n        /* \"--CODEGEN--\":3247:3265   */\n      0xffffffffffffffff\n        /* \"--CODEGEN--\":3239:3245   */\n      dup3\n        /* \"--CODEGEN--\":3236:3266   */\n      gt\n        /* \"--CODEGEN--\":3233:3235   */\n      iszero\n      tag_59\n      jumpi\n        /* \"--CODEGEN--\":3279:3280   */\n      0x00\n        /* \"--CODEGEN--\":3276:3277   */\n      dup1\n        /* \"--CODEGEN--\":3269:3281   */\n      revert\n        /* \"--CODEGEN--\":3233:3235   */\n    tag_59:\n        /* \"--CODEGEN--\":3346:3350   */\n      0x1f\n        /* \"--CODEGEN--\":3342:3351   */\n      not\n        /* \"--CODEGEN--\":3335:3339   */\n      0x1f\n        /* \"--CODEGEN--\":3327:3333   */\n      dup4\n        /* \"--CODEGEN--\":3323:3340   */\n      add\n        /* \"--CODEGEN--\":3319:3352   */\n      and\n        /* \"--CODEGEN--\":3311:3352   */\n      swap1\n      pop\n        /* \"--CODEGEN--\":3410:3414   */\n      0x20\n        /* \"--CODEGEN--\":3404:3408   */\n      dup2\n        /* \"--CODEGEN--\":3400:3415   */\n      add\n        /* \"--CODEGEN--\":3392:3415   */\n      swap1\n      pop\n        /* \"--CODEGEN--\":3170:3425   */\n      swap2\n      swap1\n      pop\n      jump\n        /* \"--CODEGEN--\":3432:3554   */\n    tag_34:\n      0x00\n        /* \"--CODEGEN--\":3526:3531   */\n      dup2\n        /* \"--CODEGEN--\":3520:3532   */\n      mload\n        /* \"--CODEGEN--\":3510:3532   */\n      swap1\n      pop\n        /* \"--CODEGEN--\":3491:3554   */\n      swap2\n      swap1\n      pop\n      jump\n        /* \"--CODEGEN--\":3562:3725   */\n    tag_36:\n      0x00\n        /* \"--CODEGEN--\":3677:3683   */\n      dup3\n        /* \"--CODEGEN--\":3672:3675   */\n      dup3\n        /* \"--CODEGEN--\":3665:3684   */\n      mstore\n        /* \"--CODEGEN--\":3714:3718   */\n      0x20\n        /* \"--CODEGEN--\":3709:3712   */\n      dup3\n        /* \"--CODEGEN--\":3705:3719   */\n      add\n        /* \"--CODEGEN--\":3690:3719   */\n      swap1\n      pop\n        /* \"--CODEGEN--\":3658:3725   */\n      swap3\n      swap2\n      pop\n      pop\n      jump\n        /* \"--CODEGEN--\":3734:3879   */\n    tag_45:\n      0x00\n        /* \"--CODEGEN--\":3870:3873   */\n      dup2\n        /* \"--CODEGEN--\":3855:3873   */\n      swap1\n      pop\n        /* \"--CODEGEN--\":3848:3879   */\n      swap3\n      swap2\n      pop\n      pop\n      jump\n        /* \"--CODEGEN--\":3888:4033   */\n    tag_26:\n        /* \"--CODEGEN--\":3969:3975   */\n      dup3\n        /* \"--CODEGEN--\":3964:3967   */\n      dup2\n        /* \"--CODEGEN--\":3959:3962   */\n      dup4\n        /* \"--CODEGEN--\":3946:3976   */\n      calldatacopy\n        /* \"--CODEGEN--\":4025:4026   */\n      0x00\n        /* \"--CODEGEN--\":4016:4022   */\n      dup4\n        /* \"--CODEGEN--\":4011:4014   */\n      dup4\n        /* \"--CODEGEN--\":4007:4023   */\n      add\n        /* \"--CODEGEN--\":4000:4027   */\n      mstore\n        /* \"--CODEGEN--\":3939:4033   */\n      pop\n      pop\n      pop\n      jump\n        /* \"--CODEGEN--\":4042:4310   */\n    tag_38:\n        /* \"--CODEGEN--\":4107:4108   */\n      0x00\n        /* \"--CODEGEN--\":4114:4215   */\n    tag_65:\n        /* \"--CODEGEN--\":4128:4134   */\n      dup4\n        /* \"--CODEGEN--\":4125:4126   */\n      dup2\n        /* \"--CODEGEN--\":4122:4135   */\n      lt\n        /* \"--CODEGEN--\":4114:4215   */\n      iszero\n      tag_67\n      jumpi\n        /* \"--CODEGEN--\":4204:4205   */\n      dup1\n        /* \"--CODEGEN--\":4199:4202   */\n      dup3\n        /* \"--CODEGEN--\":4195:4206   */\n      add\n        /* \"--CODEGEN--\":4189:4207   */\n      mload\n        /* \"--CODEGEN--\":4185:4186   */\n      dup2\n        /* \"--CODEGEN--\":4180:4183   */\n      dup5\n        /* \"--CODEGEN--\":4176:4187   */\n      add\n        /* \"--CODEGEN--\":4169:4208   */\n      mstore\n        /* \"--CODEGEN--\":4150:4152   */\n      0x20\n        /* \"--CODEGEN--\":4147:4148   */\n      dup2\n        /* \"--CODEGEN--\":4143:4153   */\n      add\n        /* \"--CODEGEN--\":4138:4153   */\n      swap1\n      pop\n        /* \"--CODEGEN--\":4114:4215   */\n      jump(tag_65)\n    tag_67:\n        /* \"--CODEGEN--\":4230:4236   */\n      dup4\n        /* \"--CODEGEN--\":4227:4228   */\n      dup2\n        /* \"--CODEGEN--\":4224:4237   */\n      gt\n        /* \"--CODEGEN--\":4221:4223   */\n      iszero\n      tag_68\n      jumpi\n        /* \"--CODEGEN--\":4295:4296   */\n      0x00\n        /* \"--CODEGEN--\":4286:4292   */\n      dup5\n        /* \"--CODEGEN--\":4281:4284   */\n      dup5\n        /* \"--CODEGEN--\":4277:4293   */\n      add\n        /* \"--CODEGEN--\":4270:4297   */\n      mstore\n        /* \"--CODEGEN--\":4221:4223   */\n    tag_68:\n        /* \"--CODEGEN--\":4091:4310   */\n      pop\n      pop\n      pop\n      pop\n      jump\n        /* \"--CODEGEN--\":4318:4415   */\n    tag_40:\n      0x00\n        /* \"--CODEGEN--\":4406:4408   */\n      0x1f\n        /* \"--CODEGEN--\":4402:4409   */\n      not\n        /* \"--CODEGEN--\":4397:4399   */\n      0x1f\n        /* \"--CODEGEN--\":4390:4395   */\n      dup4\n        /* \"--CODEGEN--\":4386:4400   */\n      add\n        /* \"--CODEGEN--\":4382:4410   */\n      and\n        /* \"--CODEGEN--\":4372:4410   */\n      swap1\n      pop\n        /* \"--CODEGEN--\":4366:4415   */\n      swap2\n      swap1\n      pop\n      jump\n\n    auxdata: 0xa2646970667358221220a12a6d33906ac7fc81a0f33743f1d2892f01dc2c935357c229f4da6a31cb6efe64736f6c63430006050033\n}\n",
				"bytecode": {
					"linkReferences": {},
					"object": "608060405234801561001057600080fd5b50610353806100206000396000f3fe608060405234801561001057600080fd5b506004361061002b5760003560e01c806371d3f37a14610030575b600080fd5b61004a60048036038101906100459190610111565b610060565b6040516100579190610228565b60405180910390f35b606060405160200161007190610213565b604051602081830303815290604052805190602001208260405160200161009891906101fc565b60405160208183030381529060405280519060200120146100b857600080fd5b919050565b600082601f8301126100ce57600080fd5b81356100e16100dc82610277565b61024a565b915080825260208301602083018583830111156100fd57600080fd5b6101088382846102ca565b50505092915050565b60006020828403121561012357600080fd5b600082013567ffffffffffffffff81111561013d57600080fd5b610149848285016100bd565b91505092915050565b600061015d826102a3565b61016781856102ae565b93506101778185602086016102d9565b6101808161030c565b840191505092915050565b6000610196826102a3565b6101a081856102bf565b93506101b08185602086016102d9565b80840191505092915050565b60006101c96006836102bf565b91507f31323334353600000000000000000000000000000000000000000000000000006000830152600682019050919050565b6000610208828461018b565b915081905092915050565b600061021e826101bc565b9150819050919050565b600060208201905081810360008301526102428184610152565b905092915050565b6000604051905081810181811067ffffffffffffffff8211171561026d57600080fd5b8060405250919050565b600067ffffffffffffffff82111561028e57600080fd5b601f19601f8301169050602081019050919050565b600081519050919050565b600082825260208201905092915050565b600081905092915050565b82818337600083830152505050565b60005b838110156102f75780820151818401526020810190506102dc565b83811115610306576000848401525b50505050565b6000601f19601f830116905091905056fea2646970667358221220a12a6d33906ac7fc81a0f33743f1d2892f01dc2c935357c229f4da6a31cb6efe64736f6c63430006050033",
					"opcodes": "PUSH1 0x80 PUSH1 0x40 MSTORE CALLVALUE DUP1 ISZERO PUSH2 0x10 JUMPI PUSH1 0x0 DUP1 REVERT JUMPDEST POP PUSH2 0x353 DUP1 PUSH2 0x20 PUSH1 0x0 CODECOPY PUSH1 0x0 RETURN INVALID PUSH1 0x80 PUSH1 0x40 MSTORE CALLVALUE DUP1 ISZERO PUSH2 0x10 JUMPI PUSH1 0x0 DUP1 REVERT JUMPDEST POP PUSH1 0x4 CALLDATASIZE LT PUSH2 0x2B JUMPI PUSH1 0x0 CALLDATALOAD PUSH1 0xE0 SHR DUP1 PUSH4 0x71D3F37A EQ PUSH2 0x30 JUMPI JUMPDEST PUSH1 0x0 DUP1 REVERT JUMPDEST PUSH2 0x4A PUSH1 0x4 DUP1 CALLDATASIZE SUB DUP2 ADD SWAP1 PUSH2 0x45 SWAP2 SWAP1 PUSH2 0x111 JUMP JUMPDEST PUSH2 0x60 JUMP JUMPDEST PUSH1 0x40 MLOAD PUSH2 0x57 SWAP2 SWAP1 PUSH2 0x228 JUMP JUMPDEST PUSH1 0x40 MLOAD DUP1 SWAP2 SUB SWAP1 RETURN JUMPDEST PUSH1 0x60 PUSH1 0x40 MLOAD PUSH1 0x20 ADD PUSH2 0x71 SWAP1 PUSH2 0x213 JUMP JUMPDEST PUSH1 0x40 MLOAD PUSH1 0x20 DUP2 DUP4 SUB SUB DUP2 MSTORE SWAP1 PUSH1 0x40 MSTORE DUP1 MLOAD SWAP1 PUSH1 0x20 ADD KECCAK256 DUP3 PUSH1 0x40 MLOAD PUSH1 0x20 ADD PUSH2 0x98 SWAP2 SWAP1 PUSH2 0x1FC JUMP JUMPDEST PUSH1 0x40 MLOAD PUSH1 0x20 DUP2 DUP4 SUB SUB DUP2 MSTORE SWAP1 PUSH1 0x40 MSTORE DUP1 MLOAD SWAP1 PUSH1 0x20 ADD KECCAK256 EQ PUSH2 0xB8 JUMPI PUSH1 0x0 DUP1 REVERT JUMPDEST SWAP2 SWAP1 POP JUMP JUMPDEST PUSH1 0x0 DUP3 PUSH1 0x1F DUP4 ADD SLT PUSH2 0xCE JUMPI PUSH1 0x0 DUP1 REVERT JUMPDEST DUP2 CALLDATALOAD PUSH2 0xE1 PUSH2 0xDC DUP3 PUSH2 0x277 JUMP JUMPDEST PUSH2 0x24A JUMP JUMPDEST SWAP2 POP DUP1 DUP3 MSTORE PUSH1 0x20 DUP4 ADD PUSH1 0x20 DUP4 ADD DUP6 DUP4 DUP4 ADD GT ISZERO PUSH2 0xFD JUMPI PUSH1 0x0 DUP1 REVERT JUMPDEST PUSH2 0x108 DUP4 DUP3 DUP5 PUSH2 0x2CA JUMP JUMPDEST POP POP POP SWAP3 SWAP2 POP POP JUMP JUMPDEST PUSH1 0x0 PUSH1 0x20 DUP3 DUP5 SUB SLT ISZERO PUSH2 0x123 JUMPI PUSH1 0x0 DUP1 REVERT JUMPDEST PUSH1 0x0 DUP3 ADD CALLDATALOAD PUSH8 0xFFFFFFFFFFFFFFFF DUP2 GT ISZERO PUSH2 0x13D JUMPI PUSH1 0x0 DUP1 REVERT JUMPDEST PUSH2 0x149 DUP5 DUP3 DUP6 ADD PUSH2 0xBD JUMP JUMPDEST SWAP2 POP POP SWAP3 SWAP2 POP POP JUMP JUMPDEST PUSH1 0x0 PUSH2 0x15D DUP3 PUSH2 0x2A3 JUMP JUMPDEST PUSH2 0x167 DUP2 DUP6 PUSH2 0x2AE JUMP JUMPDEST SWAP4 POP PUSH2 0x177 DUP2 DUP6 PUSH1 0x20 DUP7 ADD PUSH2 0x2D9 JUMP JUMPDEST PUSH2 0x180 DUP2 PUSH2 0x30C JUMP JUMPDEST DUP5 ADD SWAP2 POP POP SWAP3 SWAP2 POP POP JUMP JUMPDEST PUSH1 0x0 PUSH2 0x196 DUP3 PUSH2 0x2A3 JUMP JUMPDEST PUSH2 0x1A0 DUP2 DUP6 PUSH2 0x2BF JUMP JUMPDEST SWAP4 POP PUSH2 0x1B0 DUP2 DUP6 PUSH1 0x20 DUP7 ADD PUSH2 0x2D9 JUMP JUMPDEST DUP1 DUP5 ADD SWAP2 POP POP SWAP3 SWAP2 POP POP JUMP JUMPDEST PUSH1 0x0 PUSH2 0x1C9 PUSH1 0x6 DUP4 PUSH2 0x2BF JUMP JUMPDEST SWAP2 POP PUSH32 0x3132333435360000000000000000000000000000000000000000000000000000 PUSH1 0x0 DUP4 ADD MSTORE PUSH1 0x6 DUP3 ADD SWAP1 POP SWAP2 SWAP1 POP JUMP JUMPDEST PUSH1 0x0 PUSH2 0x208 DUP3 DUP5 PUSH2 0x18B JUMP JUMPDEST SWAP2 POP DUP2 SWAP1 POP SWAP3 SWAP2 POP POP JUMP JUMPDEST PUSH1 0x0 PUSH2 0x21E DUP3 PUSH2 0x1BC JUMP JUMPDEST SWAP2 POP DUP2 SWAP1 POP SWAP2 SWAP1 POP JUMP JUMPDEST PUSH1 0x0 PUSH1 0x20 DUP3 ADD SWAP1 POP DUP2 DUP2 SUB PUSH1 0x0 DUP4 ADD MSTORE PUSH2 0x242 DUP2 DUP5 PUSH2 0x152 JUMP JUMPDEST SWAP1 POP SWAP3 SWAP2 POP POP JUMP JUMPDEST PUSH1 0x0 PUSH1 0x40 MLOAD SWAP1 POP DUP2 DUP2 ADD DUP2 DUP2 LT PUSH8 0xFFFFFFFFFFFFFFFF DUP3 GT OR ISZERO PUSH2 0x26D JUMPI PUSH1 0x0 DUP1 REVERT JUMPDEST DUP1 PUSH1 0x40 MSTORE POP SWAP2 SWAP1 POP JUMP JUMPDEST PUSH1 0x0 PUSH8 0xFFFFFFFFFFFFFFFF DUP3 GT ISZERO PUSH2 0x28E JUMPI PUSH1 0x0 DUP1 REVERT JUMPDEST PUSH1 0x1F NOT PUSH1 0x1F DUP4 ADD AND SWAP1 POP PUSH1 0x20 DUP2 ADD SWAP1 POP SWAP2 SWAP1 POP JUMP JUMPDEST PUSH1 0x0 DUP2 MLOAD SWAP1 POP SWAP2 SWAP1 POP JUMP JUMPDEST PUSH1 0x0 DUP3 DUP3 MSTORE PUSH1 0x20 DUP3 ADD SWAP1 POP SWAP3 SWAP2 POP POP JUMP JUMPDEST PUSH1 0x0 DUP2 SWAP1 POP SWAP3 SWAP2 POP POP JUMP JUMPDEST DUP3 DUP2 DUP4 CALLDATACOPY PUSH1 0x0 DUP4 DUP4 ADD MSTORE POP POP POP JUMP JUMPDEST PUSH1 0x0 JUMPDEST DUP4 DUP2 LT ISZERO PUSH2 0x2F7 JUMPI DUP1 DUP3 ADD MLOAD DUP2 DUP5 ADD MSTORE PUSH1 0x20 DUP2 ADD SWAP1 POP PUSH2 0x2DC JUMP JUMPDEST DUP4 DUP2 GT ISZERO PUSH2 0x306 JUMPI PUSH1 0x0 DUP5 DUP5 ADD MSTORE JUMPDEST POP POP POP POP JUMP JUMPDEST PUSH1 0x0 PUSH1 0x1F NOT PUSH1 0x1F DUP4 ADD AND SWAP1 POP SWAP2 SWAP1 POP JUMP INVALID LOG2 PUSH5 0x6970667358 0x22 SLT KECCAK256 LOG1 0x2A PUSH14 0x33906AC7FC81A0F33743F1D2892F ADD 0xDC 0x2C SWAP4 MSTORE8 JUMPI 0xC2 0x29 DELEGATECALL 0xDA PUSH11 0x31CB6EFE64736F6C634300 MOD SDIV STOP CALLER "
				},
				"gasEstimates": {
					"creation": {
						"codeDepositCost": "170200",
						"executionCost": "214",
						"totalCost": "170414"
					},
					"external": {
						"password(string)": "infinite"
					}
				},
				"methodIdentifiers": {
					"password(string)": "71d3f37a"
				}
			},
			"storageLayout": {
				"storage": [],
				"types": null
			},
			"userdoc": {
				"methods": {}
			}
		}
	}
}