{
	"Funciones avanzadas/require.sol": {
		"Require": {
			"abi": [
				{
					"inputs": [],
					"name": "cartera",
					"outputs": [
						{
							"internalType": "uint256",
							"name": "",
							"type": "uint256"
						}
					],
					"stateMutability": "view",
					"type": "function"
				},
				{
					"inputs": [
						{
							"internalType": "uint256",
							"name": "_cantidad",
							"type": "uint256"
						}
					],
					"name": "pagar",
					"outputs": [
						{
							"internalType": "uint256",
							"name": "",
							"type": "uint256"
						}
					],
					"stateMutability": "nonpayable",
					"type": "function"
				},
				{
					"inputs": [
						{
							"internalType": "string",
							"name": "_password",
							"type": "string"
						}
					],
					"name": "password",
					"outputs": [
						{
							"internalType": "string",
							"name": "",
							"type": "string"
						}
					],
					"stateMutability": "pure",
					"type": "function"
				}
			],
			"devdoc": {
				"methods": {}
			},
			"evm": {
				"assembly": "    /* \"Funciones avanzadas/require.sol\":98:617  contract Require{\r... */\n  mstore(0x40, 0x80)\n    /* \"Funciones avanzadas/require.sol\":479:480  0 */\n  0x00\n    /* \"Funciones avanzadas/require.sol\":457:480  uint public cartera = 0 */\n  dup1\n  sstore\n    /* \"Funciones avanzadas/require.sol\":501:502  0 */\n  0x00\n    /* \"Funciones avanzadas/require.sol\":487:502  uint tiempo = 0 */\n  0x01\n  sstore\n    /* \"Funciones avanzadas/require.sol\":98:617  contract Require{\r... */\n  callvalue\n    /* \"--CODEGEN--\":5:14   */\n  dup1\n    /* \"--CODEGEN--\":2:4   */\n  iszero\n  tag_1\n  jumpi\n    /* \"--CODEGEN--\":27:28   */\n  0x00\n    /* \"--CODEGEN--\":24:25   */\n  dup1\n    /* \"--CODEGEN--\":17:29   */\n  revert\n    /* \"--CODEGEN--\":2:4   */\ntag_1:\n    /* \"Funciones avanzadas/require.sol\":98:617  contract Require{\r... */\n  pop\n  dataSize(sub_0)\n  dup1\n  dataOffset(sub_0)\n  0x00\n  codecopy\n  0x00\n  return\nstop\n\nsub_0: assembly {\n        /* \"Funciones avanzadas/require.sol\":98:617  contract Require{\r... */\n      mstore(0x40, 0x80)\n      callvalue\n        /* \"--CODEGEN--\":5:14   */\n      dup1\n        /* \"--CODEGEN--\":2:4   */\n      iszero\n      tag_1\n      jumpi\n        /* \"--CODEGEN--\":27:28   */\n      0x00\n        /* \"--CODEGEN--\":24:25   */\n      dup1\n        /* \"--CODEGEN--\":17:29   */\n      revert\n        /* \"--CODEGEN--\":2:4   */\n    tag_1:\n        /* \"Funciones avanzadas/require.sol\":98:617  contract Require{\r... */\n      pop\n      jumpi(tag_2, lt(calldatasize, 0x04))\n      shr(0xe0, calldataload(0x00))\n      dup1\n      0x3aa6d208\n      eq\n      tag_3\n      jumpi\n      dup1\n      0x694b9d34\n      eq\n      tag_4\n      jumpi\n      dup1\n      0x71d3f37a\n      eq\n      tag_5\n      jumpi\n    tag_2:\n        /* \"--CODEGEN--\":12:13   */\n      0x00\n        /* \"--CODEGEN--\":9:10   */\n      dup1\n        /* \"--CODEGEN--\":2:14   */\n      revert\n        /* \"Funciones avanzadas/require.sol\":509:614  function pagar(uint _cantidad) public returns(uint){\r... */\n    tag_3:\n      tag_6\n      0x04\n      dup1\n      calldatasize\n      sub\n      dup2\n      add\n      swap1\n      tag_7\n      swap2\n      swap1\n      jump(tag_8)\n    tag_7:\n      tag_9\n      jump\t// in\n    tag_6:\n      mload(0x40)\n      tag_10\n      swap2\n      swap1\n      jump(tag_11)\n    tag_10:\n      mload(0x40)\n      dup1\n      swap2\n      sub\n      swap1\n      return\n        /* \"Funciones avanzadas/require.sol\":457:480  uint public cartera = 0 */\n    tag_4:\n      tag_12\n      tag_13\n      jump\t// in\n    tag_12:\n      mload(0x40)\n      tag_14\n      swap2\n      swap1\n      jump(tag_11)\n    tag_14:\n      mload(0x40)\n      dup1\n      swap2\n      sub\n      swap1\n      return\n        /* \"Funciones avanzadas/require.sol\":167:421  function password(string memory _password) public pure returns (string memory) {\r... */\n    tag_5:\n      tag_15\n      0x04\n      dup1\n      calldatasize\n      sub\n      dup2\n      add\n      swap1\n      tag_16\n      swap2\n      swap1\n      jump(tag_17)\n    tag_16:\n      tag_18\n      jump\t// in\n    tag_15:\n      mload(0x40)\n      tag_19\n      swap2\n      swap1\n      jump(tag_20)\n    tag_19:\n      mload(0x40)\n      dup1\n      swap2\n      sub\n      swap1\n      return\n        /* \"Funciones avanzadas/require.sol\":509:614  function pagar(uint _cantidad) public returns(uint){\r... */\n    tag_9:\n        /* \"Funciones avanzadas/require.sol\":555:559  uint */\n      0x00\n        /* \"Funciones avanzadas/require.sol\":593:602  5 seconds */\n      0x05\n        /* \"Funciones avanzadas/require.sol\":584:590  tiempo */\n      sload(0x01)\n        /* \"Funciones avanzadas/require.sol\":584:602  tiempo + 5 seconds */\n      add\n        /* \"Funciones avanzadas/require.sol\":579:582  now */\n      timestamp\n        /* \"Funciones avanzadas/require.sol\":579:602  now> tiempo + 5 seconds */\n      gt\n        /* \"Funciones avanzadas/require.sol\":571:606  require(now> tiempo + 5 seconds,\"\") */\n      tag_22\n      jumpi\n      mload(0x40)\n      0x08c379a000000000000000000000000000000000000000000000000000000000\n      dup2\n      mstore\n      0x04\n      add\n      tag_23\n      swap1\n      jump(tag_24)\n    tag_23:\n      mload(0x40)\n      dup1\n      swap2\n      sub\n      swap1\n      revert\n    tag_22:\n        /* \"Funciones avanzadas/require.sol\":509:614  function pagar(uint _cantidad) public returns(uint){\r... */\n      swap2\n      swap1\n      pop\n      jump\t// out\n        /* \"Funciones avanzadas/require.sol\":457:480  uint public cartera = 0 */\n    tag_13:\n      sload(0x00)\n      dup2\n      jump\t// out\n        /* \"Funciones avanzadas/require.sol\":167:421  function password(string memory _password) public pure returns (string memory) {\r... */\n    tag_18:\n        /* \"Funciones avanzadas/require.sol\":231:244  string memory */\n      0x60\n        /* \"Funciones avanzadas/require.sol\":318:344  abi.encodePacked(\"123456\") */\n      add(0x20, mload(0x40))\n      tag_26\n      swap1\n      jump(tag_27)\n    tag_26:\n      mload(0x40)\n        /* \"--CODEGEN--\":49:53   */\n      0x20\n        /* \"--CODEGEN--\":39:46   */\n      dup2\n        /* \"--CODEGEN--\":30:37   */\n      dup4\n        /* \"--CODEGEN--\":26:47   */\n      sub\n        /* \"--CODEGEN--\":22:54   */\n      sub\n        /* \"--CODEGEN--\":13:20   */\n      dup2\n        /* \"--CODEGEN--\":6:55   */\n      mstore\n        /* \"Funciones avanzadas/require.sol\":318:344  abi.encodePacked(\"123456\") */\n      swap1\n      0x40\n      mstore\n        /* \"Funciones avanzadas/require.sol\":308:345  keccak256(abi.encodePacked(\"123456\")) */\n      dup1\n      mload\n      swap1\n      0x20\n      add\n      keccak256\n        /* \"Funciones avanzadas/require.sol\":293:302  _password */\n      dup3\n        /* \"Funciones avanzadas/require.sol\":276:303  abi.encodePacked(_password) */\n      add(0x20, mload(0x40))\n      tag_28\n      swap2\n      swap1\n      jump(tag_29)\n    tag_28:\n      mload(0x40)\n        /* \"--CODEGEN--\":49:53   */\n      0x20\n        /* \"--CODEGEN--\":39:46   */\n      dup2\n        /* \"--CODEGEN--\":30:37   */\n      dup4\n        /* \"--CODEGEN--\":26:47   */\n      sub\n        /* \"--CODEGEN--\":22:54   */\n      sub\n        /* \"--CODEGEN--\":13:20   */\n      dup2\n        /* \"--CODEGEN--\":6:55   */\n      mstore\n        /* \"Funciones avanzadas/require.sol\":276:303  abi.encodePacked(_password) */\n      swap1\n      0x40\n      mstore\n        /* \"Funciones avanzadas/require.sol\":266:304  keccak256(abi.encodePacked(_password)) */\n      dup1\n      mload\n      swap1\n      0x20\n      add\n      keccak256\n        /* \"Funciones avanzadas/require.sol\":266:345  keccak256(abi.encodePacked(_password)) == keccak256(abi.encodePacked(\"123456\")) */\n      eq\n        /* \"Funciones avanzadas/require.sol\":257:373  require((keccak256(abi.encodePacked(_password)) == keccak256(abi.encodePacked(\"123456\"))), \"Contraseña incorrecta\") */\n      tag_30\n      jumpi\n      mload(0x40)\n      0x08c379a000000000000000000000000000000000000000000000000000000000\n      dup2\n      mstore\n      0x04\n      add\n      tag_31\n      swap1\n      jump(tag_32)\n    tag_31:\n      mload(0x40)\n      dup1\n      swap2\n      sub\n      swap1\n      revert\n    tag_30:\n        /* \"Funciones avanzadas/require.sol\":384:413  return \"Contraseña Correcta\" */\n      mload(0x40)\n      dup1\n      0x40\n      add\n      0x40\n      mstore\n      dup1\n      0x14\n      dup2\n      mstore\n      0x20\n      add\n      0x436f6e7472617365c3b16120436f727265637461000000000000000000000000\n      dup2\n      mstore\n      pop\n      swap1\n      pop\n        /* \"Funciones avanzadas/require.sol\":167:421  function password(string memory _password) public pure returns (string memory) {\r... */\n      swap2\n      swap1\n      pop\n      jump\t// out\n        /* \"--CODEGEN--\":6:448   */\n    tag_34:\n      0x00\n        /* \"--CODEGEN--\":108:111   */\n      dup3\n        /* \"--CODEGEN--\":101:105   */\n      0x1f\n        /* \"--CODEGEN--\":93:99   */\n      dup4\n        /* \"--CODEGEN--\":89:106   */\n      add\n        /* \"--CODEGEN--\":85:112   */\n      slt\n        /* \"--CODEGEN--\":75:77   */\n      tag_36\n      jumpi\n        /* \"--CODEGEN--\":126:127   */\n      0x00\n        /* \"--CODEGEN--\":123:124   */\n      dup1\n        /* \"--CODEGEN--\":116:128   */\n      revert\n        /* \"--CODEGEN--\":75:77   */\n    tag_36:\n        /* \"--CODEGEN--\":163:169   */\n      dup2\n        /* \"--CODEGEN--\":150:170   */\n      calldataload\n        /* \"--CODEGEN--\":185:250   */\n      tag_37\n        /* \"--CODEGEN--\":200:249   */\n      tag_38\n        /* \"--CODEGEN--\":242:248   */\n      dup3\n        /* \"--CODEGEN--\":200:249   */\n      jump(tag_39)\n    tag_38:\n        /* \"--CODEGEN--\":185:250   */\n      jump(tag_40)\n    tag_37:\n        /* \"--CODEGEN--\":176:250   */\n      swap2\n      pop\n        /* \"--CODEGEN--\":270:276   */\n      dup1\n        /* \"--CODEGEN--\":263:268   */\n      dup3\n        /* \"--CODEGEN--\":256:277   */\n      mstore\n        /* \"--CODEGEN--\":306:310   */\n      0x20\n        /* \"--CODEGEN--\":298:304   */\n      dup4\n        /* \"--CODEGEN--\":294:311   */\n      add\n        /* \"--CODEGEN--\":339:343   */\n      0x20\n        /* \"--CODEGEN--\":332:337   */\n      dup4\n        /* \"--CODEGEN--\":328:344   */\n      add\n        /* \"--CODEGEN--\":374:377   */\n      dup6\n        /* \"--CODEGEN--\":365:371   */\n      dup4\n        /* \"--CODEGEN--\":360:363   */\n      dup4\n        /* \"--CODEGEN--\":356:372   */\n      add\n        /* \"--CODEGEN--\":353:378   */\n      gt\n        /* \"--CODEGEN--\":350:352   */\n      iszero\n      tag_41\n      jumpi\n        /* \"--CODEGEN--\":391:392   */\n      0x00\n        /* \"--CODEGEN--\":388:389   */\n      dup1\n        /* \"--CODEGEN--\":381:393   */\n      revert\n        /* \"--CODEGEN--\":350:352   */\n    tag_41:\n        /* \"--CODEGEN--\":401:442   */\n      tag_42\n        /* \"--CODEGEN--\":435:441   */\n      dup4\n        /* \"--CODEGEN--\":430:433   */\n      dup3\n        /* \"--CODEGEN--\":425:428   */\n      dup5\n        /* \"--CODEGEN--\":401:442   */\n      jump(tag_43)\n    tag_42:\n        /* \"--CODEGEN--\":68:448   */\n      pop\n      pop\n      pop\n      swap3\n      swap2\n      pop\n      pop\n      jump\n        /* \"--CODEGEN--\":456:586   */\n    tag_44:\n      0x00\n        /* \"--CODEGEN--\":536:542   */\n      dup2\n        /* \"--CODEGEN--\":523:543   */\n      calldataload\n        /* \"--CODEGEN--\":514:543   */\n      swap1\n      pop\n        /* \"--CODEGEN--\":548:581   */\n      tag_46\n        /* \"--CODEGEN--\":575:580   */\n      dup2\n        /* \"--CODEGEN--\":548:581   */\n      jump(tag_47)\n    tag_46:\n        /* \"--CODEGEN--\":508:586   */\n      swap3\n      swap2\n      pop\n      pop\n      jump\n        /* \"--CODEGEN--\":593:940   */\n    tag_17:\n      0x00\n        /* \"--CODEGEN--\":707:709   */\n      0x20\n        /* \"--CODEGEN--\":695:704   */\n      dup3\n        /* \"--CODEGEN--\":686:693   */\n      dup5\n        /* \"--CODEGEN--\":682:705   */\n      sub\n        /* \"--CODEGEN--\":678:710   */\n      slt\n        /* \"--CODEGEN--\":675:677   */\n      iszero\n      tag_49\n      jumpi\n        /* \"--CODEGEN--\":723:724   */\n      0x00\n        /* \"--CODEGEN--\":720:721   */\n      dup1\n        /* \"--CODEGEN--\":713:725   */\n      revert\n        /* \"--CODEGEN--\":675:677   */\n    tag_49:\n        /* \"--CODEGEN--\":786:787   */\n      0x00\n        /* \"--CODEGEN--\":775:784   */\n      dup3\n        /* \"--CODEGEN--\":771:788   */\n      add\n        /* \"--CODEGEN--\":758:789   */\n      calldataload\n        /* \"--CODEGEN--\":809:827   */\n      0xffffffffffffffff\n        /* \"--CODEGEN--\":801:807   */\n      dup2\n        /* \"--CODEGEN--\":798:828   */\n      gt\n        /* \"--CODEGEN--\":795:797   */\n      iszero\n      tag_50\n      jumpi\n        /* \"--CODEGEN--\":841:842   */\n      0x00\n        /* \"--CODEGEN--\":838:839   */\n      dup1\n        /* \"--CODEGEN--\":831:843   */\n      revert\n        /* \"--CODEGEN--\":795:797   */\n    tag_50:\n        /* \"--CODEGEN--\":861:924   */\n      tag_51\n        /* \"--CODEGEN--\":916:923   */\n      dup5\n        /* \"--CODEGEN--\":907:913   */\n      dup3\n        /* \"--CODEGEN--\":896:905   */\n      dup6\n        /* \"--CODEGEN--\":892:914   */\n      add\n        /* \"--CODEGEN--\":861:924   */\n      jump(tag_34)\n    tag_51:\n        /* \"--CODEGEN--\":851:924   */\n      swap2\n      pop\n        /* \"--CODEGEN--\":737:930   */\n      pop\n        /* \"--CODEGEN--\":669:940   */\n      swap3\n      swap2\n      pop\n      pop\n      jump\n        /* \"--CODEGEN--\":947:1188   */\n    tag_8:\n      0x00\n        /* \"--CODEGEN--\":1051:1053   */\n      0x20\n        /* \"--CODEGEN--\":1039:1048   */\n      dup3\n        /* \"--CODEGEN--\":1030:1037   */\n      dup5\n        /* \"--CODEGEN--\":1026:1049   */\n      sub\n        /* \"--CODEGEN--\":1022:1054   */\n      slt\n        /* \"--CODEGEN--\":1019:1021   */\n      iszero\n      tag_53\n      jumpi\n        /* \"--CODEGEN--\":1067:1068   */\n      0x00\n        /* \"--CODEGEN--\":1064:1065   */\n      dup1\n        /* \"--CODEGEN--\":1057:1069   */\n      revert\n        /* \"--CODEGEN--\":1019:1021   */\n    tag_53:\n        /* \"--CODEGEN--\":1102:1103   */\n      0x00\n        /* \"--CODEGEN--\":1119:1172   */\n      tag_54\n        /* \"--CODEGEN--\":1164:1171   */\n      dup5\n        /* \"--CODEGEN--\":1155:1161   */\n      dup3\n        /* \"--CODEGEN--\":1144:1153   */\n      dup6\n        /* \"--CODEGEN--\":1140:1162   */\n      add\n        /* \"--CODEGEN--\":1119:1172   */\n      jump(tag_44)\n    tag_54:\n        /* \"--CODEGEN--\":1109:1172   */\n      swap2\n      pop\n        /* \"--CODEGEN--\":1081:1178   */\n      pop\n        /* \"--CODEGEN--\":1013:1188   */\n      swap3\n      swap2\n      pop\n      pop\n      jump\n        /* \"--CODEGEN--\":1195:1542   */\n    tag_55:\n      0x00\n        /* \"--CODEGEN--\":1307:1346   */\n      tag_57\n        /* \"--CODEGEN--\":1340:1345   */\n      dup3\n        /* \"--CODEGEN--\":1307:1346   */\n      jump(tag_58)\n    tag_57:\n        /* \"--CODEGEN--\":1358:1429   */\n      tag_59\n        /* \"--CODEGEN--\":1422:1428   */\n      dup2\n        /* \"--CODEGEN--\":1417:1420   */\n      dup6\n        /* \"--CODEGEN--\":1358:1429   */\n      jump(tag_60)\n    tag_59:\n        /* \"--CODEGEN--\":1351:1429   */\n      swap4\n      pop\n        /* \"--CODEGEN--\":1434:1486   */\n      tag_61\n        /* \"--CODEGEN--\":1479:1485   */\n      dup2\n        /* \"--CODEGEN--\":1474:1477   */\n      dup6\n        /* \"--CODEGEN--\":1467:1471   */\n      0x20\n        /* \"--CODEGEN--\":1460:1465   */\n      dup7\n        /* \"--CODEGEN--\":1456:1472   */\n      add\n        /* \"--CODEGEN--\":1434:1486   */\n      jump(tag_62)\n    tag_61:\n        /* \"--CODEGEN--\":1507:1536   */\n      tag_63\n        /* \"--CODEGEN--\":1529:1535   */\n      dup2\n        /* \"--CODEGEN--\":1507:1536   */\n      jump(tag_64)\n    tag_63:\n        /* \"--CODEGEN--\":1502:1505   */\n      dup5\n        /* \"--CODEGEN--\":1498:1537   */\n      add\n        /* \"--CODEGEN--\":1491:1537   */\n      swap2\n      pop\n        /* \"--CODEGEN--\":1287:1542   */\n      pop\n      swap3\n      swap2\n      pop\n      pop\n      jump\n        /* \"--CODEGEN--\":1549:1909   */\n    tag_65:\n      0x00\n        /* \"--CODEGEN--\":1679:1718   */\n      tag_67\n        /* \"--CODEGEN--\":1712:1717   */\n      dup3\n        /* \"--CODEGEN--\":1679:1718   */\n      jump(tag_58)\n    tag_67:\n        /* \"--CODEGEN--\":1730:1819   */\n      tag_68\n        /* \"--CODEGEN--\":1812:1818   */\n      dup2\n        /* \"--CODEGEN--\":1807:1810   */\n      dup6\n        /* \"--CODEGEN--\":1730:1819   */\n      jump(tag_69)\n    tag_68:\n        /* \"--CODEGEN--\":1723:1819   */\n      swap4\n      pop\n        /* \"--CODEGEN--\":1824:1876   */\n      tag_70\n        /* \"--CODEGEN--\":1869:1875   */\n      dup2\n        /* \"--CODEGEN--\":1864:1867   */\n      dup6\n        /* \"--CODEGEN--\":1857:1861   */\n      0x20\n        /* \"--CODEGEN--\":1850:1855   */\n      dup7\n        /* \"--CODEGEN--\":1846:1862   */\n      add\n        /* \"--CODEGEN--\":1824:1876   */\n      jump(tag_62)\n    tag_70:\n        /* \"--CODEGEN--\":1897:1903   */\n      dup1\n        /* \"--CODEGEN--\":1892:1895   */\n      dup5\n        /* \"--CODEGEN--\":1888:1904   */\n      add\n        /* \"--CODEGEN--\":1881:1904   */\n      swap2\n      pop\n        /* \"--CODEGEN--\":1659:1909   */\n      pop\n      swap3\n      swap2\n      pop\n      pop\n      jump\n        /* \"--CODEGEN--\":1917:2281   */\n    tag_71:\n      0x00\n        /* \"--CODEGEN--\":2077:2144   */\n      tag_73\n        /* \"--CODEGEN--\":2141:2143   */\n      0x16\n        /* \"--CODEGEN--\":2136:2139   */\n      dup4\n        /* \"--CODEGEN--\":2077:2144   */\n      jump(tag_60)\n    tag_73:\n        /* \"--CODEGEN--\":2070:2144   */\n      swap2\n      pop\n        /* \"--CODEGEN--\":2177:2243   */\n      0x436f6e7472617365c3b16120696e636f72726563746100000000000000000000\n        /* \"--CODEGEN--\":2173:2174   */\n      0x00\n        /* \"--CODEGEN--\":2168:2171   */\n      dup4\n        /* \"--CODEGEN--\":2164:2175   */\n      add\n        /* \"--CODEGEN--\":2157:2244   */\n      mstore\n        /* \"--CODEGEN--\":2272:2274   */\n      0x20\n        /* \"--CODEGEN--\":2267:2270   */\n      dup3\n        /* \"--CODEGEN--\":2263:2275   */\n      add\n        /* \"--CODEGEN--\":2256:2275   */\n      swap1\n      pop\n        /* \"--CODEGEN--\":2063:2281   */\n      swap2\n      swap1\n      pop\n      jump\n        /* \"--CODEGEN--\":2290:2552   */\n    tag_74:\n      0x00\n        /* \"--CODEGEN--\":2450:2516   */\n      tag_76\n        /* \"--CODEGEN--\":2514:2515   */\n      0x00\n        /* \"--CODEGEN--\":2509:2512   */\n      dup4\n        /* \"--CODEGEN--\":2450:2516   */\n      jump(tag_60)\n    tag_76:\n        /* \"--CODEGEN--\":2443:2516   */\n      swap2\n      pop\n        /* \"--CODEGEN--\":2544:2545   */\n      0x00\n        /* \"--CODEGEN--\":2539:2542   */\n      dup3\n        /* \"--CODEGEN--\":2535:2546   */\n      add\n        /* \"--CODEGEN--\":2528:2546   */\n      swap1\n      pop\n        /* \"--CODEGEN--\":2436:2552   */\n      swap2\n      swap1\n      pop\n      jump\n        /* \"--CODEGEN--\":2561:2901   */\n    tag_77:\n      0x00\n        /* \"--CODEGEN--\":2739:2823   */\n      tag_79\n        /* \"--CODEGEN--\":2821:2822   */\n      0x06\n        /* \"--CODEGEN--\":2816:2819   */\n      dup4\n        /* \"--CODEGEN--\":2739:2823   */\n      jump(tag_69)\n    tag_79:\n        /* \"--CODEGEN--\":2732:2823   */\n      swap2\n      pop\n        /* \"--CODEGEN--\":2856:2864   */\n      0x3132333435360000000000000000000000000000000000000000000000000000\n        /* \"--CODEGEN--\":2852:2853   */\n      0x00\n        /* \"--CODEGEN--\":2847:2850   */\n      dup4\n        /* \"--CODEGEN--\":2843:2854   */\n      add\n        /* \"--CODEGEN--\":2836:2865   */\n      mstore\n        /* \"--CODEGEN--\":2893:2894   */\n      0x06\n        /* \"--CODEGEN--\":2888:2891   */\n      dup3\n        /* \"--CODEGEN--\":2884:2895   */\n      add\n        /* \"--CODEGEN--\":2877:2895   */\n      swap1\n      pop\n        /* \"--CODEGEN--\":2725:2901   */\n      swap2\n      swap1\n      pop\n      jump\n        /* \"--CODEGEN--\":2909:3022   */\n    tag_80:\n        /* \"--CODEGEN--\":2992:3016   */\n      tag_82\n        /* \"--CODEGEN--\":3010:3015   */\n      dup2\n        /* \"--CODEGEN--\":2992:3016   */\n      jump(tag_83)\n    tag_82:\n        /* \"--CODEGEN--\":2987:2990   */\n      dup3\n        /* \"--CODEGEN--\":2980:3017   */\n      mstore\n        /* \"--CODEGEN--\":2974:3022   */\n      pop\n      pop\n      jump\n        /* \"--CODEGEN--\":3029:3295   */\n    tag_29:\n      0x00\n        /* \"--CODEGEN--\":3175:3270   */\n      tag_85\n        /* \"--CODEGEN--\":3266:3269   */\n      dup3\n        /* \"--CODEGEN--\":3257:3263   */\n      dup5\n        /* \"--CODEGEN--\":3175:3270   */\n      jump(tag_65)\n    tag_85:\n        /* \"--CODEGEN--\":3168:3270   */\n      swap2\n      pop\n        /* \"--CODEGEN--\":3287:3290   */\n      dup2\n        /* \"--CODEGEN--\":3280:3290   */\n      swap1\n      pop\n        /* \"--CODEGEN--\":3156:3295   */\n      swap3\n      swap2\n      pop\n      pop\n      jump\n        /* \"--CODEGEN--\":3302:3674   */\n    tag_27:\n      0x00\n        /* \"--CODEGEN--\":3501:3649   */\n      tag_87\n        /* \"--CODEGEN--\":3645:3648   */\n      dup3\n        /* \"--CODEGEN--\":3501:3649   */\n      jump(tag_77)\n    tag_87:\n        /* \"--CODEGEN--\":3494:3649   */\n      swap2\n      pop\n        /* \"--CODEGEN--\":3666:3669   */\n      dup2\n        /* \"--CODEGEN--\":3659:3669   */\n      swap1\n      pop\n        /* \"--CODEGEN--\":3482:3674   */\n      swap2\n      swap1\n      pop\n      jump\n        /* \"--CODEGEN--\":3681:3982   */\n    tag_20:\n      0x00\n        /* \"--CODEGEN--\":3819:3821   */\n      0x20\n        /* \"--CODEGEN--\":3808:3817   */\n      dup3\n        /* \"--CODEGEN--\":3804:3822   */\n      add\n        /* \"--CODEGEN--\":3796:3822   */\n      swap1\n      pop\n        /* \"--CODEGEN--\":3869:3878   */\n      dup2\n        /* \"--CODEGEN--\":3863:3867   */\n      dup2\n        /* \"--CODEGEN--\":3859:3879   */\n      sub\n        /* \"--CODEGEN--\":3855:3856   */\n      0x00\n        /* \"--CODEGEN--\":3844:3853   */\n      dup4\n        /* \"--CODEGEN--\":3840:3857   */\n      add\n        /* \"--CODEGEN--\":3833:3880   */\n      mstore\n        /* \"--CODEGEN--\":3894:3972   */\n      tag_89\n        /* \"--CODEGEN--\":3967:3971   */\n      dup2\n        /* \"--CODEGEN--\":3958:3964   */\n      dup5\n        /* \"--CODEGEN--\":3894:3972   */\n      jump(tag_55)\n    tag_89:\n        /* \"--CODEGEN--\":3886:3972   */\n      swap1\n      pop\n        /* \"--CODEGEN--\":3790:3982   */\n      swap3\n      swap2\n      pop\n      pop\n      jump\n        /* \"--CODEGEN--\":3989:4396   */\n    tag_32:\n      0x00\n        /* \"--CODEGEN--\":4180:4182   */\n      0x20\n        /* \"--CODEGEN--\":4169:4178   */\n      dup3\n        /* \"--CODEGEN--\":4165:4183   */\n      add\n        /* \"--CODEGEN--\":4157:4183   */\n      swap1\n      pop\n        /* \"--CODEGEN--\":4230:4239   */\n      dup2\n        /* \"--CODEGEN--\":4224:4228   */\n      dup2\n        /* \"--CODEGEN--\":4220:4240   */\n      sub\n        /* \"--CODEGEN--\":4216:4217   */\n      0x00\n        /* \"--CODEGEN--\":4205:4214   */\n      dup4\n        /* \"--CODEGEN--\":4201:4218   */\n      add\n        /* \"--CODEGEN--\":4194:4241   */\n      mstore\n        /* \"--CODEGEN--\":4255:4386   */\n      tag_91\n        /* \"--CODEGEN--\":4381:4385   */\n      dup2\n        /* \"--CODEGEN--\":4255:4386   */\n      jump(tag_71)\n    tag_91:\n        /* \"--CODEGEN--\":4247:4386   */\n      swap1\n      pop\n        /* \"--CODEGEN--\":4151:4396   */\n      swap2\n      swap1\n      pop\n      jump\n        /* \"--CODEGEN--\":4403:4810   */\n    tag_24:\n      0x00\n        /* \"--CODEGEN--\":4594:4596   */\n      0x20\n        /* \"--CODEGEN--\":4583:4592   */\n      dup3\n        /* \"--CODEGEN--\":4579:4597   */\n      add\n        /* \"--CODEGEN--\":4571:4597   */\n      swap1\n      pop\n        /* \"--CODEGEN--\":4644:4653   */\n      dup2\n        /* \"--CODEGEN--\":4638:4642   */\n      dup2\n        /* \"--CODEGEN--\":4634:4654   */\n      sub\n        /* \"--CODEGEN--\":4630:4631   */\n      0x00\n        /* \"--CODEGEN--\":4619:4628   */\n      dup4\n        /* \"--CODEGEN--\":4615:4632   */\n      add\n        /* \"--CODEGEN--\":4608:4655   */\n      mstore\n        /* \"--CODEGEN--\":4669:4800   */\n      tag_93\n        /* \"--CODEGEN--\":4795:4799   */\n      dup2\n        /* \"--CODEGEN--\":4669:4800   */\n      jump(tag_74)\n    tag_93:\n        /* \"--CODEGEN--\":4661:4800   */\n      swap1\n      pop\n        /* \"--CODEGEN--\":4565:4810   */\n      swap2\n      swap1\n      pop\n      jump\n        /* \"--CODEGEN--\":4817:5030   */\n    tag_11:\n      0x00\n        /* \"--CODEGEN--\":4935:4937   */\n      0x20\n        /* \"--CODEGEN--\":4924:4933   */\n      dup3\n        /* \"--CODEGEN--\":4920:4938   */\n      add\n        /* \"--CODEGEN--\":4912:4938   */\n      swap1\n      pop\n        /* \"--CODEGEN--\":4949:5020   */\n      tag_95\n        /* \"--CODEGEN--\":5017:5018   */\n      0x00\n        /* \"--CODEGEN--\":5006:5015   */\n      dup4\n        /* \"--CODEGEN--\":5002:5019   */\n      add\n        /* \"--CODEGEN--\":4993:4999   */\n      dup5\n        /* \"--CODEGEN--\":4949:5020   */\n      jump(tag_80)\n    tag_95:\n        /* \"--CODEGEN--\":4906:5030   */\n      swap3\n      swap2\n      pop\n      pop\n      jump\n        /* \"--CODEGEN--\":5037:5293   */\n    tag_40:\n      0x00\n        /* \"--CODEGEN--\":5099:5101   */\n      0x40\n        /* \"--CODEGEN--\":5093:5102   */\n      mload\n        /* \"--CODEGEN--\":5083:5102   */\n      swap1\n      pop\n        /* \"--CODEGEN--\":5137:5141   */\n      dup2\n        /* \"--CODEGEN--\":5129:5135   */\n      dup2\n        /* \"--CODEGEN--\":5125:5142   */\n      add\n        /* \"--CODEGEN--\":5236:5242   */\n      dup2\n        /* \"--CODEGEN--\":5224:5234   */\n      dup2\n        /* \"--CODEGEN--\":5221:5243   */\n      lt\n        /* \"--CODEGEN--\":5200:5218   */\n      0xffffffffffffffff\n        /* \"--CODEGEN--\":5188:5198   */\n      dup3\n        /* \"--CODEGEN--\":5185:5219   */\n      gt\n        /* \"--CODEGEN--\":5182:5244   */\n      or\n        /* \"--CODEGEN--\":5179:5181   */\n      iszero\n      tag_97\n      jumpi\n        /* \"--CODEGEN--\":5257:5258   */\n      0x00\n        /* \"--CODEGEN--\":5254:5255   */\n      dup1\n        /* \"--CODEGEN--\":5247:5259   */\n      revert\n        /* \"--CODEGEN--\":5179:5181   */\n    tag_97:\n        /* \"--CODEGEN--\":5277:5287   */\n      dup1\n        /* \"--CODEGEN--\":5273:5275   */\n      0x40\n        /* \"--CODEGEN--\":5266:5288   */\n      mstore\n        /* \"--CODEGEN--\":5077:5293   */\n      pop\n      swap2\n      swap1\n      pop\n      jump\n        /* \"--CODEGEN--\":5300:5622   */\n    tag_39:\n      0x00\n        /* \"--CODEGEN--\":5444:5462   */\n      0xffffffffffffffff\n        /* \"--CODEGEN--\":5436:5442   */\n      dup3\n        /* \"--CODEGEN--\":5433:5463   */\n      gt\n        /* \"--CODEGEN--\":5430:5432   */\n      iszero\n      tag_99\n      jumpi\n        /* \"--CODEGEN--\":5476:5477   */\n      0x00\n        /* \"--CODEGEN--\":5473:5474   */\n      dup1\n        /* \"--CODEGEN--\":5466:5478   */\n      revert\n        /* \"--CODEGEN--\":5430:5432   */\n    tag_99:\n        /* \"--CODEGEN--\":5543:5547   */\n      0x1f\n        /* \"--CODEGEN--\":5539:5548   */\n      not\n        /* \"--CODEGEN--\":5532:5536   */\n      0x1f\n        /* \"--CODEGEN--\":5524:5530   */\n      dup4\n        /* \"--CODEGEN--\":5520:5537   */\n      add\n        /* \"--CODEGEN--\":5516:5549   */\n      and\n        /* \"--CODEGEN--\":5508:5549   */\n      swap1\n      pop\n        /* \"--CODEGEN--\":5607:5611   */\n      0x20\n        /* \"--CODEGEN--\":5601:5605   */\n      dup2\n        /* \"--CODEGEN--\":5597:5612   */\n      add\n        /* \"--CODEGEN--\":5589:5612   */\n      swap1\n      pop\n        /* \"--CODEGEN--\":5367:5622   */\n      swap2\n      swap1\n      pop\n      jump\n        /* \"--CODEGEN--\":5629:5751   */\n    tag_58:\n      0x00\n        /* \"--CODEGEN--\":5723:5728   */\n      dup2\n        /* \"--CODEGEN--\":5717:5729   */\n      mload\n        /* \"--CODEGEN--\":5707:5729   */\n      swap1\n      pop\n        /* \"--CODEGEN--\":5688:5751   */\n      swap2\n      swap1\n      pop\n      jump\n        /* \"--CODEGEN--\":5759:5922   */\n    tag_60:\n      0x00\n        /* \"--CODEGEN--\":5874:5880   */\n      dup3\n        /* \"--CODEGEN--\":5869:5872   */\n      dup3\n        /* \"--CODEGEN--\":5862:5881   */\n      mstore\n        /* \"--CODEGEN--\":5911:5915   */\n      0x20\n        /* \"--CODEGEN--\":5906:5909   */\n      dup3\n        /* \"--CODEGEN--\":5902:5916   */\n      add\n        /* \"--CODEGEN--\":5887:5916   */\n      swap1\n      pop\n        /* \"--CODEGEN--\":5855:5922   */\n      swap3\n      swap2\n      pop\n      pop\n      jump\n        /* \"--CODEGEN--\":5931:6076   */\n    tag_69:\n      0x00\n        /* \"--CODEGEN--\":6067:6070   */\n      dup2\n        /* \"--CODEGEN--\":6052:6070   */\n      swap1\n      pop\n        /* \"--CODEGEN--\":6045:6076   */\n      swap3\n      swap2\n      pop\n      pop\n      jump\n        /* \"--CODEGEN--\":6084:6156   */\n    tag_83:\n      0x00\n        /* \"--CODEGEN--\":6146:6151   */\n      dup2\n        /* \"--CODEGEN--\":6135:6151   */\n      swap1\n      pop\n        /* \"--CODEGEN--\":6129:6156   */\n      swap2\n      swap1\n      pop\n      jump\n        /* \"--CODEGEN--\":6164:6309   */\n    tag_43:\n        /* \"--CODEGEN--\":6245:6251   */\n      dup3\n        /* \"--CODEGEN--\":6240:6243   */\n      dup2\n        /* \"--CODEGEN--\":6235:6238   */\n      dup4\n        /* \"--CODEGEN--\":6222:6252   */\n      calldatacopy\n        /* \"--CODEGEN--\":6301:6302   */\n      0x00\n        /* \"--CODEGEN--\":6292:6298   */\n      dup4\n        /* \"--CODEGEN--\":6287:6290   */\n      dup4\n        /* \"--CODEGEN--\":6283:6299   */\n      add\n        /* \"--CODEGEN--\":6276:6303   */\n      mstore\n        /* \"--CODEGEN--\":6215:6309   */\n      pop\n      pop\n      pop\n      jump\n        /* \"--CODEGEN--\":6318:6586   */\n    tag_62:\n        /* \"--CODEGEN--\":6383:6384   */\n      0x00\n        /* \"--CODEGEN--\":6390:6491   */\n    tag_106:\n        /* \"--CODEGEN--\":6404:6410   */\n      dup4\n        /* \"--CODEGEN--\":6401:6402   */\n      dup2\n        /* \"--CODEGEN--\":6398:6411   */\n      lt\n        /* \"--CODEGEN--\":6390:6491   */\n      iszero\n      tag_108\n      jumpi\n        /* \"--CODEGEN--\":6480:6481   */\n      dup1\n        /* \"--CODEGEN--\":6475:6478   */\n      dup3\n        /* \"--CODEGEN--\":6471:6482   */\n      add\n        /* \"--CODEGEN--\":6465:6483   */\n      mload\n        /* \"--CODEGEN--\":6461:6462   */\n      dup2\n        /* \"--CODEGEN--\":6456:6459   */\n      dup5\n        /* \"--CODEGEN--\":6452:6463   */\n      add\n        /* \"--CODEGEN--\":6445:6484   */\n      mstore\n        /* \"--CODEGEN--\":6426:6428   */\n      0x20\n        /* \"--CODEGEN--\":6423:6424   */\n      dup2\n        /* \"--CODEGEN--\":6419:6429   */\n      add\n        /* \"--CODEGEN--\":6414:6429   */\n      swap1\n      pop\n        /* \"--CODEGEN--\":6390:6491   */\n      jump(tag_106)\n    tag_108:\n        /* \"--CODEGEN--\":6506:6512   */\n      dup4\n        /* \"--CODEGEN--\":6503:6504   */\n      dup2\n        /* \"--CODEGEN--\":6500:6513   */\n      gt\n        /* \"--CODEGEN--\":6497:6499   */\n      iszero\n      tag_109\n      jumpi\n        /* \"--CODEGEN--\":6571:6572   */\n      0x00\n        /* \"--CODEGEN--\":6562:6568   */\n      dup5\n        /* \"--CODEGEN--\":6557:6560   */\n      dup5\n        /* \"--CODEGEN--\":6553:6569   */\n      add\n        /* \"--CODEGEN--\":6546:6573   */\n      mstore\n        /* \"--CODEGEN--\":6497:6499   */\n    tag_109:\n        /* \"--CODEGEN--\":6367:6586   */\n      pop\n      pop\n      pop\n      pop\n      jump\n        /* \"--CODEGEN--\":6594:6691   */\n    tag_64:\n      0x00\n        /* \"--CODEGEN--\":6682:6684   */\n      0x1f\n        /* \"--CODEGEN--\":6678:6685   */\n      not\n        /* \"--CODEGEN--\":6673:6675   */\n      0x1f\n        /* \"--CODEGEN--\":6666:6671   */\n      dup4\n        /* \"--CODEGEN--\":6662:6676   */\n      add\n        /* \"--CODEGEN--\":6658:6686   */\n      and\n        /* \"--CODEGEN--\":6648:6686   */\n      swap1\n      pop\n        /* \"--CODEGEN--\":6642:6691   */\n      swap2\n      swap1\n      pop\n      jump\n        /* \"--CODEGEN--\":6699:6816   */\n    tag_47:\n        /* \"--CODEGEN--\":6768:6792   */\n      tag_112\n        /* \"--CODEGEN--\":6786:6791   */\n      dup2\n        /* \"--CODEGEN--\":6768:6792   */\n      jump(tag_83)\n    tag_112:\n        /* \"--CODEGEN--\":6761:6766   */\n      dup2\n        /* \"--CODEGEN--\":6758:6793   */\n      eq\n        /* \"--CODEGEN--\":6748:6750   */\n      tag_113\n      jumpi\n        /* \"--CODEGEN--\":6807:6808   */\n      0x00\n        /* \"--CODEGEN--\":6804:6805   */\n      dup1\n        /* \"--CODEGEN--\":6797:6809   */\n      revert\n        /* \"--CODEGEN--\":6748:6750   */\n    tag_113:\n        /* \"--CODEGEN--\":6742:6816   */\n      pop\n      jump\n\n    auxdata: 0xa2646970667358221220f02601f2f15563f1ff4f0c85b7a1f7b8540f2f6118c081ae990455b1446e3b8464736f6c63430006050033\n}\n",
				"bytecode": {
					"linkReferences": {},
					"object": "608060405260008055600060015534801561001957600080fd5b5061059c806100296000396000f3fe608060405234801561001057600080fd5b50600436106100415760003560e01c80633aa6d20814610046578063694b9d341461007657806371d3f37a14610094575b600080fd5b610060600480360381019061005b919061028d565b6100c4565b60405161006d9190610457565b60405180910390f35b61007e610112565b60405161008b9190610457565b60405180910390f35b6100ae60048036038101906100a9919061024c565b610118565b6040516100bb91906103f5565b60405180910390f35b6000600560015401421161010d576040517f08c379a000000000000000000000000000000000000000000000000000000000815260040161010490610437565b60405180910390fd5b919050565b60005481565b6060604051602001610129906103e0565b604051602081830303815290604052805190602001208260405160200161015091906103c9565b60405160208183030381529060405280519060200120146101a6576040517f08c379a000000000000000000000000000000000000000000000000000000000815260040161019d90610417565b60405180910390fd5b6040518060400160405280601481526020017f436f6e7472617365c3b16120436f7272656374610000000000000000000000008152509050919050565b600082601f8301126101f457600080fd5b81356102076102028261049f565b610472565b9150808252602083016020830185838301111561022357600080fd5b61022e8382846104fc565b50505092915050565b6000813590506102468161054f565b92915050565b60006020828403121561025e57600080fd5b600082013567ffffffffffffffff81111561027857600080fd5b610284848285016101e3565b91505092915050565b60006020828403121561029f57600080fd5b60006102ad84828501610237565b91505092915050565b60006102c1826104cb565b6102cb81856104d6565b93506102db81856020860161050b565b6102e48161053e565b840191505092915050565b60006102fa826104cb565b61030481856104e7565b935061031481856020860161050b565b80840191505092915050565b600061032d6016836104d6565b91507f436f6e7472617365c3b16120696e636f727265637461000000000000000000006000830152602082019050919050565b600061036d6000836104d6565b9150600082019050919050565b60006103876006836104e7565b91507f31323334353600000000000000000000000000000000000000000000000000006000830152600682019050919050565b6103c3816104f2565b82525050565b60006103d582846102ef565b915081905092915050565b60006103eb8261037a565b9150819050919050565b6000602082019050818103600083015261040f81846102b6565b905092915050565b6000602082019050818103600083015261043081610320565b9050919050565b6000602082019050818103600083015261045081610360565b9050919050565b600060208201905061046c60008301846103ba565b92915050565b6000604051905081810181811067ffffffffffffffff8211171561049557600080fd5b8060405250919050565b600067ffffffffffffffff8211156104b657600080fd5b601f19601f8301169050602081019050919050565b600081519050919050565b600082825260208201905092915050565b600081905092915050565b6000819050919050565b82818337600083830152505050565b60005b8381101561052957808201518184015260208101905061050e565b83811115610538576000848401525b50505050565b6000601f19601f8301169050919050565b610558816104f2565b811461056357600080fd5b5056fea2646970667358221220f02601f2f15563f1ff4f0c85b7a1f7b8540f2f6118c081ae990455b1446e3b8464736f6c63430006050033",
					"opcodes": "PUSH1 0x80 PUSH1 0x40 MSTORE PUSH1 0x0 DUP1 SSTORE PUSH1 0x0 PUSH1 0x1 SSTORE CALLVALUE DUP1 ISZERO PUSH2 0x19 JUMPI PUSH1 0x0 DUP1 REVERT JUMPDEST POP PUSH2 0x59C DUP1 PUSH2 0x29 PUSH1 0x0 CODECOPY PUSH1 0x0 RETURN INVALID PUSH1 0x80 PUSH1 0x40 MSTORE CALLVALUE DUP1 ISZERO PUSH2 0x10 JUMPI PUSH1 0x0 DUP1 REVERT JUMPDEST POP PUSH1 0x4 CALLDATASIZE LT PUSH2 0x41 JUMPI PUSH1 0x0 CALLDATALOAD PUSH1 0xE0 SHR DUP1 PUSH4 0x3AA6D208 EQ PUSH2 0x46 JUMPI DUP1 PUSH4 0x694B9D34 EQ PUSH2 0x76 JUMPI DUP1 PUSH4 0x71D3F37A EQ PUSH2 0x94 JUMPI JUMPDEST PUSH1 0x0 DUP1 REVERT JUMPDEST PUSH2 0x60 PUSH1 0x4 DUP1 CALLDATASIZE SUB DUP2 ADD SWAP1 PUSH2 0x5B SWAP2 SWAP1 PUSH2 0x28D JUMP JUMPDEST PUSH2 0xC4 JUMP JUMPDEST PUSH1 0x40 MLOAD PUSH2 0x6D SWAP2 SWAP1 PUSH2 0x457 JUMP JUMPDEST PUSH1 0x40 MLOAD DUP1 SWAP2 SUB SWAP1 RETURN JUMPDEST PUSH2 0x7E PUSH2 0x112 JUMP JUMPDEST PUSH1 0x40 MLOAD PUSH2 0x8B SWAP2 SWAP1 PUSH2 0x457 JUMP JUMPDEST PUSH1 0x40 MLOAD DUP1 SWAP2 SUB SWAP1 RETURN JUMPDEST PUSH2 0xAE PUSH1 0x4 DUP1 CALLDATASIZE SUB DUP2 ADD SWAP1 PUSH2 0xA9 SWAP2 SWAP1 PUSH2 0x24C JUMP JUMPDEST PUSH2 0x118 JUMP JUMPDEST PUSH1 0x40 MLOAD PUSH2 0xBB SWAP2 SWAP1 PUSH2 0x3F5 JUMP JUMPDEST PUSH1 0x40 MLOAD DUP1 SWAP2 SUB SWAP1 RETURN JUMPDEST PUSH1 0x0 PUSH1 0x5 PUSH1 0x1 SLOAD ADD TIMESTAMP GT PUSH2 0x10D JUMPI PUSH1 0x40 MLOAD PUSH32 0x8C379A000000000000000000000000000000000000000000000000000000000 DUP2 MSTORE PUSH1 0x4 ADD PUSH2 0x104 SWAP1 PUSH2 0x437 JUMP JUMPDEST PUSH1 0x40 MLOAD DUP1 SWAP2 SUB SWAP1 REVERT JUMPDEST SWAP2 SWAP1 POP JUMP JUMPDEST PUSH1 0x0 SLOAD DUP2 JUMP JUMPDEST PUSH1 0x60 PUSH1 0x40 MLOAD PUSH1 0x20 ADD PUSH2 0x129 SWAP1 PUSH2 0x3E0 JUMP JUMPDEST PUSH1 0x40 MLOAD PUSH1 0x20 DUP2 DUP4 SUB SUB DUP2 MSTORE SWAP1 PUSH1 0x40 MSTORE DUP1 MLOAD SWAP1 PUSH1 0x20 ADD KECCAK256 DUP3 PUSH1 0x40 MLOAD PUSH1 0x20 ADD PUSH2 0x150 SWAP2 SWAP1 PUSH2 0x3C9 JUMP JUMPDEST PUSH1 0x40 MLOAD PUSH1 0x20 DUP2 DUP4 SUB SUB DUP2 MSTORE SWAP1 PUSH1 0x40 MSTORE DUP1 MLOAD SWAP1 PUSH1 0x20 ADD KECCAK256 EQ PUSH2 0x1A6 JUMPI PUSH1 0x40 MLOAD PUSH32 0x8C379A000000000000000000000000000000000000000000000000000000000 DUP2 MSTORE PUSH1 0x4 ADD PUSH2 0x19D SWAP1 PUSH2 0x417 JUMP JUMPDEST PUSH1 0x40 MLOAD DUP1 SWAP2 SUB SWAP1 REVERT JUMPDEST PUSH1 0x40 MLOAD DUP1 PUSH1 0x40 ADD PUSH1 0x40 MSTORE DUP1 PUSH1 0x14 DUP2 MSTORE PUSH1 0x20 ADD PUSH32 0x436F6E7472617365C3B16120436F727265637461000000000000000000000000 DUP2 MSTORE POP SWAP1 POP SWAP2 SWAP1 POP JUMP JUMPDEST PUSH1 0x0 DUP3 PUSH1 0x1F DUP4 ADD SLT PUSH2 0x1F4 JUMPI PUSH1 0x0 DUP1 REVERT JUMPDEST DUP2 CALLDATALOAD PUSH2 0x207 PUSH2 0x202 DUP3 PUSH2 0x49F JUMP JUMPDEST PUSH2 0x472 JUMP JUMPDEST SWAP2 POP DUP1 DUP3 MSTORE PUSH1 0x20 DUP4 ADD PUSH1 0x20 DUP4 ADD DUP6 DUP4 DUP4 ADD GT ISZERO PUSH2 0x223 JUMPI PUSH1 0x0 DUP1 REVERT JUMPDEST PUSH2 0x22E DUP4 DUP3 DUP5 PUSH2 0x4FC JUMP JUMPDEST POP POP POP SWAP3 SWAP2 POP POP JUMP JUMPDEST PUSH1 0x0 DUP2 CALLDATALOAD SWAP1 POP PUSH2 0x246 DUP2 PUSH2 0x54F JUMP JUMPDEST SWAP3 SWAP2 POP POP JUMP JUMPDEST PUSH1 0x0 PUSH1 0x20 DUP3 DUP5 SUB SLT ISZERO PUSH2 0x25E JUMPI PUSH1 0x0 DUP1 REVERT JUMPDEST PUSH1 0x0 DUP3 ADD CALLDATALOAD PUSH8 0xFFFFFFFFFFFFFFFF DUP2 GT ISZERO PUSH2 0x278 JUMPI PUSH1 0x0 DUP1 REVERT JUMPDEST PUSH2 0x284 DUP5 DUP3 DUP6 ADD PUSH2 0x1E3 JUMP JUMPDEST SWAP2 POP POP SWAP3 SWAP2 POP POP JUMP JUMPDEST PUSH1 0x0 PUSH1 0x20 DUP3 DUP5 SUB SLT ISZERO PUSH2 0x29F JUMPI PUSH1 0x0 DUP1 REVERT JUMPDEST PUSH1 0x0 PUSH2 0x2AD DUP5 DUP3 DUP6 ADD PUSH2 0x237 JUMP JUMPDEST SWAP2 POP POP SWAP3 SWAP2 POP POP JUMP JUMPDEST PUSH1 0x0 PUSH2 0x2C1 DUP3 PUSH2 0x4CB JUMP JUMPDEST PUSH2 0x2CB DUP2 DUP6 PUSH2 0x4D6 JUMP JUMPDEST SWAP4 POP PUSH2 0x2DB DUP2 DUP6 PUSH1 0x20 DUP7 ADD PUSH2 0x50B JUMP JUMPDEST PUSH2 0x2E4 DUP2 PUSH2 0x53E JUMP JUMPDEST DUP5 ADD SWAP2 POP POP SWAP3 SWAP2 POP POP JUMP JUMPDEST PUSH1 0x0 PUSH2 0x2FA DUP3 PUSH2 0x4CB JUMP JUMPDEST PUSH2 0x304 DUP2 DUP6 PUSH2 0x4E7 JUMP JUMPDEST SWAP4 POP PUSH2 0x314 DUP2 DUP6 PUSH1 0x20 DUP7 ADD PUSH2 0x50B JUMP JUMPDEST DUP1 DUP5 ADD SWAP2 POP POP SWAP3 SWAP2 POP POP JUMP JUMPDEST PUSH1 0x0 PUSH2 0x32D PUSH1 0x16 DUP4 PUSH2 0x4D6 JUMP JUMPDEST SWAP2 POP PUSH32 0x436F6E7472617365C3B16120696E636F72726563746100000000000000000000 PUSH1 0x0 DUP4 ADD MSTORE PUSH1 0x20 DUP3 ADD SWAP1 POP SWAP2 SWAP1 POP JUMP JUMPDEST PUSH1 0x0 PUSH2 0x36D PUSH1 0x0 DUP4 PUSH2 0x4D6 JUMP JUMPDEST SWAP2 POP PUSH1 0x0 DUP3 ADD SWAP1 POP SWAP2 SWAP1 POP JUMP JUMPDEST PUSH1 0x0 PUSH2 0x387 PUSH1 0x6 DUP4 PUSH2 0x4E7 JUMP JUMPDEST SWAP2 POP PUSH32 0x3132333435360000000000000000000000000000000000000000000000000000 PUSH1 0x0 DUP4 ADD MSTORE PUSH1 0x6 DUP3 ADD SWAP1 POP SWAP2 SWAP1 POP JUMP JUMPDEST PUSH2 0x3C3 DUP2 PUSH2 0x4F2 JUMP JUMPDEST DUP3 MSTORE POP POP JUMP JUMPDEST PUSH1 0x0 PUSH2 0x3D5 DUP3 DUP5 PUSH2 0x2EF JUMP JUMPDEST SWAP2 POP DUP2 SWAP1 POP SWAP3 SWAP2 POP POP JUMP JUMPDEST PUSH1 0x0 PUSH2 0x3EB DUP3 PUSH2 0x37A JUMP JUMPDEST SWAP2 POP DUP2 SWAP1 POP SWAP2 SWAP1 POP JUMP JUMPDEST PUSH1 0x0 PUSH1 0x20 DUP3 ADD SWAP1 POP DUP2 DUP2 SUB PUSH1 0x0 DUP4 ADD MSTORE PUSH2 0x40F DUP2 DUP5 PUSH2 0x2B6 JUMP JUMPDEST SWAP1 POP SWAP3 SWAP2 POP POP JUMP JUMPDEST PUSH1 0x0 PUSH1 0x20 DUP3 ADD SWAP1 POP DUP2 DUP2 SUB PUSH1 0x0 DUP4 ADD MSTORE PUSH2 0x430 DUP2 PUSH2 0x320 JUMP JUMPDEST SWAP1 POP SWAP2 SWAP1 POP JUMP JUMPDEST PUSH1 0x0 PUSH1 0x20 DUP3 ADD SWAP1 POP DUP2 DUP2 SUB PUSH1 0x0 DUP4 ADD MSTORE PUSH2 0x450 DUP2 PUSH2 0x360 JUMP JUMPDEST SWAP1 POP SWAP2 SWAP1 POP JUMP JUMPDEST PUSH1 0x0 PUSH1 0x20 DUP3 ADD SWAP1 POP PUSH2 0x46C PUSH1 0x0 DUP4 ADD DUP5 PUSH2 0x3BA JUMP JUMPDEST SWAP3 SWAP2 POP POP JUMP JUMPDEST PUSH1 0x0 PUSH1 0x40 MLOAD SWAP1 POP DUP2 DUP2 ADD DUP2 DUP2 LT PUSH8 0xFFFFFFFFFFFFFFFF DUP3 GT OR ISZERO PUSH2 0x495 JUMPI PUSH1 0x0 DUP1 REVERT JUMPDEST DUP1 PUSH1 0x40 MSTORE POP SWAP2 SWAP1 POP JUMP JUMPDEST PUSH1 0x0 PUSH8 0xFFFFFFFFFFFFFFFF DUP3 GT ISZERO PUSH2 0x4B6 JUMPI PUSH1 0x0 DUP1 REVERT JUMPDEST PUSH1 0x1F NOT PUSH1 0x1F DUP4 ADD AND SWAP1 POP PUSH1 0x20 DUP2 ADD SWAP1 POP SWAP2 SWAP1 POP JUMP JUMPDEST PUSH1 0x0 DUP2 MLOAD SWAP1 POP SWAP2 SWAP1 POP JUMP JUMPDEST PUSH1 0x0 DUP3 DUP3 MSTORE PUSH1 0x20 DUP3 ADD SWAP1 POP SWAP3 SWAP2 POP POP JUMP JUMPDEST PUSH1 0x0 DUP2 SWAP1 POP SWAP3 SWAP2 POP POP JUMP JUMPDEST PUSH1 0x0 DUP2 SWAP1 POP SWAP2 SWAP1 POP JUMP JUMPDEST DUP3 DUP2 DUP4 CALLDATACOPY PUSH1 0x0 DUP4 DUP4 ADD MSTORE POP POP POP JUMP JUMPDEST PUSH1 0x0 JUMPDEST DUP4 DUP2 LT ISZERO PUSH2 0x529 JUMPI DUP1 DUP3 ADD MLOAD DUP2 DUP5 ADD MSTORE PUSH1 0x20 DUP2 ADD SWAP1 POP PUSH2 0x50E JUMP JUMPDEST DUP4 DUP2 GT ISZERO PUSH2 0x538 JUMPI PUSH1 0x0 DUP5 DUP5 ADD MSTORE JUMPDEST POP POP POP POP JUMP JUMPDEST PUSH1 0x0 PUSH1 0x1F NOT PUSH1 0x1F DUP4 ADD AND SWAP1 POP SWAP2 SWAP1 POP JUMP JUMPDEST PUSH2 0x558 DUP2 PUSH2 0x4F2 JUMP JUMPDEST DUP2 EQ PUSH2 0x563 JUMPI PUSH1 0x0 DUP1 REVERT JUMPDEST POP JUMP INVALID LOG2 PUSH5 0x6970667358 0x22 SLT KECCAK256 CREATE 0x26 ADD CALLCODE CALL SSTORE PUSH4 0xF1FF4F0C DUP6 0xB7 LOG1 0xF7 0xB8 SLOAD 0xF 0x2F PUSH2 0x18C0 DUP2 0xAE SWAP10 DIV SSTORE 0xB1 DIFFICULTY PUSH15 0x3B8464736F6C634300060500330000 "
				},
				"gasEstimates": {
					"creation": {
						"codeDepositCost": "287200",
						"executionCost": "10336",
						"totalCost": "297536"
					},
					"external": {
						"cartera()": "1129",
						"pagar(uint256)": "infinite",
						"password(string)": "infinite"
					}
				},
				"methodIdentifiers": {
					"cartera()": "694b9d34",
					"pagar(uint256)": "3aa6d208",
					"password(string)": "71d3f37a"
				}
			},
			"storageLayout": {
				"storage": [
					{
						"astId": 33,
						"contract": "Funciones avanzadas/require.sol:Require",
						"label": "cartera",
						"offset": 0,
						"slot": "0",
						"type": "t_uint256"
					},
					{
						"astId": 36,
						"contract": "Funciones avanzadas/require.sol:Require",
						"label": "tiempo",
						"offset": 0,
						"slot": "1",
						"type": "t_uint256"
					}
				],
				"types": {
					"t_uint256": {
						"encoding": "inplace",
						"label": "uint256",
						"numberOfBytes": "32"
					}
				}
			},
			"userdoc": {
				"methods": {}
			}
		}
	}
}