{
	"Funciones/funciones.sol": {
		"Funciones": {
			"abi": [
				{
					"inputs": [
						{
							"internalType": "string",
							"name": "",
							"type": "string"
						}
					],
					"name": "alumno_hash",
					"outputs": [
						{
							"internalType": "bytes32",
							"name": "",
							"type": "bytes32"
						}
					],
					"stateMutability": "view",
					"type": "function"
				},
				{
					"inputs": [
						{
							"internalType": "uint256",
							"name": "",
							"type": "uint256"
						}
					],
					"name": "alumnos",
					"outputs": [
						{
							"internalType": "uint256",
							"name": "id",
							"type": "uint256"
						},
						{
							"internalType": "string",
							"name": "nombre",
							"type": "string"
						},
						{
							"internalType": "address",
							"name": "direccion",
							"type": "address"
						},
						{
							"internalType": "uint256",
							"name": "edad",
							"type": "uint256"
						}
					],
					"stateMutability": "view",
					"type": "function"
				},
				{
					"inputs": [
						{
							"internalType": "string",
							"name": "_datos",
							"type": "string"
						}
					],
					"name": "calularHash",
					"outputs": [],
					"stateMutability": "nonpayable",
					"type": "function"
				},
				{
					"inputs": [
						{
							"internalType": "string",
							"name": "_ingredientes",
							"type": "string"
						}
					],
					"name": "crearHamburguesa",
					"outputs": [],
					"stateMutability": "nonpayable",
					"type": "function"
				},
				{
					"inputs": [
						{
							"internalType": "uint256",
							"name": "",
							"type": "uint256"
						}
					],
					"name": "direcciones",
					"outputs": [
						{
							"internalType": "address",
							"name": "",
							"type": "address"
						}
					],
					"stateMutability": "view",
					"type": "function"
				},
				{
					"inputs": [],
					"name": "hamburguesa",
					"outputs": [
						{
							"internalType": "uint256",
							"name": "id",
							"type": "uint256"
						},
						{
							"internalType": "string",
							"name": "nombre",
							"type": "string"
						},
						{
							"internalType": "string",
							"name": "ingredientes",
							"type": "string"
						}
					],
					"stateMutability": "view",
					"type": "function"
				},
				{
					"inputs": [],
					"name": "hash",
					"outputs": [
						{
							"internalType": "bytes32",
							"name": "",
							"type": "bytes32"
						}
					],
					"stateMutability": "view",
					"type": "function"
				},
				{
					"inputs": [],
					"name": "hash_id_alumno",
					"outputs": [
						{
							"internalType": "bytes32",
							"name": "",
							"type": "bytes32"
						}
					],
					"stateMutability": "view",
					"type": "function"
				},
				{
					"inputs": [],
					"name": "nuevaDireccion",
					"outputs": [],
					"stateMutability": "nonpayable",
					"type": "function"
				},
				{
					"inputs": [
						{
							"internalType": "uint256",
							"name": "_id",
							"type": "uint256"
						},
						{
							"internalType": "string",
							"name": "_nombre",
							"type": "string"
						},
						{
							"internalType": "uint256",
							"name": "_edad",
							"type": "uint256"
						}
					],
					"name": "nuevoAlumno",
					"outputs": [],
					"stateMutability": "nonpayable",
					"type": "function"
				}
			],
			"devdoc": {
				"kind": "dev",
				"methods": {},
				"version": 1
			},
			"evm": {
				"assembly": "    /* \"Funciones/funciones.sol\":105:1471  contract Funciones{... */\n  mstore(0x40, 0x80)\n  callvalue\n  dup1\n  iszero\n  tag_1\n  jumpi\n  0x00\n  dup1\n  revert\ntag_1:\n  pop\n  dataSize(sub_0)\n  dup1\n  dataOffset(sub_0)\n  0x00\n  codecopy\n  0x00\n  return\nstop\n\nsub_0: assembly {\n        /* \"Funciones/funciones.sol\":105:1471  contract Funciones{... */\n      mstore(0x40, 0x80)\n      callvalue\n      dup1\n      iszero\n      tag_1\n      jumpi\n      0x00\n      dup1\n      revert\n    tag_1:\n      pop\n      jumpi(tag_2, lt(calldatasize, 0x04))\n      shr(0xe0, calldataload(0x00))\n      dup1\n      0x9e26bc4f\n      gt\n      tag_13\n      jumpi\n      dup1\n      0x9e26bc4f\n      eq\n      tag_8\n      jumpi\n      dup1\n      0xa7469ee3\n      eq\n      tag_9\n      jumpi\n      dup1\n      0xb4f57473\n      eq\n      tag_10\n      jumpi\n      dup1\n      0xc74efaef\n      eq\n      tag_11\n      jumpi\n      dup1\n      0xdd1eb06b\n      eq\n      tag_12\n      jumpi\n      jump(tag_2)\n    tag_13:\n      dup1\n      0x09bd5a60\n      eq\n      tag_3\n      jumpi\n      dup1\n      0x33c83dbd\n      eq\n      tag_4\n      jumpi\n      dup1\n      0x42d73314\n      eq\n      tag_5\n      jumpi\n      dup1\n      0x547cbcad\n      eq\n      tag_6\n      jumpi\n      dup1\n      0x69ddcade\n      eq\n      tag_7\n      jumpi\n    tag_2:\n      0x00\n      dup1\n      revert\n        /* \"Funciones/funciones.sol\":361:380  bytes32 public hash */\n    tag_3:\n      tag_14\n      tag_15\n      jump\t// in\n    tag_14:\n      mload(0x40)\n      tag_16\n      swap2\n      swap1\n      tag_17\n      jump\t// in\n    tag_16:\n      mload(0x40)\n      dup1\n      swap2\n      sub\n      swap1\n      return\n        /* \"Funciones/funciones.sol\":646:778  function crearHamburguesa(string memory _ingredientes) public {... */\n    tag_4:\n      tag_18\n      0x04\n      dup1\n      calldatasize\n      sub\n      dup2\n      add\n      swap1\n      tag_19\n      swap2\n      swap1\n      tag_20\n      jump\t// in\n    tag_19:\n      tag_21\n      jump\t// in\n    tag_18:\n      stop\n        /* \"Funciones/funciones.sol\":274:353  function nuevaDireccion() public{... */\n    tag_5:\n      tag_22\n      tag_23\n      jump\t// in\n    tag_22:\n      stop\n        /* \"Funciones/funciones.sol\":236:265  address [] public direcciones */\n    tag_6:\n      tag_24\n      0x04\n      dup1\n      calldatasize\n      sub\n      dup2\n      add\n      swap1\n      tag_25\n      swap2\n      swap1\n      tag_26\n      jump\t// in\n    tag_25:\n      tag_27\n      jump\t// in\n    tag_24:\n      mload(0x40)\n      tag_28\n      swap2\n      swap1\n      tag_29\n      jump\t// in\n    tag_28:\n      mload(0x40)\n      dup1\n      swap2\n      sub\n      swap1\n      return\n        /* \"Funciones/funciones.sol\":941:965  Alumno [] public alumnos */\n    tag_7:\n      tag_30\n      0x04\n      dup1\n      calldatasize\n      sub\n      dup2\n      add\n      swap1\n      tag_31\n      swap2\n      swap1\n      tag_26\n      jump\t// in\n    tag_31:\n      tag_32\n      jump\t// in\n    tag_30:\n      mload(0x40)\n      tag_33\n      swap5\n      swap4\n      swap3\n      swap2\n      swap1\n      tag_34\n      jump\t// in\n    tag_33:\n      mload(0x40)\n      dup1\n      swap2\n      sub\n      swap1\n      return\n        /* \"Funciones/funciones.sol\":1027:1269  function nuevoAlumno(uint _id, string memory _nombre, uint _edad )public{... */\n    tag_8:\n      tag_35\n      0x04\n      dup1\n      calldatasize\n      sub\n      dup2\n      add\n      swap1\n      tag_36\n      swap2\n      swap1\n      tag_37\n      jump\t// in\n    tag_36:\n      tag_38\n      jump\t// in\n    tag_35:\n      stop\n        /* \"Funciones/funciones.sol\":389:502  function calularHash(string memory _datos) public {... */\n    tag_9:\n      tag_39\n      0x04\n      dup1\n      calldatasize\n      sub\n      dup2\n      add\n      swap1\n      tag_40\n      swap2\n      swap1\n      tag_20\n      jump\t// in\n    tag_40:\n      tag_41\n      jump\t// in\n    tag_39:\n      stop\n        /* \"Funciones/funciones.sol\":905:934  bytes32 public hash_id_alumno */\n    tag_10:\n      tag_42\n      tag_43\n      jump\t// in\n    tag_42:\n      mload(0x40)\n      tag_44\n      swap2\n      swap1\n      tag_17\n      jump\t// in\n    tag_44:\n      mload(0x40)\n      dup1\n      swap2\n      sub\n      swap1\n      return\n        /* \"Funciones/funciones.sol\":612:637  Comida public hamburguesa */\n    tag_11:\n      tag_45\n      tag_46\n      jump\t// in\n    tag_45:\n      mload(0x40)\n      tag_47\n      swap4\n      swap3\n      swap2\n      swap1\n      tag_48\n      jump\t// in\n    tag_47:\n      mload(0x40)\n      dup1\n      swap2\n      sub\n      swap1\n      return\n        /* \"Funciones/funciones.sol\":972:1018  mapping( string => bytes32) public alumno_hash */\n    tag_12:\n      tag_49\n      0x04\n      dup1\n      calldatasize\n      sub\n      dup2\n      add\n      swap1\n      tag_50\n      swap2\n      swap1\n      tag_20\n      jump\t// in\n    tag_50:\n      tag_51\n      jump\t// in\n    tag_49:\n      mload(0x40)\n      tag_52\n      swap2\n      swap1\n      tag_17\n      jump\t// in\n    tag_52:\n      mload(0x40)\n      dup1\n      swap2\n      sub\n      swap1\n      return\n        /* \"Funciones/funciones.sol\":361:380  bytes32 public hash */\n    tag_15:\n      sload(0x01)\n      dup2\n      jump\t// out\n        /* \"Funciones/funciones.sol\":646:778  function crearHamburguesa(string memory _ingredientes) public {... */\n    tag_21:\n        /* \"Funciones/funciones.sol\":733:770  Comida(1,\"Hamburguesa\",_ingredientes) */\n      mload(0x40)\n      dup1\n      0x60\n      add\n      0x40\n      mstore\n      dup1\n        /* \"Funciones/funciones.sol\":740:741  1 */\n      0x01\n        /* \"Funciones/funciones.sol\":733:770  Comida(1,\"Hamburguesa\",_ingredientes) */\n      dup2\n      mstore\n      0x20\n      add\n      mload(0x40)\n      dup1\n      0x40\n      add\n      0x40\n      mstore\n      dup1\n      0x0b\n      dup2\n      mstore\n      0x20\n      add\n      0x48616d6275726775657361000000000000000000000000000000000000000000\n      dup2\n      mstore\n      pop\n      dup2\n      mstore\n      0x20\n      add\n        /* \"Funciones/funciones.sol\":756:769  _ingredientes */\n      dup3\n        /* \"Funciones/funciones.sol\":733:770  Comida(1,\"Hamburguesa\",_ingredientes) */\n      dup2\n      mstore\n      pop\n        /* \"Funciones/funciones.sol\":719:730  hamburguesa */\n      0x02\n        /* \"Funciones/funciones.sol\":719:770  hamburguesa = Comida(1,\"Hamburguesa\",_ingredientes) */\n      0x00\n      dup3\n      add\n      mload\n      dup2\n      0x00\n      add\n      sstore\n      0x20\n      dup3\n      add\n      mload\n      dup2\n      0x01\n      add\n      swap1\n      dup1\n      mload\n      swap1\n      0x20\n      add\n      swap1\n      tag_54\n      swap3\n      swap2\n      swap1\n      tag_55\n      jump\t// in\n    tag_54:\n      pop\n      0x40\n      dup3\n      add\n      mload\n      dup2\n      0x02\n      add\n      swap1\n      dup1\n      mload\n      swap1\n      0x20\n      add\n      swap1\n      tag_56\n      swap3\n      swap2\n      swap1\n      tag_55\n      jump\t// in\n    tag_56:\n      pop\n      swap1\n      pop\n      pop\n        /* \"Funciones/funciones.sol\":646:778  function crearHamburguesa(string memory _ingredientes) public {... */\n      pop\n      jump\t// out\n        /* \"Funciones/funciones.sol\":274:353  function nuevaDireccion() public{... */\n    tag_23:\n        /* \"Funciones/funciones.sol\":317:328  direcciones */\n      0x00\n        /* \"Funciones/funciones.sol\":334:344  msg.sender */\n      caller\n        /* \"Funciones/funciones.sol\":317:345  direcciones.push(msg.sender) */\n      swap1\n      dup1\n      0x01\n      dup2\n      sload\n      add\n      dup1\n      dup3\n      sstore\n      dup1\n      swap2\n      pop\n      pop\n      0x01\n      swap1\n      sub\n      swap1\n      0x00\n      mstore\n      keccak256(0x00, 0x20)\n      add\n      0x00\n      swap1\n      swap2\n      swap1\n      swap2\n      swap1\n      swap2\n      0x0100\n      exp\n      dup2\n      sload\n      dup2\n      0xffffffffffffffffffffffffffffffffffffffff\n      mul\n      not\n      and\n      swap1\n      dup4\n      0xffffffffffffffffffffffffffffffffffffffff\n      and\n      mul\n      or\n      swap1\n      sstore\n      pop\n        /* \"Funciones/funciones.sol\":274:353  function nuevaDireccion() public{... */\n      jump\t// out\n        /* \"Funciones/funciones.sol\":236:265  address [] public direcciones */\n    tag_27:\n      0x00\n      dup2\n      dup2\n      sload\n      dup2\n      lt\n      tag_59\n      jumpi\n      0x00\n      dup1\n      revert\n    tag_59:\n      swap1\n      0x00\n      mstore\n      keccak256(0x00, 0x20)\n      add\n      0x00\n      swap2\n      pop\n      sload\n      swap1\n      0x0100\n      exp\n      swap1\n      div\n      0xffffffffffffffffffffffffffffffffffffffff\n      and\n      dup2\n      jump\t// out\n        /* \"Funciones/funciones.sol\":941:965  Alumno [] public alumnos */\n    tag_32:\n      0x06\n      dup2\n      dup2\n      sload\n      dup2\n      lt\n      tag_61\n      jumpi\n      0x00\n      dup1\n      revert\n    tag_61:\n      swap1\n      0x00\n      mstore\n      keccak256(0x00, 0x20)\n      swap1\n      0x04\n      mul\n      add\n      0x00\n      swap2\n      pop\n      swap1\n      pop\n      dup1\n      0x00\n      add\n      sload\n      swap1\n      dup1\n      0x01\n      add\n      dup1\n      sload\n      tag_63\n      swap1\n      tag_64\n      jump\t// in\n    tag_63:\n      dup1\n      0x1f\n      add\n      0x20\n      dup1\n      swap2\n      div\n      mul\n      0x20\n      add\n      mload(0x40)\n      swap1\n      dup2\n      add\n      0x40\n      mstore\n      dup1\n      swap3\n      swap2\n      swap1\n      dup2\n      dup2\n      mstore\n      0x20\n      add\n      dup3\n      dup1\n      sload\n      tag_65\n      swap1\n      tag_64\n      jump\t// in\n    tag_65:\n      dup1\n      iszero\n      tag_66\n      jumpi\n      dup1\n      0x1f\n      lt\n      tag_67\n      jumpi\n      0x0100\n      dup1\n      dup4\n      sload\n      div\n      mul\n      dup4\n      mstore\n      swap2\n      0x20\n      add\n      swap2\n      jump(tag_66)\n    tag_67:\n      dup3\n      add\n      swap2\n      swap1\n      0x00\n      mstore\n      keccak256(0x00, 0x20)\n      swap1\n    tag_68:\n      dup2\n      sload\n      dup2\n      mstore\n      swap1\n      0x01\n      add\n      swap1\n      0x20\n      add\n      dup1\n      dup4\n      gt\n      tag_68\n      jumpi\n      dup3\n      swap1\n      sub\n      0x1f\n      and\n      dup3\n      add\n      swap2\n    tag_66:\n      pop\n      pop\n      pop\n      pop\n      pop\n      swap1\n      dup1\n      0x02\n      add\n      0x00\n      swap1\n      sload\n      swap1\n      0x0100\n      exp\n      swap1\n      div\n      0xffffffffffffffffffffffffffffffffffffffff\n      and\n      swap1\n      dup1\n      0x03\n      add\n      sload\n      swap1\n      pop\n      dup5\n      jump\t// out\n        /* \"Funciones/funciones.sol\":1027:1269  function nuevoAlumno(uint _id, string memory _nombre, uint _edad )public{... */\n    tag_38:\n        /* \"Funciones/funciones.sol\":1110:1117  alumnos */\n      0x06\n        /* \"Funciones/funciones.sol\":1123:1159  Alumno(_id,_nombre,msg.sender,_edad) */\n      mload(0x40)\n      dup1\n      0x80\n      add\n      0x40\n      mstore\n      dup1\n        /* \"Funciones/funciones.sol\":1130:1133  _id */\n      dup6\n        /* \"Funciones/funciones.sol\":1123:1159  Alumno(_id,_nombre,msg.sender,_edad) */\n      dup2\n      mstore\n      0x20\n      add\n        /* \"Funciones/funciones.sol\":1134:1141  _nombre */\n      dup5\n        /* \"Funciones/funciones.sol\":1123:1159  Alumno(_id,_nombre,msg.sender,_edad) */\n      dup2\n      mstore\n      0x20\n      add\n        /* \"Funciones/funciones.sol\":1142:1152  msg.sender */\n      caller\n        /* \"Funciones/funciones.sol\":1123:1159  Alumno(_id,_nombre,msg.sender,_edad) */\n      0xffffffffffffffffffffffffffffffffffffffff\n      and\n      dup2\n      mstore\n      0x20\n      add\n        /* \"Funciones/funciones.sol\":1153:1158  _edad */\n      dup4\n        /* \"Funciones/funciones.sol\":1123:1159  Alumno(_id,_nombre,msg.sender,_edad) */\n      dup2\n      mstore\n      pop\n        /* \"Funciones/funciones.sol\":1110:1160  alumnos.push(Alumno(_id,_nombre,msg.sender,_edad)) */\n      swap1\n      dup1\n      0x01\n      dup2\n      sload\n      add\n      dup1\n      dup3\n      sstore\n      dup1\n      swap2\n      pop\n      pop\n      0x01\n      swap1\n      sub\n      swap1\n      0x00\n      mstore\n      keccak256(0x00, 0x20)\n      swap1\n      0x04\n      mul\n      add\n      0x00\n      swap1\n      swap2\n      swap1\n      swap2\n      swap1\n      swap2\n      pop\n      0x00\n      dup3\n      add\n      mload\n      dup2\n      0x00\n      add\n      sstore\n      0x20\n      dup3\n      add\n      mload\n      dup2\n      0x01\n      add\n      swap1\n      dup1\n      mload\n      swap1\n      0x20\n      add\n      swap1\n      tag_71\n      swap3\n      swap2\n      swap1\n      tag_55\n      jump\t// in\n    tag_71:\n      pop\n      0x40\n      dup3\n      add\n      mload\n      dup2\n      0x02\n      add\n      exp(0x0100, 0x00)\n      dup2\n      sload\n      dup2\n      0xffffffffffffffffffffffffffffffffffffffff\n      mul\n      not\n      and\n      swap1\n      dup4\n      0xffffffffffffffffffffffffffffffffffffffff\n      and\n      mul\n      or\n      swap1\n      sstore\n      pop\n      0x60\n      dup3\n      add\n      mload\n      dup2\n      0x03\n      add\n      sstore\n      pop\n      pop\n        /* \"Funciones/funciones.sol\":1171:1213  hashIdAlumno(_id,_nombre,msg.sender,_edad) */\n      tag_72\n        /* \"Funciones/funciones.sol\":1184:1187  _id */\n      dup4\n        /* \"Funciones/funciones.sol\":1188:1195  _nombre */\n      dup4\n        /* \"Funciones/funciones.sol\":1196:1206  msg.sender */\n      caller\n        /* \"Funciones/funciones.sol\":1207:1212  _edad */\n      dup5\n        /* \"Funciones/funciones.sol\":1171:1183  hashIdAlumno */\n      tag_73\n        /* \"Funciones/funciones.sol\":1171:1213  hashIdAlumno(_id,_nombre,msg.sender,_edad) */\n      jump\t// in\n    tag_72:\n        /* \"Funciones/funciones.sol\":1247:1261  hash_id_alumno */\n      sload(0x05)\n        /* \"Funciones/funciones.sol\":1224:1235  alumno_hash */\n      0x07\n        /* \"Funciones/funciones.sol\":1236:1243  _nombre */\n      dup4\n        /* \"Funciones/funciones.sol\":1224:1244  alumno_hash[_nombre] */\n      mload(0x40)\n      tag_74\n      swap2\n      swap1\n      tag_75\n      jump\t// in\n    tag_74:\n      swap1\n      dup2\n      mstore\n      0x20\n      add\n      mload(0x40)\n      dup1\n      swap2\n      sub\n      swap1\n      keccak256\n        /* \"Funciones/funciones.sol\":1224:1261  alumno_hash[_nombre] = hash_id_alumno */\n      dup2\n      swap1\n      sstore\n      pop\n        /* \"Funciones/funciones.sol\":1027:1269  function nuevoAlumno(uint _id, string memory _nombre, uint _edad )public{... */\n      pop\n      pop\n      pop\n      jump\t// out\n        /* \"Funciones/funciones.sol\":389:502  function calularHash(string memory _datos) public {... */\n    tag_41:\n        /* \"Funciones/funciones.sol\":484:490  _datos */\n      dup1\n        /* \"Funciones/funciones.sol\":467:491  abi.encodePacked(_datos) */\n      add(0x20, mload(0x40))\n      tag_77\n      swap2\n      swap1\n      tag_75\n      jump\t// in\n    tag_77:\n      mload(0x40)\n      0x20\n      dup2\n      dup4\n      sub\n      sub\n      dup2\n      mstore\n      swap1\n      0x40\n      mstore\n        /* \"Funciones/funciones.sol\":457:492  keccak256(abi.encodePacked(_datos)) */\n      dup1\n      mload\n      swap1\n      0x20\n      add\n      keccak256\n        /* \"Funciones/funciones.sol\":450:454  hash */\n      0x01\n        /* \"Funciones/funciones.sol\":450:492  hash = keccak256(abi.encodePacked(_datos)) */\n      dup2\n      swap1\n      sstore\n      pop\n        /* \"Funciones/funciones.sol\":389:502  function calularHash(string memory _datos) public {... */\n      pop\n      jump\t// out\n        /* \"Funciones/funciones.sol\":905:934  bytes32 public hash_id_alumno */\n    tag_43:\n      sload(0x05)\n      dup2\n      jump\t// out\n        /* \"Funciones/funciones.sol\":612:637  Comida public hamburguesa */\n    tag_46:\n      0x02\n      dup1\n      0x00\n      add\n      sload\n      swap1\n      dup1\n      0x01\n      add\n      dup1\n      sload\n      tag_78\n      swap1\n      tag_64\n      jump\t// in\n    tag_78:\n      dup1\n      0x1f\n      add\n      0x20\n      dup1\n      swap2\n      div\n      mul\n      0x20\n      add\n      mload(0x40)\n      swap1\n      dup2\n      add\n      0x40\n      mstore\n      dup1\n      swap3\n      swap2\n      swap1\n      dup2\n      dup2\n      mstore\n      0x20\n      add\n      dup3\n      dup1\n      sload\n      tag_79\n      swap1\n      tag_64\n      jump\t// in\n    tag_79:\n      dup1\n      iszero\n      tag_80\n      jumpi\n      dup1\n      0x1f\n      lt\n      tag_81\n      jumpi\n      0x0100\n      dup1\n      dup4\n      sload\n      div\n      mul\n      dup4\n      mstore\n      swap2\n      0x20\n      add\n      swap2\n      jump(tag_80)\n    tag_81:\n      dup3\n      add\n      swap2\n      swap1\n      0x00\n      mstore\n      keccak256(0x00, 0x20)\n      swap1\n    tag_82:\n      dup2\n      sload\n      dup2\n      mstore\n      swap1\n      0x01\n      add\n      swap1\n      0x20\n      add\n      dup1\n      dup4\n      gt\n      tag_82\n      jumpi\n      dup3\n      swap1\n      sub\n      0x1f\n      and\n      dup3\n      add\n      swap2\n    tag_80:\n      pop\n      pop\n      pop\n      pop\n      pop\n      swap1\n      dup1\n      0x02\n      add\n      dup1\n      sload\n      tag_83\n      swap1\n      tag_64\n      jump\t// in\n    tag_83:\n      dup1\n      0x1f\n      add\n      0x20\n      dup1\n      swap2\n      div\n      mul\n      0x20\n      add\n      mload(0x40)\n      swap1\n      dup2\n      add\n      0x40\n      mstore\n      dup1\n      swap3\n      swap2\n      swap1\n      dup2\n      dup2\n      mstore\n      0x20\n      add\n      dup3\n      dup1\n      sload\n      tag_84\n      swap1\n      tag_64\n      jump\t// in\n    tag_84:\n      dup1\n      iszero\n      tag_85\n      jumpi\n      dup1\n      0x1f\n      lt\n      tag_86\n      jumpi\n      0x0100\n      dup1\n      dup4\n      sload\n      div\n      mul\n      dup4\n      mstore\n      swap2\n      0x20\n      add\n      swap2\n      jump(tag_85)\n    tag_86:\n      dup3\n      add\n      swap2\n      swap1\n      0x00\n      mstore\n      keccak256(0x00, 0x20)\n      swap1\n    tag_87:\n      dup2\n      sload\n      dup2\n      mstore\n      swap1\n      0x01\n      add\n      swap1\n      0x20\n      add\n      dup1\n      dup4\n      gt\n      tag_87\n      jumpi\n      dup3\n      swap1\n      sub\n      0x1f\n      and\n      dup3\n      add\n      swap2\n    tag_85:\n      pop\n      pop\n      pop\n      pop\n      pop\n      swap1\n      pop\n      dup4\n      jump\t// out\n        /* \"Funciones/funciones.sol\":972:1018  mapping( string => bytes32) public alumno_hash */\n    tag_51:\n      0x07\n      dup2\n      dup1\n      mload\n      0x20\n      dup2\n      add\n      dup3\n      add\n      dup1\n      mload\n      dup5\n      dup3\n      mstore\n      0x20\n      dup4\n      add\n      0x20\n      dup6\n      add\n      keccak256\n      dup2\n      dup4\n      mstore\n      dup1\n      swap6\n      pop\n      pop\n      pop\n      pop\n      pop\n      pop\n      0x00\n      swap2\n      pop\n      swap1\n      pop\n      sload\n      dup2\n      jump\t// out\n        /* \"Funciones/funciones.sol\":1277:1468  function hashIdAlumno(uint _id, string memory _nombre, address _direccion, uint _edad) private {... */\n    tag_73:\n        /* \"Funciones/funciones.sol\":1427:1430  _id */\n      dup4\n        /* \"Funciones/funciones.sol\":1432:1439  _nombre */\n      dup4\n        /* \"Funciones/funciones.sol\":1441:1451  _direccion */\n      dup4\n        /* \"Funciones/funciones.sol\":1453:1458  _edad */\n      dup4\n        /* \"Funciones/funciones.sol\":1410:1459  abi.encodePacked(_id, _nombre, _direccion, _edad) */\n      add(0x20, mload(0x40))\n      tag_89\n      swap5\n      swap4\n      swap3\n      swap2\n      swap1\n      tag_90\n      jump\t// in\n    tag_89:\n      mload(0x40)\n      0x20\n      dup2\n      dup4\n      sub\n      sub\n      dup2\n      mstore\n      swap1\n      0x40\n      mstore\n        /* \"Funciones/funciones.sol\":1400:1460  keccak256(abi.encodePacked(_id, _nombre, _direccion, _edad)) */\n      dup1\n      mload\n      swap1\n      0x20\n      add\n      keccak256\n        /* \"Funciones/funciones.sol\":1383:1397  hash_id_alumno */\n      0x05\n        /* \"Funciones/funciones.sol\":1383:1460  hash_id_alumno = keccak256(abi.encodePacked(_id, _nombre, _direccion, _edad)) */\n      dup2\n      swap1\n      sstore\n      pop\n        /* \"Funciones/funciones.sol\":1277:1468  function hashIdAlumno(uint _id, string memory _nombre, address _direccion, uint _edad) private {... */\n      pop\n      pop\n      pop\n      pop\n      jump\t// out\n    tag_55:\n      dup3\n      dup1\n      sload\n      tag_91\n      swap1\n      tag_64\n      jump\t// in\n    tag_91:\n      swap1\n      0x00\n      mstore\n      keccak256(0x00, 0x20)\n      swap1\n      0x1f\n      add\n      0x20\n      swap1\n      div\n      dup2\n      add\n      swap3\n      dup3\n      tag_93\n      jumpi\n      0x00\n      dup6\n      sstore\n      jump(tag_92)\n    tag_93:\n      dup3\n      0x1f\n      lt\n      tag_94\n      jumpi\n      dup1\n      mload\n      not(0xff)\n      and\n      dup4\n      dup1\n      add\n      or\n      dup6\n      sstore\n      jump(tag_92)\n    tag_94:\n      dup3\n      dup1\n      add\n      0x01\n      add\n      dup6\n      sstore\n      dup3\n      iszero\n      tag_92\n      jumpi\n      swap2\n      dup3\n      add\n    tag_95:\n      dup3\n      dup2\n      gt\n      iszero\n      tag_96\n      jumpi\n      dup3\n      mload\n      dup3\n      sstore\n      swap2\n      0x20\n      add\n      swap2\n      swap1\n      0x01\n      add\n      swap1\n      jump(tag_95)\n    tag_96:\n    tag_92:\n      pop\n      swap1\n      pop\n      tag_97\n      swap2\n      swap1\n      tag_98\n      jump\t// in\n    tag_97:\n      pop\n      swap1\n      jump\t// out\n    tag_98:\n    tag_99:\n      dup1\n      dup3\n      gt\n      iszero\n      tag_100\n      jumpi\n      0x00\n      dup2\n      0x00\n      swap1\n      sstore\n      pop\n      0x01\n      add\n      jump(tag_99)\n    tag_100:\n      pop\n      swap1\n      jump\t// out\n        /* \"#utility.yul\":7:84   */\n    tag_101:\n        /* \"#utility.yul\":44:51   */\n      0x00\n        /* \"#utility.yul\":73:78   */\n      dup2\n        /* \"#utility.yul\":62:78   */\n      swap1\n      pop\n        /* \"#utility.yul\":7:84   */\n      swap2\n      swap1\n      pop\n      jump\t// out\n        /* \"#utility.yul\":90:208   */\n    tag_102:\n        /* \"#utility.yul\":177:201   */\n      tag_139\n        /* \"#utility.yul\":195:200   */\n      dup2\n        /* \"#utility.yul\":177:201   */\n      tag_101\n      jump\t// in\n    tag_139:\n        /* \"#utility.yul\":172:175   */\n      dup3\n        /* \"#utility.yul\":165:202   */\n      mstore\n        /* \"#utility.yul\":90:208   */\n      pop\n      pop\n      jump\t// out\n        /* \"#utility.yul\":214:436   */\n    tag_17:\n        /* \"#utility.yul\":307:311   */\n      0x00\n        /* \"#utility.yul\":345:347   */\n      0x20\n        /* \"#utility.yul\":334:343   */\n      dup3\n        /* \"#utility.yul\":330:348   */\n      add\n        /* \"#utility.yul\":322:348   */\n      swap1\n      pop\n        /* \"#utility.yul\":358:429   */\n      tag_141\n        /* \"#utility.yul\":426:427   */\n      0x00\n        /* \"#utility.yul\":415:424   */\n      dup4\n        /* \"#utility.yul\":411:428   */\n      add\n        /* \"#utility.yul\":402:408   */\n      dup5\n        /* \"#utility.yul\":358:429   */\n      tag_102\n      jump\t// in\n    tag_141:\n        /* \"#utility.yul\":214:436   */\n      swap3\n      swap2\n      pop\n      pop\n      jump\t// out\n        /* \"#utility.yul\":442:517   */\n    tag_103:\n        /* \"#utility.yul\":475:481   */\n      0x00\n        /* \"#utility.yul\":508:510   */\n      0x40\n        /* \"#utility.yul\":502:511   */\n      mload\n        /* \"#utility.yul\":492:511   */\n      swap1\n      pop\n        /* \"#utility.yul\":442:517   */\n      swap1\n      jump\t// out\n        /* \"#utility.yul\":523:640   */\n    tag_104:\n        /* \"#utility.yul\":632:633   */\n      0x00\n        /* \"#utility.yul\":629:630   */\n      dup1\n        /* \"#utility.yul\":622:634   */\n      revert\n        /* \"#utility.yul\":646:763   */\n    tag_105:\n        /* \"#utility.yul\":755:756   */\n      0x00\n        /* \"#utility.yul\":752:753   */\n      dup1\n        /* \"#utility.yul\":745:757   */\n      revert\n        /* \"#utility.yul\":769:886   */\n    tag_106:\n        /* \"#utility.yul\":878:879   */\n      0x00\n        /* \"#utility.yul\":875:876   */\n      dup1\n        /* \"#utility.yul\":868:880   */\n      revert\n        /* \"#utility.yul\":892:1009   */\n    tag_107:\n        /* \"#utility.yul\":1001:1002   */\n      0x00\n        /* \"#utility.yul\":998:999   */\n      dup1\n        /* \"#utility.yul\":991:1003   */\n      revert\n        /* \"#utility.yul\":1015:1117   */\n    tag_108:\n        /* \"#utility.yul\":1056:1062   */\n      0x00\n        /* \"#utility.yul\":1107:1109   */\n      0x1f\n        /* \"#utility.yul\":1103:1110   */\n      not\n        /* \"#utility.yul\":1098:1100   */\n      0x1f\n        /* \"#utility.yul\":1091:1096   */\n      dup4\n        /* \"#utility.yul\":1087:1101   */\n      add\n        /* \"#utility.yul\":1083:1111   */\n      and\n        /* \"#utility.yul\":1073:1111   */\n      swap1\n      pop\n        /* \"#utility.yul\":1015:1117   */\n      swap2\n      swap1\n      pop\n      jump\t// out\n        /* \"#utility.yul\":1123:1303   */\n    tag_109:\n        /* \"#utility.yul\":1171:1248   */\n      0x4e487b7100000000000000000000000000000000000000000000000000000000\n        /* \"#utility.yul\":1168:1169   */\n      0x00\n        /* \"#utility.yul\":1161:1249   */\n      mstore\n        /* \"#utility.yul\":1268:1272   */\n      0x41\n        /* \"#utility.yul\":1265:1266   */\n      0x04\n        /* \"#utility.yul\":1258:1273   */\n      mstore\n        /* \"#utility.yul\":1292:1296   */\n      0x24\n        /* \"#utility.yul\":1289:1290   */\n      0x00\n        /* \"#utility.yul\":1282:1297   */\n      revert\n        /* \"#utility.yul\":1309:1590   */\n    tag_110:\n        /* \"#utility.yul\":1392:1419   */\n      tag_150\n        /* \"#utility.yul\":1414:1418   */\n      dup3\n        /* \"#utility.yul\":1392:1419   */\n      tag_108\n      jump\t// in\n    tag_150:\n        /* \"#utility.yul\":1384:1390   */\n      dup2\n        /* \"#utility.yul\":1380:1420   */\n      add\n        /* \"#utility.yul\":1522:1528   */\n      dup2\n        /* \"#utility.yul\":1510:1520   */\n      dup2\n        /* \"#utility.yul\":1507:1529   */\n      lt\n        /* \"#utility.yul\":1486:1504   */\n      0xffffffffffffffff\n        /* \"#utility.yul\":1474:1484   */\n      dup3\n        /* \"#utility.yul\":1471:1505   */\n      gt\n        /* \"#utility.yul\":1468:1530   */\n      or\n        /* \"#utility.yul\":1465:1553   */\n      iszero\n      tag_151\n      jumpi\n        /* \"#utility.yul\":1533:1551   */\n      tag_152\n      tag_109\n      jump\t// in\n    tag_152:\n        /* \"#utility.yul\":1465:1553   */\n    tag_151:\n        /* \"#utility.yul\":1573:1583   */\n      dup1\n        /* \"#utility.yul\":1569:1571   */\n      0x40\n        /* \"#utility.yul\":1562:1584   */\n      mstore\n        /* \"#utility.yul\":1352:1590   */\n      pop\n        /* \"#utility.yul\":1309:1590   */\n      pop\n      pop\n      jump\t// out\n        /* \"#utility.yul\":1596:1725   */\n    tag_111:\n        /* \"#utility.yul\":1630:1636   */\n      0x00\n        /* \"#utility.yul\":1657:1677   */\n      tag_154\n      tag_103\n      jump\t// in\n    tag_154:\n        /* \"#utility.yul\":1647:1677   */\n      swap1\n      pop\n        /* \"#utility.yul\":1686:1719   */\n      tag_155\n        /* \"#utility.yul\":1714:1718   */\n      dup3\n        /* \"#utility.yul\":1706:1712   */\n      dup3\n        /* \"#utility.yul\":1686:1719   */\n      tag_110\n      jump\t// in\n    tag_155:\n        /* \"#utility.yul\":1596:1725   */\n      swap2\n      swap1\n      pop\n      jump\t// out\n        /* \"#utility.yul\":1731:2039   */\n    tag_112:\n        /* \"#utility.yul\":1793:1797   */\n      0x00\n        /* \"#utility.yul\":1883:1901   */\n      0xffffffffffffffff\n        /* \"#utility.yul\":1875:1881   */\n      dup3\n        /* \"#utility.yul\":1872:1902   */\n      gt\n        /* \"#utility.yul\":1869:1925   */\n      iszero\n      tag_157\n      jumpi\n        /* \"#utility.yul\":1905:1923   */\n      tag_158\n      tag_109\n      jump\t// in\n    tag_158:\n        /* \"#utility.yul\":1869:1925   */\n    tag_157:\n        /* \"#utility.yul\":1943:1972   */\n      tag_159\n        /* \"#utility.yul\":1965:1971   */\n      dup3\n        /* \"#utility.yul\":1943:1972   */\n      tag_108\n      jump\t// in\n    tag_159:\n        /* \"#utility.yul\":1935:1972   */\n      swap1\n      pop\n        /* \"#utility.yul\":2027:2031   */\n      0x20\n        /* \"#utility.yul\":2021:2025   */\n      dup2\n        /* \"#utility.yul\":2017:2032   */\n      add\n        /* \"#utility.yul\":2009:2032   */\n      swap1\n      pop\n        /* \"#utility.yul\":1731:2039   */\n      swap2\n      swap1\n      pop\n      jump\t// out\n        /* \"#utility.yul\":2045:2199   */\n    tag_113:\n        /* \"#utility.yul\":2129:2135   */\n      dup3\n        /* \"#utility.yul\":2124:2127   */\n      dup2\n        /* \"#utility.yul\":2119:2122   */\n      dup4\n        /* \"#utility.yul\":2106:2136   */\n      calldatacopy\n        /* \"#utility.yul\":2191:2192   */\n      0x00\n        /* \"#utility.yul\":2182:2188   */\n      dup4\n        /* \"#utility.yul\":2177:2180   */\n      dup4\n        /* \"#utility.yul\":2173:2189   */\n      add\n        /* \"#utility.yul\":2166:2193   */\n      mstore\n        /* \"#utility.yul\":2045:2199   */\n      pop\n      pop\n      pop\n      jump\t// out\n        /* \"#utility.yul\":2205:2617   */\n    tag_114:\n        /* \"#utility.yul\":2283:2288   */\n      0x00\n        /* \"#utility.yul\":2308:2374   */\n      tag_162\n        /* \"#utility.yul\":2324:2373   */\n      tag_163\n        /* \"#utility.yul\":2366:2372   */\n      dup5\n        /* \"#utility.yul\":2324:2373   */\n      tag_112\n      jump\t// in\n    tag_163:\n        /* \"#utility.yul\":2308:2374   */\n      tag_111\n      jump\t// in\n    tag_162:\n        /* \"#utility.yul\":2299:2374   */\n      swap1\n      pop\n        /* \"#utility.yul\":2397:2403   */\n      dup3\n        /* \"#utility.yul\":2390:2395   */\n      dup2\n        /* \"#utility.yul\":2383:2404   */\n      mstore\n        /* \"#utility.yul\":2435:2439   */\n      0x20\n        /* \"#utility.yul\":2428:2433   */\n      dup2\n        /* \"#utility.yul\":2424:2440   */\n      add\n        /* \"#utility.yul\":2473:2476   */\n      dup5\n        /* \"#utility.yul\":2464:2470   */\n      dup5\n        /* \"#utility.yul\":2459:2462   */\n      dup5\n        /* \"#utility.yul\":2455:2471   */\n      add\n        /* \"#utility.yul\":2452:2477   */\n      gt\n        /* \"#utility.yul\":2449:2561   */\n      iszero\n      tag_164\n      jumpi\n        /* \"#utility.yul\":2480:2559   */\n      tag_165\n      tag_107\n      jump\t// in\n    tag_165:\n        /* \"#utility.yul\":2449:2561   */\n    tag_164:\n        /* \"#utility.yul\":2570:2611   */\n      tag_166\n        /* \"#utility.yul\":2604:2610   */\n      dup5\n        /* \"#utility.yul\":2599:2602   */\n      dup3\n        /* \"#utility.yul\":2594:2597   */\n      dup6\n        /* \"#utility.yul\":2570:2611   */\n      tag_113\n      jump\t// in\n    tag_166:\n        /* \"#utility.yul\":2289:2617   */\n      pop\n        /* \"#utility.yul\":2205:2617   */\n      swap4\n      swap3\n      pop\n      pop\n      pop\n      jump\t// out\n        /* \"#utility.yul\":2637:2977   */\n    tag_115:\n        /* \"#utility.yul\":2693:2698   */\n      0x00\n        /* \"#utility.yul\":2742:2745   */\n      dup3\n        /* \"#utility.yul\":2735:2739   */\n      0x1f\n        /* \"#utility.yul\":2727:2733   */\n      dup4\n        /* \"#utility.yul\":2723:2740   */\n      add\n        /* \"#utility.yul\":2719:2746   */\n      slt\n        /* \"#utility.yul\":2709:2831   */\n      tag_168\n      jumpi\n        /* \"#utility.yul\":2750:2829   */\n      tag_169\n      tag_106\n      jump\t// in\n    tag_169:\n        /* \"#utility.yul\":2709:2831   */\n    tag_168:\n        /* \"#utility.yul\":2867:2873   */\n      dup2\n        /* \"#utility.yul\":2854:2874   */\n      calldataload\n        /* \"#utility.yul\":2892:2971   */\n      tag_170\n        /* \"#utility.yul\":2967:2970   */\n      dup5\n        /* \"#utility.yul\":2959:2965   */\n      dup3\n        /* \"#utility.yul\":2952:2956   */\n      0x20\n        /* \"#utility.yul\":2944:2950   */\n      dup7\n        /* \"#utility.yul\":2940:2957   */\n      add\n        /* \"#utility.yul\":2892:2971   */\n      tag_114\n      jump\t// in\n    tag_170:\n        /* \"#utility.yul\":2883:2971   */\n      swap2\n      pop\n        /* \"#utility.yul\":2699:2977   */\n      pop\n        /* \"#utility.yul\":2637:2977   */\n      swap3\n      swap2\n      pop\n      pop\n      jump\t// out\n        /* \"#utility.yul\":2983:3492   */\n    tag_20:\n        /* \"#utility.yul\":3052:3058   */\n      0x00\n        /* \"#utility.yul\":3101:3103   */\n      0x20\n        /* \"#utility.yul\":3089:3098   */\n      dup3\n        /* \"#utility.yul\":3080:3087   */\n      dup5\n        /* \"#utility.yul\":3076:3099   */\n      sub\n        /* \"#utility.yul\":3072:3104   */\n      slt\n        /* \"#utility.yul\":3069:3188   */\n      iszero\n      tag_172\n      jumpi\n        /* \"#utility.yul\":3107:3186   */\n      tag_173\n      tag_104\n      jump\t// in\n    tag_173:\n        /* \"#utility.yul\":3069:3188   */\n    tag_172:\n        /* \"#utility.yul\":3255:3256   */\n      0x00\n        /* \"#utility.yul\":3244:3253   */\n      dup3\n        /* \"#utility.yul\":3240:3257   */\n      add\n        /* \"#utility.yul\":3227:3258   */\n      calldataload\n        /* \"#utility.yul\":3285:3303   */\n      0xffffffffffffffff\n        /* \"#utility.yul\":3277:3283   */\n      dup2\n        /* \"#utility.yul\":3274:3304   */\n      gt\n        /* \"#utility.yul\":3271:3388   */\n      iszero\n      tag_174\n      jumpi\n        /* \"#utility.yul\":3307:3386   */\n      tag_175\n      tag_105\n      jump\t// in\n    tag_175:\n        /* \"#utility.yul\":3271:3388   */\n    tag_174:\n        /* \"#utility.yul\":3412:3475   */\n      tag_176\n        /* \"#utility.yul\":3467:3474   */\n      dup5\n        /* \"#utility.yul\":3458:3464   */\n      dup3\n        /* \"#utility.yul\":3447:3456   */\n      dup6\n        /* \"#utility.yul\":3443:3465   */\n      add\n        /* \"#utility.yul\":3412:3475   */\n      tag_115\n      jump\t// in\n    tag_176:\n        /* \"#utility.yul\":3402:3475   */\n      swap2\n      pop\n        /* \"#utility.yul\":3198:3485   */\n      pop\n        /* \"#utility.yul\":2983:3492   */\n      swap3\n      swap2\n      pop\n      pop\n      jump\t// out\n        /* \"#utility.yul\":3498:3575   */\n    tag_116:\n        /* \"#utility.yul\":3535:3542   */\n      0x00\n        /* \"#utility.yul\":3564:3569   */\n      dup2\n        /* \"#utility.yul\":3553:3569   */\n      swap1\n      pop\n        /* \"#utility.yul\":3498:3575   */\n      swap2\n      swap1\n      pop\n      jump\t// out\n        /* \"#utility.yul\":3581:3703   */\n    tag_117:\n        /* \"#utility.yul\":3654:3678   */\n      tag_179\n        /* \"#utility.yul\":3672:3677   */\n      dup2\n        /* \"#utility.yul\":3654:3678   */\n      tag_116\n      jump\t// in\n    tag_179:\n        /* \"#utility.yul\":3647:3652   */\n      dup2\n        /* \"#utility.yul\":3644:3679   */\n      eq\n        /* \"#utility.yul\":3634:3697   */\n      tag_180\n      jumpi\n        /* \"#utility.yul\":3693:3694   */\n      0x00\n        /* \"#utility.yul\":3690:3691   */\n      dup1\n        /* \"#utility.yul\":3683:3695   */\n      revert\n        /* \"#utility.yul\":3634:3697   */\n    tag_180:\n        /* \"#utility.yul\":3581:3703   */\n      pop\n      jump\t// out\n        /* \"#utility.yul\":3709:3848   */\n    tag_118:\n        /* \"#utility.yul\":3755:3760   */\n      0x00\n        /* \"#utility.yul\":3793:3799   */\n      dup2\n        /* \"#utility.yul\":3780:3800   */\n      calldataload\n        /* \"#utility.yul\":3771:3800   */\n      swap1\n      pop\n        /* \"#utility.yul\":3809:3842   */\n      tag_182\n        /* \"#utility.yul\":3836:3841   */\n      dup2\n        /* \"#utility.yul\":3809:3842   */\n      tag_117\n      jump\t// in\n    tag_182:\n        /* \"#utility.yul\":3709:3848   */\n      swap3\n      swap2\n      pop\n      pop\n      jump\t// out\n        /* \"#utility.yul\":3854:4183   */\n    tag_26:\n        /* \"#utility.yul\":3913:3919   */\n      0x00\n        /* \"#utility.yul\":3962:3964   */\n      0x20\n        /* \"#utility.yul\":3950:3959   */\n      dup3\n        /* \"#utility.yul\":3941:3948   */\n      dup5\n        /* \"#utility.yul\":3937:3960   */\n      sub\n        /* \"#utility.yul\":3933:3965   */\n      slt\n        /* \"#utility.yul\":3930:4049   */\n      iszero\n      tag_184\n      jumpi\n        /* \"#utility.yul\":3968:4047   */\n      tag_185\n      tag_104\n      jump\t// in\n    tag_185:\n        /* \"#utility.yul\":3930:4049   */\n    tag_184:\n        /* \"#utility.yul\":4088:4089   */\n      0x00\n        /* \"#utility.yul\":4113:4166   */\n      tag_186\n        /* \"#utility.yul\":4158:4165   */\n      dup5\n        /* \"#utility.yul\":4149:4155   */\n      dup3\n        /* \"#utility.yul\":4138:4147   */\n      dup6\n        /* \"#utility.yul\":4134:4156   */\n      add\n        /* \"#utility.yul\":4113:4166   */\n      tag_118\n      jump\t// in\n    tag_186:\n        /* \"#utility.yul\":4103:4166   */\n      swap2\n      pop\n        /* \"#utility.yul\":4059:4176   */\n      pop\n        /* \"#utility.yul\":3854:4183   */\n      swap3\n      swap2\n      pop\n      pop\n      jump\t// out\n        /* \"#utility.yul\":4189:4315   */\n    tag_119:\n        /* \"#utility.yul\":4226:4233   */\n      0x00\n        /* \"#utility.yul\":4266:4308   */\n      0xffffffffffffffffffffffffffffffffffffffff\n        /* \"#utility.yul\":4259:4264   */\n      dup3\n        /* \"#utility.yul\":4255:4309   */\n      and\n        /* \"#utility.yul\":4244:4309   */\n      swap1\n      pop\n        /* \"#utility.yul\":4189:4315   */\n      swap2\n      swap1\n      pop\n      jump\t// out\n        /* \"#utility.yul\":4321:4417   */\n    tag_120:\n        /* \"#utility.yul\":4358:4365   */\n      0x00\n        /* \"#utility.yul\":4387:4411   */\n      tag_189\n        /* \"#utility.yul\":4405:4410   */\n      dup3\n        /* \"#utility.yul\":4387:4411   */\n      tag_119\n      jump\t// in\n    tag_189:\n        /* \"#utility.yul\":4376:4411   */\n      swap1\n      pop\n        /* \"#utility.yul\":4321:4417   */\n      swap2\n      swap1\n      pop\n      jump\t// out\n        /* \"#utility.yul\":4423:4541   */\n    tag_121:\n        /* \"#utility.yul\":4510:4534   */\n      tag_191\n        /* \"#utility.yul\":4528:4533   */\n      dup2\n        /* \"#utility.yul\":4510:4534   */\n      tag_120\n      jump\t// in\n    tag_191:\n        /* \"#utility.yul\":4505:4508   */\n      dup3\n        /* \"#utility.yul\":4498:4535   */\n      mstore\n        /* \"#utility.yul\":4423:4541   */\n      pop\n      pop\n      jump\t// out\n        /* \"#utility.yul\":4547:4769   */\n    tag_29:\n        /* \"#utility.yul\":4640:4644   */\n      0x00\n        /* \"#utility.yul\":4678:4680   */\n      0x20\n        /* \"#utility.yul\":4667:4676   */\n      dup3\n        /* \"#utility.yul\":4663:4681   */\n      add\n        /* \"#utility.yul\":4655:4681   */\n      swap1\n      pop\n        /* \"#utility.yul\":4691:4762   */\n      tag_193\n        /* \"#utility.yul\":4759:4760   */\n      0x00\n        /* \"#utility.yul\":4748:4757   */\n      dup4\n        /* \"#utility.yul\":4744:4761   */\n      add\n        /* \"#utility.yul\":4735:4741   */\n      dup5\n        /* \"#utility.yul\":4691:4762   */\n      tag_121\n      jump\t// in\n    tag_193:\n        /* \"#utility.yul\":4547:4769   */\n      swap3\n      swap2\n      pop\n      pop\n      jump\t// out\n        /* \"#utility.yul\":4775:4893   */\n    tag_122:\n        /* \"#utility.yul\":4862:4886   */\n      tag_195\n        /* \"#utility.yul\":4880:4885   */\n      dup2\n        /* \"#utility.yul\":4862:4886   */\n      tag_116\n      jump\t// in\n    tag_195:\n        /* \"#utility.yul\":4857:4860   */\n      dup3\n        /* \"#utility.yul\":4850:4887   */\n      mstore\n        /* \"#utility.yul\":4775:4893   */\n      pop\n      pop\n      jump\t// out\n        /* \"#utility.yul\":4899:4998   */\n    tag_123:\n        /* \"#utility.yul\":4951:4957   */\n      0x00\n        /* \"#utility.yul\":4985:4990   */\n      dup2\n        /* \"#utility.yul\":4979:4991   */\n      mload\n        /* \"#utility.yul\":4969:4991   */\n      swap1\n      pop\n        /* \"#utility.yul\":4899:4998   */\n      swap2\n      swap1\n      pop\n      jump\t// out\n        /* \"#utility.yul\":5004:5173   */\n    tag_124:\n        /* \"#utility.yul\":5088:5099   */\n      0x00\n        /* \"#utility.yul\":5122:5128   */\n      dup3\n        /* \"#utility.yul\":5117:5120   */\n      dup3\n        /* \"#utility.yul\":5110:5129   */\n      mstore\n        /* \"#utility.yul\":5162:5166   */\n      0x20\n        /* \"#utility.yul\":5157:5160   */\n      dup3\n        /* \"#utility.yul\":5153:5167   */\n      add\n        /* \"#utility.yul\":5138:5167   */\n      swap1\n      pop\n        /* \"#utility.yul\":5004:5173   */\n      swap3\n      swap2\n      pop\n      pop\n      jump\t// out\n        /* \"#utility.yul\":5179:5486   */\n    tag_125:\n        /* \"#utility.yul\":5247:5248   */\n      0x00\n        /* \"#utility.yul\":5257:5370   */\n    tag_199:\n        /* \"#utility.yul\":5271:5277   */\n      dup4\n        /* \"#utility.yul\":5268:5269   */\n      dup2\n        /* \"#utility.yul\":5265:5278   */\n      lt\n        /* \"#utility.yul\":5257:5370   */\n      iszero\n      tag_201\n      jumpi\n        /* \"#utility.yul\":5356:5357   */\n      dup1\n        /* \"#utility.yul\":5351:5354   */\n      dup3\n        /* \"#utility.yul\":5347:5358   */\n      add\n        /* \"#utility.yul\":5341:5359   */\n      mload\n        /* \"#utility.yul\":5337:5338   */\n      dup2\n        /* \"#utility.yul\":5332:5335   */\n      dup5\n        /* \"#utility.yul\":5328:5339   */\n      add\n        /* \"#utility.yul\":5321:5360   */\n      mstore\n        /* \"#utility.yul\":5293:5295   */\n      0x20\n        /* \"#utility.yul\":5290:5291   */\n      dup2\n        /* \"#utility.yul\":5286:5296   */\n      add\n        /* \"#utility.yul\":5281:5296   */\n      swap1\n      pop\n        /* \"#utility.yul\":5257:5370   */\n      jump(tag_199)\n    tag_201:\n        /* \"#utility.yul\":5388:5394   */\n      dup4\n        /* \"#utility.yul\":5385:5386   */\n      dup2\n        /* \"#utility.yul\":5382:5395   */\n      gt\n        /* \"#utility.yul\":5379:5480   */\n      iszero\n      tag_202\n      jumpi\n        /* \"#utility.yul\":5468:5469   */\n      0x00\n        /* \"#utility.yul\":5459:5465   */\n      dup5\n        /* \"#utility.yul\":5454:5457   */\n      dup5\n        /* \"#utility.yul\":5450:5466   */\n      add\n        /* \"#utility.yul\":5443:5470   */\n      mstore\n        /* \"#utility.yul\":5379:5480   */\n    tag_202:\n        /* \"#utility.yul\":5228:5486   */\n      pop\n        /* \"#utility.yul\":5179:5486   */\n      pop\n      pop\n      pop\n      jump\t// out\n        /* \"#utility.yul\":5492:5856   */\n    tag_126:\n        /* \"#utility.yul\":5580:5583   */\n      0x00\n        /* \"#utility.yul\":5608:5647   */\n      tag_204\n        /* \"#utility.yul\":5641:5646   */\n      dup3\n        /* \"#utility.yul\":5608:5647   */\n      tag_123\n      jump\t// in\n    tag_204:\n        /* \"#utility.yul\":5663:5734   */\n      tag_205\n        /* \"#utility.yul\":5727:5733   */\n      dup2\n        /* \"#utility.yul\":5722:5725   */\n      dup6\n        /* \"#utility.yul\":5663:5734   */\n      tag_124\n      jump\t// in\n    tag_205:\n        /* \"#utility.yul\":5656:5734   */\n      swap4\n      pop\n        /* \"#utility.yul\":5743:5795   */\n      tag_206\n        /* \"#utility.yul\":5788:5794   */\n      dup2\n        /* \"#utility.yul\":5783:5786   */\n      dup6\n        /* \"#utility.yul\":5776:5780   */\n      0x20\n        /* \"#utility.yul\":5769:5774   */\n      dup7\n        /* \"#utility.yul\":5765:5781   */\n      add\n        /* \"#utility.yul\":5743:5795   */\n      tag_125\n      jump\t// in\n    tag_206:\n        /* \"#utility.yul\":5820:5849   */\n      tag_207\n        /* \"#utility.yul\":5842:5848   */\n      dup2\n        /* \"#utility.yul\":5820:5849   */\n      tag_108\n      jump\t// in\n    tag_207:\n        /* \"#utility.yul\":5815:5818   */\n      dup5\n        /* \"#utility.yul\":5811:5850   */\n      add\n        /* \"#utility.yul\":5804:5850   */\n      swap2\n      pop\n        /* \"#utility.yul\":5584:5856   */\n      pop\n        /* \"#utility.yul\":5492:5856   */\n      swap3\n      swap2\n      pop\n      pop\n      jump\t// out\n        /* \"#utility.yul\":5862:6506   */\n    tag_34:\n        /* \"#utility.yul\":6059:6063   */\n      0x00\n        /* \"#utility.yul\":6097:6100   */\n      0x80\n        /* \"#utility.yul\":6086:6095   */\n      dup3\n        /* \"#utility.yul\":6082:6101   */\n      add\n        /* \"#utility.yul\":6074:6101   */\n      swap1\n      pop\n        /* \"#utility.yul\":6111:6182   */\n      tag_209\n        /* \"#utility.yul\":6179:6180   */\n      0x00\n        /* \"#utility.yul\":6168:6177   */\n      dup4\n        /* \"#utility.yul\":6164:6181   */\n      add\n        /* \"#utility.yul\":6155:6161   */\n      dup8\n        /* \"#utility.yul\":6111:6182   */\n      tag_122\n      jump\t// in\n    tag_209:\n        /* \"#utility.yul\":6229:6238   */\n      dup2\n        /* \"#utility.yul\":6223:6227   */\n      dup2\n        /* \"#utility.yul\":6219:6239   */\n      sub\n        /* \"#utility.yul\":6214:6216   */\n      0x20\n        /* \"#utility.yul\":6203:6212   */\n      dup4\n        /* \"#utility.yul\":6199:6217   */\n      add\n        /* \"#utility.yul\":6192:6240   */\n      mstore\n        /* \"#utility.yul\":6257:6335   */\n      tag_210\n        /* \"#utility.yul\":6330:6334   */\n      dup2\n        /* \"#utility.yul\":6321:6327   */\n      dup7\n        /* \"#utility.yul\":6257:6335   */\n      tag_126\n      jump\t// in\n    tag_210:\n        /* \"#utility.yul\":6249:6335   */\n      swap1\n      pop\n        /* \"#utility.yul\":6345:6417   */\n      tag_211\n        /* \"#utility.yul\":6413:6415   */\n      0x40\n        /* \"#utility.yul\":6402:6411   */\n      dup4\n        /* \"#utility.yul\":6398:6416   */\n      add\n        /* \"#utility.yul\":6389:6395   */\n      dup6\n        /* \"#utility.yul\":6345:6417   */\n      tag_121\n      jump\t// in\n    tag_211:\n        /* \"#utility.yul\":6427:6499   */\n      tag_212\n        /* \"#utility.yul\":6495:6497   */\n      0x60\n        /* \"#utility.yul\":6484:6493   */\n      dup4\n        /* \"#utility.yul\":6480:6498   */\n      add\n        /* \"#utility.yul\":6471:6477   */\n      dup5\n        /* \"#utility.yul\":6427:6499   */\n      tag_122\n      jump\t// in\n    tag_212:\n        /* \"#utility.yul\":5862:6506   */\n      swap6\n      swap5\n      pop\n      pop\n      pop\n      pop\n      pop\n      jump\t// out\n        /* \"#utility.yul\":6512:7311   */\n    tag_37:\n        /* \"#utility.yul\":6599:6605   */\n      0x00\n        /* \"#utility.yul\":6607:6613   */\n      dup1\n        /* \"#utility.yul\":6615:6621   */\n      0x00\n        /* \"#utility.yul\":6664:6666   */\n      0x60\n        /* \"#utility.yul\":6652:6661   */\n      dup5\n        /* \"#utility.yul\":6643:6650   */\n      dup7\n        /* \"#utility.yul\":6639:6662   */\n      sub\n        /* \"#utility.yul\":6635:6667   */\n      slt\n        /* \"#utility.yul\":6632:6751   */\n      iszero\n      tag_214\n      jumpi\n        /* \"#utility.yul\":6670:6749   */\n      tag_215\n      tag_104\n      jump\t// in\n    tag_215:\n        /* \"#utility.yul\":6632:6751   */\n    tag_214:\n        /* \"#utility.yul\":6790:6791   */\n      0x00\n        /* \"#utility.yul\":6815:6868   */\n      tag_216\n        /* \"#utility.yul\":6860:6867   */\n      dup7\n        /* \"#utility.yul\":6851:6857   */\n      dup3\n        /* \"#utility.yul\":6840:6849   */\n      dup8\n        /* \"#utility.yul\":6836:6858   */\n      add\n        /* \"#utility.yul\":6815:6868   */\n      tag_118\n      jump\t// in\n    tag_216:\n        /* \"#utility.yul\":6805:6868   */\n      swap4\n      pop\n        /* \"#utility.yul\":6761:6878   */\n      pop\n        /* \"#utility.yul\":6945:6947   */\n      0x20\n        /* \"#utility.yul\":6934:6943   */\n      dup5\n        /* \"#utility.yul\":6930:6948   */\n      add\n        /* \"#utility.yul\":6917:6949   */\n      calldataload\n        /* \"#utility.yul\":6976:6994   */\n      0xffffffffffffffff\n        /* \"#utility.yul\":6968:6974   */\n      dup2\n        /* \"#utility.yul\":6965:6995   */\n      gt\n        /* \"#utility.yul\":6962:7079   */\n      iszero\n      tag_217\n      jumpi\n        /* \"#utility.yul\":6998:7077   */\n      tag_218\n      tag_105\n      jump\t// in\n    tag_218:\n        /* \"#utility.yul\":6962:7079   */\n    tag_217:\n        /* \"#utility.yul\":7103:7166   */\n      tag_219\n        /* \"#utility.yul\":7158:7165   */\n      dup7\n        /* \"#utility.yul\":7149:7155   */\n      dup3\n        /* \"#utility.yul\":7138:7147   */\n      dup8\n        /* \"#utility.yul\":7134:7156   */\n      add\n        /* \"#utility.yul\":7103:7166   */\n      tag_115\n      jump\t// in\n    tag_219:\n        /* \"#utility.yul\":7093:7166   */\n      swap3\n      pop\n        /* \"#utility.yul\":6888:7176   */\n      pop\n        /* \"#utility.yul\":7215:7217   */\n      0x40\n        /* \"#utility.yul\":7241:7294   */\n      tag_220\n        /* \"#utility.yul\":7286:7293   */\n      dup7\n        /* \"#utility.yul\":7277:7283   */\n      dup3\n        /* \"#utility.yul\":7266:7275   */\n      dup8\n        /* \"#utility.yul\":7262:7284   */\n      add\n        /* \"#utility.yul\":7241:7294   */\n      tag_118\n      jump\t// in\n    tag_220:\n        /* \"#utility.yul\":7231:7294   */\n      swap2\n      pop\n        /* \"#utility.yul\":7186:7304   */\n      pop\n        /* \"#utility.yul\":6512:7311   */\n      swap3\n      pop\n      swap3\n      pop\n      swap3\n      jump\t// out\n        /* \"#utility.yul\":7317:7941   */\n    tag_48:\n        /* \"#utility.yul\":7506:7510   */\n      0x00\n        /* \"#utility.yul\":7544:7546   */\n      0x60\n        /* \"#utility.yul\":7533:7542   */\n      dup3\n        /* \"#utility.yul\":7529:7547   */\n      add\n        /* \"#utility.yul\":7521:7547   */\n      swap1\n      pop\n        /* \"#utility.yul\":7557:7628   */\n      tag_222\n        /* \"#utility.yul\":7625:7626   */\n      0x00\n        /* \"#utility.yul\":7614:7623   */\n      dup4\n        /* \"#utility.yul\":7610:7627   */\n      add\n        /* \"#utility.yul\":7601:7607   */\n      dup7\n        /* \"#utility.yul\":7557:7628   */\n      tag_122\n      jump\t// in\n    tag_222:\n        /* \"#utility.yul\":7675:7684   */\n      dup2\n        /* \"#utility.yul\":7669:7673   */\n      dup2\n        /* \"#utility.yul\":7665:7685   */\n      sub\n        /* \"#utility.yul\":7660:7662   */\n      0x20\n        /* \"#utility.yul\":7649:7658   */\n      dup4\n        /* \"#utility.yul\":7645:7663   */\n      add\n        /* \"#utility.yul\":7638:7686   */\n      mstore\n        /* \"#utility.yul\":7703:7781   */\n      tag_223\n        /* \"#utility.yul\":7776:7780   */\n      dup2\n        /* \"#utility.yul\":7767:7773   */\n      dup6\n        /* \"#utility.yul\":7703:7781   */\n      tag_126\n      jump\t// in\n    tag_223:\n        /* \"#utility.yul\":7695:7781   */\n      swap1\n      pop\n        /* \"#utility.yul\":7828:7837   */\n      dup2\n        /* \"#utility.yul\":7822:7826   */\n      dup2\n        /* \"#utility.yul\":7818:7838   */\n      sub\n        /* \"#utility.yul\":7813:7815   */\n      0x40\n        /* \"#utility.yul\":7802:7811   */\n      dup4\n        /* \"#utility.yul\":7798:7816   */\n      add\n        /* \"#utility.yul\":7791:7839   */\n      mstore\n        /* \"#utility.yul\":7856:7934   */\n      tag_224\n        /* \"#utility.yul\":7929:7933   */\n      dup2\n        /* \"#utility.yul\":7920:7926   */\n      dup5\n        /* \"#utility.yul\":7856:7934   */\n      tag_126\n      jump\t// in\n    tag_224:\n        /* \"#utility.yul\":7848:7934   */\n      swap1\n      pop\n        /* \"#utility.yul\":7317:7941   */\n      swap5\n      swap4\n      pop\n      pop\n      pop\n      pop\n      jump\t// out\n        /* \"#utility.yul\":7947:8127   */\n    tag_127:\n        /* \"#utility.yul\":7995:8072   */\n      0x4e487b7100000000000000000000000000000000000000000000000000000000\n        /* \"#utility.yul\":7992:7993   */\n      0x00\n        /* \"#utility.yul\":7985:8073   */\n      mstore\n        /* \"#utility.yul\":8092:8096   */\n      0x22\n        /* \"#utility.yul\":8089:8090   */\n      0x04\n        /* \"#utility.yul\":8082:8097   */\n      mstore\n        /* \"#utility.yul\":8116:8120   */\n      0x24\n        /* \"#utility.yul\":8113:8114   */\n      0x00\n        /* \"#utility.yul\":8106:8121   */\n      revert\n        /* \"#utility.yul\":8133:8453   */\n    tag_64:\n        /* \"#utility.yul\":8177:8183   */\n      0x00\n        /* \"#utility.yul\":8214:8215   */\n      0x02\n        /* \"#utility.yul\":8208:8212   */\n      dup3\n        /* \"#utility.yul\":8204:8216   */\n      div\n        /* \"#utility.yul\":8194:8216   */\n      swap1\n      pop\n        /* \"#utility.yul\":8261:8262   */\n      0x01\n        /* \"#utility.yul\":8255:8259   */\n      dup3\n        /* \"#utility.yul\":8251:8263   */\n      and\n        /* \"#utility.yul\":8282:8300   */\n      dup1\n        /* \"#utility.yul\":8272:8353   */\n      tag_227\n      jumpi\n        /* \"#utility.yul\":8338:8342   */\n      0x7f\n        /* \"#utility.yul\":8330:8336   */\n      dup3\n        /* \"#utility.yul\":8326:8343   */\n      and\n        /* \"#utility.yul\":8316:8343   */\n      swap2\n      pop\n        /* \"#utility.yul\":8272:8353   */\n    tag_227:\n        /* \"#utility.yul\":8400:8402   */\n      0x20\n        /* \"#utility.yul\":8392:8398   */\n      dup3\n        /* \"#utility.yul\":8389:8403   */\n      lt\n        /* \"#utility.yul\":8369:8387   */\n      dup2\n        /* \"#utility.yul\":8366:8404   */\n      sub\n        /* \"#utility.yul\":8363:8447   */\n      tag_228\n      jumpi\n        /* \"#utility.yul\":8419:8437   */\n      tag_229\n      tag_127\n      jump\t// in\n    tag_229:\n        /* \"#utility.yul\":8363:8447   */\n    tag_228:\n        /* \"#utility.yul\":8184:8453   */\n      pop\n        /* \"#utility.yul\":8133:8453   */\n      swap2\n      swap1\n      pop\n      jump\t// out\n        /* \"#utility.yul\":8459:8607   */\n    tag_128:\n        /* \"#utility.yul\":8561:8572   */\n      0x00\n        /* \"#utility.yul\":8598:8601   */\n      dup2\n        /* \"#utility.yul\":8583:8601   */\n      swap1\n      pop\n        /* \"#utility.yul\":8459:8607   */\n      swap3\n      swap2\n      pop\n      pop\n      jump\t// out\n        /* \"#utility.yul\":8613:8990   */\n    tag_129:\n        /* \"#utility.yul\":8719:8722   */\n      0x00\n        /* \"#utility.yul\":8747:8786   */\n      tag_232\n        /* \"#utility.yul\":8780:8785   */\n      dup3\n        /* \"#utility.yul\":8747:8786   */\n      tag_123\n      jump\t// in\n    tag_232:\n        /* \"#utility.yul\":8802:8891   */\n      tag_233\n        /* \"#utility.yul\":8884:8890   */\n      dup2\n        /* \"#utility.yul\":8879:8882   */\n      dup6\n        /* \"#utility.yul\":8802:8891   */\n      tag_128\n      jump\t// in\n    tag_233:\n        /* \"#utility.yul\":8795:8891   */\n      swap4\n      pop\n        /* \"#utility.yul\":8900:8952   */\n      tag_234\n        /* \"#utility.yul\":8945:8951   */\n      dup2\n        /* \"#utility.yul\":8940:8943   */\n      dup6\n        /* \"#utility.yul\":8933:8937   */\n      0x20\n        /* \"#utility.yul\":8926:8931   */\n      dup7\n        /* \"#utility.yul\":8922:8938   */\n      add\n        /* \"#utility.yul\":8900:8952   */\n      tag_125\n      jump\t// in\n    tag_234:\n        /* \"#utility.yul\":8977:8983   */\n      dup1\n        /* \"#utility.yul\":8972:8975   */\n      dup5\n        /* \"#utility.yul\":8968:8984   */\n      add\n        /* \"#utility.yul\":8961:8984   */\n      swap2\n      pop\n        /* \"#utility.yul\":8723:8990   */\n      pop\n        /* \"#utility.yul\":8613:8990   */\n      swap3\n      swap2\n      pop\n      pop\n      jump\t// out\n        /* \"#utility.yul\":8996:9271   */\n    tag_75:\n        /* \"#utility.yul\":9128:9131   */\n      0x00\n        /* \"#utility.yul\":9150:9245   */\n      tag_236\n        /* \"#utility.yul\":9241:9244   */\n      dup3\n        /* \"#utility.yul\":9232:9238   */\n      dup5\n        /* \"#utility.yul\":9150:9245   */\n      tag_129\n      jump\t// in\n    tag_236:\n        /* \"#utility.yul\":9143:9245   */\n      swap2\n      pop\n        /* \"#utility.yul\":9262:9265   */\n      dup2\n        /* \"#utility.yul\":9255:9265   */\n      swap1\n      pop\n        /* \"#utility.yul\":8996:9271   */\n      swap3\n      swap2\n      pop\n      pop\n      jump\t// out\n        /* \"#utility.yul\":9277:9356   */\n    tag_130:\n        /* \"#utility.yul\":9316:9323   */\n      0x00\n        /* \"#utility.yul\":9345:9350   */\n      dup2\n        /* \"#utility.yul\":9334:9350   */\n      swap1\n      pop\n        /* \"#utility.yul\":9277:9356   */\n      swap2\n      swap1\n      pop\n      jump\t// out\n        /* \"#utility.yul\":9362:9519   */\n    tag_131:\n        /* \"#utility.yul\":9467:9512   */\n      tag_239\n        /* \"#utility.yul\":9487:9511   */\n      tag_240\n        /* \"#utility.yul\":9505:9510   */\n      dup3\n        /* \"#utility.yul\":9487:9511   */\n      tag_116\n      jump\t// in\n    tag_240:\n        /* \"#utility.yul\":9467:9512   */\n      tag_130\n      jump\t// in\n    tag_239:\n        /* \"#utility.yul\":9462:9465   */\n      dup3\n        /* \"#utility.yul\":9455:9513   */\n      mstore\n        /* \"#utility.yul\":9362:9519   */\n      pop\n      pop\n      jump\t// out\n        /* \"#utility.yul\":9525:9619   */\n    tag_132:\n        /* \"#utility.yul\":9558:9566   */\n      0x00\n        /* \"#utility.yul\":9606:9611   */\n      dup2\n        /* \"#utility.yul\":9602:9604   */\n      0x60\n        /* \"#utility.yul\":9598:9612   */\n      shl\n        /* \"#utility.yul\":9577:9612   */\n      swap1\n      pop\n        /* \"#utility.yul\":9525:9619   */\n      swap2\n      swap1\n      pop\n      jump\t// out\n        /* \"#utility.yul\":9625:9719   */\n    tag_133:\n        /* \"#utility.yul\":9664:9671   */\n      0x00\n        /* \"#utility.yul\":9693:9713   */\n      tag_243\n        /* \"#utility.yul\":9707:9712   */\n      dup3\n        /* \"#utility.yul\":9693:9713   */\n      tag_132\n      jump\t// in\n    tag_243:\n        /* \"#utility.yul\":9682:9713   */\n      swap1\n      pop\n        /* \"#utility.yul\":9625:9719   */\n      swap2\n      swap1\n      pop\n      jump\t// out\n        /* \"#utility.yul\":9725:9825   */\n    tag_134:\n        /* \"#utility.yul\":9764:9771   */\n      0x00\n        /* \"#utility.yul\":9793:9819   */\n      tag_245\n        /* \"#utility.yul\":9813:9818   */\n      dup3\n        /* \"#utility.yul\":9793:9819   */\n      tag_133\n      jump\t// in\n    tag_245:\n        /* \"#utility.yul\":9782:9819   */\n      swap1\n      pop\n        /* \"#utility.yul\":9725:9825   */\n      swap2\n      swap1\n      pop\n      jump\t// out\n        /* \"#utility.yul\":9831:9988   */\n    tag_135:\n        /* \"#utility.yul\":9936:9981   */\n      tag_247\n        /* \"#utility.yul\":9956:9980   */\n      tag_248\n        /* \"#utility.yul\":9974:9979   */\n      dup3\n        /* \"#utility.yul\":9956:9980   */\n      tag_120\n      jump\t// in\n    tag_248:\n        /* \"#utility.yul\":9936:9981   */\n      tag_134\n      jump\t// in\n    tag_247:\n        /* \"#utility.yul\":9931:9934   */\n      dup3\n        /* \"#utility.yul\":9924:9982   */\n      mstore\n        /* \"#utility.yul\":9831:9988   */\n      pop\n      pop\n      jump\t// out\n        /* \"#utility.yul\":9994:10692   */\n    tag_90:\n        /* \"#utility.yul\":10210:10213   */\n      0x00\n        /* \"#utility.yul\":10225:10300   */\n      tag_250\n        /* \"#utility.yul\":10296:10299   */\n      dup3\n        /* \"#utility.yul\":10287:10293   */\n      dup8\n        /* \"#utility.yul\":10225:10300   */\n      tag_131\n      jump\t// in\n    tag_250:\n        /* \"#utility.yul\":10325:10327   */\n      0x20\n        /* \"#utility.yul\":10320:10323   */\n      dup3\n        /* \"#utility.yul\":10316:10328   */\n      add\n        /* \"#utility.yul\":10309:10328   */\n      swap2\n      pop\n        /* \"#utility.yul\":10345:10440   */\n      tag_251\n        /* \"#utility.yul\":10436:10439   */\n      dup3\n        /* \"#utility.yul\":10427:10433   */\n      dup7\n        /* \"#utility.yul\":10345:10440   */\n      tag_129\n      jump\t// in\n    tag_251:\n        /* \"#utility.yul\":10338:10440   */\n      swap2\n      pop\n        /* \"#utility.yul\":10450:10525   */\n      tag_252\n        /* \"#utility.yul\":10521:10524   */\n      dup3\n        /* \"#utility.yul\":10512:10518   */\n      dup6\n        /* \"#utility.yul\":10450:10525   */\n      tag_135\n      jump\t// in\n    tag_252:\n        /* \"#utility.yul\":10550:10552   */\n      0x14\n        /* \"#utility.yul\":10545:10548   */\n      dup3\n        /* \"#utility.yul\":10541:10553   */\n      add\n        /* \"#utility.yul\":10534:10553   */\n      swap2\n      pop\n        /* \"#utility.yul\":10563:10638   */\n      tag_253\n        /* \"#utility.yul\":10634:10637   */\n      dup3\n        /* \"#utility.yul\":10625:10631   */\n      dup5\n        /* \"#utility.yul\":10563:10638   */\n      tag_131\n      jump\t// in\n    tag_253:\n        /* \"#utility.yul\":10663:10665   */\n      0x20\n        /* \"#utility.yul\":10658:10661   */\n      dup3\n        /* \"#utility.yul\":10654:10666   */\n      add\n        /* \"#utility.yul\":10647:10666   */\n      swap2\n      pop\n        /* \"#utility.yul\":10683:10686   */\n      dup2\n        /* \"#utility.yul\":10676:10686   */\n      swap1\n      pop\n        /* \"#utility.yul\":9994:10692   */\n      swap6\n      swap5\n      pop\n      pop\n      pop\n      pop\n      pop\n      jump\t// out\n\n    auxdata: 0xa26469706673582212203e99f11309bffd09f1e213ab084ebc1147e3101c3fa584fec7637c20daa3f61c64736f6c634300080d0033\n}\n",
				"bytecode": {
					"linkReferences": {},
					"object": "608060405234801561001057600080fd5b50610d62806100206000396000f3fe608060405234801561001057600080fd5b506004361061009e5760003560e01c80639e26bc4f116100665780639e26bc4f1461014a578063a7469ee314610166578063b4f5747314610182578063c74efaef146101a0578063dd1eb06b146101c05761009e565b806309bd5a60146100a357806333c83dbd146100c157806342d73314146100dd578063547cbcad146100e757806369ddcade14610117575b600080fd5b6100ab6101f0565b6040516100b891906107b2565b60405180910390f35b6100db60048036038101906100d69190610927565b6101f6565b005b6100e5610293565b005b61010160048036038101906100fc91906109a6565b6102f8565b60405161010e9190610a14565b60405180910390f35b610131600480360381019061012c91906109a6565b610337565b6040516101419493929190610ac6565b60405180910390f35b610164600480360381019061015f9190610b12565b61041f565b005b610180600480360381019061017b9190610927565b610531565b005b61018a610561565b60405161019791906107b2565b60405180910390f35b6101a8610567565b6040516101b793929190610b81565b60405180910390f35b6101da60048036038101906101d59190610927565b61068f565b6040516101e791906107b2565b60405180910390f35b60015481565b6040518060600160405280600181526020016040518060400160405280600b81526020017f48616d6275726775657361000000000000000000000000000000000000000000815250815260200182815250600260008201518160000155602082015181600101908051906020019061026f9291906106f6565b50604082015181600201908051906020019061028c9291906106f6565b5090505050565b6000339080600181540180825580915050600190039060005260206000200160009091909190916101000a81548173ffffffffffffffffffffffffffffffffffffffff021916908373ffffffffffffffffffffffffffffffffffffffff160217905550565b6000818154811061030857600080fd5b906000526020600020016000915054906101000a900473ffffffffffffffffffffffffffffffffffffffff1681565b6006818154811061034757600080fd5b906000526020600020906004020160009150905080600001549080600101805461037090610bf5565b80601f016020809104026020016040519081016040528092919081815260200182805461039c90610bf5565b80156103e95780601f106103be576101008083540402835291602001916103e9565b820191906000526020600020905b8154815290600101906020018083116103cc57829003601f168201915b5050505050908060020160009054906101000a900473ffffffffffffffffffffffffffffffffffffffff16908060030154905084565b600660405180608001604052808581526020018481526020013373ffffffffffffffffffffffffffffffffffffffff1681526020018381525090806001815401808255809150506001900390600052602060002090600402016000909190919091506000820151816000015560208201518160010190805190602001906104a79291906106f6565b5060408201518160020160006101000a81548173ffffffffffffffffffffffffffffffffffffffff021916908373ffffffffffffffffffffffffffffffffffffffff160217905550606082015181600301555050610507838333846106bd565b60055460078360405161051a9190610c62565b908152602001604051809103902081905550505050565b806040516020016105429190610c62565b6040516020818303038152906040528051906020012060018190555050565b60055481565b600280600001549080600101805461057e90610bf5565b80601f01602080910402602001604051908101604052809291908181526020018280546105aa90610bf5565b80156105f75780601f106105cc576101008083540402835291602001916105f7565b820191906000526020600020905b8154815290600101906020018083116105da57829003601f168201915b50505050509080600201805461060c90610bf5565b80601f016020809104026020016040519081016040528092919081815260200182805461063890610bf5565b80156106855780601f1061065a57610100808354040283529160200191610685565b820191906000526020600020905b81548152906001019060200180831161066857829003601f168201915b5050505050905083565b6007818051602081018201805184825260208301602085012081835280955050505050506000915090505481565b838383836040516020016106d49493929190610ce2565b6040516020818303038152906040528051906020012060058190555050505050565b82805461070290610bf5565b90600052602060002090601f016020900481019282610724576000855561076b565b82601f1061073d57805160ff191683800117855561076b565b8280016001018555821561076b579182015b8281111561076a57825182559160200191906001019061074f565b5b509050610778919061077c565b5090565b5b8082111561079557600081600090555060010161077d565b5090565b6000819050919050565b6107ac81610799565b82525050565b60006020820190506107c760008301846107a3565b92915050565b6000604051905090565b600080fd5b600080fd5b600080fd5b600080fd5b6000601f19601f8301169050919050565b7f4e487b7100000000000000000000000000000000000000000000000000000000600052604160045260246000fd5b610834826107eb565b810181811067ffffffffffffffff82111715610853576108526107fc565b5b80604052505050565b60006108666107cd565b9050610872828261082b565b919050565b600067ffffffffffffffff821115610892576108916107fc565b5b61089b826107eb565b9050602081019050919050565b82818337600083830152505050565b60006108ca6108c584610877565b61085c565b9050828152602081018484840111156108e6576108e56107e6565b5b6108f18482856108a8565b509392505050565b600082601f83011261090e5761090d6107e1565b5b813561091e8482602086016108b7565b91505092915050565b60006020828403121561093d5761093c6107d7565b5b600082013567ffffffffffffffff81111561095b5761095a6107dc565b5b610967848285016108f9565b91505092915050565b6000819050919050565b61098381610970565b811461098e57600080fd5b50565b6000813590506109a08161097a565b92915050565b6000602082840312156109bc576109bb6107d7565b5b60006109ca84828501610991565b91505092915050565b600073ffffffffffffffffffffffffffffffffffffffff82169050919050565b60006109fe826109d3565b9050919050565b610a0e816109f3565b82525050565b6000602082019050610a296000830184610a05565b92915050565b610a3881610970565b82525050565b600081519050919050565b600082825260208201905092915050565b60005b83811015610a78578082015181840152602081019050610a5d565b83811115610a87576000848401525b50505050565b6000610a9882610a3e565b610aa28185610a49565b9350610ab2818560208601610a5a565b610abb816107eb565b840191505092915050565b6000608082019050610adb6000830187610a2f565b8181036020830152610aed8186610a8d565b9050610afc6040830185610a05565b610b096060830184610a2f565b95945050505050565b600080600060608486031215610b2b57610b2a6107d7565b5b6000610b3986828701610991565b935050602084013567ffffffffffffffff811115610b5a57610b596107dc565b5b610b66868287016108f9565b9250506040610b7786828701610991565b9150509250925092565b6000606082019050610b966000830186610a2f565b8181036020830152610ba88185610a8d565b90508181036040830152610bbc8184610a8d565b9050949350505050565b7f4e487b7100000000000000000000000000000000000000000000000000000000600052602260045260246000fd5b60006002820490506001821680610c0d57607f821691505b602082108103610c2057610c1f610bc6565b5b50919050565b600081905092915050565b6000610c3c82610a3e565b610c468185610c26565b9350610c56818560208601610a5a565b80840191505092915050565b6000610c6e8284610c31565b915081905092915050565b6000819050919050565b610c94610c8f82610970565b610c79565b82525050565b60008160601b9050919050565b6000610cb282610c9a565b9050919050565b6000610cc482610ca7565b9050919050565b610cdc610cd7826109f3565b610cb9565b82525050565b6000610cee8287610c83565b602082019150610cfe8286610c31565b9150610d0a8285610ccb565b601482019150610d1a8284610c83565b6020820191508190509594505050505056fea26469706673582212203e99f11309bffd09f1e213ab084ebc1147e3101c3fa584fec7637c20daa3f61c64736f6c634300080d0033",
					"opcodes": "PUSH1 0x80 PUSH1 0x40 MSTORE CALLVALUE DUP1 ISZERO PUSH2 0x10 JUMPI PUSH1 0x0 DUP1 REVERT JUMPDEST POP PUSH2 0xD62 DUP1 PUSH2 0x20 PUSH1 0x0 CODECOPY PUSH1 0x0 RETURN INVALID PUSH1 0x80 PUSH1 0x40 MSTORE CALLVALUE DUP1 ISZERO PUSH2 0x10 JUMPI PUSH1 0x0 DUP1 REVERT JUMPDEST POP PUSH1 0x4 CALLDATASIZE LT PUSH2 0x9E JUMPI PUSH1 0x0 CALLDATALOAD PUSH1 0xE0 SHR DUP1 PUSH4 0x9E26BC4F GT PUSH2 0x66 JUMPI DUP1 PUSH4 0x9E26BC4F EQ PUSH2 0x14A JUMPI DUP1 PUSH4 0xA7469EE3 EQ PUSH2 0x166 JUMPI DUP1 PUSH4 0xB4F57473 EQ PUSH2 0x182 JUMPI DUP1 PUSH4 0xC74EFAEF EQ PUSH2 0x1A0 JUMPI DUP1 PUSH4 0xDD1EB06B EQ PUSH2 0x1C0 JUMPI PUSH2 0x9E JUMP JUMPDEST DUP1 PUSH4 0x9BD5A60 EQ PUSH2 0xA3 JUMPI DUP1 PUSH4 0x33C83DBD EQ PUSH2 0xC1 JUMPI DUP1 PUSH4 0x42D73314 EQ PUSH2 0xDD JUMPI DUP1 PUSH4 0x547CBCAD EQ PUSH2 0xE7 JUMPI DUP1 PUSH4 0x69DDCADE EQ PUSH2 0x117 JUMPI JUMPDEST PUSH1 0x0 DUP1 REVERT JUMPDEST PUSH2 0xAB PUSH2 0x1F0 JUMP JUMPDEST PUSH1 0x40 MLOAD PUSH2 0xB8 SWAP2 SWAP1 PUSH2 0x7B2 JUMP JUMPDEST PUSH1 0x40 MLOAD DUP1 SWAP2 SUB SWAP1 RETURN JUMPDEST PUSH2 0xDB PUSH1 0x4 DUP1 CALLDATASIZE SUB DUP2 ADD SWAP1 PUSH2 0xD6 SWAP2 SWAP1 PUSH2 0x927 JUMP JUMPDEST PUSH2 0x1F6 JUMP JUMPDEST STOP JUMPDEST PUSH2 0xE5 PUSH2 0x293 JUMP JUMPDEST STOP JUMPDEST PUSH2 0x101 PUSH1 0x4 DUP1 CALLDATASIZE SUB DUP2 ADD SWAP1 PUSH2 0xFC SWAP2 SWAP1 PUSH2 0x9A6 JUMP JUMPDEST PUSH2 0x2F8 JUMP JUMPDEST PUSH1 0x40 MLOAD PUSH2 0x10E SWAP2 SWAP1 PUSH2 0xA14 JUMP JUMPDEST PUSH1 0x40 MLOAD DUP1 SWAP2 SUB SWAP1 RETURN JUMPDEST PUSH2 0x131 PUSH1 0x4 DUP1 CALLDATASIZE SUB DUP2 ADD SWAP1 PUSH2 0x12C SWAP2 SWAP1 PUSH2 0x9A6 JUMP JUMPDEST PUSH2 0x337 JUMP JUMPDEST PUSH1 0x40 MLOAD PUSH2 0x141 SWAP5 SWAP4 SWAP3 SWAP2 SWAP1 PUSH2 0xAC6 JUMP JUMPDEST PUSH1 0x40 MLOAD DUP1 SWAP2 SUB SWAP1 RETURN JUMPDEST PUSH2 0x164 PUSH1 0x4 DUP1 CALLDATASIZE SUB DUP2 ADD SWAP1 PUSH2 0x15F SWAP2 SWAP1 PUSH2 0xB12 JUMP JUMPDEST PUSH2 0x41F JUMP JUMPDEST STOP JUMPDEST PUSH2 0x180 PUSH1 0x4 DUP1 CALLDATASIZE SUB DUP2 ADD SWAP1 PUSH2 0x17B SWAP2 SWAP1 PUSH2 0x927 JUMP JUMPDEST PUSH2 0x531 JUMP JUMPDEST STOP JUMPDEST PUSH2 0x18A PUSH2 0x561 JUMP JUMPDEST PUSH1 0x40 MLOAD PUSH2 0x197 SWAP2 SWAP1 PUSH2 0x7B2 JUMP JUMPDEST PUSH1 0x40 MLOAD DUP1 SWAP2 SUB SWAP1 RETURN JUMPDEST PUSH2 0x1A8 PUSH2 0x567 JUMP JUMPDEST PUSH1 0x40 MLOAD PUSH2 0x1B7 SWAP4 SWAP3 SWAP2 SWAP1 PUSH2 0xB81 JUMP JUMPDEST PUSH1 0x40 MLOAD DUP1 SWAP2 SUB SWAP1 RETURN JUMPDEST PUSH2 0x1DA PUSH1 0x4 DUP1 CALLDATASIZE SUB DUP2 ADD SWAP1 PUSH2 0x1D5 SWAP2 SWAP1 PUSH2 0x927 JUMP JUMPDEST PUSH2 0x68F JUMP JUMPDEST PUSH1 0x40 MLOAD PUSH2 0x1E7 SWAP2 SWAP1 PUSH2 0x7B2 JUMP JUMPDEST PUSH1 0x40 MLOAD DUP1 SWAP2 SUB SWAP1 RETURN JUMPDEST PUSH1 0x1 SLOAD DUP2 JUMP JUMPDEST PUSH1 0x40 MLOAD DUP1 PUSH1 0x60 ADD PUSH1 0x40 MSTORE DUP1 PUSH1 0x1 DUP2 MSTORE PUSH1 0x20 ADD PUSH1 0x40 MLOAD DUP1 PUSH1 0x40 ADD PUSH1 0x40 MSTORE DUP1 PUSH1 0xB DUP2 MSTORE PUSH1 0x20 ADD PUSH32 0x48616D6275726775657361000000000000000000000000000000000000000000 DUP2 MSTORE POP DUP2 MSTORE PUSH1 0x20 ADD DUP3 DUP2 MSTORE POP PUSH1 0x2 PUSH1 0x0 DUP3 ADD MLOAD DUP2 PUSH1 0x0 ADD SSTORE PUSH1 0x20 DUP3 ADD MLOAD DUP2 PUSH1 0x1 ADD SWAP1 DUP1 MLOAD SWAP1 PUSH1 0x20 ADD SWAP1 PUSH2 0x26F SWAP3 SWAP2 SWAP1 PUSH2 0x6F6 JUMP JUMPDEST POP PUSH1 0x40 DUP3 ADD MLOAD DUP2 PUSH1 0x2 ADD SWAP1 DUP1 MLOAD SWAP1 PUSH1 0x20 ADD SWAP1 PUSH2 0x28C SWAP3 SWAP2 SWAP1 PUSH2 0x6F6 JUMP JUMPDEST POP SWAP1 POP POP POP JUMP JUMPDEST PUSH1 0x0 CALLER SWAP1 DUP1 PUSH1 0x1 DUP2 SLOAD ADD DUP1 DUP3 SSTORE DUP1 SWAP2 POP POP PUSH1 0x1 SWAP1 SUB SWAP1 PUSH1 0x0 MSTORE PUSH1 0x20 PUSH1 0x0 KECCAK256 ADD PUSH1 0x0 SWAP1 SWAP2 SWAP1 SWAP2 SWAP1 SWAP2 PUSH2 0x100 EXP DUP2 SLOAD DUP2 PUSH20 0xFFFFFFFFFFFFFFFFFFFFFFFFFFFFFFFFFFFFFFFF MUL NOT AND SWAP1 DUP4 PUSH20 0xFFFFFFFFFFFFFFFFFFFFFFFFFFFFFFFFFFFFFFFF AND MUL OR SWAP1 SSTORE POP JUMP JUMPDEST PUSH1 0x0 DUP2 DUP2 SLOAD DUP2 LT PUSH2 0x308 JUMPI PUSH1 0x0 DUP1 REVERT JUMPDEST SWAP1 PUSH1 0x0 MSTORE PUSH1 0x20 PUSH1 0x0 KECCAK256 ADD PUSH1 0x0 SWAP2 POP SLOAD SWAP1 PUSH2 0x100 EXP SWAP1 DIV PUSH20 0xFFFFFFFFFFFFFFFFFFFFFFFFFFFFFFFFFFFFFFFF AND DUP2 JUMP JUMPDEST PUSH1 0x6 DUP2 DUP2 SLOAD DUP2 LT PUSH2 0x347 JUMPI PUSH1 0x0 DUP1 REVERT JUMPDEST SWAP1 PUSH1 0x0 MSTORE PUSH1 0x20 PUSH1 0x0 KECCAK256 SWAP1 PUSH1 0x4 MUL ADD PUSH1 0x0 SWAP2 POP SWAP1 POP DUP1 PUSH1 0x0 ADD SLOAD SWAP1 DUP1 PUSH1 0x1 ADD DUP1 SLOAD PUSH2 0x370 SWAP1 PUSH2 0xBF5 JUMP JUMPDEST DUP1 PUSH1 0x1F ADD PUSH1 0x20 DUP1 SWAP2 DIV MUL PUSH1 0x20 ADD PUSH1 0x40 MLOAD SWAP1 DUP2 ADD PUSH1 0x40 MSTORE DUP1 SWAP3 SWAP2 SWAP1 DUP2 DUP2 MSTORE PUSH1 0x20 ADD DUP3 DUP1 SLOAD PUSH2 0x39C SWAP1 PUSH2 0xBF5 JUMP JUMPDEST DUP1 ISZERO PUSH2 0x3E9 JUMPI DUP1 PUSH1 0x1F LT PUSH2 0x3BE JUMPI PUSH2 0x100 DUP1 DUP4 SLOAD DIV MUL DUP4 MSTORE SWAP2 PUSH1 0x20 ADD SWAP2 PUSH2 0x3E9 JUMP JUMPDEST DUP3 ADD SWAP2 SWAP1 PUSH1 0x0 MSTORE PUSH1 0x20 PUSH1 0x0 KECCAK256 SWAP1 JUMPDEST DUP2 SLOAD DUP2 MSTORE SWAP1 PUSH1 0x1 ADD SWAP1 PUSH1 0x20 ADD DUP1 DUP4 GT PUSH2 0x3CC JUMPI DUP3 SWAP1 SUB PUSH1 0x1F AND DUP3 ADD SWAP2 JUMPDEST POP POP POP POP POP SWAP1 DUP1 PUSH1 0x2 ADD PUSH1 0x0 SWAP1 SLOAD SWAP1 PUSH2 0x100 EXP SWAP1 DIV PUSH20 0xFFFFFFFFFFFFFFFFFFFFFFFFFFFFFFFFFFFFFFFF AND SWAP1 DUP1 PUSH1 0x3 ADD SLOAD SWAP1 POP DUP5 JUMP JUMPDEST PUSH1 0x6 PUSH1 0x40 MLOAD DUP1 PUSH1 0x80 ADD PUSH1 0x40 MSTORE DUP1 DUP6 DUP2 MSTORE PUSH1 0x20 ADD DUP5 DUP2 MSTORE PUSH1 0x20 ADD CALLER PUSH20 0xFFFFFFFFFFFFFFFFFFFFFFFFFFFFFFFFFFFFFFFF AND DUP2 MSTORE PUSH1 0x20 ADD DUP4 DUP2 MSTORE POP SWAP1 DUP1 PUSH1 0x1 DUP2 SLOAD ADD DUP1 DUP3 SSTORE DUP1 SWAP2 POP POP PUSH1 0x1 SWAP1 SUB SWAP1 PUSH1 0x0 MSTORE PUSH1 0x20 PUSH1 0x0 KECCAK256 SWAP1 PUSH1 0x4 MUL ADD PUSH1 0x0 SWAP1 SWAP2 SWAP1 SWAP2 SWAP1 SWAP2 POP PUSH1 0x0 DUP3 ADD MLOAD DUP2 PUSH1 0x0 ADD SSTORE PUSH1 0x20 DUP3 ADD MLOAD DUP2 PUSH1 0x1 ADD SWAP1 DUP1 MLOAD SWAP1 PUSH1 0x20 ADD SWAP1 PUSH2 0x4A7 SWAP3 SWAP2 SWAP1 PUSH2 0x6F6 JUMP JUMPDEST POP PUSH1 0x40 DUP3 ADD MLOAD DUP2 PUSH1 0x2 ADD PUSH1 0x0 PUSH2 0x100 EXP DUP2 SLOAD DUP2 PUSH20 0xFFFFFFFFFFFFFFFFFFFFFFFFFFFFFFFFFFFFFFFF MUL NOT AND SWAP1 DUP4 PUSH20 0xFFFFFFFFFFFFFFFFFFFFFFFFFFFFFFFFFFFFFFFF AND MUL OR SWAP1 SSTORE POP PUSH1 0x60 DUP3 ADD MLOAD DUP2 PUSH1 0x3 ADD SSTORE POP POP PUSH2 0x507 DUP4 DUP4 CALLER DUP5 PUSH2 0x6BD JUMP JUMPDEST PUSH1 0x5 SLOAD PUSH1 0x7 DUP4 PUSH1 0x40 MLOAD PUSH2 0x51A SWAP2 SWAP1 PUSH2 0xC62 JUMP JUMPDEST SWAP1 DUP2 MSTORE PUSH1 0x20 ADD PUSH1 0x40 MLOAD DUP1 SWAP2 SUB SWAP1 KECCAK256 DUP2 SWAP1 SSTORE POP POP POP POP JUMP JUMPDEST DUP1 PUSH1 0x40 MLOAD PUSH1 0x20 ADD PUSH2 0x542 SWAP2 SWAP1 PUSH2 0xC62 JUMP JUMPDEST PUSH1 0x40 MLOAD PUSH1 0x20 DUP2 DUP4 SUB SUB DUP2 MSTORE SWAP1 PUSH1 0x40 MSTORE DUP1 MLOAD SWAP1 PUSH1 0x20 ADD KECCAK256 PUSH1 0x1 DUP2 SWAP1 SSTORE POP POP JUMP JUMPDEST PUSH1 0x5 SLOAD DUP2 JUMP JUMPDEST PUSH1 0x2 DUP1 PUSH1 0x0 ADD SLOAD SWAP1 DUP1 PUSH1 0x1 ADD DUP1 SLOAD PUSH2 0x57E SWAP1 PUSH2 0xBF5 JUMP JUMPDEST DUP1 PUSH1 0x1F ADD PUSH1 0x20 DUP1 SWAP2 DIV MUL PUSH1 0x20 ADD PUSH1 0x40 MLOAD SWAP1 DUP2 ADD PUSH1 0x40 MSTORE DUP1 SWAP3 SWAP2 SWAP1 DUP2 DUP2 MSTORE PUSH1 0x20 ADD DUP3 DUP1 SLOAD PUSH2 0x5AA SWAP1 PUSH2 0xBF5 JUMP JUMPDEST DUP1 ISZERO PUSH2 0x5F7 JUMPI DUP1 PUSH1 0x1F LT PUSH2 0x5CC JUMPI PUSH2 0x100 DUP1 DUP4 SLOAD DIV MUL DUP4 MSTORE SWAP2 PUSH1 0x20 ADD SWAP2 PUSH2 0x5F7 JUMP JUMPDEST DUP3 ADD SWAP2 SWAP1 PUSH1 0x0 MSTORE PUSH1 0x20 PUSH1 0x0 KECCAK256 SWAP1 JUMPDEST DUP2 SLOAD DUP2 MSTORE SWAP1 PUSH1 0x1 ADD SWAP1 PUSH1 0x20 ADD DUP1 DUP4 GT PUSH2 0x5DA JUMPI DUP3 SWAP1 SUB PUSH1 0x1F AND DUP3 ADD SWAP2 JUMPDEST POP POP POP POP POP SWAP1 DUP1 PUSH1 0x2 ADD DUP1 SLOAD PUSH2 0x60C SWAP1 PUSH2 0xBF5 JUMP JUMPDEST DUP1 PUSH1 0x1F ADD PUSH1 0x20 DUP1 SWAP2 DIV MUL PUSH1 0x20 ADD PUSH1 0x40 MLOAD SWAP1 DUP2 ADD PUSH1 0x40 MSTORE DUP1 SWAP3 SWAP2 SWAP1 DUP2 DUP2 MSTORE PUSH1 0x20 ADD DUP3 DUP1 SLOAD PUSH2 0x638 SWAP1 PUSH2 0xBF5 JUMP JUMPDEST DUP1 ISZERO PUSH2 0x685 JUMPI DUP1 PUSH1 0x1F LT PUSH2 0x65A JUMPI PUSH2 0x100 DUP1 DUP4 SLOAD DIV MUL DUP4 MSTORE SWAP2 PUSH1 0x20 ADD SWAP2 PUSH2 0x685 JUMP JUMPDEST DUP3 ADD SWAP2 SWAP1 PUSH1 0x0 MSTORE PUSH1 0x20 PUSH1 0x0 KECCAK256 SWAP1 JUMPDEST DUP2 SLOAD DUP2 MSTORE SWAP1 PUSH1 0x1 ADD SWAP1 PUSH1 0x20 ADD DUP1 DUP4 GT PUSH2 0x668 JUMPI DUP3 SWAP1 SUB PUSH1 0x1F AND DUP3 ADD SWAP2 JUMPDEST POP POP POP POP POP SWAP1 POP DUP4 JUMP JUMPDEST PUSH1 0x7 DUP2 DUP1 MLOAD PUSH1 0x20 DUP2 ADD DUP3 ADD DUP1 MLOAD DUP5 DUP3 MSTORE PUSH1 0x20 DUP4 ADD PUSH1 0x20 DUP6 ADD KECCAK256 DUP2 DUP4 MSTORE DUP1 SWAP6 POP POP POP POP POP POP PUSH1 0x0 SWAP2 POP SWAP1 POP SLOAD DUP2 JUMP JUMPDEST DUP4 DUP4 DUP4 DUP4 PUSH1 0x40 MLOAD PUSH1 0x20 ADD PUSH2 0x6D4 SWAP5 SWAP4 SWAP3 SWAP2 SWAP1 PUSH2 0xCE2 JUMP JUMPDEST PUSH1 0x40 MLOAD PUSH1 0x20 DUP2 DUP4 SUB SUB DUP2 MSTORE SWAP1 PUSH1 0x40 MSTORE DUP1 MLOAD SWAP1 PUSH1 0x20 ADD KECCAK256 PUSH1 0x5 DUP2 SWAP1 SSTORE POP POP POP POP POP JUMP JUMPDEST DUP3 DUP1 SLOAD PUSH2 0x702 SWAP1 PUSH2 0xBF5 JUMP JUMPDEST SWAP1 PUSH1 0x0 MSTORE PUSH1 0x20 PUSH1 0x0 KECCAK256 SWAP1 PUSH1 0x1F ADD PUSH1 0x20 SWAP1 DIV DUP2 ADD SWAP3 DUP3 PUSH2 0x724 JUMPI PUSH1 0x0 DUP6 SSTORE PUSH2 0x76B JUMP JUMPDEST DUP3 PUSH1 0x1F LT PUSH2 0x73D JUMPI DUP1 MLOAD PUSH1 0xFF NOT AND DUP4 DUP1 ADD OR DUP6 SSTORE PUSH2 0x76B JUMP JUMPDEST DUP3 DUP1 ADD PUSH1 0x1 ADD DUP6 SSTORE DUP3 ISZERO PUSH2 0x76B JUMPI SWAP2 DUP3 ADD JUMPDEST DUP3 DUP2 GT ISZERO PUSH2 0x76A JUMPI DUP3 MLOAD DUP3 SSTORE SWAP2 PUSH1 0x20 ADD SWAP2 SWAP1 PUSH1 0x1 ADD SWAP1 PUSH2 0x74F JUMP JUMPDEST JUMPDEST POP SWAP1 POP PUSH2 0x778 SWAP2 SWAP1 PUSH2 0x77C JUMP JUMPDEST POP SWAP1 JUMP JUMPDEST JUMPDEST DUP1 DUP3 GT ISZERO PUSH2 0x795 JUMPI PUSH1 0x0 DUP2 PUSH1 0x0 SWAP1 SSTORE POP PUSH1 0x1 ADD PUSH2 0x77D JUMP JUMPDEST POP SWAP1 JUMP JUMPDEST PUSH1 0x0 DUP2 SWAP1 POP SWAP2 SWAP1 POP JUMP JUMPDEST PUSH2 0x7AC DUP2 PUSH2 0x799 JUMP JUMPDEST DUP3 MSTORE POP POP JUMP JUMPDEST PUSH1 0x0 PUSH1 0x20 DUP3 ADD SWAP1 POP PUSH2 0x7C7 PUSH1 0x0 DUP4 ADD DUP5 PUSH2 0x7A3 JUMP JUMPDEST SWAP3 SWAP2 POP POP JUMP JUMPDEST PUSH1 0x0 PUSH1 0x40 MLOAD SWAP1 POP SWAP1 JUMP JUMPDEST PUSH1 0x0 DUP1 REVERT JUMPDEST PUSH1 0x0 DUP1 REVERT JUMPDEST PUSH1 0x0 DUP1 REVERT JUMPDEST PUSH1 0x0 DUP1 REVERT JUMPDEST PUSH1 0x0 PUSH1 0x1F NOT PUSH1 0x1F DUP4 ADD AND SWAP1 POP SWAP2 SWAP1 POP JUMP JUMPDEST PUSH32 0x4E487B7100000000000000000000000000000000000000000000000000000000 PUSH1 0x0 MSTORE PUSH1 0x41 PUSH1 0x4 MSTORE PUSH1 0x24 PUSH1 0x0 REVERT JUMPDEST PUSH2 0x834 DUP3 PUSH2 0x7EB JUMP JUMPDEST DUP2 ADD DUP2 DUP2 LT PUSH8 0xFFFFFFFFFFFFFFFF DUP3 GT OR ISZERO PUSH2 0x853 JUMPI PUSH2 0x852 PUSH2 0x7FC JUMP JUMPDEST JUMPDEST DUP1 PUSH1 0x40 MSTORE POP POP POP JUMP JUMPDEST PUSH1 0x0 PUSH2 0x866 PUSH2 0x7CD JUMP JUMPDEST SWAP1 POP PUSH2 0x872 DUP3 DUP3 PUSH2 0x82B JUMP JUMPDEST SWAP2 SWAP1 POP JUMP JUMPDEST PUSH1 0x0 PUSH8 0xFFFFFFFFFFFFFFFF DUP3 GT ISZERO PUSH2 0x892 JUMPI PUSH2 0x891 PUSH2 0x7FC JUMP JUMPDEST JUMPDEST PUSH2 0x89B DUP3 PUSH2 0x7EB JUMP JUMPDEST SWAP1 POP PUSH1 0x20 DUP2 ADD SWAP1 POP SWAP2 SWAP1 POP JUMP JUMPDEST DUP3 DUP2 DUP4 CALLDATACOPY PUSH1 0x0 DUP4 DUP4 ADD MSTORE POP POP POP JUMP JUMPDEST PUSH1 0x0 PUSH2 0x8CA PUSH2 0x8C5 DUP5 PUSH2 0x877 JUMP JUMPDEST PUSH2 0x85C JUMP JUMPDEST SWAP1 POP DUP3 DUP2 MSTORE PUSH1 0x20 DUP2 ADD DUP5 DUP5 DUP5 ADD GT ISZERO PUSH2 0x8E6 JUMPI PUSH2 0x8E5 PUSH2 0x7E6 JUMP JUMPDEST JUMPDEST PUSH2 0x8F1 DUP5 DUP3 DUP6 PUSH2 0x8A8 JUMP JUMPDEST POP SWAP4 SWAP3 POP POP POP JUMP JUMPDEST PUSH1 0x0 DUP3 PUSH1 0x1F DUP4 ADD SLT PUSH2 0x90E JUMPI PUSH2 0x90D PUSH2 0x7E1 JUMP JUMPDEST JUMPDEST DUP2 CALLDATALOAD PUSH2 0x91E DUP5 DUP3 PUSH1 0x20 DUP7 ADD PUSH2 0x8B7 JUMP JUMPDEST SWAP2 POP POP SWAP3 SWAP2 POP POP JUMP JUMPDEST PUSH1 0x0 PUSH1 0x20 DUP3 DUP5 SUB SLT ISZERO PUSH2 0x93D JUMPI PUSH2 0x93C PUSH2 0x7D7 JUMP JUMPDEST JUMPDEST PUSH1 0x0 DUP3 ADD CALLDATALOAD PUSH8 0xFFFFFFFFFFFFFFFF DUP2 GT ISZERO PUSH2 0x95B JUMPI PUSH2 0x95A PUSH2 0x7DC JUMP JUMPDEST JUMPDEST PUSH2 0x967 DUP5 DUP3 DUP6 ADD PUSH2 0x8F9 JUMP JUMPDEST SWAP2 POP POP SWAP3 SWAP2 POP POP JUMP JUMPDEST PUSH1 0x0 DUP2 SWAP1 POP SWAP2 SWAP1 POP JUMP JUMPDEST PUSH2 0x983 DUP2 PUSH2 0x970 JUMP JUMPDEST DUP2 EQ PUSH2 0x98E JUMPI PUSH1 0x0 DUP1 REVERT JUMPDEST POP JUMP JUMPDEST PUSH1 0x0 DUP2 CALLDATALOAD SWAP1 POP PUSH2 0x9A0 DUP2 PUSH2 0x97A JUMP JUMPDEST SWAP3 SWAP2 POP POP JUMP JUMPDEST PUSH1 0x0 PUSH1 0x20 DUP3 DUP5 SUB SLT ISZERO PUSH2 0x9BC JUMPI PUSH2 0x9BB PUSH2 0x7D7 JUMP JUMPDEST JUMPDEST PUSH1 0x0 PUSH2 0x9CA DUP5 DUP3 DUP6 ADD PUSH2 0x991 JUMP JUMPDEST SWAP2 POP POP SWAP3 SWAP2 POP POP JUMP JUMPDEST PUSH1 0x0 PUSH20 0xFFFFFFFFFFFFFFFFFFFFFFFFFFFFFFFFFFFFFFFF DUP3 AND SWAP1 POP SWAP2 SWAP1 POP JUMP JUMPDEST PUSH1 0x0 PUSH2 0x9FE DUP3 PUSH2 0x9D3 JUMP JUMPDEST SWAP1 POP SWAP2 SWAP1 POP JUMP JUMPDEST PUSH2 0xA0E DUP2 PUSH2 0x9F3 JUMP JUMPDEST DUP3 MSTORE POP POP JUMP JUMPDEST PUSH1 0x0 PUSH1 0x20 DUP3 ADD SWAP1 POP PUSH2 0xA29 PUSH1 0x0 DUP4 ADD DUP5 PUSH2 0xA05 JUMP JUMPDEST SWAP3 SWAP2 POP POP JUMP JUMPDEST PUSH2 0xA38 DUP2 PUSH2 0x970 JUMP JUMPDEST DUP3 MSTORE POP POP JUMP JUMPDEST PUSH1 0x0 DUP2 MLOAD SWAP1 POP SWAP2 SWAP1 POP JUMP JUMPDEST PUSH1 0x0 DUP3 DUP3 MSTORE PUSH1 0x20 DUP3 ADD SWAP1 POP SWAP3 SWAP2 POP POP JUMP JUMPDEST PUSH1 0x0 JUMPDEST DUP4 DUP2 LT ISZERO PUSH2 0xA78 JUMPI DUP1 DUP3 ADD MLOAD DUP2 DUP5 ADD MSTORE PUSH1 0x20 DUP2 ADD SWAP1 POP PUSH2 0xA5D JUMP JUMPDEST DUP4 DUP2 GT ISZERO PUSH2 0xA87 JUMPI PUSH1 0x0 DUP5 DUP5 ADD MSTORE JUMPDEST POP POP POP POP JUMP JUMPDEST PUSH1 0x0 PUSH2 0xA98 DUP3 PUSH2 0xA3E JUMP JUMPDEST PUSH2 0xAA2 DUP2 DUP6 PUSH2 0xA49 JUMP JUMPDEST SWAP4 POP PUSH2 0xAB2 DUP2 DUP6 PUSH1 0x20 DUP7 ADD PUSH2 0xA5A JUMP JUMPDEST PUSH2 0xABB DUP2 PUSH2 0x7EB JUMP JUMPDEST DUP5 ADD SWAP2 POP POP SWAP3 SWAP2 POP POP JUMP JUMPDEST PUSH1 0x0 PUSH1 0x80 DUP3 ADD SWAP1 POP PUSH2 0xADB PUSH1 0x0 DUP4 ADD DUP8 PUSH2 0xA2F JUMP JUMPDEST DUP2 DUP2 SUB PUSH1 0x20 DUP4 ADD MSTORE PUSH2 0xAED DUP2 DUP7 PUSH2 0xA8D JUMP JUMPDEST SWAP1 POP PUSH2 0xAFC PUSH1 0x40 DUP4 ADD DUP6 PUSH2 0xA05 JUMP JUMPDEST PUSH2 0xB09 PUSH1 0x60 DUP4 ADD DUP5 PUSH2 0xA2F JUMP JUMPDEST SWAP6 SWAP5 POP POP POP POP POP JUMP JUMPDEST PUSH1 0x0 DUP1 PUSH1 0x0 PUSH1 0x60 DUP5 DUP7 SUB SLT ISZERO PUSH2 0xB2B JUMPI PUSH2 0xB2A PUSH2 0x7D7 JUMP JUMPDEST JUMPDEST PUSH1 0x0 PUSH2 0xB39 DUP7 DUP3 DUP8 ADD PUSH2 0x991 JUMP JUMPDEST SWAP4 POP POP PUSH1 0x20 DUP5 ADD CALLDATALOAD PUSH8 0xFFFFFFFFFFFFFFFF DUP2 GT ISZERO PUSH2 0xB5A JUMPI PUSH2 0xB59 PUSH2 0x7DC JUMP JUMPDEST JUMPDEST PUSH2 0xB66 DUP7 DUP3 DUP8 ADD PUSH2 0x8F9 JUMP JUMPDEST SWAP3 POP POP PUSH1 0x40 PUSH2 0xB77 DUP7 DUP3 DUP8 ADD PUSH2 0x991 JUMP JUMPDEST SWAP2 POP POP SWAP3 POP SWAP3 POP SWAP3 JUMP JUMPDEST PUSH1 0x0 PUSH1 0x60 DUP3 ADD SWAP1 POP PUSH2 0xB96 PUSH1 0x0 DUP4 ADD DUP7 PUSH2 0xA2F JUMP JUMPDEST DUP2 DUP2 SUB PUSH1 0x20 DUP4 ADD MSTORE PUSH2 0xBA8 DUP2 DUP6 PUSH2 0xA8D JUMP JUMPDEST SWAP1 POP DUP2 DUP2 SUB PUSH1 0x40 DUP4 ADD MSTORE PUSH2 0xBBC DUP2 DUP5 PUSH2 0xA8D JUMP JUMPDEST SWAP1 POP SWAP5 SWAP4 POP POP POP POP JUMP JUMPDEST PUSH32 0x4E487B7100000000000000000000000000000000000000000000000000000000 PUSH1 0x0 MSTORE PUSH1 0x22 PUSH1 0x4 MSTORE PUSH1 0x24 PUSH1 0x0 REVERT JUMPDEST PUSH1 0x0 PUSH1 0x2 DUP3 DIV SWAP1 POP PUSH1 0x1 DUP3 AND DUP1 PUSH2 0xC0D JUMPI PUSH1 0x7F DUP3 AND SWAP2 POP JUMPDEST PUSH1 0x20 DUP3 LT DUP2 SUB PUSH2 0xC20 JUMPI PUSH2 0xC1F PUSH2 0xBC6 JUMP JUMPDEST JUMPDEST POP SWAP2 SWAP1 POP JUMP JUMPDEST PUSH1 0x0 DUP2 SWAP1 POP SWAP3 SWAP2 POP POP JUMP JUMPDEST PUSH1 0x0 PUSH2 0xC3C DUP3 PUSH2 0xA3E JUMP JUMPDEST PUSH2 0xC46 DUP2 DUP6 PUSH2 0xC26 JUMP JUMPDEST SWAP4 POP PUSH2 0xC56 DUP2 DUP6 PUSH1 0x20 DUP7 ADD PUSH2 0xA5A JUMP JUMPDEST DUP1 DUP5 ADD SWAP2 POP POP SWAP3 SWAP2 POP POP JUMP JUMPDEST PUSH1 0x0 PUSH2 0xC6E DUP3 DUP5 PUSH2 0xC31 JUMP JUMPDEST SWAP2 POP DUP2 SWAP1 POP SWAP3 SWAP2 POP POP JUMP JUMPDEST PUSH1 0x0 DUP2 SWAP1 POP SWAP2 SWAP1 POP JUMP JUMPDEST PUSH2 0xC94 PUSH2 0xC8F DUP3 PUSH2 0x970 JUMP JUMPDEST PUSH2 0xC79 JUMP JUMPDEST DUP3 MSTORE POP POP JUMP JUMPDEST PUSH1 0x0 DUP2 PUSH1 0x60 SHL SWAP1 POP SWAP2 SWAP1 POP JUMP JUMPDEST PUSH1 0x0 PUSH2 0xCB2 DUP3 PUSH2 0xC9A JUMP JUMPDEST SWAP1 POP SWAP2 SWAP1 POP JUMP JUMPDEST PUSH1 0x0 PUSH2 0xCC4 DUP3 PUSH2 0xCA7 JUMP JUMPDEST SWAP1 POP SWAP2 SWAP1 POP JUMP JUMPDEST PUSH2 0xCDC PUSH2 0xCD7 DUP3 PUSH2 0x9F3 JUMP JUMPDEST PUSH2 0xCB9 JUMP JUMPDEST DUP3 MSTORE POP POP JUMP JUMPDEST PUSH1 0x0 PUSH2 0xCEE DUP3 DUP8 PUSH2 0xC83 JUMP JUMPDEST PUSH1 0x20 DUP3 ADD SWAP2 POP PUSH2 0xCFE DUP3 DUP7 PUSH2 0xC31 JUMP JUMPDEST SWAP2 POP PUSH2 0xD0A DUP3 DUP6 PUSH2 0xCCB JUMP JUMPDEST PUSH1 0x14 DUP3 ADD SWAP2 POP PUSH2 0xD1A DUP3 DUP5 PUSH2 0xC83 JUMP JUMPDEST PUSH1 0x20 DUP3 ADD SWAP2 POP DUP2 SWAP1 POP SWAP6 SWAP5 POP POP POP POP POP JUMP INVALID LOG2 PUSH5 0x6970667358 0x22 SLT KECCAK256 RETURNDATACOPY SWAP10 CALL SGT MULMOD 0xBF REVERT MULMOD CALL 0xE2 SGT 0xAB ADDMOD 0x4E 0xBC GT SELFBALANCE 0xE3 LT SHR EXTCODEHASH 0xA5 DUP5 INVALID 0xC7 PUSH4 0x7C20DAA3 0xF6 SHR PUSH5 0x736F6C6343 STOP ADDMOD 0xD STOP CALLER "
				},
				"gasEstimates": {
					"creation": {
						"codeDepositCost": "685200",
						"executionCost": "721",
						"totalCost": "685921"
					},
					"external": {
						"alumno_hash(string)": "infinite",
						"alumnos(uint256)": "infinite",
						"calularHash(string)": "infinite",
						"crearHamburguesa(string)": "infinite",
						"direcciones(uint256)": "5023",
						"hamburguesa()": "infinite",
						"hash()": "2430",
						"hash_id_alumno()": "2473",
						"nuevaDireccion()": "48767",
						"nuevoAlumno(uint256,string,uint256)": "infinite"
					},
					"internal": {
						"hashIdAlumno(uint256,string memory,address,uint256)": "infinite"
					}
				},
				"methodIdentifiers": {
					"alumno_hash(string)": "dd1eb06b",
					"alumnos(uint256)": "69ddcade",
					"calularHash(string)": "a7469ee3",
					"crearHamburguesa(string)": "33c83dbd",
					"direcciones(uint256)": "547cbcad",
					"hamburguesa()": "c74efaef",
					"hash()": "09bd5a60",
					"hash_id_alumno()": "b4f57473",
					"nuevaDireccion()": "42d73314",
					"nuevoAlumno(uint256,string,uint256)": "9e26bc4f"
				}
			},
			"storageLayout": {
				"storage": [
					{
						"astId": 5,
						"contract": "Funciones/funciones.sol:Funciones",
						"label": "direcciones",
						"offset": 0,
						"slot": "0",
						"type": "t_array(t_address)dyn_storage"
					},
					{
						"astId": 18,
						"contract": "Funciones/funciones.sol:Funciones",
						"label": "hash",
						"offset": 0,
						"slot": "1",
						"type": "t_bytes32"
					},
					{
						"astId": 43,
						"contract": "Funciones/funciones.sol:Funciones",
						"label": "hamburguesa",
						"offset": 0,
						"slot": "2",
						"type": "t_struct(Comida)40_storage"
					},
					{
						"astId": 68,
						"contract": "Funciones/funciones.sol:Funciones",
						"label": "hash_id_alumno",
						"offset": 0,
						"slot": "5",
						"type": "t_bytes32"
					},
					{
						"astId": 72,
						"contract": "Funciones/funciones.sol:Funciones",
						"label": "alumnos",
						"offset": 0,
						"slot": "6",
						"type": "t_array(t_struct(Alumno)66_storage)dyn_storage"
					},
					{
						"astId": 76,
						"contract": "Funciones/funciones.sol:Funciones",
						"label": "alumno_hash",
						"offset": 0,
						"slot": "7",
						"type": "t_mapping(t_string_memory_ptr,t_bytes32)"
					}
				],
				"types": {
					"t_address": {
						"encoding": "inplace",
						"label": "address",
						"numberOfBytes": "20"
					},
					"t_array(t_address)dyn_storage": {
						"base": "t_address",
						"encoding": "dynamic_array",
						"label": "address[]",
						"numberOfBytes": "32"
					},
					"t_array(t_struct(Alumno)66_storage)dyn_storage": {
						"base": "t_struct(Alumno)66_storage",
						"encoding": "dynamic_array",
						"label": "struct Funciones.Alumno[]",
						"numberOfBytes": "32"
					},
					"t_bytes32": {
						"encoding": "inplace",
						"label": "bytes32",
						"numberOfBytes": "32"
					},
					"t_mapping(t_string_memory_ptr,t_bytes32)": {
						"encoding": "mapping",
						"key": "t_string_memory_ptr",
						"label": "mapping(string => bytes32)",
						"numberOfBytes": "32",
						"value": "t_bytes32"
					},
					"t_string_memory_ptr": {
						"encoding": "bytes",
						"label": "string",
						"numberOfBytes": "32"
					},
					"t_string_storage": {
						"encoding": "bytes",
						"label": "string",
						"numberOfBytes": "32"
					},
					"t_struct(Alumno)66_storage": {
						"encoding": "inplace",
						"label": "struct Funciones.Alumno",
						"members": [
							{
								"astId": 59,
								"contract": "Funciones/funciones.sol:Funciones",
								"label": "id",
								"offset": 0,
								"slot": "0",
								"type": "t_uint256"
							},
							{
								"astId": 61,
								"contract": "Funciones/funciones.sol:Funciones",
								"label": "nombre",
								"offset": 0,
								"slot": "1",
								"type": "t_string_storage"
							},
							{
								"astId": 63,
								"contract": "Funciones/funciones.sol:Funciones",
								"label": "direccion",
								"offset": 0,
								"slot": "2",
								"type": "t_address"
							},
							{
								"astId": 65,
								"contract": "Funciones/funciones.sol:Funciones",
								"label": "edad",
								"offset": 0,
								"slot": "3",
								"type": "t_uint256"
							}
						],
						"numberOfBytes": "128"
					},
					"t_struct(Comida)40_storage": {
						"encoding": "inplace",
						"label": "struct Funciones.Comida",
						"members": [
							{
								"astId": 35,
								"contract": "Funciones/funciones.sol:Funciones",
								"label": "id",
								"offset": 0,
								"slot": "0",
								"type": "t_uint256"
							},
							{
								"astId": 37,
								"contract": "Funciones/funciones.sol:Funciones",
								"label": "nombre",
								"offset": 0,
								"slot": "1",
								"type": "t_string_storage"
							},
							{
								"astId": 39,
								"contract": "Funciones/funciones.sol:Funciones",
								"label": "ingredientes",
								"offset": 0,
								"slot": "2",
								"type": "t_string_storage"
							}
						],
						"numberOfBytes": "96"
					},
					"t_uint256": {
						"encoding": "inplace",
						"label": "uint256",
						"numberOfBytes": "32"
					}
				}
			},
			"userdoc": {
				"kind": "user",
				"methods": {},
				"version": 1
			}
		}
	}
}