{
	"Funciones/causas beneficas.sol": {
		"CausasBeneficas": {
			"abi": [
				{
					"inputs": [
						{
							"internalType": "string",
							"name": "_nombre",
							"type": "string"
						}
					],
					"name": "comprobarCausa",
					"outputs": [
						{
							"internalType": "bool",
							"name": "",
							"type": "bool"
						},
						{
							"internalType": "uint256",
							"name": "",
							"type": "uint256"
						}
					],
					"stateMutability": "view",
					"type": "function"
				},
				{
					"inputs": [
						{
							"internalType": "string",
							"name": "_nombre",
							"type": "string"
						},
						{
							"internalType": "uint256",
							"name": "_cantidad",
							"type": "uint256"
						}
					],
					"name": "donar",
					"outputs": [
						{
							"internalType": "bool",
							"name": "",
							"type": "bool"
						}
					],
					"stateMutability": "nonpayable",
					"type": "function"
				},
				{
					"inputs": [
						{
							"internalType": "string",
							"name": "_nombre",
							"type": "string"
						},
						{
							"internalType": "uint256",
							"name": "_recaudacion_objetivo",
							"type": "uint256"
						}
					],
					"name": "nuevaCausa",
					"outputs": [],
					"stateMutability": "payable",
					"type": "function"
				}
			],
			"devdoc": {
				"kind": "dev",
				"methods": {},
				"version": 1
			},
			"evm": {
				"assembly": "    /* \"Funciones/causas beneficas.sol\":70:1352  contract CausasBeneficas{... */\n  mstore(0x40, 0x80)\n    /* \"Funciones/causas beneficas.sol\":297:298  0 */\n  0x00\n    /* \"Funciones/causas beneficas.sol\":274:298  uint contador_causas = 0 */\n  dup1\n  sstore\n    /* \"Funciones/causas beneficas.sol\":70:1352  contract CausasBeneficas{... */\n  callvalue\n  dup1\n  iszero\n  tag_1\n  jumpi\n  0x00\n  dup1\n  revert\ntag_1:\n  pop\n  dataSize(sub_0)\n  dup1\n  dataOffset(sub_0)\n  0x00\n  codecopy\n  0x00\n  return\nstop\n\nsub_0: assembly {\n        /* \"Funciones/causas beneficas.sol\":70:1352  contract CausasBeneficas{... */\n      mstore(0x40, 0x80)\n      jumpi(tag_1, lt(calldatasize, 0x04))\n      shr(0xe0, calldataload(0x00))\n      dup1\n      0x2ca08792\n      eq\n      tag_2\n      jumpi\n      dup1\n      0x45cd81b3\n      eq\n      tag_3\n      jumpi\n      dup1\n      0x7109005c\n      eq\n      tag_4\n      jumpi\n    tag_1:\n      0x00\n      dup1\n      revert\n        /* \"Funciones/causas beneficas.sol\":391:613  function nuevaCausa(string memory _nombre, uint _recaudacion_objetivo) public payable{... */\n    tag_2:\n      tag_5\n      0x04\n      dup1\n      calldatasize\n      sub\n      dup2\n      add\n      swap1\n      tag_6\n      swap2\n      swap1\n      tag_7\n      jump\t// in\n    tag_6:\n      tag_8\n      jump\t// in\n    tag_5:\n      stop\n        /* \"Funciones/causas beneficas.sol\":672:963  function donar(string memory _nombre, uint _cantidad) public returns(bool){... */\n    tag_3:\n      callvalue\n      dup1\n      iszero\n      tag_9\n      jumpi\n      0x00\n      dup1\n      revert\n    tag_9:\n      pop\n      tag_10\n      0x04\n      dup1\n      calldatasize\n      sub\n      dup2\n      add\n      swap1\n      tag_11\n      swap2\n      swap1\n      tag_7\n      jump\t// in\n    tag_11:\n      tag_12\n      jump\t// in\n    tag_10:\n      mload(0x40)\n      tag_13\n      swap2\n      swap1\n      tag_14\n      jump\t// in\n    tag_13:\n      mload(0x40)\n      dup1\n      swap2\n      sub\n      swap1\n      return\n        /* \"Funciones/causas beneficas.sol\":1042:1349  function comprobarCausa(string memory _nombre) public view returns(bool,uint){... */\n    tag_4:\n      callvalue\n      dup1\n      iszero\n      tag_15\n      jumpi\n      0x00\n      dup1\n      revert\n    tag_15:\n      pop\n      tag_16\n      0x04\n      dup1\n      calldatasize\n      sub\n      dup2\n      add\n      swap1\n      tag_17\n      swap2\n      swap1\n      tag_18\n      jump\t// in\n    tag_17:\n      tag_19\n      jump\t// in\n    tag_16:\n      mload(0x40)\n      tag_20\n      swap3\n      swap2\n      swap1\n      tag_21\n      jump\t// in\n    tag_20:\n      mload(0x40)\n      dup1\n      swap2\n      sub\n      swap1\n      return\n        /* \"Funciones/causas beneficas.sol\":391:613  function nuevaCausa(string memory _nombre, uint _recaudacion_objetivo) public payable{... */\n    tag_8:\n        /* \"Funciones/causas beneficas.sol\":505:520  contador_causas */\n      0x00\n      dup1\n        /* \"Funciones/causas beneficas.sol\":505:522  contador_causas++ */\n      dup2\n      sload\n      dup1\n      swap3\n      swap2\n      swap1\n      tag_23\n      swap1\n      tag_24\n      jump\t// in\n    tag_23:\n      swap2\n      swap1\n      pop\n      sstore\n        /* \"Funciones/causas beneficas.sol\":487:502  contador_causas */\n      0x00\n        /* \"Funciones/causas beneficas.sol\":487:522  contador_causas = contador_causas++ */\n      dup2\n      swap1\n      sstore\n      pop\n        /* \"Funciones/causas beneficas.sol\":551:605  Causa(contador_causas,_nombre,_recaudacion_objetivo,0) */\n      mload(0x40)\n      dup1\n      0x80\n      add\n      0x40\n      mstore\n      dup1\n        /* \"Funciones/causas beneficas.sol\":557:572  contador_causas */\n      sload(0x00)\n        /* \"Funciones/causas beneficas.sol\":551:605  Causa(contador_causas,_nombre,_recaudacion_objetivo,0) */\n      dup2\n      mstore\n      0x20\n      add\n        /* \"Funciones/causas beneficas.sol\":573:580  _nombre */\n      dup4\n        /* \"Funciones/causas beneficas.sol\":551:605  Causa(contador_causas,_nombre,_recaudacion_objetivo,0) */\n      dup2\n      mstore\n      0x20\n      add\n        /* \"Funciones/causas beneficas.sol\":581:602  _recaudacion_objetivo */\n      dup3\n        /* \"Funciones/causas beneficas.sol\":551:605  Causa(contador_causas,_nombre,_recaudacion_objetivo,0) */\n      dup2\n      mstore\n      0x20\n      add\n        /* \"Funciones/causas beneficas.sol\":603:604  0 */\n      0x00\n        /* \"Funciones/causas beneficas.sol\":551:605  Causa(contador_causas,_nombre,_recaudacion_objetivo,0) */\n      dup2\n      mstore\n      pop\n        /* \"Funciones/causas beneficas.sol\":533:539  causas */\n      0x01\n        /* \"Funciones/causas beneficas.sol\":540:547  _nombre */\n      dup4\n        /* \"Funciones/causas beneficas.sol\":533:548  causas[_nombre] */\n      mload(0x40)\n      tag_25\n      swap2\n      swap1\n      tag_26\n      jump\t// in\n    tag_25:\n      swap1\n      dup2\n      mstore\n      0x20\n      add\n      mload(0x40)\n      dup1\n      swap2\n      sub\n      swap1\n      keccak256\n        /* \"Funciones/causas beneficas.sol\":533:605  causas[_nombre] = Causa(contador_causas,_nombre,_recaudacion_objetivo,0) */\n      0x00\n      dup3\n      add\n      mload\n      dup2\n      0x00\n      add\n      sstore\n      0x20\n      dup3\n      add\n      mload\n      dup2\n      0x01\n      add\n      swap1\n      dup1\n      mload\n      swap1\n      0x20\n      add\n      swap1\n      tag_27\n      swap3\n      swap2\n      swap1\n      tag_28\n      jump\t// in\n    tag_27:\n      pop\n      0x40\n      dup3\n      add\n      mload\n      dup2\n      0x02\n      add\n      sstore\n      0x60\n      dup3\n      add\n      mload\n      dup2\n      0x03\n      add\n      sstore\n      swap1\n      pop\n      pop\n        /* \"Funciones/causas beneficas.sol\":391:613  function nuevaCausa(string memory _nombre, uint _recaudacion_objetivo) public payable{... */\n      pop\n      pop\n      jump\t// out\n        /* \"Funciones/causas beneficas.sol\":672:963  function donar(string memory _nombre, uint _cantidad) public returns(bool){... */\n    tag_12:\n        /* \"Funciones/causas beneficas.sol\":741:745  bool */\n      0x00\n        /* \"Funciones/causas beneficas.sol\":795:801  causas */\n      0x01\n        /* \"Funciones/causas beneficas.sol\":802:809  _nombre */\n      dup4\n        /* \"Funciones/causas beneficas.sol\":795:810  causas[_nombre] */\n      mload(0x40)\n      tag_30\n      swap2\n      swap1\n      tag_26\n      jump\t// in\n    tag_30:\n      swap1\n      dup2\n      mstore\n      0x20\n      add\n      mload(0x40)\n      dup1\n      swap2\n      sub\n      swap1\n      keccak256\n        /* \"Funciones/causas beneficas.sol\":795:831  causas[_nombre].recaudacion_objetivo */\n      0x02\n      add\n      sload\n        /* \"Funciones/causas beneficas.sol\":760:766  causas */\n      0x01\n        /* \"Funciones/causas beneficas.sol\":767:774  _nombre */\n      dup5\n        /* \"Funciones/causas beneficas.sol\":760:775  causas[_nombre] */\n      mload(0x40)\n      tag_31\n      swap2\n      swap1\n      tag_26\n      jump\t// in\n    tag_31:\n      swap1\n      dup2\n      mstore\n      0x20\n      add\n      mload(0x40)\n      dup1\n      swap2\n      sub\n      swap1\n      keccak256\n        /* \"Funciones/causas beneficas.sol\":760:792  causas[_nombre].dinero_recaudado */\n      0x03\n      add\n      sload\n        /* \"Funciones/causas beneficas.sol\":760:831  causas[_nombre].dinero_recaudado < causas[_nombre].recaudacion_objetivo */\n      lt\n        /* \"Funciones/causas beneficas.sol\":757:933  if(causas[_nombre].dinero_recaudado < causas[_nombre].recaudacion_objetivo){... */\n      iszero\n      tag_32\n      jumpi\n        /* \"Funciones/causas beneficas.sol\":883:892  _cantidad */\n      dup2\n        /* \"Funciones/causas beneficas.sol\":847:853  causas */\n      0x01\n        /* \"Funciones/causas beneficas.sol\":854:861  _nombre */\n      dup5\n        /* \"Funciones/causas beneficas.sol\":847:862  causas[_nombre] */\n      mload(0x40)\n      tag_33\n      swap2\n      swap1\n      tag_26\n      jump\t// in\n    tag_33:\n      swap1\n      dup2\n      mstore\n      0x20\n      add\n      mload(0x40)\n      dup1\n      swap2\n      sub\n      swap1\n      keccak256\n        /* \"Funciones/causas beneficas.sol\":847:879  causas[_nombre].dinero_recaudado */\n      0x03\n      add\n      0x00\n        /* \"Funciones/causas beneficas.sol\":847:892  causas[_nombre].dinero_recaudado += _cantidad */\n      dup3\n      dup3\n      sload\n      tag_34\n      swap2\n      swap1\n      tag_35\n      jump\t// in\n    tag_34:\n      swap3\n      pop\n      pop\n      dup2\n      swap1\n      sstore\n      pop\n        /* \"Funciones/causas beneficas.sol\":914:918  true */\n      0x01\n        /* \"Funciones/causas beneficas.sol\":907:918  return true */\n      swap1\n      pop\n      jump(tag_29)\n        /* \"Funciones/causas beneficas.sol\":757:933  if(causas[_nombre].dinero_recaudado < causas[_nombre].recaudacion_objetivo){... */\n    tag_32:\n        /* \"Funciones/causas beneficas.sol\":950:955  false */\n      0x00\n        /* \"Funciones/causas beneficas.sol\":943:955  return false */\n      swap1\n      pop\n        /* \"Funciones/causas beneficas.sol\":672:963  function donar(string memory _nombre, uint _cantidad) public returns(bool){... */\n    tag_29:\n      swap3\n      swap2\n      pop\n      pop\n      jump\t// out\n        /* \"Funciones/causas beneficas.sol\":1042:1349  function comprobarCausa(string memory _nombre) public view returns(bool,uint){... */\n    tag_19:\n        /* \"Funciones/causas beneficas.sol\":1109:1113  bool */\n      0x00\n        /* \"Funciones/causas beneficas.sol\":1114:1118  uint */\n      dup1\n        /* \"Funciones/causas beneficas.sol\":1171:1177  causas */\n      0x01\n        /* \"Funciones/causas beneficas.sol\":1178:1185  _nombre */\n      dup4\n        /* \"Funciones/causas beneficas.sol\":1171:1186  causas[_nombre] */\n      mload(0x40)\n      tag_37\n      swap2\n      swap1\n      tag_26\n      jump\t// in\n    tag_37:\n      swap1\n      dup2\n      mstore\n      0x20\n      add\n      mload(0x40)\n      dup1\n      swap2\n      sub\n      swap1\n      keccak256\n        /* \"Funciones/causas beneficas.sol\":1171:1207  causas[_nombre].recaudacion_objetivo */\n      0x02\n      add\n      sload\n        /* \"Funciones/causas beneficas.sol\":1135:1141  causas */\n      0x01\n        /* \"Funciones/causas beneficas.sol\":1142:1149  _nombre */\n      dup5\n        /* \"Funciones/causas beneficas.sol\":1135:1150  causas[_nombre] */\n      mload(0x40)\n      tag_38\n      swap2\n      swap1\n      tag_26\n      jump\t// in\n    tag_38:\n      swap1\n      dup2\n      mstore\n      0x20\n      add\n      mload(0x40)\n      dup1\n      swap2\n      sub\n      swap1\n      keccak256\n        /* \"Funciones/causas beneficas.sol\":1135:1167  causas[_nombre].dinero_recaudado */\n      0x03\n      add\n      sload\n        /* \"Funciones/causas beneficas.sol\":1135:1207  causas[_nombre].dinero_recaudado >= causas[_nombre].recaudacion_objetivo */\n      lt\n        /* \"Funciones/causas beneficas.sol\":1131:1283  if (causas[_nombre].dinero_recaudado >= causas[_nombre].recaudacion_objetivo){... */\n      tag_39\n      jumpi\n        /* \"Funciones/causas beneficas.sol\":1232:1236  true */\n      0x01\n        /* \"Funciones/causas beneficas.sol\":1237:1243  causas */\n      dup1\n        /* \"Funciones/causas beneficas.sol\":1244:1251  _nombre */\n      dup5\n        /* \"Funciones/causas beneficas.sol\":1237:1252  causas[_nombre] */\n      mload(0x40)\n      tag_40\n      swap2\n      swap1\n      tag_26\n      jump\t// in\n    tag_40:\n      swap1\n      dup2\n      mstore\n      0x20\n      add\n      mload(0x40)\n      dup1\n      swap2\n      sub\n      swap1\n      keccak256\n        /* \"Funciones/causas beneficas.sol\":1237:1269  causas[_nombre].dinero_recaudado */\n      0x03\n      add\n      sload\n        /* \"Funciones/causas beneficas.sol\":1224:1270  return (true,causas[_nombre].dinero_recaudado) */\n      swap2\n      pop\n      swap2\n      pop\n      jump(tag_36)\n        /* \"Funciones/causas beneficas.sol\":1131:1283  if (causas[_nombre].dinero_recaudado >= causas[_nombre].recaudacion_objetivo){... */\n    tag_39:\n        /* \"Funciones/causas beneficas.sol\":1302:1307  false */\n      0x00\n        /* \"Funciones/causas beneficas.sol\":1308:1314  causas */\n      0x01\n        /* \"Funciones/causas beneficas.sol\":1315:1322  _nombre */\n      dup5\n        /* \"Funciones/causas beneficas.sol\":1308:1323  causas[_nombre] */\n      mload(0x40)\n      tag_41\n      swap2\n      swap1\n      tag_26\n      jump\t// in\n    tag_41:\n      swap1\n      dup2\n      mstore\n      0x20\n      add\n      mload(0x40)\n      dup1\n      swap2\n      sub\n      swap1\n      keccak256\n        /* \"Funciones/causas beneficas.sol\":1308:1340  causas[_nombre].dinero_recaudado */\n      0x03\n      add\n      sload\n        /* \"Funciones/causas beneficas.sol\":1294:1341  return (false,causas[_nombre].dinero_recaudado) */\n      swap2\n      pop\n      swap2\n      pop\n        /* \"Funciones/causas beneficas.sol\":1042:1349  function comprobarCausa(string memory _nombre) public view returns(bool,uint){... */\n    tag_36:\n      swap2\n      pop\n      swap2\n      jump\t// out\n    tag_28:\n      dup3\n      dup1\n      sload\n      tag_42\n      swap1\n      tag_43\n      jump\t// in\n    tag_42:\n      swap1\n      0x00\n      mstore\n      keccak256(0x00, 0x20)\n      swap1\n      0x1f\n      add\n      0x20\n      swap1\n      div\n      dup2\n      add\n      swap3\n      dup3\n      tag_45\n      jumpi\n      0x00\n      dup6\n      sstore\n      jump(tag_44)\n    tag_45:\n      dup3\n      0x1f\n      lt\n      tag_46\n      jumpi\n      dup1\n      mload\n      not(0xff)\n      and\n      dup4\n      dup1\n      add\n      or\n      dup6\n      sstore\n      jump(tag_44)\n    tag_46:\n      dup3\n      dup1\n      add\n      0x01\n      add\n      dup6\n      sstore\n      dup3\n      iszero\n      tag_44\n      jumpi\n      swap2\n      dup3\n      add\n    tag_47:\n      dup3\n      dup2\n      gt\n      iszero\n      tag_48\n      jumpi\n      dup3\n      mload\n      dup3\n      sstore\n      swap2\n      0x20\n      add\n      swap2\n      swap1\n      0x01\n      add\n      swap1\n      jump(tag_47)\n    tag_48:\n    tag_44:\n      pop\n      swap1\n      pop\n      tag_49\n      swap2\n      swap1\n      tag_50\n      jump\t// in\n    tag_49:\n      pop\n      swap1\n      jump\t// out\n    tag_50:\n    tag_51:\n      dup1\n      dup3\n      gt\n      iszero\n      tag_52\n      jumpi\n      0x00\n      dup2\n      0x00\n      swap1\n      sstore\n      pop\n      0x01\n      add\n      jump(tag_51)\n    tag_52:\n      pop\n      swap1\n      jump\t// out\n        /* \"#utility.yul\":7:82   */\n    tag_53:\n        /* \"#utility.yul\":40:46   */\n      0x00\n        /* \"#utility.yul\":73:75   */\n      0x40\n        /* \"#utility.yul\":67:76   */\n      mload\n        /* \"#utility.yul\":57:76   */\n      swap1\n      pop\n        /* \"#utility.yul\":7:82   */\n      swap1\n      jump\t// out\n        /* \"#utility.yul\":88:205   */\n    tag_54:\n        /* \"#utility.yul\":197:198   */\n      0x00\n        /* \"#utility.yul\":194:195   */\n      dup1\n        /* \"#utility.yul\":187:199   */\n      revert\n        /* \"#utility.yul\":211:328   */\n    tag_55:\n        /* \"#utility.yul\":320:321   */\n      0x00\n        /* \"#utility.yul\":317:318   */\n      dup1\n        /* \"#utility.yul\":310:322   */\n      revert\n        /* \"#utility.yul\":334:451   */\n    tag_56:\n        /* \"#utility.yul\":443:444   */\n      0x00\n        /* \"#utility.yul\":440:441   */\n      dup1\n        /* \"#utility.yul\":433:445   */\n      revert\n        /* \"#utility.yul\":457:574   */\n    tag_57:\n        /* \"#utility.yul\":566:567   */\n      0x00\n        /* \"#utility.yul\":563:564   */\n      dup1\n        /* \"#utility.yul\":556:568   */\n      revert\n        /* \"#utility.yul\":580:682   */\n    tag_58:\n        /* \"#utility.yul\":621:627   */\n      0x00\n        /* \"#utility.yul\":672:674   */\n      0x1f\n        /* \"#utility.yul\":668:675   */\n      not\n        /* \"#utility.yul\":663:665   */\n      0x1f\n        /* \"#utility.yul\":656:661   */\n      dup4\n        /* \"#utility.yul\":652:666   */\n      add\n        /* \"#utility.yul\":648:676   */\n      and\n        /* \"#utility.yul\":638:676   */\n      swap1\n      pop\n        /* \"#utility.yul\":580:682   */\n      swap2\n      swap1\n      pop\n      jump\t// out\n        /* \"#utility.yul\":688:868   */\n    tag_59:\n        /* \"#utility.yul\":736:813   */\n      0x4e487b7100000000000000000000000000000000000000000000000000000000\n        /* \"#utility.yul\":733:734   */\n      0x00\n        /* \"#utility.yul\":726:814   */\n      mstore\n        /* \"#utility.yul\":833:837   */\n      0x41\n        /* \"#utility.yul\":830:831   */\n      0x04\n        /* \"#utility.yul\":823:838   */\n      mstore\n        /* \"#utility.yul\":857:861   */\n      0x24\n        /* \"#utility.yul\":854:855   */\n      0x00\n        /* \"#utility.yul\":847:862   */\n      revert\n        /* \"#utility.yul\":874:1155   */\n    tag_60:\n        /* \"#utility.yul\":957:984   */\n      tag_87\n        /* \"#utility.yul\":979:983   */\n      dup3\n        /* \"#utility.yul\":957:984   */\n      tag_58\n      jump\t// in\n    tag_87:\n        /* \"#utility.yul\":949:955   */\n      dup2\n        /* \"#utility.yul\":945:985   */\n      add\n        /* \"#utility.yul\":1087:1093   */\n      dup2\n        /* \"#utility.yul\":1075:1085   */\n      dup2\n        /* \"#utility.yul\":1072:1094   */\n      lt\n        /* \"#utility.yul\":1051:1069   */\n      0xffffffffffffffff\n        /* \"#utility.yul\":1039:1049   */\n      dup3\n        /* \"#utility.yul\":1036:1070   */\n      gt\n        /* \"#utility.yul\":1033:1095   */\n      or\n        /* \"#utility.yul\":1030:1118   */\n      iszero\n      tag_88\n      jumpi\n        /* \"#utility.yul\":1098:1116   */\n      tag_89\n      tag_59\n      jump\t// in\n    tag_89:\n        /* \"#utility.yul\":1030:1118   */\n    tag_88:\n        /* \"#utility.yul\":1138:1148   */\n      dup1\n        /* \"#utility.yul\":1134:1136   */\n      0x40\n        /* \"#utility.yul\":1127:1149   */\n      mstore\n        /* \"#utility.yul\":917:1155   */\n      pop\n        /* \"#utility.yul\":874:1155   */\n      pop\n      pop\n      jump\t// out\n        /* \"#utility.yul\":1161:1290   */\n    tag_61:\n        /* \"#utility.yul\":1195:1201   */\n      0x00\n        /* \"#utility.yul\":1222:1242   */\n      tag_91\n      tag_53\n      jump\t// in\n    tag_91:\n        /* \"#utility.yul\":1212:1242   */\n      swap1\n      pop\n        /* \"#utility.yul\":1251:1284   */\n      tag_92\n        /* \"#utility.yul\":1279:1283   */\n      dup3\n        /* \"#utility.yul\":1271:1277   */\n      dup3\n        /* \"#utility.yul\":1251:1284   */\n      tag_60\n      jump\t// in\n    tag_92:\n        /* \"#utility.yul\":1161:1290   */\n      swap2\n      swap1\n      pop\n      jump\t// out\n        /* \"#utility.yul\":1296:1604   */\n    tag_62:\n        /* \"#utility.yul\":1358:1362   */\n      0x00\n        /* \"#utility.yul\":1448:1466   */\n      0xffffffffffffffff\n        /* \"#utility.yul\":1440:1446   */\n      dup3\n        /* \"#utility.yul\":1437:1467   */\n      gt\n        /* \"#utility.yul\":1434:1490   */\n      iszero\n      tag_94\n      jumpi\n        /* \"#utility.yul\":1470:1488   */\n      tag_95\n      tag_59\n      jump\t// in\n    tag_95:\n        /* \"#utility.yul\":1434:1490   */\n    tag_94:\n        /* \"#utility.yul\":1508:1537   */\n      tag_96\n        /* \"#utility.yul\":1530:1536   */\n      dup3\n        /* \"#utility.yul\":1508:1537   */\n      tag_58\n      jump\t// in\n    tag_96:\n        /* \"#utility.yul\":1500:1537   */\n      swap1\n      pop\n        /* \"#utility.yul\":1592:1596   */\n      0x20\n        /* \"#utility.yul\":1586:1590   */\n      dup2\n        /* \"#utility.yul\":1582:1597   */\n      add\n        /* \"#utility.yul\":1574:1597   */\n      swap1\n      pop\n        /* \"#utility.yul\":1296:1604   */\n      swap2\n      swap1\n      pop\n      jump\t// out\n        /* \"#utility.yul\":1610:1764   */\n    tag_63:\n        /* \"#utility.yul\":1694:1700   */\n      dup3\n        /* \"#utility.yul\":1689:1692   */\n      dup2\n        /* \"#utility.yul\":1684:1687   */\n      dup4\n        /* \"#utility.yul\":1671:1701   */\n      calldatacopy\n        /* \"#utility.yul\":1756:1757   */\n      0x00\n        /* \"#utility.yul\":1747:1753   */\n      dup4\n        /* \"#utility.yul\":1742:1745   */\n      dup4\n        /* \"#utility.yul\":1738:1754   */\n      add\n        /* \"#utility.yul\":1731:1758   */\n      mstore\n        /* \"#utility.yul\":1610:1764   */\n      pop\n      pop\n      pop\n      jump\t// out\n        /* \"#utility.yul\":1770:2182   */\n    tag_64:\n        /* \"#utility.yul\":1848:1853   */\n      0x00\n        /* \"#utility.yul\":1873:1939   */\n      tag_99\n        /* \"#utility.yul\":1889:1938   */\n      tag_100\n        /* \"#utility.yul\":1931:1937   */\n      dup5\n        /* \"#utility.yul\":1889:1938   */\n      tag_62\n      jump\t// in\n    tag_100:\n        /* \"#utility.yul\":1873:1939   */\n      tag_61\n      jump\t// in\n    tag_99:\n        /* \"#utility.yul\":1864:1939   */\n      swap1\n      pop\n        /* \"#utility.yul\":1962:1968   */\n      dup3\n        /* \"#utility.yul\":1955:1960   */\n      dup2\n        /* \"#utility.yul\":1948:1969   */\n      mstore\n        /* \"#utility.yul\":2000:2004   */\n      0x20\n        /* \"#utility.yul\":1993:1998   */\n      dup2\n        /* \"#utility.yul\":1989:2005   */\n      add\n        /* \"#utility.yul\":2038:2041   */\n      dup5\n        /* \"#utility.yul\":2029:2035   */\n      dup5\n        /* \"#utility.yul\":2024:2027   */\n      dup5\n        /* \"#utility.yul\":2020:2036   */\n      add\n        /* \"#utility.yul\":2017:2042   */\n      gt\n        /* \"#utility.yul\":2014:2126   */\n      iszero\n      tag_101\n      jumpi\n        /* \"#utility.yul\":2045:2124   */\n      tag_102\n      tag_57\n      jump\t// in\n    tag_102:\n        /* \"#utility.yul\":2014:2126   */\n    tag_101:\n        /* \"#utility.yul\":2135:2176   */\n      tag_103\n        /* \"#utility.yul\":2169:2175   */\n      dup5\n        /* \"#utility.yul\":2164:2167   */\n      dup3\n        /* \"#utility.yul\":2159:2162   */\n      dup6\n        /* \"#utility.yul\":2135:2176   */\n      tag_63\n      jump\t// in\n    tag_103:\n        /* \"#utility.yul\":1854:2182   */\n      pop\n        /* \"#utility.yul\":1770:2182   */\n      swap4\n      swap3\n      pop\n      pop\n      pop\n      jump\t// out\n        /* \"#utility.yul\":2202:2542   */\n    tag_65:\n        /* \"#utility.yul\":2258:2263   */\n      0x00\n        /* \"#utility.yul\":2307:2310   */\n      dup3\n        /* \"#utility.yul\":2300:2304   */\n      0x1f\n        /* \"#utility.yul\":2292:2298   */\n      dup4\n        /* \"#utility.yul\":2288:2305   */\n      add\n        /* \"#utility.yul\":2284:2311   */\n      slt\n        /* \"#utility.yul\":2274:2396   */\n      tag_105\n      jumpi\n        /* \"#utility.yul\":2315:2394   */\n      tag_106\n      tag_56\n      jump\t// in\n    tag_106:\n        /* \"#utility.yul\":2274:2396   */\n    tag_105:\n        /* \"#utility.yul\":2432:2438   */\n      dup2\n        /* \"#utility.yul\":2419:2439   */\n      calldataload\n        /* \"#utility.yul\":2457:2536   */\n      tag_107\n        /* \"#utility.yul\":2532:2535   */\n      dup5\n        /* \"#utility.yul\":2524:2530   */\n      dup3\n        /* \"#utility.yul\":2517:2521   */\n      0x20\n        /* \"#utility.yul\":2509:2515   */\n      dup7\n        /* \"#utility.yul\":2505:2522   */\n      add\n        /* \"#utility.yul\":2457:2536   */\n      tag_64\n      jump\t// in\n    tag_107:\n        /* \"#utility.yul\":2448:2536   */\n      swap2\n      pop\n        /* \"#utility.yul\":2264:2542   */\n      pop\n        /* \"#utility.yul\":2202:2542   */\n      swap3\n      swap2\n      pop\n      pop\n      jump\t// out\n        /* \"#utility.yul\":2548:2625   */\n    tag_66:\n        /* \"#utility.yul\":2585:2592   */\n      0x00\n        /* \"#utility.yul\":2614:2619   */\n      dup2\n        /* \"#utility.yul\":2603:2619   */\n      swap1\n      pop\n        /* \"#utility.yul\":2548:2625   */\n      swap2\n      swap1\n      pop\n      jump\t// out\n        /* \"#utility.yul\":2631:2753   */\n    tag_67:\n        /* \"#utility.yul\":2704:2728   */\n      tag_110\n        /* \"#utility.yul\":2722:2727   */\n      dup2\n        /* \"#utility.yul\":2704:2728   */\n      tag_66\n      jump\t// in\n    tag_110:\n        /* \"#utility.yul\":2697:2702   */\n      dup2\n        /* \"#utility.yul\":2694:2729   */\n      eq\n        /* \"#utility.yul\":2684:2747   */\n      tag_111\n      jumpi\n        /* \"#utility.yul\":2743:2744   */\n      0x00\n        /* \"#utility.yul\":2740:2741   */\n      dup1\n        /* \"#utility.yul\":2733:2745   */\n      revert\n        /* \"#utility.yul\":2684:2747   */\n    tag_111:\n        /* \"#utility.yul\":2631:2753   */\n      pop\n      jump\t// out\n        /* \"#utility.yul\":2759:2898   */\n    tag_68:\n        /* \"#utility.yul\":2805:2810   */\n      0x00\n        /* \"#utility.yul\":2843:2849   */\n      dup2\n        /* \"#utility.yul\":2830:2850   */\n      calldataload\n        /* \"#utility.yul\":2821:2850   */\n      swap1\n      pop\n        /* \"#utility.yul\":2859:2892   */\n      tag_113\n        /* \"#utility.yul\":2886:2891   */\n      dup2\n        /* \"#utility.yul\":2859:2892   */\n      tag_67\n      jump\t// in\n    tag_113:\n        /* \"#utility.yul\":2759:2898   */\n      swap3\n      swap2\n      pop\n      pop\n      jump\t// out\n        /* \"#utility.yul\":2904:3558   */\n    tag_7:\n        /* \"#utility.yul\":2982:2988   */\n      0x00\n        /* \"#utility.yul\":2990:2996   */\n      dup1\n        /* \"#utility.yul\":3039:3041   */\n      0x40\n        /* \"#utility.yul\":3027:3036   */\n      dup4\n        /* \"#utility.yul\":3018:3025   */\n      dup6\n        /* \"#utility.yul\":3014:3037   */\n      sub\n        /* \"#utility.yul\":3010:3042   */\n      slt\n        /* \"#utility.yul\":3007:3126   */\n      iszero\n      tag_115\n      jumpi\n        /* \"#utility.yul\":3045:3124   */\n      tag_116\n      tag_54\n      jump\t// in\n    tag_116:\n        /* \"#utility.yul\":3007:3126   */\n    tag_115:\n        /* \"#utility.yul\":3193:3194   */\n      0x00\n        /* \"#utility.yul\":3182:3191   */\n      dup4\n        /* \"#utility.yul\":3178:3195   */\n      add\n        /* \"#utility.yul\":3165:3196   */\n      calldataload\n        /* \"#utility.yul\":3223:3241   */\n      0xffffffffffffffff\n        /* \"#utility.yul\":3215:3221   */\n      dup2\n        /* \"#utility.yul\":3212:3242   */\n      gt\n        /* \"#utility.yul\":3209:3326   */\n      iszero\n      tag_117\n      jumpi\n        /* \"#utility.yul\":3245:3324   */\n      tag_118\n      tag_55\n      jump\t// in\n    tag_118:\n        /* \"#utility.yul\":3209:3326   */\n    tag_117:\n        /* \"#utility.yul\":3350:3413   */\n      tag_119\n        /* \"#utility.yul\":3405:3412   */\n      dup6\n        /* \"#utility.yul\":3396:3402   */\n      dup3\n        /* \"#utility.yul\":3385:3394   */\n      dup7\n        /* \"#utility.yul\":3381:3403   */\n      add\n        /* \"#utility.yul\":3350:3413   */\n      tag_65\n      jump\t// in\n    tag_119:\n        /* \"#utility.yul\":3340:3413   */\n      swap3\n      pop\n        /* \"#utility.yul\":3136:3423   */\n      pop\n        /* \"#utility.yul\":3462:3464   */\n      0x20\n        /* \"#utility.yul\":3488:3541   */\n      tag_120\n        /* \"#utility.yul\":3533:3540   */\n      dup6\n        /* \"#utility.yul\":3524:3530   */\n      dup3\n        /* \"#utility.yul\":3513:3522   */\n      dup7\n        /* \"#utility.yul\":3509:3531   */\n      add\n        /* \"#utility.yul\":3488:3541   */\n      tag_68\n      jump\t// in\n    tag_120:\n        /* \"#utility.yul\":3478:3541   */\n      swap2\n      pop\n        /* \"#utility.yul\":3433:3551   */\n      pop\n        /* \"#utility.yul\":2904:3558   */\n      swap3\n      pop\n      swap3\n      swap1\n      pop\n      jump\t// out\n        /* \"#utility.yul\":3564:3654   */\n    tag_69:\n        /* \"#utility.yul\":3598:3605   */\n      0x00\n        /* \"#utility.yul\":3641:3646   */\n      dup2\n        /* \"#utility.yul\":3634:3647   */\n      iszero\n        /* \"#utility.yul\":3627:3648   */\n      iszero\n        /* \"#utility.yul\":3616:3648   */\n      swap1\n      pop\n        /* \"#utility.yul\":3564:3654   */\n      swap2\n      swap1\n      pop\n      jump\t// out\n        /* \"#utility.yul\":3660:3769   */\n    tag_70:\n        /* \"#utility.yul\":3741:3762   */\n      tag_123\n        /* \"#utility.yul\":3756:3761   */\n      dup2\n        /* \"#utility.yul\":3741:3762   */\n      tag_69\n      jump\t// in\n    tag_123:\n        /* \"#utility.yul\":3736:3739   */\n      dup3\n        /* \"#utility.yul\":3729:3763   */\n      mstore\n        /* \"#utility.yul\":3660:3769   */\n      pop\n      pop\n      jump\t// out\n        /* \"#utility.yul\":3775:3985   */\n    tag_14:\n        /* \"#utility.yul\":3862:3866   */\n      0x00\n        /* \"#utility.yul\":3900:3902   */\n      0x20\n        /* \"#utility.yul\":3889:3898   */\n      dup3\n        /* \"#utility.yul\":3885:3903   */\n      add\n        /* \"#utility.yul\":3877:3903   */\n      swap1\n      pop\n        /* \"#utility.yul\":3913:3978   */\n      tag_125\n        /* \"#utility.yul\":3975:3976   */\n      0x00\n        /* \"#utility.yul\":3964:3973   */\n      dup4\n        /* \"#utility.yul\":3960:3977   */\n      add\n        /* \"#utility.yul\":3951:3957   */\n      dup5\n        /* \"#utility.yul\":3913:3978   */\n      tag_70\n      jump\t// in\n    tag_125:\n        /* \"#utility.yul\":3775:3985   */\n      swap3\n      swap2\n      pop\n      pop\n      jump\t// out\n        /* \"#utility.yul\":3991:4500   */\n    tag_18:\n        /* \"#utility.yul\":4060:4066   */\n      0x00\n        /* \"#utility.yul\":4109:4111   */\n      0x20\n        /* \"#utility.yul\":4097:4106   */\n      dup3\n        /* \"#utility.yul\":4088:4095   */\n      dup5\n        /* \"#utility.yul\":4084:4107   */\n      sub\n        /* \"#utility.yul\":4080:4112   */\n      slt\n        /* \"#utility.yul\":4077:4196   */\n      iszero\n      tag_127\n      jumpi\n        /* \"#utility.yul\":4115:4194   */\n      tag_128\n      tag_54\n      jump\t// in\n    tag_128:\n        /* \"#utility.yul\":4077:4196   */\n    tag_127:\n        /* \"#utility.yul\":4263:4264   */\n      0x00\n        /* \"#utility.yul\":4252:4261   */\n      dup3\n        /* \"#utility.yul\":4248:4265   */\n      add\n        /* \"#utility.yul\":4235:4266   */\n      calldataload\n        /* \"#utility.yul\":4293:4311   */\n      0xffffffffffffffff\n        /* \"#utility.yul\":4285:4291   */\n      dup2\n        /* \"#utility.yul\":4282:4312   */\n      gt\n        /* \"#utility.yul\":4279:4396   */\n      iszero\n      tag_129\n      jumpi\n        /* \"#utility.yul\":4315:4394   */\n      tag_130\n      tag_55\n      jump\t// in\n    tag_130:\n        /* \"#utility.yul\":4279:4396   */\n    tag_129:\n        /* \"#utility.yul\":4420:4483   */\n      tag_131\n        /* \"#utility.yul\":4475:4482   */\n      dup5\n        /* \"#utility.yul\":4466:4472   */\n      dup3\n        /* \"#utility.yul\":4455:4464   */\n      dup6\n        /* \"#utility.yul\":4451:4473   */\n      add\n        /* \"#utility.yul\":4420:4483   */\n      tag_65\n      jump\t// in\n    tag_131:\n        /* \"#utility.yul\":4410:4483   */\n      swap2\n      pop\n        /* \"#utility.yul\":4206:4493   */\n      pop\n        /* \"#utility.yul\":3991:4500   */\n      swap3\n      swap2\n      pop\n      pop\n      jump\t// out\n        /* \"#utility.yul\":4506:4624   */\n    tag_71:\n        /* \"#utility.yul\":4593:4617   */\n      tag_133\n        /* \"#utility.yul\":4611:4616   */\n      dup2\n        /* \"#utility.yul\":4593:4617   */\n      tag_66\n      jump\t// in\n    tag_133:\n        /* \"#utility.yul\":4588:4591   */\n      dup3\n        /* \"#utility.yul\":4581:4618   */\n      mstore\n        /* \"#utility.yul\":4506:4624   */\n      pop\n      pop\n      jump\t// out\n        /* \"#utility.yul\":4630:4950   */\n    tag_21:\n        /* \"#utility.yul\":4745:4749   */\n      0x00\n        /* \"#utility.yul\":4783:4785   */\n      0x40\n        /* \"#utility.yul\":4772:4781   */\n      dup3\n        /* \"#utility.yul\":4768:4786   */\n      add\n        /* \"#utility.yul\":4760:4786   */\n      swap1\n      pop\n        /* \"#utility.yul\":4796:4861   */\n      tag_135\n        /* \"#utility.yul\":4858:4859   */\n      0x00\n        /* \"#utility.yul\":4847:4856   */\n      dup4\n        /* \"#utility.yul\":4843:4860   */\n      add\n        /* \"#utility.yul\":4834:4840   */\n      dup6\n        /* \"#utility.yul\":4796:4861   */\n      tag_70\n      jump\t// in\n    tag_135:\n        /* \"#utility.yul\":4871:4943   */\n      tag_136\n        /* \"#utility.yul\":4939:4941   */\n      0x20\n        /* \"#utility.yul\":4928:4937   */\n      dup4\n        /* \"#utility.yul\":4924:4942   */\n      add\n        /* \"#utility.yul\":4915:4921   */\n      dup5\n        /* \"#utility.yul\":4871:4943   */\n      tag_71\n      jump\t// in\n    tag_136:\n        /* \"#utility.yul\":4630:4950   */\n      swap4\n      swap3\n      pop\n      pop\n      pop\n      jump\t// out\n        /* \"#utility.yul\":4956:5136   */\n    tag_72:\n        /* \"#utility.yul\":5004:5081   */\n      0x4e487b7100000000000000000000000000000000000000000000000000000000\n        /* \"#utility.yul\":5001:5002   */\n      0x00\n        /* \"#utility.yul\":4994:5082   */\n      mstore\n        /* \"#utility.yul\":5101:5105   */\n      0x11\n        /* \"#utility.yul\":5098:5099   */\n      0x04\n        /* \"#utility.yul\":5091:5106   */\n      mstore\n        /* \"#utility.yul\":5125:5129   */\n      0x24\n        /* \"#utility.yul\":5122:5123   */\n      0x00\n        /* \"#utility.yul\":5115:5130   */\n      revert\n        /* \"#utility.yul\":5142:5375   */\n    tag_24:\n        /* \"#utility.yul\":5181:5184   */\n      0x00\n        /* \"#utility.yul\":5204:5228   */\n      tag_139\n        /* \"#utility.yul\":5222:5227   */\n      dup3\n        /* \"#utility.yul\":5204:5228   */\n      tag_66\n      jump\t// in\n    tag_139:\n        /* \"#utility.yul\":5195:5228   */\n      swap2\n      pop\n        /* \"#utility.yul\":5250:5316   */\n      0xffffffffffffffffffffffffffffffffffffffffffffffffffffffffffffffff\n        /* \"#utility.yul\":5243:5248   */\n      dup3\n        /* \"#utility.yul\":5240:5317   */\n      sub\n        /* \"#utility.yul\":5237:5340   */\n      tag_140\n      jumpi\n        /* \"#utility.yul\":5320:5338   */\n      tag_141\n      tag_72\n      jump\t// in\n    tag_141:\n        /* \"#utility.yul\":5237:5340   */\n    tag_140:\n        /* \"#utility.yul\":5367:5368   */\n      0x01\n        /* \"#utility.yul\":5360:5365   */\n      dup3\n        /* \"#utility.yul\":5356:5369   */\n      add\n        /* \"#utility.yul\":5349:5369   */\n      swap1\n      pop\n        /* \"#utility.yul\":5142:5375   */\n      swap2\n      swap1\n      pop\n      jump\t// out\n        /* \"#utility.yul\":5381:5480   */\n    tag_73:\n        /* \"#utility.yul\":5433:5439   */\n      0x00\n        /* \"#utility.yul\":5467:5472   */\n      dup2\n        /* \"#utility.yul\":5461:5473   */\n      mload\n        /* \"#utility.yul\":5451:5473   */\n      swap1\n      pop\n        /* \"#utility.yul\":5381:5480   */\n      swap2\n      swap1\n      pop\n      jump\t// out\n        /* \"#utility.yul\":5486:5634   */\n    tag_74:\n        /* \"#utility.yul\":5588:5599   */\n      0x00\n        /* \"#utility.yul\":5625:5628   */\n      dup2\n        /* \"#utility.yul\":5610:5628   */\n      swap1\n      pop\n        /* \"#utility.yul\":5486:5634   */\n      swap3\n      swap2\n      pop\n      pop\n      jump\t// out\n        /* \"#utility.yul\":5640:5947   */\n    tag_75:\n        /* \"#utility.yul\":5708:5709   */\n      0x00\n        /* \"#utility.yul\":5718:5831   */\n    tag_145:\n        /* \"#utility.yul\":5732:5738   */\n      dup4\n        /* \"#utility.yul\":5729:5730   */\n      dup2\n        /* \"#utility.yul\":5726:5739   */\n      lt\n        /* \"#utility.yul\":5718:5831   */\n      iszero\n      tag_147\n      jumpi\n        /* \"#utility.yul\":5817:5818   */\n      dup1\n        /* \"#utility.yul\":5812:5815   */\n      dup3\n        /* \"#utility.yul\":5808:5819   */\n      add\n        /* \"#utility.yul\":5802:5820   */\n      mload\n        /* \"#utility.yul\":5798:5799   */\n      dup2\n        /* \"#utility.yul\":5793:5796   */\n      dup5\n        /* \"#utility.yul\":5789:5800   */\n      add\n        /* \"#utility.yul\":5782:5821   */\n      mstore\n        /* \"#utility.yul\":5754:5756   */\n      0x20\n        /* \"#utility.yul\":5751:5752   */\n      dup2\n        /* \"#utility.yul\":5747:5757   */\n      add\n        /* \"#utility.yul\":5742:5757   */\n      swap1\n      pop\n        /* \"#utility.yul\":5718:5831   */\n      jump(tag_145)\n    tag_147:\n        /* \"#utility.yul\":5849:5855   */\n      dup4\n        /* \"#utility.yul\":5846:5847   */\n      dup2\n        /* \"#utility.yul\":5843:5856   */\n      gt\n        /* \"#utility.yul\":5840:5941   */\n      iszero\n      tag_148\n      jumpi\n        /* \"#utility.yul\":5929:5930   */\n      0x00\n        /* \"#utility.yul\":5920:5926   */\n      dup5\n        /* \"#utility.yul\":5915:5918   */\n      dup5\n        /* \"#utility.yul\":5911:5927   */\n      add\n        /* \"#utility.yul\":5904:5931   */\n      mstore\n        /* \"#utility.yul\":5840:5941   */\n    tag_148:\n        /* \"#utility.yul\":5689:5947   */\n      pop\n        /* \"#utility.yul\":5640:5947   */\n      pop\n      pop\n      pop\n      jump\t// out\n        /* \"#utility.yul\":5953:6330   */\n    tag_76:\n        /* \"#utility.yul\":6059:6062   */\n      0x00\n        /* \"#utility.yul\":6087:6126   */\n      tag_150\n        /* \"#utility.yul\":6120:6125   */\n      dup3\n        /* \"#utility.yul\":6087:6126   */\n      tag_73\n      jump\t// in\n    tag_150:\n        /* \"#utility.yul\":6142:6231   */\n      tag_151\n        /* \"#utility.yul\":6224:6230   */\n      dup2\n        /* \"#utility.yul\":6219:6222   */\n      dup6\n        /* \"#utility.yul\":6142:6231   */\n      tag_74\n      jump\t// in\n    tag_151:\n        /* \"#utility.yul\":6135:6231   */\n      swap4\n      pop\n        /* \"#utility.yul\":6240:6292   */\n      tag_152\n        /* \"#utility.yul\":6285:6291   */\n      dup2\n        /* \"#utility.yul\":6280:6283   */\n      dup6\n        /* \"#utility.yul\":6273:6277   */\n      0x20\n        /* \"#utility.yul\":6266:6271   */\n      dup7\n        /* \"#utility.yul\":6262:6278   */\n      add\n        /* \"#utility.yul\":6240:6292   */\n      tag_75\n      jump\t// in\n    tag_152:\n        /* \"#utility.yul\":6317:6323   */\n      dup1\n        /* \"#utility.yul\":6312:6315   */\n      dup5\n        /* \"#utility.yul\":6308:6324   */\n      add\n        /* \"#utility.yul\":6301:6324   */\n      swap2\n      pop\n        /* \"#utility.yul\":6063:6330   */\n      pop\n        /* \"#utility.yul\":5953:6330   */\n      swap3\n      swap2\n      pop\n      pop\n      jump\t// out\n        /* \"#utility.yul\":6336:6611   */\n    tag_26:\n        /* \"#utility.yul\":6468:6471   */\n      0x00\n        /* \"#utility.yul\":6490:6585   */\n      tag_154\n        /* \"#utility.yul\":6581:6584   */\n      dup3\n        /* \"#utility.yul\":6572:6578   */\n      dup5\n        /* \"#utility.yul\":6490:6585   */\n      tag_76\n      jump\t// in\n    tag_154:\n        /* \"#utility.yul\":6483:6585   */\n      swap2\n      pop\n        /* \"#utility.yul\":6602:6605   */\n      dup2\n        /* \"#utility.yul\":6595:6605   */\n      swap1\n      pop\n        /* \"#utility.yul\":6336:6611   */\n      swap3\n      swap2\n      pop\n      pop\n      jump\t// out\n        /* \"#utility.yul\":6617:6922   */\n    tag_35:\n        /* \"#utility.yul\":6657:6660   */\n      0x00\n        /* \"#utility.yul\":6676:6696   */\n      tag_156\n        /* \"#utility.yul\":6694:6695   */\n      dup3\n        /* \"#utility.yul\":6676:6696   */\n      tag_66\n      jump\t// in\n    tag_156:\n        /* \"#utility.yul\":6671:6696   */\n      swap2\n      pop\n        /* \"#utility.yul\":6710:6730   */\n      tag_157\n        /* \"#utility.yul\":6728:6729   */\n      dup4\n        /* \"#utility.yul\":6710:6730   */\n      tag_66\n      jump\t// in\n    tag_157:\n        /* \"#utility.yul\":6705:6730   */\n      swap3\n      pop\n        /* \"#utility.yul\":6864:6865   */\n      dup3\n        /* \"#utility.yul\":6796:6862   */\n      0xffffffffffffffffffffffffffffffffffffffffffffffffffffffffffffffff\n        /* \"#utility.yul\":6792:6866   */\n      sub\n        /* \"#utility.yul\":6789:6790   */\n      dup3\n        /* \"#utility.yul\":6786:6867   */\n      gt\n        /* \"#utility.yul\":6783:6890   */\n      iszero\n      tag_158\n      jumpi\n        /* \"#utility.yul\":6870:6888   */\n      tag_159\n      tag_72\n      jump\t// in\n    tag_159:\n        /* \"#utility.yul\":6783:6890   */\n    tag_158:\n        /* \"#utility.yul\":6914:6915   */\n      dup3\n        /* \"#utility.yul\":6911:6912   */\n      dup3\n        /* \"#utility.yul\":6907:6916   */\n      add\n        /* \"#utility.yul\":6900:6916   */\n      swap1\n      pop\n        /* \"#utility.yul\":6617:6922   */\n      swap3\n      swap2\n      pop\n      pop\n      jump\t// out\n        /* \"#utility.yul\":6928:7108   */\n    tag_77:\n        /* \"#utility.yul\":6976:7053   */\n      0x4e487b7100000000000000000000000000000000000000000000000000000000\n        /* \"#utility.yul\":6973:6974   */\n      0x00\n        /* \"#utility.yul\":6966:7054   */\n      mstore\n        /* \"#utility.yul\":7073:7077   */\n      0x22\n        /* \"#utility.yul\":7070:7071   */\n      0x04\n        /* \"#utility.yul\":7063:7078   */\n      mstore\n        /* \"#utility.yul\":7097:7101   */\n      0x24\n        /* \"#utility.yul\":7094:7095   */\n      0x00\n        /* \"#utility.yul\":7087:7102   */\n      revert\n        /* \"#utility.yul\":7114:7434   */\n    tag_43:\n        /* \"#utility.yul\":7158:7164   */\n      0x00\n        /* \"#utility.yul\":7195:7196   */\n      0x02\n        /* \"#utility.yul\":7189:7193   */\n      dup3\n        /* \"#utility.yul\":7185:7197   */\n      div\n        /* \"#utility.yul\":7175:7197   */\n      swap1\n      pop\n        /* \"#utility.yul\":7242:7243   */\n      0x01\n        /* \"#utility.yul\":7236:7240   */\n      dup3\n        /* \"#utility.yul\":7232:7244   */\n      and\n        /* \"#utility.yul\":7263:7281   */\n      dup1\n        /* \"#utility.yul\":7253:7334   */\n      tag_162\n      jumpi\n        /* \"#utility.yul\":7319:7323   */\n      0x7f\n        /* \"#utility.yul\":7311:7317   */\n      dup3\n        /* \"#utility.yul\":7307:7324   */\n      and\n        /* \"#utility.yul\":7297:7324   */\n      swap2\n      pop\n        /* \"#utility.yul\":7253:7334   */\n    tag_162:\n        /* \"#utility.yul\":7381:7383   */\n      0x20\n        /* \"#utility.yul\":7373:7379   */\n      dup3\n        /* \"#utility.yul\":7370:7384   */\n      lt\n        /* \"#utility.yul\":7350:7368   */\n      dup2\n        /* \"#utility.yul\":7347:7385   */\n      sub\n        /* \"#utility.yul\":7344:7428   */\n      tag_163\n      jumpi\n        /* \"#utility.yul\":7400:7418   */\n      tag_164\n      tag_77\n      jump\t// in\n    tag_164:\n        /* \"#utility.yul\":7344:7428   */\n    tag_163:\n        /* \"#utility.yul\":7165:7434   */\n      pop\n        /* \"#utility.yul\":7114:7434   */\n      swap2\n      swap1\n      pop\n      jump\t// out\n\n    auxdata: 0xa26469706673582212201a06fc2dea0170baccb13f6b349120bbf72d43e50bc2658e1935fd404ada50fe64736f6c634300080d0033\n}\n",
				"bytecode": {
					"linkReferences": {},
					"object": "60806040526000805534801561001457600080fd5b506107e8806100246000396000f3fe6080604052600436106100345760003560e01c80632ca087921461003957806345cd81b3146100555780637109005c14610092575b600080fd5b610053600480360381019061004e91906104e1565b6100d0565b005b34801561006157600080fd5b5061007c600480360381019061007791906104e1565b610170565b6040516100899190610558565b60405180910390f35b34801561009e57600080fd5b506100b960048036038101906100b49190610573565b610208565b6040516100c79291906105cb565b60405180910390f35b6000808154809291906100e290610623565b9190505560008190555060405180608001604052806000548152602001838152602001828152602001600081525060018360405161012091906106e5565b90815260200160405180910390206000820151816000015560208201518160010190805190602001906101549291906102ae565b5060408201518160020155606082015181600301559050505050565b600060018360405161018291906106e5565b9081526020016040518091039020600201546001846040516101a491906106e5565b90815260200160405180910390206003015410156101fd57816001846040516101cd91906106e5565b908152602001604051809103902060030160008282546101ed91906106fc565b9250508190555060019050610202565b600090505b92915050565b60008060018360405161021b91906106e5565b90815260200160405180910390206002015460018460405161023d91906106e5565b90815260200160405180910390206003015410610280576001808460405161026591906106e5565b908152602001604051809103902060030154915091506102a9565b600060018460405161029291906106e5565b908152602001604051809103902060030154915091505b915091565b8280546102ba90610781565b90600052602060002090601f0160209004810192826102dc5760008555610323565b82601f106102f557805160ff1916838001178555610323565b82800160010185558215610323579182015b82811115610322578251825591602001919060010190610307565b5b5090506103309190610334565b5090565b5b8082111561034d576000816000905550600101610335565b5090565b6000604051905090565b600080fd5b600080fd5b600080fd5b600080fd5b6000601f19601f8301169050919050565b7f4e487b7100000000000000000000000000000000000000000000000000000000600052604160045260246000fd5b6103b88261036f565b810181811067ffffffffffffffff821117156103d7576103d6610380565b5b80604052505050565b60006103ea610351565b90506103f682826103af565b919050565b600067ffffffffffffffff82111561041657610415610380565b5b61041f8261036f565b9050602081019050919050565b82818337600083830152505050565b600061044e610449846103fb565b6103e0565b90508281526020810184848401111561046a5761046961036a565b5b61047584828561042c565b509392505050565b600082601f83011261049257610491610365565b5b81356104a284826020860161043b565b91505092915050565b6000819050919050565b6104be816104ab565b81146104c957600080fd5b50565b6000813590506104db816104b5565b92915050565b600080604083850312156104f8576104f761035b565b5b600083013567ffffffffffffffff81111561051657610515610360565b5b6105228582860161047d565b9250506020610533858286016104cc565b9150509250929050565b60008115159050919050565b6105528161053d565b82525050565b600060208201905061056d6000830184610549565b92915050565b6000602082840312156105895761058861035b565b5b600082013567ffffffffffffffff8111156105a7576105a6610360565b5b6105b38482850161047d565b91505092915050565b6105c5816104ab565b82525050565b60006040820190506105e06000830185610549565b6105ed60208301846105bc565b9392505050565b7f4e487b7100000000000000000000000000000000000000000000000000000000600052601160045260246000fd5b600061062e826104ab565b91507fffffffffffffffffffffffffffffffffffffffffffffffffffffffffffffffff82036106605761065f6105f4565b5b600182019050919050565b600081519050919050565b600081905092915050565b60005b8381101561069f578082015181840152602081019050610684565b838111156106ae576000848401525b50505050565b60006106bf8261066b565b6106c98185610676565b93506106d9818560208601610681565b80840191505092915050565b60006106f182846106b4565b915081905092915050565b6000610707826104ab565b9150610712836104ab565b9250827fffffffffffffffffffffffffffffffffffffffffffffffffffffffffffffffff03821115610747576107466105f4565b5b828201905092915050565b7f4e487b7100000000000000000000000000000000000000000000000000000000600052602260045260246000fd5b6000600282049050600182168061079957607f821691505b6020821081036107ac576107ab610752565b5b5091905056fea26469706673582212201a06fc2dea0170baccb13f6b349120bbf72d43e50bc2658e1935fd404ada50fe64736f6c634300080d0033",
					"opcodes": "PUSH1 0x80 PUSH1 0x40 MSTORE PUSH1 0x0 DUP1 SSTORE CALLVALUE DUP1 ISZERO PUSH2 0x14 JUMPI PUSH1 0x0 DUP1 REVERT JUMPDEST POP PUSH2 0x7E8 DUP1 PUSH2 0x24 PUSH1 0x0 CODECOPY PUSH1 0x0 RETURN INVALID PUSH1 0x80 PUSH1 0x40 MSTORE PUSH1 0x4 CALLDATASIZE LT PUSH2 0x34 JUMPI PUSH1 0x0 CALLDATALOAD PUSH1 0xE0 SHR DUP1 PUSH4 0x2CA08792 EQ PUSH2 0x39 JUMPI DUP1 PUSH4 0x45CD81B3 EQ PUSH2 0x55 JUMPI DUP1 PUSH4 0x7109005C EQ PUSH2 0x92 JUMPI JUMPDEST PUSH1 0x0 DUP1 REVERT JUMPDEST PUSH2 0x53 PUSH1 0x4 DUP1 CALLDATASIZE SUB DUP2 ADD SWAP1 PUSH2 0x4E SWAP2 SWAP1 PUSH2 0x4E1 JUMP JUMPDEST PUSH2 0xD0 JUMP JUMPDEST STOP JUMPDEST CALLVALUE DUP1 ISZERO PUSH2 0x61 JUMPI PUSH1 0x0 DUP1 REVERT JUMPDEST POP PUSH2 0x7C PUSH1 0x4 DUP1 CALLDATASIZE SUB DUP2 ADD SWAP1 PUSH2 0x77 SWAP2 SWAP1 PUSH2 0x4E1 JUMP JUMPDEST PUSH2 0x170 JUMP JUMPDEST PUSH1 0x40 MLOAD PUSH2 0x89 SWAP2 SWAP1 PUSH2 0x558 JUMP JUMPDEST PUSH1 0x40 MLOAD DUP1 SWAP2 SUB SWAP1 RETURN JUMPDEST CALLVALUE DUP1 ISZERO PUSH2 0x9E JUMPI PUSH1 0x0 DUP1 REVERT JUMPDEST POP PUSH2 0xB9 PUSH1 0x4 DUP1 CALLDATASIZE SUB DUP2 ADD SWAP1 PUSH2 0xB4 SWAP2 SWAP1 PUSH2 0x573 JUMP JUMPDEST PUSH2 0x208 JUMP JUMPDEST PUSH1 0x40 MLOAD PUSH2 0xC7 SWAP3 SWAP2 SWAP1 PUSH2 0x5CB JUMP JUMPDEST PUSH1 0x40 MLOAD DUP1 SWAP2 SUB SWAP1 RETURN JUMPDEST PUSH1 0x0 DUP1 DUP2 SLOAD DUP1 SWAP3 SWAP2 SWAP1 PUSH2 0xE2 SWAP1 PUSH2 0x623 JUMP JUMPDEST SWAP2 SWAP1 POP SSTORE PUSH1 0x0 DUP2 SWAP1 SSTORE POP PUSH1 0x40 MLOAD DUP1 PUSH1 0x80 ADD PUSH1 0x40 MSTORE DUP1 PUSH1 0x0 SLOAD DUP2 MSTORE PUSH1 0x20 ADD DUP4 DUP2 MSTORE PUSH1 0x20 ADD DUP3 DUP2 MSTORE PUSH1 0x20 ADD PUSH1 0x0 DUP2 MSTORE POP PUSH1 0x1 DUP4 PUSH1 0x40 MLOAD PUSH2 0x120 SWAP2 SWAP1 PUSH2 0x6E5 JUMP JUMPDEST SWAP1 DUP2 MSTORE PUSH1 0x20 ADD PUSH1 0x40 MLOAD DUP1 SWAP2 SUB SWAP1 KECCAK256 PUSH1 0x0 DUP3 ADD MLOAD DUP2 PUSH1 0x0 ADD SSTORE PUSH1 0x20 DUP3 ADD MLOAD DUP2 PUSH1 0x1 ADD SWAP1 DUP1 MLOAD SWAP1 PUSH1 0x20 ADD SWAP1 PUSH2 0x154 SWAP3 SWAP2 SWAP1 PUSH2 0x2AE JUMP JUMPDEST POP PUSH1 0x40 DUP3 ADD MLOAD DUP2 PUSH1 0x2 ADD SSTORE PUSH1 0x60 DUP3 ADD MLOAD DUP2 PUSH1 0x3 ADD SSTORE SWAP1 POP POP POP POP JUMP JUMPDEST PUSH1 0x0 PUSH1 0x1 DUP4 PUSH1 0x40 MLOAD PUSH2 0x182 SWAP2 SWAP1 PUSH2 0x6E5 JUMP JUMPDEST SWAP1 DUP2 MSTORE PUSH1 0x20 ADD PUSH1 0x40 MLOAD DUP1 SWAP2 SUB SWAP1 KECCAK256 PUSH1 0x2 ADD SLOAD PUSH1 0x1 DUP5 PUSH1 0x40 MLOAD PUSH2 0x1A4 SWAP2 SWAP1 PUSH2 0x6E5 JUMP JUMPDEST SWAP1 DUP2 MSTORE PUSH1 0x20 ADD PUSH1 0x40 MLOAD DUP1 SWAP2 SUB SWAP1 KECCAK256 PUSH1 0x3 ADD SLOAD LT ISZERO PUSH2 0x1FD JUMPI DUP2 PUSH1 0x1 DUP5 PUSH1 0x40 MLOAD PUSH2 0x1CD SWAP2 SWAP1 PUSH2 0x6E5 JUMP JUMPDEST SWAP1 DUP2 MSTORE PUSH1 0x20 ADD PUSH1 0x40 MLOAD DUP1 SWAP2 SUB SWAP1 KECCAK256 PUSH1 0x3 ADD PUSH1 0x0 DUP3 DUP3 SLOAD PUSH2 0x1ED SWAP2 SWAP1 PUSH2 0x6FC JUMP JUMPDEST SWAP3 POP POP DUP2 SWAP1 SSTORE POP PUSH1 0x1 SWAP1 POP PUSH2 0x202 JUMP JUMPDEST PUSH1 0x0 SWAP1 POP JUMPDEST SWAP3 SWAP2 POP POP JUMP JUMPDEST PUSH1 0x0 DUP1 PUSH1 0x1 DUP4 PUSH1 0x40 MLOAD PUSH2 0x21B SWAP2 SWAP1 PUSH2 0x6E5 JUMP JUMPDEST SWAP1 DUP2 MSTORE PUSH1 0x20 ADD PUSH1 0x40 MLOAD DUP1 SWAP2 SUB SWAP1 KECCAK256 PUSH1 0x2 ADD SLOAD PUSH1 0x1 DUP5 PUSH1 0x40 MLOAD PUSH2 0x23D SWAP2 SWAP1 PUSH2 0x6E5 JUMP JUMPDEST SWAP1 DUP2 MSTORE PUSH1 0x20 ADD PUSH1 0x40 MLOAD DUP1 SWAP2 SUB SWAP1 KECCAK256 PUSH1 0x3 ADD SLOAD LT PUSH2 0x280 JUMPI PUSH1 0x1 DUP1 DUP5 PUSH1 0x40 MLOAD PUSH2 0x265 SWAP2 SWAP1 PUSH2 0x6E5 JUMP JUMPDEST SWAP1 DUP2 MSTORE PUSH1 0x20 ADD PUSH1 0x40 MLOAD DUP1 SWAP2 SUB SWAP1 KECCAK256 PUSH1 0x3 ADD SLOAD SWAP2 POP SWAP2 POP PUSH2 0x2A9 JUMP JUMPDEST PUSH1 0x0 PUSH1 0x1 DUP5 PUSH1 0x40 MLOAD PUSH2 0x292 SWAP2 SWAP1 PUSH2 0x6E5 JUMP JUMPDEST SWAP1 DUP2 MSTORE PUSH1 0x20 ADD PUSH1 0x40 MLOAD DUP1 SWAP2 SUB SWAP1 KECCAK256 PUSH1 0x3 ADD SLOAD SWAP2 POP SWAP2 POP JUMPDEST SWAP2 POP SWAP2 JUMP JUMPDEST DUP3 DUP1 SLOAD PUSH2 0x2BA SWAP1 PUSH2 0x781 JUMP JUMPDEST SWAP1 PUSH1 0x0 MSTORE PUSH1 0x20 PUSH1 0x0 KECCAK256 SWAP1 PUSH1 0x1F ADD PUSH1 0x20 SWAP1 DIV DUP2 ADD SWAP3 DUP3 PUSH2 0x2DC JUMPI PUSH1 0x0 DUP6 SSTORE PUSH2 0x323 JUMP JUMPDEST DUP3 PUSH1 0x1F LT PUSH2 0x2F5 JUMPI DUP1 MLOAD PUSH1 0xFF NOT AND DUP4 DUP1 ADD OR DUP6 SSTORE PUSH2 0x323 JUMP JUMPDEST DUP3 DUP1 ADD PUSH1 0x1 ADD DUP6 SSTORE DUP3 ISZERO PUSH2 0x323 JUMPI SWAP2 DUP3 ADD JUMPDEST DUP3 DUP2 GT ISZERO PUSH2 0x322 JUMPI DUP3 MLOAD DUP3 SSTORE SWAP2 PUSH1 0x20 ADD SWAP2 SWAP1 PUSH1 0x1 ADD SWAP1 PUSH2 0x307 JUMP JUMPDEST JUMPDEST POP SWAP1 POP PUSH2 0x330 SWAP2 SWAP1 PUSH2 0x334 JUMP JUMPDEST POP SWAP1 JUMP JUMPDEST JUMPDEST DUP1 DUP3 GT ISZERO PUSH2 0x34D JUMPI PUSH1 0x0 DUP2 PUSH1 0x0 SWAP1 SSTORE POP PUSH1 0x1 ADD PUSH2 0x335 JUMP JUMPDEST POP SWAP1 JUMP JUMPDEST PUSH1 0x0 PUSH1 0x40 MLOAD SWAP1 POP SWAP1 JUMP JUMPDEST PUSH1 0x0 DUP1 REVERT JUMPDEST PUSH1 0x0 DUP1 REVERT JUMPDEST PUSH1 0x0 DUP1 REVERT JUMPDEST PUSH1 0x0 DUP1 REVERT JUMPDEST PUSH1 0x0 PUSH1 0x1F NOT PUSH1 0x1F DUP4 ADD AND SWAP1 POP SWAP2 SWAP1 POP JUMP JUMPDEST PUSH32 0x4E487B7100000000000000000000000000000000000000000000000000000000 PUSH1 0x0 MSTORE PUSH1 0x41 PUSH1 0x4 MSTORE PUSH1 0x24 PUSH1 0x0 REVERT JUMPDEST PUSH2 0x3B8 DUP3 PUSH2 0x36F JUMP JUMPDEST DUP2 ADD DUP2 DUP2 LT PUSH8 0xFFFFFFFFFFFFFFFF DUP3 GT OR ISZERO PUSH2 0x3D7 JUMPI PUSH2 0x3D6 PUSH2 0x380 JUMP JUMPDEST JUMPDEST DUP1 PUSH1 0x40 MSTORE POP POP POP JUMP JUMPDEST PUSH1 0x0 PUSH2 0x3EA PUSH2 0x351 JUMP JUMPDEST SWAP1 POP PUSH2 0x3F6 DUP3 DUP3 PUSH2 0x3AF JUMP JUMPDEST SWAP2 SWAP1 POP JUMP JUMPDEST PUSH1 0x0 PUSH8 0xFFFFFFFFFFFFFFFF DUP3 GT ISZERO PUSH2 0x416 JUMPI PUSH2 0x415 PUSH2 0x380 JUMP JUMPDEST JUMPDEST PUSH2 0x41F DUP3 PUSH2 0x36F JUMP JUMPDEST SWAP1 POP PUSH1 0x20 DUP2 ADD SWAP1 POP SWAP2 SWAP1 POP JUMP JUMPDEST DUP3 DUP2 DUP4 CALLDATACOPY PUSH1 0x0 DUP4 DUP4 ADD MSTORE POP POP POP JUMP JUMPDEST PUSH1 0x0 PUSH2 0x44E PUSH2 0x449 DUP5 PUSH2 0x3FB JUMP JUMPDEST PUSH2 0x3E0 JUMP JUMPDEST SWAP1 POP DUP3 DUP2 MSTORE PUSH1 0x20 DUP2 ADD DUP5 DUP5 DUP5 ADD GT ISZERO PUSH2 0x46A JUMPI PUSH2 0x469 PUSH2 0x36A JUMP JUMPDEST JUMPDEST PUSH2 0x475 DUP5 DUP3 DUP6 PUSH2 0x42C JUMP JUMPDEST POP SWAP4 SWAP3 POP POP POP JUMP JUMPDEST PUSH1 0x0 DUP3 PUSH1 0x1F DUP4 ADD SLT PUSH2 0x492 JUMPI PUSH2 0x491 PUSH2 0x365 JUMP JUMPDEST JUMPDEST DUP2 CALLDATALOAD PUSH2 0x4A2 DUP5 DUP3 PUSH1 0x20 DUP7 ADD PUSH2 0x43B JUMP JUMPDEST SWAP2 POP POP SWAP3 SWAP2 POP POP JUMP JUMPDEST PUSH1 0x0 DUP2 SWAP1 POP SWAP2 SWAP1 POP JUMP JUMPDEST PUSH2 0x4BE DUP2 PUSH2 0x4AB JUMP JUMPDEST DUP2 EQ PUSH2 0x4C9 JUMPI PUSH1 0x0 DUP1 REVERT JUMPDEST POP JUMP JUMPDEST PUSH1 0x0 DUP2 CALLDATALOAD SWAP1 POP PUSH2 0x4DB DUP2 PUSH2 0x4B5 JUMP JUMPDEST SWAP3 SWAP2 POP POP JUMP JUMPDEST PUSH1 0x0 DUP1 PUSH1 0x40 DUP4 DUP6 SUB SLT ISZERO PUSH2 0x4F8 JUMPI PUSH2 0x4F7 PUSH2 0x35B JUMP JUMPDEST JUMPDEST PUSH1 0x0 DUP4 ADD CALLDATALOAD PUSH8 0xFFFFFFFFFFFFFFFF DUP2 GT ISZERO PUSH2 0x516 JUMPI PUSH2 0x515 PUSH2 0x360 JUMP JUMPDEST JUMPDEST PUSH2 0x522 DUP6 DUP3 DUP7 ADD PUSH2 0x47D JUMP JUMPDEST SWAP3 POP POP PUSH1 0x20 PUSH2 0x533 DUP6 DUP3 DUP7 ADD PUSH2 0x4CC JUMP JUMPDEST SWAP2 POP POP SWAP3 POP SWAP3 SWAP1 POP JUMP JUMPDEST PUSH1 0x0 DUP2 ISZERO ISZERO SWAP1 POP SWAP2 SWAP1 POP JUMP JUMPDEST PUSH2 0x552 DUP2 PUSH2 0x53D JUMP JUMPDEST DUP3 MSTORE POP POP JUMP JUMPDEST PUSH1 0x0 PUSH1 0x20 DUP3 ADD SWAP1 POP PUSH2 0x56D PUSH1 0x0 DUP4 ADD DUP5 PUSH2 0x549 JUMP JUMPDEST SWAP3 SWAP2 POP POP JUMP JUMPDEST PUSH1 0x0 PUSH1 0x20 DUP3 DUP5 SUB SLT ISZERO PUSH2 0x589 JUMPI PUSH2 0x588 PUSH2 0x35B JUMP JUMPDEST JUMPDEST PUSH1 0x0 DUP3 ADD CALLDATALOAD PUSH8 0xFFFFFFFFFFFFFFFF DUP2 GT ISZERO PUSH2 0x5A7 JUMPI PUSH2 0x5A6 PUSH2 0x360 JUMP JUMPDEST JUMPDEST PUSH2 0x5B3 DUP5 DUP3 DUP6 ADD PUSH2 0x47D JUMP JUMPDEST SWAP2 POP POP SWAP3 SWAP2 POP POP JUMP JUMPDEST PUSH2 0x5C5 DUP2 PUSH2 0x4AB JUMP JUMPDEST DUP3 MSTORE POP POP JUMP JUMPDEST PUSH1 0x0 PUSH1 0x40 DUP3 ADD SWAP1 POP PUSH2 0x5E0 PUSH1 0x0 DUP4 ADD DUP6 PUSH2 0x549 JUMP JUMPDEST PUSH2 0x5ED PUSH1 0x20 DUP4 ADD DUP5 PUSH2 0x5BC JUMP JUMPDEST SWAP4 SWAP3 POP POP POP JUMP JUMPDEST PUSH32 0x4E487B7100000000000000000000000000000000000000000000000000000000 PUSH1 0x0 MSTORE PUSH1 0x11 PUSH1 0x4 MSTORE PUSH1 0x24 PUSH1 0x0 REVERT JUMPDEST PUSH1 0x0 PUSH2 0x62E DUP3 PUSH2 0x4AB JUMP JUMPDEST SWAP2 POP PUSH32 0xFFFFFFFFFFFFFFFFFFFFFFFFFFFFFFFFFFFFFFFFFFFFFFFFFFFFFFFFFFFFFFFF DUP3 SUB PUSH2 0x660 JUMPI PUSH2 0x65F PUSH2 0x5F4 JUMP JUMPDEST JUMPDEST PUSH1 0x1 DUP3 ADD SWAP1 POP SWAP2 SWAP1 POP JUMP JUMPDEST PUSH1 0x0 DUP2 MLOAD SWAP1 POP SWAP2 SWAP1 POP JUMP JUMPDEST PUSH1 0x0 DUP2 SWAP1 POP SWAP3 SWAP2 POP POP JUMP JUMPDEST PUSH1 0x0 JUMPDEST DUP4 DUP2 LT ISZERO PUSH2 0x69F JUMPI DUP1 DUP3 ADD MLOAD DUP2 DUP5 ADD MSTORE PUSH1 0x20 DUP2 ADD SWAP1 POP PUSH2 0x684 JUMP JUMPDEST DUP4 DUP2 GT ISZERO PUSH2 0x6AE JUMPI PUSH1 0x0 DUP5 DUP5 ADD MSTORE JUMPDEST POP POP POP POP JUMP JUMPDEST PUSH1 0x0 PUSH2 0x6BF DUP3 PUSH2 0x66B JUMP JUMPDEST PUSH2 0x6C9 DUP2 DUP6 PUSH2 0x676 JUMP JUMPDEST SWAP4 POP PUSH2 0x6D9 DUP2 DUP6 PUSH1 0x20 DUP7 ADD PUSH2 0x681 JUMP JUMPDEST DUP1 DUP5 ADD SWAP2 POP POP SWAP3 SWAP2 POP POP JUMP JUMPDEST PUSH1 0x0 PUSH2 0x6F1 DUP3 DUP5 PUSH2 0x6B4 JUMP JUMPDEST SWAP2 POP DUP2 SWAP1 POP SWAP3 SWAP2 POP POP JUMP JUMPDEST PUSH1 0x0 PUSH2 0x707 DUP3 PUSH2 0x4AB JUMP JUMPDEST SWAP2 POP PUSH2 0x712 DUP4 PUSH2 0x4AB JUMP JUMPDEST SWAP3 POP DUP3 PUSH32 0xFFFFFFFFFFFFFFFFFFFFFFFFFFFFFFFFFFFFFFFFFFFFFFFFFFFFFFFFFFFFFFFF SUB DUP3 GT ISZERO PUSH2 0x747 JUMPI PUSH2 0x746 PUSH2 0x5F4 JUMP JUMPDEST JUMPDEST DUP3 DUP3 ADD SWAP1 POP SWAP3 SWAP2 POP POP JUMP JUMPDEST PUSH32 0x4E487B7100000000000000000000000000000000000000000000000000000000 PUSH1 0x0 MSTORE PUSH1 0x22 PUSH1 0x4 MSTORE PUSH1 0x24 PUSH1 0x0 REVERT JUMPDEST PUSH1 0x0 PUSH1 0x2 DUP3 DIV SWAP1 POP PUSH1 0x1 DUP3 AND DUP1 PUSH2 0x799 JUMPI PUSH1 0x7F DUP3 AND SWAP2 POP JUMPDEST PUSH1 0x20 DUP3 LT DUP2 SUB PUSH2 0x7AC JUMPI PUSH2 0x7AB PUSH2 0x752 JUMP JUMPDEST JUMPDEST POP SWAP2 SWAP1 POP JUMP INVALID LOG2 PUSH5 0x6970667358 0x22 SLT KECCAK256 BYTE MOD 0xFC 0x2D 0xEA ADD PUSH17 0xBACCB13F6B349120BBF72D43E50BC2658E NOT CALLDATALOAD REVERT BLOCKHASH 0x4A 0xDA POP INVALID PUSH5 0x736F6C6343 STOP ADDMOD 0xD STOP CALLER "
				},
				"gasEstimates": {
					"creation": {
						"codeDepositCost": "404800",
						"executionCost": "5449",
						"totalCost": "410249"
					},
					"external": {
						"comprobarCausa(string)": "infinite",
						"donar(string,uint256)": "infinite",
						"nuevaCausa(string,uint256)": "infinite"
					}
				},
				"methodIdentifiers": {
					"comprobarCausa(string)": "7109005c",
					"donar(string,uint256)": "45cd81b3",
					"nuevaCausa(string,uint256)": "2ca08792"
				}
			},
			"storageLayout": {
				"storage": [
					{
						"astId": 13,
						"contract": "Funciones/causas beneficas.sol:CausasBeneficas",
						"label": "contador_causas",
						"offset": 0,
						"slot": "0",
						"type": "t_uint256"
					},
					{
						"astId": 18,
						"contract": "Funciones/causas beneficas.sol:CausasBeneficas",
						"label": "causas",
						"offset": 0,
						"slot": "1",
						"type": "t_mapping(t_string_memory_ptr,t_struct(Causa)10_storage)"
					}
				],
				"types": {
					"t_mapping(t_string_memory_ptr,t_struct(Causa)10_storage)": {
						"encoding": "mapping",
						"key": "t_string_memory_ptr",
						"label": "mapping(string => struct CausasBeneficas.Causa)",
						"numberOfBytes": "32",
						"value": "t_struct(Causa)10_storage"
					},
					"t_string_memory_ptr": {
						"encoding": "bytes",
						"label": "string",
						"numberOfBytes": "32"
					},
					"t_string_storage": {
						"encoding": "bytes",
						"label": "string",
						"numberOfBytes": "32"
					},
					"t_struct(Causa)10_storage": {
						"encoding": "inplace",
						"label": "struct CausasBeneficas.Causa",
						"members": [
							{
								"astId": 3,
								"contract": "Funciones/causas beneficas.sol:CausasBeneficas",
								"label": "id",
								"offset": 0,
								"slot": "0",
								"type": "t_uint256"
							},
							{
								"astId": 5,
								"contract": "Funciones/causas beneficas.sol:CausasBeneficas",
								"label": "nombre",
								"offset": 0,
								"slot": "1",
								"type": "t_string_storage"
							},
							{
								"astId": 7,
								"contract": "Funciones/causas beneficas.sol:CausasBeneficas",
								"label": "recaudacion_objetivo",
								"offset": 0,
								"slot": "2",
								"type": "t_uint256"
							},
							{
								"astId": 9,
								"contract": "Funciones/causas beneficas.sol:CausasBeneficas",
								"label": "dinero_recaudado",
								"offset": 0,
								"slot": "3",
								"type": "t_uint256"
							}
						],
						"numberOfBytes": "128"
					},
					"t_uint256": {
						"encoding": "inplace",
						"label": "uint256",
						"numberOfBytes": "32"
					}
				}
			},
			"userdoc": {
				"kind": "user",
				"methods": {},
				"version": 1
			}
		}
	}
}