{
	"Funciones/funciones.sol": {
		"Funciones": {
			"abi": [
				{
					"inputs": [
						{
							"internalType": "uint256",
							"name": "",
							"type": "uint256"
						}
					],
					"name": "alumnos",
					"outputs": [
						{
							"internalType": "uint256",
							"name": "id",
							"type": "uint256"
						},
						{
							"internalType": "string",
							"name": "nombre",
							"type": "string"
						},
						{
							"internalType": "address",
							"name": "direccion",
							"type": "address"
						},
						{
							"internalType": "uint256",
							"name": "edad",
							"type": "uint256"
						}
					],
					"stateMutability": "view",
					"type": "function"
				},
				{
					"inputs": [
						{
							"internalType": "string",
							"name": "_datos",
							"type": "string"
						}
					],
					"name": "calularHash",
					"outputs": [],
					"stateMutability": "nonpayable",
					"type": "function"
				},
				{
					"inputs": [
						{
							"internalType": "string",
							"name": "_ingredientes",
							"type": "string"
						}
					],
					"name": "crearHamburguesa",
					"outputs": [],
					"stateMutability": "nonpayable",
					"type": "function"
				},
				{
					"inputs": [
						{
							"internalType": "uint256",
							"name": "",
							"type": "uint256"
						}
					],
					"name": "direcciones",
					"outputs": [
						{
							"internalType": "address",
							"name": "",
							"type": "address"
						}
					],
					"stateMutability": "view",
					"type": "function"
				},
				{
					"inputs": [],
					"name": "hamburguesa",
					"outputs": [
						{
							"internalType": "uint256",
							"name": "id",
							"type": "uint256"
						},
						{
							"internalType": "string",
							"name": "nombre",
							"type": "string"
						},
						{
							"internalType": "string",
							"name": "ingredientes",
							"type": "string"
						}
					],
					"stateMutability": "view",
					"type": "function"
				},
				{
					"inputs": [],
					"name": "hash",
					"outputs": [
						{
							"internalType": "bytes32",
							"name": "",
							"type": "bytes32"
						}
					],
					"stateMutability": "view",
					"type": "function"
				},
				{
					"inputs": [],
					"name": "hash_id_alumno",
					"outputs": [
						{
							"internalType": "bytes32",
							"name": "",
							"type": "bytes32"
						}
					],
					"stateMutability": "view",
					"type": "function"
				},
				{
					"inputs": [],
					"name": "nuevaDireccion",
					"outputs": [],
					"stateMutability": "nonpayable",
					"type": "function"
				},
				{
					"inputs": [
						{
							"internalType": "uint256",
							"name": "_id",
							"type": "uint256"
						},
						{
							"internalType": "string",
							"name": "_nombre",
							"type": "string"
						},
						{
							"internalType": "uint256",
							"name": "_edad",
							"type": "uint256"
						}
					],
					"name": "nuevoAlumno",
					"outputs": [],
					"stateMutability": "nonpayable",
					"type": "function"
				}
			],
			"devdoc": {
				"methods": {}
			},
			"evm": {
				"assembly": "    /* \"Funciones/funciones.sol\":70:1429  contract Funciones{\r... */\n  mstore(0x40, 0x80)\n  callvalue\n    /* \"--CODEGEN--\":5:14   */\n  dup1\n    /* \"--CODEGEN--\":2:4   */\n  iszero\n  tag_1\n  jumpi\n    /* \"--CODEGEN--\":27:28   */\n  0x00\n    /* \"--CODEGEN--\":24:25   */\n  dup1\n    /* \"--CODEGEN--\":17:29   */\n  revert\n    /* \"--CODEGEN--\":2:4   */\ntag_1:\n    /* \"Funciones/funciones.sol\":70:1429  contract Funciones{\r... */\n  pop\n  dataSize(sub_0)\n  dup1\n  dataOffset(sub_0)\n  0x00\n  codecopy\n  0x00\n  return\nstop\n\nsub_0: assembly {\n        /* \"Funciones/funciones.sol\":70:1429  contract Funciones{\r... */\n      mstore(0x40, 0x80)\n      callvalue\n        /* \"--CODEGEN--\":5:14   */\n      dup1\n        /* \"--CODEGEN--\":2:4   */\n      iszero\n      tag_1\n      jumpi\n        /* \"--CODEGEN--\":27:28   */\n      0x00\n        /* \"--CODEGEN--\":24:25   */\n      dup1\n        /* \"--CODEGEN--\":17:29   */\n      revert\n        /* \"--CODEGEN--\":2:4   */\n    tag_1:\n        /* \"Funciones/funciones.sol\":70:1429  contract Funciones{\r... */\n      pop\n      jumpi(tag_2, lt(calldatasize, 0x04))\n      shr(0xe0, calldataload(0x00))\n      dup1\n      0x69ddcade\n      gt\n      tag_12\n      jumpi\n      dup1\n      0x69ddcade\n      eq\n      tag_7\n      jumpi\n      dup1\n      0x9e26bc4f\n      eq\n      tag_8\n      jumpi\n      dup1\n      0xa7469ee3\n      eq\n      tag_9\n      jumpi\n      dup1\n      0xb4f57473\n      eq\n      tag_10\n      jumpi\n      dup1\n      0xc74efaef\n      eq\n      tag_11\n      jumpi\n      jump(tag_2)\n    tag_12:\n      dup1\n      0x09bd5a60\n      eq\n      tag_3\n      jumpi\n      dup1\n      0x33c83dbd\n      eq\n      tag_4\n      jumpi\n      dup1\n      0x42d73314\n      eq\n      tag_5\n      jumpi\n      dup1\n      0x547cbcad\n      eq\n      tag_6\n      jumpi\n    tag_2:\n        /* \"--CODEGEN--\":12:13   */\n      0x00\n        /* \"--CODEGEN--\":9:10   */\n      dup1\n        /* \"--CODEGEN--\":2:14   */\n      revert\n        /* \"Funciones/funciones.sol\":326:345  bytes32 public hash */\n    tag_3:\n      tag_13\n      tag_14\n      jump\t// in\n    tag_13:\n      mload(0x40)\n      tag_15\n      swap2\n      swap1\n      jump(tag_16)\n    tag_15:\n      mload(0x40)\n      dup1\n      swap2\n      sub\n      swap1\n      return\n        /* \"Funciones/funciones.sol\":611:743  function crearHamburguesa(string memory _ingredientes) public {\r... */\n    tag_4:\n      tag_17\n      0x04\n      dup1\n      calldatasize\n      sub\n      dup2\n      add\n      swap1\n      tag_18\n      swap2\n      swap1\n      jump(tag_19)\n    tag_18:\n      tag_20\n      jump\t// in\n    tag_17:\n      stop\n        /* \"Funciones/funciones.sol\":239:318  function nuevaDireccion() public{\r... */\n    tag_5:\n      tag_21\n      tag_22\n      jump\t// in\n    tag_21:\n      stop\n        /* \"Funciones/funciones.sol\":201:230  address [] public direcciones */\n    tag_6:\n      tag_23\n      0x04\n      dup1\n      calldatasize\n      sub\n      dup2\n      add\n      swap1\n      tag_24\n      swap2\n      swap1\n      jump(tag_25)\n    tag_24:\n      tag_26\n      jump\t// in\n    tag_23:\n      mload(0x40)\n      tag_27\n      swap2\n      swap1\n      jump(tag_28)\n    tag_27:\n      mload(0x40)\n      dup1\n      swap2\n      sub\n      swap1\n      return\n        /* \"Funciones/funciones.sol\":906:930  Alumno [] public alumnos */\n    tag_7:\n      tag_29\n      0x04\n      dup1\n      calldatasize\n      sub\n      dup2\n      add\n      swap1\n      tag_30\n      swap2\n      swap1\n      jump(tag_25)\n    tag_30:\n      tag_31\n      jump\t// in\n    tag_29:\n      mload(0x40)\n      tag_32\n      swap5\n      swap4\n      swap3\n      swap2\n      swap1\n      jump(tag_33)\n    tag_32:\n      mload(0x40)\n      dup1\n      swap2\n      sub\n      swap1\n      return\n        /* \"Funciones/funciones.sol\":985:1227  function nuevoAlumno(uint _id, string memory _nombre, uint _edad )public{\r... */\n    tag_8:\n      tag_34\n      0x04\n      dup1\n      calldatasize\n      sub\n      dup2\n      add\n      swap1\n      tag_35\n      swap2\n      swap1\n      jump(tag_36)\n    tag_35:\n      tag_37\n      jump\t// in\n    tag_34:\n      stop\n        /* \"Funciones/funciones.sol\":354:467  function calularHash(string memory _datos) public {\r... */\n    tag_9:\n      tag_38\n      0x04\n      dup1\n      calldatasize\n      sub\n      dup2\n      add\n      swap1\n      tag_39\n      swap2\n      swap1\n      jump(tag_19)\n    tag_39:\n      tag_40\n      jump\t// in\n    tag_38:\n      stop\n        /* \"Funciones/funciones.sol\":870:899  bytes32 public hash_id_alumno */\n    tag_10:\n      tag_41\n      tag_42\n      jump\t// in\n    tag_41:\n      mload(0x40)\n      tag_43\n      swap2\n      swap1\n      jump(tag_16)\n    tag_43:\n      mload(0x40)\n      dup1\n      swap2\n      sub\n      swap1\n      return\n        /* \"Funciones/funciones.sol\":577:602  Comida public hamburguesa */\n    tag_11:\n      tag_44\n      tag_45\n      jump\t// in\n    tag_44:\n      mload(0x40)\n      tag_46\n      swap4\n      swap3\n      swap2\n      swap1\n      jump(tag_47)\n    tag_46:\n      mload(0x40)\n      dup1\n      swap2\n      sub\n      swap1\n      return\n        /* \"Funciones/funciones.sol\":326:345  bytes32 public hash */\n    tag_14:\n      sload(0x01)\n      dup2\n      jump\t// out\n        /* \"Funciones/funciones.sol\":611:743  function crearHamburguesa(string memory _ingredientes) public {\r... */\n    tag_20:\n        /* \"Funciones/funciones.sol\":698:735  Comida(1,\"Hamburguesa\",_ingredientes) */\n      mload(0x40)\n      dup1\n      0x60\n      add\n      0x40\n      mstore\n      dup1\n        /* \"Funciones/funciones.sol\":705:706  1 */\n      0x01\n        /* \"Funciones/funciones.sol\":698:735  Comida(1,\"Hamburguesa\",_ingredientes) */\n      dup2\n      mstore\n      0x20\n      add\n      mload(0x40)\n      dup1\n      0x40\n      add\n      0x40\n      mstore\n      dup1\n      0x0b\n      dup2\n      mstore\n      0x20\n      add\n      0x48616d6275726775657361000000000000000000000000000000000000000000\n      dup2\n      mstore\n      pop\n      dup2\n      mstore\n      0x20\n      add\n        /* \"Funciones/funciones.sol\":721:734  _ingredientes */\n      dup3\n        /* \"Funciones/funciones.sol\":698:735  Comida(1,\"Hamburguesa\",_ingredientes) */\n      dup2\n      mstore\n      pop\n        /* \"Funciones/funciones.sol\":684:695  hamburguesa */\n      0x02\n        /* \"Funciones/funciones.sol\":684:735  hamburguesa = Comida(1,\"Hamburguesa\",_ingredientes) */\n      0x00\n      dup3\n      add\n      mload\n      dup2\n      0x00\n      add\n      sstore\n      0x20\n      dup3\n      add\n      mload\n      dup2\n      0x01\n      add\n      swap1\n      dup1\n      mload\n      swap1\n      0x20\n      add\n      swap1\n      tag_49\n      swap3\n      swap2\n      swap1\n      tag_50\n      jump\t// in\n    tag_49:\n      pop\n      0x40\n      dup3\n      add\n      mload\n      dup2\n      0x02\n      add\n      swap1\n      dup1\n      mload\n      swap1\n      0x20\n      add\n      swap1\n      tag_51\n      swap3\n      swap2\n      swap1\n      tag_50\n      jump\t// in\n    tag_51:\n      pop\n      swap1\n      pop\n      pop\n        /* \"Funciones/funciones.sol\":611:743  function crearHamburguesa(string memory _ingredientes) public {\r... */\n      pop\n      jump\t// out\n        /* \"Funciones/funciones.sol\":239:318  function nuevaDireccion() public{\r... */\n    tag_22:\n        /* \"Funciones/funciones.sol\":282:293  direcciones */\n      0x00\n        /* \"Funciones/funciones.sol\":299:309  msg.sender */\n      caller\n        /* \"Funciones/funciones.sol\":282:310  direcciones.push(msg.sender) */\n      swap1\n      dup1\n        /* \"--CODEGEN--\":39:40   */\n      0x01\n        /* \"--CODEGEN--\":33:36   */\n      dup2\n        /* \"--CODEGEN--\":27:37   */\n      sload\n        /* \"--CODEGEN--\":23:41   */\n      add\n        /* \"--CODEGEN--\":57:67   */\n      dup1\n        /* \"--CODEGEN--\":52:55   */\n      dup3\n        /* \"--CODEGEN--\":45:68   */\n      sstore\n        /* \"--CODEGEN--\":79:89   */\n      dup1\n        /* \"--CODEGEN--\":72:89   */\n      swap2\n      pop\n        /* \"--CODEGEN--\":0:93   */\n      pop\n        /* \"Funciones/funciones.sol\":282:310  direcciones.push(msg.sender) */\n      0x01\n      swap1\n      sub\n      swap1\n      0x00\n      mstore\n      keccak256(0x00, 0x20)\n      add\n      0x00\n      swap1\n      swap2\n      swap1\n      swap2\n      swap1\n      swap2\n      0x0100\n      exp\n      dup2\n      sload\n      dup2\n      0xffffffffffffffffffffffffffffffffffffffff\n      mul\n      not\n      and\n      swap1\n      dup4\n      0xffffffffffffffffffffffffffffffffffffffff\n      and\n      mul\n      or\n      swap1\n      sstore\n      pop\n        /* \"Funciones/funciones.sol\":239:318  function nuevaDireccion() public{\r... */\n      jump\t// out\n        /* \"Funciones/funciones.sol\":201:230  address [] public direcciones */\n    tag_26:\n      0x00\n      dup2\n      dup2\n      sload\n      dup2\n      lt\n      tag_54\n      jumpi\n      invalid\n    tag_54:\n      swap1\n      0x00\n      mstore\n      keccak256(0x00, 0x20)\n      add\n      0x00\n      swap2\n      pop\n      sload\n      swap1\n      0x0100\n      exp\n      swap1\n      div\n      0xffffffffffffffffffffffffffffffffffffffff\n      and\n      dup2\n      jump\t// out\n        /* \"Funciones/funciones.sol\":906:930  Alumno [] public alumnos */\n    tag_31:\n      0x06\n      dup2\n      dup2\n      sload\n      dup2\n      lt\n      tag_56\n      jumpi\n      invalid\n    tag_56:\n      swap1\n      0x00\n      mstore\n      keccak256(0x00, 0x20)\n      swap1\n      0x04\n      mul\n      add\n      0x00\n      swap2\n      pop\n      swap1\n      pop\n      dup1\n      0x00\n      add\n      sload\n      swap1\n      dup1\n      0x01\n      add\n      dup1\n      sload\n      0x01\n      dup2\n      0x01\n      and\n      iszero\n      0x0100\n      mul\n      sub\n      and\n      0x02\n      swap1\n      div\n      dup1\n      0x1f\n      add\n      0x20\n      dup1\n      swap2\n      div\n      mul\n      0x20\n      add\n      mload(0x40)\n      swap1\n      dup2\n      add\n      0x40\n      mstore\n      dup1\n      swap3\n      swap2\n      swap1\n      dup2\n      dup2\n      mstore\n      0x20\n      add\n      dup3\n      dup1\n      sload\n      0x01\n      dup2\n      0x01\n      and\n      iszero\n      0x0100\n      mul\n      sub\n      and\n      0x02\n      swap1\n      div\n      dup1\n      iszero\n      tag_58\n      jumpi\n      dup1\n      0x1f\n      lt\n      tag_59\n      jumpi\n      0x0100\n      dup1\n      dup4\n      sload\n      div\n      mul\n      dup4\n      mstore\n      swap2\n      0x20\n      add\n      swap2\n      jump(tag_58)\n    tag_59:\n      dup3\n      add\n      swap2\n      swap1\n      0x00\n      mstore\n      keccak256(0x00, 0x20)\n      swap1\n    tag_60:\n      dup2\n      sload\n      dup2\n      mstore\n      swap1\n      0x01\n      add\n      swap1\n      0x20\n      add\n      dup1\n      dup4\n      gt\n      tag_60\n      jumpi\n      dup3\n      swap1\n      sub\n      0x1f\n      and\n      dup3\n      add\n      swap2\n    tag_58:\n      pop\n      pop\n      pop\n      pop\n      pop\n      swap1\n      dup1\n      0x02\n      add\n      0x00\n      swap1\n      sload\n      swap1\n      0x0100\n      exp\n      swap1\n      div\n      0xffffffffffffffffffffffffffffffffffffffff\n      and\n      swap1\n      dup1\n      0x03\n      add\n      sload\n      swap1\n      pop\n      dup5\n      jump\t// out\n        /* \"Funciones/funciones.sol\":985:1227  function nuevoAlumno(uint _id, string memory _nombre, uint _edad )public{\r... */\n    tag_37:\n        /* \"Funciones/funciones.sol\":1068:1075  alumnos */\n      0x06\n        /* \"Funciones/funciones.sol\":1081:1117  Alumno(_id,_nombre,msg.sender,_edad) */\n      mload(0x40)\n      dup1\n      0x80\n      add\n      0x40\n      mstore\n      dup1\n        /* \"Funciones/funciones.sol\":1088:1091  _id */\n      dup6\n        /* \"Funciones/funciones.sol\":1081:1117  Alumno(_id,_nombre,msg.sender,_edad) */\n      dup2\n      mstore\n      0x20\n      add\n        /* \"Funciones/funciones.sol\":1092:1099  _nombre */\n      dup5\n        /* \"Funciones/funciones.sol\":1081:1117  Alumno(_id,_nombre,msg.sender,_edad) */\n      dup2\n      mstore\n      0x20\n      add\n        /* \"Funciones/funciones.sol\":1100:1110  msg.sender */\n      caller\n        /* \"Funciones/funciones.sol\":1081:1117  Alumno(_id,_nombre,msg.sender,_edad) */\n      0xffffffffffffffffffffffffffffffffffffffff\n      and\n      dup2\n      mstore\n      0x20\n      add\n        /* \"Funciones/funciones.sol\":1111:1116  _edad */\n      dup4\n        /* \"Funciones/funciones.sol\":1081:1117  Alumno(_id,_nombre,msg.sender,_edad) */\n      dup2\n      mstore\n      pop\n        /* \"Funciones/funciones.sol\":1068:1118  alumnos.push(Alumno(_id,_nombre,msg.sender,_edad)) */\n      swap1\n      dup1\n        /* \"--CODEGEN--\":39:40   */\n      0x01\n        /* \"--CODEGEN--\":33:36   */\n      dup2\n        /* \"--CODEGEN--\":27:37   */\n      sload\n        /* \"--CODEGEN--\":23:41   */\n      add\n        /* \"--CODEGEN--\":57:67   */\n      dup1\n        /* \"--CODEGEN--\":52:55   */\n      dup3\n        /* \"--CODEGEN--\":45:68   */\n      sstore\n        /* \"--CODEGEN--\":79:89   */\n      dup1\n        /* \"--CODEGEN--\":72:89   */\n      swap2\n      pop\n        /* \"--CODEGEN--\":0:93   */\n      pop\n        /* \"Funciones/funciones.sol\":1068:1118  alumnos.push(Alumno(_id,_nombre,msg.sender,_edad)) */\n      0x01\n      swap1\n      sub\n      swap1\n      0x00\n      mstore\n      keccak256(0x00, 0x20)\n      swap1\n      0x04\n      mul\n      add\n      0x00\n      swap1\n      swap2\n      swap1\n      swap2\n      swap1\n      swap2\n      pop\n      0x00\n      dup3\n      add\n      mload\n      dup2\n      0x00\n      add\n      sstore\n      0x20\n      dup3\n      add\n      mload\n      dup2\n      0x01\n      add\n      swap1\n      dup1\n      mload\n      swap1\n      0x20\n      add\n      swap1\n      tag_63\n      swap3\n      swap2\n      swap1\n      tag_50\n      jump\t// in\n    tag_63:\n      pop\n      0x40\n      dup3\n      add\n      mload\n      dup2\n      0x02\n      add\n      exp(0x0100, 0x00)\n      dup2\n      sload\n      dup2\n      0xffffffffffffffffffffffffffffffffffffffff\n      mul\n      not\n      and\n      swap1\n      dup4\n      0xffffffffffffffffffffffffffffffffffffffff\n      and\n      mul\n      or\n      swap1\n      sstore\n      pop\n      0x60\n      dup3\n      add\n      mload\n      dup2\n      0x03\n      add\n      sstore\n      pop\n      pop\n        /* \"Funciones/funciones.sol\":1129:1171  hashIdAlumno(_id,_nombre,msg.sender,_edad) */\n      tag_64\n        /* \"Funciones/funciones.sol\":1142:1145  _id */\n      dup4\n        /* \"Funciones/funciones.sol\":1146:1153  _nombre */\n      dup4\n        /* \"Funciones/funciones.sol\":1154:1164  msg.sender */\n      caller\n        /* \"Funciones/funciones.sol\":1165:1170  _edad */\n      dup5\n        /* \"Funciones/funciones.sol\":1129:1141  hashIdAlumno */\n      tag_65\n        /* \"Funciones/funciones.sol\":1129:1171  hashIdAlumno(_id,_nombre,msg.sender,_edad) */\n      jump\t// in\n    tag_64:\n        /* \"Funciones/funciones.sol\":1205:1219  hash_id_alumno */\n      sload(0x05)\n        /* \"Funciones/funciones.sol\":1182:1193  alumno_hash */\n      0x07\n        /* \"Funciones/funciones.sol\":1194:1201  _nombre */\n      dup4\n        /* \"Funciones/funciones.sol\":1182:1202  alumno_hash[_nombre] */\n      mload(0x40)\n      tag_66\n      swap2\n      swap1\n      jump(tag_67)\n    tag_66:\n      swap1\n      dup2\n      mstore\n      0x20\n      add\n      mload(0x40)\n      dup1\n      swap2\n      sub\n      swap1\n      keccak256\n        /* \"Funciones/funciones.sol\":1182:1219  alumno_hash[_nombre] = hash_id_alumno */\n      dup2\n      swap1\n      sstore\n      pop\n        /* \"Funciones/funciones.sol\":985:1227  function nuevoAlumno(uint _id, string memory _nombre, uint _edad )public{\r... */\n      pop\n      pop\n      pop\n      jump\t// out\n        /* \"Funciones/funciones.sol\":354:467  function calularHash(string memory _datos) public {\r... */\n    tag_40:\n        /* \"Funciones/funciones.sol\":449:455  _datos */\n      dup1\n        /* \"Funciones/funciones.sol\":432:456  abi.encodePacked(_datos) */\n      add(0x20, mload(0x40))\n      tag_69\n      swap2\n      swap1\n      jump(tag_67)\n    tag_69:\n      mload(0x40)\n        /* \"--CODEGEN--\":49:53   */\n      0x20\n        /* \"--CODEGEN--\":39:46   */\n      dup2\n        /* \"--CODEGEN--\":30:37   */\n      dup4\n        /* \"--CODEGEN--\":26:47   */\n      sub\n        /* \"--CODEGEN--\":22:54   */\n      sub\n        /* \"--CODEGEN--\":13:20   */\n      dup2\n        /* \"--CODEGEN--\":6:55   */\n      mstore\n        /* \"Funciones/funciones.sol\":432:456  abi.encodePacked(_datos) */\n      swap1\n      0x40\n      mstore\n        /* \"Funciones/funciones.sol\":422:457  keccak256(abi.encodePacked(_datos)) */\n      dup1\n      mload\n      swap1\n      0x20\n      add\n      keccak256\n        /* \"Funciones/funciones.sol\":415:419  hash */\n      0x01\n        /* \"Funciones/funciones.sol\":415:457  hash = keccak256(abi.encodePacked(_datos)) */\n      dup2\n      swap1\n      sstore\n      pop\n        /* \"Funciones/funciones.sol\":354:467  function calularHash(string memory _datos) public {\r... */\n      pop\n      jump\t// out\n        /* \"Funciones/funciones.sol\":870:899  bytes32 public hash_id_alumno */\n    tag_42:\n      sload(0x05)\n      dup2\n      jump\t// out\n        /* \"Funciones/funciones.sol\":577:602  Comida public hamburguesa */\n    tag_45:\n      0x02\n      dup1\n      0x00\n      add\n      sload\n      swap1\n      dup1\n      0x01\n      add\n      dup1\n      sload\n      0x01\n      dup2\n      0x01\n      and\n      iszero\n      0x0100\n      mul\n      sub\n      and\n      0x02\n      swap1\n      div\n      dup1\n      0x1f\n      add\n      0x20\n      dup1\n      swap2\n      div\n      mul\n      0x20\n      add\n      mload(0x40)\n      swap1\n      dup2\n      add\n      0x40\n      mstore\n      dup1\n      swap3\n      swap2\n      swap1\n      dup2\n      dup2\n      mstore\n      0x20\n      add\n      dup3\n      dup1\n      sload\n      0x01\n      dup2\n      0x01\n      and\n      iszero\n      0x0100\n      mul\n      sub\n      and\n      0x02\n      swap1\n      div\n      dup1\n      iszero\n      tag_70\n      jumpi\n      dup1\n      0x1f\n      lt\n      tag_71\n      jumpi\n      0x0100\n      dup1\n      dup4\n      sload\n      div\n      mul\n      dup4\n      mstore\n      swap2\n      0x20\n      add\n      swap2\n      jump(tag_70)\n    tag_71:\n      dup3\n      add\n      swap2\n      swap1\n      0x00\n      mstore\n      keccak256(0x00, 0x20)\n      swap1\n    tag_72:\n      dup2\n      sload\n      dup2\n      mstore\n      swap1\n      0x01\n      add\n      swap1\n      0x20\n      add\n      dup1\n      dup4\n      gt\n      tag_72\n      jumpi\n      dup3\n      swap1\n      sub\n      0x1f\n      and\n      dup3\n      add\n      swap2\n    tag_70:\n      pop\n      pop\n      pop\n      pop\n      pop\n      swap1\n      dup1\n      0x02\n      add\n      dup1\n      sload\n      0x01\n      dup2\n      0x01\n      and\n      iszero\n      0x0100\n      mul\n      sub\n      and\n      0x02\n      swap1\n      div\n      dup1\n      0x1f\n      add\n      0x20\n      dup1\n      swap2\n      div\n      mul\n      0x20\n      add\n      mload(0x40)\n      swap1\n      dup2\n      add\n      0x40\n      mstore\n      dup1\n      swap3\n      swap2\n      swap1\n      dup2\n      dup2\n      mstore\n      0x20\n      add\n      dup3\n      dup1\n      sload\n      0x01\n      dup2\n      0x01\n      and\n      iszero\n      0x0100\n      mul\n      sub\n      and\n      0x02\n      swap1\n      div\n      dup1\n      iszero\n      tag_73\n      jumpi\n      dup1\n      0x1f\n      lt\n      tag_74\n      jumpi\n      0x0100\n      dup1\n      dup4\n      sload\n      div\n      mul\n      dup4\n      mstore\n      swap2\n      0x20\n      add\n      swap2\n      jump(tag_73)\n    tag_74:\n      dup3\n      add\n      swap2\n      swap1\n      0x00\n      mstore\n      keccak256(0x00, 0x20)\n      swap1\n    tag_75:\n      dup2\n      sload\n      dup2\n      mstore\n      swap1\n      0x01\n      add\n      swap1\n      0x20\n      add\n      dup1\n      dup4\n      gt\n      tag_75\n      jumpi\n      dup3\n      swap1\n      sub\n      0x1f\n      and\n      dup3\n      add\n      swap2\n    tag_73:\n      pop\n      pop\n      pop\n      pop\n      pop\n      swap1\n      pop\n      dup4\n      jump\t// out\n        /* \"Funciones/funciones.sol\":1235:1426  function hashIdAlumno(uint _id, string memory _nombre, address _direccion, uint _edad) private {\r... */\n    tag_65:\n        /* \"Funciones/funciones.sol\":1385:1388  _id */\n      dup4\n        /* \"Funciones/funciones.sol\":1390:1397  _nombre */\n      dup4\n        /* \"Funciones/funciones.sol\":1399:1409  _direccion */\n      dup4\n        /* \"Funciones/funciones.sol\":1411:1416  _edad */\n      dup4\n        /* \"Funciones/funciones.sol\":1368:1417  abi.encodePacked(_id, _nombre, _direccion, _edad) */\n      add(0x20, mload(0x40))\n      tag_77\n      swap5\n      swap4\n      swap3\n      swap2\n      swap1\n      jump(tag_78)\n    tag_77:\n      mload(0x40)\n        /* \"--CODEGEN--\":49:53   */\n      0x20\n        /* \"--CODEGEN--\":39:46   */\n      dup2\n        /* \"--CODEGEN--\":30:37   */\n      dup4\n        /* \"--CODEGEN--\":26:47   */\n      sub\n        /* \"--CODEGEN--\":22:54   */\n      sub\n        /* \"--CODEGEN--\":13:20   */\n      dup2\n        /* \"--CODEGEN--\":6:55   */\n      mstore\n        /* \"Funciones/funciones.sol\":1368:1417  abi.encodePacked(_id, _nombre, _direccion, _edad) */\n      swap1\n      0x40\n      mstore\n        /* \"Funciones/funciones.sol\":1358:1418  keccak256(abi.encodePacked(_id, _nombre, _direccion, _edad)) */\n      dup1\n      mload\n      swap1\n      0x20\n      add\n      keccak256\n        /* \"Funciones/funciones.sol\":1341:1355  hash_id_alumno */\n      0x05\n        /* \"Funciones/funciones.sol\":1341:1418  hash_id_alumno = keccak256(abi.encodePacked(_id, _nombre, _direccion, _edad)) */\n      dup2\n      swap1\n      sstore\n      pop\n        /* \"Funciones/funciones.sol\":1235:1426  function hashIdAlumno(uint _id, string memory _nombre, address _direccion, uint _edad) private {\r... */\n      pop\n      pop\n      pop\n      pop\n      jump\t// out\n        /* \"Funciones/funciones.sol\":70:1429  contract Funciones{\r... */\n    tag_50:\n      dup3\n      dup1\n      sload\n      0x01\n      dup2\n      0x01\n      and\n      iszero\n      0x0100\n      mul\n      sub\n      and\n      0x02\n      swap1\n      div\n      swap1\n      0x00\n      mstore\n      keccak256(0x00, 0x20)\n      swap1\n      0x1f\n      add\n      0x20\n      swap1\n      div\n      dup2\n      add\n      swap3\n      dup3\n      0x1f\n      lt\n      tag_80\n      jumpi\n      dup1\n      mload\n      not(0xff)\n      and\n      dup4\n      dup1\n      add\n      or\n      dup6\n      sstore\n      jump(tag_79)\n    tag_80:\n      dup3\n      dup1\n      add\n      0x01\n      add\n      dup6\n      sstore\n      dup3\n      iszero\n      tag_79\n      jumpi\n      swap2\n      dup3\n      add\n    tag_81:\n      dup3\n      dup2\n      gt\n      iszero\n      tag_82\n      jumpi\n      dup3\n      mload\n      dup3\n      sstore\n      swap2\n      0x20\n      add\n      swap2\n      swap1\n      0x01\n      add\n      swap1\n      jump(tag_81)\n    tag_82:\n    tag_79:\n      pop\n      swap1\n      pop\n      tag_83\n      swap2\n      swap1\n      tag_84\n      jump\t// in\n    tag_83:\n      pop\n      swap1\n      jump\t// out\n    tag_84:\n      tag_85\n      swap2\n      swap1\n    tag_86:\n      dup1\n      dup3\n      gt\n      iszero\n      tag_87\n      jumpi\n      0x00\n      dup2\n      0x00\n      swap1\n      sstore\n      pop\n      0x01\n      add\n      jump(tag_86)\n    tag_87:\n      pop\n      swap1\n      jump\n    tag_85:\n      swap1\n      jump\t// out\n        /* \"--CODEGEN--\":6:448   */\n    tag_89:\n      0x00\n        /* \"--CODEGEN--\":108:111   */\n      dup3\n        /* \"--CODEGEN--\":101:105   */\n      0x1f\n        /* \"--CODEGEN--\":93:99   */\n      dup4\n        /* \"--CODEGEN--\":89:106   */\n      add\n        /* \"--CODEGEN--\":85:112   */\n      slt\n        /* \"--CODEGEN--\":75:77   */\n      tag_91\n      jumpi\n        /* \"--CODEGEN--\":126:127   */\n      0x00\n        /* \"--CODEGEN--\":123:124   */\n      dup1\n        /* \"--CODEGEN--\":116:128   */\n      revert\n        /* \"--CODEGEN--\":75:77   */\n    tag_91:\n        /* \"--CODEGEN--\":163:169   */\n      dup2\n        /* \"--CODEGEN--\":150:170   */\n      calldataload\n        /* \"--CODEGEN--\":185:250   */\n      tag_92\n        /* \"--CODEGEN--\":200:249   */\n      tag_93\n        /* \"--CODEGEN--\":242:248   */\n      dup3\n        /* \"--CODEGEN--\":200:249   */\n      jump(tag_94)\n    tag_93:\n        /* \"--CODEGEN--\":185:250   */\n      jump(tag_95)\n    tag_92:\n        /* \"--CODEGEN--\":176:250   */\n      swap2\n      pop\n        /* \"--CODEGEN--\":270:276   */\n      dup1\n        /* \"--CODEGEN--\":263:268   */\n      dup3\n        /* \"--CODEGEN--\":256:277   */\n      mstore\n        /* \"--CODEGEN--\":306:310   */\n      0x20\n        /* \"--CODEGEN--\":298:304   */\n      dup4\n        /* \"--CODEGEN--\":294:311   */\n      add\n        /* \"--CODEGEN--\":339:343   */\n      0x20\n        /* \"--CODEGEN--\":332:337   */\n      dup4\n        /* \"--CODEGEN--\":328:344   */\n      add\n        /* \"--CODEGEN--\":374:377   */\n      dup6\n        /* \"--CODEGEN--\":365:371   */\n      dup4\n        /* \"--CODEGEN--\":360:363   */\n      dup4\n        /* \"--CODEGEN--\":356:372   */\n      add\n        /* \"--CODEGEN--\":353:378   */\n      gt\n        /* \"--CODEGEN--\":350:352   */\n      iszero\n      tag_96\n      jumpi\n        /* \"--CODEGEN--\":391:392   */\n      0x00\n        /* \"--CODEGEN--\":388:389   */\n      dup1\n        /* \"--CODEGEN--\":381:393   */\n      revert\n        /* \"--CODEGEN--\":350:352   */\n    tag_96:\n        /* \"--CODEGEN--\":401:442   */\n      tag_97\n        /* \"--CODEGEN--\":435:441   */\n      dup4\n        /* \"--CODEGEN--\":430:433   */\n      dup3\n        /* \"--CODEGEN--\":425:428   */\n      dup5\n        /* \"--CODEGEN--\":401:442   */\n      jump(tag_98)\n    tag_97:\n        /* \"--CODEGEN--\":68:448   */\n      pop\n      pop\n      pop\n      swap3\n      swap2\n      pop\n      pop\n      jump\n        /* \"--CODEGEN--\":456:586   */\n    tag_99:\n      0x00\n        /* \"--CODEGEN--\":536:542   */\n      dup2\n        /* \"--CODEGEN--\":523:543   */\n      calldataload\n        /* \"--CODEGEN--\":514:543   */\n      swap1\n      pop\n        /* \"--CODEGEN--\":548:581   */\n      tag_101\n        /* \"--CODEGEN--\":575:580   */\n      dup2\n        /* \"--CODEGEN--\":548:581   */\n      jump(tag_102)\n    tag_101:\n        /* \"--CODEGEN--\":508:586   */\n      swap3\n      swap2\n      pop\n      pop\n      jump\n        /* \"--CODEGEN--\":593:940   */\n    tag_19:\n      0x00\n        /* \"--CODEGEN--\":707:709   */\n      0x20\n        /* \"--CODEGEN--\":695:704   */\n      dup3\n        /* \"--CODEGEN--\":686:693   */\n      dup5\n        /* \"--CODEGEN--\":682:705   */\n      sub\n        /* \"--CODEGEN--\":678:710   */\n      slt\n        /* \"--CODEGEN--\":675:677   */\n      iszero\n      tag_104\n      jumpi\n        /* \"--CODEGEN--\":723:724   */\n      0x00\n        /* \"--CODEGEN--\":720:721   */\n      dup1\n        /* \"--CODEGEN--\":713:725   */\n      revert\n        /* \"--CODEGEN--\":675:677   */\n    tag_104:\n        /* \"--CODEGEN--\":786:787   */\n      0x00\n        /* \"--CODEGEN--\":775:784   */\n      dup3\n        /* \"--CODEGEN--\":771:788   */\n      add\n        /* \"--CODEGEN--\":758:789   */\n      calldataload\n        /* \"--CODEGEN--\":809:827   */\n      0xffffffffffffffff\n        /* \"--CODEGEN--\":801:807   */\n      dup2\n        /* \"--CODEGEN--\":798:828   */\n      gt\n        /* \"--CODEGEN--\":795:797   */\n      iszero\n      tag_105\n      jumpi\n        /* \"--CODEGEN--\":841:842   */\n      0x00\n        /* \"--CODEGEN--\":838:839   */\n      dup1\n        /* \"--CODEGEN--\":831:843   */\n      revert\n        /* \"--CODEGEN--\":795:797   */\n    tag_105:\n        /* \"--CODEGEN--\":861:924   */\n      tag_106\n        /* \"--CODEGEN--\":916:923   */\n      dup5\n        /* \"--CODEGEN--\":907:913   */\n      dup3\n        /* \"--CODEGEN--\":896:905   */\n      dup6\n        /* \"--CODEGEN--\":892:914   */\n      add\n        /* \"--CODEGEN--\":861:924   */\n      jump(tag_89)\n    tag_106:\n        /* \"--CODEGEN--\":851:924   */\n      swap2\n      pop\n        /* \"--CODEGEN--\":737:930   */\n      pop\n        /* \"--CODEGEN--\":669:940   */\n      swap3\n      swap2\n      pop\n      pop\n      jump\n        /* \"--CODEGEN--\":947:1188   */\n    tag_25:\n      0x00\n        /* \"--CODEGEN--\":1051:1053   */\n      0x20\n        /* \"--CODEGEN--\":1039:1048   */\n      dup3\n        /* \"--CODEGEN--\":1030:1037   */\n      dup5\n        /* \"--CODEGEN--\":1026:1049   */\n      sub\n        /* \"--CODEGEN--\":1022:1054   */\n      slt\n        /* \"--CODEGEN--\":1019:1021   */\n      iszero\n      tag_108\n      jumpi\n        /* \"--CODEGEN--\":1067:1068   */\n      0x00\n        /* \"--CODEGEN--\":1064:1065   */\n      dup1\n        /* \"--CODEGEN--\":1057:1069   */\n      revert\n        /* \"--CODEGEN--\":1019:1021   */\n    tag_108:\n        /* \"--CODEGEN--\":1102:1103   */\n      0x00\n        /* \"--CODEGEN--\":1119:1172   */\n      tag_109\n        /* \"--CODEGEN--\":1164:1171   */\n      dup5\n        /* \"--CODEGEN--\":1155:1161   */\n      dup3\n        /* \"--CODEGEN--\":1144:1153   */\n      dup6\n        /* \"--CODEGEN--\":1140:1162   */\n      add\n        /* \"--CODEGEN--\":1119:1172   */\n      jump(tag_99)\n    tag_109:\n        /* \"--CODEGEN--\":1109:1172   */\n      swap2\n      pop\n        /* \"--CODEGEN--\":1081:1178   */\n      pop\n        /* \"--CODEGEN--\":1013:1188   */\n      swap3\n      swap2\n      pop\n      pop\n      jump\n        /* \"--CODEGEN--\":1195:1792   */\n    tag_36:\n      0x00\n      dup1\n      0x00\n        /* \"--CODEGEN--\":1343:1345   */\n      0x60\n        /* \"--CODEGEN--\":1331:1340   */\n      dup5\n        /* \"--CODEGEN--\":1322:1329   */\n      dup7\n        /* \"--CODEGEN--\":1318:1341   */\n      sub\n        /* \"--CODEGEN--\":1314:1346   */\n      slt\n        /* \"--CODEGEN--\":1311:1313   */\n      iszero\n      tag_111\n      jumpi\n        /* \"--CODEGEN--\":1359:1360   */\n      0x00\n        /* \"--CODEGEN--\":1356:1357   */\n      dup1\n        /* \"--CODEGEN--\":1349:1361   */\n      revert\n        /* \"--CODEGEN--\":1311:1313   */\n    tag_111:\n        /* \"--CODEGEN--\":1394:1395   */\n      0x00\n        /* \"--CODEGEN--\":1411:1464   */\n      tag_112\n        /* \"--CODEGEN--\":1456:1463   */\n      dup7\n        /* \"--CODEGEN--\":1447:1453   */\n      dup3\n        /* \"--CODEGEN--\":1436:1445   */\n      dup8\n        /* \"--CODEGEN--\":1432:1454   */\n      add\n        /* \"--CODEGEN--\":1411:1464   */\n      jump(tag_99)\n    tag_112:\n        /* \"--CODEGEN--\":1401:1464   */\n      swap4\n      pop\n        /* \"--CODEGEN--\":1373:1470   */\n      pop\n        /* \"--CODEGEN--\":1529:1531   */\n      0x20\n        /* \"--CODEGEN--\":1518:1527   */\n      dup5\n        /* \"--CODEGEN--\":1514:1532   */\n      add\n        /* \"--CODEGEN--\":1501:1533   */\n      calldataload\n        /* \"--CODEGEN--\":1553:1571   */\n      0xffffffffffffffff\n        /* \"--CODEGEN--\":1545:1551   */\n      dup2\n        /* \"--CODEGEN--\":1542:1572   */\n      gt\n        /* \"--CODEGEN--\":1539:1541   */\n      iszero\n      tag_113\n      jumpi\n        /* \"--CODEGEN--\":1585:1586   */\n      0x00\n        /* \"--CODEGEN--\":1582:1583   */\n      dup1\n        /* \"--CODEGEN--\":1575:1587   */\n      revert\n        /* \"--CODEGEN--\":1539:1541   */\n    tag_113:\n        /* \"--CODEGEN--\":1605:1668   */\n      tag_114\n        /* \"--CODEGEN--\":1660:1667   */\n      dup7\n        /* \"--CODEGEN--\":1651:1657   */\n      dup3\n        /* \"--CODEGEN--\":1640:1649   */\n      dup8\n        /* \"--CODEGEN--\":1636:1658   */\n      add\n        /* \"--CODEGEN--\":1605:1668   */\n      jump(tag_89)\n    tag_114:\n        /* \"--CODEGEN--\":1595:1668   */\n      swap3\n      pop\n        /* \"--CODEGEN--\":1480:1674   */\n      pop\n        /* \"--CODEGEN--\":1705:1707   */\n      0x40\n        /* \"--CODEGEN--\":1723:1776   */\n      tag_115\n        /* \"--CODEGEN--\":1768:1775   */\n      dup7\n        /* \"--CODEGEN--\":1759:1765   */\n      dup3\n        /* \"--CODEGEN--\":1748:1757   */\n      dup8\n        /* \"--CODEGEN--\":1744:1766   */\n      add\n        /* \"--CODEGEN--\":1723:1776   */\n      jump(tag_99)\n    tag_115:\n        /* \"--CODEGEN--\":1713:1776   */\n      swap2\n      pop\n        /* \"--CODEGEN--\":1684:1782   */\n      pop\n        /* \"--CODEGEN--\":1305:1792   */\n      swap3\n      pop\n      swap3\n      pop\n      swap3\n      jump\n        /* \"--CODEGEN--\":1799:1912   */\n    tag_116:\n        /* \"--CODEGEN--\":1882:1906   */\n      tag_118\n        /* \"--CODEGEN--\":1900:1905   */\n      dup2\n        /* \"--CODEGEN--\":1882:1906   */\n      jump(tag_119)\n    tag_118:\n        /* \"--CODEGEN--\":1877:1880   */\n      dup3\n        /* \"--CODEGEN--\":1870:1907   */\n      mstore\n        /* \"--CODEGEN--\":1864:1912   */\n      pop\n      pop\n      jump\n        /* \"--CODEGEN--\":1919:2071   */\n    tag_120:\n        /* \"--CODEGEN--\":2020:2065   */\n      tag_122\n        /* \"--CODEGEN--\":2040:2064   */\n      tag_123\n        /* \"--CODEGEN--\":2058:2063   */\n      dup3\n        /* \"--CODEGEN--\":2040:2064   */\n      jump(tag_119)\n    tag_123:\n        /* \"--CODEGEN--\":2020:2065   */\n      jump(tag_124)\n    tag_122:\n        /* \"--CODEGEN--\":2015:2018   */\n      dup3\n        /* \"--CODEGEN--\":2008:2066   */\n      mstore\n        /* \"--CODEGEN--\":2002:2071   */\n      pop\n      pop\n      jump\n        /* \"--CODEGEN--\":2078:2191   */\n    tag_125:\n        /* \"--CODEGEN--\":2161:2185   */\n      tag_127\n        /* \"--CODEGEN--\":2179:2184   */\n      dup2\n        /* \"--CODEGEN--\":2161:2185   */\n      jump(tag_128)\n    tag_127:\n        /* \"--CODEGEN--\":2156:2159   */\n      dup3\n        /* \"--CODEGEN--\":2149:2186   */\n      mstore\n        /* \"--CODEGEN--\":2143:2191   */\n      pop\n      pop\n      jump\n        /* \"--CODEGEN--\":2198:2545   */\n    tag_129:\n      0x00\n        /* \"--CODEGEN--\":2310:2349   */\n      tag_131\n        /* \"--CODEGEN--\":2343:2348   */\n      dup3\n        /* \"--CODEGEN--\":2310:2349   */\n      jump(tag_132)\n    tag_131:\n        /* \"--CODEGEN--\":2361:2432   */\n      tag_133\n        /* \"--CODEGEN--\":2425:2431   */\n      dup2\n        /* \"--CODEGEN--\":2420:2423   */\n      dup6\n        /* \"--CODEGEN--\":2361:2432   */\n      jump(tag_134)\n    tag_133:\n        /* \"--CODEGEN--\":2354:2432   */\n      swap4\n      pop\n        /* \"--CODEGEN--\":2437:2489   */\n      tag_135\n        /* \"--CODEGEN--\":2482:2488   */\n      dup2\n        /* \"--CODEGEN--\":2477:2480   */\n      dup6\n        /* \"--CODEGEN--\":2470:2474   */\n      0x20\n        /* \"--CODEGEN--\":2463:2468   */\n      dup7\n        /* \"--CODEGEN--\":2459:2475   */\n      add\n        /* \"--CODEGEN--\":2437:2489   */\n      jump(tag_136)\n    tag_135:\n        /* \"--CODEGEN--\":2510:2539   */\n      tag_137\n        /* \"--CODEGEN--\":2532:2538   */\n      dup2\n        /* \"--CODEGEN--\":2510:2539   */\n      jump(tag_138)\n    tag_137:\n        /* \"--CODEGEN--\":2505:2508   */\n      dup5\n        /* \"--CODEGEN--\":2501:2540   */\n      add\n        /* \"--CODEGEN--\":2494:2540   */\n      swap2\n      pop\n        /* \"--CODEGEN--\":2290:2545   */\n      pop\n      swap3\n      swap2\n      pop\n      pop\n      jump\n        /* \"--CODEGEN--\":2552:2912   */\n    tag_139:\n      0x00\n        /* \"--CODEGEN--\":2682:2721   */\n      tag_141\n        /* \"--CODEGEN--\":2715:2720   */\n      dup3\n        /* \"--CODEGEN--\":2682:2721   */\n      jump(tag_132)\n    tag_141:\n        /* \"--CODEGEN--\":2733:2822   */\n      tag_142\n        /* \"--CODEGEN--\":2815:2821   */\n      dup2\n        /* \"--CODEGEN--\":2810:2813   */\n      dup6\n        /* \"--CODEGEN--\":2733:2822   */\n      jump(tag_143)\n    tag_142:\n        /* \"--CODEGEN--\":2726:2822   */\n      swap4\n      pop\n        /* \"--CODEGEN--\":2827:2879   */\n      tag_144\n        /* \"--CODEGEN--\":2872:2878   */\n      dup2\n        /* \"--CODEGEN--\":2867:2870   */\n      dup6\n        /* \"--CODEGEN--\":2860:2864   */\n      0x20\n        /* \"--CODEGEN--\":2853:2858   */\n      dup7\n        /* \"--CODEGEN--\":2849:2865   */\n      add\n        /* \"--CODEGEN--\":2827:2879   */\n      jump(tag_136)\n    tag_144:\n        /* \"--CODEGEN--\":2900:2906   */\n      dup1\n        /* \"--CODEGEN--\":2895:2898   */\n      dup5\n        /* \"--CODEGEN--\":2891:2907   */\n      add\n        /* \"--CODEGEN--\":2884:2907   */\n      swap2\n      pop\n        /* \"--CODEGEN--\":2662:2912   */\n      pop\n      swap3\n      swap2\n      pop\n      pop\n      jump\n        /* \"--CODEGEN--\":2919:3032   */\n    tag_145:\n        /* \"--CODEGEN--\":3002:3026   */\n      tag_147\n        /* \"--CODEGEN--\":3020:3025   */\n      dup2\n        /* \"--CODEGEN--\":3002:3026   */\n      jump(tag_148)\n    tag_147:\n        /* \"--CODEGEN--\":2997:3000   */\n      dup3\n        /* \"--CODEGEN--\":2990:3027   */\n      mstore\n        /* \"--CODEGEN--\":2984:3032   */\n      pop\n      pop\n      jump\n        /* \"--CODEGEN--\":3039:3191   */\n    tag_149:\n        /* \"--CODEGEN--\":3140:3185   */\n      tag_151\n        /* \"--CODEGEN--\":3160:3184   */\n      tag_152\n        /* \"--CODEGEN--\":3178:3183   */\n      dup3\n        /* \"--CODEGEN--\":3160:3184   */\n      jump(tag_148)\n    tag_152:\n        /* \"--CODEGEN--\":3140:3185   */\n      jump(tag_153)\n    tag_151:\n        /* \"--CODEGEN--\":3135:3138   */\n      dup3\n        /* \"--CODEGEN--\":3128:3186   */\n      mstore\n        /* \"--CODEGEN--\":3122:3191   */\n      pop\n      pop\n      jump\n        /* \"--CODEGEN--\":3198:3464   */\n    tag_67:\n      0x00\n        /* \"--CODEGEN--\":3344:3439   */\n      tag_155\n        /* \"--CODEGEN--\":3435:3438   */\n      dup3\n        /* \"--CODEGEN--\":3426:3432   */\n      dup5\n        /* \"--CODEGEN--\":3344:3439   */\n      jump(tag_139)\n    tag_155:\n        /* \"--CODEGEN--\":3337:3439   */\n      swap2\n      pop\n        /* \"--CODEGEN--\":3456:3459   */\n      dup2\n        /* \"--CODEGEN--\":3449:3459   */\n      swap1\n      pop\n        /* \"--CODEGEN--\":3325:3464   */\n      swap3\n      swap2\n      pop\n      pop\n      jump\n        /* \"--CODEGEN--\":3471:4154   */\n    tag_78:\n      0x00\n        /* \"--CODEGEN--\":3694:3769   */\n      tag_157\n        /* \"--CODEGEN--\":3765:3768   */\n      dup3\n        /* \"--CODEGEN--\":3756:3762   */\n      dup8\n        /* \"--CODEGEN--\":3694:3769   */\n      jump(tag_149)\n    tag_157:\n        /* \"--CODEGEN--\":3791:3793   */\n      0x20\n        /* \"--CODEGEN--\":3786:3789   */\n      dup3\n        /* \"--CODEGEN--\":3782:3794   */\n      add\n        /* \"--CODEGEN--\":3775:3794   */\n      swap2\n      pop\n        /* \"--CODEGEN--\":3812:3907   */\n      tag_158\n        /* \"--CODEGEN--\":3903:3906   */\n      dup3\n        /* \"--CODEGEN--\":3894:3900   */\n      dup7\n        /* \"--CODEGEN--\":3812:3907   */\n      jump(tag_139)\n    tag_158:\n        /* \"--CODEGEN--\":3805:3907   */\n      swap2\n      pop\n        /* \"--CODEGEN--\":3918:3993   */\n      tag_159\n        /* \"--CODEGEN--\":3989:3992   */\n      dup3\n        /* \"--CODEGEN--\":3980:3986   */\n      dup6\n        /* \"--CODEGEN--\":3918:3993   */\n      jump(tag_120)\n    tag_159:\n        /* \"--CODEGEN--\":4015:4017   */\n      0x14\n        /* \"--CODEGEN--\":4010:4013   */\n      dup3\n        /* \"--CODEGEN--\":4006:4018   */\n      add\n        /* \"--CODEGEN--\":3999:4018   */\n      swap2\n      pop\n        /* \"--CODEGEN--\":4029:4104   */\n      tag_160\n        /* \"--CODEGEN--\":4100:4103   */\n      dup3\n        /* \"--CODEGEN--\":4091:4097   */\n      dup5\n        /* \"--CODEGEN--\":4029:4104   */\n      jump(tag_149)\n    tag_160:\n        /* \"--CODEGEN--\":4126:4128   */\n      0x20\n        /* \"--CODEGEN--\":4121:4124   */\n      dup3\n        /* \"--CODEGEN--\":4117:4129   */\n      add\n        /* \"--CODEGEN--\":4110:4129   */\n      swap2\n      pop\n        /* \"--CODEGEN--\":4146:4149   */\n      dup2\n        /* \"--CODEGEN--\":4139:4149   */\n      swap1\n      pop\n        /* \"--CODEGEN--\":3682:4154   */\n      swap6\n      swap5\n      pop\n      pop\n      pop\n      pop\n      pop\n      jump\n        /* \"--CODEGEN--\":4161:4374   */\n    tag_28:\n      0x00\n        /* \"--CODEGEN--\":4279:4281   */\n      0x20\n        /* \"--CODEGEN--\":4268:4277   */\n      dup3\n        /* \"--CODEGEN--\":4264:4282   */\n      add\n        /* \"--CODEGEN--\":4256:4282   */\n      swap1\n      pop\n        /* \"--CODEGEN--\":4293:4364   */\n      tag_162\n        /* \"--CODEGEN--\":4361:4362   */\n      0x00\n        /* \"--CODEGEN--\":4350:4359   */\n      dup4\n        /* \"--CODEGEN--\":4346:4363   */\n      add\n        /* \"--CODEGEN--\":4337:4343   */\n      dup5\n        /* \"--CODEGEN--\":4293:4364   */\n      jump(tag_116)\n    tag_162:\n        /* \"--CODEGEN--\":4250:4374   */\n      swap3\n      swap2\n      pop\n      pop\n      jump\n        /* \"--CODEGEN--\":4381:4594   */\n    tag_16:\n      0x00\n        /* \"--CODEGEN--\":4499:4501   */\n      0x20\n        /* \"--CODEGEN--\":4488:4497   */\n      dup3\n        /* \"--CODEGEN--\":4484:4502   */\n      add\n        /* \"--CODEGEN--\":4476:4502   */\n      swap1\n      pop\n        /* \"--CODEGEN--\":4513:4584   */\n      tag_164\n        /* \"--CODEGEN--\":4581:4582   */\n      0x00\n        /* \"--CODEGEN--\":4570:4579   */\n      dup4\n        /* \"--CODEGEN--\":4566:4583   */\n      add\n        /* \"--CODEGEN--\":4557:4563   */\n      dup5\n        /* \"--CODEGEN--\":4513:4584   */\n      jump(tag_125)\n    tag_164:\n        /* \"--CODEGEN--\":4470:4594   */\n      swap3\n      swap2\n      pop\n      pop\n      jump\n        /* \"--CODEGEN--\":4601:5236   */\n    tag_33:\n      0x00\n        /* \"--CODEGEN--\":4823:4826   */\n      0x80\n        /* \"--CODEGEN--\":4812:4821   */\n      dup3\n        /* \"--CODEGEN--\":4808:4827   */\n      add\n        /* \"--CODEGEN--\":4800:4827   */\n      swap1\n      pop\n        /* \"--CODEGEN--\":4838:4909   */\n      tag_166\n        /* \"--CODEGEN--\":4906:4907   */\n      0x00\n        /* \"--CODEGEN--\":4895:4904   */\n      dup4\n        /* \"--CODEGEN--\":4891:4908   */\n      add\n        /* \"--CODEGEN--\":4882:4888   */\n      dup8\n        /* \"--CODEGEN--\":4838:4909   */\n      jump(tag_145)\n    tag_166:\n        /* \"--CODEGEN--\":4957:4966   */\n      dup2\n        /* \"--CODEGEN--\":4951:4955   */\n      dup2\n        /* \"--CODEGEN--\":4947:4967   */\n      sub\n        /* \"--CODEGEN--\":4942:4944   */\n      0x20\n        /* \"--CODEGEN--\":4931:4940   */\n      dup4\n        /* \"--CODEGEN--\":4927:4945   */\n      add\n        /* \"--CODEGEN--\":4920:4968   */\n      mstore\n        /* \"--CODEGEN--\":4982:5060   */\n      tag_167\n        /* \"--CODEGEN--\":5055:5059   */\n      dup2\n        /* \"--CODEGEN--\":5046:5052   */\n      dup7\n        /* \"--CODEGEN--\":4982:5060   */\n      jump(tag_129)\n    tag_167:\n        /* \"--CODEGEN--\":4974:5060   */\n      swap1\n      pop\n        /* \"--CODEGEN--\":5071:5143   */\n      tag_168\n        /* \"--CODEGEN--\":5139:5141   */\n      0x40\n        /* \"--CODEGEN--\":5128:5137   */\n      dup4\n        /* \"--CODEGEN--\":5124:5142   */\n      add\n        /* \"--CODEGEN--\":5115:5121   */\n      dup6\n        /* \"--CODEGEN--\":5071:5143   */\n      jump(tag_116)\n    tag_168:\n        /* \"--CODEGEN--\":5154:5226   */\n      tag_169\n        /* \"--CODEGEN--\":5222:5224   */\n      0x60\n        /* \"--CODEGEN--\":5211:5220   */\n      dup4\n        /* \"--CODEGEN--\":5207:5225   */\n      add\n        /* \"--CODEGEN--\":5198:5204   */\n      dup5\n        /* \"--CODEGEN--\":5154:5226   */\n      jump(tag_145)\n    tag_169:\n        /* \"--CODEGEN--\":4794:5236   */\n      swap6\n      swap5\n      pop\n      pop\n      pop\n      pop\n      pop\n      jump\n        /* \"--CODEGEN--\":5243:5854   */\n    tag_47:\n      0x00\n        /* \"--CODEGEN--\":5457:5459   */\n      0x60\n        /* \"--CODEGEN--\":5446:5455   */\n      dup3\n        /* \"--CODEGEN--\":5442:5460   */\n      add\n        /* \"--CODEGEN--\":5434:5460   */\n      swap1\n      pop\n        /* \"--CODEGEN--\":5471:5542   */\n      tag_171\n        /* \"--CODEGEN--\":5539:5540   */\n      0x00\n        /* \"--CODEGEN--\":5528:5537   */\n      dup4\n        /* \"--CODEGEN--\":5524:5541   */\n      add\n        /* \"--CODEGEN--\":5515:5521   */\n      dup7\n        /* \"--CODEGEN--\":5471:5542   */\n      jump(tag_145)\n    tag_171:\n        /* \"--CODEGEN--\":5590:5599   */\n      dup2\n        /* \"--CODEGEN--\":5584:5588   */\n      dup2\n        /* \"--CODEGEN--\":5580:5600   */\n      sub\n        /* \"--CODEGEN--\":5575:5577   */\n      0x20\n        /* \"--CODEGEN--\":5564:5573   */\n      dup4\n        /* \"--CODEGEN--\":5560:5578   */\n      add\n        /* \"--CODEGEN--\":5553:5601   */\n      mstore\n        /* \"--CODEGEN--\":5615:5693   */\n      tag_172\n        /* \"--CODEGEN--\":5688:5692   */\n      dup2\n        /* \"--CODEGEN--\":5679:5685   */\n      dup6\n        /* \"--CODEGEN--\":5615:5693   */\n      jump(tag_129)\n    tag_172:\n        /* \"--CODEGEN--\":5607:5693   */\n      swap1\n      pop\n        /* \"--CODEGEN--\":5741:5750   */\n      dup2\n        /* \"--CODEGEN--\":5735:5739   */\n      dup2\n        /* \"--CODEGEN--\":5731:5751   */\n      sub\n        /* \"--CODEGEN--\":5726:5728   */\n      0x40\n        /* \"--CODEGEN--\":5715:5724   */\n      dup4\n        /* \"--CODEGEN--\":5711:5729   */\n      add\n        /* \"--CODEGEN--\":5704:5752   */\n      mstore\n        /* \"--CODEGEN--\":5766:5844   */\n      tag_173\n        /* \"--CODEGEN--\":5839:5843   */\n      dup2\n        /* \"--CODEGEN--\":5830:5836   */\n      dup5\n        /* \"--CODEGEN--\":5766:5844   */\n      jump(tag_129)\n    tag_173:\n        /* \"--CODEGEN--\":5758:5844   */\n      swap1\n      pop\n        /* \"--CODEGEN--\":5428:5854   */\n      swap5\n      swap4\n      pop\n      pop\n      pop\n      pop\n      jump\n        /* \"--CODEGEN--\":5861:6117   */\n    tag_95:\n      0x00\n        /* \"--CODEGEN--\":5923:5925   */\n      0x40\n        /* \"--CODEGEN--\":5917:5926   */\n      mload\n        /* \"--CODEGEN--\":5907:5926   */\n      swap1\n      pop\n        /* \"--CODEGEN--\":5961:5965   */\n      dup2\n        /* \"--CODEGEN--\":5953:5959   */\n      dup2\n        /* \"--CODEGEN--\":5949:5966   */\n      add\n        /* \"--CODEGEN--\":6060:6066   */\n      dup2\n        /* \"--CODEGEN--\":6048:6058   */\n      dup2\n        /* \"--CODEGEN--\":6045:6067   */\n      lt\n        /* \"--CODEGEN--\":6024:6042   */\n      0xffffffffffffffff\n        /* \"--CODEGEN--\":6012:6022   */\n      dup3\n        /* \"--CODEGEN--\":6009:6043   */\n      gt\n        /* \"--CODEGEN--\":6006:6068   */\n      or\n        /* \"--CODEGEN--\":6003:6005   */\n      iszero\n      tag_175\n      jumpi\n        /* \"--CODEGEN--\":6081:6082   */\n      0x00\n        /* \"--CODEGEN--\":6078:6079   */\n      dup1\n        /* \"--CODEGEN--\":6071:6083   */\n      revert\n        /* \"--CODEGEN--\":6003:6005   */\n    tag_175:\n        /* \"--CODEGEN--\":6101:6111   */\n      dup1\n        /* \"--CODEGEN--\":6097:6099   */\n      0x40\n        /* \"--CODEGEN--\":6090:6112   */\n      mstore\n        /* \"--CODEGEN--\":5901:6117   */\n      pop\n      swap2\n      swap1\n      pop\n      jump\n        /* \"--CODEGEN--\":6124:6446   */\n    tag_94:\n      0x00\n        /* \"--CODEGEN--\":6268:6286   */\n      0xffffffffffffffff\n        /* \"--CODEGEN--\":6260:6266   */\n      dup3\n        /* \"--CODEGEN--\":6257:6287   */\n      gt\n        /* \"--CODEGEN--\":6254:6256   */\n      iszero\n      tag_177\n      jumpi\n        /* \"--CODEGEN--\":6300:6301   */\n      0x00\n        /* \"--CODEGEN--\":6297:6298   */\n      dup1\n        /* \"--CODEGEN--\":6290:6302   */\n      revert\n        /* \"--CODEGEN--\":6254:6256   */\n    tag_177:\n        /* \"--CODEGEN--\":6367:6371   */\n      0x1f\n        /* \"--CODEGEN--\":6363:6372   */\n      not\n        /* \"--CODEGEN--\":6356:6360   */\n      0x1f\n        /* \"--CODEGEN--\":6348:6354   */\n      dup4\n        /* \"--CODEGEN--\":6344:6361   */\n      add\n        /* \"--CODEGEN--\":6340:6373   */\n      and\n        /* \"--CODEGEN--\":6332:6373   */\n      swap1\n      pop\n        /* \"--CODEGEN--\":6431:6435   */\n      0x20\n        /* \"--CODEGEN--\":6425:6429   */\n      dup2\n        /* \"--CODEGEN--\":6421:6436   */\n      add\n        /* \"--CODEGEN--\":6413:6436   */\n      swap1\n      pop\n        /* \"--CODEGEN--\":6191:6446   */\n      swap2\n      swap1\n      pop\n      jump\n        /* \"--CODEGEN--\":6453:6575   */\n    tag_132:\n      0x00\n        /* \"--CODEGEN--\":6547:6552   */\n      dup2\n        /* \"--CODEGEN--\":6541:6553   */\n      mload\n        /* \"--CODEGEN--\":6531:6553   */\n      swap1\n      pop\n        /* \"--CODEGEN--\":6512:6575   */\n      swap2\n      swap1\n      pop\n      jump\n        /* \"--CODEGEN--\":6583:6746   */\n    tag_134:\n      0x00\n        /* \"--CODEGEN--\":6698:6704   */\n      dup3\n        /* \"--CODEGEN--\":6693:6696   */\n      dup3\n        /* \"--CODEGEN--\":6686:6705   */\n      mstore\n        /* \"--CODEGEN--\":6735:6739   */\n      0x20\n        /* \"--CODEGEN--\":6730:6733   */\n      dup3\n        /* \"--CODEGEN--\":6726:6740   */\n      add\n        /* \"--CODEGEN--\":6711:6740   */\n      swap1\n      pop\n        /* \"--CODEGEN--\":6679:6746   */\n      swap3\n      swap2\n      pop\n      pop\n      jump\n        /* \"--CODEGEN--\":6755:6900   */\n    tag_143:\n      0x00\n        /* \"--CODEGEN--\":6891:6894   */\n      dup2\n        /* \"--CODEGEN--\":6876:6894   */\n      swap1\n      pop\n        /* \"--CODEGEN--\":6869:6900   */\n      swap3\n      swap2\n      pop\n      pop\n      jump\n        /* \"--CODEGEN--\":6908:6999   */\n    tag_119:\n      0x00\n        /* \"--CODEGEN--\":6970:6994   */\n      tag_182\n        /* \"--CODEGEN--\":6988:6993   */\n      dup3\n        /* \"--CODEGEN--\":6970:6994   */\n      jump(tag_183)\n    tag_182:\n        /* \"--CODEGEN--\":6959:6994   */\n      swap1\n      pop\n        /* \"--CODEGEN--\":6953:6999   */\n      swap2\n      swap1\n      pop\n      jump\n        /* \"--CODEGEN--\":7006:7078   */\n    tag_128:\n      0x00\n        /* \"--CODEGEN--\":7068:7073   */\n      dup2\n        /* \"--CODEGEN--\":7057:7073   */\n      swap1\n      pop\n        /* \"--CODEGEN--\":7051:7078   */\n      swap2\n      swap1\n      pop\n      jump\n        /* \"--CODEGEN--\":7085:7206   */\n    tag_183:\n      0x00\n        /* \"--CODEGEN--\":7158:7200   */\n      0xffffffffffffffffffffffffffffffffffffffff\n        /* \"--CODEGEN--\":7151:7156   */\n      dup3\n        /* \"--CODEGEN--\":7147:7201   */\n      and\n        /* \"--CODEGEN--\":7136:7201   */\n      swap1\n      pop\n        /* \"--CODEGEN--\":7130:7206   */\n      swap2\n      swap1\n      pop\n      jump\n        /* \"--CODEGEN--\":7213:7285   */\n    tag_148:\n      0x00\n        /* \"--CODEGEN--\":7275:7280   */\n      dup2\n        /* \"--CODEGEN--\":7264:7280   */\n      swap1\n      pop\n        /* \"--CODEGEN--\":7258:7285   */\n      swap2\n      swap1\n      pop\n      jump\n        /* \"--CODEGEN--\":7293:7438   */\n    tag_98:\n        /* \"--CODEGEN--\":7374:7380   */\n      dup3\n        /* \"--CODEGEN--\":7369:7372   */\n      dup2\n        /* \"--CODEGEN--\":7364:7367   */\n      dup4\n        /* \"--CODEGEN--\":7351:7381   */\n      calldatacopy\n        /* \"--CODEGEN--\":7430:7431   */\n      0x00\n        /* \"--CODEGEN--\":7421:7427   */\n      dup4\n        /* \"--CODEGEN--\":7416:7419   */\n      dup4\n        /* \"--CODEGEN--\":7412:7428   */\n      add\n        /* \"--CODEGEN--\":7405:7432   */\n      mstore\n        /* \"--CODEGEN--\":7344:7438   */\n      pop\n      pop\n      pop\n      jump\n        /* \"--CODEGEN--\":7447:7715   */\n    tag_136:\n        /* \"--CODEGEN--\":7512:7513   */\n      0x00\n        /* \"--CODEGEN--\":7519:7620   */\n    tag_189:\n        /* \"--CODEGEN--\":7533:7539   */\n      dup4\n        /* \"--CODEGEN--\":7530:7531   */\n      dup2\n        /* \"--CODEGEN--\":7527:7540   */\n      lt\n        /* \"--CODEGEN--\":7519:7620   */\n      iszero\n      tag_191\n      jumpi\n        /* \"--CODEGEN--\":7609:7610   */\n      dup1\n        /* \"--CODEGEN--\":7604:7607   */\n      dup3\n        /* \"--CODEGEN--\":7600:7611   */\n      add\n        /* \"--CODEGEN--\":7594:7612   */\n      mload\n        /* \"--CODEGEN--\":7590:7591   */\n      dup2\n        /* \"--CODEGEN--\":7585:7588   */\n      dup5\n        /* \"--CODEGEN--\":7581:7592   */\n      add\n        /* \"--CODEGEN--\":7574:7613   */\n      mstore\n        /* \"--CODEGEN--\":7555:7557   */\n      0x20\n        /* \"--CODEGEN--\":7552:7553   */\n      dup2\n        /* \"--CODEGEN--\":7548:7558   */\n      add\n        /* \"--CODEGEN--\":7543:7558   */\n      swap1\n      pop\n        /* \"--CODEGEN--\":7519:7620   */\n      jump(tag_189)\n    tag_191:\n        /* \"--CODEGEN--\":7635:7641   */\n      dup4\n        /* \"--CODEGEN--\":7632:7633   */\n      dup2\n        /* \"--CODEGEN--\":7629:7642   */\n      gt\n        /* \"--CODEGEN--\":7626:7628   */\n      iszero\n      tag_192\n      jumpi\n        /* \"--CODEGEN--\":7700:7701   */\n      0x00\n        /* \"--CODEGEN--\":7691:7697   */\n      dup5\n        /* \"--CODEGEN--\":7686:7689   */\n      dup5\n        /* \"--CODEGEN--\":7682:7698   */\n      add\n        /* \"--CODEGEN--\":7675:7702   */\n      mstore\n        /* \"--CODEGEN--\":7626:7628   */\n    tag_192:\n        /* \"--CODEGEN--\":7496:7715   */\n      pop\n      pop\n      pop\n      pop\n      jump\n        /* \"--CODEGEN--\":7723:7818   */\n    tag_124:\n      0x00\n        /* \"--CODEGEN--\":7787:7813   */\n      tag_194\n        /* \"--CODEGEN--\":7807:7812   */\n      dup3\n        /* \"--CODEGEN--\":7787:7813   */\n      jump(tag_195)\n    tag_194:\n        /* \"--CODEGEN--\":7776:7813   */\n      swap1\n      pop\n        /* \"--CODEGEN--\":7770:7818   */\n      swap2\n      swap1\n      pop\n      jump\n        /* \"--CODEGEN--\":7825:7914   */\n    tag_195:\n      0x00\n        /* \"--CODEGEN--\":7889:7909   */\n      tag_197\n        /* \"--CODEGEN--\":7903:7908   */\n      dup3\n        /* \"--CODEGEN--\":7889:7909   */\n      jump(tag_198)\n    tag_197:\n        /* \"--CODEGEN--\":7878:7909   */\n      swap1\n      pop\n        /* \"--CODEGEN--\":7872:7914   */\n      swap2\n      swap1\n      pop\n      jump\n        /* \"--CODEGEN--\":7921:7995   */\n    tag_153:\n      0x00\n        /* \"--CODEGEN--\":7985:7990   */\n      dup2\n        /* \"--CODEGEN--\":7974:7990   */\n      swap1\n      pop\n        /* \"--CODEGEN--\":7968:7995   */\n      swap2\n      swap1\n      pop\n      jump\n        /* \"--CODEGEN--\":8002:8099   */\n    tag_138:\n      0x00\n        /* \"--CODEGEN--\":8090:8092   */\n      0x1f\n        /* \"--CODEGEN--\":8086:8093   */\n      not\n        /* \"--CODEGEN--\":8081:8083   */\n      0x1f\n        /* \"--CODEGEN--\":8074:8079   */\n      dup4\n        /* \"--CODEGEN--\":8070:8084   */\n      add\n        /* \"--CODEGEN--\":8066:8094   */\n      and\n        /* \"--CODEGEN--\":8056:8094   */\n      swap1\n      pop\n        /* \"--CODEGEN--\":8050:8099   */\n      swap2\n      swap1\n      pop\n      jump\n        /* \"--CODEGEN--\":8107:8201   */\n    tag_198:\n      0x00\n        /* \"--CODEGEN--\":8185:8190   */\n      dup2\n        /* \"--CODEGEN--\":8181:8183   */\n      0x60\n        /* \"--CODEGEN--\":8177:8191   */\n      shl\n        /* \"--CODEGEN--\":8155:8191   */\n      swap1\n      pop\n        /* \"--CODEGEN--\":8149:8201   */\n      swap2\n      swap1\n      pop\n      jump\n        /* \"--CODEGEN--\":8209:8326   */\n    tag_102:\n        /* \"--CODEGEN--\":8278:8302   */\n      tag_203\n        /* \"--CODEGEN--\":8296:8301   */\n      dup2\n        /* \"--CODEGEN--\":8278:8302   */\n      jump(tag_148)\n    tag_203:\n        /* \"--CODEGEN--\":8271:8276   */\n      dup2\n        /* \"--CODEGEN--\":8268:8303   */\n      eq\n        /* \"--CODEGEN--\":8258:8260   */\n      tag_204\n      jumpi\n        /* \"--CODEGEN--\":8317:8318   */\n      0x00\n        /* \"--CODEGEN--\":8314:8315   */\n      dup1\n        /* \"--CODEGEN--\":8307:8319   */\n      revert\n        /* \"--CODEGEN--\":8258:8260   */\n    tag_204:\n        /* \"--CODEGEN--\":8252:8326   */\n      pop\n      jump\n\n    auxdata: 0xa2646970667358221220ceb39a0848b326bca64bc7ac9cfadb28ad85f2a7fd773e1e8758cb36dbced23764736f6c63430006050033\n}\n",
				"bytecode": {
					"linkReferences": {},
					"object": "608060405234801561001057600080fd5b50610c24806100206000396000f3fe608060405234801561001057600080fd5b50600436106100935760003560e01c806369ddcade1161006657806369ddcade1461010c5780639e26bc4f1461013f578063a7469ee31461015b578063b4f5747314610177578063c74efaef1461019557610093565b806309bd5a601461009857806333c83dbd146100b657806342d73314146100d2578063547cbcad146100dc575b600080fd5b6100a06101b5565b6040516100ad91906109d7565b60405180910390f35b6100d060048036038101906100cb91906107c5565b6101bb565b005b6100da610258565b005b6100f660048036038101906100f19190610806565b6102bd565b60405161010391906109bc565b60405180910390f35b61012660048036038101906101219190610806565b6102f9565b60405161013694939291906109f2565b60405180910390f35b6101596004803603810190610154919061082f565b6103ee565b005b610175600480360381019061017091906107c5565b610500565b005b61017f610530565b60405161018c91906109d7565b60405180910390f35b61019d610536565b6040516101ac93929190610a3e565b60405180910390f35b60015481565b6040518060600160405280600181526020016040518060400160405280600b81526020017f48616d627572677565736100000000000000000000000000000000000000000081525081526020018281525060026000820151816000015560208201518160010190805190602001906102349291906106b7565b5060408201518160020190805190602001906102519291906106b7565b5090505050565b6000339080600181540180825580915050600190039060005260206000200160009091909190916101000a81548173ffffffffffffffffffffffffffffffffffffffff021916908373ffffffffffffffffffffffffffffffffffffffff160217905550565b600081815481106102ca57fe5b906000526020600020016000915054906101000a900473ffffffffffffffffffffffffffffffffffffffff1681565b6006818154811061030657fe5b9060005260206000209060040201600091509050806000015490806001018054600181600116156101000203166002900480601f0160208091040260200160405190810160405280929190818152602001828054600181600116156101000203166002900480156103b85780601f1061038d576101008083540402835291602001916103b8565b820191906000526020600020905b81548152906001019060200180831161039b57829003601f168201915b5050505050908060020160009054906101000a900473ffffffffffffffffffffffffffffffffffffffff16908060030154905084565b600660405180608001604052808581526020018481526020013373ffffffffffffffffffffffffffffffffffffffff1681526020018381525090806001815401808255809150506001900390600052602060002090600402016000909190919091506000820151816000015560208201518160010190805190602001906104769291906106b7565b5060408201518160020160006101000a81548173ffffffffffffffffffffffffffffffffffffffff021916908373ffffffffffffffffffffffffffffffffffffffff1602179055506060820151816003015550506104d68383338461067e565b6005546007836040516104e9919061095b565b908152602001604051809103902081905550505050565b80604051602001610511919061095b565b6040516020818303038152906040528051906020012060018190555050565b60055481565b6002806000015490806001018054600181600116156101000203166002900480601f0160208091040260200160405190810160405280929190818152602001828054600181600116156101000203166002900480156105d65780601f106105ab576101008083540402835291602001916105d6565b820191906000526020600020905b8154815290600101906020018083116105b957829003601f168201915b505050505090806002018054600181600116156101000203166002900480601f0160208091040260200160405190810160405280929190818152602001828054600181600116156101000203166002900480156106745780601f1061064957610100808354040283529160200191610674565b820191906000526020600020905b81548152906001019060200180831161065757829003601f168201915b5050505050905083565b838383836040516020016106959493929190610972565b6040516020818303038152906040528051906020012060058190555050505050565b828054600181600116156101000203166002900490600052602060002090601f016020900481019282601f106106f857805160ff1916838001178555610726565b82800160010185558215610726579182015b8281111561072557825182559160200191906001019061070a565b5b5090506107339190610737565b5090565b61075991905b8082111561075557600081600090555060010161073d565b5090565b90565b600082601f83011261076d57600080fd5b813561078061077b82610ab0565b610a83565b9150808252602083016020830185838301111561079c57600080fd5b6107a7838284610b49565b50505092915050565b6000813590506107bf81610bd7565b92915050565b6000602082840312156107d757600080fd5b600082013567ffffffffffffffff8111156107f157600080fd5b6107fd8482850161075c565b91505092915050565b60006020828403121561081857600080fd5b6000610826848285016107b0565b91505092915050565b60008060006060848603121561084457600080fd5b6000610852868287016107b0565b935050602084013567ffffffffffffffff81111561086f57600080fd5b61087b8682870161075c565b925050604061088c868287016107b0565b9150509250925092565b61089f81610b03565b82525050565b6108b66108b182610b03565b610b8b565b82525050565b6108c581610b15565b82525050565b60006108d682610adc565b6108e08185610ae7565b93506108f0818560208601610b58565b6108f981610bb9565b840191505092915050565b600061090f82610adc565b6109198185610af8565b9350610929818560208601610b58565b80840191505092915050565b61093e81610b3f565b82525050565b61095561095082610b3f565b610baf565b82525050565b60006109678284610904565b915081905092915050565b600061097e8287610944565b60208201915061098e8286610904565b915061099a82856108a5565b6014820191506109aa8284610944565b60208201915081905095945050505050565b60006020820190506109d16000830184610896565b92915050565b60006020820190506109ec60008301846108bc565b92915050565b6000608082019050610a076000830187610935565b8181036020830152610a1981866108cb565b9050610a286040830185610896565b610a356060830184610935565b95945050505050565b6000606082019050610a536000830186610935565b8181036020830152610a6581856108cb565b90508181036040830152610a7981846108cb565b9050949350505050565b6000604051905081810181811067ffffffffffffffff82111715610aa657600080fd5b8060405250919050565b600067ffffffffffffffff821115610ac757600080fd5b601f19601f8301169050602081019050919050565b600081519050919050565b600082825260208201905092915050565b600081905092915050565b6000610b0e82610b1f565b9050919050565b6000819050919050565b600073ffffffffffffffffffffffffffffffffffffffff82169050919050565b6000819050919050565b82818337600083830152505050565b60005b83811015610b76578082015181840152602081019050610b5b565b83811115610b85576000848401525b50505050565b6000610b9682610b9d565b9050919050565b6000610ba882610bca565b9050919050565b6000819050919050565b6000601f19601f8301169050919050565b60008160601b9050919050565b610be081610b3f565b8114610beb57600080fd5b5056fea2646970667358221220ceb39a0848b326bca64bc7ac9cfadb28ad85f2a7fd773e1e8758cb36dbced23764736f6c63430006050033",
					"opcodes": "PUSH1 0x80 PUSH1 0x40 MSTORE CALLVALUE DUP1 ISZERO PUSH2 0x10 JUMPI PUSH1 0x0 DUP1 REVERT JUMPDEST POP PUSH2 0xC24 DUP1 PUSH2 0x20 PUSH1 0x0 CODECOPY PUSH1 0x0 RETURN INVALID PUSH1 0x80 PUSH1 0x40 MSTORE CALLVALUE DUP1 ISZERO PUSH2 0x10 JUMPI PUSH1 0x0 DUP1 REVERT JUMPDEST POP PUSH1 0x4 CALLDATASIZE LT PUSH2 0x93 JUMPI PUSH1 0x0 CALLDATALOAD PUSH1 0xE0 SHR DUP1 PUSH4 0x69DDCADE GT PUSH2 0x66 JUMPI DUP1 PUSH4 0x69DDCADE EQ PUSH2 0x10C JUMPI DUP1 PUSH4 0x9E26BC4F EQ PUSH2 0x13F JUMPI DUP1 PUSH4 0xA7469EE3 EQ PUSH2 0x15B JUMPI DUP1 PUSH4 0xB4F57473 EQ PUSH2 0x177 JUMPI DUP1 PUSH4 0xC74EFAEF EQ PUSH2 0x195 JUMPI PUSH2 0x93 JUMP JUMPDEST DUP1 PUSH4 0x9BD5A60 EQ PUSH2 0x98 JUMPI DUP1 PUSH4 0x33C83DBD EQ PUSH2 0xB6 JUMPI DUP1 PUSH4 0x42D73314 EQ PUSH2 0xD2 JUMPI DUP1 PUSH4 0x547CBCAD EQ PUSH2 0xDC JUMPI JUMPDEST PUSH1 0x0 DUP1 REVERT JUMPDEST PUSH2 0xA0 PUSH2 0x1B5 JUMP JUMPDEST PUSH1 0x40 MLOAD PUSH2 0xAD SWAP2 SWAP1 PUSH2 0x9D7 JUMP JUMPDEST PUSH1 0x40 MLOAD DUP1 SWAP2 SUB SWAP1 RETURN JUMPDEST PUSH2 0xD0 PUSH1 0x4 DUP1 CALLDATASIZE SUB DUP2 ADD SWAP1 PUSH2 0xCB SWAP2 SWAP1 PUSH2 0x7C5 JUMP JUMPDEST PUSH2 0x1BB JUMP JUMPDEST STOP JUMPDEST PUSH2 0xDA PUSH2 0x258 JUMP JUMPDEST STOP JUMPDEST PUSH2 0xF6 PUSH1 0x4 DUP1 CALLDATASIZE SUB DUP2 ADD SWAP1 PUSH2 0xF1 SWAP2 SWAP1 PUSH2 0x806 JUMP JUMPDEST PUSH2 0x2BD JUMP JUMPDEST PUSH1 0x40 MLOAD PUSH2 0x103 SWAP2 SWAP1 PUSH2 0x9BC JUMP JUMPDEST PUSH1 0x40 MLOAD DUP1 SWAP2 SUB SWAP1 RETURN JUMPDEST PUSH2 0x126 PUSH1 0x4 DUP1 CALLDATASIZE SUB DUP2 ADD SWAP1 PUSH2 0x121 SWAP2 SWAP1 PUSH2 0x806 JUMP JUMPDEST PUSH2 0x2F9 JUMP JUMPDEST PUSH1 0x40 MLOAD PUSH2 0x136 SWAP5 SWAP4 SWAP3 SWAP2 SWAP1 PUSH2 0x9F2 JUMP JUMPDEST PUSH1 0x40 MLOAD DUP1 SWAP2 SUB SWAP1 RETURN JUMPDEST PUSH2 0x159 PUSH1 0x4 DUP1 CALLDATASIZE SUB DUP2 ADD SWAP1 PUSH2 0x154 SWAP2 SWAP1 PUSH2 0x82F JUMP JUMPDEST PUSH2 0x3EE JUMP JUMPDEST STOP JUMPDEST PUSH2 0x175 PUSH1 0x4 DUP1 CALLDATASIZE SUB DUP2 ADD SWAP1 PUSH2 0x170 SWAP2 SWAP1 PUSH2 0x7C5 JUMP JUMPDEST PUSH2 0x500 JUMP JUMPDEST STOP JUMPDEST PUSH2 0x17F PUSH2 0x530 JUMP JUMPDEST PUSH1 0x40 MLOAD PUSH2 0x18C SWAP2 SWAP1 PUSH2 0x9D7 JUMP JUMPDEST PUSH1 0x40 MLOAD DUP1 SWAP2 SUB SWAP1 RETURN JUMPDEST PUSH2 0x19D PUSH2 0x536 JUMP JUMPDEST PUSH1 0x40 MLOAD PUSH2 0x1AC SWAP4 SWAP3 SWAP2 SWAP1 PUSH2 0xA3E JUMP JUMPDEST PUSH1 0x40 MLOAD DUP1 SWAP2 SUB SWAP1 RETURN JUMPDEST PUSH1 0x1 SLOAD DUP2 JUMP JUMPDEST PUSH1 0x40 MLOAD DUP1 PUSH1 0x60 ADD PUSH1 0x40 MSTORE DUP1 PUSH1 0x1 DUP2 MSTORE PUSH1 0x20 ADD PUSH1 0x40 MLOAD DUP1 PUSH1 0x40 ADD PUSH1 0x40 MSTORE DUP1 PUSH1 0xB DUP2 MSTORE PUSH1 0x20 ADD PUSH32 0x48616D6275726775657361000000000000000000000000000000000000000000 DUP2 MSTORE POP DUP2 MSTORE PUSH1 0x20 ADD DUP3 DUP2 MSTORE POP PUSH1 0x2 PUSH1 0x0 DUP3 ADD MLOAD DUP2 PUSH1 0x0 ADD SSTORE PUSH1 0x20 DUP3 ADD MLOAD DUP2 PUSH1 0x1 ADD SWAP1 DUP1 MLOAD SWAP1 PUSH1 0x20 ADD SWAP1 PUSH2 0x234 SWAP3 SWAP2 SWAP1 PUSH2 0x6B7 JUMP JUMPDEST POP PUSH1 0x40 DUP3 ADD MLOAD DUP2 PUSH1 0x2 ADD SWAP1 DUP1 MLOAD SWAP1 PUSH1 0x20 ADD SWAP1 PUSH2 0x251 SWAP3 SWAP2 SWAP1 PUSH2 0x6B7 JUMP JUMPDEST POP SWAP1 POP POP POP JUMP JUMPDEST PUSH1 0x0 CALLER SWAP1 DUP1 PUSH1 0x1 DUP2 SLOAD ADD DUP1 DUP3 SSTORE DUP1 SWAP2 POP POP PUSH1 0x1 SWAP1 SUB SWAP1 PUSH1 0x0 MSTORE PUSH1 0x20 PUSH1 0x0 KECCAK256 ADD PUSH1 0x0 SWAP1 SWAP2 SWAP1 SWAP2 SWAP1 SWAP2 PUSH2 0x100 EXP DUP2 SLOAD DUP2 PUSH20 0xFFFFFFFFFFFFFFFFFFFFFFFFFFFFFFFFFFFFFFFF MUL NOT AND SWAP1 DUP4 PUSH20 0xFFFFFFFFFFFFFFFFFFFFFFFFFFFFFFFFFFFFFFFF AND MUL OR SWAP1 SSTORE POP JUMP JUMPDEST PUSH1 0x0 DUP2 DUP2 SLOAD DUP2 LT PUSH2 0x2CA JUMPI INVALID JUMPDEST SWAP1 PUSH1 0x0 MSTORE PUSH1 0x20 PUSH1 0x0 KECCAK256 ADD PUSH1 0x0 SWAP2 POP SLOAD SWAP1 PUSH2 0x100 EXP SWAP1 DIV PUSH20 0xFFFFFFFFFFFFFFFFFFFFFFFFFFFFFFFFFFFFFFFF AND DUP2 JUMP JUMPDEST PUSH1 0x6 DUP2 DUP2 SLOAD DUP2 LT PUSH2 0x306 JUMPI INVALID JUMPDEST SWAP1 PUSH1 0x0 MSTORE PUSH1 0x20 PUSH1 0x0 KECCAK256 SWAP1 PUSH1 0x4 MUL ADD PUSH1 0x0 SWAP2 POP SWAP1 POP DUP1 PUSH1 0x0 ADD SLOAD SWAP1 DUP1 PUSH1 0x1 ADD DUP1 SLOAD PUSH1 0x1 DUP2 PUSH1 0x1 AND ISZERO PUSH2 0x100 MUL SUB AND PUSH1 0x2 SWAP1 DIV DUP1 PUSH1 0x1F ADD PUSH1 0x20 DUP1 SWAP2 DIV MUL PUSH1 0x20 ADD PUSH1 0x40 MLOAD SWAP1 DUP2 ADD PUSH1 0x40 MSTORE DUP1 SWAP3 SWAP2 SWAP1 DUP2 DUP2 MSTORE PUSH1 0x20 ADD DUP3 DUP1 SLOAD PUSH1 0x1 DUP2 PUSH1 0x1 AND ISZERO PUSH2 0x100 MUL SUB AND PUSH1 0x2 SWAP1 DIV DUP1 ISZERO PUSH2 0x3B8 JUMPI DUP1 PUSH1 0x1F LT PUSH2 0x38D JUMPI PUSH2 0x100 DUP1 DUP4 SLOAD DIV MUL DUP4 MSTORE SWAP2 PUSH1 0x20 ADD SWAP2 PUSH2 0x3B8 JUMP JUMPDEST DUP3 ADD SWAP2 SWAP1 PUSH1 0x0 MSTORE PUSH1 0x20 PUSH1 0x0 KECCAK256 SWAP1 JUMPDEST DUP2 SLOAD DUP2 MSTORE SWAP1 PUSH1 0x1 ADD SWAP1 PUSH1 0x20 ADD DUP1 DUP4 GT PUSH2 0x39B JUMPI DUP3 SWAP1 SUB PUSH1 0x1F AND DUP3 ADD SWAP2 JUMPDEST POP POP POP POP POP SWAP1 DUP1 PUSH1 0x2 ADD PUSH1 0x0 SWAP1 SLOAD SWAP1 PUSH2 0x100 EXP SWAP1 DIV PUSH20 0xFFFFFFFFFFFFFFFFFFFFFFFFFFFFFFFFFFFFFFFF AND SWAP1 DUP1 PUSH1 0x3 ADD SLOAD SWAP1 POP DUP5 JUMP JUMPDEST PUSH1 0x6 PUSH1 0x40 MLOAD DUP1 PUSH1 0x80 ADD PUSH1 0x40 MSTORE DUP1 DUP6 DUP2 MSTORE PUSH1 0x20 ADD DUP5 DUP2 MSTORE PUSH1 0x20 ADD CALLER PUSH20 0xFFFFFFFFFFFFFFFFFFFFFFFFFFFFFFFFFFFFFFFF AND DUP2 MSTORE PUSH1 0x20 ADD DUP4 DUP2 MSTORE POP SWAP1 DUP1 PUSH1 0x1 DUP2 SLOAD ADD DUP1 DUP3 SSTORE DUP1 SWAP2 POP POP PUSH1 0x1 SWAP1 SUB SWAP1 PUSH1 0x0 MSTORE PUSH1 0x20 PUSH1 0x0 KECCAK256 SWAP1 PUSH1 0x4 MUL ADD PUSH1 0x0 SWAP1 SWAP2 SWAP1 SWAP2 SWAP1 SWAP2 POP PUSH1 0x0 DUP3 ADD MLOAD DUP2 PUSH1 0x0 ADD SSTORE PUSH1 0x20 DUP3 ADD MLOAD DUP2 PUSH1 0x1 ADD SWAP1 DUP1 MLOAD SWAP1 PUSH1 0x20 ADD SWAP1 PUSH2 0x476 SWAP3 SWAP2 SWAP1 PUSH2 0x6B7 JUMP JUMPDEST POP PUSH1 0x40 DUP3 ADD MLOAD DUP2 PUSH1 0x2 ADD PUSH1 0x0 PUSH2 0x100 EXP DUP2 SLOAD DUP2 PUSH20 0xFFFFFFFFFFFFFFFFFFFFFFFFFFFFFFFFFFFFFFFF MUL NOT AND SWAP1 DUP4 PUSH20 0xFFFFFFFFFFFFFFFFFFFFFFFFFFFFFFFFFFFFFFFF AND MUL OR SWAP1 SSTORE POP PUSH1 0x60 DUP3 ADD MLOAD DUP2 PUSH1 0x3 ADD SSTORE POP POP PUSH2 0x4D6 DUP4 DUP4 CALLER DUP5 PUSH2 0x67E JUMP JUMPDEST PUSH1 0x5 SLOAD PUSH1 0x7 DUP4 PUSH1 0x40 MLOAD PUSH2 0x4E9 SWAP2 SWAP1 PUSH2 0x95B JUMP JUMPDEST SWAP1 DUP2 MSTORE PUSH1 0x20 ADD PUSH1 0x40 MLOAD DUP1 SWAP2 SUB SWAP1 KECCAK256 DUP2 SWAP1 SSTORE POP POP POP POP JUMP JUMPDEST DUP1 PUSH1 0x40 MLOAD PUSH1 0x20 ADD PUSH2 0x511 SWAP2 SWAP1 PUSH2 0x95B JUMP JUMPDEST PUSH1 0x40 MLOAD PUSH1 0x20 DUP2 DUP4 SUB SUB DUP2 MSTORE SWAP1 PUSH1 0x40 MSTORE DUP1 MLOAD SWAP1 PUSH1 0x20 ADD KECCAK256 PUSH1 0x1 DUP2 SWAP1 SSTORE POP POP JUMP JUMPDEST PUSH1 0x5 SLOAD DUP2 JUMP JUMPDEST PUSH1 0x2 DUP1 PUSH1 0x0 ADD SLOAD SWAP1 DUP1 PUSH1 0x1 ADD DUP1 SLOAD PUSH1 0x1 DUP2 PUSH1 0x1 AND ISZERO PUSH2 0x100 MUL SUB AND PUSH1 0x2 SWAP1 DIV DUP1 PUSH1 0x1F ADD PUSH1 0x20 DUP1 SWAP2 DIV MUL PUSH1 0x20 ADD PUSH1 0x40 MLOAD SWAP1 DUP2 ADD PUSH1 0x40 MSTORE DUP1 SWAP3 SWAP2 SWAP1 DUP2 DUP2 MSTORE PUSH1 0x20 ADD DUP3 DUP1 SLOAD PUSH1 0x1 DUP2 PUSH1 0x1 AND ISZERO PUSH2 0x100 MUL SUB AND PUSH1 0x2 SWAP1 DIV DUP1 ISZERO PUSH2 0x5D6 JUMPI DUP1 PUSH1 0x1F LT PUSH2 0x5AB JUMPI PUSH2 0x100 DUP1 DUP4 SLOAD DIV MUL DUP4 MSTORE SWAP2 PUSH1 0x20 ADD SWAP2 PUSH2 0x5D6 JUMP JUMPDEST DUP3 ADD SWAP2 SWAP1 PUSH1 0x0 MSTORE PUSH1 0x20 PUSH1 0x0 KECCAK256 SWAP1 JUMPDEST DUP2 SLOAD DUP2 MSTORE SWAP1 PUSH1 0x1 ADD SWAP1 PUSH1 0x20 ADD DUP1 DUP4 GT PUSH2 0x5B9 JUMPI DUP3 SWAP1 SUB PUSH1 0x1F AND DUP3 ADD SWAP2 JUMPDEST POP POP POP POP POP SWAP1 DUP1 PUSH1 0x2 ADD DUP1 SLOAD PUSH1 0x1 DUP2 PUSH1 0x1 AND ISZERO PUSH2 0x100 MUL SUB AND PUSH1 0x2 SWAP1 DIV DUP1 PUSH1 0x1F ADD PUSH1 0x20 DUP1 SWAP2 DIV MUL PUSH1 0x20 ADD PUSH1 0x40 MLOAD SWAP1 DUP2 ADD PUSH1 0x40 MSTORE DUP1 SWAP3 SWAP2 SWAP1 DUP2 DUP2 MSTORE PUSH1 0x20 ADD DUP3 DUP1 SLOAD PUSH1 0x1 DUP2 PUSH1 0x1 AND ISZERO PUSH2 0x100 MUL SUB AND PUSH1 0x2 SWAP1 DIV DUP1 ISZERO PUSH2 0x674 JUMPI DUP1 PUSH1 0x1F LT PUSH2 0x649 JUMPI PUSH2 0x100 DUP1 DUP4 SLOAD DIV MUL DUP4 MSTORE SWAP2 PUSH1 0x20 ADD SWAP2 PUSH2 0x674 JUMP JUMPDEST DUP3 ADD SWAP2 SWAP1 PUSH1 0x0 MSTORE PUSH1 0x20 PUSH1 0x0 KECCAK256 SWAP1 JUMPDEST DUP2 SLOAD DUP2 MSTORE SWAP1 PUSH1 0x1 ADD SWAP1 PUSH1 0x20 ADD DUP1 DUP4 GT PUSH2 0x657 JUMPI DUP3 SWAP1 SUB PUSH1 0x1F AND DUP3 ADD SWAP2 JUMPDEST POP POP POP POP POP SWAP1 POP DUP4 JUMP JUMPDEST DUP4 DUP4 DUP4 DUP4 PUSH1 0x40 MLOAD PUSH1 0x20 ADD PUSH2 0x695 SWAP5 SWAP4 SWAP3 SWAP2 SWAP1 PUSH2 0x972 JUMP JUMPDEST PUSH1 0x40 MLOAD PUSH1 0x20 DUP2 DUP4 SUB SUB DUP2 MSTORE SWAP1 PUSH1 0x40 MSTORE DUP1 MLOAD SWAP1 PUSH1 0x20 ADD KECCAK256 PUSH1 0x5 DUP2 SWAP1 SSTORE POP POP POP POP POP JUMP JUMPDEST DUP3 DUP1 SLOAD PUSH1 0x1 DUP2 PUSH1 0x1 AND ISZERO PUSH2 0x100 MUL SUB AND PUSH1 0x2 SWAP1 DIV SWAP1 PUSH1 0x0 MSTORE PUSH1 0x20 PUSH1 0x0 KECCAK256 SWAP1 PUSH1 0x1F ADD PUSH1 0x20 SWAP1 DIV DUP2 ADD SWAP3 DUP3 PUSH1 0x1F LT PUSH2 0x6F8 JUMPI DUP1 MLOAD PUSH1 0xFF NOT AND DUP4 DUP1 ADD OR DUP6 SSTORE PUSH2 0x726 JUMP JUMPDEST DUP3 DUP1 ADD PUSH1 0x1 ADD DUP6 SSTORE DUP3 ISZERO PUSH2 0x726 JUMPI SWAP2 DUP3 ADD JUMPDEST DUP3 DUP2 GT ISZERO PUSH2 0x725 JUMPI DUP3 MLOAD DUP3 SSTORE SWAP2 PUSH1 0x20 ADD SWAP2 SWAP1 PUSH1 0x1 ADD SWAP1 PUSH2 0x70A JUMP JUMPDEST JUMPDEST POP SWAP1 POP PUSH2 0x733 SWAP2 SWAP1 PUSH2 0x737 JUMP JUMPDEST POP SWAP1 JUMP JUMPDEST PUSH2 0x759 SWAP2 SWAP1 JUMPDEST DUP1 DUP3 GT ISZERO PUSH2 0x755 JUMPI PUSH1 0x0 DUP2 PUSH1 0x0 SWAP1 SSTORE POP PUSH1 0x1 ADD PUSH2 0x73D JUMP JUMPDEST POP SWAP1 JUMP JUMPDEST SWAP1 JUMP JUMPDEST PUSH1 0x0 DUP3 PUSH1 0x1F DUP4 ADD SLT PUSH2 0x76D JUMPI PUSH1 0x0 DUP1 REVERT JUMPDEST DUP2 CALLDATALOAD PUSH2 0x780 PUSH2 0x77B DUP3 PUSH2 0xAB0 JUMP JUMPDEST PUSH2 0xA83 JUMP JUMPDEST SWAP2 POP DUP1 DUP3 MSTORE PUSH1 0x20 DUP4 ADD PUSH1 0x20 DUP4 ADD DUP6 DUP4 DUP4 ADD GT ISZERO PUSH2 0x79C JUMPI PUSH1 0x0 DUP1 REVERT JUMPDEST PUSH2 0x7A7 DUP4 DUP3 DUP5 PUSH2 0xB49 JUMP JUMPDEST POP POP POP SWAP3 SWAP2 POP POP JUMP JUMPDEST PUSH1 0x0 DUP2 CALLDATALOAD SWAP1 POP PUSH2 0x7BF DUP2 PUSH2 0xBD7 JUMP JUMPDEST SWAP3 SWAP2 POP POP JUMP JUMPDEST PUSH1 0x0 PUSH1 0x20 DUP3 DUP5 SUB SLT ISZERO PUSH2 0x7D7 JUMPI PUSH1 0x0 DUP1 REVERT JUMPDEST PUSH1 0x0 DUP3 ADD CALLDATALOAD PUSH8 0xFFFFFFFFFFFFFFFF DUP2 GT ISZERO PUSH2 0x7F1 JUMPI PUSH1 0x0 DUP1 REVERT JUMPDEST PUSH2 0x7FD DUP5 DUP3 DUP6 ADD PUSH2 0x75C JUMP JUMPDEST SWAP2 POP POP SWAP3 SWAP2 POP POP JUMP JUMPDEST PUSH1 0x0 PUSH1 0x20 DUP3 DUP5 SUB SLT ISZERO PUSH2 0x818 JUMPI PUSH1 0x0 DUP1 REVERT JUMPDEST PUSH1 0x0 PUSH2 0x826 DUP5 DUP3 DUP6 ADD PUSH2 0x7B0 JUMP JUMPDEST SWAP2 POP POP SWAP3 SWAP2 POP POP JUMP JUMPDEST PUSH1 0x0 DUP1 PUSH1 0x0 PUSH1 0x60 DUP5 DUP7 SUB SLT ISZERO PUSH2 0x844 JUMPI PUSH1 0x0 DUP1 REVERT JUMPDEST PUSH1 0x0 PUSH2 0x852 DUP7 DUP3 DUP8 ADD PUSH2 0x7B0 JUMP JUMPDEST SWAP4 POP POP PUSH1 0x20 DUP5 ADD CALLDATALOAD PUSH8 0xFFFFFFFFFFFFFFFF DUP2 GT ISZERO PUSH2 0x86F JUMPI PUSH1 0x0 DUP1 REVERT JUMPDEST PUSH2 0x87B DUP7 DUP3 DUP8 ADD PUSH2 0x75C JUMP JUMPDEST SWAP3 POP POP PUSH1 0x40 PUSH2 0x88C DUP7 DUP3 DUP8 ADD PUSH2 0x7B0 JUMP JUMPDEST SWAP2 POP POP SWAP3 POP SWAP3 POP SWAP3 JUMP JUMPDEST PUSH2 0x89F DUP2 PUSH2 0xB03 JUMP JUMPDEST DUP3 MSTORE POP POP JUMP JUMPDEST PUSH2 0x8B6 PUSH2 0x8B1 DUP3 PUSH2 0xB03 JUMP JUMPDEST PUSH2 0xB8B JUMP JUMPDEST DUP3 MSTORE POP POP JUMP JUMPDEST PUSH2 0x8C5 DUP2 PUSH2 0xB15 JUMP JUMPDEST DUP3 MSTORE POP POP JUMP JUMPDEST PUSH1 0x0 PUSH2 0x8D6 DUP3 PUSH2 0xADC JUMP JUMPDEST PUSH2 0x8E0 DUP2 DUP6 PUSH2 0xAE7 JUMP JUMPDEST SWAP4 POP PUSH2 0x8F0 DUP2 DUP6 PUSH1 0x20 DUP7 ADD PUSH2 0xB58 JUMP JUMPDEST PUSH2 0x8F9 DUP2 PUSH2 0xBB9 JUMP JUMPDEST DUP5 ADD SWAP2 POP POP SWAP3 SWAP2 POP POP JUMP JUMPDEST PUSH1 0x0 PUSH2 0x90F DUP3 PUSH2 0xADC JUMP JUMPDEST PUSH2 0x919 DUP2 DUP6 PUSH2 0xAF8 JUMP JUMPDEST SWAP4 POP PUSH2 0x929 DUP2 DUP6 PUSH1 0x20 DUP7 ADD PUSH2 0xB58 JUMP JUMPDEST DUP1 DUP5 ADD SWAP2 POP POP SWAP3 SWAP2 POP POP JUMP JUMPDEST PUSH2 0x93E DUP2 PUSH2 0xB3F JUMP JUMPDEST DUP3 MSTORE POP POP JUMP JUMPDEST PUSH2 0x955 PUSH2 0x950 DUP3 PUSH2 0xB3F JUMP JUMPDEST PUSH2 0xBAF JUMP JUMPDEST DUP3 MSTORE POP POP JUMP JUMPDEST PUSH1 0x0 PUSH2 0x967 DUP3 DUP5 PUSH2 0x904 JUMP JUMPDEST SWAP2 POP DUP2 SWAP1 POP SWAP3 SWAP2 POP POP JUMP JUMPDEST PUSH1 0x0 PUSH2 0x97E DUP3 DUP8 PUSH2 0x944 JUMP JUMPDEST PUSH1 0x20 DUP3 ADD SWAP2 POP PUSH2 0x98E DUP3 DUP7 PUSH2 0x904 JUMP JUMPDEST SWAP2 POP PUSH2 0x99A DUP3 DUP6 PUSH2 0x8A5 JUMP JUMPDEST PUSH1 0x14 DUP3 ADD SWAP2 POP PUSH2 0x9AA DUP3 DUP5 PUSH2 0x944 JUMP JUMPDEST PUSH1 0x20 DUP3 ADD SWAP2 POP DUP2 SWAP1 POP SWAP6 SWAP5 POP POP POP POP POP JUMP JUMPDEST PUSH1 0x0 PUSH1 0x20 DUP3 ADD SWAP1 POP PUSH2 0x9D1 PUSH1 0x0 DUP4 ADD DUP5 PUSH2 0x896 JUMP JUMPDEST SWAP3 SWAP2 POP POP JUMP JUMPDEST PUSH1 0x0 PUSH1 0x20 DUP3 ADD SWAP1 POP PUSH2 0x9EC PUSH1 0x0 DUP4 ADD DUP5 PUSH2 0x8BC JUMP JUMPDEST SWAP3 SWAP2 POP POP JUMP JUMPDEST PUSH1 0x0 PUSH1 0x80 DUP3 ADD SWAP1 POP PUSH2 0xA07 PUSH1 0x0 DUP4 ADD DUP8 PUSH2 0x935 JUMP JUMPDEST DUP2 DUP2 SUB PUSH1 0x20 DUP4 ADD MSTORE PUSH2 0xA19 DUP2 DUP7 PUSH2 0x8CB JUMP JUMPDEST SWAP1 POP PUSH2 0xA28 PUSH1 0x40 DUP4 ADD DUP6 PUSH2 0x896 JUMP JUMPDEST PUSH2 0xA35 PUSH1 0x60 DUP4 ADD DUP5 PUSH2 0x935 JUMP JUMPDEST SWAP6 SWAP5 POP POP POP POP POP JUMP JUMPDEST PUSH1 0x0 PUSH1 0x60 DUP3 ADD SWAP1 POP PUSH2 0xA53 PUSH1 0x0 DUP4 ADD DUP7 PUSH2 0x935 JUMP JUMPDEST DUP2 DUP2 SUB PUSH1 0x20 DUP4 ADD MSTORE PUSH2 0xA65 DUP2 DUP6 PUSH2 0x8CB JUMP JUMPDEST SWAP1 POP DUP2 DUP2 SUB PUSH1 0x40 DUP4 ADD MSTORE PUSH2 0xA79 DUP2 DUP5 PUSH2 0x8CB JUMP JUMPDEST SWAP1 POP SWAP5 SWAP4 POP POP POP POP JUMP JUMPDEST PUSH1 0x0 PUSH1 0x40 MLOAD SWAP1 POP DUP2 DUP2 ADD DUP2 DUP2 LT PUSH8 0xFFFFFFFFFFFFFFFF DUP3 GT OR ISZERO PUSH2 0xAA6 JUMPI PUSH1 0x0 DUP1 REVERT JUMPDEST DUP1 PUSH1 0x40 MSTORE POP SWAP2 SWAP1 POP JUMP JUMPDEST PUSH1 0x0 PUSH8 0xFFFFFFFFFFFFFFFF DUP3 GT ISZERO PUSH2 0xAC7 JUMPI PUSH1 0x0 DUP1 REVERT JUMPDEST PUSH1 0x1F NOT PUSH1 0x1F DUP4 ADD AND SWAP1 POP PUSH1 0x20 DUP2 ADD SWAP1 POP SWAP2 SWAP1 POP JUMP JUMPDEST PUSH1 0x0 DUP2 MLOAD SWAP1 POP SWAP2 SWAP1 POP JUMP JUMPDEST PUSH1 0x0 DUP3 DUP3 MSTORE PUSH1 0x20 DUP3 ADD SWAP1 POP SWAP3 SWAP2 POP POP JUMP JUMPDEST PUSH1 0x0 DUP2 SWAP1 POP SWAP3 SWAP2 POP POP JUMP JUMPDEST PUSH1 0x0 PUSH2 0xB0E DUP3 PUSH2 0xB1F JUMP JUMPDEST SWAP1 POP SWAP2 SWAP1 POP JUMP JUMPDEST PUSH1 0x0 DUP2 SWAP1 POP SWAP2 SWAP1 POP JUMP JUMPDEST PUSH1 0x0 PUSH20 0xFFFFFFFFFFFFFFFFFFFFFFFFFFFFFFFFFFFFFFFF DUP3 AND SWAP1 POP SWAP2 SWAP1 POP JUMP JUMPDEST PUSH1 0x0 DUP2 SWAP1 POP SWAP2 SWAP1 POP JUMP JUMPDEST DUP3 DUP2 DUP4 CALLDATACOPY PUSH1 0x0 DUP4 DUP4 ADD MSTORE POP POP POP JUMP JUMPDEST PUSH1 0x0 JUMPDEST DUP4 DUP2 LT ISZERO PUSH2 0xB76 JUMPI DUP1 DUP3 ADD MLOAD DUP2 DUP5 ADD MSTORE PUSH1 0x20 DUP2 ADD SWAP1 POP PUSH2 0xB5B JUMP JUMPDEST DUP4 DUP2 GT ISZERO PUSH2 0xB85 JUMPI PUSH1 0x0 DUP5 DUP5 ADD MSTORE JUMPDEST POP POP POP POP JUMP JUMPDEST PUSH1 0x0 PUSH2 0xB96 DUP3 PUSH2 0xB9D JUMP JUMPDEST SWAP1 POP SWAP2 SWAP1 POP JUMP JUMPDEST PUSH1 0x0 PUSH2 0xBA8 DUP3 PUSH2 0xBCA JUMP JUMPDEST SWAP1 POP SWAP2 SWAP1 POP JUMP JUMPDEST PUSH1 0x0 DUP2 SWAP1 POP SWAP2 SWAP1 POP JUMP JUMPDEST PUSH1 0x0 PUSH1 0x1F NOT PUSH1 0x1F DUP4 ADD AND SWAP1 POP SWAP2 SWAP1 POP JUMP JUMPDEST PUSH1 0x0 DUP2 PUSH1 0x60 SHL SWAP1 POP SWAP2 SWAP1 POP JUMP JUMPDEST PUSH2 0xBE0 DUP2 PUSH2 0xB3F JUMP JUMPDEST DUP2 EQ PUSH2 0xBEB JUMPI PUSH1 0x0 DUP1 REVERT JUMPDEST POP JUMP INVALID LOG2 PUSH5 0x6970667358 0x22 SLT KECCAK256 0xCE 0xB3 SWAP11 ADDMOD 0x48 0xB3 0x26 0xBC 0xA6 0x4B 0xC7 0xAC SWAP13 STATICCALL 0xDB 0x28 0xAD DUP6 CALLCODE 0xA7 REVERT PUSH24 0x3E1E8758CB36DBCED23764736F6C63430006050033000000 "
				},
				"gasEstimates": {
					"creation": {
						"codeDepositCost": "621600",
						"executionCost": "657",
						"totalCost": "622257"
					},
					"external": {
						"alumnos(uint256)": "infinite",
						"calularHash(string)": "infinite",
						"crearHamburguesa(string)": "infinite",
						"direcciones(uint256)": "2423",
						"hamburguesa()": "infinite",
						"hash()": "1130",
						"hash_id_alumno()": "1195",
						"nuevaDireccion()": "41967",
						"nuevoAlumno(uint256,string,uint256)": "infinite"
					},
					"internal": {
						"hashIdAlumno(uint256,string memory,address,uint256)": "infinite"
					}
				},
				"methodIdentifiers": {
					"alumnos(uint256)": "69ddcade",
					"calularHash(string)": "a7469ee3",
					"crearHamburguesa(string)": "33c83dbd",
					"direcciones(uint256)": "547cbcad",
					"hamburguesa()": "c74efaef",
					"hash()": "09bd5a60",
					"hash_id_alumno()": "b4f57473",
					"nuevaDireccion()": "42d73314",
					"nuevoAlumno(uint256,string,uint256)": "9e26bc4f"
				}
			},
			"storageLayout": {
				"storage": [
					{
						"astId": 5,
						"contract": "Funciones/funciones.sol:Funciones",
						"label": "direcciones",
						"offset": 0,
						"slot": "0",
						"type": "t_array(t_address)dyn_storage"
					},
					{
						"astId": 18,
						"contract": "Funciones/funciones.sol:Funciones",
						"label": "hash",
						"offset": 0,
						"slot": "1",
						"type": "t_bytes32"
					},
					{
						"astId": 42,
						"contract": "Funciones/funciones.sol:Funciones",
						"label": "hamburguesa",
						"offset": 0,
						"slot": "2",
						"type": "t_struct(Comida)40_storage"
					},
					{
						"astId": 67,
						"contract": "Funciones/funciones.sol:Funciones",
						"label": "hash_id_alumno",
						"offset": 0,
						"slot": "5",
						"type": "t_bytes32"
					},
					{
						"astId": 70,
						"contract": "Funciones/funciones.sol:Funciones",
						"label": "alumnos",
						"offset": 0,
						"slot": "6",
						"type": "t_array(t_struct(Alumno)65_storage)dyn_storage"
					},
					{
						"astId": 74,
						"contract": "Funciones/funciones.sol:Funciones",
						"label": "alumno_hash",
						"offset": 0,
						"slot": "7",
						"type": "t_mapping(t_string_memory_ptr,t_bytes32)"
					}
				],
				"types": {
					"t_address": {
						"encoding": "inplace",
						"label": "address",
						"numberOfBytes": "20"
					},
					"t_array(t_address)dyn_storage": {
						"base": "t_address",
						"encoding": "dynamic_array",
						"label": "address[]",
						"numberOfBytes": "32"
					},
					"t_array(t_struct(Alumno)65_storage)dyn_storage": {
						"base": "t_struct(Alumno)65_storage",
						"encoding": "dynamic_array",
						"label": "struct Funciones.Alumno[]",
						"numberOfBytes": "32"
					},
					"t_bytes32": {
						"encoding": "inplace",
						"label": "bytes32",
						"numberOfBytes": "32"
					},
					"t_mapping(t_string_memory_ptr,t_bytes32)": {
						"encoding": "mapping",
						"key": "t_string_memory_ptr",
						"label": "mapping(string => bytes32)",
						"numberOfBytes": "32",
						"value": "t_bytes32"
					},
					"t_string_memory_ptr": {
						"encoding": "bytes",
						"label": "string",
						"numberOfBytes": "32"
					},
					"t_string_storage": {
						"encoding": "bytes",
						"label": "string",
						"numberOfBytes": "32"
					},
					"t_struct(Alumno)65_storage": {
						"encoding": "inplace",
						"label": "struct Funciones.Alumno",
						"members": [
							{
								"astId": 58,
								"contract": "Funciones/funciones.sol:Funciones",
								"label": "id",
								"offset": 0,
								"slot": "0",
								"type": "t_uint256"
							},
							{
								"astId": 60,
								"contract": "Funciones/funciones.sol:Funciones",
								"label": "nombre",
								"offset": 0,
								"slot": "1",
								"type": "t_string_storage"
							},
							{
								"astId": 62,
								"contract": "Funciones/funciones.sol:Funciones",
								"label": "direccion",
								"offset": 0,
								"slot": "2",
								"type": "t_address"
							},
							{
								"astId": 64,
								"contract": "Funciones/funciones.sol:Funciones",
								"label": "edad",
								"offset": 0,
								"slot": "3",
								"type": "t_uint256"
							}
						],
						"numberOfBytes": "128"
					},
					"t_struct(Comida)40_storage": {
						"encoding": "inplace",
						"label": "struct Funciones.Comida",
						"members": [
							{
								"astId": 35,
								"contract": "Funciones/funciones.sol:Funciones",
								"label": "id",
								"offset": 0,
								"slot": "0",
								"type": "t_uint256"
							},
							{
								"astId": 37,
								"contract": "Funciones/funciones.sol:Funciones",
								"label": "nombre",
								"offset": 0,
								"slot": "1",
								"type": "t_string_storage"
							},
							{
								"astId": 39,
								"contract": "Funciones/funciones.sol:Funciones",
								"label": "ingredientes",
								"offset": 0,
								"slot": "2",
								"type": "t_string_storage"
							}
						],
						"numberOfBytes": "96"
					},
					"t_uint256": {
						"encoding": "inplace",
						"label": "uint256",
						"numberOfBytes": "32"
					}
				}
			},
			"userdoc": {
				"methods": {}
			}
		}
	}
}