{
	"Funciones/funciones.sol": {
		"Funciones": {
			"abi": [
				{
					"inputs": [
						{
							"internalType": "uint256",
							"name": "",
							"type": "uint256"
						}
					],
					"name": "alumnos",
					"outputs": [
						{
							"internalType": "uint256",
							"name": "id",
							"type": "uint256"
						},
						{
							"internalType": "string",
							"name": "nombre",
							"type": "string"
						},
						{
							"internalType": "address",
							"name": "direccion",
							"type": "address"
						},
						{
							"internalType": "uint256",
							"name": "edad",
							"type": "uint256"
						}
					],
					"stateMutability": "view",
					"type": "function"
				},
				{
					"inputs": [
						{
							"internalType": "string",
							"name": "_datos",
							"type": "string"
						}
					],
					"name": "calularHash",
					"outputs": [],
					"stateMutability": "nonpayable",
					"type": "function"
				},
				{
					"inputs": [
						{
							"internalType": "string",
							"name": "_ingredientes",
							"type": "string"
						}
					],
					"name": "crearHamburguesa",
					"outputs": [],
					"stateMutability": "nonpayable",
					"type": "function"
				},
				{
					"inputs": [
						{
							"internalType": "uint256",
							"name": "",
							"type": "uint256"
						}
					],
					"name": "direcciones",
					"outputs": [
						{
							"internalType": "address",
							"name": "",
							"type": "address"
						}
					],
					"stateMutability": "view",
					"type": "function"
				},
				{
					"inputs": [],
					"name": "hamburguesa",
					"outputs": [
						{
							"internalType": "uint256",
							"name": "id",
							"type": "uint256"
						},
						{
							"internalType": "string",
							"name": "nombre",
							"type": "string"
						},
						{
							"internalType": "string",
							"name": "ingredientes",
							"type": "string"
						}
					],
					"stateMutability": "view",
					"type": "function"
				},
				{
					"inputs": [],
					"name": "hash",
					"outputs": [
						{
							"internalType": "bytes32",
							"name": "",
							"type": "bytes32"
						}
					],
					"stateMutability": "view",
					"type": "function"
				},
				{
					"inputs": [],
					"name": "hash_id_alumno",
					"outputs": [
						{
							"internalType": "bytes32",
							"name": "",
							"type": "bytes32"
						}
					],
					"stateMutability": "view",
					"type": "function"
				},
				{
					"inputs": [],
					"name": "nuevaDireccion",
					"outputs": [],
					"stateMutability": "nonpayable",
					"type": "function"
				},
				{
					"inputs": [
						{
							"internalType": "uint256",
							"name": "_id",
							"type": "uint256"
						},
						{
							"internalType": "string",
							"name": "_nombre",
							"type": "string"
						},
						{
							"internalType": "uint256",
							"name": "_edad",
							"type": "uint256"
						}
					],
					"name": "nuevoAlumno",
					"outputs": [],
					"stateMutability": "nonpayable",
					"type": "function"
				}
			],
			"devdoc": {
				"methods": {}
			},
			"evm": {
				"assembly": "    /* \"Funciones/funciones.sol\":70:1282  contract Funciones{\r... */\n  mstore(0x40, 0x80)\n  callvalue\n    /* \"--CODEGEN--\":5:14   */\n  dup1\n    /* \"--CODEGEN--\":2:4   */\n  iszero\n  tag_1\n  jumpi\n    /* \"--CODEGEN--\":27:28   */\n  0x00\n    /* \"--CODEGEN--\":24:25   */\n  dup1\n    /* \"--CODEGEN--\":17:29   */\n  revert\n    /* \"--CODEGEN--\":2:4   */\ntag_1:\n    /* \"Funciones/funciones.sol\":70:1282  contract Funciones{\r... */\n  pop\n  dataSize(sub_0)\n  dup1\n  dataOffset(sub_0)\n  0x00\n  codecopy\n  0x00\n  return\nstop\n\nsub_0: assembly {\n        /* \"Funciones/funciones.sol\":70:1282  contract Funciones{\r... */\n      mstore(0x40, 0x80)\n      callvalue\n        /* \"--CODEGEN--\":5:14   */\n      dup1\n        /* \"--CODEGEN--\":2:4   */\n      iszero\n      tag_1\n      jumpi\n        /* \"--CODEGEN--\":27:28   */\n      0x00\n        /* \"--CODEGEN--\":24:25   */\n      dup1\n        /* \"--CODEGEN--\":17:29   */\n      revert\n        /* \"--CODEGEN--\":2:4   */\n    tag_1:\n        /* \"Funciones/funciones.sol\":70:1282  contract Funciones{\r... */\n      pop\n      jumpi(tag_2, lt(calldatasize, 0x04))\n      shr(0xe0, calldataload(0x00))\n      dup1\n      0x69ddcade\n      gt\n      tag_12\n      jumpi\n      dup1\n      0x69ddcade\n      eq\n      tag_7\n      jumpi\n      dup1\n      0x9e26bc4f\n      eq\n      tag_8\n      jumpi\n      dup1\n      0xa7469ee3\n      eq\n      tag_9\n      jumpi\n      dup1\n      0xb4f57473\n      eq\n      tag_10\n      jumpi\n      dup1\n      0xc74efaef\n      eq\n      tag_11\n      jumpi\n      jump(tag_2)\n    tag_12:\n      dup1\n      0x09bd5a60\n      eq\n      tag_3\n      jumpi\n      dup1\n      0x33c83dbd\n      eq\n      tag_4\n      jumpi\n      dup1\n      0x42d73314\n      eq\n      tag_5\n      jumpi\n      dup1\n      0x547cbcad\n      eq\n      tag_6\n      jumpi\n    tag_2:\n        /* \"--CODEGEN--\":12:13   */\n      0x00\n        /* \"--CODEGEN--\":9:10   */\n      dup1\n        /* \"--CODEGEN--\":2:14   */\n      revert\n        /* \"Funciones/funciones.sol\":326:345  bytes32 public hash */\n    tag_3:\n      tag_13\n      tag_14\n      jump\t// in\n    tag_13:\n      mload(0x40)\n      tag_15\n      swap2\n      swap1\n      jump(tag_16)\n    tag_15:\n      mload(0x40)\n      dup1\n      swap2\n      sub\n      swap1\n      return\n        /* \"Funciones/funciones.sol\":611:743  function crearHamburguesa(string memory _ingredientes) public {\r... */\n    tag_4:\n      tag_17\n      0x04\n      dup1\n      calldatasize\n      sub\n      dup2\n      add\n      swap1\n      tag_18\n      swap2\n      swap1\n      jump(tag_19)\n    tag_18:\n      tag_20\n      jump\t// in\n    tag_17:\n      stop\n        /* \"Funciones/funciones.sol\":239:318  function nuevaDireccion() public{\r... */\n    tag_5:\n      tag_21\n      tag_22\n      jump\t// in\n    tag_21:\n      stop\n        /* \"Funciones/funciones.sol\":201:230  address [] public direcciones */\n    tag_6:\n      tag_23\n      0x04\n      dup1\n      calldatasize\n      sub\n      dup2\n      add\n      swap1\n      tag_24\n      swap2\n      swap1\n      jump(tag_25)\n    tag_24:\n      tag_26\n      jump\t// in\n    tag_23:\n      mload(0x40)\n      tag_27\n      swap2\n      swap1\n      jump(tag_28)\n    tag_27:\n      mload(0x40)\n      dup1\n      swap2\n      sub\n      swap1\n      return\n        /* \"Funciones/funciones.sol\":906:930  Alumno [] public alumnos */\n    tag_7:\n      tag_29\n      0x04\n      dup1\n      calldatasize\n      sub\n      dup2\n      add\n      swap1\n      tag_30\n      swap2\n      swap1\n      jump(tag_25)\n    tag_30:\n      tag_31\n      jump\t// in\n    tag_29:\n      mload(0x40)\n      tag_32\n      swap5\n      swap4\n      swap3\n      swap2\n      swap1\n      jump(tag_33)\n    tag_32:\n      mload(0x40)\n      dup1\n      swap2\n      sub\n      swap1\n      return\n        /* \"Funciones/funciones.sol\":939:1080  function nuevoAlumno(uint _id, string memory _nombre, uint _edad )public{\r... */\n    tag_8:\n      tag_34\n      0x04\n      dup1\n      calldatasize\n      sub\n      dup2\n      add\n      swap1\n      tag_35\n      swap2\n      swap1\n      jump(tag_36)\n    tag_35:\n      tag_37\n      jump\t// in\n    tag_34:\n      stop\n        /* \"Funciones/funciones.sol\":354:467  function calularHash(string memory _datos) public {\r... */\n    tag_9:\n      tag_38\n      0x04\n      dup1\n      calldatasize\n      sub\n      dup2\n      add\n      swap1\n      tag_39\n      swap2\n      swap1\n      jump(tag_19)\n    tag_39:\n      tag_40\n      jump\t// in\n    tag_38:\n      stop\n        /* \"Funciones/funciones.sol\":870:899  bytes32 public hash_id_alumno */\n    tag_10:\n      tag_41\n      tag_42\n      jump\t// in\n    tag_41:\n      mload(0x40)\n      tag_43\n      swap2\n      swap1\n      jump(tag_16)\n    tag_43:\n      mload(0x40)\n      dup1\n      swap2\n      sub\n      swap1\n      return\n        /* \"Funciones/funciones.sol\":577:602  Comida public hamburguesa */\n    tag_11:\n      tag_44\n      tag_45\n      jump\t// in\n    tag_44:\n      mload(0x40)\n      tag_46\n      swap4\n      swap3\n      swap2\n      swap1\n      jump(tag_47)\n    tag_46:\n      mload(0x40)\n      dup1\n      swap2\n      sub\n      swap1\n      return\n        /* \"Funciones/funciones.sol\":326:345  bytes32 public hash */\n    tag_14:\n      sload(0x01)\n      dup2\n      jump\t// out\n        /* \"Funciones/funciones.sol\":611:743  function crearHamburguesa(string memory _ingredientes) public {\r... */\n    tag_20:\n        /* \"Funciones/funciones.sol\":698:735  Comida(1,\"Hamburguesa\",_ingredientes) */\n      mload(0x40)\n      dup1\n      0x60\n      add\n      0x40\n      mstore\n      dup1\n        /* \"Funciones/funciones.sol\":705:706  1 */\n      0x01\n        /* \"Funciones/funciones.sol\":698:735  Comida(1,\"Hamburguesa\",_ingredientes) */\n      dup2\n      mstore\n      0x20\n      add\n      mload(0x40)\n      dup1\n      0x40\n      add\n      0x40\n      mstore\n      dup1\n      0x0b\n      dup2\n      mstore\n      0x20\n      add\n      0x48616d6275726775657361000000000000000000000000000000000000000000\n      dup2\n      mstore\n      pop\n      dup2\n      mstore\n      0x20\n      add\n        /* \"Funciones/funciones.sol\":721:734  _ingredientes */\n      dup3\n        /* \"Funciones/funciones.sol\":698:735  Comida(1,\"Hamburguesa\",_ingredientes) */\n      dup2\n      mstore\n      pop\n        /* \"Funciones/funciones.sol\":684:695  hamburguesa */\n      0x02\n        /* \"Funciones/funciones.sol\":684:735  hamburguesa = Comida(1,\"Hamburguesa\",_ingredientes) */\n      0x00\n      dup3\n      add\n      mload\n      dup2\n      0x00\n      add\n      sstore\n      0x20\n      dup3\n      add\n      mload\n      dup2\n      0x01\n      add\n      swap1\n      dup1\n      mload\n      swap1\n      0x20\n      add\n      swap1\n      tag_49\n      swap3\n      swap2\n      swap1\n      tag_50\n      jump\t// in\n    tag_49:\n      pop\n      0x40\n      dup3\n      add\n      mload\n      dup2\n      0x02\n      add\n      swap1\n      dup1\n      mload\n      swap1\n      0x20\n      add\n      swap1\n      tag_51\n      swap3\n      swap2\n      swap1\n      tag_50\n      jump\t// in\n    tag_51:\n      pop\n      swap1\n      pop\n      pop\n        /* \"Funciones/funciones.sol\":611:743  function crearHamburguesa(string memory _ingredientes) public {\r... */\n      pop\n      jump\t// out\n        /* \"Funciones/funciones.sol\":239:318  function nuevaDireccion() public{\r... */\n    tag_22:\n        /* \"Funciones/funciones.sol\":282:293  direcciones */\n      0x00\n        /* \"Funciones/funciones.sol\":299:309  msg.sender */\n      caller\n        /* \"Funciones/funciones.sol\":282:310  direcciones.push(msg.sender) */\n      swap1\n      dup1\n        /* \"--CODEGEN--\":39:40   */\n      0x01\n        /* \"--CODEGEN--\":33:36   */\n      dup2\n        /* \"--CODEGEN--\":27:37   */\n      sload\n        /* \"--CODEGEN--\":23:41   */\n      add\n        /* \"--CODEGEN--\":57:67   */\n      dup1\n        /* \"--CODEGEN--\":52:55   */\n      dup3\n        /* \"--CODEGEN--\":45:68   */\n      sstore\n        /* \"--CODEGEN--\":79:89   */\n      dup1\n        /* \"--CODEGEN--\":72:89   */\n      swap2\n      pop\n        /* \"--CODEGEN--\":0:93   */\n      pop\n        /* \"Funciones/funciones.sol\":282:310  direcciones.push(msg.sender) */\n      0x01\n      swap1\n      sub\n      swap1\n      0x00\n      mstore\n      keccak256(0x00, 0x20)\n      add\n      0x00\n      swap1\n      swap2\n      swap1\n      swap2\n      swap1\n      swap2\n      0x0100\n      exp\n      dup2\n      sload\n      dup2\n      0xffffffffffffffffffffffffffffffffffffffff\n      mul\n      not\n      and\n      swap1\n      dup4\n      0xffffffffffffffffffffffffffffffffffffffff\n      and\n      mul\n      or\n      swap1\n      sstore\n      pop\n        /* \"Funciones/funciones.sol\":239:318  function nuevaDireccion() public{\r... */\n      jump\t// out\n        /* \"Funciones/funciones.sol\":201:230  address [] public direcciones */\n    tag_26:\n      0x00\n      dup2\n      dup2\n      sload\n      dup2\n      lt\n      tag_54\n      jumpi\n      invalid\n    tag_54:\n      swap1\n      0x00\n      mstore\n      keccak256(0x00, 0x20)\n      add\n      0x00\n      swap2\n      pop\n      sload\n      swap1\n      0x0100\n      exp\n      swap1\n      div\n      0xffffffffffffffffffffffffffffffffffffffff\n      and\n      dup2\n      jump\t// out\n        /* \"Funciones/funciones.sol\":906:930  Alumno [] public alumnos */\n    tag_31:\n      0x06\n      dup2\n      dup2\n      sload\n      dup2\n      lt\n      tag_56\n      jumpi\n      invalid\n    tag_56:\n      swap1\n      0x00\n      mstore\n      keccak256(0x00, 0x20)\n      swap1\n      0x04\n      mul\n      add\n      0x00\n      swap2\n      pop\n      swap1\n      pop\n      dup1\n      0x00\n      add\n      sload\n      swap1\n      dup1\n      0x01\n      add\n      dup1\n      sload\n      0x01\n      dup2\n      0x01\n      and\n      iszero\n      0x0100\n      mul\n      sub\n      and\n      0x02\n      swap1\n      div\n      dup1\n      0x1f\n      add\n      0x20\n      dup1\n      swap2\n      div\n      mul\n      0x20\n      add\n      mload(0x40)\n      swap1\n      dup2\n      add\n      0x40\n      mstore\n      dup1\n      swap3\n      swap2\n      swap1\n      dup2\n      dup2\n      mstore\n      0x20\n      add\n      dup3\n      dup1\n      sload\n      0x01\n      dup2\n      0x01\n      and\n      iszero\n      0x0100\n      mul\n      sub\n      and\n      0x02\n      swap1\n      div\n      dup1\n      iszero\n      tag_58\n      jumpi\n      dup1\n      0x1f\n      lt\n      tag_59\n      jumpi\n      0x0100\n      dup1\n      dup4\n      sload\n      div\n      mul\n      dup4\n      mstore\n      swap2\n      0x20\n      add\n      swap2\n      jump(tag_58)\n    tag_59:\n      dup3\n      add\n      swap2\n      swap1\n      0x00\n      mstore\n      keccak256(0x00, 0x20)\n      swap1\n    tag_60:\n      dup2\n      sload\n      dup2\n      mstore\n      swap1\n      0x01\n      add\n      swap1\n      0x20\n      add\n      dup1\n      dup4\n      gt\n      tag_60\n      jumpi\n      dup3\n      swap1\n      sub\n      0x1f\n      and\n      dup3\n      add\n      swap2\n    tag_58:\n      pop\n      pop\n      pop\n      pop\n      pop\n      swap1\n      dup1\n      0x02\n      add\n      0x00\n      swap1\n      sload\n      swap1\n      0x0100\n      exp\n      swap1\n      div\n      0xffffffffffffffffffffffffffffffffffffffff\n      and\n      swap1\n      dup1\n      0x03\n      add\n      sload\n      swap1\n      pop\n      dup5\n      jump\t// out\n        /* \"Funciones/funciones.sol\":939:1080  function nuevoAlumno(uint _id, string memory _nombre, uint _edad )public{\r... */\n    tag_37:\n        /* \"Funciones/funciones.sol\":1022:1029  alumnos */\n      0x06\n        /* \"Funciones/funciones.sol\":1035:1071  Alumno(_id,_nombre,msg.sender,_edad) */\n      mload(0x40)\n      dup1\n      0x80\n      add\n      0x40\n      mstore\n      dup1\n        /* \"Funciones/funciones.sol\":1042:1045  _id */\n      dup6\n        /* \"Funciones/funciones.sol\":1035:1071  Alumno(_id,_nombre,msg.sender,_edad) */\n      dup2\n      mstore\n      0x20\n      add\n        /* \"Funciones/funciones.sol\":1046:1053  _nombre */\n      dup5\n        /* \"Funciones/funciones.sol\":1035:1071  Alumno(_id,_nombre,msg.sender,_edad) */\n      dup2\n      mstore\n      0x20\n      add\n        /* \"Funciones/funciones.sol\":1054:1064  msg.sender */\n      caller\n        /* \"Funciones/funciones.sol\":1035:1071  Alumno(_id,_nombre,msg.sender,_edad) */\n      0xffffffffffffffffffffffffffffffffffffffff\n      and\n      dup2\n      mstore\n      0x20\n      add\n        /* \"Funciones/funciones.sol\":1065:1070  _edad */\n      dup4\n        /* \"Funciones/funciones.sol\":1035:1071  Alumno(_id,_nombre,msg.sender,_edad) */\n      dup2\n      mstore\n      pop\n        /* \"Funciones/funciones.sol\":1022:1072  alumnos.push(Alumno(_id,_nombre,msg.sender,_edad)) */\n      swap1\n      dup1\n        /* \"--CODEGEN--\":39:40   */\n      0x01\n        /* \"--CODEGEN--\":33:36   */\n      dup2\n        /* \"--CODEGEN--\":27:37   */\n      sload\n        /* \"--CODEGEN--\":23:41   */\n      add\n        /* \"--CODEGEN--\":57:67   */\n      dup1\n        /* \"--CODEGEN--\":52:55   */\n      dup3\n        /* \"--CODEGEN--\":45:68   */\n      sstore\n        /* \"--CODEGEN--\":79:89   */\n      dup1\n        /* \"--CODEGEN--\":72:89   */\n      swap2\n      pop\n        /* \"--CODEGEN--\":0:93   */\n      pop\n        /* \"Funciones/funciones.sol\":1022:1072  alumnos.push(Alumno(_id,_nombre,msg.sender,_edad)) */\n      0x01\n      swap1\n      sub\n      swap1\n      0x00\n      mstore\n      keccak256(0x00, 0x20)\n      swap1\n      0x04\n      mul\n      add\n      0x00\n      swap1\n      swap2\n      swap1\n      swap2\n      swap1\n      swap2\n      pop\n      0x00\n      dup3\n      add\n      mload\n      dup2\n      0x00\n      add\n      sstore\n      0x20\n      dup3\n      add\n      mload\n      dup2\n      0x01\n      add\n      swap1\n      dup1\n      mload\n      swap1\n      0x20\n      add\n      swap1\n      tag_63\n      swap3\n      swap2\n      swap1\n      tag_50\n      jump\t// in\n    tag_63:\n      pop\n      0x40\n      dup3\n      add\n      mload\n      dup2\n      0x02\n      add\n      exp(0x0100, 0x00)\n      dup2\n      sload\n      dup2\n      0xffffffffffffffffffffffffffffffffffffffff\n      mul\n      not\n      and\n      swap1\n      dup4\n      0xffffffffffffffffffffffffffffffffffffffff\n      and\n      mul\n      or\n      swap1\n      sstore\n      pop\n      0x60\n      dup3\n      add\n      mload\n      dup2\n      0x03\n      add\n      sstore\n      pop\n      pop\n        /* \"Funciones/funciones.sol\":939:1080  function nuevoAlumno(uint _id, string memory _nombre, uint _edad )public{\r... */\n      pop\n      pop\n      pop\n      jump\t// out\n        /* \"Funciones/funciones.sol\":354:467  function calularHash(string memory _datos) public {\r... */\n    tag_40:\n        /* \"Funciones/funciones.sol\":449:455  _datos */\n      dup1\n        /* \"Funciones/funciones.sol\":432:456  abi.encodePacked(_datos) */\n      add(0x20, mload(0x40))\n      tag_65\n      swap2\n      swap1\n      jump(tag_66)\n    tag_65:\n      mload(0x40)\n        /* \"--CODEGEN--\":49:53   */\n      0x20\n        /* \"--CODEGEN--\":39:46   */\n      dup2\n        /* \"--CODEGEN--\":30:37   */\n      dup4\n        /* \"--CODEGEN--\":26:47   */\n      sub\n        /* \"--CODEGEN--\":22:54   */\n      sub\n        /* \"--CODEGEN--\":13:20   */\n      dup2\n        /* \"--CODEGEN--\":6:55   */\n      mstore\n        /* \"Funciones/funciones.sol\":432:456  abi.encodePacked(_datos) */\n      swap1\n      0x40\n      mstore\n        /* \"Funciones/funciones.sol\":422:457  keccak256(abi.encodePacked(_datos)) */\n      dup1\n      mload\n      swap1\n      0x20\n      add\n      keccak256\n        /* \"Funciones/funciones.sol\":415:419  hash */\n      0x01\n        /* \"Funciones/funciones.sol\":415:457  hash = keccak256(abi.encodePacked(_datos)) */\n      dup2\n      swap1\n      sstore\n      pop\n        /* \"Funciones/funciones.sol\":354:467  function calularHash(string memory _datos) public {\r... */\n      pop\n      jump\t// out\n        /* \"Funciones/funciones.sol\":870:899  bytes32 public hash_id_alumno */\n    tag_42:\n      sload(0x05)\n      dup2\n      jump\t// out\n        /* \"Funciones/funciones.sol\":577:602  Comida public hamburguesa */\n    tag_45:\n      0x02\n      dup1\n      0x00\n      add\n      sload\n      swap1\n      dup1\n      0x01\n      add\n      dup1\n      sload\n      0x01\n      dup2\n      0x01\n      and\n      iszero\n      0x0100\n      mul\n      sub\n      and\n      0x02\n      swap1\n      div\n      dup1\n      0x1f\n      add\n      0x20\n      dup1\n      swap2\n      div\n      mul\n      0x20\n      add\n      mload(0x40)\n      swap1\n      dup2\n      add\n      0x40\n      mstore\n      dup1\n      swap3\n      swap2\n      swap1\n      dup2\n      dup2\n      mstore\n      0x20\n      add\n      dup3\n      dup1\n      sload\n      0x01\n      dup2\n      0x01\n      and\n      iszero\n      0x0100\n      mul\n      sub\n      and\n      0x02\n      swap1\n      div\n      dup1\n      iszero\n      tag_67\n      jumpi\n      dup1\n      0x1f\n      lt\n      tag_68\n      jumpi\n      0x0100\n      dup1\n      dup4\n      sload\n      div\n      mul\n      dup4\n      mstore\n      swap2\n      0x20\n      add\n      swap2\n      jump(tag_67)\n    tag_68:\n      dup3\n      add\n      swap2\n      swap1\n      0x00\n      mstore\n      keccak256(0x00, 0x20)\n      swap1\n    tag_69:\n      dup2\n      sload\n      dup2\n      mstore\n      swap1\n      0x01\n      add\n      swap1\n      0x20\n      add\n      dup1\n      dup4\n      gt\n      tag_69\n      jumpi\n      dup3\n      swap1\n      sub\n      0x1f\n      and\n      dup3\n      add\n      swap2\n    tag_67:\n      pop\n      pop\n      pop\n      pop\n      pop\n      swap1\n      dup1\n      0x02\n      add\n      dup1\n      sload\n      0x01\n      dup2\n      0x01\n      and\n      iszero\n      0x0100\n      mul\n      sub\n      and\n      0x02\n      swap1\n      div\n      dup1\n      0x1f\n      add\n      0x20\n      dup1\n      swap2\n      div\n      mul\n      0x20\n      add\n      mload(0x40)\n      swap1\n      dup2\n      add\n      0x40\n      mstore\n      dup1\n      swap3\n      swap2\n      swap1\n      dup2\n      dup2\n      mstore\n      0x20\n      add\n      dup3\n      dup1\n      sload\n      0x01\n      dup2\n      0x01\n      and\n      iszero\n      0x0100\n      mul\n      sub\n      and\n      0x02\n      swap1\n      div\n      dup1\n      iszero\n      tag_70\n      jumpi\n      dup1\n      0x1f\n      lt\n      tag_71\n      jumpi\n      0x0100\n      dup1\n      dup4\n      sload\n      div\n      mul\n      dup4\n      mstore\n      swap2\n      0x20\n      add\n      swap2\n      jump(tag_70)\n    tag_71:\n      dup3\n      add\n      swap2\n      swap1\n      0x00\n      mstore\n      keccak256(0x00, 0x20)\n      swap1\n    tag_72:\n      dup2\n      sload\n      dup2\n      mstore\n      swap1\n      0x01\n      add\n      swap1\n      0x20\n      add\n      dup1\n      dup4\n      gt\n      tag_72\n      jumpi\n      dup3\n      swap1\n      sub\n      0x1f\n      and\n      dup3\n      add\n      swap2\n    tag_70:\n      pop\n      pop\n      pop\n      pop\n      pop\n      swap1\n      pop\n      dup4\n      jump\t// out\n        /* \"Funciones/funciones.sol\":70:1282  contract Funciones{\r... */\n    tag_50:\n      dup3\n      dup1\n      sload\n      0x01\n      dup2\n      0x01\n      and\n      iszero\n      0x0100\n      mul\n      sub\n      and\n      0x02\n      swap1\n      div\n      swap1\n      0x00\n      mstore\n      keccak256(0x00, 0x20)\n      swap1\n      0x1f\n      add\n      0x20\n      swap1\n      div\n      dup2\n      add\n      swap3\n      dup3\n      0x1f\n      lt\n      tag_74\n      jumpi\n      dup1\n      mload\n      not(0xff)\n      and\n      dup4\n      dup1\n      add\n      or\n      dup6\n      sstore\n      jump(tag_73)\n    tag_74:\n      dup3\n      dup1\n      add\n      0x01\n      add\n      dup6\n      sstore\n      dup3\n      iszero\n      tag_73\n      jumpi\n      swap2\n      dup3\n      add\n    tag_75:\n      dup3\n      dup2\n      gt\n      iszero\n      tag_76\n      jumpi\n      dup3\n      mload\n      dup3\n      sstore\n      swap2\n      0x20\n      add\n      swap2\n      swap1\n      0x01\n      add\n      swap1\n      jump(tag_75)\n    tag_76:\n    tag_73:\n      pop\n      swap1\n      pop\n      tag_77\n      swap2\n      swap1\n      tag_78\n      jump\t// in\n    tag_77:\n      pop\n      swap1\n      jump\t// out\n    tag_78:\n      tag_79\n      swap2\n      swap1\n    tag_80:\n      dup1\n      dup3\n      gt\n      iszero\n      tag_81\n      jumpi\n      0x00\n      dup2\n      0x00\n      swap1\n      sstore\n      pop\n      0x01\n      add\n      jump(tag_80)\n    tag_81:\n      pop\n      swap1\n      jump\n    tag_79:\n      swap1\n      jump\t// out\n        /* \"--CODEGEN--\":6:448   */\n    tag_83:\n      0x00\n        /* \"--CODEGEN--\":108:111   */\n      dup3\n        /* \"--CODEGEN--\":101:105   */\n      0x1f\n        /* \"--CODEGEN--\":93:99   */\n      dup4\n        /* \"--CODEGEN--\":89:106   */\n      add\n        /* \"--CODEGEN--\":85:112   */\n      slt\n        /* \"--CODEGEN--\":75:77   */\n      tag_85\n      jumpi\n        /* \"--CODEGEN--\":126:127   */\n      0x00\n        /* \"--CODEGEN--\":123:124   */\n      dup1\n        /* \"--CODEGEN--\":116:128   */\n      revert\n        /* \"--CODEGEN--\":75:77   */\n    tag_85:\n        /* \"--CODEGEN--\":163:169   */\n      dup2\n        /* \"--CODEGEN--\":150:170   */\n      calldataload\n        /* \"--CODEGEN--\":185:250   */\n      tag_86\n        /* \"--CODEGEN--\":200:249   */\n      tag_87\n        /* \"--CODEGEN--\":242:248   */\n      dup3\n        /* \"--CODEGEN--\":200:249   */\n      jump(tag_88)\n    tag_87:\n        /* \"--CODEGEN--\":185:250   */\n      jump(tag_89)\n    tag_86:\n        /* \"--CODEGEN--\":176:250   */\n      swap2\n      pop\n        /* \"--CODEGEN--\":270:276   */\n      dup1\n        /* \"--CODEGEN--\":263:268   */\n      dup3\n        /* \"--CODEGEN--\":256:277   */\n      mstore\n        /* \"--CODEGEN--\":306:310   */\n      0x20\n        /* \"--CODEGEN--\":298:304   */\n      dup4\n        /* \"--CODEGEN--\":294:311   */\n      add\n        /* \"--CODEGEN--\":339:343   */\n      0x20\n        /* \"--CODEGEN--\":332:337   */\n      dup4\n        /* \"--CODEGEN--\":328:344   */\n      add\n        /* \"--CODEGEN--\":374:377   */\n      dup6\n        /* \"--CODEGEN--\":365:371   */\n      dup4\n        /* \"--CODEGEN--\":360:363   */\n      dup4\n        /* \"--CODEGEN--\":356:372   */\n      add\n        /* \"--CODEGEN--\":353:378   */\n      gt\n        /* \"--CODEGEN--\":350:352   */\n      iszero\n      tag_90\n      jumpi\n        /* \"--CODEGEN--\":391:392   */\n      0x00\n        /* \"--CODEGEN--\":388:389   */\n      dup1\n        /* \"--CODEGEN--\":381:393   */\n      revert\n        /* \"--CODEGEN--\":350:352   */\n    tag_90:\n        /* \"--CODEGEN--\":401:442   */\n      tag_91\n        /* \"--CODEGEN--\":435:441   */\n      dup4\n        /* \"--CODEGEN--\":430:433   */\n      dup3\n        /* \"--CODEGEN--\":425:428   */\n      dup5\n        /* \"--CODEGEN--\":401:442   */\n      jump(tag_92)\n    tag_91:\n        /* \"--CODEGEN--\":68:448   */\n      pop\n      pop\n      pop\n      swap3\n      swap2\n      pop\n      pop\n      jump\n        /* \"--CODEGEN--\":456:586   */\n    tag_93:\n      0x00\n        /* \"--CODEGEN--\":536:542   */\n      dup2\n        /* \"--CODEGEN--\":523:543   */\n      calldataload\n        /* \"--CODEGEN--\":514:543   */\n      swap1\n      pop\n        /* \"--CODEGEN--\":548:581   */\n      tag_95\n        /* \"--CODEGEN--\":575:580   */\n      dup2\n        /* \"--CODEGEN--\":548:581   */\n      jump(tag_96)\n    tag_95:\n        /* \"--CODEGEN--\":508:586   */\n      swap3\n      swap2\n      pop\n      pop\n      jump\n        /* \"--CODEGEN--\":593:940   */\n    tag_19:\n      0x00\n        /* \"--CODEGEN--\":707:709   */\n      0x20\n        /* \"--CODEGEN--\":695:704   */\n      dup3\n        /* \"--CODEGEN--\":686:693   */\n      dup5\n        /* \"--CODEGEN--\":682:705   */\n      sub\n        /* \"--CODEGEN--\":678:710   */\n      slt\n        /* \"--CODEGEN--\":675:677   */\n      iszero\n      tag_98\n      jumpi\n        /* \"--CODEGEN--\":723:724   */\n      0x00\n        /* \"--CODEGEN--\":720:721   */\n      dup1\n        /* \"--CODEGEN--\":713:725   */\n      revert\n        /* \"--CODEGEN--\":675:677   */\n    tag_98:\n        /* \"--CODEGEN--\":786:787   */\n      0x00\n        /* \"--CODEGEN--\":775:784   */\n      dup3\n        /* \"--CODEGEN--\":771:788   */\n      add\n        /* \"--CODEGEN--\":758:789   */\n      calldataload\n        /* \"--CODEGEN--\":809:827   */\n      0xffffffffffffffff\n        /* \"--CODEGEN--\":801:807   */\n      dup2\n        /* \"--CODEGEN--\":798:828   */\n      gt\n        /* \"--CODEGEN--\":795:797   */\n      iszero\n      tag_99\n      jumpi\n        /* \"--CODEGEN--\":841:842   */\n      0x00\n        /* \"--CODEGEN--\":838:839   */\n      dup1\n        /* \"--CODEGEN--\":831:843   */\n      revert\n        /* \"--CODEGEN--\":795:797   */\n    tag_99:\n        /* \"--CODEGEN--\":861:924   */\n      tag_100\n        /* \"--CODEGEN--\":916:923   */\n      dup5\n        /* \"--CODEGEN--\":907:913   */\n      dup3\n        /* \"--CODEGEN--\":896:905   */\n      dup6\n        /* \"--CODEGEN--\":892:914   */\n      add\n        /* \"--CODEGEN--\":861:924   */\n      jump(tag_83)\n    tag_100:\n        /* \"--CODEGEN--\":851:924   */\n      swap2\n      pop\n        /* \"--CODEGEN--\":737:930   */\n      pop\n        /* \"--CODEGEN--\":669:940   */\n      swap3\n      swap2\n      pop\n      pop\n      jump\n        /* \"--CODEGEN--\":947:1188   */\n    tag_25:\n      0x00\n        /* \"--CODEGEN--\":1051:1053   */\n      0x20\n        /* \"--CODEGEN--\":1039:1048   */\n      dup3\n        /* \"--CODEGEN--\":1030:1037   */\n      dup5\n        /* \"--CODEGEN--\":1026:1049   */\n      sub\n        /* \"--CODEGEN--\":1022:1054   */\n      slt\n        /* \"--CODEGEN--\":1019:1021   */\n      iszero\n      tag_102\n      jumpi\n        /* \"--CODEGEN--\":1067:1068   */\n      0x00\n        /* \"--CODEGEN--\":1064:1065   */\n      dup1\n        /* \"--CODEGEN--\":1057:1069   */\n      revert\n        /* \"--CODEGEN--\":1019:1021   */\n    tag_102:\n        /* \"--CODEGEN--\":1102:1103   */\n      0x00\n        /* \"--CODEGEN--\":1119:1172   */\n      tag_103\n        /* \"--CODEGEN--\":1164:1171   */\n      dup5\n        /* \"--CODEGEN--\":1155:1161   */\n      dup3\n        /* \"--CODEGEN--\":1144:1153   */\n      dup6\n        /* \"--CODEGEN--\":1140:1162   */\n      add\n        /* \"--CODEGEN--\":1119:1172   */\n      jump(tag_93)\n    tag_103:\n        /* \"--CODEGEN--\":1109:1172   */\n      swap2\n      pop\n        /* \"--CODEGEN--\":1081:1178   */\n      pop\n        /* \"--CODEGEN--\":1013:1188   */\n      swap3\n      swap2\n      pop\n      pop\n      jump\n        /* \"--CODEGEN--\":1195:1792   */\n    tag_36:\n      0x00\n      dup1\n      0x00\n        /* \"--CODEGEN--\":1343:1345   */\n      0x60\n        /* \"--CODEGEN--\":1331:1340   */\n      dup5\n        /* \"--CODEGEN--\":1322:1329   */\n      dup7\n        /* \"--CODEGEN--\":1318:1341   */\n      sub\n        /* \"--CODEGEN--\":1314:1346   */\n      slt\n        /* \"--CODEGEN--\":1311:1313   */\n      iszero\n      tag_105\n      jumpi\n        /* \"--CODEGEN--\":1359:1360   */\n      0x00\n        /* \"--CODEGEN--\":1356:1357   */\n      dup1\n        /* \"--CODEGEN--\":1349:1361   */\n      revert\n        /* \"--CODEGEN--\":1311:1313   */\n    tag_105:\n        /* \"--CODEGEN--\":1394:1395   */\n      0x00\n        /* \"--CODEGEN--\":1411:1464   */\n      tag_106\n        /* \"--CODEGEN--\":1456:1463   */\n      dup7\n        /* \"--CODEGEN--\":1447:1453   */\n      dup3\n        /* \"--CODEGEN--\":1436:1445   */\n      dup8\n        /* \"--CODEGEN--\":1432:1454   */\n      add\n        /* \"--CODEGEN--\":1411:1464   */\n      jump(tag_93)\n    tag_106:\n        /* \"--CODEGEN--\":1401:1464   */\n      swap4\n      pop\n        /* \"--CODEGEN--\":1373:1470   */\n      pop\n        /* \"--CODEGEN--\":1529:1531   */\n      0x20\n        /* \"--CODEGEN--\":1518:1527   */\n      dup5\n        /* \"--CODEGEN--\":1514:1532   */\n      add\n        /* \"--CODEGEN--\":1501:1533   */\n      calldataload\n        /* \"--CODEGEN--\":1553:1571   */\n      0xffffffffffffffff\n        /* \"--CODEGEN--\":1545:1551   */\n      dup2\n        /* \"--CODEGEN--\":1542:1572   */\n      gt\n        /* \"--CODEGEN--\":1539:1541   */\n      iszero\n      tag_107\n      jumpi\n        /* \"--CODEGEN--\":1585:1586   */\n      0x00\n        /* \"--CODEGEN--\":1582:1583   */\n      dup1\n        /* \"--CODEGEN--\":1575:1587   */\n      revert\n        /* \"--CODEGEN--\":1539:1541   */\n    tag_107:\n        /* \"--CODEGEN--\":1605:1668   */\n      tag_108\n        /* \"--CODEGEN--\":1660:1667   */\n      dup7\n        /* \"--CODEGEN--\":1651:1657   */\n      dup3\n        /* \"--CODEGEN--\":1640:1649   */\n      dup8\n        /* \"--CODEGEN--\":1636:1658   */\n      add\n        /* \"--CODEGEN--\":1605:1668   */\n      jump(tag_83)\n    tag_108:\n        /* \"--CODEGEN--\":1595:1668   */\n      swap3\n      pop\n        /* \"--CODEGEN--\":1480:1674   */\n      pop\n        /* \"--CODEGEN--\":1705:1707   */\n      0x40\n        /* \"--CODEGEN--\":1723:1776   */\n      tag_109\n        /* \"--CODEGEN--\":1768:1775   */\n      dup7\n        /* \"--CODEGEN--\":1759:1765   */\n      dup3\n        /* \"--CODEGEN--\":1748:1757   */\n      dup8\n        /* \"--CODEGEN--\":1744:1766   */\n      add\n        /* \"--CODEGEN--\":1723:1776   */\n      jump(tag_93)\n    tag_109:\n        /* \"--CODEGEN--\":1713:1776   */\n      swap2\n      pop\n        /* \"--CODEGEN--\":1684:1782   */\n      pop\n        /* \"--CODEGEN--\":1305:1792   */\n      swap3\n      pop\n      swap3\n      pop\n      swap3\n      jump\n        /* \"--CODEGEN--\":1799:1912   */\n    tag_110:\n        /* \"--CODEGEN--\":1882:1906   */\n      tag_112\n        /* \"--CODEGEN--\":1900:1905   */\n      dup2\n        /* \"--CODEGEN--\":1882:1906   */\n      jump(tag_113)\n    tag_112:\n        /* \"--CODEGEN--\":1877:1880   */\n      dup3\n        /* \"--CODEGEN--\":1870:1907   */\n      mstore\n        /* \"--CODEGEN--\":1864:1912   */\n      pop\n      pop\n      jump\n        /* \"--CODEGEN--\":1919:2032   */\n    tag_114:\n        /* \"--CODEGEN--\":2002:2026   */\n      tag_116\n        /* \"--CODEGEN--\":2020:2025   */\n      dup2\n        /* \"--CODEGEN--\":2002:2026   */\n      jump(tag_117)\n    tag_116:\n        /* \"--CODEGEN--\":1997:2000   */\n      dup3\n        /* \"--CODEGEN--\":1990:2027   */\n      mstore\n        /* \"--CODEGEN--\":1984:2032   */\n      pop\n      pop\n      jump\n        /* \"--CODEGEN--\":2039:2386   */\n    tag_118:\n      0x00\n        /* \"--CODEGEN--\":2151:2190   */\n      tag_120\n        /* \"--CODEGEN--\":2184:2189   */\n      dup3\n        /* \"--CODEGEN--\":2151:2190   */\n      jump(tag_121)\n    tag_120:\n        /* \"--CODEGEN--\":2202:2273   */\n      tag_122\n        /* \"--CODEGEN--\":2266:2272   */\n      dup2\n        /* \"--CODEGEN--\":2261:2264   */\n      dup6\n        /* \"--CODEGEN--\":2202:2273   */\n      jump(tag_123)\n    tag_122:\n        /* \"--CODEGEN--\":2195:2273   */\n      swap4\n      pop\n        /* \"--CODEGEN--\":2278:2330   */\n      tag_124\n        /* \"--CODEGEN--\":2323:2329   */\n      dup2\n        /* \"--CODEGEN--\":2318:2321   */\n      dup6\n        /* \"--CODEGEN--\":2311:2315   */\n      0x20\n        /* \"--CODEGEN--\":2304:2309   */\n      dup7\n        /* \"--CODEGEN--\":2300:2316   */\n      add\n        /* \"--CODEGEN--\":2278:2330   */\n      jump(tag_125)\n    tag_124:\n        /* \"--CODEGEN--\":2351:2380   */\n      tag_126\n        /* \"--CODEGEN--\":2373:2379   */\n      dup2\n        /* \"--CODEGEN--\":2351:2380   */\n      jump(tag_127)\n    tag_126:\n        /* \"--CODEGEN--\":2346:2349   */\n      dup5\n        /* \"--CODEGEN--\":2342:2381   */\n      add\n        /* \"--CODEGEN--\":2335:2381   */\n      swap2\n      pop\n        /* \"--CODEGEN--\":2131:2386   */\n      pop\n      swap3\n      swap2\n      pop\n      pop\n      jump\n        /* \"--CODEGEN--\":2393:2753   */\n    tag_128:\n      0x00\n        /* \"--CODEGEN--\":2523:2562   */\n      tag_130\n        /* \"--CODEGEN--\":2556:2561   */\n      dup3\n        /* \"--CODEGEN--\":2523:2562   */\n      jump(tag_121)\n    tag_130:\n        /* \"--CODEGEN--\":2574:2663   */\n      tag_131\n        /* \"--CODEGEN--\":2656:2662   */\n      dup2\n        /* \"--CODEGEN--\":2651:2654   */\n      dup6\n        /* \"--CODEGEN--\":2574:2663   */\n      jump(tag_132)\n    tag_131:\n        /* \"--CODEGEN--\":2567:2663   */\n      swap4\n      pop\n        /* \"--CODEGEN--\":2668:2720   */\n      tag_133\n        /* \"--CODEGEN--\":2713:2719   */\n      dup2\n        /* \"--CODEGEN--\":2708:2711   */\n      dup6\n        /* \"--CODEGEN--\":2701:2705   */\n      0x20\n        /* \"--CODEGEN--\":2694:2699   */\n      dup7\n        /* \"--CODEGEN--\":2690:2706   */\n      add\n        /* \"--CODEGEN--\":2668:2720   */\n      jump(tag_125)\n    tag_133:\n        /* \"--CODEGEN--\":2741:2747   */\n      dup1\n        /* \"--CODEGEN--\":2736:2739   */\n      dup5\n        /* \"--CODEGEN--\":2732:2748   */\n      add\n        /* \"--CODEGEN--\":2725:2748   */\n      swap2\n      pop\n        /* \"--CODEGEN--\":2503:2753   */\n      pop\n      swap3\n      swap2\n      pop\n      pop\n      jump\n        /* \"--CODEGEN--\":2760:2873   */\n    tag_134:\n        /* \"--CODEGEN--\":2843:2867   */\n      tag_136\n        /* \"--CODEGEN--\":2861:2866   */\n      dup2\n        /* \"--CODEGEN--\":2843:2867   */\n      jump(tag_137)\n    tag_136:\n        /* \"--CODEGEN--\":2838:2841   */\n      dup3\n        /* \"--CODEGEN--\":2831:2868   */\n      mstore\n        /* \"--CODEGEN--\":2825:2873   */\n      pop\n      pop\n      jump\n        /* \"--CODEGEN--\":2880:3146   */\n    tag_66:\n      0x00\n        /* \"--CODEGEN--\":3026:3121   */\n      tag_139\n        /* \"--CODEGEN--\":3117:3120   */\n      dup3\n        /* \"--CODEGEN--\":3108:3114   */\n      dup5\n        /* \"--CODEGEN--\":3026:3121   */\n      jump(tag_128)\n    tag_139:\n        /* \"--CODEGEN--\":3019:3121   */\n      swap2\n      pop\n        /* \"--CODEGEN--\":3138:3141   */\n      dup2\n        /* \"--CODEGEN--\":3131:3141   */\n      swap1\n      pop\n        /* \"--CODEGEN--\":3007:3146   */\n      swap3\n      swap2\n      pop\n      pop\n      jump\n        /* \"--CODEGEN--\":3153:3366   */\n    tag_28:\n      0x00\n        /* \"--CODEGEN--\":3271:3273   */\n      0x20\n        /* \"--CODEGEN--\":3260:3269   */\n      dup3\n        /* \"--CODEGEN--\":3256:3274   */\n      add\n        /* \"--CODEGEN--\":3248:3274   */\n      swap1\n      pop\n        /* \"--CODEGEN--\":3285:3356   */\n      tag_141\n        /* \"--CODEGEN--\":3353:3354   */\n      0x00\n        /* \"--CODEGEN--\":3342:3351   */\n      dup4\n        /* \"--CODEGEN--\":3338:3355   */\n      add\n        /* \"--CODEGEN--\":3329:3335   */\n      dup5\n        /* \"--CODEGEN--\":3285:3356   */\n      jump(tag_110)\n    tag_141:\n        /* \"--CODEGEN--\":3242:3366   */\n      swap3\n      swap2\n      pop\n      pop\n      jump\n        /* \"--CODEGEN--\":3373:3586   */\n    tag_16:\n      0x00\n        /* \"--CODEGEN--\":3491:3493   */\n      0x20\n        /* \"--CODEGEN--\":3480:3489   */\n      dup3\n        /* \"--CODEGEN--\":3476:3494   */\n      add\n        /* \"--CODEGEN--\":3468:3494   */\n      swap1\n      pop\n        /* \"--CODEGEN--\":3505:3576   */\n      tag_143\n        /* \"--CODEGEN--\":3573:3574   */\n      0x00\n        /* \"--CODEGEN--\":3562:3571   */\n      dup4\n        /* \"--CODEGEN--\":3558:3575   */\n      add\n        /* \"--CODEGEN--\":3549:3555   */\n      dup5\n        /* \"--CODEGEN--\":3505:3576   */\n      jump(tag_114)\n    tag_143:\n        /* \"--CODEGEN--\":3462:3586   */\n      swap3\n      swap2\n      pop\n      pop\n      jump\n        /* \"--CODEGEN--\":3593:4228   */\n    tag_33:\n      0x00\n        /* \"--CODEGEN--\":3815:3818   */\n      0x80\n        /* \"--CODEGEN--\":3804:3813   */\n      dup3\n        /* \"--CODEGEN--\":3800:3819   */\n      add\n        /* \"--CODEGEN--\":3792:3819   */\n      swap1\n      pop\n        /* \"--CODEGEN--\":3830:3901   */\n      tag_145\n        /* \"--CODEGEN--\":3898:3899   */\n      0x00\n        /* \"--CODEGEN--\":3887:3896   */\n      dup4\n        /* \"--CODEGEN--\":3883:3900   */\n      add\n        /* \"--CODEGEN--\":3874:3880   */\n      dup8\n        /* \"--CODEGEN--\":3830:3901   */\n      jump(tag_134)\n    tag_145:\n        /* \"--CODEGEN--\":3949:3958   */\n      dup2\n        /* \"--CODEGEN--\":3943:3947   */\n      dup2\n        /* \"--CODEGEN--\":3939:3959   */\n      sub\n        /* \"--CODEGEN--\":3934:3936   */\n      0x20\n        /* \"--CODEGEN--\":3923:3932   */\n      dup4\n        /* \"--CODEGEN--\":3919:3937   */\n      add\n        /* \"--CODEGEN--\":3912:3960   */\n      mstore\n        /* \"--CODEGEN--\":3974:4052   */\n      tag_146\n        /* \"--CODEGEN--\":4047:4051   */\n      dup2\n        /* \"--CODEGEN--\":4038:4044   */\n      dup7\n        /* \"--CODEGEN--\":3974:4052   */\n      jump(tag_118)\n    tag_146:\n        /* \"--CODEGEN--\":3966:4052   */\n      swap1\n      pop\n        /* \"--CODEGEN--\":4063:4135   */\n      tag_147\n        /* \"--CODEGEN--\":4131:4133   */\n      0x40\n        /* \"--CODEGEN--\":4120:4129   */\n      dup4\n        /* \"--CODEGEN--\":4116:4134   */\n      add\n        /* \"--CODEGEN--\":4107:4113   */\n      dup6\n        /* \"--CODEGEN--\":4063:4135   */\n      jump(tag_110)\n    tag_147:\n        /* \"--CODEGEN--\":4146:4218   */\n      tag_148\n        /* \"--CODEGEN--\":4214:4216   */\n      0x60\n        /* \"--CODEGEN--\":4203:4212   */\n      dup4\n        /* \"--CODEGEN--\":4199:4217   */\n      add\n        /* \"--CODEGEN--\":4190:4196   */\n      dup5\n        /* \"--CODEGEN--\":4146:4218   */\n      jump(tag_134)\n    tag_148:\n        /* \"--CODEGEN--\":3786:4228   */\n      swap6\n      swap5\n      pop\n      pop\n      pop\n      pop\n      pop\n      jump\n        /* \"--CODEGEN--\":4235:4846   */\n    tag_47:\n      0x00\n        /* \"--CODEGEN--\":4449:4451   */\n      0x60\n        /* \"--CODEGEN--\":4438:4447   */\n      dup3\n        /* \"--CODEGEN--\":4434:4452   */\n      add\n        /* \"--CODEGEN--\":4426:4452   */\n      swap1\n      pop\n        /* \"--CODEGEN--\":4463:4534   */\n      tag_150\n        /* \"--CODEGEN--\":4531:4532   */\n      0x00\n        /* \"--CODEGEN--\":4520:4529   */\n      dup4\n        /* \"--CODEGEN--\":4516:4533   */\n      add\n        /* \"--CODEGEN--\":4507:4513   */\n      dup7\n        /* \"--CODEGEN--\":4463:4534   */\n      jump(tag_134)\n    tag_150:\n        /* \"--CODEGEN--\":4582:4591   */\n      dup2\n        /* \"--CODEGEN--\":4576:4580   */\n      dup2\n        /* \"--CODEGEN--\":4572:4592   */\n      sub\n        /* \"--CODEGEN--\":4567:4569   */\n      0x20\n        /* \"--CODEGEN--\":4556:4565   */\n      dup4\n        /* \"--CODEGEN--\":4552:4570   */\n      add\n        /* \"--CODEGEN--\":4545:4593   */\n      mstore\n        /* \"--CODEGEN--\":4607:4685   */\n      tag_151\n        /* \"--CODEGEN--\":4680:4684   */\n      dup2\n        /* \"--CODEGEN--\":4671:4677   */\n      dup6\n        /* \"--CODEGEN--\":4607:4685   */\n      jump(tag_118)\n    tag_151:\n        /* \"--CODEGEN--\":4599:4685   */\n      swap1\n      pop\n        /* \"--CODEGEN--\":4733:4742   */\n      dup2\n        /* \"--CODEGEN--\":4727:4731   */\n      dup2\n        /* \"--CODEGEN--\":4723:4743   */\n      sub\n        /* \"--CODEGEN--\":4718:4720   */\n      0x40\n        /* \"--CODEGEN--\":4707:4716   */\n      dup4\n        /* \"--CODEGEN--\":4703:4721   */\n      add\n        /* \"--CODEGEN--\":4696:4744   */\n      mstore\n        /* \"--CODEGEN--\":4758:4836   */\n      tag_152\n        /* \"--CODEGEN--\":4831:4835   */\n      dup2\n        /* \"--CODEGEN--\":4822:4828   */\n      dup5\n        /* \"--CODEGEN--\":4758:4836   */\n      jump(tag_118)\n    tag_152:\n        /* \"--CODEGEN--\":4750:4836   */\n      swap1\n      pop\n        /* \"--CODEGEN--\":4420:4846   */\n      swap5\n      swap4\n      pop\n      pop\n      pop\n      pop\n      jump\n        /* \"--CODEGEN--\":4853:5109   */\n    tag_89:\n      0x00\n        /* \"--CODEGEN--\":4915:4917   */\n      0x40\n        /* \"--CODEGEN--\":4909:4918   */\n      mload\n        /* \"--CODEGEN--\":4899:4918   */\n      swap1\n      pop\n        /* \"--CODEGEN--\":4953:4957   */\n      dup2\n        /* \"--CODEGEN--\":4945:4951   */\n      dup2\n        /* \"--CODEGEN--\":4941:4958   */\n      add\n        /* \"--CODEGEN--\":5052:5058   */\n      dup2\n        /* \"--CODEGEN--\":5040:5050   */\n      dup2\n        /* \"--CODEGEN--\":5037:5059   */\n      lt\n        /* \"--CODEGEN--\":5016:5034   */\n      0xffffffffffffffff\n        /* \"--CODEGEN--\":5004:5014   */\n      dup3\n        /* \"--CODEGEN--\":5001:5035   */\n      gt\n        /* \"--CODEGEN--\":4998:5060   */\n      or\n        /* \"--CODEGEN--\":4995:4997   */\n      iszero\n      tag_154\n      jumpi\n        /* \"--CODEGEN--\":5073:5074   */\n      0x00\n        /* \"--CODEGEN--\":5070:5071   */\n      dup1\n        /* \"--CODEGEN--\":5063:5075   */\n      revert\n        /* \"--CODEGEN--\":4995:4997   */\n    tag_154:\n        /* \"--CODEGEN--\":5093:5103   */\n      dup1\n        /* \"--CODEGEN--\":5089:5091   */\n      0x40\n        /* \"--CODEGEN--\":5082:5104   */\n      mstore\n        /* \"--CODEGEN--\":4893:5109   */\n      pop\n      swap2\n      swap1\n      pop\n      jump\n        /* \"--CODEGEN--\":5116:5438   */\n    tag_88:\n      0x00\n        /* \"--CODEGEN--\":5260:5278   */\n      0xffffffffffffffff\n        /* \"--CODEGEN--\":5252:5258   */\n      dup3\n        /* \"--CODEGEN--\":5249:5279   */\n      gt\n        /* \"--CODEGEN--\":5246:5248   */\n      iszero\n      tag_156\n      jumpi\n        /* \"--CODEGEN--\":5292:5293   */\n      0x00\n        /* \"--CODEGEN--\":5289:5290   */\n      dup1\n        /* \"--CODEGEN--\":5282:5294   */\n      revert\n        /* \"--CODEGEN--\":5246:5248   */\n    tag_156:\n        /* \"--CODEGEN--\":5359:5363   */\n      0x1f\n        /* \"--CODEGEN--\":5355:5364   */\n      not\n        /* \"--CODEGEN--\":5348:5352   */\n      0x1f\n        /* \"--CODEGEN--\":5340:5346   */\n      dup4\n        /* \"--CODEGEN--\":5336:5353   */\n      add\n        /* \"--CODEGEN--\":5332:5365   */\n      and\n        /* \"--CODEGEN--\":5324:5365   */\n      swap1\n      pop\n        /* \"--CODEGEN--\":5423:5427   */\n      0x20\n        /* \"--CODEGEN--\":5417:5421   */\n      dup2\n        /* \"--CODEGEN--\":5413:5428   */\n      add\n        /* \"--CODEGEN--\":5405:5428   */\n      swap1\n      pop\n        /* \"--CODEGEN--\":5183:5438   */\n      swap2\n      swap1\n      pop\n      jump\n        /* \"--CODEGEN--\":5445:5567   */\n    tag_121:\n      0x00\n        /* \"--CODEGEN--\":5539:5544   */\n      dup2\n        /* \"--CODEGEN--\":5533:5545   */\n      mload\n        /* \"--CODEGEN--\":5523:5545   */\n      swap1\n      pop\n        /* \"--CODEGEN--\":5504:5567   */\n      swap2\n      swap1\n      pop\n      jump\n        /* \"--CODEGEN--\":5575:5738   */\n    tag_123:\n      0x00\n        /* \"--CODEGEN--\":5690:5696   */\n      dup3\n        /* \"--CODEGEN--\":5685:5688   */\n      dup3\n        /* \"--CODEGEN--\":5678:5697   */\n      mstore\n        /* \"--CODEGEN--\":5727:5731   */\n      0x20\n        /* \"--CODEGEN--\":5722:5725   */\n      dup3\n        /* \"--CODEGEN--\":5718:5732   */\n      add\n        /* \"--CODEGEN--\":5703:5732   */\n      swap1\n      pop\n        /* \"--CODEGEN--\":5671:5738   */\n      swap3\n      swap2\n      pop\n      pop\n      jump\n        /* \"--CODEGEN--\":5747:5892   */\n    tag_132:\n      0x00\n        /* \"--CODEGEN--\":5883:5886   */\n      dup2\n        /* \"--CODEGEN--\":5868:5886   */\n      swap1\n      pop\n        /* \"--CODEGEN--\":5861:5892   */\n      swap3\n      swap2\n      pop\n      pop\n      jump\n        /* \"--CODEGEN--\":5900:5991   */\n    tag_113:\n      0x00\n        /* \"--CODEGEN--\":5962:5986   */\n      tag_161\n        /* \"--CODEGEN--\":5980:5985   */\n      dup3\n        /* \"--CODEGEN--\":5962:5986   */\n      jump(tag_162)\n    tag_161:\n        /* \"--CODEGEN--\":5951:5986   */\n      swap1\n      pop\n        /* \"--CODEGEN--\":5945:5991   */\n      swap2\n      swap1\n      pop\n      jump\n        /* \"--CODEGEN--\":5998:6070   */\n    tag_117:\n      0x00\n        /* \"--CODEGEN--\":6060:6065   */\n      dup2\n        /* \"--CODEGEN--\":6049:6065   */\n      swap1\n      pop\n        /* \"--CODEGEN--\":6043:6070   */\n      swap2\n      swap1\n      pop\n      jump\n        /* \"--CODEGEN--\":6077:6198   */\n    tag_162:\n      0x00\n        /* \"--CODEGEN--\":6150:6192   */\n      0xffffffffffffffffffffffffffffffffffffffff\n        /* \"--CODEGEN--\":6143:6148   */\n      dup3\n        /* \"--CODEGEN--\":6139:6193   */\n      and\n        /* \"--CODEGEN--\":6128:6193   */\n      swap1\n      pop\n        /* \"--CODEGEN--\":6122:6198   */\n      swap2\n      swap1\n      pop\n      jump\n        /* \"--CODEGEN--\":6205:6277   */\n    tag_137:\n      0x00\n        /* \"--CODEGEN--\":6267:6272   */\n      dup2\n        /* \"--CODEGEN--\":6256:6272   */\n      swap1\n      pop\n        /* \"--CODEGEN--\":6250:6277   */\n      swap2\n      swap1\n      pop\n      jump\n        /* \"--CODEGEN--\":6285:6430   */\n    tag_92:\n        /* \"--CODEGEN--\":6366:6372   */\n      dup3\n        /* \"--CODEGEN--\":6361:6364   */\n      dup2\n        /* \"--CODEGEN--\":6356:6359   */\n      dup4\n        /* \"--CODEGEN--\":6343:6373   */\n      calldatacopy\n        /* \"--CODEGEN--\":6422:6423   */\n      0x00\n        /* \"--CODEGEN--\":6413:6419   */\n      dup4\n        /* \"--CODEGEN--\":6408:6411   */\n      dup4\n        /* \"--CODEGEN--\":6404:6420   */\n      add\n        /* \"--CODEGEN--\":6397:6424   */\n      mstore\n        /* \"--CODEGEN--\":6336:6430   */\n      pop\n      pop\n      pop\n      jump\n        /* \"--CODEGEN--\":6439:6707   */\n    tag_125:\n        /* \"--CODEGEN--\":6504:6505   */\n      0x00\n        /* \"--CODEGEN--\":6511:6612   */\n    tag_168:\n        /* \"--CODEGEN--\":6525:6531   */\n      dup4\n        /* \"--CODEGEN--\":6522:6523   */\n      dup2\n        /* \"--CODEGEN--\":6519:6532   */\n      lt\n        /* \"--CODEGEN--\":6511:6612   */\n      iszero\n      tag_170\n      jumpi\n        /* \"--CODEGEN--\":6601:6602   */\n      dup1\n        /* \"--CODEGEN--\":6596:6599   */\n      dup3\n        /* \"--CODEGEN--\":6592:6603   */\n      add\n        /* \"--CODEGEN--\":6586:6604   */\n      mload\n        /* \"--CODEGEN--\":6582:6583   */\n      dup2\n        /* \"--CODEGEN--\":6577:6580   */\n      dup5\n        /* \"--CODEGEN--\":6573:6584   */\n      add\n        /* \"--CODEGEN--\":6566:6605   */\n      mstore\n        /* \"--CODEGEN--\":6547:6549   */\n      0x20\n        /* \"--CODEGEN--\":6544:6545   */\n      dup2\n        /* \"--CODEGEN--\":6540:6550   */\n      add\n        /* \"--CODEGEN--\":6535:6550   */\n      swap1\n      pop\n        /* \"--CODEGEN--\":6511:6612   */\n      jump(tag_168)\n    tag_170:\n        /* \"--CODEGEN--\":6627:6633   */\n      dup4\n        /* \"--CODEGEN--\":6624:6625   */\n      dup2\n        /* \"--CODEGEN--\":6621:6634   */\n      gt\n        /* \"--CODEGEN--\":6618:6620   */\n      iszero\n      tag_171\n      jumpi\n        /* \"--CODEGEN--\":6692:6693   */\n      0x00\n        /* \"--CODEGEN--\":6683:6689   */\n      dup5\n        /* \"--CODEGEN--\":6678:6681   */\n      dup5\n        /* \"--CODEGEN--\":6674:6690   */\n      add\n        /* \"--CODEGEN--\":6667:6694   */\n      mstore\n        /* \"--CODEGEN--\":6618:6620   */\n    tag_171:\n        /* \"--CODEGEN--\":6488:6707   */\n      pop\n      pop\n      pop\n      pop\n      jump\n        /* \"--CODEGEN--\":6715:6812   */\n    tag_127:\n      0x00\n        /* \"--CODEGEN--\":6803:6805   */\n      0x1f\n        /* \"--CODEGEN--\":6799:6806   */\n      not\n        /* \"--CODEGEN--\":6794:6796   */\n      0x1f\n        /* \"--CODEGEN--\":6787:6792   */\n      dup4\n        /* \"--CODEGEN--\":6783:6797   */\n      add\n        /* \"--CODEGEN--\":6779:6807   */\n      and\n        /* \"--CODEGEN--\":6769:6807   */\n      swap1\n      pop\n        /* \"--CODEGEN--\":6763:6812   */\n      swap2\n      swap1\n      pop\n      jump\n        /* \"--CODEGEN--\":6820:6937   */\n    tag_96:\n        /* \"--CODEGEN--\":6889:6913   */\n      tag_174\n        /* \"--CODEGEN--\":6907:6912   */\n      dup2\n        /* \"--CODEGEN--\":6889:6913   */\n      jump(tag_137)\n    tag_174:\n        /* \"--CODEGEN--\":6882:6887   */\n      dup2\n        /* \"--CODEGEN--\":6879:6914   */\n      eq\n        /* \"--CODEGEN--\":6869:6871   */\n      tag_175\n      jumpi\n        /* \"--CODEGEN--\":6928:6929   */\n      0x00\n        /* \"--CODEGEN--\":6925:6926   */\n      dup1\n        /* \"--CODEGEN--\":6918:6930   */\n      revert\n        /* \"--CODEGEN--\":6869:6871   */\n    tag_175:\n        /* \"--CODEGEN--\":6863:6937   */\n      pop\n      jump\n\n    auxdata: 0xa264697066735822122009b1f7791d2e5fca6f32ad7ecfdfc60e8b4d6ba93cfaa5d43def729e544586a664736f6c63430006050033\n}\n",
				"bytecode": {
					"linkReferences": {},
					"object": "608060405234801561001057600080fd5b50610b07806100206000396000f3fe608060405234801561001057600080fd5b50600436106100935760003560e01c806369ddcade1161006657806369ddcade1461010c5780639e26bc4f1461013f578063a7469ee31461015b578063b4f5747314610177578063c74efaef1461019557610093565b806309bd5a601461009857806333c83dbd146100b657806342d73314146100d2578063547cbcad146100dc575b600080fd5b6100a06101b5565b6040516100ad91906108f5565b60405180910390f35b6100d060048036038101906100cb919061075b565b6101bb565b005b6100da610258565b005b6100f660048036038101906100f1919061079c565b6102bd565b60405161010391906108da565b60405180910390f35b6101266004803603810190610121919061079c565b6102f9565b6040516101369493929190610910565b60405180910390f35b610159600480360381019061015491906107c5565b6103ee565b005b6101756004803603810190610170919061075b565b6104cf565b005b61017f6104ff565b60405161018c91906108f5565b60405180910390f35b61019d610505565b6040516101ac9392919061095c565b60405180910390f35b60015481565b6040518060600160405280600181526020016040518060400160405280600b81526020017f48616d6275726775657361000000000000000000000000000000000000000000815250815260200182815250600260008201518160000155602082015181600101908051906020019061023492919061064d565b50604082015181600201908051906020019061025192919061064d565b5090505050565b6000339080600181540180825580915050600190039060005260206000200160009091909190916101000a81548173ffffffffffffffffffffffffffffffffffffffff021916908373ffffffffffffffffffffffffffffffffffffffff160217905550565b600081815481106102ca57fe5b906000526020600020016000915054906101000a900473ffffffffffffffffffffffffffffffffffffffff1681565b6006818154811061030657fe5b9060005260206000209060040201600091509050806000015490806001018054600181600116156101000203166002900480601f0160208091040260200160405190810160405280929190818152602001828054600181600116156101000203166002900480156103b85780601f1061038d576101008083540402835291602001916103b8565b820191906000526020600020905b81548152906001019060200180831161039b57829003601f168201915b5050505050908060020160009054906101000a900473ffffffffffffffffffffffffffffffffffffffff16908060030154905084565b600660405180608001604052808581526020018481526020013373ffffffffffffffffffffffffffffffffffffffff16815260200183815250908060018154018082558091505060019003906000526020600020906004020160009091909190915060008201518160000155602082015181600101908051906020019061047692919061064d565b5060408201518160020160006101000a81548173ffffffffffffffffffffffffffffffffffffffff021916908373ffffffffffffffffffffffffffffffffffffffff160217905550606082015181600301555050505050565b806040516020016104e091906108c3565b6040516020818303038152906040528051906020012060018190555050565b60055481565b6002806000015490806001018054600181600116156101000203166002900480601f0160208091040260200160405190810160405280929190818152602001828054600181600116156101000203166002900480156105a55780601f1061057a576101008083540402835291602001916105a5565b820191906000526020600020905b81548152906001019060200180831161058857829003601f168201915b505050505090806002018054600181600116156101000203166002900480601f0160208091040260200160405190810160405280929190818152602001828054600181600116156101000203166002900480156106435780601f1061061857610100808354040283529160200191610643565b820191906000526020600020905b81548152906001019060200180831161062657829003601f168201915b5050505050905083565b828054600181600116156101000203166002900490600052602060002090601f016020900481019282601f1061068e57805160ff19168380011785556106bc565b828001600101855582156106bc579182015b828111156106bb5782518255916020019190600101906106a0565b5b5090506106c991906106cd565b5090565b6106ef91905b808211156106eb5760008160009055506001016106d3565b5090565b90565b600082601f83011261070357600080fd5b8135610716610711826109ce565b6109a1565b9150808252602083016020830185838301111561073257600080fd5b61073d838284610a67565b50505092915050565b60008135905061075581610aba565b92915050565b60006020828403121561076d57600080fd5b600082013567ffffffffffffffff81111561078757600080fd5b610793848285016106f2565b91505092915050565b6000602082840312156107ae57600080fd5b60006107bc84828501610746565b91505092915050565b6000806000606084860312156107da57600080fd5b60006107e886828701610746565b935050602084013567ffffffffffffffff81111561080557600080fd5b610811868287016106f2565b925050604061082286828701610746565b9150509250925092565b61083581610a21565b82525050565b61084481610a33565b82525050565b6000610855826109fa565b61085f8185610a05565b935061086f818560208601610a76565b61087881610aa9565b840191505092915050565b600061088e826109fa565b6108988185610a16565b93506108a8818560208601610a76565b80840191505092915050565b6108bd81610a5d565b82525050565b60006108cf8284610883565b915081905092915050565b60006020820190506108ef600083018461082c565b92915050565b600060208201905061090a600083018461083b565b92915050565b600060808201905061092560008301876108b4565b8181036020830152610937818661084a565b9050610946604083018561082c565b61095360608301846108b4565b95945050505050565b600060608201905061097160008301866108b4565b8181036020830152610983818561084a565b90508181036040830152610997818461084a565b9050949350505050565b6000604051905081810181811067ffffffffffffffff821117156109c457600080fd5b8060405250919050565b600067ffffffffffffffff8211156109e557600080fd5b601f19601f8301169050602081019050919050565b600081519050919050565b600082825260208201905092915050565b600081905092915050565b6000610a2c82610a3d565b9050919050565b6000819050919050565b600073ffffffffffffffffffffffffffffffffffffffff82169050919050565b6000819050919050565b82818337600083830152505050565b60005b83811015610a94578082015181840152602081019050610a79565b83811115610aa3576000848401525b50505050565b6000601f19601f8301169050919050565b610ac381610a5d565b8114610ace57600080fd5b5056fea264697066735822122009b1f7791d2e5fca6f32ad7ecfdfc60e8b4d6ba93cfaa5d43def729e544586a664736f6c63430006050033",
					"opcodes": "PUSH1 0x80 PUSH1 0x40 MSTORE CALLVALUE DUP1 ISZERO PUSH2 0x10 JUMPI PUSH1 0x0 DUP1 REVERT JUMPDEST POP PUSH2 0xB07 DUP1 PUSH2 0x20 PUSH1 0x0 CODECOPY PUSH1 0x0 RETURN INVALID PUSH1 0x80 PUSH1 0x40 MSTORE CALLVALUE DUP1 ISZERO PUSH2 0x10 JUMPI PUSH1 0x0 DUP1 REVERT JUMPDEST POP PUSH1 0x4 CALLDATASIZE LT PUSH2 0x93 JUMPI PUSH1 0x0 CALLDATALOAD PUSH1 0xE0 SHR DUP1 PUSH4 0x69DDCADE GT PUSH2 0x66 JUMPI DUP1 PUSH4 0x69DDCADE EQ PUSH2 0x10C JUMPI DUP1 PUSH4 0x9E26BC4F EQ PUSH2 0x13F JUMPI DUP1 PUSH4 0xA7469EE3 EQ PUSH2 0x15B JUMPI DUP1 PUSH4 0xB4F57473 EQ PUSH2 0x177 JUMPI DUP1 PUSH4 0xC74EFAEF EQ PUSH2 0x195 JUMPI PUSH2 0x93 JUMP JUMPDEST DUP1 PUSH4 0x9BD5A60 EQ PUSH2 0x98 JUMPI DUP1 PUSH4 0x33C83DBD EQ PUSH2 0xB6 JUMPI DUP1 PUSH4 0x42D73314 EQ PUSH2 0xD2 JUMPI DUP1 PUSH4 0x547CBCAD EQ PUSH2 0xDC JUMPI JUMPDEST PUSH1 0x0 DUP1 REVERT JUMPDEST PUSH2 0xA0 PUSH2 0x1B5 JUMP JUMPDEST PUSH1 0x40 MLOAD PUSH2 0xAD SWAP2 SWAP1 PUSH2 0x8F5 JUMP JUMPDEST PUSH1 0x40 MLOAD DUP1 SWAP2 SUB SWAP1 RETURN JUMPDEST PUSH2 0xD0 PUSH1 0x4 DUP1 CALLDATASIZE SUB DUP2 ADD SWAP1 PUSH2 0xCB SWAP2 SWAP1 PUSH2 0x75B JUMP JUMPDEST PUSH2 0x1BB JUMP JUMPDEST STOP JUMPDEST PUSH2 0xDA PUSH2 0x258 JUMP JUMPDEST STOP JUMPDEST PUSH2 0xF6 PUSH1 0x4 DUP1 CALLDATASIZE SUB DUP2 ADD SWAP1 PUSH2 0xF1 SWAP2 SWAP1 PUSH2 0x79C JUMP JUMPDEST PUSH2 0x2BD JUMP JUMPDEST PUSH1 0x40 MLOAD PUSH2 0x103 SWAP2 SWAP1 PUSH2 0x8DA JUMP JUMPDEST PUSH1 0x40 MLOAD DUP1 SWAP2 SUB SWAP1 RETURN JUMPDEST PUSH2 0x126 PUSH1 0x4 DUP1 CALLDATASIZE SUB DUP2 ADD SWAP1 PUSH2 0x121 SWAP2 SWAP1 PUSH2 0x79C JUMP JUMPDEST PUSH2 0x2F9 JUMP JUMPDEST PUSH1 0x40 MLOAD PUSH2 0x136 SWAP5 SWAP4 SWAP3 SWAP2 SWAP1 PUSH2 0x910 JUMP JUMPDEST PUSH1 0x40 MLOAD DUP1 SWAP2 SUB SWAP1 RETURN JUMPDEST PUSH2 0x159 PUSH1 0x4 DUP1 CALLDATASIZE SUB DUP2 ADD SWAP1 PUSH2 0x154 SWAP2 SWAP1 PUSH2 0x7C5 JUMP JUMPDEST PUSH2 0x3EE JUMP JUMPDEST STOP JUMPDEST PUSH2 0x175 PUSH1 0x4 DUP1 CALLDATASIZE SUB DUP2 ADD SWAP1 PUSH2 0x170 SWAP2 SWAP1 PUSH2 0x75B JUMP JUMPDEST PUSH2 0x4CF JUMP JUMPDEST STOP JUMPDEST PUSH2 0x17F PUSH2 0x4FF JUMP JUMPDEST PUSH1 0x40 MLOAD PUSH2 0x18C SWAP2 SWAP1 PUSH2 0x8F5 JUMP JUMPDEST PUSH1 0x40 MLOAD DUP1 SWAP2 SUB SWAP1 RETURN JUMPDEST PUSH2 0x19D PUSH2 0x505 JUMP JUMPDEST PUSH1 0x40 MLOAD PUSH2 0x1AC SWAP4 SWAP3 SWAP2 SWAP1 PUSH2 0x95C JUMP JUMPDEST PUSH1 0x40 MLOAD DUP1 SWAP2 SUB SWAP1 RETURN JUMPDEST PUSH1 0x1 SLOAD DUP2 JUMP JUMPDEST PUSH1 0x40 MLOAD DUP1 PUSH1 0x60 ADD PUSH1 0x40 MSTORE DUP1 PUSH1 0x1 DUP2 MSTORE PUSH1 0x20 ADD PUSH1 0x40 MLOAD DUP1 PUSH1 0x40 ADD PUSH1 0x40 MSTORE DUP1 PUSH1 0xB DUP2 MSTORE PUSH1 0x20 ADD PUSH32 0x48616D6275726775657361000000000000000000000000000000000000000000 DUP2 MSTORE POP DUP2 MSTORE PUSH1 0x20 ADD DUP3 DUP2 MSTORE POP PUSH1 0x2 PUSH1 0x0 DUP3 ADD MLOAD DUP2 PUSH1 0x0 ADD SSTORE PUSH1 0x20 DUP3 ADD MLOAD DUP2 PUSH1 0x1 ADD SWAP1 DUP1 MLOAD SWAP1 PUSH1 0x20 ADD SWAP1 PUSH2 0x234 SWAP3 SWAP2 SWAP1 PUSH2 0x64D JUMP JUMPDEST POP PUSH1 0x40 DUP3 ADD MLOAD DUP2 PUSH1 0x2 ADD SWAP1 DUP1 MLOAD SWAP1 PUSH1 0x20 ADD SWAP1 PUSH2 0x251 SWAP3 SWAP2 SWAP1 PUSH2 0x64D JUMP JUMPDEST POP SWAP1 POP POP POP JUMP JUMPDEST PUSH1 0x0 CALLER SWAP1 DUP1 PUSH1 0x1 DUP2 SLOAD ADD DUP1 DUP3 SSTORE DUP1 SWAP2 POP POP PUSH1 0x1 SWAP1 SUB SWAP1 PUSH1 0x0 MSTORE PUSH1 0x20 PUSH1 0x0 KECCAK256 ADD PUSH1 0x0 SWAP1 SWAP2 SWAP1 SWAP2 SWAP1 SWAP2 PUSH2 0x100 EXP DUP2 SLOAD DUP2 PUSH20 0xFFFFFFFFFFFFFFFFFFFFFFFFFFFFFFFFFFFFFFFF MUL NOT AND SWAP1 DUP4 PUSH20 0xFFFFFFFFFFFFFFFFFFFFFFFFFFFFFFFFFFFFFFFF AND MUL OR SWAP1 SSTORE POP JUMP JUMPDEST PUSH1 0x0 DUP2 DUP2 SLOAD DUP2 LT PUSH2 0x2CA JUMPI INVALID JUMPDEST SWAP1 PUSH1 0x0 MSTORE PUSH1 0x20 PUSH1 0x0 KECCAK256 ADD PUSH1 0x0 SWAP2 POP SLOAD SWAP1 PUSH2 0x100 EXP SWAP1 DIV PUSH20 0xFFFFFFFFFFFFFFFFFFFFFFFFFFFFFFFFFFFFFFFF AND DUP2 JUMP JUMPDEST PUSH1 0x6 DUP2 DUP2 SLOAD DUP2 LT PUSH2 0x306 JUMPI INVALID JUMPDEST SWAP1 PUSH1 0x0 MSTORE PUSH1 0x20 PUSH1 0x0 KECCAK256 SWAP1 PUSH1 0x4 MUL ADD PUSH1 0x0 SWAP2 POP SWAP1 POP DUP1 PUSH1 0x0 ADD SLOAD SWAP1 DUP1 PUSH1 0x1 ADD DUP1 SLOAD PUSH1 0x1 DUP2 PUSH1 0x1 AND ISZERO PUSH2 0x100 MUL SUB AND PUSH1 0x2 SWAP1 DIV DUP1 PUSH1 0x1F ADD PUSH1 0x20 DUP1 SWAP2 DIV MUL PUSH1 0x20 ADD PUSH1 0x40 MLOAD SWAP1 DUP2 ADD PUSH1 0x40 MSTORE DUP1 SWAP3 SWAP2 SWAP1 DUP2 DUP2 MSTORE PUSH1 0x20 ADD DUP3 DUP1 SLOAD PUSH1 0x1 DUP2 PUSH1 0x1 AND ISZERO PUSH2 0x100 MUL SUB AND PUSH1 0x2 SWAP1 DIV DUP1 ISZERO PUSH2 0x3B8 JUMPI DUP1 PUSH1 0x1F LT PUSH2 0x38D JUMPI PUSH2 0x100 DUP1 DUP4 SLOAD DIV MUL DUP4 MSTORE SWAP2 PUSH1 0x20 ADD SWAP2 PUSH2 0x3B8 JUMP JUMPDEST DUP3 ADD SWAP2 SWAP1 PUSH1 0x0 MSTORE PUSH1 0x20 PUSH1 0x0 KECCAK256 SWAP1 JUMPDEST DUP2 SLOAD DUP2 MSTORE SWAP1 PUSH1 0x1 ADD SWAP1 PUSH1 0x20 ADD DUP1 DUP4 GT PUSH2 0x39B JUMPI DUP3 SWAP1 SUB PUSH1 0x1F AND DUP3 ADD SWAP2 JUMPDEST POP POP POP POP POP SWAP1 DUP1 PUSH1 0x2 ADD PUSH1 0x0 SWAP1 SLOAD SWAP1 PUSH2 0x100 EXP SWAP1 DIV PUSH20 0xFFFFFFFFFFFFFFFFFFFFFFFFFFFFFFFFFFFFFFFF AND SWAP1 DUP1 PUSH1 0x3 ADD SLOAD SWAP1 POP DUP5 JUMP JUMPDEST PUSH1 0x6 PUSH1 0x40 MLOAD DUP1 PUSH1 0x80 ADD PUSH1 0x40 MSTORE DUP1 DUP6 DUP2 MSTORE PUSH1 0x20 ADD DUP5 DUP2 MSTORE PUSH1 0x20 ADD CALLER PUSH20 0xFFFFFFFFFFFFFFFFFFFFFFFFFFFFFFFFFFFFFFFF AND DUP2 MSTORE PUSH1 0x20 ADD DUP4 DUP2 MSTORE POP SWAP1 DUP1 PUSH1 0x1 DUP2 SLOAD ADD DUP1 DUP3 SSTORE DUP1 SWAP2 POP POP PUSH1 0x1 SWAP1 SUB SWAP1 PUSH1 0x0 MSTORE PUSH1 0x20 PUSH1 0x0 KECCAK256 SWAP1 PUSH1 0x4 MUL ADD PUSH1 0x0 SWAP1 SWAP2 SWAP1 SWAP2 SWAP1 SWAP2 POP PUSH1 0x0 DUP3 ADD MLOAD DUP2 PUSH1 0x0 ADD SSTORE PUSH1 0x20 DUP3 ADD MLOAD DUP2 PUSH1 0x1 ADD SWAP1 DUP1 MLOAD SWAP1 PUSH1 0x20 ADD SWAP1 PUSH2 0x476 SWAP3 SWAP2 SWAP1 PUSH2 0x64D JUMP JUMPDEST POP PUSH1 0x40 DUP3 ADD MLOAD DUP2 PUSH1 0x2 ADD PUSH1 0x0 PUSH2 0x100 EXP DUP2 SLOAD DUP2 PUSH20 0xFFFFFFFFFFFFFFFFFFFFFFFFFFFFFFFFFFFFFFFF MUL NOT AND SWAP1 DUP4 PUSH20 0xFFFFFFFFFFFFFFFFFFFFFFFFFFFFFFFFFFFFFFFF AND MUL OR SWAP1 SSTORE POP PUSH1 0x60 DUP3 ADD MLOAD DUP2 PUSH1 0x3 ADD SSTORE POP POP POP POP POP JUMP JUMPDEST DUP1 PUSH1 0x40 MLOAD PUSH1 0x20 ADD PUSH2 0x4E0 SWAP2 SWAP1 PUSH2 0x8C3 JUMP JUMPDEST PUSH1 0x40 MLOAD PUSH1 0x20 DUP2 DUP4 SUB SUB DUP2 MSTORE SWAP1 PUSH1 0x40 MSTORE DUP1 MLOAD SWAP1 PUSH1 0x20 ADD KECCAK256 PUSH1 0x1 DUP2 SWAP1 SSTORE POP POP JUMP JUMPDEST PUSH1 0x5 SLOAD DUP2 JUMP JUMPDEST PUSH1 0x2 DUP1 PUSH1 0x0 ADD SLOAD SWAP1 DUP1 PUSH1 0x1 ADD DUP1 SLOAD PUSH1 0x1 DUP2 PUSH1 0x1 AND ISZERO PUSH2 0x100 MUL SUB AND PUSH1 0x2 SWAP1 DIV DUP1 PUSH1 0x1F ADD PUSH1 0x20 DUP1 SWAP2 DIV MUL PUSH1 0x20 ADD PUSH1 0x40 MLOAD SWAP1 DUP2 ADD PUSH1 0x40 MSTORE DUP1 SWAP3 SWAP2 SWAP1 DUP2 DUP2 MSTORE PUSH1 0x20 ADD DUP3 DUP1 SLOAD PUSH1 0x1 DUP2 PUSH1 0x1 AND ISZERO PUSH2 0x100 MUL SUB AND PUSH1 0x2 SWAP1 DIV DUP1 ISZERO PUSH2 0x5A5 JUMPI DUP1 PUSH1 0x1F LT PUSH2 0x57A JUMPI PUSH2 0x100 DUP1 DUP4 SLOAD DIV MUL DUP4 MSTORE SWAP2 PUSH1 0x20 ADD SWAP2 PUSH2 0x5A5 JUMP JUMPDEST DUP3 ADD SWAP2 SWAP1 PUSH1 0x0 MSTORE PUSH1 0x20 PUSH1 0x0 KECCAK256 SWAP1 JUMPDEST DUP2 SLOAD DUP2 MSTORE SWAP1 PUSH1 0x1 ADD SWAP1 PUSH1 0x20 ADD DUP1 DUP4 GT PUSH2 0x588 JUMPI DUP3 SWAP1 SUB PUSH1 0x1F AND DUP3 ADD SWAP2 JUMPDEST POP POP POP POP POP SWAP1 DUP1 PUSH1 0x2 ADD DUP1 SLOAD PUSH1 0x1 DUP2 PUSH1 0x1 AND ISZERO PUSH2 0x100 MUL SUB AND PUSH1 0x2 SWAP1 DIV DUP1 PUSH1 0x1F ADD PUSH1 0x20 DUP1 SWAP2 DIV MUL PUSH1 0x20 ADD PUSH1 0x40 MLOAD SWAP1 DUP2 ADD PUSH1 0x40 MSTORE DUP1 SWAP3 SWAP2 SWAP1 DUP2 DUP2 MSTORE PUSH1 0x20 ADD DUP3 DUP1 SLOAD PUSH1 0x1 DUP2 PUSH1 0x1 AND ISZERO PUSH2 0x100 MUL SUB AND PUSH1 0x2 SWAP1 DIV DUP1 ISZERO PUSH2 0x643 JUMPI DUP1 PUSH1 0x1F LT PUSH2 0x618 JUMPI PUSH2 0x100 DUP1 DUP4 SLOAD DIV MUL DUP4 MSTORE SWAP2 PUSH1 0x20 ADD SWAP2 PUSH2 0x643 JUMP JUMPDEST DUP3 ADD SWAP2 SWAP1 PUSH1 0x0 MSTORE PUSH1 0x20 PUSH1 0x0 KECCAK256 SWAP1 JUMPDEST DUP2 SLOAD DUP2 MSTORE SWAP1 PUSH1 0x1 ADD SWAP1 PUSH1 0x20 ADD DUP1 DUP4 GT PUSH2 0x626 JUMPI DUP3 SWAP1 SUB PUSH1 0x1F AND DUP3 ADD SWAP2 JUMPDEST POP POP POP POP POP SWAP1 POP DUP4 JUMP JUMPDEST DUP3 DUP1 SLOAD PUSH1 0x1 DUP2 PUSH1 0x1 AND ISZERO PUSH2 0x100 MUL SUB AND PUSH1 0x2 SWAP1 DIV SWAP1 PUSH1 0x0 MSTORE PUSH1 0x20 PUSH1 0x0 KECCAK256 SWAP1 PUSH1 0x1F ADD PUSH1 0x20 SWAP1 DIV DUP2 ADD SWAP3 DUP3 PUSH1 0x1F LT PUSH2 0x68E JUMPI DUP1 MLOAD PUSH1 0xFF NOT AND DUP4 DUP1 ADD OR DUP6 SSTORE PUSH2 0x6BC JUMP JUMPDEST DUP3 DUP1 ADD PUSH1 0x1 ADD DUP6 SSTORE DUP3 ISZERO PUSH2 0x6BC JUMPI SWAP2 DUP3 ADD JUMPDEST DUP3 DUP2 GT ISZERO PUSH2 0x6BB JUMPI DUP3 MLOAD DUP3 SSTORE SWAP2 PUSH1 0x20 ADD SWAP2 SWAP1 PUSH1 0x1 ADD SWAP1 PUSH2 0x6A0 JUMP JUMPDEST JUMPDEST POP SWAP1 POP PUSH2 0x6C9 SWAP2 SWAP1 PUSH2 0x6CD JUMP JUMPDEST POP SWAP1 JUMP JUMPDEST PUSH2 0x6EF SWAP2 SWAP1 JUMPDEST DUP1 DUP3 GT ISZERO PUSH2 0x6EB JUMPI PUSH1 0x0 DUP2 PUSH1 0x0 SWAP1 SSTORE POP PUSH1 0x1 ADD PUSH2 0x6D3 JUMP JUMPDEST POP SWAP1 JUMP JUMPDEST SWAP1 JUMP JUMPDEST PUSH1 0x0 DUP3 PUSH1 0x1F DUP4 ADD SLT PUSH2 0x703 JUMPI PUSH1 0x0 DUP1 REVERT JUMPDEST DUP2 CALLDATALOAD PUSH2 0x716 PUSH2 0x711 DUP3 PUSH2 0x9CE JUMP JUMPDEST PUSH2 0x9A1 JUMP JUMPDEST SWAP2 POP DUP1 DUP3 MSTORE PUSH1 0x20 DUP4 ADD PUSH1 0x20 DUP4 ADD DUP6 DUP4 DUP4 ADD GT ISZERO PUSH2 0x732 JUMPI PUSH1 0x0 DUP1 REVERT JUMPDEST PUSH2 0x73D DUP4 DUP3 DUP5 PUSH2 0xA67 JUMP JUMPDEST POP POP POP SWAP3 SWAP2 POP POP JUMP JUMPDEST PUSH1 0x0 DUP2 CALLDATALOAD SWAP1 POP PUSH2 0x755 DUP2 PUSH2 0xABA JUMP JUMPDEST SWAP3 SWAP2 POP POP JUMP JUMPDEST PUSH1 0x0 PUSH1 0x20 DUP3 DUP5 SUB SLT ISZERO PUSH2 0x76D JUMPI PUSH1 0x0 DUP1 REVERT JUMPDEST PUSH1 0x0 DUP3 ADD CALLDATALOAD PUSH8 0xFFFFFFFFFFFFFFFF DUP2 GT ISZERO PUSH2 0x787 JUMPI PUSH1 0x0 DUP1 REVERT JUMPDEST PUSH2 0x793 DUP5 DUP3 DUP6 ADD PUSH2 0x6F2 JUMP JUMPDEST SWAP2 POP POP SWAP3 SWAP2 POP POP JUMP JUMPDEST PUSH1 0x0 PUSH1 0x20 DUP3 DUP5 SUB SLT ISZERO PUSH2 0x7AE JUMPI PUSH1 0x0 DUP1 REVERT JUMPDEST PUSH1 0x0 PUSH2 0x7BC DUP5 DUP3 DUP6 ADD PUSH2 0x746 JUMP JUMPDEST SWAP2 POP POP SWAP3 SWAP2 POP POP JUMP JUMPDEST PUSH1 0x0 DUP1 PUSH1 0x0 PUSH1 0x60 DUP5 DUP7 SUB SLT ISZERO PUSH2 0x7DA JUMPI PUSH1 0x0 DUP1 REVERT JUMPDEST PUSH1 0x0 PUSH2 0x7E8 DUP7 DUP3 DUP8 ADD PUSH2 0x746 JUMP JUMPDEST SWAP4 POP POP PUSH1 0x20 DUP5 ADD CALLDATALOAD PUSH8 0xFFFFFFFFFFFFFFFF DUP2 GT ISZERO PUSH2 0x805 JUMPI PUSH1 0x0 DUP1 REVERT JUMPDEST PUSH2 0x811 DUP7 DUP3 DUP8 ADD PUSH2 0x6F2 JUMP JUMPDEST SWAP3 POP POP PUSH1 0x40 PUSH2 0x822 DUP7 DUP3 DUP8 ADD PUSH2 0x746 JUMP JUMPDEST SWAP2 POP POP SWAP3 POP SWAP3 POP SWAP3 JUMP JUMPDEST PUSH2 0x835 DUP2 PUSH2 0xA21 JUMP JUMPDEST DUP3 MSTORE POP POP JUMP JUMPDEST PUSH2 0x844 DUP2 PUSH2 0xA33 JUMP JUMPDEST DUP3 MSTORE POP POP JUMP JUMPDEST PUSH1 0x0 PUSH2 0x855 DUP3 PUSH2 0x9FA JUMP JUMPDEST PUSH2 0x85F DUP2 DUP6 PUSH2 0xA05 JUMP JUMPDEST SWAP4 POP PUSH2 0x86F DUP2 DUP6 PUSH1 0x20 DUP7 ADD PUSH2 0xA76 JUMP JUMPDEST PUSH2 0x878 DUP2 PUSH2 0xAA9 JUMP JUMPDEST DUP5 ADD SWAP2 POP POP SWAP3 SWAP2 POP POP JUMP JUMPDEST PUSH1 0x0 PUSH2 0x88E DUP3 PUSH2 0x9FA JUMP JUMPDEST PUSH2 0x898 DUP2 DUP6 PUSH2 0xA16 JUMP JUMPDEST SWAP4 POP PUSH2 0x8A8 DUP2 DUP6 PUSH1 0x20 DUP7 ADD PUSH2 0xA76 JUMP JUMPDEST DUP1 DUP5 ADD SWAP2 POP POP SWAP3 SWAP2 POP POP JUMP JUMPDEST PUSH2 0x8BD DUP2 PUSH2 0xA5D JUMP JUMPDEST DUP3 MSTORE POP POP JUMP JUMPDEST PUSH1 0x0 PUSH2 0x8CF DUP3 DUP5 PUSH2 0x883 JUMP JUMPDEST SWAP2 POP DUP2 SWAP1 POP SWAP3 SWAP2 POP POP JUMP JUMPDEST PUSH1 0x0 PUSH1 0x20 DUP3 ADD SWAP1 POP PUSH2 0x8EF PUSH1 0x0 DUP4 ADD DUP5 PUSH2 0x82C JUMP JUMPDEST SWAP3 SWAP2 POP POP JUMP JUMPDEST PUSH1 0x0 PUSH1 0x20 DUP3 ADD SWAP1 POP PUSH2 0x90A PUSH1 0x0 DUP4 ADD DUP5 PUSH2 0x83B JUMP JUMPDEST SWAP3 SWAP2 POP POP JUMP JUMPDEST PUSH1 0x0 PUSH1 0x80 DUP3 ADD SWAP1 POP PUSH2 0x925 PUSH1 0x0 DUP4 ADD DUP8 PUSH2 0x8B4 JUMP JUMPDEST DUP2 DUP2 SUB PUSH1 0x20 DUP4 ADD MSTORE PUSH2 0x937 DUP2 DUP7 PUSH2 0x84A JUMP JUMPDEST SWAP1 POP PUSH2 0x946 PUSH1 0x40 DUP4 ADD DUP6 PUSH2 0x82C JUMP JUMPDEST PUSH2 0x953 PUSH1 0x60 DUP4 ADD DUP5 PUSH2 0x8B4 JUMP JUMPDEST SWAP6 SWAP5 POP POP POP POP POP JUMP JUMPDEST PUSH1 0x0 PUSH1 0x60 DUP3 ADD SWAP1 POP PUSH2 0x971 PUSH1 0x0 DUP4 ADD DUP7 PUSH2 0x8B4 JUMP JUMPDEST DUP2 DUP2 SUB PUSH1 0x20 DUP4 ADD MSTORE PUSH2 0x983 DUP2 DUP6 PUSH2 0x84A JUMP JUMPDEST SWAP1 POP DUP2 DUP2 SUB PUSH1 0x40 DUP4 ADD MSTORE PUSH2 0x997 DUP2 DUP5 PUSH2 0x84A JUMP JUMPDEST SWAP1 POP SWAP5 SWAP4 POP POP POP POP JUMP JUMPDEST PUSH1 0x0 PUSH1 0x40 MLOAD SWAP1 POP DUP2 DUP2 ADD DUP2 DUP2 LT PUSH8 0xFFFFFFFFFFFFFFFF DUP3 GT OR ISZERO PUSH2 0x9C4 JUMPI PUSH1 0x0 DUP1 REVERT JUMPDEST DUP1 PUSH1 0x40 MSTORE POP SWAP2 SWAP1 POP JUMP JUMPDEST PUSH1 0x0 PUSH8 0xFFFFFFFFFFFFFFFF DUP3 GT ISZERO PUSH2 0x9E5 JUMPI PUSH1 0x0 DUP1 REVERT JUMPDEST PUSH1 0x1F NOT PUSH1 0x1F DUP4 ADD AND SWAP1 POP PUSH1 0x20 DUP2 ADD SWAP1 POP SWAP2 SWAP1 POP JUMP JUMPDEST PUSH1 0x0 DUP2 MLOAD SWAP1 POP SWAP2 SWAP1 POP JUMP JUMPDEST PUSH1 0x0 DUP3 DUP3 MSTORE PUSH1 0x20 DUP3 ADD SWAP1 POP SWAP3 SWAP2 POP POP JUMP JUMPDEST PUSH1 0x0 DUP2 SWAP1 POP SWAP3 SWAP2 POP POP JUMP JUMPDEST PUSH1 0x0 PUSH2 0xA2C DUP3 PUSH2 0xA3D JUMP JUMPDEST SWAP1 POP SWAP2 SWAP1 POP JUMP JUMPDEST PUSH1 0x0 DUP2 SWAP1 POP SWAP2 SWAP1 POP JUMP JUMPDEST PUSH1 0x0 PUSH20 0xFFFFFFFFFFFFFFFFFFFFFFFFFFFFFFFFFFFFFFFF DUP3 AND SWAP1 POP SWAP2 SWAP1 POP JUMP JUMPDEST PUSH1 0x0 DUP2 SWAP1 POP SWAP2 SWAP1 POP JUMP JUMPDEST DUP3 DUP2 DUP4 CALLDATACOPY PUSH1 0x0 DUP4 DUP4 ADD MSTORE POP POP POP JUMP JUMPDEST PUSH1 0x0 JUMPDEST DUP4 DUP2 LT ISZERO PUSH2 0xA94 JUMPI DUP1 DUP3 ADD MLOAD DUP2 DUP5 ADD MSTORE PUSH1 0x20 DUP2 ADD SWAP1 POP PUSH2 0xA79 JUMP JUMPDEST DUP4 DUP2 GT ISZERO PUSH2 0xAA3 JUMPI PUSH1 0x0 DUP5 DUP5 ADD MSTORE JUMPDEST POP POP POP POP JUMP JUMPDEST PUSH1 0x0 PUSH1 0x1F NOT PUSH1 0x1F DUP4 ADD AND SWAP1 POP SWAP2 SWAP1 POP JUMP JUMPDEST PUSH2 0xAC3 DUP2 PUSH2 0xA5D JUMP JUMPDEST DUP2 EQ PUSH2 0xACE JUMPI PUSH1 0x0 DUP1 REVERT JUMPDEST POP JUMP INVALID LOG2 PUSH5 0x6970667358 0x22 SLT KECCAK256 MULMOD 0xB1 0xF7 PUSH26 0x1D2E5FCA6F32AD7ECFDFC60E8B4D6BA93CFAA5D43DEF729E5445 DUP7 0xA6 PUSH5 0x736F6C6343 STOP MOD SDIV STOP CALLER "
				},
				"gasEstimates": {
					"creation": {
						"codeDepositCost": "564600",
						"executionCost": "600",
						"totalCost": "565200"
					},
					"external": {
						"alumnos(uint256)": "infinite",
						"calularHash(string)": "infinite",
						"crearHamburguesa(string)": "infinite",
						"direcciones(uint256)": "2423",
						"hamburguesa()": "infinite",
						"hash()": "1130",
						"hash_id_alumno()": "1195",
						"nuevaDireccion()": "41967",
						"nuevoAlumno(uint256,string,uint256)": "infinite"
					},
					"internal": {
						"hashIdAlumno(uint256,string memory,address,uint256)": "infinite"
					}
				},
				"methodIdentifiers": {
					"alumnos(uint256)": "69ddcade",
					"calularHash(string)": "a7469ee3",
					"crearHamburguesa(string)": "33c83dbd",
					"direcciones(uint256)": "547cbcad",
					"hamburguesa()": "c74efaef",
					"hash()": "09bd5a60",
					"hash_id_alumno()": "b4f57473",
					"nuevaDireccion()": "42d73314",
					"nuevoAlumno(uint256,string,uint256)": "9e26bc4f"
				}
			},
			"storageLayout": {
				"storage": [
					{
						"astId": 5,
						"contract": "Funciones/funciones.sol:Funciones",
						"label": "direcciones",
						"offset": 0,
						"slot": "0",
						"type": "t_array(t_address)dyn_storage"
					},
					{
						"astId": 18,
						"contract": "Funciones/funciones.sol:Funciones",
						"label": "hash",
						"offset": 0,
						"slot": "1",
						"type": "t_bytes32"
					},
					{
						"astId": 42,
						"contract": "Funciones/funciones.sol:Funciones",
						"label": "hamburguesa",
						"offset": 0,
						"slot": "2",
						"type": "t_struct(Comida)40_storage"
					},
					{
						"astId": 67,
						"contract": "Funciones/funciones.sol:Funciones",
						"label": "hash_id_alumno",
						"offset": 0,
						"slot": "5",
						"type": "t_bytes32"
					},
					{
						"astId": 70,
						"contract": "Funciones/funciones.sol:Funciones",
						"label": "alumnos",
						"offset": 0,
						"slot": "6",
						"type": "t_array(t_struct(Alumno)65_storage)dyn_storage"
					}
				],
				"types": {
					"t_address": {
						"encoding": "inplace",
						"label": "address",
						"numberOfBytes": "20"
					},
					"t_array(t_address)dyn_storage": {
						"base": "t_address",
						"encoding": "dynamic_array",
						"label": "address[]",
						"numberOfBytes": "32"
					},
					"t_array(t_struct(Alumno)65_storage)dyn_storage": {
						"base": "t_struct(Alumno)65_storage",
						"encoding": "dynamic_array",
						"label": "struct Funciones.Alumno[]",
						"numberOfBytes": "32"
					},
					"t_bytes32": {
						"encoding": "inplace",
						"label": "bytes32",
						"numberOfBytes": "32"
					},
					"t_string_storage": {
						"encoding": "bytes",
						"label": "string",
						"numberOfBytes": "32"
					},
					"t_struct(Alumno)65_storage": {
						"encoding": "inplace",
						"label": "struct Funciones.Alumno",
						"members": [
							{
								"astId": 58,
								"contract": "Funciones/funciones.sol:Funciones",
								"label": "id",
								"offset": 0,
								"slot": "0",
								"type": "t_uint256"
							},
							{
								"astId": 60,
								"contract": "Funciones/funciones.sol:Funciones",
								"label": "nombre",
								"offset": 0,
								"slot": "1",
								"type": "t_string_storage"
							},
							{
								"astId": 62,
								"contract": "Funciones/funciones.sol:Funciones",
								"label": "direccion",
								"offset": 0,
								"slot": "2",
								"type": "t_address"
							},
							{
								"astId": 64,
								"contract": "Funciones/funciones.sol:Funciones",
								"label": "edad",
								"offset": 0,
								"slot": "3",
								"type": "t_uint256"
							}
						],
						"numberOfBytes": "128"
					},
					"t_struct(Comida)40_storage": {
						"encoding": "inplace",
						"label": "struct Funciones.Comida",
						"members": [
							{
								"astId": 35,
								"contract": "Funciones/funciones.sol:Funciones",
								"label": "id",
								"offset": 0,
								"slot": "0",
								"type": "t_uint256"
							},
							{
								"astId": 37,
								"contract": "Funciones/funciones.sol:Funciones",
								"label": "nombre",
								"offset": 0,
								"slot": "1",
								"type": "t_string_storage"
							},
							{
								"astId": 39,
								"contract": "Funciones/funciones.sol:Funciones",
								"label": "ingredientes",
								"offset": 0,
								"slot": "2",
								"type": "t_string_storage"
							}
						],
						"numberOfBytes": "96"
					},
					"t_uint256": {
						"encoding": "inplace",
						"label": "uint256",
						"numberOfBytes": "32"
					}
				}
			},
			"userdoc": {
				"methods": {}
			}
		}
	}
}