{
	"Funciones/causas beneficas.sol": {
		"CausasBeneficas": {
			"abi": [
				{
					"inputs": [
						{
							"internalType": "string",
							"name": "_nombre",
							"type": "string"
						},
						{
							"internalType": "uint256",
							"name": "recaudacion_objetivo",
							"type": "uint256"
						}
					],
					"name": "nuevaCausa",
					"outputs": [],
					"stateMutability": "nonpayable",
					"type": "function"
				}
			],
			"devdoc": {
				"methods": {}
			},
			"evm": {
				"assembly": "    /* \"Funciones/causas beneficas.sol\":63:478  contract CausasBeneficas{\r... */\n  mstore(0x40, 0x80)\n    /* \"Funciones/causas beneficas.sol\":290:291  0 */\n  0x00\n    /* \"Funciones/causas beneficas.sol\":267:291  uint contador_causas = 0 */\n  dup1\n  sstore\n    /* \"Funciones/causas beneficas.sol\":63:478  contract CausasBeneficas{\r... */\n  callvalue\n    /* \"--CODEGEN--\":5:14   */\n  dup1\n    /* \"--CODEGEN--\":2:4   */\n  iszero\n  tag_1\n  jumpi\n    /* \"--CODEGEN--\":27:28   */\n  0x00\n    /* \"--CODEGEN--\":24:25   */\n  dup1\n    /* \"--CODEGEN--\":17:29   */\n  revert\n    /* \"--CODEGEN--\":2:4   */\ntag_1:\n    /* \"Funciones/causas beneficas.sol\":63:478  contract CausasBeneficas{\r... */\n  pop\n  dataSize(sub_0)\n  dup1\n  dataOffset(sub_0)\n  0x00\n  codecopy\n  0x00\n  return\nstop\n\nsub_0: assembly {\n        /* \"Funciones/causas beneficas.sol\":63:478  contract CausasBeneficas{\r... */\n      mstore(0x40, 0x80)\n      callvalue\n        /* \"--CODEGEN--\":5:14   */\n      dup1\n        /* \"--CODEGEN--\":2:4   */\n      iszero\n      tag_1\n      jumpi\n        /* \"--CODEGEN--\":27:28   */\n      0x00\n        /* \"--CODEGEN--\":24:25   */\n      dup1\n        /* \"--CODEGEN--\":17:29   */\n      revert\n        /* \"--CODEGEN--\":2:4   */\n    tag_1:\n        /* \"Funciones/causas beneficas.sol\":63:478  contract CausasBeneficas{\r... */\n      pop\n      jumpi(tag_2, lt(calldatasize, 0x04))\n      shr(0xe0, calldataload(0x00))\n      dup1\n      0x2ca08792\n      eq\n      tag_3\n      jumpi\n    tag_2:\n        /* \"--CODEGEN--\":12:13   */\n      0x00\n        /* \"--CODEGEN--\":9:10   */\n      dup1\n        /* \"--CODEGEN--\":2:14   */\n      revert\n        /* \"Funciones/causas beneficas.sol\":340:471  function nuevaCausa(string memory _nombre, uint recaudacion_objetivo) public {\r... */\n    tag_3:\n      tag_4\n      0x04\n      dup1\n      calldatasize\n      sub\n        /* \"--CODEGEN--\":15:17   */\n      0x40\n        /* \"--CODEGEN--\":10:13   */\n      dup2\n        /* \"--CODEGEN--\":7:18   */\n      lt\n        /* \"--CODEGEN--\":4:6   */\n      iszero\n      tag_5\n      jumpi\n        /* \"--CODEGEN--\":31:32   */\n      0x00\n        /* \"--CODEGEN--\":28:29   */\n      dup1\n        /* \"--CODEGEN--\":21:33   */\n      revert\n        /* \"--CODEGEN--\":4:6   */\n    tag_5:\n        /* \"Funciones/causas beneficas.sol\":340:471  function nuevaCausa(string memory _nombre, uint recaudacion_objetivo) public {\r... */\n      dup2\n      add\n      swap1\n      dup1\n      dup1\n      calldataload\n      swap1\n      0x20\n      add\n      swap1\n        /* \"--CODEGEN--\":27:38   */\n      0x0100000000\n        /* \"--CODEGEN--\":14:25   */\n      dup2\n        /* \"--CODEGEN--\":11:39   */\n      gt\n        /* \"--CODEGEN--\":8:10   */\n      iszero\n      tag_6\n      jumpi\n        /* \"--CODEGEN--\":52:53   */\n      0x00\n        /* \"--CODEGEN--\":49:50   */\n      dup1\n        /* \"--CODEGEN--\":42:54   */\n      revert\n        /* \"--CODEGEN--\":8:10   */\n    tag_6:\n        /* \"Funciones/causas beneficas.sol\":340:471  function nuevaCausa(string memory _nombre, uint recaudacion_objetivo) public {\r... */\n      dup3\n      add\n        /* \"--CODEGEN--\":41:50   */\n      dup4\n        /* \"--CODEGEN--\":34:38   */\n      0x20\n        /* \"--CODEGEN--\":18:32   */\n      dup3\n        /* \"--CODEGEN--\":14:39   */\n      add\n        /* \"--CODEGEN--\":11:51   */\n      gt\n        /* \"--CODEGEN--\":8:10   */\n      iszero\n      tag_7\n      jumpi\n        /* \"--CODEGEN--\":64:65   */\n      0x00\n        /* \"--CODEGEN--\":61:62   */\n      dup1\n        /* \"--CODEGEN--\":54:66   */\n      revert\n        /* \"--CODEGEN--\":8:10   */\n    tag_7:\n        /* \"Funciones/causas beneficas.sol\":340:471  function nuevaCausa(string memory _nombre, uint recaudacion_objetivo) public {\r... */\n      dup1\n      calldataload\n      swap1\n      0x20\n      add\n      swap2\n        /* \"--CODEGEN--\":100:109   */\n      dup5\n        /* \"--CODEGEN--\":95:96   */\n      0x01\n        /* \"--CODEGEN--\":81:93   */\n      dup4\n        /* \"--CODEGEN--\":77:97   */\n      mul\n        /* \"--CODEGEN--\":67:75   */\n      dup5\n        /* \"--CODEGEN--\":63:98   */\n      add\n        /* \"--CODEGEN--\":60:110   */\n      gt\n        /* \"--CODEGEN--\":39:50   */\n      0x0100000000\n        /* \"--CODEGEN--\":25:37   */\n      dup4\n        /* \"--CODEGEN--\":22:51   */\n      gt\n        /* \"--CODEGEN--\":11:118   */\n      or\n        /* \"--CODEGEN--\":8:10   */\n      iszero\n      tag_8\n      jumpi\n        /* \"--CODEGEN--\":131:132   */\n      0x00\n        /* \"--CODEGEN--\":128:129   */\n      dup1\n        /* \"--CODEGEN--\":121:133   */\n      revert\n        /* \"--CODEGEN--\":8:10   */\n    tag_8:\n        /* \"Funciones/causas beneficas.sol\":340:471  function nuevaCausa(string memory _nombre, uint recaudacion_objetivo) public {\r... */\n      swap2\n      swap1\n      dup1\n      dup1\n      0x1f\n      add\n      0x20\n      dup1\n      swap2\n      div\n      mul\n      0x20\n      add\n      mload(0x40)\n      swap1\n      dup2\n      add\n      0x40\n      mstore\n      dup1\n      swap4\n      swap3\n      swap2\n      swap1\n      dup2\n      dup2\n      mstore\n      0x20\n      add\n      dup4\n      dup4\n        /* \"--CODEGEN--\":30:33   */\n      dup1\n        /* \"--CODEGEN--\":22:28   */\n      dup3\n        /* \"--CODEGEN--\":14:20   */\n      dup5\n        /* \"--CODEGEN--\":1:34   */\n      calldatacopy\n        /* \"--CODEGEN--\":99:100   */\n      0x00\n        /* \"--CODEGEN--\":93:96   */\n      dup2\n        /* \"--CODEGEN--\":85:91   */\n      dup5\n        /* \"--CODEGEN--\":81:97   */\n      add\n        /* \"--CODEGEN--\":74:101   */\n      mstore\n        /* \"--CODEGEN--\":137:141   */\n      0x1f\n        /* \"--CODEGEN--\":133:142   */\n      not\n        /* \"--CODEGEN--\":126:130   */\n      0x1f\n        /* \"--CODEGEN--\":121:124   */\n      dup3\n        /* \"--CODEGEN--\":117:131   */\n      add\n        /* \"--CODEGEN--\":113:143   */\n      and\n        /* \"--CODEGEN--\":106:143   */\n      swap1\n      pop\n        /* \"--CODEGEN--\":169:172   */\n      dup1\n        /* \"--CODEGEN--\":161:167   */\n      dup4\n        /* \"--CODEGEN--\":157:173   */\n      add\n        /* \"--CODEGEN--\":147:173   */\n      swap3\n      pop\n        /* \"Funciones/causas beneficas.sol\":340:471  function nuevaCausa(string memory _nombre, uint recaudacion_objetivo) public {\r... */\n      pop\n      pop\n      pop\n      pop\n      pop\n      pop\n      swap2\n      swap3\n      swap2\n      swap3\n      swap1\n      dup1\n      calldataload\n      swap1\n      0x20\n      add\n      swap1\n      swap3\n      swap2\n      swap1\n      pop\n      pop\n      pop\n      tag_9\n      jump\t// in\n    tag_4:\n      stop\n    tag_9:\n        /* \"Funciones/causas beneficas.sol\":446:461  contador_causas */\n      0x00\n      dup1\n        /* \"Funciones/causas beneficas.sol\":446:463  contador_causas++ */\n      dup2\n      sload\n      dup1\n      swap3\n      swap2\n      swap1\n      0x01\n      add\n      swap2\n      swap1\n      pop\n      sstore\n        /* \"Funciones/causas beneficas.sol\":428:443  contador_causas */\n      0x00\n        /* \"Funciones/causas beneficas.sol\":428:463  contador_causas = contador_causas++ */\n      dup2\n      swap1\n      sstore\n      pop\n        /* \"Funciones/causas beneficas.sol\":340:471  function nuevaCausa(string memory _nombre, uint recaudacion_objetivo) public {\r... */\n      pop\n      pop\n      jump\t// out\n\n    auxdata: 0xa264697066735822122044320e90ee91e561b18dc8a1eecc98f906bce6c43557b5ce85f279ddfbc2824464736f6c63430006050033\n}\n",
				"bytecode": {
					"linkReferences": {},
					"object": "60806040526000805534801561001457600080fd5b50610145806100246000396000f3fe608060405234801561001057600080fd5b506004361061002b5760003560e01c80632ca0879214610030575b600080fd5b6100f36004803603604081101561004657600080fd5b810190808035906020019064010000000081111561006357600080fd5b82018360208201111561007557600080fd5b8035906020019184600183028401116401000000008311171561009757600080fd5b91908080601f016020809104026020016040519081016040528093929190818152602001838380828437600081840152601f19601f820116905080830192505050505050509192919290803590602001909291905050506100f5565b005b60008081548092919060010191905055600081905550505056fea264697066735822122044320e90ee91e561b18dc8a1eecc98f906bce6c43557b5ce85f279ddfbc2824464736f6c63430006050033",
					"opcodes": "PUSH1 0x80 PUSH1 0x40 MSTORE PUSH1 0x0 DUP1 SSTORE CALLVALUE DUP1 ISZERO PUSH2 0x14 JUMPI PUSH1 0x0 DUP1 REVERT JUMPDEST POP PUSH2 0x145 DUP1 PUSH2 0x24 PUSH1 0x0 CODECOPY PUSH1 0x0 RETURN INVALID PUSH1 0x80 PUSH1 0x40 MSTORE CALLVALUE DUP1 ISZERO PUSH2 0x10 JUMPI PUSH1 0x0 DUP1 REVERT JUMPDEST POP PUSH1 0x4 CALLDATASIZE LT PUSH2 0x2B JUMPI PUSH1 0x0 CALLDATALOAD PUSH1 0xE0 SHR DUP1 PUSH4 0x2CA08792 EQ PUSH2 0x30 JUMPI JUMPDEST PUSH1 0x0 DUP1 REVERT JUMPDEST PUSH2 0xF3 PUSH1 0x4 DUP1 CALLDATASIZE SUB PUSH1 0x40 DUP2 LT ISZERO PUSH2 0x46 JUMPI PUSH1 0x0 DUP1 REVERT JUMPDEST DUP2 ADD SWAP1 DUP1 DUP1 CALLDATALOAD SWAP1 PUSH1 0x20 ADD SWAP1 PUSH5 0x100000000 DUP2 GT ISZERO PUSH2 0x63 JUMPI PUSH1 0x0 DUP1 REVERT JUMPDEST DUP3 ADD DUP4 PUSH1 0x20 DUP3 ADD GT ISZERO PUSH2 0x75 JUMPI PUSH1 0x0 DUP1 REVERT JUMPDEST DUP1 CALLDATALOAD SWAP1 PUSH1 0x20 ADD SWAP2 DUP5 PUSH1 0x1 DUP4 MUL DUP5 ADD GT PUSH5 0x100000000 DUP4 GT OR ISZERO PUSH2 0x97 JUMPI PUSH1 0x0 DUP1 REVERT JUMPDEST SWAP2 SWAP1 DUP1 DUP1 PUSH1 0x1F ADD PUSH1 0x20 DUP1 SWAP2 DIV MUL PUSH1 0x20 ADD PUSH1 0x40 MLOAD SWAP1 DUP2 ADD PUSH1 0x40 MSTORE DUP1 SWAP4 SWAP3 SWAP2 SWAP1 DUP2 DUP2 MSTORE PUSH1 0x20 ADD DUP4 DUP4 DUP1 DUP3 DUP5 CALLDATACOPY PUSH1 0x0 DUP2 DUP5 ADD MSTORE PUSH1 0x1F NOT PUSH1 0x1F DUP3 ADD AND SWAP1 POP DUP1 DUP4 ADD SWAP3 POP POP POP POP POP POP POP SWAP2 SWAP3 SWAP2 SWAP3 SWAP1 DUP1 CALLDATALOAD SWAP1 PUSH1 0x20 ADD SWAP1 SWAP3 SWAP2 SWAP1 POP POP POP PUSH2 0xF5 JUMP JUMPDEST STOP JUMPDEST PUSH1 0x0 DUP1 DUP2 SLOAD DUP1 SWAP3 SWAP2 SWAP1 PUSH1 0x1 ADD SWAP2 SWAP1 POP SSTORE PUSH1 0x0 DUP2 SWAP1 SSTORE POP POP POP JUMP INVALID LOG2 PUSH5 0x6970667358 0x22 SLT KECCAK256 DIFFICULTY ORIGIN 0xE SWAP1 0xEE SWAP2 0xE5 PUSH2 0xB18D 0xC8 LOG1 0xEE 0xCC SWAP9 0xF9 MOD 0xBC 0xE6 0xC4 CALLDATALOAD JUMPI 0xB5 0xCE DUP6 CALLCODE PUSH26 0xDDFBC2824464736F6C6343000605003300000000000000000000 "
				},
				"gasEstimates": {
					"creation": {
						"codeDepositCost": "65000",
						"executionCost": "5123",
						"totalCost": "70123"
					},
					"external": {
						"nuevaCausa(string,uint256)": "infinite"
					}
				},
				"methodIdentifiers": {
					"nuevaCausa(string,uint256)": "2ca08792"
				}
			},
			"storageLayout": {
				"storage": [
					{
						"astId": 13,
						"contract": "Funciones/causas beneficas.sol:CausasBeneficas",
						"label": "contador_causas",
						"offset": 0,
						"slot": "0",
						"type": "t_uint256"
					},
					{
						"astId": 17,
						"contract": "Funciones/causas beneficas.sol:CausasBeneficas",
						"label": "causas",
						"offset": 0,
						"slot": "1",
						"type": "t_mapping(t_string_memory_ptr,t_struct(Causa)10_storage)"
					}
				],
				"types": {
					"t_mapping(t_string_memory_ptr,t_struct(Causa)10_storage)": {
						"encoding": "mapping",
						"key": "t_string_memory_ptr",
						"label": "mapping(string => struct CausasBeneficas.Causa)",
						"numberOfBytes": "32",
						"value": "t_struct(Causa)10_storage"
					},
					"t_string_memory_ptr": {
						"encoding": "bytes",
						"label": "string",
						"numberOfBytes": "32"
					},
					"t_string_storage": {
						"encoding": "bytes",
						"label": "string",
						"numberOfBytes": "32"
					},
					"t_struct(Causa)10_storage": {
						"encoding": "inplace",
						"label": "struct CausasBeneficas.Causa",
						"members": [
							{
								"astId": 3,
								"contract": "Funciones/causas beneficas.sol:CausasBeneficas",
								"label": "id",
								"offset": 0,
								"slot": "0",
								"type": "t_uint256"
							},
							{
								"astId": 5,
								"contract": "Funciones/causas beneficas.sol:CausasBeneficas",
								"label": "nombre",
								"offset": 0,
								"slot": "1",
								"type": "t_string_storage"
							},
							{
								"astId": 7,
								"contract": "Funciones/causas beneficas.sol:CausasBeneficas",
								"label": "recaudacion_objetivo",
								"offset": 0,
								"slot": "2",
								"type": "t_uint256"
							},
							{
								"astId": 9,
								"contract": "Funciones/causas beneficas.sol:CausasBeneficas",
								"label": "dinero_recaudado",
								"offset": 0,
								"slot": "3",
								"type": "t_uint256"
							}
						],
						"numberOfBytes": "128"
					},
					"t_uint256": {
						"encoding": "inplace",
						"label": "uint256",
						"numberOfBytes": "32"
					}
				}
			},
			"userdoc": {
				"methods": {}
			}
		}
	}
}