{
	"Funciones/modificadores.sol": {
		"view_pure_payable": {
			"abi": [
				{
					"inputs": [
						{
							"internalType": "uint256",
							"name": "_num1",
							"type": "uint256"
						},
						{
							"internalType": "uint256",
							"name": "_num2",
							"type": "uint256"
						}
					],
					"name": "exponenciacion",
					"outputs": [
						{
							"internalType": "uint256",
							"name": "",
							"type": "uint256"
						}
					],
					"stateMutability": "pure",
					"type": "function"
				},
				{
					"inputs": [
						{
							"internalType": "string",
							"name": "_alumno",
							"type": "string"
						}
					],
					"name": "nuevo_alumno",
					"outputs": [],
					"stateMutability": "nonpayable",
					"type": "function"
				},
				{
					"inputs": [
						{
							"internalType": "string",
							"name": "_nombre",
							"type": "string"
						},
						{
							"internalType": "uint256",
							"name": "_dinero",
							"type": "uint256"
						}
					],
					"name": "pagar",
					"outputs": [],
					"stateMutability": "payable",
					"type": "function"
				},
				{
					"inputs": [
						{
							"internalType": "uint256",
							"name": "_y",
							"type": "uint256"
						}
					],
					"name": "sumar",
					"outputs": [
						{
							"internalType": "uint256",
							"name": "",
							"type": "uint256"
						}
					],
					"stateMutability": "view",
					"type": "function"
				},
				{
					"inputs": [],
					"name": "verSaldo",
					"outputs": [
						{
							"components": [
								{
									"internalType": "string",
									"name": "nombre",
									"type": "string"
								},
								{
									"internalType": "address",
									"name": "direccion",
									"type": "address"
								},
								{
									"internalType": "uint256",
									"name": "saldo",
									"type": "uint256"
								}
							],
							"internalType": "struct view_pure_payable.Cartera",
							"name": "",
							"type": "tuple"
						}
					],
					"stateMutability": "view",
					"type": "function"
				},
				{
					"inputs": [
						{
							"internalType": "uint256",
							"name": "_posicion",
							"type": "uint256"
						}
					],
					"name": "ver_alumno",
					"outputs": [
						{
							"internalType": "string",
							"name": "",
							"type": "string"
						}
					],
					"stateMutability": "view",
					"type": "function"
				}
			],
			"devdoc": {
				"kind": "dev",
				"methods": {},
				"version": 1
			},
			"evm": {
				"assembly": "    /* \"Funciones/modificadores.sol\":105:1187  contract view_pure_payable{... */\n  mstore(0x40, 0x80)\n    /* \"Funciones/modificadores.sol\":448:450  10 */\n  0x0a\n    /* \"Funciones/modificadores.sol\":439:450  uint x = 10 */\n  0x01\n  sstore\n    /* \"Funciones/modificadores.sol\":105:1187  contract view_pure_payable{... */\n  callvalue\n  dup1\n  iszero\n  tag_1\n  jumpi\n  0x00\n  dup1\n  revert\ntag_1:\n  pop\n  dataSize(sub_0)\n  dup1\n  dataOffset(sub_0)\n  0x00\n  codecopy\n  0x00\n  return\nstop\n\nsub_0: assembly {\n        /* \"Funciones/modificadores.sol\":105:1187  contract view_pure_payable{... */\n      mstore(0x40, 0x80)\n      jumpi(tag_1, lt(calldatasize, 0x04))\n      shr(0xe0, calldataload(0x00))\n      dup1\n      0x2ed24584\n      eq\n      tag_2\n      jumpi\n      dup1\n      0x8a1999e2\n      eq\n      tag_3\n      jumpi\n      dup1\n      0xa8e12a66\n      eq\n      tag_4\n      jumpi\n      dup1\n      0xce574a6d\n      eq\n      tag_5\n      jumpi\n      dup1\n      0xdf94c337\n      eq\n      tag_6\n      jumpi\n      dup1\n      0xeea91dd4\n      eq\n      tag_7\n      jumpi\n    tag_1:\n      0x00\n      dup1\n      revert\n        /* \"Funciones/modificadores.sol\":1079:1184  function verSaldo() public view returns(Cartera memory){... */\n    tag_2:\n      callvalue\n      dup1\n      iszero\n      tag_8\n      jumpi\n      0x00\n      dup1\n      revert\n    tag_8:\n      pop\n      tag_9\n      tag_10\n      jump\t// in\n    tag_9:\n      mload(0x40)\n      tag_11\n      swap2\n      swap1\n      tag_12\n      jump\t// in\n    tag_11:\n      mload(0x40)\n      dup1\n      swap2\n      sub\n      swap1\n      return\n        /* \"Funciones/modificadores.sol\":576:689  function exponenciacion(uint _num1, uint _num2) public pure returns(uint) {... */\n    tag_3:\n      callvalue\n      dup1\n      iszero\n      tag_13\n      jumpi\n      0x00\n      dup1\n      revert\n    tag_13:\n      pop\n      tag_14\n      0x04\n      dup1\n      calldatasize\n      sub\n      dup2\n      add\n      swap1\n      tag_15\n      swap2\n      swap1\n      tag_16\n      jump\t// in\n    tag_15:\n      tag_17\n      jump\t// in\n    tag_14:\n      mload(0x40)\n      tag_18\n      swap2\n      swap1\n      tag_19\n      jump\t// in\n    tag_18:\n      mload(0x40)\n      dup1\n      swap2\n      sub\n      swap1\n      return\n        /* \"Funciones/modificadores.sol\":203:302  function nuevo_alumno(string memory _alumno) public  {... */\n    tag_4:\n      callvalue\n      dup1\n      iszero\n      tag_20\n      jumpi\n      0x00\n      dup1\n      revert\n    tag_20:\n      pop\n      tag_21\n      0x04\n      dup1\n      calldatasize\n      sub\n      dup2\n      add\n      swap1\n      tag_22\n      swap2\n      swap1\n      tag_23\n      jump\t// in\n    tag_22:\n      tag_24\n      jump\t// in\n    tag_21:\n      stop\n        /* \"Funciones/modificadores.sol\":879:1071  function pagar(string memory _nombre, uint _dinero) public payable {... */\n    tag_5:\n      tag_25\n      0x04\n      dup1\n      calldatasize\n      sub\n      dup2\n      add\n      swap1\n      tag_26\n      swap2\n      swap1\n      tag_27\n      jump\t// in\n    tag_26:\n      tag_28\n      jump\t// in\n    tag_25:\n      stop\n        /* \"Funciones/modificadores.sol\":459:541  function sumar(uint _y) public view returns (uint){... */\n    tag_6:\n      callvalue\n      dup1\n      iszero\n      tag_29\n      jumpi\n      0x00\n      dup1\n      revert\n    tag_29:\n      pop\n      tag_30\n      0x04\n      dup1\n      calldatasize\n      sub\n      dup2\n      add\n      swap1\n      tag_31\n      swap2\n      swap1\n      tag_32\n      jump\t// in\n    tag_31:\n      tag_33\n      jump\t// in\n    tag_30:\n      mload(0x40)\n      tag_34\n      swap2\n      swap1\n      tag_19\n      jump\t// in\n    tag_34:\n      mload(0x40)\n      dup1\n      swap2\n      sub\n      swap1\n      return\n        /* \"Funciones/modificadores.sol\":311:431  function ver_alumno(uint _posicion) public view returns(string memory){... */\n    tag_7:\n      callvalue\n      dup1\n      iszero\n      tag_35\n      jumpi\n      0x00\n      dup1\n      revert\n    tag_35:\n      pop\n      tag_36\n      0x04\n      dup1\n      calldatasize\n      sub\n      dup2\n      add\n      swap1\n      tag_37\n      swap2\n      swap1\n      tag_32\n      jump\t// in\n    tag_37:\n      tag_38\n      jump\t// in\n    tag_36:\n      mload(0x40)\n      tag_39\n      swap2\n      swap1\n      tag_40\n      jump\t// in\n    tag_39:\n      mload(0x40)\n      dup1\n      swap2\n      sub\n      swap1\n      return\n        /* \"Funciones/modificadores.sol\":1079:1184  function verSaldo() public view returns(Cartera memory){... */\n    tag_10:\n        /* \"Funciones/modificadores.sol\":1119:1133  Cartera memory */\n      tag_41\n      tag_42\n      jump\t// in\n    tag_41:\n        /* \"Funciones/modificadores.sol\":1152:1164  saldoCartera */\n      0x02\n        /* \"Funciones/modificadores.sol\":1152:1176  saldoCartera[msg.sender] */\n      0x00\n        /* \"Funciones/modificadores.sol\":1165:1175  msg.sender */\n      caller\n        /* \"Funciones/modificadores.sol\":1152:1176  saldoCartera[msg.sender] */\n      0xffffffffffffffffffffffffffffffffffffffff\n      and\n      0xffffffffffffffffffffffffffffffffffffffff\n      and\n      dup2\n      mstore\n      0x20\n      add\n      swap1\n      dup2\n      mstore\n      0x20\n      add\n      0x00\n      keccak256\n        /* \"Funciones/modificadores.sol\":1145:1176  return saldoCartera[msg.sender] */\n      mload(0x40)\n      dup1\n      0x60\n      add\n      0x40\n      mstore\n      swap1\n      dup2\n      0x00\n      dup3\n      add\n      dup1\n      sload\n      tag_44\n      swap1\n      tag_45\n      jump\t// in\n    tag_44:\n      dup1\n      0x1f\n      add\n      0x20\n      dup1\n      swap2\n      div\n      mul\n      0x20\n      add\n      mload(0x40)\n      swap1\n      dup2\n      add\n      0x40\n      mstore\n      dup1\n      swap3\n      swap2\n      swap1\n      dup2\n      dup2\n      mstore\n      0x20\n      add\n      dup3\n      dup1\n      sload\n      tag_46\n      swap1\n      tag_45\n      jump\t// in\n    tag_46:\n      dup1\n      iszero\n      tag_47\n      jumpi\n      dup1\n      0x1f\n      lt\n      tag_48\n      jumpi\n      0x0100\n      dup1\n      dup4\n      sload\n      div\n      mul\n      dup4\n      mstore\n      swap2\n      0x20\n      add\n      swap2\n      jump(tag_47)\n    tag_48:\n      dup3\n      add\n      swap2\n      swap1\n      0x00\n      mstore\n      keccak256(0x00, 0x20)\n      swap1\n    tag_49:\n      dup2\n      sload\n      dup2\n      mstore\n      swap1\n      0x01\n      add\n      swap1\n      0x20\n      add\n      dup1\n      dup4\n      gt\n      tag_49\n      jumpi\n      dup3\n      swap1\n      sub\n      0x1f\n      and\n      dup3\n      add\n      swap2\n    tag_47:\n      pop\n      pop\n      pop\n      pop\n      pop\n      dup2\n      mstore\n      0x20\n      add\n      0x01\n      dup3\n      add\n      0x00\n      swap1\n      sload\n      swap1\n      0x0100\n      exp\n      swap1\n      div\n      0xffffffffffffffffffffffffffffffffffffffff\n      and\n      0xffffffffffffffffffffffffffffffffffffffff\n      and\n      0xffffffffffffffffffffffffffffffffffffffff\n      and\n      dup2\n      mstore\n      0x20\n      add\n      0x02\n      dup3\n      add\n      sload\n      dup2\n      mstore\n      pop\n      pop\n      swap1\n      pop\n        /* \"Funciones/modificadores.sol\":1079:1184  function verSaldo() public view returns(Cartera memory){... */\n      swap1\n      jump\t// out\n        /* \"Funciones/modificadores.sol\":576:689  function exponenciacion(uint _num1, uint _num2) public pure returns(uint) {... */\n    tag_17:\n        /* \"Funciones/modificadores.sol\":644:648  uint */\n      0x00\n        /* \"Funciones/modificadores.sol\":676:681  _num2 */\n      dup2\n        /* \"Funciones/modificadores.sol\":668:673  _num1 */\n      dup4\n        /* \"Funciones/modificadores.sol\":668:681  _num1 **_num2 */\n      tag_51\n      swap2\n      swap1\n      tag_52\n      jump\t// in\n    tag_51:\n        /* \"Funciones/modificadores.sol\":661:681  return _num1 **_num2 */\n      swap1\n      pop\n        /* \"Funciones/modificadores.sol\":576:689  function exponenciacion(uint _num1, uint _num2) public pure returns(uint) {... */\n      swap3\n      swap2\n      pop\n      pop\n      jump\t// out\n        /* \"Funciones/modificadores.sol\":203:302  function nuevo_alumno(string memory _alumno) public  {... */\n    tag_24:\n        /* \"Funciones/modificadores.sol\":267:280  lista_alumnos */\n      0x00\n        /* \"Funciones/modificadores.sol\":286:293  _alumno */\n      dup2\n        /* \"Funciones/modificadores.sol\":267:294  lista_alumnos.push(_alumno) */\n      swap1\n      dup1\n      0x01\n      dup2\n      sload\n      add\n      dup1\n      dup3\n      sstore\n      dup1\n      swap2\n      pop\n      pop\n      0x01\n      swap1\n      sub\n      swap1\n      0x00\n      mstore\n      keccak256(0x00, 0x20)\n      add\n      0x00\n      swap1\n      swap2\n      swap1\n      swap2\n      swap1\n      swap2\n      pop\n      swap1\n      dup1\n      mload\n      swap1\n      0x20\n      add\n      swap1\n      tag_55\n      swap3\n      swap2\n      swap1\n      tag_56\n      jump\t// in\n    tag_55:\n      pop\n        /* \"Funciones/modificadores.sol\":203:302  function nuevo_alumno(string memory _alumno) public  {... */\n      pop\n      jump\t// out\n        /* \"Funciones/modificadores.sol\":879:1071  function pagar(string memory _nombre, uint _dinero) public payable {... */\n    tag_28:\n        /* \"Funciones/modificadores.sol\":957:979  Cartera memory cartera */\n      0x00\n        /* \"Funciones/modificadores.sol\":983:1018  Cartera(_nombre,msg.sender,_dinero) */\n      mload(0x40)\n      dup1\n      0x60\n      add\n      0x40\n      mstore\n      dup1\n        /* \"Funciones/modificadores.sol\":991:998  _nombre */\n      dup5\n        /* \"Funciones/modificadores.sol\":983:1018  Cartera(_nombre,msg.sender,_dinero) */\n      dup2\n      mstore\n      0x20\n      add\n        /* \"Funciones/modificadores.sol\":999:1009  msg.sender */\n      caller\n        /* \"Funciones/modificadores.sol\":983:1018  Cartera(_nombre,msg.sender,_dinero) */\n      0xffffffffffffffffffffffffffffffffffffffff\n      and\n      dup2\n      mstore\n      0x20\n      add\n        /* \"Funciones/modificadores.sol\":1010:1017  _dinero */\n      dup4\n        /* \"Funciones/modificadores.sol\":983:1018  Cartera(_nombre,msg.sender,_dinero) */\n      dup2\n      mstore\n      pop\n        /* \"Funciones/modificadores.sol\":957:1018  Cartera memory cartera  = Cartera(_nombre,msg.sender,_dinero) */\n      swap1\n      pop\n        /* \"Funciones/modificadores.sol\":1056:1063  cartera */\n      dup1\n        /* \"Funciones/modificadores.sol\":1029:1041  saldoCartera */\n      0x02\n        /* \"Funciones/modificadores.sol\":1029:1053  saldoCartera[msg.sender] */\n      0x00\n        /* \"Funciones/modificadores.sol\":1042:1052  msg.sender */\n      caller\n        /* \"Funciones/modificadores.sol\":1029:1053  saldoCartera[msg.sender] */\n      0xffffffffffffffffffffffffffffffffffffffff\n      and\n      0xffffffffffffffffffffffffffffffffffffffff\n      and\n      dup2\n      mstore\n      0x20\n      add\n      swap1\n      dup2\n      mstore\n      0x20\n      add\n      0x00\n      keccak256\n        /* \"Funciones/modificadores.sol\":1029:1063  saldoCartera[msg.sender] = cartera */\n      0x00\n      dup3\n      add\n      mload\n      dup2\n      0x00\n      add\n      swap1\n      dup1\n      mload\n      swap1\n      0x20\n      add\n      swap1\n      tag_58\n      swap3\n      swap2\n      swap1\n      tag_56\n      jump\t// in\n    tag_58:\n      pop\n      0x20\n      dup3\n      add\n      mload\n      dup2\n      0x01\n      add\n      exp(0x0100, 0x00)\n      dup2\n      sload\n      dup2\n      0xffffffffffffffffffffffffffffffffffffffff\n      mul\n      not\n      and\n      swap1\n      dup4\n      0xffffffffffffffffffffffffffffffffffffffff\n      and\n      mul\n      or\n      swap1\n      sstore\n      pop\n      0x40\n      dup3\n      add\n      mload\n      dup2\n      0x02\n      add\n      sstore\n      swap1\n      pop\n      pop\n        /* \"Funciones/modificadores.sol\":946:1071  {... */\n      pop\n        /* \"Funciones/modificadores.sol\":879:1071  function pagar(string memory _nombre, uint _dinero) public payable {... */\n      pop\n      pop\n      jump\t// out\n        /* \"Funciones/modificadores.sol\":459:541  function sumar(uint _y) public view returns (uint){... */\n    tag_33:\n        /* \"Funciones/modificadores.sol\":504:508  uint */\n      0x00\n        /* \"Funciones/modificadores.sol\":531:533  _y */\n      dup2\n        /* \"Funciones/modificadores.sol\":527:528  x */\n      sload(0x01)\n        /* \"Funciones/modificadores.sol\":527:533  x + _y */\n      tag_60\n      swap2\n      swap1\n      tag_61\n      jump\t// in\n    tag_60:\n        /* \"Funciones/modificadores.sol\":520:533  return x + _y */\n      swap1\n      pop\n        /* \"Funciones/modificadores.sol\":459:541  function sumar(uint _y) public view returns (uint){... */\n      swap2\n      swap1\n      pop\n      jump\t// out\n        /* \"Funciones/modificadores.sol\":311:431  function ver_alumno(uint _posicion) public view returns(string memory){... */\n    tag_38:\n        /* \"Funciones/modificadores.sol\":367:380  string memory */\n      0x60\n        /* \"Funciones/modificadores.sol\":399:412  lista_alumnos */\n      0x00\n        /* \"Funciones/modificadores.sol\":413:422  _posicion */\n      dup3\n        /* \"Funciones/modificadores.sol\":399:423  lista_alumnos[_posicion] */\n      dup2\n      sload\n      dup2\n      lt\n      tag_63\n      jumpi\n      tag_64\n      tag_65\n      jump\t// in\n    tag_64:\n    tag_63:\n      swap1\n      0x00\n      mstore\n      keccak256(0x00, 0x20)\n      add\n        /* \"Funciones/modificadores.sol\":392:423  return lista_alumnos[_posicion] */\n      dup1\n      sload\n      tag_67\n      swap1\n      tag_45\n      jump\t// in\n    tag_67:\n      dup1\n      0x1f\n      add\n      0x20\n      dup1\n      swap2\n      div\n      mul\n      0x20\n      add\n      mload(0x40)\n      swap1\n      dup2\n      add\n      0x40\n      mstore\n      dup1\n      swap3\n      swap2\n      swap1\n      dup2\n      dup2\n      mstore\n      0x20\n      add\n      dup3\n      dup1\n      sload\n      tag_68\n      swap1\n      tag_45\n      jump\t// in\n    tag_68:\n      dup1\n      iszero\n      tag_69\n      jumpi\n      dup1\n      0x1f\n      lt\n      tag_70\n      jumpi\n      0x0100\n      dup1\n      dup4\n      sload\n      div\n      mul\n      dup4\n      mstore\n      swap2\n      0x20\n      add\n      swap2\n      jump(tag_69)\n    tag_70:\n      dup3\n      add\n      swap2\n      swap1\n      0x00\n      mstore\n      keccak256(0x00, 0x20)\n      swap1\n    tag_71:\n      dup2\n      sload\n      dup2\n      mstore\n      swap1\n      0x01\n      add\n      swap1\n      0x20\n      add\n      dup1\n      dup4\n      gt\n      tag_71\n      jumpi\n      dup3\n      swap1\n      sub\n      0x1f\n      and\n      dup3\n      add\n      swap2\n    tag_69:\n      pop\n      pop\n      pop\n      pop\n      pop\n      swap1\n      pop\n        /* \"Funciones/modificadores.sol\":311:431  function ver_alumno(uint _posicion) public view returns(string memory){... */\n      swap2\n      swap1\n      pop\n      jump\t// out\n    tag_42:\n      mload(0x40)\n      dup1\n      0x60\n      add\n      0x40\n      mstore\n      dup1\n      0x60\n      dup2\n      mstore\n      0x20\n      add\n      and(0xffffffffffffffffffffffffffffffffffffffff, 0x00)\n      dup2\n      mstore\n      0x20\n      add\n      0x00\n      dup2\n      mstore\n      pop\n      swap1\n      jump\t// out\n    tag_56:\n      dup3\n      dup1\n      sload\n      tag_72\n      swap1\n      tag_45\n      jump\t// in\n    tag_72:\n      swap1\n      0x00\n      mstore\n      keccak256(0x00, 0x20)\n      swap1\n      0x1f\n      add\n      0x20\n      swap1\n      div\n      dup2\n      add\n      swap3\n      dup3\n      tag_74\n      jumpi\n      0x00\n      dup6\n      sstore\n      jump(tag_73)\n    tag_74:\n      dup3\n      0x1f\n      lt\n      tag_75\n      jumpi\n      dup1\n      mload\n      not(0xff)\n      and\n      dup4\n      dup1\n      add\n      or\n      dup6\n      sstore\n      jump(tag_73)\n    tag_75:\n      dup3\n      dup1\n      add\n      0x01\n      add\n      dup6\n      sstore\n      dup3\n      iszero\n      tag_73\n      jumpi\n      swap2\n      dup3\n      add\n    tag_76:\n      dup3\n      dup2\n      gt\n      iszero\n      tag_77\n      jumpi\n      dup3\n      mload\n      dup3\n      sstore\n      swap2\n      0x20\n      add\n      swap2\n      swap1\n      0x01\n      add\n      swap1\n      jump(tag_76)\n    tag_77:\n    tag_73:\n      pop\n      swap1\n      pop\n      tag_78\n      swap2\n      swap1\n      tag_79\n      jump\t// in\n    tag_78:\n      pop\n      swap1\n      jump\t// out\n    tag_79:\n    tag_80:\n      dup1\n      dup3\n      gt\n      iszero\n      tag_81\n      jumpi\n      0x00\n      dup2\n      0x00\n      swap1\n      sstore\n      pop\n      0x01\n      add\n      jump(tag_80)\n    tag_81:\n      pop\n      swap1\n      jump\t// out\n        /* \"#utility.yul\":7:106   */\n    tag_82:\n        /* \"#utility.yul\":59:65   */\n      0x00\n        /* \"#utility.yul\":93:98   */\n      dup2\n        /* \"#utility.yul\":87:99   */\n      mload\n        /* \"#utility.yul\":77:99   */\n      swap1\n      pop\n        /* \"#utility.yul\":7:106   */\n      swap2\n      swap1\n      pop\n      jump\t// out\n        /* \"#utility.yul\":112:271   */\n    tag_83:\n        /* \"#utility.yul\":186:197   */\n      0x00\n        /* \"#utility.yul\":220:226   */\n      dup3\n        /* \"#utility.yul\":215:218   */\n      dup3\n        /* \"#utility.yul\":208:227   */\n      mstore\n        /* \"#utility.yul\":260:264   */\n      0x20\n        /* \"#utility.yul\":255:258   */\n      dup3\n        /* \"#utility.yul\":251:265   */\n      add\n        /* \"#utility.yul\":236:265   */\n      swap1\n      pop\n        /* \"#utility.yul\":112:271   */\n      swap3\n      swap2\n      pop\n      pop\n      jump\t// out\n        /* \"#utility.yul\":277:584   */\n    tag_84:\n        /* \"#utility.yul\":345:346   */\n      0x00\n        /* \"#utility.yul\":355:468   */\n    tag_119:\n        /* \"#utility.yul\":369:375   */\n      dup4\n        /* \"#utility.yul\":366:367   */\n      dup2\n        /* \"#utility.yul\":363:376   */\n      lt\n        /* \"#utility.yul\":355:468   */\n      iszero\n      tag_121\n      jumpi\n        /* \"#utility.yul\":454:455   */\n      dup1\n        /* \"#utility.yul\":449:452   */\n      dup3\n        /* \"#utility.yul\":445:456   */\n      add\n        /* \"#utility.yul\":439:457   */\n      mload\n        /* \"#utility.yul\":435:436   */\n      dup2\n        /* \"#utility.yul\":430:433   */\n      dup5\n        /* \"#utility.yul\":426:437   */\n      add\n        /* \"#utility.yul\":419:458   */\n      mstore\n        /* \"#utility.yul\":391:393   */\n      0x20\n        /* \"#utility.yul\":388:389   */\n      dup2\n        /* \"#utility.yul\":384:394   */\n      add\n        /* \"#utility.yul\":379:394   */\n      swap1\n      pop\n        /* \"#utility.yul\":355:468   */\n      jump(tag_119)\n    tag_121:\n        /* \"#utility.yul\":486:492   */\n      dup4\n        /* \"#utility.yul\":483:484   */\n      dup2\n        /* \"#utility.yul\":480:493   */\n      gt\n        /* \"#utility.yul\":477:578   */\n      iszero\n      tag_122\n      jumpi\n        /* \"#utility.yul\":566:567   */\n      0x00\n        /* \"#utility.yul\":557:563   */\n      dup5\n        /* \"#utility.yul\":552:555   */\n      dup5\n        /* \"#utility.yul\":548:564   */\n      add\n        /* \"#utility.yul\":541:568   */\n      mstore\n        /* \"#utility.yul\":477:578   */\n    tag_122:\n        /* \"#utility.yul\":326:584   */\n      pop\n        /* \"#utility.yul\":277:584   */\n      pop\n      pop\n      pop\n      jump\t// out\n        /* \"#utility.yul\":590:692   */\n    tag_85:\n        /* \"#utility.yul\":631:637   */\n      0x00\n        /* \"#utility.yul\":682:684   */\n      0x1f\n        /* \"#utility.yul\":678:685   */\n      not\n        /* \"#utility.yul\":673:675   */\n      0x1f\n        /* \"#utility.yul\":666:671   */\n      dup4\n        /* \"#utility.yul\":662:676   */\n      add\n        /* \"#utility.yul\":658:686   */\n      and\n        /* \"#utility.yul\":648:686   */\n      swap1\n      pop\n        /* \"#utility.yul\":590:692   */\n      swap2\n      swap1\n      pop\n      jump\t// out\n        /* \"#utility.yul\":698:1042   */\n    tag_86:\n        /* \"#utility.yul\":776:779   */\n      0x00\n        /* \"#utility.yul\":804:843   */\n      tag_125\n        /* \"#utility.yul\":837:842   */\n      dup3\n        /* \"#utility.yul\":804:843   */\n      tag_82\n      jump\t// in\n    tag_125:\n        /* \"#utility.yul\":859:920   */\n      tag_126\n        /* \"#utility.yul\":913:919   */\n      dup2\n        /* \"#utility.yul\":908:911   */\n      dup6\n        /* \"#utility.yul\":859:920   */\n      tag_83\n      jump\t// in\n    tag_126:\n        /* \"#utility.yul\":852:920   */\n      swap4\n      pop\n        /* \"#utility.yul\":929:981   */\n      tag_127\n        /* \"#utility.yul\":974:980   */\n      dup2\n        /* \"#utility.yul\":969:972   */\n      dup6\n        /* \"#utility.yul\":962:966   */\n      0x20\n        /* \"#utility.yul\":955:960   */\n      dup7\n        /* \"#utility.yul\":951:967   */\n      add\n        /* \"#utility.yul\":929:981   */\n      tag_84\n      jump\t// in\n    tag_127:\n        /* \"#utility.yul\":1006:1035   */\n      tag_128\n        /* \"#utility.yul\":1028:1034   */\n      dup2\n        /* \"#utility.yul\":1006:1035   */\n      tag_85\n      jump\t// in\n    tag_128:\n        /* \"#utility.yul\":1001:1004   */\n      dup5\n        /* \"#utility.yul\":997:1036   */\n      add\n        /* \"#utility.yul\":990:1036   */\n      swap2\n      pop\n        /* \"#utility.yul\":780:1042   */\n      pop\n        /* \"#utility.yul\":698:1042   */\n      swap3\n      swap2\n      pop\n      pop\n      jump\t// out\n        /* \"#utility.yul\":1048:1174   */\n    tag_87:\n        /* \"#utility.yul\":1085:1092   */\n      0x00\n        /* \"#utility.yul\":1125:1167   */\n      0xffffffffffffffffffffffffffffffffffffffff\n        /* \"#utility.yul\":1118:1123   */\n      dup3\n        /* \"#utility.yul\":1114:1168   */\n      and\n        /* \"#utility.yul\":1103:1168   */\n      swap1\n      pop\n        /* \"#utility.yul\":1048:1174   */\n      swap2\n      swap1\n      pop\n      jump\t// out\n        /* \"#utility.yul\":1180:1276   */\n    tag_88:\n        /* \"#utility.yul\":1217:1224   */\n      0x00\n        /* \"#utility.yul\":1246:1270   */\n      tag_131\n        /* \"#utility.yul\":1264:1269   */\n      dup3\n        /* \"#utility.yul\":1246:1270   */\n      tag_87\n      jump\t// in\n    tag_131:\n        /* \"#utility.yul\":1235:1270   */\n      swap1\n      pop\n        /* \"#utility.yul\":1180:1276   */\n      swap2\n      swap1\n      pop\n      jump\t// out\n        /* \"#utility.yul\":1282:1390   */\n    tag_89:\n        /* \"#utility.yul\":1359:1383   */\n      tag_133\n        /* \"#utility.yul\":1377:1382   */\n      dup2\n        /* \"#utility.yul\":1359:1383   */\n      tag_88\n      jump\t// in\n    tag_133:\n        /* \"#utility.yul\":1354:1357   */\n      dup3\n        /* \"#utility.yul\":1347:1384   */\n      mstore\n        /* \"#utility.yul\":1282:1390   */\n      pop\n      pop\n      jump\t// out\n        /* \"#utility.yul\":1396:1473   */\n    tag_90:\n        /* \"#utility.yul\":1433:1440   */\n      0x00\n        /* \"#utility.yul\":1462:1467   */\n      dup2\n        /* \"#utility.yul\":1451:1467   */\n      swap1\n      pop\n        /* \"#utility.yul\":1396:1473   */\n      swap2\n      swap1\n      pop\n      jump\t// out\n        /* \"#utility.yul\":1479:1587   */\n    tag_91:\n        /* \"#utility.yul\":1556:1580   */\n      tag_136\n        /* \"#utility.yul\":1574:1579   */\n      dup2\n        /* \"#utility.yul\":1556:1580   */\n      tag_90\n      jump\t// in\n    tag_136:\n        /* \"#utility.yul\":1551:1554   */\n      dup3\n        /* \"#utility.yul\":1544:1581   */\n      mstore\n        /* \"#utility.yul\":1479:1587   */\n      pop\n      pop\n      jump\t// out\n        /* \"#utility.yul\":1669:2453   */\n    tag_92:\n        /* \"#utility.yul\":1784:1787   */\n      0x00\n        /* \"#utility.yul\":1820:1824   */\n      0x60\n        /* \"#utility.yul\":1815:1818   */\n      dup4\n        /* \"#utility.yul\":1811:1825   */\n      add\n        /* \"#utility.yul\":1909:1913   */\n      0x00\n        /* \"#utility.yul\":1902:1907   */\n      dup4\n        /* \"#utility.yul\":1898:1914   */\n      add\n        /* \"#utility.yul\":1892:1915   */\n      mload\n        /* \"#utility.yul\":1962:1965   */\n      dup5\n        /* \"#utility.yul\":1956:1960   */\n      dup3\n        /* \"#utility.yul\":1952:1966   */\n      sub\n        /* \"#utility.yul\":1945:1949   */\n      0x00\n        /* \"#utility.yul\":1940:1943   */\n      dup7\n        /* \"#utility.yul\":1936:1950   */\n      add\n        /* \"#utility.yul\":1929:1967   */\n      mstore\n        /* \"#utility.yul\":1988:2061   */\n      tag_138\n        /* \"#utility.yul\":2056:2060   */\n      dup3\n        /* \"#utility.yul\":2042:2054   */\n      dup3\n        /* \"#utility.yul\":1988:2061   */\n      tag_86\n      jump\t// in\n    tag_138:\n        /* \"#utility.yul\":1980:2061   */\n      swap2\n      pop\n        /* \"#utility.yul\":1835:2072   */\n      pop\n        /* \"#utility.yul\":2159:2163   */\n      0x20\n        /* \"#utility.yul\":2152:2157   */\n      dup4\n        /* \"#utility.yul\":2148:2164   */\n      add\n        /* \"#utility.yul\":2142:2165   */\n      mload\n        /* \"#utility.yul\":2178:2241   */\n      tag_139\n        /* \"#utility.yul\":2235:2239   */\n      0x20\n        /* \"#utility.yul\":2230:2233   */\n      dup7\n        /* \"#utility.yul\":2226:2240   */\n      add\n        /* \"#utility.yul\":2212:2224   */\n      dup3\n        /* \"#utility.yul\":2178:2241   */\n      tag_89\n      jump\t// in\n    tag_139:\n        /* \"#utility.yul\":2082:2251   */\n      pop\n        /* \"#utility.yul\":2334:2338   */\n      0x40\n        /* \"#utility.yul\":2327:2332   */\n      dup4\n        /* \"#utility.yul\":2323:2339   */\n      add\n        /* \"#utility.yul\":2317:2340   */\n      mload\n        /* \"#utility.yul\":2353:2416   */\n      tag_140\n        /* \"#utility.yul\":2410:2414   */\n      0x40\n        /* \"#utility.yul\":2405:2408   */\n      dup7\n        /* \"#utility.yul\":2401:2415   */\n      add\n        /* \"#utility.yul\":2387:2399   */\n      dup3\n        /* \"#utility.yul\":2353:2416   */\n      tag_91\n      jump\t// in\n    tag_140:\n        /* \"#utility.yul\":2261:2426   */\n      pop\n        /* \"#utility.yul\":2443:2447   */\n      dup1\n        /* \"#utility.yul\":2436:2447   */\n      swap2\n      pop\n        /* \"#utility.yul\":1789:2453   */\n      pop\n        /* \"#utility.yul\":1669:2453   */\n      swap3\n      swap2\n      pop\n      pop\n      jump\t// out\n        /* \"#utility.yul\":2459:2824   */\n    tag_12:\n        /* \"#utility.yul\":2598:2602   */\n      0x00\n        /* \"#utility.yul\":2636:2638   */\n      0x20\n        /* \"#utility.yul\":2625:2634   */\n      dup3\n        /* \"#utility.yul\":2621:2639   */\n      add\n        /* \"#utility.yul\":2613:2639   */\n      swap1\n      pop\n        /* \"#utility.yul\":2685:2694   */\n      dup2\n        /* \"#utility.yul\":2679:2683   */\n      dup2\n        /* \"#utility.yul\":2675:2695   */\n      sub\n        /* \"#utility.yul\":2671:2672   */\n      0x00\n        /* \"#utility.yul\":2660:2669   */\n      dup4\n        /* \"#utility.yul\":2656:2673   */\n      add\n        /* \"#utility.yul\":2649:2696   */\n      mstore\n        /* \"#utility.yul\":2713:2817   */\n      tag_142\n        /* \"#utility.yul\":2812:2816   */\n      dup2\n        /* \"#utility.yul\":2803:2809   */\n      dup5\n        /* \"#utility.yul\":2713:2817   */\n      tag_92\n      jump\t// in\n    tag_142:\n        /* \"#utility.yul\":2705:2817   */\n      swap1\n      pop\n        /* \"#utility.yul\":2459:2824   */\n      swap3\n      swap2\n      pop\n      pop\n      jump\t// out\n        /* \"#utility.yul\":2830:2905   */\n    tag_93:\n        /* \"#utility.yul\":2863:2869   */\n      0x00\n        /* \"#utility.yul\":2896:2898   */\n      0x40\n        /* \"#utility.yul\":2890:2899   */\n      mload\n        /* \"#utility.yul\":2880:2899   */\n      swap1\n      pop\n        /* \"#utility.yul\":2830:2905   */\n      swap1\n      jump\t// out\n        /* \"#utility.yul\":2911:3028   */\n    tag_94:\n        /* \"#utility.yul\":3020:3021   */\n      0x00\n        /* \"#utility.yul\":3017:3018   */\n      dup1\n        /* \"#utility.yul\":3010:3022   */\n      revert\n        /* \"#utility.yul\":3034:3151   */\n    tag_95:\n        /* \"#utility.yul\":3143:3144   */\n      0x00\n        /* \"#utility.yul\":3140:3141   */\n      dup1\n        /* \"#utility.yul\":3133:3145   */\n      revert\n        /* \"#utility.yul\":3157:3279   */\n    tag_96:\n        /* \"#utility.yul\":3230:3254   */\n      tag_147\n        /* \"#utility.yul\":3248:3253   */\n      dup2\n        /* \"#utility.yul\":3230:3254   */\n      tag_90\n      jump\t// in\n    tag_147:\n        /* \"#utility.yul\":3223:3228   */\n      dup2\n        /* \"#utility.yul\":3220:3255   */\n      eq\n        /* \"#utility.yul\":3210:3273   */\n      tag_148\n      jumpi\n        /* \"#utility.yul\":3269:3270   */\n      0x00\n        /* \"#utility.yul\":3266:3267   */\n      dup1\n        /* \"#utility.yul\":3259:3271   */\n      revert\n        /* \"#utility.yul\":3210:3273   */\n    tag_148:\n        /* \"#utility.yul\":3157:3279   */\n      pop\n      jump\t// out\n        /* \"#utility.yul\":3285:3424   */\n    tag_97:\n        /* \"#utility.yul\":3331:3336   */\n      0x00\n        /* \"#utility.yul\":3369:3375   */\n      dup2\n        /* \"#utility.yul\":3356:3376   */\n      calldataload\n        /* \"#utility.yul\":3347:3376   */\n      swap1\n      pop\n        /* \"#utility.yul\":3385:3418   */\n      tag_150\n        /* \"#utility.yul\":3412:3417   */\n      dup2\n        /* \"#utility.yul\":3385:3418   */\n      tag_96\n      jump\t// in\n    tag_150:\n        /* \"#utility.yul\":3285:3424   */\n      swap3\n      swap2\n      pop\n      pop\n      jump\t// out\n        /* \"#utility.yul\":3430:3904   */\n    tag_16:\n        /* \"#utility.yul\":3498:3504   */\n      0x00\n        /* \"#utility.yul\":3506:3512   */\n      dup1\n        /* \"#utility.yul\":3555:3557   */\n      0x40\n        /* \"#utility.yul\":3543:3552   */\n      dup4\n        /* \"#utility.yul\":3534:3541   */\n      dup6\n        /* \"#utility.yul\":3530:3553   */\n      sub\n        /* \"#utility.yul\":3526:3558   */\n      slt\n        /* \"#utility.yul\":3523:3642   */\n      iszero\n      tag_152\n      jumpi\n        /* \"#utility.yul\":3561:3640   */\n      tag_153\n      tag_94\n      jump\t// in\n    tag_153:\n        /* \"#utility.yul\":3523:3642   */\n    tag_152:\n        /* \"#utility.yul\":3681:3682   */\n      0x00\n        /* \"#utility.yul\":3706:3759   */\n      tag_154\n        /* \"#utility.yul\":3751:3758   */\n      dup6\n        /* \"#utility.yul\":3742:3748   */\n      dup3\n        /* \"#utility.yul\":3731:3740   */\n      dup7\n        /* \"#utility.yul\":3727:3749   */\n      add\n        /* \"#utility.yul\":3706:3759   */\n      tag_97\n      jump\t// in\n    tag_154:\n        /* \"#utility.yul\":3696:3759   */\n      swap3\n      pop\n        /* \"#utility.yul\":3652:3769   */\n      pop\n        /* \"#utility.yul\":3808:3810   */\n      0x20\n        /* \"#utility.yul\":3834:3887   */\n      tag_155\n        /* \"#utility.yul\":3879:3886   */\n      dup6\n        /* \"#utility.yul\":3870:3876   */\n      dup3\n        /* \"#utility.yul\":3859:3868   */\n      dup7\n        /* \"#utility.yul\":3855:3877   */\n      add\n        /* \"#utility.yul\":3834:3887   */\n      tag_97\n      jump\t// in\n    tag_155:\n        /* \"#utility.yul\":3824:3887   */\n      swap2\n      pop\n        /* \"#utility.yul\":3779:3897   */\n      pop\n        /* \"#utility.yul\":3430:3904   */\n      swap3\n      pop\n      swap3\n      swap1\n      pop\n      jump\t// out\n        /* \"#utility.yul\":3910:4028   */\n    tag_98:\n        /* \"#utility.yul\":3997:4021   */\n      tag_157\n        /* \"#utility.yul\":4015:4020   */\n      dup2\n        /* \"#utility.yul\":3997:4021   */\n      tag_90\n      jump\t// in\n    tag_157:\n        /* \"#utility.yul\":3992:3995   */\n      dup3\n        /* \"#utility.yul\":3985:4022   */\n      mstore\n        /* \"#utility.yul\":3910:4028   */\n      pop\n      pop\n      jump\t// out\n        /* \"#utility.yul\":4034:4256   */\n    tag_19:\n        /* \"#utility.yul\":4127:4131   */\n      0x00\n        /* \"#utility.yul\":4165:4167   */\n      0x20\n        /* \"#utility.yul\":4154:4163   */\n      dup3\n        /* \"#utility.yul\":4150:4168   */\n      add\n        /* \"#utility.yul\":4142:4168   */\n      swap1\n      pop\n        /* \"#utility.yul\":4178:4249   */\n      tag_159\n        /* \"#utility.yul\":4246:4247   */\n      0x00\n        /* \"#utility.yul\":4235:4244   */\n      dup4\n        /* \"#utility.yul\":4231:4248   */\n      add\n        /* \"#utility.yul\":4222:4228   */\n      dup5\n        /* \"#utility.yul\":4178:4249   */\n      tag_98\n      jump\t// in\n    tag_159:\n        /* \"#utility.yul\":4034:4256   */\n      swap3\n      swap2\n      pop\n      pop\n      jump\t// out\n        /* \"#utility.yul\":4262:4379   */\n    tag_99:\n        /* \"#utility.yul\":4371:4372   */\n      0x00\n        /* \"#utility.yul\":4368:4369   */\n      dup1\n        /* \"#utility.yul\":4361:4373   */\n      revert\n        /* \"#utility.yul\":4385:4502   */\n    tag_100:\n        /* \"#utility.yul\":4494:4495   */\n      0x00\n        /* \"#utility.yul\":4491:4492   */\n      dup1\n        /* \"#utility.yul\":4484:4496   */\n      revert\n        /* \"#utility.yul\":4508:4688   */\n    tag_101:\n        /* \"#utility.yul\":4556:4633   */\n      0x4e487b7100000000000000000000000000000000000000000000000000000000\n        /* \"#utility.yul\":4553:4554   */\n      0x00\n        /* \"#utility.yul\":4546:4634   */\n      mstore\n        /* \"#utility.yul\":4653:4657   */\n      0x41\n        /* \"#utility.yul\":4650:4651   */\n      0x04\n        /* \"#utility.yul\":4643:4658   */\n      mstore\n        /* \"#utility.yul\":4677:4681   */\n      0x24\n        /* \"#utility.yul\":4674:4675   */\n      0x00\n        /* \"#utility.yul\":4667:4682   */\n      revert\n        /* \"#utility.yul\":4694:4975   */\n    tag_102:\n        /* \"#utility.yul\":4777:4804   */\n      tag_164\n        /* \"#utility.yul\":4799:4803   */\n      dup3\n        /* \"#utility.yul\":4777:4804   */\n      tag_85\n      jump\t// in\n    tag_164:\n        /* \"#utility.yul\":4769:4775   */\n      dup2\n        /* \"#utility.yul\":4765:4805   */\n      add\n        /* \"#utility.yul\":4907:4913   */\n      dup2\n        /* \"#utility.yul\":4895:4905   */\n      dup2\n        /* \"#utility.yul\":4892:4914   */\n      lt\n        /* \"#utility.yul\":4871:4889   */\n      0xffffffffffffffff\n        /* \"#utility.yul\":4859:4869   */\n      dup3\n        /* \"#utility.yul\":4856:4890   */\n      gt\n        /* \"#utility.yul\":4853:4915   */\n      or\n        /* \"#utility.yul\":4850:4938   */\n      iszero\n      tag_165\n      jumpi\n        /* \"#utility.yul\":4918:4936   */\n      tag_166\n      tag_101\n      jump\t// in\n    tag_166:\n        /* \"#utility.yul\":4850:4938   */\n    tag_165:\n        /* \"#utility.yul\":4958:4968   */\n      dup1\n        /* \"#utility.yul\":4954:4956   */\n      0x40\n        /* \"#utility.yul\":4947:4969   */\n      mstore\n        /* \"#utility.yul\":4737:4975   */\n      pop\n        /* \"#utility.yul\":4694:4975   */\n      pop\n      pop\n      jump\t// out\n        /* \"#utility.yul\":4981:5110   */\n    tag_103:\n        /* \"#utility.yul\":5015:5021   */\n      0x00\n        /* \"#utility.yul\":5042:5062   */\n      tag_168\n      tag_93\n      jump\t// in\n    tag_168:\n        /* \"#utility.yul\":5032:5062   */\n      swap1\n      pop\n        /* \"#utility.yul\":5071:5104   */\n      tag_169\n        /* \"#utility.yul\":5099:5103   */\n      dup3\n        /* \"#utility.yul\":5091:5097   */\n      dup3\n        /* \"#utility.yul\":5071:5104   */\n      tag_102\n      jump\t// in\n    tag_169:\n        /* \"#utility.yul\":4981:5110   */\n      swap2\n      swap1\n      pop\n      jump\t// out\n        /* \"#utility.yul\":5116:5424   */\n    tag_104:\n        /* \"#utility.yul\":5178:5182   */\n      0x00\n        /* \"#utility.yul\":5268:5286   */\n      0xffffffffffffffff\n        /* \"#utility.yul\":5260:5266   */\n      dup3\n        /* \"#utility.yul\":5257:5287   */\n      gt\n        /* \"#utility.yul\":5254:5310   */\n      iszero\n      tag_171\n      jumpi\n        /* \"#utility.yul\":5290:5308   */\n      tag_172\n      tag_101\n      jump\t// in\n    tag_172:\n        /* \"#utility.yul\":5254:5310   */\n    tag_171:\n        /* \"#utility.yul\":5328:5357   */\n      tag_173\n        /* \"#utility.yul\":5350:5356   */\n      dup3\n        /* \"#utility.yul\":5328:5357   */\n      tag_85\n      jump\t// in\n    tag_173:\n        /* \"#utility.yul\":5320:5357   */\n      swap1\n      pop\n        /* \"#utility.yul\":5412:5416   */\n      0x20\n        /* \"#utility.yul\":5406:5410   */\n      dup2\n        /* \"#utility.yul\":5402:5417   */\n      add\n        /* \"#utility.yul\":5394:5417   */\n      swap1\n      pop\n        /* \"#utility.yul\":5116:5424   */\n      swap2\n      swap1\n      pop\n      jump\t// out\n        /* \"#utility.yul\":5430:5584   */\n    tag_105:\n        /* \"#utility.yul\":5514:5520   */\n      dup3\n        /* \"#utility.yul\":5509:5512   */\n      dup2\n        /* \"#utility.yul\":5504:5507   */\n      dup4\n        /* \"#utility.yul\":5491:5521   */\n      calldatacopy\n        /* \"#utility.yul\":5576:5577   */\n      0x00\n        /* \"#utility.yul\":5567:5573   */\n      dup4\n        /* \"#utility.yul\":5562:5565   */\n      dup4\n        /* \"#utility.yul\":5558:5574   */\n      add\n        /* \"#utility.yul\":5551:5578   */\n      mstore\n        /* \"#utility.yul\":5430:5584   */\n      pop\n      pop\n      pop\n      jump\t// out\n        /* \"#utility.yul\":5590:6002   */\n    tag_106:\n        /* \"#utility.yul\":5668:5673   */\n      0x00\n        /* \"#utility.yul\":5693:5759   */\n      tag_176\n        /* \"#utility.yul\":5709:5758   */\n      tag_177\n        /* \"#utility.yul\":5751:5757   */\n      dup5\n        /* \"#utility.yul\":5709:5758   */\n      tag_104\n      jump\t// in\n    tag_177:\n        /* \"#utility.yul\":5693:5759   */\n      tag_103\n      jump\t// in\n    tag_176:\n        /* \"#utility.yul\":5684:5759   */\n      swap1\n      pop\n        /* \"#utility.yul\":5782:5788   */\n      dup3\n        /* \"#utility.yul\":5775:5780   */\n      dup2\n        /* \"#utility.yul\":5768:5789   */\n      mstore\n        /* \"#utility.yul\":5820:5824   */\n      0x20\n        /* \"#utility.yul\":5813:5818   */\n      dup2\n        /* \"#utility.yul\":5809:5825   */\n      add\n        /* \"#utility.yul\":5858:5861   */\n      dup5\n        /* \"#utility.yul\":5849:5855   */\n      dup5\n        /* \"#utility.yul\":5844:5847   */\n      dup5\n        /* \"#utility.yul\":5840:5856   */\n      add\n        /* \"#utility.yul\":5837:5862   */\n      gt\n        /* \"#utility.yul\":5834:5946   */\n      iszero\n      tag_178\n      jumpi\n        /* \"#utility.yul\":5865:5944   */\n      tag_179\n      tag_100\n      jump\t// in\n    tag_179:\n        /* \"#utility.yul\":5834:5946   */\n    tag_178:\n        /* \"#utility.yul\":5955:5996   */\n      tag_180\n        /* \"#utility.yul\":5989:5995   */\n      dup5\n        /* \"#utility.yul\":5984:5987   */\n      dup3\n        /* \"#utility.yul\":5979:5982   */\n      dup6\n        /* \"#utility.yul\":5955:5996   */\n      tag_105\n      jump\t// in\n    tag_180:\n        /* \"#utility.yul\":5674:6002   */\n      pop\n        /* \"#utility.yul\":5590:6002   */\n      swap4\n      swap3\n      pop\n      pop\n      pop\n      jump\t// out\n        /* \"#utility.yul\":6022:6362   */\n    tag_107:\n        /* \"#utility.yul\":6078:6083   */\n      0x00\n        /* \"#utility.yul\":6127:6130   */\n      dup3\n        /* \"#utility.yul\":6120:6124   */\n      0x1f\n        /* \"#utility.yul\":6112:6118   */\n      dup4\n        /* \"#utility.yul\":6108:6125   */\n      add\n        /* \"#utility.yul\":6104:6131   */\n      slt\n        /* \"#utility.yul\":6094:6216   */\n      tag_182\n      jumpi\n        /* \"#utility.yul\":6135:6214   */\n      tag_183\n      tag_99\n      jump\t// in\n    tag_183:\n        /* \"#utility.yul\":6094:6216   */\n    tag_182:\n        /* \"#utility.yul\":6252:6258   */\n      dup2\n        /* \"#utility.yul\":6239:6259   */\n      calldataload\n        /* \"#utility.yul\":6277:6356   */\n      tag_184\n        /* \"#utility.yul\":6352:6355   */\n      dup5\n        /* \"#utility.yul\":6344:6350   */\n      dup3\n        /* \"#utility.yul\":6337:6341   */\n      0x20\n        /* \"#utility.yul\":6329:6335   */\n      dup7\n        /* \"#utility.yul\":6325:6342   */\n      add\n        /* \"#utility.yul\":6277:6356   */\n      tag_106\n      jump\t// in\n    tag_184:\n        /* \"#utility.yul\":6268:6356   */\n      swap2\n      pop\n        /* \"#utility.yul\":6084:6362   */\n      pop\n        /* \"#utility.yul\":6022:6362   */\n      swap3\n      swap2\n      pop\n      pop\n      jump\t// out\n        /* \"#utility.yul\":6368:6877   */\n    tag_23:\n        /* \"#utility.yul\":6437:6443   */\n      0x00\n        /* \"#utility.yul\":6486:6488   */\n      0x20\n        /* \"#utility.yul\":6474:6483   */\n      dup3\n        /* \"#utility.yul\":6465:6472   */\n      dup5\n        /* \"#utility.yul\":6461:6484   */\n      sub\n        /* \"#utility.yul\":6457:6489   */\n      slt\n        /* \"#utility.yul\":6454:6573   */\n      iszero\n      tag_186\n      jumpi\n        /* \"#utility.yul\":6492:6571   */\n      tag_187\n      tag_94\n      jump\t// in\n    tag_187:\n        /* \"#utility.yul\":6454:6573   */\n    tag_186:\n        /* \"#utility.yul\":6640:6641   */\n      0x00\n        /* \"#utility.yul\":6629:6638   */\n      dup3\n        /* \"#utility.yul\":6625:6642   */\n      add\n        /* \"#utility.yul\":6612:6643   */\n      calldataload\n        /* \"#utility.yul\":6670:6688   */\n      0xffffffffffffffff\n        /* \"#utility.yul\":6662:6668   */\n      dup2\n        /* \"#utility.yul\":6659:6689   */\n      gt\n        /* \"#utility.yul\":6656:6773   */\n      iszero\n      tag_188\n      jumpi\n        /* \"#utility.yul\":6692:6771   */\n      tag_189\n      tag_95\n      jump\t// in\n    tag_189:\n        /* \"#utility.yul\":6656:6773   */\n    tag_188:\n        /* \"#utility.yul\":6797:6860   */\n      tag_190\n        /* \"#utility.yul\":6852:6859   */\n      dup5\n        /* \"#utility.yul\":6843:6849   */\n      dup3\n        /* \"#utility.yul\":6832:6841   */\n      dup6\n        /* \"#utility.yul\":6828:6850   */\n      add\n        /* \"#utility.yul\":6797:6860   */\n      tag_107\n      jump\t// in\n    tag_190:\n        /* \"#utility.yul\":6787:6860   */\n      swap2\n      pop\n        /* \"#utility.yul\":6583:6870   */\n      pop\n        /* \"#utility.yul\":6368:6877   */\n      swap3\n      swap2\n      pop\n      pop\n      jump\t// out\n        /* \"#utility.yul\":6883:7537   */\n    tag_27:\n        /* \"#utility.yul\":6961:6967   */\n      0x00\n        /* \"#utility.yul\":6969:6975   */\n      dup1\n        /* \"#utility.yul\":7018:7020   */\n      0x40\n        /* \"#utility.yul\":7006:7015   */\n      dup4\n        /* \"#utility.yul\":6997:7004   */\n      dup6\n        /* \"#utility.yul\":6993:7016   */\n      sub\n        /* \"#utility.yul\":6989:7021   */\n      slt\n        /* \"#utility.yul\":6986:7105   */\n      iszero\n      tag_192\n      jumpi\n        /* \"#utility.yul\":7024:7103   */\n      tag_193\n      tag_94\n      jump\t// in\n    tag_193:\n        /* \"#utility.yul\":6986:7105   */\n    tag_192:\n        /* \"#utility.yul\":7172:7173   */\n      0x00\n        /* \"#utility.yul\":7161:7170   */\n      dup4\n        /* \"#utility.yul\":7157:7174   */\n      add\n        /* \"#utility.yul\":7144:7175   */\n      calldataload\n        /* \"#utility.yul\":7202:7220   */\n      0xffffffffffffffff\n        /* \"#utility.yul\":7194:7200   */\n      dup2\n        /* \"#utility.yul\":7191:7221   */\n      gt\n        /* \"#utility.yul\":7188:7305   */\n      iszero\n      tag_194\n      jumpi\n        /* \"#utility.yul\":7224:7303   */\n      tag_195\n      tag_95\n      jump\t// in\n    tag_195:\n        /* \"#utility.yul\":7188:7305   */\n    tag_194:\n        /* \"#utility.yul\":7329:7392   */\n      tag_196\n        /* \"#utility.yul\":7384:7391   */\n      dup6\n        /* \"#utility.yul\":7375:7381   */\n      dup3\n        /* \"#utility.yul\":7364:7373   */\n      dup7\n        /* \"#utility.yul\":7360:7382   */\n      add\n        /* \"#utility.yul\":7329:7392   */\n      tag_107\n      jump\t// in\n    tag_196:\n        /* \"#utility.yul\":7319:7392   */\n      swap3\n      pop\n        /* \"#utility.yul\":7115:7402   */\n      pop\n        /* \"#utility.yul\":7441:7443   */\n      0x20\n        /* \"#utility.yul\":7467:7520   */\n      tag_197\n        /* \"#utility.yul\":7512:7519   */\n      dup6\n        /* \"#utility.yul\":7503:7509   */\n      dup3\n        /* \"#utility.yul\":7492:7501   */\n      dup7\n        /* \"#utility.yul\":7488:7510   */\n      add\n        /* \"#utility.yul\":7467:7520   */\n      tag_97\n      jump\t// in\n    tag_197:\n        /* \"#utility.yul\":7457:7520   */\n      swap2\n      pop\n        /* \"#utility.yul\":7412:7530   */\n      pop\n        /* \"#utility.yul\":6883:7537   */\n      swap3\n      pop\n      swap3\n      swap1\n      pop\n      jump\t// out\n        /* \"#utility.yul\":7543:7872   */\n    tag_32:\n        /* \"#utility.yul\":7602:7608   */\n      0x00\n        /* \"#utility.yul\":7651:7653   */\n      0x20\n        /* \"#utility.yul\":7639:7648   */\n      dup3\n        /* \"#utility.yul\":7630:7637   */\n      dup5\n        /* \"#utility.yul\":7626:7649   */\n      sub\n        /* \"#utility.yul\":7622:7654   */\n      slt\n        /* \"#utility.yul\":7619:7738   */\n      iszero\n      tag_199\n      jumpi\n        /* \"#utility.yul\":7657:7736   */\n      tag_200\n      tag_94\n      jump\t// in\n    tag_200:\n        /* \"#utility.yul\":7619:7738   */\n    tag_199:\n        /* \"#utility.yul\":7777:7778   */\n      0x00\n        /* \"#utility.yul\":7802:7855   */\n      tag_201\n        /* \"#utility.yul\":7847:7854   */\n      dup5\n        /* \"#utility.yul\":7838:7844   */\n      dup3\n        /* \"#utility.yul\":7827:7836   */\n      dup6\n        /* \"#utility.yul\":7823:7845   */\n      add\n        /* \"#utility.yul\":7802:7855   */\n      tag_97\n      jump\t// in\n    tag_201:\n        /* \"#utility.yul\":7792:7855   */\n      swap2\n      pop\n        /* \"#utility.yul\":7748:7865   */\n      pop\n        /* \"#utility.yul\":7543:7872   */\n      swap3\n      swap2\n      pop\n      pop\n      jump\t// out\n        /* \"#utility.yul\":7878:8047   */\n    tag_108:\n        /* \"#utility.yul\":7962:7973   */\n      0x00\n        /* \"#utility.yul\":7996:8002   */\n      dup3\n        /* \"#utility.yul\":7991:7994   */\n      dup3\n        /* \"#utility.yul\":7984:8003   */\n      mstore\n        /* \"#utility.yul\":8036:8040   */\n      0x20\n        /* \"#utility.yul\":8031:8034   */\n      dup3\n        /* \"#utility.yul\":8027:8041   */\n      add\n        /* \"#utility.yul\":8012:8041   */\n      swap1\n      pop\n        /* \"#utility.yul\":7878:8047   */\n      swap3\n      swap2\n      pop\n      pop\n      jump\t// out\n        /* \"#utility.yul\":8053:8417   */\n    tag_109:\n        /* \"#utility.yul\":8141:8144   */\n      0x00\n        /* \"#utility.yul\":8169:8208   */\n      tag_204\n        /* \"#utility.yul\":8202:8207   */\n      dup3\n        /* \"#utility.yul\":8169:8208   */\n      tag_82\n      jump\t// in\n    tag_204:\n        /* \"#utility.yul\":8224:8295   */\n      tag_205\n        /* \"#utility.yul\":8288:8294   */\n      dup2\n        /* \"#utility.yul\":8283:8286   */\n      dup6\n        /* \"#utility.yul\":8224:8295   */\n      tag_108\n      jump\t// in\n    tag_205:\n        /* \"#utility.yul\":8217:8295   */\n      swap4\n      pop\n        /* \"#utility.yul\":8304:8356   */\n      tag_206\n        /* \"#utility.yul\":8349:8355   */\n      dup2\n        /* \"#utility.yul\":8344:8347   */\n      dup6\n        /* \"#utility.yul\":8337:8341   */\n      0x20\n        /* \"#utility.yul\":8330:8335   */\n      dup7\n        /* \"#utility.yul\":8326:8342   */\n      add\n        /* \"#utility.yul\":8304:8356   */\n      tag_84\n      jump\t// in\n    tag_206:\n        /* \"#utility.yul\":8381:8410   */\n      tag_207\n        /* \"#utility.yul\":8403:8409   */\n      dup2\n        /* \"#utility.yul\":8381:8410   */\n      tag_85\n      jump\t// in\n    tag_207:\n        /* \"#utility.yul\":8376:8379   */\n      dup5\n        /* \"#utility.yul\":8372:8411   */\n      add\n        /* \"#utility.yul\":8365:8411   */\n      swap2\n      pop\n        /* \"#utility.yul\":8145:8417   */\n      pop\n        /* \"#utility.yul\":8053:8417   */\n      swap3\n      swap2\n      pop\n      pop\n      jump\t// out\n        /* \"#utility.yul\":8423:8736   */\n    tag_40:\n        /* \"#utility.yul\":8536:8540   */\n      0x00\n        /* \"#utility.yul\":8574:8576   */\n      0x20\n        /* \"#utility.yul\":8563:8572   */\n      dup3\n        /* \"#utility.yul\":8559:8577   */\n      add\n        /* \"#utility.yul\":8551:8577   */\n      swap1\n      pop\n        /* \"#utility.yul\":8623:8632   */\n      dup2\n        /* \"#utility.yul\":8617:8621   */\n      dup2\n        /* \"#utility.yul\":8613:8633   */\n      sub\n        /* \"#utility.yul\":8609:8610   */\n      0x00\n        /* \"#utility.yul\":8598:8607   */\n      dup4\n        /* \"#utility.yul\":8594:8611   */\n      add\n        /* \"#utility.yul\":8587:8634   */\n      mstore\n        /* \"#utility.yul\":8651:8729   */\n      tag_209\n        /* \"#utility.yul\":8724:8728   */\n      dup2\n        /* \"#utility.yul\":8715:8721   */\n      dup5\n        /* \"#utility.yul\":8651:8729   */\n      tag_109\n      jump\t// in\n    tag_209:\n        /* \"#utility.yul\":8643:8729   */\n      swap1\n      pop\n        /* \"#utility.yul\":8423:8736   */\n      swap3\n      swap2\n      pop\n      pop\n      jump\t// out\n        /* \"#utility.yul\":8742:8922   */\n    tag_110:\n        /* \"#utility.yul\":8790:8867   */\n      0x4e487b7100000000000000000000000000000000000000000000000000000000\n        /* \"#utility.yul\":8787:8788   */\n      0x00\n        /* \"#utility.yul\":8780:8868   */\n      mstore\n        /* \"#utility.yul\":8887:8891   */\n      0x22\n        /* \"#utility.yul\":8884:8885   */\n      0x04\n        /* \"#utility.yul\":8877:8892   */\n      mstore\n        /* \"#utility.yul\":8911:8915   */\n      0x24\n        /* \"#utility.yul\":8908:8909   */\n      0x00\n        /* \"#utility.yul\":8901:8916   */\n      revert\n        /* \"#utility.yul\":8928:9248   */\n    tag_45:\n        /* \"#utility.yul\":8972:8978   */\n      0x00\n        /* \"#utility.yul\":9009:9010   */\n      0x02\n        /* \"#utility.yul\":9003:9007   */\n      dup3\n        /* \"#utility.yul\":8999:9011   */\n      div\n        /* \"#utility.yul\":8989:9011   */\n      swap1\n      pop\n        /* \"#utility.yul\":9056:9057   */\n      0x01\n        /* \"#utility.yul\":9050:9054   */\n      dup3\n        /* \"#utility.yul\":9046:9058   */\n      and\n        /* \"#utility.yul\":9077:9095   */\n      dup1\n        /* \"#utility.yul\":9067:9148   */\n      tag_212\n      jumpi\n        /* \"#utility.yul\":9133:9137   */\n      0x7f\n        /* \"#utility.yul\":9125:9131   */\n      dup3\n        /* \"#utility.yul\":9121:9138   */\n      and\n        /* \"#utility.yul\":9111:9138   */\n      swap2\n      pop\n        /* \"#utility.yul\":9067:9148   */\n    tag_212:\n        /* \"#utility.yul\":9195:9197   */\n      0x20\n        /* \"#utility.yul\":9187:9193   */\n      dup3\n        /* \"#utility.yul\":9184:9198   */\n      lt\n        /* \"#utility.yul\":9164:9182   */\n      dup2\n        /* \"#utility.yul\":9161:9199   */\n      sub\n        /* \"#utility.yul\":9158:9242   */\n      tag_213\n      jumpi\n        /* \"#utility.yul\":9214:9232   */\n      tag_214\n      tag_110\n      jump\t// in\n    tag_214:\n        /* \"#utility.yul\":9158:9242   */\n    tag_213:\n        /* \"#utility.yul\":8979:9248   */\n      pop\n        /* \"#utility.yul\":8928:9248   */\n      swap2\n      swap1\n      pop\n      jump\t// out\n        /* \"#utility.yul\":9254:9434   */\n    tag_111:\n        /* \"#utility.yul\":9302:9379   */\n      0x4e487b7100000000000000000000000000000000000000000000000000000000\n        /* \"#utility.yul\":9299:9300   */\n      0x00\n        /* \"#utility.yul\":9292:9380   */\n      mstore\n        /* \"#utility.yul\":9399:9403   */\n      0x11\n        /* \"#utility.yul\":9396:9397   */\n      0x04\n        /* \"#utility.yul\":9389:9404   */\n      mstore\n        /* \"#utility.yul\":9423:9427   */\n      0x24\n        /* \"#utility.yul\":9420:9421   */\n      0x00\n        /* \"#utility.yul\":9413:9428   */\n      revert\n        /* \"#utility.yul\":9440:9542   */\n    tag_112:\n        /* \"#utility.yul\":9482:9490   */\n      0x00\n        /* \"#utility.yul\":9529:9534   */\n      dup2\n        /* \"#utility.yul\":9526:9527   */\n      0x01\n        /* \"#utility.yul\":9522:9535   */\n      shr\n        /* \"#utility.yul\":9501:9535   */\n      swap1\n      pop\n        /* \"#utility.yul\":9440:9542   */\n      swap2\n      swap1\n      pop\n      jump\t// out\n        /* \"#utility.yul\":9548:10396   */\n    tag_113:\n        /* \"#utility.yul\":9609:9614   */\n      0x00\n        /* \"#utility.yul\":9616:9620   */\n      dup1\n        /* \"#utility.yul\":9640:9646   */\n      dup3\n        /* \"#utility.yul\":9631:9646   */\n      swap2\n      pop\n        /* \"#utility.yul\":9664:9669   */\n      dup4\n        /* \"#utility.yul\":9655:9669   */\n      swap1\n      pop\n        /* \"#utility.yul\":9678:10390   */\n    tag_218:\n        /* \"#utility.yul\":9699:9700   */\n      0x01\n        /* \"#utility.yul\":9689:9697   */\n      dup6\n        /* \"#utility.yul\":9686:9701   */\n      gt\n        /* \"#utility.yul\":9678:10390   */\n      iszero\n      tag_220\n      jumpi\n        /* \"#utility.yul\":9794:9798   */\n      dup1\n        /* \"#utility.yul\":9789:9792   */\n      dup7\n        /* \"#utility.yul\":9785:9799   */\n      div\n        /* \"#utility.yul\":9779:9783   */\n      dup2\n        /* \"#utility.yul\":9776:9800   */\n      gt\n        /* \"#utility.yul\":9773:9823   */\n      iszero\n      tag_221\n      jumpi\n        /* \"#utility.yul\":9803:9821   */\n      tag_222\n      tag_111\n      jump\t// in\n    tag_222:\n        /* \"#utility.yul\":9773:9823   */\n    tag_221:\n        /* \"#utility.yul\":9853:9854   */\n      0x01\n        /* \"#utility.yul\":9843:9851   */\n      dup6\n        /* \"#utility.yul\":9839:9855   */\n      and\n        /* \"#utility.yul\":9836:10287   */\n      iszero\n      tag_223\n      jumpi\n        /* \"#utility.yul\":10268:10272   */\n      dup1\n        /* \"#utility.yul\":10261:10266   */\n      dup3\n        /* \"#utility.yul\":10257:10273   */\n      mul\n        /* \"#utility.yul\":10248:10273   */\n      swap2\n      pop\n        /* \"#utility.yul\":9836:10287   */\n    tag_223:\n        /* \"#utility.yul\":10318:10322   */\n      dup1\n        /* \"#utility.yul\":10312:10316   */\n      dup2\n        /* \"#utility.yul\":10308:10323   */\n      mul\n        /* \"#utility.yul\":10300:10323   */\n      swap1\n      pop\n        /* \"#utility.yul\":10348:10380   */\n      tag_224\n        /* \"#utility.yul\":10371:10379   */\n      dup6\n        /* \"#utility.yul\":10348:10380   */\n      tag_112\n      jump\t// in\n    tag_224:\n        /* \"#utility.yul\":10336:10380   */\n      swap5\n      pop\n        /* \"#utility.yul\":9678:10390   */\n      jump(tag_218)\n    tag_220:\n        /* \"#utility.yul\":9548:10396   */\n      swap5\n      pop\n      swap5\n      swap3\n      pop\n      pop\n      pop\n      jump\t// out\n        /* \"#utility.yul\":10402:11475   */\n    tag_114:\n        /* \"#utility.yul\":10456:10461   */\n      0x00\n        /* \"#utility.yul\":10647:10655   */\n      dup3\n        /* \"#utility.yul\":10637:10677   */\n      tag_226\n      jumpi\n        /* \"#utility.yul\":10668:10669   */\n      0x01\n        /* \"#utility.yul\":10659:10669   */\n      swap1\n      pop\n        /* \"#utility.yul\":10670:10675   */\n      jump(tag_225)\n        /* \"#utility.yul\":10637:10677   */\n    tag_226:\n        /* \"#utility.yul\":10696:10700   */\n      dup2\n        /* \"#utility.yul\":10686:10722   */\n      tag_227\n      jumpi\n        /* \"#utility.yul\":10713:10714   */\n      0x00\n        /* \"#utility.yul\":10704:10714   */\n      swap1\n      pop\n        /* \"#utility.yul\":10715:10720   */\n      jump(tag_225)\n        /* \"#utility.yul\":10686:10722   */\n    tag_227:\n        /* \"#utility.yul\":10782:10786   */\n      dup2\n        /* \"#utility.yul\":10830:10831   */\n      0x01\n        /* \"#utility.yul\":10825:10852   */\n      dup2\n      eq\n      tag_229\n      jumpi\n        /* \"#utility.yul\":10866:10867   */\n      0x02\n        /* \"#utility.yul\":10861:11052   */\n      dup2\n      eq\n      tag_230\n      jumpi\n        /* \"#utility.yul\":10775:11052   */\n      jump(tag_228)\n        /* \"#utility.yul\":10825:10852   */\n    tag_229:\n        /* \"#utility.yul\":10843:10844   */\n      0x01\n        /* \"#utility.yul\":10834:10844   */\n      swap2\n      pop\n        /* \"#utility.yul\":10845:10850   */\n      pop\n      jump(tag_225)\n        /* \"#utility.yul\":10861:11052   */\n    tag_230:\n        /* \"#utility.yul\":10906:10909   */\n      0xff\n        /* \"#utility.yul\":10896:10904   */\n      dup5\n        /* \"#utility.yul\":10893:10910   */\n      gt\n        /* \"#utility.yul\":10890:10933   */\n      iszero\n      tag_231\n      jumpi\n        /* \"#utility.yul\":10913:10931   */\n      tag_232\n      tag_111\n      jump\t// in\n    tag_232:\n        /* \"#utility.yul\":10890:10933   */\n    tag_231:\n        /* \"#utility.yul\":10962:10970   */\n      dup4\n        /* \"#utility.yul\":10959:10960   */\n      0x02\n        /* \"#utility.yul\":10955:10971   */\n      exp\n        /* \"#utility.yul\":10946:10971   */\n      swap2\n      pop\n        /* \"#utility.yul\":10997:11000   */\n      dup5\n        /* \"#utility.yul\":10990:10995   */\n      dup3\n        /* \"#utility.yul\":10987:11001   */\n      gt\n        /* \"#utility.yul\":10984:11024   */\n      iszero\n      tag_233\n      jumpi\n        /* \"#utility.yul\":11004:11022   */\n      tag_234\n      tag_111\n      jump\t// in\n    tag_234:\n        /* \"#utility.yul\":10984:11024   */\n    tag_233:\n        /* \"#utility.yul\":11037:11042   */\n      pop\n      jump(tag_225)\n        /* \"#utility.yul\":10775:11052   */\n    tag_228:\n      pop\n        /* \"#utility.yul\":11161:11163   */\n      0x20\n        /* \"#utility.yul\":11151:11159   */\n      dup4\n        /* \"#utility.yul\":11148:11164   */\n      lt\n        /* \"#utility.yul\":11142:11145   */\n      0x0133\n        /* \"#utility.yul\":11136:11140   */\n      dup4\n        /* \"#utility.yul\":11133:11146   */\n      lt\n        /* \"#utility.yul\":11129:11165   */\n      and\n        /* \"#utility.yul\":11111:11113   */\n      0x4e\n        /* \"#utility.yul\":11101:11109   */\n      dup5\n        /* \"#utility.yul\":11098:11114   */\n      lt\n        /* \"#utility.yul\":11093:11095   */\n      0x0b\n        /* \"#utility.yul\":11087:11091   */\n      dup5\n        /* \"#utility.yul\":11084:11096   */\n      lt\n        /* \"#utility.yul\":11080:11115   */\n      and\n        /* \"#utility.yul\":11064:11175   */\n      or\n        /* \"#utility.yul\":11061:11307   */\n      iszero\n      tag_235\n      jumpi\n        /* \"#utility.yul\":11217:11225   */\n      dup3\n        /* \"#utility.yul\":11211:11215   */\n      dup3\n        /* \"#utility.yul\":11207:11226   */\n      exp\n        /* \"#utility.yul\":11198:11226   */\n      swap1\n      pop\n        /* \"#utility.yul\":11252:11255   */\n      dup4\n        /* \"#utility.yul\":11245:11250   */\n      dup2\n        /* \"#utility.yul\":11242:11256   */\n      gt\n        /* \"#utility.yul\":11239:11279   */\n      iszero\n      tag_236\n      jumpi\n        /* \"#utility.yul\":11259:11277   */\n      tag_237\n      tag_111\n      jump\t// in\n    tag_237:\n        /* \"#utility.yul\":11239:11279   */\n    tag_236:\n        /* \"#utility.yul\":11292:11297   */\n      jump(tag_225)\n        /* \"#utility.yul\":11061:11307   */\n    tag_235:\n        /* \"#utility.yul\":11332:11374   */\n      tag_238\n        /* \"#utility.yul\":11370:11373   */\n      dup5\n        /* \"#utility.yul\":11360:11368   */\n      dup5\n        /* \"#utility.yul\":11354:11358   */\n      dup5\n        /* \"#utility.yul\":11351:11352   */\n      0x01\n        /* \"#utility.yul\":11332:11374   */\n      tag_113\n      jump\t// in\n    tag_238:\n        /* \"#utility.yul\":11317:11374   */\n      swap3\n      pop\n      swap1\n      pop\n        /* \"#utility.yul\":11406:11410   */\n      dup2\n        /* \"#utility.yul\":11401:11404   */\n      dup5\n        /* \"#utility.yul\":11397:11411   */\n      div\n        /* \"#utility.yul\":11390:11395   */\n      dup2\n        /* \"#utility.yul\":11387:11412   */\n      gt\n        /* \"#utility.yul\":11384:11435   */\n      iszero\n      tag_239\n      jumpi\n        /* \"#utility.yul\":11415:11433   */\n      tag_240\n      tag_111\n      jump\t// in\n    tag_240:\n        /* \"#utility.yul\":11384:11435   */\n    tag_239:\n        /* \"#utility.yul\":11464:11468   */\n      dup2\n        /* \"#utility.yul\":11457:11462   */\n      dup2\n        /* \"#utility.yul\":11453:11469   */\n      mul\n        /* \"#utility.yul\":11444:11469   */\n      swap1\n      pop\n        /* \"#utility.yul\":10402:11475   */\n    tag_225:\n      swap4\n      swap3\n      pop\n      pop\n      pop\n      jump\t// out\n        /* \"#utility.yul\":11481:11766   */\n    tag_52:\n        /* \"#utility.yul\":11541:11546   */\n      0x00\n        /* \"#utility.yul\":11565:11588   */\n      tag_242\n        /* \"#utility.yul\":11583:11587   */\n      dup3\n        /* \"#utility.yul\":11565:11588   */\n      tag_90\n      jump\t// in\n    tag_242:\n        /* \"#utility.yul\":11557:11588   */\n      swap2\n      pop\n        /* \"#utility.yul\":11609:11636   */\n      tag_243\n        /* \"#utility.yul\":11627:11635   */\n      dup4\n        /* \"#utility.yul\":11609:11636   */\n      tag_90\n      jump\t// in\n    tag_243:\n        /* \"#utility.yul\":11597:11636   */\n      swap3\n      pop\n        /* \"#utility.yul\":11655:11759   */\n      tag_244\n        /* \"#utility.yul\":11692:11758   */\n      0xffffffffffffffffffffffffffffffffffffffffffffffffffffffffffffffff\n        /* \"#utility.yul\":11682:11690   */\n      dup5\n        /* \"#utility.yul\":11676:11680   */\n      dup5\n        /* \"#utility.yul\":11655:11759   */\n      tag_114\n      jump\t// in\n    tag_244:\n        /* \"#utility.yul\":11646:11759   */\n      swap1\n      pop\n        /* \"#utility.yul\":11481:11766   */\n      swap3\n      swap2\n      pop\n      pop\n      jump\t// out\n        /* \"#utility.yul\":11772:12077   */\n    tag_61:\n        /* \"#utility.yul\":11812:11815   */\n      0x00\n        /* \"#utility.yul\":11831:11851   */\n      tag_246\n        /* \"#utility.yul\":11849:11850   */\n      dup3\n        /* \"#utility.yul\":11831:11851   */\n      tag_90\n      jump\t// in\n    tag_246:\n        /* \"#utility.yul\":11826:11851   */\n      swap2\n      pop\n        /* \"#utility.yul\":11865:11885   */\n      tag_247\n        /* \"#utility.yul\":11883:11884   */\n      dup4\n        /* \"#utility.yul\":11865:11885   */\n      tag_90\n      jump\t// in\n    tag_247:\n        /* \"#utility.yul\":11860:11885   */\n      swap3\n      pop\n        /* \"#utility.yul\":12019:12020   */\n      dup3\n        /* \"#utility.yul\":11951:12017   */\n      0xffffffffffffffffffffffffffffffffffffffffffffffffffffffffffffffff\n        /* \"#utility.yul\":11947:12021   */\n      sub\n        /* \"#utility.yul\":11944:11945   */\n      dup3\n        /* \"#utility.yul\":11941:12022   */\n      gt\n        /* \"#utility.yul\":11938:12045   */\n      iszero\n      tag_248\n      jumpi\n        /* \"#utility.yul\":12025:12043   */\n      tag_249\n      tag_111\n      jump\t// in\n    tag_249:\n        /* \"#utility.yul\":11938:12045   */\n    tag_248:\n        /* \"#utility.yul\":12069:12070   */\n      dup3\n        /* \"#utility.yul\":12066:12067   */\n      dup3\n        /* \"#utility.yul\":12062:12071   */\n      add\n        /* \"#utility.yul\":12055:12071   */\n      swap1\n      pop\n        /* \"#utility.yul\":11772:12077   */\n      swap3\n      swap2\n      pop\n      pop\n      jump\t// out\n        /* \"#utility.yul\":12083:12263   */\n    tag_65:\n        /* \"#utility.yul\":12131:12208   */\n      0x4e487b7100000000000000000000000000000000000000000000000000000000\n        /* \"#utility.yul\":12128:12129   */\n      0x00\n        /* \"#utility.yul\":12121:12209   */\n      mstore\n        /* \"#utility.yul\":12228:12232   */\n      0x32\n        /* \"#utility.yul\":12225:12226   */\n      0x04\n        /* \"#utility.yul\":12218:12233   */\n      mstore\n        /* \"#utility.yul\":12252:12256   */\n      0x24\n        /* \"#utility.yul\":12249:12250   */\n      0x00\n        /* \"#utility.yul\":12242:12257   */\n      revert\n\n    auxdata: 0xa26469706673582212207d2c2120042f1831ed9657562b8909d6adddbc881f5b9aaef2e852492edb179c64736f6c634300080d0033\n}\n",
				"bytecode": {
					"linkReferences": {},
					"object": "6080604052600a60015534801561001557600080fd5b50610cf5806100256000396000f3fe6080604052600436106100555760003560e01c80632ed245841461005a5780638a1999e214610085578063a8e12a66146100c2578063ce574a6d146100eb578063df94c33714610107578063eea91dd414610144575b600080fd5b34801561006657600080fd5b5061006f610181565b60405161007c91906106ee565b60405180910390f35b34801561009157600080fd5b506100ac60048036038101906100a79190610750565b6102ca565b6040516100b9919061079f565b60405180910390f35b3480156100ce57600080fd5b506100e960048036038101906100e491906108ef565b6102e0565b005b61010560048036038101906101009190610938565b61031f565b005b34801561011357600080fd5b5061012e60048036038101906101299190610994565b61040a565b60405161013b919061079f565b60405180910390f35b34801561015057600080fd5b5061016b60048036038101906101669190610994565b610421565b6040516101789190610a0b565b60405180910390f35b6101896104d1565b600260003373ffffffffffffffffffffffffffffffffffffffff1673ffffffffffffffffffffffffffffffffffffffff1681526020019081526020016000206040518060600160405290816000820180546101e390610a5c565b80601f016020809104026020016040519081016040528092919081815260200182805461020f90610a5c565b801561025c5780601f106102315761010080835404028352916020019161025c565b820191906000526020600020905b81548152906001019060200180831161023f57829003601f168201915b505050505081526020016001820160009054906101000a900473ffffffffffffffffffffffffffffffffffffffff1673ffffffffffffffffffffffffffffffffffffffff1673ffffffffffffffffffffffffffffffffffffffff168152602001600282015481525050905090565b600081836102d89190610bef565b905092915050565b60008190806001815401808255809150506001900390600052602060002001600090919091909150908051906020019061031b929190610508565b5050565b600060405180606001604052808481526020013373ffffffffffffffffffffffffffffffffffffffff16815260200183815250905080600260003373ffffffffffffffffffffffffffffffffffffffff1673ffffffffffffffffffffffffffffffffffffffff16815260200190815260200160002060008201518160000190805190602001906103b0929190610508565b5060208201518160010160006101000a81548173ffffffffffffffffffffffffffffffffffffffff021916908373ffffffffffffffffffffffffffffffffffffffff16021790555060408201518160020155905050505050565b60008160015461041a9190610c3a565b9050919050565b60606000828154811061043757610436610c90565b5b90600052602060002001805461044c90610a5c565b80601f016020809104026020016040519081016040528092919081815260200182805461047890610a5c565b80156104c55780601f1061049a576101008083540402835291602001916104c5565b820191906000526020600020905b8154815290600101906020018083116104a857829003601f168201915b50505050509050919050565b604051806060016040528060608152602001600073ffffffffffffffffffffffffffffffffffffffff168152602001600081525090565b82805461051490610a5c565b90600052602060002090601f016020900481019282610536576000855561057d565b82601f1061054f57805160ff191683800117855561057d565b8280016001018555821561057d579182015b8281111561057c578251825591602001919060010190610561565b5b50905061058a919061058e565b5090565b5b808211156105a757600081600090555060010161058f565b5090565b600081519050919050565b600082825260208201905092915050565b60005b838110156105e55780820151818401526020810190506105ca565b838111156105f4576000848401525b50505050565b6000601f19601f8301169050919050565b6000610616826105ab565b61062081856105b6565b93506106308185602086016105c7565b610639816105fa565b840191505092915050565b600073ffffffffffffffffffffffffffffffffffffffff82169050919050565b600061066f82610644565b9050919050565b61067f81610664565b82525050565b6000819050919050565b61069881610685565b82525050565b600060608301600083015184820360008601526106bb828261060b565b91505060208301516106d06020860182610676565b5060408301516106e3604086018261068f565b508091505092915050565b60006020820190508181036000830152610708818461069e565b905092915050565b6000604051905090565b600080fd5b600080fd5b61072d81610685565b811461073857600080fd5b50565b60008135905061074a81610724565b92915050565b600080604083850312156107675761076661071a565b5b60006107758582860161073b565b92505060206107868582860161073b565b9150509250929050565b61079981610685565b82525050565b60006020820190506107b46000830184610790565b92915050565b600080fd5b600080fd5b7f4e487b7100000000000000000000000000000000000000000000000000000000600052604160045260246000fd5b6107fc826105fa565b810181811067ffffffffffffffff8211171561081b5761081a6107c4565b5b80604052505050565b600061082e610710565b905061083a82826107f3565b919050565b600067ffffffffffffffff82111561085a576108596107c4565b5b610863826105fa565b9050602081019050919050565b82818337600083830152505050565b600061089261088d8461083f565b610824565b9050828152602081018484840111156108ae576108ad6107bf565b5b6108b9848285610870565b509392505050565b600082601f8301126108d6576108d56107ba565b5b81356108e684826020860161087f565b91505092915050565b6000602082840312156109055761090461071a565b5b600082013567ffffffffffffffff8111156109235761092261071f565b5b61092f848285016108c1565b91505092915050565b6000806040838503121561094f5761094e61071a565b5b600083013567ffffffffffffffff81111561096d5761096c61071f565b5b610979858286016108c1565b925050602061098a8582860161073b565b9150509250929050565b6000602082840312156109aa576109a961071a565b5b60006109b88482850161073b565b91505092915050565b600082825260208201905092915050565b60006109dd826105ab565b6109e781856109c1565b93506109f78185602086016105c7565b610a00816105fa565b840191505092915050565b60006020820190508181036000830152610a2581846109d2565b905092915050565b7f4e487b7100000000000000000000000000000000000000000000000000000000600052602260045260246000fd5b60006002820490506001821680610a7457607f821691505b602082108103610a8757610a86610a2d565b5b50919050565b7f4e487b7100000000000000000000000000000000000000000000000000000000600052601160045260246000fd5b60008160011c9050919050565b6000808291508390505b6001851115610b1357808604811115610aef57610aee610a8d565b5b6001851615610afe5780820291505b8081029050610b0c85610abc565b9450610ad3565b94509492505050565b600082610b2c5760019050610be8565b81610b3a5760009050610be8565b8160018114610b505760028114610b5a57610b89565b6001915050610be8565b60ff841115610b6c57610b6b610a8d565b5b8360020a915084821115610b8357610b82610a8d565b5b50610be8565b5060208310610133831016604e8410600b8410161715610bbe5782820a905083811115610bb957610bb8610a8d565b5b610be8565b610bcb8484846001610ac9565b92509050818404811115610be257610be1610a8d565b5b81810290505b9392505050565b6000610bfa82610685565b9150610c0583610685565b9250610c327fffffffffffffffffffffffffffffffffffffffffffffffffffffffffffffffff8484610b1c565b905092915050565b6000610c4582610685565b9150610c5083610685565b9250827fffffffffffffffffffffffffffffffffffffffffffffffffffffffffffffffff03821115610c8557610c84610a8d565b5b828201905092915050565b7f4e487b7100000000000000000000000000000000000000000000000000000000600052603260045260246000fdfea26469706673582212207d2c2120042f1831ed9657562b8909d6adddbc881f5b9aaef2e852492edb179c64736f6c634300080d0033",
					"opcodes": "PUSH1 0x80 PUSH1 0x40 MSTORE PUSH1 0xA PUSH1 0x1 SSTORE CALLVALUE DUP1 ISZERO PUSH2 0x15 JUMPI PUSH1 0x0 DUP1 REVERT JUMPDEST POP PUSH2 0xCF5 DUP1 PUSH2 0x25 PUSH1 0x0 CODECOPY PUSH1 0x0 RETURN INVALID PUSH1 0x80 PUSH1 0x40 MSTORE PUSH1 0x4 CALLDATASIZE LT PUSH2 0x55 JUMPI PUSH1 0x0 CALLDATALOAD PUSH1 0xE0 SHR DUP1 PUSH4 0x2ED24584 EQ PUSH2 0x5A JUMPI DUP1 PUSH4 0x8A1999E2 EQ PUSH2 0x85 JUMPI DUP1 PUSH4 0xA8E12A66 EQ PUSH2 0xC2 JUMPI DUP1 PUSH4 0xCE574A6D EQ PUSH2 0xEB JUMPI DUP1 PUSH4 0xDF94C337 EQ PUSH2 0x107 JUMPI DUP1 PUSH4 0xEEA91DD4 EQ PUSH2 0x144 JUMPI JUMPDEST PUSH1 0x0 DUP1 REVERT JUMPDEST CALLVALUE DUP1 ISZERO PUSH2 0x66 JUMPI PUSH1 0x0 DUP1 REVERT JUMPDEST POP PUSH2 0x6F PUSH2 0x181 JUMP JUMPDEST PUSH1 0x40 MLOAD PUSH2 0x7C SWAP2 SWAP1 PUSH2 0x6EE JUMP JUMPDEST PUSH1 0x40 MLOAD DUP1 SWAP2 SUB SWAP1 RETURN JUMPDEST CALLVALUE DUP1 ISZERO PUSH2 0x91 JUMPI PUSH1 0x0 DUP1 REVERT JUMPDEST POP PUSH2 0xAC PUSH1 0x4 DUP1 CALLDATASIZE SUB DUP2 ADD SWAP1 PUSH2 0xA7 SWAP2 SWAP1 PUSH2 0x750 JUMP JUMPDEST PUSH2 0x2CA JUMP JUMPDEST PUSH1 0x40 MLOAD PUSH2 0xB9 SWAP2 SWAP1 PUSH2 0x79F JUMP JUMPDEST PUSH1 0x40 MLOAD DUP1 SWAP2 SUB SWAP1 RETURN JUMPDEST CALLVALUE DUP1 ISZERO PUSH2 0xCE JUMPI PUSH1 0x0 DUP1 REVERT JUMPDEST POP PUSH2 0xE9 PUSH1 0x4 DUP1 CALLDATASIZE SUB DUP2 ADD SWAP1 PUSH2 0xE4 SWAP2 SWAP1 PUSH2 0x8EF JUMP JUMPDEST PUSH2 0x2E0 JUMP JUMPDEST STOP JUMPDEST PUSH2 0x105 PUSH1 0x4 DUP1 CALLDATASIZE SUB DUP2 ADD SWAP1 PUSH2 0x100 SWAP2 SWAP1 PUSH2 0x938 JUMP JUMPDEST PUSH2 0x31F JUMP JUMPDEST STOP JUMPDEST CALLVALUE DUP1 ISZERO PUSH2 0x113 JUMPI PUSH1 0x0 DUP1 REVERT JUMPDEST POP PUSH2 0x12E PUSH1 0x4 DUP1 CALLDATASIZE SUB DUP2 ADD SWAP1 PUSH2 0x129 SWAP2 SWAP1 PUSH2 0x994 JUMP JUMPDEST PUSH2 0x40A JUMP JUMPDEST PUSH1 0x40 MLOAD PUSH2 0x13B SWAP2 SWAP1 PUSH2 0x79F JUMP JUMPDEST PUSH1 0x40 MLOAD DUP1 SWAP2 SUB SWAP1 RETURN JUMPDEST CALLVALUE DUP1 ISZERO PUSH2 0x150 JUMPI PUSH1 0x0 DUP1 REVERT JUMPDEST POP PUSH2 0x16B PUSH1 0x4 DUP1 CALLDATASIZE SUB DUP2 ADD SWAP1 PUSH2 0x166 SWAP2 SWAP1 PUSH2 0x994 JUMP JUMPDEST PUSH2 0x421 JUMP JUMPDEST PUSH1 0x40 MLOAD PUSH2 0x178 SWAP2 SWAP1 PUSH2 0xA0B JUMP JUMPDEST PUSH1 0x40 MLOAD DUP1 SWAP2 SUB SWAP1 RETURN JUMPDEST PUSH2 0x189 PUSH2 0x4D1 JUMP JUMPDEST PUSH1 0x2 PUSH1 0x0 CALLER PUSH20 0xFFFFFFFFFFFFFFFFFFFFFFFFFFFFFFFFFFFFFFFF AND PUSH20 0xFFFFFFFFFFFFFFFFFFFFFFFFFFFFFFFFFFFFFFFF AND DUP2 MSTORE PUSH1 0x20 ADD SWAP1 DUP2 MSTORE PUSH1 0x20 ADD PUSH1 0x0 KECCAK256 PUSH1 0x40 MLOAD DUP1 PUSH1 0x60 ADD PUSH1 0x40 MSTORE SWAP1 DUP2 PUSH1 0x0 DUP3 ADD DUP1 SLOAD PUSH2 0x1E3 SWAP1 PUSH2 0xA5C JUMP JUMPDEST DUP1 PUSH1 0x1F ADD PUSH1 0x20 DUP1 SWAP2 DIV MUL PUSH1 0x20 ADD PUSH1 0x40 MLOAD SWAP1 DUP2 ADD PUSH1 0x40 MSTORE DUP1 SWAP3 SWAP2 SWAP1 DUP2 DUP2 MSTORE PUSH1 0x20 ADD DUP3 DUP1 SLOAD PUSH2 0x20F SWAP1 PUSH2 0xA5C JUMP JUMPDEST DUP1 ISZERO PUSH2 0x25C JUMPI DUP1 PUSH1 0x1F LT PUSH2 0x231 JUMPI PUSH2 0x100 DUP1 DUP4 SLOAD DIV MUL DUP4 MSTORE SWAP2 PUSH1 0x20 ADD SWAP2 PUSH2 0x25C JUMP JUMPDEST DUP3 ADD SWAP2 SWAP1 PUSH1 0x0 MSTORE PUSH1 0x20 PUSH1 0x0 KECCAK256 SWAP1 JUMPDEST DUP2 SLOAD DUP2 MSTORE SWAP1 PUSH1 0x1 ADD SWAP1 PUSH1 0x20 ADD DUP1 DUP4 GT PUSH2 0x23F JUMPI DUP3 SWAP1 SUB PUSH1 0x1F AND DUP3 ADD SWAP2 JUMPDEST POP POP POP POP POP DUP2 MSTORE PUSH1 0x20 ADD PUSH1 0x1 DUP3 ADD PUSH1 0x0 SWAP1 SLOAD SWAP1 PUSH2 0x100 EXP SWAP1 DIV PUSH20 0xFFFFFFFFFFFFFFFFFFFFFFFFFFFFFFFFFFFFFFFF AND PUSH20 0xFFFFFFFFFFFFFFFFFFFFFFFFFFFFFFFFFFFFFFFF AND PUSH20 0xFFFFFFFFFFFFFFFFFFFFFFFFFFFFFFFFFFFFFFFF AND DUP2 MSTORE PUSH1 0x20 ADD PUSH1 0x2 DUP3 ADD SLOAD DUP2 MSTORE POP POP SWAP1 POP SWAP1 JUMP JUMPDEST PUSH1 0x0 DUP2 DUP4 PUSH2 0x2D8 SWAP2 SWAP1 PUSH2 0xBEF JUMP JUMPDEST SWAP1 POP SWAP3 SWAP2 POP POP JUMP JUMPDEST PUSH1 0x0 DUP2 SWAP1 DUP1 PUSH1 0x1 DUP2 SLOAD ADD DUP1 DUP3 SSTORE DUP1 SWAP2 POP POP PUSH1 0x1 SWAP1 SUB SWAP1 PUSH1 0x0 MSTORE PUSH1 0x20 PUSH1 0x0 KECCAK256 ADD PUSH1 0x0 SWAP1 SWAP2 SWAP1 SWAP2 SWAP1 SWAP2 POP SWAP1 DUP1 MLOAD SWAP1 PUSH1 0x20 ADD SWAP1 PUSH2 0x31B SWAP3 SWAP2 SWAP1 PUSH2 0x508 JUMP JUMPDEST POP POP JUMP JUMPDEST PUSH1 0x0 PUSH1 0x40 MLOAD DUP1 PUSH1 0x60 ADD PUSH1 0x40 MSTORE DUP1 DUP5 DUP2 MSTORE PUSH1 0x20 ADD CALLER PUSH20 0xFFFFFFFFFFFFFFFFFFFFFFFFFFFFFFFFFFFFFFFF AND DUP2 MSTORE PUSH1 0x20 ADD DUP4 DUP2 MSTORE POP SWAP1 POP DUP1 PUSH1 0x2 PUSH1 0x0 CALLER PUSH20 0xFFFFFFFFFFFFFFFFFFFFFFFFFFFFFFFFFFFFFFFF AND PUSH20 0xFFFFFFFFFFFFFFFFFFFFFFFFFFFFFFFFFFFFFFFF AND DUP2 MSTORE PUSH1 0x20 ADD SWAP1 DUP2 MSTORE PUSH1 0x20 ADD PUSH1 0x0 KECCAK256 PUSH1 0x0 DUP3 ADD MLOAD DUP2 PUSH1 0x0 ADD SWAP1 DUP1 MLOAD SWAP1 PUSH1 0x20 ADD SWAP1 PUSH2 0x3B0 SWAP3 SWAP2 SWAP1 PUSH2 0x508 JUMP JUMPDEST POP PUSH1 0x20 DUP3 ADD MLOAD DUP2 PUSH1 0x1 ADD PUSH1 0x0 PUSH2 0x100 EXP DUP2 SLOAD DUP2 PUSH20 0xFFFFFFFFFFFFFFFFFFFFFFFFFFFFFFFFFFFFFFFF MUL NOT AND SWAP1 DUP4 PUSH20 0xFFFFFFFFFFFFFFFFFFFFFFFFFFFFFFFFFFFFFFFF AND MUL OR SWAP1 SSTORE POP PUSH1 0x40 DUP3 ADD MLOAD DUP2 PUSH1 0x2 ADD SSTORE SWAP1 POP POP POP POP POP JUMP JUMPDEST PUSH1 0x0 DUP2 PUSH1 0x1 SLOAD PUSH2 0x41A SWAP2 SWAP1 PUSH2 0xC3A JUMP JUMPDEST SWAP1 POP SWAP2 SWAP1 POP JUMP JUMPDEST PUSH1 0x60 PUSH1 0x0 DUP3 DUP2 SLOAD DUP2 LT PUSH2 0x437 JUMPI PUSH2 0x436 PUSH2 0xC90 JUMP JUMPDEST JUMPDEST SWAP1 PUSH1 0x0 MSTORE PUSH1 0x20 PUSH1 0x0 KECCAK256 ADD DUP1 SLOAD PUSH2 0x44C SWAP1 PUSH2 0xA5C JUMP JUMPDEST DUP1 PUSH1 0x1F ADD PUSH1 0x20 DUP1 SWAP2 DIV MUL PUSH1 0x20 ADD PUSH1 0x40 MLOAD SWAP1 DUP2 ADD PUSH1 0x40 MSTORE DUP1 SWAP3 SWAP2 SWAP1 DUP2 DUP2 MSTORE PUSH1 0x20 ADD DUP3 DUP1 SLOAD PUSH2 0x478 SWAP1 PUSH2 0xA5C JUMP JUMPDEST DUP1 ISZERO PUSH2 0x4C5 JUMPI DUP1 PUSH1 0x1F LT PUSH2 0x49A JUMPI PUSH2 0x100 DUP1 DUP4 SLOAD DIV MUL DUP4 MSTORE SWAP2 PUSH1 0x20 ADD SWAP2 PUSH2 0x4C5 JUMP JUMPDEST DUP3 ADD SWAP2 SWAP1 PUSH1 0x0 MSTORE PUSH1 0x20 PUSH1 0x0 KECCAK256 SWAP1 JUMPDEST DUP2 SLOAD DUP2 MSTORE SWAP1 PUSH1 0x1 ADD SWAP1 PUSH1 0x20 ADD DUP1 DUP4 GT PUSH2 0x4A8 JUMPI DUP3 SWAP1 SUB PUSH1 0x1F AND DUP3 ADD SWAP2 JUMPDEST POP POP POP POP POP SWAP1 POP SWAP2 SWAP1 POP JUMP JUMPDEST PUSH1 0x40 MLOAD DUP1 PUSH1 0x60 ADD PUSH1 0x40 MSTORE DUP1 PUSH1 0x60 DUP2 MSTORE PUSH1 0x20 ADD PUSH1 0x0 PUSH20 0xFFFFFFFFFFFFFFFFFFFFFFFFFFFFFFFFFFFFFFFF AND DUP2 MSTORE PUSH1 0x20 ADD PUSH1 0x0 DUP2 MSTORE POP SWAP1 JUMP JUMPDEST DUP3 DUP1 SLOAD PUSH2 0x514 SWAP1 PUSH2 0xA5C JUMP JUMPDEST SWAP1 PUSH1 0x0 MSTORE PUSH1 0x20 PUSH1 0x0 KECCAK256 SWAP1 PUSH1 0x1F ADD PUSH1 0x20 SWAP1 DIV DUP2 ADD SWAP3 DUP3 PUSH2 0x536 JUMPI PUSH1 0x0 DUP6 SSTORE PUSH2 0x57D JUMP JUMPDEST DUP3 PUSH1 0x1F LT PUSH2 0x54F JUMPI DUP1 MLOAD PUSH1 0xFF NOT AND DUP4 DUP1 ADD OR DUP6 SSTORE PUSH2 0x57D JUMP JUMPDEST DUP3 DUP1 ADD PUSH1 0x1 ADD DUP6 SSTORE DUP3 ISZERO PUSH2 0x57D JUMPI SWAP2 DUP3 ADD JUMPDEST DUP3 DUP2 GT ISZERO PUSH2 0x57C JUMPI DUP3 MLOAD DUP3 SSTORE SWAP2 PUSH1 0x20 ADD SWAP2 SWAP1 PUSH1 0x1 ADD SWAP1 PUSH2 0x561 JUMP JUMPDEST JUMPDEST POP SWAP1 POP PUSH2 0x58A SWAP2 SWAP1 PUSH2 0x58E JUMP JUMPDEST POP SWAP1 JUMP JUMPDEST JUMPDEST DUP1 DUP3 GT ISZERO PUSH2 0x5A7 JUMPI PUSH1 0x0 DUP2 PUSH1 0x0 SWAP1 SSTORE POP PUSH1 0x1 ADD PUSH2 0x58F JUMP JUMPDEST POP SWAP1 JUMP JUMPDEST PUSH1 0x0 DUP2 MLOAD SWAP1 POP SWAP2 SWAP1 POP JUMP JUMPDEST PUSH1 0x0 DUP3 DUP3 MSTORE PUSH1 0x20 DUP3 ADD SWAP1 POP SWAP3 SWAP2 POP POP JUMP JUMPDEST PUSH1 0x0 JUMPDEST DUP4 DUP2 LT ISZERO PUSH2 0x5E5 JUMPI DUP1 DUP3 ADD MLOAD DUP2 DUP5 ADD MSTORE PUSH1 0x20 DUP2 ADD SWAP1 POP PUSH2 0x5CA JUMP JUMPDEST DUP4 DUP2 GT ISZERO PUSH2 0x5F4 JUMPI PUSH1 0x0 DUP5 DUP5 ADD MSTORE JUMPDEST POP POP POP POP JUMP JUMPDEST PUSH1 0x0 PUSH1 0x1F NOT PUSH1 0x1F DUP4 ADD AND SWAP1 POP SWAP2 SWAP1 POP JUMP JUMPDEST PUSH1 0x0 PUSH2 0x616 DUP3 PUSH2 0x5AB JUMP JUMPDEST PUSH2 0x620 DUP2 DUP6 PUSH2 0x5B6 JUMP JUMPDEST SWAP4 POP PUSH2 0x630 DUP2 DUP6 PUSH1 0x20 DUP7 ADD PUSH2 0x5C7 JUMP JUMPDEST PUSH2 0x639 DUP2 PUSH2 0x5FA JUMP JUMPDEST DUP5 ADD SWAP2 POP POP SWAP3 SWAP2 POP POP JUMP JUMPDEST PUSH1 0x0 PUSH20 0xFFFFFFFFFFFFFFFFFFFFFFFFFFFFFFFFFFFFFFFF DUP3 AND SWAP1 POP SWAP2 SWAP1 POP JUMP JUMPDEST PUSH1 0x0 PUSH2 0x66F DUP3 PUSH2 0x644 JUMP JUMPDEST SWAP1 POP SWAP2 SWAP1 POP JUMP JUMPDEST PUSH2 0x67F DUP2 PUSH2 0x664 JUMP JUMPDEST DUP3 MSTORE POP POP JUMP JUMPDEST PUSH1 0x0 DUP2 SWAP1 POP SWAP2 SWAP1 POP JUMP JUMPDEST PUSH2 0x698 DUP2 PUSH2 0x685 JUMP JUMPDEST DUP3 MSTORE POP POP JUMP JUMPDEST PUSH1 0x0 PUSH1 0x60 DUP4 ADD PUSH1 0x0 DUP4 ADD MLOAD DUP5 DUP3 SUB PUSH1 0x0 DUP7 ADD MSTORE PUSH2 0x6BB DUP3 DUP3 PUSH2 0x60B JUMP JUMPDEST SWAP2 POP POP PUSH1 0x20 DUP4 ADD MLOAD PUSH2 0x6D0 PUSH1 0x20 DUP7 ADD DUP3 PUSH2 0x676 JUMP JUMPDEST POP PUSH1 0x40 DUP4 ADD MLOAD PUSH2 0x6E3 PUSH1 0x40 DUP7 ADD DUP3 PUSH2 0x68F JUMP JUMPDEST POP DUP1 SWAP2 POP POP SWAP3 SWAP2 POP POP JUMP JUMPDEST PUSH1 0x0 PUSH1 0x20 DUP3 ADD SWAP1 POP DUP2 DUP2 SUB PUSH1 0x0 DUP4 ADD MSTORE PUSH2 0x708 DUP2 DUP5 PUSH2 0x69E JUMP JUMPDEST SWAP1 POP SWAP3 SWAP2 POP POP JUMP JUMPDEST PUSH1 0x0 PUSH1 0x40 MLOAD SWAP1 POP SWAP1 JUMP JUMPDEST PUSH1 0x0 DUP1 REVERT JUMPDEST PUSH1 0x0 DUP1 REVERT JUMPDEST PUSH2 0x72D DUP2 PUSH2 0x685 JUMP JUMPDEST DUP2 EQ PUSH2 0x738 JUMPI PUSH1 0x0 DUP1 REVERT JUMPDEST POP JUMP JUMPDEST PUSH1 0x0 DUP2 CALLDATALOAD SWAP1 POP PUSH2 0x74A DUP2 PUSH2 0x724 JUMP JUMPDEST SWAP3 SWAP2 POP POP JUMP JUMPDEST PUSH1 0x0 DUP1 PUSH1 0x40 DUP4 DUP6 SUB SLT ISZERO PUSH2 0x767 JUMPI PUSH2 0x766 PUSH2 0x71A JUMP JUMPDEST JUMPDEST PUSH1 0x0 PUSH2 0x775 DUP6 DUP3 DUP7 ADD PUSH2 0x73B JUMP JUMPDEST SWAP3 POP POP PUSH1 0x20 PUSH2 0x786 DUP6 DUP3 DUP7 ADD PUSH2 0x73B JUMP JUMPDEST SWAP2 POP POP SWAP3 POP SWAP3 SWAP1 POP JUMP JUMPDEST PUSH2 0x799 DUP2 PUSH2 0x685 JUMP JUMPDEST DUP3 MSTORE POP POP JUMP JUMPDEST PUSH1 0x0 PUSH1 0x20 DUP3 ADD SWAP1 POP PUSH2 0x7B4 PUSH1 0x0 DUP4 ADD DUP5 PUSH2 0x790 JUMP JUMPDEST SWAP3 SWAP2 POP POP JUMP JUMPDEST PUSH1 0x0 DUP1 REVERT JUMPDEST PUSH1 0x0 DUP1 REVERT JUMPDEST PUSH32 0x4E487B7100000000000000000000000000000000000000000000000000000000 PUSH1 0x0 MSTORE PUSH1 0x41 PUSH1 0x4 MSTORE PUSH1 0x24 PUSH1 0x0 REVERT JUMPDEST PUSH2 0x7FC DUP3 PUSH2 0x5FA JUMP JUMPDEST DUP2 ADD DUP2 DUP2 LT PUSH8 0xFFFFFFFFFFFFFFFF DUP3 GT OR ISZERO PUSH2 0x81B JUMPI PUSH2 0x81A PUSH2 0x7C4 JUMP JUMPDEST JUMPDEST DUP1 PUSH1 0x40 MSTORE POP POP POP JUMP JUMPDEST PUSH1 0x0 PUSH2 0x82E PUSH2 0x710 JUMP JUMPDEST SWAP1 POP PUSH2 0x83A DUP3 DUP3 PUSH2 0x7F3 JUMP JUMPDEST SWAP2 SWAP1 POP JUMP JUMPDEST PUSH1 0x0 PUSH8 0xFFFFFFFFFFFFFFFF DUP3 GT ISZERO PUSH2 0x85A JUMPI PUSH2 0x859 PUSH2 0x7C4 JUMP JUMPDEST JUMPDEST PUSH2 0x863 DUP3 PUSH2 0x5FA JUMP JUMPDEST SWAP1 POP PUSH1 0x20 DUP2 ADD SWAP1 POP SWAP2 SWAP1 POP JUMP JUMPDEST DUP3 DUP2 DUP4 CALLDATACOPY PUSH1 0x0 DUP4 DUP4 ADD MSTORE POP POP POP JUMP JUMPDEST PUSH1 0x0 PUSH2 0x892 PUSH2 0x88D DUP5 PUSH2 0x83F JUMP JUMPDEST PUSH2 0x824 JUMP JUMPDEST SWAP1 POP DUP3 DUP2 MSTORE PUSH1 0x20 DUP2 ADD DUP5 DUP5 DUP5 ADD GT ISZERO PUSH2 0x8AE JUMPI PUSH2 0x8AD PUSH2 0x7BF JUMP JUMPDEST JUMPDEST PUSH2 0x8B9 DUP5 DUP3 DUP6 PUSH2 0x870 JUMP JUMPDEST POP SWAP4 SWAP3 POP POP POP JUMP JUMPDEST PUSH1 0x0 DUP3 PUSH1 0x1F DUP4 ADD SLT PUSH2 0x8D6 JUMPI PUSH2 0x8D5 PUSH2 0x7BA JUMP JUMPDEST JUMPDEST DUP2 CALLDATALOAD PUSH2 0x8E6 DUP5 DUP3 PUSH1 0x20 DUP7 ADD PUSH2 0x87F JUMP JUMPDEST SWAP2 POP POP SWAP3 SWAP2 POP POP JUMP JUMPDEST PUSH1 0x0 PUSH1 0x20 DUP3 DUP5 SUB SLT ISZERO PUSH2 0x905 JUMPI PUSH2 0x904 PUSH2 0x71A JUMP JUMPDEST JUMPDEST PUSH1 0x0 DUP3 ADD CALLDATALOAD PUSH8 0xFFFFFFFFFFFFFFFF DUP2 GT ISZERO PUSH2 0x923 JUMPI PUSH2 0x922 PUSH2 0x71F JUMP JUMPDEST JUMPDEST PUSH2 0x92F DUP5 DUP3 DUP6 ADD PUSH2 0x8C1 JUMP JUMPDEST SWAP2 POP POP SWAP3 SWAP2 POP POP JUMP JUMPDEST PUSH1 0x0 DUP1 PUSH1 0x40 DUP4 DUP6 SUB SLT ISZERO PUSH2 0x94F JUMPI PUSH2 0x94E PUSH2 0x71A JUMP JUMPDEST JUMPDEST PUSH1 0x0 DUP4 ADD CALLDATALOAD PUSH8 0xFFFFFFFFFFFFFFFF DUP2 GT ISZERO PUSH2 0x96D JUMPI PUSH2 0x96C PUSH2 0x71F JUMP JUMPDEST JUMPDEST PUSH2 0x979 DUP6 DUP3 DUP7 ADD PUSH2 0x8C1 JUMP JUMPDEST SWAP3 POP POP PUSH1 0x20 PUSH2 0x98A DUP6 DUP3 DUP7 ADD PUSH2 0x73B JUMP JUMPDEST SWAP2 POP POP SWAP3 POP SWAP3 SWAP1 POP JUMP JUMPDEST PUSH1 0x0 PUSH1 0x20 DUP3 DUP5 SUB SLT ISZERO PUSH2 0x9AA JUMPI PUSH2 0x9A9 PUSH2 0x71A JUMP JUMPDEST JUMPDEST PUSH1 0x0 PUSH2 0x9B8 DUP5 DUP3 DUP6 ADD PUSH2 0x73B JUMP JUMPDEST SWAP2 POP POP SWAP3 SWAP2 POP POP JUMP JUMPDEST PUSH1 0x0 DUP3 DUP3 MSTORE PUSH1 0x20 DUP3 ADD SWAP1 POP SWAP3 SWAP2 POP POP JUMP JUMPDEST PUSH1 0x0 PUSH2 0x9DD DUP3 PUSH2 0x5AB JUMP JUMPDEST PUSH2 0x9E7 DUP2 DUP6 PUSH2 0x9C1 JUMP JUMPDEST SWAP4 POP PUSH2 0x9F7 DUP2 DUP6 PUSH1 0x20 DUP7 ADD PUSH2 0x5C7 JUMP JUMPDEST PUSH2 0xA00 DUP2 PUSH2 0x5FA JUMP JUMPDEST DUP5 ADD SWAP2 POP POP SWAP3 SWAP2 POP POP JUMP JUMPDEST PUSH1 0x0 PUSH1 0x20 DUP3 ADD SWAP1 POP DUP2 DUP2 SUB PUSH1 0x0 DUP4 ADD MSTORE PUSH2 0xA25 DUP2 DUP5 PUSH2 0x9D2 JUMP JUMPDEST SWAP1 POP SWAP3 SWAP2 POP POP JUMP JUMPDEST PUSH32 0x4E487B7100000000000000000000000000000000000000000000000000000000 PUSH1 0x0 MSTORE PUSH1 0x22 PUSH1 0x4 MSTORE PUSH1 0x24 PUSH1 0x0 REVERT JUMPDEST PUSH1 0x0 PUSH1 0x2 DUP3 DIV SWAP1 POP PUSH1 0x1 DUP3 AND DUP1 PUSH2 0xA74 JUMPI PUSH1 0x7F DUP3 AND SWAP2 POP JUMPDEST PUSH1 0x20 DUP3 LT DUP2 SUB PUSH2 0xA87 JUMPI PUSH2 0xA86 PUSH2 0xA2D JUMP JUMPDEST JUMPDEST POP SWAP2 SWAP1 POP JUMP JUMPDEST PUSH32 0x4E487B7100000000000000000000000000000000000000000000000000000000 PUSH1 0x0 MSTORE PUSH1 0x11 PUSH1 0x4 MSTORE PUSH1 0x24 PUSH1 0x0 REVERT JUMPDEST PUSH1 0x0 DUP2 PUSH1 0x1 SHR SWAP1 POP SWAP2 SWAP1 POP JUMP JUMPDEST PUSH1 0x0 DUP1 DUP3 SWAP2 POP DUP4 SWAP1 POP JUMPDEST PUSH1 0x1 DUP6 GT ISZERO PUSH2 0xB13 JUMPI DUP1 DUP7 DIV DUP2 GT ISZERO PUSH2 0xAEF JUMPI PUSH2 0xAEE PUSH2 0xA8D JUMP JUMPDEST JUMPDEST PUSH1 0x1 DUP6 AND ISZERO PUSH2 0xAFE JUMPI DUP1 DUP3 MUL SWAP2 POP JUMPDEST DUP1 DUP2 MUL SWAP1 POP PUSH2 0xB0C DUP6 PUSH2 0xABC JUMP JUMPDEST SWAP5 POP PUSH2 0xAD3 JUMP JUMPDEST SWAP5 POP SWAP5 SWAP3 POP POP POP JUMP JUMPDEST PUSH1 0x0 DUP3 PUSH2 0xB2C JUMPI PUSH1 0x1 SWAP1 POP PUSH2 0xBE8 JUMP JUMPDEST DUP2 PUSH2 0xB3A JUMPI PUSH1 0x0 SWAP1 POP PUSH2 0xBE8 JUMP JUMPDEST DUP2 PUSH1 0x1 DUP2 EQ PUSH2 0xB50 JUMPI PUSH1 0x2 DUP2 EQ PUSH2 0xB5A JUMPI PUSH2 0xB89 JUMP JUMPDEST PUSH1 0x1 SWAP2 POP POP PUSH2 0xBE8 JUMP JUMPDEST PUSH1 0xFF DUP5 GT ISZERO PUSH2 0xB6C JUMPI PUSH2 0xB6B PUSH2 0xA8D JUMP JUMPDEST JUMPDEST DUP4 PUSH1 0x2 EXP SWAP2 POP DUP5 DUP3 GT ISZERO PUSH2 0xB83 JUMPI PUSH2 0xB82 PUSH2 0xA8D JUMP JUMPDEST JUMPDEST POP PUSH2 0xBE8 JUMP JUMPDEST POP PUSH1 0x20 DUP4 LT PUSH2 0x133 DUP4 LT AND PUSH1 0x4E DUP5 LT PUSH1 0xB DUP5 LT AND OR ISZERO PUSH2 0xBBE JUMPI DUP3 DUP3 EXP SWAP1 POP DUP4 DUP2 GT ISZERO PUSH2 0xBB9 JUMPI PUSH2 0xBB8 PUSH2 0xA8D JUMP JUMPDEST JUMPDEST PUSH2 0xBE8 JUMP JUMPDEST PUSH2 0xBCB DUP5 DUP5 DUP5 PUSH1 0x1 PUSH2 0xAC9 JUMP JUMPDEST SWAP3 POP SWAP1 POP DUP2 DUP5 DIV DUP2 GT ISZERO PUSH2 0xBE2 JUMPI PUSH2 0xBE1 PUSH2 0xA8D JUMP JUMPDEST JUMPDEST DUP2 DUP2 MUL SWAP1 POP JUMPDEST SWAP4 SWAP3 POP POP POP JUMP JUMPDEST PUSH1 0x0 PUSH2 0xBFA DUP3 PUSH2 0x685 JUMP JUMPDEST SWAP2 POP PUSH2 0xC05 DUP4 PUSH2 0x685 JUMP JUMPDEST SWAP3 POP PUSH2 0xC32 PUSH32 0xFFFFFFFFFFFFFFFFFFFFFFFFFFFFFFFFFFFFFFFFFFFFFFFFFFFFFFFFFFFFFFFF DUP5 DUP5 PUSH2 0xB1C JUMP JUMPDEST SWAP1 POP SWAP3 SWAP2 POP POP JUMP JUMPDEST PUSH1 0x0 PUSH2 0xC45 DUP3 PUSH2 0x685 JUMP JUMPDEST SWAP2 POP PUSH2 0xC50 DUP4 PUSH2 0x685 JUMP JUMPDEST SWAP3 POP DUP3 PUSH32 0xFFFFFFFFFFFFFFFFFFFFFFFFFFFFFFFFFFFFFFFFFFFFFFFFFFFFFFFFFFFFFFFF SUB DUP3 GT ISZERO PUSH2 0xC85 JUMPI PUSH2 0xC84 PUSH2 0xA8D JUMP JUMPDEST JUMPDEST DUP3 DUP3 ADD SWAP1 POP SWAP3 SWAP2 POP POP JUMP JUMPDEST PUSH32 0x4E487B7100000000000000000000000000000000000000000000000000000000 PUSH1 0x0 MSTORE PUSH1 0x32 PUSH1 0x4 MSTORE PUSH1 0x24 PUSH1 0x0 REVERT INVALID LOG2 PUSH5 0x6970667358 0x22 SLT KECCAK256 PUSH30 0x2C2120042F1831ED9657562B8909D6ADDDBC881F5B9AAEF2E852492EDB17 SWAP13 PUSH5 0x736F6C6343 STOP ADDMOD 0xD STOP CALLER "
				},
				"gasEstimates": {
					"creation": {
						"codeDepositCost": "663400",
						"executionCost": "22802",
						"totalCost": "686202"
					},
					"external": {
						"exponenciacion(uint256,uint256)": "infinite",
						"nuevo_alumno(string)": "infinite",
						"pagar(string,uint256)": "infinite",
						"sumar(uint256)": "infinite",
						"verSaldo()": "infinite",
						"ver_alumno(uint256)": "infinite"
					}
				},
				"methodIdentifiers": {
					"exponenciacion(uint256,uint256)": "8a1999e2",
					"nuevo_alumno(string)": "a8e12a66",
					"pagar(string,uint256)": "ce574a6d",
					"sumar(uint256)": "df94c337",
					"verSaldo()": "2ed24584",
					"ver_alumno(uint256)": "eea91dd4"
				}
			},
			"storageLayout": {
				"storage": [
					{
						"astId": 5,
						"contract": "Funciones/modificadores.sol:view_pure_payable",
						"label": "lista_alumnos",
						"offset": 0,
						"slot": "0",
						"type": "t_array(t_string_storage)dyn_storage"
					},
					{
						"astId": 32,
						"contract": "Funciones/modificadores.sol:view_pure_payable",
						"label": "x",
						"offset": 0,
						"slot": "1",
						"type": "t_uint256"
					},
					{
						"astId": 63,
						"contract": "Funciones/modificadores.sol:view_pure_payable",
						"label": "saldoCartera",
						"offset": 0,
						"slot": "2",
						"type": "t_mapping(t_address,t_struct(Cartera)70_storage)"
					}
				],
				"types": {
					"t_address": {
						"encoding": "inplace",
						"label": "address",
						"numberOfBytes": "20"
					},
					"t_array(t_string_storage)dyn_storage": {
						"base": "t_string_storage",
						"encoding": "dynamic_array",
						"label": "string[]",
						"numberOfBytes": "32"
					},
					"t_mapping(t_address,t_struct(Cartera)70_storage)": {
						"encoding": "mapping",
						"key": "t_address",
						"label": "mapping(address => struct view_pure_payable.Cartera)",
						"numberOfBytes": "32",
						"value": "t_struct(Cartera)70_storage"
					},
					"t_string_storage": {
						"encoding": "bytes",
						"label": "string",
						"numberOfBytes": "32"
					},
					"t_struct(Cartera)70_storage": {
						"encoding": "inplace",
						"label": "struct view_pure_payable.Cartera",
						"members": [
							{
								"astId": 65,
								"contract": "Funciones/modificadores.sol:view_pure_payable",
								"label": "nombre",
								"offset": 0,
								"slot": "0",
								"type": "t_string_storage"
							},
							{
								"astId": 67,
								"contract": "Funciones/modificadores.sol:view_pure_payable",
								"label": "direccion",
								"offset": 0,
								"slot": "1",
								"type": "t_address"
							},
							{
								"astId": 69,
								"contract": "Funciones/modificadores.sol:view_pure_payable",
								"label": "saldo",
								"offset": 0,
								"slot": "2",
								"type": "t_uint256"
							}
						],
						"numberOfBytes": "96"
					},
					"t_uint256": {
						"encoding": "inplace",
						"label": "uint256",
						"numberOfBytes": "32"
					}
				}
			},
			"userdoc": {
				"kind": "user",
				"methods": {},
				"version": 1
			}
		}
	}
}