{
	"Funciones/returns.sol": {
		"ValoresDeRetorno": {
			"abi": [
				{
					"inputs": [
						{
							"internalType": "uint256",
							"name": "_a",
							"type": "uint256"
						},
						{
							"internalType": "uint256",
							"name": "_b",
							"type": "uint256"
						}
					],
					"name": "Multiplicacion",
					"outputs": [
						{
							"internalType": "uint256",
							"name": "",
							"type": "uint256"
						}
					],
					"stateMutability": "pure",
					"type": "function"
				},
				{
					"inputs": [
						{
							"internalType": "uint256",
							"name": "_a",
							"type": "uint256"
						},
						{
							"internalType": "uint256",
							"name": "_b",
							"type": "uint256"
						}
					],
					"name": "division",
					"outputs": [
						{
							"internalType": "uint256",
							"name": "",
							"type": "uint256"
						},
						{
							"internalType": "uint256",
							"name": "",
							"type": "uint256"
						},
						{
							"internalType": "bool",
							"name": "",
							"type": "bool"
						}
					],
					"stateMutability": "pure",
					"type": "function"
				},
				{
					"inputs": [],
					"name": "numeros",
					"outputs": [
						{
							"internalType": "uint256",
							"name": "",
							"type": "uint256"
						},
						{
							"internalType": "uint256",
							"name": "",
							"type": "uint256"
						},
						{
							"internalType": "uint256",
							"name": "",
							"type": "uint256"
						},
						{
							"internalType": "uint256",
							"name": "",
							"type": "uint256"
						},
						{
							"internalType": "uint256",
							"name": "",
							"type": "uint256"
						},
						{
							"internalType": "uint256",
							"name": "",
							"type": "uint256"
						}
					],
					"stateMutability": "pure",
					"type": "function"
				},
				{
					"inputs": [
						{
							"internalType": "uint256",
							"name": "_a",
							"type": "uint256"
						}
					],
					"name": "par_impar",
					"outputs": [
						{
							"internalType": "bool",
							"name": "",
							"type": "bool"
						}
					],
					"stateMutability": "pure",
					"type": "function"
				},
				{
					"inputs": [],
					"name": "saludos",
					"outputs": [
						{
							"internalType": "string",
							"name": "",
							"type": "string"
						}
					],
					"stateMutability": "pure",
					"type": "function"
				},
				{
					"inputs": [],
					"name": "todos_los_valores",
					"outputs": [
						{
							"internalType": "uint256",
							"name": "",
							"type": "uint256"
						},
						{
							"internalType": "uint256",
							"name": "",
							"type": "uint256"
						},
						{
							"internalType": "uint256",
							"name": "",
							"type": "uint256"
						},
						{
							"internalType": "uint256",
							"name": "",
							"type": "uint256"
						},
						{
							"internalType": "uint256",
							"name": "",
							"type": "uint256"
						},
						{
							"internalType": "uint256",
							"name": "",
							"type": "uint256"
						}
					],
					"stateMutability": "pure",
					"type": "function"
				},
				{
					"inputs": [],
					"name": "ultimo_valor",
					"outputs": [
						{
							"internalType": "uint256",
							"name": "",
							"type": "uint256"
						}
					],
					"stateMutability": "pure",
					"type": "function"
				}
			],
			"devdoc": {
				"kind": "dev",
				"methods": {},
				"version": 1
			},
			"evm": {
				"assembly": "    /* \"Funciones/returns.sol\":67:1952  contract ValoresDeRetorno{... */\n  mstore(0x40, 0x80)\n  callvalue\n  dup1\n  iszero\n  tag_1\n  jumpi\n  0x00\n  dup1\n  revert\ntag_1:\n  pop\n  dataSize(sub_0)\n  dup1\n  dataOffset(sub_0)\n  0x00\n  codecopy\n  0x00\n  return\nstop\n\nsub_0: assembly {\n        /* \"Funciones/returns.sol\":67:1952  contract ValoresDeRetorno{... */\n      mstore(0x40, 0x80)\n      callvalue\n      dup1\n      iszero\n      tag_1\n      jumpi\n      0x00\n      dup1\n      revert\n    tag_1:\n      pop\n      jumpi(tag_2, lt(calldatasize, 0x04))\n      shr(0xe0, calldataload(0x00))\n      dup1\n      0x703b3404\n      gt\n      tag_10\n      jumpi\n      dup1\n      0x703b3404\n      eq\n      tag_6\n      jumpi\n      dup1\n      0xc19af07c\n      eq\n      tag_7\n      jumpi\n      dup1\n      0xe0068052\n      eq\n      tag_8\n      jumpi\n      dup1\n      0xe664737c\n      eq\n      tag_9\n      jumpi\n      jump(tag_2)\n    tag_10:\n      dup1\n      0x16286a22\n      eq\n      tag_3\n      jumpi\n      dup1\n      0x1819f9c3\n      eq\n      tag_4\n      jumpi\n      dup1\n      0x4439c8c0\n      eq\n      tag_5\n      jumpi\n    tag_2:\n      0x00\n      dup1\n      revert\n        /* \"Funciones/returns.sol\":325:421  function Multiplicacion(uint _a, uint _b) public pure returns(uint){... */\n    tag_3:\n      tag_11\n      0x04\n      dup1\n      calldatasize\n      sub\n      dup2\n      add\n      swap1\n      tag_12\n      swap2\n      swap1\n      tag_13\n      jump\t// in\n    tag_12:\n      tag_14\n      jump\t// in\n    tag_11:\n      mload(0x40)\n      tag_15\n      swap2\n      swap1\n      tag_16\n      jump\t// in\n    tag_15:\n      mload(0x40)\n      dup1\n      swap2\n      sub\n      swap1\n      return\n        /* \"Funciones/returns.sol\":1813:1940  function ultimo_valor() public pure returns (uint){... */\n    tag_4:\n      tag_17\n      tag_18\n      jump\t// in\n    tag_17:\n      mload(0x40)\n      tag_19\n      swap2\n      swap1\n      tag_16\n      jump\t// in\n    tag_19:\n      mload(0x40)\n      dup1\n      swap2\n      sub\n      swap1\n      return\n        /* \"Funciones/returns.sol\":144:230  function saludos() public pure returns(string memory){... */\n    tag_5:\n      tag_20\n      tag_21\n      jump\t// in\n    tag_20:\n      mload(0x40)\n      tag_22\n      swap2\n      swap1\n      tag_23\n      jump\t// in\n    tag_22:\n      mload(0x40)\n      dup1\n      swap2\n      sub\n      swap1\n      return\n        /* \"Funciones/returns.sol\":1256:1367  function numeros() public pure returns(uint, uint, uint, uint, uint, uint){... */\n    tag_6:\n      tag_24\n      tag_25\n      jump\t// in\n    tag_24:\n      mload(0x40)\n      tag_26\n      swap7\n      swap6\n      swap5\n      swap4\n      swap3\n      swap2\n      swap1\n      tag_27\n      jump\t// in\n    tag_26:\n      mload(0x40)\n      dup1\n      swap2\n      sub\n      swap1\n      return\n        /* \"Funciones/returns.sol\":510:730  function par_impar(uint _a) public pure returns(bool){... */\n    tag_7:\n      tag_28\n      0x04\n      dup1\n      calldatasize\n      sub\n      dup2\n      add\n      swap1\n      tag_29\n      swap2\n      swap1\n      tag_30\n      jump\t// in\n    tag_29:\n      tag_31\n      jump\t// in\n    tag_28:\n      mload(0x40)\n      tag_32\n      swap2\n      swap1\n      tag_33\n      jump\t// in\n    tag_32:\n      mload(0x40)\n      dup1\n      swap2\n      sub\n      swap1\n      return\n        /* \"Funciones/returns.sol\":923:1186  function division(uint _a, uint _b) public pure returns(uint, uint, bool){... */\n    tag_8:\n      tag_34\n      0x04\n      dup1\n      calldatasize\n      sub\n      dup2\n      add\n      swap1\n      tag_35\n      swap2\n      swap1\n      tag_13\n      jump\t// in\n    tag_35:\n      tag_36\n      jump\t// in\n    tag_34:\n      mload(0x40)\n      tag_37\n      swap4\n      swap3\n      swap2\n      swap1\n      tag_38\n      jump\t// in\n    tag_37:\n      mload(0x40)\n      dup1\n      swap2\n      sub\n      swap1\n      return\n        /* \"Funciones/returns.sol\":1408:1803  function todos_los_valores() public pure returns(uint,uint,uint,uint,uint,uint){... */\n    tag_9:\n      tag_39\n      tag_40\n      jump\t// in\n    tag_39:\n      mload(0x40)\n      tag_41\n      swap7\n      swap6\n      swap5\n      swap4\n      swap3\n      swap2\n      swap1\n      tag_27\n      jump\t// in\n    tag_41:\n      mload(0x40)\n      dup1\n      swap2\n      sub\n      swap1\n      return\n        /* \"Funciones/returns.sol\":325:421  function Multiplicacion(uint _a, uint _b) public pure returns(uint){... */\n    tag_14:\n        /* \"Funciones/returns.sol\":387:391  uint */\n      0x00\n        /* \"Funciones/returns.sol\":412:414  _b */\n      dup2\n        /* \"Funciones/returns.sol\":409:411  _a */\n      dup4\n        /* \"Funciones/returns.sol\":409:414  _a*_b */\n      tag_43\n      swap2\n      swap1\n      tag_44\n      jump\t// in\n    tag_43:\n        /* \"Funciones/returns.sol\":402:414  return _a*_b */\n      swap1\n      pop\n        /* \"Funciones/returns.sol\":325:421  function Multiplicacion(uint _a, uint _b) public pure returns(uint){... */\n      swap3\n      swap2\n      pop\n      pop\n      jump\t// out\n        /* \"Funciones/returns.sol\":1813:1940  function ultimo_valor() public pure returns (uint){... */\n    tag_18:\n        /* \"Funciones/returns.sol\":1858:1862  uint */\n      0x00\n        /* \"Funciones/returns.sol\":1888:1899  uint ultimo */\n      dup1\n        /* \"Funciones/returns.sol\":1901:1910  numeros() */\n      tag_46\n        /* \"Funciones/returns.sol\":1901:1908  numeros */\n      tag_25\n        /* \"Funciones/returns.sol\":1901:1910  numeros() */\n      jump\t// in\n    tag_46:\n        /* \"Funciones/returns.sol\":1882:1910  (,,,,,uint ultimo)=numeros() */\n      swap6\n      pop\n      pop\n      pop\n      pop\n      pop\n      pop\n        /* \"Funciones/returns.sol\":1927:1933  ultimo */\n      dup1\n        /* \"Funciones/returns.sol\":1920:1933  return ultimo */\n      swap2\n      pop\n      pop\n        /* \"Funciones/returns.sol\":1813:1940  function ultimo_valor() public pure returns (uint){... */\n      swap1\n      jump\t// out\n        /* \"Funciones/returns.sol\":144:230  function saludos() public pure returns(string memory){... */\n    tag_21:\n        /* \"Funciones/returns.sol\":183:196  string memory */\n      0x60\n        /* \"Funciones/returns.sol\":207:223  return \"saludos\" */\n      mload(0x40)\n      dup1\n      0x40\n      add\n      0x40\n      mstore\n      dup1\n      0x07\n      dup2\n      mstore\n      0x20\n      add\n      0x73616c75646f7300000000000000000000000000000000000000000000000000\n      dup2\n      mstore\n      pop\n      swap1\n      pop\n        /* \"Funciones/returns.sol\":144:230  function saludos() public pure returns(string memory){... */\n      swap1\n      jump\t// out\n        /* \"Funciones/returns.sol\":1256:1367  function numeros() public pure returns(uint, uint, uint, uint, uint, uint){... */\n    tag_25:\n        /* \"Funciones/returns.sol\":1295:1299  uint */\n      0x00\n        /* \"Funciones/returns.sol\":1301:1305  uint */\n      dup1\n        /* \"Funciones/returns.sol\":1307:1311  uint */\n      0x00\n        /* \"Funciones/returns.sol\":1313:1317  uint */\n      dup1\n        /* \"Funciones/returns.sol\":1319:1323  uint */\n      0x00\n        /* \"Funciones/returns.sol\":1325:1329  uint */\n      dup1\n        /* \"Funciones/returns.sol\":1348:1349  1 */\n      0x01\n        /* \"Funciones/returns.sol\":1350:1351  2 */\n      0x02\n        /* \"Funciones/returns.sol\":1352:1353  3 */\n      0x03\n        /* \"Funciones/returns.sol\":1354:1355  4 */\n      0x04\n        /* \"Funciones/returns.sol\":1356:1357  5 */\n      0x05\n        /* \"Funciones/returns.sol\":1358:1359  6 */\n      0x06\n        /* \"Funciones/returns.sol\":1340:1360  return (1,2,3,4,5,6) */\n      swap6\n      pop\n      swap6\n      pop\n      swap6\n      pop\n      swap6\n      pop\n      swap6\n      pop\n      swap6\n      pop\n        /* \"Funciones/returns.sol\":1256:1367  function numeros() public pure returns(uint, uint, uint, uint, uint, uint){... */\n      swap1\n      swap2\n      swap3\n      swap4\n      swap5\n      swap6\n      jump\t// out\n        /* \"Funciones/returns.sol\":510:730  function par_impar(uint _a) public pure returns(bool){... */\n    tag_31:\n        /* \"Funciones/returns.sol\":558:562  bool */\n      0x00\n        /* \"Funciones/returns.sol\":582:591  bool flag */\n      dup1\n        /* \"Funciones/returns.sol\":619:620  0 */\n      0x00\n        /* \"Funciones/returns.sol\":616:617  2 */\n      0x02\n        /* \"Funciones/returns.sol\":613:615  _a */\n      dup5\n        /* \"Funciones/returns.sol\":613:617  _a%2 */\n      tag_50\n      swap2\n      swap1\n      tag_51\n      jump\t// in\n    tag_50:\n        /* \"Funciones/returns.sol\":613:620  _a%2==0 */\n      sub\n        /* \"Funciones/returns.sol\":610:694  if(_a%2==0){... */\n      tag_52\n      jumpi\n        /* \"Funciones/returns.sol\":640:644  true */\n      0x01\n        /* \"Funciones/returns.sol\":635:644  flag=true */\n      swap1\n      pop\n        /* \"Funciones/returns.sol\":610:694  if(_a%2==0){... */\n      jump(tag_53)\n    tag_52:\n        /* \"Funciones/returns.sol\":678:683  false */\n      0x00\n        /* \"Funciones/returns.sol\":673:683  flag=false */\n      swap1\n      pop\n        /* \"Funciones/returns.sol\":610:694  if(_a%2==0){... */\n    tag_53:\n        /* \"Funciones/returns.sol\":719:723  flag */\n      dup1\n        /* \"Funciones/returns.sol\":712:723  return flag */\n      swap2\n      pop\n      pop\n        /* \"Funciones/returns.sol\":510:730  function par_impar(uint _a) public pure returns(bool){... */\n      swap2\n      swap1\n      pop\n      jump\t// out\n        /* \"Funciones/returns.sol\":923:1186  function division(uint _a, uint _b) public pure returns(uint, uint, bool){... */\n    tag_36:\n        /* \"Funciones/returns.sol\":979:983  uint */\n      0x00\n        /* \"Funciones/returns.sol\":985:989  uint */\n      dup1\n        /* \"Funciones/returns.sol\":991:995  bool */\n      0x00\n        /* \"Funciones/returns.sol\":1006:1012  uint q */\n      dup1\n        /* \"Funciones/returns.sol\":1018:1020  _b */\n      dup5\n        /* \"Funciones/returns.sol\":1015:1017  _a */\n      dup7\n        /* \"Funciones/returns.sol\":1015:1020  _a/_b */\n      tag_55\n      swap2\n      swap1\n      tag_56\n      jump\t// in\n    tag_55:\n        /* \"Funciones/returns.sol\":1006:1020  uint q = _a/_b */\n      swap1\n      pop\n        /* \"Funciones/returns.sol\":1030:1036  uint r */\n      0x00\n        /* \"Funciones/returns.sol\":1044:1046  _b */\n      dup6\n        /* \"Funciones/returns.sol\":1039:1041  _a */\n      dup8\n        /* \"Funciones/returns.sol\":1039:1046  _a % _b */\n      tag_57\n      swap2\n      swap1\n      tag_51\n      jump\t// in\n    tag_57:\n        /* \"Funciones/returns.sol\":1030:1046  uint r = _a % _b */\n      swap1\n      pop\n        /* \"Funciones/returns.sol\":1056:1069  bool multiplo */\n      0x00\n        /* \"Funciones/returns.sol\":1100:1101  0 */\n      dup1\n        /* \"Funciones/returns.sol\":1097:1098  r */\n      dup3\n        /* \"Funciones/returns.sol\":1097:1101  r==0 */\n      sub\n        /* \"Funciones/returns.sol\":1094:1140  if(r==0){... */\n      tag_58\n      jumpi\n        /* \"Funciones/returns.sol\":1125:1129  true */\n      0x01\n        /* \"Funciones/returns.sol\":1116:1129  multiplo=true */\n      swap1\n      pop\n        /* \"Funciones/returns.sol\":1094:1140  if(r==0){... */\n    tag_58:\n        /* \"Funciones/returns.sol\":1166:1167  q */\n      dup3\n        /* \"Funciones/returns.sol\":1168:1169  r */\n      dup3\n        /* \"Funciones/returns.sol\":1170:1178  multiplo */\n      dup3\n        /* \"Funciones/returns.sol\":1158:1179  return (q,r,multiplo) */\n      swap6\n      pop\n      swap6\n      pop\n      swap6\n      pop\n      pop\n      pop\n      pop\n        /* \"Funciones/returns.sol\":923:1186  function division(uint _a, uint _b) public pure returns(uint, uint, bool){... */\n      swap3\n      pop\n      swap3\n      pop\n      swap3\n      jump\t// out\n        /* \"Funciones/returns.sol\":1408:1803  function todos_los_valores() public pure returns(uint,uint,uint,uint,uint,uint){... */\n    tag_40:\n        /* \"Funciones/returns.sol\":1457:1461  uint */\n      0x00\n        /* \"Funciones/returns.sol\":1462:1466  uint */\n      dup1\n        /* \"Funciones/returns.sol\":1467:1471  uint */\n      0x00\n        /* \"Funciones/returns.sol\":1472:1476  uint */\n      dup1\n        /* \"Funciones/returns.sol\":1477:1481  uint */\n      0x00\n        /* \"Funciones/returns.sol\":1482:1486  uint */\n      dup1\n        /* \"Funciones/returns.sol\":1605:1611  uint a */\n      0x00\n        /* \"Funciones/returns.sol\":1621:1627  uint b */\n      dup1\n        /* \"Funciones/returns.sol\":1637:1643  uint c */\n      0x00\n        /* \"Funciones/returns.sol\":1653:1659  uint d */\n      dup1\n        /* \"Funciones/returns.sol\":1669:1675  uint e */\n      0x00\n        /* \"Funciones/returns.sol\":1685:1691  uint f */\n      dup1\n        /* \"Funciones/returns.sol\":1757:1766  numeros() */\n      tag_60\n        /* \"Funciones/returns.sol\":1757:1764  numeros */\n      tag_25\n        /* \"Funciones/returns.sol\":1757:1766  numeros() */\n      jump\t// in\n    tag_60:\n        /* \"Funciones/returns.sol\":1743:1766  (a,b,c,d,e,f)=numeros() */\n      dup1\n      swap7\n      pop\n      dup2\n      swap8\n      pop\n      dup3\n      swap9\n      pop\n      dup4\n      swap10\n      pop\n      dup5\n      swap11\n      pop\n      dup6\n      swap12\n      pop\n      pop\n      pop\n      pop\n      pop\n      pop\n      pop\n        /* \"Funciones/returns.sol\":1784:1785  a */\n      dup6\n        /* \"Funciones/returns.sol\":1786:1787  b */\n      dup6\n        /* \"Funciones/returns.sol\":1788:1789  c */\n      dup6\n        /* \"Funciones/returns.sol\":1790:1791  d */\n      dup6\n        /* \"Funciones/returns.sol\":1792:1793  e */\n      dup6\n        /* \"Funciones/returns.sol\":1794:1795  f */\n      dup6\n        /* \"Funciones/returns.sol\":1776:1796  return (a,b,c,d,e,f) */\n      swap12\n      pop\n      swap12\n      pop\n      swap12\n      pop\n      swap12\n      pop\n      swap12\n      pop\n      swap12\n      pop\n      pop\n      pop\n      pop\n      pop\n      pop\n      pop\n        /* \"Funciones/returns.sol\":1408:1803  function todos_los_valores() public pure returns(uint,uint,uint,uint,uint,uint){... */\n      swap1\n      swap2\n      swap3\n      swap4\n      swap5\n      swap6\n      jump\t// out\n        /* \"#utility.yul\":88:205   */\n    tag_62:\n        /* \"#utility.yul\":197:198   */\n      0x00\n        /* \"#utility.yul\":194:195   */\n      dup1\n        /* \"#utility.yul\":187:199   */\n      revert\n        /* \"#utility.yul\":334:411   */\n    tag_64:\n        /* \"#utility.yul\":371:378   */\n      0x00\n        /* \"#utility.yul\":400:405   */\n      dup2\n        /* \"#utility.yul\":389:405   */\n      swap1\n      pop\n        /* \"#utility.yul\":334:411   */\n      swap2\n      swap1\n      pop\n      jump\t// out\n        /* \"#utility.yul\":417:539   */\n    tag_65:\n        /* \"#utility.yul\":490:514   */\n      tag_83\n        /* \"#utility.yul\":508:513   */\n      dup2\n        /* \"#utility.yul\":490:514   */\n      tag_64\n      jump\t// in\n    tag_83:\n        /* \"#utility.yul\":483:488   */\n      dup2\n        /* \"#utility.yul\":480:515   */\n      eq\n        /* \"#utility.yul\":470:533   */\n      tag_84\n      jumpi\n        /* \"#utility.yul\":529:530   */\n      0x00\n        /* \"#utility.yul\":526:527   */\n      dup1\n        /* \"#utility.yul\":519:531   */\n      revert\n        /* \"#utility.yul\":470:533   */\n    tag_84:\n        /* \"#utility.yul\":417:539   */\n      pop\n      jump\t// out\n        /* \"#utility.yul\":545:684   */\n    tag_66:\n        /* \"#utility.yul\":591:596   */\n      0x00\n        /* \"#utility.yul\":629:635   */\n      dup2\n        /* \"#utility.yul\":616:636   */\n      calldataload\n        /* \"#utility.yul\":607:636   */\n      swap1\n      pop\n        /* \"#utility.yul\":645:678   */\n      tag_86\n        /* \"#utility.yul\":672:677   */\n      dup2\n        /* \"#utility.yul\":645:678   */\n      tag_65\n      jump\t// in\n    tag_86:\n        /* \"#utility.yul\":545:684   */\n      swap3\n      swap2\n      pop\n      pop\n      jump\t// out\n        /* \"#utility.yul\":690:1164   */\n    tag_13:\n        /* \"#utility.yul\":758:764   */\n      0x00\n        /* \"#utility.yul\":766:772   */\n      dup1\n        /* \"#utility.yul\":815:817   */\n      0x40\n        /* \"#utility.yul\":803:812   */\n      dup4\n        /* \"#utility.yul\":794:801   */\n      dup6\n        /* \"#utility.yul\":790:813   */\n      sub\n        /* \"#utility.yul\":786:818   */\n      slt\n        /* \"#utility.yul\":783:902   */\n      iszero\n      tag_88\n      jumpi\n        /* \"#utility.yul\":821:900   */\n      tag_89\n      tag_62\n      jump\t// in\n    tag_89:\n        /* \"#utility.yul\":783:902   */\n    tag_88:\n        /* \"#utility.yul\":941:942   */\n      0x00\n        /* \"#utility.yul\":966:1019   */\n      tag_90\n        /* \"#utility.yul\":1011:1018   */\n      dup6\n        /* \"#utility.yul\":1002:1008   */\n      dup3\n        /* \"#utility.yul\":991:1000   */\n      dup7\n        /* \"#utility.yul\":987:1009   */\n      add\n        /* \"#utility.yul\":966:1019   */\n      tag_66\n      jump\t// in\n    tag_90:\n        /* \"#utility.yul\":956:1019   */\n      swap3\n      pop\n        /* \"#utility.yul\":912:1029   */\n      pop\n        /* \"#utility.yul\":1068:1070   */\n      0x20\n        /* \"#utility.yul\":1094:1147   */\n      tag_91\n        /* \"#utility.yul\":1139:1146   */\n      dup6\n        /* \"#utility.yul\":1130:1136   */\n      dup3\n        /* \"#utility.yul\":1119:1128   */\n      dup7\n        /* \"#utility.yul\":1115:1137   */\n      add\n        /* \"#utility.yul\":1094:1147   */\n      tag_66\n      jump\t// in\n    tag_91:\n        /* \"#utility.yul\":1084:1147   */\n      swap2\n      pop\n        /* \"#utility.yul\":1039:1157   */\n      pop\n        /* \"#utility.yul\":690:1164   */\n      swap3\n      pop\n      swap3\n      swap1\n      pop\n      jump\t// out\n        /* \"#utility.yul\":1170:1288   */\n    tag_67:\n        /* \"#utility.yul\":1257:1281   */\n      tag_93\n        /* \"#utility.yul\":1275:1280   */\n      dup2\n        /* \"#utility.yul\":1257:1281   */\n      tag_64\n      jump\t// in\n    tag_93:\n        /* \"#utility.yul\":1252:1255   */\n      dup3\n        /* \"#utility.yul\":1245:1282   */\n      mstore\n        /* \"#utility.yul\":1170:1288   */\n      pop\n      pop\n      jump\t// out\n        /* \"#utility.yul\":1294:1516   */\n    tag_16:\n        /* \"#utility.yul\":1387:1391   */\n      0x00\n        /* \"#utility.yul\":1425:1427   */\n      0x20\n        /* \"#utility.yul\":1414:1423   */\n      dup3\n        /* \"#utility.yul\":1410:1428   */\n      add\n        /* \"#utility.yul\":1402:1428   */\n      swap1\n      pop\n        /* \"#utility.yul\":1438:1509   */\n      tag_95\n        /* \"#utility.yul\":1506:1507   */\n      0x00\n        /* \"#utility.yul\":1495:1504   */\n      dup4\n        /* \"#utility.yul\":1491:1508   */\n      add\n        /* \"#utility.yul\":1482:1488   */\n      dup5\n        /* \"#utility.yul\":1438:1509   */\n      tag_67\n      jump\t// in\n    tag_95:\n        /* \"#utility.yul\":1294:1516   */\n      swap3\n      swap2\n      pop\n      pop\n      jump\t// out\n        /* \"#utility.yul\":1522:1621   */\n    tag_68:\n        /* \"#utility.yul\":1574:1580   */\n      0x00\n        /* \"#utility.yul\":1608:1613   */\n      dup2\n        /* \"#utility.yul\":1602:1614   */\n      mload\n        /* \"#utility.yul\":1592:1614   */\n      swap1\n      pop\n        /* \"#utility.yul\":1522:1621   */\n      swap2\n      swap1\n      pop\n      jump\t// out\n        /* \"#utility.yul\":1627:1796   */\n    tag_69:\n        /* \"#utility.yul\":1711:1722   */\n      0x00\n        /* \"#utility.yul\":1745:1751   */\n      dup3\n        /* \"#utility.yul\":1740:1743   */\n      dup3\n        /* \"#utility.yul\":1733:1752   */\n      mstore\n        /* \"#utility.yul\":1785:1789   */\n      0x20\n        /* \"#utility.yul\":1780:1783   */\n      dup3\n        /* \"#utility.yul\":1776:1790   */\n      add\n        /* \"#utility.yul\":1761:1790   */\n      swap1\n      pop\n        /* \"#utility.yul\":1627:1796   */\n      swap3\n      swap2\n      pop\n      pop\n      jump\t// out\n        /* \"#utility.yul\":1802:2109   */\n    tag_70:\n        /* \"#utility.yul\":1870:1871   */\n      0x00\n        /* \"#utility.yul\":1880:1993   */\n    tag_99:\n        /* \"#utility.yul\":1894:1900   */\n      dup4\n        /* \"#utility.yul\":1891:1892   */\n      dup2\n        /* \"#utility.yul\":1888:1901   */\n      lt\n        /* \"#utility.yul\":1880:1993   */\n      iszero\n      tag_101\n      jumpi\n        /* \"#utility.yul\":1979:1980   */\n      dup1\n        /* \"#utility.yul\":1974:1977   */\n      dup3\n        /* \"#utility.yul\":1970:1981   */\n      add\n        /* \"#utility.yul\":1964:1982   */\n      mload\n        /* \"#utility.yul\":1960:1961   */\n      dup2\n        /* \"#utility.yul\":1955:1958   */\n      dup5\n        /* \"#utility.yul\":1951:1962   */\n      add\n        /* \"#utility.yul\":1944:1983   */\n      mstore\n        /* \"#utility.yul\":1916:1918   */\n      0x20\n        /* \"#utility.yul\":1913:1914   */\n      dup2\n        /* \"#utility.yul\":1909:1919   */\n      add\n        /* \"#utility.yul\":1904:1919   */\n      swap1\n      pop\n        /* \"#utility.yul\":1880:1993   */\n      jump(tag_99)\n    tag_101:\n        /* \"#utility.yul\":2011:2017   */\n      dup4\n        /* \"#utility.yul\":2008:2009   */\n      dup2\n        /* \"#utility.yul\":2005:2018   */\n      gt\n        /* \"#utility.yul\":2002:2103   */\n      iszero\n      tag_102\n      jumpi\n        /* \"#utility.yul\":2091:2092   */\n      0x00\n        /* \"#utility.yul\":2082:2088   */\n      dup5\n        /* \"#utility.yul\":2077:2080   */\n      dup5\n        /* \"#utility.yul\":2073:2089   */\n      add\n        /* \"#utility.yul\":2066:2093   */\n      mstore\n        /* \"#utility.yul\":2002:2103   */\n    tag_102:\n        /* \"#utility.yul\":1851:2109   */\n      pop\n        /* \"#utility.yul\":1802:2109   */\n      pop\n      pop\n      pop\n      jump\t// out\n        /* \"#utility.yul\":2115:2217   */\n    tag_71:\n        /* \"#utility.yul\":2156:2162   */\n      0x00\n        /* \"#utility.yul\":2207:2209   */\n      0x1f\n        /* \"#utility.yul\":2203:2210   */\n      not\n        /* \"#utility.yul\":2198:2200   */\n      0x1f\n        /* \"#utility.yul\":2191:2196   */\n      dup4\n        /* \"#utility.yul\":2187:2201   */\n      add\n        /* \"#utility.yul\":2183:2211   */\n      and\n        /* \"#utility.yul\":2173:2211   */\n      swap1\n      pop\n        /* \"#utility.yul\":2115:2217   */\n      swap2\n      swap1\n      pop\n      jump\t// out\n        /* \"#utility.yul\":2223:2587   */\n    tag_72:\n        /* \"#utility.yul\":2311:2314   */\n      0x00\n        /* \"#utility.yul\":2339:2378   */\n      tag_105\n        /* \"#utility.yul\":2372:2377   */\n      dup3\n        /* \"#utility.yul\":2339:2378   */\n      tag_68\n      jump\t// in\n    tag_105:\n        /* \"#utility.yul\":2394:2465   */\n      tag_106\n        /* \"#utility.yul\":2458:2464   */\n      dup2\n        /* \"#utility.yul\":2453:2456   */\n      dup6\n        /* \"#utility.yul\":2394:2465   */\n      tag_69\n      jump\t// in\n    tag_106:\n        /* \"#utility.yul\":2387:2465   */\n      swap4\n      pop\n        /* \"#utility.yul\":2474:2526   */\n      tag_107\n        /* \"#utility.yul\":2519:2525   */\n      dup2\n        /* \"#utility.yul\":2514:2517   */\n      dup6\n        /* \"#utility.yul\":2507:2511   */\n      0x20\n        /* \"#utility.yul\":2500:2505   */\n      dup7\n        /* \"#utility.yul\":2496:2512   */\n      add\n        /* \"#utility.yul\":2474:2526   */\n      tag_70\n      jump\t// in\n    tag_107:\n        /* \"#utility.yul\":2551:2580   */\n      tag_108\n        /* \"#utility.yul\":2573:2579   */\n      dup2\n        /* \"#utility.yul\":2551:2580   */\n      tag_71\n      jump\t// in\n    tag_108:\n        /* \"#utility.yul\":2546:2549   */\n      dup5\n        /* \"#utility.yul\":2542:2581   */\n      add\n        /* \"#utility.yul\":2535:2581   */\n      swap2\n      pop\n        /* \"#utility.yul\":2315:2587   */\n      pop\n        /* \"#utility.yul\":2223:2587   */\n      swap3\n      swap2\n      pop\n      pop\n      jump\t// out\n        /* \"#utility.yul\":2593:2906   */\n    tag_23:\n        /* \"#utility.yul\":2706:2710   */\n      0x00\n        /* \"#utility.yul\":2744:2746   */\n      0x20\n        /* \"#utility.yul\":2733:2742   */\n      dup3\n        /* \"#utility.yul\":2729:2747   */\n      add\n        /* \"#utility.yul\":2721:2747   */\n      swap1\n      pop\n        /* \"#utility.yul\":2793:2802   */\n      dup2\n        /* \"#utility.yul\":2787:2791   */\n      dup2\n        /* \"#utility.yul\":2783:2803   */\n      sub\n        /* \"#utility.yul\":2779:2780   */\n      0x00\n        /* \"#utility.yul\":2768:2777   */\n      dup4\n        /* \"#utility.yul\":2764:2781   */\n      add\n        /* \"#utility.yul\":2757:2804   */\n      mstore\n        /* \"#utility.yul\":2821:2899   */\n      tag_110\n        /* \"#utility.yul\":2894:2898   */\n      dup2\n        /* \"#utility.yul\":2885:2891   */\n      dup5\n        /* \"#utility.yul\":2821:2899   */\n      tag_72\n      jump\t// in\n    tag_110:\n        /* \"#utility.yul\":2813:2899   */\n      swap1\n      pop\n        /* \"#utility.yul\":2593:2906   */\n      swap3\n      swap2\n      pop\n      pop\n      jump\t// out\n        /* \"#utility.yul\":2912:3687   */\n    tag_27:\n        /* \"#utility.yul\":3145:3149   */\n      0x00\n        /* \"#utility.yul\":3183:3186   */\n      0xc0\n        /* \"#utility.yul\":3172:3181   */\n      dup3\n        /* \"#utility.yul\":3168:3187   */\n      add\n        /* \"#utility.yul\":3160:3187   */\n      swap1\n      pop\n        /* \"#utility.yul\":3197:3268   */\n      tag_112\n        /* \"#utility.yul\":3265:3266   */\n      0x00\n        /* \"#utility.yul\":3254:3263   */\n      dup4\n        /* \"#utility.yul\":3250:3267   */\n      add\n        /* \"#utility.yul\":3241:3247   */\n      dup10\n        /* \"#utility.yul\":3197:3268   */\n      tag_67\n      jump\t// in\n    tag_112:\n        /* \"#utility.yul\":3278:3350   */\n      tag_113\n        /* \"#utility.yul\":3346:3348   */\n      0x20\n        /* \"#utility.yul\":3335:3344   */\n      dup4\n        /* \"#utility.yul\":3331:3349   */\n      add\n        /* \"#utility.yul\":3322:3328   */\n      dup9\n        /* \"#utility.yul\":3278:3350   */\n      tag_67\n      jump\t// in\n    tag_113:\n        /* \"#utility.yul\":3360:3432   */\n      tag_114\n        /* \"#utility.yul\":3428:3430   */\n      0x40\n        /* \"#utility.yul\":3417:3426   */\n      dup4\n        /* \"#utility.yul\":3413:3431   */\n      add\n        /* \"#utility.yul\":3404:3410   */\n      dup8\n        /* \"#utility.yul\":3360:3432   */\n      tag_67\n      jump\t// in\n    tag_114:\n        /* \"#utility.yul\":3442:3514   */\n      tag_115\n        /* \"#utility.yul\":3510:3512   */\n      0x60\n        /* \"#utility.yul\":3499:3508   */\n      dup4\n        /* \"#utility.yul\":3495:3513   */\n      add\n        /* \"#utility.yul\":3486:3492   */\n      dup7\n        /* \"#utility.yul\":3442:3514   */\n      tag_67\n      jump\t// in\n    tag_115:\n        /* \"#utility.yul\":3524:3597   */\n      tag_116\n        /* \"#utility.yul\":3592:3595   */\n      0x80\n        /* \"#utility.yul\":3581:3590   */\n      dup4\n        /* \"#utility.yul\":3577:3596   */\n      add\n        /* \"#utility.yul\":3568:3574   */\n      dup6\n        /* \"#utility.yul\":3524:3597   */\n      tag_67\n      jump\t// in\n    tag_116:\n        /* \"#utility.yul\":3607:3680   */\n      tag_117\n        /* \"#utility.yul\":3675:3678   */\n      0xa0\n        /* \"#utility.yul\":3664:3673   */\n      dup4\n        /* \"#utility.yul\":3660:3679   */\n      add\n        /* \"#utility.yul\":3651:3657   */\n      dup5\n        /* \"#utility.yul\":3607:3680   */\n      tag_67\n      jump\t// in\n    tag_117:\n        /* \"#utility.yul\":2912:3687   */\n      swap8\n      swap7\n      pop\n      pop\n      pop\n      pop\n      pop\n      pop\n      pop\n      jump\t// out\n        /* \"#utility.yul\":3693:4022   */\n    tag_30:\n        /* \"#utility.yul\":3752:3758   */\n      0x00\n        /* \"#utility.yul\":3801:3803   */\n      0x20\n        /* \"#utility.yul\":3789:3798   */\n      dup3\n        /* \"#utility.yul\":3780:3787   */\n      dup5\n        /* \"#utility.yul\":3776:3799   */\n      sub\n        /* \"#utility.yul\":3772:3804   */\n      slt\n        /* \"#utility.yul\":3769:3888   */\n      iszero\n      tag_119\n      jumpi\n        /* \"#utility.yul\":3807:3886   */\n      tag_120\n      tag_62\n      jump\t// in\n    tag_120:\n        /* \"#utility.yul\":3769:3888   */\n    tag_119:\n        /* \"#utility.yul\":3927:3928   */\n      0x00\n        /* \"#utility.yul\":3952:4005   */\n      tag_121\n        /* \"#utility.yul\":3997:4004   */\n      dup5\n        /* \"#utility.yul\":3988:3994   */\n      dup3\n        /* \"#utility.yul\":3977:3986   */\n      dup6\n        /* \"#utility.yul\":3973:3995   */\n      add\n        /* \"#utility.yul\":3952:4005   */\n      tag_66\n      jump\t// in\n    tag_121:\n        /* \"#utility.yul\":3942:4005   */\n      swap2\n      pop\n        /* \"#utility.yul\":3898:4015   */\n      pop\n        /* \"#utility.yul\":3693:4022   */\n      swap3\n      swap2\n      pop\n      pop\n      jump\t// out\n        /* \"#utility.yul\":4028:4118   */\n    tag_73:\n        /* \"#utility.yul\":4062:4069   */\n      0x00\n        /* \"#utility.yul\":4105:4110   */\n      dup2\n        /* \"#utility.yul\":4098:4111   */\n      iszero\n        /* \"#utility.yul\":4091:4112   */\n      iszero\n        /* \"#utility.yul\":4080:4112   */\n      swap1\n      pop\n        /* \"#utility.yul\":4028:4118   */\n      swap2\n      swap1\n      pop\n      jump\t// out\n        /* \"#utility.yul\":4124:4233   */\n    tag_74:\n        /* \"#utility.yul\":4205:4226   */\n      tag_124\n        /* \"#utility.yul\":4220:4225   */\n      dup2\n        /* \"#utility.yul\":4205:4226   */\n      tag_73\n      jump\t// in\n    tag_124:\n        /* \"#utility.yul\":4200:4203   */\n      dup3\n        /* \"#utility.yul\":4193:4227   */\n      mstore\n        /* \"#utility.yul\":4124:4233   */\n      pop\n      pop\n      jump\t// out\n        /* \"#utility.yul\":4239:4449   */\n    tag_33:\n        /* \"#utility.yul\":4326:4330   */\n      0x00\n        /* \"#utility.yul\":4364:4366   */\n      0x20\n        /* \"#utility.yul\":4353:4362   */\n      dup3\n        /* \"#utility.yul\":4349:4367   */\n      add\n        /* \"#utility.yul\":4341:4367   */\n      swap1\n      pop\n        /* \"#utility.yul\":4377:4442   */\n      tag_126\n        /* \"#utility.yul\":4439:4440   */\n      0x00\n        /* \"#utility.yul\":4428:4437   */\n      dup4\n        /* \"#utility.yul\":4424:4441   */\n      add\n        /* \"#utility.yul\":4415:4421   */\n      dup5\n        /* \"#utility.yul\":4377:4442   */\n      tag_74\n      jump\t// in\n    tag_126:\n        /* \"#utility.yul\":4239:4449   */\n      swap3\n      swap2\n      pop\n      pop\n      jump\t// out\n        /* \"#utility.yul\":4455:4885   */\n    tag_38:\n        /* \"#utility.yul\":4598:4602   */\n      0x00\n        /* \"#utility.yul\":4636:4638   */\n      0x60\n        /* \"#utility.yul\":4625:4634   */\n      dup3\n        /* \"#utility.yul\":4621:4639   */\n      add\n        /* \"#utility.yul\":4613:4639   */\n      swap1\n      pop\n        /* \"#utility.yul\":4649:4720   */\n      tag_128\n        /* \"#utility.yul\":4717:4718   */\n      0x00\n        /* \"#utility.yul\":4706:4715   */\n      dup4\n        /* \"#utility.yul\":4702:4719   */\n      add\n        /* \"#utility.yul\":4693:4699   */\n      dup7\n        /* \"#utility.yul\":4649:4720   */\n      tag_67\n      jump\t// in\n    tag_128:\n        /* \"#utility.yul\":4730:4802   */\n      tag_129\n        /* \"#utility.yul\":4798:4800   */\n      0x20\n        /* \"#utility.yul\":4787:4796   */\n      dup4\n        /* \"#utility.yul\":4783:4801   */\n      add\n        /* \"#utility.yul\":4774:4780   */\n      dup6\n        /* \"#utility.yul\":4730:4802   */\n      tag_67\n      jump\t// in\n    tag_129:\n        /* \"#utility.yul\":4812:4878   */\n      tag_130\n        /* \"#utility.yul\":4874:4876   */\n      0x40\n        /* \"#utility.yul\":4863:4872   */\n      dup4\n        /* \"#utility.yul\":4859:4877   */\n      add\n        /* \"#utility.yul\":4850:4856   */\n      dup5\n        /* \"#utility.yul\":4812:4878   */\n      tag_74\n      jump\t// in\n    tag_130:\n        /* \"#utility.yul\":4455:4885   */\n      swap5\n      swap4\n      pop\n      pop\n      pop\n      pop\n      jump\t// out\n        /* \"#utility.yul\":4891:5071   */\n    tag_75:\n        /* \"#utility.yul\":4939:5016   */\n      0x4e487b7100000000000000000000000000000000000000000000000000000000\n        /* \"#utility.yul\":4936:4937   */\n      0x00\n        /* \"#utility.yul\":4929:5017   */\n      mstore\n        /* \"#utility.yul\":5036:5040   */\n      0x11\n        /* \"#utility.yul\":5033:5034   */\n      0x04\n        /* \"#utility.yul\":5026:5041   */\n      mstore\n        /* \"#utility.yul\":5060:5064   */\n      0x24\n        /* \"#utility.yul\":5057:5058   */\n      0x00\n        /* \"#utility.yul\":5050:5065   */\n      revert\n        /* \"#utility.yul\":5077:5425   */\n    tag_44:\n        /* \"#utility.yul\":5117:5124   */\n      0x00\n        /* \"#utility.yul\":5140:5160   */\n      tag_133\n        /* \"#utility.yul\":5158:5159   */\n      dup3\n        /* \"#utility.yul\":5140:5160   */\n      tag_64\n      jump\t// in\n    tag_133:\n        /* \"#utility.yul\":5135:5160   */\n      swap2\n      pop\n        /* \"#utility.yul\":5174:5194   */\n      tag_134\n        /* \"#utility.yul\":5192:5193   */\n      dup4\n        /* \"#utility.yul\":5174:5194   */\n      tag_64\n      jump\t// in\n    tag_134:\n        /* \"#utility.yul\":5169:5194   */\n      swap3\n      pop\n        /* \"#utility.yul\":5362:5363   */\n      dup2\n        /* \"#utility.yul\":5294:5360   */\n      0xffffffffffffffffffffffffffffffffffffffffffffffffffffffffffffffff\n        /* \"#utility.yul\":5290:5364   */\n      div\n        /* \"#utility.yul\":5287:5288   */\n      dup4\n        /* \"#utility.yul\":5284:5365   */\n      gt\n        /* \"#utility.yul\":5279:5280   */\n      dup3\n        /* \"#utility.yul\":5272:5281   */\n      iszero\n        /* \"#utility.yul\":5265:5282   */\n      iszero\n        /* \"#utility.yul\":5261:5366   */\n      and\n        /* \"#utility.yul\":5258:5389   */\n      iszero\n      tag_135\n      jumpi\n        /* \"#utility.yul\":5369:5387   */\n      tag_136\n      tag_75\n      jump\t// in\n    tag_136:\n        /* \"#utility.yul\":5258:5389   */\n    tag_135:\n        /* \"#utility.yul\":5417:5418   */\n      dup3\n        /* \"#utility.yul\":5414:5415   */\n      dup3\n        /* \"#utility.yul\":5410:5419   */\n      mul\n        /* \"#utility.yul\":5399:5419   */\n      swap1\n      pop\n        /* \"#utility.yul\":5077:5425   */\n      swap3\n      swap2\n      pop\n      pop\n      jump\t// out\n        /* \"#utility.yul\":5431:5611   */\n    tag_76:\n        /* \"#utility.yul\":5479:5556   */\n      0x4e487b7100000000000000000000000000000000000000000000000000000000\n        /* \"#utility.yul\":5476:5477   */\n      0x00\n        /* \"#utility.yul\":5469:5557   */\n      mstore\n        /* \"#utility.yul\":5576:5580   */\n      0x12\n        /* \"#utility.yul\":5573:5574   */\n      0x04\n        /* \"#utility.yul\":5566:5581   */\n      mstore\n        /* \"#utility.yul\":5600:5604   */\n      0x24\n        /* \"#utility.yul\":5597:5598   */\n      0x00\n        /* \"#utility.yul\":5590:5605   */\n      revert\n        /* \"#utility.yul\":5617:5793   */\n    tag_51:\n        /* \"#utility.yul\":5649:5650   */\n      0x00\n        /* \"#utility.yul\":5666:5686   */\n      tag_139\n        /* \"#utility.yul\":5684:5685   */\n      dup3\n        /* \"#utility.yul\":5666:5686   */\n      tag_64\n      jump\t// in\n    tag_139:\n        /* \"#utility.yul\":5661:5686   */\n      swap2\n      pop\n        /* \"#utility.yul\":5700:5720   */\n      tag_140\n        /* \"#utility.yul\":5718:5719   */\n      dup4\n        /* \"#utility.yul\":5700:5720   */\n      tag_64\n      jump\t// in\n    tag_140:\n        /* \"#utility.yul\":5695:5720   */\n      swap3\n      pop\n        /* \"#utility.yul\":5739:5740   */\n      dup3\n        /* \"#utility.yul\":5729:5764   */\n      tag_141\n      jumpi\n        /* \"#utility.yul\":5744:5762   */\n      tag_142\n      tag_76\n      jump\t// in\n    tag_142:\n        /* \"#utility.yul\":5729:5764   */\n    tag_141:\n        /* \"#utility.yul\":5785:5786   */\n      dup3\n        /* \"#utility.yul\":5782:5783   */\n      dup3\n        /* \"#utility.yul\":5778:5787   */\n      mod\n        /* \"#utility.yul\":5773:5787   */\n      swap1\n      pop\n        /* \"#utility.yul\":5617:5793   */\n      swap3\n      swap2\n      pop\n      pop\n      jump\t// out\n        /* \"#utility.yul\":5799:5984   */\n    tag_56:\n        /* \"#utility.yul\":5839:5840   */\n      0x00\n        /* \"#utility.yul\":5856:5876   */\n      tag_144\n        /* \"#utility.yul\":5874:5875   */\n      dup3\n        /* \"#utility.yul\":5856:5876   */\n      tag_64\n      jump\t// in\n    tag_144:\n        /* \"#utility.yul\":5851:5876   */\n      swap2\n      pop\n        /* \"#utility.yul\":5890:5910   */\n      tag_145\n        /* \"#utility.yul\":5908:5909   */\n      dup4\n        /* \"#utility.yul\":5890:5910   */\n      tag_64\n      jump\t// in\n    tag_145:\n        /* \"#utility.yul\":5885:5910   */\n      swap3\n      pop\n        /* \"#utility.yul\":5929:5930   */\n      dup3\n        /* \"#utility.yul\":5919:5954   */\n      tag_146\n      jumpi\n        /* \"#utility.yul\":5934:5952   */\n      tag_147\n      tag_76\n      jump\t// in\n    tag_147:\n        /* \"#utility.yul\":5919:5954   */\n    tag_146:\n        /* \"#utility.yul\":5976:5977   */\n      dup3\n        /* \"#utility.yul\":5973:5974   */\n      dup3\n        /* \"#utility.yul\":5969:5978   */\n      div\n        /* \"#utility.yul\":5964:5978   */\n      swap1\n      pop\n        /* \"#utility.yul\":5799:5984   */\n      swap3\n      swap2\n      pop\n      pop\n      jump\t// out\n\n    auxdata: 0xa2646970667358221220432c6a7c8aad31f85428e6e43e0613ce7023366af6a24447b7774f85e6e67dd764736f6c634300080d0033\n}\n",
				"bytecode": {
					"linkReferences": {},
					"object": "608060405234801561001057600080fd5b5061069b806100206000396000f3fe608060405234801561001057600080fd5b506004361061007d5760003560e01c8063703b34041161005b578063703b3404146100ee578063c19af07c14610111578063e006805214610141578063e664737c146101735761007d565b806316286a22146100825780631819f9c3146100b25780634439c8c0146100d0575b600080fd5b61009c6004803603810190610097919061032b565b610196565b6040516100a9919061037a565b60405180910390f35b6100ba6101ac565b6040516100c7919061037a565b60405180910390f35b6100d86101c5565b6040516100e5919061042e565b60405180910390f35b6100f6610202565b60405161010896959493929190610450565b60405180910390f35b61012b600480360381019061012691906104b1565b61022b565b60405161013891906104f9565b60405180910390f35b61015b6004803603810190610156919061032b565b610259565b60405161016a93929190610514565b60405180910390f35b61017b61029e565b60405161018d96959493929190610450565b60405180910390f35b600081836101a4919061057a565b905092915050565b6000806101b7610202565b955050505050508091505090565b60606040518060400160405280600781526020017f73616c75646f7300000000000000000000000000000000000000000000000000815250905090565b600080600080600080600160026003600460056006955095509550955095509550909192939495565b600080600060028461023d9190610603565b0361024b5760019050610250565b600090505b80915050919050565b600080600080848661026b9190610634565b90506000858761027b9190610603565b9050600080820361028b57600190505b8282829550955095505050509250925092565b6000806000806000806000806000806000806102b8610202565b809650819750829850839950849a50859b505050505050508585858585859b509b509b509b509b509b50505050505050909192939495565b600080fd5b6000819050919050565b610308816102f5565b811461031357600080fd5b50565b600081359050610325816102ff565b92915050565b60008060408385031215610342576103416102f0565b5b600061035085828601610316565b925050602061036185828601610316565b9150509250929050565b610374816102f5565b82525050565b600060208201905061038f600083018461036b565b92915050565b600081519050919050565b600082825260208201905092915050565b60005b838110156103cf5780820151818401526020810190506103b4565b838111156103de576000848401525b50505050565b6000601f19601f8301169050919050565b600061040082610395565b61040a81856103a0565b935061041a8185602086016103b1565b610423816103e4565b840191505092915050565b6000602082019050818103600083015261044881846103f5565b905092915050565b600060c082019050610465600083018961036b565b610472602083018861036b565b61047f604083018761036b565b61048c606083018661036b565b610499608083018561036b565b6104a660a083018461036b565b979650505050505050565b6000602082840312156104c7576104c66102f0565b5b60006104d584828501610316565b91505092915050565b60008115159050919050565b6104f3816104de565b82525050565b600060208201905061050e60008301846104ea565b92915050565b6000606082019050610529600083018661036b565b610536602083018561036b565b61054360408301846104ea565b949350505050565b7f4e487b7100000000000000000000000000000000000000000000000000000000600052601160045260246000fd5b6000610585826102f5565b9150610590836102f5565b9250817fffffffffffffffffffffffffffffffffffffffffffffffffffffffffffffffff04831182151516156105c9576105c861054b565b5b828202905092915050565b7f4e487b7100000000000000000000000000000000000000000000000000000000600052601260045260246000fd5b600061060e826102f5565b9150610619836102f5565b925082610629576106286105d4565b5b828206905092915050565b600061063f826102f5565b915061064a836102f5565b92508261065a576106596105d4565b5b82820490509291505056fea2646970667358221220432c6a7c8aad31f85428e6e43e0613ce7023366af6a24447b7774f85e6e67dd764736f6c634300080d0033",
					"opcodes": "PUSH1 0x80 PUSH1 0x40 MSTORE CALLVALUE DUP1 ISZERO PUSH2 0x10 JUMPI PUSH1 0x0 DUP1 REVERT JUMPDEST POP PUSH2 0x69B DUP1 PUSH2 0x20 PUSH1 0x0 CODECOPY PUSH1 0x0 RETURN INVALID PUSH1 0x80 PUSH1 0x40 MSTORE CALLVALUE DUP1 ISZERO PUSH2 0x10 JUMPI PUSH1 0x0 DUP1 REVERT JUMPDEST POP PUSH1 0x4 CALLDATASIZE LT PUSH2 0x7D JUMPI PUSH1 0x0 CALLDATALOAD PUSH1 0xE0 SHR DUP1 PUSH4 0x703B3404 GT PUSH2 0x5B JUMPI DUP1 PUSH4 0x703B3404 EQ PUSH2 0xEE JUMPI DUP1 PUSH4 0xC19AF07C EQ PUSH2 0x111 JUMPI DUP1 PUSH4 0xE0068052 EQ PUSH2 0x141 JUMPI DUP1 PUSH4 0xE664737C EQ PUSH2 0x173 JUMPI PUSH2 0x7D JUMP JUMPDEST DUP1 PUSH4 0x16286A22 EQ PUSH2 0x82 JUMPI DUP1 PUSH4 0x1819F9C3 EQ PUSH2 0xB2 JUMPI DUP1 PUSH4 0x4439C8C0 EQ PUSH2 0xD0 JUMPI JUMPDEST PUSH1 0x0 DUP1 REVERT JUMPDEST PUSH2 0x9C PUSH1 0x4 DUP1 CALLDATASIZE SUB DUP2 ADD SWAP1 PUSH2 0x97 SWAP2 SWAP1 PUSH2 0x32B JUMP JUMPDEST PUSH2 0x196 JUMP JUMPDEST PUSH1 0x40 MLOAD PUSH2 0xA9 SWAP2 SWAP1 PUSH2 0x37A JUMP JUMPDEST PUSH1 0x40 MLOAD DUP1 SWAP2 SUB SWAP1 RETURN JUMPDEST PUSH2 0xBA PUSH2 0x1AC JUMP JUMPDEST PUSH1 0x40 MLOAD PUSH2 0xC7 SWAP2 SWAP1 PUSH2 0x37A JUMP JUMPDEST PUSH1 0x40 MLOAD DUP1 SWAP2 SUB SWAP1 RETURN JUMPDEST PUSH2 0xD8 PUSH2 0x1C5 JUMP JUMPDEST PUSH1 0x40 MLOAD PUSH2 0xE5 SWAP2 SWAP1 PUSH2 0x42E JUMP JUMPDEST PUSH1 0x40 MLOAD DUP1 SWAP2 SUB SWAP1 RETURN JUMPDEST PUSH2 0xF6 PUSH2 0x202 JUMP JUMPDEST PUSH1 0x40 MLOAD PUSH2 0x108 SWAP7 SWAP6 SWAP5 SWAP4 SWAP3 SWAP2 SWAP1 PUSH2 0x450 JUMP JUMPDEST PUSH1 0x40 MLOAD DUP1 SWAP2 SUB SWAP1 RETURN JUMPDEST PUSH2 0x12B PUSH1 0x4 DUP1 CALLDATASIZE SUB DUP2 ADD SWAP1 PUSH2 0x126 SWAP2 SWAP1 PUSH2 0x4B1 JUMP JUMPDEST PUSH2 0x22B JUMP JUMPDEST PUSH1 0x40 MLOAD PUSH2 0x138 SWAP2 SWAP1 PUSH2 0x4F9 JUMP JUMPDEST PUSH1 0x40 MLOAD DUP1 SWAP2 SUB SWAP1 RETURN JUMPDEST PUSH2 0x15B PUSH1 0x4 DUP1 CALLDATASIZE SUB DUP2 ADD SWAP1 PUSH2 0x156 SWAP2 SWAP1 PUSH2 0x32B JUMP JUMPDEST PUSH2 0x259 JUMP JUMPDEST PUSH1 0x40 MLOAD PUSH2 0x16A SWAP4 SWAP3 SWAP2 SWAP1 PUSH2 0x514 JUMP JUMPDEST PUSH1 0x40 MLOAD DUP1 SWAP2 SUB SWAP1 RETURN JUMPDEST PUSH2 0x17B PUSH2 0x29E JUMP JUMPDEST PUSH1 0x40 MLOAD PUSH2 0x18D SWAP7 SWAP6 SWAP5 SWAP4 SWAP3 SWAP2 SWAP1 PUSH2 0x450 JUMP JUMPDEST PUSH1 0x40 MLOAD DUP1 SWAP2 SUB SWAP1 RETURN JUMPDEST PUSH1 0x0 DUP2 DUP4 PUSH2 0x1A4 SWAP2 SWAP1 PUSH2 0x57A JUMP JUMPDEST SWAP1 POP SWAP3 SWAP2 POP POP JUMP JUMPDEST PUSH1 0x0 DUP1 PUSH2 0x1B7 PUSH2 0x202 JUMP JUMPDEST SWAP6 POP POP POP POP POP POP DUP1 SWAP2 POP POP SWAP1 JUMP JUMPDEST PUSH1 0x60 PUSH1 0x40 MLOAD DUP1 PUSH1 0x40 ADD PUSH1 0x40 MSTORE DUP1 PUSH1 0x7 DUP2 MSTORE PUSH1 0x20 ADD PUSH32 0x73616C75646F7300000000000000000000000000000000000000000000000000 DUP2 MSTORE POP SWAP1 POP SWAP1 JUMP JUMPDEST PUSH1 0x0 DUP1 PUSH1 0x0 DUP1 PUSH1 0x0 DUP1 PUSH1 0x1 PUSH1 0x2 PUSH1 0x3 PUSH1 0x4 PUSH1 0x5 PUSH1 0x6 SWAP6 POP SWAP6 POP SWAP6 POP SWAP6 POP SWAP6 POP SWAP6 POP SWAP1 SWAP2 SWAP3 SWAP4 SWAP5 SWAP6 JUMP JUMPDEST PUSH1 0x0 DUP1 PUSH1 0x0 PUSH1 0x2 DUP5 PUSH2 0x23D SWAP2 SWAP1 PUSH2 0x603 JUMP JUMPDEST SUB PUSH2 0x24B JUMPI PUSH1 0x1 SWAP1 POP PUSH2 0x250 JUMP JUMPDEST PUSH1 0x0 SWAP1 POP JUMPDEST DUP1 SWAP2 POP POP SWAP2 SWAP1 POP JUMP JUMPDEST PUSH1 0x0 DUP1 PUSH1 0x0 DUP1 DUP5 DUP7 PUSH2 0x26B SWAP2 SWAP1 PUSH2 0x634 JUMP JUMPDEST SWAP1 POP PUSH1 0x0 DUP6 DUP8 PUSH2 0x27B SWAP2 SWAP1 PUSH2 0x603 JUMP JUMPDEST SWAP1 POP PUSH1 0x0 DUP1 DUP3 SUB PUSH2 0x28B JUMPI PUSH1 0x1 SWAP1 POP JUMPDEST DUP3 DUP3 DUP3 SWAP6 POP SWAP6 POP SWAP6 POP POP POP POP SWAP3 POP SWAP3 POP SWAP3 JUMP JUMPDEST PUSH1 0x0 DUP1 PUSH1 0x0 DUP1 PUSH1 0x0 DUP1 PUSH1 0x0 DUP1 PUSH1 0x0 DUP1 PUSH1 0x0 DUP1 PUSH2 0x2B8 PUSH2 0x202 JUMP JUMPDEST DUP1 SWAP7 POP DUP2 SWAP8 POP DUP3 SWAP9 POP DUP4 SWAP10 POP DUP5 SWAP11 POP DUP6 SWAP12 POP POP POP POP POP POP POP DUP6 DUP6 DUP6 DUP6 DUP6 DUP6 SWAP12 POP SWAP12 POP SWAP12 POP SWAP12 POP SWAP12 POP SWAP12 POP POP POP POP POP POP POP SWAP1 SWAP2 SWAP3 SWAP4 SWAP5 SWAP6 JUMP JUMPDEST PUSH1 0x0 DUP1 REVERT JUMPDEST PUSH1 0x0 DUP2 SWAP1 POP SWAP2 SWAP1 POP JUMP JUMPDEST PUSH2 0x308 DUP2 PUSH2 0x2F5 JUMP JUMPDEST DUP2 EQ PUSH2 0x313 JUMPI PUSH1 0x0 DUP1 REVERT JUMPDEST POP JUMP JUMPDEST PUSH1 0x0 DUP2 CALLDATALOAD SWAP1 POP PUSH2 0x325 DUP2 PUSH2 0x2FF JUMP JUMPDEST SWAP3 SWAP2 POP POP JUMP JUMPDEST PUSH1 0x0 DUP1 PUSH1 0x40 DUP4 DUP6 SUB SLT ISZERO PUSH2 0x342 JUMPI PUSH2 0x341 PUSH2 0x2F0 JUMP JUMPDEST JUMPDEST PUSH1 0x0 PUSH2 0x350 DUP6 DUP3 DUP7 ADD PUSH2 0x316 JUMP JUMPDEST SWAP3 POP POP PUSH1 0x20 PUSH2 0x361 DUP6 DUP3 DUP7 ADD PUSH2 0x316 JUMP JUMPDEST SWAP2 POP POP SWAP3 POP SWAP3 SWAP1 POP JUMP JUMPDEST PUSH2 0x374 DUP2 PUSH2 0x2F5 JUMP JUMPDEST DUP3 MSTORE POP POP JUMP JUMPDEST PUSH1 0x0 PUSH1 0x20 DUP3 ADD SWAP1 POP PUSH2 0x38F PUSH1 0x0 DUP4 ADD DUP5 PUSH2 0x36B JUMP JUMPDEST SWAP3 SWAP2 POP POP JUMP JUMPDEST PUSH1 0x0 DUP2 MLOAD SWAP1 POP SWAP2 SWAP1 POP JUMP JUMPDEST PUSH1 0x0 DUP3 DUP3 MSTORE PUSH1 0x20 DUP3 ADD SWAP1 POP SWAP3 SWAP2 POP POP JUMP JUMPDEST PUSH1 0x0 JUMPDEST DUP4 DUP2 LT ISZERO PUSH2 0x3CF JUMPI DUP1 DUP3 ADD MLOAD DUP2 DUP5 ADD MSTORE PUSH1 0x20 DUP2 ADD SWAP1 POP PUSH2 0x3B4 JUMP JUMPDEST DUP4 DUP2 GT ISZERO PUSH2 0x3DE JUMPI PUSH1 0x0 DUP5 DUP5 ADD MSTORE JUMPDEST POP POP POP POP JUMP JUMPDEST PUSH1 0x0 PUSH1 0x1F NOT PUSH1 0x1F DUP4 ADD AND SWAP1 POP SWAP2 SWAP1 POP JUMP JUMPDEST PUSH1 0x0 PUSH2 0x400 DUP3 PUSH2 0x395 JUMP JUMPDEST PUSH2 0x40A DUP2 DUP6 PUSH2 0x3A0 JUMP JUMPDEST SWAP4 POP PUSH2 0x41A DUP2 DUP6 PUSH1 0x20 DUP7 ADD PUSH2 0x3B1 JUMP JUMPDEST PUSH2 0x423 DUP2 PUSH2 0x3E4 JUMP JUMPDEST DUP5 ADD SWAP2 POP POP SWAP3 SWAP2 POP POP JUMP JUMPDEST PUSH1 0x0 PUSH1 0x20 DUP3 ADD SWAP1 POP DUP2 DUP2 SUB PUSH1 0x0 DUP4 ADD MSTORE PUSH2 0x448 DUP2 DUP5 PUSH2 0x3F5 JUMP JUMPDEST SWAP1 POP SWAP3 SWAP2 POP POP JUMP JUMPDEST PUSH1 0x0 PUSH1 0xC0 DUP3 ADD SWAP1 POP PUSH2 0x465 PUSH1 0x0 DUP4 ADD DUP10 PUSH2 0x36B JUMP JUMPDEST PUSH2 0x472 PUSH1 0x20 DUP4 ADD DUP9 PUSH2 0x36B JUMP JUMPDEST PUSH2 0x47F PUSH1 0x40 DUP4 ADD DUP8 PUSH2 0x36B JUMP JUMPDEST PUSH2 0x48C PUSH1 0x60 DUP4 ADD DUP7 PUSH2 0x36B JUMP JUMPDEST PUSH2 0x499 PUSH1 0x80 DUP4 ADD DUP6 PUSH2 0x36B JUMP JUMPDEST PUSH2 0x4A6 PUSH1 0xA0 DUP4 ADD DUP5 PUSH2 0x36B JUMP JUMPDEST SWAP8 SWAP7 POP POP POP POP POP POP POP JUMP JUMPDEST PUSH1 0x0 PUSH1 0x20 DUP3 DUP5 SUB SLT ISZERO PUSH2 0x4C7 JUMPI PUSH2 0x4C6 PUSH2 0x2F0 JUMP JUMPDEST JUMPDEST PUSH1 0x0 PUSH2 0x4D5 DUP5 DUP3 DUP6 ADD PUSH2 0x316 JUMP JUMPDEST SWAP2 POP POP SWAP3 SWAP2 POP POP JUMP JUMPDEST PUSH1 0x0 DUP2 ISZERO ISZERO SWAP1 POP SWAP2 SWAP1 POP JUMP JUMPDEST PUSH2 0x4F3 DUP2 PUSH2 0x4DE JUMP JUMPDEST DUP3 MSTORE POP POP JUMP JUMPDEST PUSH1 0x0 PUSH1 0x20 DUP3 ADD SWAP1 POP PUSH2 0x50E PUSH1 0x0 DUP4 ADD DUP5 PUSH2 0x4EA JUMP JUMPDEST SWAP3 SWAP2 POP POP JUMP JUMPDEST PUSH1 0x0 PUSH1 0x60 DUP3 ADD SWAP1 POP PUSH2 0x529 PUSH1 0x0 DUP4 ADD DUP7 PUSH2 0x36B JUMP JUMPDEST PUSH2 0x536 PUSH1 0x20 DUP4 ADD DUP6 PUSH2 0x36B JUMP JUMPDEST PUSH2 0x543 PUSH1 0x40 DUP4 ADD DUP5 PUSH2 0x4EA JUMP JUMPDEST SWAP5 SWAP4 POP POP POP POP JUMP JUMPDEST PUSH32 0x4E487B7100000000000000000000000000000000000000000000000000000000 PUSH1 0x0 MSTORE PUSH1 0x11 PUSH1 0x4 MSTORE PUSH1 0x24 PUSH1 0x0 REVERT JUMPDEST PUSH1 0x0 PUSH2 0x585 DUP3 PUSH2 0x2F5 JUMP JUMPDEST SWAP2 POP PUSH2 0x590 DUP4 PUSH2 0x2F5 JUMP JUMPDEST SWAP3 POP DUP2 PUSH32 0xFFFFFFFFFFFFFFFFFFFFFFFFFFFFFFFFFFFFFFFFFFFFFFFFFFFFFFFFFFFFFFFF DIV DUP4 GT DUP3 ISZERO ISZERO AND ISZERO PUSH2 0x5C9 JUMPI PUSH2 0x5C8 PUSH2 0x54B JUMP JUMPDEST JUMPDEST DUP3 DUP3 MUL SWAP1 POP SWAP3 SWAP2 POP POP JUMP JUMPDEST PUSH32 0x4E487B7100000000000000000000000000000000000000000000000000000000 PUSH1 0x0 MSTORE PUSH1 0x12 PUSH1 0x4 MSTORE PUSH1 0x24 PUSH1 0x0 REVERT JUMPDEST PUSH1 0x0 PUSH2 0x60E DUP3 PUSH2 0x2F5 JUMP JUMPDEST SWAP2 POP PUSH2 0x619 DUP4 PUSH2 0x2F5 JUMP JUMPDEST SWAP3 POP DUP3 PUSH2 0x629 JUMPI PUSH2 0x628 PUSH2 0x5D4 JUMP JUMPDEST JUMPDEST DUP3 DUP3 MOD SWAP1 POP SWAP3 SWAP2 POP POP JUMP JUMPDEST PUSH1 0x0 PUSH2 0x63F DUP3 PUSH2 0x2F5 JUMP JUMPDEST SWAP2 POP PUSH2 0x64A DUP4 PUSH2 0x2F5 JUMP JUMPDEST SWAP3 POP DUP3 PUSH2 0x65A JUMPI PUSH2 0x659 PUSH2 0x5D4 JUMP JUMPDEST JUMPDEST DUP3 DUP3 DIV SWAP1 POP SWAP3 SWAP2 POP POP JUMP INVALID LOG2 PUSH5 0x6970667358 0x22 SLT KECCAK256 NUMBER 0x2C PUSH11 0x7C8AAD31F85428E6E43E06 SGT 0xCE PUSH17 0x23366AF6A24447B7774F85E6E67DD76473 PUSH16 0x6C634300080D00330000000000000000 "
				},
				"gasEstimates": {
					"creation": {
						"codeDepositCost": "338200",
						"executionCost": "374",
						"totalCost": "338574"
					},
					"external": {
						"Multiplicacion(uint256,uint256)": "infinite",
						"division(uint256,uint256)": "infinite",
						"numeros()": "infinite",
						"par_impar(uint256)": "infinite",
						"saludos()": "infinite",
						"todos_los_valores()": "infinite",
						"ultimo_valor()": "488"
					}
				},
				"methodIdentifiers": {
					"Multiplicacion(uint256,uint256)": "16286a22",
					"division(uint256,uint256)": "e0068052",
					"numeros()": "703b3404",
					"par_impar(uint256)": "c19af07c",
					"saludos()": "4439c8c0",
					"todos_los_valores()": "e664737c",
					"ultimo_valor()": "1819f9c3"
				}
			},
			"storageLayout": {
				"storage": [],
				"types": null
			},
			"userdoc": {
				"kind": "user",
				"methods": {},
				"version": 1
			}
		}
	}
}