{
	"Funciones/returns.sol": {
		"ValoresDeRetorno": {
			"abi": [
				{
					"inputs": [
						{
							"internalType": "uint256",
							"name": "_a",
							"type": "uint256"
						},
						{
							"internalType": "uint256",
							"name": "_b",
							"type": "uint256"
						}
					],
					"name": "Multiplicacion",
					"outputs": [
						{
							"internalType": "uint256",
							"name": "",
							"type": "uint256"
						}
					],
					"stateMutability": "pure",
					"type": "function"
				},
				{
					"inputs": [
						{
							"internalType": "uint256",
							"name": "_a",
							"type": "uint256"
						},
						{
							"internalType": "uint256",
							"name": "_b",
							"type": "uint256"
						}
					],
					"name": "division",
					"outputs": [
						{
							"internalType": "uint256",
							"name": "",
							"type": "uint256"
						},
						{
							"internalType": "uint256",
							"name": "",
							"type": "uint256"
						},
						{
							"internalType": "bool",
							"name": "",
							"type": "bool"
						}
					],
					"stateMutability": "pure",
					"type": "function"
				},
				{
					"inputs": [],
					"name": "numeros",
					"outputs": [
						{
							"internalType": "uint256",
							"name": "",
							"type": "uint256"
						},
						{
							"internalType": "uint256",
							"name": "",
							"type": "uint256"
						},
						{
							"internalType": "uint256",
							"name": "",
							"type": "uint256"
						},
						{
							"internalType": "uint256",
							"name": "",
							"type": "uint256"
						},
						{
							"internalType": "uint256",
							"name": "",
							"type": "uint256"
						},
						{
							"internalType": "uint256",
							"name": "",
							"type": "uint256"
						}
					],
					"stateMutability": "pure",
					"type": "function"
				},
				{
					"inputs": [
						{
							"internalType": "uint256",
							"name": "_a",
							"type": "uint256"
						}
					],
					"name": "par_impar",
					"outputs": [
						{
							"internalType": "bool",
							"name": "",
							"type": "bool"
						}
					],
					"stateMutability": "pure",
					"type": "function"
				},
				{
					"inputs": [],
					"name": "saludos",
					"outputs": [
						{
							"internalType": "string",
							"name": "",
							"type": "string"
						}
					],
					"stateMutability": "pure",
					"type": "function"
				},
				{
					"inputs": [],
					"name": "todos_los_valores",
					"outputs": [],
					"stateMutability": "pure",
					"type": "function"
				},
				{
					"inputs": [],
					"name": "ultimo_valor",
					"outputs": [],
					"stateMutability": "pure",
					"type": "function"
				}
			],
			"devdoc": {
				"methods": {}
			},
			"evm": {
				"assembly": "    /* \"Funciones/returns.sol\":60:1838  contract ValoresDeRetorno{... */\n  mstore(0x40, 0x80)\n  callvalue\n    /* \"--CODEGEN--\":5:14   */\n  dup1\n    /* \"--CODEGEN--\":2:4   */\n  iszero\n  tag_1\n  jumpi\n    /* \"--CODEGEN--\":27:28   */\n  0x00\n    /* \"--CODEGEN--\":24:25   */\n  dup1\n    /* \"--CODEGEN--\":17:29   */\n  revert\n    /* \"--CODEGEN--\":2:4   */\ntag_1:\n    /* \"Funciones/returns.sol\":60:1838  contract ValoresDeRetorno{... */\n  pop\n  dataSize(sub_0)\n  dup1\n  dataOffset(sub_0)\n  0x00\n  codecopy\n  0x00\n  return\nstop\n\nsub_0: assembly {\n        /* \"Funciones/returns.sol\":60:1838  contract ValoresDeRetorno{... */\n      mstore(0x40, 0x80)\n      callvalue\n        /* \"--CODEGEN--\":5:14   */\n      dup1\n        /* \"--CODEGEN--\":2:4   */\n      iszero\n      tag_1\n      jumpi\n        /* \"--CODEGEN--\":27:28   */\n      0x00\n        /* \"--CODEGEN--\":24:25   */\n      dup1\n        /* \"--CODEGEN--\":17:29   */\n      revert\n        /* \"--CODEGEN--\":2:4   */\n    tag_1:\n        /* \"Funciones/returns.sol\":60:1838  contract ValoresDeRetorno{... */\n      pop\n      jumpi(tag_2, lt(calldatasize, 0x04))\n      shr(0xe0, calldataload(0x00))\n      dup1\n      0x703b3404\n      gt\n      tag_10\n      jumpi\n      dup1\n      0x703b3404\n      eq\n      tag_6\n      jumpi\n      dup1\n      0xc19af07c\n      eq\n      tag_7\n      jumpi\n      dup1\n      0xe0068052\n      eq\n      tag_8\n      jumpi\n      dup1\n      0xe664737c\n      eq\n      tag_9\n      jumpi\n      jump(tag_2)\n    tag_10:\n      dup1\n      0x16286a22\n      eq\n      tag_3\n      jumpi\n      dup1\n      0x1819f9c3\n      eq\n      tag_4\n      jumpi\n      dup1\n      0x4439c8c0\n      eq\n      tag_5\n      jumpi\n    tag_2:\n        /* \"--CODEGEN--\":12:13   */\n      0x00\n        /* \"--CODEGEN--\":9:10   */\n      dup1\n        /* \"--CODEGEN--\":2:14   */\n      revert\n        /* \"Funciones/returns.sol\":318:414  function Multiplicacion(uint _a, uint _b) public pure returns(uint){... */\n    tag_3:\n      tag_11\n      0x04\n      dup1\n      calldatasize\n      sub\n        /* \"--CODEGEN--\":15:17   */\n      0x40\n        /* \"--CODEGEN--\":10:13   */\n      dup2\n        /* \"--CODEGEN--\":7:18   */\n      lt\n        /* \"--CODEGEN--\":4:6   */\n      iszero\n      tag_12\n      jumpi\n        /* \"--CODEGEN--\":31:32   */\n      0x00\n        /* \"--CODEGEN--\":28:29   */\n      dup1\n        /* \"--CODEGEN--\":21:33   */\n      revert\n        /* \"--CODEGEN--\":4:6   */\n    tag_12:\n        /* \"Funciones/returns.sol\":318:414  function Multiplicacion(uint _a, uint _b) public pure returns(uint){... */\n      dup2\n      add\n      swap1\n      dup1\n      dup1\n      calldataload\n      swap1\n      0x20\n      add\n      swap1\n      swap3\n      swap2\n      swap1\n      dup1\n      calldataload\n      swap1\n      0x20\n      add\n      swap1\n      swap3\n      swap2\n      swap1\n      pop\n      pop\n      pop\n      tag_13\n      jump\t// in\n    tag_11:\n      mload(0x40)\n      dup1\n      dup3\n      dup2\n      mstore\n      0x20\n      add\n      swap2\n      pop\n      pop\n      mload(0x40)\n      dup1\n      swap2\n      sub\n      swap1\n      return\n        /* \"Funciones/returns.sol\":1737:1826  function ultimo_valor() public pure{... */\n    tag_4:\n      tag_14\n      tag_15\n      jump\t// in\n    tag_14:\n      stop\n        /* \"Funciones/returns.sol\":137:223  function saludos() public pure returns(string memory){... */\n    tag_5:\n      tag_16\n      tag_17\n      jump\t// in\n    tag_16:\n      mload(0x40)\n      dup1\n      dup1\n      0x20\n      add\n      dup3\n      dup2\n      sub\n      dup3\n      mstore\n      dup4\n      dup2\n      dup2\n      mload\n      dup2\n      mstore\n      0x20\n      add\n      swap2\n      pop\n      dup1\n      mload\n      swap1\n      0x20\n      add\n      swap1\n      dup1\n      dup4\n      dup4\n        /* \"--CODEGEN--\":23:24   */\n      0x00\n        /* \"--CODEGEN--\":8:108   */\n    tag_18:\n        /* \"--CODEGEN--\":33:36   */\n      dup4\n        /* \"--CODEGEN--\":30:31   */\n      dup2\n        /* \"--CODEGEN--\":27:37   */\n      lt\n        /* \"--CODEGEN--\":8:108   */\n      iszero\n      tag_20\n      jumpi\n        /* \"--CODEGEN--\":99:100   */\n      dup1\n        /* \"--CODEGEN--\":94:97   */\n      dup3\n        /* \"--CODEGEN--\":90:101   */\n      add\n        /* \"--CODEGEN--\":84:102   */\n      mload\n        /* \"--CODEGEN--\":80:81   */\n      dup2\n        /* \"--CODEGEN--\":75:78   */\n      dup5\n        /* \"--CODEGEN--\":71:82   */\n      add\n        /* \"--CODEGEN--\":64:103   */\n      mstore\n        /* \"--CODEGEN--\":52:54   */\n      0x20\n        /* \"--CODEGEN--\":49:50   */\n      dup2\n        /* \"--CODEGEN--\":45:55   */\n      add\n        /* \"--CODEGEN--\":40:55   */\n      swap1\n      pop\n        /* \"--CODEGEN--\":8:108   */\n      jump(tag_18)\n    tag_20:\n        /* \"--CODEGEN--\":12:26   */\n      pop\n        /* \"Funciones/returns.sol\":137:223  function saludos() public pure returns(string memory){... */\n      pop\n      pop\n      pop\n      swap1\n      pop\n      swap1\n      dup2\n      add\n      swap1\n      0x1f\n      and\n      dup1\n      iszero\n      tag_21\n      jumpi\n      dup1\n      dup3\n      sub\n      dup1\n      mload\n      0x01\n      dup4\n      0x20\n      sub\n      0x0100\n      exp\n      sub\n      not\n      and\n      dup2\n      mstore\n      0x20\n      add\n      swap2\n      pop\n    tag_21:\n      pop\n      swap3\n      pop\n      pop\n      pop\n      mload(0x40)\n      dup1\n      swap2\n      sub\n      swap1\n      return\n        /* \"Funciones/returns.sol\":1249:1360  function numeros() public pure returns(uint, uint, uint, uint, uint, uint){... */\n    tag_6:\n      tag_22\n      tag_23\n      jump\t// in\n    tag_22:\n      mload(0x40)\n      dup1\n      dup8\n      dup2\n      mstore\n      0x20\n      add\n      dup7\n      dup2\n      mstore\n      0x20\n      add\n      dup6\n      dup2\n      mstore\n      0x20\n      add\n      dup5\n      dup2\n      mstore\n      0x20\n      add\n      dup4\n      dup2\n      mstore\n      0x20\n      add\n      dup3\n      dup2\n      mstore\n      0x20\n      add\n      swap7\n      pop\n      pop\n      pop\n      pop\n      pop\n      pop\n      pop\n      mload(0x40)\n      dup1\n      swap2\n      sub\n      swap1\n      return\n        /* \"Funciones/returns.sol\":503:723  function par_impar(uint _a) public pure returns(bool){... */\n    tag_7:\n      tag_24\n      0x04\n      dup1\n      calldatasize\n      sub\n        /* \"--CODEGEN--\":15:17   */\n      0x20\n        /* \"--CODEGEN--\":10:13   */\n      dup2\n        /* \"--CODEGEN--\":7:18   */\n      lt\n        /* \"--CODEGEN--\":4:6   */\n      iszero\n      tag_25\n      jumpi\n        /* \"--CODEGEN--\":31:32   */\n      0x00\n        /* \"--CODEGEN--\":28:29   */\n      dup1\n        /* \"--CODEGEN--\":21:33   */\n      revert\n        /* \"--CODEGEN--\":4:6   */\n    tag_25:\n        /* \"Funciones/returns.sol\":503:723  function par_impar(uint _a) public pure returns(bool){... */\n      dup2\n      add\n      swap1\n      dup1\n      dup1\n      calldataload\n      swap1\n      0x20\n      add\n      swap1\n      swap3\n      swap2\n      swap1\n      pop\n      pop\n      pop\n      tag_26\n      jump\t// in\n    tag_24:\n      mload(0x40)\n      dup1\n      dup3\n      iszero\n      iszero\n      iszero\n      iszero\n      dup2\n      mstore\n      0x20\n      add\n      swap2\n      pop\n      pop\n      mload(0x40)\n      dup1\n      swap2\n      sub\n      swap1\n      return\n        /* \"Funciones/returns.sol\":916:1179  function division(uint _a, uint _b) public pure returns(uint, uint, bool){... */\n    tag_8:\n      tag_27\n      0x04\n      dup1\n      calldatasize\n      sub\n        /* \"--CODEGEN--\":15:17   */\n      0x40\n        /* \"--CODEGEN--\":10:13   */\n      dup2\n        /* \"--CODEGEN--\":7:18   */\n      lt\n        /* \"--CODEGEN--\":4:6   */\n      iszero\n      tag_28\n      jumpi\n        /* \"--CODEGEN--\":31:32   */\n      0x00\n        /* \"--CODEGEN--\":28:29   */\n      dup1\n        /* \"--CODEGEN--\":21:33   */\n      revert\n        /* \"--CODEGEN--\":4:6   */\n    tag_28:\n        /* \"Funciones/returns.sol\":916:1179  function division(uint _a, uint _b) public pure returns(uint, uint, bool){... */\n      dup2\n      add\n      swap1\n      dup1\n      dup1\n      calldataload\n      swap1\n      0x20\n      add\n      swap1\n      swap3\n      swap2\n      swap1\n      dup1\n      calldataload\n      swap1\n      0x20\n      add\n      swap1\n      swap3\n      swap2\n      swap1\n      pop\n      pop\n      pop\n      tag_29\n      jump\t// in\n    tag_27:\n      mload(0x40)\n      dup1\n      dup5\n      dup2\n      mstore\n      0x20\n      add\n      dup4\n      dup2\n      mstore\n      0x20\n      add\n      dup3\n      iszero\n      iszero\n      iszero\n      iszero\n      dup2\n      mstore\n      0x20\n      add\n      swap4\n      pop\n      pop\n      pop\n      pop\n      mload(0x40)\n      dup1\n      swap2\n      sub\n      swap1\n      return\n        /* \"Funciones/returns.sol\":1401:1727  function todos_los_valores() public pure{... */\n    tag_9:\n      tag_30\n      tag_31\n      jump\t// in\n    tag_30:\n      stop\n        /* \"Funciones/returns.sol\":318:414  function Multiplicacion(uint _a, uint _b) public pure returns(uint){... */\n    tag_13:\n        /* \"Funciones/returns.sol\":380:384  uint */\n      0x00\n        /* \"Funciones/returns.sol\":405:407  _b */\n      dup2\n        /* \"Funciones/returns.sol\":402:404  _a */\n      dup4\n        /* \"Funciones/returns.sol\":402:407  _a*_b */\n      mul\n        /* \"Funciones/returns.sol\":395:407  return _a*_b */\n      swap1\n      pop\n        /* \"Funciones/returns.sol\":318:414  function Multiplicacion(uint _a, uint _b) public pure returns(uint){... */\n      swap3\n      swap2\n      pop\n      pop\n      jump\t// out\n        /* \"Funciones/returns.sol\":1737:1826  function ultimo_valor() public pure{... */\n    tag_15:\n        /* \"Funciones/returns.sol\":1797:1808  uint ultimo */\n      0x00\n        /* \"Funciones/returns.sol\":1810:1819  numeros() */\n      tag_34\n        /* \"Funciones/returns.sol\":1810:1817  numeros */\n      tag_23\n        /* \"Funciones/returns.sol\":1810:1819  numeros() */\n      jump\t// in\n    tag_34:\n        /* \"Funciones/returns.sol\":1791:1819  (,,,,,uint ultimo)=numeros() */\n      swap6\n      pop\n      pop\n      pop\n      pop\n      pop\n      pop\n        /* \"Funciones/returns.sol\":1737:1826  function ultimo_valor() public pure{... */\n      pop\n      jump\t// out\n        /* \"Funciones/returns.sol\":137:223  function saludos() public pure returns(string memory){... */\n    tag_17:\n        /* \"Funciones/returns.sol\":176:189  string memory */\n      0x60\n        /* \"Funciones/returns.sol\":200:216  return \"saludos\" */\n      mload(0x40)\n      dup1\n      0x40\n      add\n      0x40\n      mstore\n      dup1\n      0x07\n      dup2\n      mstore\n      0x20\n      add\n      0x73616c75646f7300000000000000000000000000000000000000000000000000\n      dup2\n      mstore\n      pop\n      swap1\n      pop\n        /* \"Funciones/returns.sol\":137:223  function saludos() public pure returns(string memory){... */\n      swap1\n      jump\t// out\n        /* \"Funciones/returns.sol\":1249:1360  function numeros() public pure returns(uint, uint, uint, uint, uint, uint){... */\n    tag_23:\n        /* \"Funciones/returns.sol\":1288:1292  uint */\n      0x00\n        /* \"Funciones/returns.sol\":1294:1298  uint */\n      dup1\n        /* \"Funciones/returns.sol\":1300:1304  uint */\n      0x00\n        /* \"Funciones/returns.sol\":1306:1310  uint */\n      dup1\n        /* \"Funciones/returns.sol\":1312:1316  uint */\n      0x00\n        /* \"Funciones/returns.sol\":1318:1322  uint */\n      dup1\n        /* \"Funciones/returns.sol\":1341:1342  1 */\n      0x01\n        /* \"Funciones/returns.sol\":1343:1344  2 */\n      0x02\n        /* \"Funciones/returns.sol\":1345:1346  3 */\n      0x03\n        /* \"Funciones/returns.sol\":1347:1348  4 */\n      0x04\n        /* \"Funciones/returns.sol\":1349:1350  5 */\n      0x05\n        /* \"Funciones/returns.sol\":1351:1352  6 */\n      0x06\n        /* \"Funciones/returns.sol\":1333:1353  return (1,2,3,4,5,6) */\n      dup6\n      swap6\n      pop\n      dup5\n      swap5\n      pop\n      dup4\n      swap4\n      pop\n      dup3\n      swap3\n      pop\n      dup2\n      swap2\n      pop\n      dup1\n      swap1\n      pop\n      swap6\n      pop\n      swap6\n      pop\n      swap6\n      pop\n      swap6\n      pop\n      swap6\n      pop\n      swap6\n      pop\n        /* \"Funciones/returns.sol\":1249:1360  function numeros() public pure returns(uint, uint, uint, uint, uint, uint){... */\n      swap1\n      swap2\n      swap3\n      swap4\n      swap5\n      swap6\n      jump\t// out\n        /* \"Funciones/returns.sol\":503:723  function par_impar(uint _a) public pure returns(bool){... */\n    tag_26:\n        /* \"Funciones/returns.sol\":551:555  bool */\n      0x00\n        /* \"Funciones/returns.sol\":575:584  bool flag */\n      dup1\n        /* \"Funciones/returns.sol\":612:613  0 */\n      0x00\n        /* \"Funciones/returns.sol\":609:610  2 */\n      0x02\n        /* \"Funciones/returns.sol\":606:608  _a */\n      dup5\n        /* \"Funciones/returns.sol\":606:610  _a%2 */\n      dup2\n      tag_38\n      jumpi\n      invalid\n    tag_38:\n      mod\n        /* \"Funciones/returns.sol\":606:613  _a%2==0 */\n      eq\n        /* \"Funciones/returns.sol\":603:687  if(_a%2==0){... */\n      iszero\n      tag_39\n      jumpi\n        /* \"Funciones/returns.sol\":633:637  true */\n      0x01\n        /* \"Funciones/returns.sol\":628:637  flag=true */\n      swap1\n      pop\n        /* \"Funciones/returns.sol\":603:687  if(_a%2==0){... */\n      jump(tag_40)\n    tag_39:\n        /* \"Funciones/returns.sol\":671:676  false */\n      0x00\n        /* \"Funciones/returns.sol\":666:676  flag=false */\n      swap1\n      pop\n        /* \"Funciones/returns.sol\":603:687  if(_a%2==0){... */\n    tag_40:\n        /* \"Funciones/returns.sol\":712:716  flag */\n      dup1\n        /* \"Funciones/returns.sol\":705:716  return flag */\n      swap2\n      pop\n      pop\n        /* \"Funciones/returns.sol\":503:723  function par_impar(uint _a) public pure returns(bool){... */\n      swap2\n      swap1\n      pop\n      jump\t// out\n        /* \"Funciones/returns.sol\":916:1179  function division(uint _a, uint _b) public pure returns(uint, uint, bool){... */\n    tag_29:\n        /* \"Funciones/returns.sol\":972:976  uint */\n      0x00\n        /* \"Funciones/returns.sol\":978:982  uint */\n      dup1\n        /* \"Funciones/returns.sol\":984:988  bool */\n      0x00\n        /* \"Funciones/returns.sol\":999:1005  uint q */\n      dup1\n        /* \"Funciones/returns.sol\":1011:1013  _b */\n      dup5\n        /* \"Funciones/returns.sol\":1008:1010  _a */\n      dup7\n        /* \"Funciones/returns.sol\":1008:1013  _a/_b */\n      dup2\n      tag_42\n      jumpi\n      invalid\n    tag_42:\n      div\n        /* \"Funciones/returns.sol\":999:1013  uint q = _a/_b */\n      swap1\n      pop\n        /* \"Funciones/returns.sol\":1023:1029  uint r */\n      0x00\n        /* \"Funciones/returns.sol\":1037:1039  _b */\n      dup6\n        /* \"Funciones/returns.sol\":1032:1034  _a */\n      dup8\n        /* \"Funciones/returns.sol\":1032:1039  _a % _b */\n      dup2\n      tag_43\n      jumpi\n      invalid\n    tag_43:\n      mod\n        /* \"Funciones/returns.sol\":1023:1039  uint r = _a % _b */\n      swap1\n      pop\n        /* \"Funciones/returns.sol\":1049:1062  bool multiplo */\n      0x00\n        /* \"Funciones/returns.sol\":1063:1068  false */\n      dup1\n        /* \"Funciones/returns.sol\":1049:1068  bool multiplo=false */\n      swap1\n      pop\n        /* \"Funciones/returns.sol\":1093:1094  0 */\n      0x00\n        /* \"Funciones/returns.sol\":1090:1091  r */\n      dup3\n        /* \"Funciones/returns.sol\":1090:1094  r==0 */\n      eq\n        /* \"Funciones/returns.sol\":1087:1133  if(r==0){... */\n      iszero\n      tag_44\n      jumpi\n        /* \"Funciones/returns.sol\":1118:1122  true */\n      0x01\n        /* \"Funciones/returns.sol\":1109:1122  multiplo=true */\n      swap1\n      pop\n        /* \"Funciones/returns.sol\":1087:1133  if(r==0){... */\n    tag_44:\n        /* \"Funciones/returns.sol\":1159:1160  q */\n      dup3\n        /* \"Funciones/returns.sol\":1161:1162  r */\n      dup3\n        /* \"Funciones/returns.sol\":1163:1171  multiplo */\n      dup3\n        /* \"Funciones/returns.sol\":1151:1172  return (q,r,multiplo) */\n      swap6\n      pop\n      swap6\n      pop\n      swap6\n      pop\n      pop\n      pop\n      pop\n        /* \"Funciones/returns.sol\":916:1179  function division(uint _a, uint _b) public pure returns(uint, uint, bool){... */\n      swap3\n      pop\n      swap3\n      pop\n      swap3\n      jump\t// out\n        /* \"Funciones/returns.sol\":1401:1727  function todos_los_valores() public pure{... */\n    tag_31:\n        /* \"Funciones/returns.sol\":1559:1565  uint a */\n      0x00\n        /* \"Funciones/returns.sol\":1575:1581  uint b */\n      dup1\n        /* \"Funciones/returns.sol\":1591:1597  uint c */\n      0x00\n        /* \"Funciones/returns.sol\":1607:1613  uint d */\n      dup1\n        /* \"Funciones/returns.sol\":1623:1629  uint e */\n      0x00\n        /* \"Funciones/returns.sol\":1639:1645  uint f */\n      dup1\n        /* \"Funciones/returns.sol\":1711:1720  numeros() */\n      tag_46\n        /* \"Funciones/returns.sol\":1711:1718  numeros */\n      tag_23\n        /* \"Funciones/returns.sol\":1711:1720  numeros() */\n      jump\t// in\n    tag_46:\n        /* \"Funciones/returns.sol\":1697:1720  (a,b,c,d,e,f)=numeros() */\n      dup1\n      swap7\n      pop\n      dup2\n      swap8\n      pop\n      dup3\n      swap9\n      pop\n      dup4\n      swap10\n      pop\n      dup5\n      swap11\n      pop\n      dup6\n      swap12\n      pop\n      pop\n      pop\n      pop\n      pop\n      pop\n      pop\n        /* \"Funciones/returns.sol\":1401:1727  function todos_los_valores() public pure{... */\n      pop\n      pop\n      pop\n      pop\n      pop\n      pop\n      jump\t// out\n\n    auxdata: 0xa26469706673582212203d802c3b159900e61842a304e4979115a56391f99c753b23c8f106d11a753c1d64736f6c63430006050033\n}\n",
				"bytecode": {
					"linkReferences": {},
					"object": "608060405234801561001057600080fd5b506103bd806100206000396000f3fe608060405234801561001057600080fd5b506004361061007d5760003560e01c8063703b34041161005b578063703b34041461015b578063c19af07c1461019c578063e0068052146101e2578063e664737c146102405761007d565b806316286a22146100825780631819f9c3146100ce5780634439c8c0146100d8575b600080fd5b6100b86004803603604081101561009857600080fd5b81019080803590602001909291908035906020019092919050505061024a565b6040518082815260200191505060405180910390f35b6100d6610257565b005b6100e061026b565b6040518080602001828103825283818151815260200191508051906020019080838360005b83811015610120578082015181840152602081019050610105565b50505050905090810190601f16801561014d5780820380516001836020036101000a031916815260200191505b509250505060405180910390f35b6101636102a8565b60405180878152602001868152602001858152602001848152602001838152602001828152602001965050505050505060405180910390f35b6101c8600480360360208110156101b257600080fd5b81019080803590602001909291905050506102e3565b604051808215151515815260200191505060405180910390f35b610218600480360360408110156101f857600080fd5b810190808035906020019092919080359060200190929190505050610310565b6040518084815260200183815260200182151515158152602001935050505060405180910390f35b610248610356565b005b6000818302905092915050565b60006102616102a8565b9550505050505050565b60606040518060400160405280600781526020017f73616c75646f7300000000000000000000000000000000000000000000000000815250905090565b600080600080600080600160026003600460056006859550849450839350829250819150809050955095509550955095509550909192939495565b6000806000600284816102f257fe5b0614156103025760019050610307565b600090505b80915050919050565b60008060008084868161031f57fe5b049050600085878161032d57fe5b0690506000809050600082141561034357600190505b8282829550955095505050509250925092565b6000806000806000806103676102a8565b809650819750829850839950849a50859b5050505050505050505050505056fea26469706673582212203d802c3b159900e61842a304e4979115a56391f99c753b23c8f106d11a753c1d64736f6c63430006050033",
					"opcodes": "PUSH1 0x80 PUSH1 0x40 MSTORE CALLVALUE DUP1 ISZERO PUSH2 0x10 JUMPI PUSH1 0x0 DUP1 REVERT JUMPDEST POP PUSH2 0x3BD DUP1 PUSH2 0x20 PUSH1 0x0 CODECOPY PUSH1 0x0 RETURN INVALID PUSH1 0x80 PUSH1 0x40 MSTORE CALLVALUE DUP1 ISZERO PUSH2 0x10 JUMPI PUSH1 0x0 DUP1 REVERT JUMPDEST POP PUSH1 0x4 CALLDATASIZE LT PUSH2 0x7D JUMPI PUSH1 0x0 CALLDATALOAD PUSH1 0xE0 SHR DUP1 PUSH4 0x703B3404 GT PUSH2 0x5B JUMPI DUP1 PUSH4 0x703B3404 EQ PUSH2 0x15B JUMPI DUP1 PUSH4 0xC19AF07C EQ PUSH2 0x19C JUMPI DUP1 PUSH4 0xE0068052 EQ PUSH2 0x1E2 JUMPI DUP1 PUSH4 0xE664737C EQ PUSH2 0x240 JUMPI PUSH2 0x7D JUMP JUMPDEST DUP1 PUSH4 0x16286A22 EQ PUSH2 0x82 JUMPI DUP1 PUSH4 0x1819F9C3 EQ PUSH2 0xCE JUMPI DUP1 PUSH4 0x4439C8C0 EQ PUSH2 0xD8 JUMPI JUMPDEST PUSH1 0x0 DUP1 REVERT JUMPDEST PUSH2 0xB8 PUSH1 0x4 DUP1 CALLDATASIZE SUB PUSH1 0x40 DUP2 LT ISZERO PUSH2 0x98 JUMPI PUSH1 0x0 DUP1 REVERT JUMPDEST DUP2 ADD SWAP1 DUP1 DUP1 CALLDATALOAD SWAP1 PUSH1 0x20 ADD SWAP1 SWAP3 SWAP2 SWAP1 DUP1 CALLDATALOAD SWAP1 PUSH1 0x20 ADD SWAP1 SWAP3 SWAP2 SWAP1 POP POP POP PUSH2 0x24A JUMP JUMPDEST PUSH1 0x40 MLOAD DUP1 DUP3 DUP2 MSTORE PUSH1 0x20 ADD SWAP2 POP POP PUSH1 0x40 MLOAD DUP1 SWAP2 SUB SWAP1 RETURN JUMPDEST PUSH2 0xD6 PUSH2 0x257 JUMP JUMPDEST STOP JUMPDEST PUSH2 0xE0 PUSH2 0x26B JUMP JUMPDEST PUSH1 0x40 MLOAD DUP1 DUP1 PUSH1 0x20 ADD DUP3 DUP2 SUB DUP3 MSTORE DUP4 DUP2 DUP2 MLOAD DUP2 MSTORE PUSH1 0x20 ADD SWAP2 POP DUP1 MLOAD SWAP1 PUSH1 0x20 ADD SWAP1 DUP1 DUP4 DUP4 PUSH1 0x0 JUMPDEST DUP4 DUP2 LT ISZERO PUSH2 0x120 JUMPI DUP1 DUP3 ADD MLOAD DUP2 DUP5 ADD MSTORE PUSH1 0x20 DUP2 ADD SWAP1 POP PUSH2 0x105 JUMP JUMPDEST POP POP POP POP SWAP1 POP SWAP1 DUP2 ADD SWAP1 PUSH1 0x1F AND DUP1 ISZERO PUSH2 0x14D JUMPI DUP1 DUP3 SUB DUP1 MLOAD PUSH1 0x1 DUP4 PUSH1 0x20 SUB PUSH2 0x100 EXP SUB NOT AND DUP2 MSTORE PUSH1 0x20 ADD SWAP2 POP JUMPDEST POP SWAP3 POP POP POP PUSH1 0x40 MLOAD DUP1 SWAP2 SUB SWAP1 RETURN JUMPDEST PUSH2 0x163 PUSH2 0x2A8 JUMP JUMPDEST PUSH1 0x40 MLOAD DUP1 DUP8 DUP2 MSTORE PUSH1 0x20 ADD DUP7 DUP2 MSTORE PUSH1 0x20 ADD DUP6 DUP2 MSTORE PUSH1 0x20 ADD DUP5 DUP2 MSTORE PUSH1 0x20 ADD DUP4 DUP2 MSTORE PUSH1 0x20 ADD DUP3 DUP2 MSTORE PUSH1 0x20 ADD SWAP7 POP POP POP POP POP POP POP PUSH1 0x40 MLOAD DUP1 SWAP2 SUB SWAP1 RETURN JUMPDEST PUSH2 0x1C8 PUSH1 0x4 DUP1 CALLDATASIZE SUB PUSH1 0x20 DUP2 LT ISZERO PUSH2 0x1B2 JUMPI PUSH1 0x0 DUP1 REVERT JUMPDEST DUP2 ADD SWAP1 DUP1 DUP1 CALLDATALOAD SWAP1 PUSH1 0x20 ADD SWAP1 SWAP3 SWAP2 SWAP1 POP POP POP PUSH2 0x2E3 JUMP JUMPDEST PUSH1 0x40 MLOAD DUP1 DUP3 ISZERO ISZERO ISZERO ISZERO DUP2 MSTORE PUSH1 0x20 ADD SWAP2 POP POP PUSH1 0x40 MLOAD DUP1 SWAP2 SUB SWAP1 RETURN JUMPDEST PUSH2 0x218 PUSH1 0x4 DUP1 CALLDATASIZE SUB PUSH1 0x40 DUP2 LT ISZERO PUSH2 0x1F8 JUMPI PUSH1 0x0 DUP1 REVERT JUMPDEST DUP2 ADD SWAP1 DUP1 DUP1 CALLDATALOAD SWAP1 PUSH1 0x20 ADD SWAP1 SWAP3 SWAP2 SWAP1 DUP1 CALLDATALOAD SWAP1 PUSH1 0x20 ADD SWAP1 SWAP3 SWAP2 SWAP1 POP POP POP PUSH2 0x310 JUMP JUMPDEST PUSH1 0x40 MLOAD DUP1 DUP5 DUP2 MSTORE PUSH1 0x20 ADD DUP4 DUP2 MSTORE PUSH1 0x20 ADD DUP3 ISZERO ISZERO ISZERO ISZERO DUP2 MSTORE PUSH1 0x20 ADD SWAP4 POP POP POP POP PUSH1 0x40 MLOAD DUP1 SWAP2 SUB SWAP1 RETURN JUMPDEST PUSH2 0x248 PUSH2 0x356 JUMP JUMPDEST STOP JUMPDEST PUSH1 0x0 DUP2 DUP4 MUL SWAP1 POP SWAP3 SWAP2 POP POP JUMP JUMPDEST PUSH1 0x0 PUSH2 0x261 PUSH2 0x2A8 JUMP JUMPDEST SWAP6 POP POP POP POP POP POP POP JUMP JUMPDEST PUSH1 0x60 PUSH1 0x40 MLOAD DUP1 PUSH1 0x40 ADD PUSH1 0x40 MSTORE DUP1 PUSH1 0x7 DUP2 MSTORE PUSH1 0x20 ADD PUSH32 0x73616C75646F7300000000000000000000000000000000000000000000000000 DUP2 MSTORE POP SWAP1 POP SWAP1 JUMP JUMPDEST PUSH1 0x0 DUP1 PUSH1 0x0 DUP1 PUSH1 0x0 DUP1 PUSH1 0x1 PUSH1 0x2 PUSH1 0x3 PUSH1 0x4 PUSH1 0x5 PUSH1 0x6 DUP6 SWAP6 POP DUP5 SWAP5 POP DUP4 SWAP4 POP DUP3 SWAP3 POP DUP2 SWAP2 POP DUP1 SWAP1 POP SWAP6 POP SWAP6 POP SWAP6 POP SWAP6 POP SWAP6 POP SWAP6 POP SWAP1 SWAP2 SWAP3 SWAP4 SWAP5 SWAP6 JUMP JUMPDEST PUSH1 0x0 DUP1 PUSH1 0x0 PUSH1 0x2 DUP5 DUP2 PUSH2 0x2F2 JUMPI INVALID JUMPDEST MOD EQ ISZERO PUSH2 0x302 JUMPI PUSH1 0x1 SWAP1 POP PUSH2 0x307 JUMP JUMPDEST PUSH1 0x0 SWAP1 POP JUMPDEST DUP1 SWAP2 POP POP SWAP2 SWAP1 POP JUMP JUMPDEST PUSH1 0x0 DUP1 PUSH1 0x0 DUP1 DUP5 DUP7 DUP2 PUSH2 0x31F JUMPI INVALID JUMPDEST DIV SWAP1 POP PUSH1 0x0 DUP6 DUP8 DUP2 PUSH2 0x32D JUMPI INVALID JUMPDEST MOD SWAP1 POP PUSH1 0x0 DUP1 SWAP1 POP PUSH1 0x0 DUP3 EQ ISZERO PUSH2 0x343 JUMPI PUSH1 0x1 SWAP1 POP JUMPDEST DUP3 DUP3 DUP3 SWAP6 POP SWAP6 POP SWAP6 POP POP POP POP SWAP3 POP SWAP3 POP SWAP3 JUMP JUMPDEST PUSH1 0x0 DUP1 PUSH1 0x0 DUP1 PUSH1 0x0 DUP1 PUSH2 0x367 PUSH2 0x2A8 JUMP JUMPDEST DUP1 SWAP7 POP DUP2 SWAP8 POP DUP3 SWAP9 POP DUP4 SWAP10 POP DUP5 SWAP11 POP DUP6 SWAP12 POP POP POP POP POP POP POP POP POP POP POP POP POP JUMP INVALID LOG2 PUSH5 0x6970667358 0x22 SLT KECCAK256 RETURNDATASIZE DUP1 0x2C EXTCODESIZE ISZERO SWAP10 STOP 0xE6 XOR TIMESTAMP LOG3 DIV 0xE4 SWAP8 SWAP2 ISZERO 0xA5 PUSH4 0x91F99C75 EXTCODESIZE 0x23 0xC8 CALL MOD 0xD1 BYTE PUSH22 0x3C1D64736F6C63430006050033000000000000000000 "
				},
				"gasEstimates": {
					"creation": {
						"codeDepositCost": "191400",
						"executionCost": "232",
						"totalCost": "191632"
					},
					"external": {
						"Multiplicacion(uint256,uint256)": "338",
						"division(uint256,uint256)": "573",
						"numeros()": "431",
						"par_impar(uint256)": "409",
						"saludos()": "infinite",
						"todos_los_valores()": "456",
						"ultimo_valor()": "343"
					}
				},
				"methodIdentifiers": {
					"Multiplicacion(uint256,uint256)": "16286a22",
					"division(uint256,uint256)": "e0068052",
					"numeros()": "703b3404",
					"par_impar(uint256)": "c19af07c",
					"saludos()": "4439c8c0",
					"todos_los_valores()": "e664737c",
					"ultimo_valor()": "1819f9c3"
				}
			},
			"storageLayout": {
				"storage": [],
				"types": null
			},
			"userdoc": {
				"methods": {}
			}
		}
	}
}