{
	"Funciones/eventos.sol": {
		"Eventos": {
			"abi": [
				{
					"anonymous": false,
					"inputs": [
						{
							"indexed": false,
							"internalType": "string",
							"name": "_nombrePersona",
							"type": "string"
						}
					],
					"name": "nombre_evento1",
					"type": "event"
				},
				{
					"anonymous": false,
					"inputs": [
						{
							"indexed": false,
							"internalType": "string",
							"name": "_nombrePersona",
							"type": "string"
						},
						{
							"indexed": false,
							"internalType": "uint256",
							"name": "_edadPersona",
							"type": "uint256"
						}
					],
					"name": "nombre_evento2",
					"type": "event"
				},
				{
					"anonymous": false,
					"inputs": [
						{
							"indexed": false,
							"internalType": "string",
							"name": "",
							"type": "string"
						},
						{
							"indexed": false,
							"internalType": "uint256",
							"name": "",
							"type": "uint256"
						},
						{
							"indexed": false,
							"internalType": "address",
							"name": "",
							"type": "address"
						},
						{
							"indexed": false,
							"internalType": "bytes32",
							"name": "",
							"type": "bytes32"
						}
					],
					"name": "nombre_evento3",
					"type": "event"
				},
				{
					"inputs": [
						{
							"internalType": "string",
							"name": "_nombrePersona",
							"type": "string"
						}
					],
					"name": "emitirEvento1",
					"outputs": [],
					"stateMutability": "nonpayable",
					"type": "function"
				},
				{
					"inputs": [
						{
							"internalType": "string",
							"name": "_nombrePersona",
							"type": "string"
						},
						{
							"internalType": "uint256",
							"name": "_edadPersona",
							"type": "uint256"
						}
					],
					"name": "emitirEvento2",
					"outputs": [],
					"stateMutability": "nonpayable",
					"type": "function"
				},
				{
					"inputs": [
						{
							"internalType": "string",
							"name": "_nombrePersona",
							"type": "string"
						},
						{
							"internalType": "uint256",
							"name": "_edadPersona",
							"type": "uint256"
						}
					],
					"name": "emitirEvento3",
					"outputs": [],
					"stateMutability": "nonpayable",
					"type": "function"
				}
			],
			"devdoc": {
				"methods": {}
			},
			"evm": {
				"assembly": "    /* \"Funciones/eventos.sol\":98:785  contract Eventos{\r... */\n  mstore(0x40, 0x80)\n  callvalue\n    /* \"--CODEGEN--\":5:14   */\n  dup1\n    /* \"--CODEGEN--\":2:4   */\n  iszero\n  tag_1\n  jumpi\n    /* \"--CODEGEN--\":27:28   */\n  0x00\n    /* \"--CODEGEN--\":24:25   */\n  dup1\n    /* \"--CODEGEN--\":17:29   */\n  revert\n    /* \"--CODEGEN--\":2:4   */\ntag_1:\n    /* \"Funciones/eventos.sol\":98:785  contract Eventos{\r... */\n  pop\n  dataSize(sub_0)\n  dup1\n  dataOffset(sub_0)\n  0x00\n  codecopy\n  0x00\n  return\nstop\n\nsub_0: assembly {\n        /* \"Funciones/eventos.sol\":98:785  contract Eventos{\r... */\n      mstore(0x40, 0x80)\n      callvalue\n        /* \"--CODEGEN--\":5:14   */\n      dup1\n        /* \"--CODEGEN--\":2:4   */\n      iszero\n      tag_1\n      jumpi\n        /* \"--CODEGEN--\":27:28   */\n      0x00\n        /* \"--CODEGEN--\":24:25   */\n      dup1\n        /* \"--CODEGEN--\":17:29   */\n      revert\n        /* \"--CODEGEN--\":2:4   */\n    tag_1:\n        /* \"Funciones/eventos.sol\":98:785  contract Eventos{\r... */\n      pop\n      jumpi(tag_2, lt(calldatasize, 0x04))\n      shr(0xe0, calldataload(0x00))\n      dup1\n      0x6480f5c2\n      eq\n      tag_3\n      jumpi\n      dup1\n      0x7cf1103d\n      eq\n      tag_4\n      jumpi\n      dup1\n      0x7f4f0f35\n      eq\n      tag_5\n      jumpi\n    tag_2:\n        /* \"--CODEGEN--\":12:13   */\n      0x00\n        /* \"--CODEGEN--\":9:10   */\n      dup1\n        /* \"--CODEGEN--\":2:14   */\n      revert\n        /* \"Funciones/eventos.sol\":635:782  function emitirEvento3(string memory _nombrePersona, uint _edadPersona) public {\r... */\n    tag_3:\n      tag_6\n      0x04\n      dup1\n      calldatasize\n      sub\n      dup2\n      add\n      swap1\n      tag_7\n      swap2\n      swap1\n      jump(tag_8)\n    tag_7:\n      tag_9\n      jump\t// in\n    tag_6:\n      stop\n        /* \"Funciones/eventos.sol\":358:472  function emitirEvento1(string memory _nombrePersona) public {\r... */\n    tag_4:\n      tag_10\n      0x04\n      dup1\n      calldatasize\n      sub\n      dup2\n      add\n      swap1\n      tag_11\n      swap2\n      swap1\n      jump(tag_12)\n    tag_11:\n      tag_13\n      jump\t// in\n    tag_10:\n      stop\n        /* \"Funciones/eventos.sol\":480:627  function emitirEvento2(string memory _nombrePersona, uint _edadPersona) public {\r... */\n    tag_5:\n      tag_14\n      0x04\n      dup1\n      calldatasize\n      sub\n      dup2\n      add\n      swap1\n      tag_15\n      swap2\n      swap1\n      jump(tag_8)\n    tag_15:\n      tag_16\n      jump\t// in\n    tag_14:\n      stop\n        /* \"Funciones/eventos.sol\":635:782  function emitirEvento3(string memory _nombrePersona, uint _edadPersona) public {\r... */\n    tag_9:\n        /* \"Funciones/eventos.sol\":730:774  nombre_evento2(_nombrePersona, _edadPersona) */\n      0x7556e8345a443b754c690a14b2cd91df7aec27fbd662a660dd25d647f4732ed1\n        /* \"Funciones/eventos.sol\":745:759  _nombrePersona */\n      dup3\n        /* \"Funciones/eventos.sol\":761:773  _edadPersona */\n      dup3\n        /* \"Funciones/eventos.sol\":730:774  nombre_evento2(_nombrePersona, _edadPersona) */\n      mload(0x40)\n      tag_18\n      swap3\n      swap2\n      swap1\n      jump(tag_19)\n    tag_18:\n      mload(0x40)\n      dup1\n      swap2\n      sub\n      swap1\n      log1\n        /* \"Funciones/eventos.sol\":635:782  function emitirEvento3(string memory _nombrePersona, uint _edadPersona) public {\r... */\n      pop\n      pop\n      jump\t// out\n        /* \"Funciones/eventos.sol\":358:472  function emitirEvento1(string memory _nombrePersona) public {\r... */\n    tag_13:\n        /* \"Funciones/eventos.sol\":434:464  nombre_evento1(_nombrePersona) */\n      0x5007d59453ebcd951519cabd56f016d29fe2390892307189bde962ced3d34094\n        /* \"Funciones/eventos.sol\":449:463  _nombrePersona */\n      dup2\n        /* \"Funciones/eventos.sol\":434:464  nombre_evento1(_nombrePersona) */\n      mload(0x40)\n      tag_21\n      swap2\n      swap1\n      jump(tag_22)\n    tag_21:\n      mload(0x40)\n      dup1\n      swap2\n      sub\n      swap1\n      log1\n        /* \"Funciones/eventos.sol\":358:472  function emitirEvento1(string memory _nombrePersona) public {\r... */\n      pop\n      jump\t// out\n        /* \"Funciones/eventos.sol\":480:627  function emitirEvento2(string memory _nombrePersona, uint _edadPersona) public {\r... */\n    tag_16:\n        /* \"Funciones/eventos.sol\":575:619  nombre_evento2(_nombrePersona, _edadPersona) */\n      0x7556e8345a443b754c690a14b2cd91df7aec27fbd662a660dd25d647f4732ed1\n        /* \"Funciones/eventos.sol\":590:604  _nombrePersona */\n      dup3\n        /* \"Funciones/eventos.sol\":606:618  _edadPersona */\n      dup3\n        /* \"Funciones/eventos.sol\":575:619  nombre_evento2(_nombrePersona, _edadPersona) */\n      mload(0x40)\n      tag_24\n      swap3\n      swap2\n      swap1\n      jump(tag_19)\n    tag_24:\n      mload(0x40)\n      dup1\n      swap2\n      sub\n      swap1\n      log1\n        /* \"Funciones/eventos.sol\":480:627  function emitirEvento2(string memory _nombrePersona, uint _edadPersona) public {\r... */\n      pop\n      pop\n      jump\t// out\n        /* \"--CODEGEN--\":6:448   */\n    tag_26:\n      0x00\n        /* \"--CODEGEN--\":108:111   */\n      dup3\n        /* \"--CODEGEN--\":101:105   */\n      0x1f\n        /* \"--CODEGEN--\":93:99   */\n      dup4\n        /* \"--CODEGEN--\":89:106   */\n      add\n        /* \"--CODEGEN--\":85:112   */\n      slt\n        /* \"--CODEGEN--\":75:77   */\n      tag_28\n      jumpi\n        /* \"--CODEGEN--\":126:127   */\n      0x00\n        /* \"--CODEGEN--\":123:124   */\n      dup1\n        /* \"--CODEGEN--\":116:128   */\n      revert\n        /* \"--CODEGEN--\":75:77   */\n    tag_28:\n        /* \"--CODEGEN--\":163:169   */\n      dup2\n        /* \"--CODEGEN--\":150:170   */\n      calldataload\n        /* \"--CODEGEN--\":185:250   */\n      tag_29\n        /* \"--CODEGEN--\":200:249   */\n      tag_30\n        /* \"--CODEGEN--\":242:248   */\n      dup3\n        /* \"--CODEGEN--\":200:249   */\n      jump(tag_31)\n    tag_30:\n        /* \"--CODEGEN--\":185:250   */\n      jump(tag_32)\n    tag_29:\n        /* \"--CODEGEN--\":176:250   */\n      swap2\n      pop\n        /* \"--CODEGEN--\":270:276   */\n      dup1\n        /* \"--CODEGEN--\":263:268   */\n      dup3\n        /* \"--CODEGEN--\":256:277   */\n      mstore\n        /* \"--CODEGEN--\":306:310   */\n      0x20\n        /* \"--CODEGEN--\":298:304   */\n      dup4\n        /* \"--CODEGEN--\":294:311   */\n      add\n        /* \"--CODEGEN--\":339:343   */\n      0x20\n        /* \"--CODEGEN--\":332:337   */\n      dup4\n        /* \"--CODEGEN--\":328:344   */\n      add\n        /* \"--CODEGEN--\":374:377   */\n      dup6\n        /* \"--CODEGEN--\":365:371   */\n      dup4\n        /* \"--CODEGEN--\":360:363   */\n      dup4\n        /* \"--CODEGEN--\":356:372   */\n      add\n        /* \"--CODEGEN--\":353:378   */\n      gt\n        /* \"--CODEGEN--\":350:352   */\n      iszero\n      tag_33\n      jumpi\n        /* \"--CODEGEN--\":391:392   */\n      0x00\n        /* \"--CODEGEN--\":388:389   */\n      dup1\n        /* \"--CODEGEN--\":381:393   */\n      revert\n        /* \"--CODEGEN--\":350:352   */\n    tag_33:\n        /* \"--CODEGEN--\":401:442   */\n      tag_34\n        /* \"--CODEGEN--\":435:441   */\n      dup4\n        /* \"--CODEGEN--\":430:433   */\n      dup3\n        /* \"--CODEGEN--\":425:428   */\n      dup5\n        /* \"--CODEGEN--\":401:442   */\n      jump(tag_35)\n    tag_34:\n        /* \"--CODEGEN--\":68:448   */\n      pop\n      pop\n      pop\n      swap3\n      swap2\n      pop\n      pop\n      jump\n        /* \"--CODEGEN--\":456:586   */\n    tag_36:\n      0x00\n        /* \"--CODEGEN--\":536:542   */\n      dup2\n        /* \"--CODEGEN--\":523:543   */\n      calldataload\n        /* \"--CODEGEN--\":514:543   */\n      swap1\n      pop\n        /* \"--CODEGEN--\":548:581   */\n      tag_38\n        /* \"--CODEGEN--\":575:580   */\n      dup2\n        /* \"--CODEGEN--\":548:581   */\n      jump(tag_39)\n    tag_38:\n        /* \"--CODEGEN--\":508:586   */\n      swap3\n      swap2\n      pop\n      pop\n      jump\n        /* \"--CODEGEN--\":593:940   */\n    tag_12:\n      0x00\n        /* \"--CODEGEN--\":707:709   */\n      0x20\n        /* \"--CODEGEN--\":695:704   */\n      dup3\n        /* \"--CODEGEN--\":686:693   */\n      dup5\n        /* \"--CODEGEN--\":682:705   */\n      sub\n        /* \"--CODEGEN--\":678:710   */\n      slt\n        /* \"--CODEGEN--\":675:677   */\n      iszero\n      tag_41\n      jumpi\n        /* \"--CODEGEN--\":723:724   */\n      0x00\n        /* \"--CODEGEN--\":720:721   */\n      dup1\n        /* \"--CODEGEN--\":713:725   */\n      revert\n        /* \"--CODEGEN--\":675:677   */\n    tag_41:\n        /* \"--CODEGEN--\":786:787   */\n      0x00\n        /* \"--CODEGEN--\":775:784   */\n      dup3\n        /* \"--CODEGEN--\":771:788   */\n      add\n        /* \"--CODEGEN--\":758:789   */\n      calldataload\n        /* \"--CODEGEN--\":809:827   */\n      0xffffffffffffffff\n        /* \"--CODEGEN--\":801:807   */\n      dup2\n        /* \"--CODEGEN--\":798:828   */\n      gt\n        /* \"--CODEGEN--\":795:797   */\n      iszero\n      tag_42\n      jumpi\n        /* \"--CODEGEN--\":841:842   */\n      0x00\n        /* \"--CODEGEN--\":838:839   */\n      dup1\n        /* \"--CODEGEN--\":831:843   */\n      revert\n        /* \"--CODEGEN--\":795:797   */\n    tag_42:\n        /* \"--CODEGEN--\":861:924   */\n      tag_43\n        /* \"--CODEGEN--\":916:923   */\n      dup5\n        /* \"--CODEGEN--\":907:913   */\n      dup3\n        /* \"--CODEGEN--\":896:905   */\n      dup6\n        /* \"--CODEGEN--\":892:914   */\n      add\n        /* \"--CODEGEN--\":861:924   */\n      jump(tag_26)\n    tag_43:\n        /* \"--CODEGEN--\":851:924   */\n      swap2\n      pop\n        /* \"--CODEGEN--\":737:930   */\n      pop\n        /* \"--CODEGEN--\":669:940   */\n      swap3\n      swap2\n      pop\n      pop\n      jump\n        /* \"--CODEGEN--\":947:1419   */\n    tag_8:\n      0x00\n      dup1\n        /* \"--CODEGEN--\":1078:1080   */\n      0x40\n        /* \"--CODEGEN--\":1066:1075   */\n      dup4\n        /* \"--CODEGEN--\":1057:1064   */\n      dup6\n        /* \"--CODEGEN--\":1053:1076   */\n      sub\n        /* \"--CODEGEN--\":1049:1081   */\n      slt\n        /* \"--CODEGEN--\":1046:1048   */\n      iszero\n      tag_45\n      jumpi\n        /* \"--CODEGEN--\":1094:1095   */\n      0x00\n        /* \"--CODEGEN--\":1091:1092   */\n      dup1\n        /* \"--CODEGEN--\":1084:1096   */\n      revert\n        /* \"--CODEGEN--\":1046:1048   */\n    tag_45:\n        /* \"--CODEGEN--\":1157:1158   */\n      0x00\n        /* \"--CODEGEN--\":1146:1155   */\n      dup4\n        /* \"--CODEGEN--\":1142:1159   */\n      add\n        /* \"--CODEGEN--\":1129:1160   */\n      calldataload\n        /* \"--CODEGEN--\":1180:1198   */\n      0xffffffffffffffff\n        /* \"--CODEGEN--\":1172:1178   */\n      dup2\n        /* \"--CODEGEN--\":1169:1199   */\n      gt\n        /* \"--CODEGEN--\":1166:1168   */\n      iszero\n      tag_46\n      jumpi\n        /* \"--CODEGEN--\":1212:1213   */\n      0x00\n        /* \"--CODEGEN--\":1209:1210   */\n      dup1\n        /* \"--CODEGEN--\":1202:1214   */\n      revert\n        /* \"--CODEGEN--\":1166:1168   */\n    tag_46:\n        /* \"--CODEGEN--\":1232:1295   */\n      tag_47\n        /* \"--CODEGEN--\":1287:1294   */\n      dup6\n        /* \"--CODEGEN--\":1278:1284   */\n      dup3\n        /* \"--CODEGEN--\":1267:1276   */\n      dup7\n        /* \"--CODEGEN--\":1263:1285   */\n      add\n        /* \"--CODEGEN--\":1232:1295   */\n      jump(tag_26)\n    tag_47:\n        /* \"--CODEGEN--\":1222:1295   */\n      swap3\n      pop\n        /* \"--CODEGEN--\":1108:1301   */\n      pop\n        /* \"--CODEGEN--\":1332:1334   */\n      0x20\n        /* \"--CODEGEN--\":1350:1403   */\n      tag_48\n        /* \"--CODEGEN--\":1395:1402   */\n      dup6\n        /* \"--CODEGEN--\":1386:1392   */\n      dup3\n        /* \"--CODEGEN--\":1375:1384   */\n      dup7\n        /* \"--CODEGEN--\":1371:1393   */\n      add\n        /* \"--CODEGEN--\":1350:1403   */\n      jump(tag_36)\n    tag_48:\n        /* \"--CODEGEN--\":1340:1403   */\n      swap2\n      pop\n        /* \"--CODEGEN--\":1311:1409   */\n      pop\n        /* \"--CODEGEN--\":1040:1419   */\n      swap3\n      pop\n      swap3\n      swap1\n      pop\n      jump\n        /* \"--CODEGEN--\":1426:1773   */\n    tag_49:\n      0x00\n        /* \"--CODEGEN--\":1538:1577   */\n      tag_51\n        /* \"--CODEGEN--\":1571:1576   */\n      dup3\n        /* \"--CODEGEN--\":1538:1577   */\n      jump(tag_52)\n    tag_51:\n        /* \"--CODEGEN--\":1589:1660   */\n      tag_53\n        /* \"--CODEGEN--\":1653:1659   */\n      dup2\n        /* \"--CODEGEN--\":1648:1651   */\n      dup6\n        /* \"--CODEGEN--\":1589:1660   */\n      jump(tag_54)\n    tag_53:\n        /* \"--CODEGEN--\":1582:1660   */\n      swap4\n      pop\n        /* \"--CODEGEN--\":1665:1717   */\n      tag_55\n        /* \"--CODEGEN--\":1710:1716   */\n      dup2\n        /* \"--CODEGEN--\":1705:1708   */\n      dup6\n        /* \"--CODEGEN--\":1698:1702   */\n      0x20\n        /* \"--CODEGEN--\":1691:1696   */\n      dup7\n        /* \"--CODEGEN--\":1687:1703   */\n      add\n        /* \"--CODEGEN--\":1665:1717   */\n      jump(tag_56)\n    tag_55:\n        /* \"--CODEGEN--\":1738:1767   */\n      tag_57\n        /* \"--CODEGEN--\":1760:1766   */\n      dup2\n        /* \"--CODEGEN--\":1738:1767   */\n      jump(tag_58)\n    tag_57:\n        /* \"--CODEGEN--\":1733:1736   */\n      dup5\n        /* \"--CODEGEN--\":1729:1768   */\n      add\n        /* \"--CODEGEN--\":1722:1768   */\n      swap2\n      pop\n        /* \"--CODEGEN--\":1518:1773   */\n      pop\n      swap3\n      swap2\n      pop\n      pop\n      jump\n        /* \"--CODEGEN--\":1780:1893   */\n    tag_59:\n        /* \"--CODEGEN--\":1863:1887   */\n      tag_61\n        /* \"--CODEGEN--\":1881:1886   */\n      dup2\n        /* \"--CODEGEN--\":1863:1887   */\n      jump(tag_62)\n    tag_61:\n        /* \"--CODEGEN--\":1858:1861   */\n      dup3\n        /* \"--CODEGEN--\":1851:1888   */\n      mstore\n        /* \"--CODEGEN--\":1845:1893   */\n      pop\n      pop\n      jump\n        /* \"--CODEGEN--\":1900:2201   */\n    tag_22:\n      0x00\n        /* \"--CODEGEN--\":2038:2040   */\n      0x20\n        /* \"--CODEGEN--\":2027:2036   */\n      dup3\n        /* \"--CODEGEN--\":2023:2041   */\n      add\n        /* \"--CODEGEN--\":2015:2041   */\n      swap1\n      pop\n        /* \"--CODEGEN--\":2088:2097   */\n      dup2\n        /* \"--CODEGEN--\":2082:2086   */\n      dup2\n        /* \"--CODEGEN--\":2078:2098   */\n      sub\n        /* \"--CODEGEN--\":2074:2075   */\n      0x00\n        /* \"--CODEGEN--\":2063:2072   */\n      dup4\n        /* \"--CODEGEN--\":2059:2076   */\n      add\n        /* \"--CODEGEN--\":2052:2099   */\n      mstore\n        /* \"--CODEGEN--\":2113:2191   */\n      tag_64\n        /* \"--CODEGEN--\":2186:2190   */\n      dup2\n        /* \"--CODEGEN--\":2177:2183   */\n      dup5\n        /* \"--CODEGEN--\":2113:2191   */\n      jump(tag_49)\n    tag_64:\n        /* \"--CODEGEN--\":2105:2191   */\n      swap1\n      pop\n        /* \"--CODEGEN--\":2009:2201   */\n      swap3\n      swap2\n      pop\n      pop\n      jump\n        /* \"--CODEGEN--\":2208:2620   */\n    tag_19:\n      0x00\n        /* \"--CODEGEN--\":2374:2376   */\n      0x40\n        /* \"--CODEGEN--\":2363:2372   */\n      dup3\n        /* \"--CODEGEN--\":2359:2377   */\n      add\n        /* \"--CODEGEN--\":2351:2377   */\n      swap1\n      pop\n        /* \"--CODEGEN--\":2424:2433   */\n      dup2\n        /* \"--CODEGEN--\":2418:2422   */\n      dup2\n        /* \"--CODEGEN--\":2414:2434   */\n      sub\n        /* \"--CODEGEN--\":2410:2411   */\n      0x00\n        /* \"--CODEGEN--\":2399:2408   */\n      dup4\n        /* \"--CODEGEN--\":2395:2412   */\n      add\n        /* \"--CODEGEN--\":2388:2435   */\n      mstore\n        /* \"--CODEGEN--\":2449:2527   */\n      tag_66\n        /* \"--CODEGEN--\":2522:2526   */\n      dup2\n        /* \"--CODEGEN--\":2513:2519   */\n      dup6\n        /* \"--CODEGEN--\":2449:2527   */\n      jump(tag_49)\n    tag_66:\n        /* \"--CODEGEN--\":2441:2527   */\n      swap1\n      pop\n        /* \"--CODEGEN--\":2538:2610   */\n      tag_67\n        /* \"--CODEGEN--\":2606:2608   */\n      0x20\n        /* \"--CODEGEN--\":2595:2604   */\n      dup4\n        /* \"--CODEGEN--\":2591:2609   */\n      add\n        /* \"--CODEGEN--\":2582:2588   */\n      dup5\n        /* \"--CODEGEN--\":2538:2610   */\n      jump(tag_59)\n    tag_67:\n        /* \"--CODEGEN--\":2345:2620   */\n      swap4\n      swap3\n      pop\n      pop\n      pop\n      jump\n        /* \"--CODEGEN--\":2627:2883   */\n    tag_32:\n      0x00\n        /* \"--CODEGEN--\":2689:2691   */\n      0x40\n        /* \"--CODEGEN--\":2683:2692   */\n      mload\n        /* \"--CODEGEN--\":2673:2692   */\n      swap1\n      pop\n        /* \"--CODEGEN--\":2727:2731   */\n      dup2\n        /* \"--CODEGEN--\":2719:2725   */\n      dup2\n        /* \"--CODEGEN--\":2715:2732   */\n      add\n        /* \"--CODEGEN--\":2826:2832   */\n      dup2\n        /* \"--CODEGEN--\":2814:2824   */\n      dup2\n        /* \"--CODEGEN--\":2811:2833   */\n      lt\n        /* \"--CODEGEN--\":2790:2808   */\n      0xffffffffffffffff\n        /* \"--CODEGEN--\":2778:2788   */\n      dup3\n        /* \"--CODEGEN--\":2775:2809   */\n      gt\n        /* \"--CODEGEN--\":2772:2834   */\n      or\n        /* \"--CODEGEN--\":2769:2771   */\n      iszero\n      tag_69\n      jumpi\n        /* \"--CODEGEN--\":2847:2848   */\n      0x00\n        /* \"--CODEGEN--\":2844:2845   */\n      dup1\n        /* \"--CODEGEN--\":2837:2849   */\n      revert\n        /* \"--CODEGEN--\":2769:2771   */\n    tag_69:\n        /* \"--CODEGEN--\":2867:2877   */\n      dup1\n        /* \"--CODEGEN--\":2863:2865   */\n      0x40\n        /* \"--CODEGEN--\":2856:2878   */\n      mstore\n        /* \"--CODEGEN--\":2667:2883   */\n      pop\n      swap2\n      swap1\n      pop\n      jump\n        /* \"--CODEGEN--\":2890:3212   */\n    tag_31:\n      0x00\n        /* \"--CODEGEN--\":3034:3052   */\n      0xffffffffffffffff\n        /* \"--CODEGEN--\":3026:3032   */\n      dup3\n        /* \"--CODEGEN--\":3023:3053   */\n      gt\n        /* \"--CODEGEN--\":3020:3022   */\n      iszero\n      tag_71\n      jumpi\n        /* \"--CODEGEN--\":3066:3067   */\n      0x00\n        /* \"--CODEGEN--\":3063:3064   */\n      dup1\n        /* \"--CODEGEN--\":3056:3068   */\n      revert\n        /* \"--CODEGEN--\":3020:3022   */\n    tag_71:\n        /* \"--CODEGEN--\":3133:3137   */\n      0x1f\n        /* \"--CODEGEN--\":3129:3138   */\n      not\n        /* \"--CODEGEN--\":3122:3126   */\n      0x1f\n        /* \"--CODEGEN--\":3114:3120   */\n      dup4\n        /* \"--CODEGEN--\":3110:3127   */\n      add\n        /* \"--CODEGEN--\":3106:3139   */\n      and\n        /* \"--CODEGEN--\":3098:3139   */\n      swap1\n      pop\n        /* \"--CODEGEN--\":3197:3201   */\n      0x20\n        /* \"--CODEGEN--\":3191:3195   */\n      dup2\n        /* \"--CODEGEN--\":3187:3202   */\n      add\n        /* \"--CODEGEN--\":3179:3202   */\n      swap1\n      pop\n        /* \"--CODEGEN--\":2957:3212   */\n      swap2\n      swap1\n      pop\n      jump\n        /* \"--CODEGEN--\":3219:3341   */\n    tag_52:\n      0x00\n        /* \"--CODEGEN--\":3313:3318   */\n      dup2\n        /* \"--CODEGEN--\":3307:3319   */\n      mload\n        /* \"--CODEGEN--\":3297:3319   */\n      swap1\n      pop\n        /* \"--CODEGEN--\":3278:3341   */\n      swap2\n      swap1\n      pop\n      jump\n        /* \"--CODEGEN--\":3349:3512   */\n    tag_54:\n      0x00\n        /* \"--CODEGEN--\":3464:3470   */\n      dup3\n        /* \"--CODEGEN--\":3459:3462   */\n      dup3\n        /* \"--CODEGEN--\":3452:3471   */\n      mstore\n        /* \"--CODEGEN--\":3501:3505   */\n      0x20\n        /* \"--CODEGEN--\":3496:3499   */\n      dup3\n        /* \"--CODEGEN--\":3492:3506   */\n      add\n        /* \"--CODEGEN--\":3477:3506   */\n      swap1\n      pop\n        /* \"--CODEGEN--\":3445:3512   */\n      swap3\n      swap2\n      pop\n      pop\n      jump\n        /* \"--CODEGEN--\":3520:3592   */\n    tag_62:\n      0x00\n        /* \"--CODEGEN--\":3582:3587   */\n      dup2\n        /* \"--CODEGEN--\":3571:3587   */\n      swap1\n      pop\n        /* \"--CODEGEN--\":3565:3592   */\n      swap2\n      swap1\n      pop\n      jump\n        /* \"--CODEGEN--\":3600:3745   */\n    tag_35:\n        /* \"--CODEGEN--\":3681:3687   */\n      dup3\n        /* \"--CODEGEN--\":3676:3679   */\n      dup2\n        /* \"--CODEGEN--\":3671:3674   */\n      dup4\n        /* \"--CODEGEN--\":3658:3688   */\n      calldatacopy\n        /* \"--CODEGEN--\":3737:3738   */\n      0x00\n        /* \"--CODEGEN--\":3728:3734   */\n      dup4\n        /* \"--CODEGEN--\":3723:3726   */\n      dup4\n        /* \"--CODEGEN--\":3719:3735   */\n      add\n        /* \"--CODEGEN--\":3712:3739   */\n      mstore\n        /* \"--CODEGEN--\":3651:3745   */\n      pop\n      pop\n      pop\n      jump\n        /* \"--CODEGEN--\":3754:4022   */\n    tag_56:\n        /* \"--CODEGEN--\":3819:3820   */\n      0x00\n        /* \"--CODEGEN--\":3826:3927   */\n    tag_77:\n        /* \"--CODEGEN--\":3840:3846   */\n      dup4\n        /* \"--CODEGEN--\":3837:3838   */\n      dup2\n        /* \"--CODEGEN--\":3834:3847   */\n      lt\n        /* \"--CODEGEN--\":3826:3927   */\n      iszero\n      tag_79\n      jumpi\n        /* \"--CODEGEN--\":3916:3917   */\n      dup1\n        /* \"--CODEGEN--\":3911:3914   */\n      dup3\n        /* \"--CODEGEN--\":3907:3918   */\n      add\n        /* \"--CODEGEN--\":3901:3919   */\n      mload\n        /* \"--CODEGEN--\":3897:3898   */\n      dup2\n        /* \"--CODEGEN--\":3892:3895   */\n      dup5\n        /* \"--CODEGEN--\":3888:3899   */\n      add\n        /* \"--CODEGEN--\":3881:3920   */\n      mstore\n        /* \"--CODEGEN--\":3862:3864   */\n      0x20\n        /* \"--CODEGEN--\":3859:3860   */\n      dup2\n        /* \"--CODEGEN--\":3855:3865   */\n      add\n        /* \"--CODEGEN--\":3850:3865   */\n      swap1\n      pop\n        /* \"--CODEGEN--\":3826:3927   */\n      jump(tag_77)\n    tag_79:\n        /* \"--CODEGEN--\":3942:3948   */\n      dup4\n        /* \"--CODEGEN--\":3939:3940   */\n      dup2\n        /* \"--CODEGEN--\":3936:3949   */\n      gt\n        /* \"--CODEGEN--\":3933:3935   */\n      iszero\n      tag_80\n      jumpi\n        /* \"--CODEGEN--\":4007:4008   */\n      0x00\n        /* \"--CODEGEN--\":3998:4004   */\n      dup5\n        /* \"--CODEGEN--\":3993:3996   */\n      dup5\n        /* \"--CODEGEN--\":3989:4005   */\n      add\n        /* \"--CODEGEN--\":3982:4009   */\n      mstore\n        /* \"--CODEGEN--\":3933:3935   */\n    tag_80:\n        /* \"--CODEGEN--\":3803:4022   */\n      pop\n      pop\n      pop\n      pop\n      jump\n        /* \"--CODEGEN--\":4030:4127   */\n    tag_58:\n      0x00\n        /* \"--CODEGEN--\":4118:4120   */\n      0x1f\n        /* \"--CODEGEN--\":4114:4121   */\n      not\n        /* \"--CODEGEN--\":4109:4111   */\n      0x1f\n        /* \"--CODEGEN--\":4102:4107   */\n      dup4\n        /* \"--CODEGEN--\":4098:4112   */\n      add\n        /* \"--CODEGEN--\":4094:4122   */\n      and\n        /* \"--CODEGEN--\":4084:4122   */\n      swap1\n      pop\n        /* \"--CODEGEN--\":4078:4127   */\n      swap2\n      swap1\n      pop\n      jump\n        /* \"--CODEGEN--\":4135:4252   */\n    tag_39:\n        /* \"--CODEGEN--\":4204:4228   */\n      tag_83\n        /* \"--CODEGEN--\":4222:4227   */\n      dup2\n        /* \"--CODEGEN--\":4204:4228   */\n      jump(tag_62)\n    tag_83:\n        /* \"--CODEGEN--\":4197:4202   */\n      dup2\n        /* \"--CODEGEN--\":4194:4229   */\n      eq\n        /* \"--CODEGEN--\":4184:4186   */\n      tag_84\n      jumpi\n        /* \"--CODEGEN--\":4243:4244   */\n      0x00\n        /* \"--CODEGEN--\":4240:4241   */\n      dup1\n        /* \"--CODEGEN--\":4233:4245   */\n      revert\n        /* \"--CODEGEN--\":4184:4186   */\n    tag_84:\n        /* \"--CODEGEN--\":4178:4252   */\n      pop\n      jump\n\n    auxdata: 0xa2646970667358221220675102d44fcdcde2c817fd29c15c5f4bc4f4d79c1c97df00bd78b72d48b3c67164736f6c63430006050033\n}\n",
				"bytecode": {
					"linkReferences": {},
					"object": "608060405234801561001057600080fd5b50610405806100206000396000f3fe608060405234801561001057600080fd5b50600436106100415760003560e01c80636480f5c2146100465780637cf1103d146100625780637f4f0f351461007e575b600080fd5b610060600480360381019061005b91906101f8565b61009a565b005b61007c600480360381019061007791906101b7565b6100d7565b005b610098600480360381019061009391906101f8565b610111565b005b7f7556e8345a443b754c690a14b2cd91df7aec27fbd662a660dd25d647f4732ed182826040516100cb9291906102b6565b60405180910390a15050565b7f5007d59453ebcd951519cabd56f016d29fe2390892307189bde962ced3d34094816040516101069190610294565b60405180910390a150565b7f7556e8345a443b754c690a14b2cd91df7aec27fbd662a660dd25d647f4732ed182826040516101429291906102b6565b60405180910390a15050565b600082601f83011261015f57600080fd5b813561017261016d82610313565b6102e6565b9150808252602083016020830185838301111561018e57600080fd5b610199838284610365565b50505092915050565b6000813590506101b1816103b8565b92915050565b6000602082840312156101c957600080fd5b600082013567ffffffffffffffff8111156101e357600080fd5b6101ef8482850161014e565b91505092915050565b6000806040838503121561020b57600080fd5b600083013567ffffffffffffffff81111561022557600080fd5b6102318582860161014e565b9250506020610242858286016101a2565b9150509250929050565b60006102578261033f565b610261818561034a565b9350610271818560208601610374565b61027a816103a7565b840191505092915050565b61028e8161035b565b82525050565b600060208201905081810360008301526102ae818461024c565b905092915050565b600060408201905081810360008301526102d0818561024c565b90506102df6020830184610285565b9392505050565b6000604051905081810181811067ffffffffffffffff8211171561030957600080fd5b8060405250919050565b600067ffffffffffffffff82111561032a57600080fd5b601f19601f8301169050602081019050919050565b600081519050919050565b600082825260208201905092915050565b6000819050919050565b82818337600083830152505050565b60005b83811015610392578082015181840152602081019050610377565b838111156103a1576000848401525b50505050565b6000601f19601f8301169050919050565b6103c18161035b565b81146103cc57600080fd5b5056fea2646970667358221220675102d44fcdcde2c817fd29c15c5f4bc4f4d79c1c97df00bd78b72d48b3c67164736f6c63430006050033",
					"opcodes": "PUSH1 0x80 PUSH1 0x40 MSTORE CALLVALUE DUP1 ISZERO PUSH2 0x10 JUMPI PUSH1 0x0 DUP1 REVERT JUMPDEST POP PUSH2 0x405 DUP1 PUSH2 0x20 PUSH1 0x0 CODECOPY PUSH1 0x0 RETURN INVALID PUSH1 0x80 PUSH1 0x40 MSTORE CALLVALUE DUP1 ISZERO PUSH2 0x10 JUMPI PUSH1 0x0 DUP1 REVERT JUMPDEST POP PUSH1 0x4 CALLDATASIZE LT PUSH2 0x41 JUMPI PUSH1 0x0 CALLDATALOAD PUSH1 0xE0 SHR DUP1 PUSH4 0x6480F5C2 EQ PUSH2 0x46 JUMPI DUP1 PUSH4 0x7CF1103D EQ PUSH2 0x62 JUMPI DUP1 PUSH4 0x7F4F0F35 EQ PUSH2 0x7E JUMPI JUMPDEST PUSH1 0x0 DUP1 REVERT JUMPDEST PUSH2 0x60 PUSH1 0x4 DUP1 CALLDATASIZE SUB DUP2 ADD SWAP1 PUSH2 0x5B SWAP2 SWAP1 PUSH2 0x1F8 JUMP JUMPDEST PUSH2 0x9A JUMP JUMPDEST STOP JUMPDEST PUSH2 0x7C PUSH1 0x4 DUP1 CALLDATASIZE SUB DUP2 ADD SWAP1 PUSH2 0x77 SWAP2 SWAP1 PUSH2 0x1B7 JUMP JUMPDEST PUSH2 0xD7 JUMP JUMPDEST STOP JUMPDEST PUSH2 0x98 PUSH1 0x4 DUP1 CALLDATASIZE SUB DUP2 ADD SWAP1 PUSH2 0x93 SWAP2 SWAP1 PUSH2 0x1F8 JUMP JUMPDEST PUSH2 0x111 JUMP JUMPDEST STOP JUMPDEST PUSH32 0x7556E8345A443B754C690A14B2CD91DF7AEC27FBD662A660DD25D647F4732ED1 DUP3 DUP3 PUSH1 0x40 MLOAD PUSH2 0xCB SWAP3 SWAP2 SWAP1 PUSH2 0x2B6 JUMP JUMPDEST PUSH1 0x40 MLOAD DUP1 SWAP2 SUB SWAP1 LOG1 POP POP JUMP JUMPDEST PUSH32 0x5007D59453EBCD951519CABD56F016D29FE2390892307189BDE962CED3D34094 DUP2 PUSH1 0x40 MLOAD PUSH2 0x106 SWAP2 SWAP1 PUSH2 0x294 JUMP JUMPDEST PUSH1 0x40 MLOAD DUP1 SWAP2 SUB SWAP1 LOG1 POP JUMP JUMPDEST PUSH32 0x7556E8345A443B754C690A14B2CD91DF7AEC27FBD662A660DD25D647F4732ED1 DUP3 DUP3 PUSH1 0x40 MLOAD PUSH2 0x142 SWAP3 SWAP2 SWAP1 PUSH2 0x2B6 JUMP JUMPDEST PUSH1 0x40 MLOAD DUP1 SWAP2 SUB SWAP1 LOG1 POP POP JUMP JUMPDEST PUSH1 0x0 DUP3 PUSH1 0x1F DUP4 ADD SLT PUSH2 0x15F JUMPI PUSH1 0x0 DUP1 REVERT JUMPDEST DUP2 CALLDATALOAD PUSH2 0x172 PUSH2 0x16D DUP3 PUSH2 0x313 JUMP JUMPDEST PUSH2 0x2E6 JUMP JUMPDEST SWAP2 POP DUP1 DUP3 MSTORE PUSH1 0x20 DUP4 ADD PUSH1 0x20 DUP4 ADD DUP6 DUP4 DUP4 ADD GT ISZERO PUSH2 0x18E JUMPI PUSH1 0x0 DUP1 REVERT JUMPDEST PUSH2 0x199 DUP4 DUP3 DUP5 PUSH2 0x365 JUMP JUMPDEST POP POP POP SWAP3 SWAP2 POP POP JUMP JUMPDEST PUSH1 0x0 DUP2 CALLDATALOAD SWAP1 POP PUSH2 0x1B1 DUP2 PUSH2 0x3B8 JUMP JUMPDEST SWAP3 SWAP2 POP POP JUMP JUMPDEST PUSH1 0x0 PUSH1 0x20 DUP3 DUP5 SUB SLT ISZERO PUSH2 0x1C9 JUMPI PUSH1 0x0 DUP1 REVERT JUMPDEST PUSH1 0x0 DUP3 ADD CALLDATALOAD PUSH8 0xFFFFFFFFFFFFFFFF DUP2 GT ISZERO PUSH2 0x1E3 JUMPI PUSH1 0x0 DUP1 REVERT JUMPDEST PUSH2 0x1EF DUP5 DUP3 DUP6 ADD PUSH2 0x14E JUMP JUMPDEST SWAP2 POP POP SWAP3 SWAP2 POP POP JUMP JUMPDEST PUSH1 0x0 DUP1 PUSH1 0x40 DUP4 DUP6 SUB SLT ISZERO PUSH2 0x20B JUMPI PUSH1 0x0 DUP1 REVERT JUMPDEST PUSH1 0x0 DUP4 ADD CALLDATALOAD PUSH8 0xFFFFFFFFFFFFFFFF DUP2 GT ISZERO PUSH2 0x225 JUMPI PUSH1 0x0 DUP1 REVERT JUMPDEST PUSH2 0x231 DUP6 DUP3 DUP7 ADD PUSH2 0x14E JUMP JUMPDEST SWAP3 POP POP PUSH1 0x20 PUSH2 0x242 DUP6 DUP3 DUP7 ADD PUSH2 0x1A2 JUMP JUMPDEST SWAP2 POP POP SWAP3 POP SWAP3 SWAP1 POP JUMP JUMPDEST PUSH1 0x0 PUSH2 0x257 DUP3 PUSH2 0x33F JUMP JUMPDEST PUSH2 0x261 DUP2 DUP6 PUSH2 0x34A JUMP JUMPDEST SWAP4 POP PUSH2 0x271 DUP2 DUP6 PUSH1 0x20 DUP7 ADD PUSH2 0x374 JUMP JUMPDEST PUSH2 0x27A DUP2 PUSH2 0x3A7 JUMP JUMPDEST DUP5 ADD SWAP2 POP POP SWAP3 SWAP2 POP POP JUMP JUMPDEST PUSH2 0x28E DUP2 PUSH2 0x35B JUMP JUMPDEST DUP3 MSTORE POP POP JUMP JUMPDEST PUSH1 0x0 PUSH1 0x20 DUP3 ADD SWAP1 POP DUP2 DUP2 SUB PUSH1 0x0 DUP4 ADD MSTORE PUSH2 0x2AE DUP2 DUP5 PUSH2 0x24C JUMP JUMPDEST SWAP1 POP SWAP3 SWAP2 POP POP JUMP JUMPDEST PUSH1 0x0 PUSH1 0x40 DUP3 ADD SWAP1 POP DUP2 DUP2 SUB PUSH1 0x0 DUP4 ADD MSTORE PUSH2 0x2D0 DUP2 DUP6 PUSH2 0x24C JUMP JUMPDEST SWAP1 POP PUSH2 0x2DF PUSH1 0x20 DUP4 ADD DUP5 PUSH2 0x285 JUMP JUMPDEST SWAP4 SWAP3 POP POP POP JUMP JUMPDEST PUSH1 0x0 PUSH1 0x40 MLOAD SWAP1 POP DUP2 DUP2 ADD DUP2 DUP2 LT PUSH8 0xFFFFFFFFFFFFFFFF DUP3 GT OR ISZERO PUSH2 0x309 JUMPI PUSH1 0x0 DUP1 REVERT JUMPDEST DUP1 PUSH1 0x40 MSTORE POP SWAP2 SWAP1 POP JUMP JUMPDEST PUSH1 0x0 PUSH8 0xFFFFFFFFFFFFFFFF DUP3 GT ISZERO PUSH2 0x32A JUMPI PUSH1 0x0 DUP1 REVERT JUMPDEST PUSH1 0x1F NOT PUSH1 0x1F DUP4 ADD AND SWAP1 POP PUSH1 0x20 DUP2 ADD SWAP1 POP SWAP2 SWAP1 POP JUMP JUMPDEST PUSH1 0x0 DUP2 MLOAD SWAP1 POP SWAP2 SWAP1 POP JUMP JUMPDEST PUSH1 0x0 DUP3 DUP3 MSTORE PUSH1 0x20 DUP3 ADD SWAP1 POP SWAP3 SWAP2 POP POP JUMP JUMPDEST PUSH1 0x0 DUP2 SWAP1 POP SWAP2 SWAP1 POP JUMP JUMPDEST DUP3 DUP2 DUP4 CALLDATACOPY PUSH1 0x0 DUP4 DUP4 ADD MSTORE POP POP POP JUMP JUMPDEST PUSH1 0x0 JUMPDEST DUP4 DUP2 LT ISZERO PUSH2 0x392 JUMPI DUP1 DUP3 ADD MLOAD DUP2 DUP5 ADD MSTORE PUSH1 0x20 DUP2 ADD SWAP1 POP PUSH2 0x377 JUMP JUMPDEST DUP4 DUP2 GT ISZERO PUSH2 0x3A1 JUMPI PUSH1 0x0 DUP5 DUP5 ADD MSTORE JUMPDEST POP POP POP POP JUMP JUMPDEST PUSH1 0x0 PUSH1 0x1F NOT PUSH1 0x1F DUP4 ADD AND SWAP1 POP SWAP2 SWAP1 POP JUMP JUMPDEST PUSH2 0x3C1 DUP2 PUSH2 0x35B JUMP JUMPDEST DUP2 EQ PUSH2 0x3CC JUMPI PUSH1 0x0 DUP1 REVERT JUMPDEST POP JUMP INVALID LOG2 PUSH5 0x6970667358 0x22 SLT KECCAK256 PUSH8 0x5102D44FCDCDE2C8 OR REVERT 0x29 0xC1 0x5C 0x5F 0x4B 0xC4 DELEGATECALL 0xD7 SWAP13 SHR SWAP8 0xDF STOP 0xBD PUSH25 0xB72D48B3C67164736F6C634300060500330000000000000000 "
				},
				"gasEstimates": {
					"creation": {
						"codeDepositCost": "205800",
						"executionCost": "251",
						"totalCost": "206051"
					},
					"external": {
						"emitirEvento1(string)": "infinite",
						"emitirEvento2(string,uint256)": "infinite",
						"emitirEvento3(string,uint256)": "infinite"
					}
				},
				"methodIdentifiers": {
					"emitirEvento1(string)": "7cf1103d",
					"emitirEvento2(string,uint256)": "7f4f0f35",
					"emitirEvento3(string,uint256)": "6480f5c2"
				}
			},
			"storageLayout": {
				"storage": [],
				"types": null
			},
			"userdoc": {
				"methods": {}
			}
		}
	}
}