{
	"Funciones/funciones.sol": {
		"Funciones": {
			"abi": [
				{
					"inputs": [
						{
							"internalType": "string",
							"name": "_datos",
							"type": "string"
						}
					],
					"name": "calularHash",
					"outputs": [],
					"stateMutability": "nonpayable",
					"type": "function"
				},
				{
					"inputs": [
						{
							"internalType": "string",
							"name": "_ingredientes",
							"type": "string"
						}
					],
					"name": "crearHamburguesa",
					"outputs": [],
					"stateMutability": "nonpayable",
					"type": "function"
				},
				{
					"inputs": [
						{
							"internalType": "uint256",
							"name": "",
							"type": "uint256"
						}
					],
					"name": "direcciones",
					"outputs": [
						{
							"internalType": "address",
							"name": "",
							"type": "address"
						}
					],
					"stateMutability": "view",
					"type": "function"
				},
				{
					"inputs": [],
					"name": "hamburguesa",
					"outputs": [
						{
							"internalType": "uint256",
							"name": "id",
							"type": "uint256"
						},
						{
							"internalType": "string",
							"name": "nombre",
							"type": "string"
						},
						{
							"internalType": "string",
							"name": "ingredientes",
							"type": "string"
						}
					],
					"stateMutability": "view",
					"type": "function"
				},
				{
					"inputs": [],
					"name": "hash",
					"outputs": [
						{
							"internalType": "bytes32",
							"name": "",
							"type": "bytes32"
						}
					],
					"stateMutability": "view",
					"type": "function"
				},
				{
					"inputs": [],
					"name": "hash_id_alumno",
					"outputs": [
						{
							"internalType": "bytes32",
							"name": "",
							"type": "bytes32"
						}
					],
					"stateMutability": "view",
					"type": "function"
				},
				{
					"inputs": [],
					"name": "nuevaDireccion",
					"outputs": [],
					"stateMutability": "nonpayable",
					"type": "function"
				}
			],
			"devdoc": {
				"methods": {}
			},
			"evm": {
				"assembly": "    /* \"Funciones/funciones.sol\":70:1016  contract Funciones{\r... */\n  mstore(0x40, 0x80)\n  callvalue\n    /* \"--CODEGEN--\":5:14   */\n  dup1\n    /* \"--CODEGEN--\":2:4   */\n  iszero\n  tag_1\n  jumpi\n    /* \"--CODEGEN--\":27:28   */\n  0x00\n    /* \"--CODEGEN--\":24:25   */\n  dup1\n    /* \"--CODEGEN--\":17:29   */\n  revert\n    /* \"--CODEGEN--\":2:4   */\ntag_1:\n    /* \"Funciones/funciones.sol\":70:1016  contract Funciones{\r... */\n  pop\n  dataSize(sub_0)\n  dup1\n  dataOffset(sub_0)\n  0x00\n  codecopy\n  0x00\n  return\nstop\n\nsub_0: assembly {\n        /* \"Funciones/funciones.sol\":70:1016  contract Funciones{\r... */\n      mstore(0x40, 0x80)\n      callvalue\n        /* \"--CODEGEN--\":5:14   */\n      dup1\n        /* \"--CODEGEN--\":2:4   */\n      iszero\n      tag_1\n      jumpi\n        /* \"--CODEGEN--\":27:28   */\n      0x00\n        /* \"--CODEGEN--\":24:25   */\n      dup1\n        /* \"--CODEGEN--\":17:29   */\n      revert\n        /* \"--CODEGEN--\":2:4   */\n    tag_1:\n        /* \"Funciones/funciones.sol\":70:1016  contract Funciones{\r... */\n      pop\n      jumpi(tag_2, lt(calldatasize, 0x04))\n      shr(0xe0, calldataload(0x00))\n      dup1\n      0x547cbcad\n      gt\n      tag_10\n      jumpi\n      dup1\n      0x547cbcad\n      eq\n      tag_6\n      jumpi\n      dup1\n      0xa7469ee3\n      eq\n      tag_7\n      jumpi\n      dup1\n      0xb4f57473\n      eq\n      tag_8\n      jumpi\n      dup1\n      0xc74efaef\n      eq\n      tag_9\n      jumpi\n      jump(tag_2)\n    tag_10:\n      dup1\n      0x09bd5a60\n      eq\n      tag_3\n      jumpi\n      dup1\n      0x33c83dbd\n      eq\n      tag_4\n      jumpi\n      dup1\n      0x42d73314\n      eq\n      tag_5\n      jumpi\n    tag_2:\n        /* \"--CODEGEN--\":12:13   */\n      0x00\n        /* \"--CODEGEN--\":9:10   */\n      dup1\n        /* \"--CODEGEN--\":2:14   */\n      revert\n        /* \"Funciones/funciones.sol\":326:345  bytes32 public hash */\n    tag_3:\n      tag_11\n      tag_12\n      jump\t// in\n    tag_11:\n      mload(0x40)\n      tag_13\n      swap2\n      swap1\n      jump(tag_14)\n    tag_13:\n      mload(0x40)\n      dup1\n      swap2\n      sub\n      swap1\n      return\n        /* \"Funciones/funciones.sol\":611:743  function crearHamburguesa(string memory _ingredientes) public {\r... */\n    tag_4:\n      tag_15\n      0x04\n      dup1\n      calldatasize\n      sub\n      dup2\n      add\n      swap1\n      tag_16\n      swap2\n      swap1\n      jump(tag_17)\n    tag_16:\n      tag_18\n      jump\t// in\n    tag_15:\n      stop\n        /* \"Funciones/funciones.sol\":239:318  function nuevaDireccion() public{\r... */\n    tag_5:\n      tag_19\n      tag_20\n      jump\t// in\n    tag_19:\n      stop\n        /* \"Funciones/funciones.sol\":201:230  address [] public direcciones */\n    tag_6:\n      tag_21\n      0x04\n      dup1\n      calldatasize\n      sub\n      dup2\n      add\n      swap1\n      tag_22\n      swap2\n      swap1\n      jump(tag_23)\n    tag_22:\n      tag_24\n      jump\t// in\n    tag_21:\n      mload(0x40)\n      tag_25\n      swap2\n      swap1\n      jump(tag_26)\n    tag_25:\n      mload(0x40)\n      dup1\n      swap2\n      sub\n      swap1\n      return\n        /* \"Funciones/funciones.sol\":354:467  function calularHash(string memory _datos) public {\r... */\n    tag_7:\n      tag_27\n      0x04\n      dup1\n      calldatasize\n      sub\n      dup2\n      add\n      swap1\n      tag_28\n      swap2\n      swap1\n      jump(tag_17)\n    tag_28:\n      tag_29\n      jump\t// in\n    tag_27:\n      stop\n        /* \"Funciones/funciones.sol\":870:899  bytes32 public hash_id_alumno */\n    tag_8:\n      tag_30\n      tag_31\n      jump\t// in\n    tag_30:\n      mload(0x40)\n      tag_32\n      swap2\n      swap1\n      jump(tag_14)\n    tag_32:\n      mload(0x40)\n      dup1\n      swap2\n      sub\n      swap1\n      return\n        /* \"Funciones/funciones.sol\":577:602  Comida public hamburguesa */\n    tag_9:\n      tag_33\n      tag_34\n      jump\t// in\n    tag_33:\n      mload(0x40)\n      tag_35\n      swap4\n      swap3\n      swap2\n      swap1\n      jump(tag_36)\n    tag_35:\n      mload(0x40)\n      dup1\n      swap2\n      sub\n      swap1\n      return\n        /* \"Funciones/funciones.sol\":326:345  bytes32 public hash */\n    tag_12:\n      sload(0x01)\n      dup2\n      jump\t// out\n        /* \"Funciones/funciones.sol\":611:743  function crearHamburguesa(string memory _ingredientes) public {\r... */\n    tag_18:\n        /* \"Funciones/funciones.sol\":698:735  Comida(1,\"Hamburguesa\",_ingredientes) */\n      mload(0x40)\n      dup1\n      0x60\n      add\n      0x40\n      mstore\n      dup1\n        /* \"Funciones/funciones.sol\":705:706  1 */\n      0x01\n        /* \"Funciones/funciones.sol\":698:735  Comida(1,\"Hamburguesa\",_ingredientes) */\n      dup2\n      mstore\n      0x20\n      add\n      mload(0x40)\n      dup1\n      0x40\n      add\n      0x40\n      mstore\n      dup1\n      0x0b\n      dup2\n      mstore\n      0x20\n      add\n      0x48616d6275726775657361000000000000000000000000000000000000000000\n      dup2\n      mstore\n      pop\n      dup2\n      mstore\n      0x20\n      add\n        /* \"Funciones/funciones.sol\":721:734  _ingredientes */\n      dup3\n        /* \"Funciones/funciones.sol\":698:735  Comida(1,\"Hamburguesa\",_ingredientes) */\n      dup2\n      mstore\n      pop\n        /* \"Funciones/funciones.sol\":684:695  hamburguesa */\n      0x02\n        /* \"Funciones/funciones.sol\":684:735  hamburguesa = Comida(1,\"Hamburguesa\",_ingredientes) */\n      0x00\n      dup3\n      add\n      mload\n      dup2\n      0x00\n      add\n      sstore\n      0x20\n      dup3\n      add\n      mload\n      dup2\n      0x01\n      add\n      swap1\n      dup1\n      mload\n      swap1\n      0x20\n      add\n      swap1\n      tag_38\n      swap3\n      swap2\n      swap1\n      tag_39\n      jump\t// in\n    tag_38:\n      pop\n      0x40\n      dup3\n      add\n      mload\n      dup2\n      0x02\n      add\n      swap1\n      dup1\n      mload\n      swap1\n      0x20\n      add\n      swap1\n      tag_40\n      swap3\n      swap2\n      swap1\n      tag_39\n      jump\t// in\n    tag_40:\n      pop\n      swap1\n      pop\n      pop\n        /* \"Funciones/funciones.sol\":611:743  function crearHamburguesa(string memory _ingredientes) public {\r... */\n      pop\n      jump\t// out\n        /* \"Funciones/funciones.sol\":239:318  function nuevaDireccion() public{\r... */\n    tag_20:\n        /* \"Funciones/funciones.sol\":282:293  direcciones */\n      0x00\n        /* \"Funciones/funciones.sol\":299:309  msg.sender */\n      caller\n        /* \"Funciones/funciones.sol\":282:310  direcciones.push(msg.sender) */\n      swap1\n      dup1\n        /* \"--CODEGEN--\":39:40   */\n      0x01\n        /* \"--CODEGEN--\":33:36   */\n      dup2\n        /* \"--CODEGEN--\":27:37   */\n      sload\n        /* \"--CODEGEN--\":23:41   */\n      add\n        /* \"--CODEGEN--\":57:67   */\n      dup1\n        /* \"--CODEGEN--\":52:55   */\n      dup3\n        /* \"--CODEGEN--\":45:68   */\n      sstore\n        /* \"--CODEGEN--\":79:89   */\n      dup1\n        /* \"--CODEGEN--\":72:89   */\n      swap2\n      pop\n        /* \"--CODEGEN--\":0:93   */\n      pop\n        /* \"Funciones/funciones.sol\":282:310  direcciones.push(msg.sender) */\n      0x01\n      swap1\n      sub\n      swap1\n      0x00\n      mstore\n      keccak256(0x00, 0x20)\n      add\n      0x00\n      swap1\n      swap2\n      swap1\n      swap2\n      swap1\n      swap2\n      0x0100\n      exp\n      dup2\n      sload\n      dup2\n      0xffffffffffffffffffffffffffffffffffffffff\n      mul\n      not\n      and\n      swap1\n      dup4\n      0xffffffffffffffffffffffffffffffffffffffff\n      and\n      mul\n      or\n      swap1\n      sstore\n      pop\n        /* \"Funciones/funciones.sol\":239:318  function nuevaDireccion() public{\r... */\n      jump\t// out\n        /* \"Funciones/funciones.sol\":201:230  address [] public direcciones */\n    tag_24:\n      0x00\n      dup2\n      dup2\n      sload\n      dup2\n      lt\n      tag_43\n      jumpi\n      invalid\n    tag_43:\n      swap1\n      0x00\n      mstore\n      keccak256(0x00, 0x20)\n      add\n      0x00\n      swap2\n      pop\n      sload\n      swap1\n      0x0100\n      exp\n      swap1\n      div\n      0xffffffffffffffffffffffffffffffffffffffff\n      and\n      dup2\n      jump\t// out\n        /* \"Funciones/funciones.sol\":354:467  function calularHash(string memory _datos) public {\r... */\n    tag_29:\n        /* \"Funciones/funciones.sol\":449:455  _datos */\n      dup1\n        /* \"Funciones/funciones.sol\":432:456  abi.encodePacked(_datos) */\n      add(0x20, mload(0x40))\n      tag_46\n      swap2\n      swap1\n      jump(tag_47)\n    tag_46:\n      mload(0x40)\n        /* \"--CODEGEN--\":49:53   */\n      0x20\n        /* \"--CODEGEN--\":39:46   */\n      dup2\n        /* \"--CODEGEN--\":30:37   */\n      dup4\n        /* \"--CODEGEN--\":26:47   */\n      sub\n        /* \"--CODEGEN--\":22:54   */\n      sub\n        /* \"--CODEGEN--\":13:20   */\n      dup2\n        /* \"--CODEGEN--\":6:55   */\n      mstore\n        /* \"Funciones/funciones.sol\":432:456  abi.encodePacked(_datos) */\n      swap1\n      0x40\n      mstore\n        /* \"Funciones/funciones.sol\":422:457  keccak256(abi.encodePacked(_datos)) */\n      dup1\n      mload\n      swap1\n      0x20\n      add\n      keccak256\n        /* \"Funciones/funciones.sol\":415:419  hash */\n      0x01\n        /* \"Funciones/funciones.sol\":415:457  hash = keccak256(abi.encodePacked(_datos)) */\n      dup2\n      swap1\n      sstore\n      pop\n        /* \"Funciones/funciones.sol\":354:467  function calularHash(string memory _datos) public {\r... */\n      pop\n      jump\t// out\n        /* \"Funciones/funciones.sol\":870:899  bytes32 public hash_id_alumno */\n    tag_31:\n      sload(0x05)\n      dup2\n      jump\t// out\n        /* \"Funciones/funciones.sol\":577:602  Comida public hamburguesa */\n    tag_34:\n      0x02\n      dup1\n      0x00\n      add\n      sload\n      swap1\n      dup1\n      0x01\n      add\n      dup1\n      sload\n      0x01\n      dup2\n      0x01\n      and\n      iszero\n      0x0100\n      mul\n      sub\n      and\n      0x02\n      swap1\n      div\n      dup1\n      0x1f\n      add\n      0x20\n      dup1\n      swap2\n      div\n      mul\n      0x20\n      add\n      mload(0x40)\n      swap1\n      dup2\n      add\n      0x40\n      mstore\n      dup1\n      swap3\n      swap2\n      swap1\n      dup2\n      dup2\n      mstore\n      0x20\n      add\n      dup3\n      dup1\n      sload\n      0x01\n      dup2\n      0x01\n      and\n      iszero\n      0x0100\n      mul\n      sub\n      and\n      0x02\n      swap1\n      div\n      dup1\n      iszero\n      tag_48\n      jumpi\n      dup1\n      0x1f\n      lt\n      tag_49\n      jumpi\n      0x0100\n      dup1\n      dup4\n      sload\n      div\n      mul\n      dup4\n      mstore\n      swap2\n      0x20\n      add\n      swap2\n      jump(tag_48)\n    tag_49:\n      dup3\n      add\n      swap2\n      swap1\n      0x00\n      mstore\n      keccak256(0x00, 0x20)\n      swap1\n    tag_50:\n      dup2\n      sload\n      dup2\n      mstore\n      swap1\n      0x01\n      add\n      swap1\n      0x20\n      add\n      dup1\n      dup4\n      gt\n      tag_50\n      jumpi\n      dup3\n      swap1\n      sub\n      0x1f\n      and\n      dup3\n      add\n      swap2\n    tag_48:\n      pop\n      pop\n      pop\n      pop\n      pop\n      swap1\n      dup1\n      0x02\n      add\n      dup1\n      sload\n      0x01\n      dup2\n      0x01\n      and\n      iszero\n      0x0100\n      mul\n      sub\n      and\n      0x02\n      swap1\n      div\n      dup1\n      0x1f\n      add\n      0x20\n      dup1\n      swap2\n      div\n      mul\n      0x20\n      add\n      mload(0x40)\n      swap1\n      dup2\n      add\n      0x40\n      mstore\n      dup1\n      swap3\n      swap2\n      swap1\n      dup2\n      dup2\n      mstore\n      0x20\n      add\n      dup3\n      dup1\n      sload\n      0x01\n      dup2\n      0x01\n      and\n      iszero\n      0x0100\n      mul\n      sub\n      and\n      0x02\n      swap1\n      div\n      dup1\n      iszero\n      tag_51\n      jumpi\n      dup1\n      0x1f\n      lt\n      tag_52\n      jumpi\n      0x0100\n      dup1\n      dup4\n      sload\n      div\n      mul\n      dup4\n      mstore\n      swap2\n      0x20\n      add\n      swap2\n      jump(tag_51)\n    tag_52:\n      dup3\n      add\n      swap2\n      swap1\n      0x00\n      mstore\n      keccak256(0x00, 0x20)\n      swap1\n    tag_53:\n      dup2\n      sload\n      dup2\n      mstore\n      swap1\n      0x01\n      add\n      swap1\n      0x20\n      add\n      dup1\n      dup4\n      gt\n      tag_53\n      jumpi\n      dup3\n      swap1\n      sub\n      0x1f\n      and\n      dup3\n      add\n      swap2\n    tag_51:\n      pop\n      pop\n      pop\n      pop\n      pop\n      swap1\n      pop\n      dup4\n      jump\t// out\n        /* \"Funciones/funciones.sol\":70:1016  contract Funciones{\r... */\n    tag_39:\n      dup3\n      dup1\n      sload\n      0x01\n      dup2\n      0x01\n      and\n      iszero\n      0x0100\n      mul\n      sub\n      and\n      0x02\n      swap1\n      div\n      swap1\n      0x00\n      mstore\n      keccak256(0x00, 0x20)\n      swap1\n      0x1f\n      add\n      0x20\n      swap1\n      div\n      dup2\n      add\n      swap3\n      dup3\n      0x1f\n      lt\n      tag_55\n      jumpi\n      dup1\n      mload\n      not(0xff)\n      and\n      dup4\n      dup1\n      add\n      or\n      dup6\n      sstore\n      jump(tag_54)\n    tag_55:\n      dup3\n      dup1\n      add\n      0x01\n      add\n      dup6\n      sstore\n      dup3\n      iszero\n      tag_54\n      jumpi\n      swap2\n      dup3\n      add\n    tag_56:\n      dup3\n      dup2\n      gt\n      iszero\n      tag_57\n      jumpi\n      dup3\n      mload\n      dup3\n      sstore\n      swap2\n      0x20\n      add\n      swap2\n      swap1\n      0x01\n      add\n      swap1\n      jump(tag_56)\n    tag_57:\n    tag_54:\n      pop\n      swap1\n      pop\n      tag_58\n      swap2\n      swap1\n      tag_59\n      jump\t// in\n    tag_58:\n      pop\n      swap1\n      jump\t// out\n    tag_59:\n      tag_60\n      swap2\n      swap1\n    tag_61:\n      dup1\n      dup3\n      gt\n      iszero\n      tag_62\n      jumpi\n      0x00\n      dup2\n      0x00\n      swap1\n      sstore\n      pop\n      0x01\n      add\n      jump(tag_61)\n    tag_62:\n      pop\n      swap1\n      jump\n    tag_60:\n      swap1\n      jump\t// out\n        /* \"--CODEGEN--\":6:448   */\n    tag_64:\n      0x00\n        /* \"--CODEGEN--\":108:111   */\n      dup3\n        /* \"--CODEGEN--\":101:105   */\n      0x1f\n        /* \"--CODEGEN--\":93:99   */\n      dup4\n        /* \"--CODEGEN--\":89:106   */\n      add\n        /* \"--CODEGEN--\":85:112   */\n      slt\n        /* \"--CODEGEN--\":75:77   */\n      tag_66\n      jumpi\n        /* \"--CODEGEN--\":126:127   */\n      0x00\n        /* \"--CODEGEN--\":123:124   */\n      dup1\n        /* \"--CODEGEN--\":116:128   */\n      revert\n        /* \"--CODEGEN--\":75:77   */\n    tag_66:\n        /* \"--CODEGEN--\":163:169   */\n      dup2\n        /* \"--CODEGEN--\":150:170   */\n      calldataload\n        /* \"--CODEGEN--\":185:250   */\n      tag_67\n        /* \"--CODEGEN--\":200:249   */\n      tag_68\n        /* \"--CODEGEN--\":242:248   */\n      dup3\n        /* \"--CODEGEN--\":200:249   */\n      jump(tag_69)\n    tag_68:\n        /* \"--CODEGEN--\":185:250   */\n      jump(tag_70)\n    tag_67:\n        /* \"--CODEGEN--\":176:250   */\n      swap2\n      pop\n        /* \"--CODEGEN--\":270:276   */\n      dup1\n        /* \"--CODEGEN--\":263:268   */\n      dup3\n        /* \"--CODEGEN--\":256:277   */\n      mstore\n        /* \"--CODEGEN--\":306:310   */\n      0x20\n        /* \"--CODEGEN--\":298:304   */\n      dup4\n        /* \"--CODEGEN--\":294:311   */\n      add\n        /* \"--CODEGEN--\":339:343   */\n      0x20\n        /* \"--CODEGEN--\":332:337   */\n      dup4\n        /* \"--CODEGEN--\":328:344   */\n      add\n        /* \"--CODEGEN--\":374:377   */\n      dup6\n        /* \"--CODEGEN--\":365:371   */\n      dup4\n        /* \"--CODEGEN--\":360:363   */\n      dup4\n        /* \"--CODEGEN--\":356:372   */\n      add\n        /* \"--CODEGEN--\":353:378   */\n      gt\n        /* \"--CODEGEN--\":350:352   */\n      iszero\n      tag_71\n      jumpi\n        /* \"--CODEGEN--\":391:392   */\n      0x00\n        /* \"--CODEGEN--\":388:389   */\n      dup1\n        /* \"--CODEGEN--\":381:393   */\n      revert\n        /* \"--CODEGEN--\":350:352   */\n    tag_71:\n        /* \"--CODEGEN--\":401:442   */\n      tag_72\n        /* \"--CODEGEN--\":435:441   */\n      dup4\n        /* \"--CODEGEN--\":430:433   */\n      dup3\n        /* \"--CODEGEN--\":425:428   */\n      dup5\n        /* \"--CODEGEN--\":401:442   */\n      jump(tag_73)\n    tag_72:\n        /* \"--CODEGEN--\":68:448   */\n      pop\n      pop\n      pop\n      swap3\n      swap2\n      pop\n      pop\n      jump\n        /* \"--CODEGEN--\":456:586   */\n    tag_74:\n      0x00\n        /* \"--CODEGEN--\":536:542   */\n      dup2\n        /* \"--CODEGEN--\":523:543   */\n      calldataload\n        /* \"--CODEGEN--\":514:543   */\n      swap1\n      pop\n        /* \"--CODEGEN--\":548:581   */\n      tag_76\n        /* \"--CODEGEN--\":575:580   */\n      dup2\n        /* \"--CODEGEN--\":548:581   */\n      jump(tag_77)\n    tag_76:\n        /* \"--CODEGEN--\":508:586   */\n      swap3\n      swap2\n      pop\n      pop\n      jump\n        /* \"--CODEGEN--\":593:940   */\n    tag_17:\n      0x00\n        /* \"--CODEGEN--\":707:709   */\n      0x20\n        /* \"--CODEGEN--\":695:704   */\n      dup3\n        /* \"--CODEGEN--\":686:693   */\n      dup5\n        /* \"--CODEGEN--\":682:705   */\n      sub\n        /* \"--CODEGEN--\":678:710   */\n      slt\n        /* \"--CODEGEN--\":675:677   */\n      iszero\n      tag_79\n      jumpi\n        /* \"--CODEGEN--\":723:724   */\n      0x00\n        /* \"--CODEGEN--\":720:721   */\n      dup1\n        /* \"--CODEGEN--\":713:725   */\n      revert\n        /* \"--CODEGEN--\":675:677   */\n    tag_79:\n        /* \"--CODEGEN--\":786:787   */\n      0x00\n        /* \"--CODEGEN--\":775:784   */\n      dup3\n        /* \"--CODEGEN--\":771:788   */\n      add\n        /* \"--CODEGEN--\":758:789   */\n      calldataload\n        /* \"--CODEGEN--\":809:827   */\n      0xffffffffffffffff\n        /* \"--CODEGEN--\":801:807   */\n      dup2\n        /* \"--CODEGEN--\":798:828   */\n      gt\n        /* \"--CODEGEN--\":795:797   */\n      iszero\n      tag_80\n      jumpi\n        /* \"--CODEGEN--\":841:842   */\n      0x00\n        /* \"--CODEGEN--\":838:839   */\n      dup1\n        /* \"--CODEGEN--\":831:843   */\n      revert\n        /* \"--CODEGEN--\":795:797   */\n    tag_80:\n        /* \"--CODEGEN--\":861:924   */\n      tag_81\n        /* \"--CODEGEN--\":916:923   */\n      dup5\n        /* \"--CODEGEN--\":907:913   */\n      dup3\n        /* \"--CODEGEN--\":896:905   */\n      dup6\n        /* \"--CODEGEN--\":892:914   */\n      add\n        /* \"--CODEGEN--\":861:924   */\n      jump(tag_64)\n    tag_81:\n        /* \"--CODEGEN--\":851:924   */\n      swap2\n      pop\n        /* \"--CODEGEN--\":737:930   */\n      pop\n        /* \"--CODEGEN--\":669:940   */\n      swap3\n      swap2\n      pop\n      pop\n      jump\n        /* \"--CODEGEN--\":947:1188   */\n    tag_23:\n      0x00\n        /* \"--CODEGEN--\":1051:1053   */\n      0x20\n        /* \"--CODEGEN--\":1039:1048   */\n      dup3\n        /* \"--CODEGEN--\":1030:1037   */\n      dup5\n        /* \"--CODEGEN--\":1026:1049   */\n      sub\n        /* \"--CODEGEN--\":1022:1054   */\n      slt\n        /* \"--CODEGEN--\":1019:1021   */\n      iszero\n      tag_83\n      jumpi\n        /* \"--CODEGEN--\":1067:1068   */\n      0x00\n        /* \"--CODEGEN--\":1064:1065   */\n      dup1\n        /* \"--CODEGEN--\":1057:1069   */\n      revert\n        /* \"--CODEGEN--\":1019:1021   */\n    tag_83:\n        /* \"--CODEGEN--\":1102:1103   */\n      0x00\n        /* \"--CODEGEN--\":1119:1172   */\n      tag_84\n        /* \"--CODEGEN--\":1164:1171   */\n      dup5\n        /* \"--CODEGEN--\":1155:1161   */\n      dup3\n        /* \"--CODEGEN--\":1144:1153   */\n      dup6\n        /* \"--CODEGEN--\":1140:1162   */\n      add\n        /* \"--CODEGEN--\":1119:1172   */\n      jump(tag_74)\n    tag_84:\n        /* \"--CODEGEN--\":1109:1172   */\n      swap2\n      pop\n        /* \"--CODEGEN--\":1081:1178   */\n      pop\n        /* \"--CODEGEN--\":1013:1188   */\n      swap3\n      swap2\n      pop\n      pop\n      jump\n        /* \"--CODEGEN--\":1195:1308   */\n    tag_85:\n        /* \"--CODEGEN--\":1278:1302   */\n      tag_87\n        /* \"--CODEGEN--\":1296:1301   */\n      dup2\n        /* \"--CODEGEN--\":1278:1302   */\n      jump(tag_88)\n    tag_87:\n        /* \"--CODEGEN--\":1273:1276   */\n      dup3\n        /* \"--CODEGEN--\":1266:1303   */\n      mstore\n        /* \"--CODEGEN--\":1260:1308   */\n      pop\n      pop\n      jump\n        /* \"--CODEGEN--\":1315:1428   */\n    tag_89:\n        /* \"--CODEGEN--\":1398:1422   */\n      tag_91\n        /* \"--CODEGEN--\":1416:1421   */\n      dup2\n        /* \"--CODEGEN--\":1398:1422   */\n      jump(tag_92)\n    tag_91:\n        /* \"--CODEGEN--\":1393:1396   */\n      dup3\n        /* \"--CODEGEN--\":1386:1423   */\n      mstore\n        /* \"--CODEGEN--\":1380:1428   */\n      pop\n      pop\n      jump\n        /* \"--CODEGEN--\":1435:1782   */\n    tag_93:\n      0x00\n        /* \"--CODEGEN--\":1547:1586   */\n      tag_95\n        /* \"--CODEGEN--\":1580:1585   */\n      dup3\n        /* \"--CODEGEN--\":1547:1586   */\n      jump(tag_96)\n    tag_95:\n        /* \"--CODEGEN--\":1598:1669   */\n      tag_97\n        /* \"--CODEGEN--\":1662:1668   */\n      dup2\n        /* \"--CODEGEN--\":1657:1660   */\n      dup6\n        /* \"--CODEGEN--\":1598:1669   */\n      jump(tag_98)\n    tag_97:\n        /* \"--CODEGEN--\":1591:1669   */\n      swap4\n      pop\n        /* \"--CODEGEN--\":1674:1726   */\n      tag_99\n        /* \"--CODEGEN--\":1719:1725   */\n      dup2\n        /* \"--CODEGEN--\":1714:1717   */\n      dup6\n        /* \"--CODEGEN--\":1707:1711   */\n      0x20\n        /* \"--CODEGEN--\":1700:1705   */\n      dup7\n        /* \"--CODEGEN--\":1696:1712   */\n      add\n        /* \"--CODEGEN--\":1674:1726   */\n      jump(tag_100)\n    tag_99:\n        /* \"--CODEGEN--\":1747:1776   */\n      tag_101\n        /* \"--CODEGEN--\":1769:1775   */\n      dup2\n        /* \"--CODEGEN--\":1747:1776   */\n      jump(tag_102)\n    tag_101:\n        /* \"--CODEGEN--\":1742:1745   */\n      dup5\n        /* \"--CODEGEN--\":1738:1777   */\n      add\n        /* \"--CODEGEN--\":1731:1777   */\n      swap2\n      pop\n        /* \"--CODEGEN--\":1527:1782   */\n      pop\n      swap3\n      swap2\n      pop\n      pop\n      jump\n        /* \"--CODEGEN--\":1789:2149   */\n    tag_103:\n      0x00\n        /* \"--CODEGEN--\":1919:1958   */\n      tag_105\n        /* \"--CODEGEN--\":1952:1957   */\n      dup3\n        /* \"--CODEGEN--\":1919:1958   */\n      jump(tag_96)\n    tag_105:\n        /* \"--CODEGEN--\":1970:2059   */\n      tag_106\n        /* \"--CODEGEN--\":2052:2058   */\n      dup2\n        /* \"--CODEGEN--\":2047:2050   */\n      dup6\n        /* \"--CODEGEN--\":1970:2059   */\n      jump(tag_107)\n    tag_106:\n        /* \"--CODEGEN--\":1963:2059   */\n      swap4\n      pop\n        /* \"--CODEGEN--\":2064:2116   */\n      tag_108\n        /* \"--CODEGEN--\":2109:2115   */\n      dup2\n        /* \"--CODEGEN--\":2104:2107   */\n      dup6\n        /* \"--CODEGEN--\":2097:2101   */\n      0x20\n        /* \"--CODEGEN--\":2090:2095   */\n      dup7\n        /* \"--CODEGEN--\":2086:2102   */\n      add\n        /* \"--CODEGEN--\":2064:2116   */\n      jump(tag_100)\n    tag_108:\n        /* \"--CODEGEN--\":2137:2143   */\n      dup1\n        /* \"--CODEGEN--\":2132:2135   */\n      dup5\n        /* \"--CODEGEN--\":2128:2144   */\n      add\n        /* \"--CODEGEN--\":2121:2144   */\n      swap2\n      pop\n        /* \"--CODEGEN--\":1899:2149   */\n      pop\n      swap3\n      swap2\n      pop\n      pop\n      jump\n        /* \"--CODEGEN--\":2156:2269   */\n    tag_109:\n        /* \"--CODEGEN--\":2239:2263   */\n      tag_111\n        /* \"--CODEGEN--\":2257:2262   */\n      dup2\n        /* \"--CODEGEN--\":2239:2263   */\n      jump(tag_112)\n    tag_111:\n        /* \"--CODEGEN--\":2234:2237   */\n      dup3\n        /* \"--CODEGEN--\":2227:2264   */\n      mstore\n        /* \"--CODEGEN--\":2221:2269   */\n      pop\n      pop\n      jump\n        /* \"--CODEGEN--\":2276:2542   */\n    tag_47:\n      0x00\n        /* \"--CODEGEN--\":2422:2517   */\n      tag_114\n        /* \"--CODEGEN--\":2513:2516   */\n      dup3\n        /* \"--CODEGEN--\":2504:2510   */\n      dup5\n        /* \"--CODEGEN--\":2422:2517   */\n      jump(tag_103)\n    tag_114:\n        /* \"--CODEGEN--\":2415:2517   */\n      swap2\n      pop\n        /* \"--CODEGEN--\":2534:2537   */\n      dup2\n        /* \"--CODEGEN--\":2527:2537   */\n      swap1\n      pop\n        /* \"--CODEGEN--\":2403:2542   */\n      swap3\n      swap2\n      pop\n      pop\n      jump\n        /* \"--CODEGEN--\":2549:2762   */\n    tag_26:\n      0x00\n        /* \"--CODEGEN--\":2667:2669   */\n      0x20\n        /* \"--CODEGEN--\":2656:2665   */\n      dup3\n        /* \"--CODEGEN--\":2652:2670   */\n      add\n        /* \"--CODEGEN--\":2644:2670   */\n      swap1\n      pop\n        /* \"--CODEGEN--\":2681:2752   */\n      tag_116\n        /* \"--CODEGEN--\":2749:2750   */\n      0x00\n        /* \"--CODEGEN--\":2738:2747   */\n      dup4\n        /* \"--CODEGEN--\":2734:2751   */\n      add\n        /* \"--CODEGEN--\":2725:2731   */\n      dup5\n        /* \"--CODEGEN--\":2681:2752   */\n      jump(tag_85)\n    tag_116:\n        /* \"--CODEGEN--\":2638:2762   */\n      swap3\n      swap2\n      pop\n      pop\n      jump\n        /* \"--CODEGEN--\":2769:2982   */\n    tag_14:\n      0x00\n        /* \"--CODEGEN--\":2887:2889   */\n      0x20\n        /* \"--CODEGEN--\":2876:2885   */\n      dup3\n        /* \"--CODEGEN--\":2872:2890   */\n      add\n        /* \"--CODEGEN--\":2864:2890   */\n      swap1\n      pop\n        /* \"--CODEGEN--\":2901:2972   */\n      tag_118\n        /* \"--CODEGEN--\":2969:2970   */\n      0x00\n        /* \"--CODEGEN--\":2958:2967   */\n      dup4\n        /* \"--CODEGEN--\":2954:2971   */\n      add\n        /* \"--CODEGEN--\":2945:2951   */\n      dup5\n        /* \"--CODEGEN--\":2901:2972   */\n      jump(tag_89)\n    tag_118:\n        /* \"--CODEGEN--\":2858:2982   */\n      swap3\n      swap2\n      pop\n      pop\n      jump\n        /* \"--CODEGEN--\":2989:3600   */\n    tag_36:\n      0x00\n        /* \"--CODEGEN--\":3203:3205   */\n      0x60\n        /* \"--CODEGEN--\":3192:3201   */\n      dup3\n        /* \"--CODEGEN--\":3188:3206   */\n      add\n        /* \"--CODEGEN--\":3180:3206   */\n      swap1\n      pop\n        /* \"--CODEGEN--\":3217:3288   */\n      tag_120\n        /* \"--CODEGEN--\":3285:3286   */\n      0x00\n        /* \"--CODEGEN--\":3274:3283   */\n      dup4\n        /* \"--CODEGEN--\":3270:3287   */\n      add\n        /* \"--CODEGEN--\":3261:3267   */\n      dup7\n        /* \"--CODEGEN--\":3217:3288   */\n      jump(tag_109)\n    tag_120:\n        /* \"--CODEGEN--\":3336:3345   */\n      dup2\n        /* \"--CODEGEN--\":3330:3334   */\n      dup2\n        /* \"--CODEGEN--\":3326:3346   */\n      sub\n        /* \"--CODEGEN--\":3321:3323   */\n      0x20\n        /* \"--CODEGEN--\":3310:3319   */\n      dup4\n        /* \"--CODEGEN--\":3306:3324   */\n      add\n        /* \"--CODEGEN--\":3299:3347   */\n      mstore\n        /* \"--CODEGEN--\":3361:3439   */\n      tag_121\n        /* \"--CODEGEN--\":3434:3438   */\n      dup2\n        /* \"--CODEGEN--\":3425:3431   */\n      dup6\n        /* \"--CODEGEN--\":3361:3439   */\n      jump(tag_93)\n    tag_121:\n        /* \"--CODEGEN--\":3353:3439   */\n      swap1\n      pop\n        /* \"--CODEGEN--\":3487:3496   */\n      dup2\n        /* \"--CODEGEN--\":3481:3485   */\n      dup2\n        /* \"--CODEGEN--\":3477:3497   */\n      sub\n        /* \"--CODEGEN--\":3472:3474   */\n      0x40\n        /* \"--CODEGEN--\":3461:3470   */\n      dup4\n        /* \"--CODEGEN--\":3457:3475   */\n      add\n        /* \"--CODEGEN--\":3450:3498   */\n      mstore\n        /* \"--CODEGEN--\":3512:3590   */\n      tag_122\n        /* \"--CODEGEN--\":3585:3589   */\n      dup2\n        /* \"--CODEGEN--\":3576:3582   */\n      dup5\n        /* \"--CODEGEN--\":3512:3590   */\n      jump(tag_93)\n    tag_122:\n        /* \"--CODEGEN--\":3504:3590   */\n      swap1\n      pop\n        /* \"--CODEGEN--\":3174:3600   */\n      swap5\n      swap4\n      pop\n      pop\n      pop\n      pop\n      jump\n        /* \"--CODEGEN--\":3607:3863   */\n    tag_70:\n      0x00\n        /* \"--CODEGEN--\":3669:3671   */\n      0x40\n        /* \"--CODEGEN--\":3663:3672   */\n      mload\n        /* \"--CODEGEN--\":3653:3672   */\n      swap1\n      pop\n        /* \"--CODEGEN--\":3707:3711   */\n      dup2\n        /* \"--CODEGEN--\":3699:3705   */\n      dup2\n        /* \"--CODEGEN--\":3695:3712   */\n      add\n        /* \"--CODEGEN--\":3806:3812   */\n      dup2\n        /* \"--CODEGEN--\":3794:3804   */\n      dup2\n        /* \"--CODEGEN--\":3791:3813   */\n      lt\n        /* \"--CODEGEN--\":3770:3788   */\n      0xffffffffffffffff\n        /* \"--CODEGEN--\":3758:3768   */\n      dup3\n        /* \"--CODEGEN--\":3755:3789   */\n      gt\n        /* \"--CODEGEN--\":3752:3814   */\n      or\n        /* \"--CODEGEN--\":3749:3751   */\n      iszero\n      tag_124\n      jumpi\n        /* \"--CODEGEN--\":3827:3828   */\n      0x00\n        /* \"--CODEGEN--\":3824:3825   */\n      dup1\n        /* \"--CODEGEN--\":3817:3829   */\n      revert\n        /* \"--CODEGEN--\":3749:3751   */\n    tag_124:\n        /* \"--CODEGEN--\":3847:3857   */\n      dup1\n        /* \"--CODEGEN--\":3843:3845   */\n      0x40\n        /* \"--CODEGEN--\":3836:3858   */\n      mstore\n        /* \"--CODEGEN--\":3647:3863   */\n      pop\n      swap2\n      swap1\n      pop\n      jump\n        /* \"--CODEGEN--\":3870:4192   */\n    tag_69:\n      0x00\n        /* \"--CODEGEN--\":4014:4032   */\n      0xffffffffffffffff\n        /* \"--CODEGEN--\":4006:4012   */\n      dup3\n        /* \"--CODEGEN--\":4003:4033   */\n      gt\n        /* \"--CODEGEN--\":4000:4002   */\n      iszero\n      tag_126\n      jumpi\n        /* \"--CODEGEN--\":4046:4047   */\n      0x00\n        /* \"--CODEGEN--\":4043:4044   */\n      dup1\n        /* \"--CODEGEN--\":4036:4048   */\n      revert\n        /* \"--CODEGEN--\":4000:4002   */\n    tag_126:\n        /* \"--CODEGEN--\":4113:4117   */\n      0x1f\n        /* \"--CODEGEN--\":4109:4118   */\n      not\n        /* \"--CODEGEN--\":4102:4106   */\n      0x1f\n        /* \"--CODEGEN--\":4094:4100   */\n      dup4\n        /* \"--CODEGEN--\":4090:4107   */\n      add\n        /* \"--CODEGEN--\":4086:4119   */\n      and\n        /* \"--CODEGEN--\":4078:4119   */\n      swap1\n      pop\n        /* \"--CODEGEN--\":4177:4181   */\n      0x20\n        /* \"--CODEGEN--\":4171:4175   */\n      dup2\n        /* \"--CODEGEN--\":4167:4182   */\n      add\n        /* \"--CODEGEN--\":4159:4182   */\n      swap1\n      pop\n        /* \"--CODEGEN--\":3937:4192   */\n      swap2\n      swap1\n      pop\n      jump\n        /* \"--CODEGEN--\":4199:4321   */\n    tag_96:\n      0x00\n        /* \"--CODEGEN--\":4293:4298   */\n      dup2\n        /* \"--CODEGEN--\":4287:4299   */\n      mload\n        /* \"--CODEGEN--\":4277:4299   */\n      swap1\n      pop\n        /* \"--CODEGEN--\":4258:4321   */\n      swap2\n      swap1\n      pop\n      jump\n        /* \"--CODEGEN--\":4329:4492   */\n    tag_98:\n      0x00\n        /* \"--CODEGEN--\":4444:4450   */\n      dup3\n        /* \"--CODEGEN--\":4439:4442   */\n      dup3\n        /* \"--CODEGEN--\":4432:4451   */\n      mstore\n        /* \"--CODEGEN--\":4481:4485   */\n      0x20\n        /* \"--CODEGEN--\":4476:4479   */\n      dup3\n        /* \"--CODEGEN--\":4472:4486   */\n      add\n        /* \"--CODEGEN--\":4457:4486   */\n      swap1\n      pop\n        /* \"--CODEGEN--\":4425:4492   */\n      swap3\n      swap2\n      pop\n      pop\n      jump\n        /* \"--CODEGEN--\":4501:4646   */\n    tag_107:\n      0x00\n        /* \"--CODEGEN--\":4637:4640   */\n      dup2\n        /* \"--CODEGEN--\":4622:4640   */\n      swap1\n      pop\n        /* \"--CODEGEN--\":4615:4646   */\n      swap3\n      swap2\n      pop\n      pop\n      jump\n        /* \"--CODEGEN--\":4654:4745   */\n    tag_88:\n      0x00\n        /* \"--CODEGEN--\":4716:4740   */\n      tag_131\n        /* \"--CODEGEN--\":4734:4739   */\n      dup3\n        /* \"--CODEGEN--\":4716:4740   */\n      jump(tag_132)\n    tag_131:\n        /* \"--CODEGEN--\":4705:4740   */\n      swap1\n      pop\n        /* \"--CODEGEN--\":4699:4745   */\n      swap2\n      swap1\n      pop\n      jump\n        /* \"--CODEGEN--\":4752:4824   */\n    tag_92:\n      0x00\n        /* \"--CODEGEN--\":4814:4819   */\n      dup2\n        /* \"--CODEGEN--\":4803:4819   */\n      swap1\n      pop\n        /* \"--CODEGEN--\":4797:4824   */\n      swap2\n      swap1\n      pop\n      jump\n        /* \"--CODEGEN--\":4831:4952   */\n    tag_132:\n      0x00\n        /* \"--CODEGEN--\":4904:4946   */\n      0xffffffffffffffffffffffffffffffffffffffff\n        /* \"--CODEGEN--\":4897:4902   */\n      dup3\n        /* \"--CODEGEN--\":4893:4947   */\n      and\n        /* \"--CODEGEN--\":4882:4947   */\n      swap1\n      pop\n        /* \"--CODEGEN--\":4876:4952   */\n      swap2\n      swap1\n      pop\n      jump\n        /* \"--CODEGEN--\":4959:5031   */\n    tag_112:\n      0x00\n        /* \"--CODEGEN--\":5021:5026   */\n      dup2\n        /* \"--CODEGEN--\":5010:5026   */\n      swap1\n      pop\n        /* \"--CODEGEN--\":5004:5031   */\n      swap2\n      swap1\n      pop\n      jump\n        /* \"--CODEGEN--\":5039:5184   */\n    tag_73:\n        /* \"--CODEGEN--\":5120:5126   */\n      dup3\n        /* \"--CODEGEN--\":5115:5118   */\n      dup2\n        /* \"--CODEGEN--\":5110:5113   */\n      dup4\n        /* \"--CODEGEN--\":5097:5127   */\n      calldatacopy\n        /* \"--CODEGEN--\":5176:5177   */\n      0x00\n        /* \"--CODEGEN--\":5167:5173   */\n      dup4\n        /* \"--CODEGEN--\":5162:5165   */\n      dup4\n        /* \"--CODEGEN--\":5158:5174   */\n      add\n        /* \"--CODEGEN--\":5151:5178   */\n      mstore\n        /* \"--CODEGEN--\":5090:5184   */\n      pop\n      pop\n      pop\n      jump\n        /* \"--CODEGEN--\":5193:5461   */\n    tag_100:\n        /* \"--CODEGEN--\":5258:5259   */\n      0x00\n        /* \"--CODEGEN--\":5265:5366   */\n    tag_138:\n        /* \"--CODEGEN--\":5279:5285   */\n      dup4\n        /* \"--CODEGEN--\":5276:5277   */\n      dup2\n        /* \"--CODEGEN--\":5273:5286   */\n      lt\n        /* \"--CODEGEN--\":5265:5366   */\n      iszero\n      tag_140\n      jumpi\n        /* \"--CODEGEN--\":5355:5356   */\n      dup1\n        /* \"--CODEGEN--\":5350:5353   */\n      dup3\n        /* \"--CODEGEN--\":5346:5357   */\n      add\n        /* \"--CODEGEN--\":5340:5358   */\n      mload\n        /* \"--CODEGEN--\":5336:5337   */\n      dup2\n        /* \"--CODEGEN--\":5331:5334   */\n      dup5\n        /* \"--CODEGEN--\":5327:5338   */\n      add\n        /* \"--CODEGEN--\":5320:5359   */\n      mstore\n        /* \"--CODEGEN--\":5301:5303   */\n      0x20\n        /* \"--CODEGEN--\":5298:5299   */\n      dup2\n        /* \"--CODEGEN--\":5294:5304   */\n      add\n        /* \"--CODEGEN--\":5289:5304   */\n      swap1\n      pop\n        /* \"--CODEGEN--\":5265:5366   */\n      jump(tag_138)\n    tag_140:\n        /* \"--CODEGEN--\":5381:5387   */\n      dup4\n        /* \"--CODEGEN--\":5378:5379   */\n      dup2\n        /* \"--CODEGEN--\":5375:5388   */\n      gt\n        /* \"--CODEGEN--\":5372:5374   */\n      iszero\n      tag_141\n      jumpi\n        /* \"--CODEGEN--\":5446:5447   */\n      0x00\n        /* \"--CODEGEN--\":5437:5443   */\n      dup5\n        /* \"--CODEGEN--\":5432:5435   */\n      dup5\n        /* \"--CODEGEN--\":5428:5444   */\n      add\n        /* \"--CODEGEN--\":5421:5448   */\n      mstore\n        /* \"--CODEGEN--\":5372:5374   */\n    tag_141:\n        /* \"--CODEGEN--\":5242:5461   */\n      pop\n      pop\n      pop\n      pop\n      jump\n        /* \"--CODEGEN--\":5469:5566   */\n    tag_102:\n      0x00\n        /* \"--CODEGEN--\":5557:5559   */\n      0x1f\n        /* \"--CODEGEN--\":5553:5560   */\n      not\n        /* \"--CODEGEN--\":5548:5550   */\n      0x1f\n        /* \"--CODEGEN--\":5541:5546   */\n      dup4\n        /* \"--CODEGEN--\":5537:5551   */\n      add\n        /* \"--CODEGEN--\":5533:5561   */\n      and\n        /* \"--CODEGEN--\":5523:5561   */\n      swap1\n      pop\n        /* \"--CODEGEN--\":5517:5566   */\n      swap2\n      swap1\n      pop\n      jump\n        /* \"--CODEGEN--\":5574:5691   */\n    tag_77:\n        /* \"--CODEGEN--\":5643:5667   */\n      tag_144\n        /* \"--CODEGEN--\":5661:5666   */\n      dup2\n        /* \"--CODEGEN--\":5643:5667   */\n      jump(tag_112)\n    tag_144:\n        /* \"--CODEGEN--\":5636:5641   */\n      dup2\n        /* \"--CODEGEN--\":5633:5668   */\n      eq\n        /* \"--CODEGEN--\":5623:5625   */\n      tag_145\n      jumpi\n        /* \"--CODEGEN--\":5682:5683   */\n      0x00\n        /* \"--CODEGEN--\":5679:5680   */\n      dup1\n        /* \"--CODEGEN--\":5672:5684   */\n      revert\n        /* \"--CODEGEN--\":5623:5625   */\n    tag_145:\n        /* \"--CODEGEN--\":5617:5691   */\n      pop\n      jump\n\n    auxdata: 0xa26469706673582212201b869410e88b3be2678ad586cabb2d2968971328b3e1aa1b202f355d4f3e4c0a64736f6c63430006050033\n}\n",
				"bytecode": {
					"linkReferences": {},
					"object": "608060405234801561001057600080fd5b50610819806100206000396000f3fe608060405234801561001057600080fd5b506004361061007d5760003560e01c8063547cbcad1161005b578063547cbcad146100c6578063a7469ee3146100f6578063b4f5747314610112578063c74efaef146101305761007d565b806309bd5a601461008257806333c83dbd146100a057806342d73314146100bc575b600080fd5b61008a610150565b6040516100979190610653565b60405180910390f35b6100ba60048036038101906100b59190610520565b610156565b005b6100c46101f3565b005b6100e060048036038101906100db9190610561565b610258565b6040516100ed9190610638565b60405180910390f35b610110600480360381019061010b9190610520565b610294565b005b61011a6102c4565b6040516101279190610653565b60405180910390f35b6101386102ca565b6040516101479392919061066e565b60405180910390f35b60015481565b6040518060600160405280600181526020016040518060400160405280600b81526020017f48616d627572677565736100000000000000000000000000000000000000000081525081526020018281525060026000820151816000015560208201518160010190805190602001906101cf929190610412565b5060408201518160020190805190602001906101ec929190610412565b5090505050565b6000339080600181540180825580915050600190039060005260206000200160009091909190916101000a81548173ffffffffffffffffffffffffffffffffffffffff021916908373ffffffffffffffffffffffffffffffffffffffff160217905550565b6000818154811061026557fe5b906000526020600020016000915054906101000a900473ffffffffffffffffffffffffffffffffffffffff1681565b806040516020016102a59190610621565b6040516020818303038152906040528051906020012060018190555050565b60055481565b6002806000015490806001018054600181600116156101000203166002900480601f01602080910402602001604051908101604052809291908181526020018280546001816001161561010002031660029004801561036a5780601f1061033f5761010080835404028352916020019161036a565b820191906000526020600020905b81548152906001019060200180831161034d57829003601f168201915b505050505090806002018054600181600116156101000203166002900480601f0160208091040260200160405190810160405280929190818152602001828054600181600116156101000203166002900480156104085780601f106103dd57610100808354040283529160200191610408565b820191906000526020600020905b8154815290600101906020018083116103eb57829003601f168201915b5050505050905083565b828054600181600116156101000203166002900490600052602060002090601f016020900481019282601f1061045357805160ff1916838001178555610481565b82800160010185558215610481579182015b82811115610480578251825591602001919060010190610465565b5b50905061048e9190610492565b5090565b6104b491905b808211156104b0576000816000905550600101610498565b5090565b90565b600082601f8301126104c857600080fd5b81356104db6104d6826106e0565b6106b3565b915080825260208301602083018583830111156104f757600080fd5b610502838284610779565b50505092915050565b60008135905061051a816107cc565b92915050565b60006020828403121561053257600080fd5b600082013567ffffffffffffffff81111561054c57600080fd5b610558848285016104b7565b91505092915050565b60006020828403121561057357600080fd5b60006105818482850161050b565b91505092915050565b61059381610733565b82525050565b6105a281610745565b82525050565b60006105b38261070c565b6105bd8185610717565b93506105cd818560208601610788565b6105d6816107bb565b840191505092915050565b60006105ec8261070c565b6105f68185610728565b9350610606818560208601610788565b80840191505092915050565b61061b8161076f565b82525050565b600061062d82846105e1565b915081905092915050565b600060208201905061064d600083018461058a565b92915050565b60006020820190506106686000830184610599565b92915050565b60006060820190506106836000830186610612565b818103602083015261069581856105a8565b905081810360408301526106a981846105a8565b9050949350505050565b6000604051905081810181811067ffffffffffffffff821117156106d657600080fd5b8060405250919050565b600067ffffffffffffffff8211156106f757600080fd5b601f19601f8301169050602081019050919050565b600081519050919050565b600082825260208201905092915050565b600081905092915050565b600061073e8261074f565b9050919050565b6000819050919050565b600073ffffffffffffffffffffffffffffffffffffffff82169050919050565b6000819050919050565b82818337600083830152505050565b60005b838110156107a657808201518184015260208101905061078b565b838111156107b5576000848401525b50505050565b6000601f19601f8301169050919050565b6107d58161076f565b81146107e057600080fd5b5056fea26469706673582212201b869410e88b3be2678ad586cabb2d2968971328b3e1aa1b202f355d4f3e4c0a64736f6c63430006050033",
					"opcodes": "PUSH1 0x80 PUSH1 0x40 MSTORE CALLVALUE DUP1 ISZERO PUSH2 0x10 JUMPI PUSH1 0x0 DUP1 REVERT JUMPDEST POP PUSH2 0x819 DUP1 PUSH2 0x20 PUSH1 0x0 CODECOPY PUSH1 0x0 RETURN INVALID PUSH1 0x80 PUSH1 0x40 MSTORE CALLVALUE DUP1 ISZERO PUSH2 0x10 JUMPI PUSH1 0x0 DUP1 REVERT JUMPDEST POP PUSH1 0x4 CALLDATASIZE LT PUSH2 0x7D JUMPI PUSH1 0x0 CALLDATALOAD PUSH1 0xE0 SHR DUP1 PUSH4 0x547CBCAD GT PUSH2 0x5B JUMPI DUP1 PUSH4 0x547CBCAD EQ PUSH2 0xC6 JUMPI DUP1 PUSH4 0xA7469EE3 EQ PUSH2 0xF6 JUMPI DUP1 PUSH4 0xB4F57473 EQ PUSH2 0x112 JUMPI DUP1 PUSH4 0xC74EFAEF EQ PUSH2 0x130 JUMPI PUSH2 0x7D JUMP JUMPDEST DUP1 PUSH4 0x9BD5A60 EQ PUSH2 0x82 JUMPI DUP1 PUSH4 0x33C83DBD EQ PUSH2 0xA0 JUMPI DUP1 PUSH4 0x42D73314 EQ PUSH2 0xBC JUMPI JUMPDEST PUSH1 0x0 DUP1 REVERT JUMPDEST PUSH2 0x8A PUSH2 0x150 JUMP JUMPDEST PUSH1 0x40 MLOAD PUSH2 0x97 SWAP2 SWAP1 PUSH2 0x653 JUMP JUMPDEST PUSH1 0x40 MLOAD DUP1 SWAP2 SUB SWAP1 RETURN JUMPDEST PUSH2 0xBA PUSH1 0x4 DUP1 CALLDATASIZE SUB DUP2 ADD SWAP1 PUSH2 0xB5 SWAP2 SWAP1 PUSH2 0x520 JUMP JUMPDEST PUSH2 0x156 JUMP JUMPDEST STOP JUMPDEST PUSH2 0xC4 PUSH2 0x1F3 JUMP JUMPDEST STOP JUMPDEST PUSH2 0xE0 PUSH1 0x4 DUP1 CALLDATASIZE SUB DUP2 ADD SWAP1 PUSH2 0xDB SWAP2 SWAP1 PUSH2 0x561 JUMP JUMPDEST PUSH2 0x258 JUMP JUMPDEST PUSH1 0x40 MLOAD PUSH2 0xED SWAP2 SWAP1 PUSH2 0x638 JUMP JUMPDEST PUSH1 0x40 MLOAD DUP1 SWAP2 SUB SWAP1 RETURN JUMPDEST PUSH2 0x110 PUSH1 0x4 DUP1 CALLDATASIZE SUB DUP2 ADD SWAP1 PUSH2 0x10B SWAP2 SWAP1 PUSH2 0x520 JUMP JUMPDEST PUSH2 0x294 JUMP JUMPDEST STOP JUMPDEST PUSH2 0x11A PUSH2 0x2C4 JUMP JUMPDEST PUSH1 0x40 MLOAD PUSH2 0x127 SWAP2 SWAP1 PUSH2 0x653 JUMP JUMPDEST PUSH1 0x40 MLOAD DUP1 SWAP2 SUB SWAP1 RETURN JUMPDEST PUSH2 0x138 PUSH2 0x2CA JUMP JUMPDEST PUSH1 0x40 MLOAD PUSH2 0x147 SWAP4 SWAP3 SWAP2 SWAP1 PUSH2 0x66E JUMP JUMPDEST PUSH1 0x40 MLOAD DUP1 SWAP2 SUB SWAP1 RETURN JUMPDEST PUSH1 0x1 SLOAD DUP2 JUMP JUMPDEST PUSH1 0x40 MLOAD DUP1 PUSH1 0x60 ADD PUSH1 0x40 MSTORE DUP1 PUSH1 0x1 DUP2 MSTORE PUSH1 0x20 ADD PUSH1 0x40 MLOAD DUP1 PUSH1 0x40 ADD PUSH1 0x40 MSTORE DUP1 PUSH1 0xB DUP2 MSTORE PUSH1 0x20 ADD PUSH32 0x48616D6275726775657361000000000000000000000000000000000000000000 DUP2 MSTORE POP DUP2 MSTORE PUSH1 0x20 ADD DUP3 DUP2 MSTORE POP PUSH1 0x2 PUSH1 0x0 DUP3 ADD MLOAD DUP2 PUSH1 0x0 ADD SSTORE PUSH1 0x20 DUP3 ADD MLOAD DUP2 PUSH1 0x1 ADD SWAP1 DUP1 MLOAD SWAP1 PUSH1 0x20 ADD SWAP1 PUSH2 0x1CF SWAP3 SWAP2 SWAP1 PUSH2 0x412 JUMP JUMPDEST POP PUSH1 0x40 DUP3 ADD MLOAD DUP2 PUSH1 0x2 ADD SWAP1 DUP1 MLOAD SWAP1 PUSH1 0x20 ADD SWAP1 PUSH2 0x1EC SWAP3 SWAP2 SWAP1 PUSH2 0x412 JUMP JUMPDEST POP SWAP1 POP POP POP JUMP JUMPDEST PUSH1 0x0 CALLER SWAP1 DUP1 PUSH1 0x1 DUP2 SLOAD ADD DUP1 DUP3 SSTORE DUP1 SWAP2 POP POP PUSH1 0x1 SWAP1 SUB SWAP1 PUSH1 0x0 MSTORE PUSH1 0x20 PUSH1 0x0 KECCAK256 ADD PUSH1 0x0 SWAP1 SWAP2 SWAP1 SWAP2 SWAP1 SWAP2 PUSH2 0x100 EXP DUP2 SLOAD DUP2 PUSH20 0xFFFFFFFFFFFFFFFFFFFFFFFFFFFFFFFFFFFFFFFF MUL NOT AND SWAP1 DUP4 PUSH20 0xFFFFFFFFFFFFFFFFFFFFFFFFFFFFFFFFFFFFFFFF AND MUL OR SWAP1 SSTORE POP JUMP JUMPDEST PUSH1 0x0 DUP2 DUP2 SLOAD DUP2 LT PUSH2 0x265 JUMPI INVALID JUMPDEST SWAP1 PUSH1 0x0 MSTORE PUSH1 0x20 PUSH1 0x0 KECCAK256 ADD PUSH1 0x0 SWAP2 POP SLOAD SWAP1 PUSH2 0x100 EXP SWAP1 DIV PUSH20 0xFFFFFFFFFFFFFFFFFFFFFFFFFFFFFFFFFFFFFFFF AND DUP2 JUMP JUMPDEST DUP1 PUSH1 0x40 MLOAD PUSH1 0x20 ADD PUSH2 0x2A5 SWAP2 SWAP1 PUSH2 0x621 JUMP JUMPDEST PUSH1 0x40 MLOAD PUSH1 0x20 DUP2 DUP4 SUB SUB DUP2 MSTORE SWAP1 PUSH1 0x40 MSTORE DUP1 MLOAD SWAP1 PUSH1 0x20 ADD KECCAK256 PUSH1 0x1 DUP2 SWAP1 SSTORE POP POP JUMP JUMPDEST PUSH1 0x5 SLOAD DUP2 JUMP JUMPDEST PUSH1 0x2 DUP1 PUSH1 0x0 ADD SLOAD SWAP1 DUP1 PUSH1 0x1 ADD DUP1 SLOAD PUSH1 0x1 DUP2 PUSH1 0x1 AND ISZERO PUSH2 0x100 MUL SUB AND PUSH1 0x2 SWAP1 DIV DUP1 PUSH1 0x1F ADD PUSH1 0x20 DUP1 SWAP2 DIV MUL PUSH1 0x20 ADD PUSH1 0x40 MLOAD SWAP1 DUP2 ADD PUSH1 0x40 MSTORE DUP1 SWAP3 SWAP2 SWAP1 DUP2 DUP2 MSTORE PUSH1 0x20 ADD DUP3 DUP1 SLOAD PUSH1 0x1 DUP2 PUSH1 0x1 AND ISZERO PUSH2 0x100 MUL SUB AND PUSH1 0x2 SWAP1 DIV DUP1 ISZERO PUSH2 0x36A JUMPI DUP1 PUSH1 0x1F LT PUSH2 0x33F JUMPI PUSH2 0x100 DUP1 DUP4 SLOAD DIV MUL DUP4 MSTORE SWAP2 PUSH1 0x20 ADD SWAP2 PUSH2 0x36A JUMP JUMPDEST DUP3 ADD SWAP2 SWAP1 PUSH1 0x0 MSTORE PUSH1 0x20 PUSH1 0x0 KECCAK256 SWAP1 JUMPDEST DUP2 SLOAD DUP2 MSTORE SWAP1 PUSH1 0x1 ADD SWAP1 PUSH1 0x20 ADD DUP1 DUP4 GT PUSH2 0x34D JUMPI DUP3 SWAP1 SUB PUSH1 0x1F AND DUP3 ADD SWAP2 JUMPDEST POP POP POP POP POP SWAP1 DUP1 PUSH1 0x2 ADD DUP1 SLOAD PUSH1 0x1 DUP2 PUSH1 0x1 AND ISZERO PUSH2 0x100 MUL SUB AND PUSH1 0x2 SWAP1 DIV DUP1 PUSH1 0x1F ADD PUSH1 0x20 DUP1 SWAP2 DIV MUL PUSH1 0x20 ADD PUSH1 0x40 MLOAD SWAP1 DUP2 ADD PUSH1 0x40 MSTORE DUP1 SWAP3 SWAP2 SWAP1 DUP2 DUP2 MSTORE PUSH1 0x20 ADD DUP3 DUP1 SLOAD PUSH1 0x1 DUP2 PUSH1 0x1 AND ISZERO PUSH2 0x100 MUL SUB AND PUSH1 0x2 SWAP1 DIV DUP1 ISZERO PUSH2 0x408 JUMPI DUP1 PUSH1 0x1F LT PUSH2 0x3DD JUMPI PUSH2 0x100 DUP1 DUP4 SLOAD DIV MUL DUP4 MSTORE SWAP2 PUSH1 0x20 ADD SWAP2 PUSH2 0x408 JUMP JUMPDEST DUP3 ADD SWAP2 SWAP1 PUSH1 0x0 MSTORE PUSH1 0x20 PUSH1 0x0 KECCAK256 SWAP1 JUMPDEST DUP2 SLOAD DUP2 MSTORE SWAP1 PUSH1 0x1 ADD SWAP1 PUSH1 0x20 ADD DUP1 DUP4 GT PUSH2 0x3EB JUMPI DUP3 SWAP1 SUB PUSH1 0x1F AND DUP3 ADD SWAP2 JUMPDEST POP POP POP POP POP SWAP1 POP DUP4 JUMP JUMPDEST DUP3 DUP1 SLOAD PUSH1 0x1 DUP2 PUSH1 0x1 AND ISZERO PUSH2 0x100 MUL SUB AND PUSH1 0x2 SWAP1 DIV SWAP1 PUSH1 0x0 MSTORE PUSH1 0x20 PUSH1 0x0 KECCAK256 SWAP1 PUSH1 0x1F ADD PUSH1 0x20 SWAP1 DIV DUP2 ADD SWAP3 DUP3 PUSH1 0x1F LT PUSH2 0x453 JUMPI DUP1 MLOAD PUSH1 0xFF NOT AND DUP4 DUP1 ADD OR DUP6 SSTORE PUSH2 0x481 JUMP JUMPDEST DUP3 DUP1 ADD PUSH1 0x1 ADD DUP6 SSTORE DUP3 ISZERO PUSH2 0x481 JUMPI SWAP2 DUP3 ADD JUMPDEST DUP3 DUP2 GT ISZERO PUSH2 0x480 JUMPI DUP3 MLOAD DUP3 SSTORE SWAP2 PUSH1 0x20 ADD SWAP2 SWAP1 PUSH1 0x1 ADD SWAP1 PUSH2 0x465 JUMP JUMPDEST JUMPDEST POP SWAP1 POP PUSH2 0x48E SWAP2 SWAP1 PUSH2 0x492 JUMP JUMPDEST POP SWAP1 JUMP JUMPDEST PUSH2 0x4B4 SWAP2 SWAP1 JUMPDEST DUP1 DUP3 GT ISZERO PUSH2 0x4B0 JUMPI PUSH1 0x0 DUP2 PUSH1 0x0 SWAP1 SSTORE POP PUSH1 0x1 ADD PUSH2 0x498 JUMP JUMPDEST POP SWAP1 JUMP JUMPDEST SWAP1 JUMP JUMPDEST PUSH1 0x0 DUP3 PUSH1 0x1F DUP4 ADD SLT PUSH2 0x4C8 JUMPI PUSH1 0x0 DUP1 REVERT JUMPDEST DUP2 CALLDATALOAD PUSH2 0x4DB PUSH2 0x4D6 DUP3 PUSH2 0x6E0 JUMP JUMPDEST PUSH2 0x6B3 JUMP JUMPDEST SWAP2 POP DUP1 DUP3 MSTORE PUSH1 0x20 DUP4 ADD PUSH1 0x20 DUP4 ADD DUP6 DUP4 DUP4 ADD GT ISZERO PUSH2 0x4F7 JUMPI PUSH1 0x0 DUP1 REVERT JUMPDEST PUSH2 0x502 DUP4 DUP3 DUP5 PUSH2 0x779 JUMP JUMPDEST POP POP POP SWAP3 SWAP2 POP POP JUMP JUMPDEST PUSH1 0x0 DUP2 CALLDATALOAD SWAP1 POP PUSH2 0x51A DUP2 PUSH2 0x7CC JUMP JUMPDEST SWAP3 SWAP2 POP POP JUMP JUMPDEST PUSH1 0x0 PUSH1 0x20 DUP3 DUP5 SUB SLT ISZERO PUSH2 0x532 JUMPI PUSH1 0x0 DUP1 REVERT JUMPDEST PUSH1 0x0 DUP3 ADD CALLDATALOAD PUSH8 0xFFFFFFFFFFFFFFFF DUP2 GT ISZERO PUSH2 0x54C JUMPI PUSH1 0x0 DUP1 REVERT JUMPDEST PUSH2 0x558 DUP5 DUP3 DUP6 ADD PUSH2 0x4B7 JUMP JUMPDEST SWAP2 POP POP SWAP3 SWAP2 POP POP JUMP JUMPDEST PUSH1 0x0 PUSH1 0x20 DUP3 DUP5 SUB SLT ISZERO PUSH2 0x573 JUMPI PUSH1 0x0 DUP1 REVERT JUMPDEST PUSH1 0x0 PUSH2 0x581 DUP5 DUP3 DUP6 ADD PUSH2 0x50B JUMP JUMPDEST SWAP2 POP POP SWAP3 SWAP2 POP POP JUMP JUMPDEST PUSH2 0x593 DUP2 PUSH2 0x733 JUMP JUMPDEST DUP3 MSTORE POP POP JUMP JUMPDEST PUSH2 0x5A2 DUP2 PUSH2 0x745 JUMP JUMPDEST DUP3 MSTORE POP POP JUMP JUMPDEST PUSH1 0x0 PUSH2 0x5B3 DUP3 PUSH2 0x70C JUMP JUMPDEST PUSH2 0x5BD DUP2 DUP6 PUSH2 0x717 JUMP JUMPDEST SWAP4 POP PUSH2 0x5CD DUP2 DUP6 PUSH1 0x20 DUP7 ADD PUSH2 0x788 JUMP JUMPDEST PUSH2 0x5D6 DUP2 PUSH2 0x7BB JUMP JUMPDEST DUP5 ADD SWAP2 POP POP SWAP3 SWAP2 POP POP JUMP JUMPDEST PUSH1 0x0 PUSH2 0x5EC DUP3 PUSH2 0x70C JUMP JUMPDEST PUSH2 0x5F6 DUP2 DUP6 PUSH2 0x728 JUMP JUMPDEST SWAP4 POP PUSH2 0x606 DUP2 DUP6 PUSH1 0x20 DUP7 ADD PUSH2 0x788 JUMP JUMPDEST DUP1 DUP5 ADD SWAP2 POP POP SWAP3 SWAP2 POP POP JUMP JUMPDEST PUSH2 0x61B DUP2 PUSH2 0x76F JUMP JUMPDEST DUP3 MSTORE POP POP JUMP JUMPDEST PUSH1 0x0 PUSH2 0x62D DUP3 DUP5 PUSH2 0x5E1 JUMP JUMPDEST SWAP2 POP DUP2 SWAP1 POP SWAP3 SWAP2 POP POP JUMP JUMPDEST PUSH1 0x0 PUSH1 0x20 DUP3 ADD SWAP1 POP PUSH2 0x64D PUSH1 0x0 DUP4 ADD DUP5 PUSH2 0x58A JUMP JUMPDEST SWAP3 SWAP2 POP POP JUMP JUMPDEST PUSH1 0x0 PUSH1 0x20 DUP3 ADD SWAP1 POP PUSH2 0x668 PUSH1 0x0 DUP4 ADD DUP5 PUSH2 0x599 JUMP JUMPDEST SWAP3 SWAP2 POP POP JUMP JUMPDEST PUSH1 0x0 PUSH1 0x60 DUP3 ADD SWAP1 POP PUSH2 0x683 PUSH1 0x0 DUP4 ADD DUP7 PUSH2 0x612 JUMP JUMPDEST DUP2 DUP2 SUB PUSH1 0x20 DUP4 ADD MSTORE PUSH2 0x695 DUP2 DUP6 PUSH2 0x5A8 JUMP JUMPDEST SWAP1 POP DUP2 DUP2 SUB PUSH1 0x40 DUP4 ADD MSTORE PUSH2 0x6A9 DUP2 DUP5 PUSH2 0x5A8 JUMP JUMPDEST SWAP1 POP SWAP5 SWAP4 POP POP POP POP JUMP JUMPDEST PUSH1 0x0 PUSH1 0x40 MLOAD SWAP1 POP DUP2 DUP2 ADD DUP2 DUP2 LT PUSH8 0xFFFFFFFFFFFFFFFF DUP3 GT OR ISZERO PUSH2 0x6D6 JUMPI PUSH1 0x0 DUP1 REVERT JUMPDEST DUP1 PUSH1 0x40 MSTORE POP SWAP2 SWAP1 POP JUMP JUMPDEST PUSH1 0x0 PUSH8 0xFFFFFFFFFFFFFFFF DUP3 GT ISZERO PUSH2 0x6F7 JUMPI PUSH1 0x0 DUP1 REVERT JUMPDEST PUSH1 0x1F NOT PUSH1 0x1F DUP4 ADD AND SWAP1 POP PUSH1 0x20 DUP2 ADD SWAP1 POP SWAP2 SWAP1 POP JUMP JUMPDEST PUSH1 0x0 DUP2 MLOAD SWAP1 POP SWAP2 SWAP1 POP JUMP JUMPDEST PUSH1 0x0 DUP3 DUP3 MSTORE PUSH1 0x20 DUP3 ADD SWAP1 POP SWAP3 SWAP2 POP POP JUMP JUMPDEST PUSH1 0x0 DUP2 SWAP1 POP SWAP3 SWAP2 POP POP JUMP JUMPDEST PUSH1 0x0 PUSH2 0x73E DUP3 PUSH2 0x74F JUMP JUMPDEST SWAP1 POP SWAP2 SWAP1 POP JUMP JUMPDEST PUSH1 0x0 DUP2 SWAP1 POP SWAP2 SWAP1 POP JUMP JUMPDEST PUSH1 0x0 PUSH20 0xFFFFFFFFFFFFFFFFFFFFFFFFFFFFFFFFFFFFFFFF DUP3 AND SWAP1 POP SWAP2 SWAP1 POP JUMP JUMPDEST PUSH1 0x0 DUP2 SWAP1 POP SWAP2 SWAP1 POP JUMP JUMPDEST DUP3 DUP2 DUP4 CALLDATACOPY PUSH1 0x0 DUP4 DUP4 ADD MSTORE POP POP POP JUMP JUMPDEST PUSH1 0x0 JUMPDEST DUP4 DUP2 LT ISZERO PUSH2 0x7A6 JUMPI DUP1 DUP3 ADD MLOAD DUP2 DUP5 ADD MSTORE PUSH1 0x20 DUP2 ADD SWAP1 POP PUSH2 0x78B JUMP JUMPDEST DUP4 DUP2 GT ISZERO PUSH2 0x7B5 JUMPI PUSH1 0x0 DUP5 DUP5 ADD MSTORE JUMPDEST POP POP POP POP JUMP JUMPDEST PUSH1 0x0 PUSH1 0x1F NOT PUSH1 0x1F DUP4 ADD AND SWAP1 POP SWAP2 SWAP1 POP JUMP JUMPDEST PUSH2 0x7D5 DUP2 PUSH2 0x76F JUMP JUMPDEST DUP2 EQ PUSH2 0x7E0 JUMPI PUSH1 0x0 DUP1 REVERT JUMPDEST POP JUMP INVALID LOG2 PUSH5 0x6970667358 0x22 SLT KECCAK256 SHL DUP7 SWAP5 LT 0xE8 DUP12 EXTCODESIZE 0xE2 PUSH8 0x8AD586CABB2D2968 SWAP8 SGT 0x28 0xB3 0xE1 0xAA SHL KECCAK256 0x2F CALLDATALOAD 0x5D 0x4F RETURNDATACOPY 0x4C EXP PUSH5 0x736F6C6343 STOP MOD SDIV STOP CALLER "
				},
				"gasEstimates": {
					"creation": {
						"codeDepositCost": "414600",
						"executionCost": "449",
						"totalCost": "415049"
					},
					"external": {
						"calularHash(string)": "infinite",
						"crearHamburguesa(string)": "infinite",
						"direcciones(uint256)": "2356",
						"hamburguesa()": "infinite",
						"hash()": "1130",
						"hash_id_alumno()": "1173",
						"nuevaDireccion()": "41967"
					},
					"internal": {
						"hashIdAlumno(uint256,string memory,address,uint256)": "infinite"
					}
				},
				"methodIdentifiers": {
					"calularHash(string)": "a7469ee3",
					"crearHamburguesa(string)": "33c83dbd",
					"direcciones(uint256)": "547cbcad",
					"hamburguesa()": "c74efaef",
					"hash()": "09bd5a60",
					"hash_id_alumno()": "b4f57473",
					"nuevaDireccion()": "42d73314"
				}
			},
			"storageLayout": {
				"storage": [
					{
						"astId": 5,
						"contract": "Funciones/funciones.sol:Funciones",
						"label": "direcciones",
						"offset": 0,
						"slot": "0",
						"type": "t_array(t_address)dyn_storage"
					},
					{
						"astId": 18,
						"contract": "Funciones/funciones.sol:Funciones",
						"label": "hash",
						"offset": 0,
						"slot": "1",
						"type": "t_bytes32"
					},
					{
						"astId": 42,
						"contract": "Funciones/funciones.sol:Funciones",
						"label": "hamburguesa",
						"offset": 0,
						"slot": "2",
						"type": "t_struct(Comida)40_storage"
					},
					{
						"astId": 67,
						"contract": "Funciones/funciones.sol:Funciones",
						"label": "hash_id_alumno",
						"offset": 0,
						"slot": "5",
						"type": "t_bytes32"
					}
				],
				"types": {
					"t_address": {
						"encoding": "inplace",
						"label": "address",
						"numberOfBytes": "20"
					},
					"t_array(t_address)dyn_storage": {
						"base": "t_address",
						"encoding": "dynamic_array",
						"label": "address[]",
						"numberOfBytes": "32"
					},
					"t_bytes32": {
						"encoding": "inplace",
						"label": "bytes32",
						"numberOfBytes": "32"
					},
					"t_string_storage": {
						"encoding": "bytes",
						"label": "string",
						"numberOfBytes": "32"
					},
					"t_struct(Comida)40_storage": {
						"encoding": "inplace",
						"label": "struct Funciones.Comida",
						"members": [
							{
								"astId": 35,
								"contract": "Funciones/funciones.sol:Funciones",
								"label": "id",
								"offset": 0,
								"slot": "0",
								"type": "t_uint256"
							},
							{
								"astId": 37,
								"contract": "Funciones/funciones.sol:Funciones",
								"label": "nombre",
								"offset": 0,
								"slot": "1",
								"type": "t_string_storage"
							},
							{
								"astId": 39,
								"contract": "Funciones/funciones.sol:Funciones",
								"label": "ingredientes",
								"offset": 0,
								"slot": "2",
								"type": "t_string_storage"
							}
						],
						"numberOfBytes": "96"
					},
					"t_uint256": {
						"encoding": "inplace",
						"label": "uint256",
						"numberOfBytes": "32"
					}
				}
			},
			"userdoc": {
				"methods": {}
			}
		}
	}
}