{
	"Funciones/funciones.sol": {
		"Funciones": {
			"abi": [
				{
					"inputs": [
						{
							"internalType": "string",
							"name": "_datos",
							"type": "string"
						}
					],
					"name": "calularHash",
					"outputs": [],
					"stateMutability": "nonpayable",
					"type": "function"
				},
				{
					"inputs": [
						{
							"internalType": "uint256",
							"name": "",
							"type": "uint256"
						}
					],
					"name": "direcciones",
					"outputs": [
						{
							"internalType": "address",
							"name": "",
							"type": "address"
						}
					],
					"stateMutability": "view",
					"type": "function"
				},
				{
					"inputs": [],
					"name": "hash",
					"outputs": [
						{
							"internalType": "bytes32",
							"name": "",
							"type": "bytes32"
						}
					],
					"stateMutability": "view",
					"type": "function"
				},
				{
					"inputs": [],
					"name": "nuevaDireccion",
					"outputs": [],
					"stateMutability": "nonpayable",
					"type": "function"
				}
			],
			"devdoc": {
				"methods": {}
			},
			"evm": {
				"assembly": "    /* \"Funciones/funciones.sol\":70:572  contract Funciones{\r... */\n  mstore(0x40, 0x80)\n  callvalue\n    /* \"--CODEGEN--\":5:14   */\n  dup1\n    /* \"--CODEGEN--\":2:4   */\n  iszero\n  tag_1\n  jumpi\n    /* \"--CODEGEN--\":27:28   */\n  0x00\n    /* \"--CODEGEN--\":24:25   */\n  dup1\n    /* \"--CODEGEN--\":17:29   */\n  revert\n    /* \"--CODEGEN--\":2:4   */\ntag_1:\n    /* \"Funciones/funciones.sol\":70:572  contract Funciones{\r... */\n  pop\n  dataSize(sub_0)\n  dup1\n  dataOffset(sub_0)\n  0x00\n  codecopy\n  0x00\n  return\nstop\n\nsub_0: assembly {\n        /* \"Funciones/funciones.sol\":70:572  contract Funciones{\r... */\n      mstore(0x40, 0x80)\n      callvalue\n        /* \"--CODEGEN--\":5:14   */\n      dup1\n        /* \"--CODEGEN--\":2:4   */\n      iszero\n      tag_1\n      jumpi\n        /* \"--CODEGEN--\":27:28   */\n      0x00\n        /* \"--CODEGEN--\":24:25   */\n      dup1\n        /* \"--CODEGEN--\":17:29   */\n      revert\n        /* \"--CODEGEN--\":2:4   */\n    tag_1:\n        /* \"Funciones/funciones.sol\":70:572  contract Funciones{\r... */\n      pop\n      jumpi(tag_2, lt(calldatasize, 0x04))\n      shr(0xe0, calldataload(0x00))\n      dup1\n      0x09bd5a60\n      eq\n      tag_3\n      jumpi\n      dup1\n      0x42d73314\n      eq\n      tag_4\n      jumpi\n      dup1\n      0x547cbcad\n      eq\n      tag_5\n      jumpi\n      dup1\n      0xa7469ee3\n      eq\n      tag_6\n      jumpi\n    tag_2:\n        /* \"--CODEGEN--\":12:13   */\n      0x00\n        /* \"--CODEGEN--\":9:10   */\n      dup1\n        /* \"--CODEGEN--\":2:14   */\n      revert\n        /* \"Funciones/funciones.sol\":326:345  bytes32 public hash */\n    tag_3:\n      tag_7\n      tag_8\n      jump\t// in\n    tag_7:\n      mload(0x40)\n      tag_9\n      swap2\n      swap1\n      jump(tag_10)\n    tag_9:\n      mload(0x40)\n      dup1\n      swap2\n      sub\n      swap1\n      return\n        /* \"Funciones/funciones.sol\":239:318  function nuevaDireccion() public{\r... */\n    tag_4:\n      tag_11\n      tag_12\n      jump\t// in\n    tag_11:\n      stop\n        /* \"Funciones/funciones.sol\":201:230  address [] public direcciones */\n    tag_5:\n      tag_13\n      0x04\n      dup1\n      calldatasize\n      sub\n      dup2\n      add\n      swap1\n      tag_14\n      swap2\n      swap1\n      jump(tag_15)\n    tag_14:\n      tag_16\n      jump\t// in\n    tag_13:\n      mload(0x40)\n      tag_17\n      swap2\n      swap1\n      jump(tag_18)\n    tag_17:\n      mload(0x40)\n      dup1\n      swap2\n      sub\n      swap1\n      return\n        /* \"Funciones/funciones.sol\":354:467  function calularHash(string memory _datos) public {\r... */\n    tag_6:\n      tag_19\n      0x04\n      dup1\n      calldatasize\n      sub\n      dup2\n      add\n      swap1\n      tag_20\n      swap2\n      swap1\n      jump(tag_21)\n    tag_20:\n      tag_22\n      jump\t// in\n    tag_19:\n      stop\n        /* \"Funciones/funciones.sol\":326:345  bytes32 public hash */\n    tag_8:\n      sload(0x01)\n      dup2\n      jump\t// out\n        /* \"Funciones/funciones.sol\":239:318  function nuevaDireccion() public{\r... */\n    tag_12:\n        /* \"Funciones/funciones.sol\":282:293  direcciones */\n      0x00\n        /* \"Funciones/funciones.sol\":299:309  msg.sender */\n      caller\n        /* \"Funciones/funciones.sol\":282:310  direcciones.push(msg.sender) */\n      swap1\n      dup1\n        /* \"--CODEGEN--\":39:40   */\n      0x01\n        /* \"--CODEGEN--\":33:36   */\n      dup2\n        /* \"--CODEGEN--\":27:37   */\n      sload\n        /* \"--CODEGEN--\":23:41   */\n      add\n        /* \"--CODEGEN--\":57:67   */\n      dup1\n        /* \"--CODEGEN--\":52:55   */\n      dup3\n        /* \"--CODEGEN--\":45:68   */\n      sstore\n        /* \"--CODEGEN--\":79:89   */\n      dup1\n        /* \"--CODEGEN--\":72:89   */\n      swap2\n      pop\n        /* \"--CODEGEN--\":0:93   */\n      pop\n        /* \"Funciones/funciones.sol\":282:310  direcciones.push(msg.sender) */\n      0x01\n      swap1\n      sub\n      swap1\n      0x00\n      mstore\n      keccak256(0x00, 0x20)\n      add\n      0x00\n      swap1\n      swap2\n      swap1\n      swap2\n      swap1\n      swap2\n      0x0100\n      exp\n      dup2\n      sload\n      dup2\n      0xffffffffffffffffffffffffffffffffffffffff\n      mul\n      not\n      and\n      swap1\n      dup4\n      0xffffffffffffffffffffffffffffffffffffffff\n      and\n      mul\n      or\n      swap1\n      sstore\n      pop\n        /* \"Funciones/funciones.sol\":239:318  function nuevaDireccion() public{\r... */\n      jump\t// out\n        /* \"Funciones/funciones.sol\":201:230  address [] public direcciones */\n    tag_16:\n      0x00\n      dup2\n      dup2\n      sload\n      dup2\n      lt\n      tag_25\n      jumpi\n      invalid\n    tag_25:\n      swap1\n      0x00\n      mstore\n      keccak256(0x00, 0x20)\n      add\n      0x00\n      swap2\n      pop\n      sload\n      swap1\n      0x0100\n      exp\n      swap1\n      div\n      0xffffffffffffffffffffffffffffffffffffffff\n      and\n      dup2\n      jump\t// out\n        /* \"Funciones/funciones.sol\":354:467  function calularHash(string memory _datos) public {\r... */\n    tag_22:\n        /* \"Funciones/funciones.sol\":449:455  _datos */\n      dup1\n        /* \"Funciones/funciones.sol\":432:456  abi.encodePacked(_datos) */\n      add(0x20, mload(0x40))\n      tag_28\n      swap2\n      swap1\n      jump(tag_29)\n    tag_28:\n      mload(0x40)\n        /* \"--CODEGEN--\":49:53   */\n      0x20\n        /* \"--CODEGEN--\":39:46   */\n      dup2\n        /* \"--CODEGEN--\":30:37   */\n      dup4\n        /* \"--CODEGEN--\":26:47   */\n      sub\n        /* \"--CODEGEN--\":22:54   */\n      sub\n        /* \"--CODEGEN--\":13:20   */\n      dup2\n        /* \"--CODEGEN--\":6:55   */\n      mstore\n        /* \"Funciones/funciones.sol\":432:456  abi.encodePacked(_datos) */\n      swap1\n      0x40\n      mstore\n        /* \"Funciones/funciones.sol\":422:457  keccak256(abi.encodePacked(_datos)) */\n      dup1\n      mload\n      swap1\n      0x20\n      add\n      keccak256\n        /* \"Funciones/funciones.sol\":415:419  hash */\n      0x01\n        /* \"Funciones/funciones.sol\":415:457  hash = keccak256(abi.encodePacked(_datos)) */\n      dup2\n      swap1\n      sstore\n      pop\n        /* \"Funciones/funciones.sol\":354:467  function calularHash(string memory _datos) public {\r... */\n      pop\n      jump\t// out\n        /* \"--CODEGEN--\":6:448   */\n    tag_31:\n      0x00\n        /* \"--CODEGEN--\":108:111   */\n      dup3\n        /* \"--CODEGEN--\":101:105   */\n      0x1f\n        /* \"--CODEGEN--\":93:99   */\n      dup4\n        /* \"--CODEGEN--\":89:106   */\n      add\n        /* \"--CODEGEN--\":85:112   */\n      slt\n        /* \"--CODEGEN--\":75:77   */\n      tag_33\n      jumpi\n        /* \"--CODEGEN--\":126:127   */\n      0x00\n        /* \"--CODEGEN--\":123:124   */\n      dup1\n        /* \"--CODEGEN--\":116:128   */\n      revert\n        /* \"--CODEGEN--\":75:77   */\n    tag_33:\n        /* \"--CODEGEN--\":163:169   */\n      dup2\n        /* \"--CODEGEN--\":150:170   */\n      calldataload\n        /* \"--CODEGEN--\":185:250   */\n      tag_34\n        /* \"--CODEGEN--\":200:249   */\n      tag_35\n        /* \"--CODEGEN--\":242:248   */\n      dup3\n        /* \"--CODEGEN--\":200:249   */\n      jump(tag_36)\n    tag_35:\n        /* \"--CODEGEN--\":185:250   */\n      jump(tag_37)\n    tag_34:\n        /* \"--CODEGEN--\":176:250   */\n      swap2\n      pop\n        /* \"--CODEGEN--\":270:276   */\n      dup1\n        /* \"--CODEGEN--\":263:268   */\n      dup3\n        /* \"--CODEGEN--\":256:277   */\n      mstore\n        /* \"--CODEGEN--\":306:310   */\n      0x20\n        /* \"--CODEGEN--\":298:304   */\n      dup4\n        /* \"--CODEGEN--\":294:311   */\n      add\n        /* \"--CODEGEN--\":339:343   */\n      0x20\n        /* \"--CODEGEN--\":332:337   */\n      dup4\n        /* \"--CODEGEN--\":328:344   */\n      add\n        /* \"--CODEGEN--\":374:377   */\n      dup6\n        /* \"--CODEGEN--\":365:371   */\n      dup4\n        /* \"--CODEGEN--\":360:363   */\n      dup4\n        /* \"--CODEGEN--\":356:372   */\n      add\n        /* \"--CODEGEN--\":353:378   */\n      gt\n        /* \"--CODEGEN--\":350:352   */\n      iszero\n      tag_38\n      jumpi\n        /* \"--CODEGEN--\":391:392   */\n      0x00\n        /* \"--CODEGEN--\":388:389   */\n      dup1\n        /* \"--CODEGEN--\":381:393   */\n      revert\n        /* \"--CODEGEN--\":350:352   */\n    tag_38:\n        /* \"--CODEGEN--\":401:442   */\n      tag_39\n        /* \"--CODEGEN--\":435:441   */\n      dup4\n        /* \"--CODEGEN--\":430:433   */\n      dup3\n        /* \"--CODEGEN--\":425:428   */\n      dup5\n        /* \"--CODEGEN--\":401:442   */\n      jump(tag_40)\n    tag_39:\n        /* \"--CODEGEN--\":68:448   */\n      pop\n      pop\n      pop\n      swap3\n      swap2\n      pop\n      pop\n      jump\n        /* \"--CODEGEN--\":456:586   */\n    tag_41:\n      0x00\n        /* \"--CODEGEN--\":536:542   */\n      dup2\n        /* \"--CODEGEN--\":523:543   */\n      calldataload\n        /* \"--CODEGEN--\":514:543   */\n      swap1\n      pop\n        /* \"--CODEGEN--\":548:581   */\n      tag_43\n        /* \"--CODEGEN--\":575:580   */\n      dup2\n        /* \"--CODEGEN--\":548:581   */\n      jump(tag_44)\n    tag_43:\n        /* \"--CODEGEN--\":508:586   */\n      swap3\n      swap2\n      pop\n      pop\n      jump\n        /* \"--CODEGEN--\":593:940   */\n    tag_21:\n      0x00\n        /* \"--CODEGEN--\":707:709   */\n      0x20\n        /* \"--CODEGEN--\":695:704   */\n      dup3\n        /* \"--CODEGEN--\":686:693   */\n      dup5\n        /* \"--CODEGEN--\":682:705   */\n      sub\n        /* \"--CODEGEN--\":678:710   */\n      slt\n        /* \"--CODEGEN--\":675:677   */\n      iszero\n      tag_46\n      jumpi\n        /* \"--CODEGEN--\":723:724   */\n      0x00\n        /* \"--CODEGEN--\":720:721   */\n      dup1\n        /* \"--CODEGEN--\":713:725   */\n      revert\n        /* \"--CODEGEN--\":675:677   */\n    tag_46:\n        /* \"--CODEGEN--\":786:787   */\n      0x00\n        /* \"--CODEGEN--\":775:784   */\n      dup3\n        /* \"--CODEGEN--\":771:788   */\n      add\n        /* \"--CODEGEN--\":758:789   */\n      calldataload\n        /* \"--CODEGEN--\":809:827   */\n      0xffffffffffffffff\n        /* \"--CODEGEN--\":801:807   */\n      dup2\n        /* \"--CODEGEN--\":798:828   */\n      gt\n        /* \"--CODEGEN--\":795:797   */\n      iszero\n      tag_47\n      jumpi\n        /* \"--CODEGEN--\":841:842   */\n      0x00\n        /* \"--CODEGEN--\":838:839   */\n      dup1\n        /* \"--CODEGEN--\":831:843   */\n      revert\n        /* \"--CODEGEN--\":795:797   */\n    tag_47:\n        /* \"--CODEGEN--\":861:924   */\n      tag_48\n        /* \"--CODEGEN--\":916:923   */\n      dup5\n        /* \"--CODEGEN--\":907:913   */\n      dup3\n        /* \"--CODEGEN--\":896:905   */\n      dup6\n        /* \"--CODEGEN--\":892:914   */\n      add\n        /* \"--CODEGEN--\":861:924   */\n      jump(tag_31)\n    tag_48:\n        /* \"--CODEGEN--\":851:924   */\n      swap2\n      pop\n        /* \"--CODEGEN--\":737:930   */\n      pop\n        /* \"--CODEGEN--\":669:940   */\n      swap3\n      swap2\n      pop\n      pop\n      jump\n        /* \"--CODEGEN--\":947:1188   */\n    tag_15:\n      0x00\n        /* \"--CODEGEN--\":1051:1053   */\n      0x20\n        /* \"--CODEGEN--\":1039:1048   */\n      dup3\n        /* \"--CODEGEN--\":1030:1037   */\n      dup5\n        /* \"--CODEGEN--\":1026:1049   */\n      sub\n        /* \"--CODEGEN--\":1022:1054   */\n      slt\n        /* \"--CODEGEN--\":1019:1021   */\n      iszero\n      tag_50\n      jumpi\n        /* \"--CODEGEN--\":1067:1068   */\n      0x00\n        /* \"--CODEGEN--\":1064:1065   */\n      dup1\n        /* \"--CODEGEN--\":1057:1069   */\n      revert\n        /* \"--CODEGEN--\":1019:1021   */\n    tag_50:\n        /* \"--CODEGEN--\":1102:1103   */\n      0x00\n        /* \"--CODEGEN--\":1119:1172   */\n      tag_51\n        /* \"--CODEGEN--\":1164:1171   */\n      dup5\n        /* \"--CODEGEN--\":1155:1161   */\n      dup3\n        /* \"--CODEGEN--\":1144:1153   */\n      dup6\n        /* \"--CODEGEN--\":1140:1162   */\n      add\n        /* \"--CODEGEN--\":1119:1172   */\n      jump(tag_41)\n    tag_51:\n        /* \"--CODEGEN--\":1109:1172   */\n      swap2\n      pop\n        /* \"--CODEGEN--\":1081:1178   */\n      pop\n        /* \"--CODEGEN--\":1013:1188   */\n      swap3\n      swap2\n      pop\n      pop\n      jump\n        /* \"--CODEGEN--\":1195:1308   */\n    tag_52:\n        /* \"--CODEGEN--\":1278:1302   */\n      tag_54\n        /* \"--CODEGEN--\":1296:1301   */\n      dup2\n        /* \"--CODEGEN--\":1278:1302   */\n      jump(tag_55)\n    tag_54:\n        /* \"--CODEGEN--\":1273:1276   */\n      dup3\n        /* \"--CODEGEN--\":1266:1303   */\n      mstore\n        /* \"--CODEGEN--\":1260:1308   */\n      pop\n      pop\n      jump\n        /* \"--CODEGEN--\":1315:1428   */\n    tag_56:\n        /* \"--CODEGEN--\":1398:1422   */\n      tag_58\n        /* \"--CODEGEN--\":1416:1421   */\n      dup2\n        /* \"--CODEGEN--\":1398:1422   */\n      jump(tag_59)\n    tag_58:\n        /* \"--CODEGEN--\":1393:1396   */\n      dup3\n        /* \"--CODEGEN--\":1386:1423   */\n      mstore\n        /* \"--CODEGEN--\":1380:1428   */\n      pop\n      pop\n      jump\n        /* \"--CODEGEN--\":1435:1795   */\n    tag_60:\n      0x00\n        /* \"--CODEGEN--\":1565:1604   */\n      tag_62\n        /* \"--CODEGEN--\":1598:1603   */\n      dup3\n        /* \"--CODEGEN--\":1565:1604   */\n      jump(tag_63)\n    tag_62:\n        /* \"--CODEGEN--\":1616:1705   */\n      tag_64\n        /* \"--CODEGEN--\":1698:1704   */\n      dup2\n        /* \"--CODEGEN--\":1693:1696   */\n      dup6\n        /* \"--CODEGEN--\":1616:1705   */\n      jump(tag_65)\n    tag_64:\n        /* \"--CODEGEN--\":1609:1705   */\n      swap4\n      pop\n        /* \"--CODEGEN--\":1710:1762   */\n      tag_66\n        /* \"--CODEGEN--\":1755:1761   */\n      dup2\n        /* \"--CODEGEN--\":1750:1753   */\n      dup6\n        /* \"--CODEGEN--\":1743:1747   */\n      0x20\n        /* \"--CODEGEN--\":1736:1741   */\n      dup7\n        /* \"--CODEGEN--\":1732:1748   */\n      add\n        /* \"--CODEGEN--\":1710:1762   */\n      jump(tag_67)\n    tag_66:\n        /* \"--CODEGEN--\":1783:1789   */\n      dup1\n        /* \"--CODEGEN--\":1778:1781   */\n      dup5\n        /* \"--CODEGEN--\":1774:1790   */\n      add\n        /* \"--CODEGEN--\":1767:1790   */\n      swap2\n      pop\n        /* \"--CODEGEN--\":1545:1795   */\n      pop\n      swap3\n      swap2\n      pop\n      pop\n      jump\n        /* \"--CODEGEN--\":1802:2068   */\n    tag_29:\n      0x00\n        /* \"--CODEGEN--\":1948:2043   */\n      tag_69\n        /* \"--CODEGEN--\":2039:2042   */\n      dup3\n        /* \"--CODEGEN--\":2030:2036   */\n      dup5\n        /* \"--CODEGEN--\":1948:2043   */\n      jump(tag_60)\n    tag_69:\n        /* \"--CODEGEN--\":1941:2043   */\n      swap2\n      pop\n        /* \"--CODEGEN--\":2060:2063   */\n      dup2\n        /* \"--CODEGEN--\":2053:2063   */\n      swap1\n      pop\n        /* \"--CODEGEN--\":1929:2068   */\n      swap3\n      swap2\n      pop\n      pop\n      jump\n        /* \"--CODEGEN--\":2075:2288   */\n    tag_18:\n      0x00\n        /* \"--CODEGEN--\":2193:2195   */\n      0x20\n        /* \"--CODEGEN--\":2182:2191   */\n      dup3\n        /* \"--CODEGEN--\":2178:2196   */\n      add\n        /* \"--CODEGEN--\":2170:2196   */\n      swap1\n      pop\n        /* \"--CODEGEN--\":2207:2278   */\n      tag_71\n        /* \"--CODEGEN--\":2275:2276   */\n      0x00\n        /* \"--CODEGEN--\":2264:2273   */\n      dup4\n        /* \"--CODEGEN--\":2260:2277   */\n      add\n        /* \"--CODEGEN--\":2251:2257   */\n      dup5\n        /* \"--CODEGEN--\":2207:2278   */\n      jump(tag_52)\n    tag_71:\n        /* \"--CODEGEN--\":2164:2288   */\n      swap3\n      swap2\n      pop\n      pop\n      jump\n        /* \"--CODEGEN--\":2295:2508   */\n    tag_10:\n      0x00\n        /* \"--CODEGEN--\":2413:2415   */\n      0x20\n        /* \"--CODEGEN--\":2402:2411   */\n      dup3\n        /* \"--CODEGEN--\":2398:2416   */\n      add\n        /* \"--CODEGEN--\":2390:2416   */\n      swap1\n      pop\n        /* \"--CODEGEN--\":2427:2498   */\n      tag_73\n        /* \"--CODEGEN--\":2495:2496   */\n      0x00\n        /* \"--CODEGEN--\":2484:2493   */\n      dup4\n        /* \"--CODEGEN--\":2480:2497   */\n      add\n        /* \"--CODEGEN--\":2471:2477   */\n      dup5\n        /* \"--CODEGEN--\":2427:2498   */\n      jump(tag_56)\n    tag_73:\n        /* \"--CODEGEN--\":2384:2508   */\n      swap3\n      swap2\n      pop\n      pop\n      jump\n        /* \"--CODEGEN--\":2515:2771   */\n    tag_37:\n      0x00\n        /* \"--CODEGEN--\":2577:2579   */\n      0x40\n        /* \"--CODEGEN--\":2571:2580   */\n      mload\n        /* \"--CODEGEN--\":2561:2580   */\n      swap1\n      pop\n        /* \"--CODEGEN--\":2615:2619   */\n      dup2\n        /* \"--CODEGEN--\":2607:2613   */\n      dup2\n        /* \"--CODEGEN--\":2603:2620   */\n      add\n        /* \"--CODEGEN--\":2714:2720   */\n      dup2\n        /* \"--CODEGEN--\":2702:2712   */\n      dup2\n        /* \"--CODEGEN--\":2699:2721   */\n      lt\n        /* \"--CODEGEN--\":2678:2696   */\n      0xffffffffffffffff\n        /* \"--CODEGEN--\":2666:2676   */\n      dup3\n        /* \"--CODEGEN--\":2663:2697   */\n      gt\n        /* \"--CODEGEN--\":2660:2722   */\n      or\n        /* \"--CODEGEN--\":2657:2659   */\n      iszero\n      tag_75\n      jumpi\n        /* \"--CODEGEN--\":2735:2736   */\n      0x00\n        /* \"--CODEGEN--\":2732:2733   */\n      dup1\n        /* \"--CODEGEN--\":2725:2737   */\n      revert\n        /* \"--CODEGEN--\":2657:2659   */\n    tag_75:\n        /* \"--CODEGEN--\":2755:2765   */\n      dup1\n        /* \"--CODEGEN--\":2751:2753   */\n      0x40\n        /* \"--CODEGEN--\":2744:2766   */\n      mstore\n        /* \"--CODEGEN--\":2555:2771   */\n      pop\n      swap2\n      swap1\n      pop\n      jump\n        /* \"--CODEGEN--\":2778:3100   */\n    tag_36:\n      0x00\n        /* \"--CODEGEN--\":2922:2940   */\n      0xffffffffffffffff\n        /* \"--CODEGEN--\":2914:2920   */\n      dup3\n        /* \"--CODEGEN--\":2911:2941   */\n      gt\n        /* \"--CODEGEN--\":2908:2910   */\n      iszero\n      tag_77\n      jumpi\n        /* \"--CODEGEN--\":2954:2955   */\n      0x00\n        /* \"--CODEGEN--\":2951:2952   */\n      dup1\n        /* \"--CODEGEN--\":2944:2956   */\n      revert\n        /* \"--CODEGEN--\":2908:2910   */\n    tag_77:\n        /* \"--CODEGEN--\":3021:3025   */\n      0x1f\n        /* \"--CODEGEN--\":3017:3026   */\n      not\n        /* \"--CODEGEN--\":3010:3014   */\n      0x1f\n        /* \"--CODEGEN--\":3002:3008   */\n      dup4\n        /* \"--CODEGEN--\":2998:3015   */\n      add\n        /* \"--CODEGEN--\":2994:3027   */\n      and\n        /* \"--CODEGEN--\":2986:3027   */\n      swap1\n      pop\n        /* \"--CODEGEN--\":3085:3089   */\n      0x20\n        /* \"--CODEGEN--\":3079:3083   */\n      dup2\n        /* \"--CODEGEN--\":3075:3090   */\n      add\n        /* \"--CODEGEN--\":3067:3090   */\n      swap1\n      pop\n        /* \"--CODEGEN--\":2845:3100   */\n      swap2\n      swap1\n      pop\n      jump\n        /* \"--CODEGEN--\":3107:3229   */\n    tag_63:\n      0x00\n        /* \"--CODEGEN--\":3201:3206   */\n      dup2\n        /* \"--CODEGEN--\":3195:3207   */\n      mload\n        /* \"--CODEGEN--\":3185:3207   */\n      swap1\n      pop\n        /* \"--CODEGEN--\":3166:3229   */\n      swap2\n      swap1\n      pop\n      jump\n        /* \"--CODEGEN--\":3237:3382   */\n    tag_65:\n      0x00\n        /* \"--CODEGEN--\":3373:3376   */\n      dup2\n        /* \"--CODEGEN--\":3358:3376   */\n      swap1\n      pop\n        /* \"--CODEGEN--\":3351:3382   */\n      swap3\n      swap2\n      pop\n      pop\n      jump\n        /* \"--CODEGEN--\":3390:3481   */\n    tag_55:\n      0x00\n        /* \"--CODEGEN--\":3452:3476   */\n      tag_81\n        /* \"--CODEGEN--\":3470:3475   */\n      dup3\n        /* \"--CODEGEN--\":3452:3476   */\n      jump(tag_82)\n    tag_81:\n        /* \"--CODEGEN--\":3441:3476   */\n      swap1\n      pop\n        /* \"--CODEGEN--\":3435:3481   */\n      swap2\n      swap1\n      pop\n      jump\n        /* \"--CODEGEN--\":3488:3560   */\n    tag_59:\n      0x00\n        /* \"--CODEGEN--\":3550:3555   */\n      dup2\n        /* \"--CODEGEN--\":3539:3555   */\n      swap1\n      pop\n        /* \"--CODEGEN--\":3533:3560   */\n      swap2\n      swap1\n      pop\n      jump\n        /* \"--CODEGEN--\":3567:3688   */\n    tag_82:\n      0x00\n        /* \"--CODEGEN--\":3640:3682   */\n      0xffffffffffffffffffffffffffffffffffffffff\n        /* \"--CODEGEN--\":3633:3638   */\n      dup3\n        /* \"--CODEGEN--\":3629:3683   */\n      and\n        /* \"--CODEGEN--\":3618:3683   */\n      swap1\n      pop\n        /* \"--CODEGEN--\":3612:3688   */\n      swap2\n      swap1\n      pop\n      jump\n        /* \"--CODEGEN--\":3695:3767   */\n    tag_85:\n      0x00\n        /* \"--CODEGEN--\":3757:3762   */\n      dup2\n        /* \"--CODEGEN--\":3746:3762   */\n      swap1\n      pop\n        /* \"--CODEGEN--\":3740:3767   */\n      swap2\n      swap1\n      pop\n      jump\n        /* \"--CODEGEN--\":3775:3920   */\n    tag_40:\n        /* \"--CODEGEN--\":3856:3862   */\n      dup3\n        /* \"--CODEGEN--\":3851:3854   */\n      dup2\n        /* \"--CODEGEN--\":3846:3849   */\n      dup4\n        /* \"--CODEGEN--\":3833:3863   */\n      calldatacopy\n        /* \"--CODEGEN--\":3912:3913   */\n      0x00\n        /* \"--CODEGEN--\":3903:3909   */\n      dup4\n        /* \"--CODEGEN--\":3898:3901   */\n      dup4\n        /* \"--CODEGEN--\":3894:3910   */\n      add\n        /* \"--CODEGEN--\":3887:3914   */\n      mstore\n        /* \"--CODEGEN--\":3826:3920   */\n      pop\n      pop\n      pop\n      jump\n        /* \"--CODEGEN--\":3929:4197   */\n    tag_67:\n        /* \"--CODEGEN--\":3994:3995   */\n      0x00\n        /* \"--CODEGEN--\":4001:4102   */\n    tag_89:\n        /* \"--CODEGEN--\":4015:4021   */\n      dup4\n        /* \"--CODEGEN--\":4012:4013   */\n      dup2\n        /* \"--CODEGEN--\":4009:4022   */\n      lt\n        /* \"--CODEGEN--\":4001:4102   */\n      iszero\n      tag_91\n      jumpi\n        /* \"--CODEGEN--\":4091:4092   */\n      dup1\n        /* \"--CODEGEN--\":4086:4089   */\n      dup3\n        /* \"--CODEGEN--\":4082:4093   */\n      add\n        /* \"--CODEGEN--\":4076:4094   */\n      mload\n        /* \"--CODEGEN--\":4072:4073   */\n      dup2\n        /* \"--CODEGEN--\":4067:4070   */\n      dup5\n        /* \"--CODEGEN--\":4063:4074   */\n      add\n        /* \"--CODEGEN--\":4056:4095   */\n      mstore\n        /* \"--CODEGEN--\":4037:4039   */\n      0x20\n        /* \"--CODEGEN--\":4034:4035   */\n      dup2\n        /* \"--CODEGEN--\":4030:4040   */\n      add\n        /* \"--CODEGEN--\":4025:4040   */\n      swap1\n      pop\n        /* \"--CODEGEN--\":4001:4102   */\n      jump(tag_89)\n    tag_91:\n        /* \"--CODEGEN--\":4117:4123   */\n      dup4\n        /* \"--CODEGEN--\":4114:4115   */\n      dup2\n        /* \"--CODEGEN--\":4111:4124   */\n      gt\n        /* \"--CODEGEN--\":4108:4110   */\n      iszero\n      tag_92\n      jumpi\n        /* \"--CODEGEN--\":4182:4183   */\n      0x00\n        /* \"--CODEGEN--\":4173:4179   */\n      dup5\n        /* \"--CODEGEN--\":4168:4171   */\n      dup5\n        /* \"--CODEGEN--\":4164:4180   */\n      add\n        /* \"--CODEGEN--\":4157:4184   */\n      mstore\n        /* \"--CODEGEN--\":4108:4110   */\n    tag_92:\n        /* \"--CODEGEN--\":3978:4197   */\n      pop\n      pop\n      pop\n      pop\n      jump\n        /* \"--CODEGEN--\":4205:4322   */\n    tag_44:\n        /* \"--CODEGEN--\":4274:4298   */\n      tag_94\n        /* \"--CODEGEN--\":4292:4297   */\n      dup2\n        /* \"--CODEGEN--\":4274:4298   */\n      jump(tag_85)\n    tag_94:\n        /* \"--CODEGEN--\":4267:4272   */\n      dup2\n        /* \"--CODEGEN--\":4264:4299   */\n      eq\n        /* \"--CODEGEN--\":4254:4256   */\n      tag_95\n      jumpi\n        /* \"--CODEGEN--\":4313:4314   */\n      0x00\n        /* \"--CODEGEN--\":4310:4311   */\n      dup1\n        /* \"--CODEGEN--\":4303:4315   */\n      revert\n        /* \"--CODEGEN--\":4254:4256   */\n    tag_95:\n        /* \"--CODEGEN--\":4248:4322   */\n      pop\n      jump\n\n    auxdata: 0xa2646970667358221220eb39dc82fd832af4731d24bdd75b93865de3508975c1d945fa85d3f0096bd1aa64736f6c63430006050033\n}\n",
				"bytecode": {
					"linkReferences": {},
					"object": "608060405234801561001057600080fd5b5061044f806100206000396000f3fe608060405234801561001057600080fd5b506004361061004c5760003560e01c806309bd5a601461005157806342d733141461006f578063547cbcad14610079578063a7469ee3146100a9575b600080fd5b6100596100c5565b60405161006691906102f0565b60405180910390f35b6100776100cb565b005b610093600480360381019061008e9190610246565b610130565b6040516100a091906102d5565b60405180910390f35b6100c360048036038101906100be9190610205565b61016c565b005b60015481565b6000339080600181540180825580915050600190039060005260206000200160009091909190916101000a81548173ffffffffffffffffffffffffffffffffffffffff021916908373ffffffffffffffffffffffffffffffffffffffff160217905550565b6000818154811061013d57fe5b906000526020600020016000915054906101000a900473ffffffffffffffffffffffffffffffffffffffff1681565b8060405160200161017d91906102be565b6040516020818303038152906040528051906020012060018190555050565b600082601f8301126101ad57600080fd5b81356101c06101bb82610338565b61030b565b915080825260208301602083018583830111156101dc57600080fd5b6101e78382846103c0565b50505092915050565b6000813590506101ff81610402565b92915050565b60006020828403121561021757600080fd5b600082013567ffffffffffffffff81111561023157600080fd5b61023d8482850161019c565b91505092915050565b60006020828403121561025857600080fd5b6000610266848285016101f0565b91505092915050565b6102788161037a565b82525050565b6102878161038c565b82525050565b600061029882610364565b6102a2818561036f565b93506102b28185602086016103cf565b80840191505092915050565b60006102ca828461028d565b915081905092915050565b60006020820190506102ea600083018461026f565b92915050565b6000602082019050610305600083018461027e565b92915050565b6000604051905081810181811067ffffffffffffffff8211171561032e57600080fd5b8060405250919050565b600067ffffffffffffffff82111561034f57600080fd5b601f19601f8301169050602081019050919050565b600081519050919050565b600081905092915050565b600061038582610396565b9050919050565b6000819050919050565b600073ffffffffffffffffffffffffffffffffffffffff82169050919050565b6000819050919050565b82818337600083830152505050565b60005b838110156103ed5780820151818401526020810190506103d2565b838111156103fc576000848401525b50505050565b61040b816103b6565b811461041657600080fd5b5056fea2646970667358221220eb39dc82fd832af4731d24bdd75b93865de3508975c1d945fa85d3f0096bd1aa64736f6c63430006050033",
					"opcodes": "PUSH1 0x80 PUSH1 0x40 MSTORE CALLVALUE DUP1 ISZERO PUSH2 0x10 JUMPI PUSH1 0x0 DUP1 REVERT JUMPDEST POP PUSH2 0x44F DUP1 PUSH2 0x20 PUSH1 0x0 CODECOPY PUSH1 0x0 RETURN INVALID PUSH1 0x80 PUSH1 0x40 MSTORE CALLVALUE DUP1 ISZERO PUSH2 0x10 JUMPI PUSH1 0x0 DUP1 REVERT JUMPDEST POP PUSH1 0x4 CALLDATASIZE LT PUSH2 0x4C JUMPI PUSH1 0x0 CALLDATALOAD PUSH1 0xE0 SHR DUP1 PUSH4 0x9BD5A60 EQ PUSH2 0x51 JUMPI DUP1 PUSH4 0x42D73314 EQ PUSH2 0x6F JUMPI DUP1 PUSH4 0x547CBCAD EQ PUSH2 0x79 JUMPI DUP1 PUSH4 0xA7469EE3 EQ PUSH2 0xA9 JUMPI JUMPDEST PUSH1 0x0 DUP1 REVERT JUMPDEST PUSH2 0x59 PUSH2 0xC5 JUMP JUMPDEST PUSH1 0x40 MLOAD PUSH2 0x66 SWAP2 SWAP1 PUSH2 0x2F0 JUMP JUMPDEST PUSH1 0x40 MLOAD DUP1 SWAP2 SUB SWAP1 RETURN JUMPDEST PUSH2 0x77 PUSH2 0xCB JUMP JUMPDEST STOP JUMPDEST PUSH2 0x93 PUSH1 0x4 DUP1 CALLDATASIZE SUB DUP2 ADD SWAP1 PUSH2 0x8E SWAP2 SWAP1 PUSH2 0x246 JUMP JUMPDEST PUSH2 0x130 JUMP JUMPDEST PUSH1 0x40 MLOAD PUSH2 0xA0 SWAP2 SWAP1 PUSH2 0x2D5 JUMP JUMPDEST PUSH1 0x40 MLOAD DUP1 SWAP2 SUB SWAP1 RETURN JUMPDEST PUSH2 0xC3 PUSH1 0x4 DUP1 CALLDATASIZE SUB DUP2 ADD SWAP1 PUSH2 0xBE SWAP2 SWAP1 PUSH2 0x205 JUMP JUMPDEST PUSH2 0x16C JUMP JUMPDEST STOP JUMPDEST PUSH1 0x1 SLOAD DUP2 JUMP JUMPDEST PUSH1 0x0 CALLER SWAP1 DUP1 PUSH1 0x1 DUP2 SLOAD ADD DUP1 DUP3 SSTORE DUP1 SWAP2 POP POP PUSH1 0x1 SWAP1 SUB SWAP1 PUSH1 0x0 MSTORE PUSH1 0x20 PUSH1 0x0 KECCAK256 ADD PUSH1 0x0 SWAP1 SWAP2 SWAP1 SWAP2 SWAP1 SWAP2 PUSH2 0x100 EXP DUP2 SLOAD DUP2 PUSH20 0xFFFFFFFFFFFFFFFFFFFFFFFFFFFFFFFFFFFFFFFF MUL NOT AND SWAP1 DUP4 PUSH20 0xFFFFFFFFFFFFFFFFFFFFFFFFFFFFFFFFFFFFFFFF AND MUL OR SWAP1 SSTORE POP JUMP JUMPDEST PUSH1 0x0 DUP2 DUP2 SLOAD DUP2 LT PUSH2 0x13D JUMPI INVALID JUMPDEST SWAP1 PUSH1 0x0 MSTORE PUSH1 0x20 PUSH1 0x0 KECCAK256 ADD PUSH1 0x0 SWAP2 POP SLOAD SWAP1 PUSH2 0x100 EXP SWAP1 DIV PUSH20 0xFFFFFFFFFFFFFFFFFFFFFFFFFFFFFFFFFFFFFFFF AND DUP2 JUMP JUMPDEST DUP1 PUSH1 0x40 MLOAD PUSH1 0x20 ADD PUSH2 0x17D SWAP2 SWAP1 PUSH2 0x2BE JUMP JUMPDEST PUSH1 0x40 MLOAD PUSH1 0x20 DUP2 DUP4 SUB SUB DUP2 MSTORE SWAP1 PUSH1 0x40 MSTORE DUP1 MLOAD SWAP1 PUSH1 0x20 ADD KECCAK256 PUSH1 0x1 DUP2 SWAP1 SSTORE POP POP JUMP JUMPDEST PUSH1 0x0 DUP3 PUSH1 0x1F DUP4 ADD SLT PUSH2 0x1AD JUMPI PUSH1 0x0 DUP1 REVERT JUMPDEST DUP2 CALLDATALOAD PUSH2 0x1C0 PUSH2 0x1BB DUP3 PUSH2 0x338 JUMP JUMPDEST PUSH2 0x30B JUMP JUMPDEST SWAP2 POP DUP1 DUP3 MSTORE PUSH1 0x20 DUP4 ADD PUSH1 0x20 DUP4 ADD DUP6 DUP4 DUP4 ADD GT ISZERO PUSH2 0x1DC JUMPI PUSH1 0x0 DUP1 REVERT JUMPDEST PUSH2 0x1E7 DUP4 DUP3 DUP5 PUSH2 0x3C0 JUMP JUMPDEST POP POP POP SWAP3 SWAP2 POP POP JUMP JUMPDEST PUSH1 0x0 DUP2 CALLDATALOAD SWAP1 POP PUSH2 0x1FF DUP2 PUSH2 0x402 JUMP JUMPDEST SWAP3 SWAP2 POP POP JUMP JUMPDEST PUSH1 0x0 PUSH1 0x20 DUP3 DUP5 SUB SLT ISZERO PUSH2 0x217 JUMPI PUSH1 0x0 DUP1 REVERT JUMPDEST PUSH1 0x0 DUP3 ADD CALLDATALOAD PUSH8 0xFFFFFFFFFFFFFFFF DUP2 GT ISZERO PUSH2 0x231 JUMPI PUSH1 0x0 DUP1 REVERT JUMPDEST PUSH2 0x23D DUP5 DUP3 DUP6 ADD PUSH2 0x19C JUMP JUMPDEST SWAP2 POP POP SWAP3 SWAP2 POP POP JUMP JUMPDEST PUSH1 0x0 PUSH1 0x20 DUP3 DUP5 SUB SLT ISZERO PUSH2 0x258 JUMPI PUSH1 0x0 DUP1 REVERT JUMPDEST PUSH1 0x0 PUSH2 0x266 DUP5 DUP3 DUP6 ADD PUSH2 0x1F0 JUMP JUMPDEST SWAP2 POP POP SWAP3 SWAP2 POP POP JUMP JUMPDEST PUSH2 0x278 DUP2 PUSH2 0x37A JUMP JUMPDEST DUP3 MSTORE POP POP JUMP JUMPDEST PUSH2 0x287 DUP2 PUSH2 0x38C JUMP JUMPDEST DUP3 MSTORE POP POP JUMP JUMPDEST PUSH1 0x0 PUSH2 0x298 DUP3 PUSH2 0x364 JUMP JUMPDEST PUSH2 0x2A2 DUP2 DUP6 PUSH2 0x36F JUMP JUMPDEST SWAP4 POP PUSH2 0x2B2 DUP2 DUP6 PUSH1 0x20 DUP7 ADD PUSH2 0x3CF JUMP JUMPDEST DUP1 DUP5 ADD SWAP2 POP POP SWAP3 SWAP2 POP POP JUMP JUMPDEST PUSH1 0x0 PUSH2 0x2CA DUP3 DUP5 PUSH2 0x28D JUMP JUMPDEST SWAP2 POP DUP2 SWAP1 POP SWAP3 SWAP2 POP POP JUMP JUMPDEST PUSH1 0x0 PUSH1 0x20 DUP3 ADD SWAP1 POP PUSH2 0x2EA PUSH1 0x0 DUP4 ADD DUP5 PUSH2 0x26F JUMP JUMPDEST SWAP3 SWAP2 POP POP JUMP JUMPDEST PUSH1 0x0 PUSH1 0x20 DUP3 ADD SWAP1 POP PUSH2 0x305 PUSH1 0x0 DUP4 ADD DUP5 PUSH2 0x27E JUMP JUMPDEST SWAP3 SWAP2 POP POP JUMP JUMPDEST PUSH1 0x0 PUSH1 0x40 MLOAD SWAP1 POP DUP2 DUP2 ADD DUP2 DUP2 LT PUSH8 0xFFFFFFFFFFFFFFFF DUP3 GT OR ISZERO PUSH2 0x32E JUMPI PUSH1 0x0 DUP1 REVERT JUMPDEST DUP1 PUSH1 0x40 MSTORE POP SWAP2 SWAP1 POP JUMP JUMPDEST PUSH1 0x0 PUSH8 0xFFFFFFFFFFFFFFFF DUP3 GT ISZERO PUSH2 0x34F JUMPI PUSH1 0x0 DUP1 REVERT JUMPDEST PUSH1 0x1F NOT PUSH1 0x1F DUP4 ADD AND SWAP1 POP PUSH1 0x20 DUP2 ADD SWAP1 POP SWAP2 SWAP1 POP JUMP JUMPDEST PUSH1 0x0 DUP2 MLOAD SWAP1 POP SWAP2 SWAP1 POP JUMP JUMPDEST PUSH1 0x0 DUP2 SWAP1 POP SWAP3 SWAP2 POP POP JUMP JUMPDEST PUSH1 0x0 PUSH2 0x385 DUP3 PUSH2 0x396 JUMP JUMPDEST SWAP1 POP SWAP2 SWAP1 POP JUMP JUMPDEST PUSH1 0x0 DUP2 SWAP1 POP SWAP2 SWAP1 POP JUMP JUMPDEST PUSH1 0x0 PUSH20 0xFFFFFFFFFFFFFFFFFFFFFFFFFFFFFFFFFFFFFFFF DUP3 AND SWAP1 POP SWAP2 SWAP1 POP JUMP JUMPDEST PUSH1 0x0 DUP2 SWAP1 POP SWAP2 SWAP1 POP JUMP JUMPDEST DUP3 DUP2 DUP4 CALLDATACOPY PUSH1 0x0 DUP4 DUP4 ADD MSTORE POP POP POP JUMP JUMPDEST PUSH1 0x0 JUMPDEST DUP4 DUP2 LT ISZERO PUSH2 0x3ED JUMPI DUP1 DUP3 ADD MLOAD DUP2 DUP5 ADD MSTORE PUSH1 0x20 DUP2 ADD SWAP1 POP PUSH2 0x3D2 JUMP JUMPDEST DUP4 DUP2 GT ISZERO PUSH2 0x3FC JUMPI PUSH1 0x0 DUP5 DUP5 ADD MSTORE JUMPDEST POP POP POP POP JUMP JUMPDEST PUSH2 0x40B DUP2 PUSH2 0x3B6 JUMP JUMPDEST DUP2 EQ PUSH2 0x416 JUMPI PUSH1 0x0 DUP1 REVERT JUMPDEST POP JUMP INVALID LOG2 PUSH5 0x6970667358 0x22 SLT KECCAK256 0xEB CODECOPY 0xDC DUP3 REVERT DUP4 0x2A DELEGATECALL PUSH20 0x1D24BDD75B93865DE3508975C1D945FA85D3F009 PUSH12 0xD1AA64736F6C634300060500 CALLER "
				},
				"gasEstimates": {
					"creation": {
						"codeDepositCost": "220600",
						"executionCost": "263",
						"totalCost": "220863"
					},
					"external": {
						"calularHash(string)": "infinite",
						"direcciones(uint256)": "2378",
						"hash()": "1107",
						"nuevaDireccion()": "41922"
					}
				},
				"methodIdentifiers": {
					"calularHash(string)": "a7469ee3",
					"direcciones(uint256)": "547cbcad",
					"hash()": "09bd5a60",
					"nuevaDireccion()": "42d73314"
				}
			},
			"storageLayout": {
				"storage": [
					{
						"astId": 5,
						"contract": "Funciones/funciones.sol:Funciones",
						"label": "direcciones",
						"offset": 0,
						"slot": "0",
						"type": "t_array(t_address)dyn_storage"
					},
					{
						"astId": 18,
						"contract": "Funciones/funciones.sol:Funciones",
						"label": "hash",
						"offset": 0,
						"slot": "1",
						"type": "t_bytes32"
					}
				],
				"types": {
					"t_address": {
						"encoding": "inplace",
						"label": "address",
						"numberOfBytes": "20"
					},
					"t_array(t_address)dyn_storage": {
						"base": "t_address",
						"encoding": "dynamic_array",
						"label": "address[]",
						"numberOfBytes": "32"
					},
					"t_bytes32": {
						"encoding": "inplace",
						"label": "bytes32",
						"numberOfBytes": "32"
					}
				}
			},
			"userdoc": {
				"methods": {}
			}
		}
	}
}