{
	"Funciones/eventos.sol": {
		"Eventos": {
			"abi": [
				{
					"anonymous": false,
					"inputs": [],
					"name": "abortarMisionEvento",
					"type": "event"
				},
				{
					"anonymous": false,
					"inputs": [
						{
							"indexed": false,
							"internalType": "string",
							"name": "_nombrePersona",
							"type": "string"
						}
					],
					"name": "nombre_evento1",
					"type": "event"
				},
				{
					"anonymous": false,
					"inputs": [
						{
							"indexed": false,
							"internalType": "string",
							"name": "_nombrePersona",
							"type": "string"
						},
						{
							"indexed": false,
							"internalType": "uint256",
							"name": "_edadPersona",
							"type": "uint256"
						}
					],
					"name": "nombre_evento2",
					"type": "event"
				},
				{
					"anonymous": false,
					"inputs": [
						{
							"indexed": false,
							"internalType": "string",
							"name": "",
							"type": "string"
						},
						{
							"indexed": false,
							"internalType": "uint256",
							"name": "",
							"type": "uint256"
						},
						{
							"indexed": false,
							"internalType": "address",
							"name": "",
							"type": "address"
						},
						{
							"indexed": false,
							"internalType": "bytes32",
							"name": "",
							"type": "bytes32"
						}
					],
					"name": "nombre_evento3",
					"type": "event"
				},
				{
					"inputs": [],
					"name": "abortarMision",
					"outputs": [],
					"stateMutability": "nonpayable",
					"type": "function"
				},
				{
					"inputs": [
						{
							"internalType": "string",
							"name": "_nombrePersona",
							"type": "string"
						}
					],
					"name": "emitirEvento1",
					"outputs": [],
					"stateMutability": "nonpayable",
					"type": "function"
				},
				{
					"inputs": [
						{
							"internalType": "string",
							"name": "_nombrePersona",
							"type": "string"
						},
						{
							"internalType": "uint256",
							"name": "_edadPersona",
							"type": "uint256"
						}
					],
					"name": "emitirEvento2",
					"outputs": [],
					"stateMutability": "nonpayable",
					"type": "function"
				},
				{
					"inputs": [
						{
							"internalType": "string",
							"name": "_nombrePersona",
							"type": "string"
						},
						{
							"internalType": "uint256",
							"name": "_edadPersona",
							"type": "uint256"
						}
					],
					"name": "emitirEvento3",
					"outputs": [],
					"stateMutability": "nonpayable",
					"type": "function"
				}
			],
			"devdoc": {
				"kind": "dev",
				"methods": {},
				"version": 1
			},
			"evm": {
				"assembly": "    /* \"Funciones/eventos.sol\":105:1022  contract Eventos{... */\n  mstore(0x40, 0x80)\n  callvalue\n  dup1\n  iszero\n  tag_1\n  jumpi\n  0x00\n  dup1\n  revert\ntag_1:\n  pop\n  dataSize(sub_0)\n  dup1\n  dataOffset(sub_0)\n  0x00\n  codecopy\n  0x00\n  return\nstop\n\nsub_0: assembly {\n        /* \"Funciones/eventos.sol\":105:1022  contract Eventos{... */\n      mstore(0x40, 0x80)\n      callvalue\n      dup1\n      iszero\n      tag_1\n      jumpi\n      0x00\n      dup1\n      revert\n    tag_1:\n      pop\n      jumpi(tag_2, lt(calldatasize, 0x04))\n      shr(0xe0, calldataload(0x00))\n      dup1\n      0x6480f5c2\n      eq\n      tag_3\n      jumpi\n      dup1\n      0x7cf1103d\n      eq\n      tag_4\n      jumpi\n      dup1\n      0x7f4f0f35\n      eq\n      tag_5\n      jumpi\n      dup1\n      0x82ba81da\n      eq\n      tag_6\n      jumpi\n    tag_2:\n      0x00\n      dup1\n      revert\n        /* \"Funciones/eventos.sol\":676:936  function emitirEvento3(string memory _nombrePersona, uint _edadPersona) public {... */\n    tag_3:\n      tag_7\n      0x04\n      dup1\n      calldatasize\n      sub\n      dup2\n      add\n      swap1\n      tag_8\n      swap2\n      swap1\n      tag_9\n      jump\t// in\n    tag_8:\n      tag_10\n      jump\t// in\n    tag_7:\n      stop\n        /* \"Funciones/eventos.sol\":399:513  function emitirEvento1(string memory _nombrePersona) public {... */\n    tag_4:\n      tag_11\n      0x04\n      dup1\n      calldatasize\n      sub\n      dup2\n      add\n      swap1\n      tag_12\n      swap2\n      swap1\n      tag_13\n      jump\t// in\n    tag_12:\n      tag_14\n      jump\t// in\n    tag_11:\n      stop\n        /* \"Funciones/eventos.sol\":521:668  function emitirEvento2(string memory _nombrePersona, uint _edadPersona) public {... */\n    tag_5:\n      tag_15\n      0x04\n      dup1\n      calldatasize\n      sub\n      dup2\n      add\n      swap1\n      tag_16\n      swap2\n      swap1\n      tag_9\n      jump\t// in\n    tag_16:\n      tag_17\n      jump\t// in\n    tag_15:\n      stop\n        /* \"Funciones/eventos.sol\":944:1019  function abortarMision()public{... */\n    tag_6:\n      tag_18\n      tag_19\n      jump\t// in\n    tag_18:\n      stop\n        /* \"Funciones/eventos.sol\":676:936  function emitirEvento3(string memory _nombrePersona, uint _edadPersona) public {... */\n    tag_10:\n        /* \"Funciones/eventos.sol\":766:778  bytes32 hash */\n      0x00\n        /* \"Funciones/eventos.sol\":808:822  _nombrePersona */\n      dup3\n        /* \"Funciones/eventos.sol\":824:836  _edadPersona */\n      dup3\n        /* \"Funciones/eventos.sol\":838:848  msg.sender */\n      caller\n        /* \"Funciones/eventos.sol\":791:849  abi.encodePacked(_nombrePersona, _edadPersona, msg.sender) */\n      add(0x20, mload(0x40))\n      tag_21\n      swap4\n      swap3\n      swap2\n      swap1\n      tag_22\n      jump\t// in\n    tag_21:\n      mload(0x40)\n      0x20\n      dup2\n      dup4\n      sub\n      sub\n      dup2\n      mstore\n      swap1\n      0x40\n      mstore\n        /* \"Funciones/eventos.sol\":781:850  keccak256(abi.encodePacked(_nombrePersona, _edadPersona, msg.sender)) */\n      dup1\n      mload\n      swap1\n      0x20\n      add\n      keccak256\n        /* \"Funciones/eventos.sol\":766:850  bytes32 hash = keccak256(abi.encodePacked(_nombrePersona, _edadPersona, msg.sender)) */\n      swap1\n      pop\n        /* \"Funciones/eventos.sol\":866:928  nombre_evento3(_nombrePersona, _edadPersona, msg.sender, hash) */\n      0xd0ff1ee28f2dbf23f694467b91653073187a19cba2610b37edd759ee2e31a871\n        /* \"Funciones/eventos.sol\":881:895  _nombrePersona */\n      dup4\n        /* \"Funciones/eventos.sol\":897:909  _edadPersona */\n      dup4\n        /* \"Funciones/eventos.sol\":911:921  msg.sender */\n      caller\n        /* \"Funciones/eventos.sol\":923:927  hash */\n      dup5\n        /* \"Funciones/eventos.sol\":866:928  nombre_evento3(_nombrePersona, _edadPersona, msg.sender, hash) */\n      mload(0x40)\n      tag_23\n      swap5\n      swap4\n      swap3\n      swap2\n      swap1\n      tag_24\n      jump\t// in\n    tag_23:\n      mload(0x40)\n      dup1\n      swap2\n      sub\n      swap1\n      log1\n        /* \"Funciones/eventos.sol\":755:936  {... */\n      pop\n        /* \"Funciones/eventos.sol\":676:936  function emitirEvento3(string memory _nombrePersona, uint _edadPersona) public {... */\n      pop\n      pop\n      jump\t// out\n        /* \"Funciones/eventos.sol\":399:513  function emitirEvento1(string memory _nombrePersona) public {... */\n    tag_14:\n        /* \"Funciones/eventos.sol\":475:505  nombre_evento1(_nombrePersona) */\n      0x5007d59453ebcd951519cabd56f016d29fe2390892307189bde962ced3d34094\n        /* \"Funciones/eventos.sol\":490:504  _nombrePersona */\n      dup2\n        /* \"Funciones/eventos.sol\":475:505  nombre_evento1(_nombrePersona) */\n      mload(0x40)\n      tag_26\n      swap2\n      swap1\n      tag_27\n      jump\t// in\n    tag_26:\n      mload(0x40)\n      dup1\n      swap2\n      sub\n      swap1\n      log1\n        /* \"Funciones/eventos.sol\":399:513  function emitirEvento1(string memory _nombrePersona) public {... */\n      pop\n      jump\t// out\n        /* \"Funciones/eventos.sol\":521:668  function emitirEvento2(string memory _nombrePersona, uint _edadPersona) public {... */\n    tag_17:\n        /* \"Funciones/eventos.sol\":616:660  nombre_evento2(_nombrePersona, _edadPersona) */\n      0x7556e8345a443b754c690a14b2cd91df7aec27fbd662a660dd25d647f4732ed1\n        /* \"Funciones/eventos.sol\":631:645  _nombrePersona */\n      dup3\n        /* \"Funciones/eventos.sol\":647:659  _edadPersona */\n      dup3\n        /* \"Funciones/eventos.sol\":616:660  nombre_evento2(_nombrePersona, _edadPersona) */\n      mload(0x40)\n      tag_29\n      swap3\n      swap2\n      swap1\n      tag_30\n      jump\t// in\n    tag_29:\n      mload(0x40)\n      dup1\n      swap2\n      sub\n      swap1\n      log1\n        /* \"Funciones/eventos.sol\":521:668  function emitirEvento2(string memory _nombrePersona, uint _edadPersona) public {... */\n      pop\n      pop\n      jump\t// out\n        /* \"Funciones/eventos.sol\":944:1019  function abortarMision()public{... */\n    tag_19:\n        /* \"Funciones/eventos.sol\":990:1011  abortarMisionEvento() */\n      0xce6ae037f4ff39c7901b9a44b48553cb05d3c4b34e09ad495df80c5cb63e3ec2\n      mload(0x40)\n      mload(0x40)\n      dup1\n      swap2\n      sub\n      swap1\n      log1\n        /* \"Funciones/eventos.sol\":944:1019  function abortarMision()public{... */\n      jump\t// out\n        /* \"#utility.yul\":7:82   */\n    tag_32:\n        /* \"#utility.yul\":40:46   */\n      0x00\n        /* \"#utility.yul\":73:75   */\n      0x40\n        /* \"#utility.yul\":67:76   */\n      mload\n        /* \"#utility.yul\":57:76   */\n      swap1\n      pop\n        /* \"#utility.yul\":7:82   */\n      swap1\n      jump\t// out\n        /* \"#utility.yul\":88:205   */\n    tag_33:\n        /* \"#utility.yul\":197:198   */\n      0x00\n        /* \"#utility.yul\":194:195   */\n      dup1\n        /* \"#utility.yul\":187:199   */\n      revert\n        /* \"#utility.yul\":211:328   */\n    tag_34:\n        /* \"#utility.yul\":320:321   */\n      0x00\n        /* \"#utility.yul\":317:318   */\n      dup1\n        /* \"#utility.yul\":310:322   */\n      revert\n        /* \"#utility.yul\":334:451   */\n    tag_35:\n        /* \"#utility.yul\":443:444   */\n      0x00\n        /* \"#utility.yul\":440:441   */\n      dup1\n        /* \"#utility.yul\":433:445   */\n      revert\n        /* \"#utility.yul\":457:574   */\n    tag_36:\n        /* \"#utility.yul\":566:567   */\n      0x00\n        /* \"#utility.yul\":563:564   */\n      dup1\n        /* \"#utility.yul\":556:568   */\n      revert\n        /* \"#utility.yul\":580:682   */\n    tag_37:\n        /* \"#utility.yul\":621:627   */\n      0x00\n        /* \"#utility.yul\":672:674   */\n      0x1f\n        /* \"#utility.yul\":668:675   */\n      not\n        /* \"#utility.yul\":663:665   */\n      0x1f\n        /* \"#utility.yul\":656:661   */\n      dup4\n        /* \"#utility.yul\":652:666   */\n      add\n        /* \"#utility.yul\":648:676   */\n      and\n        /* \"#utility.yul\":638:676   */\n      swap1\n      pop\n        /* \"#utility.yul\":580:682   */\n      swap2\n      swap1\n      pop\n      jump\t// out\n        /* \"#utility.yul\":688:868   */\n    tag_38:\n        /* \"#utility.yul\":736:813   */\n      0x4e487b7100000000000000000000000000000000000000000000000000000000\n        /* \"#utility.yul\":733:734   */\n      0x00\n        /* \"#utility.yul\":726:814   */\n      mstore\n        /* \"#utility.yul\":833:837   */\n      0x41\n        /* \"#utility.yul\":830:831   */\n      0x04\n        /* \"#utility.yul\":823:838   */\n      mstore\n        /* \"#utility.yul\":857:861   */\n      0x24\n        /* \"#utility.yul\":854:855   */\n      0x00\n        /* \"#utility.yul\":847:862   */\n      revert\n        /* \"#utility.yul\":874:1155   */\n    tag_39:\n        /* \"#utility.yul\":957:984   */\n      tag_75\n        /* \"#utility.yul\":979:983   */\n      dup3\n        /* \"#utility.yul\":957:984   */\n      tag_37\n      jump\t// in\n    tag_75:\n        /* \"#utility.yul\":949:955   */\n      dup2\n        /* \"#utility.yul\":945:985   */\n      add\n        /* \"#utility.yul\":1087:1093   */\n      dup2\n        /* \"#utility.yul\":1075:1085   */\n      dup2\n        /* \"#utility.yul\":1072:1094   */\n      lt\n        /* \"#utility.yul\":1051:1069   */\n      0xffffffffffffffff\n        /* \"#utility.yul\":1039:1049   */\n      dup3\n        /* \"#utility.yul\":1036:1070   */\n      gt\n        /* \"#utility.yul\":1033:1095   */\n      or\n        /* \"#utility.yul\":1030:1118   */\n      iszero\n      tag_76\n      jumpi\n        /* \"#utility.yul\":1098:1116   */\n      tag_77\n      tag_38\n      jump\t// in\n    tag_77:\n        /* \"#utility.yul\":1030:1118   */\n    tag_76:\n        /* \"#utility.yul\":1138:1148   */\n      dup1\n        /* \"#utility.yul\":1134:1136   */\n      0x40\n        /* \"#utility.yul\":1127:1149   */\n      mstore\n        /* \"#utility.yul\":917:1155   */\n      pop\n        /* \"#utility.yul\":874:1155   */\n      pop\n      pop\n      jump\t// out\n        /* \"#utility.yul\":1161:1290   */\n    tag_40:\n        /* \"#utility.yul\":1195:1201   */\n      0x00\n        /* \"#utility.yul\":1222:1242   */\n      tag_79\n      tag_32\n      jump\t// in\n    tag_79:\n        /* \"#utility.yul\":1212:1242   */\n      swap1\n      pop\n        /* \"#utility.yul\":1251:1284   */\n      tag_80\n        /* \"#utility.yul\":1279:1283   */\n      dup3\n        /* \"#utility.yul\":1271:1277   */\n      dup3\n        /* \"#utility.yul\":1251:1284   */\n      tag_39\n      jump\t// in\n    tag_80:\n        /* \"#utility.yul\":1161:1290   */\n      swap2\n      swap1\n      pop\n      jump\t// out\n        /* \"#utility.yul\":1296:1604   */\n    tag_41:\n        /* \"#utility.yul\":1358:1362   */\n      0x00\n        /* \"#utility.yul\":1448:1466   */\n      0xffffffffffffffff\n        /* \"#utility.yul\":1440:1446   */\n      dup3\n        /* \"#utility.yul\":1437:1467   */\n      gt\n        /* \"#utility.yul\":1434:1490   */\n      iszero\n      tag_82\n      jumpi\n        /* \"#utility.yul\":1470:1488   */\n      tag_83\n      tag_38\n      jump\t// in\n    tag_83:\n        /* \"#utility.yul\":1434:1490   */\n    tag_82:\n        /* \"#utility.yul\":1508:1537   */\n      tag_84\n        /* \"#utility.yul\":1530:1536   */\n      dup3\n        /* \"#utility.yul\":1508:1537   */\n      tag_37\n      jump\t// in\n    tag_84:\n        /* \"#utility.yul\":1500:1537   */\n      swap1\n      pop\n        /* \"#utility.yul\":1592:1596   */\n      0x20\n        /* \"#utility.yul\":1586:1590   */\n      dup2\n        /* \"#utility.yul\":1582:1597   */\n      add\n        /* \"#utility.yul\":1574:1597   */\n      swap1\n      pop\n        /* \"#utility.yul\":1296:1604   */\n      swap2\n      swap1\n      pop\n      jump\t// out\n        /* \"#utility.yul\":1610:1764   */\n    tag_42:\n        /* \"#utility.yul\":1694:1700   */\n      dup3\n        /* \"#utility.yul\":1689:1692   */\n      dup2\n        /* \"#utility.yul\":1684:1687   */\n      dup4\n        /* \"#utility.yul\":1671:1701   */\n      calldatacopy\n        /* \"#utility.yul\":1756:1757   */\n      0x00\n        /* \"#utility.yul\":1747:1753   */\n      dup4\n        /* \"#utility.yul\":1742:1745   */\n      dup4\n        /* \"#utility.yul\":1738:1754   */\n      add\n        /* \"#utility.yul\":1731:1758   */\n      mstore\n        /* \"#utility.yul\":1610:1764   */\n      pop\n      pop\n      pop\n      jump\t// out\n        /* \"#utility.yul\":1770:2182   */\n    tag_43:\n        /* \"#utility.yul\":1848:1853   */\n      0x00\n        /* \"#utility.yul\":1873:1939   */\n      tag_87\n        /* \"#utility.yul\":1889:1938   */\n      tag_88\n        /* \"#utility.yul\":1931:1937   */\n      dup5\n        /* \"#utility.yul\":1889:1938   */\n      tag_41\n      jump\t// in\n    tag_88:\n        /* \"#utility.yul\":1873:1939   */\n      tag_40\n      jump\t// in\n    tag_87:\n        /* \"#utility.yul\":1864:1939   */\n      swap1\n      pop\n        /* \"#utility.yul\":1962:1968   */\n      dup3\n        /* \"#utility.yul\":1955:1960   */\n      dup2\n        /* \"#utility.yul\":1948:1969   */\n      mstore\n        /* \"#utility.yul\":2000:2004   */\n      0x20\n        /* \"#utility.yul\":1993:1998   */\n      dup2\n        /* \"#utility.yul\":1989:2005   */\n      add\n        /* \"#utility.yul\":2038:2041   */\n      dup5\n        /* \"#utility.yul\":2029:2035   */\n      dup5\n        /* \"#utility.yul\":2024:2027   */\n      dup5\n        /* \"#utility.yul\":2020:2036   */\n      add\n        /* \"#utility.yul\":2017:2042   */\n      gt\n        /* \"#utility.yul\":2014:2126   */\n      iszero\n      tag_89\n      jumpi\n        /* \"#utility.yul\":2045:2124   */\n      tag_90\n      tag_36\n      jump\t// in\n    tag_90:\n        /* \"#utility.yul\":2014:2126   */\n    tag_89:\n        /* \"#utility.yul\":2135:2176   */\n      tag_91\n        /* \"#utility.yul\":2169:2175   */\n      dup5\n        /* \"#utility.yul\":2164:2167   */\n      dup3\n        /* \"#utility.yul\":2159:2162   */\n      dup6\n        /* \"#utility.yul\":2135:2176   */\n      tag_42\n      jump\t// in\n    tag_91:\n        /* \"#utility.yul\":1854:2182   */\n      pop\n        /* \"#utility.yul\":1770:2182   */\n      swap4\n      swap3\n      pop\n      pop\n      pop\n      jump\t// out\n        /* \"#utility.yul\":2202:2542   */\n    tag_44:\n        /* \"#utility.yul\":2258:2263   */\n      0x00\n        /* \"#utility.yul\":2307:2310   */\n      dup3\n        /* \"#utility.yul\":2300:2304   */\n      0x1f\n        /* \"#utility.yul\":2292:2298   */\n      dup4\n        /* \"#utility.yul\":2288:2305   */\n      add\n        /* \"#utility.yul\":2284:2311   */\n      slt\n        /* \"#utility.yul\":2274:2396   */\n      tag_93\n      jumpi\n        /* \"#utility.yul\":2315:2394   */\n      tag_94\n      tag_35\n      jump\t// in\n    tag_94:\n        /* \"#utility.yul\":2274:2396   */\n    tag_93:\n        /* \"#utility.yul\":2432:2438   */\n      dup2\n        /* \"#utility.yul\":2419:2439   */\n      calldataload\n        /* \"#utility.yul\":2457:2536   */\n      tag_95\n        /* \"#utility.yul\":2532:2535   */\n      dup5\n        /* \"#utility.yul\":2524:2530   */\n      dup3\n        /* \"#utility.yul\":2517:2521   */\n      0x20\n        /* \"#utility.yul\":2509:2515   */\n      dup7\n        /* \"#utility.yul\":2505:2522   */\n      add\n        /* \"#utility.yul\":2457:2536   */\n      tag_43\n      jump\t// in\n    tag_95:\n        /* \"#utility.yul\":2448:2536   */\n      swap2\n      pop\n        /* \"#utility.yul\":2264:2542   */\n      pop\n        /* \"#utility.yul\":2202:2542   */\n      swap3\n      swap2\n      pop\n      pop\n      jump\t// out\n        /* \"#utility.yul\":2548:2625   */\n    tag_45:\n        /* \"#utility.yul\":2585:2592   */\n      0x00\n        /* \"#utility.yul\":2614:2619   */\n      dup2\n        /* \"#utility.yul\":2603:2619   */\n      swap1\n      pop\n        /* \"#utility.yul\":2548:2625   */\n      swap2\n      swap1\n      pop\n      jump\t// out\n        /* \"#utility.yul\":2631:2753   */\n    tag_46:\n        /* \"#utility.yul\":2704:2728   */\n      tag_98\n        /* \"#utility.yul\":2722:2727   */\n      dup2\n        /* \"#utility.yul\":2704:2728   */\n      tag_45\n      jump\t// in\n    tag_98:\n        /* \"#utility.yul\":2697:2702   */\n      dup2\n        /* \"#utility.yul\":2694:2729   */\n      eq\n        /* \"#utility.yul\":2684:2747   */\n      tag_99\n      jumpi\n        /* \"#utility.yul\":2743:2744   */\n      0x00\n        /* \"#utility.yul\":2740:2741   */\n      dup1\n        /* \"#utility.yul\":2733:2745   */\n      revert\n        /* \"#utility.yul\":2684:2747   */\n    tag_99:\n        /* \"#utility.yul\":2631:2753   */\n      pop\n      jump\t// out\n        /* \"#utility.yul\":2759:2898   */\n    tag_47:\n        /* \"#utility.yul\":2805:2810   */\n      0x00\n        /* \"#utility.yul\":2843:2849   */\n      dup2\n        /* \"#utility.yul\":2830:2850   */\n      calldataload\n        /* \"#utility.yul\":2821:2850   */\n      swap1\n      pop\n        /* \"#utility.yul\":2859:2892   */\n      tag_101\n        /* \"#utility.yul\":2886:2891   */\n      dup2\n        /* \"#utility.yul\":2859:2892   */\n      tag_46\n      jump\t// in\n    tag_101:\n        /* \"#utility.yul\":2759:2898   */\n      swap3\n      swap2\n      pop\n      pop\n      jump\t// out\n        /* \"#utility.yul\":2904:3558   */\n    tag_9:\n        /* \"#utility.yul\":2982:2988   */\n      0x00\n        /* \"#utility.yul\":2990:2996   */\n      dup1\n        /* \"#utility.yul\":3039:3041   */\n      0x40\n        /* \"#utility.yul\":3027:3036   */\n      dup4\n        /* \"#utility.yul\":3018:3025   */\n      dup6\n        /* \"#utility.yul\":3014:3037   */\n      sub\n        /* \"#utility.yul\":3010:3042   */\n      slt\n        /* \"#utility.yul\":3007:3126   */\n      iszero\n      tag_103\n      jumpi\n        /* \"#utility.yul\":3045:3124   */\n      tag_104\n      tag_33\n      jump\t// in\n    tag_104:\n        /* \"#utility.yul\":3007:3126   */\n    tag_103:\n        /* \"#utility.yul\":3193:3194   */\n      0x00\n        /* \"#utility.yul\":3182:3191   */\n      dup4\n        /* \"#utility.yul\":3178:3195   */\n      add\n        /* \"#utility.yul\":3165:3196   */\n      calldataload\n        /* \"#utility.yul\":3223:3241   */\n      0xffffffffffffffff\n        /* \"#utility.yul\":3215:3221   */\n      dup2\n        /* \"#utility.yul\":3212:3242   */\n      gt\n        /* \"#utility.yul\":3209:3326   */\n      iszero\n      tag_105\n      jumpi\n        /* \"#utility.yul\":3245:3324   */\n      tag_106\n      tag_34\n      jump\t// in\n    tag_106:\n        /* \"#utility.yul\":3209:3326   */\n    tag_105:\n        /* \"#utility.yul\":3350:3413   */\n      tag_107\n        /* \"#utility.yul\":3405:3412   */\n      dup6\n        /* \"#utility.yul\":3396:3402   */\n      dup3\n        /* \"#utility.yul\":3385:3394   */\n      dup7\n        /* \"#utility.yul\":3381:3403   */\n      add\n        /* \"#utility.yul\":3350:3413   */\n      tag_44\n      jump\t// in\n    tag_107:\n        /* \"#utility.yul\":3340:3413   */\n      swap3\n      pop\n        /* \"#utility.yul\":3136:3423   */\n      pop\n        /* \"#utility.yul\":3462:3464   */\n      0x20\n        /* \"#utility.yul\":3488:3541   */\n      tag_108\n        /* \"#utility.yul\":3533:3540   */\n      dup6\n        /* \"#utility.yul\":3524:3530   */\n      dup3\n        /* \"#utility.yul\":3513:3522   */\n      dup7\n        /* \"#utility.yul\":3509:3531   */\n      add\n        /* \"#utility.yul\":3488:3541   */\n      tag_47\n      jump\t// in\n    tag_108:\n        /* \"#utility.yul\":3478:3541   */\n      swap2\n      pop\n        /* \"#utility.yul\":3433:3551   */\n      pop\n        /* \"#utility.yul\":2904:3558   */\n      swap3\n      pop\n      swap3\n      swap1\n      pop\n      jump\t// out\n        /* \"#utility.yul\":3564:4073   */\n    tag_13:\n        /* \"#utility.yul\":3633:3639   */\n      0x00\n        /* \"#utility.yul\":3682:3684   */\n      0x20\n        /* \"#utility.yul\":3670:3679   */\n      dup3\n        /* \"#utility.yul\":3661:3668   */\n      dup5\n        /* \"#utility.yul\":3657:3680   */\n      sub\n        /* \"#utility.yul\":3653:3685   */\n      slt\n        /* \"#utility.yul\":3650:3769   */\n      iszero\n      tag_110\n      jumpi\n        /* \"#utility.yul\":3688:3767   */\n      tag_111\n      tag_33\n      jump\t// in\n    tag_111:\n        /* \"#utility.yul\":3650:3769   */\n    tag_110:\n        /* \"#utility.yul\":3836:3837   */\n      0x00\n        /* \"#utility.yul\":3825:3834   */\n      dup3\n        /* \"#utility.yul\":3821:3838   */\n      add\n        /* \"#utility.yul\":3808:3839   */\n      calldataload\n        /* \"#utility.yul\":3866:3884   */\n      0xffffffffffffffff\n        /* \"#utility.yul\":3858:3864   */\n      dup2\n        /* \"#utility.yul\":3855:3885   */\n      gt\n        /* \"#utility.yul\":3852:3969   */\n      iszero\n      tag_112\n      jumpi\n        /* \"#utility.yul\":3888:3967   */\n      tag_113\n      tag_34\n      jump\t// in\n    tag_113:\n        /* \"#utility.yul\":3852:3969   */\n    tag_112:\n        /* \"#utility.yul\":3993:4056   */\n      tag_114\n        /* \"#utility.yul\":4048:4055   */\n      dup5\n        /* \"#utility.yul\":4039:4045   */\n      dup3\n        /* \"#utility.yul\":4028:4037   */\n      dup6\n        /* \"#utility.yul\":4024:4046   */\n      add\n        /* \"#utility.yul\":3993:4056   */\n      tag_44\n      jump\t// in\n    tag_114:\n        /* \"#utility.yul\":3983:4056   */\n      swap2\n      pop\n        /* \"#utility.yul\":3779:4066   */\n      pop\n        /* \"#utility.yul\":3564:4073   */\n      swap3\n      swap2\n      pop\n      pop\n      jump\t// out\n        /* \"#utility.yul\":4079:4178   */\n    tag_48:\n        /* \"#utility.yul\":4131:4137   */\n      0x00\n        /* \"#utility.yul\":4165:4170   */\n      dup2\n        /* \"#utility.yul\":4159:4171   */\n      mload\n        /* \"#utility.yul\":4149:4171   */\n      swap1\n      pop\n        /* \"#utility.yul\":4079:4178   */\n      swap2\n      swap1\n      pop\n      jump\t// out\n        /* \"#utility.yul\":4184:4332   */\n    tag_49:\n        /* \"#utility.yul\":4286:4297   */\n      0x00\n        /* \"#utility.yul\":4323:4326   */\n      dup2\n        /* \"#utility.yul\":4308:4326   */\n      swap1\n      pop\n        /* \"#utility.yul\":4184:4332   */\n      swap3\n      swap2\n      pop\n      pop\n      jump\t// out\n        /* \"#utility.yul\":4338:4645   */\n    tag_50:\n        /* \"#utility.yul\":4406:4407   */\n      0x00\n        /* \"#utility.yul\":4416:4529   */\n    tag_118:\n        /* \"#utility.yul\":4430:4436   */\n      dup4\n        /* \"#utility.yul\":4427:4428   */\n      dup2\n        /* \"#utility.yul\":4424:4437   */\n      lt\n        /* \"#utility.yul\":4416:4529   */\n      iszero\n      tag_120\n      jumpi\n        /* \"#utility.yul\":4515:4516   */\n      dup1\n        /* \"#utility.yul\":4510:4513   */\n      dup3\n        /* \"#utility.yul\":4506:4517   */\n      add\n        /* \"#utility.yul\":4500:4518   */\n      mload\n        /* \"#utility.yul\":4496:4497   */\n      dup2\n        /* \"#utility.yul\":4491:4494   */\n      dup5\n        /* \"#utility.yul\":4487:4498   */\n      add\n        /* \"#utility.yul\":4480:4519   */\n      mstore\n        /* \"#utility.yul\":4452:4454   */\n      0x20\n        /* \"#utility.yul\":4449:4450   */\n      dup2\n        /* \"#utility.yul\":4445:4455   */\n      add\n        /* \"#utility.yul\":4440:4455   */\n      swap1\n      pop\n        /* \"#utility.yul\":4416:4529   */\n      jump(tag_118)\n    tag_120:\n        /* \"#utility.yul\":4547:4553   */\n      dup4\n        /* \"#utility.yul\":4544:4545   */\n      dup2\n        /* \"#utility.yul\":4541:4554   */\n      gt\n        /* \"#utility.yul\":4538:4639   */\n      iszero\n      tag_121\n      jumpi\n        /* \"#utility.yul\":4627:4628   */\n      0x00\n        /* \"#utility.yul\":4618:4624   */\n      dup5\n        /* \"#utility.yul\":4613:4616   */\n      dup5\n        /* \"#utility.yul\":4609:4625   */\n      add\n        /* \"#utility.yul\":4602:4629   */\n      mstore\n        /* \"#utility.yul\":4538:4639   */\n    tag_121:\n        /* \"#utility.yul\":4387:4645   */\n      pop\n        /* \"#utility.yul\":4338:4645   */\n      pop\n      pop\n      pop\n      jump\t// out\n        /* \"#utility.yul\":4651:5028   */\n    tag_51:\n        /* \"#utility.yul\":4757:4760   */\n      0x00\n        /* \"#utility.yul\":4785:4824   */\n      tag_123\n        /* \"#utility.yul\":4818:4823   */\n      dup3\n        /* \"#utility.yul\":4785:4824   */\n      tag_48\n      jump\t// in\n    tag_123:\n        /* \"#utility.yul\":4840:4929   */\n      tag_124\n        /* \"#utility.yul\":4922:4928   */\n      dup2\n        /* \"#utility.yul\":4917:4920   */\n      dup6\n        /* \"#utility.yul\":4840:4929   */\n      tag_49\n      jump\t// in\n    tag_124:\n        /* \"#utility.yul\":4833:4929   */\n      swap4\n      pop\n        /* \"#utility.yul\":4938:4990   */\n      tag_125\n        /* \"#utility.yul\":4983:4989   */\n      dup2\n        /* \"#utility.yul\":4978:4981   */\n      dup6\n        /* \"#utility.yul\":4971:4975   */\n      0x20\n        /* \"#utility.yul\":4964:4969   */\n      dup7\n        /* \"#utility.yul\":4960:4976   */\n      add\n        /* \"#utility.yul\":4938:4990   */\n      tag_50\n      jump\t// in\n    tag_125:\n        /* \"#utility.yul\":5015:5021   */\n      dup1\n        /* \"#utility.yul\":5010:5013   */\n      dup5\n        /* \"#utility.yul\":5006:5022   */\n      add\n        /* \"#utility.yul\":4999:5022   */\n      swap2\n      pop\n        /* \"#utility.yul\":4761:5028   */\n      pop\n        /* \"#utility.yul\":4651:5028   */\n      swap3\n      swap2\n      pop\n      pop\n      jump\t// out\n        /* \"#utility.yul\":5034:5113   */\n    tag_52:\n        /* \"#utility.yul\":5073:5080   */\n      0x00\n        /* \"#utility.yul\":5102:5107   */\n      dup2\n        /* \"#utility.yul\":5091:5107   */\n      swap1\n      pop\n        /* \"#utility.yul\":5034:5113   */\n      swap2\n      swap1\n      pop\n      jump\t// out\n        /* \"#utility.yul\":5119:5276   */\n    tag_53:\n        /* \"#utility.yul\":5224:5269   */\n      tag_128\n        /* \"#utility.yul\":5244:5268   */\n      tag_129\n        /* \"#utility.yul\":5262:5267   */\n      dup3\n        /* \"#utility.yul\":5244:5268   */\n      tag_45\n      jump\t// in\n    tag_129:\n        /* \"#utility.yul\":5224:5269   */\n      tag_52\n      jump\t// in\n    tag_128:\n        /* \"#utility.yul\":5219:5222   */\n      dup3\n        /* \"#utility.yul\":5212:5270   */\n      mstore\n        /* \"#utility.yul\":5119:5276   */\n      pop\n      pop\n      jump\t// out\n        /* \"#utility.yul\":5282:5408   */\n    tag_54:\n        /* \"#utility.yul\":5319:5326   */\n      0x00\n        /* \"#utility.yul\":5359:5401   */\n      0xffffffffffffffffffffffffffffffffffffffff\n        /* \"#utility.yul\":5352:5357   */\n      dup3\n        /* \"#utility.yul\":5348:5402   */\n      and\n        /* \"#utility.yul\":5337:5402   */\n      swap1\n      pop\n        /* \"#utility.yul\":5282:5408   */\n      swap2\n      swap1\n      pop\n      jump\t// out\n        /* \"#utility.yul\":5414:5510   */\n    tag_55:\n        /* \"#utility.yul\":5451:5458   */\n      0x00\n        /* \"#utility.yul\":5480:5504   */\n      tag_132\n        /* \"#utility.yul\":5498:5503   */\n      dup3\n        /* \"#utility.yul\":5480:5504   */\n      tag_54\n      jump\t// in\n    tag_132:\n        /* \"#utility.yul\":5469:5504   */\n      swap1\n      pop\n        /* \"#utility.yul\":5414:5510   */\n      swap2\n      swap1\n      pop\n      jump\t// out\n        /* \"#utility.yul\":5516:5610   */\n    tag_56:\n        /* \"#utility.yul\":5549:5557   */\n      0x00\n        /* \"#utility.yul\":5597:5602   */\n      dup2\n        /* \"#utility.yul\":5593:5595   */\n      0x60\n        /* \"#utility.yul\":5589:5603   */\n      shl\n        /* \"#utility.yul\":5568:5603   */\n      swap1\n      pop\n        /* \"#utility.yul\":5516:5610   */\n      swap2\n      swap1\n      pop\n      jump\t// out\n        /* \"#utility.yul\":5616:5710   */\n    tag_57:\n        /* \"#utility.yul\":5655:5662   */\n      0x00\n        /* \"#utility.yul\":5684:5704   */\n      tag_135\n        /* \"#utility.yul\":5698:5703   */\n      dup3\n        /* \"#utility.yul\":5684:5704   */\n      tag_56\n      jump\t// in\n    tag_135:\n        /* \"#utility.yul\":5673:5704   */\n      swap1\n      pop\n        /* \"#utility.yul\":5616:5710   */\n      swap2\n      swap1\n      pop\n      jump\t// out\n        /* \"#utility.yul\":5716:5816   */\n    tag_58:\n        /* \"#utility.yul\":5755:5762   */\n      0x00\n        /* \"#utility.yul\":5784:5810   */\n      tag_137\n        /* \"#utility.yul\":5804:5809   */\n      dup3\n        /* \"#utility.yul\":5784:5810   */\n      tag_57\n      jump\t// in\n    tag_137:\n        /* \"#utility.yul\":5773:5810   */\n      swap1\n      pop\n        /* \"#utility.yul\":5716:5816   */\n      swap2\n      swap1\n      pop\n      jump\t// out\n        /* \"#utility.yul\":5822:5979   */\n    tag_59:\n        /* \"#utility.yul\":5927:5972   */\n      tag_139\n        /* \"#utility.yul\":5947:5971   */\n      tag_140\n        /* \"#utility.yul\":5965:5970   */\n      dup3\n        /* \"#utility.yul\":5947:5971   */\n      tag_55\n      jump\t// in\n    tag_140:\n        /* \"#utility.yul\":5927:5972   */\n      tag_58\n      jump\t// in\n    tag_139:\n        /* \"#utility.yul\":5922:5925   */\n      dup3\n        /* \"#utility.yul\":5915:5973   */\n      mstore\n        /* \"#utility.yul\":5822:5979   */\n      pop\n      pop\n      jump\t// out\n        /* \"#utility.yul\":5985:6542   */\n    tag_22:\n        /* \"#utility.yul\":6173:6176   */\n      0x00\n        /* \"#utility.yul\":6195:6290   */\n      tag_142\n        /* \"#utility.yul\":6286:6289   */\n      dup3\n        /* \"#utility.yul\":6277:6283   */\n      dup7\n        /* \"#utility.yul\":6195:6290   */\n      tag_51\n      jump\t// in\n    tag_142:\n        /* \"#utility.yul\":6188:6290   */\n      swap2\n      pop\n        /* \"#utility.yul\":6300:6375   */\n      tag_143\n        /* \"#utility.yul\":6371:6374   */\n      dup3\n        /* \"#utility.yul\":6362:6368   */\n      dup6\n        /* \"#utility.yul\":6300:6375   */\n      tag_53\n      jump\t// in\n    tag_143:\n        /* \"#utility.yul\":6400:6402   */\n      0x20\n        /* \"#utility.yul\":6395:6398   */\n      dup3\n        /* \"#utility.yul\":6391:6403   */\n      add\n        /* \"#utility.yul\":6384:6403   */\n      swap2\n      pop\n        /* \"#utility.yul\":6413:6488   */\n      tag_144\n        /* \"#utility.yul\":6484:6487   */\n      dup3\n        /* \"#utility.yul\":6475:6481   */\n      dup5\n        /* \"#utility.yul\":6413:6488   */\n      tag_59\n      jump\t// in\n    tag_144:\n        /* \"#utility.yul\":6513:6515   */\n      0x14\n        /* \"#utility.yul\":6508:6511   */\n      dup3\n        /* \"#utility.yul\":6504:6516   */\n      add\n        /* \"#utility.yul\":6497:6516   */\n      swap2\n      pop\n        /* \"#utility.yul\":6533:6536   */\n      dup2\n        /* \"#utility.yul\":6526:6536   */\n      swap1\n      pop\n        /* \"#utility.yul\":5985:6542   */\n      swap5\n      swap4\n      pop\n      pop\n      pop\n      pop\n      jump\t// out\n        /* \"#utility.yul\":6548:6717   */\n    tag_60:\n        /* \"#utility.yul\":6632:6643   */\n      0x00\n        /* \"#utility.yul\":6666:6672   */\n      dup3\n        /* \"#utility.yul\":6661:6664   */\n      dup3\n        /* \"#utility.yul\":6654:6673   */\n      mstore\n        /* \"#utility.yul\":6706:6710   */\n      0x20\n        /* \"#utility.yul\":6701:6704   */\n      dup3\n        /* \"#utility.yul\":6697:6711   */\n      add\n        /* \"#utility.yul\":6682:6711   */\n      swap1\n      pop\n        /* \"#utility.yul\":6548:6717   */\n      swap3\n      swap2\n      pop\n      pop\n      jump\t// out\n        /* \"#utility.yul\":6723:7087   */\n    tag_61:\n        /* \"#utility.yul\":6811:6814   */\n      0x00\n        /* \"#utility.yul\":6839:6878   */\n      tag_147\n        /* \"#utility.yul\":6872:6877   */\n      dup3\n        /* \"#utility.yul\":6839:6878   */\n      tag_48\n      jump\t// in\n    tag_147:\n        /* \"#utility.yul\":6894:6965   */\n      tag_148\n        /* \"#utility.yul\":6958:6964   */\n      dup2\n        /* \"#utility.yul\":6953:6956   */\n      dup6\n        /* \"#utility.yul\":6894:6965   */\n      tag_60\n      jump\t// in\n    tag_148:\n        /* \"#utility.yul\":6887:6965   */\n      swap4\n      pop\n        /* \"#utility.yul\":6974:7026   */\n      tag_149\n        /* \"#utility.yul\":7019:7025   */\n      dup2\n        /* \"#utility.yul\":7014:7017   */\n      dup6\n        /* \"#utility.yul\":7007:7011   */\n      0x20\n        /* \"#utility.yul\":7000:7005   */\n      dup7\n        /* \"#utility.yul\":6996:7012   */\n      add\n        /* \"#utility.yul\":6974:7026   */\n      tag_50\n      jump\t// in\n    tag_149:\n        /* \"#utility.yul\":7051:7080   */\n      tag_150\n        /* \"#utility.yul\":7073:7079   */\n      dup2\n        /* \"#utility.yul\":7051:7080   */\n      tag_37\n      jump\t// in\n    tag_150:\n        /* \"#utility.yul\":7046:7049   */\n      dup5\n        /* \"#utility.yul\":7042:7081   */\n      add\n        /* \"#utility.yul\":7035:7081   */\n      swap2\n      pop\n        /* \"#utility.yul\":6815:7087   */\n      pop\n        /* \"#utility.yul\":6723:7087   */\n      swap3\n      swap2\n      pop\n      pop\n      jump\t// out\n        /* \"#utility.yul\":7093:7211   */\n    tag_62:\n        /* \"#utility.yul\":7180:7204   */\n      tag_152\n        /* \"#utility.yul\":7198:7203   */\n      dup2\n        /* \"#utility.yul\":7180:7204   */\n      tag_45\n      jump\t// in\n    tag_152:\n        /* \"#utility.yul\":7175:7178   */\n      dup3\n        /* \"#utility.yul\":7168:7205   */\n      mstore\n        /* \"#utility.yul\":7093:7211   */\n      pop\n      pop\n      jump\t// out\n        /* \"#utility.yul\":7217:7335   */\n    tag_63:\n        /* \"#utility.yul\":7304:7328   */\n      tag_154\n        /* \"#utility.yul\":7322:7327   */\n      dup2\n        /* \"#utility.yul\":7304:7328   */\n      tag_55\n      jump\t// in\n    tag_154:\n        /* \"#utility.yul\":7299:7302   */\n      dup3\n        /* \"#utility.yul\":7292:7329   */\n      mstore\n        /* \"#utility.yul\":7217:7335   */\n      pop\n      pop\n      jump\t// out\n        /* \"#utility.yul\":7341:7418   */\n    tag_64:\n        /* \"#utility.yul\":7378:7385   */\n      0x00\n        /* \"#utility.yul\":7407:7412   */\n      dup2\n        /* \"#utility.yul\":7396:7412   */\n      swap1\n      pop\n        /* \"#utility.yul\":7341:7418   */\n      swap2\n      swap1\n      pop\n      jump\t// out\n        /* \"#utility.yul\":7424:7542   */\n    tag_65:\n        /* \"#utility.yul\":7511:7535   */\n      tag_157\n        /* \"#utility.yul\":7529:7534   */\n      dup2\n        /* \"#utility.yul\":7511:7535   */\n      tag_64\n      jump\t// in\n    tag_157:\n        /* \"#utility.yul\":7506:7509   */\n      dup3\n        /* \"#utility.yul\":7499:7536   */\n      mstore\n        /* \"#utility.yul\":7424:7542   */\n      pop\n      pop\n      jump\t// out\n        /* \"#utility.yul\":7548:8192   */\n    tag_24:\n        /* \"#utility.yul\":7745:7749   */\n      0x00\n        /* \"#utility.yul\":7783:7786   */\n      0x80\n        /* \"#utility.yul\":7772:7781   */\n      dup3\n        /* \"#utility.yul\":7768:7787   */\n      add\n        /* \"#utility.yul\":7760:7787   */\n      swap1\n      pop\n        /* \"#utility.yul\":7833:7842   */\n      dup2\n        /* \"#utility.yul\":7827:7831   */\n      dup2\n        /* \"#utility.yul\":7823:7843   */\n      sub\n        /* \"#utility.yul\":7819:7820   */\n      0x00\n        /* \"#utility.yul\":7808:7817   */\n      dup4\n        /* \"#utility.yul\":7804:7821   */\n      add\n        /* \"#utility.yul\":7797:7844   */\n      mstore\n        /* \"#utility.yul\":7861:7939   */\n      tag_159\n        /* \"#utility.yul\":7934:7938   */\n      dup2\n        /* \"#utility.yul\":7925:7931   */\n      dup8\n        /* \"#utility.yul\":7861:7939   */\n      tag_61\n      jump\t// in\n    tag_159:\n        /* \"#utility.yul\":7853:7939   */\n      swap1\n      pop\n        /* \"#utility.yul\":7949:8021   */\n      tag_160\n        /* \"#utility.yul\":8017:8019   */\n      0x20\n        /* \"#utility.yul\":8006:8015   */\n      dup4\n        /* \"#utility.yul\":8002:8020   */\n      add\n        /* \"#utility.yul\":7993:7999   */\n      dup7\n        /* \"#utility.yul\":7949:8021   */\n      tag_62\n      jump\t// in\n    tag_160:\n        /* \"#utility.yul\":8031:8103   */\n      tag_161\n        /* \"#utility.yul\":8099:8101   */\n      0x40\n        /* \"#utility.yul\":8088:8097   */\n      dup4\n        /* \"#utility.yul\":8084:8102   */\n      add\n        /* \"#utility.yul\":8075:8081   */\n      dup6\n        /* \"#utility.yul\":8031:8103   */\n      tag_63\n      jump\t// in\n    tag_161:\n        /* \"#utility.yul\":8113:8185   */\n      tag_162\n        /* \"#utility.yul\":8181:8183   */\n      0x60\n        /* \"#utility.yul\":8170:8179   */\n      dup4\n        /* \"#utility.yul\":8166:8184   */\n      add\n        /* \"#utility.yul\":8157:8163   */\n      dup5\n        /* \"#utility.yul\":8113:8185   */\n      tag_65\n      jump\t// in\n    tag_162:\n        /* \"#utility.yul\":7548:8192   */\n      swap6\n      swap5\n      pop\n      pop\n      pop\n      pop\n      pop\n      jump\t// out\n        /* \"#utility.yul\":8198:8511   */\n    tag_27:\n        /* \"#utility.yul\":8311:8315   */\n      0x00\n        /* \"#utility.yul\":8349:8351   */\n      0x20\n        /* \"#utility.yul\":8338:8347   */\n      dup3\n        /* \"#utility.yul\":8334:8352   */\n      add\n        /* \"#utility.yul\":8326:8352   */\n      swap1\n      pop\n        /* \"#utility.yul\":8398:8407   */\n      dup2\n        /* \"#utility.yul\":8392:8396   */\n      dup2\n        /* \"#utility.yul\":8388:8408   */\n      sub\n        /* \"#utility.yul\":8384:8385   */\n      0x00\n        /* \"#utility.yul\":8373:8382   */\n      dup4\n        /* \"#utility.yul\":8369:8386   */\n      add\n        /* \"#utility.yul\":8362:8409   */\n      mstore\n        /* \"#utility.yul\":8426:8504   */\n      tag_164\n        /* \"#utility.yul\":8499:8503   */\n      dup2\n        /* \"#utility.yul\":8490:8496   */\n      dup5\n        /* \"#utility.yul\":8426:8504   */\n      tag_61\n      jump\t// in\n    tag_164:\n        /* \"#utility.yul\":8418:8504   */\n      swap1\n      pop\n        /* \"#utility.yul\":8198:8511   */\n      swap3\n      swap2\n      pop\n      pop\n      jump\t// out\n        /* \"#utility.yul\":8517:8940   */\n    tag_30:\n        /* \"#utility.yul\":8658:8662   */\n      0x00\n        /* \"#utility.yul\":8696:8698   */\n      0x40\n        /* \"#utility.yul\":8685:8694   */\n      dup3\n        /* \"#utility.yul\":8681:8699   */\n      add\n        /* \"#utility.yul\":8673:8699   */\n      swap1\n      pop\n        /* \"#utility.yul\":8745:8754   */\n      dup2\n        /* \"#utility.yul\":8739:8743   */\n      dup2\n        /* \"#utility.yul\":8735:8755   */\n      sub\n        /* \"#utility.yul\":8731:8732   */\n      0x00\n        /* \"#utility.yul\":8720:8729   */\n      dup4\n        /* \"#utility.yul\":8716:8733   */\n      add\n        /* \"#utility.yul\":8709:8756   */\n      mstore\n        /* \"#utility.yul\":8773:8851   */\n      tag_166\n        /* \"#utility.yul\":8846:8850   */\n      dup2\n        /* \"#utility.yul\":8837:8843   */\n      dup6\n        /* \"#utility.yul\":8773:8851   */\n      tag_61\n      jump\t// in\n    tag_166:\n        /* \"#utility.yul\":8765:8851   */\n      swap1\n      pop\n        /* \"#utility.yul\":8861:8933   */\n      tag_167\n        /* \"#utility.yul\":8929:8931   */\n      0x20\n        /* \"#utility.yul\":8918:8927   */\n      dup4\n        /* \"#utility.yul\":8914:8932   */\n      add\n        /* \"#utility.yul\":8905:8911   */\n      dup5\n        /* \"#utility.yul\":8861:8933   */\n      tag_62\n      jump\t// in\n    tag_167:\n        /* \"#utility.yul\":8517:8940   */\n      swap4\n      swap3\n      pop\n      pop\n      pop\n      jump\t// out\n\n    auxdata: 0xa2646970667358221220d595ea0aef7614077b2b7899eee5596333715f52850bd5057c10c372a43c406464736f6c634300080d0033\n}\n",
				"bytecode": {
					"linkReferences": {},
					"object": "608060405234801561001057600080fd5b5061069d806100206000396000f3fe608060405234801561001057600080fd5b506004361061004c5760003560e01c80636480f5c2146100515780637cf1103d1461006d5780637f4f0f351461008957806382ba81da146100a5575b600080fd5b61006b60048036038101906100669190610355565b6100af565b005b610087600480360381019061008291906103b1565b610120565b005b6100a3600480360381019061009e9190610355565b61015a565b005b6100ad610197565b005b60008282336040516020016100c69392919061050f565b6040516020818303038152906040528051906020012090507fd0ff1ee28f2dbf23f694467b91653073187a19cba2610b37edd759ee2e31a8718383338460405161011394939291906105c9565b60405180910390a1505050565b7f5007d59453ebcd951519cabd56f016d29fe2390892307189bde962ced3d340948160405161014f9190610615565b60405180910390a150565b7f7556e8345a443b754c690a14b2cd91df7aec27fbd662a660dd25d647f4732ed1828260405161018b929190610637565b60405180910390a15050565b7fce6ae037f4ff39c7901b9a44b48553cb05d3c4b34e09ad495df80c5cb63e3ec260405160405180910390a1565b6000604051905090565b600080fd5b600080fd5b600080fd5b600080fd5b6000601f19601f8301169050919050565b7f4e487b7100000000000000000000000000000000000000000000000000000000600052604160045260246000fd5b61022c826101e3565b810181811067ffffffffffffffff8211171561024b5761024a6101f4565b5b80604052505050565b600061025e6101c5565b905061026a8282610223565b919050565b600067ffffffffffffffff82111561028a576102896101f4565b5b610293826101e3565b9050602081019050919050565b82818337600083830152505050565b60006102c26102bd8461026f565b610254565b9050828152602081018484840111156102de576102dd6101de565b5b6102e98482856102a0565b509392505050565b600082601f830112610306576103056101d9565b5b81356103168482602086016102af565b91505092915050565b6000819050919050565b6103328161031f565b811461033d57600080fd5b50565b60008135905061034f81610329565b92915050565b6000806040838503121561036c5761036b6101cf565b5b600083013567ffffffffffffffff81111561038a576103896101d4565b5b610396858286016102f1565b92505060206103a785828601610340565b9150509250929050565b6000602082840312156103c7576103c66101cf565b5b600082013567ffffffffffffffff8111156103e5576103e46101d4565b5b6103f1848285016102f1565b91505092915050565b600081519050919050565b600081905092915050565b60005b8381101561042e578082015181840152602081019050610413565b8381111561043d576000848401525b50505050565b600061044e826103fa565b6104588185610405565b9350610468818560208601610410565b80840191505092915050565b6000819050919050565b61048f61048a8261031f565b610474565b82525050565b600073ffffffffffffffffffffffffffffffffffffffff82169050919050565b60006104c082610495565b9050919050565b60008160601b9050919050565b60006104df826104c7565b9050919050565b60006104f1826104d4565b9050919050565b610509610504826104b5565b6104e6565b82525050565b600061051b8286610443565b9150610527828561047e565b60208201915061053782846104f8565b601482019150819050949350505050565b600082825260208201905092915050565b6000610564826103fa565b61056e8185610548565b935061057e818560208601610410565b610587816101e3565b840191505092915050565b61059b8161031f565b82525050565b6105aa816104b5565b82525050565b6000819050919050565b6105c3816105b0565b82525050565b600060808201905081810360008301526105e38187610559565b90506105f26020830186610592565b6105ff60408301856105a1565b61060c60608301846105ba565b95945050505050565b6000602082019050818103600083015261062f8184610559565b905092915050565b600060408201905081810360008301526106518185610559565b90506106606020830184610592565b939250505056fea2646970667358221220d595ea0aef7614077b2b7899eee5596333715f52850bd5057c10c372a43c406464736f6c634300080d0033",
					"opcodes": "PUSH1 0x80 PUSH1 0x40 MSTORE CALLVALUE DUP1 ISZERO PUSH2 0x10 JUMPI PUSH1 0x0 DUP1 REVERT JUMPDEST POP PUSH2 0x69D DUP1 PUSH2 0x20 PUSH1 0x0 CODECOPY PUSH1 0x0 RETURN INVALID PUSH1 0x80 PUSH1 0x40 MSTORE CALLVALUE DUP1 ISZERO PUSH2 0x10 JUMPI PUSH1 0x0 DUP1 REVERT JUMPDEST POP PUSH1 0x4 CALLDATASIZE LT PUSH2 0x4C JUMPI PUSH1 0x0 CALLDATALOAD PUSH1 0xE0 SHR DUP1 PUSH4 0x6480F5C2 EQ PUSH2 0x51 JUMPI DUP1 PUSH4 0x7CF1103D EQ PUSH2 0x6D JUMPI DUP1 PUSH4 0x7F4F0F35 EQ PUSH2 0x89 JUMPI DUP1 PUSH4 0x82BA81DA EQ PUSH2 0xA5 JUMPI JUMPDEST PUSH1 0x0 DUP1 REVERT JUMPDEST PUSH2 0x6B PUSH1 0x4 DUP1 CALLDATASIZE SUB DUP2 ADD SWAP1 PUSH2 0x66 SWAP2 SWAP1 PUSH2 0x355 JUMP JUMPDEST PUSH2 0xAF JUMP JUMPDEST STOP JUMPDEST PUSH2 0x87 PUSH1 0x4 DUP1 CALLDATASIZE SUB DUP2 ADD SWAP1 PUSH2 0x82 SWAP2 SWAP1 PUSH2 0x3B1 JUMP JUMPDEST PUSH2 0x120 JUMP JUMPDEST STOP JUMPDEST PUSH2 0xA3 PUSH1 0x4 DUP1 CALLDATASIZE SUB DUP2 ADD SWAP1 PUSH2 0x9E SWAP2 SWAP1 PUSH2 0x355 JUMP JUMPDEST PUSH2 0x15A JUMP JUMPDEST STOP JUMPDEST PUSH2 0xAD PUSH2 0x197 JUMP JUMPDEST STOP JUMPDEST PUSH1 0x0 DUP3 DUP3 CALLER PUSH1 0x40 MLOAD PUSH1 0x20 ADD PUSH2 0xC6 SWAP4 SWAP3 SWAP2 SWAP1 PUSH2 0x50F JUMP JUMPDEST PUSH1 0x40 MLOAD PUSH1 0x20 DUP2 DUP4 SUB SUB DUP2 MSTORE SWAP1 PUSH1 0x40 MSTORE DUP1 MLOAD SWAP1 PUSH1 0x20 ADD KECCAK256 SWAP1 POP PUSH32 0xD0FF1EE28F2DBF23F694467B91653073187A19CBA2610B37EDD759EE2E31A871 DUP4 DUP4 CALLER DUP5 PUSH1 0x40 MLOAD PUSH2 0x113 SWAP5 SWAP4 SWAP3 SWAP2 SWAP1 PUSH2 0x5C9 JUMP JUMPDEST PUSH1 0x40 MLOAD DUP1 SWAP2 SUB SWAP1 LOG1 POP POP POP JUMP JUMPDEST PUSH32 0x5007D59453EBCD951519CABD56F016D29FE2390892307189BDE962CED3D34094 DUP2 PUSH1 0x40 MLOAD PUSH2 0x14F SWAP2 SWAP1 PUSH2 0x615 JUMP JUMPDEST PUSH1 0x40 MLOAD DUP1 SWAP2 SUB SWAP1 LOG1 POP JUMP JUMPDEST PUSH32 0x7556E8345A443B754C690A14B2CD91DF7AEC27FBD662A660DD25D647F4732ED1 DUP3 DUP3 PUSH1 0x40 MLOAD PUSH2 0x18B SWAP3 SWAP2 SWAP1 PUSH2 0x637 JUMP JUMPDEST PUSH1 0x40 MLOAD DUP1 SWAP2 SUB SWAP1 LOG1 POP POP JUMP JUMPDEST PUSH32 0xCE6AE037F4FF39C7901B9A44B48553CB05D3C4B34E09AD495DF80C5CB63E3EC2 PUSH1 0x40 MLOAD PUSH1 0x40 MLOAD DUP1 SWAP2 SUB SWAP1 LOG1 JUMP JUMPDEST PUSH1 0x0 PUSH1 0x40 MLOAD SWAP1 POP SWAP1 JUMP JUMPDEST PUSH1 0x0 DUP1 REVERT JUMPDEST PUSH1 0x0 DUP1 REVERT JUMPDEST PUSH1 0x0 DUP1 REVERT JUMPDEST PUSH1 0x0 DUP1 REVERT JUMPDEST PUSH1 0x0 PUSH1 0x1F NOT PUSH1 0x1F DUP4 ADD AND SWAP1 POP SWAP2 SWAP1 POP JUMP JUMPDEST PUSH32 0x4E487B7100000000000000000000000000000000000000000000000000000000 PUSH1 0x0 MSTORE PUSH1 0x41 PUSH1 0x4 MSTORE PUSH1 0x24 PUSH1 0x0 REVERT JUMPDEST PUSH2 0x22C DUP3 PUSH2 0x1E3 JUMP JUMPDEST DUP2 ADD DUP2 DUP2 LT PUSH8 0xFFFFFFFFFFFFFFFF DUP3 GT OR ISZERO PUSH2 0x24B JUMPI PUSH2 0x24A PUSH2 0x1F4 JUMP JUMPDEST JUMPDEST DUP1 PUSH1 0x40 MSTORE POP POP POP JUMP JUMPDEST PUSH1 0x0 PUSH2 0x25E PUSH2 0x1C5 JUMP JUMPDEST SWAP1 POP PUSH2 0x26A DUP3 DUP3 PUSH2 0x223 JUMP JUMPDEST SWAP2 SWAP1 POP JUMP JUMPDEST PUSH1 0x0 PUSH8 0xFFFFFFFFFFFFFFFF DUP3 GT ISZERO PUSH2 0x28A JUMPI PUSH2 0x289 PUSH2 0x1F4 JUMP JUMPDEST JUMPDEST PUSH2 0x293 DUP3 PUSH2 0x1E3 JUMP JUMPDEST SWAP1 POP PUSH1 0x20 DUP2 ADD SWAP1 POP SWAP2 SWAP1 POP JUMP JUMPDEST DUP3 DUP2 DUP4 CALLDATACOPY PUSH1 0x0 DUP4 DUP4 ADD MSTORE POP POP POP JUMP JUMPDEST PUSH1 0x0 PUSH2 0x2C2 PUSH2 0x2BD DUP5 PUSH2 0x26F JUMP JUMPDEST PUSH2 0x254 JUMP JUMPDEST SWAP1 POP DUP3 DUP2 MSTORE PUSH1 0x20 DUP2 ADD DUP5 DUP5 DUP5 ADD GT ISZERO PUSH2 0x2DE JUMPI PUSH2 0x2DD PUSH2 0x1DE JUMP JUMPDEST JUMPDEST PUSH2 0x2E9 DUP5 DUP3 DUP6 PUSH2 0x2A0 JUMP JUMPDEST POP SWAP4 SWAP3 POP POP POP JUMP JUMPDEST PUSH1 0x0 DUP3 PUSH1 0x1F DUP4 ADD SLT PUSH2 0x306 JUMPI PUSH2 0x305 PUSH2 0x1D9 JUMP JUMPDEST JUMPDEST DUP2 CALLDATALOAD PUSH2 0x316 DUP5 DUP3 PUSH1 0x20 DUP7 ADD PUSH2 0x2AF JUMP JUMPDEST SWAP2 POP POP SWAP3 SWAP2 POP POP JUMP JUMPDEST PUSH1 0x0 DUP2 SWAP1 POP SWAP2 SWAP1 POP JUMP JUMPDEST PUSH2 0x332 DUP2 PUSH2 0x31F JUMP JUMPDEST DUP2 EQ PUSH2 0x33D JUMPI PUSH1 0x0 DUP1 REVERT JUMPDEST POP JUMP JUMPDEST PUSH1 0x0 DUP2 CALLDATALOAD SWAP1 POP PUSH2 0x34F DUP2 PUSH2 0x329 JUMP JUMPDEST SWAP3 SWAP2 POP POP JUMP JUMPDEST PUSH1 0x0 DUP1 PUSH1 0x40 DUP4 DUP6 SUB SLT ISZERO PUSH2 0x36C JUMPI PUSH2 0x36B PUSH2 0x1CF JUMP JUMPDEST JUMPDEST PUSH1 0x0 DUP4 ADD CALLDATALOAD PUSH8 0xFFFFFFFFFFFFFFFF DUP2 GT ISZERO PUSH2 0x38A JUMPI PUSH2 0x389 PUSH2 0x1D4 JUMP JUMPDEST JUMPDEST PUSH2 0x396 DUP6 DUP3 DUP7 ADD PUSH2 0x2F1 JUMP JUMPDEST SWAP3 POP POP PUSH1 0x20 PUSH2 0x3A7 DUP6 DUP3 DUP7 ADD PUSH2 0x340 JUMP JUMPDEST SWAP2 POP POP SWAP3 POP SWAP3 SWAP1 POP JUMP JUMPDEST PUSH1 0x0 PUSH1 0x20 DUP3 DUP5 SUB SLT ISZERO PUSH2 0x3C7 JUMPI PUSH2 0x3C6 PUSH2 0x1CF JUMP JUMPDEST JUMPDEST PUSH1 0x0 DUP3 ADD CALLDATALOAD PUSH8 0xFFFFFFFFFFFFFFFF DUP2 GT ISZERO PUSH2 0x3E5 JUMPI PUSH2 0x3E4 PUSH2 0x1D4 JUMP JUMPDEST JUMPDEST PUSH2 0x3F1 DUP5 DUP3 DUP6 ADD PUSH2 0x2F1 JUMP JUMPDEST SWAP2 POP POP SWAP3 SWAP2 POP POP JUMP JUMPDEST PUSH1 0x0 DUP2 MLOAD SWAP1 POP SWAP2 SWAP1 POP JUMP JUMPDEST PUSH1 0x0 DUP2 SWAP1 POP SWAP3 SWAP2 POP POP JUMP JUMPDEST PUSH1 0x0 JUMPDEST DUP4 DUP2 LT ISZERO PUSH2 0x42E JUMPI DUP1 DUP3 ADD MLOAD DUP2 DUP5 ADD MSTORE PUSH1 0x20 DUP2 ADD SWAP1 POP PUSH2 0x413 JUMP JUMPDEST DUP4 DUP2 GT ISZERO PUSH2 0x43D JUMPI PUSH1 0x0 DUP5 DUP5 ADD MSTORE JUMPDEST POP POP POP POP JUMP JUMPDEST PUSH1 0x0 PUSH2 0x44E DUP3 PUSH2 0x3FA JUMP JUMPDEST PUSH2 0x458 DUP2 DUP6 PUSH2 0x405 JUMP JUMPDEST SWAP4 POP PUSH2 0x468 DUP2 DUP6 PUSH1 0x20 DUP7 ADD PUSH2 0x410 JUMP JUMPDEST DUP1 DUP5 ADD SWAP2 POP POP SWAP3 SWAP2 POP POP JUMP JUMPDEST PUSH1 0x0 DUP2 SWAP1 POP SWAP2 SWAP1 POP JUMP JUMPDEST PUSH2 0x48F PUSH2 0x48A DUP3 PUSH2 0x31F JUMP JUMPDEST PUSH2 0x474 JUMP JUMPDEST DUP3 MSTORE POP POP JUMP JUMPDEST PUSH1 0x0 PUSH20 0xFFFFFFFFFFFFFFFFFFFFFFFFFFFFFFFFFFFFFFFF DUP3 AND SWAP1 POP SWAP2 SWAP1 POP JUMP JUMPDEST PUSH1 0x0 PUSH2 0x4C0 DUP3 PUSH2 0x495 JUMP JUMPDEST SWAP1 POP SWAP2 SWAP1 POP JUMP JUMPDEST PUSH1 0x0 DUP2 PUSH1 0x60 SHL SWAP1 POP SWAP2 SWAP1 POP JUMP JUMPDEST PUSH1 0x0 PUSH2 0x4DF DUP3 PUSH2 0x4C7 JUMP JUMPDEST SWAP1 POP SWAP2 SWAP1 POP JUMP JUMPDEST PUSH1 0x0 PUSH2 0x4F1 DUP3 PUSH2 0x4D4 JUMP JUMPDEST SWAP1 POP SWAP2 SWAP1 POP JUMP JUMPDEST PUSH2 0x509 PUSH2 0x504 DUP3 PUSH2 0x4B5 JUMP JUMPDEST PUSH2 0x4E6 JUMP JUMPDEST DUP3 MSTORE POP POP JUMP JUMPDEST PUSH1 0x0 PUSH2 0x51B DUP3 DUP7 PUSH2 0x443 JUMP JUMPDEST SWAP2 POP PUSH2 0x527 DUP3 DUP6 PUSH2 0x47E JUMP JUMPDEST PUSH1 0x20 DUP3 ADD SWAP2 POP PUSH2 0x537 DUP3 DUP5 PUSH2 0x4F8 JUMP JUMPDEST PUSH1 0x14 DUP3 ADD SWAP2 POP DUP2 SWAP1 POP SWAP5 SWAP4 POP POP POP POP JUMP JUMPDEST PUSH1 0x0 DUP3 DUP3 MSTORE PUSH1 0x20 DUP3 ADD SWAP1 POP SWAP3 SWAP2 POP POP JUMP JUMPDEST PUSH1 0x0 PUSH2 0x564 DUP3 PUSH2 0x3FA JUMP JUMPDEST PUSH2 0x56E DUP2 DUP6 PUSH2 0x548 JUMP JUMPDEST SWAP4 POP PUSH2 0x57E DUP2 DUP6 PUSH1 0x20 DUP7 ADD PUSH2 0x410 JUMP JUMPDEST PUSH2 0x587 DUP2 PUSH2 0x1E3 JUMP JUMPDEST DUP5 ADD SWAP2 POP POP SWAP3 SWAP2 POP POP JUMP JUMPDEST PUSH2 0x59B DUP2 PUSH2 0x31F JUMP JUMPDEST DUP3 MSTORE POP POP JUMP JUMPDEST PUSH2 0x5AA DUP2 PUSH2 0x4B5 JUMP JUMPDEST DUP3 MSTORE POP POP JUMP JUMPDEST PUSH1 0x0 DUP2 SWAP1 POP SWAP2 SWAP1 POP JUMP JUMPDEST PUSH2 0x5C3 DUP2 PUSH2 0x5B0 JUMP JUMPDEST DUP3 MSTORE POP POP JUMP JUMPDEST PUSH1 0x0 PUSH1 0x80 DUP3 ADD SWAP1 POP DUP2 DUP2 SUB PUSH1 0x0 DUP4 ADD MSTORE PUSH2 0x5E3 DUP2 DUP8 PUSH2 0x559 JUMP JUMPDEST SWAP1 POP PUSH2 0x5F2 PUSH1 0x20 DUP4 ADD DUP7 PUSH2 0x592 JUMP JUMPDEST PUSH2 0x5FF PUSH1 0x40 DUP4 ADD DUP6 PUSH2 0x5A1 JUMP JUMPDEST PUSH2 0x60C PUSH1 0x60 DUP4 ADD DUP5 PUSH2 0x5BA JUMP JUMPDEST SWAP6 SWAP5 POP POP POP POP POP JUMP JUMPDEST PUSH1 0x0 PUSH1 0x20 DUP3 ADD SWAP1 POP DUP2 DUP2 SUB PUSH1 0x0 DUP4 ADD MSTORE PUSH2 0x62F DUP2 DUP5 PUSH2 0x559 JUMP JUMPDEST SWAP1 POP SWAP3 SWAP2 POP POP JUMP JUMPDEST PUSH1 0x0 PUSH1 0x40 DUP3 ADD SWAP1 POP DUP2 DUP2 SUB PUSH1 0x0 DUP4 ADD MSTORE PUSH2 0x651 DUP2 DUP6 PUSH2 0x559 JUMP JUMPDEST SWAP1 POP PUSH2 0x660 PUSH1 0x20 DUP4 ADD DUP5 PUSH2 0x592 JUMP JUMPDEST SWAP4 SWAP3 POP POP POP JUMP INVALID LOG2 PUSH5 0x6970667358 0x22 SLT KECCAK256 0xD5 SWAP6 0xEA EXP 0xEF PUSH23 0x14077B2B7899EEE5596333715F52850BD5057C10C372A4 EXTCODECOPY BLOCKHASH PUSH5 0x64736F6C63 NUMBER STOP ADDMOD 0xD STOP CALLER "
				},
				"gasEstimates": {
					"creation": {
						"codeDepositCost": "338600",
						"executionCost": "374",
						"totalCost": "338974"
					},
					"external": {
						"abortarMision()": "965",
						"emitirEvento1(string)": "infinite",
						"emitirEvento2(string,uint256)": "infinite",
						"emitirEvento3(string,uint256)": "infinite"
					}
				},
				"methodIdentifiers": {
					"abortarMision()": "82ba81da",
					"emitirEvento1(string)": "7cf1103d",
					"emitirEvento2(string,uint256)": "7f4f0f35",
					"emitirEvento3(string,uint256)": "6480f5c2"
				}
			},
			"storageLayout": {
				"storage": [],
				"types": null
			},
			"userdoc": {
				"kind": "user",
				"methods": {},
				"version": 1
			}
		}
	}
}