{
	"Funciones/eventos.sol": {
		"Eventos": {
			"abi": [
				{
					"anonymous": false,
					"inputs": [
						{
							"indexed": false,
							"internalType": "string",
							"name": "_nombrePersona",
							"type": "string"
						}
					],
					"name": "nombre_evento1",
					"type": "event"
				},
				{
					"anonymous": false,
					"inputs": [
						{
							"indexed": false,
							"internalType": "string",
							"name": "_nombrePersona",
							"type": "string"
						},
						{
							"indexed": false,
							"internalType": "uint256",
							"name": "_edadPersona",
							"type": "uint256"
						}
					],
					"name": "nombre_evento2",
					"type": "event"
				},
				{
					"anonymous": false,
					"inputs": [
						{
							"indexed": false,
							"internalType": "string",
							"name": "",
							"type": "string"
						},
						{
							"indexed": false,
							"internalType": "uint256",
							"name": "",
							"type": "uint256"
						},
						{
							"indexed": false,
							"internalType": "address",
							"name": "",
							"type": "address"
						},
						{
							"indexed": false,
							"internalType": "bytes32",
							"name": "",
							"type": "bytes32"
						}
					],
					"name": "nombre_evento3",
					"type": "event"
				},
				{
					"inputs": [
						{
							"internalType": "string",
							"name": "_nombrePersona",
							"type": "string"
						}
					],
					"name": "emitirEvento1",
					"outputs": [],
					"stateMutability": "nonpayable",
					"type": "function"
				},
				{
					"inputs": [
						{
							"internalType": "string",
							"name": "_nombrePersona",
							"type": "string"
						},
						{
							"internalType": "uint256",
							"name": "_edadPersona",
							"type": "uint256"
						}
					],
					"name": "emitirEvento2",
					"outputs": [],
					"stateMutability": "nonpayable",
					"type": "function"
				},
				{
					"inputs": [
						{
							"internalType": "string",
							"name": "_nombrePersona",
							"type": "string"
						},
						{
							"internalType": "uint256",
							"name": "_edadPersona",
							"type": "uint256"
						}
					],
					"name": "emitirEvento3",
					"outputs": [],
					"stateMutability": "nonpayable",
					"type": "function"
				}
			],
			"devdoc": {
				"methods": {}
			},
			"evm": {
				"assembly": "    /* \"Funciones/eventos.sol\":98:898  contract Eventos{\r... */\n  mstore(0x40, 0x80)\n  callvalue\n    /* \"--CODEGEN--\":5:14   */\n  dup1\n    /* \"--CODEGEN--\":2:4   */\n  iszero\n  tag_1\n  jumpi\n    /* \"--CODEGEN--\":27:28   */\n  0x00\n    /* \"--CODEGEN--\":24:25   */\n  dup1\n    /* \"--CODEGEN--\":17:29   */\n  revert\n    /* \"--CODEGEN--\":2:4   */\ntag_1:\n    /* \"Funciones/eventos.sol\":98:898  contract Eventos{\r... */\n  pop\n  dataSize(sub_0)\n  dup1\n  dataOffset(sub_0)\n  0x00\n  codecopy\n  0x00\n  return\nstop\n\nsub_0: assembly {\n        /* \"Funciones/eventos.sol\":98:898  contract Eventos{\r... */\n      mstore(0x40, 0x80)\n      callvalue\n        /* \"--CODEGEN--\":5:14   */\n      dup1\n        /* \"--CODEGEN--\":2:4   */\n      iszero\n      tag_1\n      jumpi\n        /* \"--CODEGEN--\":27:28   */\n      0x00\n        /* \"--CODEGEN--\":24:25   */\n      dup1\n        /* \"--CODEGEN--\":17:29   */\n      revert\n        /* \"--CODEGEN--\":2:4   */\n    tag_1:\n        /* \"Funciones/eventos.sol\":98:898  contract Eventos{\r... */\n      pop\n      jumpi(tag_2, lt(calldatasize, 0x04))\n      shr(0xe0, calldataload(0x00))\n      dup1\n      0x6480f5c2\n      eq\n      tag_3\n      jumpi\n      dup1\n      0x7cf1103d\n      eq\n      tag_4\n      jumpi\n      dup1\n      0x7f4f0f35\n      eq\n      tag_5\n      jumpi\n    tag_2:\n        /* \"--CODEGEN--\":12:13   */\n      0x00\n        /* \"--CODEGEN--\":9:10   */\n      dup1\n        /* \"--CODEGEN--\":2:14   */\n      revert\n        /* \"Funciones/eventos.sol\":635:895  function emitirEvento3(string memory _nombrePersona, uint _edadPersona) public {\r... */\n    tag_3:\n      tag_6\n      0x04\n      dup1\n      calldatasize\n      sub\n      dup2\n      add\n      swap1\n      tag_7\n      swap2\n      swap1\n      jump(tag_8)\n    tag_7:\n      tag_9\n      jump\t// in\n    tag_6:\n      stop\n        /* \"Funciones/eventos.sol\":358:472  function emitirEvento1(string memory _nombrePersona) public {\r... */\n    tag_4:\n      tag_10\n      0x04\n      dup1\n      calldatasize\n      sub\n      dup2\n      add\n      swap1\n      tag_11\n      swap2\n      swap1\n      jump(tag_12)\n    tag_11:\n      tag_13\n      jump\t// in\n    tag_10:\n      stop\n        /* \"Funciones/eventos.sol\":480:627  function emitirEvento2(string memory _nombrePersona, uint _edadPersona) public {\r... */\n    tag_5:\n      tag_14\n      0x04\n      dup1\n      calldatasize\n      sub\n      dup2\n      add\n      swap1\n      tag_15\n      swap2\n      swap1\n      jump(tag_8)\n    tag_15:\n      tag_16\n      jump\t// in\n    tag_14:\n      stop\n        /* \"Funciones/eventos.sol\":635:895  function emitirEvento3(string memory _nombrePersona, uint _edadPersona) public {\r... */\n    tag_9:\n        /* \"Funciones/eventos.sol\":725:737  bytes32 hash */\n      0x00\n        /* \"Funciones/eventos.sol\":767:781  _nombrePersona */\n      dup3\n        /* \"Funciones/eventos.sol\":783:795  _edadPersona */\n      dup3\n        /* \"Funciones/eventos.sol\":797:807  msg.sender */\n      caller\n        /* \"Funciones/eventos.sol\":750:808  abi.encodePacked(_nombrePersona, _edadPersona, msg.sender) */\n      add(0x20, mload(0x40))\n      tag_18\n      swap4\n      swap3\n      swap2\n      swap1\n      jump(tag_19)\n    tag_18:\n      mload(0x40)\n        /* \"--CODEGEN--\":49:53   */\n      0x20\n        /* \"--CODEGEN--\":39:46   */\n      dup2\n        /* \"--CODEGEN--\":30:37   */\n      dup4\n        /* \"--CODEGEN--\":26:47   */\n      sub\n        /* \"--CODEGEN--\":22:54   */\n      sub\n        /* \"--CODEGEN--\":13:20   */\n      dup2\n        /* \"--CODEGEN--\":6:55   */\n      mstore\n        /* \"Funciones/eventos.sol\":750:808  abi.encodePacked(_nombrePersona, _edadPersona, msg.sender) */\n      swap1\n      0x40\n      mstore\n        /* \"Funciones/eventos.sol\":740:809  keccak256(abi.encodePacked(_nombrePersona, _edadPersona, msg.sender)) */\n      dup1\n      mload\n      swap1\n      0x20\n      add\n      keccak256\n        /* \"Funciones/eventos.sol\":725:809  bytes32 hash = keccak256(abi.encodePacked(_nombrePersona, _edadPersona, msg.sender)) */\n      swap1\n      pop\n        /* \"Funciones/eventos.sol\":825:887  nombre_evento3(_nombrePersona, _edadPersona, msg.sender, hash) */\n      0xd0ff1ee28f2dbf23f694467b91653073187a19cba2610b37edd759ee2e31a871\n        /* \"Funciones/eventos.sol\":840:854  _nombrePersona */\n      dup4\n        /* \"Funciones/eventos.sol\":856:868  _edadPersona */\n      dup4\n        /* \"Funciones/eventos.sol\":870:880  msg.sender */\n      caller\n        /* \"Funciones/eventos.sol\":882:886  hash */\n      dup5\n        /* \"Funciones/eventos.sol\":825:887  nombre_evento3(_nombrePersona, _edadPersona, msg.sender, hash) */\n      mload(0x40)\n      tag_20\n      swap5\n      swap4\n      swap3\n      swap2\n      swap1\n      jump(tag_21)\n    tag_20:\n      mload(0x40)\n      dup1\n      swap2\n      sub\n      swap1\n      log1\n        /* \"Funciones/eventos.sol\":635:895  function emitirEvento3(string memory _nombrePersona, uint _edadPersona) public {\r... */\n      pop\n      pop\n      pop\n      jump\t// out\n        /* \"Funciones/eventos.sol\":358:472  function emitirEvento1(string memory _nombrePersona) public {\r... */\n    tag_13:\n        /* \"Funciones/eventos.sol\":434:464  nombre_evento1(_nombrePersona) */\n      0x5007d59453ebcd951519cabd56f016d29fe2390892307189bde962ced3d34094\n        /* \"Funciones/eventos.sol\":449:463  _nombrePersona */\n      dup2\n        /* \"Funciones/eventos.sol\":434:464  nombre_evento1(_nombrePersona) */\n      mload(0x40)\n      tag_23\n      swap2\n      swap1\n      jump(tag_24)\n    tag_23:\n      mload(0x40)\n      dup1\n      swap2\n      sub\n      swap1\n      log1\n        /* \"Funciones/eventos.sol\":358:472  function emitirEvento1(string memory _nombrePersona) public {\r... */\n      pop\n      jump\t// out\n        /* \"Funciones/eventos.sol\":480:627  function emitirEvento2(string memory _nombrePersona, uint _edadPersona) public {\r... */\n    tag_16:\n        /* \"Funciones/eventos.sol\":575:619  nombre_evento2(_nombrePersona, _edadPersona) */\n      0x7556e8345a443b754c690a14b2cd91df7aec27fbd662a660dd25d647f4732ed1\n        /* \"Funciones/eventos.sol\":590:604  _nombrePersona */\n      dup3\n        /* \"Funciones/eventos.sol\":606:618  _edadPersona */\n      dup3\n        /* \"Funciones/eventos.sol\":575:619  nombre_evento2(_nombrePersona, _edadPersona) */\n      mload(0x40)\n      tag_26\n      swap3\n      swap2\n      swap1\n      jump(tag_27)\n    tag_26:\n      mload(0x40)\n      dup1\n      swap2\n      sub\n      swap1\n      log1\n        /* \"Funciones/eventos.sol\":480:627  function emitirEvento2(string memory _nombrePersona, uint _edadPersona) public {\r... */\n      pop\n      pop\n      jump\t// out\n        /* \"--CODEGEN--\":6:448   */\n    tag_29:\n      0x00\n        /* \"--CODEGEN--\":108:111   */\n      dup3\n        /* \"--CODEGEN--\":101:105   */\n      0x1f\n        /* \"--CODEGEN--\":93:99   */\n      dup4\n        /* \"--CODEGEN--\":89:106   */\n      add\n        /* \"--CODEGEN--\":85:112   */\n      slt\n        /* \"--CODEGEN--\":75:77   */\n      tag_31\n      jumpi\n        /* \"--CODEGEN--\":126:127   */\n      0x00\n        /* \"--CODEGEN--\":123:124   */\n      dup1\n        /* \"--CODEGEN--\":116:128   */\n      revert\n        /* \"--CODEGEN--\":75:77   */\n    tag_31:\n        /* \"--CODEGEN--\":163:169   */\n      dup2\n        /* \"--CODEGEN--\":150:170   */\n      calldataload\n        /* \"--CODEGEN--\":185:250   */\n      tag_32\n        /* \"--CODEGEN--\":200:249   */\n      tag_33\n        /* \"--CODEGEN--\":242:248   */\n      dup3\n        /* \"--CODEGEN--\":200:249   */\n      jump(tag_34)\n    tag_33:\n        /* \"--CODEGEN--\":185:250   */\n      jump(tag_35)\n    tag_32:\n        /* \"--CODEGEN--\":176:250   */\n      swap2\n      pop\n        /* \"--CODEGEN--\":270:276   */\n      dup1\n        /* \"--CODEGEN--\":263:268   */\n      dup3\n        /* \"--CODEGEN--\":256:277   */\n      mstore\n        /* \"--CODEGEN--\":306:310   */\n      0x20\n        /* \"--CODEGEN--\":298:304   */\n      dup4\n        /* \"--CODEGEN--\":294:311   */\n      add\n        /* \"--CODEGEN--\":339:343   */\n      0x20\n        /* \"--CODEGEN--\":332:337   */\n      dup4\n        /* \"--CODEGEN--\":328:344   */\n      add\n        /* \"--CODEGEN--\":374:377   */\n      dup6\n        /* \"--CODEGEN--\":365:371   */\n      dup4\n        /* \"--CODEGEN--\":360:363   */\n      dup4\n        /* \"--CODEGEN--\":356:372   */\n      add\n        /* \"--CODEGEN--\":353:378   */\n      gt\n        /* \"--CODEGEN--\":350:352   */\n      iszero\n      tag_36\n      jumpi\n        /* \"--CODEGEN--\":391:392   */\n      0x00\n        /* \"--CODEGEN--\":388:389   */\n      dup1\n        /* \"--CODEGEN--\":381:393   */\n      revert\n        /* \"--CODEGEN--\":350:352   */\n    tag_36:\n        /* \"--CODEGEN--\":401:442   */\n      tag_37\n        /* \"--CODEGEN--\":435:441   */\n      dup4\n        /* \"--CODEGEN--\":430:433   */\n      dup3\n        /* \"--CODEGEN--\":425:428   */\n      dup5\n        /* \"--CODEGEN--\":401:442   */\n      jump(tag_38)\n    tag_37:\n        /* \"--CODEGEN--\":68:448   */\n      pop\n      pop\n      pop\n      swap3\n      swap2\n      pop\n      pop\n      jump\n        /* \"--CODEGEN--\":456:586   */\n    tag_39:\n      0x00\n        /* \"--CODEGEN--\":536:542   */\n      dup2\n        /* \"--CODEGEN--\":523:543   */\n      calldataload\n        /* \"--CODEGEN--\":514:543   */\n      swap1\n      pop\n        /* \"--CODEGEN--\":548:581   */\n      tag_41\n        /* \"--CODEGEN--\":575:580   */\n      dup2\n        /* \"--CODEGEN--\":548:581   */\n      jump(tag_42)\n    tag_41:\n        /* \"--CODEGEN--\":508:586   */\n      swap3\n      swap2\n      pop\n      pop\n      jump\n        /* \"--CODEGEN--\":593:940   */\n    tag_12:\n      0x00\n        /* \"--CODEGEN--\":707:709   */\n      0x20\n        /* \"--CODEGEN--\":695:704   */\n      dup3\n        /* \"--CODEGEN--\":686:693   */\n      dup5\n        /* \"--CODEGEN--\":682:705   */\n      sub\n        /* \"--CODEGEN--\":678:710   */\n      slt\n        /* \"--CODEGEN--\":675:677   */\n      iszero\n      tag_44\n      jumpi\n        /* \"--CODEGEN--\":723:724   */\n      0x00\n        /* \"--CODEGEN--\":720:721   */\n      dup1\n        /* \"--CODEGEN--\":713:725   */\n      revert\n        /* \"--CODEGEN--\":675:677   */\n    tag_44:\n        /* \"--CODEGEN--\":786:787   */\n      0x00\n        /* \"--CODEGEN--\":775:784   */\n      dup3\n        /* \"--CODEGEN--\":771:788   */\n      add\n        /* \"--CODEGEN--\":758:789   */\n      calldataload\n        /* \"--CODEGEN--\":809:827   */\n      0xffffffffffffffff\n        /* \"--CODEGEN--\":801:807   */\n      dup2\n        /* \"--CODEGEN--\":798:828   */\n      gt\n        /* \"--CODEGEN--\":795:797   */\n      iszero\n      tag_45\n      jumpi\n        /* \"--CODEGEN--\":841:842   */\n      0x00\n        /* \"--CODEGEN--\":838:839   */\n      dup1\n        /* \"--CODEGEN--\":831:843   */\n      revert\n        /* \"--CODEGEN--\":795:797   */\n    tag_45:\n        /* \"--CODEGEN--\":861:924   */\n      tag_46\n        /* \"--CODEGEN--\":916:923   */\n      dup5\n        /* \"--CODEGEN--\":907:913   */\n      dup3\n        /* \"--CODEGEN--\":896:905   */\n      dup6\n        /* \"--CODEGEN--\":892:914   */\n      add\n        /* \"--CODEGEN--\":861:924   */\n      jump(tag_29)\n    tag_46:\n        /* \"--CODEGEN--\":851:924   */\n      swap2\n      pop\n        /* \"--CODEGEN--\":737:930   */\n      pop\n        /* \"--CODEGEN--\":669:940   */\n      swap3\n      swap2\n      pop\n      pop\n      jump\n        /* \"--CODEGEN--\":947:1419   */\n    tag_8:\n      0x00\n      dup1\n        /* \"--CODEGEN--\":1078:1080   */\n      0x40\n        /* \"--CODEGEN--\":1066:1075   */\n      dup4\n        /* \"--CODEGEN--\":1057:1064   */\n      dup6\n        /* \"--CODEGEN--\":1053:1076   */\n      sub\n        /* \"--CODEGEN--\":1049:1081   */\n      slt\n        /* \"--CODEGEN--\":1046:1048   */\n      iszero\n      tag_48\n      jumpi\n        /* \"--CODEGEN--\":1094:1095   */\n      0x00\n        /* \"--CODEGEN--\":1091:1092   */\n      dup1\n        /* \"--CODEGEN--\":1084:1096   */\n      revert\n        /* \"--CODEGEN--\":1046:1048   */\n    tag_48:\n        /* \"--CODEGEN--\":1157:1158   */\n      0x00\n        /* \"--CODEGEN--\":1146:1155   */\n      dup4\n        /* \"--CODEGEN--\":1142:1159   */\n      add\n        /* \"--CODEGEN--\":1129:1160   */\n      calldataload\n        /* \"--CODEGEN--\":1180:1198   */\n      0xffffffffffffffff\n        /* \"--CODEGEN--\":1172:1178   */\n      dup2\n        /* \"--CODEGEN--\":1169:1199   */\n      gt\n        /* \"--CODEGEN--\":1166:1168   */\n      iszero\n      tag_49\n      jumpi\n        /* \"--CODEGEN--\":1212:1213   */\n      0x00\n        /* \"--CODEGEN--\":1209:1210   */\n      dup1\n        /* \"--CODEGEN--\":1202:1214   */\n      revert\n        /* \"--CODEGEN--\":1166:1168   */\n    tag_49:\n        /* \"--CODEGEN--\":1232:1295   */\n      tag_50\n        /* \"--CODEGEN--\":1287:1294   */\n      dup6\n        /* \"--CODEGEN--\":1278:1284   */\n      dup3\n        /* \"--CODEGEN--\":1267:1276   */\n      dup7\n        /* \"--CODEGEN--\":1263:1285   */\n      add\n        /* \"--CODEGEN--\":1232:1295   */\n      jump(tag_29)\n    tag_50:\n        /* \"--CODEGEN--\":1222:1295   */\n      swap3\n      pop\n        /* \"--CODEGEN--\":1108:1301   */\n      pop\n        /* \"--CODEGEN--\":1332:1334   */\n      0x20\n        /* \"--CODEGEN--\":1350:1403   */\n      tag_51\n        /* \"--CODEGEN--\":1395:1402   */\n      dup6\n        /* \"--CODEGEN--\":1386:1392   */\n      dup3\n        /* \"--CODEGEN--\":1375:1384   */\n      dup7\n        /* \"--CODEGEN--\":1371:1393   */\n      add\n        /* \"--CODEGEN--\":1350:1403   */\n      jump(tag_39)\n    tag_51:\n        /* \"--CODEGEN--\":1340:1403   */\n      swap2\n      pop\n        /* \"--CODEGEN--\":1311:1409   */\n      pop\n        /* \"--CODEGEN--\":1040:1419   */\n      swap3\n      pop\n      swap3\n      swap1\n      pop\n      jump\n        /* \"--CODEGEN--\":1426:1568   */\n    tag_52:\n        /* \"--CODEGEN--\":1517:1562   */\n      tag_54\n        /* \"--CODEGEN--\":1556:1561   */\n      dup2\n        /* \"--CODEGEN--\":1517:1562   */\n      jump(tag_55)\n    tag_54:\n        /* \"--CODEGEN--\":1512:1515   */\n      dup3\n        /* \"--CODEGEN--\":1505:1563   */\n      mstore\n        /* \"--CODEGEN--\":1499:1568   */\n      pop\n      pop\n      jump\n        /* \"--CODEGEN--\":1575:1759   */\n    tag_56:\n        /* \"--CODEGEN--\":1692:1753   */\n      tag_58\n        /* \"--CODEGEN--\":1720:1752   */\n      tag_59\n        /* \"--CODEGEN--\":1746:1751   */\n      dup3\n        /* \"--CODEGEN--\":1720:1752   */\n      jump(tag_60)\n    tag_59:\n        /* \"--CODEGEN--\":1692:1753   */\n      jump(tag_61)\n    tag_58:\n        /* \"--CODEGEN--\":1687:1690   */\n      dup3\n        /* \"--CODEGEN--\":1680:1754   */\n      mstore\n        /* \"--CODEGEN--\":1674:1759   */\n      pop\n      pop\n      jump\n        /* \"--CODEGEN--\":1766:1879   */\n    tag_62:\n        /* \"--CODEGEN--\":1849:1873   */\n      tag_64\n        /* \"--CODEGEN--\":1867:1872   */\n      dup2\n        /* \"--CODEGEN--\":1849:1873   */\n      jump(tag_65)\n    tag_64:\n        /* \"--CODEGEN--\":1844:1847   */\n      dup3\n        /* \"--CODEGEN--\":1837:1874   */\n      mstore\n        /* \"--CODEGEN--\":1831:1879   */\n      pop\n      pop\n      jump\n        /* \"--CODEGEN--\":1886:2233   */\n    tag_66:\n      0x00\n        /* \"--CODEGEN--\":1998:2037   */\n      tag_68\n        /* \"--CODEGEN--\":2031:2036   */\n      dup3\n        /* \"--CODEGEN--\":1998:2037   */\n      jump(tag_69)\n    tag_68:\n        /* \"--CODEGEN--\":2049:2120   */\n      tag_70\n        /* \"--CODEGEN--\":2113:2119   */\n      dup2\n        /* \"--CODEGEN--\":2108:2111   */\n      dup6\n        /* \"--CODEGEN--\":2049:2120   */\n      jump(tag_71)\n    tag_70:\n        /* \"--CODEGEN--\":2042:2120   */\n      swap4\n      pop\n        /* \"--CODEGEN--\":2125:2177   */\n      tag_72\n        /* \"--CODEGEN--\":2170:2176   */\n      dup2\n        /* \"--CODEGEN--\":2165:2168   */\n      dup6\n        /* \"--CODEGEN--\":2158:2162   */\n      0x20\n        /* \"--CODEGEN--\":2151:2156   */\n      dup7\n        /* \"--CODEGEN--\":2147:2163   */\n      add\n        /* \"--CODEGEN--\":2125:2177   */\n      jump(tag_73)\n    tag_72:\n        /* \"--CODEGEN--\":2198:2227   */\n      tag_74\n        /* \"--CODEGEN--\":2220:2226   */\n      dup2\n        /* \"--CODEGEN--\":2198:2227   */\n      jump(tag_75)\n    tag_74:\n        /* \"--CODEGEN--\":2193:2196   */\n      dup5\n        /* \"--CODEGEN--\":2189:2228   */\n      add\n        /* \"--CODEGEN--\":2182:2228   */\n      swap2\n      pop\n        /* \"--CODEGEN--\":1978:2233   */\n      pop\n      swap3\n      swap2\n      pop\n      pop\n      jump\n        /* \"--CODEGEN--\":2240:2600   */\n    tag_76:\n      0x00\n        /* \"--CODEGEN--\":2370:2409   */\n      tag_78\n        /* \"--CODEGEN--\":2403:2408   */\n      dup3\n        /* \"--CODEGEN--\":2370:2409   */\n      jump(tag_69)\n    tag_78:\n        /* \"--CODEGEN--\":2421:2510   */\n      tag_79\n        /* \"--CODEGEN--\":2503:2509   */\n      dup2\n        /* \"--CODEGEN--\":2498:2501   */\n      dup6\n        /* \"--CODEGEN--\":2421:2510   */\n      jump(tag_80)\n    tag_79:\n        /* \"--CODEGEN--\":2414:2510   */\n      swap4\n      pop\n        /* \"--CODEGEN--\":2515:2567   */\n      tag_81\n        /* \"--CODEGEN--\":2560:2566   */\n      dup2\n        /* \"--CODEGEN--\":2555:2558   */\n      dup6\n        /* \"--CODEGEN--\":2548:2552   */\n      0x20\n        /* \"--CODEGEN--\":2541:2546   */\n      dup7\n        /* \"--CODEGEN--\":2537:2553   */\n      add\n        /* \"--CODEGEN--\":2515:2567   */\n      jump(tag_73)\n    tag_81:\n        /* \"--CODEGEN--\":2588:2594   */\n      dup1\n        /* \"--CODEGEN--\":2583:2586   */\n      dup5\n        /* \"--CODEGEN--\":2579:2595   */\n      add\n        /* \"--CODEGEN--\":2572:2595   */\n      swap2\n      pop\n        /* \"--CODEGEN--\":2350:2600   */\n      pop\n      swap3\n      swap2\n      pop\n      pop\n      jump\n        /* \"--CODEGEN--\":2607:2720   */\n    tag_82:\n        /* \"--CODEGEN--\":2690:2714   */\n      tag_84\n        /* \"--CODEGEN--\":2708:2713   */\n      dup2\n        /* \"--CODEGEN--\":2690:2714   */\n      jump(tag_85)\n    tag_84:\n        /* \"--CODEGEN--\":2685:2688   */\n      dup3\n        /* \"--CODEGEN--\":2678:2715   */\n      mstore\n        /* \"--CODEGEN--\":2672:2720   */\n      pop\n      pop\n      jump\n        /* \"--CODEGEN--\":2727:2879   */\n    tag_86:\n        /* \"--CODEGEN--\":2828:2873   */\n      tag_88\n        /* \"--CODEGEN--\":2848:2872   */\n      tag_89\n        /* \"--CODEGEN--\":2866:2871   */\n      dup3\n        /* \"--CODEGEN--\":2848:2872   */\n      jump(tag_85)\n    tag_89:\n        /* \"--CODEGEN--\":2828:2873   */\n      jump(tag_90)\n    tag_88:\n        /* \"--CODEGEN--\":2823:2826   */\n      dup3\n        /* \"--CODEGEN--\":2816:2874   */\n      mstore\n        /* \"--CODEGEN--\":2810:2879   */\n      pop\n      pop\n      jump\n        /* \"--CODEGEN--\":2886:3462   */\n    tag_19:\n      0x00\n        /* \"--CODEGEN--\":3104:3199   */\n      tag_92\n        /* \"--CODEGEN--\":3195:3198   */\n      dup3\n        /* \"--CODEGEN--\":3186:3192   */\n      dup7\n        /* \"--CODEGEN--\":3104:3199   */\n      jump(tag_76)\n    tag_92:\n        /* \"--CODEGEN--\":3097:3199   */\n      swap2\n      pop\n        /* \"--CODEGEN--\":3210:3285   */\n      tag_93\n        /* \"--CODEGEN--\":3281:3284   */\n      dup3\n        /* \"--CODEGEN--\":3272:3278   */\n      dup6\n        /* \"--CODEGEN--\":3210:3285   */\n      jump(tag_86)\n    tag_93:\n        /* \"--CODEGEN--\":3307:3309   */\n      0x20\n        /* \"--CODEGEN--\":3302:3305   */\n      dup3\n        /* \"--CODEGEN--\":3298:3310   */\n      add\n        /* \"--CODEGEN--\":3291:3310   */\n      swap2\n      pop\n        /* \"--CODEGEN--\":3321:3412   */\n      tag_94\n        /* \"--CODEGEN--\":3408:3411   */\n      dup3\n        /* \"--CODEGEN--\":3399:3405   */\n      dup5\n        /* \"--CODEGEN--\":3321:3412   */\n      jump(tag_56)\n    tag_94:\n        /* \"--CODEGEN--\":3434:3436   */\n      0x14\n        /* \"--CODEGEN--\":3429:3432   */\n      dup3\n        /* \"--CODEGEN--\":3425:3437   */\n      add\n        /* \"--CODEGEN--\":3418:3437   */\n      swap2\n      pop\n        /* \"--CODEGEN--\":3454:3457   */\n      dup2\n        /* \"--CODEGEN--\":3447:3457   */\n      swap1\n      pop\n        /* \"--CODEGEN--\":3085:3462   */\n      swap5\n      swap4\n      pop\n      pop\n      pop\n      pop\n      jump\n        /* \"--CODEGEN--\":3469:3770   */\n    tag_24:\n      0x00\n        /* \"--CODEGEN--\":3607:3609   */\n      0x20\n        /* \"--CODEGEN--\":3596:3605   */\n      dup3\n        /* \"--CODEGEN--\":3592:3610   */\n      add\n        /* \"--CODEGEN--\":3584:3610   */\n      swap1\n      pop\n        /* \"--CODEGEN--\":3657:3666   */\n      dup2\n        /* \"--CODEGEN--\":3651:3655   */\n      dup2\n        /* \"--CODEGEN--\":3647:3667   */\n      sub\n        /* \"--CODEGEN--\":3643:3644   */\n      0x00\n        /* \"--CODEGEN--\":3632:3641   */\n      dup4\n        /* \"--CODEGEN--\":3628:3645   */\n      add\n        /* \"--CODEGEN--\":3621:3668   */\n      mstore\n        /* \"--CODEGEN--\":3682:3760   */\n      tag_96\n        /* \"--CODEGEN--\":3755:3759   */\n      dup2\n        /* \"--CODEGEN--\":3746:3752   */\n      dup5\n        /* \"--CODEGEN--\":3682:3760   */\n      jump(tag_66)\n    tag_96:\n        /* \"--CODEGEN--\":3674:3760   */\n      swap1\n      pop\n        /* \"--CODEGEN--\":3578:3770   */\n      swap3\n      swap2\n      pop\n      pop\n      jump\n        /* \"--CODEGEN--\":3777:4189   */\n    tag_27:\n      0x00\n        /* \"--CODEGEN--\":3943:3945   */\n      0x40\n        /* \"--CODEGEN--\":3932:3941   */\n      dup3\n        /* \"--CODEGEN--\":3928:3946   */\n      add\n        /* \"--CODEGEN--\":3920:3946   */\n      swap1\n      pop\n        /* \"--CODEGEN--\":3993:4002   */\n      dup2\n        /* \"--CODEGEN--\":3987:3991   */\n      dup2\n        /* \"--CODEGEN--\":3983:4003   */\n      sub\n        /* \"--CODEGEN--\":3979:3980   */\n      0x00\n        /* \"--CODEGEN--\":3968:3977   */\n      dup4\n        /* \"--CODEGEN--\":3964:3981   */\n      add\n        /* \"--CODEGEN--\":3957:4004   */\n      mstore\n        /* \"--CODEGEN--\":4018:4096   */\n      tag_98\n        /* \"--CODEGEN--\":4091:4095   */\n      dup2\n        /* \"--CODEGEN--\":4082:4088   */\n      dup6\n        /* \"--CODEGEN--\":4018:4096   */\n      jump(tag_66)\n    tag_98:\n        /* \"--CODEGEN--\":4010:4096   */\n      swap1\n      pop\n        /* \"--CODEGEN--\":4107:4179   */\n      tag_99\n        /* \"--CODEGEN--\":4175:4177   */\n      0x20\n        /* \"--CODEGEN--\":4164:4173   */\n      dup4\n        /* \"--CODEGEN--\":4160:4178   */\n      add\n        /* \"--CODEGEN--\":4151:4157   */\n      dup5\n        /* \"--CODEGEN--\":4107:4179   */\n      jump(tag_82)\n    tag_99:\n        /* \"--CODEGEN--\":3914:4189   */\n      swap4\n      swap3\n      pop\n      pop\n      pop\n      jump\n        /* \"--CODEGEN--\":4196:4847   */\n    tag_21:\n      0x00\n        /* \"--CODEGEN--\":4426:4429   */\n      0x80\n        /* \"--CODEGEN--\":4415:4424   */\n      dup3\n        /* \"--CODEGEN--\":4411:4430   */\n      add\n        /* \"--CODEGEN--\":4403:4430   */\n      swap1\n      pop\n        /* \"--CODEGEN--\":4477:4486   */\n      dup2\n        /* \"--CODEGEN--\":4471:4475   */\n      dup2\n        /* \"--CODEGEN--\":4467:4487   */\n      sub\n        /* \"--CODEGEN--\":4463:4464   */\n      0x00\n        /* \"--CODEGEN--\":4452:4461   */\n      dup4\n        /* \"--CODEGEN--\":4448:4465   */\n      add\n        /* \"--CODEGEN--\":4441:4488   */\n      mstore\n        /* \"--CODEGEN--\":4502:4580   */\n      tag_101\n        /* \"--CODEGEN--\":4575:4579   */\n      dup2\n        /* \"--CODEGEN--\":4566:4572   */\n      dup8\n        /* \"--CODEGEN--\":4502:4580   */\n      jump(tag_66)\n    tag_101:\n        /* \"--CODEGEN--\":4494:4580   */\n      swap1\n      pop\n        /* \"--CODEGEN--\":4591:4663   */\n      tag_102\n        /* \"--CODEGEN--\":4659:4661   */\n      0x20\n        /* \"--CODEGEN--\":4648:4657   */\n      dup4\n        /* \"--CODEGEN--\":4644:4662   */\n      add\n        /* \"--CODEGEN--\":4635:4641   */\n      dup7\n        /* \"--CODEGEN--\":4591:4663   */\n      jump(tag_82)\n    tag_102:\n        /* \"--CODEGEN--\":4674:4754   */\n      tag_103\n        /* \"--CODEGEN--\":4750:4752   */\n      0x40\n        /* \"--CODEGEN--\":4739:4748   */\n      dup4\n        /* \"--CODEGEN--\":4735:4753   */\n      add\n        /* \"--CODEGEN--\":4726:4732   */\n      dup6\n        /* \"--CODEGEN--\":4674:4754   */\n      jump(tag_52)\n    tag_103:\n        /* \"--CODEGEN--\":4765:4837   */\n      tag_104\n        /* \"--CODEGEN--\":4833:4835   */\n      0x60\n        /* \"--CODEGEN--\":4822:4831   */\n      dup4\n        /* \"--CODEGEN--\":4818:4836   */\n      add\n        /* \"--CODEGEN--\":4809:4815   */\n      dup5\n        /* \"--CODEGEN--\":4765:4837   */\n      jump(tag_62)\n    tag_104:\n        /* \"--CODEGEN--\":4397:4847   */\n      swap6\n      swap5\n      pop\n      pop\n      pop\n      pop\n      pop\n      jump\n        /* \"--CODEGEN--\":4854:5110   */\n    tag_35:\n      0x00\n        /* \"--CODEGEN--\":4916:4918   */\n      0x40\n        /* \"--CODEGEN--\":4910:4919   */\n      mload\n        /* \"--CODEGEN--\":4900:4919   */\n      swap1\n      pop\n        /* \"--CODEGEN--\":4954:4958   */\n      dup2\n        /* \"--CODEGEN--\":4946:4952   */\n      dup2\n        /* \"--CODEGEN--\":4942:4959   */\n      add\n        /* \"--CODEGEN--\":5053:5059   */\n      dup2\n        /* \"--CODEGEN--\":5041:5051   */\n      dup2\n        /* \"--CODEGEN--\":5038:5060   */\n      lt\n        /* \"--CODEGEN--\":5017:5035   */\n      0xffffffffffffffff\n        /* \"--CODEGEN--\":5005:5015   */\n      dup3\n        /* \"--CODEGEN--\":5002:5036   */\n      gt\n        /* \"--CODEGEN--\":4999:5061   */\n      or\n        /* \"--CODEGEN--\":4996:4998   */\n      iszero\n      tag_106\n      jumpi\n        /* \"--CODEGEN--\":5074:5075   */\n      0x00\n        /* \"--CODEGEN--\":5071:5072   */\n      dup1\n        /* \"--CODEGEN--\":5064:5076   */\n      revert\n        /* \"--CODEGEN--\":4996:4998   */\n    tag_106:\n        /* \"--CODEGEN--\":5094:5104   */\n      dup1\n        /* \"--CODEGEN--\":5090:5092   */\n      0x40\n        /* \"--CODEGEN--\":5083:5105   */\n      mstore\n        /* \"--CODEGEN--\":4894:5110   */\n      pop\n      swap2\n      swap1\n      pop\n      jump\n        /* \"--CODEGEN--\":5117:5439   */\n    tag_34:\n      0x00\n        /* \"--CODEGEN--\":5261:5279   */\n      0xffffffffffffffff\n        /* \"--CODEGEN--\":5253:5259   */\n      dup3\n        /* \"--CODEGEN--\":5250:5280   */\n      gt\n        /* \"--CODEGEN--\":5247:5249   */\n      iszero\n      tag_108\n      jumpi\n        /* \"--CODEGEN--\":5293:5294   */\n      0x00\n        /* \"--CODEGEN--\":5290:5291   */\n      dup1\n        /* \"--CODEGEN--\":5283:5295   */\n      revert\n        /* \"--CODEGEN--\":5247:5249   */\n    tag_108:\n        /* \"--CODEGEN--\":5360:5364   */\n      0x1f\n        /* \"--CODEGEN--\":5356:5365   */\n      not\n        /* \"--CODEGEN--\":5349:5353   */\n      0x1f\n        /* \"--CODEGEN--\":5341:5347   */\n      dup4\n        /* \"--CODEGEN--\":5337:5354   */\n      add\n        /* \"--CODEGEN--\":5333:5366   */\n      and\n        /* \"--CODEGEN--\":5325:5366   */\n      swap1\n      pop\n        /* \"--CODEGEN--\":5424:5428   */\n      0x20\n        /* \"--CODEGEN--\":5418:5422   */\n      dup2\n        /* \"--CODEGEN--\":5414:5429   */\n      add\n        /* \"--CODEGEN--\":5406:5429   */\n      swap1\n      pop\n        /* \"--CODEGEN--\":5184:5439   */\n      swap2\n      swap1\n      pop\n      jump\n        /* \"--CODEGEN--\":5446:5568   */\n    tag_69:\n      0x00\n        /* \"--CODEGEN--\":5540:5545   */\n      dup2\n        /* \"--CODEGEN--\":5534:5546   */\n      mload\n        /* \"--CODEGEN--\":5524:5546   */\n      swap1\n      pop\n        /* \"--CODEGEN--\":5505:5568   */\n      swap2\n      swap1\n      pop\n      jump\n        /* \"--CODEGEN--\":5576:5739   */\n    tag_71:\n      0x00\n        /* \"--CODEGEN--\":5691:5697   */\n      dup3\n        /* \"--CODEGEN--\":5686:5689   */\n      dup3\n        /* \"--CODEGEN--\":5679:5698   */\n      mstore\n        /* \"--CODEGEN--\":5728:5732   */\n      0x20\n        /* \"--CODEGEN--\":5723:5726   */\n      dup3\n        /* \"--CODEGEN--\":5719:5733   */\n      add\n        /* \"--CODEGEN--\":5704:5733   */\n      swap1\n      pop\n        /* \"--CODEGEN--\":5672:5739   */\n      swap3\n      swap2\n      pop\n      pop\n      jump\n        /* \"--CODEGEN--\":5748:5893   */\n    tag_80:\n      0x00\n        /* \"--CODEGEN--\":5884:5887   */\n      dup2\n        /* \"--CODEGEN--\":5869:5887   */\n      swap1\n      pop\n        /* \"--CODEGEN--\":5862:5893   */\n      swap3\n      swap2\n      pop\n      pop\n      jump\n        /* \"--CODEGEN--\":5901:6000   */\n    tag_60:\n      0x00\n        /* \"--CODEGEN--\":5971:5995   */\n      tag_113\n        /* \"--CODEGEN--\":5989:5994   */\n      dup3\n        /* \"--CODEGEN--\":5971:5995   */\n      jump(tag_114)\n    tag_113:\n        /* \"--CODEGEN--\":5960:5995   */\n      swap1\n      pop\n        /* \"--CODEGEN--\":5954:6000   */\n      swap2\n      swap1\n      pop\n      jump\n        /* \"--CODEGEN--\":6007:6079   */\n    tag_65:\n      0x00\n        /* \"--CODEGEN--\":6069:6074   */\n      dup2\n        /* \"--CODEGEN--\":6058:6074   */\n      swap1\n      pop\n        /* \"--CODEGEN--\":6052:6079   */\n      swap2\n      swap1\n      pop\n      jump\n        /* \"--CODEGEN--\":6086:6207   */\n    tag_114:\n      0x00\n        /* \"--CODEGEN--\":6159:6201   */\n      0xffffffffffffffffffffffffffffffffffffffff\n        /* \"--CODEGEN--\":6152:6157   */\n      dup3\n        /* \"--CODEGEN--\":6148:6202   */\n      and\n        /* \"--CODEGEN--\":6137:6202   */\n      swap1\n      pop\n        /* \"--CODEGEN--\":6131:6207   */\n      swap2\n      swap1\n      pop\n      jump\n        /* \"--CODEGEN--\":6214:6286   */\n    tag_85:\n      0x00\n        /* \"--CODEGEN--\":6276:6281   */\n      dup2\n        /* \"--CODEGEN--\":6265:6281   */\n      swap1\n      pop\n        /* \"--CODEGEN--\":6259:6286   */\n      swap2\n      swap1\n      pop\n      jump\n        /* \"--CODEGEN--\":6293:6422   */\n    tag_55:\n      0x00\n        /* \"--CODEGEN--\":6380:6417   */\n      tag_119\n        /* \"--CODEGEN--\":6411:6416   */\n      dup3\n        /* \"--CODEGEN--\":6380:6417   */\n      jump(tag_120)\n    tag_119:\n        /* \"--CODEGEN--\":6367:6417   */\n      swap1\n      pop\n        /* \"--CODEGEN--\":6361:6422   */\n      swap2\n      swap1\n      pop\n      jump\n        /* \"--CODEGEN--\":6429:6550   */\n    tag_120:\n      0x00\n        /* \"--CODEGEN--\":6508:6545   */\n      tag_122\n        /* \"--CODEGEN--\":6539:6544   */\n      dup3\n        /* \"--CODEGEN--\":6508:6545   */\n      jump(tag_123)\n    tag_122:\n        /* \"--CODEGEN--\":6495:6545   */\n      swap1\n      pop\n        /* \"--CODEGEN--\":6489:6550   */\n      swap2\n      swap1\n      pop\n      jump\n        /* \"--CODEGEN--\":6557:6665   */\n    tag_123:\n      0x00\n        /* \"--CODEGEN--\":6636:6660   */\n      tag_125\n        /* \"--CODEGEN--\":6654:6659   */\n      dup3\n        /* \"--CODEGEN--\":6636:6660   */\n      jump(tag_114)\n    tag_125:\n        /* \"--CODEGEN--\":6623:6660   */\n      swap1\n      pop\n        /* \"--CODEGEN--\":6617:6665   */\n      swap2\n      swap1\n      pop\n      jump\n        /* \"--CODEGEN--\":6673:6818   */\n    tag_38:\n        /* \"--CODEGEN--\":6754:6760   */\n      dup3\n        /* \"--CODEGEN--\":6749:6752   */\n      dup2\n        /* \"--CODEGEN--\":6744:6747   */\n      dup4\n        /* \"--CODEGEN--\":6731:6761   */\n      calldatacopy\n        /* \"--CODEGEN--\":6810:6811   */\n      0x00\n        /* \"--CODEGEN--\":6801:6807   */\n      dup4\n        /* \"--CODEGEN--\":6796:6799   */\n      dup4\n        /* \"--CODEGEN--\":6792:6808   */\n      add\n        /* \"--CODEGEN--\":6785:6812   */\n      mstore\n        /* \"--CODEGEN--\":6724:6818   */\n      pop\n      pop\n      pop\n      jump\n        /* \"--CODEGEN--\":6827:7095   */\n    tag_73:\n        /* \"--CODEGEN--\":6892:6893   */\n      0x00\n        /* \"--CODEGEN--\":6899:7000   */\n    tag_128:\n        /* \"--CODEGEN--\":6913:6919   */\n      dup4\n        /* \"--CODEGEN--\":6910:6911   */\n      dup2\n        /* \"--CODEGEN--\":6907:6920   */\n      lt\n        /* \"--CODEGEN--\":6899:7000   */\n      iszero\n      tag_130\n      jumpi\n        /* \"--CODEGEN--\":6989:6990   */\n      dup1\n        /* \"--CODEGEN--\":6984:6987   */\n      dup3\n        /* \"--CODEGEN--\":6980:6991   */\n      add\n        /* \"--CODEGEN--\":6974:6992   */\n      mload\n        /* \"--CODEGEN--\":6970:6971   */\n      dup2\n        /* \"--CODEGEN--\":6965:6968   */\n      dup5\n        /* \"--CODEGEN--\":6961:6972   */\n      add\n        /* \"--CODEGEN--\":6954:6993   */\n      mstore\n        /* \"--CODEGEN--\":6935:6937   */\n      0x20\n        /* \"--CODEGEN--\":6932:6933   */\n      dup2\n        /* \"--CODEGEN--\":6928:6938   */\n      add\n        /* \"--CODEGEN--\":6923:6938   */\n      swap1\n      pop\n        /* \"--CODEGEN--\":6899:7000   */\n      jump(tag_128)\n    tag_130:\n        /* \"--CODEGEN--\":7015:7021   */\n      dup4\n        /* \"--CODEGEN--\":7012:7013   */\n      dup2\n        /* \"--CODEGEN--\":7009:7022   */\n      gt\n        /* \"--CODEGEN--\":7006:7008   */\n      iszero\n      tag_131\n      jumpi\n        /* \"--CODEGEN--\":7080:7081   */\n      0x00\n        /* \"--CODEGEN--\":7071:7077   */\n      dup5\n        /* \"--CODEGEN--\":7066:7069   */\n      dup5\n        /* \"--CODEGEN--\":7062:7078   */\n      add\n        /* \"--CODEGEN--\":7055:7082   */\n      mstore\n        /* \"--CODEGEN--\":7006:7008   */\n    tag_131:\n        /* \"--CODEGEN--\":6876:7095   */\n      pop\n      pop\n      pop\n      pop\n      jump\n        /* \"--CODEGEN--\":7103:7206   */\n    tag_61:\n      0x00\n        /* \"--CODEGEN--\":7175:7201   */\n      tag_133\n        /* \"--CODEGEN--\":7195:7200   */\n      dup3\n        /* \"--CODEGEN--\":7175:7201   */\n      jump(tag_134)\n    tag_133:\n        /* \"--CODEGEN--\":7164:7201   */\n      swap1\n      pop\n        /* \"--CODEGEN--\":7158:7206   */\n      swap2\n      swap1\n      pop\n      jump\n        /* \"--CODEGEN--\":7213:7302   */\n    tag_134:\n      0x00\n        /* \"--CODEGEN--\":7277:7297   */\n      tag_136\n        /* \"--CODEGEN--\":7291:7296   */\n      dup3\n        /* \"--CODEGEN--\":7277:7297   */\n      jump(tag_137)\n    tag_136:\n        /* \"--CODEGEN--\":7266:7297   */\n      swap1\n      pop\n        /* \"--CODEGEN--\":7260:7302   */\n      swap2\n      swap1\n      pop\n      jump\n        /* \"--CODEGEN--\":7309:7383   */\n    tag_90:\n      0x00\n        /* \"--CODEGEN--\":7373:7378   */\n      dup2\n        /* \"--CODEGEN--\":7362:7378   */\n      swap1\n      pop\n        /* \"--CODEGEN--\":7356:7383   */\n      swap2\n      swap1\n      pop\n      jump\n        /* \"--CODEGEN--\":7390:7487   */\n    tag_75:\n      0x00\n        /* \"--CODEGEN--\":7478:7480   */\n      0x1f\n        /* \"--CODEGEN--\":7474:7481   */\n      not\n        /* \"--CODEGEN--\":7469:7471   */\n      0x1f\n        /* \"--CODEGEN--\":7462:7467   */\n      dup4\n        /* \"--CODEGEN--\":7458:7472   */\n      add\n        /* \"--CODEGEN--\":7454:7482   */\n      and\n        /* \"--CODEGEN--\":7444:7482   */\n      swap1\n      pop\n        /* \"--CODEGEN--\":7438:7487   */\n      swap2\n      swap1\n      pop\n      jump\n        /* \"--CODEGEN--\":7495:7589   */\n    tag_137:\n      0x00\n        /* \"--CODEGEN--\":7573:7578   */\n      dup2\n        /* \"--CODEGEN--\":7569:7571   */\n      0x60\n        /* \"--CODEGEN--\":7565:7579   */\n      shl\n        /* \"--CODEGEN--\":7543:7579   */\n      swap1\n      pop\n        /* \"--CODEGEN--\":7537:7589   */\n      swap2\n      swap1\n      pop\n      jump\n        /* \"--CODEGEN--\":7597:7714   */\n    tag_42:\n        /* \"--CODEGEN--\":7666:7690   */\n      tag_142\n        /* \"--CODEGEN--\":7684:7689   */\n      dup2\n        /* \"--CODEGEN--\":7666:7690   */\n      jump(tag_85)\n    tag_142:\n        /* \"--CODEGEN--\":7659:7664   */\n      dup2\n        /* \"--CODEGEN--\":7656:7691   */\n      eq\n        /* \"--CODEGEN--\":7646:7648   */\n      tag_143\n      jumpi\n        /* \"--CODEGEN--\":7705:7706   */\n      0x00\n        /* \"--CODEGEN--\":7702:7703   */\n      dup1\n        /* \"--CODEGEN--\":7695:7707   */\n      revert\n        /* \"--CODEGEN--\":7646:7648   */\n    tag_143:\n        /* \"--CODEGEN--\":7640:7714   */\n      pop\n      jump\n\n    auxdata: 0xa2646970667358221220c667296ede2c4da43edc75d5e96b5372638a1469f35c2c8241d28683586fbf7464736f6c63430006050033\n}\n",
				"bytecode": {
					"linkReferences": {},
					"object": "608060405234801561001057600080fd5b506105f3806100206000396000f3fe608060405234801561001057600080fd5b50600436106100415760003560e01c80636480f5c2146100465780637cf1103d146100625780637f4f0f351461007e575b600080fd5b610060600480360381019061005b919061022c565b61009a565b005b61007c600480360381019061007791906101eb565b61010b565b005b6100986004803603810190610093919061022c565b610145565b005b60008282336040516020016100b193929190610345565b6040516020818303038152906040528051906020012090507fd0ff1ee28f2dbf23f694467b91653073187a19cba2610b37edd759ee2e31a871838333846040516100fe94939291906103d0565b60405180910390a1505050565b7f5007d59453ebcd951519cabd56f016d29fe2390892307189bde962ced3d340948160405161013a919061037e565b60405180910390a150565b7f7556e8345a443b754c690a14b2cd91df7aec27fbd662a660dd25d647f4732ed182826040516101769291906103a0565b60405180910390a15050565b600082601f83011261019357600080fd5b81356101a66101a182610449565b61041c565b915080825260208301602083018583830111156101c257600080fd5b6101cd838284610518565b50505092915050565b6000813590506101e5816105a6565b92915050565b6000602082840312156101fd57600080fd5b600082013567ffffffffffffffff81111561021757600080fd5b61022384828501610182565b91505092915050565b6000806040838503121561023f57600080fd5b600083013567ffffffffffffffff81111561025957600080fd5b61026585828601610182565b9250506020610276858286016101d6565b9150509250929050565b610289816104e2565b82525050565b6102a061029b8261049c565b61055a565b82525050565b6102af816104ae565b82525050565b60006102c082610475565b6102ca8185610480565b93506102da818560208601610527565b6102e381610588565b840191505092915050565b60006102f982610475565b6103038185610491565b9350610313818560208601610527565b80840191505092915050565b610328816104d8565b82525050565b61033f61033a826104d8565b61057e565b82525050565b600061035182866102ee565b915061035d828561032e565b60208201915061036d828461028f565b601482019150819050949350505050565b6000602082019050818103600083015261039881846102b5565b905092915050565b600060408201905081810360008301526103ba81856102b5565b90506103c9602083018461031f565b9392505050565b600060808201905081810360008301526103ea81876102b5565b90506103f9602083018661031f565b6104066040830185610280565b61041360608301846102a6565b95945050505050565b6000604051905081810181811067ffffffffffffffff8211171561043f57600080fd5b8060405250919050565b600067ffffffffffffffff82111561046057600080fd5b601f19601f8301169050602081019050919050565b600081519050919050565b600082825260208201905092915050565b600081905092915050565b60006104a7826104b8565b9050919050565b6000819050919050565b600073ffffffffffffffffffffffffffffffffffffffff82169050919050565b6000819050919050565b60006104ed826104f4565b9050919050565b60006104ff82610506565b9050919050565b6000610511826104b8565b9050919050565b82818337600083830152505050565b60005b8381101561054557808201518184015260208101905061052a565b83811115610554576000848401525b50505050565b60006105658261056c565b9050919050565b600061057782610599565b9050919050565b6000819050919050565b6000601f19601f8301169050919050565b60008160601b9050919050565b6105af816104d8565b81146105ba57600080fd5b5056fea2646970667358221220c667296ede2c4da43edc75d5e96b5372638a1469f35c2c8241d28683586fbf7464736f6c63430006050033",
					"opcodes": "PUSH1 0x80 PUSH1 0x40 MSTORE CALLVALUE DUP1 ISZERO PUSH2 0x10 JUMPI PUSH1 0x0 DUP1 REVERT JUMPDEST POP PUSH2 0x5F3 DUP1 PUSH2 0x20 PUSH1 0x0 CODECOPY PUSH1 0x0 RETURN INVALID PUSH1 0x80 PUSH1 0x40 MSTORE CALLVALUE DUP1 ISZERO PUSH2 0x10 JUMPI PUSH1 0x0 DUP1 REVERT JUMPDEST POP PUSH1 0x4 CALLDATASIZE LT PUSH2 0x41 JUMPI PUSH1 0x0 CALLDATALOAD PUSH1 0xE0 SHR DUP1 PUSH4 0x6480F5C2 EQ PUSH2 0x46 JUMPI DUP1 PUSH4 0x7CF1103D EQ PUSH2 0x62 JUMPI DUP1 PUSH4 0x7F4F0F35 EQ PUSH2 0x7E JUMPI JUMPDEST PUSH1 0x0 DUP1 REVERT JUMPDEST PUSH2 0x60 PUSH1 0x4 DUP1 CALLDATASIZE SUB DUP2 ADD SWAP1 PUSH2 0x5B SWAP2 SWAP1 PUSH2 0x22C JUMP JUMPDEST PUSH2 0x9A JUMP JUMPDEST STOP JUMPDEST PUSH2 0x7C PUSH1 0x4 DUP1 CALLDATASIZE SUB DUP2 ADD SWAP1 PUSH2 0x77 SWAP2 SWAP1 PUSH2 0x1EB JUMP JUMPDEST PUSH2 0x10B JUMP JUMPDEST STOP JUMPDEST PUSH2 0x98 PUSH1 0x4 DUP1 CALLDATASIZE SUB DUP2 ADD SWAP1 PUSH2 0x93 SWAP2 SWAP1 PUSH2 0x22C JUMP JUMPDEST PUSH2 0x145 JUMP JUMPDEST STOP JUMPDEST PUSH1 0x0 DUP3 DUP3 CALLER PUSH1 0x40 MLOAD PUSH1 0x20 ADD PUSH2 0xB1 SWAP4 SWAP3 SWAP2 SWAP1 PUSH2 0x345 JUMP JUMPDEST PUSH1 0x40 MLOAD PUSH1 0x20 DUP2 DUP4 SUB SUB DUP2 MSTORE SWAP1 PUSH1 0x40 MSTORE DUP1 MLOAD SWAP1 PUSH1 0x20 ADD KECCAK256 SWAP1 POP PUSH32 0xD0FF1EE28F2DBF23F694467B91653073187A19CBA2610B37EDD759EE2E31A871 DUP4 DUP4 CALLER DUP5 PUSH1 0x40 MLOAD PUSH2 0xFE SWAP5 SWAP4 SWAP3 SWAP2 SWAP1 PUSH2 0x3D0 JUMP JUMPDEST PUSH1 0x40 MLOAD DUP1 SWAP2 SUB SWAP1 LOG1 POP POP POP JUMP JUMPDEST PUSH32 0x5007D59453EBCD951519CABD56F016D29FE2390892307189BDE962CED3D34094 DUP2 PUSH1 0x40 MLOAD PUSH2 0x13A SWAP2 SWAP1 PUSH2 0x37E JUMP JUMPDEST PUSH1 0x40 MLOAD DUP1 SWAP2 SUB SWAP1 LOG1 POP JUMP JUMPDEST PUSH32 0x7556E8345A443B754C690A14B2CD91DF7AEC27FBD662A660DD25D647F4732ED1 DUP3 DUP3 PUSH1 0x40 MLOAD PUSH2 0x176 SWAP3 SWAP2 SWAP1 PUSH2 0x3A0 JUMP JUMPDEST PUSH1 0x40 MLOAD DUP1 SWAP2 SUB SWAP1 LOG1 POP POP JUMP JUMPDEST PUSH1 0x0 DUP3 PUSH1 0x1F DUP4 ADD SLT PUSH2 0x193 JUMPI PUSH1 0x0 DUP1 REVERT JUMPDEST DUP2 CALLDATALOAD PUSH2 0x1A6 PUSH2 0x1A1 DUP3 PUSH2 0x449 JUMP JUMPDEST PUSH2 0x41C JUMP JUMPDEST SWAP2 POP DUP1 DUP3 MSTORE PUSH1 0x20 DUP4 ADD PUSH1 0x20 DUP4 ADD DUP6 DUP4 DUP4 ADD GT ISZERO PUSH2 0x1C2 JUMPI PUSH1 0x0 DUP1 REVERT JUMPDEST PUSH2 0x1CD DUP4 DUP3 DUP5 PUSH2 0x518 JUMP JUMPDEST POP POP POP SWAP3 SWAP2 POP POP JUMP JUMPDEST PUSH1 0x0 DUP2 CALLDATALOAD SWAP1 POP PUSH2 0x1E5 DUP2 PUSH2 0x5A6 JUMP JUMPDEST SWAP3 SWAP2 POP POP JUMP JUMPDEST PUSH1 0x0 PUSH1 0x20 DUP3 DUP5 SUB SLT ISZERO PUSH2 0x1FD JUMPI PUSH1 0x0 DUP1 REVERT JUMPDEST PUSH1 0x0 DUP3 ADD CALLDATALOAD PUSH8 0xFFFFFFFFFFFFFFFF DUP2 GT ISZERO PUSH2 0x217 JUMPI PUSH1 0x0 DUP1 REVERT JUMPDEST PUSH2 0x223 DUP5 DUP3 DUP6 ADD PUSH2 0x182 JUMP JUMPDEST SWAP2 POP POP SWAP3 SWAP2 POP POP JUMP JUMPDEST PUSH1 0x0 DUP1 PUSH1 0x40 DUP4 DUP6 SUB SLT ISZERO PUSH2 0x23F JUMPI PUSH1 0x0 DUP1 REVERT JUMPDEST PUSH1 0x0 DUP4 ADD CALLDATALOAD PUSH8 0xFFFFFFFFFFFFFFFF DUP2 GT ISZERO PUSH2 0x259 JUMPI PUSH1 0x0 DUP1 REVERT JUMPDEST PUSH2 0x265 DUP6 DUP3 DUP7 ADD PUSH2 0x182 JUMP JUMPDEST SWAP3 POP POP PUSH1 0x20 PUSH2 0x276 DUP6 DUP3 DUP7 ADD PUSH2 0x1D6 JUMP JUMPDEST SWAP2 POP POP SWAP3 POP SWAP3 SWAP1 POP JUMP JUMPDEST PUSH2 0x289 DUP2 PUSH2 0x4E2 JUMP JUMPDEST DUP3 MSTORE POP POP JUMP JUMPDEST PUSH2 0x2A0 PUSH2 0x29B DUP3 PUSH2 0x49C JUMP JUMPDEST PUSH2 0x55A JUMP JUMPDEST DUP3 MSTORE POP POP JUMP JUMPDEST PUSH2 0x2AF DUP2 PUSH2 0x4AE JUMP JUMPDEST DUP3 MSTORE POP POP JUMP JUMPDEST PUSH1 0x0 PUSH2 0x2C0 DUP3 PUSH2 0x475 JUMP JUMPDEST PUSH2 0x2CA DUP2 DUP6 PUSH2 0x480 JUMP JUMPDEST SWAP4 POP PUSH2 0x2DA DUP2 DUP6 PUSH1 0x20 DUP7 ADD PUSH2 0x527 JUMP JUMPDEST PUSH2 0x2E3 DUP2 PUSH2 0x588 JUMP JUMPDEST DUP5 ADD SWAP2 POP POP SWAP3 SWAP2 POP POP JUMP JUMPDEST PUSH1 0x0 PUSH2 0x2F9 DUP3 PUSH2 0x475 JUMP JUMPDEST PUSH2 0x303 DUP2 DUP6 PUSH2 0x491 JUMP JUMPDEST SWAP4 POP PUSH2 0x313 DUP2 DUP6 PUSH1 0x20 DUP7 ADD PUSH2 0x527 JUMP JUMPDEST DUP1 DUP5 ADD SWAP2 POP POP SWAP3 SWAP2 POP POP JUMP JUMPDEST PUSH2 0x328 DUP2 PUSH2 0x4D8 JUMP JUMPDEST DUP3 MSTORE POP POP JUMP JUMPDEST PUSH2 0x33F PUSH2 0x33A DUP3 PUSH2 0x4D8 JUMP JUMPDEST PUSH2 0x57E JUMP JUMPDEST DUP3 MSTORE POP POP JUMP JUMPDEST PUSH1 0x0 PUSH2 0x351 DUP3 DUP7 PUSH2 0x2EE JUMP JUMPDEST SWAP2 POP PUSH2 0x35D DUP3 DUP6 PUSH2 0x32E JUMP JUMPDEST PUSH1 0x20 DUP3 ADD SWAP2 POP PUSH2 0x36D DUP3 DUP5 PUSH2 0x28F JUMP JUMPDEST PUSH1 0x14 DUP3 ADD SWAP2 POP DUP2 SWAP1 POP SWAP5 SWAP4 POP POP POP POP JUMP JUMPDEST PUSH1 0x0 PUSH1 0x20 DUP3 ADD SWAP1 POP DUP2 DUP2 SUB PUSH1 0x0 DUP4 ADD MSTORE PUSH2 0x398 DUP2 DUP5 PUSH2 0x2B5 JUMP JUMPDEST SWAP1 POP SWAP3 SWAP2 POP POP JUMP JUMPDEST PUSH1 0x0 PUSH1 0x40 DUP3 ADD SWAP1 POP DUP2 DUP2 SUB PUSH1 0x0 DUP4 ADD MSTORE PUSH2 0x3BA DUP2 DUP6 PUSH2 0x2B5 JUMP JUMPDEST SWAP1 POP PUSH2 0x3C9 PUSH1 0x20 DUP4 ADD DUP5 PUSH2 0x31F JUMP JUMPDEST SWAP4 SWAP3 POP POP POP JUMP JUMPDEST PUSH1 0x0 PUSH1 0x80 DUP3 ADD SWAP1 POP DUP2 DUP2 SUB PUSH1 0x0 DUP4 ADD MSTORE PUSH2 0x3EA DUP2 DUP8 PUSH2 0x2B5 JUMP JUMPDEST SWAP1 POP PUSH2 0x3F9 PUSH1 0x20 DUP4 ADD DUP7 PUSH2 0x31F JUMP JUMPDEST PUSH2 0x406 PUSH1 0x40 DUP4 ADD DUP6 PUSH2 0x280 JUMP JUMPDEST PUSH2 0x413 PUSH1 0x60 DUP4 ADD DUP5 PUSH2 0x2A6 JUMP JUMPDEST SWAP6 SWAP5 POP POP POP POP POP JUMP JUMPDEST PUSH1 0x0 PUSH1 0x40 MLOAD SWAP1 POP DUP2 DUP2 ADD DUP2 DUP2 LT PUSH8 0xFFFFFFFFFFFFFFFF DUP3 GT OR ISZERO PUSH2 0x43F JUMPI PUSH1 0x0 DUP1 REVERT JUMPDEST DUP1 PUSH1 0x40 MSTORE POP SWAP2 SWAP1 POP JUMP JUMPDEST PUSH1 0x0 PUSH8 0xFFFFFFFFFFFFFFFF DUP3 GT ISZERO PUSH2 0x460 JUMPI PUSH1 0x0 DUP1 REVERT JUMPDEST PUSH1 0x1F NOT PUSH1 0x1F DUP4 ADD AND SWAP1 POP PUSH1 0x20 DUP2 ADD SWAP1 POP SWAP2 SWAP1 POP JUMP JUMPDEST PUSH1 0x0 DUP2 MLOAD SWAP1 POP SWAP2 SWAP1 POP JUMP JUMPDEST PUSH1 0x0 DUP3 DUP3 MSTORE PUSH1 0x20 DUP3 ADD SWAP1 POP SWAP3 SWAP2 POP POP JUMP JUMPDEST PUSH1 0x0 DUP2 SWAP1 POP SWAP3 SWAP2 POP POP JUMP JUMPDEST PUSH1 0x0 PUSH2 0x4A7 DUP3 PUSH2 0x4B8 JUMP JUMPDEST SWAP1 POP SWAP2 SWAP1 POP JUMP JUMPDEST PUSH1 0x0 DUP2 SWAP1 POP SWAP2 SWAP1 POP JUMP JUMPDEST PUSH1 0x0 PUSH20 0xFFFFFFFFFFFFFFFFFFFFFFFFFFFFFFFFFFFFFFFF DUP3 AND SWAP1 POP SWAP2 SWAP1 POP JUMP JUMPDEST PUSH1 0x0 DUP2 SWAP1 POP SWAP2 SWAP1 POP JUMP JUMPDEST PUSH1 0x0 PUSH2 0x4ED DUP3 PUSH2 0x4F4 JUMP JUMPDEST SWAP1 POP SWAP2 SWAP1 POP JUMP JUMPDEST PUSH1 0x0 PUSH2 0x4FF DUP3 PUSH2 0x506 JUMP JUMPDEST SWAP1 POP SWAP2 SWAP1 POP JUMP JUMPDEST PUSH1 0x0 PUSH2 0x511 DUP3 PUSH2 0x4B8 JUMP JUMPDEST SWAP1 POP SWAP2 SWAP1 POP JUMP JUMPDEST DUP3 DUP2 DUP4 CALLDATACOPY PUSH1 0x0 DUP4 DUP4 ADD MSTORE POP POP POP JUMP JUMPDEST PUSH1 0x0 JUMPDEST DUP4 DUP2 LT ISZERO PUSH2 0x545 JUMPI DUP1 DUP3 ADD MLOAD DUP2 DUP5 ADD MSTORE PUSH1 0x20 DUP2 ADD SWAP1 POP PUSH2 0x52A JUMP JUMPDEST DUP4 DUP2 GT ISZERO PUSH2 0x554 JUMPI PUSH1 0x0 DUP5 DUP5 ADD MSTORE JUMPDEST POP POP POP POP JUMP JUMPDEST PUSH1 0x0 PUSH2 0x565 DUP3 PUSH2 0x56C JUMP JUMPDEST SWAP1 POP SWAP2 SWAP1 POP JUMP JUMPDEST PUSH1 0x0 PUSH2 0x577 DUP3 PUSH2 0x599 JUMP JUMPDEST SWAP1 POP SWAP2 SWAP1 POP JUMP JUMPDEST PUSH1 0x0 DUP2 SWAP1 POP SWAP2 SWAP1 POP JUMP JUMPDEST PUSH1 0x0 PUSH1 0x1F NOT PUSH1 0x1F DUP4 ADD AND SWAP1 POP SWAP2 SWAP1 POP JUMP JUMPDEST PUSH1 0x0 DUP2 PUSH1 0x60 SHL SWAP1 POP SWAP2 SWAP1 POP JUMP JUMPDEST PUSH2 0x5AF DUP2 PUSH2 0x4D8 JUMP JUMPDEST DUP2 EQ PUSH2 0x5BA JUMPI PUSH1 0x0 DUP1 REVERT JUMPDEST POP JUMP INVALID LOG2 PUSH5 0x6970667358 0x22 SLT KECCAK256 0xC6 PUSH8 0x296EDE2C4DA43EDC PUSH22 0xD5E96B5372638A1469F35C2C8241D28683586FBF7464 PUSH20 0x6F6C634300060500330000000000000000000000 "
				},
				"gasEstimates": {
					"creation": {
						"codeDepositCost": "304600",
						"executionCost": "343",
						"totalCost": "304943"
					},
					"external": {
						"emitirEvento1(string)": "infinite",
						"emitirEvento2(string,uint256)": "infinite",
						"emitirEvento3(string,uint256)": "infinite"
					}
				},
				"methodIdentifiers": {
					"emitirEvento1(string)": "7cf1103d",
					"emitirEvento2(string,uint256)": "7f4f0f35",
					"emitirEvento3(string,uint256)": "6480f5c2"
				}
			},
			"storageLayout": {
				"storage": [],
				"types": null
			},
			"userdoc": {
				"methods": {}
			}
		}
	}
}