{
	"Tipos de variables y operadores/enums.sol": {
		"Ejemplos_enumeraciones": {
			"abi": [
				{
					"inputs": [],
					"name": "Estado",
					"outputs": [
						{
							"internalType": "enum Ejemplos_enumeraciones.estado",
							"name": "",
							"type": "uint8"
						}
					],
					"stateMutability": "view",
					"type": "function"
				},
				{
					"inputs": [],
					"name": "abajo",
					"outputs": [],
					"stateMutability": "nonpayable",
					"type": "function"
				},
				{
					"inputs": [],
					"name": "apagar",
					"outputs": [],
					"stateMutability": "nonpayable",
					"type": "function"
				},
				{
					"inputs": [],
					"name": "arriba",
					"outputs": [],
					"stateMutability": "nonpayable",
					"type": "function"
				},
				{
					"inputs": [],
					"name": "derecha",
					"outputs": [],
					"stateMutability": "nonpayable",
					"type": "function"
				},
				{
					"inputs": [],
					"name": "escender",
					"outputs": [],
					"stateMutability": "nonpayable",
					"type": "function"
				},
				{
					"inputs": [
						{
							"internalType": "uint256",
							"name": "_k",
							"type": "uint256"
						}
					],
					"name": "fijar_estado",
					"outputs": [],
					"stateMutability": "nonpayable",
					"type": "function"
				},
				{
					"inputs": [],
					"name": "izquierda",
					"outputs": [],
					"stateMutability": "nonpayable",
					"type": "function"
				}
			],
			"devdoc": {
				"methods": {}
			},
			"evm": {
				"assembly": "    /* \"Tipos de variables y operadores/enums.sol\":37:969  contract Ejemplos_enumeraciones{\r... */\n  mstore(0x40, 0x80)\n    /* \"Tipos de variables y operadores/enums.sol\":614:632  direcciones.ARRIBA */\n  0x00\n    /* \"Tipos de variables y operadores/enums.sol\":590:632  direcciones direccion = direcciones.ARRIBA */\n  dup1\n  exp(0x0100, 0x01)\n  dup2\n  sload\n  dup2\n  0xff\n  mul\n  not\n  and\n  swap1\n  dup4\n  0x03\n  dup2\n  gt\n  iszero\n  tag_1\n  jumpi\n  invalid\ntag_1:\n  mul\n  or\n  swap1\n  sstore\n  pop\n    /* \"Tipos de variables y operadores/enums.sol\":37:969  contract Ejemplos_enumeraciones{\r... */\n  callvalue\n    /* \"--CODEGEN--\":5:14   */\n  dup1\n    /* \"--CODEGEN--\":2:4   */\n  iszero\n  tag_2\n  jumpi\n    /* \"--CODEGEN--\":27:28   */\n  0x00\n    /* \"--CODEGEN--\":24:25   */\n  dup1\n    /* \"--CODEGEN--\":17:29   */\n  revert\n    /* \"--CODEGEN--\":2:4   */\ntag_2:\n    /* \"Tipos de variables y operadores/enums.sol\":37:969  contract Ejemplos_enumeraciones{\r... */\n  pop\n  dataSize(sub_0)\n  dup1\n  dataOffset(sub_0)\n  0x00\n  codecopy\n  0x00\n  return\nstop\n\nsub_0: assembly {\n        /* \"Tipos de variables y operadores/enums.sol\":37:969  contract Ejemplos_enumeraciones{\r... */\n      mstore(0x40, 0x80)\n      callvalue\n        /* \"--CODEGEN--\":5:14   */\n      dup1\n        /* \"--CODEGEN--\":2:4   */\n      iszero\n      tag_1\n      jumpi\n        /* \"--CODEGEN--\":27:28   */\n      0x00\n        /* \"--CODEGEN--\":24:25   */\n      dup1\n        /* \"--CODEGEN--\":17:29   */\n      revert\n        /* \"--CODEGEN--\":2:4   */\n    tag_1:\n        /* \"Tipos de variables y operadores/enums.sol\":37:969  contract Ejemplos_enumeraciones{\r... */\n      pop\n      jumpi(tag_2, lt(calldatasize, 0x04))\n      shr(0xe0, calldataload(0x00))\n      dup1\n      0x943fad7f\n      gt\n      tag_11\n      jumpi\n      dup1\n      0x943fad7f\n      eq\n      tag_7\n      jumpi\n      dup1\n      0xb46e8d1a\n      eq\n      tag_8\n      jumpi\n      dup1\n      0xdaf4343f\n      eq\n      tag_9\n      jumpi\n      dup1\n      0xe7260f9a\n      eq\n      tag_10\n      jumpi\n      jump(tag_2)\n    tag_11:\n      dup1\n      0x2b38329b\n      eq\n      tag_3\n      jumpi\n      dup1\n      0x862b7129\n      eq\n      tag_4\n      jumpi\n      dup1\n      0x8a60839f\n      eq\n      tag_5\n      jumpi\n      dup1\n      0x902a641b\n      eq\n      tag_6\n      jumpi\n    tag_2:\n        /* \"--CODEGEN--\":12:13   */\n      0x00\n        /* \"--CODEGEN--\":9:10   */\n      dup1\n        /* \"--CODEGEN--\":2:14   */\n      revert\n        /* \"Tipos de variables y operadores/enums.sol\":331:404  function fijar_estado(uint _k)public{\r... */\n    tag_3:\n      tag_12\n      0x04\n      dup1\n      calldatasize\n      sub\n        /* \"--CODEGEN--\":15:17   */\n      0x20\n        /* \"--CODEGEN--\":10:13   */\n      dup2\n        /* \"--CODEGEN--\":7:18   */\n      lt\n        /* \"--CODEGEN--\":4:6   */\n      iszero\n      tag_13\n      jumpi\n        /* \"--CODEGEN--\":31:32   */\n      0x00\n        /* \"--CODEGEN--\":28:29   */\n      dup1\n        /* \"--CODEGEN--\":21:33   */\n      revert\n        /* \"--CODEGEN--\":4:6   */\n    tag_13:\n        /* \"Tipos de variables y operadores/enums.sol\":331:404  function fijar_estado(uint _k)public{\r... */\n      dup2\n      add\n      swap1\n      dup1\n      dup1\n      calldataload\n      swap1\n      0x20\n      add\n      swap1\n      swap3\n      swap2\n      swap1\n      pop\n      pop\n      pop\n      tag_14\n      jump\t// in\n    tag_12:\n      stop\n        /* \"Tipos de variables y operadores/enums.sol\":263:323  function apagar()public{\r... */\n    tag_4:\n      tag_15\n      tag_16\n      jump\t// in\n    tag_15:\n      stop\n        /* \"Tipos de variables y operadores/enums.sol\":803:878  function derecha() public{\r... */\n    tag_5:\n      tag_17\n      tag_18\n      jump\t// in\n    tag_17:\n      stop\n        /* \"Tipos de variables y operadores/enums.sol\":193:254  function escender()public{\r... */\n    tag_6:\n      tag_19\n      tag_20\n      jump\t// in\n    tag_19:\n      stop\n        /* \"Tipos de variables y operadores/enums.sol\":887:966  function izquierda() public{\r... */\n    tag_7:\n      tag_21\n      tag_22\n      jump\t// in\n    tag_21:\n      stop\n        /* \"Tipos de variables y operadores/enums.sol\":412:488  function Estado() public view returns(estado){\r... */\n    tag_8:\n      tag_23\n      tag_24\n      jump\t// in\n    tag_23:\n      mload(0x40)\n      dup1\n      dup3\n      0x01\n      dup2\n      gt\n      iszero\n      tag_25\n      jumpi\n      invalid\n    tag_25:\n      0xff\n      and\n      dup2\n      mstore\n      0x20\n      add\n      swap2\n      pop\n      pop\n      mload(0x40)\n      dup1\n      swap2\n      sub\n      swap1\n      return\n        /* \"Tipos de variables y operadores/enums.sol\":723:794  function abajo() public{\r... */\n    tag_9:\n      tag_26\n      tag_27\n      jump\t// in\n    tag_26:\n      stop\n        /* \"Tipos de variables y operadores/enums.sol\":641:714  function arriba() public{\r... */\n    tag_10:\n      tag_28\n      tag_29\n      jump\t// in\n    tag_28:\n      stop\n        /* \"Tipos de variables y operadores/enums.sol\":331:404  function fijar_estado(uint _k)public{\r... */\n    tag_14:\n        /* \"Tipos de variables y operadores/enums.sol\":393:395  _k */\n      dup1\n        /* \"Tipos de variables y operadores/enums.sol\":386:396  estado(_k) */\n      0x01\n      dup2\n      gt\n      iszero\n      tag_31\n      jumpi\n      invalid\n    tag_31:\n        /* \"Tipos de variables y operadores/enums.sol\":378:383  state */\n      0x00\n      dup1\n        /* \"Tipos de variables y operadores/enums.sol\":378:396  state = estado(_k) */\n      0x0100\n      exp\n      dup2\n      sload\n      dup2\n      0xff\n      mul\n      not\n      and\n      swap1\n      dup4\n      0x01\n      dup2\n      gt\n      iszero\n      tag_32\n      jumpi\n      invalid\n    tag_32:\n      mul\n      or\n      swap1\n      sstore\n      pop\n        /* \"Tipos de variables y operadores/enums.sol\":331:404  function fijar_estado(uint _k)public{\r... */\n      pop\n      jump\t// out\n        /* \"Tipos de variables y operadores/enums.sol\":263:323  function apagar()public{\r... */\n    tag_16:\n        /* \"Tipos de variables y operadores/enums.sol\":305:315  estado.OFF */\n      0x01\n        /* \"Tipos de variables y operadores/enums.sol\":297:302  state */\n      0x00\n      dup1\n        /* \"Tipos de variables y operadores/enums.sol\":297:315  state = estado.OFF */\n      0x0100\n      exp\n      dup2\n      sload\n      dup2\n      0xff\n      mul\n      not\n      and\n      swap1\n      dup4\n      0x01\n      dup2\n      gt\n      iszero\n      tag_34\n      jumpi\n      invalid\n    tag_34:\n      mul\n      or\n      swap1\n      sstore\n      pop\n        /* \"Tipos de variables y operadores/enums.sol\":263:323  function apagar()public{\r... */\n      jump\t// out\n        /* \"Tipos de variables y operadores/enums.sol\":803:878  function derecha() public{\r... */\n    tag_18:\n        /* \"Tipos de variables y operadores/enums.sol\":851:870  direcciones.DERECHA */\n      0x02\n        /* \"Tipos de variables y operadores/enums.sol\":839:848  direccion */\n      0x00\n      0x01\n        /* \"Tipos de variables y operadores/enums.sol\":839:870  direccion = direcciones.DERECHA */\n      0x0100\n      exp\n      dup2\n      sload\n      dup2\n      0xff\n      mul\n      not\n      and\n      swap1\n      dup4\n      0x03\n      dup2\n      gt\n      iszero\n      tag_36\n      jumpi\n      invalid\n    tag_36:\n      mul\n      or\n      swap1\n      sstore\n      pop\n        /* \"Tipos de variables y operadores/enums.sol\":803:878  function derecha() public{\r... */\n      jump\t// out\n        /* \"Tipos de variables y operadores/enums.sol\":193:254  function escender()public{\r... */\n    tag_20:\n        /* \"Tipos de variables y operadores/enums.sol\":237:246  estado.ON */\n      0x00\n        /* \"Tipos de variables y operadores/enums.sol\":229:234  state */\n      dup1\n      0x00\n        /* \"Tipos de variables y operadores/enums.sol\":229:246  state = estado.ON */\n      0x0100\n      exp\n      dup2\n      sload\n      dup2\n      0xff\n      mul\n      not\n      and\n      swap1\n      dup4\n      0x01\n      dup2\n      gt\n      iszero\n      tag_38\n      jumpi\n      invalid\n    tag_38:\n      mul\n      or\n      swap1\n      sstore\n      pop\n        /* \"Tipos de variables y operadores/enums.sol\":193:254  function escender()public{\r... */\n      jump\t// out\n        /* \"Tipos de variables y operadores/enums.sol\":887:966  function izquierda() public{\r... */\n    tag_22:\n        /* \"Tipos de variables y operadores/enums.sol\":937:958  direcciones.IZQUIERDA */\n      0x03\n        /* \"Tipos de variables y operadores/enums.sol\":925:934  direccion */\n      0x00\n      0x01\n        /* \"Tipos de variables y operadores/enums.sol\":925:958  direccion = direcciones.IZQUIERDA */\n      0x0100\n      exp\n      dup2\n      sload\n      dup2\n      0xff\n      mul\n      not\n      and\n      swap1\n      dup4\n      0x03\n      dup2\n      gt\n      iszero\n      tag_40\n      jumpi\n      invalid\n    tag_40:\n      mul\n      or\n      swap1\n      sstore\n      pop\n        /* \"Tipos de variables y operadores/enums.sol\":887:966  function izquierda() public{\r... */\n      jump\t// out\n        /* \"Tipos de variables y operadores/enums.sol\":412:488  function Estado() public view returns(estado){\r... */\n    tag_24:\n        /* \"Tipos de variables y operadores/enums.sol\":450:456  estado */\n      0x00\n        /* \"Tipos de variables y operadores/enums.sol\":475:480  state */\n      dup1\n      0x00\n      swap1\n      sload\n      swap1\n      0x0100\n      exp\n      swap1\n      div\n      0xff\n      and\n        /* \"Tipos de variables y operadores/enums.sol\":468:480  return state */\n      swap1\n      pop\n        /* \"Tipos de variables y operadores/enums.sol\":412:488  function Estado() public view returns(estado){\r... */\n      swap1\n      jump\t// out\n        /* \"Tipos de variables y operadores/enums.sol\":723:794  function abajo() public{\r... */\n    tag_27:\n        /* \"Tipos de variables y operadores/enums.sol\":769:786  direcciones.ABAJO */\n      0x01\n        /* \"Tipos de variables y operadores/enums.sol\":757:766  direccion */\n      0x00\n      0x01\n        /* \"Tipos de variables y operadores/enums.sol\":757:786  direccion = direcciones.ABAJO */\n      0x0100\n      exp\n      dup2\n      sload\n      dup2\n      0xff\n      mul\n      not\n      and\n      swap1\n      dup4\n      0x03\n      dup2\n      gt\n      iszero\n      tag_43\n      jumpi\n      invalid\n    tag_43:\n      mul\n      or\n      swap1\n      sstore\n      pop\n        /* \"Tipos de variables y operadores/enums.sol\":723:794  function abajo() public{\r... */\n      jump\t// out\n        /* \"Tipos de variables y operadores/enums.sol\":641:714  function arriba() public{\r... */\n    tag_29:\n        /* \"Tipos de variables y operadores/enums.sol\":688:706  direcciones.ARRIBA */\n      0x00\n        /* \"Tipos de variables y operadores/enums.sol\":676:685  direccion */\n      dup1\n      0x01\n        /* \"Tipos de variables y operadores/enums.sol\":676:706  direccion = direcciones.ARRIBA */\n      0x0100\n      exp\n      dup2\n      sload\n      dup2\n      0xff\n      mul\n      not\n      and\n      swap1\n      dup4\n      0x03\n      dup2\n      gt\n      iszero\n      tag_45\n      jumpi\n      invalid\n    tag_45:\n      mul\n      or\n      swap1\n      sstore\n      pop\n        /* \"Tipos de variables y operadores/enums.sol\":641:714  function arriba() public{\r... */\n      jump\t// out\n\n    auxdata: 0xa264697066735822122077c172d06a8bce774de52cd2ee2c00cadd4c1ff4cb01aa240a26138b99b6a92c64736f6c63430006050033\n}\n",
				"bytecode": {
					"linkReferences": {},
					"object": "608060405260008060016101000a81548160ff0219169083600381111561002257fe5b021790555034801561003357600080fd5b50610280806100436000396000f3fe608060405234801561001057600080fd5b50600436106100885760003560e01c8063943fad7f1161005b578063943fad7f146100d9578063b46e8d1a146100e3578063daf4343f1461010f578063e7260f9a1461011957610088565b80632b38329b1461008d578063862b7129146100bb5780638a60839f146100c5578063902a641b146100cf575b600080fd5b6100b9600480360360208110156100a357600080fd5b8101908080359060200190929190505050610123565b005b6100c3610153565b005b6100cd610178565b005b6100d761019e565b005b6100e16101c3565b005b6100eb6101e9565b604051808260018111156100fb57fe5b60ff16815260200191505060405180910390f35b6101176101ff565b005b610121610225565b005b80600181111561012f57fe5b6000806101000a81548160ff0219169083600181111561014b57fe5b021790555050565b60016000806101000a81548160ff0219169083600181111561017157fe5b0217905550565b6002600060016101000a81548160ff0219169083600381111561019757fe5b0217905550565b60008060006101000a81548160ff021916908360018111156101bc57fe5b0217905550565b6003600060016101000a81548160ff021916908360038111156101e257fe5b0217905550565b60008060009054906101000a900460ff16905090565b6001600060016101000a81548160ff0219169083600381111561021e57fe5b0217905550565b60008060016101000a81548160ff0219169083600381111561024357fe5b021790555056fea264697066735822122077c172d06a8bce774de52cd2ee2c00cadd4c1ff4cb01aa240a26138b99b6a92c64736f6c63430006050033",
					"opcodes": "PUSH1 0x80 PUSH1 0x40 MSTORE PUSH1 0x0 DUP1 PUSH1 0x1 PUSH2 0x100 EXP DUP2 SLOAD DUP2 PUSH1 0xFF MUL NOT AND SWAP1 DUP4 PUSH1 0x3 DUP2 GT ISZERO PUSH2 0x22 JUMPI INVALID JUMPDEST MUL OR SWAP1 SSTORE POP CALLVALUE DUP1 ISZERO PUSH2 0x33 JUMPI PUSH1 0x0 DUP1 REVERT JUMPDEST POP PUSH2 0x280 DUP1 PUSH2 0x43 PUSH1 0x0 CODECOPY PUSH1 0x0 RETURN INVALID PUSH1 0x80 PUSH1 0x40 MSTORE CALLVALUE DUP1 ISZERO PUSH2 0x10 JUMPI PUSH1 0x0 DUP1 REVERT JUMPDEST POP PUSH1 0x4 CALLDATASIZE LT PUSH2 0x88 JUMPI PUSH1 0x0 CALLDATALOAD PUSH1 0xE0 SHR DUP1 PUSH4 0x943FAD7F GT PUSH2 0x5B JUMPI DUP1 PUSH4 0x943FAD7F EQ PUSH2 0xD9 JUMPI DUP1 PUSH4 0xB46E8D1A EQ PUSH2 0xE3 JUMPI DUP1 PUSH4 0xDAF4343F EQ PUSH2 0x10F JUMPI DUP1 PUSH4 0xE7260F9A EQ PUSH2 0x119 JUMPI PUSH2 0x88 JUMP JUMPDEST DUP1 PUSH4 0x2B38329B EQ PUSH2 0x8D JUMPI DUP1 PUSH4 0x862B7129 EQ PUSH2 0xBB JUMPI DUP1 PUSH4 0x8A60839F EQ PUSH2 0xC5 JUMPI DUP1 PUSH4 0x902A641B EQ PUSH2 0xCF JUMPI JUMPDEST PUSH1 0x0 DUP1 REVERT JUMPDEST PUSH2 0xB9 PUSH1 0x4 DUP1 CALLDATASIZE SUB PUSH1 0x20 DUP2 LT ISZERO PUSH2 0xA3 JUMPI PUSH1 0x0 DUP1 REVERT JUMPDEST DUP2 ADD SWAP1 DUP1 DUP1 CALLDATALOAD SWAP1 PUSH1 0x20 ADD SWAP1 SWAP3 SWAP2 SWAP1 POP POP POP PUSH2 0x123 JUMP JUMPDEST STOP JUMPDEST PUSH2 0xC3 PUSH2 0x153 JUMP JUMPDEST STOP JUMPDEST PUSH2 0xCD PUSH2 0x178 JUMP JUMPDEST STOP JUMPDEST PUSH2 0xD7 PUSH2 0x19E JUMP JUMPDEST STOP JUMPDEST PUSH2 0xE1 PUSH2 0x1C3 JUMP JUMPDEST STOP JUMPDEST PUSH2 0xEB PUSH2 0x1E9 JUMP JUMPDEST PUSH1 0x40 MLOAD DUP1 DUP3 PUSH1 0x1 DUP2 GT ISZERO PUSH2 0xFB JUMPI INVALID JUMPDEST PUSH1 0xFF AND DUP2 MSTORE PUSH1 0x20 ADD SWAP2 POP POP PUSH1 0x40 MLOAD DUP1 SWAP2 SUB SWAP1 RETURN JUMPDEST PUSH2 0x117 PUSH2 0x1FF JUMP JUMPDEST STOP JUMPDEST PUSH2 0x121 PUSH2 0x225 JUMP JUMPDEST STOP JUMPDEST DUP1 PUSH1 0x1 DUP2 GT ISZERO PUSH2 0x12F JUMPI INVALID JUMPDEST PUSH1 0x0 DUP1 PUSH2 0x100 EXP DUP2 SLOAD DUP2 PUSH1 0xFF MUL NOT AND SWAP1 DUP4 PUSH1 0x1 DUP2 GT ISZERO PUSH2 0x14B JUMPI INVALID JUMPDEST MUL OR SWAP1 SSTORE POP POP JUMP JUMPDEST PUSH1 0x1 PUSH1 0x0 DUP1 PUSH2 0x100 EXP DUP2 SLOAD DUP2 PUSH1 0xFF MUL NOT AND SWAP1 DUP4 PUSH1 0x1 DUP2 GT ISZERO PUSH2 0x171 JUMPI INVALID JUMPDEST MUL OR SWAP1 SSTORE POP JUMP JUMPDEST PUSH1 0x2 PUSH1 0x0 PUSH1 0x1 PUSH2 0x100 EXP DUP2 SLOAD DUP2 PUSH1 0xFF MUL NOT AND SWAP1 DUP4 PUSH1 0x3 DUP2 GT ISZERO PUSH2 0x197 JUMPI INVALID JUMPDEST MUL OR SWAP1 SSTORE POP JUMP JUMPDEST PUSH1 0x0 DUP1 PUSH1 0x0 PUSH2 0x100 EXP DUP2 SLOAD DUP2 PUSH1 0xFF MUL NOT AND SWAP1 DUP4 PUSH1 0x1 DUP2 GT ISZERO PUSH2 0x1BC JUMPI INVALID JUMPDEST MUL OR SWAP1 SSTORE POP JUMP JUMPDEST PUSH1 0x3 PUSH1 0x0 PUSH1 0x1 PUSH2 0x100 EXP DUP2 SLOAD DUP2 PUSH1 0xFF MUL NOT AND SWAP1 DUP4 PUSH1 0x3 DUP2 GT ISZERO PUSH2 0x1E2 JUMPI INVALID JUMPDEST MUL OR SWAP1 SSTORE POP JUMP JUMPDEST PUSH1 0x0 DUP1 PUSH1 0x0 SWAP1 SLOAD SWAP1 PUSH2 0x100 EXP SWAP1 DIV PUSH1 0xFF AND SWAP1 POP SWAP1 JUMP JUMPDEST PUSH1 0x1 PUSH1 0x0 PUSH1 0x1 PUSH2 0x100 EXP DUP2 SLOAD DUP2 PUSH1 0xFF MUL NOT AND SWAP1 DUP4 PUSH1 0x3 DUP2 GT ISZERO PUSH2 0x21E JUMPI INVALID JUMPDEST MUL OR SWAP1 SSTORE POP JUMP JUMPDEST PUSH1 0x0 DUP1 PUSH1 0x1 PUSH2 0x100 EXP DUP2 SLOAD DUP2 PUSH1 0xFF MUL NOT AND SWAP1 DUP4 PUSH1 0x3 DUP2 GT ISZERO PUSH2 0x243 JUMPI INVALID JUMPDEST MUL OR SWAP1 SSTORE POP JUMP INVALID LOG2 PUSH5 0x6970667358 0x22 SLT KECCAK256 PUSH24 0xC172D06A8BCE774DE52CD2EE2C00CADD4C1FF4CB01AA240A 0x26 SGT DUP12 SWAP10 0xB6 0xA9 0x2C PUSH5 0x736F6C6343 STOP MOD SDIV STOP CALLER "
				},
				"gasEstimates": {
					"creation": {
						"codeDepositCost": "128000",
						"executionCost": "21108",
						"totalCost": "149108"
					},
					"external": {
						"Estado()": "1103",
						"abajo()": "21125",
						"apagar()": "21054",
						"arriba()": "21147",
						"derecha()": "21126",
						"escender()": "21098",
						"fijar_estado(uint256)": "21142",
						"izquierda()": "21081"
					}
				},
				"methodIdentifiers": {
					"Estado()": "b46e8d1a",
					"abajo()": "daf4343f",
					"apagar()": "862b7129",
					"arriba()": "e7260f9a",
					"derecha()": "8a60839f",
					"escender()": "902a641b",
					"fijar_estado(uint256)": "2b38329b",
					"izquierda()": "943fad7f"
				}
			},
			"storageLayout": {
				"storage": [
					{
						"astId": 6,
						"contract": "Tipos de variables y operadores/enums.sol:Ejemplos_enumeraciones",
						"label": "state",
						"offset": 0,
						"slot": "0",
						"type": "t_enum(estado)4"
					},
					{
						"astId": 53,
						"contract": "Tipos de variables y operadores/enums.sol:Ejemplos_enumeraciones",
						"label": "direccion",
						"offset": 1,
						"slot": "0",
						"type": "t_enum(direcciones)49"
					}
				],
				"types": {
					"t_enum(direcciones)49": {
						"encoding": "inplace",
						"label": "enum Ejemplos_enumeraciones.direcciones",
						"numberOfBytes": "1"
					},
					"t_enum(estado)4": {
						"encoding": "inplace",
						"label": "enum Ejemplos_enumeraciones.estado",
						"numberOfBytes": "1"
					}
				}
			},
			"userdoc": {
				"methods": {}
			}
		}
	}
}