{
	"Tipos de variables y operadores/mas variables.sol": {
		"mas_variables": {
			"abi": [
				{
					"inputs": [],
					"name": "cadena_vacia",
					"outputs": [
						{
							"internalType": "string",
							"name": "",
							"type": "string"
						}
					],
					"stateMutability": "view",
					"type": "function"
				},
				{
					"inputs": [],
					"name": "direccion_local_1",
					"outputs": [
						{
							"internalType": "address",
							"name": "",
							"type": "address"
						}
					],
					"stateMutability": "view",
					"type": "function"
				},
				{
					"inputs": [],
					"name": "direccion_local_2",
					"outputs": [
						{
							"internalType": "address",
							"name": "",
							"type": "address"
						}
					],
					"stateMutability": "view",
					"type": "function"
				},
				{
					"inputs": [],
					"name": "ejemploBytes4",
					"outputs": [],
					"stateMutability": "nonpayable",
					"type": "function"
				},
				{
					"inputs": [],
					"name": "flag_false",
					"outputs": [
						{
							"internalType": "bool",
							"name": "",
							"type": "bool"
						}
					],
					"stateMutability": "view",
					"type": "function"
				},
				{
					"inputs": [],
					"name": "flag_true",
					"outputs": [
						{
							"internalType": "bool",
							"name": "",
							"type": "bool"
						}
					],
					"stateMutability": "view",
					"type": "function"
				},
				{
					"inputs": [],
					"name": "hash",
					"outputs": [
						{
							"internalType": "bytes32",
							"name": "",
							"type": "bytes32"
						}
					],
					"stateMutability": "view",
					"type": "function"
				},
				{
					"inputs": [],
					"name": "identificador",
					"outputs": [
						{
							"internalType": "bytes4",
							"name": "",
							"type": "bytes4"
						}
					],
					"stateMutability": "view",
					"type": "function"
				},
				{
					"inputs": [],
					"name": "nombre",
					"outputs": [
						{
							"internalType": "string",
							"name": "",
							"type": "string"
						}
					],
					"stateMutability": "view",
					"type": "function"
				},
				{
					"inputs": [],
					"name": "saludo",
					"outputs": [
						{
							"internalType": "string",
							"name": "",
							"type": "string"
						}
					],
					"stateMutability": "view",
					"type": "function"
				}
			],
			"devdoc": {
				"kind": "dev",
				"methods": {},
				"version": 1
			},
			"evm": {
				"assembly": "    /* \"Tipos de variables y operadores/mas variables.sol\":105:950  contract mas_variables{... */\n  mstore(0x40, 0x80)\n    /* \"Tipos de variables y operadores/mas variables.sol\":191:231  string public saludo = \"hola como estas\" */\n  mload(0x40)\n  dup1\n  0x40\n  add\n  0x40\n  mstore\n  dup1\n  0x0f\n  dup2\n  mstore\n  0x20\n  add\n  0x686f6c6120636f6d6f2065737461730000000000000000000000000000000000\n  dup2\n  mstore\n  pop\n  0x01\n  swap1\n  dup1\n  mload\n  swap1\n  0x20\n  add\n  swap1\n  tag_1\n  swap3\n  swap2\n  swap1\n  tag_2\n  jump\t// in\ntag_1:\n  pop\n    /* \"Tipos de variables y operadores/mas variables.sol\":238:269  string public cadena_vacia = \"\" */\n  mload(0x40)\n  dup1\n  0x20\n  add\n  0x40\n  mstore\n  dup1\n  0x00\n  dup2\n  mstore\n  pop\n  0x02\n  swap1\n  dup1\n  mload\n  swap1\n  0x20\n  add\n  swap1\n  tag_3\n  swap3\n  swap2\n  swap1\n  tag_2\n  jump\t// in\ntag_3:\n  pop\n    /* \"Tipos de variables y operadores/mas variables.sol\":276:308  string public nombre = \"Luciano\" */\n  mload(0x40)\n  dup1\n  0x40\n  add\n  0x40\n  mstore\n  dup1\n  0x07\n  dup2\n  mstore\n  0x20\n  add\n  0x4c756369616e6f00000000000000000000000000000000000000000000000000\n  dup2\n  mstore\n  pop\n  0x03\n  swap1\n  dup1\n  mload\n  swap1\n  0x20\n  add\n  swap1\n  tag_4\n  swap3\n  swap2\n  swap1\n  tag_2\n  jump\t// in\ntag_4:\n  pop\n    /* \"Tipos de variables y operadores/mas variables.sol\":399:403  true */\n  0x01\n    /* \"Tipos de variables y operadores/mas variables.sol\":375:403  bool public flag_true = true */\n  0x04\n  exp(0x0100, 0x01)\n  dup2\n  sload\n  dup2\n  0xff\n  mul\n  not\n  and\n  swap1\n  dup4\n  iszero\n  iszero\n  mul\n  or\n  swap1\n  sstore\n  pop\n    /* \"Tipos de variables y operadores/mas variables.sol\":435:440  false */\n  0x00\n    /* \"Tipos de variables y operadores/mas variables.sol\":410:440  bool public flag_false = false */\n  0x04\n  exp(0x0100, 0x02)\n  dup2\n  sload\n  dup2\n  0xff\n  mul\n  not\n  and\n  swap1\n  dup4\n  iszero\n  iszero\n  mul\n  or\n  swap1\n  sstore\n  pop\n    /* \"Tipos de variables y operadores/mas variables.sol\":586:592  nombre */\n  0x03\n    /* \"Tipos de variables y operadores/mas variables.sol\":569:593  abi.encodePacked(nombre) */\n  add(0x20, mload(0x40))\n  tag_5\n  swap2\n  swap1\n  tag_6\n  jump\t// in\ntag_5:\n  mload(0x40)\n  0x20\n  dup2\n  dup4\n  sub\n  sub\n  dup2\n  mstore\n  swap1\n  0x40\n  mstore\n    /* \"Tipos de variables y operadores/mas variables.sol\":559:594  keccak256(abi.encodePacked(nombre)) */\n  dup1\n  mload\n  swap1\n  0x20\n  add\n  keccak256\n    /* \"Tipos de variables y operadores/mas variables.sol\":537:594  bytes32 public hash = keccak256(abi.encodePacked(nombre)) */\n  0x07\n  sstore\n    /* \"Tipos de variables y operadores/mas variables.sol\":814:856  0x5B38Da6a701c568545dCfcB03FcB875f56beddC4 */\n  0x5b38da6a701c568545dcfcb03fcb875f56beddc4\n    /* \"Tipos de variables y operadores/mas variables.sol\":779:856  address public direccion_local_1 = 0x5B38Da6a701c568545dCfcB03FcB875f56beddC4 */\n  0x09\n  exp(0x0100, 0x00)\n  dup2\n  sload\n  dup2\n  0xffffffffffffffffffffffffffffffffffffffff\n  mul\n  not\n  and\n  swap1\n  dup4\n  0xffffffffffffffffffffffffffffffffffffffff\n  and\n  mul\n  or\n  swap1\n  sstore\n  pop\n    /* \"Tipos de variables y operadores/mas variables.sol\":898:940  0xAb8483F64d9C6d1EcF9b849Ae677dD3315835cb2 */\n  0xab8483f64d9c6d1ecf9b849ae677dd3315835cb2\n    /* \"Tipos de variables y operadores/mas variables.sol\":863:940  address public direccion_local_2 = 0xAb8483F64d9C6d1EcF9b849Ae677dD3315835cb2 */\n  0x0a\n  exp(0x0100, 0x00)\n  dup2\n  sload\n  dup2\n  0xffffffffffffffffffffffffffffffffffffffff\n  mul\n  not\n  and\n  swap1\n  dup4\n  0xffffffffffffffffffffffffffffffffffffffff\n  and\n  mul\n  or\n  swap1\n  sstore\n  pop\n    /* \"Tipos de variables y operadores/mas variables.sol\":105:950  contract mas_variables{... */\n  callvalue\n  dup1\n  iszero\n  tag_7\n  jumpi\n  0x00\n  dup1\n  revert\ntag_7:\n  pop\n  jump(tag_8)\ntag_2:\n  dup3\n  dup1\n  sload\n  tag_9\n  swap1\n  tag_10\n  jump\t// in\ntag_9:\n  swap1\n  0x00\n  mstore\n  keccak256(0x00, 0x20)\n  swap1\n  0x1f\n  add\n  0x20\n  swap1\n  div\n  dup2\n  add\n  swap3\n  dup3\n  tag_12\n  jumpi\n  0x00\n  dup6\n  sstore\n  jump(tag_11)\ntag_12:\n  dup3\n  0x1f\n  lt\n  tag_13\n  jumpi\n  dup1\n  mload\n  not(0xff)\n  and\n  dup4\n  dup1\n  add\n  or\n  dup6\n  sstore\n  jump(tag_11)\ntag_13:\n  dup3\n  dup1\n  add\n  0x01\n  add\n  dup6\n  sstore\n  dup3\n  iszero\n  tag_11\n  jumpi\n  swap2\n  dup3\n  add\ntag_14:\n  dup3\n  dup2\n  gt\n  iszero\n  tag_15\n  jumpi\n  dup3\n  mload\n  dup3\n  sstore\n  swap2\n  0x20\n  add\n  swap2\n  swap1\n  0x01\n  add\n  swap1\n  jump(tag_14)\ntag_15:\ntag_11:\n  pop\n  swap1\n  pop\n  tag_16\n  swap2\n  swap1\n  tag_17\n  jump\t// in\ntag_16:\n  pop\n  swap1\n  jump\t// out\ntag_17:\ntag_18:\n  dup1\n  dup3\n  gt\n  iszero\n  tag_19\n  jumpi\n  0x00\n  dup2\n  0x00\n  swap1\n  sstore\n  pop\n  0x01\n  add\n  jump(tag_18)\ntag_19:\n  pop\n  swap1\n  jump\t// out\n    /* \"#utility.yul\":7:187   */\ntag_20:\n    /* \"#utility.yul\":55:132   */\n  0x4e487b7100000000000000000000000000000000000000000000000000000000\n    /* \"#utility.yul\":52:53   */\n  0x00\n    /* \"#utility.yul\":45:133   */\n  mstore\n    /* \"#utility.yul\":152:156   */\n  0x22\n    /* \"#utility.yul\":149:150   */\n  0x04\n    /* \"#utility.yul\":142:157   */\n  mstore\n    /* \"#utility.yul\":176:180   */\n  0x24\n    /* \"#utility.yul\":173:174   */\n  0x00\n    /* \"#utility.yul\":166:181   */\n  revert\n    /* \"#utility.yul\":193:513   */\ntag_10:\n    /* \"#utility.yul\":237:243   */\n  0x00\n    /* \"#utility.yul\":274:275   */\n  0x02\n    /* \"#utility.yul\":268:272   */\n  dup3\n    /* \"#utility.yul\":264:276   */\n  div\n    /* \"#utility.yul\":254:276   */\n  swap1\n  pop\n    /* \"#utility.yul\":321:322   */\n  0x01\n    /* \"#utility.yul\":315:319   */\n  dup3\n    /* \"#utility.yul\":311:323   */\n  and\n    /* \"#utility.yul\":342:360   */\n  dup1\n    /* \"#utility.yul\":332:413   */\n  tag_27\n  jumpi\n    /* \"#utility.yul\":398:402   */\n  0x7f\n    /* \"#utility.yul\":390:396   */\n  dup3\n    /* \"#utility.yul\":386:403   */\n  and\n    /* \"#utility.yul\":376:403   */\n  swap2\n  pop\n    /* \"#utility.yul\":332:413   */\ntag_27:\n    /* \"#utility.yul\":460:462   */\n  0x20\n    /* \"#utility.yul\":452:458   */\n  dup3\n    /* \"#utility.yul\":449:463   */\n  lt\n    /* \"#utility.yul\":429:447   */\n  dup2\n    /* \"#utility.yul\":426:464   */\n  sub\n    /* \"#utility.yul\":423:507   */\n  tag_28\n  jumpi\n    /* \"#utility.yul\":479:497   */\n  tag_29\n  tag_20\n  jump\t// in\ntag_29:\n    /* \"#utility.yul\":423:507   */\ntag_28:\n    /* \"#utility.yul\":244:513   */\n  pop\n    /* \"#utility.yul\":193:513   */\n  swap2\n  swap1\n  pop\n  jump\t// out\n    /* \"#utility.yul\":519:667   */\ntag_21:\n    /* \"#utility.yul\":621:632   */\n  0x00\n    /* \"#utility.yul\":658:661   */\n  dup2\n    /* \"#utility.yul\":643:661   */\n  swap1\n  pop\n    /* \"#utility.yul\":519:667   */\n  swap3\n  swap2\n  pop\n  pop\n  jump\t// out\n    /* \"#utility.yul\":673:814   */\ntag_22:\n    /* \"#utility.yul\":722:726   */\n  0x00\n    /* \"#utility.yul\":745:748   */\n  dup2\n    /* \"#utility.yul\":737:748   */\n  swap1\n  pop\n    /* \"#utility.yul\":768:771   */\n  dup2\n    /* \"#utility.yul\":765:766   */\n  0x00\n    /* \"#utility.yul\":758:772   */\n  mstore\n    /* \"#utility.yul\":802:806   */\n  0x20\n    /* \"#utility.yul\":799:800   */\n  0x00\n    /* \"#utility.yul\":789:807   */\n  keccak256\n    /* \"#utility.yul\":781:807   */\n  swap1\n  pop\n    /* \"#utility.yul\":673:814   */\n  swap2\n  swap1\n  pop\n  jump\t// out\n    /* \"#utility.yul\":844:1689   */\ntag_23:\n    /* \"#utility.yul\":947:950   */\n  0x00\n    /* \"#utility.yul\":984:989   */\n  dup2\n    /* \"#utility.yul\":978:990   */\n  sload\n    /* \"#utility.yul\":1013:1049   */\n  tag_33\n    /* \"#utility.yul\":1039:1048   */\n  dup2\n    /* \"#utility.yul\":1013:1049   */\n  tag_10\n  jump\t// in\ntag_33:\n    /* \"#utility.yul\":1065:1154   */\n  tag_34\n    /* \"#utility.yul\":1147:1153   */\n  dup2\n    /* \"#utility.yul\":1142:1145   */\n  dup7\n    /* \"#utility.yul\":1065:1154   */\n  tag_21\n  jump\t// in\ntag_34:\n    /* \"#utility.yul\":1058:1154   */\n  swap5\n  pop\n    /* \"#utility.yul\":1185:1186   */\n  0x01\n    /* \"#utility.yul\":1174:1183   */\n  dup3\n    /* \"#utility.yul\":1170:1187   */\n  and\n    /* \"#utility.yul\":1201:1202   */\n  0x00\n    /* \"#utility.yul\":1196:1333   */\n  dup2\n  eq\n  tag_36\n  jumpi\n    /* \"#utility.yul\":1347:1348   */\n  0x01\n    /* \"#utility.yul\":1342:1683   */\n  dup2\n  eq\n  tag_37\n  jumpi\n    /* \"#utility.yul\":1163:1683   */\n  jump(tag_35)\n    /* \"#utility.yul\":1196:1333   */\ntag_36:\n    /* \"#utility.yul\":1280:1284   */\n  0xff\n    /* \"#utility.yul\":1276:1285   */\n  not\n    /* \"#utility.yul\":1265:1274   */\n  dup4\n    /* \"#utility.yul\":1261:1286   */\n  and\n    /* \"#utility.yul\":1256:1259   */\n  dup7\n    /* \"#utility.yul\":1249:1287   */\n  mstore\n    /* \"#utility.yul\":1316:1322   */\n  dup2\n    /* \"#utility.yul\":1311:1314   */\n  dup7\n    /* \"#utility.yul\":1307:1323   */\n  add\n    /* \"#utility.yul\":1300:1323   */\n  swap4\n  pop\n    /* \"#utility.yul\":1196:1333   */\n  jump(tag_35)\n    /* \"#utility.yul\":1342:1683   */\ntag_37:\n    /* \"#utility.yul\":1409:1447   */\n  tag_38\n    /* \"#utility.yul\":1441:1446   */\n  dup6\n    /* \"#utility.yul\":1409:1447   */\n  tag_22\n  jump\t// in\ntag_38:\n    /* \"#utility.yul\":1469:1470   */\n  0x00\n    /* \"#utility.yul\":1483:1637   */\ntag_39:\n    /* \"#utility.yul\":1497:1503   */\n  dup4\n    /* \"#utility.yul\":1494:1495   */\n  dup2\n    /* \"#utility.yul\":1491:1504   */\n  lt\n    /* \"#utility.yul\":1483:1637   */\n  iszero\n  tag_41\n  jumpi\n    /* \"#utility.yul\":1571:1578   */\n  dup2\n    /* \"#utility.yul\":1565:1579   */\n  sload\n    /* \"#utility.yul\":1561:1562   */\n  dup2\n    /* \"#utility.yul\":1556:1559   */\n  dup10\n    /* \"#utility.yul\":1552:1563   */\n  add\n    /* \"#utility.yul\":1545:1580   */\n  mstore\n    /* \"#utility.yul\":1621:1622   */\n  0x01\n    /* \"#utility.yul\":1612:1619   */\n  dup3\n    /* \"#utility.yul\":1608:1623   */\n  add\n    /* \"#utility.yul\":1597:1623   */\n  swap2\n  pop\n    /* \"#utility.yul\":1519:1523   */\n  0x20\n    /* \"#utility.yul\":1516:1517   */\n  dup2\n    /* \"#utility.yul\":1512:1524   */\n  add\n    /* \"#utility.yul\":1507:1524   */\n  swap1\n  pop\n    /* \"#utility.yul\":1483:1637   */\n  jump(tag_39)\ntag_41:\n    /* \"#utility.yul\":1666:1672   */\n  dup4\n    /* \"#utility.yul\":1661:1664   */\n  dup9\n    /* \"#utility.yul\":1657:1673   */\n  add\n    /* \"#utility.yul\":1650:1673   */\n  swap6\n  pop\n    /* \"#utility.yul\":1349:1683   */\n  pop\n  pop\n    /* \"#utility.yul\":1163:1683   */\ntag_35:\n  pop\n    /* \"#utility.yul\":951:1689   */\n  pop\n  pop\n    /* \"#utility.yul\":844:1689   */\n  swap3\n  swap2\n  pop\n  pop\n  jump\t// out\n    /* \"#utility.yul\":1695:1964   */\ntag_6:\n    /* \"#utility.yul\":1824:1827   */\n  0x00\n    /* \"#utility.yul\":1846:1938   */\n  tag_43\n    /* \"#utility.yul\":1934:1937   */\n  dup3\n    /* \"#utility.yul\":1925:1931   */\n  dup5\n    /* \"#utility.yul\":1846:1938   */\n  tag_23\n  jump\t// in\ntag_43:\n    /* \"#utility.yul\":1839:1938   */\n  swap2\n  pop\n    /* \"#utility.yul\":1955:1958   */\n  dup2\n    /* \"#utility.yul\":1948:1958   */\n  swap1\n  pop\n    /* \"#utility.yul\":1695:1964   */\n  swap3\n  swap2\n  pop\n  pop\n  jump\t// out\n    /* \"Tipos de variables y operadores/mas variables.sol\":105:950  contract mas_variables{... */\ntag_8:\n  dataSize(sub_0)\n  dup1\n  dataOffset(sub_0)\n  0x00\n  codecopy\n  0x00\n  return\nstop\n\nsub_0: assembly {\n        /* \"Tipos de variables y operadores/mas variables.sol\":105:950  contract mas_variables{... */\n      mstore(0x40, 0x80)\n      callvalue\n      dup1\n      iszero\n      tag_1\n      jumpi\n      0x00\n      dup1\n      revert\n    tag_1:\n      pop\n      jumpi(tag_2, lt(calldatasize, 0x04))\n      shr(0xe0, calldataload(0x00))\n      dup1\n      0x4ea35958\n      gt\n      tag_13\n      jumpi\n      dup1\n      0x4ea35958\n      eq\n      tag_8\n      jumpi\n      dup1\n      0x5fe4c677\n      eq\n      tag_9\n      jumpi\n      dup1\n      0x8320422e\n      eq\n      tag_10\n      jumpi\n      dup1\n      0xabf1d361\n      eq\n      tag_11\n      jumpi\n      dup1\n      0xbc7b35b2\n      eq\n      tag_12\n      jumpi\n      jump(tag_2)\n    tag_13:\n      dup1\n      0x09bd5a60\n      eq\n      tag_3\n      jumpi\n      dup1\n      0x0a3a9d63\n      eq\n      tag_4\n      jumpi\n      dup1\n      0x193fc42c\n      eq\n      tag_5\n      jumpi\n      dup1\n      0x303c3a14\n      eq\n      tag_6\n      jumpi\n      dup1\n      0x35a41acc\n      eq\n      tag_7\n      jumpi\n    tag_2:\n      0x00\n      dup1\n      revert\n        /* \"Tipos de variables y operadores/mas variables.sol\":537:594  bytes32 public hash = keccak256(abi.encodePacked(nombre)) */\n    tag_3:\n      tag_14\n      tag_15\n      jump\t// in\n    tag_14:\n      mload(0x40)\n      tag_16\n      swap2\n      swap1\n      tag_17\n      jump\t// in\n    tag_16:\n      mload(0x40)\n      dup1\n      swap2\n      sub\n      swap1\n      return\n        /* \"Tipos de variables y operadores/mas variables.sol\":191:231  string public saludo = \"hola como estas\" */\n    tag_4:\n      tag_18\n      tag_19\n      jump\t// in\n    tag_18:\n      mload(0x40)\n      tag_20\n      swap2\n      swap1\n      tag_21\n      jump\t// in\n    tag_20:\n      mload(0x40)\n      dup1\n      swap2\n      sub\n      swap1\n      return\n        /* \"Tipos de variables y operadores/mas variables.sol\":863:940  address public direccion_local_2 = 0xAb8483F64d9C6d1EcF9b849Ae677dD3315835cb2 */\n    tag_5:\n      tag_22\n      tag_23\n      jump\t// in\n    tag_22:\n      mload(0x40)\n      tag_24\n      swap2\n      swap1\n      tag_25\n      jump\t// in\n    tag_24:\n      mload(0x40)\n      dup1\n      swap2\n      sub\n      swap1\n      return\n        /* \"Tipos de variables y operadores/mas variables.sol\":238:269  string public cadena_vacia = \"\" */\n    tag_6:\n      tag_26\n      tag_27\n      jump\t// in\n    tag_26:\n      mload(0x40)\n      tag_28\n      swap2\n      swap1\n      tag_21\n      jump\t// in\n    tag_28:\n      mload(0x40)\n      dup1\n      swap2\n      sub\n      swap1\n      return\n        /* \"Tipos de variables y operadores/mas variables.sol\":601:628  bytes4 public identificador */\n    tag_7:\n      tag_29\n      tag_30\n      jump\t// in\n    tag_29:\n      mload(0x40)\n      tag_31\n      swap2\n      swap1\n      tag_32\n      jump\t// in\n    tag_31:\n      mload(0x40)\n      dup1\n      swap2\n      sub\n      swap1\n      return\n        /* \"Tipos de variables y operadores/mas variables.sol\":375:403  bool public flag_true = true */\n    tag_8:\n      tag_33\n      tag_34\n      jump\t// in\n    tag_33:\n      mload(0x40)\n      tag_35\n      swap2\n      swap1\n      tag_36\n      jump\t// in\n    tag_35:\n      mload(0x40)\n      dup1\n      swap2\n      sub\n      swap1\n      return\n        /* \"Tipos de variables y operadores/mas variables.sol\":410:440  bool public flag_false = false */\n    tag_9:\n      tag_37\n      tag_38\n      jump\t// in\n    tag_37:\n      mload(0x40)\n      tag_39\n      swap2\n      swap1\n      tag_36\n      jump\t// in\n    tag_39:\n      mload(0x40)\n      dup1\n      swap2\n      sub\n      swap1\n      return\n        /* \"Tipos de variables y operadores/mas variables.sol\":637:710  function ejemploBytes4() public{... */\n    tag_10:\n      tag_40\n      tag_41\n      jump\t// in\n    tag_40:\n      stop\n        /* \"Tipos de variables y operadores/mas variables.sol\":779:856  address public direccion_local_1 = 0x5B38Da6a701c568545dCfcB03FcB875f56beddC4 */\n    tag_11:\n      tag_42\n      tag_43\n      jump\t// in\n    tag_42:\n      mload(0x40)\n      tag_44\n      swap2\n      swap1\n      tag_25\n      jump\t// in\n    tag_44:\n      mload(0x40)\n      dup1\n      swap2\n      sub\n      swap1\n      return\n        /* \"Tipos de variables y operadores/mas variables.sol\":276:308  string public nombre = \"Luciano\" */\n    tag_12:\n      tag_45\n      tag_46\n      jump\t// in\n    tag_45:\n      mload(0x40)\n      tag_47\n      swap2\n      swap1\n      tag_21\n      jump\t// in\n    tag_47:\n      mload(0x40)\n      dup1\n      swap2\n      sub\n      swap1\n      return\n        /* \"Tipos de variables y operadores/mas variables.sol\":537:594  bytes32 public hash = keccak256(abi.encodePacked(nombre)) */\n    tag_15:\n      sload(0x07)\n      dup2\n      jump\t// out\n        /* \"Tipos de variables y operadores/mas variables.sol\":191:231  string public saludo = \"hola como estas\" */\n    tag_19:\n      0x01\n      dup1\n      sload\n      tag_48\n      swap1\n      tag_49\n      jump\t// in\n    tag_48:\n      dup1\n      0x1f\n      add\n      0x20\n      dup1\n      swap2\n      div\n      mul\n      0x20\n      add\n      mload(0x40)\n      swap1\n      dup2\n      add\n      0x40\n      mstore\n      dup1\n      swap3\n      swap2\n      swap1\n      dup2\n      dup2\n      mstore\n      0x20\n      add\n      dup3\n      dup1\n      sload\n      tag_50\n      swap1\n      tag_49\n      jump\t// in\n    tag_50:\n      dup1\n      iszero\n      tag_51\n      jumpi\n      dup1\n      0x1f\n      lt\n      tag_52\n      jumpi\n      0x0100\n      dup1\n      dup4\n      sload\n      div\n      mul\n      dup4\n      mstore\n      swap2\n      0x20\n      add\n      swap2\n      jump(tag_51)\n    tag_52:\n      dup3\n      add\n      swap2\n      swap1\n      0x00\n      mstore\n      keccak256(0x00, 0x20)\n      swap1\n    tag_53:\n      dup2\n      sload\n      dup2\n      mstore\n      swap1\n      0x01\n      add\n      swap1\n      0x20\n      add\n      dup1\n      dup4\n      gt\n      tag_53\n      jumpi\n      dup3\n      swap1\n      sub\n      0x1f\n      and\n      dup3\n      add\n      swap2\n    tag_51:\n      pop\n      pop\n      pop\n      pop\n      pop\n      dup2\n      jump\t// out\n        /* \"Tipos de variables y operadores/mas variables.sol\":863:940  address public direccion_local_2 = 0xAb8483F64d9C6d1EcF9b849Ae677dD3315835cb2 */\n    tag_23:\n      0x0a\n      0x00\n      swap1\n      sload\n      swap1\n      0x0100\n      exp\n      swap1\n      div\n      0xffffffffffffffffffffffffffffffffffffffff\n      and\n      dup2\n      jump\t// out\n        /* \"Tipos de variables y operadores/mas variables.sol\":238:269  string public cadena_vacia = \"\" */\n    tag_27:\n      0x02\n      dup1\n      sload\n      tag_54\n      swap1\n      tag_49\n      jump\t// in\n    tag_54:\n      dup1\n      0x1f\n      add\n      0x20\n      dup1\n      swap2\n      div\n      mul\n      0x20\n      add\n      mload(0x40)\n      swap1\n      dup2\n      add\n      0x40\n      mstore\n      dup1\n      swap3\n      swap2\n      swap1\n      dup2\n      dup2\n      mstore\n      0x20\n      add\n      dup3\n      dup1\n      sload\n      tag_55\n      swap1\n      tag_49\n      jump\t// in\n    tag_55:\n      dup1\n      iszero\n      tag_56\n      jumpi\n      dup1\n      0x1f\n      lt\n      tag_57\n      jumpi\n      0x0100\n      dup1\n      dup4\n      sload\n      div\n      mul\n      dup4\n      mstore\n      swap2\n      0x20\n      add\n      swap2\n      jump(tag_56)\n    tag_57:\n      dup3\n      add\n      swap2\n      swap1\n      0x00\n      mstore\n      keccak256(0x00, 0x20)\n      swap1\n    tag_58:\n      dup2\n      sload\n      dup2\n      mstore\n      swap1\n      0x01\n      add\n      swap1\n      0x20\n      add\n      dup1\n      dup4\n      gt\n      tag_58\n      jumpi\n      dup3\n      swap1\n      sub\n      0x1f\n      and\n      dup3\n      add\n      swap2\n    tag_56:\n      pop\n      pop\n      pop\n      pop\n      pop\n      dup2\n      jump\t// out\n        /* \"Tipos de variables y operadores/mas variables.sol\":601:628  bytes4 public identificador */\n    tag_30:\n      0x08\n      0x00\n      swap1\n      sload\n      swap1\n      0x0100\n      exp\n      swap1\n      div\n      0xe0\n      shl\n      dup2\n      jump\t// out\n        /* \"Tipos de variables y operadores/mas variables.sol\":375:403  bool public flag_true = true */\n    tag_34:\n      0x04\n      0x01\n      swap1\n      sload\n      swap1\n      0x0100\n      exp\n      swap1\n      div\n      0xff\n      and\n      dup2\n      jump\t// out\n        /* \"Tipos de variables y operadores/mas variables.sol\":410:440  bool public flag_false = false */\n    tag_38:\n      0x04\n      0x02\n      swap1\n      sload\n      swap1\n      0x0100\n      exp\n      swap1\n      div\n      0xff\n      and\n      dup2\n      jump\t// out\n        /* \"Tipos de variables y operadores/mas variables.sol\":637:710  function ejemploBytes4() public{... */\n    tag_41:\n        /* \"Tipos de variables y operadores/mas variables.sol\":695:702  msg.sig */\n      and(0xffffffff00000000000000000000000000000000000000000000000000000000, calldataload(0x00))\n        /* \"Tipos de variables y operadores/mas variables.sol\":679:692  identificador */\n      0x08\n      0x00\n        /* \"Tipos de variables y operadores/mas variables.sol\":679:702  identificador = msg.sig */\n      0x0100\n      exp\n      dup2\n      sload\n      dup2\n      0xffffffff\n      mul\n      not\n      and\n      swap1\n      dup4\n      0xe0\n      shr\n      mul\n      or\n      swap1\n      sstore\n      pop\n        /* \"Tipos de variables y operadores/mas variables.sol\":637:710  function ejemploBytes4() public{... */\n      jump\t// out\n        /* \"Tipos de variables y operadores/mas variables.sol\":779:856  address public direccion_local_1 = 0x5B38Da6a701c568545dCfcB03FcB875f56beddC4 */\n    tag_43:\n      0x09\n      0x00\n      swap1\n      sload\n      swap1\n      0x0100\n      exp\n      swap1\n      div\n      0xffffffffffffffffffffffffffffffffffffffff\n      and\n      dup2\n      jump\t// out\n        /* \"Tipos de variables y operadores/mas variables.sol\":276:308  string public nombre = \"Luciano\" */\n    tag_46:\n      0x03\n      dup1\n      sload\n      tag_60\n      swap1\n      tag_49\n      jump\t// in\n    tag_60:\n      dup1\n      0x1f\n      add\n      0x20\n      dup1\n      swap2\n      div\n      mul\n      0x20\n      add\n      mload(0x40)\n      swap1\n      dup2\n      add\n      0x40\n      mstore\n      dup1\n      swap3\n      swap2\n      swap1\n      dup2\n      dup2\n      mstore\n      0x20\n      add\n      dup3\n      dup1\n      sload\n      tag_61\n      swap1\n      tag_49\n      jump\t// in\n    tag_61:\n      dup1\n      iszero\n      tag_62\n      jumpi\n      dup1\n      0x1f\n      lt\n      tag_63\n      jumpi\n      0x0100\n      dup1\n      dup4\n      sload\n      div\n      mul\n      dup4\n      mstore\n      swap2\n      0x20\n      add\n      swap2\n      jump(tag_62)\n    tag_63:\n      dup3\n      add\n      swap2\n      swap1\n      0x00\n      mstore\n      keccak256(0x00, 0x20)\n      swap1\n    tag_64:\n      dup2\n      sload\n      dup2\n      mstore\n      swap1\n      0x01\n      add\n      swap1\n      0x20\n      add\n      dup1\n      dup4\n      gt\n      tag_64\n      jumpi\n      dup3\n      swap1\n      sub\n      0x1f\n      and\n      dup3\n      add\n      swap2\n    tag_62:\n      pop\n      pop\n      pop\n      pop\n      pop\n      dup2\n      jump\t// out\n        /* \"#utility.yul\":7:84   */\n    tag_65:\n        /* \"#utility.yul\":44:51   */\n      0x00\n        /* \"#utility.yul\":73:78   */\n      dup2\n        /* \"#utility.yul\":62:78   */\n      swap1\n      pop\n        /* \"#utility.yul\":7:84   */\n      swap2\n      swap1\n      pop\n      jump\t// out\n        /* \"#utility.yul\":90:208   */\n    tag_66:\n        /* \"#utility.yul\":177:201   */\n      tag_83\n        /* \"#utility.yul\":195:200   */\n      dup2\n        /* \"#utility.yul\":177:201   */\n      tag_65\n      jump\t// in\n    tag_83:\n        /* \"#utility.yul\":172:175   */\n      dup3\n        /* \"#utility.yul\":165:202   */\n      mstore\n        /* \"#utility.yul\":90:208   */\n      pop\n      pop\n      jump\t// out\n        /* \"#utility.yul\":214:436   */\n    tag_17:\n        /* \"#utility.yul\":307:311   */\n      0x00\n        /* \"#utility.yul\":345:347   */\n      0x20\n        /* \"#utility.yul\":334:343   */\n      dup3\n        /* \"#utility.yul\":330:348   */\n      add\n        /* \"#utility.yul\":322:348   */\n      swap1\n      pop\n        /* \"#utility.yul\":358:429   */\n      tag_85\n        /* \"#utility.yul\":426:427   */\n      0x00\n        /* \"#utility.yul\":415:424   */\n      dup4\n        /* \"#utility.yul\":411:428   */\n      add\n        /* \"#utility.yul\":402:408   */\n      dup5\n        /* \"#utility.yul\":358:429   */\n      tag_66\n      jump\t// in\n    tag_85:\n        /* \"#utility.yul\":214:436   */\n      swap3\n      swap2\n      pop\n      pop\n      jump\t// out\n        /* \"#utility.yul\":442:541   */\n    tag_67:\n        /* \"#utility.yul\":494:500   */\n      0x00\n        /* \"#utility.yul\":528:533   */\n      dup2\n        /* \"#utility.yul\":522:534   */\n      mload\n        /* \"#utility.yul\":512:534   */\n      swap1\n      pop\n        /* \"#utility.yul\":442:541   */\n      swap2\n      swap1\n      pop\n      jump\t// out\n        /* \"#utility.yul\":547:716   */\n    tag_68:\n        /* \"#utility.yul\":631:642   */\n      0x00\n        /* \"#utility.yul\":665:671   */\n      dup3\n        /* \"#utility.yul\":660:663   */\n      dup3\n        /* \"#utility.yul\":653:672   */\n      mstore\n        /* \"#utility.yul\":705:709   */\n      0x20\n        /* \"#utility.yul\":700:703   */\n      dup3\n        /* \"#utility.yul\":696:710   */\n      add\n        /* \"#utility.yul\":681:710   */\n      swap1\n      pop\n        /* \"#utility.yul\":547:716   */\n      swap3\n      swap2\n      pop\n      pop\n      jump\t// out\n        /* \"#utility.yul\":722:1029   */\n    tag_69:\n        /* \"#utility.yul\":790:791   */\n      0x00\n        /* \"#utility.yul\":800:913   */\n    tag_89:\n        /* \"#utility.yul\":814:820   */\n      dup4\n        /* \"#utility.yul\":811:812   */\n      dup2\n        /* \"#utility.yul\":808:821   */\n      lt\n        /* \"#utility.yul\":800:913   */\n      iszero\n      tag_91\n      jumpi\n        /* \"#utility.yul\":899:900   */\n      dup1\n        /* \"#utility.yul\":894:897   */\n      dup3\n        /* \"#utility.yul\":890:901   */\n      add\n        /* \"#utility.yul\":884:902   */\n      mload\n        /* \"#utility.yul\":880:881   */\n      dup2\n        /* \"#utility.yul\":875:878   */\n      dup5\n        /* \"#utility.yul\":871:882   */\n      add\n        /* \"#utility.yul\":864:903   */\n      mstore\n        /* \"#utility.yul\":836:838   */\n      0x20\n        /* \"#utility.yul\":833:834   */\n      dup2\n        /* \"#utility.yul\":829:839   */\n      add\n        /* \"#utility.yul\":824:839   */\n      swap1\n      pop\n        /* \"#utility.yul\":800:913   */\n      jump(tag_89)\n    tag_91:\n        /* \"#utility.yul\":931:937   */\n      dup4\n        /* \"#utility.yul\":928:929   */\n      dup2\n        /* \"#utility.yul\":925:938   */\n      gt\n        /* \"#utility.yul\":922:1023   */\n      iszero\n      tag_92\n      jumpi\n        /* \"#utility.yul\":1011:1012   */\n      0x00\n        /* \"#utility.yul\":1002:1008   */\n      dup5\n        /* \"#utility.yul\":997:1000   */\n      dup5\n        /* \"#utility.yul\":993:1009   */\n      add\n        /* \"#utility.yul\":986:1013   */\n      mstore\n        /* \"#utility.yul\":922:1023   */\n    tag_92:\n        /* \"#utility.yul\":771:1029   */\n      pop\n        /* \"#utility.yul\":722:1029   */\n      pop\n      pop\n      pop\n      jump\t// out\n        /* \"#utility.yul\":1035:1137   */\n    tag_70:\n        /* \"#utility.yul\":1076:1082   */\n      0x00\n        /* \"#utility.yul\":1127:1129   */\n      0x1f\n        /* \"#utility.yul\":1123:1130   */\n      not\n        /* \"#utility.yul\":1118:1120   */\n      0x1f\n        /* \"#utility.yul\":1111:1116   */\n      dup4\n        /* \"#utility.yul\":1107:1121   */\n      add\n        /* \"#utility.yul\":1103:1131   */\n      and\n        /* \"#utility.yul\":1093:1131   */\n      swap1\n      pop\n        /* \"#utility.yul\":1035:1137   */\n      swap2\n      swap1\n      pop\n      jump\t// out\n        /* \"#utility.yul\":1143:1507   */\n    tag_71:\n        /* \"#utility.yul\":1231:1234   */\n      0x00\n        /* \"#utility.yul\":1259:1298   */\n      tag_95\n        /* \"#utility.yul\":1292:1297   */\n      dup3\n        /* \"#utility.yul\":1259:1298   */\n      tag_67\n      jump\t// in\n    tag_95:\n        /* \"#utility.yul\":1314:1385   */\n      tag_96\n        /* \"#utility.yul\":1378:1384   */\n      dup2\n        /* \"#utility.yul\":1373:1376   */\n      dup6\n        /* \"#utility.yul\":1314:1385   */\n      tag_68\n      jump\t// in\n    tag_96:\n        /* \"#utility.yul\":1307:1385   */\n      swap4\n      pop\n        /* \"#utility.yul\":1394:1446   */\n      tag_97\n        /* \"#utility.yul\":1439:1445   */\n      dup2\n        /* \"#utility.yul\":1434:1437   */\n      dup6\n        /* \"#utility.yul\":1427:1431   */\n      0x20\n        /* \"#utility.yul\":1420:1425   */\n      dup7\n        /* \"#utility.yul\":1416:1432   */\n      add\n        /* \"#utility.yul\":1394:1446   */\n      tag_69\n      jump\t// in\n    tag_97:\n        /* \"#utility.yul\":1471:1500   */\n      tag_98\n        /* \"#utility.yul\":1493:1499   */\n      dup2\n        /* \"#utility.yul\":1471:1500   */\n      tag_70\n      jump\t// in\n    tag_98:\n        /* \"#utility.yul\":1466:1469   */\n      dup5\n        /* \"#utility.yul\":1462:1501   */\n      add\n        /* \"#utility.yul\":1455:1501   */\n      swap2\n      pop\n        /* \"#utility.yul\":1235:1507   */\n      pop\n        /* \"#utility.yul\":1143:1507   */\n      swap3\n      swap2\n      pop\n      pop\n      jump\t// out\n        /* \"#utility.yul\":1513:1826   */\n    tag_21:\n        /* \"#utility.yul\":1626:1630   */\n      0x00\n        /* \"#utility.yul\":1664:1666   */\n      0x20\n        /* \"#utility.yul\":1653:1662   */\n      dup3\n        /* \"#utility.yul\":1649:1667   */\n      add\n        /* \"#utility.yul\":1641:1667   */\n      swap1\n      pop\n        /* \"#utility.yul\":1713:1722   */\n      dup2\n        /* \"#utility.yul\":1707:1711   */\n      dup2\n        /* \"#utility.yul\":1703:1723   */\n      sub\n        /* \"#utility.yul\":1699:1700   */\n      0x00\n        /* \"#utility.yul\":1688:1697   */\n      dup4\n        /* \"#utility.yul\":1684:1701   */\n      add\n        /* \"#utility.yul\":1677:1724   */\n      mstore\n        /* \"#utility.yul\":1741:1819   */\n      tag_100\n        /* \"#utility.yul\":1814:1818   */\n      dup2\n        /* \"#utility.yul\":1805:1811   */\n      dup5\n        /* \"#utility.yul\":1741:1819   */\n      tag_71\n      jump\t// in\n    tag_100:\n        /* \"#utility.yul\":1733:1819   */\n      swap1\n      pop\n        /* \"#utility.yul\":1513:1826   */\n      swap3\n      swap2\n      pop\n      pop\n      jump\t// out\n        /* \"#utility.yul\":1832:1958   */\n    tag_72:\n        /* \"#utility.yul\":1869:1876   */\n      0x00\n        /* \"#utility.yul\":1909:1951   */\n      0xffffffffffffffffffffffffffffffffffffffff\n        /* \"#utility.yul\":1902:1907   */\n      dup3\n        /* \"#utility.yul\":1898:1952   */\n      and\n        /* \"#utility.yul\":1887:1952   */\n      swap1\n      pop\n        /* \"#utility.yul\":1832:1958   */\n      swap2\n      swap1\n      pop\n      jump\t// out\n        /* \"#utility.yul\":1964:2060   */\n    tag_73:\n        /* \"#utility.yul\":2001:2008   */\n      0x00\n        /* \"#utility.yul\":2030:2054   */\n      tag_103\n        /* \"#utility.yul\":2048:2053   */\n      dup3\n        /* \"#utility.yul\":2030:2054   */\n      tag_72\n      jump\t// in\n    tag_103:\n        /* \"#utility.yul\":2019:2054   */\n      swap1\n      pop\n        /* \"#utility.yul\":1964:2060   */\n      swap2\n      swap1\n      pop\n      jump\t// out\n        /* \"#utility.yul\":2066:2184   */\n    tag_74:\n        /* \"#utility.yul\":2153:2177   */\n      tag_105\n        /* \"#utility.yul\":2171:2176   */\n      dup2\n        /* \"#utility.yul\":2153:2177   */\n      tag_73\n      jump\t// in\n    tag_105:\n        /* \"#utility.yul\":2148:2151   */\n      dup3\n        /* \"#utility.yul\":2141:2178   */\n      mstore\n        /* \"#utility.yul\":2066:2184   */\n      pop\n      pop\n      jump\t// out\n        /* \"#utility.yul\":2190:2412   */\n    tag_25:\n        /* \"#utility.yul\":2283:2287   */\n      0x00\n        /* \"#utility.yul\":2321:2323   */\n      0x20\n        /* \"#utility.yul\":2310:2319   */\n      dup3\n        /* \"#utility.yul\":2306:2324   */\n      add\n        /* \"#utility.yul\":2298:2324   */\n      swap1\n      pop\n        /* \"#utility.yul\":2334:2405   */\n      tag_107\n        /* \"#utility.yul\":2402:2403   */\n      0x00\n        /* \"#utility.yul\":2391:2400   */\n      dup4\n        /* \"#utility.yul\":2387:2404   */\n      add\n        /* \"#utility.yul\":2378:2384   */\n      dup5\n        /* \"#utility.yul\":2334:2405   */\n      tag_74\n      jump\t// in\n    tag_107:\n        /* \"#utility.yul\":2190:2412   */\n      swap3\n      swap2\n      pop\n      pop\n      jump\t// out\n        /* \"#utility.yul\":2418:2567   */\n    tag_75:\n        /* \"#utility.yul\":2454:2461   */\n      0x00\n        /* \"#utility.yul\":2494:2560   */\n      0xffffffff00000000000000000000000000000000000000000000000000000000\n        /* \"#utility.yul\":2487:2492   */\n      dup3\n        /* \"#utility.yul\":2483:2561   */\n      and\n        /* \"#utility.yul\":2472:2561   */\n      swap1\n      pop\n        /* \"#utility.yul\":2418:2567   */\n      swap2\n      swap1\n      pop\n      jump\t// out\n        /* \"#utility.yul\":2573:2688   */\n    tag_76:\n        /* \"#utility.yul\":2658:2681   */\n      tag_110\n        /* \"#utility.yul\":2675:2680   */\n      dup2\n        /* \"#utility.yul\":2658:2681   */\n      tag_75\n      jump\t// in\n    tag_110:\n        /* \"#utility.yul\":2653:2656   */\n      dup3\n        /* \"#utility.yul\":2646:2682   */\n      mstore\n        /* \"#utility.yul\":2573:2688   */\n      pop\n      pop\n      jump\t// out\n        /* \"#utility.yul\":2694:2912   */\n    tag_32:\n        /* \"#utility.yul\":2785:2789   */\n      0x00\n        /* \"#utility.yul\":2823:2825   */\n      0x20\n        /* \"#utility.yul\":2812:2821   */\n      dup3\n        /* \"#utility.yul\":2808:2826   */\n      add\n        /* \"#utility.yul\":2800:2826   */\n      swap1\n      pop\n        /* \"#utility.yul\":2836:2905   */\n      tag_112\n        /* \"#utility.yul\":2902:2903   */\n      0x00\n        /* \"#utility.yul\":2891:2900   */\n      dup4\n        /* \"#utility.yul\":2887:2904   */\n      add\n        /* \"#utility.yul\":2878:2884   */\n      dup5\n        /* \"#utility.yul\":2836:2905   */\n      tag_76\n      jump\t// in\n    tag_112:\n        /* \"#utility.yul\":2694:2912   */\n      swap3\n      swap2\n      pop\n      pop\n      jump\t// out\n        /* \"#utility.yul\":2918:3008   */\n    tag_77:\n        /* \"#utility.yul\":2952:2959   */\n      0x00\n        /* \"#utility.yul\":2995:3000   */\n      dup2\n        /* \"#utility.yul\":2988:3001   */\n      iszero\n        /* \"#utility.yul\":2981:3002   */\n      iszero\n        /* \"#utility.yul\":2970:3002   */\n      swap1\n      pop\n        /* \"#utility.yul\":2918:3008   */\n      swap2\n      swap1\n      pop\n      jump\t// out\n        /* \"#utility.yul\":3014:3123   */\n    tag_78:\n        /* \"#utility.yul\":3095:3116   */\n      tag_115\n        /* \"#utility.yul\":3110:3115   */\n      dup2\n        /* \"#utility.yul\":3095:3116   */\n      tag_77\n      jump\t// in\n    tag_115:\n        /* \"#utility.yul\":3090:3093   */\n      dup3\n        /* \"#utility.yul\":3083:3117   */\n      mstore\n        /* \"#utility.yul\":3014:3123   */\n      pop\n      pop\n      jump\t// out\n        /* \"#utility.yul\":3129:3339   */\n    tag_36:\n        /* \"#utility.yul\":3216:3220   */\n      0x00\n        /* \"#utility.yul\":3254:3256   */\n      0x20\n        /* \"#utility.yul\":3243:3252   */\n      dup3\n        /* \"#utility.yul\":3239:3257   */\n      add\n        /* \"#utility.yul\":3231:3257   */\n      swap1\n      pop\n        /* \"#utility.yul\":3267:3332   */\n      tag_117\n        /* \"#utility.yul\":3329:3330   */\n      0x00\n        /* \"#utility.yul\":3318:3327   */\n      dup4\n        /* \"#utility.yul\":3314:3331   */\n      add\n        /* \"#utility.yul\":3305:3311   */\n      dup5\n        /* \"#utility.yul\":3267:3332   */\n      tag_78\n      jump\t// in\n    tag_117:\n        /* \"#utility.yul\":3129:3339   */\n      swap3\n      swap2\n      pop\n      pop\n      jump\t// out\n        /* \"#utility.yul\":3345:3525   */\n    tag_79:\n        /* \"#utility.yul\":3393:3470   */\n      0x4e487b7100000000000000000000000000000000000000000000000000000000\n        /* \"#utility.yul\":3390:3391   */\n      0x00\n        /* \"#utility.yul\":3383:3471   */\n      mstore\n        /* \"#utility.yul\":3490:3494   */\n      0x22\n        /* \"#utility.yul\":3487:3488   */\n      0x04\n        /* \"#utility.yul\":3480:3495   */\n      mstore\n        /* \"#utility.yul\":3514:3518   */\n      0x24\n        /* \"#utility.yul\":3511:3512   */\n      0x00\n        /* \"#utility.yul\":3504:3519   */\n      revert\n        /* \"#utility.yul\":3531:3851   */\n    tag_49:\n        /* \"#utility.yul\":3575:3581   */\n      0x00\n        /* \"#utility.yul\":3612:3613   */\n      0x02\n        /* \"#utility.yul\":3606:3610   */\n      dup3\n        /* \"#utility.yul\":3602:3614   */\n      div\n        /* \"#utility.yul\":3592:3614   */\n      swap1\n      pop\n        /* \"#utility.yul\":3659:3660   */\n      0x01\n        /* \"#utility.yul\":3653:3657   */\n      dup3\n        /* \"#utility.yul\":3649:3661   */\n      and\n        /* \"#utility.yul\":3680:3698   */\n      dup1\n        /* \"#utility.yul\":3670:3751   */\n      tag_120\n      jumpi\n        /* \"#utility.yul\":3736:3740   */\n      0x7f\n        /* \"#utility.yul\":3728:3734   */\n      dup3\n        /* \"#utility.yul\":3724:3741   */\n      and\n        /* \"#utility.yul\":3714:3741   */\n      swap2\n      pop\n        /* \"#utility.yul\":3670:3751   */\n    tag_120:\n        /* \"#utility.yul\":3798:3800   */\n      0x20\n        /* \"#utility.yul\":3790:3796   */\n      dup3\n        /* \"#utility.yul\":3787:3801   */\n      lt\n        /* \"#utility.yul\":3767:3785   */\n      dup2\n        /* \"#utility.yul\":3764:3802   */\n      sub\n        /* \"#utility.yul\":3761:3845   */\n      tag_121\n      jumpi\n        /* \"#utility.yul\":3817:3835   */\n      tag_122\n      tag_79\n      jump\t// in\n    tag_122:\n        /* \"#utility.yul\":3761:3845   */\n    tag_121:\n        /* \"#utility.yul\":3582:3851   */\n      pop\n        /* \"#utility.yul\":3531:3851   */\n      swap2\n      swap1\n      pop\n      jump\t// out\n\n    auxdata: 0xa2646970667358221220bd0ea1d8486d2b7168cdf34131671bc958f767ea1f13320a049618901dc6352464736f6c634300080d0033\n}\n",
				"bytecode": {
					"linkReferences": {},
					"object": "60806040526040518060400160405280600f81526020017f686f6c6120636f6d6f20657374617300000000000000000000000000000000008152506001908051906020019062000051929190620001e9565b50604051806020016040528060008152506002908051906020019062000079929190620001e9565b506040518060400160405280600781526020017f4c756369616e6f0000000000000000000000000000000000000000000000000081525060039080519060200190620000c7929190620001e9565b506001600460016101000a81548160ff0219169083151502179055506000600460026101000a81548160ff0219169083151502179055506003604051602001620001129190620003a8565b60405160208183030381529060405280519060200120600755735b38da6a701c568545dcfcb03fcb875f56beddc4600960006101000a81548173ffffffffffffffffffffffffffffffffffffffff021916908373ffffffffffffffffffffffffffffffffffffffff16021790555073ab8483f64d9c6d1ecf9b849ae677dd3315835cb2600a60006101000a81548173ffffffffffffffffffffffffffffffffffffffff021916908373ffffffffffffffffffffffffffffffffffffffff160217905550348015620001e257600080fd5b50620003c1565b828054620001f790620002c8565b90600052602060002090601f0160209004810192826200021b576000855562000267565b82601f106200023657805160ff191683800117855562000267565b8280016001018555821562000267579182015b828111156200026657825182559160200191906001019062000249565b5b5090506200027691906200027a565b5090565b5b80821115620002955760008160009055506001016200027b565b5090565b7f4e487b7100000000000000000000000000000000000000000000000000000000600052602260045260246000fd5b60006002820490506001821680620002e157607f821691505b602082108103620002f757620002f662000299565b5b50919050565b600081905092915050565b60008190508160005260206000209050919050565b600081546200032c81620002c8565b620003388186620002fd565b9450600182166000811462000356576001811462000368576200039f565b60ff198316865281860193506200039f565b620003738562000308565b60005b83811015620003975781548189015260018201915060208101905062000376565b838801955050505b50505092915050565b6000620003b682846200031d565b915081905092915050565b6106a180620003d16000396000f3fe608060405234801561001057600080fd5b506004361061009e5760003560e01c80634ea35958116100665780634ea35958146101395780635fe4c677146101575780638320422e14610175578063abf1d3611461017f578063bc7b35b21461019d5761009e565b806309bd5a60146100a35780630a3a9d63146100c1578063193fc42c146100df578063303c3a14146100fd57806335a41acc1461011b575b600080fd5b6100ab6101bb565b6040516100b8919061044d565b60405180910390f35b6100c96101c1565b6040516100d69190610501565b60405180910390f35b6100e761024f565b6040516100f49190610564565b60405180910390f35b610105610275565b6040516101129190610501565b60405180910390f35b610123610303565b60405161013091906105ba565b60405180910390f35b610141610316565b60405161014e91906105f0565b60405180910390f35b61015f610329565b60405161016c91906105f0565b60405180910390f35b61017d61033c565b005b610187610380565b6040516101949190610564565b60405180910390f35b6101a56103a6565b6040516101b29190610501565b60405180910390f35b60075481565b600180546101ce9061063a565b80601f01602080910402602001604051908101604052809291908181526020018280546101fa9061063a565b80156102475780601f1061021c57610100808354040283529160200191610247565b820191906000526020600020905b81548152906001019060200180831161022a57829003601f168201915b505050505081565b600a60009054906101000a900473ffffffffffffffffffffffffffffffffffffffff1681565b600280546102829061063a565b80601f01602080910402602001604051908101604052809291908181526020018280546102ae9061063a565b80156102fb5780601f106102d0576101008083540402835291602001916102fb565b820191906000526020600020905b8154815290600101906020018083116102de57829003601f168201915b505050505081565b600860009054906101000a900460e01b81565b600460019054906101000a900460ff1681565b600460029054906101000a900460ff1681565b6000357fffffffff0000000000000000000000000000000000000000000000000000000016600860006101000a81548163ffffffff021916908360e01c0217905550565b600960009054906101000a900473ffffffffffffffffffffffffffffffffffffffff1681565b600380546103b39061063a565b80601f01602080910402602001604051908101604052809291908181526020018280546103df9061063a565b801561042c5780601f106104015761010080835404028352916020019161042c565b820191906000526020600020905b81548152906001019060200180831161040f57829003601f168201915b505050505081565b6000819050919050565b61044781610434565b82525050565b6000602082019050610462600083018461043e565b92915050565b600081519050919050565b600082825260208201905092915050565b60005b838110156104a2578082015181840152602081019050610487565b838111156104b1576000848401525b50505050565b6000601f19601f8301169050919050565b60006104d382610468565b6104dd8185610473565b93506104ed818560208601610484565b6104f6816104b7565b840191505092915050565b6000602082019050818103600083015261051b81846104c8565b905092915050565b600073ffffffffffffffffffffffffffffffffffffffff82169050919050565b600061054e82610523565b9050919050565b61055e81610543565b82525050565b60006020820190506105796000830184610555565b92915050565b60007fffffffff0000000000000000000000000000000000000000000000000000000082169050919050565b6105b48161057f565b82525050565b60006020820190506105cf60008301846105ab565b92915050565b60008115159050919050565b6105ea816105d5565b82525050565b600060208201905061060560008301846105e1565b92915050565b7f4e487b7100000000000000000000000000000000000000000000000000000000600052602260045260246000fd5b6000600282049050600182168061065257607f821691505b6020821081036106655761066461060b565b5b5091905056fea2646970667358221220bd0ea1d8486d2b7168cdf34131671bc958f767ea1f13320a049618901dc6352464736f6c634300080d0033",
					"opcodes": "PUSH1 0x80 PUSH1 0x40 MSTORE PUSH1 0x40 MLOAD DUP1 PUSH1 0x40 ADD PUSH1 0x40 MSTORE DUP1 PUSH1 0xF DUP2 MSTORE PUSH1 0x20 ADD PUSH32 0x686F6C6120636F6D6F2065737461730000000000000000000000000000000000 DUP2 MSTORE POP PUSH1 0x1 SWAP1 DUP1 MLOAD SWAP1 PUSH1 0x20 ADD SWAP1 PUSH3 0x51 SWAP3 SWAP2 SWAP1 PUSH3 0x1E9 JUMP JUMPDEST POP PUSH1 0x40 MLOAD DUP1 PUSH1 0x20 ADD PUSH1 0x40 MSTORE DUP1 PUSH1 0x0 DUP2 MSTORE POP PUSH1 0x2 SWAP1 DUP1 MLOAD SWAP1 PUSH1 0x20 ADD SWAP1 PUSH3 0x79 SWAP3 SWAP2 SWAP1 PUSH3 0x1E9 JUMP JUMPDEST POP PUSH1 0x40 MLOAD DUP1 PUSH1 0x40 ADD PUSH1 0x40 MSTORE DUP1 PUSH1 0x7 DUP2 MSTORE PUSH1 0x20 ADD PUSH32 0x4C756369616E6F00000000000000000000000000000000000000000000000000 DUP2 MSTORE POP PUSH1 0x3 SWAP1 DUP1 MLOAD SWAP1 PUSH1 0x20 ADD SWAP1 PUSH3 0xC7 SWAP3 SWAP2 SWAP1 PUSH3 0x1E9 JUMP JUMPDEST POP PUSH1 0x1 PUSH1 0x4 PUSH1 0x1 PUSH2 0x100 EXP DUP2 SLOAD DUP2 PUSH1 0xFF MUL NOT AND SWAP1 DUP4 ISZERO ISZERO MUL OR SWAP1 SSTORE POP PUSH1 0x0 PUSH1 0x4 PUSH1 0x2 PUSH2 0x100 EXP DUP2 SLOAD DUP2 PUSH1 0xFF MUL NOT AND SWAP1 DUP4 ISZERO ISZERO MUL OR SWAP1 SSTORE POP PUSH1 0x3 PUSH1 0x40 MLOAD PUSH1 0x20 ADD PUSH3 0x112 SWAP2 SWAP1 PUSH3 0x3A8 JUMP JUMPDEST PUSH1 0x40 MLOAD PUSH1 0x20 DUP2 DUP4 SUB SUB DUP2 MSTORE SWAP1 PUSH1 0x40 MSTORE DUP1 MLOAD SWAP1 PUSH1 0x20 ADD KECCAK256 PUSH1 0x7 SSTORE PUSH20 0x5B38DA6A701C568545DCFCB03FCB875F56BEDDC4 PUSH1 0x9 PUSH1 0x0 PUSH2 0x100 EXP DUP2 SLOAD DUP2 PUSH20 0xFFFFFFFFFFFFFFFFFFFFFFFFFFFFFFFFFFFFFFFF MUL NOT AND SWAP1 DUP4 PUSH20 0xFFFFFFFFFFFFFFFFFFFFFFFFFFFFFFFFFFFFFFFF AND MUL OR SWAP1 SSTORE POP PUSH20 0xAB8483F64D9C6D1ECF9B849AE677DD3315835CB2 PUSH1 0xA PUSH1 0x0 PUSH2 0x100 EXP DUP2 SLOAD DUP2 PUSH20 0xFFFFFFFFFFFFFFFFFFFFFFFFFFFFFFFFFFFFFFFF MUL NOT AND SWAP1 DUP4 PUSH20 0xFFFFFFFFFFFFFFFFFFFFFFFFFFFFFFFFFFFFFFFF AND MUL OR SWAP1 SSTORE POP CALLVALUE DUP1 ISZERO PUSH3 0x1E2 JUMPI PUSH1 0x0 DUP1 REVERT JUMPDEST POP PUSH3 0x3C1 JUMP JUMPDEST DUP3 DUP1 SLOAD PUSH3 0x1F7 SWAP1 PUSH3 0x2C8 JUMP JUMPDEST SWAP1 PUSH1 0x0 MSTORE PUSH1 0x20 PUSH1 0x0 KECCAK256 SWAP1 PUSH1 0x1F ADD PUSH1 0x20 SWAP1 DIV DUP2 ADD SWAP3 DUP3 PUSH3 0x21B JUMPI PUSH1 0x0 DUP6 SSTORE PUSH3 0x267 JUMP JUMPDEST DUP3 PUSH1 0x1F LT PUSH3 0x236 JUMPI DUP1 MLOAD PUSH1 0xFF NOT AND DUP4 DUP1 ADD OR DUP6 SSTORE PUSH3 0x267 JUMP JUMPDEST DUP3 DUP1 ADD PUSH1 0x1 ADD DUP6 SSTORE DUP3 ISZERO PUSH3 0x267 JUMPI SWAP2 DUP3 ADD JUMPDEST DUP3 DUP2 GT ISZERO PUSH3 0x266 JUMPI DUP3 MLOAD DUP3 SSTORE SWAP2 PUSH1 0x20 ADD SWAP2 SWAP1 PUSH1 0x1 ADD SWAP1 PUSH3 0x249 JUMP JUMPDEST JUMPDEST POP SWAP1 POP PUSH3 0x276 SWAP2 SWAP1 PUSH3 0x27A JUMP JUMPDEST POP SWAP1 JUMP JUMPDEST JUMPDEST DUP1 DUP3 GT ISZERO PUSH3 0x295 JUMPI PUSH1 0x0 DUP2 PUSH1 0x0 SWAP1 SSTORE POP PUSH1 0x1 ADD PUSH3 0x27B JUMP JUMPDEST POP SWAP1 JUMP JUMPDEST PUSH32 0x4E487B7100000000000000000000000000000000000000000000000000000000 PUSH1 0x0 MSTORE PUSH1 0x22 PUSH1 0x4 MSTORE PUSH1 0x24 PUSH1 0x0 REVERT JUMPDEST PUSH1 0x0 PUSH1 0x2 DUP3 DIV SWAP1 POP PUSH1 0x1 DUP3 AND DUP1 PUSH3 0x2E1 JUMPI PUSH1 0x7F DUP3 AND SWAP2 POP JUMPDEST PUSH1 0x20 DUP3 LT DUP2 SUB PUSH3 0x2F7 JUMPI PUSH3 0x2F6 PUSH3 0x299 JUMP JUMPDEST JUMPDEST POP SWAP2 SWAP1 POP JUMP JUMPDEST PUSH1 0x0 DUP2 SWAP1 POP SWAP3 SWAP2 POP POP JUMP JUMPDEST PUSH1 0x0 DUP2 SWAP1 POP DUP2 PUSH1 0x0 MSTORE PUSH1 0x20 PUSH1 0x0 KECCAK256 SWAP1 POP SWAP2 SWAP1 POP JUMP JUMPDEST PUSH1 0x0 DUP2 SLOAD PUSH3 0x32C DUP2 PUSH3 0x2C8 JUMP JUMPDEST PUSH3 0x338 DUP2 DUP7 PUSH3 0x2FD JUMP JUMPDEST SWAP5 POP PUSH1 0x1 DUP3 AND PUSH1 0x0 DUP2 EQ PUSH3 0x356 JUMPI PUSH1 0x1 DUP2 EQ PUSH3 0x368 JUMPI PUSH3 0x39F JUMP JUMPDEST PUSH1 0xFF NOT DUP4 AND DUP7 MSTORE DUP2 DUP7 ADD SWAP4 POP PUSH3 0x39F JUMP JUMPDEST PUSH3 0x373 DUP6 PUSH3 0x308 JUMP JUMPDEST PUSH1 0x0 JUMPDEST DUP4 DUP2 LT ISZERO PUSH3 0x397 JUMPI DUP2 SLOAD DUP2 DUP10 ADD MSTORE PUSH1 0x1 DUP3 ADD SWAP2 POP PUSH1 0x20 DUP2 ADD SWAP1 POP PUSH3 0x376 JUMP JUMPDEST DUP4 DUP9 ADD SWAP6 POP POP POP JUMPDEST POP POP POP SWAP3 SWAP2 POP POP JUMP JUMPDEST PUSH1 0x0 PUSH3 0x3B6 DUP3 DUP5 PUSH3 0x31D JUMP JUMPDEST SWAP2 POP DUP2 SWAP1 POP SWAP3 SWAP2 POP POP JUMP JUMPDEST PUSH2 0x6A1 DUP1 PUSH3 0x3D1 PUSH1 0x0 CODECOPY PUSH1 0x0 RETURN INVALID PUSH1 0x80 PUSH1 0x40 MSTORE CALLVALUE DUP1 ISZERO PUSH2 0x10 JUMPI PUSH1 0x0 DUP1 REVERT JUMPDEST POP PUSH1 0x4 CALLDATASIZE LT PUSH2 0x9E JUMPI PUSH1 0x0 CALLDATALOAD PUSH1 0xE0 SHR DUP1 PUSH4 0x4EA35958 GT PUSH2 0x66 JUMPI DUP1 PUSH4 0x4EA35958 EQ PUSH2 0x139 JUMPI DUP1 PUSH4 0x5FE4C677 EQ PUSH2 0x157 JUMPI DUP1 PUSH4 0x8320422E EQ PUSH2 0x175 JUMPI DUP1 PUSH4 0xABF1D361 EQ PUSH2 0x17F JUMPI DUP1 PUSH4 0xBC7B35B2 EQ PUSH2 0x19D JUMPI PUSH2 0x9E JUMP JUMPDEST DUP1 PUSH4 0x9BD5A60 EQ PUSH2 0xA3 JUMPI DUP1 PUSH4 0xA3A9D63 EQ PUSH2 0xC1 JUMPI DUP1 PUSH4 0x193FC42C EQ PUSH2 0xDF JUMPI DUP1 PUSH4 0x303C3A14 EQ PUSH2 0xFD JUMPI DUP1 PUSH4 0x35A41ACC EQ PUSH2 0x11B JUMPI JUMPDEST PUSH1 0x0 DUP1 REVERT JUMPDEST PUSH2 0xAB PUSH2 0x1BB JUMP JUMPDEST PUSH1 0x40 MLOAD PUSH2 0xB8 SWAP2 SWAP1 PUSH2 0x44D JUMP JUMPDEST PUSH1 0x40 MLOAD DUP1 SWAP2 SUB SWAP1 RETURN JUMPDEST PUSH2 0xC9 PUSH2 0x1C1 JUMP JUMPDEST PUSH1 0x40 MLOAD PUSH2 0xD6 SWAP2 SWAP1 PUSH2 0x501 JUMP JUMPDEST PUSH1 0x40 MLOAD DUP1 SWAP2 SUB SWAP1 RETURN JUMPDEST PUSH2 0xE7 PUSH2 0x24F JUMP JUMPDEST PUSH1 0x40 MLOAD PUSH2 0xF4 SWAP2 SWAP1 PUSH2 0x564 JUMP JUMPDEST PUSH1 0x40 MLOAD DUP1 SWAP2 SUB SWAP1 RETURN JUMPDEST PUSH2 0x105 PUSH2 0x275 JUMP JUMPDEST PUSH1 0x40 MLOAD PUSH2 0x112 SWAP2 SWAP1 PUSH2 0x501 JUMP JUMPDEST PUSH1 0x40 MLOAD DUP1 SWAP2 SUB SWAP1 RETURN JUMPDEST PUSH2 0x123 PUSH2 0x303 JUMP JUMPDEST PUSH1 0x40 MLOAD PUSH2 0x130 SWAP2 SWAP1 PUSH2 0x5BA JUMP JUMPDEST PUSH1 0x40 MLOAD DUP1 SWAP2 SUB SWAP1 RETURN JUMPDEST PUSH2 0x141 PUSH2 0x316 JUMP JUMPDEST PUSH1 0x40 MLOAD PUSH2 0x14E SWAP2 SWAP1 PUSH2 0x5F0 JUMP JUMPDEST PUSH1 0x40 MLOAD DUP1 SWAP2 SUB SWAP1 RETURN JUMPDEST PUSH2 0x15F PUSH2 0x329 JUMP JUMPDEST PUSH1 0x40 MLOAD PUSH2 0x16C SWAP2 SWAP1 PUSH2 0x5F0 JUMP JUMPDEST PUSH1 0x40 MLOAD DUP1 SWAP2 SUB SWAP1 RETURN JUMPDEST PUSH2 0x17D PUSH2 0x33C JUMP JUMPDEST STOP JUMPDEST PUSH2 0x187 PUSH2 0x380 JUMP JUMPDEST PUSH1 0x40 MLOAD PUSH2 0x194 SWAP2 SWAP1 PUSH2 0x564 JUMP JUMPDEST PUSH1 0x40 MLOAD DUP1 SWAP2 SUB SWAP1 RETURN JUMPDEST PUSH2 0x1A5 PUSH2 0x3A6 JUMP JUMPDEST PUSH1 0x40 MLOAD PUSH2 0x1B2 SWAP2 SWAP1 PUSH2 0x501 JUMP JUMPDEST PUSH1 0x40 MLOAD DUP1 SWAP2 SUB SWAP1 RETURN JUMPDEST PUSH1 0x7 SLOAD DUP2 JUMP JUMPDEST PUSH1 0x1 DUP1 SLOAD PUSH2 0x1CE SWAP1 PUSH2 0x63A JUMP JUMPDEST DUP1 PUSH1 0x1F ADD PUSH1 0x20 DUP1 SWAP2 DIV MUL PUSH1 0x20 ADD PUSH1 0x40 MLOAD SWAP1 DUP2 ADD PUSH1 0x40 MSTORE DUP1 SWAP3 SWAP2 SWAP1 DUP2 DUP2 MSTORE PUSH1 0x20 ADD DUP3 DUP1 SLOAD PUSH2 0x1FA SWAP1 PUSH2 0x63A JUMP JUMPDEST DUP1 ISZERO PUSH2 0x247 JUMPI DUP1 PUSH1 0x1F LT PUSH2 0x21C JUMPI PUSH2 0x100 DUP1 DUP4 SLOAD DIV MUL DUP4 MSTORE SWAP2 PUSH1 0x20 ADD SWAP2 PUSH2 0x247 JUMP JUMPDEST DUP3 ADD SWAP2 SWAP1 PUSH1 0x0 MSTORE PUSH1 0x20 PUSH1 0x0 KECCAK256 SWAP1 JUMPDEST DUP2 SLOAD DUP2 MSTORE SWAP1 PUSH1 0x1 ADD SWAP1 PUSH1 0x20 ADD DUP1 DUP4 GT PUSH2 0x22A JUMPI DUP3 SWAP1 SUB PUSH1 0x1F AND DUP3 ADD SWAP2 JUMPDEST POP POP POP POP POP DUP2 JUMP JUMPDEST PUSH1 0xA PUSH1 0x0 SWAP1 SLOAD SWAP1 PUSH2 0x100 EXP SWAP1 DIV PUSH20 0xFFFFFFFFFFFFFFFFFFFFFFFFFFFFFFFFFFFFFFFF AND DUP2 JUMP JUMPDEST PUSH1 0x2 DUP1 SLOAD PUSH2 0x282 SWAP1 PUSH2 0x63A JUMP JUMPDEST DUP1 PUSH1 0x1F ADD PUSH1 0x20 DUP1 SWAP2 DIV MUL PUSH1 0x20 ADD PUSH1 0x40 MLOAD SWAP1 DUP2 ADD PUSH1 0x40 MSTORE DUP1 SWAP3 SWAP2 SWAP1 DUP2 DUP2 MSTORE PUSH1 0x20 ADD DUP3 DUP1 SLOAD PUSH2 0x2AE SWAP1 PUSH2 0x63A JUMP JUMPDEST DUP1 ISZERO PUSH2 0x2FB JUMPI DUP1 PUSH1 0x1F LT PUSH2 0x2D0 JUMPI PUSH2 0x100 DUP1 DUP4 SLOAD DIV MUL DUP4 MSTORE SWAP2 PUSH1 0x20 ADD SWAP2 PUSH2 0x2FB JUMP JUMPDEST DUP3 ADD SWAP2 SWAP1 PUSH1 0x0 MSTORE PUSH1 0x20 PUSH1 0x0 KECCAK256 SWAP1 JUMPDEST DUP2 SLOAD DUP2 MSTORE SWAP1 PUSH1 0x1 ADD SWAP1 PUSH1 0x20 ADD DUP1 DUP4 GT PUSH2 0x2DE JUMPI DUP3 SWAP1 SUB PUSH1 0x1F AND DUP3 ADD SWAP2 JUMPDEST POP POP POP POP POP DUP2 JUMP JUMPDEST PUSH1 0x8 PUSH1 0x0 SWAP1 SLOAD SWAP1 PUSH2 0x100 EXP SWAP1 DIV PUSH1 0xE0 SHL DUP2 JUMP JUMPDEST PUSH1 0x4 PUSH1 0x1 SWAP1 SLOAD SWAP1 PUSH2 0x100 EXP SWAP1 DIV PUSH1 0xFF AND DUP2 JUMP JUMPDEST PUSH1 0x4 PUSH1 0x2 SWAP1 SLOAD SWAP1 PUSH2 0x100 EXP SWAP1 DIV PUSH1 0xFF AND DUP2 JUMP JUMPDEST PUSH1 0x0 CALLDATALOAD PUSH32 0xFFFFFFFF00000000000000000000000000000000000000000000000000000000 AND PUSH1 0x8 PUSH1 0x0 PUSH2 0x100 EXP DUP2 SLOAD DUP2 PUSH4 0xFFFFFFFF MUL NOT AND SWAP1 DUP4 PUSH1 0xE0 SHR MUL OR SWAP1 SSTORE POP JUMP JUMPDEST PUSH1 0x9 PUSH1 0x0 SWAP1 SLOAD SWAP1 PUSH2 0x100 EXP SWAP1 DIV PUSH20 0xFFFFFFFFFFFFFFFFFFFFFFFFFFFFFFFFFFFFFFFF AND DUP2 JUMP JUMPDEST PUSH1 0x3 DUP1 SLOAD PUSH2 0x3B3 SWAP1 PUSH2 0x63A JUMP JUMPDEST DUP1 PUSH1 0x1F ADD PUSH1 0x20 DUP1 SWAP2 DIV MUL PUSH1 0x20 ADD PUSH1 0x40 MLOAD SWAP1 DUP2 ADD PUSH1 0x40 MSTORE DUP1 SWAP3 SWAP2 SWAP1 DUP2 DUP2 MSTORE PUSH1 0x20 ADD DUP3 DUP1 SLOAD PUSH2 0x3DF SWAP1 PUSH2 0x63A JUMP JUMPDEST DUP1 ISZERO PUSH2 0x42C JUMPI DUP1 PUSH1 0x1F LT PUSH2 0x401 JUMPI PUSH2 0x100 DUP1 DUP4 SLOAD DIV MUL DUP4 MSTORE SWAP2 PUSH1 0x20 ADD SWAP2 PUSH2 0x42C JUMP JUMPDEST DUP3 ADD SWAP2 SWAP1 PUSH1 0x0 MSTORE PUSH1 0x20 PUSH1 0x0 KECCAK256 SWAP1 JUMPDEST DUP2 SLOAD DUP2 MSTORE SWAP1 PUSH1 0x1 ADD SWAP1 PUSH1 0x20 ADD DUP1 DUP4 GT PUSH2 0x40F JUMPI DUP3 SWAP1 SUB PUSH1 0x1F AND DUP3 ADD SWAP2 JUMPDEST POP POP POP POP POP DUP2 JUMP JUMPDEST PUSH1 0x0 DUP2 SWAP1 POP SWAP2 SWAP1 POP JUMP JUMPDEST PUSH2 0x447 DUP2 PUSH2 0x434 JUMP JUMPDEST DUP3 MSTORE POP POP JUMP JUMPDEST PUSH1 0x0 PUSH1 0x20 DUP3 ADD SWAP1 POP PUSH2 0x462 PUSH1 0x0 DUP4 ADD DUP5 PUSH2 0x43E JUMP JUMPDEST SWAP3 SWAP2 POP POP JUMP JUMPDEST PUSH1 0x0 DUP2 MLOAD SWAP1 POP SWAP2 SWAP1 POP JUMP JUMPDEST PUSH1 0x0 DUP3 DUP3 MSTORE PUSH1 0x20 DUP3 ADD SWAP1 POP SWAP3 SWAP2 POP POP JUMP JUMPDEST PUSH1 0x0 JUMPDEST DUP4 DUP2 LT ISZERO PUSH2 0x4A2 JUMPI DUP1 DUP3 ADD MLOAD DUP2 DUP5 ADD MSTORE PUSH1 0x20 DUP2 ADD SWAP1 POP PUSH2 0x487 JUMP JUMPDEST DUP4 DUP2 GT ISZERO PUSH2 0x4B1 JUMPI PUSH1 0x0 DUP5 DUP5 ADD MSTORE JUMPDEST POP POP POP POP JUMP JUMPDEST PUSH1 0x0 PUSH1 0x1F NOT PUSH1 0x1F DUP4 ADD AND SWAP1 POP SWAP2 SWAP1 POP JUMP JUMPDEST PUSH1 0x0 PUSH2 0x4D3 DUP3 PUSH2 0x468 JUMP JUMPDEST PUSH2 0x4DD DUP2 DUP6 PUSH2 0x473 JUMP JUMPDEST SWAP4 POP PUSH2 0x4ED DUP2 DUP6 PUSH1 0x20 DUP7 ADD PUSH2 0x484 JUMP JUMPDEST PUSH2 0x4F6 DUP2 PUSH2 0x4B7 JUMP JUMPDEST DUP5 ADD SWAP2 POP POP SWAP3 SWAP2 POP POP JUMP JUMPDEST PUSH1 0x0 PUSH1 0x20 DUP3 ADD SWAP1 POP DUP2 DUP2 SUB PUSH1 0x0 DUP4 ADD MSTORE PUSH2 0x51B DUP2 DUP5 PUSH2 0x4C8 JUMP JUMPDEST SWAP1 POP SWAP3 SWAP2 POP POP JUMP JUMPDEST PUSH1 0x0 PUSH20 0xFFFFFFFFFFFFFFFFFFFFFFFFFFFFFFFFFFFFFFFF DUP3 AND SWAP1 POP SWAP2 SWAP1 POP JUMP JUMPDEST PUSH1 0x0 PUSH2 0x54E DUP3 PUSH2 0x523 JUMP JUMPDEST SWAP1 POP SWAP2 SWAP1 POP JUMP JUMPDEST PUSH2 0x55E DUP2 PUSH2 0x543 JUMP JUMPDEST DUP3 MSTORE POP POP JUMP JUMPDEST PUSH1 0x0 PUSH1 0x20 DUP3 ADD SWAP1 POP PUSH2 0x579 PUSH1 0x0 DUP4 ADD DUP5 PUSH2 0x555 JUMP JUMPDEST SWAP3 SWAP2 POP POP JUMP JUMPDEST PUSH1 0x0 PUSH32 0xFFFFFFFF00000000000000000000000000000000000000000000000000000000 DUP3 AND SWAP1 POP SWAP2 SWAP1 POP JUMP JUMPDEST PUSH2 0x5B4 DUP2 PUSH2 0x57F JUMP JUMPDEST DUP3 MSTORE POP POP JUMP JUMPDEST PUSH1 0x0 PUSH1 0x20 DUP3 ADD SWAP1 POP PUSH2 0x5CF PUSH1 0x0 DUP4 ADD DUP5 PUSH2 0x5AB JUMP JUMPDEST SWAP3 SWAP2 POP POP JUMP JUMPDEST PUSH1 0x0 DUP2 ISZERO ISZERO SWAP1 POP SWAP2 SWAP1 POP JUMP JUMPDEST PUSH2 0x5EA DUP2 PUSH2 0x5D5 JUMP JUMPDEST DUP3 MSTORE POP POP JUMP JUMPDEST PUSH1 0x0 PUSH1 0x20 DUP3 ADD SWAP1 POP PUSH2 0x605 PUSH1 0x0 DUP4 ADD DUP5 PUSH2 0x5E1 JUMP JUMPDEST SWAP3 SWAP2 POP POP JUMP JUMPDEST PUSH32 0x4E487B7100000000000000000000000000000000000000000000000000000000 PUSH1 0x0 MSTORE PUSH1 0x22 PUSH1 0x4 MSTORE PUSH1 0x24 PUSH1 0x0 REVERT JUMPDEST PUSH1 0x0 PUSH1 0x2 DUP3 DIV SWAP1 POP PUSH1 0x1 DUP3 AND DUP1 PUSH2 0x652 JUMPI PUSH1 0x7F DUP3 AND SWAP2 POP JUMPDEST PUSH1 0x20 DUP3 LT DUP2 SUB PUSH2 0x665 JUMPI PUSH2 0x664 PUSH2 0x60B JUMP JUMPDEST JUMPDEST POP SWAP2 SWAP1 POP JUMP INVALID LOG2 PUSH5 0x6970667358 0x22 SLT KECCAK256 0xBD 0xE LOG1 0xD8 BASEFEE PUSH14 0x2B7168CDF34131671BC958F767EA 0x1F SGT ORIGIN EXP DIV SWAP7 XOR SWAP1 SAR 0xC6 CALLDATALOAD 0x24 PUSH5 0x736F6C6343 STOP ADDMOD 0xD STOP CALLER "
				},
				"gasEstimates": {
					"creation": {
						"codeDepositCost": "339400",
						"executionCost": "infinite",
						"totalCost": "infinite"
					},
					"external": {
						"cadena_vacia()": "infinite",
						"direccion_local_1()": "2580",
						"direccion_local_2()": "2559",
						"ejemploBytes4()": "24464",
						"flag_false()": "2543",
						"flag_true()": "2521",
						"hash()": "2430",
						"identificador()": "2560",
						"nombre()": "infinite",
						"saludo()": "infinite"
					}
				},
				"methodIdentifiers": {
					"cadena_vacia()": "303c3a14",
					"direccion_local_1()": "abf1d361",
					"direccion_local_2()": "193fc42c",
					"ejemploBytes4()": "8320422e",
					"flag_false()": "5fe4c677",
					"flag_true()": "4ea35958",
					"hash()": "09bd5a60",
					"identificador()": "35a41acc",
					"nombre()": "bc7b35b2",
					"saludo()": "0a3a9d63"
				}
			},
			"storageLayout": {
				"storage": [
					{
						"astId": 4,
						"contract": "Tipos de variables y operadores/mas variables.sol:mas_variables",
						"label": "mi_primer_string",
						"offset": 0,
						"slot": "0",
						"type": "t_string_storage"
					},
					{
						"astId": 7,
						"contract": "Tipos de variables y operadores/mas variables.sol:mas_variables",
						"label": "saludo",
						"offset": 0,
						"slot": "1",
						"type": "t_string_storage"
					},
					{
						"astId": 10,
						"contract": "Tipos de variables y operadores/mas variables.sol:mas_variables",
						"label": "cadena_vacia",
						"offset": 0,
						"slot": "2",
						"type": "t_string_storage"
					},
					{
						"astId": 13,
						"contract": "Tipos de variables y operadores/mas variables.sol:mas_variables",
						"label": "nombre",
						"offset": 0,
						"slot": "3",
						"type": "t_string_storage"
					},
					{
						"astId": 15,
						"contract": "Tipos de variables y operadores/mas variables.sol:mas_variables",
						"label": "mi_primer_booleano",
						"offset": 0,
						"slot": "4",
						"type": "t_bool"
					},
					{
						"astId": 18,
						"contract": "Tipos de variables y operadores/mas variables.sol:mas_variables",
						"label": "flag_true",
						"offset": 1,
						"slot": "4",
						"type": "t_bool"
					},
					{
						"astId": 21,
						"contract": "Tipos de variables y operadores/mas variables.sol:mas_variables",
						"label": "flag_false",
						"offset": 2,
						"slot": "4",
						"type": "t_bool"
					},
					{
						"astId": 23,
						"contract": "Tipos de variables y operadores/mas variables.sol:mas_variables",
						"label": "mi_primer_bytes",
						"offset": 0,
						"slot": "5",
						"type": "t_bytes32"
					},
					{
						"astId": 25,
						"contract": "Tipos de variables y operadores/mas variables.sol:mas_variables",
						"label": "segundo_bytes",
						"offset": 0,
						"slot": "6",
						"type": "t_bytes4"
					},
					{
						"astId": 33,
						"contract": "Tipos de variables y operadores/mas variables.sol:mas_variables",
						"label": "hash",
						"offset": 0,
						"slot": "7",
						"type": "t_bytes32"
					},
					{
						"astId": 35,
						"contract": "Tipos de variables y operadores/mas variables.sol:mas_variables",
						"label": "identificador",
						"offset": 0,
						"slot": "8",
						"type": "t_bytes4"
					},
					{
						"astId": 46,
						"contract": "Tipos de variables y operadores/mas variables.sol:mas_variables",
						"label": "mi_primera_direccion",
						"offset": 4,
						"slot": "8",
						"type": "t_address"
					},
					{
						"astId": 49,
						"contract": "Tipos de variables y operadores/mas variables.sol:mas_variables",
						"label": "direccion_local_1",
						"offset": 0,
						"slot": "9",
						"type": "t_address"
					},
					{
						"astId": 52,
						"contract": "Tipos de variables y operadores/mas variables.sol:mas_variables",
						"label": "direccion_local_2",
						"offset": 0,
						"slot": "10",
						"type": "t_address"
					}
				],
				"types": {
					"t_address": {
						"encoding": "inplace",
						"label": "address",
						"numberOfBytes": "20"
					},
					"t_bool": {
						"encoding": "inplace",
						"label": "bool",
						"numberOfBytes": "1"
					},
					"t_bytes32": {
						"encoding": "inplace",
						"label": "bytes32",
						"numberOfBytes": "32"
					},
					"t_bytes4": {
						"encoding": "inplace",
						"label": "bytes4",
						"numberOfBytes": "4"
					},
					"t_string_storage": {
						"encoding": "bytes",
						"label": "string",
						"numberOfBytes": "32"
					}
				}
			},
			"userdoc": {
				"kind": "user",
				"methods": {},
				"version": 1
			}
		}
	}
}