{
	"Tipos de variables y operadores/mas variables.sol": {
		"mas_variables": {
			"abi": [
				{
					"inputs": [],
					"name": "ejemploBytes4",
					"outputs": [],
					"stateMutability": "nonpayable",
					"type": "function"
				}
			],
			"devdoc": {
				"methods": {}
			},
			"evm": {
				"assembly": "    /* \"Tipos de variables y operadores/mas variables.sol\":72:637  contract mas_variables{\r... */\n  mstore(0x40, 0x80)\n    /* \"Tipos de variables y operadores/mas variables.sol\":158:191  string saludo = \"hola como estas\" */\n  mload(0x40)\n  dup1\n  0x40\n  add\n  0x40\n  mstore\n  dup1\n  0x0f\n  dup2\n  mstore\n  0x20\n  add\n  0x686f6c6120636f6d6f2065737461730000000000000000000000000000000000\n  dup2\n  mstore\n  pop\n  0x01\n  swap1\n  dup1\n  mload\n  swap1\n  0x20\n  add\n  swap1\n  tag_1\n  swap3\n  swap2\n  swap1\n  tag_2\n  jump\t// in\ntag_1:\n  pop\n    /* \"Tipos de variables y operadores/mas variables.sol\":198:222  string cadena_vacia = \"\" */\n  mload(0x40)\n  dup1\n  0x20\n  add\n  0x40\n  mstore\n  dup1\n  0x00\n  dup2\n  mstore\n  pop\n  0x02\n  swap1\n  dup1\n  mload\n  swap1\n  0x20\n  add\n  swap1\n  tag_3\n  swap3\n  swap2\n  swap1\n  tag_2\n  jump\t// in\ntag_3:\n  pop\n    /* \"Tipos de variables y operadores/mas variables.sol\":229:254  string nombre = \"Luciano\" */\n  mload(0x40)\n  dup1\n  0x40\n  add\n  0x40\n  mstore\n  dup1\n  0x07\n  dup2\n  mstore\n  0x20\n  add\n  0x4c756369616e6f00000000000000000000000000000000000000000000000000\n  dup2\n  mstore\n  pop\n  0x03\n  swap1\n  dup1\n  mload\n  swap1\n  0x20\n  add\n  swap1\n  tag_4\n  swap3\n  swap2\n  swap1\n  tag_2\n  jump\t// in\ntag_4:\n  pop\n    /* \"Tipos de variables y operadores/mas variables.sol\":338:342  true */\n  0x01\n    /* \"Tipos de variables y operadores/mas variables.sol\":321:342  bool flag_true = true */\n  0x04\n  exp(0x0100, 0x01)\n  dup2\n  sload\n  dup2\n  0xff\n  mul\n  not\n  and\n  swap1\n  dup4\n  iszero\n  iszero\n  mul\n  or\n  swap1\n  sstore\n  pop\n    /* \"Tipos de variables y operadores/mas variables.sol\":367:372  false */\n  0x00\n    /* \"Tipos de variables y operadores/mas variables.sol\":349:372  bool flag_false = false */\n  0x04\n  exp(0x0100, 0x02)\n  dup2\n  sload\n  dup2\n  0xff\n  mul\n  not\n  and\n  swap1\n  dup4\n  iszero\n  iszero\n  mul\n  or\n  swap1\n  sstore\n  pop\n    /* \"Tipos de variables y operadores/mas variables.sol\":511:517  nombre */\n  0x03\n    /* \"Tipos de variables y operadores/mas variables.sol\":494:518  abi.encodePacked(nombre) */\n  add(0x20, mload(0x40))\n  tag_5\n  swap2\n  swap1\n  jump(tag_6)\ntag_5:\n  mload(0x40)\n    /* \"--CODEGEN--\":49:53   */\n  0x20\n    /* \"--CODEGEN--\":39:46   */\n  dup2\n    /* \"--CODEGEN--\":30:37   */\n  dup4\n    /* \"--CODEGEN--\":26:47   */\n  sub\n    /* \"--CODEGEN--\":22:54   */\n  sub\n    /* \"--CODEGEN--\":13:20   */\n  dup2\n    /* \"--CODEGEN--\":6:55   */\n  mstore\n    /* \"Tipos de variables y operadores/mas variables.sol\":494:518  abi.encodePacked(nombre) */\n  swap1\n  0x40\n  mstore\n    /* \"Tipos de variables y operadores/mas variables.sol\":484:519  keccak256(abi.encodePacked(nombre)) */\n  dup1\n  mload\n  swap1\n  0x20\n  add\n  keccak256\n    /* \"Tipos de variables y operadores/mas variables.sol\":469:519  bytes32 hash = keccak256(abi.encodePacked(nombre)) */\n  0x07\n  sstore\n    /* \"Tipos de variables y operadores/mas variables.sol\":72:637  contract mas_variables{\r... */\n  callvalue\n    /* \"--CODEGEN--\":5:14   */\n  dup1\n    /* \"--CODEGEN--\":2:4   */\n  iszero\n  tag_7\n  jumpi\n    /* \"--CODEGEN--\":27:28   */\n  0x00\n    /* \"--CODEGEN--\":24:25   */\n  dup1\n    /* \"--CODEGEN--\":17:29   */\n  revert\n    /* \"--CODEGEN--\":2:4   */\ntag_7:\n    /* \"Tipos de variables y operadores/mas variables.sol\":72:637  contract mas_variables{\r... */\n  pop\n  jump(tag_8)\ntag_2:\n  dup3\n  dup1\n  sload\n  0x01\n  dup2\n  0x01\n  and\n  iszero\n  0x0100\n  mul\n  sub\n  and\n  0x02\n  swap1\n  div\n  swap1\n  0x00\n  mstore\n  keccak256(0x00, 0x20)\n  swap1\n  0x1f\n  add\n  0x20\n  swap1\n  div\n  dup2\n  add\n  swap3\n  dup3\n  0x1f\n  lt\n  tag_10\n  jumpi\n  dup1\n  mload\n  not(0xff)\n  and\n  dup4\n  dup1\n  add\n  or\n  dup6\n  sstore\n  jump(tag_9)\ntag_10:\n  dup3\n  dup1\n  add\n  0x01\n  add\n  dup6\n  sstore\n  dup3\n  iszero\n  tag_9\n  jumpi\n  swap2\n  dup3\n  add\ntag_11:\n  dup3\n  dup2\n  gt\n  iszero\n  tag_12\n  jumpi\n  dup3\n  mload\n  dup3\n  sstore\n  swap2\n  0x20\n  add\n  swap2\n  swap1\n  0x01\n  add\n  swap1\n  jump(tag_11)\ntag_12:\ntag_9:\n  pop\n  swap1\n  pop\n  tag_13\n  swap2\n  swap1\n  tag_14\n  jump\t// in\ntag_13:\n  pop\n  swap1\n  jump\t// out\ntag_14:\n  tag_15\n  swap2\n  swap1\ntag_16:\n  dup1\n  dup3\n  gt\n  iszero\n  tag_17\n  jumpi\n  0x00\n  dup2\n  0x00\n  swap1\n  sstore\n  pop\n  0x01\n  add\n  jump(tag_16)\ntag_17:\n  pop\n  swap1\n  jump\ntag_15:\n  swap1\n  jump\t// out\n    /* \"--CODEGEN--\":30:914   */\ntag_19:\n  0x00\n    /* \"--CODEGEN--\":167:172   */\n  dup2\n    /* \"--CODEGEN--\":161:173   */\n  sload\n    /* \"--CODEGEN--\":201:202   */\n  0x01\n    /* \"--CODEGEN--\":190:199   */\n  dup2\n    /* \"--CODEGEN--\":186:203   */\n  and\n    /* \"--CODEGEN--\":214:215   */\n  0x00\n    /* \"--CODEGEN--\":209:477   */\n  dup2\n  eq\n  tag_22\n  jumpi\n    /* \"--CODEGEN--\":488:489   */\n  0x01\n    /* \"--CODEGEN--\":483:908   */\n  dup2\n  eq\n  tag_23\n  jumpi\n    /* \"--CODEGEN--\":179:908   */\n  jump(tag_21)\n    /* \"--CODEGEN--\":209:477   */\ntag_22:\n    /* \"--CODEGEN--\":287:291   */\n  0x7f\n    /* \"--CODEGEN--\":283:284   */\n  0x02\n    /* \"--CODEGEN--\":272:281   */\n  dup4\n    /* \"--CODEGEN--\":268:285   */\n  div\n    /* \"--CODEGEN--\":264:292   */\n  and\n    /* \"--CODEGEN--\":306:395   */\n  tag_24\n    /* \"--CODEGEN--\":388:394   */\n  dup2\n    /* \"--CODEGEN--\":383:386   */\n  dup8\n    /* \"--CODEGEN--\":306:395   */\n  jump(tag_25)\ntag_24:\n    /* \"--CODEGEN--\":299:395   */\n  swap6\n  pop\n    /* \"--CODEGEN--\":433:437   */\n  0xff\n    /* \"--CODEGEN--\":429:438   */\n  not\n    /* \"--CODEGEN--\":418:427   */\n  dup4\n    /* \"--CODEGEN--\":414:439   */\n  and\n    /* \"--CODEGEN--\":409:412   */\n  dup7\n    /* \"--CODEGEN--\":402:440   */\n  mstore\n    /* \"--CODEGEN--\":463:469   */\n  dup1\n    /* \"--CODEGEN--\":458:461   */\n  dup7\n    /* \"--CODEGEN--\":454:470   */\n  add\n    /* \"--CODEGEN--\":447:470   */\n  swap4\n  pop\n    /* \"--CODEGEN--\":216:477   */\n  pop\n    /* \"--CODEGEN--\":209:477   */\n  jump(tag_21)\n    /* \"--CODEGEN--\":483:908   */\ntag_23:\n    /* \"--CODEGEN--\":552:553   */\n  0x02\n    /* \"--CODEGEN--\":541:550   */\n  dup3\n    /* \"--CODEGEN--\":537:554   */\n  div\n    /* \"--CODEGEN--\":568:657   */\n  tag_26\n    /* \"--CODEGEN--\":650:656   */\n  dup2\n    /* \"--CODEGEN--\":645:648   */\n  dup8\n    /* \"--CODEGEN--\":568:657   */\n  jump(tag_25)\ntag_26:\n    /* \"--CODEGEN--\":561:657   */\n  swap6\n  pop\n    /* \"--CODEGEN--\":679:717   */\n  tag_27\n    /* \"--CODEGEN--\":711:716   */\n  dup6\n    /* \"--CODEGEN--\":679:717   */\n  jump(tag_28)\ntag_27:\n    /* \"--CODEGEN--\":733:734   */\n  0x00\n    /* \"--CODEGEN--\":741:871   */\ntag_29:\n    /* \"--CODEGEN--\":755:761   */\n  dup3\n    /* \"--CODEGEN--\":752:753   */\n  dup2\n    /* \"--CODEGEN--\":749:762   */\n  lt\n    /* \"--CODEGEN--\":741:871   */\n  iszero\n  tag_31\n  jumpi\n    /* \"--CODEGEN--\":820:827   */\n  dup2\n    /* \"--CODEGEN--\":814:828   */\n  sload\n    /* \"--CODEGEN--\":810:811   */\n  dup2\n    /* \"--CODEGEN--\":805:808   */\n  dup10\n    /* \"--CODEGEN--\":801:812   */\n  add\n    /* \"--CODEGEN--\":794:829   */\n  mstore\n    /* \"--CODEGEN--\":861:862   */\n  0x01\n    /* \"--CODEGEN--\":852:859   */\n  dup3\n    /* \"--CODEGEN--\":848:863   */\n  add\n    /* \"--CODEGEN--\":837:863   */\n  swap2\n  pop\n    /* \"--CODEGEN--\":777:781   */\n  0x20\n    /* \"--CODEGEN--\":774:775   */\n  dup2\n    /* \"--CODEGEN--\":770:782   */\n  add\n    /* \"--CODEGEN--\":765:782   */\n  swap1\n  pop\n    /* \"--CODEGEN--\":741:871   */\n  jump(tag_29)\ntag_31:\n    /* \"--CODEGEN--\":894:900   */\n  dup3\n    /* \"--CODEGEN--\":889:892   */\n  dup9\n    /* \"--CODEGEN--\":885:901   */\n  add\n    /* \"--CODEGEN--\":878:901   */\n  swap6\n  pop\n    /* \"--CODEGEN--\":490:908   */\n  pop\n  pop\n  pop\n    /* \"--CODEGEN--\":179:908   */\ntag_21:\n  pop\n    /* \"--CODEGEN--\":137:914   */\n  pop\n  swap3\n  swap2\n  pop\n  pop\n  jump\n    /* \"--CODEGEN--\":922:1182   */\ntag_6:\n  0x00\n    /* \"--CODEGEN--\":1065:1157   */\n  tag_33\n    /* \"--CODEGEN--\":1153:1156   */\n  dup3\n    /* \"--CODEGEN--\":1144:1150   */\n  dup5\n    /* \"--CODEGEN--\":1065:1157   */\n  jump(tag_19)\ntag_33:\n    /* \"--CODEGEN--\":1058:1157   */\n  swap2\n  pop\n    /* \"--CODEGEN--\":1174:1177   */\n  dup2\n    /* \"--CODEGEN--\":1167:1177   */\n  swap1\n  pop\n    /* \"--CODEGEN--\":1046:1182   */\n  swap3\n  swap2\n  pop\n  pop\n  jump\n    /* \"--CODEGEN--\":1189:1347   */\ntag_28:\n  0x00\n    /* \"--CODEGEN--\":1257:1260   */\n  dup2\n    /* \"--CODEGEN--\":1249:1260   */\n  swap1\n  pop\n    /* \"--CODEGEN--\":1294:1297   */\n  dup2\n    /* \"--CODEGEN--\":1291:1292   */\n  0x00\n    /* \"--CODEGEN--\":1284:1298   */\n  mstore\n    /* \"--CODEGEN--\":1326:1330   */\n  0x20\n    /* \"--CODEGEN--\":1323:1324   */\n  0x00\n    /* \"--CODEGEN--\":1313:1331   */\n  keccak256\n    /* \"--CODEGEN--\":1305:1331   */\n  swap1\n  pop\n    /* \"--CODEGEN--\":1243:1347   */\n  swap2\n  swap1\n  pop\n  jump\n    /* \"--CODEGEN--\":1355:1500   */\ntag_25:\n  0x00\n    /* \"--CODEGEN--\":1491:1494   */\n  dup2\n    /* \"--CODEGEN--\":1476:1494   */\n  swap1\n  pop\n    /* \"--CODEGEN--\":1469:1500   */\n  swap3\n  swap2\n  pop\n  pop\n  jump\n    /* \"Tipos de variables y operadores/mas variables.sol\":72:637  contract mas_variables{\r... */\ntag_8:\n  dataSize(sub_0)\n  dup1\n  dataOffset(sub_0)\n  0x00\n  codecopy\n  0x00\n  return\nstop\n\nsub_0: assembly {\n        /* \"Tipos de variables y operadores/mas variables.sol\":72:637  contract mas_variables{\r... */\n      mstore(0x40, 0x80)\n      callvalue\n        /* \"--CODEGEN--\":5:14   */\n      dup1\n        /* \"--CODEGEN--\":2:4   */\n      iszero\n      tag_1\n      jumpi\n        /* \"--CODEGEN--\":27:28   */\n      0x00\n        /* \"--CODEGEN--\":24:25   */\n      dup1\n        /* \"--CODEGEN--\":17:29   */\n      revert\n        /* \"--CODEGEN--\":2:4   */\n    tag_1:\n        /* \"Tipos de variables y operadores/mas variables.sol\":72:637  contract mas_variables{\r... */\n      pop\n      jumpi(tag_2, lt(calldatasize, 0x04))\n      shr(0xe0, calldataload(0x00))\n      dup1\n      0x8320422e\n      eq\n      tag_3\n      jumpi\n    tag_2:\n        /* \"--CODEGEN--\":12:13   */\n      0x00\n        /* \"--CODEGEN--\":9:10   */\n      dup1\n        /* \"--CODEGEN--\":2:14   */\n      revert\n        /* \"Tipos de variables y operadores/mas variables.sol\":555:628  function ejemploBytes4() public{\r... */\n    tag_3:\n      tag_4\n      tag_5\n      jump\t// in\n    tag_4:\n      stop\n    tag_5:\n        /* \"Tipos de variables y operadores/mas variables.sol\":613:620  msg.sig */\n      and(0xffffffff00000000000000000000000000000000000000000000000000000000, calldataload(0x00))\n        /* \"Tipos de variables y operadores/mas variables.sol\":597:610  identificador */\n      0x08\n      0x00\n        /* \"Tipos de variables y operadores/mas variables.sol\":597:620  identificador = msg.sig */\n      0x0100\n      exp\n      dup2\n      sload\n      dup2\n      0xffffffff\n      mul\n      not\n      and\n      swap1\n      dup4\n      0xe0\n      shr\n      mul\n      or\n      swap1\n      sstore\n      pop\n        /* \"Tipos de variables y operadores/mas variables.sol\":555:628  function ejemploBytes4() public{\r... */\n      jump\t// out\n\n    auxdata: 0xa2646970667358221220712977c9c6d845d7d433fc31d4bccd3f791c53d49758256a75946e833b2d402464736f6c63430006050033\n}\n",
				"bytecode": {
					"linkReferences": {},
					"object": "60806040526040518060400160405280600f81526020017f686f6c6120636f6d6f20657374617300000000000000000000000000000000008152506001908051906020019061004f929190610135565b506040518060200160405280600081525060029080519060200190610075929190610135565b506040518060400160405280600781526020017f4c756369616e6f00000000000000000000000000000000000000000000000000815250600390805190602001906100c1929190610135565b506001600460016101000a81548160ff0219169083151502179055506000600460026101000a81548160ff021916908315150217905550600360405160200161010a9190610268565b6040516020818303038152906040528051906020012060075534801561012f57600080fd5b5061029f565b828054600181600116156101000203166002900490600052602060002090601f016020900481019282601f1061017657805160ff19168380011785556101a4565b828001600101855582156101a4579182015b828111156101a3578251825591602001919060010190610188565b5b5090506101b191906101b5565b5090565b6101d791905b808211156101d35760008160009055506001016101bb565b5090565b90565b6000815460018116600081146101f7576001811461021c57610260565b607f60028304166102088187610294565b955060ff1983168652808601935050610260565b6002820461022a8187610294565b95506102358561027f565b60005b8281101561025757815481890152600182019150602081019050610238565b82880195505050505b505092915050565b600061027482846101da565b915081905092915050565b60008190508160005260206000209050919050565b600081905092915050565b60af806102ad6000396000f3fe6080604052348015600f57600080fd5b506004361060285760003560e01c80638320422e14602d575b600080fd5b60336035565b005b6000357fffffffff0000000000000000000000000000000000000000000000000000000016600860006101000a81548163ffffffff021916908360e01c021790555056fea2646970667358221220712977c9c6d845d7d433fc31d4bccd3f791c53d49758256a75946e833b2d402464736f6c63430006050033",
					"opcodes": "PUSH1 0x80 PUSH1 0x40 MSTORE PUSH1 0x40 MLOAD DUP1 PUSH1 0x40 ADD PUSH1 0x40 MSTORE DUP1 PUSH1 0xF DUP2 MSTORE PUSH1 0x20 ADD PUSH32 0x686F6C6120636F6D6F2065737461730000000000000000000000000000000000 DUP2 MSTORE POP PUSH1 0x1 SWAP1 DUP1 MLOAD SWAP1 PUSH1 0x20 ADD SWAP1 PUSH2 0x4F SWAP3 SWAP2 SWAP1 PUSH2 0x135 JUMP JUMPDEST POP PUSH1 0x40 MLOAD DUP1 PUSH1 0x20 ADD PUSH1 0x40 MSTORE DUP1 PUSH1 0x0 DUP2 MSTORE POP PUSH1 0x2 SWAP1 DUP1 MLOAD SWAP1 PUSH1 0x20 ADD SWAP1 PUSH2 0x75 SWAP3 SWAP2 SWAP1 PUSH2 0x135 JUMP JUMPDEST POP PUSH1 0x40 MLOAD DUP1 PUSH1 0x40 ADD PUSH1 0x40 MSTORE DUP1 PUSH1 0x7 DUP2 MSTORE PUSH1 0x20 ADD PUSH32 0x4C756369616E6F00000000000000000000000000000000000000000000000000 DUP2 MSTORE POP PUSH1 0x3 SWAP1 DUP1 MLOAD SWAP1 PUSH1 0x20 ADD SWAP1 PUSH2 0xC1 SWAP3 SWAP2 SWAP1 PUSH2 0x135 JUMP JUMPDEST POP PUSH1 0x1 PUSH1 0x4 PUSH1 0x1 PUSH2 0x100 EXP DUP2 SLOAD DUP2 PUSH1 0xFF MUL NOT AND SWAP1 DUP4 ISZERO ISZERO MUL OR SWAP1 SSTORE POP PUSH1 0x0 PUSH1 0x4 PUSH1 0x2 PUSH2 0x100 EXP DUP2 SLOAD DUP2 PUSH1 0xFF MUL NOT AND SWAP1 DUP4 ISZERO ISZERO MUL OR SWAP1 SSTORE POP PUSH1 0x3 PUSH1 0x40 MLOAD PUSH1 0x20 ADD PUSH2 0x10A SWAP2 SWAP1 PUSH2 0x268 JUMP JUMPDEST PUSH1 0x40 MLOAD PUSH1 0x20 DUP2 DUP4 SUB SUB DUP2 MSTORE SWAP1 PUSH1 0x40 MSTORE DUP1 MLOAD SWAP1 PUSH1 0x20 ADD KECCAK256 PUSH1 0x7 SSTORE CALLVALUE DUP1 ISZERO PUSH2 0x12F JUMPI PUSH1 0x0 DUP1 REVERT JUMPDEST POP PUSH2 0x29F JUMP JUMPDEST DUP3 DUP1 SLOAD PUSH1 0x1 DUP2 PUSH1 0x1 AND ISZERO PUSH2 0x100 MUL SUB AND PUSH1 0x2 SWAP1 DIV SWAP1 PUSH1 0x0 MSTORE PUSH1 0x20 PUSH1 0x0 KECCAK256 SWAP1 PUSH1 0x1F ADD PUSH1 0x20 SWAP1 DIV DUP2 ADD SWAP3 DUP3 PUSH1 0x1F LT PUSH2 0x176 JUMPI DUP1 MLOAD PUSH1 0xFF NOT AND DUP4 DUP1 ADD OR DUP6 SSTORE PUSH2 0x1A4 JUMP JUMPDEST DUP3 DUP1 ADD PUSH1 0x1 ADD DUP6 SSTORE DUP3 ISZERO PUSH2 0x1A4 JUMPI SWAP2 DUP3 ADD JUMPDEST DUP3 DUP2 GT ISZERO PUSH2 0x1A3 JUMPI DUP3 MLOAD DUP3 SSTORE SWAP2 PUSH1 0x20 ADD SWAP2 SWAP1 PUSH1 0x1 ADD SWAP1 PUSH2 0x188 JUMP JUMPDEST JUMPDEST POP SWAP1 POP PUSH2 0x1B1 SWAP2 SWAP1 PUSH2 0x1B5 JUMP JUMPDEST POP SWAP1 JUMP JUMPDEST PUSH2 0x1D7 SWAP2 SWAP1 JUMPDEST DUP1 DUP3 GT ISZERO PUSH2 0x1D3 JUMPI PUSH1 0x0 DUP2 PUSH1 0x0 SWAP1 SSTORE POP PUSH1 0x1 ADD PUSH2 0x1BB JUMP JUMPDEST POP SWAP1 JUMP JUMPDEST SWAP1 JUMP JUMPDEST PUSH1 0x0 DUP2 SLOAD PUSH1 0x1 DUP2 AND PUSH1 0x0 DUP2 EQ PUSH2 0x1F7 JUMPI PUSH1 0x1 DUP2 EQ PUSH2 0x21C JUMPI PUSH2 0x260 JUMP JUMPDEST PUSH1 0x7F PUSH1 0x2 DUP4 DIV AND PUSH2 0x208 DUP2 DUP8 PUSH2 0x294 JUMP JUMPDEST SWAP6 POP PUSH1 0xFF NOT DUP4 AND DUP7 MSTORE DUP1 DUP7 ADD SWAP4 POP POP PUSH2 0x260 JUMP JUMPDEST PUSH1 0x2 DUP3 DIV PUSH2 0x22A DUP2 DUP8 PUSH2 0x294 JUMP JUMPDEST SWAP6 POP PUSH2 0x235 DUP6 PUSH2 0x27F JUMP JUMPDEST PUSH1 0x0 JUMPDEST DUP3 DUP2 LT ISZERO PUSH2 0x257 JUMPI DUP2 SLOAD DUP2 DUP10 ADD MSTORE PUSH1 0x1 DUP3 ADD SWAP2 POP PUSH1 0x20 DUP2 ADD SWAP1 POP PUSH2 0x238 JUMP JUMPDEST DUP3 DUP9 ADD SWAP6 POP POP POP POP JUMPDEST POP POP SWAP3 SWAP2 POP POP JUMP JUMPDEST PUSH1 0x0 PUSH2 0x274 DUP3 DUP5 PUSH2 0x1DA JUMP JUMPDEST SWAP2 POP DUP2 SWAP1 POP SWAP3 SWAP2 POP POP JUMP JUMPDEST PUSH1 0x0 DUP2 SWAP1 POP DUP2 PUSH1 0x0 MSTORE PUSH1 0x20 PUSH1 0x0 KECCAK256 SWAP1 POP SWAP2 SWAP1 POP JUMP JUMPDEST PUSH1 0x0 DUP2 SWAP1 POP SWAP3 SWAP2 POP POP JUMP JUMPDEST PUSH1 0xAF DUP1 PUSH2 0x2AD PUSH1 0x0 CODECOPY PUSH1 0x0 RETURN INVALID PUSH1 0x80 PUSH1 0x40 MSTORE CALLVALUE DUP1 ISZERO PUSH1 0xF JUMPI PUSH1 0x0 DUP1 REVERT JUMPDEST POP PUSH1 0x4 CALLDATASIZE LT PUSH1 0x28 JUMPI PUSH1 0x0 CALLDATALOAD PUSH1 0xE0 SHR DUP1 PUSH4 0x8320422E EQ PUSH1 0x2D JUMPI JUMPDEST PUSH1 0x0 DUP1 REVERT JUMPDEST PUSH1 0x33 PUSH1 0x35 JUMP JUMPDEST STOP JUMPDEST PUSH1 0x0 CALLDATALOAD PUSH32 0xFFFFFFFF00000000000000000000000000000000000000000000000000000000 AND PUSH1 0x8 PUSH1 0x0 PUSH2 0x100 EXP DUP2 SLOAD DUP2 PUSH4 0xFFFFFFFF MUL NOT AND SWAP1 DUP4 PUSH1 0xE0 SHR MUL OR SWAP1 SSTORE POP JUMP INVALID LOG2 PUSH5 0x6970667358 0x22 SLT KECCAK256 PUSH18 0x2977C9C6D845D7D433FC31D4BCCD3F791C53 0xD4 SWAP8 PC 0x25 PUSH11 0x75946E833B2D402464736F PUSH13 0x63430006050033000000000000 "
				},
				"gasEstimates": {
					"creation": {
						"codeDepositCost": "35000",
						"executionCost": "infinite",
						"totalCost": "infinite"
					},
					"external": {
						"ejemploBytes4()": "20998"
					}
				},
				"methodIdentifiers": {
					"ejemploBytes4()": "8320422e"
				}
			},
			"storageLayout": {
				"storage": [
					{
						"astId": 4,
						"contract": "Tipos de variables y operadores/mas variables.sol:mas_variables",
						"label": "mi_primer_string",
						"offset": 0,
						"slot": "0",
						"type": "t_string_storage"
					},
					{
						"astId": 7,
						"contract": "Tipos de variables y operadores/mas variables.sol:mas_variables",
						"label": "saludo",
						"offset": 0,
						"slot": "1",
						"type": "t_string_storage"
					},
					{
						"astId": 10,
						"contract": "Tipos de variables y operadores/mas variables.sol:mas_variables",
						"label": "cadena_vacia",
						"offset": 0,
						"slot": "2",
						"type": "t_string_storage"
					},
					{
						"astId": 13,
						"contract": "Tipos de variables y operadores/mas variables.sol:mas_variables",
						"label": "nombre",
						"offset": 0,
						"slot": "3",
						"type": "t_string_storage"
					},
					{
						"astId": 15,
						"contract": "Tipos de variables y operadores/mas variables.sol:mas_variables",
						"label": "mi_primer_booleano",
						"offset": 0,
						"slot": "4",
						"type": "t_bool"
					},
					{
						"astId": 18,
						"contract": "Tipos de variables y operadores/mas variables.sol:mas_variables",
						"label": "flag_true",
						"offset": 1,
						"slot": "4",
						"type": "t_bool"
					},
					{
						"astId": 21,
						"contract": "Tipos de variables y operadores/mas variables.sol:mas_variables",
						"label": "flag_false",
						"offset": 2,
						"slot": "4",
						"type": "t_bool"
					},
					{
						"astId": 23,
						"contract": "Tipos de variables y operadores/mas variables.sol:mas_variables",
						"label": "mi_primer_bytes",
						"offset": 0,
						"slot": "5",
						"type": "t_bytes32"
					},
					{
						"astId": 25,
						"contract": "Tipos de variables y operadores/mas variables.sol:mas_variables",
						"label": "segundo_bytes",
						"offset": 0,
						"slot": "6",
						"type": "t_bytes4"
					},
					{
						"astId": 33,
						"contract": "Tipos de variables y operadores/mas variables.sol:mas_variables",
						"label": "hash",
						"offset": 0,
						"slot": "7",
						"type": "t_bytes32"
					},
					{
						"astId": 35,
						"contract": "Tipos de variables y operadores/mas variables.sol:mas_variables",
						"label": "identificador",
						"offset": 0,
						"slot": "8",
						"type": "t_bytes4"
					}
				],
				"types": {
					"t_bool": {
						"encoding": "inplace",
						"label": "bool",
						"numberOfBytes": "1"
					},
					"t_bytes32": {
						"encoding": "inplace",
						"label": "bytes32",
						"numberOfBytes": "32"
					},
					"t_bytes4": {
						"encoding": "inplace",
						"label": "bytes4",
						"numberOfBytes": "4"
					},
					"t_string_storage": {
						"encoding": "bytes",
						"label": "string",
						"numberOfBytes": "32"
					}
				}
			},
			"userdoc": {
				"methods": {}
			}
		}
	}
}