{
	"Tipos de variables y operadores/enums.sol": {
		"Ejemplos_enumeraciones": {
			"abi": [
				{
					"inputs": [],
					"name": "escender",
					"outputs": [],
					"stateMutability": "nonpayable",
					"type": "function"
				}
			],
			"devdoc": {
				"methods": {}
			},
			"evm": {
				"assembly": "    /* \"Tipos de variables y operadores/enums.sol\":37:257  contract Ejemplos_enumeraciones{\r... */\n  mstore(0x40, 0x80)\n  callvalue\n    /* \"--CODEGEN--\":5:14   */\n  dup1\n    /* \"--CODEGEN--\":2:4   */\n  iszero\n  tag_1\n  jumpi\n    /* \"--CODEGEN--\":27:28   */\n  0x00\n    /* \"--CODEGEN--\":24:25   */\n  dup1\n    /* \"--CODEGEN--\":17:29   */\n  revert\n    /* \"--CODEGEN--\":2:4   */\ntag_1:\n    /* \"Tipos de variables y operadores/enums.sol\":37:257  contract Ejemplos_enumeraciones{\r... */\n  pop\n  dataSize(sub_0)\n  dup1\n  dataOffset(sub_0)\n  0x00\n  codecopy\n  0x00\n  return\nstop\n\nsub_0: assembly {\n        /* \"Tipos de variables y operadores/enums.sol\":37:257  contract Ejemplos_enumeraciones{\r... */\n      mstore(0x40, 0x80)\n      callvalue\n        /* \"--CODEGEN--\":5:14   */\n      dup1\n        /* \"--CODEGEN--\":2:4   */\n      iszero\n      tag_1\n      jumpi\n        /* \"--CODEGEN--\":27:28   */\n      0x00\n        /* \"--CODEGEN--\":24:25   */\n      dup1\n        /* \"--CODEGEN--\":17:29   */\n      revert\n        /* \"--CODEGEN--\":2:4   */\n    tag_1:\n        /* \"Tipos de variables y operadores/enums.sol\":37:257  contract Ejemplos_enumeraciones{\r... */\n      pop\n      jumpi(tag_2, lt(calldatasize, 0x04))\n      shr(0xe0, calldataload(0x00))\n      dup1\n      0x902a641b\n      eq\n      tag_3\n      jumpi\n    tag_2:\n        /* \"--CODEGEN--\":12:13   */\n      0x00\n        /* \"--CODEGEN--\":9:10   */\n      dup1\n        /* \"--CODEGEN--\":2:14   */\n      revert\n        /* \"Tipos de variables y operadores/enums.sol\":193:254  function escender()public{\r... */\n    tag_3:\n      tag_4\n      tag_5\n      jump\t// in\n    tag_4:\n      stop\n    tag_5:\n        /* \"Tipos de variables y operadores/enums.sol\":237:246  estado.ON */\n      0x00\n        /* \"Tipos de variables y operadores/enums.sol\":229:234  state */\n      dup1\n      0x00\n        /* \"Tipos de variables y operadores/enums.sol\":229:246  state = estado.ON */\n      0x0100\n      exp\n      dup2\n      sload\n      dup2\n      0xff\n      mul\n      not\n      and\n      swap1\n      dup4\n      0x01\n      dup2\n      gt\n      iszero\n      tag_7\n      jumpi\n      invalid\n    tag_7:\n      mul\n      or\n      swap1\n      sstore\n      pop\n        /* \"Tipos de variables y operadores/enums.sol\":193:254  function escender()public{\r... */\n      jump\t// out\n\n    auxdata: 0xa2646970667358221220b85dc417f55982c3a64a452957b47a970af0952977486401854ef530fcdb1a9364736f6c63430006050033\n}\n",
				"bytecode": {
					"linkReferences": {},
					"object": "6080604052348015600f57600080fd5b50608f8061001e6000396000f3fe6080604052348015600f57600080fd5b506004361060285760003560e01c8063902a641b14602d575b600080fd5b60336035565b005b60008060006101000a81548160ff02191690836001811115605257fe5b021790555056fea2646970667358221220b85dc417f55982c3a64a452957b47a970af0952977486401854ef530fcdb1a9364736f6c63430006050033",
					"opcodes": "PUSH1 0x80 PUSH1 0x40 MSTORE CALLVALUE DUP1 ISZERO PUSH1 0xF JUMPI PUSH1 0x0 DUP1 REVERT JUMPDEST POP PUSH1 0x8F DUP1 PUSH2 0x1E PUSH1 0x0 CODECOPY PUSH1 0x0 RETURN INVALID PUSH1 0x80 PUSH1 0x40 MSTORE CALLVALUE DUP1 ISZERO PUSH1 0xF JUMPI PUSH1 0x0 DUP1 REVERT JUMPDEST POP PUSH1 0x4 CALLDATASIZE LT PUSH1 0x28 JUMPI PUSH1 0x0 CALLDATALOAD PUSH1 0xE0 SHR DUP1 PUSH4 0x902A641B EQ PUSH1 0x2D JUMPI JUMPDEST PUSH1 0x0 DUP1 REVERT JUMPDEST PUSH1 0x33 PUSH1 0x35 JUMP JUMPDEST STOP JUMPDEST PUSH1 0x0 DUP1 PUSH1 0x0 PUSH2 0x100 EXP DUP2 SLOAD DUP2 PUSH1 0xFF MUL NOT AND SWAP1 DUP4 PUSH1 0x1 DUP2 GT ISZERO PUSH1 0x52 JUMPI INVALID JUMPDEST MUL OR SWAP1 SSTORE POP JUMP INVALID LOG2 PUSH5 0x6970667358 0x22 SLT KECCAK256 0xB8 0x5D 0xC4 OR CREATE2 MSIZE DUP3 0xC3 0xA6 0x4A GASLIMIT 0x29 JUMPI 0xB4 PUSH27 0x970AF0952977486401854EF530FCDB1A9364736F6C634300060500 CALLER "
				},
				"gasEstimates": {
					"creation": {
						"codeDepositCost": "28600",
						"executionCost": "81",
						"totalCost": "28681"
					},
					"external": {
						"escender()": "21009"
					}
				},
				"methodIdentifiers": {
					"escender()": "902a641b"
				}
			},
			"storageLayout": {
				"storage": [
					{
						"astId": 6,
						"contract": "Tipos de variables y operadores/enums.sol:Ejemplos_enumeraciones",
						"label": "state",
						"offset": 0,
						"slot": "0",
						"type": "t_enum(estado)4"
					}
				],
				"types": {
					"t_enum(estado)4": {
						"encoding": "inplace",
						"label": "enum Ejemplos_enumeraciones.estado",
						"numberOfBytes": "1"
					}
				}
			},
			"userdoc": {
				"methods": {}
			}
		}
	}
}