{
	"Tipos de variables y operadores/casteo_variables.sol": {
		"casteo": {
			"abi": [
				{
					"inputs": [],
					"name": "casteo_1",
					"outputs": [
						{
							"internalType": "uint64",
							"name": "",
							"type": "uint64"
						}
					],
					"stateMutability": "view",
					"type": "function"
				},
				{
					"inputs": [],
					"name": "casteo_2",
					"outputs": [
						{
							"internalType": "uint64",
							"name": "",
							"type": "uint64"
						}
					],
					"stateMutability": "view",
					"type": "function"
				},
				{
					"inputs": [],
					"name": "casteo_4",
					"outputs": [
						{
							"internalType": "int256",
							"name": "",
							"type": "int256"
						}
					],
					"stateMutability": "view",
					"type": "function"
				},
				{
					"inputs": [],
					"name": "casteo_5",
					"outputs": [
						{
							"internalType": "int256",
							"name": "",
							"type": "int256"
						}
					],
					"stateMutability": "view",
					"type": "function"
				},
				{
					"inputs": [
						{
							"internalType": "uint8",
							"name": "_k",
							"type": "uint8"
						}
					],
					"name": "convertir",
					"outputs": [
						{
							"internalType": "uint64",
							"name": "",
							"type": "uint64"
						}
					],
					"stateMutability": "pure",
					"type": "function"
				}
			],
			"devdoc": {
				"kind": "dev",
				"methods": {},
				"version": 1
			},
			"evm": {
				"assembly": "    /* \"Tipos de variables y operadores/casteo_variables.sol\":67:682  contract casteo{... */\n  mstore(0x40, 0x80)\n    /* \"Tipos de variables y operadores/casteo_variables.sol\":157:159  42 */\n  0x2a\n    /* \"Tipos de variables y operadores/casteo_variables.sol\":136:159  uint8 entero_8_bits= 42 */\n  0x00\n  dup1\n  0x0100\n  exp\n  dup2\n  sload\n  dup2\n  0xff\n  mul\n  not\n  and\n  swap1\n  dup4\n  0xff\n  and\n  mul\n  or\n  swap1\n  sstore\n  pop\n    /* \"Tipos de variables y operadores/casteo_variables.sol\":189:194  60000 */\n  0xea60\n    /* \"Tipos de variables y operadores/casteo_variables.sol\":165:194  uint64 entero_64_bits = 60000 */\n  0x00\n  exp(0x0100, 0x01)\n  dup2\n  sload\n  dup2\n  0xffffffffffffffff\n  mul\n  not\n  and\n  swap1\n  dup4\n  0xffffffffffffffff\n  and\n  mul\n  or\n  swap1\n  sstore\n  pop\n    /* \"Tipos de variables y operadores/casteo_variables.sol\":223:230  1000000 */\n  0x0f4240\n    /* \"Tipos de variables y operadores/casteo_variables.sol\":200:230  uint entero_256_bits = 1000000 */\n  0x01\n  sstore\n    /* \"Tipos de variables y operadores/casteo_variables.sol\":259:262  156 */\n  0x9c\n    /* \"Tipos de variables y operadores/casteo_variables.sol\":236:262  int16 entero_16_bits = 156 */\n  0x02\n  exp(0x0100, 0x00)\n  dup2\n  sload\n  dup2\n  0xffff\n  mul\n  not\n  and\n  swap1\n  dup4\n  0x01\n  signextend\n  0xffff\n  and\n  mul\n  or\n  swap1\n  sstore\n  pop\n    /* \"Tipos de variables y operadores/casteo_variables.sol\":293:299  900000 */\n  0x0dbba0\n    /* \"Tipos de variables y operadores/casteo_variables.sol\":268:299  int120 entero_120_bits = 900000 */\n  0x02\n  dup1\n  0x0100\n  exp\n  dup2\n  sload\n  dup2\n  0xffffffffffffffffffffffffffffff\n  mul\n  not\n  and\n  swap1\n  dup4\n  0x0e\n  signextend\n  0xffffffffffffffffffffffffffffff\n  and\n  mul\n  or\n  swap1\n  sstore\n  pop\n    /* \"Tipos de variables y operadores/casteo_variables.sol\":318:325  5000000 */\n  0x4c4b40\n    /* \"Tipos de variables y operadores/casteo_variables.sol\":305:325  int entero = 5000000 */\n  0x03\n  sstore\n    /* \"Tipos de variables y operadores/casteo_variables.sol\":398:411  entero_8_bits */\n  0x00\n  dup1\n  sload\n  swap1\n  0x0100\n  exp\n  swap1\n  div\n  0xff\n  and\n    /* \"Tipos de variables y operadores/casteo_variables.sol\":391:412  uint64(entero_8_bits) */\n  0xff\n  and\n    /* \"Tipos de variables y operadores/casteo_variables.sol\":366:412  uint64 public casteo_1 = uint64(entero_8_bits) */\n  0x04\n  exp(0x0100, 0x00)\n  dup2\n  sload\n  dup2\n  0xffffffffffffffff\n  mul\n  not\n  and\n  swap1\n  dup4\n  0xffffffffffffffff\n  and\n  mul\n  or\n  swap1\n  sstore\n  pop\n    /* \"Tipos de variables y operadores/casteo_variables.sol\":451:466  entero_256_bits */\n  sload(0x01)\n    /* \"Tipos de variables y operadores/casteo_variables.sol\":419:467  uint64 public casteo_2 = uint64(entero_256_bits) */\n  0x04\n  exp(0x0100, 0x08)\n  dup2\n  sload\n  dup2\n  0xffffffffffffffff\n  mul\n  not\n  and\n  swap1\n  dup4\n  0xffffffffffffffff\n  and\n  mul\n  or\n  swap1\n  sstore\n  pop\n    /* \"Tipos de variables y operadores/casteo_variables.sol\":500:515  entero_120_bits */\n  0x02\n  dup1\n  sload\n  swap1\n  0x0100\n  exp\n  swap1\n  div\n  0x0e\n  signextend\n    /* \"Tipos de variables y operadores/casteo_variables.sol\":496:516  int(entero_120_bits) */\n  0x0e\n  signextend\n    /* \"Tipos de variables y operadores/casteo_variables.sol\":473:516  int public  casteo_4 = int(entero_120_bits) */\n  0x05\n  sstore\n    /* \"Tipos de variables y operadores/casteo_variables.sol\":548:563  entero_256_bits */\n  sload(0x01)\n    /* \"Tipos de variables y operadores/casteo_variables.sol\":522:564  int public casteo_5 = int(entero_256_bits) */\n  0x06\n  sstore\n    /* \"Tipos de variables y operadores/casteo_variables.sol\":67:682  contract casteo{... */\n  callvalue\n  dup1\n  iszero\n  tag_1\n  jumpi\n  0x00\n  dup1\n  revert\ntag_1:\n  pop\n  dataSize(sub_0)\n  dup1\n  dataOffset(sub_0)\n  0x00\n  codecopy\n  0x00\n  return\nstop\n\nsub_0: assembly {\n        /* \"Tipos de variables y operadores/casteo_variables.sol\":67:682  contract casteo{... */\n      mstore(0x40, 0x80)\n      callvalue\n      dup1\n      iszero\n      tag_1\n      jumpi\n      0x00\n      dup1\n      revert\n    tag_1:\n      pop\n      jumpi(tag_2, lt(calldatasize, 0x04))\n      shr(0xe0, calldataload(0x00))\n      dup1\n      0x02b037a7\n      eq\n      tag_3\n      jumpi\n      dup1\n      0x2b74311b\n      eq\n      tag_4\n      jumpi\n      dup1\n      0x9fe40a17\n      eq\n      tag_5\n      jumpi\n      dup1\n      0xaf489aa6\n      eq\n      tag_6\n      jumpi\n      dup1\n      0xed4885e5\n      eq\n      tag_7\n      jumpi\n    tag_2:\n      0x00\n      dup1\n      revert\n        /* \"Tipos de variables y operadores/casteo_variables.sol\":366:412  uint64 public casteo_1 = uint64(entero_8_bits) */\n    tag_3:\n      tag_8\n      tag_9\n      jump\t// in\n    tag_8:\n      mload(0x40)\n      tag_10\n      swap2\n      swap1\n      tag_11\n      jump\t// in\n    tag_10:\n      mload(0x40)\n      dup1\n      swap2\n      sub\n      swap1\n      return\n        /* \"Tipos de variables y operadores/casteo_variables.sol\":419:467  uint64 public casteo_2 = uint64(entero_256_bits) */\n    tag_4:\n      tag_12\n      tag_13\n      jump\t// in\n    tag_12:\n      mload(0x40)\n      tag_14\n      swap2\n      swap1\n      tag_11\n      jump\t// in\n    tag_14:\n      mload(0x40)\n      dup1\n      swap2\n      sub\n      swap1\n      return\n        /* \"Tipos de variables y operadores/casteo_variables.sol\":580:670  function convertir(uint8 _k) public pure returns(uint64){... */\n    tag_5:\n      tag_15\n      0x04\n      dup1\n      calldatasize\n      sub\n      dup2\n      add\n      swap1\n      tag_16\n      swap2\n      swap1\n      tag_17\n      jump\t// in\n    tag_16:\n      tag_18\n      jump\t// in\n    tag_15:\n      mload(0x40)\n      tag_19\n      swap2\n      swap1\n      tag_11\n      jump\t// in\n    tag_19:\n      mload(0x40)\n      dup1\n      swap2\n      sub\n      swap1\n      return\n        /* \"Tipos de variables y operadores/casteo_variables.sol\":522:564  int public casteo_5 = int(entero_256_bits) */\n    tag_6:\n      tag_20\n      tag_21\n      jump\t// in\n    tag_20:\n      mload(0x40)\n      tag_22\n      swap2\n      swap1\n      tag_23\n      jump\t// in\n    tag_22:\n      mload(0x40)\n      dup1\n      swap2\n      sub\n      swap1\n      return\n        /* \"Tipos de variables y operadores/casteo_variables.sol\":473:516  int public  casteo_4 = int(entero_120_bits) */\n    tag_7:\n      tag_24\n      tag_25\n      jump\t// in\n    tag_24:\n      mload(0x40)\n      tag_26\n      swap2\n      swap1\n      tag_23\n      jump\t// in\n    tag_26:\n      mload(0x40)\n      dup1\n      swap2\n      sub\n      swap1\n      return\n        /* \"Tipos de variables y operadores/casteo_variables.sol\":366:412  uint64 public casteo_1 = uint64(entero_8_bits) */\n    tag_9:\n      0x04\n      0x00\n      swap1\n      sload\n      swap1\n      0x0100\n      exp\n      swap1\n      div\n      0xffffffffffffffff\n      and\n      dup2\n      jump\t// out\n        /* \"Tipos de variables y operadores/casteo_variables.sol\":419:467  uint64 public casteo_2 = uint64(entero_256_bits) */\n    tag_13:\n      0x04\n      0x08\n      swap1\n      sload\n      swap1\n      0x0100\n      exp\n      swap1\n      div\n      0xffffffffffffffff\n      and\n      dup2\n      jump\t// out\n        /* \"Tipos de variables y operadores/casteo_variables.sol\":580:670  function convertir(uint8 _k) public pure returns(uint64){... */\n    tag_18:\n        /* \"Tipos de variables y operadores/casteo_variables.sol\":629:635  uint64 */\n      0x00\n        /* \"Tipos de variables y operadores/casteo_variables.sol\":660:662  _k */\n      dup2\n        /* \"Tipos de variables y operadores/casteo_variables.sol\":653:663  uint64(_k) */\n      0xff\n      and\n        /* \"Tipos de variables y operadores/casteo_variables.sol\":646:663  return uint64(_k) */\n      swap1\n      pop\n        /* \"Tipos de variables y operadores/casteo_variables.sol\":580:670  function convertir(uint8 _k) public pure returns(uint64){... */\n      swap2\n      swap1\n      pop\n      jump\t// out\n        /* \"Tipos de variables y operadores/casteo_variables.sol\":522:564  int public casteo_5 = int(entero_256_bits) */\n    tag_21:\n      sload(0x06)\n      dup2\n      jump\t// out\n        /* \"Tipos de variables y operadores/casteo_variables.sol\":473:516  int public  casteo_4 = int(entero_120_bits) */\n    tag_25:\n      sload(0x05)\n      dup2\n      jump\t// out\n        /* \"#utility.yul\":7:108   */\n    tag_28:\n        /* \"#utility.yul\":43:50   */\n      0x00\n        /* \"#utility.yul\":83:101   */\n      0xffffffffffffffff\n        /* \"#utility.yul\":76:81   */\n      dup3\n        /* \"#utility.yul\":72:102   */\n      and\n        /* \"#utility.yul\":61:102   */\n      swap1\n      pop\n        /* \"#utility.yul\":7:108   */\n      swap2\n      swap1\n      pop\n      jump\t// out\n        /* \"#utility.yul\":114:229   */\n    tag_29:\n        /* \"#utility.yul\":199:222   */\n      tag_41\n        /* \"#utility.yul\":216:221   */\n      dup2\n        /* \"#utility.yul\":199:222   */\n      tag_28\n      jump\t// in\n    tag_41:\n        /* \"#utility.yul\":194:197   */\n      dup3\n        /* \"#utility.yul\":187:223   */\n      mstore\n        /* \"#utility.yul\":114:229   */\n      pop\n      pop\n      jump\t// out\n        /* \"#utility.yul\":235:453   */\n    tag_11:\n        /* \"#utility.yul\":326:330   */\n      0x00\n        /* \"#utility.yul\":364:366   */\n      0x20\n        /* \"#utility.yul\":353:362   */\n      dup3\n        /* \"#utility.yul\":349:367   */\n      add\n        /* \"#utility.yul\":341:367   */\n      swap1\n      pop\n        /* \"#utility.yul\":377:446   */\n      tag_43\n        /* \"#utility.yul\":443:444   */\n      0x00\n        /* \"#utility.yul\":432:441   */\n      dup4\n        /* \"#utility.yul\":428:445   */\n      add\n        /* \"#utility.yul\":419:425   */\n      dup5\n        /* \"#utility.yul\":377:446   */\n      tag_29\n      jump\t// in\n    tag_43:\n        /* \"#utility.yul\":235:453   */\n      swap3\n      swap2\n      pop\n      pop\n      jump\t// out\n        /* \"#utility.yul\":540:657   */\n    tag_31:\n        /* \"#utility.yul\":649:650   */\n      0x00\n        /* \"#utility.yul\":646:647   */\n      dup1\n        /* \"#utility.yul\":639:651   */\n      revert\n        /* \"#utility.yul\":786:872   */\n    tag_33:\n        /* \"#utility.yul\":821:828   */\n      0x00\n        /* \"#utility.yul\":861:865   */\n      0xff\n        /* \"#utility.yul\":854:859   */\n      dup3\n        /* \"#utility.yul\":850:866   */\n      and\n        /* \"#utility.yul\":839:866   */\n      swap1\n      pop\n        /* \"#utility.yul\":786:872   */\n      swap2\n      swap1\n      pop\n      jump\t// out\n        /* \"#utility.yul\":878:996   */\n    tag_34:\n        /* \"#utility.yul\":949:971   */\n      tag_49\n        /* \"#utility.yul\":965:970   */\n      dup2\n        /* \"#utility.yul\":949:971   */\n      tag_33\n      jump\t// in\n    tag_49:\n        /* \"#utility.yul\":942:947   */\n      dup2\n        /* \"#utility.yul\":939:972   */\n      eq\n        /* \"#utility.yul\":929:990   */\n      tag_50\n      jumpi\n        /* \"#utility.yul\":986:987   */\n      0x00\n        /* \"#utility.yul\":983:984   */\n      dup1\n        /* \"#utility.yul\":976:988   */\n      revert\n        /* \"#utility.yul\":929:990   */\n    tag_50:\n        /* \"#utility.yul\":878:996   */\n      pop\n      jump\t// out\n        /* \"#utility.yul\":1002:1137   */\n    tag_35:\n        /* \"#utility.yul\":1046:1051   */\n      0x00\n        /* \"#utility.yul\":1084:1090   */\n      dup2\n        /* \"#utility.yul\":1071:1091   */\n      calldataload\n        /* \"#utility.yul\":1062:1091   */\n      swap1\n      pop\n        /* \"#utility.yul\":1100:1131   */\n      tag_52\n        /* \"#utility.yul\":1125:1130   */\n      dup2\n        /* \"#utility.yul\":1100:1131   */\n      tag_34\n      jump\t// in\n    tag_52:\n        /* \"#utility.yul\":1002:1137   */\n      swap3\n      swap2\n      pop\n      pop\n      jump\t// out\n        /* \"#utility.yul\":1143:1468   */\n    tag_17:\n        /* \"#utility.yul\":1200:1206   */\n      0x00\n        /* \"#utility.yul\":1249:1251   */\n      0x20\n        /* \"#utility.yul\":1237:1246   */\n      dup3\n        /* \"#utility.yul\":1228:1235   */\n      dup5\n        /* \"#utility.yul\":1224:1247   */\n      sub\n        /* \"#utility.yul\":1220:1252   */\n      slt\n        /* \"#utility.yul\":1217:1336   */\n      iszero\n      tag_54\n      jumpi\n        /* \"#utility.yul\":1255:1334   */\n      tag_55\n      tag_31\n      jump\t// in\n    tag_55:\n        /* \"#utility.yul\":1217:1336   */\n    tag_54:\n        /* \"#utility.yul\":1375:1376   */\n      0x00\n        /* \"#utility.yul\":1400:1451   */\n      tag_56\n        /* \"#utility.yul\":1443:1450   */\n      dup5\n        /* \"#utility.yul\":1434:1440   */\n      dup3\n        /* \"#utility.yul\":1423:1432   */\n      dup6\n        /* \"#utility.yul\":1419:1441   */\n      add\n        /* \"#utility.yul\":1400:1451   */\n      tag_35\n      jump\t// in\n    tag_56:\n        /* \"#utility.yul\":1390:1451   */\n      swap2\n      pop\n        /* \"#utility.yul\":1346:1461   */\n      pop\n        /* \"#utility.yul\":1143:1468   */\n      swap3\n      swap2\n      pop\n      pop\n      jump\t// out\n        /* \"#utility.yul\":1474:1550   */\n    tag_36:\n        /* \"#utility.yul\":1510:1517   */\n      0x00\n        /* \"#utility.yul\":1539:1544   */\n      dup2\n        /* \"#utility.yul\":1528:1544   */\n      swap1\n      pop\n        /* \"#utility.yul\":1474:1550   */\n      swap2\n      swap1\n      pop\n      jump\t// out\n        /* \"#utility.yul\":1556:1671   */\n    tag_37:\n        /* \"#utility.yul\":1641:1664   */\n      tag_59\n        /* \"#utility.yul\":1658:1663   */\n      dup2\n        /* \"#utility.yul\":1641:1664   */\n      tag_36\n      jump\t// in\n    tag_59:\n        /* \"#utility.yul\":1636:1639   */\n      dup3\n        /* \"#utility.yul\":1629:1665   */\n      mstore\n        /* \"#utility.yul\":1556:1671   */\n      pop\n      pop\n      jump\t// out\n        /* \"#utility.yul\":1677:1895   */\n    tag_23:\n        /* \"#utility.yul\":1768:1772   */\n      0x00\n        /* \"#utility.yul\":1806:1808   */\n      0x20\n        /* \"#utility.yul\":1795:1804   */\n      dup3\n        /* \"#utility.yul\":1791:1809   */\n      add\n        /* \"#utility.yul\":1783:1809   */\n      swap1\n      pop\n        /* \"#utility.yul\":1819:1888   */\n      tag_61\n        /* \"#utility.yul\":1885:1886   */\n      0x00\n        /* \"#utility.yul\":1874:1883   */\n      dup4\n        /* \"#utility.yul\":1870:1887   */\n      add\n        /* \"#utility.yul\":1861:1867   */\n      dup5\n        /* \"#utility.yul\":1819:1888   */\n      tag_37\n      jump\t// in\n    tag_61:\n        /* \"#utility.yul\":1677:1895   */\n      swap3\n      swap2\n      pop\n      pop\n      jump\t// out\n\n    auxdata: 0xa26469706673582212207b3023b0084cf626d508458f5e8aae7e00ab61d2e955047aa69c2720ac1b635f64736f6c634300080d0033\n}\n",
				"bytecode": {
					"linkReferences": {},
					"object": "6080604052602a6000806101000a81548160ff021916908360ff16021790555061ea60600060016101000a81548167ffffffffffffffff021916908367ffffffffffffffff160217905550620f4240600155609c600260006101000a81548161ffff021916908360010b61ffff160217905550620dbba06002806101000a8154816effffffffffffffffffffffffffffff0219169083600e0b6effffffffffffffffffffffffffffff160217905550624c4b4060035560008054906101000a900460ff1660ff16600460006101000a81548167ffffffffffffffff021916908367ffffffffffffffff160217905550600154600460086101000a81548167ffffffffffffffff021916908367ffffffffffffffff16021790555060028054906101000a9004600e0b600e0b60055560015460065534801561013f57600080fd5b506102648061014f6000396000f3fe608060405234801561001057600080fd5b50600436106100575760003560e01c806302b037a71461005c5780632b74311b1461007a5780639fe40a1714610098578063af489aa6146100c8578063ed4885e5146100e6575b600080fd5b610064610104565b6040516100719190610174565b60405180910390f35b61008261011e565b60405161008f9190610174565b60405180910390f35b6100b260048036038101906100ad91906101cd565b610138565b6040516100bf9190610174565b60405180910390f35b6100d0610145565b6040516100dd9190610213565b60405180910390f35b6100ee61014b565b6040516100fb9190610213565b60405180910390f35b600460009054906101000a900467ffffffffffffffff1681565b600460089054906101000a900467ffffffffffffffff1681565b60008160ff169050919050565b60065481565b60055481565b600067ffffffffffffffff82169050919050565b61016e81610151565b82525050565b60006020820190506101896000830184610165565b92915050565b600080fd5b600060ff82169050919050565b6101aa81610194565b81146101b557600080fd5b50565b6000813590506101c7816101a1565b92915050565b6000602082840312156101e3576101e261018f565b5b60006101f1848285016101b8565b91505092915050565b6000819050919050565b61020d816101fa565b82525050565b60006020820190506102286000830184610204565b9291505056fea26469706673582212207b3023b0084cf626d508458f5e8aae7e00ab61d2e955047aa69c2720ac1b635f64736f6c634300080d0033",
					"opcodes": "PUSH1 0x80 PUSH1 0x40 MSTORE PUSH1 0x2A PUSH1 0x0 DUP1 PUSH2 0x100 EXP DUP2 SLOAD DUP2 PUSH1 0xFF MUL NOT AND SWAP1 DUP4 PUSH1 0xFF AND MUL OR SWAP1 SSTORE POP PUSH2 0xEA60 PUSH1 0x0 PUSH1 0x1 PUSH2 0x100 EXP DUP2 SLOAD DUP2 PUSH8 0xFFFFFFFFFFFFFFFF MUL NOT AND SWAP1 DUP4 PUSH8 0xFFFFFFFFFFFFFFFF AND MUL OR SWAP1 SSTORE POP PUSH3 0xF4240 PUSH1 0x1 SSTORE PUSH1 0x9C PUSH1 0x2 PUSH1 0x0 PUSH2 0x100 EXP DUP2 SLOAD DUP2 PUSH2 0xFFFF MUL NOT AND SWAP1 DUP4 PUSH1 0x1 SIGNEXTEND PUSH2 0xFFFF AND MUL OR SWAP1 SSTORE POP PUSH3 0xDBBA0 PUSH1 0x2 DUP1 PUSH2 0x100 EXP DUP2 SLOAD DUP2 PUSH15 0xFFFFFFFFFFFFFFFFFFFFFFFFFFFFFF MUL NOT AND SWAP1 DUP4 PUSH1 0xE SIGNEXTEND PUSH15 0xFFFFFFFFFFFFFFFFFFFFFFFFFFFFFF AND MUL OR SWAP1 SSTORE POP PUSH3 0x4C4B40 PUSH1 0x3 SSTORE PUSH1 0x0 DUP1 SLOAD SWAP1 PUSH2 0x100 EXP SWAP1 DIV PUSH1 0xFF AND PUSH1 0xFF AND PUSH1 0x4 PUSH1 0x0 PUSH2 0x100 EXP DUP2 SLOAD DUP2 PUSH8 0xFFFFFFFFFFFFFFFF MUL NOT AND SWAP1 DUP4 PUSH8 0xFFFFFFFFFFFFFFFF AND MUL OR SWAP1 SSTORE POP PUSH1 0x1 SLOAD PUSH1 0x4 PUSH1 0x8 PUSH2 0x100 EXP DUP2 SLOAD DUP2 PUSH8 0xFFFFFFFFFFFFFFFF MUL NOT AND SWAP1 DUP4 PUSH8 0xFFFFFFFFFFFFFFFF AND MUL OR SWAP1 SSTORE POP PUSH1 0x2 DUP1 SLOAD SWAP1 PUSH2 0x100 EXP SWAP1 DIV PUSH1 0xE SIGNEXTEND PUSH1 0xE SIGNEXTEND PUSH1 0x5 SSTORE PUSH1 0x1 SLOAD PUSH1 0x6 SSTORE CALLVALUE DUP1 ISZERO PUSH2 0x13F JUMPI PUSH1 0x0 DUP1 REVERT JUMPDEST POP PUSH2 0x264 DUP1 PUSH2 0x14F PUSH1 0x0 CODECOPY PUSH1 0x0 RETURN INVALID PUSH1 0x80 PUSH1 0x40 MSTORE CALLVALUE DUP1 ISZERO PUSH2 0x10 JUMPI PUSH1 0x0 DUP1 REVERT JUMPDEST POP PUSH1 0x4 CALLDATASIZE LT PUSH2 0x57 JUMPI PUSH1 0x0 CALLDATALOAD PUSH1 0xE0 SHR DUP1 PUSH4 0x2B037A7 EQ PUSH2 0x5C JUMPI DUP1 PUSH4 0x2B74311B EQ PUSH2 0x7A JUMPI DUP1 PUSH4 0x9FE40A17 EQ PUSH2 0x98 JUMPI DUP1 PUSH4 0xAF489AA6 EQ PUSH2 0xC8 JUMPI DUP1 PUSH4 0xED4885E5 EQ PUSH2 0xE6 JUMPI JUMPDEST PUSH1 0x0 DUP1 REVERT JUMPDEST PUSH2 0x64 PUSH2 0x104 JUMP JUMPDEST PUSH1 0x40 MLOAD PUSH2 0x71 SWAP2 SWAP1 PUSH2 0x174 JUMP JUMPDEST PUSH1 0x40 MLOAD DUP1 SWAP2 SUB SWAP1 RETURN JUMPDEST PUSH2 0x82 PUSH2 0x11E JUMP JUMPDEST PUSH1 0x40 MLOAD PUSH2 0x8F SWAP2 SWAP1 PUSH2 0x174 JUMP JUMPDEST PUSH1 0x40 MLOAD DUP1 SWAP2 SUB SWAP1 RETURN JUMPDEST PUSH2 0xB2 PUSH1 0x4 DUP1 CALLDATASIZE SUB DUP2 ADD SWAP1 PUSH2 0xAD SWAP2 SWAP1 PUSH2 0x1CD JUMP JUMPDEST PUSH2 0x138 JUMP JUMPDEST PUSH1 0x40 MLOAD PUSH2 0xBF SWAP2 SWAP1 PUSH2 0x174 JUMP JUMPDEST PUSH1 0x40 MLOAD DUP1 SWAP2 SUB SWAP1 RETURN JUMPDEST PUSH2 0xD0 PUSH2 0x145 JUMP JUMPDEST PUSH1 0x40 MLOAD PUSH2 0xDD SWAP2 SWAP1 PUSH2 0x213 JUMP JUMPDEST PUSH1 0x40 MLOAD DUP1 SWAP2 SUB SWAP1 RETURN JUMPDEST PUSH2 0xEE PUSH2 0x14B JUMP JUMPDEST PUSH1 0x40 MLOAD PUSH2 0xFB SWAP2 SWAP1 PUSH2 0x213 JUMP JUMPDEST PUSH1 0x40 MLOAD DUP1 SWAP2 SUB SWAP1 RETURN JUMPDEST PUSH1 0x4 PUSH1 0x0 SWAP1 SLOAD SWAP1 PUSH2 0x100 EXP SWAP1 DIV PUSH8 0xFFFFFFFFFFFFFFFF AND DUP2 JUMP JUMPDEST PUSH1 0x4 PUSH1 0x8 SWAP1 SLOAD SWAP1 PUSH2 0x100 EXP SWAP1 DIV PUSH8 0xFFFFFFFFFFFFFFFF AND DUP2 JUMP JUMPDEST PUSH1 0x0 DUP2 PUSH1 0xFF AND SWAP1 POP SWAP2 SWAP1 POP JUMP JUMPDEST PUSH1 0x6 SLOAD DUP2 JUMP JUMPDEST PUSH1 0x5 SLOAD DUP2 JUMP JUMPDEST PUSH1 0x0 PUSH8 0xFFFFFFFFFFFFFFFF DUP3 AND SWAP1 POP SWAP2 SWAP1 POP JUMP JUMPDEST PUSH2 0x16E DUP2 PUSH2 0x151 JUMP JUMPDEST DUP3 MSTORE POP POP JUMP JUMPDEST PUSH1 0x0 PUSH1 0x20 DUP3 ADD SWAP1 POP PUSH2 0x189 PUSH1 0x0 DUP4 ADD DUP5 PUSH2 0x165 JUMP JUMPDEST SWAP3 SWAP2 POP POP JUMP JUMPDEST PUSH1 0x0 DUP1 REVERT JUMPDEST PUSH1 0x0 PUSH1 0xFF DUP3 AND SWAP1 POP SWAP2 SWAP1 POP JUMP JUMPDEST PUSH2 0x1AA DUP2 PUSH2 0x194 JUMP JUMPDEST DUP2 EQ PUSH2 0x1B5 JUMPI PUSH1 0x0 DUP1 REVERT JUMPDEST POP JUMP JUMPDEST PUSH1 0x0 DUP2 CALLDATALOAD SWAP1 POP PUSH2 0x1C7 DUP2 PUSH2 0x1A1 JUMP JUMPDEST SWAP3 SWAP2 POP POP JUMP JUMPDEST PUSH1 0x0 PUSH1 0x20 DUP3 DUP5 SUB SLT ISZERO PUSH2 0x1E3 JUMPI PUSH2 0x1E2 PUSH2 0x18F JUMP JUMPDEST JUMPDEST PUSH1 0x0 PUSH2 0x1F1 DUP5 DUP3 DUP6 ADD PUSH2 0x1B8 JUMP JUMPDEST SWAP2 POP POP SWAP3 SWAP2 POP POP JUMP JUMPDEST PUSH1 0x0 DUP2 SWAP1 POP SWAP2 SWAP1 POP JUMP JUMPDEST PUSH2 0x20D DUP2 PUSH2 0x1FA JUMP JUMPDEST DUP3 MSTORE POP POP JUMP JUMPDEST PUSH1 0x0 PUSH1 0x20 DUP3 ADD SWAP1 POP PUSH2 0x228 PUSH1 0x0 DUP4 ADD DUP5 PUSH2 0x204 JUMP JUMPDEST SWAP3 SWAP2 POP POP JUMP INVALID LOG2 PUSH5 0x6970667358 0x22 SLT KECCAK256 PUSH28 0x3023B0084CF626D508458F5E8AAE7E00AB61D2E955047AA69C2720AC SHL PUSH4 0x5F64736F PUSH13 0x634300080D0033000000000000 "
				},
				"gasEstimates": {
					"creation": {
						"codeDepositCost": "122400",
						"executionCost": "242895",
						"totalCost": "365295"
					},
					"external": {
						"casteo_1()": "2449",
						"casteo_2()": "2521",
						"casteo_4()": "2495",
						"casteo_5()": "2473",
						"convertir(uint8)": "642"
					}
				},
				"methodIdentifiers": {
					"casteo_1()": "02b037a7",
					"casteo_2()": "2b74311b",
					"casteo_4()": "ed4885e5",
					"casteo_5()": "af489aa6",
					"convertir(uint8)": "9fe40a17"
				}
			},
			"storageLayout": {
				"storage": [
					{
						"astId": 4,
						"contract": "Tipos de variables y operadores/casteo_variables.sol:casteo",
						"label": "entero_8_bits",
						"offset": 0,
						"slot": "0",
						"type": "t_uint8"
					},
					{
						"astId": 7,
						"contract": "Tipos de variables y operadores/casteo_variables.sol:casteo",
						"label": "entero_64_bits",
						"offset": 1,
						"slot": "0",
						"type": "t_uint64"
					},
					{
						"astId": 10,
						"contract": "Tipos de variables y operadores/casteo_variables.sol:casteo",
						"label": "entero_256_bits",
						"offset": 0,
						"slot": "1",
						"type": "t_uint256"
					},
					{
						"astId": 13,
						"contract": "Tipos de variables y operadores/casteo_variables.sol:casteo",
						"label": "entero_16_bits",
						"offset": 0,
						"slot": "2",
						"type": "t_int16"
					},
					{
						"astId": 16,
						"contract": "Tipos de variables y operadores/casteo_variables.sol:casteo",
						"label": "entero_120_bits",
						"offset": 2,
						"slot": "2",
						"type": "t_int120"
					},
					{
						"astId": 19,
						"contract": "Tipos de variables y operadores/casteo_variables.sol:casteo",
						"label": "entero",
						"offset": 0,
						"slot": "3",
						"type": "t_int256"
					},
					{
						"astId": 25,
						"contract": "Tipos de variables y operadores/casteo_variables.sol:casteo",
						"label": "casteo_1",
						"offset": 0,
						"slot": "4",
						"type": "t_uint64"
					},
					{
						"astId": 31,
						"contract": "Tipos de variables y operadores/casteo_variables.sol:casteo",
						"label": "casteo_2",
						"offset": 8,
						"slot": "4",
						"type": "t_uint64"
					},
					{
						"astId": 37,
						"contract": "Tipos de variables y operadores/casteo_variables.sol:casteo",
						"label": "casteo_4",
						"offset": 0,
						"slot": "5",
						"type": "t_int256"
					},
					{
						"astId": 43,
						"contract": "Tipos de variables y operadores/casteo_variables.sol:casteo",
						"label": "casteo_5",
						"offset": 0,
						"slot": "6",
						"type": "t_int256"
					}
				],
				"types": {
					"t_int120": {
						"encoding": "inplace",
						"label": "int120",
						"numberOfBytes": "15"
					},
					"t_int16": {
						"encoding": "inplace",
						"label": "int16",
						"numberOfBytes": "2"
					},
					"t_int256": {
						"encoding": "inplace",
						"label": "int256",
						"numberOfBytes": "32"
					},
					"t_uint256": {
						"encoding": "inplace",
						"label": "uint256",
						"numberOfBytes": "32"
					},
					"t_uint64": {
						"encoding": "inplace",
						"label": "uint64",
						"numberOfBytes": "8"
					},
					"t_uint8": {
						"encoding": "inplace",
						"label": "uint8",
						"numberOfBytes": "1"
					}
				}
			},
			"userdoc": {
				"kind": "user",
				"methods": {},
				"version": 1
			}
		}
	}
}