{
	"Tipos de variables y operadores/enums.sol": {
		"Ejemplos_enumeraciones": {
			"abi": [
				{
					"inputs": [],
					"name": "Direccion",
					"outputs": [
						{
							"internalType": "enum Ejemplos_enumeraciones.direcciones",
							"name": "",
							"type": "uint8"
						}
					],
					"stateMutability": "view",
					"type": "function"
				},
				{
					"inputs": [],
					"name": "Estado",
					"outputs": [
						{
							"internalType": "enum Ejemplos_enumeraciones.estado",
							"name": "",
							"type": "uint8"
						}
					],
					"stateMutability": "view",
					"type": "function"
				},
				{
					"inputs": [],
					"name": "abajo",
					"outputs": [],
					"stateMutability": "nonpayable",
					"type": "function"
				},
				{
					"inputs": [],
					"name": "apagar",
					"outputs": [],
					"stateMutability": "nonpayable",
					"type": "function"
				},
				{
					"inputs": [],
					"name": "arriba",
					"outputs": [],
					"stateMutability": "nonpayable",
					"type": "function"
				},
				{
					"inputs": [],
					"name": "derecha",
					"outputs": [],
					"stateMutability": "nonpayable",
					"type": "function"
				},
				{
					"inputs": [],
					"name": "escender",
					"outputs": [],
					"stateMutability": "nonpayable",
					"type": "function"
				},
				{
					"inputs": [
						{
							"internalType": "uint256",
							"name": "_k",
							"type": "uint256"
						}
					],
					"name": "fijar_direccion",
					"outputs": [],
					"stateMutability": "nonpayable",
					"type": "function"
				},
				{
					"inputs": [
						{
							"internalType": "uint256",
							"name": "_k",
							"type": "uint256"
						}
					],
					"name": "fijar_estado",
					"outputs": [],
					"stateMutability": "nonpayable",
					"type": "function"
				},
				{
					"inputs": [],
					"name": "izquierda",
					"outputs": [],
					"stateMutability": "nonpayable",
					"type": "function"
				}
			],
			"devdoc": {
				"kind": "dev",
				"methods": {},
				"version": 1
			},
			"evm": {
				"assembly": "    /* \"Tipos de variables y operadores/enums.sol\":70:1197  contract Ejemplos_enumeraciones{... */\n  mstore(0x40, 0x80)\n    /* \"Tipos de variables y operadores/enums.sol\":647:665  direcciones.ARRIBA */\n  0x00\n    /* \"Tipos de variables y operadores/enums.sol\":623:665  direcciones direccion = direcciones.ARRIBA */\n  dup1\n  exp(0x0100, 0x01)\n  dup2\n  sload\n  dup2\n  0xff\n  mul\n  not\n  and\n  swap1\n  dup4\n  0x03\n  dup2\n  gt\n  iszero\n  tag_1\n  jumpi\n  tag_2\n  tag_3\n  jump\t// in\ntag_2:\ntag_1:\n  mul\n  or\n  swap1\n  sstore\n  pop\n    /* \"Tipos de variables y operadores/enums.sol\":70:1197  contract Ejemplos_enumeraciones{... */\n  callvalue\n  dup1\n  iszero\n  tag_4\n  jumpi\n  0x00\n  dup1\n  revert\ntag_4:\n  pop\n  jump(tag_5)\n    /* \"#utility.yul\":7:187   */\ntag_3:\n    /* \"#utility.yul\":55:132   */\n  0x4e487b7100000000000000000000000000000000000000000000000000000000\n    /* \"#utility.yul\":52:53   */\n  0x00\n    /* \"#utility.yul\":45:133   */\n  mstore\n    /* \"#utility.yul\":152:156   */\n  0x21\n    /* \"#utility.yul\":149:150   */\n  0x04\n    /* \"#utility.yul\":142:157   */\n  mstore\n    /* \"#utility.yul\":176:180   */\n  0x24\n    /* \"#utility.yul\":173:174   */\n  0x00\n    /* \"#utility.yul\":166:181   */\n  revert\n    /* \"Tipos de variables y operadores/enums.sol\":70:1197  contract Ejemplos_enumeraciones{... */\ntag_5:\n  dataSize(sub_0)\n  dup1\n  dataOffset(sub_0)\n  0x00\n  codecopy\n  0x00\n  return\nstop\n\nsub_0: assembly {\n        /* \"Tipos de variables y operadores/enums.sol\":70:1197  contract Ejemplos_enumeraciones{... */\n      mstore(0x40, 0x80)\n      callvalue\n      dup1\n      iszero\n      tag_1\n      jumpi\n      0x00\n      dup1\n      revert\n    tag_1:\n      pop\n      jumpi(tag_2, lt(calldatasize, 0x04))\n      shr(0xe0, calldataload(0x00))\n      dup1\n      0x902a641b\n      gt\n      tag_13\n      jumpi\n      dup1\n      0x902a641b\n      eq\n      tag_8\n      jumpi\n      dup1\n      0x943fad7f\n      eq\n      tag_9\n      jumpi\n      dup1\n      0xb46e8d1a\n      eq\n      tag_10\n      jumpi\n      dup1\n      0xdaf4343f\n      eq\n      tag_11\n      jumpi\n      dup1\n      0xe7260f9a\n      eq\n      tag_12\n      jumpi\n      jump(tag_2)\n    tag_13:\n      dup1\n      0x1b92fd22\n      eq\n      tag_3\n      jumpi\n      dup1\n      0x2b38329b\n      eq\n      tag_4\n      jumpi\n      dup1\n      0x3e5f5fa8\n      eq\n      tag_5\n      jumpi\n      dup1\n      0x862b7129\n      eq\n      tag_6\n      jumpi\n      dup1\n      0x8a60839f\n      eq\n      tag_7\n      jumpi\n    tag_2:\n      0x00\n      dup1\n      revert\n        /* \"Tipos de variables y operadores/enums.sol\":1104:1192  function Direccion() public view returns(direcciones){... */\n    tag_3:\n      tag_14\n      tag_15\n      jump\t// in\n    tag_14:\n      mload(0x40)\n      tag_16\n      swap2\n      swap1\n      tag_17\n      jump\t// in\n    tag_16:\n      mload(0x40)\n      dup1\n      swap2\n      sub\n      swap1\n      return\n        /* \"Tipos de variables y operadores/enums.sol\":364:437  function fijar_estado(uint _k)public{... */\n    tag_4:\n      tag_18\n      0x04\n      dup1\n      calldatasize\n      sub\n      dup2\n      add\n      swap1\n      tag_19\n      swap2\n      swap1\n      tag_20\n      jump\t// in\n    tag_19:\n      tag_21\n      jump\t// in\n    tag_18:\n      stop\n        /* \"Tipos de variables y operadores/enums.sol\":1009:1094  function fijar_direccion(uint _k)public{... */\n    tag_5:\n      tag_22\n      0x04\n      dup1\n      calldatasize\n      sub\n      dup2\n      add\n      swap1\n      tag_23\n      swap2\n      swap1\n      tag_20\n      jump\t// in\n    tag_23:\n      tag_24\n      jump\t// in\n    tag_22:\n      stop\n        /* \"Tipos de variables y operadores/enums.sol\":296:356  function apagar()public{... */\n    tag_6:\n      tag_25\n      tag_26\n      jump\t// in\n    tag_25:\n      stop\n        /* \"Tipos de variables y operadores/enums.sol\":836:911  function derecha() public{... */\n    tag_7:\n      tag_27\n      tag_28\n      jump\t// in\n    tag_27:\n      stop\n        /* \"Tipos de variables y operadores/enums.sol\":226:287  function escender()public{... */\n    tag_8:\n      tag_29\n      tag_30\n      jump\t// in\n    tag_29:\n      stop\n        /* \"Tipos de variables y operadores/enums.sol\":920:999  function izquierda() public{... */\n    tag_9:\n      tag_31\n      tag_32\n      jump\t// in\n    tag_31:\n      stop\n        /* \"Tipos de variables y operadores/enums.sol\":445:521  function Estado() public view returns(estado){... */\n    tag_10:\n      tag_33\n      tag_34\n      jump\t// in\n    tag_33:\n      mload(0x40)\n      tag_35\n      swap2\n      swap1\n      tag_36\n      jump\t// in\n    tag_35:\n      mload(0x40)\n      dup1\n      swap2\n      sub\n      swap1\n      return\n        /* \"Tipos de variables y operadores/enums.sol\":756:827  function abajo() public{... */\n    tag_11:\n      tag_37\n      tag_38\n      jump\t// in\n    tag_37:\n      stop\n        /* \"Tipos de variables y operadores/enums.sol\":674:747  function arriba() public{... */\n    tag_12:\n      tag_39\n      tag_40\n      jump\t// in\n    tag_39:\n      stop\n        /* \"Tipos de variables y operadores/enums.sol\":1104:1192  function Direccion() public view returns(direcciones){... */\n    tag_15:\n        /* \"Tipos de variables y operadores/enums.sol\":1145:1156  direcciones */\n      0x00\n        /* \"Tipos de variables y operadores/enums.sol\":1175:1184  direccion */\n      dup1\n      0x01\n      swap1\n      sload\n      swap1\n      0x0100\n      exp\n      swap1\n      div\n      0xff\n      and\n        /* \"Tipos de variables y operadores/enums.sol\":1168:1184  return direccion */\n      swap1\n      pop\n        /* \"Tipos de variables y operadores/enums.sol\":1104:1192  function Direccion() public view returns(direcciones){... */\n      swap1\n      jump\t// out\n        /* \"Tipos de variables y operadores/enums.sol\":364:437  function fijar_estado(uint _k)public{... */\n    tag_21:\n        /* \"Tipos de variables y operadores/enums.sol\":426:428  _k */\n      dup1\n        /* \"Tipos de variables y operadores/enums.sol\":419:429  estado(_k) */\n      0x01\n      dup2\n      gt\n      iszero\n      tag_43\n      jumpi\n      tag_44\n      tag_45\n      jump\t// in\n    tag_44:\n    tag_43:\n        /* \"Tipos de variables y operadores/enums.sol\":411:416  state */\n      0x00\n      dup1\n        /* \"Tipos de variables y operadores/enums.sol\":411:429  state = estado(_k) */\n      0x0100\n      exp\n      dup2\n      sload\n      dup2\n      0xff\n      mul\n      not\n      and\n      swap1\n      dup4\n      0x01\n      dup2\n      gt\n      iszero\n      tag_46\n      jumpi\n      tag_47\n      tag_45\n      jump\t// in\n    tag_47:\n    tag_46:\n      mul\n      or\n      swap1\n      sstore\n      pop\n        /* \"Tipos de variables y operadores/enums.sol\":364:437  function fijar_estado(uint _k)public{... */\n      pop\n      jump\t// out\n        /* \"Tipos de variables y operadores/enums.sol\":1009:1094  function fijar_direccion(uint _k)public{... */\n    tag_24:\n        /* \"Tipos de variables y operadores/enums.sol\":1083:1085  _k */\n      dup1\n        /* \"Tipos de variables y operadores/enums.sol\":1071:1086  direcciones(_k) */\n      0x03\n      dup2\n      gt\n      iszero\n      tag_49\n      jumpi\n      tag_50\n      tag_45\n      jump\t// in\n    tag_50:\n    tag_49:\n        /* \"Tipos de variables y operadores/enums.sol\":1059:1068  direccion */\n      0x00\n      0x01\n        /* \"Tipos de variables y operadores/enums.sol\":1059:1086  direccion = direcciones(_k) */\n      0x0100\n      exp\n      dup2\n      sload\n      dup2\n      0xff\n      mul\n      not\n      and\n      swap1\n      dup4\n      0x03\n      dup2\n      gt\n      iszero\n      tag_51\n      jumpi\n      tag_52\n      tag_45\n      jump\t// in\n    tag_52:\n    tag_51:\n      mul\n      or\n      swap1\n      sstore\n      pop\n        /* \"Tipos de variables y operadores/enums.sol\":1009:1094  function fijar_direccion(uint _k)public{... */\n      pop\n      jump\t// out\n        /* \"Tipos de variables y operadores/enums.sol\":296:356  function apagar()public{... */\n    tag_26:\n        /* \"Tipos de variables y operadores/enums.sol\":338:348  estado.OFF */\n      0x01\n        /* \"Tipos de variables y operadores/enums.sol\":330:335  state */\n      0x00\n      dup1\n        /* \"Tipos de variables y operadores/enums.sol\":330:348  state = estado.OFF */\n      0x0100\n      exp\n      dup2\n      sload\n      dup2\n      0xff\n      mul\n      not\n      and\n      swap1\n      dup4\n      0x01\n      dup2\n      gt\n      iszero\n      tag_54\n      jumpi\n      tag_55\n      tag_45\n      jump\t// in\n    tag_55:\n    tag_54:\n      mul\n      or\n      swap1\n      sstore\n      pop\n        /* \"Tipos de variables y operadores/enums.sol\":296:356  function apagar()public{... */\n      jump\t// out\n        /* \"Tipos de variables y operadores/enums.sol\":836:911  function derecha() public{... */\n    tag_28:\n        /* \"Tipos de variables y operadores/enums.sol\":884:903  direcciones.DERECHA */\n      0x02\n        /* \"Tipos de variables y operadores/enums.sol\":872:881  direccion */\n      0x00\n      0x01\n        /* \"Tipos de variables y operadores/enums.sol\":872:903  direccion = direcciones.DERECHA */\n      0x0100\n      exp\n      dup2\n      sload\n      dup2\n      0xff\n      mul\n      not\n      and\n      swap1\n      dup4\n      0x03\n      dup2\n      gt\n      iszero\n      tag_57\n      jumpi\n      tag_58\n      tag_45\n      jump\t// in\n    tag_58:\n    tag_57:\n      mul\n      or\n      swap1\n      sstore\n      pop\n        /* \"Tipos de variables y operadores/enums.sol\":836:911  function derecha() public{... */\n      jump\t// out\n        /* \"Tipos de variables y operadores/enums.sol\":226:287  function escender()public{... */\n    tag_30:\n        /* \"Tipos de variables y operadores/enums.sol\":270:279  estado.ON */\n      0x00\n        /* \"Tipos de variables y operadores/enums.sol\":262:267  state */\n      dup1\n      0x00\n        /* \"Tipos de variables y operadores/enums.sol\":262:279  state = estado.ON */\n      0x0100\n      exp\n      dup2\n      sload\n      dup2\n      0xff\n      mul\n      not\n      and\n      swap1\n      dup4\n      0x01\n      dup2\n      gt\n      iszero\n      tag_60\n      jumpi\n      tag_61\n      tag_45\n      jump\t// in\n    tag_61:\n    tag_60:\n      mul\n      or\n      swap1\n      sstore\n      pop\n        /* \"Tipos de variables y operadores/enums.sol\":226:287  function escender()public{... */\n      jump\t// out\n        /* \"Tipos de variables y operadores/enums.sol\":920:999  function izquierda() public{... */\n    tag_32:\n        /* \"Tipos de variables y operadores/enums.sol\":970:991  direcciones.IZQUIERDA */\n      0x03\n        /* \"Tipos de variables y operadores/enums.sol\":958:967  direccion */\n      0x00\n      0x01\n        /* \"Tipos de variables y operadores/enums.sol\":958:991  direccion = direcciones.IZQUIERDA */\n      0x0100\n      exp\n      dup2\n      sload\n      dup2\n      0xff\n      mul\n      not\n      and\n      swap1\n      dup4\n      0x03\n      dup2\n      gt\n      iszero\n      tag_63\n      jumpi\n      tag_64\n      tag_45\n      jump\t// in\n    tag_64:\n    tag_63:\n      mul\n      or\n      swap1\n      sstore\n      pop\n        /* \"Tipos de variables y operadores/enums.sol\":920:999  function izquierda() public{... */\n      jump\t// out\n        /* \"Tipos de variables y operadores/enums.sol\":445:521  function Estado() public view returns(estado){... */\n    tag_34:\n        /* \"Tipos de variables y operadores/enums.sol\":483:489  estado */\n      0x00\n        /* \"Tipos de variables y operadores/enums.sol\":508:513  state */\n      dup1\n      0x00\n      swap1\n      sload\n      swap1\n      0x0100\n      exp\n      swap1\n      div\n      0xff\n      and\n        /* \"Tipos de variables y operadores/enums.sol\":501:513  return state */\n      swap1\n      pop\n        /* \"Tipos de variables y operadores/enums.sol\":445:521  function Estado() public view returns(estado){... */\n      swap1\n      jump\t// out\n        /* \"Tipos de variables y operadores/enums.sol\":756:827  function abajo() public{... */\n    tag_38:\n        /* \"Tipos de variables y operadores/enums.sol\":802:819  direcciones.ABAJO */\n      0x01\n        /* \"Tipos de variables y operadores/enums.sol\":790:799  direccion */\n      0x00\n      0x01\n        /* \"Tipos de variables y operadores/enums.sol\":790:819  direccion = direcciones.ABAJO */\n      0x0100\n      exp\n      dup2\n      sload\n      dup2\n      0xff\n      mul\n      not\n      and\n      swap1\n      dup4\n      0x03\n      dup2\n      gt\n      iszero\n      tag_67\n      jumpi\n      tag_68\n      tag_45\n      jump\t// in\n    tag_68:\n    tag_67:\n      mul\n      or\n      swap1\n      sstore\n      pop\n        /* \"Tipos de variables y operadores/enums.sol\":756:827  function abajo() public{... */\n      jump\t// out\n        /* \"Tipos de variables y operadores/enums.sol\":674:747  function arriba() public{... */\n    tag_40:\n        /* \"Tipos de variables y operadores/enums.sol\":721:739  direcciones.ARRIBA */\n      0x00\n        /* \"Tipos de variables y operadores/enums.sol\":709:718  direccion */\n      dup1\n      0x01\n        /* \"Tipos de variables y operadores/enums.sol\":709:739  direccion = direcciones.ARRIBA */\n      0x0100\n      exp\n      dup2\n      sload\n      dup2\n      0xff\n      mul\n      not\n      and\n      swap1\n      dup4\n      0x03\n      dup2\n      gt\n      iszero\n      tag_70\n      jumpi\n      tag_71\n      tag_45\n      jump\t// in\n    tag_71:\n    tag_70:\n      mul\n      or\n      swap1\n      sstore\n      pop\n        /* \"Tipos de variables y operadores/enums.sol\":674:747  function arriba() public{... */\n      jump\t// out\n        /* \"#utility.yul\":7:187   */\n    tag_45:\n        /* \"#utility.yul\":55:132   */\n      0x4e487b7100000000000000000000000000000000000000000000000000000000\n        /* \"#utility.yul\":52:53   */\n      0x00\n        /* \"#utility.yul\":45:133   */\n      mstore\n        /* \"#utility.yul\":152:156   */\n      0x21\n        /* \"#utility.yul\":149:150   */\n      0x04\n        /* \"#utility.yul\":142:157   */\n      mstore\n        /* \"#utility.yul\":176:180   */\n      0x24\n        /* \"#utility.yul\":173:174   */\n      0x00\n        /* \"#utility.yul\":166:181   */\n      revert\n        /* \"#utility.yul\":193:312   */\n    tag_72:\n        /* \"#utility.yul\":280:281   */\n      0x04\n        /* \"#utility.yul\":273:278   */\n      dup2\n        /* \"#utility.yul\":270:282   */\n      lt\n        /* \"#utility.yul\":260:306   */\n      tag_89\n      jumpi\n        /* \"#utility.yul\":286:304   */\n      tag_90\n      tag_45\n      jump\t// in\n    tag_90:\n        /* \"#utility.yul\":260:306   */\n    tag_89:\n        /* \"#utility.yul\":193:312   */\n      pop\n      jump\t// out\n        /* \"#utility.yul\":318:457   */\n    tag_73:\n        /* \"#utility.yul\":369:376   */\n      0x00\n        /* \"#utility.yul\":398:403   */\n      dup2\n        /* \"#utility.yul\":387:403   */\n      swap1\n      pop\n        /* \"#utility.yul\":404:451   */\n      tag_92\n        /* \"#utility.yul\":445:450   */\n      dup3\n        /* \"#utility.yul\":404:451   */\n      tag_72\n      jump\t// in\n    tag_92:\n        /* \"#utility.yul\":318:457   */\n      swap2\n      swap1\n      pop\n      jump\t// out\n        /* \"#utility.yul\":463:602   */\n    tag_74:\n        /* \"#utility.yul\":525:534   */\n      0x00\n        /* \"#utility.yul\":558:596   */\n      tag_94\n        /* \"#utility.yul\":590:595   */\n      dup3\n        /* \"#utility.yul\":558:596   */\n      tag_73\n      jump\t// in\n    tag_94:\n        /* \"#utility.yul\":545:596   */\n      swap1\n      pop\n        /* \"#utility.yul\":463:602   */\n      swap2\n      swap1\n      pop\n      jump\t// out\n        /* \"#utility.yul\":608:763   */\n    tag_75:\n        /* \"#utility.yul\":707:756   */\n      tag_96\n        /* \"#utility.yul\":750:755   */\n      dup2\n        /* \"#utility.yul\":707:756   */\n      tag_74\n      jump\t// in\n    tag_96:\n        /* \"#utility.yul\":702:705   */\n      dup3\n        /* \"#utility.yul\":695:757   */\n      mstore\n        /* \"#utility.yul\":608:763   */\n      pop\n      pop\n      jump\t// out\n        /* \"#utility.yul\":769:1015   */\n    tag_17:\n        /* \"#utility.yul\":874:878   */\n      0x00\n        /* \"#utility.yul\":912:914   */\n      0x20\n        /* \"#utility.yul\":901:910   */\n      dup3\n        /* \"#utility.yul\":897:915   */\n      add\n        /* \"#utility.yul\":889:915   */\n      swap1\n      pop\n        /* \"#utility.yul\":925:1008   */\n      tag_98\n        /* \"#utility.yul\":1005:1006   */\n      0x00\n        /* \"#utility.yul\":994:1003   */\n      dup4\n        /* \"#utility.yul\":990:1007   */\n      add\n        /* \"#utility.yul\":981:987   */\n      dup5\n        /* \"#utility.yul\":925:1008   */\n      tag_75\n      jump\t// in\n    tag_98:\n        /* \"#utility.yul\":769:1015   */\n      swap3\n      swap2\n      pop\n      pop\n      jump\t// out\n        /* \"#utility.yul\":1102:1219   */\n    tag_77:\n        /* \"#utility.yul\":1211:1212   */\n      0x00\n        /* \"#utility.yul\":1208:1209   */\n      dup1\n        /* \"#utility.yul\":1201:1213   */\n      revert\n        /* \"#utility.yul\":1348:1425   */\n    tag_79:\n        /* \"#utility.yul\":1385:1392   */\n      0x00\n        /* \"#utility.yul\":1414:1419   */\n      dup2\n        /* \"#utility.yul\":1403:1419   */\n      swap1\n      pop\n        /* \"#utility.yul\":1348:1425   */\n      swap2\n      swap1\n      pop\n      jump\t// out\n        /* \"#utility.yul\":1431:1553   */\n    tag_80:\n        /* \"#utility.yul\":1504:1528   */\n      tag_104\n        /* \"#utility.yul\":1522:1527   */\n      dup2\n        /* \"#utility.yul\":1504:1528   */\n      tag_79\n      jump\t// in\n    tag_104:\n        /* \"#utility.yul\":1497:1502   */\n      dup2\n        /* \"#utility.yul\":1494:1529   */\n      eq\n        /* \"#utility.yul\":1484:1547   */\n      tag_105\n      jumpi\n        /* \"#utility.yul\":1543:1544   */\n      0x00\n        /* \"#utility.yul\":1540:1541   */\n      dup1\n        /* \"#utility.yul\":1533:1545   */\n      revert\n        /* \"#utility.yul\":1484:1547   */\n    tag_105:\n        /* \"#utility.yul\":1431:1553   */\n      pop\n      jump\t// out\n        /* \"#utility.yul\":1559:1698   */\n    tag_81:\n        /* \"#utility.yul\":1605:1610   */\n      0x00\n        /* \"#utility.yul\":1643:1649   */\n      dup2\n        /* \"#utility.yul\":1630:1650   */\n      calldataload\n        /* \"#utility.yul\":1621:1650   */\n      swap1\n      pop\n        /* \"#utility.yul\":1659:1692   */\n      tag_107\n        /* \"#utility.yul\":1686:1691   */\n      dup2\n        /* \"#utility.yul\":1659:1692   */\n      tag_80\n      jump\t// in\n    tag_107:\n        /* \"#utility.yul\":1559:1698   */\n      swap3\n      swap2\n      pop\n      pop\n      jump\t// out\n        /* \"#utility.yul\":1704:2033   */\n    tag_20:\n        /* \"#utility.yul\":1763:1769   */\n      0x00\n        /* \"#utility.yul\":1812:1814   */\n      0x20\n        /* \"#utility.yul\":1800:1809   */\n      dup3\n        /* \"#utility.yul\":1791:1798   */\n      dup5\n        /* \"#utility.yul\":1787:1810   */\n      sub\n        /* \"#utility.yul\":1783:1815   */\n      slt\n        /* \"#utility.yul\":1780:1899   */\n      iszero\n      tag_109\n      jumpi\n        /* \"#utility.yul\":1818:1897   */\n      tag_110\n      tag_77\n      jump\t// in\n    tag_110:\n        /* \"#utility.yul\":1780:1899   */\n    tag_109:\n        /* \"#utility.yul\":1938:1939   */\n      0x00\n        /* \"#utility.yul\":1963:2016   */\n      tag_111\n        /* \"#utility.yul\":2008:2015   */\n      dup5\n        /* \"#utility.yul\":1999:2005   */\n      dup3\n        /* \"#utility.yul\":1988:1997   */\n      dup6\n        /* \"#utility.yul\":1984:2006   */\n      add\n        /* \"#utility.yul\":1963:2016   */\n      tag_81\n      jump\t// in\n    tag_111:\n        /* \"#utility.yul\":1953:2016   */\n      swap2\n      pop\n        /* \"#utility.yul\":1909:2026   */\n      pop\n        /* \"#utility.yul\":1704:2033   */\n      swap3\n      swap2\n      pop\n      pop\n      jump\t// out\n        /* \"#utility.yul\":2039:2152   */\n    tag_82:\n        /* \"#utility.yul\":2120:2121   */\n      0x02\n        /* \"#utility.yul\":2113:2118   */\n      dup2\n        /* \"#utility.yul\":2110:2122   */\n      lt\n        /* \"#utility.yul\":2100:2146   */\n      tag_113\n      jumpi\n        /* \"#utility.yul\":2126:2144   */\n      tag_114\n      tag_45\n      jump\t// in\n    tag_114:\n        /* \"#utility.yul\":2100:2146   */\n    tag_113:\n        /* \"#utility.yul\":2039:2152   */\n      pop\n      jump\t// out\n        /* \"#utility.yul\":2158:2285   */\n    tag_83:\n        /* \"#utility.yul\":2203:2210   */\n      0x00\n        /* \"#utility.yul\":2232:2237   */\n      dup2\n        /* \"#utility.yul\":2221:2237   */\n      swap1\n      pop\n        /* \"#utility.yul\":2238:2279   */\n      tag_116\n        /* \"#utility.yul\":2273:2278   */\n      dup3\n        /* \"#utility.yul\":2238:2279   */\n      tag_82\n      jump\t// in\n    tag_116:\n        /* \"#utility.yul\":2158:2285   */\n      swap2\n      swap1\n      pop\n      jump\t// out\n        /* \"#utility.yul\":2291:2418   */\n    tag_84:\n        /* \"#utility.yul\":2347:2356   */\n      0x00\n        /* \"#utility.yul\":2380:2412   */\n      tag_118\n        /* \"#utility.yul\":2406:2411   */\n      dup3\n        /* \"#utility.yul\":2380:2412   */\n      tag_83\n      jump\t// in\n    tag_118:\n        /* \"#utility.yul\":2367:2412   */\n      swap1\n      pop\n        /* \"#utility.yul\":2291:2418   */\n      swap2\n      swap1\n      pop\n      jump\t// out\n        /* \"#utility.yul\":2424:2567   */\n    tag_85:\n        /* \"#utility.yul\":2517:2560   */\n      tag_120\n        /* \"#utility.yul\":2554:2559   */\n      dup2\n        /* \"#utility.yul\":2517:2560   */\n      tag_84\n      jump\t// in\n    tag_120:\n        /* \"#utility.yul\":2512:2515   */\n      dup3\n        /* \"#utility.yul\":2505:2561   */\n      mstore\n        /* \"#utility.yul\":2424:2567   */\n      pop\n      pop\n      jump\t// out\n        /* \"#utility.yul\":2573:2807   */\n    tag_36:\n        /* \"#utility.yul\":2672:2676   */\n      0x00\n        /* \"#utility.yul\":2710:2712   */\n      0x20\n        /* \"#utility.yul\":2699:2708   */\n      dup3\n        /* \"#utility.yul\":2695:2713   */\n      add\n        /* \"#utility.yul\":2687:2713   */\n      swap1\n      pop\n        /* \"#utility.yul\":2723:2800   */\n      tag_122\n        /* \"#utility.yul\":2797:2798   */\n      0x00\n        /* \"#utility.yul\":2786:2795   */\n      dup4\n        /* \"#utility.yul\":2782:2799   */\n      add\n        /* \"#utility.yul\":2773:2779   */\n      dup5\n        /* \"#utility.yul\":2723:2800   */\n      tag_85\n      jump\t// in\n    tag_122:\n        /* \"#utility.yul\":2573:2807   */\n      swap3\n      swap2\n      pop\n      pop\n      jump\t// out\n\n    auxdata: 0xa2646970667358221220aee0441624e89c66b9089c9f021a044fb04f385c8d735d0c317f599a48e2b6c864736f6c634300080d0033\n}\n",
				"bytecode": {
					"linkReferences": {},
					"object": "608060405260008060016101000a81548160ff0219169083600381111561002957610028610040565b5b021790555034801561003a57600080fd5b5061006f565b7f4e487b7100000000000000000000000000000000000000000000000000000000600052602160045260246000fd5b61049a8061007e6000396000f3fe608060405234801561001057600080fd5b506004361061009e5760003560e01c8063902a641b11610066578063902a641b1461010d578063943fad7f14610117578063b46e8d1a14610121578063daf4343f1461013f578063e7260f9a146101495761009e565b80631b92fd22146100a35780632b38329b146100c15780633e5f5fa8146100dd578063862b7129146100f95780638a60839f14610103575b600080fd5b6100ab610153565b6040516100b8919061037e565b60405180910390f35b6100db60048036038101906100d691906103d4565b610169565b005b6100f760048036038101906100f291906103d4565b6101a7565b005b6101016101e6565b005b61010b610212565b005b61011561023f565b005b61011f61026b565b005b610129610298565b6040516101369190610449565b60405180910390f35b6101476102ae565b005b6101516102db565b005b60008060019054906101000a900460ff16905090565b80600181111561017c5761017b610307565b5b6000806101000a81548160ff0219169083600181111561019f5761019e610307565b5b021790555050565b8060038111156101ba576101b9610307565b5b600060016101000a81548160ff021916908360038111156101de576101dd610307565b5b021790555050565b60016000806101000a81548160ff0219169083600181111561020b5761020a610307565b5b0217905550565b6002600060016101000a81548160ff0219169083600381111561023857610237610307565b5b0217905550565b60008060006101000a81548160ff0219169083600181111561026457610263610307565b5b0217905550565b6003600060016101000a81548160ff0219169083600381111561029157610290610307565b5b0217905550565b60008060009054906101000a900460ff16905090565b6001600060016101000a81548160ff021916908360038111156102d4576102d3610307565b5b0217905550565b60008060016101000a81548160ff02191690836003811115610300576102ff610307565b5b0217905550565b7f4e487b7100000000000000000000000000000000000000000000000000000000600052602160045260246000fd5b6004811061034757610346610307565b5b50565b600081905061035882610336565b919050565b60006103688261034a565b9050919050565b6103788161035d565b82525050565b6000602082019050610393600083018461036f565b92915050565b600080fd5b6000819050919050565b6103b18161039e565b81146103bc57600080fd5b50565b6000813590506103ce816103a8565b92915050565b6000602082840312156103ea576103e9610399565b5b60006103f8848285016103bf565b91505092915050565b6002811061041257610411610307565b5b50565b600081905061042382610401565b919050565b600061043382610415565b9050919050565b61044381610428565b82525050565b600060208201905061045e600083018461043a565b9291505056fea2646970667358221220aee0441624e89c66b9089c9f021a044fb04f385c8d735d0c317f599a48e2b6c864736f6c634300080d0033",
					"opcodes": "PUSH1 0x80 PUSH1 0x40 MSTORE PUSH1 0x0 DUP1 PUSH1 0x1 PUSH2 0x100 EXP DUP2 SLOAD DUP2 PUSH1 0xFF MUL NOT AND SWAP1 DUP4 PUSH1 0x3 DUP2 GT ISZERO PUSH2 0x29 JUMPI PUSH2 0x28 PUSH2 0x40 JUMP JUMPDEST JUMPDEST MUL OR SWAP1 SSTORE POP CALLVALUE DUP1 ISZERO PUSH2 0x3A JUMPI PUSH1 0x0 DUP1 REVERT JUMPDEST POP PUSH2 0x6F JUMP JUMPDEST PUSH32 0x4E487B7100000000000000000000000000000000000000000000000000000000 PUSH1 0x0 MSTORE PUSH1 0x21 PUSH1 0x4 MSTORE PUSH1 0x24 PUSH1 0x0 REVERT JUMPDEST PUSH2 0x49A DUP1 PUSH2 0x7E PUSH1 0x0 CODECOPY PUSH1 0x0 RETURN INVALID PUSH1 0x80 PUSH1 0x40 MSTORE CALLVALUE DUP1 ISZERO PUSH2 0x10 JUMPI PUSH1 0x0 DUP1 REVERT JUMPDEST POP PUSH1 0x4 CALLDATASIZE LT PUSH2 0x9E JUMPI PUSH1 0x0 CALLDATALOAD PUSH1 0xE0 SHR DUP1 PUSH4 0x902A641B GT PUSH2 0x66 JUMPI DUP1 PUSH4 0x902A641B EQ PUSH2 0x10D JUMPI DUP1 PUSH4 0x943FAD7F EQ PUSH2 0x117 JUMPI DUP1 PUSH4 0xB46E8D1A EQ PUSH2 0x121 JUMPI DUP1 PUSH4 0xDAF4343F EQ PUSH2 0x13F JUMPI DUP1 PUSH4 0xE7260F9A EQ PUSH2 0x149 JUMPI PUSH2 0x9E JUMP JUMPDEST DUP1 PUSH4 0x1B92FD22 EQ PUSH2 0xA3 JUMPI DUP1 PUSH4 0x2B38329B EQ PUSH2 0xC1 JUMPI DUP1 PUSH4 0x3E5F5FA8 EQ PUSH2 0xDD JUMPI DUP1 PUSH4 0x862B7129 EQ PUSH2 0xF9 JUMPI DUP1 PUSH4 0x8A60839F EQ PUSH2 0x103 JUMPI JUMPDEST PUSH1 0x0 DUP1 REVERT JUMPDEST PUSH2 0xAB PUSH2 0x153 JUMP JUMPDEST PUSH1 0x40 MLOAD PUSH2 0xB8 SWAP2 SWAP1 PUSH2 0x37E JUMP JUMPDEST PUSH1 0x40 MLOAD DUP1 SWAP2 SUB SWAP1 RETURN JUMPDEST PUSH2 0xDB PUSH1 0x4 DUP1 CALLDATASIZE SUB DUP2 ADD SWAP1 PUSH2 0xD6 SWAP2 SWAP1 PUSH2 0x3D4 JUMP JUMPDEST PUSH2 0x169 JUMP JUMPDEST STOP JUMPDEST PUSH2 0xF7 PUSH1 0x4 DUP1 CALLDATASIZE SUB DUP2 ADD SWAP1 PUSH2 0xF2 SWAP2 SWAP1 PUSH2 0x3D4 JUMP JUMPDEST PUSH2 0x1A7 JUMP JUMPDEST STOP JUMPDEST PUSH2 0x101 PUSH2 0x1E6 JUMP JUMPDEST STOP JUMPDEST PUSH2 0x10B PUSH2 0x212 JUMP JUMPDEST STOP JUMPDEST PUSH2 0x115 PUSH2 0x23F JUMP JUMPDEST STOP JUMPDEST PUSH2 0x11F PUSH2 0x26B JUMP JUMPDEST STOP JUMPDEST PUSH2 0x129 PUSH2 0x298 JUMP JUMPDEST PUSH1 0x40 MLOAD PUSH2 0x136 SWAP2 SWAP1 PUSH2 0x449 JUMP JUMPDEST PUSH1 0x40 MLOAD DUP1 SWAP2 SUB SWAP1 RETURN JUMPDEST PUSH2 0x147 PUSH2 0x2AE JUMP JUMPDEST STOP JUMPDEST PUSH2 0x151 PUSH2 0x2DB JUMP JUMPDEST STOP JUMPDEST PUSH1 0x0 DUP1 PUSH1 0x1 SWAP1 SLOAD SWAP1 PUSH2 0x100 EXP SWAP1 DIV PUSH1 0xFF AND SWAP1 POP SWAP1 JUMP JUMPDEST DUP1 PUSH1 0x1 DUP2 GT ISZERO PUSH2 0x17C JUMPI PUSH2 0x17B PUSH2 0x307 JUMP JUMPDEST JUMPDEST PUSH1 0x0 DUP1 PUSH2 0x100 EXP DUP2 SLOAD DUP2 PUSH1 0xFF MUL NOT AND SWAP1 DUP4 PUSH1 0x1 DUP2 GT ISZERO PUSH2 0x19F JUMPI PUSH2 0x19E PUSH2 0x307 JUMP JUMPDEST JUMPDEST MUL OR SWAP1 SSTORE POP POP JUMP JUMPDEST DUP1 PUSH1 0x3 DUP2 GT ISZERO PUSH2 0x1BA JUMPI PUSH2 0x1B9 PUSH2 0x307 JUMP JUMPDEST JUMPDEST PUSH1 0x0 PUSH1 0x1 PUSH2 0x100 EXP DUP2 SLOAD DUP2 PUSH1 0xFF MUL NOT AND SWAP1 DUP4 PUSH1 0x3 DUP2 GT ISZERO PUSH2 0x1DE JUMPI PUSH2 0x1DD PUSH2 0x307 JUMP JUMPDEST JUMPDEST MUL OR SWAP1 SSTORE POP POP JUMP JUMPDEST PUSH1 0x1 PUSH1 0x0 DUP1 PUSH2 0x100 EXP DUP2 SLOAD DUP2 PUSH1 0xFF MUL NOT AND SWAP1 DUP4 PUSH1 0x1 DUP2 GT ISZERO PUSH2 0x20B JUMPI PUSH2 0x20A PUSH2 0x307 JUMP JUMPDEST JUMPDEST MUL OR SWAP1 SSTORE POP JUMP JUMPDEST PUSH1 0x2 PUSH1 0x0 PUSH1 0x1 PUSH2 0x100 EXP DUP2 SLOAD DUP2 PUSH1 0xFF MUL NOT AND SWAP1 DUP4 PUSH1 0x3 DUP2 GT ISZERO PUSH2 0x238 JUMPI PUSH2 0x237 PUSH2 0x307 JUMP JUMPDEST JUMPDEST MUL OR SWAP1 SSTORE POP JUMP JUMPDEST PUSH1 0x0 DUP1 PUSH1 0x0 PUSH2 0x100 EXP DUP2 SLOAD DUP2 PUSH1 0xFF MUL NOT AND SWAP1 DUP4 PUSH1 0x1 DUP2 GT ISZERO PUSH2 0x264 JUMPI PUSH2 0x263 PUSH2 0x307 JUMP JUMPDEST JUMPDEST MUL OR SWAP1 SSTORE POP JUMP JUMPDEST PUSH1 0x3 PUSH1 0x0 PUSH1 0x1 PUSH2 0x100 EXP DUP2 SLOAD DUP2 PUSH1 0xFF MUL NOT AND SWAP1 DUP4 PUSH1 0x3 DUP2 GT ISZERO PUSH2 0x291 JUMPI PUSH2 0x290 PUSH2 0x307 JUMP JUMPDEST JUMPDEST MUL OR SWAP1 SSTORE POP JUMP JUMPDEST PUSH1 0x0 DUP1 PUSH1 0x0 SWAP1 SLOAD SWAP1 PUSH2 0x100 EXP SWAP1 DIV PUSH1 0xFF AND SWAP1 POP SWAP1 JUMP JUMPDEST PUSH1 0x1 PUSH1 0x0 PUSH1 0x1 PUSH2 0x100 EXP DUP2 SLOAD DUP2 PUSH1 0xFF MUL NOT AND SWAP1 DUP4 PUSH1 0x3 DUP2 GT ISZERO PUSH2 0x2D4 JUMPI PUSH2 0x2D3 PUSH2 0x307 JUMP JUMPDEST JUMPDEST MUL OR SWAP1 SSTORE POP JUMP JUMPDEST PUSH1 0x0 DUP1 PUSH1 0x1 PUSH2 0x100 EXP DUP2 SLOAD DUP2 PUSH1 0xFF MUL NOT AND SWAP1 DUP4 PUSH1 0x3 DUP2 GT ISZERO PUSH2 0x300 JUMPI PUSH2 0x2FF PUSH2 0x307 JUMP JUMPDEST JUMPDEST MUL OR SWAP1 SSTORE POP JUMP JUMPDEST PUSH32 0x4E487B7100000000000000000000000000000000000000000000000000000000 PUSH1 0x0 MSTORE PUSH1 0x21 PUSH1 0x4 MSTORE PUSH1 0x24 PUSH1 0x0 REVERT JUMPDEST PUSH1 0x4 DUP2 LT PUSH2 0x347 JUMPI PUSH2 0x346 PUSH2 0x307 JUMP JUMPDEST JUMPDEST POP JUMP JUMPDEST PUSH1 0x0 DUP2 SWAP1 POP PUSH2 0x358 DUP3 PUSH2 0x336 JUMP JUMPDEST SWAP2 SWAP1 POP JUMP JUMPDEST PUSH1 0x0 PUSH2 0x368 DUP3 PUSH2 0x34A JUMP JUMPDEST SWAP1 POP SWAP2 SWAP1 POP JUMP JUMPDEST PUSH2 0x378 DUP2 PUSH2 0x35D JUMP JUMPDEST DUP3 MSTORE POP POP JUMP JUMPDEST PUSH1 0x0 PUSH1 0x20 DUP3 ADD SWAP1 POP PUSH2 0x393 PUSH1 0x0 DUP4 ADD DUP5 PUSH2 0x36F JUMP JUMPDEST SWAP3 SWAP2 POP POP JUMP JUMPDEST PUSH1 0x0 DUP1 REVERT JUMPDEST PUSH1 0x0 DUP2 SWAP1 POP SWAP2 SWAP1 POP JUMP JUMPDEST PUSH2 0x3B1 DUP2 PUSH2 0x39E JUMP JUMPDEST DUP2 EQ PUSH2 0x3BC JUMPI PUSH1 0x0 DUP1 REVERT JUMPDEST POP JUMP JUMPDEST PUSH1 0x0 DUP2 CALLDATALOAD SWAP1 POP PUSH2 0x3CE DUP2 PUSH2 0x3A8 JUMP JUMPDEST SWAP3 SWAP2 POP POP JUMP JUMPDEST PUSH1 0x0 PUSH1 0x20 DUP3 DUP5 SUB SLT ISZERO PUSH2 0x3EA JUMPI PUSH2 0x3E9 PUSH2 0x399 JUMP JUMPDEST JUMPDEST PUSH1 0x0 PUSH2 0x3F8 DUP5 DUP3 DUP6 ADD PUSH2 0x3BF JUMP JUMPDEST SWAP2 POP POP SWAP3 SWAP2 POP POP JUMP JUMPDEST PUSH1 0x2 DUP2 LT PUSH2 0x412 JUMPI PUSH2 0x411 PUSH2 0x307 JUMP JUMPDEST JUMPDEST POP JUMP JUMPDEST PUSH1 0x0 DUP2 SWAP1 POP PUSH2 0x423 DUP3 PUSH2 0x401 JUMP JUMPDEST SWAP2 SWAP1 POP JUMP JUMPDEST PUSH1 0x0 PUSH2 0x433 DUP3 PUSH2 0x415 JUMP JUMPDEST SWAP1 POP SWAP2 SWAP1 POP JUMP JUMPDEST PUSH2 0x443 DUP2 PUSH2 0x428 JUMP JUMPDEST DUP3 MSTORE POP POP JUMP JUMPDEST PUSH1 0x0 PUSH1 0x20 DUP3 ADD SWAP1 POP PUSH2 0x45E PUSH1 0x0 DUP4 ADD DUP5 PUSH2 0x43A JUMP JUMPDEST SWAP3 SWAP2 POP POP JUMP INVALID LOG2 PUSH5 0x6970667358 0x22 SLT KECCAK256 0xAE 0xE0 DIFFICULTY AND 0x24 0xE8 SWAP13 PUSH7 0xB9089C9F021A04 0x4F 0xB0 0x4F CODESIZE 0x5C DUP14 PUSH20 0x5D0C317F599A48E2B6C864736F6C634300080D00 CALLER "
				},
				"gasEstimates": {
					"creation": {
						"codeDepositCost": "235600",
						"executionCost": "24624",
						"totalCost": "260224"
					},
					"external": {
						"Direccion()": "2619",
						"Estado()": "2612",
						"abajo()": "24547",
						"apagar()": "24498",
						"arriba()": "24569",
						"derecha()": "24570",
						"escender()": "24431",
						"fijar_direccion(uint256)": "24814",
						"fijar_estado(uint256)": "24742",
						"izquierda()": "24503"
					}
				},
				"methodIdentifiers": {
					"Direccion()": "1b92fd22",
					"Estado()": "b46e8d1a",
					"abajo()": "daf4343f",
					"apagar()": "862b7129",
					"arriba()": "e7260f9a",
					"derecha()": "8a60839f",
					"escender()": "902a641b",
					"fijar_direccion(uint256)": "3e5f5fa8",
					"fijar_estado(uint256)": "2b38329b",
					"izquierda()": "943fad7f"
				}
			},
			"storageLayout": {
				"storage": [
					{
						"astId": 7,
						"contract": "Tipos de variables y operadores/enums.sol:Ejemplos_enumeraciones",
						"label": "state",
						"offset": 0,
						"slot": "0",
						"type": "t_enum(estado)4"
					},
					{
						"astId": 56,
						"contract": "Tipos de variables y operadores/enums.sol:Ejemplos_enumeraciones",
						"label": "direccion",
						"offset": 1,
						"slot": "0",
						"type": "t_enum(direcciones)51"
					}
				],
				"types": {
					"t_enum(direcciones)51": {
						"encoding": "inplace",
						"label": "enum Ejemplos_enumeraciones.direcciones",
						"numberOfBytes": "1"
					},
					"t_enum(estado)4": {
						"encoding": "inplace",
						"label": "enum Ejemplos_enumeraciones.estado",
						"numberOfBytes": "1"
					}
				}
			},
			"userdoc": {
				"kind": "user",
				"methods": {},
				"version": 1
			}
		}
	}
}