{
	"Tipos de variables y operadores/mas variables.sol": {
		"mas_variables": {
			"abi": [
				{
					"inputs": [],
					"name": "cadena_vacia",
					"outputs": [
						{
							"internalType": "string",
							"name": "",
							"type": "string"
						}
					],
					"stateMutability": "view",
					"type": "function"
				},
				{
					"inputs": [],
					"name": "direccion_local_1",
					"outputs": [
						{
							"internalType": "address",
							"name": "",
							"type": "address"
						}
					],
					"stateMutability": "view",
					"type": "function"
				},
				{
					"inputs": [],
					"name": "direccion_local_2",
					"outputs": [
						{
							"internalType": "address",
							"name": "",
							"type": "address"
						}
					],
					"stateMutability": "view",
					"type": "function"
				},
				{
					"inputs": [],
					"name": "ejemploBytes4",
					"outputs": [],
					"stateMutability": "nonpayable",
					"type": "function"
				},
				{
					"inputs": [],
					"name": "flag_false",
					"outputs": [
						{
							"internalType": "bool",
							"name": "",
							"type": "bool"
						}
					],
					"stateMutability": "view",
					"type": "function"
				},
				{
					"inputs": [],
					"name": "flag_true",
					"outputs": [
						{
							"internalType": "bool",
							"name": "",
							"type": "bool"
						}
					],
					"stateMutability": "view",
					"type": "function"
				},
				{
					"inputs": [],
					"name": "hash",
					"outputs": [
						{
							"internalType": "bytes32",
							"name": "",
							"type": "bytes32"
						}
					],
					"stateMutability": "view",
					"type": "function"
				},
				{
					"inputs": [],
					"name": "nombre",
					"outputs": [
						{
							"internalType": "string",
							"name": "",
							"type": "string"
						}
					],
					"stateMutability": "view",
					"type": "function"
				},
				{
					"inputs": [],
					"name": "saludo",
					"outputs": [
						{
							"internalType": "string",
							"name": "",
							"type": "string"
						}
					],
					"stateMutability": "view",
					"type": "function"
				}
			],
			"devdoc": {
				"methods": {}
			},
			"evm": {
				"assembly": "    /* \"Tipos de variables y operadores/mas variables.sol\":72:910  contract mas_variables{\r... */\n  mstore(0x40, 0x80)\n    /* \"Tipos de variables y operadores/mas variables.sol\":158:198  string public saludo = \"hola como estas\" */\n  mload(0x40)\n  dup1\n  0x40\n  add\n  0x40\n  mstore\n  dup1\n  0x0f\n  dup2\n  mstore\n  0x20\n  add\n  0x686f6c6120636f6d6f2065737461730000000000000000000000000000000000\n  dup2\n  mstore\n  pop\n  0x01\n  swap1\n  dup1\n  mload\n  swap1\n  0x20\n  add\n  swap1\n  tag_1\n  swap3\n  swap2\n  swap1\n  tag_2\n  jump\t// in\ntag_1:\n  pop\n    /* \"Tipos de variables y operadores/mas variables.sol\":205:236  string public cadena_vacia = \"\" */\n  mload(0x40)\n  dup1\n  0x20\n  add\n  0x40\n  mstore\n  dup1\n  0x00\n  dup2\n  mstore\n  pop\n  0x02\n  swap1\n  dup1\n  mload\n  swap1\n  0x20\n  add\n  swap1\n  tag_3\n  swap3\n  swap2\n  swap1\n  tag_2\n  jump\t// in\ntag_3:\n  pop\n    /* \"Tipos de variables y operadores/mas variables.sol\":243:275  string public nombre = \"Luciano\" */\n  mload(0x40)\n  dup1\n  0x40\n  add\n  0x40\n  mstore\n  dup1\n  0x07\n  dup2\n  mstore\n  0x20\n  add\n  0x4c756369616e6f00000000000000000000000000000000000000000000000000\n  dup2\n  mstore\n  pop\n  0x03\n  swap1\n  dup1\n  mload\n  swap1\n  0x20\n  add\n  swap1\n  tag_4\n  swap3\n  swap2\n  swap1\n  tag_2\n  jump\t// in\ntag_4:\n  pop\n    /* \"Tipos de variables y operadores/mas variables.sol\":366:370  true */\n  0x01\n    /* \"Tipos de variables y operadores/mas variables.sol\":342:370  bool public flag_true = true */\n  0x04\n  exp(0x0100, 0x01)\n  dup2\n  sload\n  dup2\n  0xff\n  mul\n  not\n  and\n  swap1\n  dup4\n  iszero\n  iszero\n  mul\n  or\n  swap1\n  sstore\n  pop\n    /* \"Tipos de variables y operadores/mas variables.sol\":402:407  false */\n  0x00\n    /* \"Tipos de variables y operadores/mas variables.sol\":377:407  bool public flag_false = false */\n  0x04\n  exp(0x0100, 0x02)\n  dup2\n  sload\n  dup2\n  0xff\n  mul\n  not\n  and\n  swap1\n  dup4\n  iszero\n  iszero\n  mul\n  or\n  swap1\n  sstore\n  pop\n    /* \"Tipos de variables y operadores/mas variables.sol\":553:559  nombre */\n  0x03\n    /* \"Tipos de variables y operadores/mas variables.sol\":536:560  abi.encodePacked(nombre) */\n  add(0x20, mload(0x40))\n  tag_5\n  swap2\n  swap1\n  jump(tag_6)\ntag_5:\n  mload(0x40)\n    /* \"--CODEGEN--\":49:53   */\n  0x20\n    /* \"--CODEGEN--\":39:46   */\n  dup2\n    /* \"--CODEGEN--\":30:37   */\n  dup4\n    /* \"--CODEGEN--\":26:47   */\n  sub\n    /* \"--CODEGEN--\":22:54   */\n  sub\n    /* \"--CODEGEN--\":13:20   */\n  dup2\n    /* \"--CODEGEN--\":6:55   */\n  mstore\n    /* \"Tipos de variables y operadores/mas variables.sol\":536:560  abi.encodePacked(nombre) */\n  swap1\n  0x40\n  mstore\n    /* \"Tipos de variables y operadores/mas variables.sol\":526:561  keccak256(abi.encodePacked(nombre)) */\n  dup1\n  mload\n  swap1\n  0x20\n  add\n  keccak256\n    /* \"Tipos de variables y operadores/mas variables.sol\":504:561  bytes32 public hash = keccak256(abi.encodePacked(nombre)) */\n  0x07\n  sstore\n    /* \"Tipos de variables y operadores/mas variables.sol\":774:816  0x5B38Da6a701c568545dCfcB03FcB875f56beddC4 */\n  0x5b38da6a701c568545dcfcb03fcb875f56beddc4\n    /* \"Tipos de variables y operadores/mas variables.sol\":739:816  address public direccion_local_1 = 0x5B38Da6a701c568545dCfcB03FcB875f56beddC4 */\n  0x09\n  exp(0x0100, 0x00)\n  dup2\n  sload\n  dup2\n  0xffffffffffffffffffffffffffffffffffffffff\n  mul\n  not\n  and\n  swap1\n  dup4\n  0xffffffffffffffffffffffffffffffffffffffff\n  and\n  mul\n  or\n  swap1\n  sstore\n  pop\n    /* \"Tipos de variables y operadores/mas variables.sol\":858:900  0xAb8483F64d9C6d1EcF9b849Ae677dD3315835cb2 */\n  0xab8483f64d9c6d1ecf9b849ae677dd3315835cb2\n    /* \"Tipos de variables y operadores/mas variables.sol\":823:900  address public direccion_local_2 = 0xAb8483F64d9C6d1EcF9b849Ae677dD3315835cb2 */\n  0x0a\n  exp(0x0100, 0x00)\n  dup2\n  sload\n  dup2\n  0xffffffffffffffffffffffffffffffffffffffff\n  mul\n  not\n  and\n  swap1\n  dup4\n  0xffffffffffffffffffffffffffffffffffffffff\n  and\n  mul\n  or\n  swap1\n  sstore\n  pop\n    /* \"Tipos de variables y operadores/mas variables.sol\":72:910  contract mas_variables{\r... */\n  callvalue\n    /* \"--CODEGEN--\":5:14   */\n  dup1\n    /* \"--CODEGEN--\":2:4   */\n  iszero\n  tag_7\n  jumpi\n    /* \"--CODEGEN--\":27:28   */\n  0x00\n    /* \"--CODEGEN--\":24:25   */\n  dup1\n    /* \"--CODEGEN--\":17:29   */\n  revert\n    /* \"--CODEGEN--\":2:4   */\ntag_7:\n    /* \"Tipos de variables y operadores/mas variables.sol\":72:910  contract mas_variables{\r... */\n  pop\n  jump(tag_8)\ntag_2:\n  dup3\n  dup1\n  sload\n  0x01\n  dup2\n  0x01\n  and\n  iszero\n  0x0100\n  mul\n  sub\n  and\n  0x02\n  swap1\n  div\n  swap1\n  0x00\n  mstore\n  keccak256(0x00, 0x20)\n  swap1\n  0x1f\n  add\n  0x20\n  swap1\n  div\n  dup2\n  add\n  swap3\n  dup3\n  0x1f\n  lt\n  tag_10\n  jumpi\n  dup1\n  mload\n  not(0xff)\n  and\n  dup4\n  dup1\n  add\n  or\n  dup6\n  sstore\n  jump(tag_9)\ntag_10:\n  dup3\n  dup1\n  add\n  0x01\n  add\n  dup6\n  sstore\n  dup3\n  iszero\n  tag_9\n  jumpi\n  swap2\n  dup3\n  add\ntag_11:\n  dup3\n  dup2\n  gt\n  iszero\n  tag_12\n  jumpi\n  dup3\n  mload\n  dup3\n  sstore\n  swap2\n  0x20\n  add\n  swap2\n  swap1\n  0x01\n  add\n  swap1\n  jump(tag_11)\ntag_12:\ntag_9:\n  pop\n  swap1\n  pop\n  tag_13\n  swap2\n  swap1\n  tag_14\n  jump\t// in\ntag_13:\n  pop\n  swap1\n  jump\t// out\ntag_14:\n  tag_15\n  swap2\n  swap1\ntag_16:\n  dup1\n  dup3\n  gt\n  iszero\n  tag_17\n  jumpi\n  0x00\n  dup2\n  0x00\n  swap1\n  sstore\n  pop\n  0x01\n  add\n  jump(tag_16)\ntag_17:\n  pop\n  swap1\n  jump\ntag_15:\n  swap1\n  jump\t// out\n    /* \"--CODEGEN--\":30:914   */\ntag_19:\n  0x00\n    /* \"--CODEGEN--\":167:172   */\n  dup2\n    /* \"--CODEGEN--\":161:173   */\n  sload\n    /* \"--CODEGEN--\":201:202   */\n  0x01\n    /* \"--CODEGEN--\":190:199   */\n  dup2\n    /* \"--CODEGEN--\":186:203   */\n  and\n    /* \"--CODEGEN--\":214:215   */\n  0x00\n    /* \"--CODEGEN--\":209:477   */\n  dup2\n  eq\n  tag_22\n  jumpi\n    /* \"--CODEGEN--\":488:489   */\n  0x01\n    /* \"--CODEGEN--\":483:908   */\n  dup2\n  eq\n  tag_23\n  jumpi\n    /* \"--CODEGEN--\":179:908   */\n  jump(tag_21)\n    /* \"--CODEGEN--\":209:477   */\ntag_22:\n    /* \"--CODEGEN--\":287:291   */\n  0x7f\n    /* \"--CODEGEN--\":283:284   */\n  0x02\n    /* \"--CODEGEN--\":272:281   */\n  dup4\n    /* \"--CODEGEN--\":268:285   */\n  div\n    /* \"--CODEGEN--\":264:292   */\n  and\n    /* \"--CODEGEN--\":306:395   */\n  tag_24\n    /* \"--CODEGEN--\":388:394   */\n  dup2\n    /* \"--CODEGEN--\":383:386   */\n  dup8\n    /* \"--CODEGEN--\":306:395   */\n  jump(tag_25)\ntag_24:\n    /* \"--CODEGEN--\":299:395   */\n  swap6\n  pop\n    /* \"--CODEGEN--\":433:437   */\n  0xff\n    /* \"--CODEGEN--\":429:438   */\n  not\n    /* \"--CODEGEN--\":418:427   */\n  dup4\n    /* \"--CODEGEN--\":414:439   */\n  and\n    /* \"--CODEGEN--\":409:412   */\n  dup7\n    /* \"--CODEGEN--\":402:440   */\n  mstore\n    /* \"--CODEGEN--\":463:469   */\n  dup1\n    /* \"--CODEGEN--\":458:461   */\n  dup7\n    /* \"--CODEGEN--\":454:470   */\n  add\n    /* \"--CODEGEN--\":447:470   */\n  swap4\n  pop\n    /* \"--CODEGEN--\":216:477   */\n  pop\n    /* \"--CODEGEN--\":209:477   */\n  jump(tag_21)\n    /* \"--CODEGEN--\":483:908   */\ntag_23:\n    /* \"--CODEGEN--\":552:553   */\n  0x02\n    /* \"--CODEGEN--\":541:550   */\n  dup3\n    /* \"--CODEGEN--\":537:554   */\n  div\n    /* \"--CODEGEN--\":568:657   */\n  tag_26\n    /* \"--CODEGEN--\":650:656   */\n  dup2\n    /* \"--CODEGEN--\":645:648   */\n  dup8\n    /* \"--CODEGEN--\":568:657   */\n  jump(tag_25)\ntag_26:\n    /* \"--CODEGEN--\":561:657   */\n  swap6\n  pop\n    /* \"--CODEGEN--\":679:717   */\n  tag_27\n    /* \"--CODEGEN--\":711:716   */\n  dup6\n    /* \"--CODEGEN--\":679:717   */\n  jump(tag_28)\ntag_27:\n    /* \"--CODEGEN--\":733:734   */\n  0x00\n    /* \"--CODEGEN--\":741:871   */\ntag_29:\n    /* \"--CODEGEN--\":755:761   */\n  dup3\n    /* \"--CODEGEN--\":752:753   */\n  dup2\n    /* \"--CODEGEN--\":749:762   */\n  lt\n    /* \"--CODEGEN--\":741:871   */\n  iszero\n  tag_31\n  jumpi\n    /* \"--CODEGEN--\":820:827   */\n  dup2\n    /* \"--CODEGEN--\":814:828   */\n  sload\n    /* \"--CODEGEN--\":810:811   */\n  dup2\n    /* \"--CODEGEN--\":805:808   */\n  dup10\n    /* \"--CODEGEN--\":801:812   */\n  add\n    /* \"--CODEGEN--\":794:829   */\n  mstore\n    /* \"--CODEGEN--\":861:862   */\n  0x01\n    /* \"--CODEGEN--\":852:859   */\n  dup3\n    /* \"--CODEGEN--\":848:863   */\n  add\n    /* \"--CODEGEN--\":837:863   */\n  swap2\n  pop\n    /* \"--CODEGEN--\":777:781   */\n  0x20\n    /* \"--CODEGEN--\":774:775   */\n  dup2\n    /* \"--CODEGEN--\":770:782   */\n  add\n    /* \"--CODEGEN--\":765:782   */\n  swap1\n  pop\n    /* \"--CODEGEN--\":741:871   */\n  jump(tag_29)\ntag_31:\n    /* \"--CODEGEN--\":894:900   */\n  dup3\n    /* \"--CODEGEN--\":889:892   */\n  dup9\n    /* \"--CODEGEN--\":885:901   */\n  add\n    /* \"--CODEGEN--\":878:901   */\n  swap6\n  pop\n    /* \"--CODEGEN--\":490:908   */\n  pop\n  pop\n  pop\n    /* \"--CODEGEN--\":179:908   */\ntag_21:\n  pop\n    /* \"--CODEGEN--\":137:914   */\n  pop\n  swap3\n  swap2\n  pop\n  pop\n  jump\n    /* \"--CODEGEN--\":922:1182   */\ntag_6:\n  0x00\n    /* \"--CODEGEN--\":1065:1157   */\n  tag_33\n    /* \"--CODEGEN--\":1153:1156   */\n  dup3\n    /* \"--CODEGEN--\":1144:1150   */\n  dup5\n    /* \"--CODEGEN--\":1065:1157   */\n  jump(tag_19)\ntag_33:\n    /* \"--CODEGEN--\":1058:1157   */\n  swap2\n  pop\n    /* \"--CODEGEN--\":1174:1177   */\n  dup2\n    /* \"--CODEGEN--\":1167:1177   */\n  swap1\n  pop\n    /* \"--CODEGEN--\":1046:1182   */\n  swap3\n  swap2\n  pop\n  pop\n  jump\n    /* \"--CODEGEN--\":1189:1347   */\ntag_28:\n  0x00\n    /* \"--CODEGEN--\":1257:1260   */\n  dup2\n    /* \"--CODEGEN--\":1249:1260   */\n  swap1\n  pop\n    /* \"--CODEGEN--\":1294:1297   */\n  dup2\n    /* \"--CODEGEN--\":1291:1292   */\n  0x00\n    /* \"--CODEGEN--\":1284:1298   */\n  mstore\n    /* \"--CODEGEN--\":1326:1330   */\n  0x20\n    /* \"--CODEGEN--\":1323:1324   */\n  0x00\n    /* \"--CODEGEN--\":1313:1331   */\n  keccak256\n    /* \"--CODEGEN--\":1305:1331   */\n  swap1\n  pop\n    /* \"--CODEGEN--\":1243:1347   */\n  swap2\n  swap1\n  pop\n  jump\n    /* \"--CODEGEN--\":1355:1500   */\ntag_25:\n  0x00\n    /* \"--CODEGEN--\":1491:1494   */\n  dup2\n    /* \"--CODEGEN--\":1476:1494   */\n  swap1\n  pop\n    /* \"--CODEGEN--\":1469:1500   */\n  swap3\n  swap2\n  pop\n  pop\n  jump\n    /* \"Tipos de variables y operadores/mas variables.sol\":72:910  contract mas_variables{\r... */\ntag_8:\n  dataSize(sub_0)\n  dup1\n  dataOffset(sub_0)\n  0x00\n  codecopy\n  0x00\n  return\nstop\n\nsub_0: assembly {\n        /* \"Tipos de variables y operadores/mas variables.sol\":72:910  contract mas_variables{\r... */\n      mstore(0x40, 0x80)\n      callvalue\n        /* \"--CODEGEN--\":5:14   */\n      dup1\n        /* \"--CODEGEN--\":2:4   */\n      iszero\n      tag_1\n      jumpi\n        /* \"--CODEGEN--\":27:28   */\n      0x00\n        /* \"--CODEGEN--\":24:25   */\n      dup1\n        /* \"--CODEGEN--\":17:29   */\n      revert\n        /* \"--CODEGEN--\":2:4   */\n    tag_1:\n        /* \"Tipos de variables y operadores/mas variables.sol\":72:910  contract mas_variables{\r... */\n      pop\n      jumpi(tag_2, lt(calldatasize, 0x04))\n      shr(0xe0, calldataload(0x00))\n      dup1\n      0x4ea35958\n      gt\n      tag_12\n      jumpi\n      dup1\n      0x4ea35958\n      eq\n      tag_7\n      jumpi\n      dup1\n      0x5fe4c677\n      eq\n      tag_8\n      jumpi\n      dup1\n      0x8320422e\n      eq\n      tag_9\n      jumpi\n      dup1\n      0xabf1d361\n      eq\n      tag_10\n      jumpi\n      dup1\n      0xbc7b35b2\n      eq\n      tag_11\n      jumpi\n      jump(tag_2)\n    tag_12:\n      dup1\n      0x09bd5a60\n      eq\n      tag_3\n      jumpi\n      dup1\n      0x0a3a9d63\n      eq\n      tag_4\n      jumpi\n      dup1\n      0x193fc42c\n      eq\n      tag_5\n      jumpi\n      dup1\n      0x303c3a14\n      eq\n      tag_6\n      jumpi\n    tag_2:\n        /* \"--CODEGEN--\":12:13   */\n      0x00\n        /* \"--CODEGEN--\":9:10   */\n      dup1\n        /* \"--CODEGEN--\":2:14   */\n      revert\n        /* \"Tipos de variables y operadores/mas variables.sol\":504:561  bytes32 public hash = keccak256(abi.encodePacked(nombre)) */\n    tag_3:\n      tag_13\n      tag_14\n      jump\t// in\n    tag_13:\n      mload(0x40)\n      tag_15\n      swap2\n      swap1\n      jump(tag_16)\n    tag_15:\n      mload(0x40)\n      dup1\n      swap2\n      sub\n      swap1\n      return\n        /* \"Tipos de variables y operadores/mas variables.sol\":158:198  string public saludo = \"hola como estas\" */\n    tag_4:\n      tag_17\n      tag_18\n      jump\t// in\n    tag_17:\n      mload(0x40)\n      tag_19\n      swap2\n      swap1\n      jump(tag_20)\n    tag_19:\n      mload(0x40)\n      dup1\n      swap2\n      sub\n      swap1\n      return\n        /* \"Tipos de variables y operadores/mas variables.sol\":823:900  address public direccion_local_2 = 0xAb8483F64d9C6d1EcF9b849Ae677dD3315835cb2 */\n    tag_5:\n      tag_21\n      tag_22\n      jump\t// in\n    tag_21:\n      mload(0x40)\n      tag_23\n      swap2\n      swap1\n      jump(tag_24)\n    tag_23:\n      mload(0x40)\n      dup1\n      swap2\n      sub\n      swap1\n      return\n        /* \"Tipos de variables y operadores/mas variables.sol\":205:236  string public cadena_vacia = \"\" */\n    tag_6:\n      tag_25\n      tag_26\n      jump\t// in\n    tag_25:\n      mload(0x40)\n      tag_27\n      swap2\n      swap1\n      jump(tag_20)\n    tag_27:\n      mload(0x40)\n      dup1\n      swap2\n      sub\n      swap1\n      return\n        /* \"Tipos de variables y operadores/mas variables.sol\":342:370  bool public flag_true = true */\n    tag_7:\n      tag_28\n      tag_29\n      jump\t// in\n    tag_28:\n      mload(0x40)\n      tag_30\n      swap2\n      swap1\n      jump(tag_31)\n    tag_30:\n      mload(0x40)\n      dup1\n      swap2\n      sub\n      swap1\n      return\n        /* \"Tipos de variables y operadores/mas variables.sol\":377:407  bool public flag_false = false */\n    tag_8:\n      tag_32\n      tag_33\n      jump\t// in\n    tag_32:\n      mload(0x40)\n      tag_34\n      swap2\n      swap1\n      jump(tag_31)\n    tag_34:\n      mload(0x40)\n      dup1\n      swap2\n      sub\n      swap1\n      return\n        /* \"Tipos de variables y operadores/mas variables.sol\":597:670  function ejemploBytes4() public{\r... */\n    tag_9:\n      tag_35\n      tag_36\n      jump\t// in\n    tag_35:\n      stop\n        /* \"Tipos de variables y operadores/mas variables.sol\":739:816  address public direccion_local_1 = 0x5B38Da6a701c568545dCfcB03FcB875f56beddC4 */\n    tag_10:\n      tag_37\n      tag_38\n      jump\t// in\n    tag_37:\n      mload(0x40)\n      tag_39\n      swap2\n      swap1\n      jump(tag_24)\n    tag_39:\n      mload(0x40)\n      dup1\n      swap2\n      sub\n      swap1\n      return\n        /* \"Tipos de variables y operadores/mas variables.sol\":243:275  string public nombre = \"Luciano\" */\n    tag_11:\n      tag_40\n      tag_41\n      jump\t// in\n    tag_40:\n      mload(0x40)\n      tag_42\n      swap2\n      swap1\n      jump(tag_20)\n    tag_42:\n      mload(0x40)\n      dup1\n      swap2\n      sub\n      swap1\n      return\n        /* \"Tipos de variables y operadores/mas variables.sol\":504:561  bytes32 public hash = keccak256(abi.encodePacked(nombre)) */\n    tag_14:\n      sload(0x07)\n      dup2\n      jump\t// out\n        /* \"Tipos de variables y operadores/mas variables.sol\":158:198  string public saludo = \"hola como estas\" */\n    tag_18:\n      0x01\n      dup1\n      sload\n      0x01\n      dup2\n      0x01\n      and\n      iszero\n      0x0100\n      mul\n      sub\n      and\n      0x02\n      swap1\n      div\n      dup1\n      0x1f\n      add\n      0x20\n      dup1\n      swap2\n      div\n      mul\n      0x20\n      add\n      mload(0x40)\n      swap1\n      dup2\n      add\n      0x40\n      mstore\n      dup1\n      swap3\n      swap2\n      swap1\n      dup2\n      dup2\n      mstore\n      0x20\n      add\n      dup3\n      dup1\n      sload\n      0x01\n      dup2\n      0x01\n      and\n      iszero\n      0x0100\n      mul\n      sub\n      and\n      0x02\n      swap1\n      div\n      dup1\n      iszero\n      tag_43\n      jumpi\n      dup1\n      0x1f\n      lt\n      tag_44\n      jumpi\n      0x0100\n      dup1\n      dup4\n      sload\n      div\n      mul\n      dup4\n      mstore\n      swap2\n      0x20\n      add\n      swap2\n      jump(tag_43)\n    tag_44:\n      dup3\n      add\n      swap2\n      swap1\n      0x00\n      mstore\n      keccak256(0x00, 0x20)\n      swap1\n    tag_45:\n      dup2\n      sload\n      dup2\n      mstore\n      swap1\n      0x01\n      add\n      swap1\n      0x20\n      add\n      dup1\n      dup4\n      gt\n      tag_45\n      jumpi\n      dup3\n      swap1\n      sub\n      0x1f\n      and\n      dup3\n      add\n      swap2\n    tag_43:\n      pop\n      pop\n      pop\n      pop\n      pop\n      dup2\n      jump\t// out\n        /* \"Tipos de variables y operadores/mas variables.sol\":823:900  address public direccion_local_2 = 0xAb8483F64d9C6d1EcF9b849Ae677dD3315835cb2 */\n    tag_22:\n      0x0a\n      0x00\n      swap1\n      sload\n      swap1\n      0x0100\n      exp\n      swap1\n      div\n      0xffffffffffffffffffffffffffffffffffffffff\n      and\n      dup2\n      jump\t// out\n        /* \"Tipos de variables y operadores/mas variables.sol\":205:236  string public cadena_vacia = \"\" */\n    tag_26:\n      0x02\n      dup1\n      sload\n      0x01\n      dup2\n      0x01\n      and\n      iszero\n      0x0100\n      mul\n      sub\n      and\n      0x02\n      swap1\n      div\n      dup1\n      0x1f\n      add\n      0x20\n      dup1\n      swap2\n      div\n      mul\n      0x20\n      add\n      mload(0x40)\n      swap1\n      dup2\n      add\n      0x40\n      mstore\n      dup1\n      swap3\n      swap2\n      swap1\n      dup2\n      dup2\n      mstore\n      0x20\n      add\n      dup3\n      dup1\n      sload\n      0x01\n      dup2\n      0x01\n      and\n      iszero\n      0x0100\n      mul\n      sub\n      and\n      0x02\n      swap1\n      div\n      dup1\n      iszero\n      tag_46\n      jumpi\n      dup1\n      0x1f\n      lt\n      tag_47\n      jumpi\n      0x0100\n      dup1\n      dup4\n      sload\n      div\n      mul\n      dup4\n      mstore\n      swap2\n      0x20\n      add\n      swap2\n      jump(tag_46)\n    tag_47:\n      dup3\n      add\n      swap2\n      swap1\n      0x00\n      mstore\n      keccak256(0x00, 0x20)\n      swap1\n    tag_48:\n      dup2\n      sload\n      dup2\n      mstore\n      swap1\n      0x01\n      add\n      swap1\n      0x20\n      add\n      dup1\n      dup4\n      gt\n      tag_48\n      jumpi\n      dup3\n      swap1\n      sub\n      0x1f\n      and\n      dup3\n      add\n      swap2\n    tag_46:\n      pop\n      pop\n      pop\n      pop\n      pop\n      dup2\n      jump\t// out\n        /* \"Tipos de variables y operadores/mas variables.sol\":342:370  bool public flag_true = true */\n    tag_29:\n      0x04\n      0x01\n      swap1\n      sload\n      swap1\n      0x0100\n      exp\n      swap1\n      div\n      0xff\n      and\n      dup2\n      jump\t// out\n        /* \"Tipos de variables y operadores/mas variables.sol\":377:407  bool public flag_false = false */\n    tag_33:\n      0x04\n      0x02\n      swap1\n      sload\n      swap1\n      0x0100\n      exp\n      swap1\n      div\n      0xff\n      and\n      dup2\n      jump\t// out\n        /* \"Tipos de variables y operadores/mas variables.sol\":597:670  function ejemploBytes4() public{\r... */\n    tag_36:\n        /* \"Tipos de variables y operadores/mas variables.sol\":655:662  msg.sig */\n      and(0xffffffff00000000000000000000000000000000000000000000000000000000, calldataload(0x00))\n        /* \"Tipos de variables y operadores/mas variables.sol\":639:652  identificador */\n      0x08\n      0x00\n        /* \"Tipos de variables y operadores/mas variables.sol\":639:662  identificador = msg.sig */\n      0x0100\n      exp\n      dup2\n      sload\n      dup2\n      0xffffffff\n      mul\n      not\n      and\n      swap1\n      dup4\n      0xe0\n      shr\n      mul\n      or\n      swap1\n      sstore\n      pop\n        /* \"Tipos de variables y operadores/mas variables.sol\":597:670  function ejemploBytes4() public{\r... */\n      jump\t// out\n        /* \"Tipos de variables y operadores/mas variables.sol\":739:816  address public direccion_local_1 = 0x5B38Da6a701c568545dCfcB03FcB875f56beddC4 */\n    tag_38:\n      0x09\n      0x00\n      swap1\n      sload\n      swap1\n      0x0100\n      exp\n      swap1\n      div\n      0xffffffffffffffffffffffffffffffffffffffff\n      and\n      dup2\n      jump\t// out\n        /* \"Tipos de variables y operadores/mas variables.sol\":243:275  string public nombre = \"Luciano\" */\n    tag_41:\n      0x03\n      dup1\n      sload\n      0x01\n      dup2\n      0x01\n      and\n      iszero\n      0x0100\n      mul\n      sub\n      and\n      0x02\n      swap1\n      div\n      dup1\n      0x1f\n      add\n      0x20\n      dup1\n      swap2\n      div\n      mul\n      0x20\n      add\n      mload(0x40)\n      swap1\n      dup2\n      add\n      0x40\n      mstore\n      dup1\n      swap3\n      swap2\n      swap1\n      dup2\n      dup2\n      mstore\n      0x20\n      add\n      dup3\n      dup1\n      sload\n      0x01\n      dup2\n      0x01\n      and\n      iszero\n      0x0100\n      mul\n      sub\n      and\n      0x02\n      swap1\n      div\n      dup1\n      iszero\n      tag_50\n      jumpi\n      dup1\n      0x1f\n      lt\n      tag_51\n      jumpi\n      0x0100\n      dup1\n      dup4\n      sload\n      div\n      mul\n      dup4\n      mstore\n      swap2\n      0x20\n      add\n      swap2\n      jump(tag_50)\n    tag_51:\n      dup3\n      add\n      swap2\n      swap1\n      0x00\n      mstore\n      keccak256(0x00, 0x20)\n      swap1\n    tag_52:\n      dup2\n      sload\n      dup2\n      mstore\n      swap1\n      0x01\n      add\n      swap1\n      0x20\n      add\n      dup1\n      dup4\n      gt\n      tag_52\n      jumpi\n      dup3\n      swap1\n      sub\n      0x1f\n      and\n      dup3\n      add\n      swap2\n    tag_50:\n      pop\n      pop\n      pop\n      pop\n      pop\n      dup2\n      jump\t// out\n        /* \"--CODEGEN--\":5:118   */\n    tag_54:\n        /* \"--CODEGEN--\":88:112   */\n      tag_56\n        /* \"--CODEGEN--\":106:111   */\n      dup2\n        /* \"--CODEGEN--\":88:112   */\n      jump(tag_57)\n    tag_56:\n        /* \"--CODEGEN--\":83:86   */\n      dup3\n        /* \"--CODEGEN--\":76:113   */\n      mstore\n        /* \"--CODEGEN--\":70:118   */\n      pop\n      pop\n      jump\n        /* \"--CODEGEN--\":125:229   */\n    tag_58:\n        /* \"--CODEGEN--\":202:223   */\n      tag_60\n        /* \"--CODEGEN--\":217:222   */\n      dup2\n        /* \"--CODEGEN--\":202:223   */\n      jump(tag_61)\n    tag_60:\n        /* \"--CODEGEN--\":197:200   */\n      dup3\n        /* \"--CODEGEN--\":190:224   */\n      mstore\n        /* \"--CODEGEN--\":184:229   */\n      pop\n      pop\n      jump\n        /* \"--CODEGEN--\":236:349   */\n    tag_62:\n        /* \"--CODEGEN--\":319:343   */\n      tag_64\n        /* \"--CODEGEN--\":337:342   */\n      dup2\n        /* \"--CODEGEN--\":319:343   */\n      jump(tag_65)\n    tag_64:\n        /* \"--CODEGEN--\":314:317   */\n      dup3\n        /* \"--CODEGEN--\":307:344   */\n      mstore\n        /* \"--CODEGEN--\":301:349   */\n      pop\n      pop\n      jump\n        /* \"--CODEGEN--\":356:703   */\n    tag_66:\n      0x00\n        /* \"--CODEGEN--\":468:507   */\n      tag_68\n        /* \"--CODEGEN--\":501:506   */\n      dup3\n        /* \"--CODEGEN--\":468:507   */\n      jump(tag_69)\n    tag_68:\n        /* \"--CODEGEN--\":519:590   */\n      tag_70\n        /* \"--CODEGEN--\":583:589   */\n      dup2\n        /* \"--CODEGEN--\":578:581   */\n      dup6\n        /* \"--CODEGEN--\":519:590   */\n      jump(tag_71)\n    tag_70:\n        /* \"--CODEGEN--\":512:590   */\n      swap4\n      pop\n        /* \"--CODEGEN--\":595:647   */\n      tag_72\n        /* \"--CODEGEN--\":640:646   */\n      dup2\n        /* \"--CODEGEN--\":635:638   */\n      dup6\n        /* \"--CODEGEN--\":628:632   */\n      0x20\n        /* \"--CODEGEN--\":621:626   */\n      dup7\n        /* \"--CODEGEN--\":617:633   */\n      add\n        /* \"--CODEGEN--\":595:647   */\n      jump(tag_73)\n    tag_72:\n        /* \"--CODEGEN--\":668:697   */\n      tag_74\n        /* \"--CODEGEN--\":690:696   */\n      dup2\n        /* \"--CODEGEN--\":668:697   */\n      jump(tag_75)\n    tag_74:\n        /* \"--CODEGEN--\":663:666   */\n      dup5\n        /* \"--CODEGEN--\":659:698   */\n      add\n        /* \"--CODEGEN--\":652:698   */\n      swap2\n      pop\n        /* \"--CODEGEN--\":448:703   */\n      pop\n      swap3\n      swap2\n      pop\n      pop\n      jump\n        /* \"--CODEGEN--\":710:923   */\n    tag_24:\n      0x00\n        /* \"--CODEGEN--\":828:830   */\n      0x20\n        /* \"--CODEGEN--\":817:826   */\n      dup3\n        /* \"--CODEGEN--\":813:831   */\n      add\n        /* \"--CODEGEN--\":805:831   */\n      swap1\n      pop\n        /* \"--CODEGEN--\":842:913   */\n      tag_77\n        /* \"--CODEGEN--\":910:911   */\n      0x00\n        /* \"--CODEGEN--\":899:908   */\n      dup4\n        /* \"--CODEGEN--\":895:912   */\n      add\n        /* \"--CODEGEN--\":886:892   */\n      dup5\n        /* \"--CODEGEN--\":842:913   */\n      jump(tag_54)\n    tag_77:\n        /* \"--CODEGEN--\":799:923   */\n      swap3\n      swap2\n      pop\n      pop\n      jump\n        /* \"--CODEGEN--\":930:1131   */\n    tag_31:\n      0x00\n        /* \"--CODEGEN--\":1042:1044   */\n      0x20\n        /* \"--CODEGEN--\":1031:1040   */\n      dup3\n        /* \"--CODEGEN--\":1027:1045   */\n      add\n        /* \"--CODEGEN--\":1019:1045   */\n      swap1\n      pop\n        /* \"--CODEGEN--\":1056:1121   */\n      tag_79\n        /* \"--CODEGEN--\":1118:1119   */\n      0x00\n        /* \"--CODEGEN--\":1107:1116   */\n      dup4\n        /* \"--CODEGEN--\":1103:1120   */\n      add\n        /* \"--CODEGEN--\":1094:1100   */\n      dup5\n        /* \"--CODEGEN--\":1056:1121   */\n      jump(tag_58)\n    tag_79:\n        /* \"--CODEGEN--\":1013:1131   */\n      swap3\n      swap2\n      pop\n      pop\n      jump\n        /* \"--CODEGEN--\":1138:1351   */\n    tag_16:\n      0x00\n        /* \"--CODEGEN--\":1256:1258   */\n      0x20\n        /* \"--CODEGEN--\":1245:1254   */\n      dup3\n        /* \"--CODEGEN--\":1241:1259   */\n      add\n        /* \"--CODEGEN--\":1233:1259   */\n      swap1\n      pop\n        /* \"--CODEGEN--\":1270:1341   */\n      tag_81\n        /* \"--CODEGEN--\":1338:1339   */\n      0x00\n        /* \"--CODEGEN--\":1327:1336   */\n      dup4\n        /* \"--CODEGEN--\":1323:1340   */\n      add\n        /* \"--CODEGEN--\":1314:1320   */\n      dup5\n        /* \"--CODEGEN--\":1270:1341   */\n      jump(tag_62)\n    tag_81:\n        /* \"--CODEGEN--\":1227:1351   */\n      swap3\n      swap2\n      pop\n      pop\n      jump\n        /* \"--CODEGEN--\":1358:1659   */\n    tag_20:\n      0x00\n        /* \"--CODEGEN--\":1496:1498   */\n      0x20\n        /* \"--CODEGEN--\":1485:1494   */\n      dup3\n        /* \"--CODEGEN--\":1481:1499   */\n      add\n        /* \"--CODEGEN--\":1473:1499   */\n      swap1\n      pop\n        /* \"--CODEGEN--\":1546:1555   */\n      dup2\n        /* \"--CODEGEN--\":1540:1544   */\n      dup2\n        /* \"--CODEGEN--\":1536:1556   */\n      sub\n        /* \"--CODEGEN--\":1532:1533   */\n      0x00\n        /* \"--CODEGEN--\":1521:1530   */\n      dup4\n        /* \"--CODEGEN--\":1517:1534   */\n      add\n        /* \"--CODEGEN--\":1510:1557   */\n      mstore\n        /* \"--CODEGEN--\":1571:1649   */\n      tag_83\n        /* \"--CODEGEN--\":1644:1648   */\n      dup2\n        /* \"--CODEGEN--\":1635:1641   */\n      dup5\n        /* \"--CODEGEN--\":1571:1649   */\n      jump(tag_66)\n    tag_83:\n        /* \"--CODEGEN--\":1563:1649   */\n      swap1\n      pop\n        /* \"--CODEGEN--\":1467:1659   */\n      swap3\n      swap2\n      pop\n      pop\n      jump\n        /* \"--CODEGEN--\":1666:1788   */\n    tag_69:\n      0x00\n        /* \"--CODEGEN--\":1760:1765   */\n      dup2\n        /* \"--CODEGEN--\":1754:1766   */\n      mload\n        /* \"--CODEGEN--\":1744:1766   */\n      swap1\n      pop\n        /* \"--CODEGEN--\":1725:1788   */\n      swap2\n      swap1\n      pop\n      jump\n        /* \"--CODEGEN--\":1796:1959   */\n    tag_71:\n      0x00\n        /* \"--CODEGEN--\":1911:1917   */\n      dup3\n        /* \"--CODEGEN--\":1906:1909   */\n      dup3\n        /* \"--CODEGEN--\":1899:1918   */\n      mstore\n        /* \"--CODEGEN--\":1948:1952   */\n      0x20\n        /* \"--CODEGEN--\":1943:1946   */\n      dup3\n        /* \"--CODEGEN--\":1939:1953   */\n      add\n        /* \"--CODEGEN--\":1924:1953   */\n      swap1\n      pop\n        /* \"--CODEGEN--\":1892:1959   */\n      swap3\n      swap2\n      pop\n      pop\n      jump\n        /* \"--CODEGEN--\":1967:2058   */\n    tag_57:\n      0x00\n        /* \"--CODEGEN--\":2029:2053   */\n      tag_87\n        /* \"--CODEGEN--\":2047:2052   */\n      dup3\n        /* \"--CODEGEN--\":2029:2053   */\n      jump(tag_88)\n    tag_87:\n        /* \"--CODEGEN--\":2018:2053   */\n      swap1\n      pop\n        /* \"--CODEGEN--\":2012:2058   */\n      swap2\n      swap1\n      pop\n      jump\n        /* \"--CODEGEN--\":2065:2150   */\n    tag_61:\n      0x00\n        /* \"--CODEGEN--\":2138:2143   */\n      dup2\n        /* \"--CODEGEN--\":2131:2144   */\n      iszero\n        /* \"--CODEGEN--\":2124:2145   */\n      iszero\n        /* \"--CODEGEN--\":2113:2145   */\n      swap1\n      pop\n        /* \"--CODEGEN--\":2107:2150   */\n      swap2\n      swap1\n      pop\n      jump\n        /* \"--CODEGEN--\":2157:2229   */\n    tag_65:\n      0x00\n        /* \"--CODEGEN--\":2219:2224   */\n      dup2\n        /* \"--CODEGEN--\":2208:2224   */\n      swap1\n      pop\n        /* \"--CODEGEN--\":2202:2229   */\n      swap2\n      swap1\n      pop\n      jump\n        /* \"--CODEGEN--\":2236:2357   */\n    tag_88:\n      0x00\n        /* \"--CODEGEN--\":2309:2351   */\n      0xffffffffffffffffffffffffffffffffffffffff\n        /* \"--CODEGEN--\":2302:2307   */\n      dup3\n        /* \"--CODEGEN--\":2298:2352   */\n      and\n        /* \"--CODEGEN--\":2287:2352   */\n      swap1\n      pop\n        /* \"--CODEGEN--\":2281:2357   */\n      swap2\n      swap1\n      pop\n      jump\n        /* \"--CODEGEN--\":2365:2633   */\n    tag_73:\n        /* \"--CODEGEN--\":2430:2431   */\n      0x00\n        /* \"--CODEGEN--\":2437:2538   */\n    tag_93:\n        /* \"--CODEGEN--\":2451:2457   */\n      dup4\n        /* \"--CODEGEN--\":2448:2449   */\n      dup2\n        /* \"--CODEGEN--\":2445:2458   */\n      lt\n        /* \"--CODEGEN--\":2437:2538   */\n      iszero\n      tag_95\n      jumpi\n        /* \"--CODEGEN--\":2527:2528   */\n      dup1\n        /* \"--CODEGEN--\":2522:2525   */\n      dup3\n        /* \"--CODEGEN--\":2518:2529   */\n      add\n        /* \"--CODEGEN--\":2512:2530   */\n      mload\n        /* \"--CODEGEN--\":2508:2509   */\n      dup2\n        /* \"--CODEGEN--\":2503:2506   */\n      dup5\n        /* \"--CODEGEN--\":2499:2510   */\n      add\n        /* \"--CODEGEN--\":2492:2531   */\n      mstore\n        /* \"--CODEGEN--\":2473:2475   */\n      0x20\n        /* \"--CODEGEN--\":2470:2471   */\n      dup2\n        /* \"--CODEGEN--\":2466:2476   */\n      add\n        /* \"--CODEGEN--\":2461:2476   */\n      swap1\n      pop\n        /* \"--CODEGEN--\":2437:2538   */\n      jump(tag_93)\n    tag_95:\n        /* \"--CODEGEN--\":2553:2559   */\n      dup4\n        /* \"--CODEGEN--\":2550:2551   */\n      dup2\n        /* \"--CODEGEN--\":2547:2560   */\n      gt\n        /* \"--CODEGEN--\":2544:2546   */\n      iszero\n      tag_96\n      jumpi\n        /* \"--CODEGEN--\":2618:2619   */\n      0x00\n        /* \"--CODEGEN--\":2609:2615   */\n      dup5\n        /* \"--CODEGEN--\":2604:2607   */\n      dup5\n        /* \"--CODEGEN--\":2600:2616   */\n      add\n        /* \"--CODEGEN--\":2593:2620   */\n      mstore\n        /* \"--CODEGEN--\":2544:2546   */\n    tag_96:\n        /* \"--CODEGEN--\":2414:2633   */\n      pop\n      pop\n      pop\n      pop\n      jump\n        /* \"--CODEGEN--\":2641:2738   */\n    tag_75:\n      0x00\n        /* \"--CODEGEN--\":2729:2731   */\n      0x1f\n        /* \"--CODEGEN--\":2725:2732   */\n      not\n        /* \"--CODEGEN--\":2720:2722   */\n      0x1f\n        /* \"--CODEGEN--\":2713:2718   */\n      dup4\n        /* \"--CODEGEN--\":2709:2723   */\n      add\n        /* \"--CODEGEN--\":2705:2733   */\n      and\n        /* \"--CODEGEN--\":2695:2733   */\n      swap1\n      pop\n        /* \"--CODEGEN--\":2689:2738   */\n      swap2\n      swap1\n      pop\n      jump\n\n    auxdata: 0xa264697066735822122031a1c8fa27b480d3ab462b9a90d55fef304a618fdb2c197dbbcb3d34893b7d0464736f6c63430006050033\n}\n",
				"bytecode": {
					"linkReferences": {},
					"object": "60806040526040518060400160405280600f81526020017f686f6c6120636f6d6f20657374617300000000000000000000000000000000008152506001908051906020019061004f9291906101df565b5060405180602001604052806000815250600290805190602001906100759291906101df565b506040518060400160405280600781526020017f4c756369616e6f00000000000000000000000000000000000000000000000000815250600390805190602001906100c19291906101df565b506001600460016101000a81548160ff0219169083151502179055506000600460026101000a81548160ff021916908315150217905550600360405160200161010a9190610312565b60405160208183030381529060405280519060200120600755735b38da6a701c568545dcfcb03fcb875f56beddc4600960006101000a81548173ffffffffffffffffffffffffffffffffffffffff021916908373ffffffffffffffffffffffffffffffffffffffff16021790555073ab8483f64d9c6d1ecf9b849ae677dd3315835cb2600a60006101000a81548173ffffffffffffffffffffffffffffffffffffffff021916908373ffffffffffffffffffffffffffffffffffffffff1602179055503480156101d957600080fd5b50610349565b828054600181600116156101000203166002900490600052602060002090601f016020900481019282601f1061022057805160ff191683800117855561024e565b8280016001018555821561024e579182015b8281111561024d578251825591602001919060010190610232565b5b50905061025b919061025f565b5090565b61028191905b8082111561027d576000816000905550600101610265565b5090565b90565b6000815460018116600081146102a157600181146102c65761030a565b607f60028304166102b2818761033e565b955060ff198316865280860193505061030a565b600282046102d4818761033e565b95506102df85610329565b60005b82811015610301578154818901526001820191506020810190506102e2565b82880195505050505b505092915050565b600061031e8284610284565b915081905092915050565b60008190508160005260206000209050919050565b600081905092915050565b6105df806103586000396000f3fe608060405234801561001057600080fd5b50600436106100935760003560e01c80634ea35958116100665780634ea35958146101105780635fe4c6771461012e5780638320422e1461014c578063abf1d36114610156578063bc7b35b21461017457610093565b806309bd5a60146100985780630a3a9d63146100b6578063193fc42c146100d4578063303c3a14146100f2575b600080fd5b6100a0610192565b6040516100ad91906104c4565b60405180910390f35b6100be610198565b6040516100cb91906104df565b60405180910390f35b6100dc610236565b6040516100e9919061048e565b60405180910390f35b6100fa61025c565b60405161010791906104df565b60405180910390f35b6101186102fa565b60405161012591906104a9565b60405180910390f35b61013661030d565b60405161014391906104a9565b60405180910390f35b610154610320565b005b61015e610364565b60405161016b919061048e565b60405180910390f35b61017c61038a565b60405161018991906104df565b60405180910390f35b60075481565b60018054600181600116156101000203166002900480601f01602080910402602001604051908101604052809291908181526020018280546001816001161561010002031660029004801561022e5780601f106102035761010080835404028352916020019161022e565b820191906000526020600020905b81548152906001019060200180831161021157829003601f168201915b505050505081565b600a60009054906101000a900473ffffffffffffffffffffffffffffffffffffffff1681565b60028054600181600116156101000203166002900480601f0160208091040260200160405190810160405280929190818152602001828054600181600116156101000203166002900480156102f25780601f106102c7576101008083540402835291602001916102f2565b820191906000526020600020905b8154815290600101906020018083116102d557829003601f168201915b505050505081565b600460019054906101000a900460ff1681565b600460029054906101000a900460ff1681565b6000357fffffffff0000000000000000000000000000000000000000000000000000000016600860006101000a81548163ffffffff021916908360e01c0217905550565b600960009054906101000a900473ffffffffffffffffffffffffffffffffffffffff1681565b60038054600181600116156101000203166002900480601f0160208091040260200160405190810160405280929190818152602001828054600181600116156101000203166002900480156104205780601f106103f557610100808354040283529160200191610420565b820191906000526020600020905b81548152906001019060200180831161040357829003601f168201915b505050505081565b6104318161051d565b82525050565b6104408161052f565b82525050565b61044f8161053b565b82525050565b600061046082610501565b61046a818561050c565b935061047a818560208601610565565b61048381610598565b840191505092915050565b60006020820190506104a36000830184610428565b92915050565b60006020820190506104be6000830184610437565b92915050565b60006020820190506104d96000830184610446565b92915050565b600060208201905081810360008301526104f98184610455565b905092915050565b600081519050919050565b600082825260208201905092915050565b600061052882610545565b9050919050565b60008115159050919050565b6000819050919050565b600073ffffffffffffffffffffffffffffffffffffffff82169050919050565b60005b83811015610583578082015181840152602081019050610568565b83811115610592576000848401525b50505050565b6000601f19601f830116905091905056fea264697066735822122031a1c8fa27b480d3ab462b9a90d55fef304a618fdb2c197dbbcb3d34893b7d0464736f6c63430006050033",
					"opcodes": "PUSH1 0x80 PUSH1 0x40 MSTORE PUSH1 0x40 MLOAD DUP1 PUSH1 0x40 ADD PUSH1 0x40 MSTORE DUP1 PUSH1 0xF DUP2 MSTORE PUSH1 0x20 ADD PUSH32 0x686F6C6120636F6D6F2065737461730000000000000000000000000000000000 DUP2 MSTORE POP PUSH1 0x1 SWAP1 DUP1 MLOAD SWAP1 PUSH1 0x20 ADD SWAP1 PUSH2 0x4F SWAP3 SWAP2 SWAP1 PUSH2 0x1DF JUMP JUMPDEST POP PUSH1 0x40 MLOAD DUP1 PUSH1 0x20 ADD PUSH1 0x40 MSTORE DUP1 PUSH1 0x0 DUP2 MSTORE POP PUSH1 0x2 SWAP1 DUP1 MLOAD SWAP1 PUSH1 0x20 ADD SWAP1 PUSH2 0x75 SWAP3 SWAP2 SWAP1 PUSH2 0x1DF JUMP JUMPDEST POP PUSH1 0x40 MLOAD DUP1 PUSH1 0x40 ADD PUSH1 0x40 MSTORE DUP1 PUSH1 0x7 DUP2 MSTORE PUSH1 0x20 ADD PUSH32 0x4C756369616E6F00000000000000000000000000000000000000000000000000 DUP2 MSTORE POP PUSH1 0x3 SWAP1 DUP1 MLOAD SWAP1 PUSH1 0x20 ADD SWAP1 PUSH2 0xC1 SWAP3 SWAP2 SWAP1 PUSH2 0x1DF JUMP JUMPDEST POP PUSH1 0x1 PUSH1 0x4 PUSH1 0x1 PUSH2 0x100 EXP DUP2 SLOAD DUP2 PUSH1 0xFF MUL NOT AND SWAP1 DUP4 ISZERO ISZERO MUL OR SWAP1 SSTORE POP PUSH1 0x0 PUSH1 0x4 PUSH1 0x2 PUSH2 0x100 EXP DUP2 SLOAD DUP2 PUSH1 0xFF MUL NOT AND SWAP1 DUP4 ISZERO ISZERO MUL OR SWAP1 SSTORE POP PUSH1 0x3 PUSH1 0x40 MLOAD PUSH1 0x20 ADD PUSH2 0x10A SWAP2 SWAP1 PUSH2 0x312 JUMP JUMPDEST PUSH1 0x40 MLOAD PUSH1 0x20 DUP2 DUP4 SUB SUB DUP2 MSTORE SWAP1 PUSH1 0x40 MSTORE DUP1 MLOAD SWAP1 PUSH1 0x20 ADD KECCAK256 PUSH1 0x7 SSTORE PUSH20 0x5B38DA6A701C568545DCFCB03FCB875F56BEDDC4 PUSH1 0x9 PUSH1 0x0 PUSH2 0x100 EXP DUP2 SLOAD DUP2 PUSH20 0xFFFFFFFFFFFFFFFFFFFFFFFFFFFFFFFFFFFFFFFF MUL NOT AND SWAP1 DUP4 PUSH20 0xFFFFFFFFFFFFFFFFFFFFFFFFFFFFFFFFFFFFFFFF AND MUL OR SWAP1 SSTORE POP PUSH20 0xAB8483F64D9C6D1ECF9B849AE677DD3315835CB2 PUSH1 0xA PUSH1 0x0 PUSH2 0x100 EXP DUP2 SLOAD DUP2 PUSH20 0xFFFFFFFFFFFFFFFFFFFFFFFFFFFFFFFFFFFFFFFF MUL NOT AND SWAP1 DUP4 PUSH20 0xFFFFFFFFFFFFFFFFFFFFFFFFFFFFFFFFFFFFFFFF AND MUL OR SWAP1 SSTORE POP CALLVALUE DUP1 ISZERO PUSH2 0x1D9 JUMPI PUSH1 0x0 DUP1 REVERT JUMPDEST POP PUSH2 0x349 JUMP JUMPDEST DUP3 DUP1 SLOAD PUSH1 0x1 DUP2 PUSH1 0x1 AND ISZERO PUSH2 0x100 MUL SUB AND PUSH1 0x2 SWAP1 DIV SWAP1 PUSH1 0x0 MSTORE PUSH1 0x20 PUSH1 0x0 KECCAK256 SWAP1 PUSH1 0x1F ADD PUSH1 0x20 SWAP1 DIV DUP2 ADD SWAP3 DUP3 PUSH1 0x1F LT PUSH2 0x220 JUMPI DUP1 MLOAD PUSH1 0xFF NOT AND DUP4 DUP1 ADD OR DUP6 SSTORE PUSH2 0x24E JUMP JUMPDEST DUP3 DUP1 ADD PUSH1 0x1 ADD DUP6 SSTORE DUP3 ISZERO PUSH2 0x24E JUMPI SWAP2 DUP3 ADD JUMPDEST DUP3 DUP2 GT ISZERO PUSH2 0x24D JUMPI DUP3 MLOAD DUP3 SSTORE SWAP2 PUSH1 0x20 ADD SWAP2 SWAP1 PUSH1 0x1 ADD SWAP1 PUSH2 0x232 JUMP JUMPDEST JUMPDEST POP SWAP1 POP PUSH2 0x25B SWAP2 SWAP1 PUSH2 0x25F JUMP JUMPDEST POP SWAP1 JUMP JUMPDEST PUSH2 0x281 SWAP2 SWAP1 JUMPDEST DUP1 DUP3 GT ISZERO PUSH2 0x27D JUMPI PUSH1 0x0 DUP2 PUSH1 0x0 SWAP1 SSTORE POP PUSH1 0x1 ADD PUSH2 0x265 JUMP JUMPDEST POP SWAP1 JUMP JUMPDEST SWAP1 JUMP JUMPDEST PUSH1 0x0 DUP2 SLOAD PUSH1 0x1 DUP2 AND PUSH1 0x0 DUP2 EQ PUSH2 0x2A1 JUMPI PUSH1 0x1 DUP2 EQ PUSH2 0x2C6 JUMPI PUSH2 0x30A JUMP JUMPDEST PUSH1 0x7F PUSH1 0x2 DUP4 DIV AND PUSH2 0x2B2 DUP2 DUP8 PUSH2 0x33E JUMP JUMPDEST SWAP6 POP PUSH1 0xFF NOT DUP4 AND DUP7 MSTORE DUP1 DUP7 ADD SWAP4 POP POP PUSH2 0x30A JUMP JUMPDEST PUSH1 0x2 DUP3 DIV PUSH2 0x2D4 DUP2 DUP8 PUSH2 0x33E JUMP JUMPDEST SWAP6 POP PUSH2 0x2DF DUP6 PUSH2 0x329 JUMP JUMPDEST PUSH1 0x0 JUMPDEST DUP3 DUP2 LT ISZERO PUSH2 0x301 JUMPI DUP2 SLOAD DUP2 DUP10 ADD MSTORE PUSH1 0x1 DUP3 ADD SWAP2 POP PUSH1 0x20 DUP2 ADD SWAP1 POP PUSH2 0x2E2 JUMP JUMPDEST DUP3 DUP9 ADD SWAP6 POP POP POP POP JUMPDEST POP POP SWAP3 SWAP2 POP POP JUMP JUMPDEST PUSH1 0x0 PUSH2 0x31E DUP3 DUP5 PUSH2 0x284 JUMP JUMPDEST SWAP2 POP DUP2 SWAP1 POP SWAP3 SWAP2 POP POP JUMP JUMPDEST PUSH1 0x0 DUP2 SWAP1 POP DUP2 PUSH1 0x0 MSTORE PUSH1 0x20 PUSH1 0x0 KECCAK256 SWAP1 POP SWAP2 SWAP1 POP JUMP JUMPDEST PUSH1 0x0 DUP2 SWAP1 POP SWAP3 SWAP2 POP POP JUMP JUMPDEST PUSH2 0x5DF DUP1 PUSH2 0x358 PUSH1 0x0 CODECOPY PUSH1 0x0 RETURN INVALID PUSH1 0x80 PUSH1 0x40 MSTORE CALLVALUE DUP1 ISZERO PUSH2 0x10 JUMPI PUSH1 0x0 DUP1 REVERT JUMPDEST POP PUSH1 0x4 CALLDATASIZE LT PUSH2 0x93 JUMPI PUSH1 0x0 CALLDATALOAD PUSH1 0xE0 SHR DUP1 PUSH4 0x4EA35958 GT PUSH2 0x66 JUMPI DUP1 PUSH4 0x4EA35958 EQ PUSH2 0x110 JUMPI DUP1 PUSH4 0x5FE4C677 EQ PUSH2 0x12E JUMPI DUP1 PUSH4 0x8320422E EQ PUSH2 0x14C JUMPI DUP1 PUSH4 0xABF1D361 EQ PUSH2 0x156 JUMPI DUP1 PUSH4 0xBC7B35B2 EQ PUSH2 0x174 JUMPI PUSH2 0x93 JUMP JUMPDEST DUP1 PUSH4 0x9BD5A60 EQ PUSH2 0x98 JUMPI DUP1 PUSH4 0xA3A9D63 EQ PUSH2 0xB6 JUMPI DUP1 PUSH4 0x193FC42C EQ PUSH2 0xD4 JUMPI DUP1 PUSH4 0x303C3A14 EQ PUSH2 0xF2 JUMPI JUMPDEST PUSH1 0x0 DUP1 REVERT JUMPDEST PUSH2 0xA0 PUSH2 0x192 JUMP JUMPDEST PUSH1 0x40 MLOAD PUSH2 0xAD SWAP2 SWAP1 PUSH2 0x4C4 JUMP JUMPDEST PUSH1 0x40 MLOAD DUP1 SWAP2 SUB SWAP1 RETURN JUMPDEST PUSH2 0xBE PUSH2 0x198 JUMP JUMPDEST PUSH1 0x40 MLOAD PUSH2 0xCB SWAP2 SWAP1 PUSH2 0x4DF JUMP JUMPDEST PUSH1 0x40 MLOAD DUP1 SWAP2 SUB SWAP1 RETURN JUMPDEST PUSH2 0xDC PUSH2 0x236 JUMP JUMPDEST PUSH1 0x40 MLOAD PUSH2 0xE9 SWAP2 SWAP1 PUSH2 0x48E JUMP JUMPDEST PUSH1 0x40 MLOAD DUP1 SWAP2 SUB SWAP1 RETURN JUMPDEST PUSH2 0xFA PUSH2 0x25C JUMP JUMPDEST PUSH1 0x40 MLOAD PUSH2 0x107 SWAP2 SWAP1 PUSH2 0x4DF JUMP JUMPDEST PUSH1 0x40 MLOAD DUP1 SWAP2 SUB SWAP1 RETURN JUMPDEST PUSH2 0x118 PUSH2 0x2FA JUMP JUMPDEST PUSH1 0x40 MLOAD PUSH2 0x125 SWAP2 SWAP1 PUSH2 0x4A9 JUMP JUMPDEST PUSH1 0x40 MLOAD DUP1 SWAP2 SUB SWAP1 RETURN JUMPDEST PUSH2 0x136 PUSH2 0x30D JUMP JUMPDEST PUSH1 0x40 MLOAD PUSH2 0x143 SWAP2 SWAP1 PUSH2 0x4A9 JUMP JUMPDEST PUSH1 0x40 MLOAD DUP1 SWAP2 SUB SWAP1 RETURN JUMPDEST PUSH2 0x154 PUSH2 0x320 JUMP JUMPDEST STOP JUMPDEST PUSH2 0x15E PUSH2 0x364 JUMP JUMPDEST PUSH1 0x40 MLOAD PUSH2 0x16B SWAP2 SWAP1 PUSH2 0x48E JUMP JUMPDEST PUSH1 0x40 MLOAD DUP1 SWAP2 SUB SWAP1 RETURN JUMPDEST PUSH2 0x17C PUSH2 0x38A JUMP JUMPDEST PUSH1 0x40 MLOAD PUSH2 0x189 SWAP2 SWAP1 PUSH2 0x4DF JUMP JUMPDEST PUSH1 0x40 MLOAD DUP1 SWAP2 SUB SWAP1 RETURN JUMPDEST PUSH1 0x7 SLOAD DUP2 JUMP JUMPDEST PUSH1 0x1 DUP1 SLOAD PUSH1 0x1 DUP2 PUSH1 0x1 AND ISZERO PUSH2 0x100 MUL SUB AND PUSH1 0x2 SWAP1 DIV DUP1 PUSH1 0x1F ADD PUSH1 0x20 DUP1 SWAP2 DIV MUL PUSH1 0x20 ADD PUSH1 0x40 MLOAD SWAP1 DUP2 ADD PUSH1 0x40 MSTORE DUP1 SWAP3 SWAP2 SWAP1 DUP2 DUP2 MSTORE PUSH1 0x20 ADD DUP3 DUP1 SLOAD PUSH1 0x1 DUP2 PUSH1 0x1 AND ISZERO PUSH2 0x100 MUL SUB AND PUSH1 0x2 SWAP1 DIV DUP1 ISZERO PUSH2 0x22E JUMPI DUP1 PUSH1 0x1F LT PUSH2 0x203 JUMPI PUSH2 0x100 DUP1 DUP4 SLOAD DIV MUL DUP4 MSTORE SWAP2 PUSH1 0x20 ADD SWAP2 PUSH2 0x22E JUMP JUMPDEST DUP3 ADD SWAP2 SWAP1 PUSH1 0x0 MSTORE PUSH1 0x20 PUSH1 0x0 KECCAK256 SWAP1 JUMPDEST DUP2 SLOAD DUP2 MSTORE SWAP1 PUSH1 0x1 ADD SWAP1 PUSH1 0x20 ADD DUP1 DUP4 GT PUSH2 0x211 JUMPI DUP3 SWAP1 SUB PUSH1 0x1F AND DUP3 ADD SWAP2 JUMPDEST POP POP POP POP POP DUP2 JUMP JUMPDEST PUSH1 0xA PUSH1 0x0 SWAP1 SLOAD SWAP1 PUSH2 0x100 EXP SWAP1 DIV PUSH20 0xFFFFFFFFFFFFFFFFFFFFFFFFFFFFFFFFFFFFFFFF AND DUP2 JUMP JUMPDEST PUSH1 0x2 DUP1 SLOAD PUSH1 0x1 DUP2 PUSH1 0x1 AND ISZERO PUSH2 0x100 MUL SUB AND PUSH1 0x2 SWAP1 DIV DUP1 PUSH1 0x1F ADD PUSH1 0x20 DUP1 SWAP2 DIV MUL PUSH1 0x20 ADD PUSH1 0x40 MLOAD SWAP1 DUP2 ADD PUSH1 0x40 MSTORE DUP1 SWAP3 SWAP2 SWAP1 DUP2 DUP2 MSTORE PUSH1 0x20 ADD DUP3 DUP1 SLOAD PUSH1 0x1 DUP2 PUSH1 0x1 AND ISZERO PUSH2 0x100 MUL SUB AND PUSH1 0x2 SWAP1 DIV DUP1 ISZERO PUSH2 0x2F2 JUMPI DUP1 PUSH1 0x1F LT PUSH2 0x2C7 JUMPI PUSH2 0x100 DUP1 DUP4 SLOAD DIV MUL DUP4 MSTORE SWAP2 PUSH1 0x20 ADD SWAP2 PUSH2 0x2F2 JUMP JUMPDEST DUP3 ADD SWAP2 SWAP1 PUSH1 0x0 MSTORE PUSH1 0x20 PUSH1 0x0 KECCAK256 SWAP1 JUMPDEST DUP2 SLOAD DUP2 MSTORE SWAP1 PUSH1 0x1 ADD SWAP1 PUSH1 0x20 ADD DUP1 DUP4 GT PUSH2 0x2D5 JUMPI DUP3 SWAP1 SUB PUSH1 0x1F AND DUP3 ADD SWAP2 JUMPDEST POP POP POP POP POP DUP2 JUMP JUMPDEST PUSH1 0x4 PUSH1 0x1 SWAP1 SLOAD SWAP1 PUSH2 0x100 EXP SWAP1 DIV PUSH1 0xFF AND DUP2 JUMP JUMPDEST PUSH1 0x4 PUSH1 0x2 SWAP1 SLOAD SWAP1 PUSH2 0x100 EXP SWAP1 DIV PUSH1 0xFF AND DUP2 JUMP JUMPDEST PUSH1 0x0 CALLDATALOAD PUSH32 0xFFFFFFFF00000000000000000000000000000000000000000000000000000000 AND PUSH1 0x8 PUSH1 0x0 PUSH2 0x100 EXP DUP2 SLOAD DUP2 PUSH4 0xFFFFFFFF MUL NOT AND SWAP1 DUP4 PUSH1 0xE0 SHR MUL OR SWAP1 SSTORE POP JUMP JUMPDEST PUSH1 0x9 PUSH1 0x0 SWAP1 SLOAD SWAP1 PUSH2 0x100 EXP SWAP1 DIV PUSH20 0xFFFFFFFFFFFFFFFFFFFFFFFFFFFFFFFFFFFFFFFF AND DUP2 JUMP JUMPDEST PUSH1 0x3 DUP1 SLOAD PUSH1 0x1 DUP2 PUSH1 0x1 AND ISZERO PUSH2 0x100 MUL SUB AND PUSH1 0x2 SWAP1 DIV DUP1 PUSH1 0x1F ADD PUSH1 0x20 DUP1 SWAP2 DIV MUL PUSH1 0x20 ADD PUSH1 0x40 MLOAD SWAP1 DUP2 ADD PUSH1 0x40 MSTORE DUP1 SWAP3 SWAP2 SWAP1 DUP2 DUP2 MSTORE PUSH1 0x20 ADD DUP3 DUP1 SLOAD PUSH1 0x1 DUP2 PUSH1 0x1 AND ISZERO PUSH2 0x100 MUL SUB AND PUSH1 0x2 SWAP1 DIV DUP1 ISZERO PUSH2 0x420 JUMPI DUP1 PUSH1 0x1F LT PUSH2 0x3F5 JUMPI PUSH2 0x100 DUP1 DUP4 SLOAD DIV MUL DUP4 MSTORE SWAP2 PUSH1 0x20 ADD SWAP2 PUSH2 0x420 JUMP JUMPDEST DUP3 ADD SWAP2 SWAP1 PUSH1 0x0 MSTORE PUSH1 0x20 PUSH1 0x0 KECCAK256 SWAP1 JUMPDEST DUP2 SLOAD DUP2 MSTORE SWAP1 PUSH1 0x1 ADD SWAP1 PUSH1 0x20 ADD DUP1 DUP4 GT PUSH2 0x403 JUMPI DUP3 SWAP1 SUB PUSH1 0x1F AND DUP3 ADD SWAP2 JUMPDEST POP POP POP POP POP DUP2 JUMP JUMPDEST PUSH2 0x431 DUP2 PUSH2 0x51D JUMP JUMPDEST DUP3 MSTORE POP POP JUMP JUMPDEST PUSH2 0x440 DUP2 PUSH2 0x52F JUMP JUMPDEST DUP3 MSTORE POP POP JUMP JUMPDEST PUSH2 0x44F DUP2 PUSH2 0x53B JUMP JUMPDEST DUP3 MSTORE POP POP JUMP JUMPDEST PUSH1 0x0 PUSH2 0x460 DUP3 PUSH2 0x501 JUMP JUMPDEST PUSH2 0x46A DUP2 DUP6 PUSH2 0x50C JUMP JUMPDEST SWAP4 POP PUSH2 0x47A DUP2 DUP6 PUSH1 0x20 DUP7 ADD PUSH2 0x565 JUMP JUMPDEST PUSH2 0x483 DUP2 PUSH2 0x598 JUMP JUMPDEST DUP5 ADD SWAP2 POP POP SWAP3 SWAP2 POP POP JUMP JUMPDEST PUSH1 0x0 PUSH1 0x20 DUP3 ADD SWAP1 POP PUSH2 0x4A3 PUSH1 0x0 DUP4 ADD DUP5 PUSH2 0x428 JUMP JUMPDEST SWAP3 SWAP2 POP POP JUMP JUMPDEST PUSH1 0x0 PUSH1 0x20 DUP3 ADD SWAP1 POP PUSH2 0x4BE PUSH1 0x0 DUP4 ADD DUP5 PUSH2 0x437 JUMP JUMPDEST SWAP3 SWAP2 POP POP JUMP JUMPDEST PUSH1 0x0 PUSH1 0x20 DUP3 ADD SWAP1 POP PUSH2 0x4D9 PUSH1 0x0 DUP4 ADD DUP5 PUSH2 0x446 JUMP JUMPDEST SWAP3 SWAP2 POP POP JUMP JUMPDEST PUSH1 0x0 PUSH1 0x20 DUP3 ADD SWAP1 POP DUP2 DUP2 SUB PUSH1 0x0 DUP4 ADD MSTORE PUSH2 0x4F9 DUP2 DUP5 PUSH2 0x455 JUMP JUMPDEST SWAP1 POP SWAP3 SWAP2 POP POP JUMP JUMPDEST PUSH1 0x0 DUP2 MLOAD SWAP1 POP SWAP2 SWAP1 POP JUMP JUMPDEST PUSH1 0x0 DUP3 DUP3 MSTORE PUSH1 0x20 DUP3 ADD SWAP1 POP SWAP3 SWAP2 POP POP JUMP JUMPDEST PUSH1 0x0 PUSH2 0x528 DUP3 PUSH2 0x545 JUMP JUMPDEST SWAP1 POP SWAP2 SWAP1 POP JUMP JUMPDEST PUSH1 0x0 DUP2 ISZERO ISZERO SWAP1 POP SWAP2 SWAP1 POP JUMP JUMPDEST PUSH1 0x0 DUP2 SWAP1 POP SWAP2 SWAP1 POP JUMP JUMPDEST PUSH1 0x0 PUSH20 0xFFFFFFFFFFFFFFFFFFFFFFFFFFFFFFFFFFFFFFFF DUP3 AND SWAP1 POP SWAP2 SWAP1 POP JUMP JUMPDEST PUSH1 0x0 JUMPDEST DUP4 DUP2 LT ISZERO PUSH2 0x583 JUMPI DUP1 DUP3 ADD MLOAD DUP2 DUP5 ADD MSTORE PUSH1 0x20 DUP2 ADD SWAP1 POP PUSH2 0x568 JUMP JUMPDEST DUP4 DUP2 GT ISZERO PUSH2 0x592 JUMPI PUSH1 0x0 DUP5 DUP5 ADD MSTORE JUMPDEST POP POP POP POP JUMP JUMPDEST PUSH1 0x0 PUSH1 0x1F NOT PUSH1 0x1F DUP4 ADD AND SWAP1 POP SWAP2 SWAP1 POP JUMP INVALID LOG2 PUSH5 0x6970667358 0x22 SLT KECCAK256 BALANCE LOG1 0xC8 STATICCALL 0x27 0xB4 DUP1 0xD3 0xAB CHAINID 0x2B SWAP11 SWAP1 0xD5 0x5F 0xEF ADDRESS 0x4A PUSH2 0x8FDB 0x2C NOT PUSH30 0xBBCB3D34893B7D0464736F6C634300060500330000000000000000000000 "
				},
				"gasEstimates": {
					"creation": {
						"codeDepositCost": "300600",
						"executionCost": "infinite",
						"totalCost": "infinite"
					},
					"external": {
						"cadena_vacia()": "infinite",
						"direccion_local_1()": "1280",
						"direccion_local_2()": "1259",
						"ejemploBytes4()": "21064",
						"flag_false()": "1243",
						"flag_true()": "1221",
						"hash()": "1130",
						"nombre()": "infinite",
						"saludo()": "infinite"
					}
				},
				"methodIdentifiers": {
					"cadena_vacia()": "303c3a14",
					"direccion_local_1()": "abf1d361",
					"direccion_local_2()": "193fc42c",
					"ejemploBytes4()": "8320422e",
					"flag_false()": "5fe4c677",
					"flag_true()": "4ea35958",
					"hash()": "09bd5a60",
					"nombre()": "bc7b35b2",
					"saludo()": "0a3a9d63"
				}
			},
			"storageLayout": {
				"storage": [
					{
						"astId": 4,
						"contract": "Tipos de variables y operadores/mas variables.sol:mas_variables",
						"label": "mi_primer_string",
						"offset": 0,
						"slot": "0",
						"type": "t_string_storage"
					},
					{
						"astId": 7,
						"contract": "Tipos de variables y operadores/mas variables.sol:mas_variables",
						"label": "saludo",
						"offset": 0,
						"slot": "1",
						"type": "t_string_storage"
					},
					{
						"astId": 10,
						"contract": "Tipos de variables y operadores/mas variables.sol:mas_variables",
						"label": "cadena_vacia",
						"offset": 0,
						"slot": "2",
						"type": "t_string_storage"
					},
					{
						"astId": 13,
						"contract": "Tipos de variables y operadores/mas variables.sol:mas_variables",
						"label": "nombre",
						"offset": 0,
						"slot": "3",
						"type": "t_string_storage"
					},
					{
						"astId": 15,
						"contract": "Tipos de variables y operadores/mas variables.sol:mas_variables",
						"label": "mi_primer_booleano",
						"offset": 0,
						"slot": "4",
						"type": "t_bool"
					},
					{
						"astId": 18,
						"contract": "Tipos de variables y operadores/mas variables.sol:mas_variables",
						"label": "flag_true",
						"offset": 1,
						"slot": "4",
						"type": "t_bool"
					},
					{
						"astId": 21,
						"contract": "Tipos de variables y operadores/mas variables.sol:mas_variables",
						"label": "flag_false",
						"offset": 2,
						"slot": "4",
						"type": "t_bool"
					},
					{
						"astId": 23,
						"contract": "Tipos de variables y operadores/mas variables.sol:mas_variables",
						"label": "mi_primer_bytes",
						"offset": 0,
						"slot": "5",
						"type": "t_bytes32"
					},
					{
						"astId": 25,
						"contract": "Tipos de variables y operadores/mas variables.sol:mas_variables",
						"label": "segundo_bytes",
						"offset": 0,
						"slot": "6",
						"type": "t_bytes4"
					},
					{
						"astId": 33,
						"contract": "Tipos de variables y operadores/mas variables.sol:mas_variables",
						"label": "hash",
						"offset": 0,
						"slot": "7",
						"type": "t_bytes32"
					},
					{
						"astId": 35,
						"contract": "Tipos de variables y operadores/mas variables.sol:mas_variables",
						"label": "identificador",
						"offset": 0,
						"slot": "8",
						"type": "t_bytes4"
					},
					{
						"astId": 46,
						"contract": "Tipos de variables y operadores/mas variables.sol:mas_variables",
						"label": "mi_primera_direccion",
						"offset": 4,
						"slot": "8",
						"type": "t_address"
					},
					{
						"astId": 49,
						"contract": "Tipos de variables y operadores/mas variables.sol:mas_variables",
						"label": "direccion_local_1",
						"offset": 0,
						"slot": "9",
						"type": "t_address"
					},
					{
						"astId": 52,
						"contract": "Tipos de variables y operadores/mas variables.sol:mas_variables",
						"label": "direccion_local_2",
						"offset": 0,
						"slot": "10",
						"type": "t_address"
					}
				],
				"types": {
					"t_address": {
						"encoding": "inplace",
						"label": "address",
						"numberOfBytes": "20"
					},
					"t_bool": {
						"encoding": "inplace",
						"label": "bool",
						"numberOfBytes": "1"
					},
					"t_bytes32": {
						"encoding": "inplace",
						"label": "bytes32",
						"numberOfBytes": "32"
					},
					"t_bytes4": {
						"encoding": "inplace",
						"label": "bytes4",
						"numberOfBytes": "4"
					},
					"t_string_storage": {
						"encoding": "bytes",
						"label": "string",
						"numberOfBytes": "32"
					}
				}
			},
			"userdoc": {
				"methods": {}
			}
		}
	}
}