{
	"Tipos de variables y operadores/comprar strings.sol": {
		"compararString": {
			"abi": [
				{
					"inputs": [
						{
							"internalType": "string",
							"name": "_i",
							"type": "string"
						},
						{
							"internalType": "string",
							"name": "_j",
							"type": "string"
						}
					],
					"name": "comparar",
					"outputs": [
						{
							"internalType": "bool",
							"name": "",
							"type": "bool"
						}
					],
					"stateMutability": "view",
					"type": "function"
				}
			],
			"devdoc": {
				"methods": {}
			},
			"evm": {
				"assembly": "    /* \"Tipos de variables y operadores/comprar strings.sol\":92:333  contract compararString{\r... */\n  mstore(0x40, 0x80)\n  callvalue\n    /* \"--CODEGEN--\":5:14   */\n  dup1\n    /* \"--CODEGEN--\":2:4   */\n  iszero\n  tag_1\n  jumpi\n    /* \"--CODEGEN--\":27:28   */\n  0x00\n    /* \"--CODEGEN--\":24:25   */\n  dup1\n    /* \"--CODEGEN--\":17:29   */\n  revert\n    /* \"--CODEGEN--\":2:4   */\ntag_1:\n    /* \"Tipos de variables y operadores/comprar strings.sol\":92:333  contract compararString{\r... */\n  pop\n  dataSize(sub_0)\n  dup1\n  dataOffset(sub_0)\n  0x00\n  codecopy\n  0x00\n  return\nstop\n\nsub_0: assembly {\n        /* \"Tipos de variables y operadores/comprar strings.sol\":92:333  contract compararString{\r... */\n      mstore(0x40, 0x80)\n      callvalue\n        /* \"--CODEGEN--\":5:14   */\n      dup1\n        /* \"--CODEGEN--\":2:4   */\n      iszero\n      tag_1\n      jumpi\n        /* \"--CODEGEN--\":27:28   */\n      0x00\n        /* \"--CODEGEN--\":24:25   */\n      dup1\n        /* \"--CODEGEN--\":17:29   */\n      revert\n        /* \"--CODEGEN--\":2:4   */\n    tag_1:\n        /* \"Tipos de variables y operadores/comprar strings.sol\":92:333  contract compararString{\r... */\n      pop\n      jumpi(tag_2, lt(calldatasize, 0x04))\n      shr(0xe0, calldataload(0x00))\n      dup1\n      0x32af93f7\n      eq\n      tag_3\n      jumpi\n    tag_2:\n        /* \"--CODEGEN--\":12:13   */\n      0x00\n        /* \"--CODEGEN--\":9:10   */\n      dup1\n        /* \"--CODEGEN--\":2:14   */\n      revert\n        /* \"Tipos de variables y operadores/comprar strings.sol\":124:330  function comparar(string memory _i, string memory _j) public view returns (bool){\r... */\n    tag_3:\n      tag_4\n      0x04\n      dup1\n      calldatasize\n      sub\n      dup2\n      add\n      swap1\n      tag_5\n      swap2\n      swap1\n      jump(tag_6)\n    tag_5:\n      tag_7\n      jump\t// in\n    tag_4:\n      mload(0x40)\n      tag_8\n      swap2\n      swap1\n      jump(tag_9)\n    tag_8:\n      mload(0x40)\n      dup1\n      swap2\n      sub\n      swap1\n      return\n    tag_7:\n        /* \"Tipos de variables y operadores/comprar strings.sol\":199:203  bool */\n      0x00\n        /* \"Tipos de variables y operadores/comprar strings.sol\":215:229  bytes32 hash_i */\n      dup1\n        /* \"Tipos de variables y operadores/comprar strings.sol\":259:261  _i */\n      dup4\n        /* \"Tipos de variables y operadores/comprar strings.sol\":242:262  abi.encodePacked(_i) */\n      add(0x20, mload(0x40))\n      tag_11\n      swap2\n      swap1\n      jump(tag_12)\n    tag_11:\n      mload(0x40)\n        /* \"--CODEGEN--\":49:53   */\n      0x20\n        /* \"--CODEGEN--\":39:46   */\n      dup2\n        /* \"--CODEGEN--\":30:37   */\n      dup4\n        /* \"--CODEGEN--\":26:47   */\n      sub\n        /* \"--CODEGEN--\":22:54   */\n      sub\n        /* \"--CODEGEN--\":13:20   */\n      dup2\n        /* \"--CODEGEN--\":6:55   */\n      mstore\n        /* \"Tipos de variables y operadores/comprar strings.sol\":242:262  abi.encodePacked(_i) */\n      swap1\n      0x40\n      mstore\n        /* \"Tipos de variables y operadores/comprar strings.sol\":232:263  keccak256(abi.encodePacked(_i)) */\n      dup1\n      mload\n      swap1\n      0x20\n      add\n      keccak256\n        /* \"Tipos de variables y operadores/comprar strings.sol\":215:263  bytes32 hash_i = keccak256(abi.encodePacked(_i)) */\n      swap1\n      pop\n        /* \"Tipos de variables y operadores/comprar strings.sol\":274:288  bytes32 hash_y */\n      0x00\n        /* \"Tipos de variables y operadores/comprar strings.sol\":318:320  _j */\n      dup4\n        /* \"Tipos de variables y operadores/comprar strings.sol\":301:321  abi.encodePacked(_j) */\n      add(0x20, mload(0x40))\n      tag_13\n      swap2\n      swap1\n      jump(tag_12)\n    tag_13:\n      mload(0x40)\n        /* \"--CODEGEN--\":49:53   */\n      0x20\n        /* \"--CODEGEN--\":39:46   */\n      dup2\n        /* \"--CODEGEN--\":30:37   */\n      dup4\n        /* \"--CODEGEN--\":26:47   */\n      sub\n        /* \"--CODEGEN--\":22:54   */\n      sub\n        /* \"--CODEGEN--\":13:20   */\n      dup2\n        /* \"--CODEGEN--\":6:55   */\n      mstore\n        /* \"Tipos de variables y operadores/comprar strings.sol\":301:321  abi.encodePacked(_j) */\n      swap1\n      0x40\n      mstore\n        /* \"Tipos de variables y operadores/comprar strings.sol\":291:322  keccak256(abi.encodePacked(_j)) */\n      dup1\n      mload\n      swap1\n      0x20\n      add\n      keccak256\n        /* \"Tipos de variables y operadores/comprar strings.sol\":274:322  bytes32 hash_y = keccak256(abi.encodePacked(_j)) */\n      swap1\n      pop\n        /* \"Tipos de variables y operadores/comprar strings.sol\":124:330  function comparar(string memory _i, string memory _j) public view returns (bool){\r... */\n      pop\n      pop\n      swap3\n      swap2\n      pop\n      pop\n      jump\t// out\n        /* \"--CODEGEN--\":6:448   */\n    tag_15:\n      0x00\n        /* \"--CODEGEN--\":108:111   */\n      dup3\n        /* \"--CODEGEN--\":101:105   */\n      0x1f\n        /* \"--CODEGEN--\":93:99   */\n      dup4\n        /* \"--CODEGEN--\":89:106   */\n      add\n        /* \"--CODEGEN--\":85:112   */\n      slt\n        /* \"--CODEGEN--\":75:77   */\n      tag_17\n      jumpi\n        /* \"--CODEGEN--\":126:127   */\n      0x00\n        /* \"--CODEGEN--\":123:124   */\n      dup1\n        /* \"--CODEGEN--\":116:128   */\n      revert\n        /* \"--CODEGEN--\":75:77   */\n    tag_17:\n        /* \"--CODEGEN--\":163:169   */\n      dup2\n        /* \"--CODEGEN--\":150:170   */\n      calldataload\n        /* \"--CODEGEN--\":185:250   */\n      tag_18\n        /* \"--CODEGEN--\":200:249   */\n      tag_19\n        /* \"--CODEGEN--\":242:248   */\n      dup3\n        /* \"--CODEGEN--\":200:249   */\n      jump(tag_20)\n    tag_19:\n        /* \"--CODEGEN--\":185:250   */\n      jump(tag_21)\n    tag_18:\n        /* \"--CODEGEN--\":176:250   */\n      swap2\n      pop\n        /* \"--CODEGEN--\":270:276   */\n      dup1\n        /* \"--CODEGEN--\":263:268   */\n      dup3\n        /* \"--CODEGEN--\":256:277   */\n      mstore\n        /* \"--CODEGEN--\":306:310   */\n      0x20\n        /* \"--CODEGEN--\":298:304   */\n      dup4\n        /* \"--CODEGEN--\":294:311   */\n      add\n        /* \"--CODEGEN--\":339:343   */\n      0x20\n        /* \"--CODEGEN--\":332:337   */\n      dup4\n        /* \"--CODEGEN--\":328:344   */\n      add\n        /* \"--CODEGEN--\":374:377   */\n      dup6\n        /* \"--CODEGEN--\":365:371   */\n      dup4\n        /* \"--CODEGEN--\":360:363   */\n      dup4\n        /* \"--CODEGEN--\":356:372   */\n      add\n        /* \"--CODEGEN--\":353:378   */\n      gt\n        /* \"--CODEGEN--\":350:352   */\n      iszero\n      tag_22\n      jumpi\n        /* \"--CODEGEN--\":391:392   */\n      0x00\n        /* \"--CODEGEN--\":388:389   */\n      dup1\n        /* \"--CODEGEN--\":381:393   */\n      revert\n        /* \"--CODEGEN--\":350:352   */\n    tag_22:\n        /* \"--CODEGEN--\":401:442   */\n      tag_23\n        /* \"--CODEGEN--\":435:441   */\n      dup4\n        /* \"--CODEGEN--\":430:433   */\n      dup3\n        /* \"--CODEGEN--\":425:428   */\n      dup5\n        /* \"--CODEGEN--\":401:442   */\n      jump(tag_24)\n    tag_23:\n        /* \"--CODEGEN--\":68:448   */\n      pop\n      pop\n      pop\n      swap3\n      swap2\n      pop\n      pop\n      jump\n        /* \"--CODEGEN--\":456:1034   */\n    tag_6:\n      0x00\n      dup1\n        /* \"--CODEGEN--\":597:599   */\n      0x40\n        /* \"--CODEGEN--\":585:594   */\n      dup4\n        /* \"--CODEGEN--\":576:583   */\n      dup6\n        /* \"--CODEGEN--\":572:595   */\n      sub\n        /* \"--CODEGEN--\":568:600   */\n      slt\n        /* \"--CODEGEN--\":565:567   */\n      iszero\n      tag_26\n      jumpi\n        /* \"--CODEGEN--\":613:614   */\n      0x00\n        /* \"--CODEGEN--\":610:611   */\n      dup1\n        /* \"--CODEGEN--\":603:615   */\n      revert\n        /* \"--CODEGEN--\":565:567   */\n    tag_26:\n        /* \"--CODEGEN--\":676:677   */\n      0x00\n        /* \"--CODEGEN--\":665:674   */\n      dup4\n        /* \"--CODEGEN--\":661:678   */\n      add\n        /* \"--CODEGEN--\":648:679   */\n      calldataload\n        /* \"--CODEGEN--\":699:717   */\n      0xffffffffffffffff\n        /* \"--CODEGEN--\":691:697   */\n      dup2\n        /* \"--CODEGEN--\":688:718   */\n      gt\n        /* \"--CODEGEN--\":685:687   */\n      iszero\n      tag_27\n      jumpi\n        /* \"--CODEGEN--\":731:732   */\n      0x00\n        /* \"--CODEGEN--\":728:729   */\n      dup1\n        /* \"--CODEGEN--\":721:733   */\n      revert\n        /* \"--CODEGEN--\":685:687   */\n    tag_27:\n        /* \"--CODEGEN--\":751:814   */\n      tag_28\n        /* \"--CODEGEN--\":806:813   */\n      dup6\n        /* \"--CODEGEN--\":797:803   */\n      dup3\n        /* \"--CODEGEN--\":786:795   */\n      dup7\n        /* \"--CODEGEN--\":782:804   */\n      add\n        /* \"--CODEGEN--\":751:814   */\n      jump(tag_15)\n    tag_28:\n        /* \"--CODEGEN--\":741:814   */\n      swap3\n      pop\n        /* \"--CODEGEN--\":627:820   */\n      pop\n        /* \"--CODEGEN--\":879:881   */\n      0x20\n        /* \"--CODEGEN--\":868:877   */\n      dup4\n        /* \"--CODEGEN--\":864:882   */\n      add\n        /* \"--CODEGEN--\":851:883   */\n      calldataload\n        /* \"--CODEGEN--\":903:921   */\n      0xffffffffffffffff\n        /* \"--CODEGEN--\":895:901   */\n      dup2\n        /* \"--CODEGEN--\":892:922   */\n      gt\n        /* \"--CODEGEN--\":889:891   */\n      iszero\n      tag_29\n      jumpi\n        /* \"--CODEGEN--\":935:936   */\n      0x00\n        /* \"--CODEGEN--\":932:933   */\n      dup1\n        /* \"--CODEGEN--\":925:937   */\n      revert\n        /* \"--CODEGEN--\":889:891   */\n    tag_29:\n        /* \"--CODEGEN--\":955:1018   */\n      tag_30\n        /* \"--CODEGEN--\":1010:1017   */\n      dup6\n        /* \"--CODEGEN--\":1001:1007   */\n      dup3\n        /* \"--CODEGEN--\":990:999   */\n      dup7\n        /* \"--CODEGEN--\":986:1008   */\n      add\n        /* \"--CODEGEN--\":955:1018   */\n      jump(tag_15)\n    tag_30:\n        /* \"--CODEGEN--\":945:1018   */\n      swap2\n      pop\n        /* \"--CODEGEN--\":830:1024   */\n      pop\n        /* \"--CODEGEN--\":559:1034   */\n      swap3\n      pop\n      swap3\n      swap1\n      pop\n      jump\n        /* \"--CODEGEN--\":1041:1145   */\n    tag_31:\n        /* \"--CODEGEN--\":1118:1139   */\n      tag_33\n        /* \"--CODEGEN--\":1133:1138   */\n      dup2\n        /* \"--CODEGEN--\":1118:1139   */\n      jump(tag_34)\n    tag_33:\n        /* \"--CODEGEN--\":1113:1116   */\n      dup3\n        /* \"--CODEGEN--\":1106:1140   */\n      mstore\n        /* \"--CODEGEN--\":1100:1145   */\n      pop\n      pop\n      jump\n        /* \"--CODEGEN--\":1152:1512   */\n    tag_35:\n      0x00\n        /* \"--CODEGEN--\":1282:1321   */\n      tag_37\n        /* \"--CODEGEN--\":1315:1320   */\n      dup3\n        /* \"--CODEGEN--\":1282:1321   */\n      jump(tag_38)\n    tag_37:\n        /* \"--CODEGEN--\":1333:1422   */\n      tag_39\n        /* \"--CODEGEN--\":1415:1421   */\n      dup2\n        /* \"--CODEGEN--\":1410:1413   */\n      dup6\n        /* \"--CODEGEN--\":1333:1422   */\n      jump(tag_40)\n    tag_39:\n        /* \"--CODEGEN--\":1326:1422   */\n      swap4\n      pop\n        /* \"--CODEGEN--\":1427:1479   */\n      tag_41\n        /* \"--CODEGEN--\":1472:1478   */\n      dup2\n        /* \"--CODEGEN--\":1467:1470   */\n      dup6\n        /* \"--CODEGEN--\":1460:1464   */\n      0x20\n        /* \"--CODEGEN--\":1453:1458   */\n      dup7\n        /* \"--CODEGEN--\":1449:1465   */\n      add\n        /* \"--CODEGEN--\":1427:1479   */\n      jump(tag_42)\n    tag_41:\n        /* \"--CODEGEN--\":1500:1506   */\n      dup1\n        /* \"--CODEGEN--\":1495:1498   */\n      dup5\n        /* \"--CODEGEN--\":1491:1507   */\n      add\n        /* \"--CODEGEN--\":1484:1507   */\n      swap2\n      pop\n        /* \"--CODEGEN--\":1262:1512   */\n      pop\n      swap3\n      swap2\n      pop\n      pop\n      jump\n        /* \"--CODEGEN--\":1519:1785   */\n    tag_12:\n      0x00\n        /* \"--CODEGEN--\":1665:1760   */\n      tag_44\n        /* \"--CODEGEN--\":1756:1759   */\n      dup3\n        /* \"--CODEGEN--\":1747:1753   */\n      dup5\n        /* \"--CODEGEN--\":1665:1760   */\n      jump(tag_35)\n    tag_44:\n        /* \"--CODEGEN--\":1658:1760   */\n      swap2\n      pop\n        /* \"--CODEGEN--\":1777:1780   */\n      dup2\n        /* \"--CODEGEN--\":1770:1780   */\n      swap1\n      pop\n        /* \"--CODEGEN--\":1646:1785   */\n      swap3\n      swap2\n      pop\n      pop\n      jump\n        /* \"--CODEGEN--\":1792:1993   */\n    tag_9:\n      0x00\n        /* \"--CODEGEN--\":1904:1906   */\n      0x20\n        /* \"--CODEGEN--\":1893:1902   */\n      dup3\n        /* \"--CODEGEN--\":1889:1907   */\n      add\n        /* \"--CODEGEN--\":1881:1907   */\n      swap1\n      pop\n        /* \"--CODEGEN--\":1918:1983   */\n      tag_46\n        /* \"--CODEGEN--\":1980:1981   */\n      0x00\n        /* \"--CODEGEN--\":1969:1978   */\n      dup4\n        /* \"--CODEGEN--\":1965:1982   */\n      add\n        /* \"--CODEGEN--\":1956:1962   */\n      dup5\n        /* \"--CODEGEN--\":1918:1983   */\n      jump(tag_31)\n    tag_46:\n        /* \"--CODEGEN--\":1875:1993   */\n      swap3\n      swap2\n      pop\n      pop\n      jump\n        /* \"--CODEGEN--\":2000:2256   */\n    tag_21:\n      0x00\n        /* \"--CODEGEN--\":2062:2064   */\n      0x40\n        /* \"--CODEGEN--\":2056:2065   */\n      mload\n        /* \"--CODEGEN--\":2046:2065   */\n      swap1\n      pop\n        /* \"--CODEGEN--\":2100:2104   */\n      dup2\n        /* \"--CODEGEN--\":2092:2098   */\n      dup2\n        /* \"--CODEGEN--\":2088:2105   */\n      add\n        /* \"--CODEGEN--\":2199:2205   */\n      dup2\n        /* \"--CODEGEN--\":2187:2197   */\n      dup2\n        /* \"--CODEGEN--\":2184:2206   */\n      lt\n        /* \"--CODEGEN--\":2163:2181   */\n      0xffffffffffffffff\n        /* \"--CODEGEN--\":2151:2161   */\n      dup3\n        /* \"--CODEGEN--\":2148:2182   */\n      gt\n        /* \"--CODEGEN--\":2145:2207   */\n      or\n        /* \"--CODEGEN--\":2142:2144   */\n      iszero\n      tag_48\n      jumpi\n        /* \"--CODEGEN--\":2220:2221   */\n      0x00\n        /* \"--CODEGEN--\":2217:2218   */\n      dup1\n        /* \"--CODEGEN--\":2210:2222   */\n      revert\n        /* \"--CODEGEN--\":2142:2144   */\n    tag_48:\n        /* \"--CODEGEN--\":2240:2250   */\n      dup1\n        /* \"--CODEGEN--\":2236:2238   */\n      0x40\n        /* \"--CODEGEN--\":2229:2251   */\n      mstore\n        /* \"--CODEGEN--\":2040:2256   */\n      pop\n      swap2\n      swap1\n      pop\n      jump\n        /* \"--CODEGEN--\":2263:2585   */\n    tag_20:\n      0x00\n        /* \"--CODEGEN--\":2407:2425   */\n      0xffffffffffffffff\n        /* \"--CODEGEN--\":2399:2405   */\n      dup3\n        /* \"--CODEGEN--\":2396:2426   */\n      gt\n        /* \"--CODEGEN--\":2393:2395   */\n      iszero\n      tag_50\n      jumpi\n        /* \"--CODEGEN--\":2439:2440   */\n      0x00\n        /* \"--CODEGEN--\":2436:2437   */\n      dup1\n        /* \"--CODEGEN--\":2429:2441   */\n      revert\n        /* \"--CODEGEN--\":2393:2395   */\n    tag_50:\n        /* \"--CODEGEN--\":2506:2510   */\n      0x1f\n        /* \"--CODEGEN--\":2502:2511   */\n      not\n        /* \"--CODEGEN--\":2495:2499   */\n      0x1f\n        /* \"--CODEGEN--\":2487:2493   */\n      dup4\n        /* \"--CODEGEN--\":2483:2500   */\n      add\n        /* \"--CODEGEN--\":2479:2512   */\n      and\n        /* \"--CODEGEN--\":2471:2512   */\n      swap1\n      pop\n        /* \"--CODEGEN--\":2570:2574   */\n      0x20\n        /* \"--CODEGEN--\":2564:2568   */\n      dup2\n        /* \"--CODEGEN--\":2560:2575   */\n      add\n        /* \"--CODEGEN--\":2552:2575   */\n      swap1\n      pop\n        /* \"--CODEGEN--\":2330:2585   */\n      swap2\n      swap1\n      pop\n      jump\n        /* \"--CODEGEN--\":2592:2714   */\n    tag_38:\n      0x00\n        /* \"--CODEGEN--\":2686:2691   */\n      dup2\n        /* \"--CODEGEN--\":2680:2692   */\n      mload\n        /* \"--CODEGEN--\":2670:2692   */\n      swap1\n      pop\n        /* \"--CODEGEN--\":2651:2714   */\n      swap2\n      swap1\n      pop\n      jump\n        /* \"--CODEGEN--\":2722:2867   */\n    tag_40:\n      0x00\n        /* \"--CODEGEN--\":2858:2861   */\n      dup2\n        /* \"--CODEGEN--\":2843:2861   */\n      swap1\n      pop\n        /* \"--CODEGEN--\":2836:2867   */\n      swap3\n      swap2\n      pop\n      pop\n      jump\n        /* \"--CODEGEN--\":2875:2960   */\n    tag_34:\n      0x00\n        /* \"--CODEGEN--\":2948:2953   */\n      dup2\n        /* \"--CODEGEN--\":2941:2954   */\n      iszero\n        /* \"--CODEGEN--\":2934:2955   */\n      iszero\n        /* \"--CODEGEN--\":2923:2955   */\n      swap1\n      pop\n        /* \"--CODEGEN--\":2917:2960   */\n      swap2\n      swap1\n      pop\n      jump\n        /* \"--CODEGEN--\":2968:3113   */\n    tag_24:\n        /* \"--CODEGEN--\":3049:3055   */\n      dup3\n        /* \"--CODEGEN--\":3044:3047   */\n      dup2\n        /* \"--CODEGEN--\":3039:3042   */\n      dup4\n        /* \"--CODEGEN--\":3026:3056   */\n      calldatacopy\n        /* \"--CODEGEN--\":3105:3106   */\n      0x00\n        /* \"--CODEGEN--\":3096:3102   */\n      dup4\n        /* \"--CODEGEN--\":3091:3094   */\n      dup4\n        /* \"--CODEGEN--\":3087:3103   */\n      add\n        /* \"--CODEGEN--\":3080:3107   */\n      mstore\n        /* \"--CODEGEN--\":3019:3113   */\n      pop\n      pop\n      pop\n      jump\n        /* \"--CODEGEN--\":3122:3390   */\n    tag_42:\n        /* \"--CODEGEN--\":3187:3188   */\n      0x00\n        /* \"--CODEGEN--\":3194:3295   */\n    tag_56:\n        /* \"--CODEGEN--\":3208:3214   */\n      dup4\n        /* \"--CODEGEN--\":3205:3206   */\n      dup2\n        /* \"--CODEGEN--\":3202:3215   */\n      lt\n        /* \"--CODEGEN--\":3194:3295   */\n      iszero\n      tag_58\n      jumpi\n        /* \"--CODEGEN--\":3284:3285   */\n      dup1\n        /* \"--CODEGEN--\":3279:3282   */\n      dup3\n        /* \"--CODEGEN--\":3275:3286   */\n      add\n        /* \"--CODEGEN--\":3269:3287   */\n      mload\n        /* \"--CODEGEN--\":3265:3266   */\n      dup2\n        /* \"--CODEGEN--\":3260:3263   */\n      dup5\n        /* \"--CODEGEN--\":3256:3267   */\n      add\n        /* \"--CODEGEN--\":3249:3288   */\n      mstore\n        /* \"--CODEGEN--\":3230:3232   */\n      0x20\n        /* \"--CODEGEN--\":3227:3228   */\n      dup2\n        /* \"--CODEGEN--\":3223:3233   */\n      add\n        /* \"--CODEGEN--\":3218:3233   */\n      swap1\n      pop\n        /* \"--CODEGEN--\":3194:3295   */\n      jump(tag_56)\n    tag_58:\n        /* \"--CODEGEN--\":3310:3316   */\n      dup4\n        /* \"--CODEGEN--\":3307:3308   */\n      dup2\n        /* \"--CODEGEN--\":3304:3317   */\n      gt\n        /* \"--CODEGEN--\":3301:3303   */\n      iszero\n      tag_59\n      jumpi\n        /* \"--CODEGEN--\":3375:3376   */\n      0x00\n        /* \"--CODEGEN--\":3366:3372   */\n      dup5\n        /* \"--CODEGEN--\":3361:3364   */\n      dup5\n        /* \"--CODEGEN--\":3357:3373   */\n      add\n        /* \"--CODEGEN--\":3350:3377   */\n      mstore\n        /* \"--CODEGEN--\":3301:3303   */\n    tag_59:\n        /* \"--CODEGEN--\":3171:3390   */\n      pop\n      pop\n      pop\n      pop\n      jump\n\n    auxdata: 0xa2646970667358221220259668cbc182a378127928ee89270ae08e6b7275f340a29efb18897e5c04a15d64736f6c63430006050033\n}\n",
				"bytecode": {
					"linkReferences": {},
					"object": "608060405234801561001057600080fd5b506102e4806100206000396000f3fe608060405234801561001057600080fd5b506004361061002b5760003560e01c806332af93f714610030575b600080fd5b61004a60048036038101906100459190610113565b610060565b60405161005791906101d6565b60405180910390f35b6000808360405160200161007491906101bf565b60405160208183030381529060405280519060200120905060008360405160200161009f91906101bf565b604051602081830303815290604052805190602001209050505092915050565b600082601f8301126100d057600080fd5b81356100e36100de8261021e565b6101f1565b915080825260208301602083018583830111156100ff57600080fd5b61010a83828461026c565b50505092915050565b6000806040838503121561012657600080fd5b600083013567ffffffffffffffff81111561014057600080fd5b61014c858286016100bf565b925050602083013567ffffffffffffffff81111561016957600080fd5b610175858286016100bf565b9150509250929050565b61018881610260565b82525050565b60006101998261024a565b6101a38185610255565b93506101b381856020860161027b565b80840191505092915050565b60006101cb828461018e565b915081905092915050565b60006020820190506101eb600083018461017f565b92915050565b6000604051905081810181811067ffffffffffffffff8211171561021457600080fd5b8060405250919050565b600067ffffffffffffffff82111561023557600080fd5b601f19601f8301169050602081019050919050565b600081519050919050565b600081905092915050565b60008115159050919050565b82818337600083830152505050565b60005b8381101561029957808201518184015260208101905061027e565b838111156102a8576000848401525b5050505056fea2646970667358221220259668cbc182a378127928ee89270ae08e6b7275f340a29efb18897e5c04a15d64736f6c63430006050033",
					"opcodes": "PUSH1 0x80 PUSH1 0x40 MSTORE CALLVALUE DUP1 ISZERO PUSH2 0x10 JUMPI PUSH1 0x0 DUP1 REVERT JUMPDEST POP PUSH2 0x2E4 DUP1 PUSH2 0x20 PUSH1 0x0 CODECOPY PUSH1 0x0 RETURN INVALID PUSH1 0x80 PUSH1 0x40 MSTORE CALLVALUE DUP1 ISZERO PUSH2 0x10 JUMPI PUSH1 0x0 DUP1 REVERT JUMPDEST POP PUSH1 0x4 CALLDATASIZE LT PUSH2 0x2B JUMPI PUSH1 0x0 CALLDATALOAD PUSH1 0xE0 SHR DUP1 PUSH4 0x32AF93F7 EQ PUSH2 0x30 JUMPI JUMPDEST PUSH1 0x0 DUP1 REVERT JUMPDEST PUSH2 0x4A PUSH1 0x4 DUP1 CALLDATASIZE SUB DUP2 ADD SWAP1 PUSH2 0x45 SWAP2 SWAP1 PUSH2 0x113 JUMP JUMPDEST PUSH2 0x60 JUMP JUMPDEST PUSH1 0x40 MLOAD PUSH2 0x57 SWAP2 SWAP1 PUSH2 0x1D6 JUMP JUMPDEST PUSH1 0x40 MLOAD DUP1 SWAP2 SUB SWAP1 RETURN JUMPDEST PUSH1 0x0 DUP1 DUP4 PUSH1 0x40 MLOAD PUSH1 0x20 ADD PUSH2 0x74 SWAP2 SWAP1 PUSH2 0x1BF JUMP JUMPDEST PUSH1 0x40 MLOAD PUSH1 0x20 DUP2 DUP4 SUB SUB DUP2 MSTORE SWAP1 PUSH1 0x40 MSTORE DUP1 MLOAD SWAP1 PUSH1 0x20 ADD KECCAK256 SWAP1 POP PUSH1 0x0 DUP4 PUSH1 0x40 MLOAD PUSH1 0x20 ADD PUSH2 0x9F SWAP2 SWAP1 PUSH2 0x1BF JUMP JUMPDEST PUSH1 0x40 MLOAD PUSH1 0x20 DUP2 DUP4 SUB SUB DUP2 MSTORE SWAP1 PUSH1 0x40 MSTORE DUP1 MLOAD SWAP1 PUSH1 0x20 ADD KECCAK256 SWAP1 POP POP POP SWAP3 SWAP2 POP POP JUMP JUMPDEST PUSH1 0x0 DUP3 PUSH1 0x1F DUP4 ADD SLT PUSH2 0xD0 JUMPI PUSH1 0x0 DUP1 REVERT JUMPDEST DUP2 CALLDATALOAD PUSH2 0xE3 PUSH2 0xDE DUP3 PUSH2 0x21E JUMP JUMPDEST PUSH2 0x1F1 JUMP JUMPDEST SWAP2 POP DUP1 DUP3 MSTORE PUSH1 0x20 DUP4 ADD PUSH1 0x20 DUP4 ADD DUP6 DUP4 DUP4 ADD GT ISZERO PUSH2 0xFF JUMPI PUSH1 0x0 DUP1 REVERT JUMPDEST PUSH2 0x10A DUP4 DUP3 DUP5 PUSH2 0x26C JUMP JUMPDEST POP POP POP SWAP3 SWAP2 POP POP JUMP JUMPDEST PUSH1 0x0 DUP1 PUSH1 0x40 DUP4 DUP6 SUB SLT ISZERO PUSH2 0x126 JUMPI PUSH1 0x0 DUP1 REVERT JUMPDEST PUSH1 0x0 DUP4 ADD CALLDATALOAD PUSH8 0xFFFFFFFFFFFFFFFF DUP2 GT ISZERO PUSH2 0x140 JUMPI PUSH1 0x0 DUP1 REVERT JUMPDEST PUSH2 0x14C DUP6 DUP3 DUP7 ADD PUSH2 0xBF JUMP JUMPDEST SWAP3 POP POP PUSH1 0x20 DUP4 ADD CALLDATALOAD PUSH8 0xFFFFFFFFFFFFFFFF DUP2 GT ISZERO PUSH2 0x169 JUMPI PUSH1 0x0 DUP1 REVERT JUMPDEST PUSH2 0x175 DUP6 DUP3 DUP7 ADD PUSH2 0xBF JUMP JUMPDEST SWAP2 POP POP SWAP3 POP SWAP3 SWAP1 POP JUMP JUMPDEST PUSH2 0x188 DUP2 PUSH2 0x260 JUMP JUMPDEST DUP3 MSTORE POP POP JUMP JUMPDEST PUSH1 0x0 PUSH2 0x199 DUP3 PUSH2 0x24A JUMP JUMPDEST PUSH2 0x1A3 DUP2 DUP6 PUSH2 0x255 JUMP JUMPDEST SWAP4 POP PUSH2 0x1B3 DUP2 DUP6 PUSH1 0x20 DUP7 ADD PUSH2 0x27B JUMP JUMPDEST DUP1 DUP5 ADD SWAP2 POP POP SWAP3 SWAP2 POP POP JUMP JUMPDEST PUSH1 0x0 PUSH2 0x1CB DUP3 DUP5 PUSH2 0x18E JUMP JUMPDEST SWAP2 POP DUP2 SWAP1 POP SWAP3 SWAP2 POP POP JUMP JUMPDEST PUSH1 0x0 PUSH1 0x20 DUP3 ADD SWAP1 POP PUSH2 0x1EB PUSH1 0x0 DUP4 ADD DUP5 PUSH2 0x17F JUMP JUMPDEST SWAP3 SWAP2 POP POP JUMP JUMPDEST PUSH1 0x0 PUSH1 0x40 MLOAD SWAP1 POP DUP2 DUP2 ADD DUP2 DUP2 LT PUSH8 0xFFFFFFFFFFFFFFFF DUP3 GT OR ISZERO PUSH2 0x214 JUMPI PUSH1 0x0 DUP1 REVERT JUMPDEST DUP1 PUSH1 0x40 MSTORE POP SWAP2 SWAP1 POP JUMP JUMPDEST PUSH1 0x0 PUSH8 0xFFFFFFFFFFFFFFFF DUP3 GT ISZERO PUSH2 0x235 JUMPI PUSH1 0x0 DUP1 REVERT JUMPDEST PUSH1 0x1F NOT PUSH1 0x1F DUP4 ADD AND SWAP1 POP PUSH1 0x20 DUP2 ADD SWAP1 POP SWAP2 SWAP1 POP JUMP JUMPDEST PUSH1 0x0 DUP2 MLOAD SWAP1 POP SWAP2 SWAP1 POP JUMP JUMPDEST PUSH1 0x0 DUP2 SWAP1 POP SWAP3 SWAP2 POP POP JUMP JUMPDEST PUSH1 0x0 DUP2 ISZERO ISZERO SWAP1 POP SWAP2 SWAP1 POP JUMP JUMPDEST DUP3 DUP2 DUP4 CALLDATACOPY PUSH1 0x0 DUP4 DUP4 ADD MSTORE POP POP POP JUMP JUMPDEST PUSH1 0x0 JUMPDEST DUP4 DUP2 LT ISZERO PUSH2 0x299 JUMPI DUP1 DUP3 ADD MLOAD DUP2 DUP5 ADD MSTORE PUSH1 0x20 DUP2 ADD SWAP1 POP PUSH2 0x27E JUMP JUMPDEST DUP4 DUP2 GT ISZERO PUSH2 0x2A8 JUMPI PUSH1 0x0 DUP5 DUP5 ADD MSTORE JUMPDEST POP POP POP POP JUMP INVALID LOG2 PUSH5 0x6970667358 0x22 SLT KECCAK256 0x25 SWAP7 PUSH9 0xCBC182A378127928EE DUP10 0x27 EXP 0xE0 DUP15 PUSH12 0x7275F340A29EFB18897E5C04 LOG1 0x5D PUSH5 0x736F6C6343 STOP MOD SDIV STOP CALLER "
				},
				"gasEstimates": {
					"creation": {
						"codeDepositCost": "148000",
						"executionCost": "196",
						"totalCost": "148196"
					},
					"external": {
						"comparar(string,string)": "infinite"
					}
				},
				"methodIdentifiers": {
					"comparar(string,string)": "32af93f7"
				}
			},
			"storageLayout": {
				"storage": [],
				"types": null
			},
			"userdoc": {
				"methods": {}
			}
		}
	}
}