{
	"Tipos de variables y operadores/casteo variables.sol": {
		"Casteo": {
			"abi": [
				{
					"inputs": [],
					"name": "casteo1",
					"outputs": [
						{
							"internalType": "uint64",
							"name": "",
							"type": "uint64"
						}
					],
					"stateMutability": "view",
					"type": "function"
				}
			],
			"devdoc": {
				"methods": {}
			},
			"evm": {
				"assembly": "    /* \"Tipos de variables y operadores/casteo variables.sol\":37:387  contract Casteo{\r... */\n  mstore(0x40, 0x80)\n    /* \"Tipos de variables y operadores/casteo variables.sol\":125:127  42 */\n  0x2a\n    /* \"Tipos de variables y operadores/casteo variables.sol\":103:127  uint8 entero_8_bits = 42 */\n  0x00\n  dup1\n  0x0100\n  exp\n  dup2\n  sload\n  dup2\n  0xff\n  mul\n  not\n  and\n  swap1\n  dup4\n  0xff\n  and\n  mul\n  or\n  swap1\n  sstore\n  pop\n    /* \"Tipos de variables y operadores/casteo variables.sol\":158:163  60000 */\n  0xea60\n    /* \"Tipos de variables y operadores/casteo variables.sol\":134:163  uint64 entero_64_bits = 60000 */\n  0x00\n  exp(0x0100, 0x01)\n  dup2\n  sload\n  dup2\n  0xffffffffffffffff\n  mul\n  not\n  and\n  swap1\n  dup4\n  0xffffffffffffffff\n  and\n  mul\n  or\n  swap1\n  sstore\n  pop\n    /* \"Tipos de variables y operadores/casteo variables.sol\":193:200  1000000 */\n  0x0f4240\n    /* \"Tipos de variables y operadores/casteo variables.sol\":170:200  uint entero_256_bits = 1000000 */\n  0x01\n  sstore\n    /* \"Tipos de variables y operadores/casteo variables.sol\":228:231  156 */\n  0x9c\n    /* \"Tipos de variables y operadores/casteo variables.sol\":207:231  int entero_16_bits = 156 */\n  0x02\n  sstore\n    /* \"Tipos de variables y operadores/casteo variables.sol\":260:266  900000 */\n  0x0dbba0\n    /* \"Tipos de variables y operadores/casteo variables.sol\":238:266  int entero_120_bits = 900000 */\n  0x03\n  sstore\n    /* \"Tipos de variables y operadores/casteo variables.sol\":286:293  5000000 */\n  0x4c4b40\n    /* \"Tipos de variables y operadores/casteo variables.sol\":273:293  int entero = 5000000 */\n  0x04\n  sstore\n    /* \"Tipos de variables y operadores/casteo variables.sol\":365:378  entero_8_bits */\n  0x00\n  dup1\n  swap1\n  sload\n  swap1\n  0x0100\n  exp\n  swap1\n  div\n  0xff\n  and\n    /* \"Tipos de variables y operadores/casteo variables.sol\":358:379  uint64(entero_8_bits) */\n  0xff\n  and\n    /* \"Tipos de variables y operadores/casteo variables.sol\":334:379  uint64 public casteo1 = uint64(entero_8_bits) */\n  0x05\n  exp(0x0100, 0x00)\n  dup2\n  sload\n  dup2\n  0xffffffffffffffff\n  mul\n  not\n  and\n  swap1\n  dup4\n  0xffffffffffffffff\n  and\n  mul\n  or\n  swap1\n  sstore\n  pop\n    /* \"Tipos de variables y operadores/casteo variables.sol\":37:387  contract Casteo{\r... */\n  callvalue\n    /* \"--CODEGEN--\":5:14   */\n  dup1\n    /* \"--CODEGEN--\":2:4   */\n  iszero\n  tag_1\n  jumpi\n    /* \"--CODEGEN--\":27:28   */\n  0x00\n    /* \"--CODEGEN--\":24:25   */\n  dup1\n    /* \"--CODEGEN--\":17:29   */\n  revert\n    /* \"--CODEGEN--\":2:4   */\ntag_1:\n    /* \"Tipos de variables y operadores/casteo variables.sol\":37:387  contract Casteo{\r... */\n  pop\n  dataSize(sub_0)\n  dup1\n  dataOffset(sub_0)\n  0x00\n  codecopy\n  0x00\n  return\nstop\n\nsub_0: assembly {\n        /* \"Tipos de variables y operadores/casteo variables.sol\":37:387  contract Casteo{\r... */\n      mstore(0x40, 0x80)\n      callvalue\n        /* \"--CODEGEN--\":5:14   */\n      dup1\n        /* \"--CODEGEN--\":2:4   */\n      iszero\n      tag_1\n      jumpi\n        /* \"--CODEGEN--\":27:28   */\n      0x00\n        /* \"--CODEGEN--\":24:25   */\n      dup1\n        /* \"--CODEGEN--\":17:29   */\n      revert\n        /* \"--CODEGEN--\":2:4   */\n    tag_1:\n        /* \"Tipos de variables y operadores/casteo variables.sol\":37:387  contract Casteo{\r... */\n      pop\n      jumpi(tag_2, lt(calldatasize, 0x04))\n      shr(0xe0, calldataload(0x00))\n      dup1\n      0x98856388\n      eq\n      tag_3\n      jumpi\n    tag_2:\n        /* \"--CODEGEN--\":12:13   */\n      0x00\n        /* \"--CODEGEN--\":9:10   */\n      dup1\n        /* \"--CODEGEN--\":2:14   */\n      revert\n        /* \"Tipos de variables y operadores/casteo variables.sol\":334:379  uint64 public casteo1 = uint64(entero_8_bits) */\n    tag_3:\n      tag_4\n      tag_5\n      jump\t// in\n    tag_4:\n      mload(0x40)\n      dup1\n      dup3\n      0xffffffffffffffff\n      and\n      0xffffffffffffffff\n      and\n      dup2\n      mstore\n      0x20\n      add\n      swap2\n      pop\n      pop\n      mload(0x40)\n      dup1\n      swap2\n      sub\n      swap1\n      return\n    tag_5:\n      0x05\n      0x00\n      swap1\n      sload\n      swap1\n      0x0100\n      exp\n      swap1\n      div\n      0xffffffffffffffff\n      and\n      dup2\n      jump\t// out\n\n    auxdata: 0xa26469706673582212207833bc97debfc32107ed7487b1b9292b09d1c01c4d780d08e6cbdf608a30ee4a64736f6c63430006050033\n}\n",
				"bytecode": {
					"linkReferences": {},
					"object": "6080604052602a6000806101000a81548160ff021916908360ff16021790555061ea60600060016101000a81548167ffffffffffffffff021916908367ffffffffffffffff160217905550620f4240600155609c600255620dbba0600355624c4b406004556000809054906101000a900460ff1660ff16600560006101000a81548167ffffffffffffffff021916908367ffffffffffffffff1602179055503480156100aa57600080fd5b5060ad806100b96000396000f3fe6080604052348015600f57600080fd5b506004361060285760003560e01c80639885638814602d575b600080fd5b6033605d565b604051808267ffffffffffffffff1667ffffffffffffffff16815260200191505060405180910390f35b600560009054906101000a900467ffffffffffffffff168156fea26469706673582212207833bc97debfc32107ed7487b1b9292b09d1c01c4d780d08e6cbdf608a30ee4a64736f6c63430006050033",
					"opcodes": "PUSH1 0x80 PUSH1 0x40 MSTORE PUSH1 0x2A PUSH1 0x0 DUP1 PUSH2 0x100 EXP DUP2 SLOAD DUP2 PUSH1 0xFF MUL NOT AND SWAP1 DUP4 PUSH1 0xFF AND MUL OR SWAP1 SSTORE POP PUSH2 0xEA60 PUSH1 0x0 PUSH1 0x1 PUSH2 0x100 EXP DUP2 SLOAD DUP2 PUSH8 0xFFFFFFFFFFFFFFFF MUL NOT AND SWAP1 DUP4 PUSH8 0xFFFFFFFFFFFFFFFF AND MUL OR SWAP1 SSTORE POP PUSH3 0xF4240 PUSH1 0x1 SSTORE PUSH1 0x9C PUSH1 0x2 SSTORE PUSH3 0xDBBA0 PUSH1 0x3 SSTORE PUSH3 0x4C4B40 PUSH1 0x4 SSTORE PUSH1 0x0 DUP1 SWAP1 SLOAD SWAP1 PUSH2 0x100 EXP SWAP1 DIV PUSH1 0xFF AND PUSH1 0xFF AND PUSH1 0x5 PUSH1 0x0 PUSH2 0x100 EXP DUP2 SLOAD DUP2 PUSH8 0xFFFFFFFFFFFFFFFF MUL NOT AND SWAP1 DUP4 PUSH8 0xFFFFFFFFFFFFFFFF AND MUL OR SWAP1 SSTORE POP CALLVALUE DUP1 ISZERO PUSH2 0xAA JUMPI PUSH1 0x0 DUP1 REVERT JUMPDEST POP PUSH1 0xAD DUP1 PUSH2 0xB9 PUSH1 0x0 CODECOPY PUSH1 0x0 RETURN INVALID PUSH1 0x80 PUSH1 0x40 MSTORE CALLVALUE DUP1 ISZERO PUSH1 0xF JUMPI PUSH1 0x0 DUP1 REVERT JUMPDEST POP PUSH1 0x4 CALLDATASIZE LT PUSH1 0x28 JUMPI PUSH1 0x0 CALLDATALOAD PUSH1 0xE0 SHR DUP1 PUSH4 0x98856388 EQ PUSH1 0x2D JUMPI JUMPDEST PUSH1 0x0 DUP1 REVERT JUMPDEST PUSH1 0x33 PUSH1 0x5D JUMP JUMPDEST PUSH1 0x40 MLOAD DUP1 DUP3 PUSH8 0xFFFFFFFFFFFFFFFF AND PUSH8 0xFFFFFFFFFFFFFFFF AND DUP2 MSTORE PUSH1 0x20 ADD SWAP2 POP POP PUSH1 0x40 MLOAD DUP1 SWAP2 SUB SWAP1 RETURN JUMPDEST PUSH1 0x5 PUSH1 0x0 SWAP1 SLOAD SWAP1 PUSH2 0x100 EXP SWAP1 DIV PUSH8 0xFFFFFFFFFFFFFFFF AND DUP2 JUMP INVALID LOG2 PUSH5 0x6970667358 0x22 SLT KECCAK256 PUSH25 0x33BC97DEBFC32107ED7487B1B9292B09D1C01C4D780D08E6CB 0xDF PUSH1 0x8A ADDRESS 0xEE 0x4A PUSH5 0x736F6C6343 STOP MOD SDIV STOP CALLER "
				},
				"gasEstimates": {
					"creation": {
						"codeDepositCost": "34600",
						"executionCost": "143604",
						"totalCost": "178204"
					},
					"external": {
						"casteo1()": "1031"
					}
				},
				"methodIdentifiers": {
					"casteo1()": "98856388"
				}
			},
			"storageLayout": {
				"storage": [
					{
						"astId": 4,
						"contract": "Tipos de variables y operadores/casteo variables.sol:Casteo",
						"label": "entero_8_bits",
						"offset": 0,
						"slot": "0",
						"type": "t_uint8"
					},
					{
						"astId": 7,
						"contract": "Tipos de variables y operadores/casteo variables.sol:Casteo",
						"label": "entero_64_bits",
						"offset": 1,
						"slot": "0",
						"type": "t_uint64"
					},
					{
						"astId": 10,
						"contract": "Tipos de variables y operadores/casteo variables.sol:Casteo",
						"label": "entero_256_bits",
						"offset": 0,
						"slot": "1",
						"type": "t_uint256"
					},
					{
						"astId": 13,
						"contract": "Tipos de variables y operadores/casteo variables.sol:Casteo",
						"label": "entero_16_bits",
						"offset": 0,
						"slot": "2",
						"type": "t_int256"
					},
					{
						"astId": 16,
						"contract": "Tipos de variables y operadores/casteo variables.sol:Casteo",
						"label": "entero_120_bits",
						"offset": 0,
						"slot": "3",
						"type": "t_int256"
					},
					{
						"astId": 19,
						"contract": "Tipos de variables y operadores/casteo variables.sol:Casteo",
						"label": "entero",
						"offset": 0,
						"slot": "4",
						"type": "t_int256"
					},
					{
						"astId": 25,
						"contract": "Tipos de variables y operadores/casteo variables.sol:Casteo",
						"label": "casteo1",
						"offset": 0,
						"slot": "5",
						"type": "t_uint64"
					}
				],
				"types": {
					"t_int256": {
						"encoding": "inplace",
						"label": "int256",
						"numberOfBytes": "32"
					},
					"t_uint256": {
						"encoding": "inplace",
						"label": "uint256",
						"numberOfBytes": "32"
					},
					"t_uint64": {
						"encoding": "inplace",
						"label": "uint64",
						"numberOfBytes": "8"
					},
					"t_uint8": {
						"encoding": "inplace",
						"label": "uint8",
						"numberOfBytes": "1"
					}
				}
			},
			"userdoc": {
				"methods": {}
			}
		}
	}
}