{
	"Tipos de variables y operadores/unidades tiempo.sol": {
		"tiempo": {
			"abi": [
				{
					"inputs": [],
					"name": "MasHoras",
					"outputs": [
						{
							"internalType": "uint256",
							"name": "",
							"type": "uint256"
						}
					],
					"stateMutability": "view",
					"type": "function"
				},
				{
					"inputs": [],
					"name": "MasSegundos",
					"outputs": [
						{
							"internalType": "uint256",
							"name": "",
							"type": "uint256"
						}
					],
					"stateMutability": "view",
					"type": "function"
				},
				{
					"inputs": [],
					"name": "cincuenta_dias",
					"outputs": [
						{
							"internalType": "uint256",
							"name": "",
							"type": "uint256"
						}
					],
					"stateMutability": "view",
					"type": "function"
				},
				{
					"inputs": [],
					"name": "dos_horas",
					"outputs": [
						{
							"internalType": "uint256",
							"name": "",
							"type": "uint256"
						}
					],
					"stateMutability": "view",
					"type": "function"
				},
				{
					"inputs": [],
					"name": "minuto",
					"outputs": [
						{
							"internalType": "uint256",
							"name": "",
							"type": "uint256"
						}
					],
					"stateMutability": "view",
					"type": "function"
				},
				{
					"inputs": [],
					"name": "tiempo_actual",
					"outputs": [
						{
							"internalType": "uint256",
							"name": "",
							"type": "uint256"
						}
					],
					"stateMutability": "view",
					"type": "function"
				},
				{
					"inputs": [],
					"name": "una_semana",
					"outputs": [
						{
							"internalType": "uint256",
							"name": "",
							"type": "uint256"
						}
					],
					"stateMutability": "view",
					"type": "function"
				}
			],
			"devdoc": {
				"methods": {}
			},
			"evm": {
				"assembly": "    /* \"Tipos de variables y operadores/unidades tiempo.sol\":37:472  contract tiempo{\r... */\n  mstore(0x40, 0x80)\n    /* \"Tipos de variables y operadores/unidades tiempo.sol\":116:119  now */\n  timestamp\n    /* \"Tipos de variables y operadores/unidades tiempo.sol\":88:119  uint public tiempo_actual = now */\n  0x00\n  sstore\n    /* \"Tipos de variables y operadores/unidades tiempo.sol\":147:156  1 minutes */\n  0x3c\n    /* \"Tipos de variables y operadores/unidades tiempo.sol\":126:156  uint public minuto = 1 minutes */\n  0x01\n  sstore\n    /* \"Tipos de variables y operadores/unidades tiempo.sol\":187:194  2 hours */\n  0x1c20\n    /* \"Tipos de variables y operadores/unidades tiempo.sol\":163:194  uint public dos_horas = 2 hours */\n  0x02\n  sstore\n    /* \"Tipos de variables y operadores/unidades tiempo.sol\":230:237  50 days */\n  0x41eb00\n    /* \"Tipos de variables y operadores/unidades tiempo.sol\":201:237  uint public cincuenta_dias = 50 days */\n  0x03\n  sstore\n    /* \"Tipos de variables y operadores/unidades tiempo.sol\":269:276  1 weeks */\n  0x093a80\n    /* \"Tipos de variables y operadores/unidades tiempo.sol\":244:276  uint public una_semana = 1 weeks */\n  0x04\n  sstore\n    /* \"Tipos de variables y operadores/unidades tiempo.sol\":37:472  contract tiempo{\r... */\n  callvalue\n    /* \"--CODEGEN--\":5:14   */\n  dup1\n    /* \"--CODEGEN--\":2:4   */\n  iszero\n  tag_1\n  jumpi\n    /* \"--CODEGEN--\":27:28   */\n  0x00\n    /* \"--CODEGEN--\":24:25   */\n  dup1\n    /* \"--CODEGEN--\":17:29   */\n  revert\n    /* \"--CODEGEN--\":2:4   */\ntag_1:\n    /* \"Tipos de variables y operadores/unidades tiempo.sol\":37:472  contract tiempo{\r... */\n  pop\n  dataSize(sub_0)\n  dup1\n  dataOffset(sub_0)\n  0x00\n  codecopy\n  0x00\n  return\nstop\n\nsub_0: assembly {\n        /* \"Tipos de variables y operadores/unidades tiempo.sol\":37:472  contract tiempo{\r... */\n      mstore(0x40, 0x80)\n      callvalue\n        /* \"--CODEGEN--\":5:14   */\n      dup1\n        /* \"--CODEGEN--\":2:4   */\n      iszero\n      tag_1\n      jumpi\n        /* \"--CODEGEN--\":27:28   */\n      0x00\n        /* \"--CODEGEN--\":24:25   */\n      dup1\n        /* \"--CODEGEN--\":17:29   */\n      revert\n        /* \"--CODEGEN--\":2:4   */\n    tag_1:\n        /* \"Tipos de variables y operadores/unidades tiempo.sol\":37:472  contract tiempo{\r... */\n      pop\n      jumpi(tag_2, lt(calldatasize, 0x04))\n      shr(0xe0, calldataload(0x00))\n      dup1\n      0x4f0cea83\n      gt\n      tag_10\n      jumpi\n      dup1\n      0x4f0cea83\n      eq\n      tag_6\n      jumpi\n      dup1\n      0x5a9606a4\n      eq\n      tag_7\n      jumpi\n      dup1\n      0xe70ce4f3\n      eq\n      tag_8\n      jumpi\n      dup1\n      0xe8b1ed29\n      eq\n      tag_9\n      jumpi\n      jump(tag_2)\n    tag_10:\n      dup1\n      0x01a34875\n      eq\n      tag_3\n      jumpi\n      dup1\n      0x108c4abb\n      eq\n      tag_4\n      jumpi\n      dup1\n      0x183289fc\n      eq\n      tag_5\n      jumpi\n    tag_2:\n        /* \"--CODEGEN--\":12:13   */\n      0x00\n        /* \"--CODEGEN--\":9:10   */\n      dup1\n        /* \"--CODEGEN--\":2:14   */\n      revert\n        /* \"Tipos de variables y operadores/unidades tiempo.sol\":285:375  function MasSegundos() public view returns(uint){\r... */\n    tag_3:\n      tag_11\n      tag_12\n      jump\t// in\n    tag_11:\n      mload(0x40)\n      dup1\n      dup3\n      dup2\n      mstore\n      0x20\n      add\n      swap2\n      pop\n      pop\n      mload(0x40)\n      dup1\n      swap2\n      sub\n      swap1\n      return\n        /* \"Tipos de variables y operadores/unidades tiempo.sol\":384:469  function MasHoras() public view returns(uint){\r... */\n    tag_4:\n      tag_13\n      tag_14\n      jump\t// in\n    tag_13:\n      mload(0x40)\n      dup1\n      dup3\n      dup2\n      mstore\n      0x20\n      add\n      swap2\n      pop\n      pop\n      mload(0x40)\n      dup1\n      swap2\n      sub\n      swap1\n      return\n        /* \"Tipos de variables y operadores/unidades tiempo.sol\":244:276  uint public una_semana = 1 weeks */\n    tag_5:\n      tag_15\n      tag_16\n      jump\t// in\n    tag_15:\n      mload(0x40)\n      dup1\n      dup3\n      dup2\n      mstore\n      0x20\n      add\n      swap2\n      pop\n      pop\n      mload(0x40)\n      dup1\n      swap2\n      sub\n      swap1\n      return\n        /* \"Tipos de variables y operadores/unidades tiempo.sol\":201:237  uint public cincuenta_dias = 50 days */\n    tag_6:\n      tag_17\n      tag_18\n      jump\t// in\n    tag_17:\n      mload(0x40)\n      dup1\n      dup3\n      dup2\n      mstore\n      0x20\n      add\n      swap2\n      pop\n      pop\n      mload(0x40)\n      dup1\n      swap2\n      sub\n      swap1\n      return\n        /* \"Tipos de variables y operadores/unidades tiempo.sol\":88:119  uint public tiempo_actual = now */\n    tag_7:\n      tag_19\n      tag_20\n      jump\t// in\n    tag_19:\n      mload(0x40)\n      dup1\n      dup3\n      dup2\n      mstore\n      0x20\n      add\n      swap2\n      pop\n      pop\n      mload(0x40)\n      dup1\n      swap2\n      sub\n      swap1\n      return\n        /* \"Tipos de variables y operadores/unidades tiempo.sol\":126:156  uint public minuto = 1 minutes */\n    tag_8:\n      tag_21\n      tag_22\n      jump\t// in\n    tag_21:\n      mload(0x40)\n      dup1\n      dup3\n      dup2\n      mstore\n      0x20\n      add\n      swap2\n      pop\n      pop\n      mload(0x40)\n      dup1\n      swap2\n      sub\n      swap1\n      return\n        /* \"Tipos de variables y operadores/unidades tiempo.sol\":163:194  uint public dos_horas = 2 hours */\n    tag_9:\n      tag_23\n      tag_24\n      jump\t// in\n    tag_23:\n      mload(0x40)\n      dup1\n      dup3\n      dup2\n      mstore\n      0x20\n      add\n      swap2\n      pop\n      pop\n      mload(0x40)\n      dup1\n      swap2\n      sub\n      swap1\n      return\n        /* \"Tipos de variables y operadores/unidades tiempo.sol\":285:375  function MasSegundos() public view returns(uint){\r... */\n    tag_12:\n        /* \"Tipos de variables y operadores/unidades tiempo.sol\":328:332  uint */\n      0x00\n        /* \"Tipos de variables y operadores/unidades tiempo.sol\":357:367  50 seconds */\n      0x32\n        /* \"Tipos de variables y operadores/unidades tiempo.sol\":351:354  now */\n      timestamp\n        /* \"Tipos de variables y operadores/unidades tiempo.sol\":351:367  now + 50 seconds */\n      add\n        /* \"Tipos de variables y operadores/unidades tiempo.sol\":344:367  return now + 50 seconds */\n      swap1\n      pop\n        /* \"Tipos de variables y operadores/unidades tiempo.sol\":285:375  function MasSegundos() public view returns(uint){\r... */\n      swap1\n      jump\t// out\n        /* \"Tipos de variables y operadores/unidades tiempo.sol\":384:469  function MasHoras() public view returns(uint){\r... */\n    tag_14:\n        /* \"Tipos de variables y operadores/unidades tiempo.sol\":424:428  uint */\n      0x00\n        /* \"Tipos de variables y operadores/unidades tiempo.sol\":453:461  50 hours */\n      0x02bf20\n        /* \"Tipos de variables y operadores/unidades tiempo.sol\":447:450  now */\n      timestamp\n        /* \"Tipos de variables y operadores/unidades tiempo.sol\":447:461  now + 50 hours */\n      add\n        /* \"Tipos de variables y operadores/unidades tiempo.sol\":440:461  return now + 50 hours */\n      swap1\n      pop\n        /* \"Tipos de variables y operadores/unidades tiempo.sol\":384:469  function MasHoras() public view returns(uint){\r... */\n      swap1\n      jump\t// out\n        /* \"Tipos de variables y operadores/unidades tiempo.sol\":244:276  uint public una_semana = 1 weeks */\n    tag_16:\n      sload(0x04)\n      dup2\n      jump\t// out\n        /* \"Tipos de variables y operadores/unidades tiempo.sol\":201:237  uint public cincuenta_dias = 50 days */\n    tag_18:\n      sload(0x03)\n      dup2\n      jump\t// out\n        /* \"Tipos de variables y operadores/unidades tiempo.sol\":88:119  uint public tiempo_actual = now */\n    tag_20:\n      sload(0x00)\n      dup2\n      jump\t// out\n        /* \"Tipos de variables y operadores/unidades tiempo.sol\":126:156  uint public minuto = 1 minutes */\n    tag_22:\n      sload(0x01)\n      dup2\n      jump\t// out\n        /* \"Tipos de variables y operadores/unidades tiempo.sol\":163:194  uint public dos_horas = 2 hours */\n    tag_24:\n      sload(0x02)\n      dup2\n      jump\t// out\n\n    auxdata: 0xa26469706673582212206e66423748686992d1c31d925ce425dcb791ead9ccd22619a119e4516d97fd6064736f6c63430006050033\n}\n",
				"bytecode": {
					"linkReferences": {},
					"object": "608060405242600055603c600155611c206002556241eb0060035562093a8060045534801561002d57600080fd5b506101c08061003d6000396000f3fe608060405234801561001057600080fd5b506004361061007d5760003560e01c80634f0cea831161005b5780634f0cea83146100dc5780635a9606a4146100fa578063e70ce4f314610118578063e8b1ed29146101365761007d565b806301a3487514610082578063108c4abb146100a0578063183289fc146100be575b600080fd5b61008a610154565b6040518082815260200191505060405180910390f35b6100a861015f565b6040518082815260200191505060405180910390f35b6100c661016c565b6040518082815260200191505060405180910390f35b6100e4610172565b6040518082815260200191505060405180910390f35b610102610178565b6040518082815260200191505060405180910390f35b61012061017e565b6040518082815260200191505060405180910390f35b61013e610184565b6040518082815260200191505060405180910390f35b600060324201905090565b60006202bf204201905090565b60045481565b60035481565b60005481565b60015481565b6002548156fea26469706673582212206e66423748686992d1c31d925ce425dcb791ead9ccd22619a119e4516d97fd6064736f6c63430006050033",
					"opcodes": "PUSH1 0x80 PUSH1 0x40 MSTORE TIMESTAMP PUSH1 0x0 SSTORE PUSH1 0x3C PUSH1 0x1 SSTORE PUSH2 0x1C20 PUSH1 0x2 SSTORE PUSH3 0x41EB00 PUSH1 0x3 SSTORE PUSH3 0x93A80 PUSH1 0x4 SSTORE CALLVALUE DUP1 ISZERO PUSH2 0x2D JUMPI PUSH1 0x0 DUP1 REVERT JUMPDEST POP PUSH2 0x1C0 DUP1 PUSH2 0x3D PUSH1 0x0 CODECOPY PUSH1 0x0 RETURN INVALID PUSH1 0x80 PUSH1 0x40 MSTORE CALLVALUE DUP1 ISZERO PUSH2 0x10 JUMPI PUSH1 0x0 DUP1 REVERT JUMPDEST POP PUSH1 0x4 CALLDATASIZE LT PUSH2 0x7D JUMPI PUSH1 0x0 CALLDATALOAD PUSH1 0xE0 SHR DUP1 PUSH4 0x4F0CEA83 GT PUSH2 0x5B JUMPI DUP1 PUSH4 0x4F0CEA83 EQ PUSH2 0xDC JUMPI DUP1 PUSH4 0x5A9606A4 EQ PUSH2 0xFA JUMPI DUP1 PUSH4 0xE70CE4F3 EQ PUSH2 0x118 JUMPI DUP1 PUSH4 0xE8B1ED29 EQ PUSH2 0x136 JUMPI PUSH2 0x7D JUMP JUMPDEST DUP1 PUSH4 0x1A34875 EQ PUSH2 0x82 JUMPI DUP1 PUSH4 0x108C4ABB EQ PUSH2 0xA0 JUMPI DUP1 PUSH4 0x183289FC EQ PUSH2 0xBE JUMPI JUMPDEST PUSH1 0x0 DUP1 REVERT JUMPDEST PUSH2 0x8A PUSH2 0x154 JUMP JUMPDEST PUSH1 0x40 MLOAD DUP1 DUP3 DUP2 MSTORE PUSH1 0x20 ADD SWAP2 POP POP PUSH1 0x40 MLOAD DUP1 SWAP2 SUB SWAP1 RETURN JUMPDEST PUSH2 0xA8 PUSH2 0x15F JUMP JUMPDEST PUSH1 0x40 MLOAD DUP1 DUP3 DUP2 MSTORE PUSH1 0x20 ADD SWAP2 POP POP PUSH1 0x40 MLOAD DUP1 SWAP2 SUB SWAP1 RETURN JUMPDEST PUSH2 0xC6 PUSH2 0x16C JUMP JUMPDEST PUSH1 0x40 MLOAD DUP1 DUP3 DUP2 MSTORE PUSH1 0x20 ADD SWAP2 POP POP PUSH1 0x40 MLOAD DUP1 SWAP2 SUB SWAP1 RETURN JUMPDEST PUSH2 0xE4 PUSH2 0x172 JUMP JUMPDEST PUSH1 0x40 MLOAD DUP1 DUP3 DUP2 MSTORE PUSH1 0x20 ADD SWAP2 POP POP PUSH1 0x40 MLOAD DUP1 SWAP2 SUB SWAP1 RETURN JUMPDEST PUSH2 0x102 PUSH2 0x178 JUMP JUMPDEST PUSH1 0x40 MLOAD DUP1 DUP3 DUP2 MSTORE PUSH1 0x20 ADD SWAP2 POP POP PUSH1 0x40 MLOAD DUP1 SWAP2 SUB SWAP1 RETURN JUMPDEST PUSH2 0x120 PUSH2 0x17E JUMP JUMPDEST PUSH1 0x40 MLOAD DUP1 DUP3 DUP2 MSTORE PUSH1 0x20 ADD SWAP2 POP POP PUSH1 0x40 MLOAD DUP1 SWAP2 SUB SWAP1 RETURN JUMPDEST PUSH2 0x13E PUSH2 0x184 JUMP JUMPDEST PUSH1 0x40 MLOAD DUP1 DUP3 DUP2 MSTORE PUSH1 0x20 ADD SWAP2 POP POP PUSH1 0x40 MLOAD DUP1 SWAP2 SUB SWAP1 RETURN JUMPDEST PUSH1 0x0 PUSH1 0x32 TIMESTAMP ADD SWAP1 POP SWAP1 JUMP JUMPDEST PUSH1 0x0 PUSH3 0x2BF20 TIMESTAMP ADD SWAP1 POP SWAP1 JUMP JUMPDEST PUSH1 0x4 SLOAD DUP2 JUMP JUMPDEST PUSH1 0x3 SLOAD DUP2 JUMP JUMPDEST PUSH1 0x0 SLOAD DUP2 JUMP JUMPDEST PUSH1 0x1 SLOAD DUP2 JUMP JUMPDEST PUSH1 0x2 SLOAD DUP2 JUMP INVALID LOG2 PUSH5 0x6970667358 0x22 SLT KECCAK256 PUSH15 0x66423748686992D1C31D925CE425DC 0xB7 SWAP2 0xEA 0xD9 0xCC 0xD2 0x26 NOT LOG1 NOT 0xE4 MLOAD PUSH14 0x97FD6064736F6C63430006050033 "
				},
				"gasEstimates": {
					"creation": {
						"codeDepositCost": "89600",
						"executionCost": "100164",
						"totalCost": "189764"
					},
					"external": {
						"MasHoras()": "241",
						"MasSegundos()": "219",
						"cincuenta_dias()": "1005",
						"dos_horas()": "1071",
						"minuto()": "1049",
						"tiempo_actual()": "1027",
						"una_semana()": "1050"
					}
				},
				"methodIdentifiers": {
					"MasHoras()": "108c4abb",
					"MasSegundos()": "01a34875",
					"cincuenta_dias()": "4f0cea83",
					"dos_horas()": "e8b1ed29",
					"minuto()": "e70ce4f3",
					"tiempo_actual()": "5a9606a4",
					"una_semana()": "183289fc"
				}
			},
			"storageLayout": {
				"storage": [
					{
						"astId": 4,
						"contract": "Tipos de variables y operadores/unidades tiempo.sol:tiempo",
						"label": "tiempo_actual",
						"offset": 0,
						"slot": "0",
						"type": "t_uint256"
					},
					{
						"astId": 7,
						"contract": "Tipos de variables y operadores/unidades tiempo.sol:tiempo",
						"label": "minuto",
						"offset": 0,
						"slot": "1",
						"type": "t_uint256"
					},
					{
						"astId": 10,
						"contract": "Tipos de variables y operadores/unidades tiempo.sol:tiempo",
						"label": "dos_horas",
						"offset": 0,
						"slot": "2",
						"type": "t_uint256"
					},
					{
						"astId": 13,
						"contract": "Tipos de variables y operadores/unidades tiempo.sol:tiempo",
						"label": "cincuenta_dias",
						"offset": 0,
						"slot": "3",
						"type": "t_uint256"
					},
					{
						"astId": 16,
						"contract": "Tipos de variables y operadores/unidades tiempo.sol:tiempo",
						"label": "una_semana",
						"offset": 0,
						"slot": "4",
						"type": "t_uint256"
					}
				],
				"types": {
					"t_uint256": {
						"encoding": "inplace",
						"label": "uint256",
						"numberOfBytes": "32"
					}
				}
			},
			"userdoc": {
				"methods": {}
			}
		}
	}
}