{
	"Tipos de variables y operadores/unidades tiempo.sol": {
		"tiempo": {
			"abi": [
				{
					"inputs": [],
					"name": "MasDias",
					"outputs": [
						{
							"internalType": "uint256",
							"name": "",
							"type": "uint256"
						}
					],
					"stateMutability": "view",
					"type": "function"
				},
				{
					"inputs": [],
					"name": "MasHoras",
					"outputs": [
						{
							"internalType": "uint256",
							"name": "",
							"type": "uint256"
						}
					],
					"stateMutability": "view",
					"type": "function"
				},
				{
					"inputs": [],
					"name": "MasSegundos",
					"outputs": [
						{
							"internalType": "uint256",
							"name": "",
							"type": "uint256"
						}
					],
					"stateMutability": "view",
					"type": "function"
				},
				{
					"inputs": [],
					"name": "MasSemanas",
					"outputs": [
						{
							"internalType": "uint256",
							"name": "",
							"type": "uint256"
						}
					],
					"stateMutability": "view",
					"type": "function"
				},
				{
					"inputs": [],
					"name": "cincuenta_dias",
					"outputs": [
						{
							"internalType": "uint256",
							"name": "",
							"type": "uint256"
						}
					],
					"stateMutability": "view",
					"type": "function"
				},
				{
					"inputs": [],
					"name": "dos_horas",
					"outputs": [
						{
							"internalType": "uint256",
							"name": "",
							"type": "uint256"
						}
					],
					"stateMutability": "view",
					"type": "function"
				},
				{
					"inputs": [],
					"name": "minuto",
					"outputs": [
						{
							"internalType": "uint256",
							"name": "",
							"type": "uint256"
						}
					],
					"stateMutability": "view",
					"type": "function"
				},
				{
					"inputs": [],
					"name": "tiempo_actual",
					"outputs": [
						{
							"internalType": "uint256",
							"name": "",
							"type": "uint256"
						}
					],
					"stateMutability": "view",
					"type": "function"
				},
				{
					"inputs": [],
					"name": "una_semana",
					"outputs": [
						{
							"internalType": "uint256",
							"name": "",
							"type": "uint256"
						}
					],
					"stateMutability": "view",
					"type": "function"
				}
			],
			"devdoc": {
				"kind": "dev",
				"methods": {},
				"version": 1
			},
			"evm": {
				"assembly": "    /* \"Tipos de variables y operadores/unidades tiempo.sol\":70:750  contract tiempo{... */\n  mstore(0x40, 0x80)\n    /* \"Tipos de variables y operadores/unidades tiempo.sol\":149:164  block.timestamp */\n  timestamp\n    /* \"Tipos de variables y operadores/unidades tiempo.sol\":121:164  uint public tiempo_actual = block.timestamp */\n  0x00\n  sstore\n    /* \"Tipos de variables y operadores/unidades tiempo.sol\":192:201  1 minutes */\n  0x3c\n    /* \"Tipos de variables y operadores/unidades tiempo.sol\":171:201  uint public minuto = 1 minutes */\n  0x01\n  sstore\n    /* \"Tipos de variables y operadores/unidades tiempo.sol\":232:239  2 hours */\n  0x1c20\n    /* \"Tipos de variables y operadores/unidades tiempo.sol\":208:239  uint public dos_horas = 2 hours */\n  0x02\n  sstore\n    /* \"Tipos de variables y operadores/unidades tiempo.sol\":275:282  50 days */\n  0x41eb00\n    /* \"Tipos de variables y operadores/unidades tiempo.sol\":246:282  uint public cincuenta_dias = 50 days */\n  0x03\n  sstore\n    /* \"Tipos de variables y operadores/unidades tiempo.sol\":314:321  1 weeks */\n  0x093a80\n    /* \"Tipos de variables y operadores/unidades tiempo.sol\":289:321  uint public una_semana = 1 weeks */\n  0x04\n  sstore\n    /* \"Tipos de variables y operadores/unidades tiempo.sol\":70:750  contract tiempo{... */\n  callvalue\n  dup1\n  iszero\n  tag_1\n  jumpi\n  0x00\n  dup1\n  revert\ntag_1:\n  pop\n  dataSize(sub_0)\n  dup1\n  dataOffset(sub_0)\n  0x00\n  codecopy\n  0x00\n  return\nstop\n\nsub_0: assembly {\n        /* \"Tipos de variables y operadores/unidades tiempo.sol\":70:750  contract tiempo{... */\n      mstore(0x40, 0x80)\n      callvalue\n      dup1\n      iszero\n      tag_1\n      jumpi\n      0x00\n      dup1\n      revert\n    tag_1:\n      pop\n      jumpi(tag_2, lt(calldatasize, 0x04))\n      shr(0xe0, calldataload(0x00))\n      dup1\n      0x4f0cea83\n      gt\n      tag_12\n      jumpi\n      dup1\n      0x4f0cea83\n      eq\n      tag_7\n      jumpi\n      dup1\n      0x5a9606a4\n      eq\n      tag_8\n      jumpi\n      dup1\n      0xd2c5381a\n      eq\n      tag_9\n      jumpi\n      dup1\n      0xe70ce4f3\n      eq\n      tag_10\n      jumpi\n      dup1\n      0xe8b1ed29\n      eq\n      tag_11\n      jumpi\n      jump(tag_2)\n    tag_12:\n      dup1\n      0x01a34875\n      eq\n      tag_3\n      jumpi\n      dup1\n      0x108c4abb\n      eq\n      tag_4\n      jumpi\n      dup1\n      0x183289fc\n      eq\n      tag_5\n      jumpi\n      dup1\n      0x1fd8d6b4\n      eq\n      tag_6\n      jumpi\n    tag_2:\n      0x00\n      dup1\n      revert\n        /* \"Tipos de variables y operadores/unidades tiempo.sol\":330:432  function MasSegundos() public view returns(uint){... */\n    tag_3:\n      tag_13\n      tag_14\n      jump\t// in\n    tag_13:\n      mload(0x40)\n      tag_15\n      swap2\n      swap1\n      tag_16\n      jump\t// in\n    tag_15:\n      mload(0x40)\n      dup1\n      swap2\n      sub\n      swap1\n      return\n        /* \"Tipos de variables y operadores/unidades tiempo.sol\":441:537  function MasHoras() public view returns(uint){... */\n    tag_4:\n      tag_17\n      tag_18\n      jump\t// in\n    tag_17:\n      mload(0x40)\n      tag_19\n      swap2\n      swap1\n      tag_16\n      jump\t// in\n    tag_19:\n      mload(0x40)\n      dup1\n      swap2\n      sub\n      swap1\n      return\n        /* \"Tipos de variables y operadores/unidades tiempo.sol\":289:321  uint public una_semana = 1 weeks */\n    tag_5:\n      tag_20\n      tag_21\n      jump\t// in\n    tag_20:\n      mload(0x40)\n      tag_22\n      swap2\n      swap1\n      tag_16\n      jump\t// in\n    tag_22:\n      mload(0x40)\n      dup1\n      swap2\n      sub\n      swap1\n      return\n        /* \"Tipos de variables y operadores/unidades tiempo.sol\":649:747  function MasSemanas() public view returns(uint){... */\n    tag_6:\n      tag_23\n      tag_24\n      jump\t// in\n    tag_23:\n      mload(0x40)\n      tag_25\n      swap2\n      swap1\n      tag_16\n      jump\t// in\n    tag_25:\n      mload(0x40)\n      dup1\n      swap2\n      sub\n      swap1\n      return\n        /* \"Tipos de variables y operadores/unidades tiempo.sol\":246:282  uint public cincuenta_dias = 50 days */\n    tag_7:\n      tag_26\n      tag_27\n      jump\t// in\n    tag_26:\n      mload(0x40)\n      tag_28\n      swap2\n      swap1\n      tag_16\n      jump\t// in\n    tag_28:\n      mload(0x40)\n      dup1\n      swap2\n      sub\n      swap1\n      return\n        /* \"Tipos de variables y operadores/unidades tiempo.sol\":121:164  uint public tiempo_actual = block.timestamp */\n    tag_8:\n      tag_29\n      tag_30\n      jump\t// in\n    tag_29:\n      mload(0x40)\n      tag_31\n      swap2\n      swap1\n      tag_16\n      jump\t// in\n    tag_31:\n      mload(0x40)\n      dup1\n      swap2\n      sub\n      swap1\n      return\n        /* \"Tipos de variables y operadores/unidades tiempo.sol\":546:640  function MasDias() public view returns(uint){... */\n    tag_9:\n      tag_32\n      tag_33\n      jump\t// in\n    tag_32:\n      mload(0x40)\n      tag_34\n      swap2\n      swap1\n      tag_16\n      jump\t// in\n    tag_34:\n      mload(0x40)\n      dup1\n      swap2\n      sub\n      swap1\n      return\n        /* \"Tipos de variables y operadores/unidades tiempo.sol\":171:201  uint public minuto = 1 minutes */\n    tag_10:\n      tag_35\n      tag_36\n      jump\t// in\n    tag_35:\n      mload(0x40)\n      tag_37\n      swap2\n      swap1\n      tag_16\n      jump\t// in\n    tag_37:\n      mload(0x40)\n      dup1\n      swap2\n      sub\n      swap1\n      return\n        /* \"Tipos de variables y operadores/unidades tiempo.sol\":208:239  uint public dos_horas = 2 hours */\n    tag_11:\n      tag_38\n      tag_39\n      jump\t// in\n    tag_38:\n      mload(0x40)\n      tag_40\n      swap2\n      swap1\n      tag_16\n      jump\t// in\n    tag_40:\n      mload(0x40)\n      dup1\n      swap2\n      sub\n      swap1\n      return\n        /* \"Tipos de variables y operadores/unidades tiempo.sol\":330:432  function MasSegundos() public view returns(uint){... */\n    tag_14:\n        /* \"Tipos de variables y operadores/unidades tiempo.sol\":373:377  uint */\n      0x00\n        /* \"Tipos de variables y operadores/unidades tiempo.sol\":414:424  50 seconds */\n      0x32\n        /* \"Tipos de variables y operadores/unidades tiempo.sol\":396:411  block.timestamp */\n      timestamp\n        /* \"Tipos de variables y operadores/unidades tiempo.sol\":396:424  block.timestamp + 50 seconds */\n      tag_42\n      swap2\n      swap1\n      tag_43\n      jump\t// in\n    tag_42:\n        /* \"Tipos de variables y operadores/unidades tiempo.sol\":389:424  return block.timestamp + 50 seconds */\n      swap1\n      pop\n        /* \"Tipos de variables y operadores/unidades tiempo.sol\":330:432  function MasSegundos() public view returns(uint){... */\n      swap1\n      jump\t// out\n        /* \"Tipos de variables y operadores/unidades tiempo.sol\":441:537  function MasHoras() public view returns(uint){... */\n    tag_18:\n        /* \"Tipos de variables y operadores/unidades tiempo.sol\":481:485  uint */\n      0x00\n        /* \"Tipos de variables y operadores/unidades tiempo.sol\":522:529  1 hours */\n      0x0e10\n        /* \"Tipos de variables y operadores/unidades tiempo.sol\":504:519  block.timestamp */\n      timestamp\n        /* \"Tipos de variables y operadores/unidades tiempo.sol\":504:529  block.timestamp + 1 hours */\n      tag_45\n      swap2\n      swap1\n      tag_43\n      jump\t// in\n    tag_45:\n        /* \"Tipos de variables y operadores/unidades tiempo.sol\":497:529  return block.timestamp + 1 hours */\n      swap1\n      pop\n        /* \"Tipos de variables y operadores/unidades tiempo.sol\":441:537  function MasHoras() public view returns(uint){... */\n      swap1\n      jump\t// out\n        /* \"Tipos de variables y operadores/unidades tiempo.sol\":289:321  uint public una_semana = 1 weeks */\n    tag_21:\n      sload(0x04)\n      dup2\n      jump\t// out\n        /* \"Tipos de variables y operadores/unidades tiempo.sol\":649:747  function MasSemanas() public view returns(uint){... */\n    tag_24:\n        /* \"Tipos de variables y operadores/unidades tiempo.sol\":691:695  uint */\n      0x00\n        /* \"Tipos de variables y operadores/unidades tiempo.sol\":732:739  1 weeks */\n      0x093a80\n        /* \"Tipos de variables y operadores/unidades tiempo.sol\":714:729  block.timestamp */\n      timestamp\n        /* \"Tipos de variables y operadores/unidades tiempo.sol\":714:739  block.timestamp + 1 weeks */\n      tag_47\n      swap2\n      swap1\n      tag_43\n      jump\t// in\n    tag_47:\n        /* \"Tipos de variables y operadores/unidades tiempo.sol\":707:739  return block.timestamp + 1 weeks */\n      swap1\n      pop\n        /* \"Tipos de variables y operadores/unidades tiempo.sol\":649:747  function MasSemanas() public view returns(uint){... */\n      swap1\n      jump\t// out\n        /* \"Tipos de variables y operadores/unidades tiempo.sol\":246:282  uint public cincuenta_dias = 50 days */\n    tag_27:\n      sload(0x03)\n      dup2\n      jump\t// out\n        /* \"Tipos de variables y operadores/unidades tiempo.sol\":121:164  uint public tiempo_actual = block.timestamp */\n    tag_30:\n      sload(0x00)\n      dup2\n      jump\t// out\n        /* \"Tipos de variables y operadores/unidades tiempo.sol\":546:640  function MasDias() public view returns(uint){... */\n    tag_33:\n        /* \"Tipos de variables y operadores/unidades tiempo.sol\":585:589  uint */\n      0x00\n        /* \"Tipos de variables y operadores/unidades tiempo.sol\":626:632  3 days */\n      0x03f480\n        /* \"Tipos de variables y operadores/unidades tiempo.sol\":608:623  block.timestamp */\n      timestamp\n        /* \"Tipos de variables y operadores/unidades tiempo.sol\":608:632  block.timestamp + 3 days */\n      tag_49\n      swap2\n      swap1\n      tag_43\n      jump\t// in\n    tag_49:\n        /* \"Tipos de variables y operadores/unidades tiempo.sol\":601:632  return block.timestamp + 3 days */\n      swap1\n      pop\n        /* \"Tipos de variables y operadores/unidades tiempo.sol\":546:640  function MasDias() public view returns(uint){... */\n      swap1\n      jump\t// out\n        /* \"Tipos de variables y operadores/unidades tiempo.sol\":171:201  uint public minuto = 1 minutes */\n    tag_36:\n      sload(0x01)\n      dup2\n      jump\t// out\n        /* \"Tipos de variables y operadores/unidades tiempo.sol\":208:239  uint public dos_horas = 2 hours */\n    tag_39:\n      sload(0x02)\n      dup2\n      jump\t// out\n        /* \"#utility.yul\":7:84   */\n    tag_50:\n        /* \"#utility.yul\":44:51   */\n      0x00\n        /* \"#utility.yul\":73:78   */\n      dup2\n        /* \"#utility.yul\":62:78   */\n      swap1\n      pop\n        /* \"#utility.yul\":7:84   */\n      swap2\n      swap1\n      pop\n      jump\t// out\n        /* \"#utility.yul\":90:208   */\n    tag_51:\n        /* \"#utility.yul\":177:201   */\n      tag_56\n        /* \"#utility.yul\":195:200   */\n      dup2\n        /* \"#utility.yul\":177:201   */\n      tag_50\n      jump\t// in\n    tag_56:\n        /* \"#utility.yul\":172:175   */\n      dup3\n        /* \"#utility.yul\":165:202   */\n      mstore\n        /* \"#utility.yul\":90:208   */\n      pop\n      pop\n      jump\t// out\n        /* \"#utility.yul\":214:436   */\n    tag_16:\n        /* \"#utility.yul\":307:311   */\n      0x00\n        /* \"#utility.yul\":345:347   */\n      0x20\n        /* \"#utility.yul\":334:343   */\n      dup3\n        /* \"#utility.yul\":330:348   */\n      add\n        /* \"#utility.yul\":322:348   */\n      swap1\n      pop\n        /* \"#utility.yul\":358:429   */\n      tag_58\n        /* \"#utility.yul\":426:427   */\n      0x00\n        /* \"#utility.yul\":415:424   */\n      dup4\n        /* \"#utility.yul\":411:428   */\n      add\n        /* \"#utility.yul\":402:408   */\n      dup5\n        /* \"#utility.yul\":358:429   */\n      tag_51\n      jump\t// in\n    tag_58:\n        /* \"#utility.yul\":214:436   */\n      swap3\n      swap2\n      pop\n      pop\n      jump\t// out\n        /* \"#utility.yul\":442:622   */\n    tag_52:\n        /* \"#utility.yul\":490:567   */\n      0x4e487b7100000000000000000000000000000000000000000000000000000000\n        /* \"#utility.yul\":487:488   */\n      0x00\n        /* \"#utility.yul\":480:568   */\n      mstore\n        /* \"#utility.yul\":587:591   */\n      0x11\n        /* \"#utility.yul\":584:585   */\n      0x04\n        /* \"#utility.yul\":577:592   */\n      mstore\n        /* \"#utility.yul\":611:615   */\n      0x24\n        /* \"#utility.yul\":608:609   */\n      0x00\n        /* \"#utility.yul\":601:616   */\n      revert\n        /* \"#utility.yul\":628:933   */\n    tag_43:\n        /* \"#utility.yul\":668:671   */\n      0x00\n        /* \"#utility.yul\":687:707   */\n      tag_61\n        /* \"#utility.yul\":705:706   */\n      dup3\n        /* \"#utility.yul\":687:707   */\n      tag_50\n      jump\t// in\n    tag_61:\n        /* \"#utility.yul\":682:707   */\n      swap2\n      pop\n        /* \"#utility.yul\":721:741   */\n      tag_62\n        /* \"#utility.yul\":739:740   */\n      dup4\n        /* \"#utility.yul\":721:741   */\n      tag_50\n      jump\t// in\n    tag_62:\n        /* \"#utility.yul\":716:741   */\n      swap3\n      pop\n        /* \"#utility.yul\":875:876   */\n      dup3\n        /* \"#utility.yul\":807:873   */\n      0xffffffffffffffffffffffffffffffffffffffffffffffffffffffffffffffff\n        /* \"#utility.yul\":803:877   */\n      sub\n        /* \"#utility.yul\":800:801   */\n      dup3\n        /* \"#utility.yul\":797:878   */\n      gt\n        /* \"#utility.yul\":794:901   */\n      iszero\n      tag_63\n      jumpi\n        /* \"#utility.yul\":881:899   */\n      tag_64\n      tag_52\n      jump\t// in\n    tag_64:\n        /* \"#utility.yul\":794:901   */\n    tag_63:\n        /* \"#utility.yul\":925:926   */\n      dup3\n        /* \"#utility.yul\":922:923   */\n      dup3\n        /* \"#utility.yul\":918:927   */\n      add\n        /* \"#utility.yul\":911:927   */\n      swap1\n      pop\n        /* \"#utility.yul\":628:933   */\n      swap3\n      swap2\n      pop\n      pop\n      jump\t// out\n\n    auxdata: 0xa2646970667358221220cf22fa4a70d7129fea687e76496fe27a4bf25b557205597f9999a2a7d26ad23f64736f6c634300080d0033\n}\n",
				"bytecode": {
					"linkReferences": {},
					"object": "608060405242600055603c600155611c206002556241eb0060035562093a8060045534801561002d57600080fd5b506103088061003d6000396000f3fe608060405234801561001057600080fd5b50600436106100935760003560e01c80634f0cea83116100665780634f0cea83146101105780635a9606a41461012e578063d2c5381a1461014c578063e70ce4f31461016a578063e8b1ed291461018857610093565b806301a3487514610098578063108c4abb146100b6578063183289fc146100d45780631fd8d6b4146100f2575b600080fd5b6100a06101a6565b6040516100ad9190610232565b60405180910390f35b6100be6101ba565b6040516100cb9190610232565b60405180910390f35b6100dc6101cf565b6040516100e99190610232565b60405180910390f35b6100fa6101d5565b6040516101079190610232565b60405180910390f35b6101186101eb565b6040516101259190610232565b60405180910390f35b6101366101f1565b6040516101439190610232565b60405180910390f35b6101546101f7565b6040516101619190610232565b60405180910390f35b61017261020d565b60405161017f9190610232565b60405180910390f35b610190610213565b60405161019d9190610232565b60405180910390f35b60006032426101b5919061027c565b905090565b6000610e10426101ca919061027c565b905090565b60045481565b600062093a80426101e6919061027c565b905090565b60035481565b60005481565b60006203f48042610208919061027c565b905090565b60015481565b60025481565b6000819050919050565b61022c81610219565b82525050565b60006020820190506102476000830184610223565b92915050565b7f4e487b7100000000000000000000000000000000000000000000000000000000600052601160045260246000fd5b600061028782610219565b915061029283610219565b9250827fffffffffffffffffffffffffffffffffffffffffffffffffffffffffffffffff038211156102c7576102c661024d565b5b82820190509291505056fea2646970667358221220cf22fa4a70d7129fea687e76496fe27a4bf25b557205597f9999a2a7d26ad23f64736f6c634300080d0033",
					"opcodes": "PUSH1 0x80 PUSH1 0x40 MSTORE TIMESTAMP PUSH1 0x0 SSTORE PUSH1 0x3C PUSH1 0x1 SSTORE PUSH2 0x1C20 PUSH1 0x2 SSTORE PUSH3 0x41EB00 PUSH1 0x3 SSTORE PUSH3 0x93A80 PUSH1 0x4 SSTORE CALLVALUE DUP1 ISZERO PUSH2 0x2D JUMPI PUSH1 0x0 DUP1 REVERT JUMPDEST POP PUSH2 0x308 DUP1 PUSH2 0x3D PUSH1 0x0 CODECOPY PUSH1 0x0 RETURN INVALID PUSH1 0x80 PUSH1 0x40 MSTORE CALLVALUE DUP1 ISZERO PUSH2 0x10 JUMPI PUSH1 0x0 DUP1 REVERT JUMPDEST POP PUSH1 0x4 CALLDATASIZE LT PUSH2 0x93 JUMPI PUSH1 0x0 CALLDATALOAD PUSH1 0xE0 SHR DUP1 PUSH4 0x4F0CEA83 GT PUSH2 0x66 JUMPI DUP1 PUSH4 0x4F0CEA83 EQ PUSH2 0x110 JUMPI DUP1 PUSH4 0x5A9606A4 EQ PUSH2 0x12E JUMPI DUP1 PUSH4 0xD2C5381A EQ PUSH2 0x14C JUMPI DUP1 PUSH4 0xE70CE4F3 EQ PUSH2 0x16A JUMPI DUP1 PUSH4 0xE8B1ED29 EQ PUSH2 0x188 JUMPI PUSH2 0x93 JUMP JUMPDEST DUP1 PUSH4 0x1A34875 EQ PUSH2 0x98 JUMPI DUP1 PUSH4 0x108C4ABB EQ PUSH2 0xB6 JUMPI DUP1 PUSH4 0x183289FC EQ PUSH2 0xD4 JUMPI DUP1 PUSH4 0x1FD8D6B4 EQ PUSH2 0xF2 JUMPI JUMPDEST PUSH1 0x0 DUP1 REVERT JUMPDEST PUSH2 0xA0 PUSH2 0x1A6 JUMP JUMPDEST PUSH1 0x40 MLOAD PUSH2 0xAD SWAP2 SWAP1 PUSH2 0x232 JUMP JUMPDEST PUSH1 0x40 MLOAD DUP1 SWAP2 SUB SWAP1 RETURN JUMPDEST PUSH2 0xBE PUSH2 0x1BA JUMP JUMPDEST PUSH1 0x40 MLOAD PUSH2 0xCB SWAP2 SWAP1 PUSH2 0x232 JUMP JUMPDEST PUSH1 0x40 MLOAD DUP1 SWAP2 SUB SWAP1 RETURN JUMPDEST PUSH2 0xDC PUSH2 0x1CF JUMP JUMPDEST PUSH1 0x40 MLOAD PUSH2 0xE9 SWAP2 SWAP1 PUSH2 0x232 JUMP JUMPDEST PUSH1 0x40 MLOAD DUP1 SWAP2 SUB SWAP1 RETURN JUMPDEST PUSH2 0xFA PUSH2 0x1D5 JUMP JUMPDEST PUSH1 0x40 MLOAD PUSH2 0x107 SWAP2 SWAP1 PUSH2 0x232 JUMP JUMPDEST PUSH1 0x40 MLOAD DUP1 SWAP2 SUB SWAP1 RETURN JUMPDEST PUSH2 0x118 PUSH2 0x1EB JUMP JUMPDEST PUSH1 0x40 MLOAD PUSH2 0x125 SWAP2 SWAP1 PUSH2 0x232 JUMP JUMPDEST PUSH1 0x40 MLOAD DUP1 SWAP2 SUB SWAP1 RETURN JUMPDEST PUSH2 0x136 PUSH2 0x1F1 JUMP JUMPDEST PUSH1 0x40 MLOAD PUSH2 0x143 SWAP2 SWAP1 PUSH2 0x232 JUMP JUMPDEST PUSH1 0x40 MLOAD DUP1 SWAP2 SUB SWAP1 RETURN JUMPDEST PUSH2 0x154 PUSH2 0x1F7 JUMP JUMPDEST PUSH1 0x40 MLOAD PUSH2 0x161 SWAP2 SWAP1 PUSH2 0x232 JUMP JUMPDEST PUSH1 0x40 MLOAD DUP1 SWAP2 SUB SWAP1 RETURN JUMPDEST PUSH2 0x172 PUSH2 0x20D JUMP JUMPDEST PUSH1 0x40 MLOAD PUSH2 0x17F SWAP2 SWAP1 PUSH2 0x232 JUMP JUMPDEST PUSH1 0x40 MLOAD DUP1 SWAP2 SUB SWAP1 RETURN JUMPDEST PUSH2 0x190 PUSH2 0x213 JUMP JUMPDEST PUSH1 0x40 MLOAD PUSH2 0x19D SWAP2 SWAP1 PUSH2 0x232 JUMP JUMPDEST PUSH1 0x40 MLOAD DUP1 SWAP2 SUB SWAP1 RETURN JUMPDEST PUSH1 0x0 PUSH1 0x32 TIMESTAMP PUSH2 0x1B5 SWAP2 SWAP1 PUSH2 0x27C JUMP JUMPDEST SWAP1 POP SWAP1 JUMP JUMPDEST PUSH1 0x0 PUSH2 0xE10 TIMESTAMP PUSH2 0x1CA SWAP2 SWAP1 PUSH2 0x27C JUMP JUMPDEST SWAP1 POP SWAP1 JUMP JUMPDEST PUSH1 0x4 SLOAD DUP2 JUMP JUMPDEST PUSH1 0x0 PUSH3 0x93A80 TIMESTAMP PUSH2 0x1E6 SWAP2 SWAP1 PUSH2 0x27C JUMP JUMPDEST SWAP1 POP SWAP1 JUMP JUMPDEST PUSH1 0x3 SLOAD DUP2 JUMP JUMPDEST PUSH1 0x0 SLOAD DUP2 JUMP JUMPDEST PUSH1 0x0 PUSH3 0x3F480 TIMESTAMP PUSH2 0x208 SWAP2 SWAP1 PUSH2 0x27C JUMP JUMPDEST SWAP1 POP SWAP1 JUMP JUMPDEST PUSH1 0x1 SLOAD DUP2 JUMP JUMPDEST PUSH1 0x2 SLOAD DUP2 JUMP JUMPDEST PUSH1 0x0 DUP2 SWAP1 POP SWAP2 SWAP1 POP JUMP JUMPDEST PUSH2 0x22C DUP2 PUSH2 0x219 JUMP JUMPDEST DUP3 MSTORE POP POP JUMP JUMPDEST PUSH1 0x0 PUSH1 0x20 DUP3 ADD SWAP1 POP PUSH2 0x247 PUSH1 0x0 DUP4 ADD DUP5 PUSH2 0x223 JUMP JUMPDEST SWAP3 SWAP2 POP POP JUMP JUMPDEST PUSH32 0x4E487B7100000000000000000000000000000000000000000000000000000000 PUSH1 0x0 MSTORE PUSH1 0x11 PUSH1 0x4 MSTORE PUSH1 0x24 PUSH1 0x0 REVERT JUMPDEST PUSH1 0x0 PUSH2 0x287 DUP3 PUSH2 0x219 JUMP JUMPDEST SWAP2 POP PUSH2 0x292 DUP4 PUSH2 0x219 JUMP JUMPDEST SWAP3 POP DUP3 PUSH32 0xFFFFFFFFFFFFFFFFFFFFFFFFFFFFFFFFFFFFFFFFFFFFFFFFFFFFFFFFFFFFFFFF SUB DUP3 GT ISZERO PUSH2 0x2C7 JUMPI PUSH2 0x2C6 PUSH2 0x24D JUMP JUMPDEST JUMPDEST DUP3 DUP3 ADD SWAP1 POP SWAP3 SWAP2 POP POP JUMP INVALID LOG2 PUSH5 0x6970667358 0x22 SLT KECCAK256 0xCF 0x22 STATICCALL 0x4A PUSH17 0xD7129FEA687E76496FE27A4BF25B557205 MSIZE PUSH32 0x9999A2A7D26AD23F64736F6C634300080D003300000000000000000000000000 "
				},
				"gasEstimates": {
					"creation": {
						"codeDepositCost": "155200",
						"executionCost": "110731",
						"totalCost": "265931"
					},
					"external": {
						"MasDias()": "infinite",
						"MasHoras()": "infinite",
						"MasSegundos()": "infinite",
						"MasSemanas()": "infinite",
						"cincuenta_dias()": "2429",
						"dos_horas()": "2517",
						"minuto()": "2495",
						"tiempo_actual()": "2451",
						"una_semana()": "2474"
					}
				},
				"methodIdentifiers": {
					"MasDias()": "d2c5381a",
					"MasHoras()": "108c4abb",
					"MasSegundos()": "01a34875",
					"MasSemanas()": "1fd8d6b4",
					"cincuenta_dias()": "4f0cea83",
					"dos_horas()": "e8b1ed29",
					"minuto()": "e70ce4f3",
					"tiempo_actual()": "5a9606a4",
					"una_semana()": "183289fc"
				}
			},
			"storageLayout": {
				"storage": [
					{
						"astId": 5,
						"contract": "Tipos de variables y operadores/unidades tiempo.sol:tiempo",
						"label": "tiempo_actual",
						"offset": 0,
						"slot": "0",
						"type": "t_uint256"
					},
					{
						"astId": 8,
						"contract": "Tipos de variables y operadores/unidades tiempo.sol:tiempo",
						"label": "minuto",
						"offset": 0,
						"slot": "1",
						"type": "t_uint256"
					},
					{
						"astId": 11,
						"contract": "Tipos de variables y operadores/unidades tiempo.sol:tiempo",
						"label": "dos_horas",
						"offset": 0,
						"slot": "2",
						"type": "t_uint256"
					},
					{
						"astId": 14,
						"contract": "Tipos de variables y operadores/unidades tiempo.sol:tiempo",
						"label": "cincuenta_dias",
						"offset": 0,
						"slot": "3",
						"type": "t_uint256"
					},
					{
						"astId": 17,
						"contract": "Tipos de variables y operadores/unidades tiempo.sol:tiempo",
						"label": "una_semana",
						"offset": 0,
						"slot": "4",
						"type": "t_uint256"
					}
				],
				"types": {
					"t_uint256": {
						"encoding": "inplace",
						"label": "uint256",
						"numberOfBytes": "32"
					}
				}
			},
			"userdoc": {
				"kind": "user",
				"methods": {},
				"version": 1
			}
		}
	}
}