{
	"Tipos de variables y operadores/unidades tiempo.sol": {
		"tiempo": {
			"abi": [
				{
					"inputs": [],
					"name": "MasSegundos",
					"outputs": [
						{
							"internalType": "uint256",
							"name": "",
							"type": "uint256"
						}
					],
					"stateMutability": "view",
					"type": "function"
				},
				{
					"inputs": [],
					"name": "cincuenta_dias",
					"outputs": [
						{
							"internalType": "uint256",
							"name": "",
							"type": "uint256"
						}
					],
					"stateMutability": "view",
					"type": "function"
				},
				{
					"inputs": [],
					"name": "dos_horas",
					"outputs": [
						{
							"internalType": "uint256",
							"name": "",
							"type": "uint256"
						}
					],
					"stateMutability": "view",
					"type": "function"
				},
				{
					"inputs": [],
					"name": "minuto",
					"outputs": [
						{
							"internalType": "uint256",
							"name": "",
							"type": "uint256"
						}
					],
					"stateMutability": "view",
					"type": "function"
				},
				{
					"inputs": [],
					"name": "tiempo_actual",
					"outputs": [
						{
							"internalType": "uint256",
							"name": "",
							"type": "uint256"
						}
					],
					"stateMutability": "view",
					"type": "function"
				},
				{
					"inputs": [],
					"name": "una_semana",
					"outputs": [
						{
							"internalType": "uint256",
							"name": "",
							"type": "uint256"
						}
					],
					"stateMutability": "view",
					"type": "function"
				}
			],
			"devdoc": {
				"methods": {}
			},
			"evm": {
				"assembly": "    /* \"Tipos de variables y operadores/unidades tiempo.sol\":37:378  contract tiempo{\r... */\n  mstore(0x40, 0x80)\n    /* \"Tipos de variables y operadores/unidades tiempo.sol\":116:119  now */\n  timestamp\n    /* \"Tipos de variables y operadores/unidades tiempo.sol\":88:119  uint public tiempo_actual = now */\n  0x00\n  sstore\n    /* \"Tipos de variables y operadores/unidades tiempo.sol\":147:156  1 minutes */\n  0x3c\n    /* \"Tipos de variables y operadores/unidades tiempo.sol\":126:156  uint public minuto = 1 minutes */\n  0x01\n  sstore\n    /* \"Tipos de variables y operadores/unidades tiempo.sol\":187:194  2 hours */\n  0x1c20\n    /* \"Tipos de variables y operadores/unidades tiempo.sol\":163:194  uint public dos_horas = 2 hours */\n  0x02\n  sstore\n    /* \"Tipos de variables y operadores/unidades tiempo.sol\":230:237  50 days */\n  0x41eb00\n    /* \"Tipos de variables y operadores/unidades tiempo.sol\":201:237  uint public cincuenta_dias = 50 days */\n  0x03\n  sstore\n    /* \"Tipos de variables y operadores/unidades tiempo.sol\":269:276  1 weeks */\n  0x093a80\n    /* \"Tipos de variables y operadores/unidades tiempo.sol\":244:276  uint public una_semana = 1 weeks */\n  0x04\n  sstore\n    /* \"Tipos de variables y operadores/unidades tiempo.sol\":37:378  contract tiempo{\r... */\n  callvalue\n    /* \"--CODEGEN--\":5:14   */\n  dup1\n    /* \"--CODEGEN--\":2:4   */\n  iszero\n  tag_1\n  jumpi\n    /* \"--CODEGEN--\":27:28   */\n  0x00\n    /* \"--CODEGEN--\":24:25   */\n  dup1\n    /* \"--CODEGEN--\":17:29   */\n  revert\n    /* \"--CODEGEN--\":2:4   */\ntag_1:\n    /* \"Tipos de variables y operadores/unidades tiempo.sol\":37:378  contract tiempo{\r... */\n  pop\n  dataSize(sub_0)\n  dup1\n  dataOffset(sub_0)\n  0x00\n  codecopy\n  0x00\n  return\nstop\n\nsub_0: assembly {\n        /* \"Tipos de variables y operadores/unidades tiempo.sol\":37:378  contract tiempo{\r... */\n      mstore(0x40, 0x80)\n      callvalue\n        /* \"--CODEGEN--\":5:14   */\n      dup1\n        /* \"--CODEGEN--\":2:4   */\n      iszero\n      tag_1\n      jumpi\n        /* \"--CODEGEN--\":27:28   */\n      0x00\n        /* \"--CODEGEN--\":24:25   */\n      dup1\n        /* \"--CODEGEN--\":17:29   */\n      revert\n        /* \"--CODEGEN--\":2:4   */\n    tag_1:\n        /* \"Tipos de variables y operadores/unidades tiempo.sol\":37:378  contract tiempo{\r... */\n      pop\n      jumpi(tag_2, lt(calldatasize, 0x04))\n      shr(0xe0, calldataload(0x00))\n      dup1\n      0x01a34875\n      eq\n      tag_3\n      jumpi\n      dup1\n      0x183289fc\n      eq\n      tag_4\n      jumpi\n      dup1\n      0x4f0cea83\n      eq\n      tag_5\n      jumpi\n      dup1\n      0x5a9606a4\n      eq\n      tag_6\n      jumpi\n      dup1\n      0xe70ce4f3\n      eq\n      tag_7\n      jumpi\n      dup1\n      0xe8b1ed29\n      eq\n      tag_8\n      jumpi\n    tag_2:\n        /* \"--CODEGEN--\":12:13   */\n      0x00\n        /* \"--CODEGEN--\":9:10   */\n      dup1\n        /* \"--CODEGEN--\":2:14   */\n      revert\n        /* \"Tipos de variables y operadores/unidades tiempo.sol\":285:375  function MasSegundos() public view returns(uint){\r... */\n    tag_3:\n      tag_9\n      tag_10\n      jump\t// in\n    tag_9:\n      mload(0x40)\n      dup1\n      dup3\n      dup2\n      mstore\n      0x20\n      add\n      swap2\n      pop\n      pop\n      mload(0x40)\n      dup1\n      swap2\n      sub\n      swap1\n      return\n        /* \"Tipos de variables y operadores/unidades tiempo.sol\":244:276  uint public una_semana = 1 weeks */\n    tag_4:\n      tag_11\n      tag_12\n      jump\t// in\n    tag_11:\n      mload(0x40)\n      dup1\n      dup3\n      dup2\n      mstore\n      0x20\n      add\n      swap2\n      pop\n      pop\n      mload(0x40)\n      dup1\n      swap2\n      sub\n      swap1\n      return\n        /* \"Tipos de variables y operadores/unidades tiempo.sol\":201:237  uint public cincuenta_dias = 50 days */\n    tag_5:\n      tag_13\n      tag_14\n      jump\t// in\n    tag_13:\n      mload(0x40)\n      dup1\n      dup3\n      dup2\n      mstore\n      0x20\n      add\n      swap2\n      pop\n      pop\n      mload(0x40)\n      dup1\n      swap2\n      sub\n      swap1\n      return\n        /* \"Tipos de variables y operadores/unidades tiempo.sol\":88:119  uint public tiempo_actual = now */\n    tag_6:\n      tag_15\n      tag_16\n      jump\t// in\n    tag_15:\n      mload(0x40)\n      dup1\n      dup3\n      dup2\n      mstore\n      0x20\n      add\n      swap2\n      pop\n      pop\n      mload(0x40)\n      dup1\n      swap2\n      sub\n      swap1\n      return\n        /* \"Tipos de variables y operadores/unidades tiempo.sol\":126:156  uint public minuto = 1 minutes */\n    tag_7:\n      tag_17\n      tag_18\n      jump\t// in\n    tag_17:\n      mload(0x40)\n      dup1\n      dup3\n      dup2\n      mstore\n      0x20\n      add\n      swap2\n      pop\n      pop\n      mload(0x40)\n      dup1\n      swap2\n      sub\n      swap1\n      return\n        /* \"Tipos de variables y operadores/unidades tiempo.sol\":163:194  uint public dos_horas = 2 hours */\n    tag_8:\n      tag_19\n      tag_20\n      jump\t// in\n    tag_19:\n      mload(0x40)\n      dup1\n      dup3\n      dup2\n      mstore\n      0x20\n      add\n      swap2\n      pop\n      pop\n      mload(0x40)\n      dup1\n      swap2\n      sub\n      swap1\n      return\n        /* \"Tipos de variables y operadores/unidades tiempo.sol\":285:375  function MasSegundos() public view returns(uint){\r... */\n    tag_10:\n        /* \"Tipos de variables y operadores/unidades tiempo.sol\":328:332  uint */\n      0x00\n        /* \"Tipos de variables y operadores/unidades tiempo.sol\":357:367  50 seconds */\n      0x32\n        /* \"Tipos de variables y operadores/unidades tiempo.sol\":351:354  now */\n      timestamp\n        /* \"Tipos de variables y operadores/unidades tiempo.sol\":351:367  now + 50 seconds */\n      add\n        /* \"Tipos de variables y operadores/unidades tiempo.sol\":344:367  return now + 50 seconds */\n      swap1\n      pop\n        /* \"Tipos de variables y operadores/unidades tiempo.sol\":285:375  function MasSegundos() public view returns(uint){\r... */\n      swap1\n      jump\t// out\n        /* \"Tipos de variables y operadores/unidades tiempo.sol\":244:276  uint public una_semana = 1 weeks */\n    tag_12:\n      sload(0x04)\n      dup2\n      jump\t// out\n        /* \"Tipos de variables y operadores/unidades tiempo.sol\":201:237  uint public cincuenta_dias = 50 days */\n    tag_14:\n      sload(0x03)\n      dup2\n      jump\t// out\n        /* \"Tipos de variables y operadores/unidades tiempo.sol\":88:119  uint public tiempo_actual = now */\n    tag_16:\n      sload(0x00)\n      dup2\n      jump\t// out\n        /* \"Tipos de variables y operadores/unidades tiempo.sol\":126:156  uint public minuto = 1 minutes */\n    tag_18:\n      sload(0x01)\n      dup2\n      jump\t// out\n        /* \"Tipos de variables y operadores/unidades tiempo.sol\":163:194  uint public dos_horas = 2 hours */\n    tag_20:\n      sload(0x02)\n      dup2\n      jump\t// out\n\n    auxdata: 0xa2646970667358221220c148341dfc7ac18704b17e167ea936baa641295fa5284d696b5c09dbed325c7964736f6c63430006050033\n}\n",
				"bytecode": {
					"linkReferences": {},
					"object": "608060405242600055603c600155611c206002556241eb0060035562093a8060045534801561002d57600080fd5b5061017a8061003d6000396000f3fe608060405234801561001057600080fd5b50600436106100625760003560e01c806301a3487514610067578063183289fc146100855780634f0cea83146100a35780635a9606a4146100c1578063e70ce4f3146100df578063e8b1ed29146100fd575b600080fd5b61006f61011b565b6040518082815260200191505060405180910390f35b61008d610126565b6040518082815260200191505060405180910390f35b6100ab61012c565b6040518082815260200191505060405180910390f35b6100c9610132565b6040518082815260200191505060405180910390f35b6100e7610138565b6040518082815260200191505060405180910390f35b61010561013e565b6040518082815260200191505060405180910390f35b600060324201905090565b60045481565b60035481565b60005481565b60015481565b6002548156fea2646970667358221220c148341dfc7ac18704b17e167ea936baa641295fa5284d696b5c09dbed325c7964736f6c63430006050033",
					"opcodes": "PUSH1 0x80 PUSH1 0x40 MSTORE TIMESTAMP PUSH1 0x0 SSTORE PUSH1 0x3C PUSH1 0x1 SSTORE PUSH2 0x1C20 PUSH1 0x2 SSTORE PUSH3 0x41EB00 PUSH1 0x3 SSTORE PUSH3 0x93A80 PUSH1 0x4 SSTORE CALLVALUE DUP1 ISZERO PUSH2 0x2D JUMPI PUSH1 0x0 DUP1 REVERT JUMPDEST POP PUSH2 0x17A DUP1 PUSH2 0x3D PUSH1 0x0 CODECOPY PUSH1 0x0 RETURN INVALID PUSH1 0x80 PUSH1 0x40 MSTORE CALLVALUE DUP1 ISZERO PUSH2 0x10 JUMPI PUSH1 0x0 DUP1 REVERT JUMPDEST POP PUSH1 0x4 CALLDATASIZE LT PUSH2 0x62 JUMPI PUSH1 0x0 CALLDATALOAD PUSH1 0xE0 SHR DUP1 PUSH4 0x1A34875 EQ PUSH2 0x67 JUMPI DUP1 PUSH4 0x183289FC EQ PUSH2 0x85 JUMPI DUP1 PUSH4 0x4F0CEA83 EQ PUSH2 0xA3 JUMPI DUP1 PUSH4 0x5A9606A4 EQ PUSH2 0xC1 JUMPI DUP1 PUSH4 0xE70CE4F3 EQ PUSH2 0xDF JUMPI DUP1 PUSH4 0xE8B1ED29 EQ PUSH2 0xFD JUMPI JUMPDEST PUSH1 0x0 DUP1 REVERT JUMPDEST PUSH2 0x6F PUSH2 0x11B JUMP JUMPDEST PUSH1 0x40 MLOAD DUP1 DUP3 DUP2 MSTORE PUSH1 0x20 ADD SWAP2 POP POP PUSH1 0x40 MLOAD DUP1 SWAP2 SUB SWAP1 RETURN JUMPDEST PUSH2 0x8D PUSH2 0x126 JUMP JUMPDEST PUSH1 0x40 MLOAD DUP1 DUP3 DUP2 MSTORE PUSH1 0x20 ADD SWAP2 POP POP PUSH1 0x40 MLOAD DUP1 SWAP2 SUB SWAP1 RETURN JUMPDEST PUSH2 0xAB PUSH2 0x12C JUMP JUMPDEST PUSH1 0x40 MLOAD DUP1 DUP3 DUP2 MSTORE PUSH1 0x20 ADD SWAP2 POP POP PUSH1 0x40 MLOAD DUP1 SWAP2 SUB SWAP1 RETURN JUMPDEST PUSH2 0xC9 PUSH2 0x132 JUMP JUMPDEST PUSH1 0x40 MLOAD DUP1 DUP3 DUP2 MSTORE PUSH1 0x20 ADD SWAP2 POP POP PUSH1 0x40 MLOAD DUP1 SWAP2 SUB SWAP1 RETURN JUMPDEST PUSH2 0xE7 PUSH2 0x138 JUMP JUMPDEST PUSH1 0x40 MLOAD DUP1 DUP3 DUP2 MSTORE PUSH1 0x20 ADD SWAP2 POP POP PUSH1 0x40 MLOAD DUP1 SWAP2 SUB SWAP1 RETURN JUMPDEST PUSH2 0x105 PUSH2 0x13E JUMP JUMPDEST PUSH1 0x40 MLOAD DUP1 DUP3 DUP2 MSTORE PUSH1 0x20 ADD SWAP2 POP POP PUSH1 0x40 MLOAD DUP1 SWAP2 SUB SWAP1 RETURN JUMPDEST PUSH1 0x0 PUSH1 0x32 TIMESTAMP ADD SWAP1 POP SWAP1 JUMP JUMPDEST PUSH1 0x4 SLOAD DUP2 JUMP JUMPDEST PUSH1 0x3 SLOAD DUP2 JUMP JUMPDEST PUSH1 0x0 SLOAD DUP2 JUMP JUMPDEST PUSH1 0x1 SLOAD DUP2 JUMP JUMPDEST PUSH1 0x2 SLOAD DUP2 JUMP INVALID LOG2 PUSH5 0x6970667358 0x22 SLT KECCAK256 0xC1 0x48 CALLVALUE SAR 0xFC PUSH27 0xC18704B17E167EA936BAA641295FA5284D696B5C09DBED325C7964 PUSH20 0x6F6C634300060500330000000000000000000000 "
				},
				"gasEstimates": {
					"creation": {
						"codeDepositCost": "75600",
						"executionCost": "100152",
						"totalCost": "175752"
					},
					"external": {
						"MasSegundos()": "196",
						"cincuenta_dias()": "1027",
						"dos_horas()": "1093",
						"minuto()": "1071",
						"tiempo_actual()": "1049",
						"una_semana()": "1005"
					}
				},
				"methodIdentifiers": {
					"MasSegundos()": "01a34875",
					"cincuenta_dias()": "4f0cea83",
					"dos_horas()": "e8b1ed29",
					"minuto()": "e70ce4f3",
					"tiempo_actual()": "5a9606a4",
					"una_semana()": "183289fc"
				}
			},
			"storageLayout": {
				"storage": [
					{
						"astId": 4,
						"contract": "Tipos de variables y operadores/unidades tiempo.sol:tiempo",
						"label": "tiempo_actual",
						"offset": 0,
						"slot": "0",
						"type": "t_uint256"
					},
					{
						"astId": 7,
						"contract": "Tipos de variables y operadores/unidades tiempo.sol:tiempo",
						"label": "minuto",
						"offset": 0,
						"slot": "1",
						"type": "t_uint256"
					},
					{
						"astId": 10,
						"contract": "Tipos de variables y operadores/unidades tiempo.sol:tiempo",
						"label": "dos_horas",
						"offset": 0,
						"slot": "2",
						"type": "t_uint256"
					},
					{
						"astId": 13,
						"contract": "Tipos de variables y operadores/unidades tiempo.sol:tiempo",
						"label": "cincuenta_dias",
						"offset": 0,
						"slot": "3",
						"type": "t_uint256"
					},
					{
						"astId": 16,
						"contract": "Tipos de variables y operadores/unidades tiempo.sol:tiempo",
						"label": "una_semana",
						"offset": 0,
						"slot": "4",
						"type": "t_uint256"
					}
				],
				"types": {
					"t_uint256": {
						"encoding": "inplace",
						"label": "uint256",
						"numberOfBytes": "32"
					}
				}
			},
			"userdoc": {
				"methods": {}
			}
		}
	}
}