{
	"Tipos de variables y operadores/enums.sol": {
		"Ejemplos_enumeraciones": {
			"abi": [
				{
					"inputs": [],
					"name": "Estado",
					"outputs": [
						{
							"internalType": "enum Ejemplos_enumeraciones.estado",
							"name": "",
							"type": "uint8"
						}
					],
					"stateMutability": "view",
					"type": "function"
				},
				{
					"inputs": [],
					"name": "apagar",
					"outputs": [],
					"stateMutability": "nonpayable",
					"type": "function"
				},
				{
					"inputs": [],
					"name": "escender",
					"outputs": [],
					"stateMutability": "nonpayable",
					"type": "function"
				},
				{
					"inputs": [
						{
							"internalType": "uint256",
							"name": "_k",
							"type": "uint256"
						}
					],
					"name": "fijar_estado",
					"outputs": [],
					"stateMutability": "nonpayable",
					"type": "function"
				}
			],
			"devdoc": {
				"methods": {}
			},
			"evm": {
				"assembly": "    /* \"Tipos de variables y operadores/enums.sol\":37:548  contract Ejemplos_enumeraciones{\r... */\n  mstore(0x40, 0x80)\n  callvalue\n    /* \"--CODEGEN--\":5:14   */\n  dup1\n    /* \"--CODEGEN--\":2:4   */\n  iszero\n  tag_1\n  jumpi\n    /* \"--CODEGEN--\":27:28   */\n  0x00\n    /* \"--CODEGEN--\":24:25   */\n  dup1\n    /* \"--CODEGEN--\":17:29   */\n  revert\n    /* \"--CODEGEN--\":2:4   */\ntag_1:\n    /* \"Tipos de variables y operadores/enums.sol\":37:548  contract Ejemplos_enumeraciones{\r... */\n  pop\n  dataSize(sub_0)\n  dup1\n  dataOffset(sub_0)\n  0x00\n  codecopy\n  0x00\n  return\nstop\n\nsub_0: assembly {\n        /* \"Tipos de variables y operadores/enums.sol\":37:548  contract Ejemplos_enumeraciones{\r... */\n      mstore(0x40, 0x80)\n      callvalue\n        /* \"--CODEGEN--\":5:14   */\n      dup1\n        /* \"--CODEGEN--\":2:4   */\n      iszero\n      tag_1\n      jumpi\n        /* \"--CODEGEN--\":27:28   */\n      0x00\n        /* \"--CODEGEN--\":24:25   */\n      dup1\n        /* \"--CODEGEN--\":17:29   */\n      revert\n        /* \"--CODEGEN--\":2:4   */\n    tag_1:\n        /* \"Tipos de variables y operadores/enums.sol\":37:548  contract Ejemplos_enumeraciones{\r... */\n      pop\n      jumpi(tag_2, lt(calldatasize, 0x04))\n      shr(0xe0, calldataload(0x00))\n      dup1\n      0x2b38329b\n      eq\n      tag_3\n      jumpi\n      dup1\n      0x862b7129\n      eq\n      tag_4\n      jumpi\n      dup1\n      0x902a641b\n      eq\n      tag_5\n      jumpi\n      dup1\n      0xb46e8d1a\n      eq\n      tag_6\n      jumpi\n    tag_2:\n        /* \"--CODEGEN--\":12:13   */\n      0x00\n        /* \"--CODEGEN--\":9:10   */\n      dup1\n        /* \"--CODEGEN--\":2:14   */\n      revert\n        /* \"Tipos de variables y operadores/enums.sol\":331:404  function fijar_estado(uint _k)public{\r... */\n    tag_3:\n      tag_7\n      0x04\n      dup1\n      calldatasize\n      sub\n        /* \"--CODEGEN--\":15:17   */\n      0x20\n        /* \"--CODEGEN--\":10:13   */\n      dup2\n        /* \"--CODEGEN--\":7:18   */\n      lt\n        /* \"--CODEGEN--\":4:6   */\n      iszero\n      tag_8\n      jumpi\n        /* \"--CODEGEN--\":31:32   */\n      0x00\n        /* \"--CODEGEN--\":28:29   */\n      dup1\n        /* \"--CODEGEN--\":21:33   */\n      revert\n        /* \"--CODEGEN--\":4:6   */\n    tag_8:\n        /* \"Tipos de variables y operadores/enums.sol\":331:404  function fijar_estado(uint _k)public{\r... */\n      dup2\n      add\n      swap1\n      dup1\n      dup1\n      calldataload\n      swap1\n      0x20\n      add\n      swap1\n      swap3\n      swap2\n      swap1\n      pop\n      pop\n      pop\n      tag_9\n      jump\t// in\n    tag_7:\n      stop\n        /* \"Tipos de variables y operadores/enums.sol\":263:323  function apagar()public{\r... */\n    tag_4:\n      tag_10\n      tag_11\n      jump\t// in\n    tag_10:\n      stop\n        /* \"Tipos de variables y operadores/enums.sol\":193:254  function escender()public{\r... */\n    tag_5:\n      tag_12\n      tag_13\n      jump\t// in\n    tag_12:\n      stop\n        /* \"Tipos de variables y operadores/enums.sol\":412:488  function Estado() public view returns(estado){\r... */\n    tag_6:\n      tag_14\n      tag_15\n      jump\t// in\n    tag_14:\n      mload(0x40)\n      dup1\n      dup3\n      0x01\n      dup2\n      gt\n      iszero\n      tag_16\n      jumpi\n      invalid\n    tag_16:\n      0xff\n      and\n      dup2\n      mstore\n      0x20\n      add\n      swap2\n      pop\n      pop\n      mload(0x40)\n      dup1\n      swap2\n      sub\n      swap1\n      return\n        /* \"Tipos de variables y operadores/enums.sol\":331:404  function fijar_estado(uint _k)public{\r... */\n    tag_9:\n        /* \"Tipos de variables y operadores/enums.sol\":393:395  _k */\n      dup1\n        /* \"Tipos de variables y operadores/enums.sol\":386:396  estado(_k) */\n      0x01\n      dup2\n      gt\n      iszero\n      tag_18\n      jumpi\n      invalid\n    tag_18:\n        /* \"Tipos de variables y operadores/enums.sol\":378:383  state */\n      0x00\n      dup1\n        /* \"Tipos de variables y operadores/enums.sol\":378:396  state = estado(_k) */\n      0x0100\n      exp\n      dup2\n      sload\n      dup2\n      0xff\n      mul\n      not\n      and\n      swap1\n      dup4\n      0x01\n      dup2\n      gt\n      iszero\n      tag_19\n      jumpi\n      invalid\n    tag_19:\n      mul\n      or\n      swap1\n      sstore\n      pop\n        /* \"Tipos de variables y operadores/enums.sol\":331:404  function fijar_estado(uint _k)public{\r... */\n      pop\n      jump\t// out\n        /* \"Tipos de variables y operadores/enums.sol\":263:323  function apagar()public{\r... */\n    tag_11:\n        /* \"Tipos de variables y operadores/enums.sol\":305:315  estado.OFF */\n      0x01\n        /* \"Tipos de variables y operadores/enums.sol\":297:302  state */\n      0x00\n      dup1\n        /* \"Tipos de variables y operadores/enums.sol\":297:315  state = estado.OFF */\n      0x0100\n      exp\n      dup2\n      sload\n      dup2\n      0xff\n      mul\n      not\n      and\n      swap1\n      dup4\n      0x01\n      dup2\n      gt\n      iszero\n      tag_21\n      jumpi\n      invalid\n    tag_21:\n      mul\n      or\n      swap1\n      sstore\n      pop\n        /* \"Tipos de variables y operadores/enums.sol\":263:323  function apagar()public{\r... */\n      jump\t// out\n        /* \"Tipos de variables y operadores/enums.sol\":193:254  function escender()public{\r... */\n    tag_13:\n        /* \"Tipos de variables y operadores/enums.sol\":237:246  estado.ON */\n      0x00\n        /* \"Tipos de variables y operadores/enums.sol\":229:234  state */\n      dup1\n      0x00\n        /* \"Tipos de variables y operadores/enums.sol\":229:246  state = estado.ON */\n      0x0100\n      exp\n      dup2\n      sload\n      dup2\n      0xff\n      mul\n      not\n      and\n      swap1\n      dup4\n      0x01\n      dup2\n      gt\n      iszero\n      tag_23\n      jumpi\n      invalid\n    tag_23:\n      mul\n      or\n      swap1\n      sstore\n      pop\n        /* \"Tipos de variables y operadores/enums.sol\":193:254  function escender()public{\r... */\n      jump\t// out\n        /* \"Tipos de variables y operadores/enums.sol\":412:488  function Estado() public view returns(estado){\r... */\n    tag_15:\n        /* \"Tipos de variables y operadores/enums.sol\":450:456  estado */\n      0x00\n        /* \"Tipos de variables y operadores/enums.sol\":475:480  state */\n      dup1\n      0x00\n      swap1\n      sload\n      swap1\n      0x0100\n      exp\n      swap1\n      div\n      0xff\n      and\n        /* \"Tipos de variables y operadores/enums.sol\":468:480  return state */\n      swap1\n      pop\n        /* \"Tipos de variables y operadores/enums.sol\":412:488  function Estado() public view returns(estado){\r... */\n      swap1\n      jump\t// out\n\n    auxdata: 0xa26469706673582212204d68fa292ecc6f2e13da42b4adc333115d5103e80a8c195874c745da26b8794b64736f6c63430006050033\n}\n",
				"bytecode": {
					"linkReferences": {},
					"object": "608060405234801561001057600080fd5b50610185806100206000396000f3fe608060405234801561001057600080fd5b506004361061004c5760003560e01c80632b38329b14610051578063862b71291461007f578063902a641b14610089578063b46e8d1a14610093575b600080fd5b61007d6004803603602081101561006757600080fd5b81019080803590602001909291905050506100bf565b005b6100876100ef565b005b610091610114565b005b61009b610139565b604051808260018111156100ab57fe5b60ff16815260200191505060405180910390f35b8060018111156100cb57fe5b6000806101000a81548160ff021916908360018111156100e757fe5b021790555050565b60016000806101000a81548160ff0219169083600181111561010d57fe5b0217905550565b60008060006101000a81548160ff0219169083600181111561013257fe5b0217905550565b60008060009054906101000a900460ff1690509056fea26469706673582212204d68fa292ecc6f2e13da42b4adc333115d5103e80a8c195874c745da26b8794b64736f6c63430006050033",
					"opcodes": "PUSH1 0x80 PUSH1 0x40 MSTORE CALLVALUE DUP1 ISZERO PUSH2 0x10 JUMPI PUSH1 0x0 DUP1 REVERT JUMPDEST POP PUSH2 0x185 DUP1 PUSH2 0x20 PUSH1 0x0 CODECOPY PUSH1 0x0 RETURN INVALID PUSH1 0x80 PUSH1 0x40 MSTORE CALLVALUE DUP1 ISZERO PUSH2 0x10 JUMPI PUSH1 0x0 DUP1 REVERT JUMPDEST POP PUSH1 0x4 CALLDATASIZE LT PUSH2 0x4C JUMPI PUSH1 0x0 CALLDATALOAD PUSH1 0xE0 SHR DUP1 PUSH4 0x2B38329B EQ PUSH2 0x51 JUMPI DUP1 PUSH4 0x862B7129 EQ PUSH2 0x7F JUMPI DUP1 PUSH4 0x902A641B EQ PUSH2 0x89 JUMPI DUP1 PUSH4 0xB46E8D1A EQ PUSH2 0x93 JUMPI JUMPDEST PUSH1 0x0 DUP1 REVERT JUMPDEST PUSH2 0x7D PUSH1 0x4 DUP1 CALLDATASIZE SUB PUSH1 0x20 DUP2 LT ISZERO PUSH2 0x67 JUMPI PUSH1 0x0 DUP1 REVERT JUMPDEST DUP2 ADD SWAP1 DUP1 DUP1 CALLDATALOAD SWAP1 PUSH1 0x20 ADD SWAP1 SWAP3 SWAP2 SWAP1 POP POP POP PUSH2 0xBF JUMP JUMPDEST STOP JUMPDEST PUSH2 0x87 PUSH2 0xEF JUMP JUMPDEST STOP JUMPDEST PUSH2 0x91 PUSH2 0x114 JUMP JUMPDEST STOP JUMPDEST PUSH2 0x9B PUSH2 0x139 JUMP JUMPDEST PUSH1 0x40 MLOAD DUP1 DUP3 PUSH1 0x1 DUP2 GT ISZERO PUSH2 0xAB JUMPI INVALID JUMPDEST PUSH1 0xFF AND DUP2 MSTORE PUSH1 0x20 ADD SWAP2 POP POP PUSH1 0x40 MLOAD DUP1 SWAP2 SUB SWAP1 RETURN JUMPDEST DUP1 PUSH1 0x1 DUP2 GT ISZERO PUSH2 0xCB JUMPI INVALID JUMPDEST PUSH1 0x0 DUP1 PUSH2 0x100 EXP DUP2 SLOAD DUP2 PUSH1 0xFF MUL NOT AND SWAP1 DUP4 PUSH1 0x1 DUP2 GT ISZERO PUSH2 0xE7 JUMPI INVALID JUMPDEST MUL OR SWAP1 SSTORE POP POP JUMP JUMPDEST PUSH1 0x1 PUSH1 0x0 DUP1 PUSH2 0x100 EXP DUP2 SLOAD DUP2 PUSH1 0xFF MUL NOT AND SWAP1 DUP4 PUSH1 0x1 DUP2 GT ISZERO PUSH2 0x10D JUMPI INVALID JUMPDEST MUL OR SWAP1 SSTORE POP JUMP JUMPDEST PUSH1 0x0 DUP1 PUSH1 0x0 PUSH2 0x100 EXP DUP2 SLOAD DUP2 PUSH1 0xFF MUL NOT AND SWAP1 DUP4 PUSH1 0x1 DUP2 GT ISZERO PUSH2 0x132 JUMPI INVALID JUMPDEST MUL OR SWAP1 SSTORE POP JUMP JUMPDEST PUSH1 0x0 DUP1 PUSH1 0x0 SWAP1 SLOAD SWAP1 PUSH2 0x100 EXP SWAP1 DIV PUSH1 0xFF AND SWAP1 POP SWAP1 JUMP INVALID LOG2 PUSH5 0x6970667358 0x22 SLT KECCAK256 0x4D PUSH9 0xFA292ECC6F2E13DA42 0xB4 0xAD 0xC3 CALLER GT 0x5D MLOAD SUB 0xE8 EXP DUP13 NOT PC PUSH21 0xC745DA26B8794B64736F6C63430006050033000000 "
				},
				"gasEstimates": {
					"creation": {
						"codeDepositCost": "77800",
						"executionCost": "129",
						"totalCost": "77929"
					},
					"external": {
						"Estado()": "1125",
						"apagar()": "21031",
						"escender()": "21053",
						"fijar_estado(uint256)": "21119"
					}
				},
				"methodIdentifiers": {
					"Estado()": "b46e8d1a",
					"apagar()": "862b7129",
					"escender()": "902a641b",
					"fijar_estado(uint256)": "2b38329b"
				}
			},
			"storageLayout": {
				"storage": [
					{
						"astId": 6,
						"contract": "Tipos de variables y operadores/enums.sol:Ejemplos_enumeraciones",
						"label": "state",
						"offset": 0,
						"slot": "0",
						"type": "t_enum(estado)4"
					}
				],
				"types": {
					"t_enum(estado)4": {
						"encoding": "inplace",
						"label": "enum Ejemplos_enumeraciones.estado",
						"numberOfBytes": "1"
					}
				}
			},
			"userdoc": {
				"methods": {}
			}
		}
	}
}