{
	"Tipos de variables y operadores/unidades tiempo.sol": {
		"tiempo": {
			"abi": [
				{
					"inputs": [],
					"name": "cincuenta_dias",
					"outputs": [
						{
							"internalType": "uint256",
							"name": "",
							"type": "uint256"
						}
					],
					"stateMutability": "view",
					"type": "function"
				},
				{
					"inputs": [],
					"name": "dos_horas",
					"outputs": [
						{
							"internalType": "uint256",
							"name": "",
							"type": "uint256"
						}
					],
					"stateMutability": "view",
					"type": "function"
				},
				{
					"inputs": [],
					"name": "minuto",
					"outputs": [
						{
							"internalType": "uint256",
							"name": "",
							"type": "uint256"
						}
					],
					"stateMutability": "view",
					"type": "function"
				},
				{
					"inputs": [],
					"name": "tiempo_actual",
					"outputs": [
						{
							"internalType": "uint256",
							"name": "",
							"type": "uint256"
						}
					],
					"stateMutability": "view",
					"type": "function"
				},
				{
					"inputs": [],
					"name": "una_semana",
					"outputs": [
						{
							"internalType": "uint256",
							"name": "",
							"type": "uint256"
						}
					],
					"stateMutability": "view",
					"type": "function"
				}
			],
			"devdoc": {
				"methods": {}
			},
			"evm": {
				"assembly": "    /* \"Tipos de variables y operadores/unidades tiempo.sol\":37:282  contract tiempo{\r... */\n  mstore(0x40, 0x80)\n    /* \"Tipos de variables y operadores/unidades tiempo.sol\":116:119  now */\n  timestamp\n    /* \"Tipos de variables y operadores/unidades tiempo.sol\":88:119  uint public tiempo_actual = now */\n  0x00\n  sstore\n    /* \"Tipos de variables y operadores/unidades tiempo.sol\":147:156  1 minutes */\n  0x3c\n    /* \"Tipos de variables y operadores/unidades tiempo.sol\":126:156  uint public minuto = 1 minutes */\n  0x01\n  sstore\n    /* \"Tipos de variables y operadores/unidades tiempo.sol\":187:194  2 hours */\n  0x1c20\n    /* \"Tipos de variables y operadores/unidades tiempo.sol\":163:194  uint public dos_horas = 2 hours */\n  0x02\n  sstore\n    /* \"Tipos de variables y operadores/unidades tiempo.sol\":230:237  50 days */\n  0x41eb00\n    /* \"Tipos de variables y operadores/unidades tiempo.sol\":201:237  uint public cincuenta_dias = 50 days */\n  0x03\n  sstore\n    /* \"Tipos de variables y operadores/unidades tiempo.sol\":269:276  1 weeks */\n  0x093a80\n    /* \"Tipos de variables y operadores/unidades tiempo.sol\":244:276  uint public una_semana = 1 weeks */\n  0x04\n  sstore\n    /* \"Tipos de variables y operadores/unidades tiempo.sol\":37:282  contract tiempo{\r... */\n  callvalue\n    /* \"--CODEGEN--\":5:14   */\n  dup1\n    /* \"--CODEGEN--\":2:4   */\n  iszero\n  tag_1\n  jumpi\n    /* \"--CODEGEN--\":27:28   */\n  0x00\n    /* \"--CODEGEN--\":24:25   */\n  dup1\n    /* \"--CODEGEN--\":17:29   */\n  revert\n    /* \"--CODEGEN--\":2:4   */\ntag_1:\n    /* \"Tipos de variables y operadores/unidades tiempo.sol\":37:282  contract tiempo{\r... */\n  pop\n  dataSize(sub_0)\n  dup1\n  dataOffset(sub_0)\n  0x00\n  codecopy\n  0x00\n  return\nstop\n\nsub_0: assembly {\n        /* \"Tipos de variables y operadores/unidades tiempo.sol\":37:282  contract tiempo{\r... */\n      mstore(0x40, 0x80)\n      callvalue\n        /* \"--CODEGEN--\":5:14   */\n      dup1\n        /* \"--CODEGEN--\":2:4   */\n      iszero\n      tag_1\n      jumpi\n        /* \"--CODEGEN--\":27:28   */\n      0x00\n        /* \"--CODEGEN--\":24:25   */\n      dup1\n        /* \"--CODEGEN--\":17:29   */\n      revert\n        /* \"--CODEGEN--\":2:4   */\n    tag_1:\n        /* \"Tipos de variables y operadores/unidades tiempo.sol\":37:282  contract tiempo{\r... */\n      pop\n      jumpi(tag_2, lt(calldatasize, 0x04))\n      shr(0xe0, calldataload(0x00))\n      dup1\n      0x183289fc\n      eq\n      tag_3\n      jumpi\n      dup1\n      0x4f0cea83\n      eq\n      tag_4\n      jumpi\n      dup1\n      0x5a9606a4\n      eq\n      tag_5\n      jumpi\n      dup1\n      0xe70ce4f3\n      eq\n      tag_6\n      jumpi\n      dup1\n      0xe8b1ed29\n      eq\n      tag_7\n      jumpi\n    tag_2:\n        /* \"--CODEGEN--\":12:13   */\n      0x00\n        /* \"--CODEGEN--\":9:10   */\n      dup1\n        /* \"--CODEGEN--\":2:14   */\n      revert\n        /* \"Tipos de variables y operadores/unidades tiempo.sol\":244:276  uint public una_semana = 1 weeks */\n    tag_3:\n      tag_8\n      tag_9\n      jump\t// in\n    tag_8:\n      mload(0x40)\n      dup1\n      dup3\n      dup2\n      mstore\n      0x20\n      add\n      swap2\n      pop\n      pop\n      mload(0x40)\n      dup1\n      swap2\n      sub\n      swap1\n      return\n        /* \"Tipos de variables y operadores/unidades tiempo.sol\":201:237  uint public cincuenta_dias = 50 days */\n    tag_4:\n      tag_10\n      tag_11\n      jump\t// in\n    tag_10:\n      mload(0x40)\n      dup1\n      dup3\n      dup2\n      mstore\n      0x20\n      add\n      swap2\n      pop\n      pop\n      mload(0x40)\n      dup1\n      swap2\n      sub\n      swap1\n      return\n        /* \"Tipos de variables y operadores/unidades tiempo.sol\":88:119  uint public tiempo_actual = now */\n    tag_5:\n      tag_12\n      tag_13\n      jump\t// in\n    tag_12:\n      mload(0x40)\n      dup1\n      dup3\n      dup2\n      mstore\n      0x20\n      add\n      swap2\n      pop\n      pop\n      mload(0x40)\n      dup1\n      swap2\n      sub\n      swap1\n      return\n        /* \"Tipos de variables y operadores/unidades tiempo.sol\":126:156  uint public minuto = 1 minutes */\n    tag_6:\n      tag_14\n      tag_15\n      jump\t// in\n    tag_14:\n      mload(0x40)\n      dup1\n      dup3\n      dup2\n      mstore\n      0x20\n      add\n      swap2\n      pop\n      pop\n      mload(0x40)\n      dup1\n      swap2\n      sub\n      swap1\n      return\n        /* \"Tipos de variables y operadores/unidades tiempo.sol\":163:194  uint public dos_horas = 2 hours */\n    tag_7:\n      tag_16\n      tag_17\n      jump\t// in\n    tag_16:\n      mload(0x40)\n      dup1\n      dup3\n      dup2\n      mstore\n      0x20\n      add\n      swap2\n      pop\n      pop\n      mload(0x40)\n      dup1\n      swap2\n      sub\n      swap1\n      return\n        /* \"Tipos de variables y operadores/unidades tiempo.sol\":244:276  uint public una_semana = 1 weeks */\n    tag_9:\n      sload(0x04)\n      dup2\n      jump\t// out\n        /* \"Tipos de variables y operadores/unidades tiempo.sol\":201:237  uint public cincuenta_dias = 50 days */\n    tag_11:\n      sload(0x03)\n      dup2\n      jump\t// out\n        /* \"Tipos de variables y operadores/unidades tiempo.sol\":88:119  uint public tiempo_actual = now */\n    tag_13:\n      sload(0x00)\n      dup2\n      jump\t// out\n        /* \"Tipos de variables y operadores/unidades tiempo.sol\":126:156  uint public minuto = 1 minutes */\n    tag_15:\n      sload(0x01)\n      dup2\n      jump\t// out\n        /* \"Tipos de variables y operadores/unidades tiempo.sol\":163:194  uint public dos_horas = 2 hours */\n    tag_17:\n      sload(0x02)\n      dup2\n      jump\t// out\n\n    auxdata: 0xa2646970667358221220e373f6785cc1b0d50c1f800ce31819b747f0b8e73c96bf428071fc288c9c798664736f6c63430006050033\n}\n",
				"bytecode": {
					"linkReferences": {},
					"object": "608060405242600055603c600155611c206002556241eb0060035562093a8060045534801561002d57600080fd5b506101468061003d6000396000f3fe608060405234801561001057600080fd5b50600436106100575760003560e01c8063183289fc1461005c5780634f0cea831461007a5780635a9606a414610098578063e70ce4f3146100b6578063e8b1ed29146100d4575b600080fd5b6100646100f2565b6040518082815260200191505060405180910390f35b6100826100f8565b6040518082815260200191505060405180910390f35b6100a06100fe565b6040518082815260200191505060405180910390f35b6100be610104565b6040518082815260200191505060405180910390f35b6100dc61010a565b6040518082815260200191505060405180910390f35b60045481565b60035481565b60005481565b60015481565b6002548156fea2646970667358221220e373f6785cc1b0d50c1f800ce31819b747f0b8e73c96bf428071fc288c9c798664736f6c63430006050033",
					"opcodes": "PUSH1 0x80 PUSH1 0x40 MSTORE TIMESTAMP PUSH1 0x0 SSTORE PUSH1 0x3C PUSH1 0x1 SSTORE PUSH2 0x1C20 PUSH1 0x2 SSTORE PUSH3 0x41EB00 PUSH1 0x3 SSTORE PUSH3 0x93A80 PUSH1 0x4 SSTORE CALLVALUE DUP1 ISZERO PUSH2 0x2D JUMPI PUSH1 0x0 DUP1 REVERT JUMPDEST POP PUSH2 0x146 DUP1 PUSH2 0x3D PUSH1 0x0 CODECOPY PUSH1 0x0 RETURN INVALID PUSH1 0x80 PUSH1 0x40 MSTORE CALLVALUE DUP1 ISZERO PUSH2 0x10 JUMPI PUSH1 0x0 DUP1 REVERT JUMPDEST POP PUSH1 0x4 CALLDATASIZE LT PUSH2 0x57 JUMPI PUSH1 0x0 CALLDATALOAD PUSH1 0xE0 SHR DUP1 PUSH4 0x183289FC EQ PUSH2 0x5C JUMPI DUP1 PUSH4 0x4F0CEA83 EQ PUSH2 0x7A JUMPI DUP1 PUSH4 0x5A9606A4 EQ PUSH2 0x98 JUMPI DUP1 PUSH4 0xE70CE4F3 EQ PUSH2 0xB6 JUMPI DUP1 PUSH4 0xE8B1ED29 EQ PUSH2 0xD4 JUMPI JUMPDEST PUSH1 0x0 DUP1 REVERT JUMPDEST PUSH2 0x64 PUSH2 0xF2 JUMP JUMPDEST PUSH1 0x40 MLOAD DUP1 DUP3 DUP2 MSTORE PUSH1 0x20 ADD SWAP2 POP POP PUSH1 0x40 MLOAD DUP1 SWAP2 SUB SWAP1 RETURN JUMPDEST PUSH2 0x82 PUSH2 0xF8 JUMP JUMPDEST PUSH1 0x40 MLOAD DUP1 DUP3 DUP2 MSTORE PUSH1 0x20 ADD SWAP2 POP POP PUSH1 0x40 MLOAD DUP1 SWAP2 SUB SWAP1 RETURN JUMPDEST PUSH2 0xA0 PUSH2 0xFE JUMP JUMPDEST PUSH1 0x40 MLOAD DUP1 DUP3 DUP2 MSTORE PUSH1 0x20 ADD SWAP2 POP POP PUSH1 0x40 MLOAD DUP1 SWAP2 SUB SWAP1 RETURN JUMPDEST PUSH2 0xBE PUSH2 0x104 JUMP JUMPDEST PUSH1 0x40 MLOAD DUP1 DUP3 DUP2 MSTORE PUSH1 0x20 ADD SWAP2 POP POP PUSH1 0x40 MLOAD DUP1 SWAP2 SUB SWAP1 RETURN JUMPDEST PUSH2 0xDC PUSH2 0x10A JUMP JUMPDEST PUSH1 0x40 MLOAD DUP1 DUP3 DUP2 MSTORE PUSH1 0x20 ADD SWAP2 POP POP PUSH1 0x40 MLOAD DUP1 SWAP2 SUB SWAP1 RETURN JUMPDEST PUSH1 0x4 SLOAD DUP2 JUMP JUMPDEST PUSH1 0x3 SLOAD DUP2 JUMP JUMPDEST PUSH1 0x0 SLOAD DUP2 JUMP JUMPDEST PUSH1 0x1 SLOAD DUP2 JUMP JUMPDEST PUSH1 0x2 SLOAD DUP2 JUMP INVALID LOG2 PUSH5 0x6970667358 0x22 SLT KECCAK256 0xE3 PUSH20 0xF6785CC1B0D50C1F800CE31819B747F0B8E73C96 0xBF TIMESTAMP DUP1 PUSH18 0xFC288C9C798664736F6C6343000605003300 "
				},
				"gasEstimates": {
					"creation": {
						"codeDepositCost": "65200",
						"executionCost": "100146",
						"totalCost": "165346"
					},
					"external": {
						"cincuenta_dias()": "1005",
						"dos_horas()": "1071",
						"minuto()": "1049",
						"tiempo_actual()": "1027",
						"una_semana()": "983"
					}
				},
				"methodIdentifiers": {
					"cincuenta_dias()": "4f0cea83",
					"dos_horas()": "e8b1ed29",
					"minuto()": "e70ce4f3",
					"tiempo_actual()": "5a9606a4",
					"una_semana()": "183289fc"
				}
			},
			"storageLayout": {
				"storage": [
					{
						"astId": 4,
						"contract": "Tipos de variables y operadores/unidades tiempo.sol:tiempo",
						"label": "tiempo_actual",
						"offset": 0,
						"slot": "0",
						"type": "t_uint256"
					},
					{
						"astId": 7,
						"contract": "Tipos de variables y operadores/unidades tiempo.sol:tiempo",
						"label": "minuto",
						"offset": 0,
						"slot": "1",
						"type": "t_uint256"
					},
					{
						"astId": 10,
						"contract": "Tipos de variables y operadores/unidades tiempo.sol:tiempo",
						"label": "dos_horas",
						"offset": 0,
						"slot": "2",
						"type": "t_uint256"
					},
					{
						"astId": 13,
						"contract": "Tipos de variables y operadores/unidades tiempo.sol:tiempo",
						"label": "cincuenta_dias",
						"offset": 0,
						"slot": "3",
						"type": "t_uint256"
					},
					{
						"astId": 16,
						"contract": "Tipos de variables y operadores/unidades tiempo.sol:tiempo",
						"label": "una_semana",
						"offset": 0,
						"slot": "4",
						"type": "t_uint256"
					}
				],
				"types": {
					"t_uint256": {
						"encoding": "inplace",
						"label": "uint256",
						"numberOfBytes": "32"
					}
				}
			},
			"userdoc": {
				"methods": {}
			}
		}
	}
}