{
	"Propiedades de transacciones y bloques/keccak.sol": {
		"hash": {
			"abi": [
				{
					"inputs": [
						{
							"internalType": "string",
							"name": "_cadena",
							"type": "string"
						}
					],
					"name": "calcularHash",
					"outputs": [
						{
							"internalType": "bytes32",
							"name": "",
							"type": "bytes32"
						}
					],
					"stateMutability": "pure",
					"type": "function"
				},
				{
					"inputs": [
						{
							"internalType": "string",
							"name": "_cadena",
							"type": "string"
						},
						{
							"internalType": "uint256",
							"name": "_k",
							"type": "uint256"
						},
						{
							"internalType": "address",
							"name": "_direccion",
							"type": "address"
						}
					],
					"name": "calcularHash2",
					"outputs": [
						{
							"internalType": "bytes32",
							"name": "",
							"type": "bytes32"
						}
					],
					"stateMutability": "pure",
					"type": "function"
				},
				{
					"inputs": [
						{
							"internalType": "string",
							"name": "_cadena",
							"type": "string"
						},
						{
							"internalType": "uint256",
							"name": "_k",
							"type": "uint256"
						},
						{
							"internalType": "address",
							"name": "_direccion",
							"type": "address"
						}
					],
					"name": "calcularHash3",
					"outputs": [
						{
							"internalType": "bytes32",
							"name": "",
							"type": "bytes32"
						}
					],
					"stateMutability": "pure",
					"type": "function"
				}
			],
			"devdoc": {
				"kind": "dev",
				"methods": {},
				"version": 1
			},
			"evm": {
				"assembly": "    /* \"Propiedades de transacciones y bloques/keccak.sol\":104:645  contract hash{... */\n  mstore(0x40, 0x80)\n  callvalue\n  dup1\n  iszero\n  tag_1\n  jumpi\n  0x00\n  dup1\n  revert\ntag_1:\n  pop\n  dataSize(sub_0)\n  dup1\n  dataOffset(sub_0)\n  0x00\n  codecopy\n  0x00\n  return\nstop\n\nsub_0: assembly {\n        /* \"Propiedades de transacciones y bloques/keccak.sol\":104:645  contract hash{... */\n      mstore(0x40, 0x80)\n      callvalue\n      dup1\n      iszero\n      tag_1\n      jumpi\n      0x00\n      dup1\n      revert\n    tag_1:\n      pop\n      jumpi(tag_2, lt(calldatasize, 0x04))\n      shr(0xe0, calldataload(0x00))\n      dup1\n      0x3d76e909\n      eq\n      tag_3\n      jumpi\n      dup1\n      0x52de28e8\n      eq\n      tag_4\n      jumpi\n      dup1\n      0xda100b1d\n      eq\n      tag_5\n      jumpi\n    tag_2:\n      0x00\n      dup1\n      revert\n        /* \"Propiedades de transacciones y bloques/keccak.sol\":124:259  function calcularHash(string memory _cadena) public pure returns(bytes32){... */\n    tag_3:\n      tag_6\n      0x04\n      dup1\n      calldatasize\n      sub\n      dup2\n      add\n      swap1\n      tag_7\n      swap2\n      swap1\n      tag_8\n      jump\t// in\n    tag_7:\n      tag_9\n      jump\t// in\n    tag_6:\n      mload(0x40)\n      tag_10\n      swap2\n      swap1\n      tag_11\n      jump\t// in\n    tag_10:\n      mload(0x40)\n      dup1\n      swap2\n      sub\n      swap1\n      return\n        /* \"Propiedades de transacciones y bloques/keccak.sol\":456:642  function calcularHash3(string memory _cadena, uint _k, address _direccion) public pure returns(bytes32){... */\n    tag_4:\n      tag_12\n      0x04\n      dup1\n      calldatasize\n      sub\n      dup2\n      add\n      swap1\n      tag_13\n      swap2\n      swap1\n      tag_14\n      jump\t// in\n    tag_13:\n      tag_15\n      jump\t// in\n    tag_12:\n      mload(0x40)\n      tag_16\n      swap2\n      swap1\n      tag_11\n      jump\t// in\n    tag_16:\n      mload(0x40)\n      dup1\n      swap2\n      sub\n      swap1\n      return\n        /* \"Propiedades de transacciones y bloques/keccak.sol\":268:447  function calcularHash2(string memory _cadena, uint _k, address _direccion) public pure returns(bytes32){... */\n    tag_5:\n      tag_17\n      0x04\n      dup1\n      calldatasize\n      sub\n      dup2\n      add\n      swap1\n      tag_18\n      swap2\n      swap1\n      tag_14\n      jump\t// in\n    tag_18:\n      tag_19\n      jump\t// in\n    tag_17:\n      mload(0x40)\n      tag_20\n      swap2\n      swap1\n      tag_11\n      jump\t// in\n    tag_20:\n      mload(0x40)\n      dup1\n      swap2\n      sub\n      swap1\n      return\n        /* \"Propiedades de transacciones y bloques/keccak.sol\":124:259  function calcularHash(string memory _cadena) public pure returns(bytes32){... */\n    tag_9:\n        /* \"Propiedades de transacciones y bloques/keccak.sol\":189:196  bytes32 */\n      0x00\n        /* \"Propiedades de transacciones y bloques/keccak.sol\":242:249  _cadena */\n      dup2\n        /* \"Propiedades de transacciones y bloques/keccak.sol\":225:250  abi.encodePacked(_cadena) */\n      add(0x20, mload(0x40))\n      tag_22\n      swap2\n      swap1\n      tag_23\n      jump\t// in\n    tag_22:\n      mload(0x40)\n      0x20\n      dup2\n      dup4\n      sub\n      sub\n      dup2\n      mstore\n      swap1\n      0x40\n      mstore\n        /* \"Propiedades de transacciones y bloques/keccak.sol\":215:251  keccak256(abi.encodePacked(_cadena)) */\n      dup1\n      mload\n      swap1\n      0x20\n      add\n      keccak256\n        /* \"Propiedades de transacciones y bloques/keccak.sol\":208:251  return keccak256(abi.encodePacked(_cadena)) */\n      swap1\n      pop\n        /* \"Propiedades de transacciones y bloques/keccak.sol\":124:259  function calcularHash(string memory _cadena) public pure returns(bytes32){... */\n      swap2\n      swap1\n      pop\n      jump\t// out\n        /* \"Propiedades de transacciones y bloques/keccak.sol\":456:642  function calcularHash3(string memory _cadena, uint _k, address _direccion) public pure returns(bytes32){... */\n    tag_15:\n        /* \"Propiedades de transacciones y bloques/keccak.sol\":551:558  bytes32 */\n      0x00\n        /* \"Propiedades de transacciones y bloques/keccak.sol\":604:611  _cadena */\n      dup4\n        /* \"Propiedades de transacciones y bloques/keccak.sol\":612:614  _k */\n      dup4\n        /* \"Propiedades de transacciones y bloques/keccak.sol\":615:625  _direccion */\n      dup4\n        /* \"Propiedades de transacciones y bloques/keccak.sol\":587:633  abi.encodePacked(_cadena,_k,_direccion,\"hola\") */\n      add(0x20, mload(0x40))\n      tag_25\n      swap4\n      swap3\n      swap2\n      swap1\n      tag_26\n      jump\t// in\n    tag_25:\n      mload(0x40)\n      0x20\n      dup2\n      dup4\n      sub\n      sub\n      dup2\n      mstore\n      swap1\n      0x40\n      mstore\n        /* \"Propiedades de transacciones y bloques/keccak.sol\":577:634  keccak256(abi.encodePacked(_cadena,_k,_direccion,\"hola\")) */\n      dup1\n      mload\n      swap1\n      0x20\n      add\n      keccak256\n        /* \"Propiedades de transacciones y bloques/keccak.sol\":570:634  return keccak256(abi.encodePacked(_cadena,_k,_direccion,\"hola\")) */\n      swap1\n      pop\n        /* \"Propiedades de transacciones y bloques/keccak.sol\":456:642  function calcularHash3(string memory _cadena, uint _k, address _direccion) public pure returns(bytes32){... */\n      swap4\n      swap3\n      pop\n      pop\n      pop\n      jump\t// out\n        /* \"Propiedades de transacciones y bloques/keccak.sol\":268:447  function calcularHash2(string memory _cadena, uint _k, address _direccion) public pure returns(bytes32){... */\n    tag_19:\n        /* \"Propiedades de transacciones y bloques/keccak.sol\":363:370  bytes32 */\n      0x00\n        /* \"Propiedades de transacciones y bloques/keccak.sol\":416:423  _cadena */\n      dup4\n        /* \"Propiedades de transacciones y bloques/keccak.sol\":424:426  _k */\n      dup4\n        /* \"Propiedades de transacciones y bloques/keccak.sol\":427:437  _direccion */\n      dup4\n        /* \"Propiedades de transacciones y bloques/keccak.sol\":399:438  abi.encodePacked(_cadena,_k,_direccion) */\n      add(0x20, mload(0x40))\n      tag_28\n      swap4\n      swap3\n      swap2\n      swap1\n      tag_29\n      jump\t// in\n    tag_28:\n      mload(0x40)\n      0x20\n      dup2\n      dup4\n      sub\n      sub\n      dup2\n      mstore\n      swap1\n      0x40\n      mstore\n        /* \"Propiedades de transacciones y bloques/keccak.sol\":389:439  keccak256(abi.encodePacked(_cadena,_k,_direccion)) */\n      dup1\n      mload\n      swap1\n      0x20\n      add\n      keccak256\n        /* \"Propiedades de transacciones y bloques/keccak.sol\":382:439  return keccak256(abi.encodePacked(_cadena,_k,_direccion)) */\n      swap1\n      pop\n        /* \"Propiedades de transacciones y bloques/keccak.sol\":268:447  function calcularHash2(string memory _cadena, uint _k, address _direccion) public pure returns(bytes32){... */\n      swap4\n      swap3\n      pop\n      pop\n      pop\n      jump\t// out\n        /* \"#utility.yul\":7:82   */\n    tag_30:\n        /* \"#utility.yul\":40:46   */\n      0x00\n        /* \"#utility.yul\":73:75   */\n      0x40\n        /* \"#utility.yul\":67:76   */\n      mload\n        /* \"#utility.yul\":57:76   */\n      swap1\n      pop\n        /* \"#utility.yul\":7:82   */\n      swap1\n      jump\t// out\n        /* \"#utility.yul\":88:205   */\n    tag_31:\n        /* \"#utility.yul\":197:198   */\n      0x00\n        /* \"#utility.yul\":194:195   */\n      dup1\n        /* \"#utility.yul\":187:199   */\n      revert\n        /* \"#utility.yul\":211:328   */\n    tag_32:\n        /* \"#utility.yul\":320:321   */\n      0x00\n        /* \"#utility.yul\":317:318   */\n      dup1\n        /* \"#utility.yul\":310:322   */\n      revert\n        /* \"#utility.yul\":334:451   */\n    tag_33:\n        /* \"#utility.yul\":443:444   */\n      0x00\n        /* \"#utility.yul\":440:441   */\n      dup1\n        /* \"#utility.yul\":433:445   */\n      revert\n        /* \"#utility.yul\":457:574   */\n    tag_34:\n        /* \"#utility.yul\":566:567   */\n      0x00\n        /* \"#utility.yul\":563:564   */\n      dup1\n        /* \"#utility.yul\":556:568   */\n      revert\n        /* \"#utility.yul\":580:682   */\n    tag_35:\n        /* \"#utility.yul\":621:627   */\n      0x00\n        /* \"#utility.yul\":672:674   */\n      0x1f\n        /* \"#utility.yul\":668:675   */\n      not\n        /* \"#utility.yul\":663:665   */\n      0x1f\n        /* \"#utility.yul\":656:661   */\n      dup4\n        /* \"#utility.yul\":652:666   */\n      add\n        /* \"#utility.yul\":648:676   */\n      and\n        /* \"#utility.yul\":638:676   */\n      swap1\n      pop\n        /* \"#utility.yul\":580:682   */\n      swap2\n      swap1\n      pop\n      jump\t// out\n        /* \"#utility.yul\":688:868   */\n    tag_36:\n        /* \"#utility.yul\":736:813   */\n      0x4e487b7100000000000000000000000000000000000000000000000000000000\n        /* \"#utility.yul\":733:734   */\n      0x00\n        /* \"#utility.yul\":726:814   */\n      mstore\n        /* \"#utility.yul\":833:837   */\n      0x41\n        /* \"#utility.yul\":830:831   */\n      0x04\n        /* \"#utility.yul\":823:838   */\n      mstore\n        /* \"#utility.yul\":857:861   */\n      0x24\n        /* \"#utility.yul\":854:855   */\n      0x00\n        /* \"#utility.yul\":847:862   */\n      revert\n        /* \"#utility.yul\":874:1155   */\n    tag_37:\n        /* \"#utility.yul\":957:984   */\n      tag_73\n        /* \"#utility.yul\":979:983   */\n      dup3\n        /* \"#utility.yul\":957:984   */\n      tag_35\n      jump\t// in\n    tag_73:\n        /* \"#utility.yul\":949:955   */\n      dup2\n        /* \"#utility.yul\":945:985   */\n      add\n        /* \"#utility.yul\":1087:1093   */\n      dup2\n        /* \"#utility.yul\":1075:1085   */\n      dup2\n        /* \"#utility.yul\":1072:1094   */\n      lt\n        /* \"#utility.yul\":1051:1069   */\n      0xffffffffffffffff\n        /* \"#utility.yul\":1039:1049   */\n      dup3\n        /* \"#utility.yul\":1036:1070   */\n      gt\n        /* \"#utility.yul\":1033:1095   */\n      or\n        /* \"#utility.yul\":1030:1118   */\n      iszero\n      tag_74\n      jumpi\n        /* \"#utility.yul\":1098:1116   */\n      tag_75\n      tag_36\n      jump\t// in\n    tag_75:\n        /* \"#utility.yul\":1030:1118   */\n    tag_74:\n        /* \"#utility.yul\":1138:1148   */\n      dup1\n        /* \"#utility.yul\":1134:1136   */\n      0x40\n        /* \"#utility.yul\":1127:1149   */\n      mstore\n        /* \"#utility.yul\":917:1155   */\n      pop\n        /* \"#utility.yul\":874:1155   */\n      pop\n      pop\n      jump\t// out\n        /* \"#utility.yul\":1161:1290   */\n    tag_38:\n        /* \"#utility.yul\":1195:1201   */\n      0x00\n        /* \"#utility.yul\":1222:1242   */\n      tag_77\n      tag_30\n      jump\t// in\n    tag_77:\n        /* \"#utility.yul\":1212:1242   */\n      swap1\n      pop\n        /* \"#utility.yul\":1251:1284   */\n      tag_78\n        /* \"#utility.yul\":1279:1283   */\n      dup3\n        /* \"#utility.yul\":1271:1277   */\n      dup3\n        /* \"#utility.yul\":1251:1284   */\n      tag_37\n      jump\t// in\n    tag_78:\n        /* \"#utility.yul\":1161:1290   */\n      swap2\n      swap1\n      pop\n      jump\t// out\n        /* \"#utility.yul\":1296:1604   */\n    tag_39:\n        /* \"#utility.yul\":1358:1362   */\n      0x00\n        /* \"#utility.yul\":1448:1466   */\n      0xffffffffffffffff\n        /* \"#utility.yul\":1440:1446   */\n      dup3\n        /* \"#utility.yul\":1437:1467   */\n      gt\n        /* \"#utility.yul\":1434:1490   */\n      iszero\n      tag_80\n      jumpi\n        /* \"#utility.yul\":1470:1488   */\n      tag_81\n      tag_36\n      jump\t// in\n    tag_81:\n        /* \"#utility.yul\":1434:1490   */\n    tag_80:\n        /* \"#utility.yul\":1508:1537   */\n      tag_82\n        /* \"#utility.yul\":1530:1536   */\n      dup3\n        /* \"#utility.yul\":1508:1537   */\n      tag_35\n      jump\t// in\n    tag_82:\n        /* \"#utility.yul\":1500:1537   */\n      swap1\n      pop\n        /* \"#utility.yul\":1592:1596   */\n      0x20\n        /* \"#utility.yul\":1586:1590   */\n      dup2\n        /* \"#utility.yul\":1582:1597   */\n      add\n        /* \"#utility.yul\":1574:1597   */\n      swap1\n      pop\n        /* \"#utility.yul\":1296:1604   */\n      swap2\n      swap1\n      pop\n      jump\t// out\n        /* \"#utility.yul\":1610:1764   */\n    tag_40:\n        /* \"#utility.yul\":1694:1700   */\n      dup3\n        /* \"#utility.yul\":1689:1692   */\n      dup2\n        /* \"#utility.yul\":1684:1687   */\n      dup4\n        /* \"#utility.yul\":1671:1701   */\n      calldatacopy\n        /* \"#utility.yul\":1756:1757   */\n      0x00\n        /* \"#utility.yul\":1747:1753   */\n      dup4\n        /* \"#utility.yul\":1742:1745   */\n      dup4\n        /* \"#utility.yul\":1738:1754   */\n      add\n        /* \"#utility.yul\":1731:1758   */\n      mstore\n        /* \"#utility.yul\":1610:1764   */\n      pop\n      pop\n      pop\n      jump\t// out\n        /* \"#utility.yul\":1770:2182   */\n    tag_41:\n        /* \"#utility.yul\":1848:1853   */\n      0x00\n        /* \"#utility.yul\":1873:1939   */\n      tag_85\n        /* \"#utility.yul\":1889:1938   */\n      tag_86\n        /* \"#utility.yul\":1931:1937   */\n      dup5\n        /* \"#utility.yul\":1889:1938   */\n      tag_39\n      jump\t// in\n    tag_86:\n        /* \"#utility.yul\":1873:1939   */\n      tag_38\n      jump\t// in\n    tag_85:\n        /* \"#utility.yul\":1864:1939   */\n      swap1\n      pop\n        /* \"#utility.yul\":1962:1968   */\n      dup3\n        /* \"#utility.yul\":1955:1960   */\n      dup2\n        /* \"#utility.yul\":1948:1969   */\n      mstore\n        /* \"#utility.yul\":2000:2004   */\n      0x20\n        /* \"#utility.yul\":1993:1998   */\n      dup2\n        /* \"#utility.yul\":1989:2005   */\n      add\n        /* \"#utility.yul\":2038:2041   */\n      dup5\n        /* \"#utility.yul\":2029:2035   */\n      dup5\n        /* \"#utility.yul\":2024:2027   */\n      dup5\n        /* \"#utility.yul\":2020:2036   */\n      add\n        /* \"#utility.yul\":2017:2042   */\n      gt\n        /* \"#utility.yul\":2014:2126   */\n      iszero\n      tag_87\n      jumpi\n        /* \"#utility.yul\":2045:2124   */\n      tag_88\n      tag_34\n      jump\t// in\n    tag_88:\n        /* \"#utility.yul\":2014:2126   */\n    tag_87:\n        /* \"#utility.yul\":2135:2176   */\n      tag_89\n        /* \"#utility.yul\":2169:2175   */\n      dup5\n        /* \"#utility.yul\":2164:2167   */\n      dup3\n        /* \"#utility.yul\":2159:2162   */\n      dup6\n        /* \"#utility.yul\":2135:2176   */\n      tag_40\n      jump\t// in\n    tag_89:\n        /* \"#utility.yul\":1854:2182   */\n      pop\n        /* \"#utility.yul\":1770:2182   */\n      swap4\n      swap3\n      pop\n      pop\n      pop\n      jump\t// out\n        /* \"#utility.yul\":2202:2542   */\n    tag_42:\n        /* \"#utility.yul\":2258:2263   */\n      0x00\n        /* \"#utility.yul\":2307:2310   */\n      dup3\n        /* \"#utility.yul\":2300:2304   */\n      0x1f\n        /* \"#utility.yul\":2292:2298   */\n      dup4\n        /* \"#utility.yul\":2288:2305   */\n      add\n        /* \"#utility.yul\":2284:2311   */\n      slt\n        /* \"#utility.yul\":2274:2396   */\n      tag_91\n      jumpi\n        /* \"#utility.yul\":2315:2394   */\n      tag_92\n      tag_33\n      jump\t// in\n    tag_92:\n        /* \"#utility.yul\":2274:2396   */\n    tag_91:\n        /* \"#utility.yul\":2432:2438   */\n      dup2\n        /* \"#utility.yul\":2419:2439   */\n      calldataload\n        /* \"#utility.yul\":2457:2536   */\n      tag_93\n        /* \"#utility.yul\":2532:2535   */\n      dup5\n        /* \"#utility.yul\":2524:2530   */\n      dup3\n        /* \"#utility.yul\":2517:2521   */\n      0x20\n        /* \"#utility.yul\":2509:2515   */\n      dup7\n        /* \"#utility.yul\":2505:2522   */\n      add\n        /* \"#utility.yul\":2457:2536   */\n      tag_41\n      jump\t// in\n    tag_93:\n        /* \"#utility.yul\":2448:2536   */\n      swap2\n      pop\n        /* \"#utility.yul\":2264:2542   */\n      pop\n        /* \"#utility.yul\":2202:2542   */\n      swap3\n      swap2\n      pop\n      pop\n      jump\t// out\n        /* \"#utility.yul\":2548:3057   */\n    tag_8:\n        /* \"#utility.yul\":2617:2623   */\n      0x00\n        /* \"#utility.yul\":2666:2668   */\n      0x20\n        /* \"#utility.yul\":2654:2663   */\n      dup3\n        /* \"#utility.yul\":2645:2652   */\n      dup5\n        /* \"#utility.yul\":2641:2664   */\n      sub\n        /* \"#utility.yul\":2637:2669   */\n      slt\n        /* \"#utility.yul\":2634:2753   */\n      iszero\n      tag_95\n      jumpi\n        /* \"#utility.yul\":2672:2751   */\n      tag_96\n      tag_31\n      jump\t// in\n    tag_96:\n        /* \"#utility.yul\":2634:2753   */\n    tag_95:\n        /* \"#utility.yul\":2820:2821   */\n      0x00\n        /* \"#utility.yul\":2809:2818   */\n      dup3\n        /* \"#utility.yul\":2805:2822   */\n      add\n        /* \"#utility.yul\":2792:2823   */\n      calldataload\n        /* \"#utility.yul\":2850:2868   */\n      0xffffffffffffffff\n        /* \"#utility.yul\":2842:2848   */\n      dup2\n        /* \"#utility.yul\":2839:2869   */\n      gt\n        /* \"#utility.yul\":2836:2953   */\n      iszero\n      tag_97\n      jumpi\n        /* \"#utility.yul\":2872:2951   */\n      tag_98\n      tag_32\n      jump\t// in\n    tag_98:\n        /* \"#utility.yul\":2836:2953   */\n    tag_97:\n        /* \"#utility.yul\":2977:3040   */\n      tag_99\n        /* \"#utility.yul\":3032:3039   */\n      dup5\n        /* \"#utility.yul\":3023:3029   */\n      dup3\n        /* \"#utility.yul\":3012:3021   */\n      dup6\n        /* \"#utility.yul\":3008:3030   */\n      add\n        /* \"#utility.yul\":2977:3040   */\n      tag_42\n      jump\t// in\n    tag_99:\n        /* \"#utility.yul\":2967:3040   */\n      swap2\n      pop\n        /* \"#utility.yul\":2763:3050   */\n      pop\n        /* \"#utility.yul\":2548:3057   */\n      swap3\n      swap2\n      pop\n      pop\n      jump\t// out\n        /* \"#utility.yul\":3063:3140   */\n    tag_43:\n        /* \"#utility.yul\":3100:3107   */\n      0x00\n        /* \"#utility.yul\":3129:3134   */\n      dup2\n        /* \"#utility.yul\":3118:3134   */\n      swap1\n      pop\n        /* \"#utility.yul\":3063:3140   */\n      swap2\n      swap1\n      pop\n      jump\t// out\n        /* \"#utility.yul\":3146:3264   */\n    tag_44:\n        /* \"#utility.yul\":3233:3257   */\n      tag_102\n        /* \"#utility.yul\":3251:3256   */\n      dup2\n        /* \"#utility.yul\":3233:3257   */\n      tag_43\n      jump\t// in\n    tag_102:\n        /* \"#utility.yul\":3228:3231   */\n      dup3\n        /* \"#utility.yul\":3221:3258   */\n      mstore\n        /* \"#utility.yul\":3146:3264   */\n      pop\n      pop\n      jump\t// out\n        /* \"#utility.yul\":3270:3492   */\n    tag_11:\n        /* \"#utility.yul\":3363:3367   */\n      0x00\n        /* \"#utility.yul\":3401:3403   */\n      0x20\n        /* \"#utility.yul\":3390:3399   */\n      dup3\n        /* \"#utility.yul\":3386:3404   */\n      add\n        /* \"#utility.yul\":3378:3404   */\n      swap1\n      pop\n        /* \"#utility.yul\":3414:3485   */\n      tag_104\n        /* \"#utility.yul\":3482:3483   */\n      0x00\n        /* \"#utility.yul\":3471:3480   */\n      dup4\n        /* \"#utility.yul\":3467:3484   */\n      add\n        /* \"#utility.yul\":3458:3464   */\n      dup5\n        /* \"#utility.yul\":3414:3485   */\n      tag_44\n      jump\t// in\n    tag_104:\n        /* \"#utility.yul\":3270:3492   */\n      swap3\n      swap2\n      pop\n      pop\n      jump\t// out\n        /* \"#utility.yul\":3498:3575   */\n    tag_45:\n        /* \"#utility.yul\":3535:3542   */\n      0x00\n        /* \"#utility.yul\":3564:3569   */\n      dup2\n        /* \"#utility.yul\":3553:3569   */\n      swap1\n      pop\n        /* \"#utility.yul\":3498:3575   */\n      swap2\n      swap1\n      pop\n      jump\t// out\n        /* \"#utility.yul\":3581:3703   */\n    tag_46:\n        /* \"#utility.yul\":3654:3678   */\n      tag_107\n        /* \"#utility.yul\":3672:3677   */\n      dup2\n        /* \"#utility.yul\":3654:3678   */\n      tag_45\n      jump\t// in\n    tag_107:\n        /* \"#utility.yul\":3647:3652   */\n      dup2\n        /* \"#utility.yul\":3644:3679   */\n      eq\n        /* \"#utility.yul\":3634:3697   */\n      tag_108\n      jumpi\n        /* \"#utility.yul\":3693:3694   */\n      0x00\n        /* \"#utility.yul\":3690:3691   */\n      dup1\n        /* \"#utility.yul\":3683:3695   */\n      revert\n        /* \"#utility.yul\":3634:3697   */\n    tag_108:\n        /* \"#utility.yul\":3581:3703   */\n      pop\n      jump\t// out\n        /* \"#utility.yul\":3709:3848   */\n    tag_47:\n        /* \"#utility.yul\":3755:3760   */\n      0x00\n        /* \"#utility.yul\":3793:3799   */\n      dup2\n        /* \"#utility.yul\":3780:3800   */\n      calldataload\n        /* \"#utility.yul\":3771:3800   */\n      swap1\n      pop\n        /* \"#utility.yul\":3809:3842   */\n      tag_110\n        /* \"#utility.yul\":3836:3841   */\n      dup2\n        /* \"#utility.yul\":3809:3842   */\n      tag_46\n      jump\t// in\n    tag_110:\n        /* \"#utility.yul\":3709:3848   */\n      swap3\n      swap2\n      pop\n      pop\n      jump\t// out\n        /* \"#utility.yul\":3854:3980   */\n    tag_48:\n        /* \"#utility.yul\":3891:3898   */\n      0x00\n        /* \"#utility.yul\":3931:3973   */\n      0xffffffffffffffffffffffffffffffffffffffff\n        /* \"#utility.yul\":3924:3929   */\n      dup3\n        /* \"#utility.yul\":3920:3974   */\n      and\n        /* \"#utility.yul\":3909:3974   */\n      swap1\n      pop\n        /* \"#utility.yul\":3854:3980   */\n      swap2\n      swap1\n      pop\n      jump\t// out\n        /* \"#utility.yul\":3986:4082   */\n    tag_49:\n        /* \"#utility.yul\":4023:4030   */\n      0x00\n        /* \"#utility.yul\":4052:4076   */\n      tag_113\n        /* \"#utility.yul\":4070:4075   */\n      dup3\n        /* \"#utility.yul\":4052:4076   */\n      tag_48\n      jump\t// in\n    tag_113:\n        /* \"#utility.yul\":4041:4076   */\n      swap1\n      pop\n        /* \"#utility.yul\":3986:4082   */\n      swap2\n      swap1\n      pop\n      jump\t// out\n        /* \"#utility.yul\":4088:4210   */\n    tag_50:\n        /* \"#utility.yul\":4161:4185   */\n      tag_115\n        /* \"#utility.yul\":4179:4184   */\n      dup2\n        /* \"#utility.yul\":4161:4185   */\n      tag_49\n      jump\t// in\n    tag_115:\n        /* \"#utility.yul\":4154:4159   */\n      dup2\n        /* \"#utility.yul\":4151:4186   */\n      eq\n        /* \"#utility.yul\":4141:4204   */\n      tag_116\n      jumpi\n        /* \"#utility.yul\":4200:4201   */\n      0x00\n        /* \"#utility.yul\":4197:4198   */\n      dup1\n        /* \"#utility.yul\":4190:4202   */\n      revert\n        /* \"#utility.yul\":4141:4204   */\n    tag_116:\n        /* \"#utility.yul\":4088:4210   */\n      pop\n      jump\t// out\n        /* \"#utility.yul\":4216:4355   */\n    tag_51:\n        /* \"#utility.yul\":4262:4267   */\n      0x00\n        /* \"#utility.yul\":4300:4306   */\n      dup2\n        /* \"#utility.yul\":4287:4307   */\n      calldataload\n        /* \"#utility.yul\":4278:4307   */\n      swap1\n      pop\n        /* \"#utility.yul\":4316:4349   */\n      tag_118\n        /* \"#utility.yul\":4343:4348   */\n      dup2\n        /* \"#utility.yul\":4316:4349   */\n      tag_50\n      jump\t// in\n    tag_118:\n        /* \"#utility.yul\":4216:4355   */\n      swap3\n      swap2\n      pop\n      pop\n      jump\t// out\n        /* \"#utility.yul\":4361:5160   */\n    tag_14:\n        /* \"#utility.yul\":4448:4454   */\n      0x00\n        /* \"#utility.yul\":4456:4462   */\n      dup1\n        /* \"#utility.yul\":4464:4470   */\n      0x00\n        /* \"#utility.yul\":4513:4515   */\n      0x60\n        /* \"#utility.yul\":4501:4510   */\n      dup5\n        /* \"#utility.yul\":4492:4499   */\n      dup7\n        /* \"#utility.yul\":4488:4511   */\n      sub\n        /* \"#utility.yul\":4484:4516   */\n      slt\n        /* \"#utility.yul\":4481:4600   */\n      iszero\n      tag_120\n      jumpi\n        /* \"#utility.yul\":4519:4598   */\n      tag_121\n      tag_31\n      jump\t// in\n    tag_121:\n        /* \"#utility.yul\":4481:4600   */\n    tag_120:\n        /* \"#utility.yul\":4667:4668   */\n      0x00\n        /* \"#utility.yul\":4656:4665   */\n      dup5\n        /* \"#utility.yul\":4652:4669   */\n      add\n        /* \"#utility.yul\":4639:4670   */\n      calldataload\n        /* \"#utility.yul\":4697:4715   */\n      0xffffffffffffffff\n        /* \"#utility.yul\":4689:4695   */\n      dup2\n        /* \"#utility.yul\":4686:4716   */\n      gt\n        /* \"#utility.yul\":4683:4800   */\n      iszero\n      tag_122\n      jumpi\n        /* \"#utility.yul\":4719:4798   */\n      tag_123\n      tag_32\n      jump\t// in\n    tag_123:\n        /* \"#utility.yul\":4683:4800   */\n    tag_122:\n        /* \"#utility.yul\":4824:4887   */\n      tag_124\n        /* \"#utility.yul\":4879:4886   */\n      dup7\n        /* \"#utility.yul\":4870:4876   */\n      dup3\n        /* \"#utility.yul\":4859:4868   */\n      dup8\n        /* \"#utility.yul\":4855:4877   */\n      add\n        /* \"#utility.yul\":4824:4887   */\n      tag_42\n      jump\t// in\n    tag_124:\n        /* \"#utility.yul\":4814:4887   */\n      swap4\n      pop\n        /* \"#utility.yul\":4610:4897   */\n      pop\n        /* \"#utility.yul\":4936:4938   */\n      0x20\n        /* \"#utility.yul\":4962:5015   */\n      tag_125\n        /* \"#utility.yul\":5007:5014   */\n      dup7\n        /* \"#utility.yul\":4998:5004   */\n      dup3\n        /* \"#utility.yul\":4987:4996   */\n      dup8\n        /* \"#utility.yul\":4983:5005   */\n      add\n        /* \"#utility.yul\":4962:5015   */\n      tag_47\n      jump\t// in\n    tag_125:\n        /* \"#utility.yul\":4952:5015   */\n      swap3\n      pop\n        /* \"#utility.yul\":4907:5025   */\n      pop\n        /* \"#utility.yul\":5064:5066   */\n      0x40\n        /* \"#utility.yul\":5090:5143   */\n      tag_126\n        /* \"#utility.yul\":5135:5142   */\n      dup7\n        /* \"#utility.yul\":5126:5132   */\n      dup3\n        /* \"#utility.yul\":5115:5124   */\n      dup8\n        /* \"#utility.yul\":5111:5133   */\n      add\n        /* \"#utility.yul\":5090:5143   */\n      tag_51\n      jump\t// in\n    tag_126:\n        /* \"#utility.yul\":5080:5143   */\n      swap2\n      pop\n        /* \"#utility.yul\":5035:5153   */\n      pop\n        /* \"#utility.yul\":4361:5160   */\n      swap3\n      pop\n      swap3\n      pop\n      swap3\n      jump\t// out\n        /* \"#utility.yul\":5166:5265   */\n    tag_52:\n        /* \"#utility.yul\":5218:5224   */\n      0x00\n        /* \"#utility.yul\":5252:5257   */\n      dup2\n        /* \"#utility.yul\":5246:5258   */\n      mload\n        /* \"#utility.yul\":5236:5258   */\n      swap1\n      pop\n        /* \"#utility.yul\":5166:5265   */\n      swap2\n      swap1\n      pop\n      jump\t// out\n        /* \"#utility.yul\":5271:5419   */\n    tag_53:\n        /* \"#utility.yul\":5373:5384   */\n      0x00\n        /* \"#utility.yul\":5410:5413   */\n      dup2\n        /* \"#utility.yul\":5395:5413   */\n      swap1\n      pop\n        /* \"#utility.yul\":5271:5419   */\n      swap3\n      swap2\n      pop\n      pop\n      jump\t// out\n        /* \"#utility.yul\":5425:5732   */\n    tag_54:\n        /* \"#utility.yul\":5493:5494   */\n      0x00\n        /* \"#utility.yul\":5503:5616   */\n    tag_130:\n        /* \"#utility.yul\":5517:5523   */\n      dup4\n        /* \"#utility.yul\":5514:5515   */\n      dup2\n        /* \"#utility.yul\":5511:5524   */\n      lt\n        /* \"#utility.yul\":5503:5616   */\n      iszero\n      tag_132\n      jumpi\n        /* \"#utility.yul\":5602:5603   */\n      dup1\n        /* \"#utility.yul\":5597:5600   */\n      dup3\n        /* \"#utility.yul\":5593:5604   */\n      add\n        /* \"#utility.yul\":5587:5605   */\n      mload\n        /* \"#utility.yul\":5583:5584   */\n      dup2\n        /* \"#utility.yul\":5578:5581   */\n      dup5\n        /* \"#utility.yul\":5574:5585   */\n      add\n        /* \"#utility.yul\":5567:5606   */\n      mstore\n        /* \"#utility.yul\":5539:5541   */\n      0x20\n        /* \"#utility.yul\":5536:5537   */\n      dup2\n        /* \"#utility.yul\":5532:5542   */\n      add\n        /* \"#utility.yul\":5527:5542   */\n      swap1\n      pop\n        /* \"#utility.yul\":5503:5616   */\n      jump(tag_130)\n    tag_132:\n        /* \"#utility.yul\":5634:5640   */\n      dup4\n        /* \"#utility.yul\":5631:5632   */\n      dup2\n        /* \"#utility.yul\":5628:5641   */\n      gt\n        /* \"#utility.yul\":5625:5726   */\n      iszero\n      tag_133\n      jumpi\n        /* \"#utility.yul\":5714:5715   */\n      0x00\n        /* \"#utility.yul\":5705:5711   */\n      dup5\n        /* \"#utility.yul\":5700:5703   */\n      dup5\n        /* \"#utility.yul\":5696:5712   */\n      add\n        /* \"#utility.yul\":5689:5716   */\n      mstore\n        /* \"#utility.yul\":5625:5726   */\n    tag_133:\n        /* \"#utility.yul\":5474:5732   */\n      pop\n        /* \"#utility.yul\":5425:5732   */\n      pop\n      pop\n      pop\n      jump\t// out\n        /* \"#utility.yul\":5738:6115   */\n    tag_55:\n        /* \"#utility.yul\":5844:5847   */\n      0x00\n        /* \"#utility.yul\":5872:5911   */\n      tag_135\n        /* \"#utility.yul\":5905:5910   */\n      dup3\n        /* \"#utility.yul\":5872:5911   */\n      tag_52\n      jump\t// in\n    tag_135:\n        /* \"#utility.yul\":5927:6016   */\n      tag_136\n        /* \"#utility.yul\":6009:6015   */\n      dup2\n        /* \"#utility.yul\":6004:6007   */\n      dup6\n        /* \"#utility.yul\":5927:6016   */\n      tag_53\n      jump\t// in\n    tag_136:\n        /* \"#utility.yul\":5920:6016   */\n      swap4\n      pop\n        /* \"#utility.yul\":6025:6077   */\n      tag_137\n        /* \"#utility.yul\":6070:6076   */\n      dup2\n        /* \"#utility.yul\":6065:6068   */\n      dup6\n        /* \"#utility.yul\":6058:6062   */\n      0x20\n        /* \"#utility.yul\":6051:6056   */\n      dup7\n        /* \"#utility.yul\":6047:6063   */\n      add\n        /* \"#utility.yul\":6025:6077   */\n      tag_54\n      jump\t// in\n    tag_137:\n        /* \"#utility.yul\":6102:6108   */\n      dup1\n        /* \"#utility.yul\":6097:6100   */\n      dup5\n        /* \"#utility.yul\":6093:6109   */\n      add\n        /* \"#utility.yul\":6086:6109   */\n      swap2\n      pop\n        /* \"#utility.yul\":5848:6115   */\n      pop\n        /* \"#utility.yul\":5738:6115   */\n      swap3\n      swap2\n      pop\n      pop\n      jump\t// out\n        /* \"#utility.yul\":6121:6396   */\n    tag_23:\n        /* \"#utility.yul\":6253:6256   */\n      0x00\n        /* \"#utility.yul\":6275:6370   */\n      tag_139\n        /* \"#utility.yul\":6366:6369   */\n      dup3\n        /* \"#utility.yul\":6357:6363   */\n      dup5\n        /* \"#utility.yul\":6275:6370   */\n      tag_55\n      jump\t// in\n    tag_139:\n        /* \"#utility.yul\":6268:6370   */\n      swap2\n      pop\n        /* \"#utility.yul\":6387:6390   */\n      dup2\n        /* \"#utility.yul\":6380:6390   */\n      swap1\n      pop\n        /* \"#utility.yul\":6121:6396   */\n      swap3\n      swap2\n      pop\n      pop\n      jump\t// out\n        /* \"#utility.yul\":6402:6481   */\n    tag_56:\n        /* \"#utility.yul\":6441:6448   */\n      0x00\n        /* \"#utility.yul\":6470:6475   */\n      dup2\n        /* \"#utility.yul\":6459:6475   */\n      swap1\n      pop\n        /* \"#utility.yul\":6402:6481   */\n      swap2\n      swap1\n      pop\n      jump\t// out\n        /* \"#utility.yul\":6487:6644   */\n    tag_57:\n        /* \"#utility.yul\":6592:6637   */\n      tag_142\n        /* \"#utility.yul\":6612:6636   */\n      tag_143\n        /* \"#utility.yul\":6630:6635   */\n      dup3\n        /* \"#utility.yul\":6612:6636   */\n      tag_45\n      jump\t// in\n    tag_143:\n        /* \"#utility.yul\":6592:6637   */\n      tag_56\n      jump\t// in\n    tag_142:\n        /* \"#utility.yul\":6587:6590   */\n      dup3\n        /* \"#utility.yul\":6580:6638   */\n      mstore\n        /* \"#utility.yul\":6487:6644   */\n      pop\n      pop\n      jump\t// out\n        /* \"#utility.yul\":6650:6744   */\n    tag_58:\n        /* \"#utility.yul\":6683:6691   */\n      0x00\n        /* \"#utility.yul\":6731:6736   */\n      dup2\n        /* \"#utility.yul\":6727:6729   */\n      0x60\n        /* \"#utility.yul\":6723:6737   */\n      shl\n        /* \"#utility.yul\":6702:6737   */\n      swap1\n      pop\n        /* \"#utility.yul\":6650:6744   */\n      swap2\n      swap1\n      pop\n      jump\t// out\n        /* \"#utility.yul\":6750:6844   */\n    tag_59:\n        /* \"#utility.yul\":6789:6796   */\n      0x00\n        /* \"#utility.yul\":6818:6838   */\n      tag_146\n        /* \"#utility.yul\":6832:6837   */\n      dup3\n        /* \"#utility.yul\":6818:6838   */\n      tag_58\n      jump\t// in\n    tag_146:\n        /* \"#utility.yul\":6807:6838   */\n      swap1\n      pop\n        /* \"#utility.yul\":6750:6844   */\n      swap2\n      swap1\n      pop\n      jump\t// out\n        /* \"#utility.yul\":6850:6950   */\n    tag_60:\n        /* \"#utility.yul\":6889:6896   */\n      0x00\n        /* \"#utility.yul\":6918:6944   */\n      tag_148\n        /* \"#utility.yul\":6938:6943   */\n      dup3\n        /* \"#utility.yul\":6918:6944   */\n      tag_59\n      jump\t// in\n    tag_148:\n        /* \"#utility.yul\":6907:6944   */\n      swap1\n      pop\n        /* \"#utility.yul\":6850:6950   */\n      swap2\n      swap1\n      pop\n      jump\t// out\n        /* \"#utility.yul\":6956:7113   */\n    tag_61:\n        /* \"#utility.yul\":7061:7106   */\n      tag_150\n        /* \"#utility.yul\":7081:7105   */\n      tag_151\n        /* \"#utility.yul\":7099:7104   */\n      dup3\n        /* \"#utility.yul\":7081:7105   */\n      tag_49\n      jump\t// in\n    tag_151:\n        /* \"#utility.yul\":7061:7106   */\n      tag_60\n      jump\t// in\n    tag_150:\n        /* \"#utility.yul\":7056:7059   */\n      dup3\n        /* \"#utility.yul\":7049:7107   */\n      mstore\n        /* \"#utility.yul\":6956:7113   */\n      pop\n      pop\n      jump\t// out\n        /* \"#utility.yul\":7119:7273   */\n    tag_62:\n        /* \"#utility.yul\":7259:7265   */\n      0x686f6c6100000000000000000000000000000000000000000000000000000000\n        /* \"#utility.yul\":7255:7256   */\n      0x00\n        /* \"#utility.yul\":7247:7253   */\n      dup3\n        /* \"#utility.yul\":7243:7257   */\n      add\n        /* \"#utility.yul\":7236:7266   */\n      mstore\n        /* \"#utility.yul\":7119:7273   */\n      pop\n      jump\t// out\n        /* \"#utility.yul\":7279:7679   */\n    tag_63:\n        /* \"#utility.yul\":7439:7442   */\n      0x00\n        /* \"#utility.yul\":7460:7544   */\n      tag_154\n        /* \"#utility.yul\":7542:7543   */\n      0x04\n        /* \"#utility.yul\":7537:7540   */\n      dup4\n        /* \"#utility.yul\":7460:7544   */\n      tag_53\n      jump\t// in\n    tag_154:\n        /* \"#utility.yul\":7453:7544   */\n      swap2\n      pop\n        /* \"#utility.yul\":7553:7646   */\n      tag_155\n        /* \"#utility.yul\":7642:7645   */\n      dup3\n        /* \"#utility.yul\":7553:7646   */\n      tag_62\n      jump\t// in\n    tag_155:\n        /* \"#utility.yul\":7671:7672   */\n      0x04\n        /* \"#utility.yul\":7666:7669   */\n      dup3\n        /* \"#utility.yul\":7662:7673   */\n      add\n        /* \"#utility.yul\":7655:7673   */\n      swap1\n      pop\n        /* \"#utility.yul\":7279:7679   */\n      swap2\n      swap1\n      pop\n      jump\t// out\n        /* \"#utility.yul\":7685:8508   */\n    tag_26:\n        /* \"#utility.yul\":7974:7977   */\n      0x00\n        /* \"#utility.yul\":7996:8091   */\n      tag_157\n        /* \"#utility.yul\":8087:8090   */\n      dup3\n        /* \"#utility.yul\":8078:8084   */\n      dup7\n        /* \"#utility.yul\":7996:8091   */\n      tag_55\n      jump\t// in\n    tag_157:\n        /* \"#utility.yul\":7989:8091   */\n      swap2\n      pop\n        /* \"#utility.yul\":8101:8176   */\n      tag_158\n        /* \"#utility.yul\":8172:8175   */\n      dup3\n        /* \"#utility.yul\":8163:8169   */\n      dup6\n        /* \"#utility.yul\":8101:8176   */\n      tag_57\n      jump\t// in\n    tag_158:\n        /* \"#utility.yul\":8201:8203   */\n      0x20\n        /* \"#utility.yul\":8196:8199   */\n      dup3\n        /* \"#utility.yul\":8192:8204   */\n      add\n        /* \"#utility.yul\":8185:8204   */\n      swap2\n      pop\n        /* \"#utility.yul\":8214:8289   */\n      tag_159\n        /* \"#utility.yul\":8285:8288   */\n      dup3\n        /* \"#utility.yul\":8276:8282   */\n      dup5\n        /* \"#utility.yul\":8214:8289   */\n      tag_61\n      jump\t// in\n    tag_159:\n        /* \"#utility.yul\":8314:8316   */\n      0x14\n        /* \"#utility.yul\":8309:8312   */\n      dup3\n        /* \"#utility.yul\":8305:8317   */\n      add\n        /* \"#utility.yul\":8298:8317   */\n      swap2\n      pop\n        /* \"#utility.yul\":8334:8482   */\n      tag_160\n        /* \"#utility.yul\":8478:8481   */\n      dup3\n        /* \"#utility.yul\":8334:8482   */\n      tag_63\n      jump\t// in\n    tag_160:\n        /* \"#utility.yul\":8327:8482   */\n      swap2\n      pop\n        /* \"#utility.yul\":8499:8502   */\n      dup2\n        /* \"#utility.yul\":8492:8502   */\n      swap1\n      pop\n        /* \"#utility.yul\":7685:8508   */\n      swap5\n      swap4\n      pop\n      pop\n      pop\n      pop\n      jump\t// out\n        /* \"#utility.yul\":8514:9071   */\n    tag_29:\n        /* \"#utility.yul\":8702:8705   */\n      0x00\n        /* \"#utility.yul\":8724:8819   */\n      tag_162\n        /* \"#utility.yul\":8815:8818   */\n      dup3\n        /* \"#utility.yul\":8806:8812   */\n      dup7\n        /* \"#utility.yul\":8724:8819   */\n      tag_55\n      jump\t// in\n    tag_162:\n        /* \"#utility.yul\":8717:8819   */\n      swap2\n      pop\n        /* \"#utility.yul\":8829:8904   */\n      tag_163\n        /* \"#utility.yul\":8900:8903   */\n      dup3\n        /* \"#utility.yul\":8891:8897   */\n      dup6\n        /* \"#utility.yul\":8829:8904   */\n      tag_57\n      jump\t// in\n    tag_163:\n        /* \"#utility.yul\":8929:8931   */\n      0x20\n        /* \"#utility.yul\":8924:8927   */\n      dup3\n        /* \"#utility.yul\":8920:8932   */\n      add\n        /* \"#utility.yul\":8913:8932   */\n      swap2\n      pop\n        /* \"#utility.yul\":8942:9017   */\n      tag_164\n        /* \"#utility.yul\":9013:9016   */\n      dup3\n        /* \"#utility.yul\":9004:9010   */\n      dup5\n        /* \"#utility.yul\":8942:9017   */\n      tag_61\n      jump\t// in\n    tag_164:\n        /* \"#utility.yul\":9042:9044   */\n      0x14\n        /* \"#utility.yul\":9037:9040   */\n      dup3\n        /* \"#utility.yul\":9033:9045   */\n      add\n        /* \"#utility.yul\":9026:9045   */\n      swap2\n      pop\n        /* \"#utility.yul\":9062:9065   */\n      dup2\n        /* \"#utility.yul\":9055:9065   */\n      swap1\n      pop\n        /* \"#utility.yul\":8514:9071   */\n      swap5\n      swap4\n      pop\n      pop\n      pop\n      pop\n      jump\t// out\n\n    auxdata: 0xa264697066735822122036c2cd1f607906c55acef4333916a5a38e49f830070fe6218839d4dda13f935864736f6c634300080d0033\n}\n",
				"bytecode": {
					"linkReferences": {},
					"object": "608060405234801561001057600080fd5b50610645806100206000396000f3fe608060405234801561001057600080fd5b50600436106100415760003560e01c80633d76e9091461004657806352de28e814610076578063da100b1d146100a6575b600080fd5b610060600480360381019061005b91906102cc565b6100d6565b60405161006d919061032e565b60405180910390f35b610090600480360381019061008b91906103dd565b610106565b60405161009d919061032e565b60405180910390f35b6100c060048036038101906100bb91906103dd565b61013c565b6040516100cd919061032e565b60405180910390f35b6000816040516020016100e991906104c6565b604051602081830303815290604052805190602001209050919050565b600083838360405160200161011d93929190610592565b6040516020818303038152906040528051906020012090509392505050565b6000838383604051602001610153939291906105d6565b6040516020818303038152906040528051906020012090509392505050565b6000604051905090565b600080fd5b600080fd5b600080fd5b600080fd5b6000601f19601f8301169050919050565b7f4e487b7100000000000000000000000000000000000000000000000000000000600052604160045260246000fd5b6101d982610190565b810181811067ffffffffffffffff821117156101f8576101f76101a1565b5b80604052505050565b600061020b610172565b905061021782826101d0565b919050565b600067ffffffffffffffff821115610237576102366101a1565b5b61024082610190565b9050602081019050919050565b82818337600083830152505050565b600061026f61026a8461021c565b610201565b90508281526020810184848401111561028b5761028a61018b565b5b61029684828561024d565b509392505050565b600082601f8301126102b3576102b2610186565b5b81356102c384826020860161025c565b91505092915050565b6000602082840312156102e2576102e161017c565b5b600082013567ffffffffffffffff811115610300576102ff610181565b5b61030c8482850161029e565b91505092915050565b6000819050919050565b61032881610315565b82525050565b6000602082019050610343600083018461031f565b92915050565b6000819050919050565b61035c81610349565b811461036757600080fd5b50565b60008135905061037981610353565b92915050565b600073ffffffffffffffffffffffffffffffffffffffff82169050919050565b60006103aa8261037f565b9050919050565b6103ba8161039f565b81146103c557600080fd5b50565b6000813590506103d7816103b1565b92915050565b6000806000606084860312156103f6576103f561017c565b5b600084013567ffffffffffffffff81111561041457610413610181565b5b6104208682870161029e565b93505060206104318682870161036a565b9250506040610442868287016103c8565b9150509250925092565b600081519050919050565b600081905092915050565b60005b83811015610480578082015181840152602081019050610465565b8381111561048f576000848401525b50505050565b60006104a08261044c565b6104aa8185610457565b93506104ba818560208601610462565b80840191505092915050565b60006104d28284610495565b915081905092915050565b6000819050919050565b6104f86104f382610349565b6104dd565b82525050565b60008160601b9050919050565b6000610516826104fe565b9050919050565b60006105288261050b565b9050919050565b61054061053b8261039f565b61051d565b82525050565b7f686f6c6100000000000000000000000000000000000000000000000000000000600082015250565b600061057c600483610457565b915061058782610546565b600482019050919050565b600061059e8286610495565b91506105aa82856104e7565b6020820191506105ba828461052f565b6014820191506105c98261056f565b9150819050949350505050565b60006105e28286610495565b91506105ee82856104e7565b6020820191506105fe828461052f565b60148201915081905094935050505056fea264697066735822122036c2cd1f607906c55acef4333916a5a38e49f830070fe6218839d4dda13f935864736f6c634300080d0033",
					"opcodes": "PUSH1 0x80 PUSH1 0x40 MSTORE CALLVALUE DUP1 ISZERO PUSH2 0x10 JUMPI PUSH1 0x0 DUP1 REVERT JUMPDEST POP PUSH2 0x645 DUP1 PUSH2 0x20 PUSH1 0x0 CODECOPY PUSH1 0x0 RETURN INVALID PUSH1 0x80 PUSH1 0x40 MSTORE CALLVALUE DUP1 ISZERO PUSH2 0x10 JUMPI PUSH1 0x0 DUP1 REVERT JUMPDEST POP PUSH1 0x4 CALLDATASIZE LT PUSH2 0x41 JUMPI PUSH1 0x0 CALLDATALOAD PUSH1 0xE0 SHR DUP1 PUSH4 0x3D76E909 EQ PUSH2 0x46 JUMPI DUP1 PUSH4 0x52DE28E8 EQ PUSH2 0x76 JUMPI DUP1 PUSH4 0xDA100B1D EQ PUSH2 0xA6 JUMPI JUMPDEST PUSH1 0x0 DUP1 REVERT JUMPDEST PUSH2 0x60 PUSH1 0x4 DUP1 CALLDATASIZE SUB DUP2 ADD SWAP1 PUSH2 0x5B SWAP2 SWAP1 PUSH2 0x2CC JUMP JUMPDEST PUSH2 0xD6 JUMP JUMPDEST PUSH1 0x40 MLOAD PUSH2 0x6D SWAP2 SWAP1 PUSH2 0x32E JUMP JUMPDEST PUSH1 0x40 MLOAD DUP1 SWAP2 SUB SWAP1 RETURN JUMPDEST PUSH2 0x90 PUSH1 0x4 DUP1 CALLDATASIZE SUB DUP2 ADD SWAP1 PUSH2 0x8B SWAP2 SWAP1 PUSH2 0x3DD JUMP JUMPDEST PUSH2 0x106 JUMP JUMPDEST PUSH1 0x40 MLOAD PUSH2 0x9D SWAP2 SWAP1 PUSH2 0x32E JUMP JUMPDEST PUSH1 0x40 MLOAD DUP1 SWAP2 SUB SWAP1 RETURN JUMPDEST PUSH2 0xC0 PUSH1 0x4 DUP1 CALLDATASIZE SUB DUP2 ADD SWAP1 PUSH2 0xBB SWAP2 SWAP1 PUSH2 0x3DD JUMP JUMPDEST PUSH2 0x13C JUMP JUMPDEST PUSH1 0x40 MLOAD PUSH2 0xCD SWAP2 SWAP1 PUSH2 0x32E JUMP JUMPDEST PUSH1 0x40 MLOAD DUP1 SWAP2 SUB SWAP1 RETURN JUMPDEST PUSH1 0x0 DUP2 PUSH1 0x40 MLOAD PUSH1 0x20 ADD PUSH2 0xE9 SWAP2 SWAP1 PUSH2 0x4C6 JUMP JUMPDEST PUSH1 0x40 MLOAD PUSH1 0x20 DUP2 DUP4 SUB SUB DUP2 MSTORE SWAP1 PUSH1 0x40 MSTORE DUP1 MLOAD SWAP1 PUSH1 0x20 ADD KECCAK256 SWAP1 POP SWAP2 SWAP1 POP JUMP JUMPDEST PUSH1 0x0 DUP4 DUP4 DUP4 PUSH1 0x40 MLOAD PUSH1 0x20 ADD PUSH2 0x11D SWAP4 SWAP3 SWAP2 SWAP1 PUSH2 0x592 JUMP JUMPDEST PUSH1 0x40 MLOAD PUSH1 0x20 DUP2 DUP4 SUB SUB DUP2 MSTORE SWAP1 PUSH1 0x40 MSTORE DUP1 MLOAD SWAP1 PUSH1 0x20 ADD KECCAK256 SWAP1 POP SWAP4 SWAP3 POP POP POP JUMP JUMPDEST PUSH1 0x0 DUP4 DUP4 DUP4 PUSH1 0x40 MLOAD PUSH1 0x20 ADD PUSH2 0x153 SWAP4 SWAP3 SWAP2 SWAP1 PUSH2 0x5D6 JUMP JUMPDEST PUSH1 0x40 MLOAD PUSH1 0x20 DUP2 DUP4 SUB SUB DUP2 MSTORE SWAP1 PUSH1 0x40 MSTORE DUP1 MLOAD SWAP1 PUSH1 0x20 ADD KECCAK256 SWAP1 POP SWAP4 SWAP3 POP POP POP JUMP JUMPDEST PUSH1 0x0 PUSH1 0x40 MLOAD SWAP1 POP SWAP1 JUMP JUMPDEST PUSH1 0x0 DUP1 REVERT JUMPDEST PUSH1 0x0 DUP1 REVERT JUMPDEST PUSH1 0x0 DUP1 REVERT JUMPDEST PUSH1 0x0 DUP1 REVERT JUMPDEST PUSH1 0x0 PUSH1 0x1F NOT PUSH1 0x1F DUP4 ADD AND SWAP1 POP SWAP2 SWAP1 POP JUMP JUMPDEST PUSH32 0x4E487B7100000000000000000000000000000000000000000000000000000000 PUSH1 0x0 MSTORE PUSH1 0x41 PUSH1 0x4 MSTORE PUSH1 0x24 PUSH1 0x0 REVERT JUMPDEST PUSH2 0x1D9 DUP3 PUSH2 0x190 JUMP JUMPDEST DUP2 ADD DUP2 DUP2 LT PUSH8 0xFFFFFFFFFFFFFFFF DUP3 GT OR ISZERO PUSH2 0x1F8 JUMPI PUSH2 0x1F7 PUSH2 0x1A1 JUMP JUMPDEST JUMPDEST DUP1 PUSH1 0x40 MSTORE POP POP POP JUMP JUMPDEST PUSH1 0x0 PUSH2 0x20B PUSH2 0x172 JUMP JUMPDEST SWAP1 POP PUSH2 0x217 DUP3 DUP3 PUSH2 0x1D0 JUMP JUMPDEST SWAP2 SWAP1 POP JUMP JUMPDEST PUSH1 0x0 PUSH8 0xFFFFFFFFFFFFFFFF DUP3 GT ISZERO PUSH2 0x237 JUMPI PUSH2 0x236 PUSH2 0x1A1 JUMP JUMPDEST JUMPDEST PUSH2 0x240 DUP3 PUSH2 0x190 JUMP JUMPDEST SWAP1 POP PUSH1 0x20 DUP2 ADD SWAP1 POP SWAP2 SWAP1 POP JUMP JUMPDEST DUP3 DUP2 DUP4 CALLDATACOPY PUSH1 0x0 DUP4 DUP4 ADD MSTORE POP POP POP JUMP JUMPDEST PUSH1 0x0 PUSH2 0x26F PUSH2 0x26A DUP5 PUSH2 0x21C JUMP JUMPDEST PUSH2 0x201 JUMP JUMPDEST SWAP1 POP DUP3 DUP2 MSTORE PUSH1 0x20 DUP2 ADD DUP5 DUP5 DUP5 ADD GT ISZERO PUSH2 0x28B JUMPI PUSH2 0x28A PUSH2 0x18B JUMP JUMPDEST JUMPDEST PUSH2 0x296 DUP5 DUP3 DUP6 PUSH2 0x24D JUMP JUMPDEST POP SWAP4 SWAP3 POP POP POP JUMP JUMPDEST PUSH1 0x0 DUP3 PUSH1 0x1F DUP4 ADD SLT PUSH2 0x2B3 JUMPI PUSH2 0x2B2 PUSH2 0x186 JUMP JUMPDEST JUMPDEST DUP2 CALLDATALOAD PUSH2 0x2C3 DUP5 DUP3 PUSH1 0x20 DUP7 ADD PUSH2 0x25C JUMP JUMPDEST SWAP2 POP POP SWAP3 SWAP2 POP POP JUMP JUMPDEST PUSH1 0x0 PUSH1 0x20 DUP3 DUP5 SUB SLT ISZERO PUSH2 0x2E2 JUMPI PUSH2 0x2E1 PUSH2 0x17C JUMP JUMPDEST JUMPDEST PUSH1 0x0 DUP3 ADD CALLDATALOAD PUSH8 0xFFFFFFFFFFFFFFFF DUP2 GT ISZERO PUSH2 0x300 JUMPI PUSH2 0x2FF PUSH2 0x181 JUMP JUMPDEST JUMPDEST PUSH2 0x30C DUP5 DUP3 DUP6 ADD PUSH2 0x29E JUMP JUMPDEST SWAP2 POP POP SWAP3 SWAP2 POP POP JUMP JUMPDEST PUSH1 0x0 DUP2 SWAP1 POP SWAP2 SWAP1 POP JUMP JUMPDEST PUSH2 0x328 DUP2 PUSH2 0x315 JUMP JUMPDEST DUP3 MSTORE POP POP JUMP JUMPDEST PUSH1 0x0 PUSH1 0x20 DUP3 ADD SWAP1 POP PUSH2 0x343 PUSH1 0x0 DUP4 ADD DUP5 PUSH2 0x31F JUMP JUMPDEST SWAP3 SWAP2 POP POP JUMP JUMPDEST PUSH1 0x0 DUP2 SWAP1 POP SWAP2 SWAP1 POP JUMP JUMPDEST PUSH2 0x35C DUP2 PUSH2 0x349 JUMP JUMPDEST DUP2 EQ PUSH2 0x367 JUMPI PUSH1 0x0 DUP1 REVERT JUMPDEST POP JUMP JUMPDEST PUSH1 0x0 DUP2 CALLDATALOAD SWAP1 POP PUSH2 0x379 DUP2 PUSH2 0x353 JUMP JUMPDEST SWAP3 SWAP2 POP POP JUMP JUMPDEST PUSH1 0x0 PUSH20 0xFFFFFFFFFFFFFFFFFFFFFFFFFFFFFFFFFFFFFFFF DUP3 AND SWAP1 POP SWAP2 SWAP1 POP JUMP JUMPDEST PUSH1 0x0 PUSH2 0x3AA DUP3 PUSH2 0x37F JUMP JUMPDEST SWAP1 POP SWAP2 SWAP1 POP JUMP JUMPDEST PUSH2 0x3BA DUP2 PUSH2 0x39F JUMP JUMPDEST DUP2 EQ PUSH2 0x3C5 JUMPI PUSH1 0x0 DUP1 REVERT JUMPDEST POP JUMP JUMPDEST PUSH1 0x0 DUP2 CALLDATALOAD SWAP1 POP PUSH2 0x3D7 DUP2 PUSH2 0x3B1 JUMP JUMPDEST SWAP3 SWAP2 POP POP JUMP JUMPDEST PUSH1 0x0 DUP1 PUSH1 0x0 PUSH1 0x60 DUP5 DUP7 SUB SLT ISZERO PUSH2 0x3F6 JUMPI PUSH2 0x3F5 PUSH2 0x17C JUMP JUMPDEST JUMPDEST PUSH1 0x0 DUP5 ADD CALLDATALOAD PUSH8 0xFFFFFFFFFFFFFFFF DUP2 GT ISZERO PUSH2 0x414 JUMPI PUSH2 0x413 PUSH2 0x181 JUMP JUMPDEST JUMPDEST PUSH2 0x420 DUP7 DUP3 DUP8 ADD PUSH2 0x29E JUMP JUMPDEST SWAP4 POP POP PUSH1 0x20 PUSH2 0x431 DUP7 DUP3 DUP8 ADD PUSH2 0x36A JUMP JUMPDEST SWAP3 POP POP PUSH1 0x40 PUSH2 0x442 DUP7 DUP3 DUP8 ADD PUSH2 0x3C8 JUMP JUMPDEST SWAP2 POP POP SWAP3 POP SWAP3 POP SWAP3 JUMP JUMPDEST PUSH1 0x0 DUP2 MLOAD SWAP1 POP SWAP2 SWAP1 POP JUMP JUMPDEST PUSH1 0x0 DUP2 SWAP1 POP SWAP3 SWAP2 POP POP JUMP JUMPDEST PUSH1 0x0 JUMPDEST DUP4 DUP2 LT ISZERO PUSH2 0x480 JUMPI DUP1 DUP3 ADD MLOAD DUP2 DUP5 ADD MSTORE PUSH1 0x20 DUP2 ADD SWAP1 POP PUSH2 0x465 JUMP JUMPDEST DUP4 DUP2 GT ISZERO PUSH2 0x48F JUMPI PUSH1 0x0 DUP5 DUP5 ADD MSTORE JUMPDEST POP POP POP POP JUMP JUMPDEST PUSH1 0x0 PUSH2 0x4A0 DUP3 PUSH2 0x44C JUMP JUMPDEST PUSH2 0x4AA DUP2 DUP6 PUSH2 0x457 JUMP JUMPDEST SWAP4 POP PUSH2 0x4BA DUP2 DUP6 PUSH1 0x20 DUP7 ADD PUSH2 0x462 JUMP JUMPDEST DUP1 DUP5 ADD SWAP2 POP POP SWAP3 SWAP2 POP POP JUMP JUMPDEST PUSH1 0x0 PUSH2 0x4D2 DUP3 DUP5 PUSH2 0x495 JUMP JUMPDEST SWAP2 POP DUP2 SWAP1 POP SWAP3 SWAP2 POP POP JUMP JUMPDEST PUSH1 0x0 DUP2 SWAP1 POP SWAP2 SWAP1 POP JUMP JUMPDEST PUSH2 0x4F8 PUSH2 0x4F3 DUP3 PUSH2 0x349 JUMP JUMPDEST PUSH2 0x4DD JUMP JUMPDEST DUP3 MSTORE POP POP JUMP JUMPDEST PUSH1 0x0 DUP2 PUSH1 0x60 SHL SWAP1 POP SWAP2 SWAP1 POP JUMP JUMPDEST PUSH1 0x0 PUSH2 0x516 DUP3 PUSH2 0x4FE JUMP JUMPDEST SWAP1 POP SWAP2 SWAP1 POP JUMP JUMPDEST PUSH1 0x0 PUSH2 0x528 DUP3 PUSH2 0x50B JUMP JUMPDEST SWAP1 POP SWAP2 SWAP1 POP JUMP JUMPDEST PUSH2 0x540 PUSH2 0x53B DUP3 PUSH2 0x39F JUMP JUMPDEST PUSH2 0x51D JUMP JUMPDEST DUP3 MSTORE POP POP JUMP JUMPDEST PUSH32 0x686F6C6100000000000000000000000000000000000000000000000000000000 PUSH1 0x0 DUP3 ADD MSTORE POP JUMP JUMPDEST PUSH1 0x0 PUSH2 0x57C PUSH1 0x4 DUP4 PUSH2 0x457 JUMP JUMPDEST SWAP2 POP PUSH2 0x587 DUP3 PUSH2 0x546 JUMP JUMPDEST PUSH1 0x4 DUP3 ADD SWAP1 POP SWAP2 SWAP1 POP JUMP JUMPDEST PUSH1 0x0 PUSH2 0x59E DUP3 DUP7 PUSH2 0x495 JUMP JUMPDEST SWAP2 POP PUSH2 0x5AA DUP3 DUP6 PUSH2 0x4E7 JUMP JUMPDEST PUSH1 0x20 DUP3 ADD SWAP2 POP PUSH2 0x5BA DUP3 DUP5 PUSH2 0x52F JUMP JUMPDEST PUSH1 0x14 DUP3 ADD SWAP2 POP PUSH2 0x5C9 DUP3 PUSH2 0x56F JUMP JUMPDEST SWAP2 POP DUP2 SWAP1 POP SWAP5 SWAP4 POP POP POP POP JUMP JUMPDEST PUSH1 0x0 PUSH2 0x5E2 DUP3 DUP7 PUSH2 0x495 JUMP JUMPDEST SWAP2 POP PUSH2 0x5EE DUP3 DUP6 PUSH2 0x4E7 JUMP JUMPDEST PUSH1 0x20 DUP3 ADD SWAP2 POP PUSH2 0x5FE DUP3 DUP5 PUSH2 0x52F JUMP JUMPDEST PUSH1 0x14 DUP3 ADD SWAP2 POP DUP2 SWAP1 POP SWAP5 SWAP4 POP POP POP POP JUMP INVALID LOG2 PUSH5 0x6970667358 0x22 SLT KECCAK256 CALLDATASIZE 0xC2 0xCD 0x1F PUSH1 0x79 MOD 0xC5 GAS 0xCE DELEGATECALL CALLER CODECOPY AND 0xA5 LOG3 DUP15 0x49 0xF8 ADDRESS SMOD 0xF 0xE6 0x21 DUP9 CODECOPY 0xD4 0xDD LOG1 EXTCODEHASH SWAP4 PC PUSH5 0x736F6C6343 STOP ADDMOD 0xD STOP CALLER "
				},
				"gasEstimates": {
					"creation": {
						"codeDepositCost": "321000",
						"executionCost": "362",
						"totalCost": "321362"
					},
					"external": {
						"calcularHash(string)": "infinite",
						"calcularHash2(string,uint256,address)": "infinite",
						"calcularHash3(string,uint256,address)": "infinite"
					}
				},
				"methodIdentifiers": {
					"calcularHash(string)": "3d76e909",
					"calcularHash2(string,uint256,address)": "da100b1d",
					"calcularHash3(string,uint256,address)": "52de28e8"
				}
			},
			"storageLayout": {
				"storage": [],
				"types": null
			},
			"userdoc": {
				"kind": "user",
				"methods": {},
				"version": 1
			}
		}
	}
}