{
	"Propiedades de transacciones y bloques/funciones_globales.sol": {
		"funciones_globales": {
			"abi": [
				{
					"inputs": [],
					"name": "BlockCoinbase",
					"outputs": [
						{
							"internalType": "address",
							"name": "",
							"type": "address"
						}
					],
					"stateMutability": "view",
					"type": "function"
				},
				{
					"inputs": [],
					"name": "BlockDifficulty",
					"outputs": [
						{
							"internalType": "uint256",
							"name": "",
							"type": "uint256"
						}
					],
					"stateMutability": "view",
					"type": "function"
				},
				{
					"inputs": [],
					"name": "BlockNumber",
					"outputs": [
						{
							"internalType": "uint256",
							"name": "",
							"type": "uint256"
						}
					],
					"stateMutability": "view",
					"type": "function"
				},
				{
					"inputs": [],
					"name": "MsgSender",
					"outputs": [
						{
							"internalType": "address",
							"name": "",
							"type": "address"
						}
					],
					"stateMutability": "view",
					"type": "function"
				},
				{
					"inputs": [],
					"name": "MsgSig",
					"outputs": [
						{
							"internalType": "bytes4",
							"name": "",
							"type": "bytes4"
						}
					],
					"stateMutability": "view",
					"type": "function"
				},
				{
					"inputs": [],
					"name": "Now",
					"outputs": [
						{
							"internalType": "uint256",
							"name": "",
							"type": "uint256"
						}
					],
					"stateMutability": "view",
					"type": "function"
				}
			],
			"devdoc": {
				"methods": {}
			},
			"evm": {
				"assembly": "    /* \"Propiedades de transacciones y bloques/funciones_globales.sol\":36:778  contract funciones_globales{\r... */\n  mstore(0x40, 0x80)\n  callvalue\n    /* \"--CODEGEN--\":5:14   */\n  dup1\n    /* \"--CODEGEN--\":2:4   */\n  iszero\n  tag_1\n  jumpi\n    /* \"--CODEGEN--\":27:28   */\n  0x00\n    /* \"--CODEGEN--\":24:25   */\n  dup1\n    /* \"--CODEGEN--\":17:29   */\n  revert\n    /* \"--CODEGEN--\":2:4   */\ntag_1:\n    /* \"Propiedades de transacciones y bloques/funciones_globales.sol\":36:778  contract funciones_globales{\r... */\n  pop\n  dataSize(sub_0)\n  dup1\n  dataOffset(sub_0)\n  0x00\n  codecopy\n  0x00\n  return\nstop\n\nsub_0: assembly {\n        /* \"Propiedades de transacciones y bloques/funciones_globales.sol\":36:778  contract funciones_globales{\r... */\n      mstore(0x40, 0x80)\n      callvalue\n        /* \"--CODEGEN--\":5:14   */\n      dup1\n        /* \"--CODEGEN--\":2:4   */\n      iszero\n      tag_1\n      jumpi\n        /* \"--CODEGEN--\":27:28   */\n      0x00\n        /* \"--CODEGEN--\":24:25   */\n      dup1\n        /* \"--CODEGEN--\":17:29   */\n      revert\n        /* \"--CODEGEN--\":2:4   */\n    tag_1:\n        /* \"Propiedades de transacciones y bloques/funciones_globales.sol\":36:778  contract funciones_globales{\r... */\n      pop\n      jumpi(tag_2, lt(calldatasize, 0x04))\n      shr(0xe0, calldataload(0x00))\n      dup1\n      0x083f3ec4\n      eq\n      tag_3\n      jumpi\n      dup1\n      0x0a649267\n      eq\n      tag_4\n      jumpi\n      dup1\n      0x44d4fd19\n      eq\n      tag_5\n      jumpi\n      dup1\n      0x64868510\n      eq\n      tag_6\n      jumpi\n      dup1\n      0x84d63e12\n      eq\n      tag_7\n      jumpi\n      dup1\n      0xe6c595c0\n      eq\n      tag_8\n      jumpi\n    tag_2:\n        /* \"--CODEGEN--\":12:13   */\n      0x00\n        /* \"--CODEGEN--\":9:10   */\n      dup1\n        /* \"--CODEGEN--\":2:14   */\n      revert\n        /* \"Propiedades de transacciones y bloques/funciones_globales.sol\":694:773  function MsgSig() public view returns (bytes4){\r... */\n    tag_3:\n      tag_9\n      tag_10\n      jump\t// in\n    tag_9:\n      mload(0x40)\n      dup1\n      dup3\n      not(0xffffffffffffffffffffffffffffffffffffffffffffffffffffffff)\n      and\n      not(0xffffffffffffffffffffffffffffffffffffffffffffffffffffffff)\n      and\n      dup2\n      mstore\n      0x20\n      add\n      swap2\n      pop\n      pop\n      mload(0x40)\n      dup1\n      swap2\n      sub\n      swap1\n      return\n        /* \"Propiedades de transacciones y bloques/funciones_globales.sol\":305:399  function BlockCoinbase() public view returns (address){\r... */\n    tag_4:\n      tag_11\n      tag_12\n      jump\t// in\n    tag_11:\n      mload(0x40)\n      dup1\n      dup3\n      0xffffffffffffffffffffffffffffffffffffffff\n      and\n      0xffffffffffffffffffffffffffffffffffffffff\n      and\n      dup2\n      mstore\n      0x20\n      add\n      swap2\n      pop\n      pop\n      mload(0x40)\n      dup1\n      swap2\n      sub\n      swap1\n      return\n        /* \"Propiedades de transacciones y bloques/funciones_globales.sol\":197:267  function Now() public view returns (uint){\r... */\n    tag_5:\n      tag_13\n      tag_14\n      jump\t// in\n    tag_13:\n      mload(0x40)\n      dup1\n      dup3\n      dup2\n      mstore\n      0x20\n      add\n      swap2\n      pop\n      pop\n      mload(0x40)\n      dup1\n      swap2\n      sub\n      swap1\n      return\n        /* \"Propiedades de transacciones y bloques/funciones_globales.sol\":573:660  function BlockNumber() public view returns (uint){\r... */\n    tag_6:\n      tag_15\n      tag_16\n      jump\t// in\n    tag_15:\n      mload(0x40)\n      dup1\n      dup3\n      dup2\n      mstore\n      0x20\n      add\n      swap2\n      pop\n      pop\n      mload(0x40)\n      dup1\n      swap2\n      sub\n      swap1\n      return\n        /* \"Propiedades de transacciones y bloques/funciones_globales.sol\":102:188  function MsgSender() public view returns (address){\r... */\n    tag_7:\n      tag_17\n      tag_18\n      jump\t// in\n    tag_17:\n      mload(0x40)\n      dup1\n      dup3\n      0xffffffffffffffffffffffffffffffffffffffff\n      and\n      0xffffffffffffffffffffffffffffffffffffffff\n      and\n      dup2\n      mstore\n      0x20\n      add\n      swap2\n      pop\n      pop\n      mload(0x40)\n      dup1\n      swap2\n      sub\n      swap1\n      return\n        /* \"Propiedades de transacciones y bloques/funciones_globales.sol\":440:535  function BlockDifficulty() public view returns (uint){\r... */\n    tag_8:\n      tag_19\n      tag_20\n      jump\t// in\n    tag_19:\n      mload(0x40)\n      dup1\n      dup3\n      dup2\n      mstore\n      0x20\n      add\n      swap2\n      pop\n      pop\n      mload(0x40)\n      dup1\n      swap2\n      sub\n      swap1\n      return\n        /* \"Propiedades de transacciones y bloques/funciones_globales.sol\":694:773  function MsgSig() public view returns (bytes4){\r... */\n    tag_10:\n        /* \"Propiedades de transacciones y bloques/funciones_globales.sol\":733:739  bytes4 */\n      0x00\n        /* \"Propiedades de transacciones y bloques/funciones_globales.sol\":758:765  msg.sig */\n      dup1\n      calldataload\n      0xffffffff00000000000000000000000000000000000000000000000000000000\n      and\n        /* \"Propiedades de transacciones y bloques/funciones_globales.sol\":751:765  return msg.sig */\n      swap1\n      pop\n        /* \"Propiedades de transacciones y bloques/funciones_globales.sol\":694:773  function MsgSig() public view returns (bytes4){\r... */\n      swap1\n      jump\t// out\n        /* \"Propiedades de transacciones y bloques/funciones_globales.sol\":305:399  function BlockCoinbase() public view returns (address){\r... */\n    tag_12:\n        /* \"Propiedades de transacciones y bloques/funciones_globales.sol\":351:358  address */\n      0x00\n        /* \"Propiedades de transacciones y bloques/funciones_globales.sol\":377:391  block.coinbase */\n      coinbase\n        /* \"Propiedades de transacciones y bloques/funciones_globales.sol\":370:391  return block.coinbase */\n      swap1\n      pop\n        /* \"Propiedades de transacciones y bloques/funciones_globales.sol\":305:399  function BlockCoinbase() public view returns (address){\r... */\n      swap1\n      jump\t// out\n        /* \"Propiedades de transacciones y bloques/funciones_globales.sol\":197:267  function Now() public view returns (uint){\r... */\n    tag_14:\n        /* \"Propiedades de transacciones y bloques/funciones_globales.sol\":233:237  uint */\n      0x00\n        /* \"Propiedades de transacciones y bloques/funciones_globales.sol\":256:259  now */\n      timestamp\n        /* \"Propiedades de transacciones y bloques/funciones_globales.sol\":249:259  return now */\n      swap1\n      pop\n        /* \"Propiedades de transacciones y bloques/funciones_globales.sol\":197:267  function Now() public view returns (uint){\r... */\n      swap1\n      jump\t// out\n        /* \"Propiedades de transacciones y bloques/funciones_globales.sol\":573:660  function BlockNumber() public view returns (uint){\r... */\n    tag_16:\n        /* \"Propiedades de transacciones y bloques/funciones_globales.sol\":617:621  uint */\n      0x00\n        /* \"Propiedades de transacciones y bloques/funciones_globales.sol\":640:652  block.number */\n      number\n        /* \"Propiedades de transacciones y bloques/funciones_globales.sol\":633:652  return block.number */\n      swap1\n      pop\n        /* \"Propiedades de transacciones y bloques/funciones_globales.sol\":573:660  function BlockNumber() public view returns (uint){\r... */\n      swap1\n      jump\t// out\n        /* \"Propiedades de transacciones y bloques/funciones_globales.sol\":102:188  function MsgSender() public view returns (address){\r... */\n    tag_18:\n        /* \"Propiedades de transacciones y bloques/funciones_globales.sol\":144:151  address */\n      0x00\n        /* \"Propiedades de transacciones y bloques/funciones_globales.sol\":170:180  msg.sender */\n      caller\n        /* \"Propiedades de transacciones y bloques/funciones_globales.sol\":163:180  return msg.sender */\n      swap1\n      pop\n        /* \"Propiedades de transacciones y bloques/funciones_globales.sol\":102:188  function MsgSender() public view returns (address){\r... */\n      swap1\n      jump\t// out\n        /* \"Propiedades de transacciones y bloques/funciones_globales.sol\":440:535  function BlockDifficulty() public view returns (uint){\r... */\n    tag_20:\n        /* \"Propiedades de transacciones y bloques/funciones_globales.sol\":488:492  uint */\n      0x00\n        /* \"Propiedades de transacciones y bloques/funciones_globales.sol\":511:527  block.difficulty */\n      difficulty\n        /* \"Propiedades de transacciones y bloques/funciones_globales.sol\":504:527  return block.difficulty */\n      swap1\n      pop\n        /* \"Propiedades de transacciones y bloques/funciones_globales.sol\":440:535  function BlockDifficulty() public view returns (uint){\r... */\n      swap1\n      jump\t// out\n\n    auxdata: 0xa264697066735822122027e5d3eb7a87199f4d4072688d98cc42b2d202c30326f25b85a43d6cbc2c779964736f6c63430006050033\n}\n",
				"bytecode": {
					"linkReferences": {},
					"object": "608060405234801561001057600080fd5b5061023a806100206000396000f3fe608060405234801561001057600080fd5b50600436106100625760003560e01c8063083f3ec4146100675780630a649267146100c357806344d4fd191461010d578063648685101461012b57806384d63e1214610149578063e6c595c014610193575b600080fd5b61006f6101b1565b60405180827bffffffffffffffffffffffffffffffffffffffffffffffffffffffff19167bffffffffffffffffffffffffffffffffffffffffffffffffffffffff1916815260200191505060405180910390f35b6100cb6101dc565b604051808273ffffffffffffffffffffffffffffffffffffffff1673ffffffffffffffffffffffffffffffffffffffff16815260200191505060405180910390f35b6101156101e4565b6040518082815260200191505060405180910390f35b6101336101ec565b6040518082815260200191505060405180910390f35b6101516101f4565b604051808273ffffffffffffffffffffffffffffffffffffffff1673ffffffffffffffffffffffffffffffffffffffff16815260200191505060405180910390f35b61019b6101fc565b6040518082815260200191505060405180910390f35b600080357fffffffff0000000000000000000000000000000000000000000000000000000016905090565b600041905090565b600042905090565b600043905090565b600033905090565b60004490509056fea264697066735822122027e5d3eb7a87199f4d4072688d98cc42b2d202c30326f25b85a43d6cbc2c779964736f6c63430006050033",
					"opcodes": "PUSH1 0x80 PUSH1 0x40 MSTORE CALLVALUE DUP1 ISZERO PUSH2 0x10 JUMPI PUSH1 0x0 DUP1 REVERT JUMPDEST POP PUSH2 0x23A DUP1 PUSH2 0x20 PUSH1 0x0 CODECOPY PUSH1 0x0 RETURN INVALID PUSH1 0x80 PUSH1 0x40 MSTORE CALLVALUE DUP1 ISZERO PUSH2 0x10 JUMPI PUSH1 0x0 DUP1 REVERT JUMPDEST POP PUSH1 0x4 CALLDATASIZE LT PUSH2 0x62 JUMPI PUSH1 0x0 CALLDATALOAD PUSH1 0xE0 SHR DUP1 PUSH4 0x83F3EC4 EQ PUSH2 0x67 JUMPI DUP1 PUSH4 0xA649267 EQ PUSH2 0xC3 JUMPI DUP1 PUSH4 0x44D4FD19 EQ PUSH2 0x10D JUMPI DUP1 PUSH4 0x64868510 EQ PUSH2 0x12B JUMPI DUP1 PUSH4 0x84D63E12 EQ PUSH2 0x149 JUMPI DUP1 PUSH4 0xE6C595C0 EQ PUSH2 0x193 JUMPI JUMPDEST PUSH1 0x0 DUP1 REVERT JUMPDEST PUSH2 0x6F PUSH2 0x1B1 JUMP JUMPDEST PUSH1 0x40 MLOAD DUP1 DUP3 PUSH28 0xFFFFFFFFFFFFFFFFFFFFFFFFFFFFFFFFFFFFFFFFFFFFFFFFFFFFFFFF NOT AND PUSH28 0xFFFFFFFFFFFFFFFFFFFFFFFFFFFFFFFFFFFFFFFFFFFFFFFFFFFFFFFF NOT AND DUP2 MSTORE PUSH1 0x20 ADD SWAP2 POP POP PUSH1 0x40 MLOAD DUP1 SWAP2 SUB SWAP1 RETURN JUMPDEST PUSH2 0xCB PUSH2 0x1DC JUMP JUMPDEST PUSH1 0x40 MLOAD DUP1 DUP3 PUSH20 0xFFFFFFFFFFFFFFFFFFFFFFFFFFFFFFFFFFFFFFFF AND PUSH20 0xFFFFFFFFFFFFFFFFFFFFFFFFFFFFFFFFFFFFFFFF AND DUP2 MSTORE PUSH1 0x20 ADD SWAP2 POP POP PUSH1 0x40 MLOAD DUP1 SWAP2 SUB SWAP1 RETURN JUMPDEST PUSH2 0x115 PUSH2 0x1E4 JUMP JUMPDEST PUSH1 0x40 MLOAD DUP1 DUP3 DUP2 MSTORE PUSH1 0x20 ADD SWAP2 POP POP PUSH1 0x40 MLOAD DUP1 SWAP2 SUB SWAP1 RETURN JUMPDEST PUSH2 0x133 PUSH2 0x1EC JUMP JUMPDEST PUSH1 0x40 MLOAD DUP1 DUP3 DUP2 MSTORE PUSH1 0x20 ADD SWAP2 POP POP PUSH1 0x40 MLOAD DUP1 SWAP2 SUB SWAP1 RETURN JUMPDEST PUSH2 0x151 PUSH2 0x1F4 JUMP JUMPDEST PUSH1 0x40 MLOAD DUP1 DUP3 PUSH20 0xFFFFFFFFFFFFFFFFFFFFFFFFFFFFFFFFFFFFFFFF AND PUSH20 0xFFFFFFFFFFFFFFFFFFFFFFFFFFFFFFFFFFFFFFFF AND DUP2 MSTORE PUSH1 0x20 ADD SWAP2 POP POP PUSH1 0x40 MLOAD DUP1 SWAP2 SUB SWAP1 RETURN JUMPDEST PUSH2 0x19B PUSH2 0x1FC JUMP JUMPDEST PUSH1 0x40 MLOAD DUP1 DUP3 DUP2 MSTORE PUSH1 0x20 ADD SWAP2 POP POP PUSH1 0x40 MLOAD DUP1 SWAP2 SUB SWAP1 RETURN JUMPDEST PUSH1 0x0 DUP1 CALLDATALOAD PUSH32 0xFFFFFFFF00000000000000000000000000000000000000000000000000000000 AND SWAP1 POP SWAP1 JUMP JUMPDEST PUSH1 0x0 COINBASE SWAP1 POP SWAP1 JUMP JUMPDEST PUSH1 0x0 TIMESTAMP SWAP1 POP SWAP1 JUMP JUMPDEST PUSH1 0x0 NUMBER SWAP1 POP SWAP1 JUMP JUMPDEST PUSH1 0x0 CALLER SWAP1 POP SWAP1 JUMP JUMPDEST PUSH1 0x0 DIFFICULTY SWAP1 POP SWAP1 JUMP INVALID LOG2 PUSH5 0x6970667358 0x22 SLT KECCAK256 0x27 0xE5 0xD3 0xEB PUSH27 0x87199F4D4072688D98CC42B2D202C30326F25B85A43D6CBC2C7799 PUSH5 0x736F6C6343 STOP MOD SDIV STOP CALLER "
				},
				"gasEstimates": {
					"creation": {
						"codeDepositCost": "114000",
						"executionCost": "159",
						"totalCost": "114159"
					},
					"external": {
						"BlockCoinbase()": "224",
						"BlockDifficulty()": "300",
						"BlockNumber()": "256",
						"MsgSender()": "290",
						"MsgSig()": "218",
						"Now()": "234"
					}
				},
				"methodIdentifiers": {
					"BlockCoinbase()": "0a649267",
					"BlockDifficulty()": "e6c595c0",
					"BlockNumber()": "64868510",
					"MsgSender()": "84d63e12",
					"MsgSig()": "083f3ec4",
					"Now()": "44d4fd19"
				}
			},
			"storageLayout": {
				"storage": [],
				"types": null
			},
			"userdoc": {
				"methods": {}
			}
		}
	}
}