{
	"Propiedades de transacciones y bloques/funciones_globales.sol": {
		"funciones_globales": {
			"abi": [
				{
					"inputs": [],
					"name": "BlockCoinbase",
					"outputs": [
						{
							"internalType": "address",
							"name": "",
							"type": "address"
						}
					],
					"stateMutability": "view",
					"type": "function"
				},
				{
					"inputs": [],
					"name": "BlockDifficulty",
					"outputs": [
						{
							"internalType": "uint256",
							"name": "",
							"type": "uint256"
						}
					],
					"stateMutability": "view",
					"type": "function"
				},
				{
					"inputs": [],
					"name": "MsgSender",
					"outputs": [
						{
							"internalType": "address",
							"name": "",
							"type": "address"
						}
					],
					"stateMutability": "view",
					"type": "function"
				},
				{
					"inputs": [],
					"name": "Now",
					"outputs": [
						{
							"internalType": "uint256",
							"name": "",
							"type": "uint256"
						}
					],
					"stateMutability": "view",
					"type": "function"
				}
			],
			"devdoc": {
				"methods": {}
			},
			"evm": {
				"assembly": "    /* \"Propiedades de transacciones y bloques/funciones_globales.sol\":36:538  contract funciones_globales{\r... */\n  mstore(0x40, 0x80)\n  callvalue\n    /* \"--CODEGEN--\":5:14   */\n  dup1\n    /* \"--CODEGEN--\":2:4   */\n  iszero\n  tag_1\n  jumpi\n    /* \"--CODEGEN--\":27:28   */\n  0x00\n    /* \"--CODEGEN--\":24:25   */\n  dup1\n    /* \"--CODEGEN--\":17:29   */\n  revert\n    /* \"--CODEGEN--\":2:4   */\ntag_1:\n    /* \"Propiedades de transacciones y bloques/funciones_globales.sol\":36:538  contract funciones_globales{\r... */\n  pop\n  dataSize(sub_0)\n  dup1\n  dataOffset(sub_0)\n  0x00\n  codecopy\n  0x00\n  return\nstop\n\nsub_0: assembly {\n        /* \"Propiedades de transacciones y bloques/funciones_globales.sol\":36:538  contract funciones_globales{\r... */\n      mstore(0x40, 0x80)\n      callvalue\n        /* \"--CODEGEN--\":5:14   */\n      dup1\n        /* \"--CODEGEN--\":2:4   */\n      iszero\n      tag_1\n      jumpi\n        /* \"--CODEGEN--\":27:28   */\n      0x00\n        /* \"--CODEGEN--\":24:25   */\n      dup1\n        /* \"--CODEGEN--\":17:29   */\n      revert\n        /* \"--CODEGEN--\":2:4   */\n    tag_1:\n        /* \"Propiedades de transacciones y bloques/funciones_globales.sol\":36:538  contract funciones_globales{\r... */\n      pop\n      jumpi(tag_2, lt(calldatasize, 0x04))\n      shr(0xe0, calldataload(0x00))\n      dup1\n      0x0a649267\n      eq\n      tag_3\n      jumpi\n      dup1\n      0x44d4fd19\n      eq\n      tag_4\n      jumpi\n      dup1\n      0x84d63e12\n      eq\n      tag_5\n      jumpi\n      dup1\n      0xe6c595c0\n      eq\n      tag_6\n      jumpi\n    tag_2:\n        /* \"--CODEGEN--\":12:13   */\n      0x00\n        /* \"--CODEGEN--\":9:10   */\n      dup1\n        /* \"--CODEGEN--\":2:14   */\n      revert\n        /* \"Propiedades de transacciones y bloques/funciones_globales.sol\":305:399  function BlockCoinbase() public view returns (address){\r... */\n    tag_3:\n      tag_7\n      tag_8\n      jump\t// in\n    tag_7:\n      mload(0x40)\n      dup1\n      dup3\n      0xffffffffffffffffffffffffffffffffffffffff\n      and\n      0xffffffffffffffffffffffffffffffffffffffff\n      and\n      dup2\n      mstore\n      0x20\n      add\n      swap2\n      pop\n      pop\n      mload(0x40)\n      dup1\n      swap2\n      sub\n      swap1\n      return\n        /* \"Propiedades de transacciones y bloques/funciones_globales.sol\":197:267  function Now() public view returns (uint){\r... */\n    tag_4:\n      tag_9\n      tag_10\n      jump\t// in\n    tag_9:\n      mload(0x40)\n      dup1\n      dup3\n      dup2\n      mstore\n      0x20\n      add\n      swap2\n      pop\n      pop\n      mload(0x40)\n      dup1\n      swap2\n      sub\n      swap1\n      return\n        /* \"Propiedades de transacciones y bloques/funciones_globales.sol\":102:188  function MsgSender() public view returns (address){\r... */\n    tag_5:\n      tag_11\n      tag_12\n      jump\t// in\n    tag_11:\n      mload(0x40)\n      dup1\n      dup3\n      0xffffffffffffffffffffffffffffffffffffffff\n      and\n      0xffffffffffffffffffffffffffffffffffffffff\n      and\n      dup2\n      mstore\n      0x20\n      add\n      swap2\n      pop\n      pop\n      mload(0x40)\n      dup1\n      swap2\n      sub\n      swap1\n      return\n        /* \"Propiedades de transacciones y bloques/funciones_globales.sol\":440:535  function BlockDifficulty() public view returns (uint){\r... */\n    tag_6:\n      tag_13\n      tag_14\n      jump\t// in\n    tag_13:\n      mload(0x40)\n      dup1\n      dup3\n      dup2\n      mstore\n      0x20\n      add\n      swap2\n      pop\n      pop\n      mload(0x40)\n      dup1\n      swap2\n      sub\n      swap1\n      return\n        /* \"Propiedades de transacciones y bloques/funciones_globales.sol\":305:399  function BlockCoinbase() public view returns (address){\r... */\n    tag_8:\n        /* \"Propiedades de transacciones y bloques/funciones_globales.sol\":351:358  address */\n      0x00\n        /* \"Propiedades de transacciones y bloques/funciones_globales.sol\":377:391  block.coinbase */\n      coinbase\n        /* \"Propiedades de transacciones y bloques/funciones_globales.sol\":370:391  return block.coinbase */\n      swap1\n      pop\n        /* \"Propiedades de transacciones y bloques/funciones_globales.sol\":305:399  function BlockCoinbase() public view returns (address){\r... */\n      swap1\n      jump\t// out\n        /* \"Propiedades de transacciones y bloques/funciones_globales.sol\":197:267  function Now() public view returns (uint){\r... */\n    tag_10:\n        /* \"Propiedades de transacciones y bloques/funciones_globales.sol\":233:237  uint */\n      0x00\n        /* \"Propiedades de transacciones y bloques/funciones_globales.sol\":256:259  now */\n      timestamp\n        /* \"Propiedades de transacciones y bloques/funciones_globales.sol\":249:259  return now */\n      swap1\n      pop\n        /* \"Propiedades de transacciones y bloques/funciones_globales.sol\":197:267  function Now() public view returns (uint){\r... */\n      swap1\n      jump\t// out\n        /* \"Propiedades de transacciones y bloques/funciones_globales.sol\":102:188  function MsgSender() public view returns (address){\r... */\n    tag_12:\n        /* \"Propiedades de transacciones y bloques/funciones_globales.sol\":144:151  address */\n      0x00\n        /* \"Propiedades de transacciones y bloques/funciones_globales.sol\":170:180  msg.sender */\n      caller\n        /* \"Propiedades de transacciones y bloques/funciones_globales.sol\":163:180  return msg.sender */\n      swap1\n      pop\n        /* \"Propiedades de transacciones y bloques/funciones_globales.sol\":102:188  function MsgSender() public view returns (address){\r... */\n      swap1\n      jump\t// out\n        /* \"Propiedades de transacciones y bloques/funciones_globales.sol\":440:535  function BlockDifficulty() public view returns (uint){\r... */\n    tag_14:\n        /* \"Propiedades de transacciones y bloques/funciones_globales.sol\":488:492  uint */\n      0x00\n        /* \"Propiedades de transacciones y bloques/funciones_globales.sol\":511:527  block.difficulty */\n      difficulty\n        /* \"Propiedades de transacciones y bloques/funciones_globales.sol\":504:527  return block.difficulty */\n      swap1\n      pop\n        /* \"Propiedades de transacciones y bloques/funciones_globales.sol\":440:535  function BlockDifficulty() public view returns (uint){\r... */\n      swap1\n      jump\t// out\n\n    auxdata: 0xa26469706673582212209104ad71c8fc3e7f5808b0d2f4aaabf6bb811d8c018c22421cfe8b3a1b72d56b64736f6c63430006050033\n}\n",
				"bytecode": {
					"linkReferences": {},
					"object": "608060405234801561001057600080fd5b50610177806100206000396000f3fe608060405234801561001057600080fd5b506004361061004c5760003560e01c80630a6492671461005157806344d4fd191461009b57806384d63e12146100b9578063e6c595c014610103575b600080fd5b610059610121565b604051808273ffffffffffffffffffffffffffffffffffffffff1673ffffffffffffffffffffffffffffffffffffffff16815260200191505060405180910390f35b6100a3610129565b6040518082815260200191505060405180910390f35b6100c1610131565b604051808273ffffffffffffffffffffffffffffffffffffffff1673ffffffffffffffffffffffffffffffffffffffff16815260200191505060405180910390f35b61010b610139565b6040518082815260200191505060405180910390f35b600041905090565b600042905090565b600033905090565b60004490509056fea26469706673582212209104ad71c8fc3e7f5808b0d2f4aaabf6bb811d8c018c22421cfe8b3a1b72d56b64736f6c63430006050033",
					"opcodes": "PUSH1 0x80 PUSH1 0x40 MSTORE CALLVALUE DUP1 ISZERO PUSH2 0x10 JUMPI PUSH1 0x0 DUP1 REVERT JUMPDEST POP PUSH2 0x177 DUP1 PUSH2 0x20 PUSH1 0x0 CODECOPY PUSH1 0x0 RETURN INVALID PUSH1 0x80 PUSH1 0x40 MSTORE CALLVALUE DUP1 ISZERO PUSH2 0x10 JUMPI PUSH1 0x0 DUP1 REVERT JUMPDEST POP PUSH1 0x4 CALLDATASIZE LT PUSH2 0x4C JUMPI PUSH1 0x0 CALLDATALOAD PUSH1 0xE0 SHR DUP1 PUSH4 0xA649267 EQ PUSH2 0x51 JUMPI DUP1 PUSH4 0x44D4FD19 EQ PUSH2 0x9B JUMPI DUP1 PUSH4 0x84D63E12 EQ PUSH2 0xB9 JUMPI DUP1 PUSH4 0xE6C595C0 EQ PUSH2 0x103 JUMPI JUMPDEST PUSH1 0x0 DUP1 REVERT JUMPDEST PUSH2 0x59 PUSH2 0x121 JUMP JUMPDEST PUSH1 0x40 MLOAD DUP1 DUP3 PUSH20 0xFFFFFFFFFFFFFFFFFFFFFFFFFFFFFFFFFFFFFFFF AND PUSH20 0xFFFFFFFFFFFFFFFFFFFFFFFFFFFFFFFFFFFFFFFF AND DUP2 MSTORE PUSH1 0x20 ADD SWAP2 POP POP PUSH1 0x40 MLOAD DUP1 SWAP2 SUB SWAP1 RETURN JUMPDEST PUSH2 0xA3 PUSH2 0x129 JUMP JUMPDEST PUSH1 0x40 MLOAD DUP1 DUP3 DUP2 MSTORE PUSH1 0x20 ADD SWAP2 POP POP PUSH1 0x40 MLOAD DUP1 SWAP2 SUB SWAP1 RETURN JUMPDEST PUSH2 0xC1 PUSH2 0x131 JUMP JUMPDEST PUSH1 0x40 MLOAD DUP1 DUP3 PUSH20 0xFFFFFFFFFFFFFFFFFFFFFFFFFFFFFFFFFFFFFFFF AND PUSH20 0xFFFFFFFFFFFFFFFFFFFFFFFFFFFFFFFFFFFFFFFF AND DUP2 MSTORE PUSH1 0x20 ADD SWAP2 POP POP PUSH1 0x40 MLOAD DUP1 SWAP2 SUB SWAP1 RETURN JUMPDEST PUSH2 0x10B PUSH2 0x139 JUMP JUMPDEST PUSH1 0x40 MLOAD DUP1 DUP3 DUP2 MSTORE PUSH1 0x20 ADD SWAP2 POP POP PUSH1 0x40 MLOAD DUP1 SWAP2 SUB SWAP1 RETURN JUMPDEST PUSH1 0x0 COINBASE SWAP1 POP SWAP1 JUMP JUMPDEST PUSH1 0x0 TIMESTAMP SWAP1 POP SWAP1 JUMP JUMPDEST PUSH1 0x0 CALLER SWAP1 POP SWAP1 JUMP JUMPDEST PUSH1 0x0 DIFFICULTY SWAP1 POP SWAP1 JUMP INVALID LOG2 PUSH5 0x6970667358 0x22 SLT KECCAK256 SWAP2 DIV 0xAD PUSH18 0xC8FC3E7F5808B0D2F4AAABF6BB811D8C018C 0x22 TIMESTAMP SHR INVALID DUP12 GASPRICE SHL PUSH19 0xD56B64736F6C63430006050033000000000000 "
				},
				"gasEstimates": {
					"creation": {
						"codeDepositCost": "75000",
						"executionCost": "123",
						"totalCost": "75123"
					},
					"external": {
						"BlockCoinbase()": "202",
						"BlockDifficulty()": "256",
						"MsgSender()": "246",
						"Now()": "212"
					}
				},
				"methodIdentifiers": {
					"BlockCoinbase()": "0a649267",
					"BlockDifficulty()": "e6c595c0",
					"MsgSender()": "84d63e12",
					"Now()": "44d4fd19"
				}
			},
			"storageLayout": {
				"storage": [],
				"types": null
			},
			"userdoc": {
				"methods": {}
			}
		}
	}
}