{
	"data": {
		"bytecode": {
			"linkReferences": {},
			"object": "608060405260008055600060015534801561001957600080fd5b50610af7806100296000396000f3fe608060405234801561001057600080fd5b506004361061004c5760003560e01c80633aa6d20814610051578063694b9d341461008157806371d3f37a1461009f578063f8f552b4146100cf575b600080fd5b61006b60048036038101906100669190610432565b6100eb565b604051610078919061046e565b60405180910390f35b610089610166565b604051610096919061046e565b60405180910390f35b6100b960048036038101906100b491906105cf565b61016c565b6040516100c691906106a0565b60405180910390f35b6100e960048036038101906100e491906105cf565b610237565b005b600060056001546100fc91906106f1565b421161013d576040517f08c379a000000000000000000000000000000000000000000000000000000000815260040161013490610793565b60405180910390fd5b426001819055508160008082825461015591906106f1565b925050819055506000549050919050565b60005481565b606060405160200161017d9061080a565b60405160208183030381529060405280519060200120826040516020016101a49190610850565b60405160208183030381529060405280519060200120146101fa576040517f08c379a00000000000000000000000000000000000000000000000000000000081526004016101f1906108b3565b60405180910390fd5b6040518060400160405280601181526020017f50617373776f726420436f7272656374610000000000000000000000000000008152509050919050565b60005b600280549050811015610305576002818154811061025b5761025a6108d3565b5b9060005260206000200160405160200161027591906109f6565b604051602081830303815290604052805190602001208260405160200161029c9190610850565b60405160208183030381529060405280519060200120036102f2576040517f08c379a00000000000000000000000000000000000000000000000000000000081526004016102e990610a59565b60405180910390fd5b80806102fd90610a79565b91505061023a565b50600281908060018154018082558091505060019003906000526020600020016000909190919091509080519060200190610341929190610345565b5050565b82805461035190610931565b90600052602060002090601f01602090048101928261037357600085556103ba565b82601f1061038c57805160ff19168380011785556103ba565b828001600101855582156103ba579182015b828111156103b957825182559160200191906001019061039e565b5b5090506103c791906103cb565b5090565b5b808211156103e45760008160009055506001016103cc565b5090565b6000604051905090565b600080fd5b600080fd5b6000819050919050565b61040f816103fc565b811461041a57600080fd5b50565b60008135905061042c81610406565b92915050565b600060208284031215610448576104476103f2565b5b60006104568482850161041d565b91505092915050565b610468816103fc565b82525050565b6000602082019050610483600083018461045f565b92915050565b600080fd5b600080fd5b6000601f19601f8301169050919050565b7f4e487b7100000000000000000000000000000000000000000000000000000000600052604160045260246000fd5b6104dc82610493565b810181811067ffffffffffffffff821117156104fb576104fa6104a4565b5b80604052505050565b600061050e6103e8565b905061051a82826104d3565b919050565b600067ffffffffffffffff82111561053a576105396104a4565b5b61054382610493565b9050602081019050919050565b82818337600083830152505050565b600061057261056d8461051f565b610504565b90508281526020810184848401111561058e5761058d61048e565b5b610599848285610550565b509392505050565b600082601f8301126105b6576105b5610489565b5b81356105c684826020860161055f565b91505092915050565b6000602082840312156105e5576105e46103f2565b5b600082013567ffffffffffffffff811115610603576106026103f7565b5b61060f848285016105a1565b91505092915050565b600081519050919050565b600082825260208201905092915050565b60005b83811015610652578082015181840152602081019050610637565b83811115610661576000848401525b50505050565b600061067282610618565b61067c8185610623565b935061068c818560208601610634565b61069581610493565b840191505092915050565b600060208201905081810360008301526106ba8184610667565b905092915050565b7f4e487b7100000000000000000000000000000000000000000000000000000000600052601160045260246000fd5b60006106fc826103fc565b9150610707836103fc565b9250827fffffffffffffffffffffffffffffffffffffffffffffffffffffffffffffffff0382111561073c5761073b6106c2565b5b828201905092915050565b7f41756e206e6f2070756564657320706167617200000000000000000000000000600082015250565b600061077d601383610623565b915061078882610747565b602082019050919050565b600060208201905081810360008301526107ac81610770565b9050919050565b600081905092915050565b7f3132333435360000000000000000000000000000000000000000000000000000600082015250565b60006107f46006836107b3565b91506107ff826107be565b600682019050919050565b6000610815826107e7565b9150819050919050565b600061082a82610618565b61083481856107b3565b9350610844818560208601610634565b80840191505092915050565b600061085c828461081f565b915081905092915050565b7f50617373776f726420696e636f72726563746f00000000000000000000000000600082015250565b600061089d601383610623565b91506108a882610867565b602082019050919050565b600060208201905081810360008301526108cc81610890565b9050919050565b7f4e487b7100000000000000000000000000000000000000000000000000000000600052603260045260246000fd5b7f4e487b7100000000000000000000000000000000000000000000000000000000600052602260045260246000fd5b6000600282049050600182168061094957607f821691505b60208210810361095c5761095b610902565b5b50919050565b60008190508160005260206000209050919050565b6000815461098481610931565b61098e81866107b3565b945060018216600081146109a957600181146109ba576109ed565b60ff198316865281860193506109ed565b6109c385610962565b60005b838110156109e5578154818901526001820191506020810190506109c6565b838801955050505b50505092915050565b6000610a028284610977565b915081905092915050565b7f7961206573746120656e206c61206c6973746100000000000000000000000000600082015250565b6000610a43601383610623565b9150610a4e82610a0d565b602082019050919050565b60006020820190508181036000830152610a7281610a36565b9050919050565b6000610a84826103fc565b91507fffffffffffffffffffffffffffffffffffffffffffffffffffffffffffffffff8203610ab657610ab56106c2565b5b60018201905091905056fea2646970667358221220f315d3703b0a44e9a06b8f9668930466e78529d6c2c91ef54566dbf3c70124bc64736f6c634300080d0033",
			"opcodes": "PUSH1 0x80 PUSH1 0x40 MSTORE PUSH1 0x0 DUP1 SSTORE PUSH1 0x0 PUSH1 0x1 SSTORE CALLVALUE DUP1 ISZERO PUSH2 0x19 JUMPI PUSH1 0x0 DUP1 REVERT JUMPDEST POP PUSH2 0xAF7 DUP1 PUSH2 0x29 PUSH1 0x0 CODECOPY PUSH1 0x0 RETURN INVALID PUSH1 0x80 PUSH1 0x40 MSTORE CALLVALUE DUP1 ISZERO PUSH2 0x10 JUMPI PUSH1 0x0 DUP1 REVERT JUMPDEST POP PUSH1 0x4 CALLDATASIZE LT PUSH2 0x4C JUMPI PUSH1 0x0 CALLDATALOAD PUSH1 0xE0 SHR DUP1 PUSH4 0x3AA6D208 EQ PUSH2 0x51 JUMPI DUP1 PUSH4 0x694B9D34 EQ PUSH2 0x81 JUMPI DUP1 PUSH4 0x71D3F37A EQ PUSH2 0x9F JUMPI DUP1 PUSH4 0xF8F552B4 EQ PUSH2 0xCF JUMPI JUMPDEST PUSH1 0x0 DUP1 REVERT JUMPDEST PUSH2 0x6B PUSH1 0x4 DUP1 CALLDATASIZE SUB DUP2 ADD SWAP1 PUSH2 0x66 SWAP2 SWAP1 PUSH2 0x432 JUMP JUMPDEST PUSH2 0xEB JUMP JUMPDEST PUSH1 0x40 MLOAD PUSH2 0x78 SWAP2 SWAP1 PUSH2 0x46E JUMP JUMPDEST PUSH1 0x40 MLOAD DUP1 SWAP2 SUB SWAP1 RETURN JUMPDEST PUSH2 0x89 PUSH2 0x166 JUMP JUMPDEST PUSH1 0x40 MLOAD PUSH2 0x96 SWAP2 SWAP1 PUSH2 0x46E JUMP JUMPDEST PUSH1 0x40 MLOAD DUP1 SWAP2 SUB SWAP1 RETURN JUMPDEST PUSH2 0xB9 PUSH1 0x4 DUP1 CALLDATASIZE SUB DUP2 ADD SWAP1 PUSH2 0xB4 SWAP2 SWAP1 PUSH2 0x5CF JUMP JUMPDEST PUSH2 0x16C JUMP JUMPDEST PUSH1 0x40 MLOAD PUSH2 0xC6 SWAP2 SWAP1 PUSH2 0x6A0 JUMP JUMPDEST PUSH1 0x40 MLOAD DUP1 SWAP2 SUB SWAP1 RETURN JUMPDEST PUSH2 0xE9 PUSH1 0x4 DUP1 CALLDATASIZE SUB DUP2 ADD SWAP1 PUSH2 0xE4 SWAP2 SWAP1 PUSH2 0x5CF JUMP JUMPDEST PUSH2 0x237 JUMP JUMPDEST STOP JUMPDEST PUSH1 0x0 PUSH1 0x5 PUSH1 0x1 SLOAD PUSH2 0xFC SWAP2 SWAP1 PUSH2 0x6F1 JUMP JUMPDEST TIMESTAMP GT PUSH2 0x13D JUMPI PUSH1 0x40 MLOAD PUSH32 0x8C379A000000000000000000000000000000000000000000000000000000000 DUP2 MSTORE PUSH1 0x4 ADD PUSH2 0x134 SWAP1 PUSH2 0x793 JUMP JUMPDEST PUSH1 0x40 MLOAD DUP1 SWAP2 SUB SWAP1 REVERT JUMPDEST TIMESTAMP PUSH1 0x1 DUP2 SWAP1 SSTORE POP DUP2 PUSH1 0x0 DUP1 DUP3 DUP3 SLOAD PUSH2 0x155 SWAP2 SWAP1 PUSH2 0x6F1 JUMP JUMPDEST SWAP3 POP POP DUP2 SWAP1 SSTORE POP PUSH1 0x0 SLOAD SWAP1 POP SWAP2 SWAP1 POP JUMP JUMPDEST PUSH1 0x0 SLOAD DUP2 JUMP JUMPDEST PUSH1 0x60 PUSH1 0x40 MLOAD PUSH1 0x20 ADD PUSH2 0x17D SWAP1 PUSH2 0x80A JUMP JUMPDEST PUSH1 0x40 MLOAD PUSH1 0x20 DUP2 DUP4 SUB SUB DUP2 MSTORE SWAP1 PUSH1 0x40 MSTORE DUP1 MLOAD SWAP1 PUSH1 0x20 ADD KECCAK256 DUP3 PUSH1 0x40 MLOAD PUSH1 0x20 ADD PUSH2 0x1A4 SWAP2 SWAP1 PUSH2 0x850 JUMP JUMPDEST PUSH1 0x40 MLOAD PUSH1 0x20 DUP2 DUP4 SUB SUB DUP2 MSTORE SWAP1 PUSH1 0x40 MSTORE DUP1 MLOAD SWAP1 PUSH1 0x20 ADD KECCAK256 EQ PUSH2 0x1FA JUMPI PUSH1 0x40 MLOAD PUSH32 0x8C379A000000000000000000000000000000000000000000000000000000000 DUP2 MSTORE PUSH1 0x4 ADD PUSH2 0x1F1 SWAP1 PUSH2 0x8B3 JUMP JUMPDEST PUSH1 0x40 MLOAD DUP1 SWAP2 SUB SWAP1 REVERT JUMPDEST PUSH1 0x40 MLOAD DUP1 PUSH1 0x40 ADD PUSH1 0x40 MSTORE DUP1 PUSH1 0x11 DUP2 MSTORE PUSH1 0x20 ADD PUSH32 0x50617373776F726420436F727265637461000000000000000000000000000000 DUP2 MSTORE POP SWAP1 POP SWAP2 SWAP1 POP JUMP JUMPDEST PUSH1 0x0 JUMPDEST PUSH1 0x2 DUP1 SLOAD SWAP1 POP DUP2 LT ISZERO PUSH2 0x305 JUMPI PUSH1 0x2 DUP2 DUP2 SLOAD DUP2 LT PUSH2 0x25B JUMPI PUSH2 0x25A PUSH2 0x8D3 JUMP JUMPDEST JUMPDEST SWAP1 PUSH1 0x0 MSTORE PUSH1 0x20 PUSH1 0x0 KECCAK256 ADD PUSH1 0x40 MLOAD PUSH1 0x20 ADD PUSH2 0x275 SWAP2 SWAP1 PUSH2 0x9F6 JUMP JUMPDEST PUSH1 0x40 MLOAD PUSH1 0x20 DUP2 DUP4 SUB SUB DUP2 MSTORE SWAP1 PUSH1 0x40 MSTORE DUP1 MLOAD SWAP1 PUSH1 0x20 ADD KECCAK256 DUP3 PUSH1 0x40 MLOAD PUSH1 0x20 ADD PUSH2 0x29C SWAP2 SWAP1 PUSH2 0x850 JUMP JUMPDEST PUSH1 0x40 MLOAD PUSH1 0x20 DUP2 DUP4 SUB SUB DUP2 MSTORE SWAP1 PUSH1 0x40 MSTORE DUP1 MLOAD SWAP1 PUSH1 0x20 ADD KECCAK256 SUB PUSH2 0x2F2 JUMPI PUSH1 0x40 MLOAD PUSH32 0x8C379A000000000000000000000000000000000000000000000000000000000 DUP2 MSTORE PUSH1 0x4 ADD PUSH2 0x2E9 SWAP1 PUSH2 0xA59 JUMP JUMPDEST PUSH1 0x40 MLOAD DUP1 SWAP2 SUB SWAP1 REVERT JUMPDEST DUP1 DUP1 PUSH2 0x2FD SWAP1 PUSH2 0xA79 JUMP JUMPDEST SWAP2 POP POP PUSH2 0x23A JUMP JUMPDEST POP PUSH1 0x2 DUP2 SWAP1 DUP1 PUSH1 0x1 DUP2 SLOAD ADD DUP1 DUP3 SSTORE DUP1 SWAP2 POP POP PUSH1 0x1 SWAP1 SUB SWAP1 PUSH1 0x0 MSTORE PUSH1 0x20 PUSH1 0x0 KECCAK256 ADD PUSH1 0x0 SWAP1 SWAP2 SWAP1 SWAP2 SWAP1 SWAP2 POP SWAP1 DUP1 MLOAD SWAP1 PUSH1 0x20 ADD SWAP1 PUSH2 0x341 SWAP3 SWAP2 SWAP1 PUSH2 0x345 JUMP JUMPDEST POP POP JUMP JUMPDEST DUP3 DUP1 SLOAD PUSH2 0x351 SWAP1 PUSH2 0x931 JUMP JUMPDEST SWAP1 PUSH1 0x0 MSTORE PUSH1 0x20 PUSH1 0x0 KECCAK256 SWAP1 PUSH1 0x1F ADD PUSH1 0x20 SWAP1 DIV DUP2 ADD SWAP3 DUP3 PUSH2 0x373 JUMPI PUSH1 0x0 DUP6 SSTORE PUSH2 0x3BA JUMP JUMPDEST DUP3 PUSH1 0x1F LT PUSH2 0x38C JUMPI DUP1 MLOAD PUSH1 0xFF NOT AND DUP4 DUP1 ADD OR DUP6 SSTORE PUSH2 0x3BA JUMP JUMPDEST DUP3 DUP1 ADD PUSH1 0x1 ADD DUP6 SSTORE DUP3 ISZERO PUSH2 0x3BA JUMPI SWAP2 DUP3 ADD JUMPDEST DUP3 DUP2 GT ISZERO PUSH2 0x3B9 JUMPI DUP3 MLOAD DUP3 SSTORE SWAP2 PUSH1 0x20 ADD SWAP2 SWAP1 PUSH1 0x1 ADD SWAP1 PUSH2 0x39E JUMP JUMPDEST JUMPDEST POP SWAP1 POP PUSH2 0x3C7 SWAP2 SWAP1 PUSH2 0x3CB JUMP JUMPDEST POP SWAP1 JUMP JUMPDEST JUMPDEST DUP1 DUP3 GT ISZERO PUSH2 0x3E4 JUMPI PUSH1 0x0 DUP2 PUSH1 0x0 SWAP1 SSTORE POP PUSH1 0x1 ADD PUSH2 0x3CC JUMP JUMPDEST POP SWAP1 JUMP JUMPDEST PUSH1 0x0 PUSH1 0x40 MLOAD SWAP1 POP SWAP1 JUMP JUMPDEST PUSH1 0x0 DUP1 REVERT JUMPDEST PUSH1 0x0 DUP1 REVERT JUMPDEST PUSH1 0x0 DUP2 SWAP1 POP SWAP2 SWAP1 POP JUMP JUMPDEST PUSH2 0x40F DUP2 PUSH2 0x3FC JUMP JUMPDEST DUP2 EQ PUSH2 0x41A JUMPI PUSH1 0x0 DUP1 REVERT JUMPDEST POP JUMP JUMPDEST PUSH1 0x0 DUP2 CALLDATALOAD SWAP1 POP PUSH2 0x42C DUP2 PUSH2 0x406 JUMP JUMPDEST SWAP3 SWAP2 POP POP JUMP JUMPDEST PUSH1 0x0 PUSH1 0x20 DUP3 DUP5 SUB SLT ISZERO PUSH2 0x448 JUMPI PUSH2 0x447 PUSH2 0x3F2 JUMP JUMPDEST JUMPDEST PUSH1 0x0 PUSH2 0x456 DUP5 DUP3 DUP6 ADD PUSH2 0x41D JUMP JUMPDEST SWAP2 POP POP SWAP3 SWAP2 POP POP JUMP JUMPDEST PUSH2 0x468 DUP2 PUSH2 0x3FC JUMP JUMPDEST DUP3 MSTORE POP POP JUMP JUMPDEST PUSH1 0x0 PUSH1 0x20 DUP3 ADD SWAP1 POP PUSH2 0x483 PUSH1 0x0 DUP4 ADD DUP5 PUSH2 0x45F JUMP JUMPDEST SWAP3 SWAP2 POP POP JUMP JUMPDEST PUSH1 0x0 DUP1 REVERT JUMPDEST PUSH1 0x0 DUP1 REVERT JUMPDEST PUSH1 0x0 PUSH1 0x1F NOT PUSH1 0x1F DUP4 ADD AND SWAP1 POP SWAP2 SWAP1 POP JUMP JUMPDEST PUSH32 0x4E487B7100000000000000000000000000000000000000000000000000000000 PUSH1 0x0 MSTORE PUSH1 0x41 PUSH1 0x4 MSTORE PUSH1 0x24 PUSH1 0x0 REVERT JUMPDEST PUSH2 0x4DC DUP3 PUSH2 0x493 JUMP JUMPDEST DUP2 ADD DUP2 DUP2 LT PUSH8 0xFFFFFFFFFFFFFFFF DUP3 GT OR ISZERO PUSH2 0x4FB JUMPI PUSH2 0x4FA PUSH2 0x4A4 JUMP JUMPDEST JUMPDEST DUP1 PUSH1 0x40 MSTORE POP POP POP JUMP JUMPDEST PUSH1 0x0 PUSH2 0x50E PUSH2 0x3E8 JUMP JUMPDEST SWAP1 POP PUSH2 0x51A DUP3 DUP3 PUSH2 0x4D3 JUMP JUMPDEST SWAP2 SWAP1 POP JUMP JUMPDEST PUSH1 0x0 PUSH8 0xFFFFFFFFFFFFFFFF DUP3 GT ISZERO PUSH2 0x53A JUMPI PUSH2 0x539 PUSH2 0x4A4 JUMP JUMPDEST JUMPDEST PUSH2 0x543 DUP3 PUSH2 0x493 JUMP JUMPDEST SWAP1 POP PUSH1 0x20 DUP2 ADD SWAP1 POP SWAP2 SWAP1 POP JUMP JUMPDEST DUP3 DUP2 DUP4 CALLDATACOPY PUSH1 0x0 DUP4 DUP4 ADD MSTORE POP POP POP JUMP JUMPDEST PUSH1 0x0 PUSH2 0x572 PUSH2 0x56D DUP5 PUSH2 0x51F JUMP JUMPDEST PUSH2 0x504 JUMP JUMPDEST SWAP1 POP DUP3 DUP2 MSTORE PUSH1 0x20 DUP2 ADD DUP5 DUP5 DUP5 ADD GT ISZERO PUSH2 0x58E JUMPI PUSH2 0x58D PUSH2 0x48E JUMP JUMPDEST JUMPDEST PUSH2 0x599 DUP5 DUP3 DUP6 PUSH2 0x550 JUMP JUMPDEST POP SWAP4 SWAP3 POP POP POP JUMP JUMPDEST PUSH1 0x0 DUP3 PUSH1 0x1F DUP4 ADD SLT PUSH2 0x5B6 JUMPI PUSH2 0x5B5 PUSH2 0x489 JUMP JUMPDEST JUMPDEST DUP2 CALLDATALOAD PUSH2 0x5C6 DUP5 DUP3 PUSH1 0x20 DUP7 ADD PUSH2 0x55F JUMP JUMPDEST SWAP2 POP POP SWAP3 SWAP2 POP POP JUMP JUMPDEST PUSH1 0x0 PUSH1 0x20 DUP3 DUP5 SUB SLT ISZERO PUSH2 0x5E5 JUMPI PUSH2 0x5E4 PUSH2 0x3F2 JUMP JUMPDEST JUMPDEST PUSH1 0x0 DUP3 ADD CALLDATALOAD PUSH8 0xFFFFFFFFFFFFFFFF DUP2 GT ISZERO PUSH2 0x603 JUMPI PUSH2 0x602 PUSH2 0x3F7 JUMP JUMPDEST JUMPDEST PUSH2 0x60F DUP5 DUP3 DUP6 ADD PUSH2 0x5A1 JUMP JUMPDEST SWAP2 POP POP SWAP3 SWAP2 POP POP JUMP JUMPDEST PUSH1 0x0 DUP2 MLOAD SWAP1 POP SWAP2 SWAP1 POP JUMP JUMPDEST PUSH1 0x0 DUP3 DUP3 MSTORE PUSH1 0x20 DUP3 ADD SWAP1 POP SWAP3 SWAP2 POP POP JUMP JUMPDEST PUSH1 0x0 JUMPDEST DUP4 DUP2 LT ISZERO PUSH2 0x652 JUMPI DUP1 DUP3 ADD MLOAD DUP2 DUP5 ADD MSTORE PUSH1 0x20 DUP2 ADD SWAP1 POP PUSH2 0x637 JUMP JUMPDEST DUP4 DUP2 GT ISZERO PUSH2 0x661 JUMPI PUSH1 0x0 DUP5 DUP5 ADD MSTORE JUMPDEST POP POP POP POP JUMP JUMPDEST PUSH1 0x0 PUSH2 0x672 DUP3 PUSH2 0x618 JUMP JUMPDEST PUSH2 0x67C DUP2 DUP6 PUSH2 0x623 JUMP JUMPDEST SWAP4 POP PUSH2 0x68C DUP2 DUP6 PUSH1 0x20 DUP7 ADD PUSH2 0x634 JUMP JUMPDEST PUSH2 0x695 DUP2 PUSH2 0x493 JUMP JUMPDEST DUP5 ADD SWAP2 POP POP SWAP3 SWAP2 POP POP JUMP JUMPDEST PUSH1 0x0 PUSH1 0x20 DUP3 ADD SWAP1 POP DUP2 DUP2 SUB PUSH1 0x0 DUP4 ADD MSTORE PUSH2 0x6BA DUP2 DUP5 PUSH2 0x667 JUMP JUMPDEST SWAP1 POP SWAP3 SWAP2 POP POP JUMP JUMPDEST PUSH32 0x4E487B7100000000000000000000000000000000000000000000000000000000 PUSH1 0x0 MSTORE PUSH1 0x11 PUSH1 0x4 MSTORE PUSH1 0x24 PUSH1 0x0 REVERT JUMPDEST PUSH1 0x0 PUSH2 0x6FC DUP3 PUSH2 0x3FC JUMP JUMPDEST SWAP2 POP PUSH2 0x707 DUP4 PUSH2 0x3FC JUMP JUMPDEST SWAP3 POP DUP3 PUSH32 0xFFFFFFFFFFFFFFFFFFFFFFFFFFFFFFFFFFFFFFFFFFFFFFFFFFFFFFFFFFFFFFFF SUB DUP3 GT ISZERO PUSH2 0x73C JUMPI PUSH2 0x73B PUSH2 0x6C2 JUMP JUMPDEST JUMPDEST DUP3 DUP3 ADD SWAP1 POP SWAP3 SWAP2 POP POP JUMP JUMPDEST PUSH32 0x41756E206E6F2070756564657320706167617200000000000000000000000000 PUSH1 0x0 DUP3 ADD MSTORE POP JUMP JUMPDEST PUSH1 0x0 PUSH2 0x77D PUSH1 0x13 DUP4 PUSH2 0x623 JUMP JUMPDEST SWAP2 POP PUSH2 0x788 DUP3 PUSH2 0x747 JUMP JUMPDEST PUSH1 0x20 DUP3 ADD SWAP1 POP SWAP2 SWAP1 POP JUMP JUMPDEST PUSH1 0x0 PUSH1 0x20 DUP3 ADD SWAP1 POP DUP2 DUP2 SUB PUSH1 0x0 DUP4 ADD MSTORE PUSH2 0x7AC DUP2 PUSH2 0x770 JUMP JUMPDEST SWAP1 POP SWAP2 SWAP1 POP JUMP JUMPDEST PUSH1 0x0 DUP2 SWAP1 POP SWAP3 SWAP2 POP POP JUMP JUMPDEST PUSH32 0x3132333435360000000000000000000000000000000000000000000000000000 PUSH1 0x0 DUP3 ADD MSTORE POP JUMP JUMPDEST PUSH1 0x0 PUSH2 0x7F4 PUSH1 0x6 DUP4 PUSH2 0x7B3 JUMP JUMPDEST SWAP2 POP PUSH2 0x7FF DUP3 PUSH2 0x7BE JUMP JUMPDEST PUSH1 0x6 DUP3 ADD SWAP1 POP SWAP2 SWAP1 POP JUMP JUMPDEST PUSH1 0x0 PUSH2 0x815 DUP3 PUSH2 0x7E7 JUMP JUMPDEST SWAP2 POP DUP2 SWAP1 POP SWAP2 SWAP1 POP JUMP JUMPDEST PUSH1 0x0 PUSH2 0x82A DUP3 PUSH2 0x618 JUMP JUMPDEST PUSH2 0x834 DUP2 DUP6 PUSH2 0x7B3 JUMP JUMPDEST SWAP4 POP PUSH2 0x844 DUP2 DUP6 PUSH1 0x20 DUP7 ADD PUSH2 0x634 JUMP JUMPDEST DUP1 DUP5 ADD SWAP2 POP POP SWAP3 SWAP2 POP POP JUMP JUMPDEST PUSH1 0x0 PUSH2 0x85C DUP3 DUP5 PUSH2 0x81F JUMP JUMPDEST SWAP2 POP DUP2 SWAP1 POP SWAP3 SWAP2 POP POP JUMP JUMPDEST PUSH32 0x50617373776F726420696E636F72726563746F00000000000000000000000000 PUSH1 0x0 DUP3 ADD MSTORE POP JUMP JUMPDEST PUSH1 0x0 PUSH2 0x89D PUSH1 0x13 DUP4 PUSH2 0x623 JUMP JUMPDEST SWAP2 POP PUSH2 0x8A8 DUP3 PUSH2 0x867 JUMP JUMPDEST PUSH1 0x20 DUP3 ADD SWAP1 POP SWAP2 SWAP1 POP JUMP JUMPDEST PUSH1 0x0 PUSH1 0x20 DUP3 ADD SWAP1 POP DUP2 DUP2 SUB PUSH1 0x0 DUP4 ADD MSTORE PUSH2 0x8CC DUP2 PUSH2 0x890 JUMP JUMPDEST SWAP1 POP SWAP2 SWAP1 POP JUMP JUMPDEST PUSH32 0x4E487B7100000000000000000000000000000000000000000000000000000000 PUSH1 0x0 MSTORE PUSH1 0x32 PUSH1 0x4 MSTORE PUSH1 0x24 PUSH1 0x0 REVERT JUMPDEST PUSH32 0x4E487B7100000000000000000000000000000000000000000000000000000000 PUSH1 0x0 MSTORE PUSH1 0x22 PUSH1 0x4 MSTORE PUSH1 0x24 PUSH1 0x0 REVERT JUMPDEST PUSH1 0x0 PUSH1 0x2 DUP3 DIV SWAP1 POP PUSH1 0x1 DUP3 AND DUP1 PUSH2 0x949 JUMPI PUSH1 0x7F DUP3 AND SWAP2 POP JUMPDEST PUSH1 0x20 DUP3 LT DUP2 SUB PUSH2 0x95C JUMPI PUSH2 0x95B PUSH2 0x902 JUMP JUMPDEST JUMPDEST POP SWAP2 SWAP1 POP JUMP JUMPDEST PUSH1 0x0 DUP2 SWAP1 POP DUP2 PUSH1 0x0 MSTORE PUSH1 0x20 PUSH1 0x0 KECCAK256 SWAP1 POP SWAP2 SWAP1 POP JUMP JUMPDEST PUSH1 0x0 DUP2 SLOAD PUSH2 0x984 DUP2 PUSH2 0x931 JUMP JUMPDEST PUSH2 0x98E DUP2 DUP7 PUSH2 0x7B3 JUMP JUMPDEST SWAP5 POP PUSH1 0x1 DUP3 AND PUSH1 0x0 DUP2 EQ PUSH2 0x9A9 JUMPI PUSH1 0x1 DUP2 EQ PUSH2 0x9BA JUMPI PUSH2 0x9ED JUMP JUMPDEST PUSH1 0xFF NOT DUP4 AND DUP7 MSTORE DUP2 DUP7 ADD SWAP4 POP PUSH2 0x9ED JUMP JUMPDEST PUSH2 0x9C3 DUP6 PUSH2 0x962 JUMP JUMPDEST PUSH1 0x0 JUMPDEST DUP4 DUP2 LT ISZERO PUSH2 0x9E5 JUMPI DUP2 SLOAD DUP2 DUP10 ADD MSTORE PUSH1 0x1 DUP3 ADD SWAP2 POP PUSH1 0x20 DUP2 ADD SWAP1 POP PUSH2 0x9C6 JUMP JUMPDEST DUP4 DUP9 ADD SWAP6 POP POP POP JUMPDEST POP POP POP SWAP3 SWAP2 POP POP JUMP JUMPDEST PUSH1 0x0 PUSH2 0xA02 DUP3 DUP5 PUSH2 0x977 JUMP JUMPDEST SWAP2 POP DUP2 SWAP1 POP SWAP3 SWAP2 POP POP JUMP JUMPDEST PUSH32 0x7961206573746120656E206C61206C6973746100000000000000000000000000 PUSH1 0x0 DUP3 ADD MSTORE POP JUMP JUMPDEST PUSH1 0x0 PUSH2 0xA43 PUSH1 0x13 DUP4 PUSH2 0x623 JUMP JUMPDEST SWAP2 POP PUSH2 0xA4E DUP3 PUSH2 0xA0D JUMP JUMPDEST PUSH1 0x20 DUP3 ADD SWAP1 POP SWAP2 SWAP1 POP JUMP JUMPDEST PUSH1 0x0 PUSH1 0x20 DUP3 ADD SWAP1 POP DUP2 DUP2 SUB PUSH1 0x0 DUP4 ADD MSTORE PUSH2 0xA72 DUP2 PUSH2 0xA36 JUMP JUMPDEST SWAP1 POP SWAP2 SWAP1 POP JUMP JUMPDEST PUSH1 0x0 PUSH2 0xA84 DUP3 PUSH2 0x3FC JUMP JUMPDEST SWAP2 POP PUSH32 0xFFFFFFFFFFFFFFFFFFFFFFFFFFFFFFFFFFFFFFFFFFFFFFFFFFFFFFFFFFFFFFFF DUP3 SUB PUSH2 0xAB6 JUMPI PUSH2 0xAB5 PUSH2 0x6C2 JUMP JUMPDEST JUMPDEST PUSH1 0x1 DUP3 ADD SWAP1 POP SWAP2 SWAP1 POP JUMP INVALID LOG2 PUSH5 0x6970667358 0x22 SLT KECCAK256 RETURN ISZERO 0xD3 PUSH17 0x3B0A44E9A06B8F9668930466E78529D6C2 0xC9 0x1E CREATE2 GASLIMIT PUSH7 0xDBF3C70124BC64 PUSH20 0x6F6C634300080D00330000000000000000000000 "
		},
		"gasEstimates": {
			"creation": {
				"codeDepositCost": "561400",
				"executionCost": "10606",
				"totalCost": "572006"
			},
			"external": {
				"cartera()": "2429",
				"nuevoNombre(string)": "infinite",
				"pagar(uint256)": "infinite",
				"password(string)": "infinite"
			}
		},
		"methodIdentifiers": {
			"cartera()": "694b9d34",
			"nuevoNombre(string)": "f8f552b4",
			"pagar(uint256)": "3aa6d208",
			"password(string)": "71d3f37a"
		}
	},
	"abi": [
		{
			"inputs": [],
			"name": "cartera",
			"outputs": [
				{
					"internalType": "uint256",
					"name": "",
					"type": "uint256"
				}
			],
			"stateMutability": "view",
			"type": "function"
		},
		{
			"inputs": [
				{
					"internalType": "string",
					"name": "_nombre",
					"type": "string"
				}
			],
			"name": "nuevoNombre",
			"outputs": [],
			"stateMutability": "nonpayable",
			"type": "function"
		},
		{
			"inputs": [
				{
					"internalType": "uint256",
					"name": "_cantidad",
					"type": "uint256"
				}
			],
			"name": "pagar",
			"outputs": [
				{
					"internalType": "uint256",
					"name": "",
					"type": "uint256"
				}
			],
			"stateMutability": "nonpayable",
			"type": "function"
		},
		{
			"inputs": [
				{
					"internalType": "string",
					"name": "_password",
					"type": "string"
				}
			],
			"name": "password",
			"outputs": [
				{
					"internalType": "string",
					"name": "",
					"type": "string"
				}
			],
			"stateMutability": "pure",
			"type": "function"
		}
	]
}