{
	"Fabrica de smart contracts/factory.sol": {
		"SmartContract1": {
			"abi": [
				{
					"inputs": [],
					"name": "Factory",
					"outputs": [],
					"stateMutability": "nonpayable",
					"type": "function"
				},
				{
					"inputs": [
						{
							"internalType": "address",
							"name": "",
							"type": "address"
						}
					],
					"name": "MiContratoPersonal",
					"outputs": [
						{
							"internalType": "address",
							"name": "",
							"type": "address"
						}
					],
					"stateMutability": "view",
					"type": "function"
				}
			],
			"devdoc": {
				"methods": {}
			},
			"evm": {
				"assembly": "    /* \"Fabrica de smart contracts/factory.sol\":67:407  contract SmartContract1 {... */\n  mstore(0x40, 0x80)\n  callvalue\n    /* \"--CODEGEN--\":5:14   */\n  dup1\n    /* \"--CODEGEN--\":2:4   */\n  iszero\n  tag_1\n  jumpi\n    /* \"--CODEGEN--\":27:28   */\n  0x00\n    /* \"--CODEGEN--\":24:25   */\n  dup1\n    /* \"--CODEGEN--\":17:29   */\n  revert\n    /* \"--CODEGEN--\":2:4   */\ntag_1:\n    /* \"Fabrica de smart contracts/factory.sol\":67:407  contract SmartContract1 {... */\n  pop\n  dataSize(sub_0)\n  dup1\n  dataOffset(sub_0)\n  0x00\n  codecopy\n  0x00\n  return\nstop\n\nsub_0: assembly {\n        /* \"Fabrica de smart contracts/factory.sol\":67:407  contract SmartContract1 {... */\n      mstore(0x40, 0x80)\n      callvalue\n        /* \"--CODEGEN--\":5:14   */\n      dup1\n        /* \"--CODEGEN--\":2:4   */\n      iszero\n      tag_1\n      jumpi\n        /* \"--CODEGEN--\":27:28   */\n      0x00\n        /* \"--CODEGEN--\":24:25   */\n      dup1\n        /* \"--CODEGEN--\":17:29   */\n      revert\n        /* \"--CODEGEN--\":2:4   */\n    tag_1:\n        /* \"Fabrica de smart contracts/factory.sol\":67:407  contract SmartContract1 {... */\n      pop\n      jumpi(tag_2, lt(calldatasize, 0x04))\n      shr(0xe0, calldataload(0x00))\n      dup1\n      0x1b03b2c9\n      eq\n      tag_3\n      jumpi\n      dup1\n      0xc83dd231\n      eq\n      tag_4\n      jumpi\n    tag_2:\n        /* \"--CODEGEN--\":12:13   */\n      0x00\n        /* \"--CODEGEN--\":9:10   */\n      dup1\n        /* \"--CODEGEN--\":2:14   */\n      revert\n        /* \"Fabrica de smart contracts/factory.sol\":154:208  mapping (address => address) public MiContratoPersonal */\n    tag_3:\n      tag_5\n      0x04\n      dup1\n      calldatasize\n      sub\n      dup2\n      add\n      swap1\n      tag_6\n      swap2\n      swap1\n      jump(tag_7)\n    tag_6:\n      tag_8\n      jump\t// in\n    tag_5:\n      mload(0x40)\n      tag_9\n      swap2\n      swap1\n      jump(tag_10)\n    tag_9:\n      mload(0x40)\n      dup1\n      swap2\n      sub\n      swap1\n      return\n        /* \"Fabrica de smart contracts/factory.sol\":219:405  function Factory() public {... */\n    tag_4:\n      tag_11\n      tag_12\n      jump\t// in\n    tag_11:\n      stop\n        /* \"Fabrica de smart contracts/factory.sol\":154:208  mapping (address => address) public MiContratoPersonal */\n    tag_8:\n      mstore(0x20, 0x00)\n      dup1\n      0x00\n      mstore\n      keccak256(0x00, 0x40)\n      0x00\n      swap2\n      pop\n      sload\n      swap1\n      0x0100\n      exp\n      swap1\n      div\n      0xffffffffffffffffffffffffffffffffffffffff\n      and\n      dup2\n      jump\t// out\n        /* \"Fabrica de smart contracts/factory.sol\":219:405  function Factory() public {... */\n    tag_12:\n        /* \"Fabrica de smart contracts/factory.sol\":255:287  address direccion_nuevo_contrato */\n      0x00\n        /* \"Fabrica de smart contracts/factory.sol\":318:328  msg.sender */\n      caller\n        /* \"Fabrica de smart contracts/factory.sol\":299:329  new SmartContract2(msg.sender) */\n      mload(0x40)\n      tag_14\n      swap1\n      tag_15\n      jump\t// in\n    tag_14:\n      tag_16\n      swap2\n      swap1\n      jump(tag_17)\n    tag_16:\n      mload(0x40)\n      dup1\n      swap2\n      sub\n      swap1\n      0x00\n      create\n      dup1\n      iszero\n        /* \"--CODEGEN--\":8:17   */\n      dup1\n        /* \"--CODEGEN--\":5:7   */\n      iszero\n      tag_18\n      jumpi\n        /* \"--CODEGEN--\":45:61   */\n      returndatasize\n        /* \"--CODEGEN--\":42:43   */\n      0x00\n        /* \"--CODEGEN--\":39:40   */\n      dup1\n        /* \"--CODEGEN--\":24:62   */\n      returndatacopy\n        /* \"--CODEGEN--\":77:93   */\n      returndatasize\n        /* \"--CODEGEN--\":74:75   */\n      0x00\n        /* \"--CODEGEN--\":67:94   */\n      revert\n        /* \"--CODEGEN--\":5:7   */\n    tag_18:\n        /* \"Fabrica de smart contracts/factory.sol\":299:329  new SmartContract2(msg.sender) */\n      pop\n        /* \"Fabrica de smart contracts/factory.sol\":255:330  address direccion_nuevo_contrato = address (new SmartContract2(msg.sender)) */\n      swap1\n      pop\n        /* \"Fabrica de smart contracts/factory.sol\":374:398  direccion_nuevo_contrato */\n      dup1\n        /* \"Fabrica de smart contracts/factory.sol\":341:359  MiContratoPersonal */\n      0x00\n        /* \"Fabrica de smart contracts/factory.sol\":341:371  MiContratoPersonal[msg.sender] */\n      dup1\n        /* \"Fabrica de smart contracts/factory.sol\":360:370  msg.sender */\n      caller\n        /* \"Fabrica de smart contracts/factory.sol\":341:371  MiContratoPersonal[msg.sender] */\n      0xffffffffffffffffffffffffffffffffffffffff\n      and\n      0xffffffffffffffffffffffffffffffffffffffff\n      and\n      dup2\n      mstore\n      0x20\n      add\n      swap1\n      dup2\n      mstore\n      0x20\n      add\n      0x00\n      keccak256\n      0x00\n        /* \"Fabrica de smart contracts/factory.sol\":341:398  MiContratoPersonal[msg.sender] = direccion_nuevo_contrato */\n      0x0100\n      exp\n      dup2\n      sload\n      dup2\n      0xffffffffffffffffffffffffffffffffffffffff\n      mul\n      not\n      and\n      swap1\n      dup4\n      0xffffffffffffffffffffffffffffffffffffffff\n      and\n      mul\n      or\n      swap1\n      sstore\n      pop\n        /* \"Fabrica de smart contracts/factory.sol\":219:405  function Factory() public {... */\n      pop\n      jump\t// out\n        /* \"Fabrica de smart contracts/factory.sol\":67:407  contract SmartContract1 {... */\n    tag_15:\n      dataSize(sub_0)\n      dup1\n      dataOffset(sub_0)\n      dup4\n      codecopy\n      add\n      swap1\n      jump\t// out\n        /* \"--CODEGEN--\":5:135   */\n    tag_20:\n      0x00\n        /* \"--CODEGEN--\":85:91   */\n      dup2\n        /* \"--CODEGEN--\":72:92   */\n      calldataload\n        /* \"--CODEGEN--\":63:92   */\n      swap1\n      pop\n        /* \"--CODEGEN--\":97:130   */\n      tag_22\n        /* \"--CODEGEN--\":124:129   */\n      dup2\n        /* \"--CODEGEN--\":97:130   */\n      jump(tag_23)\n    tag_22:\n        /* \"--CODEGEN--\":57:135   */\n      swap3\n      swap2\n      pop\n      pop\n      jump\n        /* \"--CODEGEN--\":142:383   */\n    tag_7:\n      0x00\n        /* \"--CODEGEN--\":246:248   */\n      0x20\n        /* \"--CODEGEN--\":234:243   */\n      dup3\n        /* \"--CODEGEN--\":225:232   */\n      dup5\n        /* \"--CODEGEN--\":221:244   */\n      sub\n        /* \"--CODEGEN--\":217:249   */\n      slt\n        /* \"--CODEGEN--\":214:216   */\n      iszero\n      tag_25\n      jumpi\n        /* \"--CODEGEN--\":262:263   */\n      0x00\n        /* \"--CODEGEN--\":259:260   */\n      dup1\n        /* \"--CODEGEN--\":252:264   */\n      revert\n        /* \"--CODEGEN--\":214:216   */\n    tag_25:\n        /* \"--CODEGEN--\":297:298   */\n      0x00\n        /* \"--CODEGEN--\":314:367   */\n      tag_26\n        /* \"--CODEGEN--\":359:366   */\n      dup5\n        /* \"--CODEGEN--\":350:356   */\n      dup3\n        /* \"--CODEGEN--\":339:348   */\n      dup6\n        /* \"--CODEGEN--\":335:357   */\n      add\n        /* \"--CODEGEN--\":314:367   */\n      jump(tag_20)\n    tag_26:\n        /* \"--CODEGEN--\":304:367   */\n      swap2\n      pop\n        /* \"--CODEGEN--\":276:373   */\n      pop\n        /* \"--CODEGEN--\":208:383   */\n      swap3\n      swap2\n      pop\n      pop\n      jump\n        /* \"--CODEGEN--\":390:532   */\n    tag_27:\n        /* \"--CODEGEN--\":481:526   */\n      tag_29\n        /* \"--CODEGEN--\":520:525   */\n      dup2\n        /* \"--CODEGEN--\":481:526   */\n      jump(tag_30)\n    tag_29:\n        /* \"--CODEGEN--\":476:479   */\n      dup3\n        /* \"--CODEGEN--\":469:527   */\n      mstore\n        /* \"--CODEGEN--\":463:532   */\n      pop\n      pop\n      jump\n        /* \"--CODEGEN--\":539:652   */\n    tag_31:\n        /* \"--CODEGEN--\":622:646   */\n      tag_33\n        /* \"--CODEGEN--\":640:645   */\n      dup2\n        /* \"--CODEGEN--\":622:646   */\n      jump(tag_34)\n    tag_33:\n        /* \"--CODEGEN--\":617:620   */\n      dup3\n        /* \"--CODEGEN--\":610:647   */\n      mstore\n        /* \"--CODEGEN--\":604:652   */\n      pop\n      pop\n      jump\n        /* \"--CODEGEN--\":659:872   */\n    tag_10:\n      0x00\n        /* \"--CODEGEN--\":777:779   */\n      0x20\n        /* \"--CODEGEN--\":766:775   */\n      dup3\n        /* \"--CODEGEN--\":762:780   */\n      add\n        /* \"--CODEGEN--\":754:780   */\n      swap1\n      pop\n        /* \"--CODEGEN--\":791:862   */\n      tag_36\n        /* \"--CODEGEN--\":859:860   */\n      0x00\n        /* \"--CODEGEN--\":848:857   */\n      dup4\n        /* \"--CODEGEN--\":844:861   */\n      add\n        /* \"--CODEGEN--\":835:841   */\n      dup5\n        /* \"--CODEGEN--\":791:862   */\n      jump(tag_31)\n    tag_36:\n        /* \"--CODEGEN--\":748:872   */\n      swap3\n      swap2\n      pop\n      pop\n      jump\n        /* \"--CODEGEN--\":879:1108   */\n    tag_17:\n      0x00\n        /* \"--CODEGEN--\":1005:1007   */\n      0x20\n        /* \"--CODEGEN--\":994:1003   */\n      dup3\n        /* \"--CODEGEN--\":990:1008   */\n      add\n        /* \"--CODEGEN--\":982:1008   */\n      swap1\n      pop\n        /* \"--CODEGEN--\":1019:1098   */\n      tag_38\n        /* \"--CODEGEN--\":1095:1096   */\n      0x00\n        /* \"--CODEGEN--\":1084:1093   */\n      dup4\n        /* \"--CODEGEN--\":1080:1097   */\n      add\n        /* \"--CODEGEN--\":1071:1077   */\n      dup5\n        /* \"--CODEGEN--\":1019:1098   */\n      jump(tag_27)\n    tag_38:\n        /* \"--CODEGEN--\":976:1108   */\n      swap3\n      swap2\n      pop\n      pop\n      jump\n        /* \"--CODEGEN--\":1115:1206   */\n    tag_34:\n      0x00\n        /* \"--CODEGEN--\":1177:1201   */\n      tag_40\n        /* \"--CODEGEN--\":1195:1200   */\n      dup3\n        /* \"--CODEGEN--\":1177:1201   */\n      jump(tag_41)\n    tag_40:\n        /* \"--CODEGEN--\":1166:1201   */\n      swap1\n      pop\n        /* \"--CODEGEN--\":1160:1206   */\n      swap2\n      swap1\n      pop\n      jump\n        /* \"--CODEGEN--\":1213:1334   */\n    tag_41:\n      0x00\n        /* \"--CODEGEN--\":1286:1328   */\n      0xffffffffffffffffffffffffffffffffffffffff\n        /* \"--CODEGEN--\":1279:1284   */\n      dup3\n        /* \"--CODEGEN--\":1275:1329   */\n      and\n        /* \"--CODEGEN--\":1264:1329   */\n      swap1\n      pop\n        /* \"--CODEGEN--\":1258:1334   */\n      swap2\n      swap1\n      pop\n      jump\n        /* \"--CODEGEN--\":1341:1470   */\n    tag_30:\n      0x00\n        /* \"--CODEGEN--\":1428:1465   */\n      tag_44\n        /* \"--CODEGEN--\":1459:1464   */\n      dup3\n        /* \"--CODEGEN--\":1428:1465   */\n      jump(tag_45)\n    tag_44:\n        /* \"--CODEGEN--\":1415:1465   */\n      swap1\n      pop\n        /* \"--CODEGEN--\":1409:1470   */\n      swap2\n      swap1\n      pop\n      jump\n        /* \"--CODEGEN--\":1477:1598   */\n    tag_45:\n      0x00\n        /* \"--CODEGEN--\":1556:1593   */\n      tag_47\n        /* \"--CODEGEN--\":1587:1592   */\n      dup3\n        /* \"--CODEGEN--\":1556:1593   */\n      jump(tag_48)\n    tag_47:\n        /* \"--CODEGEN--\":1543:1593   */\n      swap1\n      pop\n        /* \"--CODEGEN--\":1537:1598   */\n      swap2\n      swap1\n      pop\n      jump\n        /* \"--CODEGEN--\":1605:1713   */\n    tag_48:\n      0x00\n        /* \"--CODEGEN--\":1684:1708   */\n      tag_50\n        /* \"--CODEGEN--\":1702:1707   */\n      dup3\n        /* \"--CODEGEN--\":1684:1708   */\n      jump(tag_41)\n    tag_50:\n        /* \"--CODEGEN--\":1671:1708   */\n      swap1\n      pop\n        /* \"--CODEGEN--\":1665:1713   */\n      swap2\n      swap1\n      pop\n      jump\n        /* \"--CODEGEN--\":1720:1837   */\n    tag_23:\n        /* \"--CODEGEN--\":1789:1813   */\n      tag_52\n        /* \"--CODEGEN--\":1807:1812   */\n      dup2\n        /* \"--CODEGEN--\":1789:1813   */\n      jump(tag_34)\n    tag_52:\n        /* \"--CODEGEN--\":1782:1787   */\n      dup2\n        /* \"--CODEGEN--\":1779:1814   */\n      eq\n        /* \"--CODEGEN--\":1769:1771   */\n      tag_53\n      jumpi\n        /* \"--CODEGEN--\":1828:1829   */\n      0x00\n        /* \"--CODEGEN--\":1825:1826   */\n      dup1\n        /* \"--CODEGEN--\":1818:1830   */\n      revert\n        /* \"--CODEGEN--\":1769:1771   */\n    tag_53:\n        /* \"--CODEGEN--\":1763:1837   */\n      pop\n      jump\n    stop\n\n    sub_0: assembly {\n            /* \"Fabrica de smart contracts/factory.sol\":409:553  contract SmartContract2 {... */\n          mstore(0x40, 0x80)\n            /* \"Fabrica de smart contracts/factory.sol\":471:546  constructor (address _direccion) public {... */\n          callvalue\n            /* \"--CODEGEN--\":5:14   */\n          dup1\n            /* \"--CODEGEN--\":2:4   */\n          iszero\n          tag_1\n          jumpi\n            /* \"--CODEGEN--\":27:28   */\n          0x00\n            /* \"--CODEGEN--\":24:25   */\n          dup1\n            /* \"--CODEGEN--\":17:29   */\n          revert\n            /* \"--CODEGEN--\":2:4   */\n        tag_1:\n            /* \"Fabrica de smart contracts/factory.sol\":471:546  constructor (address _direccion) public {... */\n          pop\n          mload(0x40)\n          sub(codesize, bytecodeSize)\n          dup1\n          bytecodeSize\n          dup4\n          codecopy\n          dup2\n          dup2\n          add\n          0x40\n          mstore\n          dup2\n          add\n          swap1\n          tag_2\n          swap2\n          swap1\n          jump(tag_3)\n        tag_2:\n            /* \"Fabrica de smart contracts/factory.sol\":529:539  _direccion */\n          dup1\n            /* \"Fabrica de smart contracts/factory.sol\":521:526  owner */\n          0x00\n          dup1\n            /* \"Fabrica de smart contracts/factory.sol\":521:539  owner = _direccion */\n          0x0100\n          exp\n          dup2\n          sload\n          dup2\n          0xffffffffffffffffffffffffffffffffffffffff\n          mul\n          not\n          and\n          swap1\n          dup4\n          0xffffffffffffffffffffffffffffffffffffffff\n          and\n          mul\n          or\n          swap1\n          sstore\n          pop\n            /* \"Fabrica de smart contracts/factory.sol\":471:546  constructor (address _direccion) public {... */\n          pop\n            /* \"Fabrica de smart contracts/factory.sol\":409:553  contract SmartContract2 {... */\n          jump(tag_6)\n            /* \"--CODEGEN--\":5:139   */\n        tag_8:\n          0x00\n            /* \"--CODEGEN--\":89:95   */\n          dup2\n            /* \"--CODEGEN--\":83:96   */\n          mload\n            /* \"--CODEGEN--\":74:96   */\n          swap1\n          pop\n            /* \"--CODEGEN--\":101:134   */\n          tag_10\n            /* \"--CODEGEN--\":128:133   */\n          dup2\n            /* \"--CODEGEN--\":101:134   */\n          jump(tag_11)\n        tag_10:\n            /* \"--CODEGEN--\":68:139   */\n          swap3\n          swap2\n          pop\n          pop\n          jump\n            /* \"--CODEGEN--\":146:409   */\n        tag_3:\n          0x00\n            /* \"--CODEGEN--\":261:263   */\n          0x20\n            /* \"--CODEGEN--\":249:258   */\n          dup3\n            /* \"--CODEGEN--\":240:247   */\n          dup5\n            /* \"--CODEGEN--\":236:259   */\n          sub\n            /* \"--CODEGEN--\":232:264   */\n          slt\n            /* \"--CODEGEN--\":229:231   */\n          iszero\n          tag_13\n          jumpi\n            /* \"--CODEGEN--\":277:278   */\n          0x00\n            /* \"--CODEGEN--\":274:275   */\n          dup1\n            /* \"--CODEGEN--\":267:279   */\n          revert\n            /* \"--CODEGEN--\":229:231   */\n        tag_13:\n            /* \"--CODEGEN--\":312:313   */\n          0x00\n            /* \"--CODEGEN--\":329:393   */\n          tag_14\n            /* \"--CODEGEN--\":385:392   */\n          dup5\n            /* \"--CODEGEN--\":376:382   */\n          dup3\n            /* \"--CODEGEN--\":365:374   */\n          dup6\n            /* \"--CODEGEN--\":361:383   */\n          add\n            /* \"--CODEGEN--\":329:393   */\n          jump(tag_8)\n        tag_14:\n            /* \"--CODEGEN--\":319:393   */\n          swap2\n          pop\n            /* \"--CODEGEN--\":291:399   */\n          pop\n            /* \"--CODEGEN--\":223:409   */\n          swap3\n          swap2\n          pop\n          pop\n          jump\n            /* \"--CODEGEN--\":416:507   */\n        tag_15:\n          0x00\n            /* \"--CODEGEN--\":478:502   */\n          tag_17\n            /* \"--CODEGEN--\":496:501   */\n          dup3\n            /* \"--CODEGEN--\":478:502   */\n          jump(tag_18)\n        tag_17:\n            /* \"--CODEGEN--\":467:502   */\n          swap1\n          pop\n            /* \"--CODEGEN--\":461:507   */\n          swap2\n          swap1\n          pop\n          jump\n            /* \"--CODEGEN--\":514:635   */\n        tag_18:\n          0x00\n            /* \"--CODEGEN--\":587:629   */\n          0xffffffffffffffffffffffffffffffffffffffff\n            /* \"--CODEGEN--\":580:585   */\n          dup3\n            /* \"--CODEGEN--\":576:630   */\n          and\n            /* \"--CODEGEN--\":565:630   */\n          swap1\n          pop\n            /* \"--CODEGEN--\":559:635   */\n          swap2\n          swap1\n          pop\n          jump\n            /* \"--CODEGEN--\":642:759   */\n        tag_11:\n            /* \"--CODEGEN--\":711:735   */\n          tag_21\n            /* \"--CODEGEN--\":729:734   */\n          dup2\n            /* \"--CODEGEN--\":711:735   */\n          jump(tag_15)\n        tag_21:\n            /* \"--CODEGEN--\":704:709   */\n          dup2\n            /* \"--CODEGEN--\":701:736   */\n          eq\n            /* \"--CODEGEN--\":691:693   */\n          tag_22\n          jumpi\n            /* \"--CODEGEN--\":750:751   */\n          0x00\n            /* \"--CODEGEN--\":747:748   */\n          dup1\n            /* \"--CODEGEN--\":740:752   */\n          revert\n            /* \"--CODEGEN--\":691:693   */\n        tag_22:\n            /* \"--CODEGEN--\":685:759   */\n          pop\n          jump\n            /* \"Fabrica de smart contracts/factory.sol\":409:553  contract SmartContract2 {... */\n        tag_6:\n          dataSize(sub_0)\n          dup1\n          dataOffset(sub_0)\n          0x00\n          codecopy\n          0x00\n          return\n        stop\n\n        sub_0: assembly {\n                /* \"Fabrica de smart contracts/factory.sol\":409:553  contract SmartContract2 {... */\n              mstore(0x40, 0x80)\n              callvalue\n                /* \"--CODEGEN--\":5:14   */\n              dup1\n                /* \"--CODEGEN--\":2:4   */\n              iszero\n              tag_1\n              jumpi\n                /* \"--CODEGEN--\":27:28   */\n              0x00\n                /* \"--CODEGEN--\":24:25   */\n              dup1\n                /* \"--CODEGEN--\":17:29   */\n              revert\n                /* \"--CODEGEN--\":2:4   */\n            tag_1:\n                /* \"Fabrica de smart contracts/factory.sol\":409:553  contract SmartContract2 {... */\n              pop\n              jumpi(tag_2, lt(calldatasize, 0x04))\n              shr(0xe0, calldataload(0x00))\n              dup1\n              0x8da5cb5b\n              eq\n              tag_3\n              jumpi\n            tag_2:\n                /* \"--CODEGEN--\":12:13   */\n              0x00\n                /* \"--CODEGEN--\":9:10   */\n              dup1\n                /* \"--CODEGEN--\":2:14   */\n              revert\n                /* \"Fabrica de smart contracts/factory.sol\":444:464  address public owner */\n            tag_3:\n              tag_4\n              tag_5\n              jump\t// in\n            tag_4:\n              mload(0x40)\n              tag_6\n              swap2\n              swap1\n              jump(tag_7)\n            tag_6:\n              mload(0x40)\n              dup1\n              swap2\n              sub\n              swap1\n              return\n            tag_5:\n              0x00\n              dup1\n              swap1\n              sload\n              swap1\n              0x0100\n              exp\n              swap1\n              div\n              0xffffffffffffffffffffffffffffffffffffffff\n              and\n              dup2\n              jump\t// out\n                /* \"--CODEGEN--\":5:118   */\n            tag_9:\n                /* \"--CODEGEN--\":88:112   */\n              tag_11\n                /* \"--CODEGEN--\":106:111   */\n              dup2\n                /* \"--CODEGEN--\":88:112   */\n              jump(tag_12)\n            tag_11:\n                /* \"--CODEGEN--\":83:86   */\n              dup3\n                /* \"--CODEGEN--\":76:113   */\n              mstore\n                /* \"--CODEGEN--\":70:118   */\n              pop\n              pop\n              jump\n                /* \"--CODEGEN--\":125:338   */\n            tag_7:\n              0x00\n                /* \"--CODEGEN--\":243:245   */\n              0x20\n                /* \"--CODEGEN--\":232:241   */\n              dup3\n                /* \"--CODEGEN--\":228:246   */\n              add\n                /* \"--CODEGEN--\":220:246   */\n              swap1\n              pop\n                /* \"--CODEGEN--\":257:328   */\n              tag_14\n                /* \"--CODEGEN--\":325:326   */\n              0x00\n                /* \"--CODEGEN--\":314:323   */\n              dup4\n                /* \"--CODEGEN--\":310:327   */\n              add\n                /* \"--CODEGEN--\":301:307   */\n              dup5\n                /* \"--CODEGEN--\":257:328   */\n              jump(tag_9)\n            tag_14:\n                /* \"--CODEGEN--\":214:338   */\n              swap3\n              swap2\n              pop\n              pop\n              jump\n                /* \"--CODEGEN--\":345:436   */\n            tag_12:\n              0x00\n                /* \"--CODEGEN--\":407:431   */\n              tag_16\n                /* \"--CODEGEN--\":425:430   */\n              dup3\n                /* \"--CODEGEN--\":407:431   */\n              jump(tag_17)\n            tag_16:\n                /* \"--CODEGEN--\":396:431   */\n              swap1\n              pop\n                /* \"--CODEGEN--\":390:436   */\n              swap2\n              swap1\n              pop\n              jump\n                /* \"--CODEGEN--\":443:564   */\n            tag_17:\n              0x00\n                /* \"--CODEGEN--\":516:558   */\n              0xffffffffffffffffffffffffffffffffffffffff\n                /* \"--CODEGEN--\":509:514   */\n              dup3\n                /* \"--CODEGEN--\":505:559   */\n              and\n                /* \"--CODEGEN--\":494:559   */\n              swap1\n              pop\n                /* \"--CODEGEN--\":488:564   */\n              swap2\n              swap1\n              pop\n              jump\n\n            auxdata: 0xa26469706673582212203aa82b72afa40e244414f649bbbf7fd3634fb3f4b1a67de33a4b795e606a624364736f6c63430006050033\n        }\n    }\n\n    auxdata: 0xa264697066735822122072454ab12c13d8785a63ecc33b93d4cf74329737cb8f573598456a119985581764736f6c63430006050033\n}\n",
				"bytecode": {
					"linkReferences": {},
					"object": "608060405234801561001057600080fd5b506104b9806100206000396000f3fe608060405234801561001057600080fd5b50600436106100365760003560e01c80631b03b2c91461003b578063c83dd2311461006b575b600080fd5b61005560048036038101906100509190610182565b610075565b60405161006291906101c9565b60405180910390f35b6100736100a8565b005b60006020528060005260406000206000915054906101000a900473ffffffffffffffffffffffffffffffffffffffff1681565b6000336040516100b790610160565b6100c191906101e4565b604051809103906000f0801580156100dd573d6000803e3d6000fd5b509050806000803373ffffffffffffffffffffffffffffffffffffffff1673ffffffffffffffffffffffffffffffffffffffff16815260200190815260200160002060006101000a81548173ffffffffffffffffffffffffffffffffffffffff021916908373ffffffffffffffffffffffffffffffffffffffff16021790555050565b6102058061027f83390190565b60008135905061017c81610267565b92915050565b60006020828403121561019457600080fd5b60006101a28482850161016d565b91505092915050565b6101b481610231565b82525050565b6101c3816101ff565b82525050565b60006020820190506101de60008301846101ba565b92915050565b60006020820190506101f960008301846101ab565b92915050565b600061020a82610211565b9050919050565b600073ffffffffffffffffffffffffffffffffffffffff82169050919050565b600061023c82610243565b9050919050565b600061024e82610255565b9050919050565b600061026082610211565b9050919050565b610270816101ff565b811461027b57600080fd5b5056fe608060405234801561001057600080fd5b506040516102053803806102058339818101604052810190610032919061008d565b806000806101000a81548173ffffffffffffffffffffffffffffffffffffffff021916908373ffffffffffffffffffffffffffffffffffffffff160217905550506100ff565b600081519050610087816100e8565b92915050565b60006020828403121561009f57600080fd5b60006100ad84828501610078565b91505092915050565b60006100c1826100c8565b9050919050565b600073ffffffffffffffffffffffffffffffffffffffff82169050919050565b6100f1816100b6565b81146100fc57600080fd5b50565b60f88061010d6000396000f3fe6080604052348015600f57600080fd5b506004361060285760003560e01c80638da5cb5b14602d575b600080fd5b60336047565b604051603e91906079565b60405180910390f35b6000809054906101000a900473ffffffffffffffffffffffffffffffffffffffff1681565b6073816092565b82525050565b6000602082019050608c6000830184606c565b92915050565b6000609b8260a2565b9050919050565b600073ffffffffffffffffffffffffffffffffffffffff8216905091905056fea26469706673582212203aa82b72afa40e244414f649bbbf7fd3634fb3f4b1a67de33a4b795e606a624364736f6c63430006050033a264697066735822122072454ab12c13d8785a63ecc33b93d4cf74329737cb8f573598456a119985581764736f6c63430006050033",
					"opcodes": "PUSH1 0x80 PUSH1 0x40 MSTORE CALLVALUE DUP1 ISZERO PUSH2 0x10 JUMPI PUSH1 0x0 DUP1 REVERT JUMPDEST POP PUSH2 0x4B9 DUP1 PUSH2 0x20 PUSH1 0x0 CODECOPY PUSH1 0x0 RETURN INVALID PUSH1 0x80 PUSH1 0x40 MSTORE CALLVALUE DUP1 ISZERO PUSH2 0x10 JUMPI PUSH1 0x0 DUP1 REVERT JUMPDEST POP PUSH1 0x4 CALLDATASIZE LT PUSH2 0x36 JUMPI PUSH1 0x0 CALLDATALOAD PUSH1 0xE0 SHR DUP1 PUSH4 0x1B03B2C9 EQ PUSH2 0x3B JUMPI DUP1 PUSH4 0xC83DD231 EQ PUSH2 0x6B JUMPI JUMPDEST PUSH1 0x0 DUP1 REVERT JUMPDEST PUSH2 0x55 PUSH1 0x4 DUP1 CALLDATASIZE SUB DUP2 ADD SWAP1 PUSH2 0x50 SWAP2 SWAP1 PUSH2 0x182 JUMP JUMPDEST PUSH2 0x75 JUMP JUMPDEST PUSH1 0x40 MLOAD PUSH2 0x62 SWAP2 SWAP1 PUSH2 0x1C9 JUMP JUMPDEST PUSH1 0x40 MLOAD DUP1 SWAP2 SUB SWAP1 RETURN JUMPDEST PUSH2 0x73 PUSH2 0xA8 JUMP JUMPDEST STOP JUMPDEST PUSH1 0x0 PUSH1 0x20 MSTORE DUP1 PUSH1 0x0 MSTORE PUSH1 0x40 PUSH1 0x0 KECCAK256 PUSH1 0x0 SWAP2 POP SLOAD SWAP1 PUSH2 0x100 EXP SWAP1 DIV PUSH20 0xFFFFFFFFFFFFFFFFFFFFFFFFFFFFFFFFFFFFFFFF AND DUP2 JUMP JUMPDEST PUSH1 0x0 CALLER PUSH1 0x40 MLOAD PUSH2 0xB7 SWAP1 PUSH2 0x160 JUMP JUMPDEST PUSH2 0xC1 SWAP2 SWAP1 PUSH2 0x1E4 JUMP JUMPDEST PUSH1 0x40 MLOAD DUP1 SWAP2 SUB SWAP1 PUSH1 0x0 CREATE DUP1 ISZERO DUP1 ISZERO PUSH2 0xDD JUMPI RETURNDATASIZE PUSH1 0x0 DUP1 RETURNDATACOPY RETURNDATASIZE PUSH1 0x0 REVERT JUMPDEST POP SWAP1 POP DUP1 PUSH1 0x0 DUP1 CALLER PUSH20 0xFFFFFFFFFFFFFFFFFFFFFFFFFFFFFFFFFFFFFFFF AND PUSH20 0xFFFFFFFFFFFFFFFFFFFFFFFFFFFFFFFFFFFFFFFF AND DUP2 MSTORE PUSH1 0x20 ADD SWAP1 DUP2 MSTORE PUSH1 0x20 ADD PUSH1 0x0 KECCAK256 PUSH1 0x0 PUSH2 0x100 EXP DUP2 SLOAD DUP2 PUSH20 0xFFFFFFFFFFFFFFFFFFFFFFFFFFFFFFFFFFFFFFFF MUL NOT AND SWAP1 DUP4 PUSH20 0xFFFFFFFFFFFFFFFFFFFFFFFFFFFFFFFFFFFFFFFF AND MUL OR SWAP1 SSTORE POP POP JUMP JUMPDEST PUSH2 0x205 DUP1 PUSH2 0x27F DUP4 CODECOPY ADD SWAP1 JUMP JUMPDEST PUSH1 0x0 DUP2 CALLDATALOAD SWAP1 POP PUSH2 0x17C DUP2 PUSH2 0x267 JUMP JUMPDEST SWAP3 SWAP2 POP POP JUMP JUMPDEST PUSH1 0x0 PUSH1 0x20 DUP3 DUP5 SUB SLT ISZERO PUSH2 0x194 JUMPI PUSH1 0x0 DUP1 REVERT JUMPDEST PUSH1 0x0 PUSH2 0x1A2 DUP5 DUP3 DUP6 ADD PUSH2 0x16D JUMP JUMPDEST SWAP2 POP POP SWAP3 SWAP2 POP POP JUMP JUMPDEST PUSH2 0x1B4 DUP2 PUSH2 0x231 JUMP JUMPDEST DUP3 MSTORE POP POP JUMP JUMPDEST PUSH2 0x1C3 DUP2 PUSH2 0x1FF JUMP JUMPDEST DUP3 MSTORE POP POP JUMP JUMPDEST PUSH1 0x0 PUSH1 0x20 DUP3 ADD SWAP1 POP PUSH2 0x1DE PUSH1 0x0 DUP4 ADD DUP5 PUSH2 0x1BA JUMP JUMPDEST SWAP3 SWAP2 POP POP JUMP JUMPDEST PUSH1 0x0 PUSH1 0x20 DUP3 ADD SWAP1 POP PUSH2 0x1F9 PUSH1 0x0 DUP4 ADD DUP5 PUSH2 0x1AB JUMP JUMPDEST SWAP3 SWAP2 POP POP JUMP JUMPDEST PUSH1 0x0 PUSH2 0x20A DUP3 PUSH2 0x211 JUMP JUMPDEST SWAP1 POP SWAP2 SWAP1 POP JUMP JUMPDEST PUSH1 0x0 PUSH20 0xFFFFFFFFFFFFFFFFFFFFFFFFFFFFFFFFFFFFFFFF DUP3 AND SWAP1 POP SWAP2 SWAP1 POP JUMP JUMPDEST PUSH1 0x0 PUSH2 0x23C DUP3 PUSH2 0x243 JUMP JUMPDEST SWAP1 POP SWAP2 SWAP1 POP JUMP JUMPDEST PUSH1 0x0 PUSH2 0x24E DUP3 PUSH2 0x255 JUMP JUMPDEST SWAP1 POP SWAP2 SWAP1 POP JUMP JUMPDEST PUSH1 0x0 PUSH2 0x260 DUP3 PUSH2 0x211 JUMP JUMPDEST SWAP1 POP SWAP2 SWAP1 POP JUMP JUMPDEST PUSH2 0x270 DUP2 PUSH2 0x1FF JUMP JUMPDEST DUP2 EQ PUSH2 0x27B JUMPI PUSH1 0x0 DUP1 REVERT JUMPDEST POP JUMP INVALID PUSH1 0x80 PUSH1 0x40 MSTORE CALLVALUE DUP1 ISZERO PUSH2 0x10 JUMPI PUSH1 0x0 DUP1 REVERT JUMPDEST POP PUSH1 0x40 MLOAD PUSH2 0x205 CODESIZE SUB DUP1 PUSH2 0x205 DUP4 CODECOPY DUP2 DUP2 ADD PUSH1 0x40 MSTORE DUP2 ADD SWAP1 PUSH2 0x32 SWAP2 SWAP1 PUSH2 0x8D JUMP JUMPDEST DUP1 PUSH1 0x0 DUP1 PUSH2 0x100 EXP DUP2 SLOAD DUP2 PUSH20 0xFFFFFFFFFFFFFFFFFFFFFFFFFFFFFFFFFFFFFFFF MUL NOT AND SWAP1 DUP4 PUSH20 0xFFFFFFFFFFFFFFFFFFFFFFFFFFFFFFFFFFFFFFFF AND MUL OR SWAP1 SSTORE POP POP PUSH2 0xFF JUMP JUMPDEST PUSH1 0x0 DUP2 MLOAD SWAP1 POP PUSH2 0x87 DUP2 PUSH2 0xE8 JUMP JUMPDEST SWAP3 SWAP2 POP POP JUMP JUMPDEST PUSH1 0x0 PUSH1 0x20 DUP3 DUP5 SUB SLT ISZERO PUSH2 0x9F JUMPI PUSH1 0x0 DUP1 REVERT JUMPDEST PUSH1 0x0 PUSH2 0xAD DUP5 DUP3 DUP6 ADD PUSH2 0x78 JUMP JUMPDEST SWAP2 POP POP SWAP3 SWAP2 POP POP JUMP JUMPDEST PUSH1 0x0 PUSH2 0xC1 DUP3 PUSH2 0xC8 JUMP JUMPDEST SWAP1 POP SWAP2 SWAP1 POP JUMP JUMPDEST PUSH1 0x0 PUSH20 0xFFFFFFFFFFFFFFFFFFFFFFFFFFFFFFFFFFFFFFFF DUP3 AND SWAP1 POP SWAP2 SWAP1 POP JUMP JUMPDEST PUSH2 0xF1 DUP2 PUSH2 0xB6 JUMP JUMPDEST DUP2 EQ PUSH2 0xFC JUMPI PUSH1 0x0 DUP1 REVERT JUMPDEST POP JUMP JUMPDEST PUSH1 0xF8 DUP1 PUSH2 0x10D PUSH1 0x0 CODECOPY PUSH1 0x0 RETURN INVALID PUSH1 0x80 PUSH1 0x40 MSTORE CALLVALUE DUP1 ISZERO PUSH1 0xF JUMPI PUSH1 0x0 DUP1 REVERT JUMPDEST POP PUSH1 0x4 CALLDATASIZE LT PUSH1 0x28 JUMPI PUSH1 0x0 CALLDATALOAD PUSH1 0xE0 SHR DUP1 PUSH4 0x8DA5CB5B EQ PUSH1 0x2D JUMPI JUMPDEST PUSH1 0x0 DUP1 REVERT JUMPDEST PUSH1 0x33 PUSH1 0x47 JUMP JUMPDEST PUSH1 0x40 MLOAD PUSH1 0x3E SWAP2 SWAP1 PUSH1 0x79 JUMP JUMPDEST PUSH1 0x40 MLOAD DUP1 SWAP2 SUB SWAP1 RETURN JUMPDEST PUSH1 0x0 DUP1 SWAP1 SLOAD SWAP1 PUSH2 0x100 EXP SWAP1 DIV PUSH20 0xFFFFFFFFFFFFFFFFFFFFFFFFFFFFFFFFFFFFFFFF AND DUP2 JUMP JUMPDEST PUSH1 0x73 DUP2 PUSH1 0x92 JUMP JUMPDEST DUP3 MSTORE POP POP JUMP JUMPDEST PUSH1 0x0 PUSH1 0x20 DUP3 ADD SWAP1 POP PUSH1 0x8C PUSH1 0x0 DUP4 ADD DUP5 PUSH1 0x6C JUMP JUMPDEST SWAP3 SWAP2 POP POP JUMP JUMPDEST PUSH1 0x0 PUSH1 0x9B DUP3 PUSH1 0xA2 JUMP JUMPDEST SWAP1 POP SWAP2 SWAP1 POP JUMP JUMPDEST PUSH1 0x0 PUSH20 0xFFFFFFFFFFFFFFFFFFFFFFFFFFFFFFFFFFFFFFFF DUP3 AND SWAP1 POP SWAP2 SWAP1 POP JUMP INVALID LOG2 PUSH5 0x6970667358 0x22 SLT KECCAK256 GASPRICE 0xA8 0x2B PUSH19 0xAFA40E244414F649BBBF7FD3634FB3F4B1A67D 0xE3 GASPRICE 0x4B PUSH26 0x5E606A624364736F6C63430006050033A2646970667358221220 PUSH19 0x454AB12C13D8785A63ECC33B93D4CF74329737 0xCB DUP16 JUMPI CALLDATALOAD SWAP9 GASLIMIT PUSH11 0x119985581764736F6C6343 STOP MOD SDIV STOP CALLER "
				},
				"gasEstimates": {
					"creation": {
						"codeDepositCost": "241800",
						"executionCost": "281",
						"totalCost": "242081"
					},
					"external": {
						"Factory()": "infinite",
						"MiContratoPersonal(address)": "infinite"
					}
				},
				"methodIdentifiers": {
					"Factory()": "c83dd231",
					"MiContratoPersonal(address)": "1b03b2c9"
				}
			},
			"storageLayout": {
				"storage": [
					{
						"astId": 6,
						"contract": "Fabrica de smart contracts/factory.sol:SmartContract1",
						"label": "MiContratoPersonal",
						"offset": 0,
						"slot": "0",
						"type": "t_mapping(t_address,t_address)"
					}
				],
				"types": {
					"t_address": {
						"encoding": "inplace",
						"label": "address",
						"numberOfBytes": "20"
					},
					"t_mapping(t_address,t_address)": {
						"encoding": "mapping",
						"key": "t_address",
						"label": "mapping(address => address)",
						"numberOfBytes": "32",
						"value": "t_address"
					}
				}
			},
			"userdoc": {
				"methods": {}
			}
		}
	}
}