{
	"Interactuando con varios smart contracts/Banco.sol": {
		"Banco": {
			"abi": [
				{
					"inputs": [
						{
							"internalType": "string",
							"name": "_nombre",
							"type": "string"
						}
					],
					"name": "nuevoCliente",
					"outputs": [],
					"stateMutability": "nonpayable",
					"type": "function"
				}
			],
			"devdoc": {
				"kind": "dev",
				"methods": {},
				"version": 1
			},
			"evm": {
				"assembly": "    /* \"Interactuando con varios smart contracts/Banco.sol\":0:294  contract Banco{\r... */\n  mstore(0x40, 0x80)\n  callvalue\n  dup1\n  iszero\n  tag_1\n  jumpi\n  0x00\n  dup1\n  revert\ntag_1:\n  pop\n  dataSize(sub_0)\n  dup1\n  dataOffset(sub_0)\n  0x00\n  codecopy\n  0x00\n  return\nstop\n\nsub_0: assembly {\n        /* \"Interactuando con varios smart contracts/Banco.sol\":0:294  contract Banco{\r... */\n      mstore(0x40, 0x80)\n      callvalue\n      dup1\n      iszero\n      tag_1\n      jumpi\n      0x00\n      dup1\n      revert\n    tag_1:\n      pop\n      jumpi(tag_2, lt(calldatasize, 0x04))\n      shr(0xe0, calldataload(0x00))\n      dup1\n      0xcc0ff645\n      eq\n      tag_3\n      jumpi\n    tag_2:\n      0x00\n      dup1\n      revert\n        /* \"Interactuando con varios smart contracts/Banco.sol\":171:291  function nuevoCliente(string memory _nombre) public {\r... */\n    tag_3:\n      tag_4\n      0x04\n      dup1\n      calldatasize\n      sub\n      dup2\n      add\n      swap1\n      tag_5\n      swap2\n      swap1\n      tag_6\n      jump\t// in\n    tag_5:\n      tag_7\n      jump\t// in\n    tag_4:\n      stop\n    tag_7:\n        /* \"Interactuando con varios smart contracts/Banco.sol\":254:283  Cliente(_nombre,msg.sender,0) */\n      mload(0x40)\n      dup1\n      0x60\n      add\n      0x40\n      mstore\n      dup1\n        /* \"Interactuando con varios smart contracts/Banco.sol\":262:269  _nombre */\n      dup3\n        /* \"Interactuando con varios smart contracts/Banco.sol\":254:283  Cliente(_nombre,msg.sender,0) */\n      dup2\n      mstore\n      0x20\n      add\n        /* \"Interactuando con varios smart contracts/Banco.sol\":270:280  msg.sender */\n      caller\n        /* \"Interactuando con varios smart contracts/Banco.sol\":254:283  Cliente(_nombre,msg.sender,0) */\n      0xffffffffffffffffffffffffffffffffffffffff\n      and\n      dup2\n      mstore\n      0x20\n      add\n        /* \"Interactuando con varios smart contracts/Banco.sol\":281:282  0 */\n      0x00\n        /* \"Interactuando con varios smart contracts/Banco.sol\":254:283  Cliente(_nombre,msg.sender,0) */\n      dup2\n      mstore\n      pop\n        /* \"Interactuando con varios smart contracts/Banco.sol\":234:242  clientes */\n      0x00\n        /* \"Interactuando con varios smart contracts/Banco.sol\":243:250  _nombre */\n      dup3\n        /* \"Interactuando con varios smart contracts/Banco.sol\":234:251  clientes[_nombre] */\n      mload(0x40)\n      tag_9\n      swap2\n      swap1\n      tag_10\n      jump\t// in\n    tag_9:\n      swap1\n      dup2\n      mstore\n      0x20\n      add\n      mload(0x40)\n      dup1\n      swap2\n      sub\n      swap1\n      keccak256\n        /* \"Interactuando con varios smart contracts/Banco.sol\":234:283  clientes[_nombre] = Cliente(_nombre,msg.sender,0) */\n      0x00\n      dup3\n      add\n      mload\n      dup2\n      0x00\n      add\n      swap1\n      dup1\n      mload\n      swap1\n      0x20\n      add\n      swap1\n      tag_11\n      swap3\n      swap2\n      swap1\n      tag_12\n      jump\t// in\n    tag_11:\n      pop\n      0x20\n      dup3\n      add\n      mload\n      dup2\n      0x01\n      add\n      exp(0x0100, 0x00)\n      dup2\n      sload\n      dup2\n      0xffffffffffffffffffffffffffffffffffffffff\n      mul\n      not\n      and\n      swap1\n      dup4\n      0xffffffffffffffffffffffffffffffffffffffff\n      and\n      mul\n      or\n      swap1\n      sstore\n      pop\n      0x40\n      dup3\n      add\n      mload\n      dup2\n      0x02\n      add\n      sstore\n      swap1\n      pop\n      pop\n        /* \"Interactuando con varios smart contracts/Banco.sol\":171:291  function nuevoCliente(string memory _nombre) public {\r... */\n      pop\n      jump\t// out\n    tag_12:\n      dup3\n      dup1\n      sload\n      tag_13\n      swap1\n      tag_14\n      jump\t// in\n    tag_13:\n      swap1\n      0x00\n      mstore\n      keccak256(0x00, 0x20)\n      swap1\n      0x1f\n      add\n      0x20\n      swap1\n      div\n      dup2\n      add\n      swap3\n      dup3\n      tag_16\n      jumpi\n      0x00\n      dup6\n      sstore\n      jump(tag_15)\n    tag_16:\n      dup3\n      0x1f\n      lt\n      tag_17\n      jumpi\n      dup1\n      mload\n      not(0xff)\n      and\n      dup4\n      dup1\n      add\n      or\n      dup6\n      sstore\n      jump(tag_15)\n    tag_17:\n      dup3\n      dup1\n      add\n      0x01\n      add\n      dup6\n      sstore\n      dup3\n      iszero\n      tag_15\n      jumpi\n      swap2\n      dup3\n      add\n    tag_18:\n      dup3\n      dup2\n      gt\n      iszero\n      tag_19\n      jumpi\n      dup3\n      mload\n      dup3\n      sstore\n      swap2\n      0x20\n      add\n      swap2\n      swap1\n      0x01\n      add\n      swap1\n      jump(tag_18)\n    tag_19:\n    tag_15:\n      pop\n      swap1\n      pop\n      tag_20\n      swap2\n      swap1\n      tag_21\n      jump\t// in\n    tag_20:\n      pop\n      swap1\n      jump\t// out\n    tag_21:\n    tag_22:\n      dup1\n      dup3\n      gt\n      iszero\n      tag_23\n      jumpi\n      0x00\n      dup2\n      0x00\n      swap1\n      sstore\n      pop\n      0x01\n      add\n      jump(tag_22)\n    tag_23:\n      pop\n      swap1\n      jump\t// out\n        /* \"#utility.yul\":7:419   */\n    tag_25:\n        /* \"#utility.yul\":85:90   */\n      0x00\n        /* \"#utility.yul\":110:176   */\n      tag_27\n        /* \"#utility.yul\":126:175   */\n      tag_28\n        /* \"#utility.yul\":168:174   */\n      dup5\n        /* \"#utility.yul\":126:175   */\n      tag_29\n      jump\t// in\n    tag_28:\n        /* \"#utility.yul\":110:176   */\n      tag_30\n      jump\t// in\n    tag_27:\n        /* \"#utility.yul\":101:176   */\n      swap1\n      pop\n        /* \"#utility.yul\":199:205   */\n      dup3\n        /* \"#utility.yul\":192:197   */\n      dup2\n        /* \"#utility.yul\":185:206   */\n      mstore\n        /* \"#utility.yul\":237:241   */\n      0x20\n        /* \"#utility.yul\":230:235   */\n      dup2\n        /* \"#utility.yul\":226:242   */\n      add\n        /* \"#utility.yul\":275:278   */\n      dup5\n        /* \"#utility.yul\":266:272   */\n      dup5\n        /* \"#utility.yul\":261:264   */\n      dup5\n        /* \"#utility.yul\":257:273   */\n      add\n        /* \"#utility.yul\":254:279   */\n      gt\n        /* \"#utility.yul\":251:363   */\n      iszero\n      tag_31\n      jumpi\n        /* \"#utility.yul\":282:361   */\n      tag_32\n      tag_33\n      jump\t// in\n    tag_32:\n        /* \"#utility.yul\":251:363   */\n    tag_31:\n        /* \"#utility.yul\":372:413   */\n      tag_34\n        /* \"#utility.yul\":406:412   */\n      dup5\n        /* \"#utility.yul\":401:404   */\n      dup3\n        /* \"#utility.yul\":396:399   */\n      dup6\n        /* \"#utility.yul\":372:413   */\n      tag_35\n      jump\t// in\n    tag_34:\n        /* \"#utility.yul\":91:419   */\n      pop\n        /* \"#utility.yul\":7:419   */\n      swap4\n      swap3\n      pop\n      pop\n      pop\n      jump\t// out\n        /* \"#utility.yul\":439:779   */\n    tag_36:\n        /* \"#utility.yul\":495:500   */\n      0x00\n        /* \"#utility.yul\":544:547   */\n      dup3\n        /* \"#utility.yul\":537:541   */\n      0x1f\n        /* \"#utility.yul\":529:535   */\n      dup4\n        /* \"#utility.yul\":525:542   */\n      add\n        /* \"#utility.yul\":521:548   */\n      slt\n        /* \"#utility.yul\":511:633   */\n      tag_38\n      jumpi\n        /* \"#utility.yul\":552:631   */\n      tag_39\n      tag_40\n      jump\t// in\n    tag_39:\n        /* \"#utility.yul\":511:633   */\n    tag_38:\n        /* \"#utility.yul\":669:675   */\n      dup2\n        /* \"#utility.yul\":656:676   */\n      calldataload\n        /* \"#utility.yul\":694:773   */\n      tag_41\n        /* \"#utility.yul\":769:772   */\n      dup5\n        /* \"#utility.yul\":761:767   */\n      dup3\n        /* \"#utility.yul\":754:758   */\n      0x20\n        /* \"#utility.yul\":746:752   */\n      dup7\n        /* \"#utility.yul\":742:759   */\n      add\n        /* \"#utility.yul\":694:773   */\n      tag_25\n      jump\t// in\n    tag_41:\n        /* \"#utility.yul\":685:773   */\n      swap2\n      pop\n        /* \"#utility.yul\":501:779   */\n      pop\n        /* \"#utility.yul\":439:779   */\n      swap3\n      swap2\n      pop\n      pop\n      jump\t// out\n        /* \"#utility.yul\":785:1294   */\n    tag_6:\n        /* \"#utility.yul\":854:860   */\n      0x00\n        /* \"#utility.yul\":903:905   */\n      0x20\n        /* \"#utility.yul\":891:900   */\n      dup3\n        /* \"#utility.yul\":882:889   */\n      dup5\n        /* \"#utility.yul\":878:901   */\n      sub\n        /* \"#utility.yul\":874:906   */\n      slt\n        /* \"#utility.yul\":871:990   */\n      iszero\n      tag_43\n      jumpi\n        /* \"#utility.yul\":909:988   */\n      tag_44\n      tag_45\n      jump\t// in\n    tag_44:\n        /* \"#utility.yul\":871:990   */\n    tag_43:\n        /* \"#utility.yul\":1057:1058   */\n      0x00\n        /* \"#utility.yul\":1046:1055   */\n      dup3\n        /* \"#utility.yul\":1042:1059   */\n      add\n        /* \"#utility.yul\":1029:1060   */\n      calldataload\n        /* \"#utility.yul\":1087:1105   */\n      0xffffffffffffffff\n        /* \"#utility.yul\":1079:1085   */\n      dup2\n        /* \"#utility.yul\":1076:1106   */\n      gt\n        /* \"#utility.yul\":1073:1190   */\n      iszero\n      tag_46\n      jumpi\n        /* \"#utility.yul\":1109:1188   */\n      tag_47\n      tag_48\n      jump\t// in\n    tag_47:\n        /* \"#utility.yul\":1073:1190   */\n    tag_46:\n        /* \"#utility.yul\":1214:1277   */\n      tag_49\n        /* \"#utility.yul\":1269:1276   */\n      dup5\n        /* \"#utility.yul\":1260:1266   */\n      dup3\n        /* \"#utility.yul\":1249:1258   */\n      dup6\n        /* \"#utility.yul\":1245:1267   */\n      add\n        /* \"#utility.yul\":1214:1277   */\n      tag_36\n      jump\t// in\n    tag_49:\n        /* \"#utility.yul\":1204:1277   */\n      swap2\n      pop\n        /* \"#utility.yul\":1000:1287   */\n      pop\n        /* \"#utility.yul\":785:1294   */\n      swap3\n      swap2\n      pop\n      pop\n      jump\t// out\n        /* \"#utility.yul\":1300:1677   */\n    tag_50:\n        /* \"#utility.yul\":1406:1409   */\n      0x00\n        /* \"#utility.yul\":1434:1473   */\n      tag_52\n        /* \"#utility.yul\":1467:1472   */\n      dup3\n        /* \"#utility.yul\":1434:1473   */\n      tag_53\n      jump\t// in\n    tag_52:\n        /* \"#utility.yul\":1489:1578   */\n      tag_54\n        /* \"#utility.yul\":1571:1577   */\n      dup2\n        /* \"#utility.yul\":1566:1569   */\n      dup6\n        /* \"#utility.yul\":1489:1578   */\n      tag_55\n      jump\t// in\n    tag_54:\n        /* \"#utility.yul\":1482:1578   */\n      swap4\n      pop\n        /* \"#utility.yul\":1587:1639   */\n      tag_56\n        /* \"#utility.yul\":1632:1638   */\n      dup2\n        /* \"#utility.yul\":1627:1630   */\n      dup6\n        /* \"#utility.yul\":1620:1624   */\n      0x20\n        /* \"#utility.yul\":1613:1618   */\n      dup7\n        /* \"#utility.yul\":1609:1625   */\n      add\n        /* \"#utility.yul\":1587:1639   */\n      tag_57\n      jump\t// in\n    tag_56:\n        /* \"#utility.yul\":1664:1670   */\n      dup1\n        /* \"#utility.yul\":1659:1662   */\n      dup5\n        /* \"#utility.yul\":1655:1671   */\n      add\n        /* \"#utility.yul\":1648:1671   */\n      swap2\n      pop\n        /* \"#utility.yul\":1410:1677   */\n      pop\n        /* \"#utility.yul\":1300:1677   */\n      swap3\n      swap2\n      pop\n      pop\n      jump\t// out\n        /* \"#utility.yul\":1683:1958   */\n    tag_10:\n        /* \"#utility.yul\":1815:1818   */\n      0x00\n        /* \"#utility.yul\":1837:1932   */\n      tag_59\n        /* \"#utility.yul\":1928:1931   */\n      dup3\n        /* \"#utility.yul\":1919:1925   */\n      dup5\n        /* \"#utility.yul\":1837:1932   */\n      tag_50\n      jump\t// in\n    tag_59:\n        /* \"#utility.yul\":1830:1932   */\n      swap2\n      pop\n        /* \"#utility.yul\":1949:1952   */\n      dup2\n        /* \"#utility.yul\":1942:1952   */\n      swap1\n      pop\n        /* \"#utility.yul\":1683:1958   */\n      swap3\n      swap2\n      pop\n      pop\n      jump\t// out\n        /* \"#utility.yul\":1964:2093   */\n    tag_30:\n        /* \"#utility.yul\":1998:2004   */\n      0x00\n        /* \"#utility.yul\":2025:2045   */\n      tag_61\n      tag_62\n      jump\t// in\n    tag_61:\n        /* \"#utility.yul\":2015:2045   */\n      swap1\n      pop\n        /* \"#utility.yul\":2054:2087   */\n      tag_63\n        /* \"#utility.yul\":2082:2086   */\n      dup3\n        /* \"#utility.yul\":2074:2080   */\n      dup3\n        /* \"#utility.yul\":2054:2087   */\n      tag_64\n      jump\t// in\n    tag_63:\n        /* \"#utility.yul\":1964:2093   */\n      swap2\n      swap1\n      pop\n      jump\t// out\n        /* \"#utility.yul\":2099:2174   */\n    tag_62:\n        /* \"#utility.yul\":2132:2138   */\n      0x00\n        /* \"#utility.yul\":2165:2167   */\n      0x40\n        /* \"#utility.yul\":2159:2168   */\n      mload\n        /* \"#utility.yul\":2149:2168   */\n      swap1\n      pop\n        /* \"#utility.yul\":2099:2174   */\n      swap1\n      jump\t// out\n        /* \"#utility.yul\":2180:2488   */\n    tag_29:\n        /* \"#utility.yul\":2242:2246   */\n      0x00\n        /* \"#utility.yul\":2332:2350   */\n      0xffffffffffffffff\n        /* \"#utility.yul\":2324:2330   */\n      dup3\n        /* \"#utility.yul\":2321:2351   */\n      gt\n        /* \"#utility.yul\":2318:2374   */\n      iszero\n      tag_67\n      jumpi\n        /* \"#utility.yul\":2354:2372   */\n      tag_68\n      tag_69\n      jump\t// in\n    tag_68:\n        /* \"#utility.yul\":2318:2374   */\n    tag_67:\n        /* \"#utility.yul\":2392:2421   */\n      tag_70\n        /* \"#utility.yul\":2414:2420   */\n      dup3\n        /* \"#utility.yul\":2392:2421   */\n      tag_71\n      jump\t// in\n    tag_70:\n        /* \"#utility.yul\":2384:2421   */\n      swap1\n      pop\n        /* \"#utility.yul\":2476:2480   */\n      0x20\n        /* \"#utility.yul\":2470:2474   */\n      dup2\n        /* \"#utility.yul\":2466:2481   */\n      add\n        /* \"#utility.yul\":2458:2481   */\n      swap1\n      pop\n        /* \"#utility.yul\":2180:2488   */\n      swap2\n      swap1\n      pop\n      jump\t// out\n        /* \"#utility.yul\":2494:2593   */\n    tag_53:\n        /* \"#utility.yul\":2546:2552   */\n      0x00\n        /* \"#utility.yul\":2580:2585   */\n      dup2\n        /* \"#utility.yul\":2574:2586   */\n      mload\n        /* \"#utility.yul\":2564:2586   */\n      swap1\n      pop\n        /* \"#utility.yul\":2494:2593   */\n      swap2\n      swap1\n      pop\n      jump\t// out\n        /* \"#utility.yul\":2599:2747   */\n    tag_55:\n        /* \"#utility.yul\":2701:2712   */\n      0x00\n        /* \"#utility.yul\":2738:2741   */\n      dup2\n        /* \"#utility.yul\":2723:2741   */\n      swap1\n      pop\n        /* \"#utility.yul\":2599:2747   */\n      swap3\n      swap2\n      pop\n      pop\n      jump\t// out\n        /* \"#utility.yul\":2753:2907   */\n    tag_35:\n        /* \"#utility.yul\":2837:2843   */\n      dup3\n        /* \"#utility.yul\":2832:2835   */\n      dup2\n        /* \"#utility.yul\":2827:2830   */\n      dup4\n        /* \"#utility.yul\":2814:2844   */\n      calldatacopy\n        /* \"#utility.yul\":2899:2900   */\n      0x00\n        /* \"#utility.yul\":2890:2896   */\n      dup4\n        /* \"#utility.yul\":2885:2888   */\n      dup4\n        /* \"#utility.yul\":2881:2897   */\n      add\n        /* \"#utility.yul\":2874:2901   */\n      mstore\n        /* \"#utility.yul\":2753:2907   */\n      pop\n      pop\n      pop\n      jump\t// out\n        /* \"#utility.yul\":2913:3220   */\n    tag_57:\n        /* \"#utility.yul\":2981:2982   */\n      0x00\n        /* \"#utility.yul\":2991:3104   */\n    tag_76:\n        /* \"#utility.yul\":3005:3011   */\n      dup4\n        /* \"#utility.yul\":3002:3003   */\n      dup2\n        /* \"#utility.yul\":2999:3012   */\n      lt\n        /* \"#utility.yul\":2991:3104   */\n      iszero\n      tag_78\n      jumpi\n        /* \"#utility.yul\":3090:3091   */\n      dup1\n        /* \"#utility.yul\":3085:3088   */\n      dup3\n        /* \"#utility.yul\":3081:3092   */\n      add\n        /* \"#utility.yul\":3075:3093   */\n      mload\n        /* \"#utility.yul\":3071:3072   */\n      dup2\n        /* \"#utility.yul\":3066:3069   */\n      dup5\n        /* \"#utility.yul\":3062:3073   */\n      add\n        /* \"#utility.yul\":3055:3094   */\n      mstore\n        /* \"#utility.yul\":3027:3029   */\n      0x20\n        /* \"#utility.yul\":3024:3025   */\n      dup2\n        /* \"#utility.yul\":3020:3030   */\n      add\n        /* \"#utility.yul\":3015:3030   */\n      swap1\n      pop\n        /* \"#utility.yul\":2991:3104   */\n      jump(tag_76)\n    tag_78:\n        /* \"#utility.yul\":3122:3128   */\n      dup4\n        /* \"#utility.yul\":3119:3120   */\n      dup2\n        /* \"#utility.yul\":3116:3129   */\n      gt\n        /* \"#utility.yul\":3113:3214   */\n      iszero\n      tag_79\n      jumpi\n        /* \"#utility.yul\":3202:3203   */\n      0x00\n        /* \"#utility.yul\":3193:3199   */\n      dup5\n        /* \"#utility.yul\":3188:3191   */\n      dup5\n        /* \"#utility.yul\":3184:3200   */\n      add\n        /* \"#utility.yul\":3177:3204   */\n      mstore\n        /* \"#utility.yul\":3113:3214   */\n    tag_79:\n        /* \"#utility.yul\":2962:3220   */\n      pop\n        /* \"#utility.yul\":2913:3220   */\n      pop\n      pop\n      pop\n      jump\t// out\n        /* \"#utility.yul\":3226:3546   */\n    tag_14:\n        /* \"#utility.yul\":3270:3276   */\n      0x00\n        /* \"#utility.yul\":3307:3308   */\n      0x02\n        /* \"#utility.yul\":3301:3305   */\n      dup3\n        /* \"#utility.yul\":3297:3309   */\n      div\n        /* \"#utility.yul\":3287:3309   */\n      swap1\n      pop\n        /* \"#utility.yul\":3354:3355   */\n      0x01\n        /* \"#utility.yul\":3348:3352   */\n      dup3\n        /* \"#utility.yul\":3344:3356   */\n      and\n        /* \"#utility.yul\":3375:3393   */\n      dup1\n        /* \"#utility.yul\":3365:3446   */\n      tag_81\n      jumpi\n        /* \"#utility.yul\":3431:3435   */\n      0x7f\n        /* \"#utility.yul\":3423:3429   */\n      dup3\n        /* \"#utility.yul\":3419:3436   */\n      and\n        /* \"#utility.yul\":3409:3436   */\n      swap2\n      pop\n        /* \"#utility.yul\":3365:3446   */\n    tag_81:\n        /* \"#utility.yul\":3493:3495   */\n      0x20\n        /* \"#utility.yul\":3485:3491   */\n      dup3\n        /* \"#utility.yul\":3482:3496   */\n      lt\n        /* \"#utility.yul\":3462:3480   */\n      dup2\n        /* \"#utility.yul\":3459:3497   */\n      eq\n        /* \"#utility.yul\":3456:3540   */\n      iszero\n      tag_82\n      jumpi\n        /* \"#utility.yul\":3512:3530   */\n      tag_83\n      tag_84\n      jump\t// in\n    tag_83:\n        /* \"#utility.yul\":3456:3540   */\n    tag_82:\n        /* \"#utility.yul\":3277:3546   */\n      pop\n        /* \"#utility.yul\":3226:3546   */\n      swap2\n      swap1\n      pop\n      jump\t// out\n        /* \"#utility.yul\":3552:3833   */\n    tag_64:\n        /* \"#utility.yul\":3635:3662   */\n      tag_86\n        /* \"#utility.yul\":3657:3661   */\n      dup3\n        /* \"#utility.yul\":3635:3662   */\n      tag_71\n      jump\t// in\n    tag_86:\n        /* \"#utility.yul\":3627:3633   */\n      dup2\n        /* \"#utility.yul\":3623:3663   */\n      add\n        /* \"#utility.yul\":3765:3771   */\n      dup2\n        /* \"#utility.yul\":3753:3763   */\n      dup2\n        /* \"#utility.yul\":3750:3772   */\n      lt\n        /* \"#utility.yul\":3729:3747   */\n      0xffffffffffffffff\n        /* \"#utility.yul\":3717:3727   */\n      dup3\n        /* \"#utility.yul\":3714:3748   */\n      gt\n        /* \"#utility.yul\":3711:3773   */\n      or\n        /* \"#utility.yul\":3708:3796   */\n      iszero\n      tag_87\n      jumpi\n        /* \"#utility.yul\":3776:3794   */\n      tag_88\n      tag_69\n      jump\t// in\n    tag_88:\n        /* \"#utility.yul\":3708:3796   */\n    tag_87:\n        /* \"#utility.yul\":3816:3826   */\n      dup1\n        /* \"#utility.yul\":3812:3814   */\n      0x40\n        /* \"#utility.yul\":3805:3827   */\n      mstore\n        /* \"#utility.yul\":3595:3833   */\n      pop\n        /* \"#utility.yul\":3552:3833   */\n      pop\n      pop\n      jump\t// out\n        /* \"#utility.yul\":3839:4019   */\n    tag_84:\n        /* \"#utility.yul\":3887:3964   */\n      0x4e487b7100000000000000000000000000000000000000000000000000000000\n        /* \"#utility.yul\":3884:3885   */\n      0x00\n        /* \"#utility.yul\":3877:3965   */\n      mstore\n        /* \"#utility.yul\":3984:3988   */\n      0x22\n        /* \"#utility.yul\":3981:3982   */\n      0x04\n        /* \"#utility.yul\":3974:3989   */\n      mstore\n        /* \"#utility.yul\":4008:4012   */\n      0x24\n        /* \"#utility.yul\":4005:4006   */\n      0x00\n        /* \"#utility.yul\":3998:4013   */\n      revert\n        /* \"#utility.yul\":4025:4205   */\n    tag_69:\n        /* \"#utility.yul\":4073:4150   */\n      0x4e487b7100000000000000000000000000000000000000000000000000000000\n        /* \"#utility.yul\":4070:4071   */\n      0x00\n        /* \"#utility.yul\":4063:4151   */\n      mstore\n        /* \"#utility.yul\":4170:4174   */\n      0x41\n        /* \"#utility.yul\":4167:4168   */\n      0x04\n        /* \"#utility.yul\":4160:4175   */\n      mstore\n        /* \"#utility.yul\":4194:4198   */\n      0x24\n        /* \"#utility.yul\":4191:4192   */\n      0x00\n        /* \"#utility.yul\":4184:4199   */\n      revert\n        /* \"#utility.yul\":4211:4328   */\n    tag_40:\n        /* \"#utility.yul\":4320:4321   */\n      0x00\n        /* \"#utility.yul\":4317:4318   */\n      dup1\n        /* \"#utility.yul\":4310:4322   */\n      revert\n        /* \"#utility.yul\":4334:4451   */\n    tag_33:\n        /* \"#utility.yul\":4443:4444   */\n      0x00\n        /* \"#utility.yul\":4440:4441   */\n      dup1\n        /* \"#utility.yul\":4433:4445   */\n      revert\n        /* \"#utility.yul\":4457:4574   */\n    tag_48:\n        /* \"#utility.yul\":4566:4567   */\n      0x00\n        /* \"#utility.yul\":4563:4564   */\n      dup1\n        /* \"#utility.yul\":4556:4568   */\n      revert\n        /* \"#utility.yul\":4580:4697   */\n    tag_45:\n        /* \"#utility.yul\":4689:4690   */\n      0x00\n        /* \"#utility.yul\":4686:4687   */\n      dup1\n        /* \"#utility.yul\":4679:4691   */\n      revert\n        /* \"#utility.yul\":4703:4805   */\n    tag_71:\n        /* \"#utility.yul\":4744:4750   */\n      0x00\n        /* \"#utility.yul\":4795:4797   */\n      0x1f\n        /* \"#utility.yul\":4791:4798   */\n      not\n        /* \"#utility.yul\":4786:4788   */\n      0x1f\n        /* \"#utility.yul\":4779:4784   */\n      dup4\n        /* \"#utility.yul\":4775:4789   */\n      add\n        /* \"#utility.yul\":4771:4799   */\n      and\n        /* \"#utility.yul\":4761:4799   */\n      swap1\n      pop\n        /* \"#utility.yul\":4703:4805   */\n      swap2\n      swap1\n      pop\n      jump\t// out\n\n    auxdata: 0xa264697066735822122034ae2a1fa346b7df637a170e020b97b88305f6f91af1f5aa2b119461e4f7b79064736f6c63430008070033\n}\n",
				"bytecode": {
					"linkReferences": {},
					"object": "608060405234801561001057600080fd5b5061047e806100206000396000f3fe608060405234801561001057600080fd5b506004361061002b5760003560e01c8063cc0ff64514610030575b600080fd5b61004a60048036038101906100459190610223565b61004c565b005b60405180606001604052808281526020013373ffffffffffffffffffffffffffffffffffffffff168152602001600081525060008260405161008e919061029d565b908152602001604051809103902060008201518160000190805190602001906100b8929190610110565b5060208201518160010160006101000a81548173ffffffffffffffffffffffffffffffffffffffff021916908373ffffffffffffffffffffffffffffffffffffffff1602179055506040820151816002015590505050565b82805461011c90610362565b90600052602060002090601f01602090048101928261013e5760008555610185565b82601f1061015757805160ff1916838001178555610185565b82800160010185558215610185579182015b82811115610184578251825591602001919060010190610169565b5b5090506101929190610196565b5090565b5b808211156101af576000816000905550600101610197565b5090565b60006101c66101c1846102d9565b6102b4565b9050828152602081018484840111156101e2576101e1610428565b5b6101ed848285610320565b509392505050565b600082601f83011261020a57610209610423565b5b813561021a8482602086016101b3565b91505092915050565b60006020828403121561023957610238610432565b5b600082013567ffffffffffffffff8111156102575761025661042d565b5b610263848285016101f5565b91505092915050565b60006102778261030a565b6102818185610315565b935061029181856020860161032f565b80840191505092915050565b60006102a9828461026c565b915081905092915050565b60006102be6102cf565b90506102ca8282610394565b919050565b6000604051905090565b600067ffffffffffffffff8211156102f4576102f36103f4565b5b6102fd82610437565b9050602081019050919050565b600081519050919050565b600081905092915050565b82818337600083830152505050565b60005b8381101561034d578082015181840152602081019050610332565b8381111561035c576000848401525b50505050565b6000600282049050600182168061037a57607f821691505b6020821081141561038e5761038d6103c5565b5b50919050565b61039d82610437565b810181811067ffffffffffffffff821117156103bc576103bb6103f4565b5b80604052505050565b7f4e487b7100000000000000000000000000000000000000000000000000000000600052602260045260246000fd5b7f4e487b7100000000000000000000000000000000000000000000000000000000600052604160045260246000fd5b600080fd5b600080fd5b600080fd5b600080fd5b6000601f19601f830116905091905056fea264697066735822122034ae2a1fa346b7df637a170e020b97b88305f6f91af1f5aa2b119461e4f7b79064736f6c63430008070033",
					"opcodes": "PUSH1 0x80 PUSH1 0x40 MSTORE CALLVALUE DUP1 ISZERO PUSH2 0x10 JUMPI PUSH1 0x0 DUP1 REVERT JUMPDEST POP PUSH2 0x47E DUP1 PUSH2 0x20 PUSH1 0x0 CODECOPY PUSH1 0x0 RETURN INVALID PUSH1 0x80 PUSH1 0x40 MSTORE CALLVALUE DUP1 ISZERO PUSH2 0x10 JUMPI PUSH1 0x0 DUP1 REVERT JUMPDEST POP PUSH1 0x4 CALLDATASIZE LT PUSH2 0x2B JUMPI PUSH1 0x0 CALLDATALOAD PUSH1 0xE0 SHR DUP1 PUSH4 0xCC0FF645 EQ PUSH2 0x30 JUMPI JUMPDEST PUSH1 0x0 DUP1 REVERT JUMPDEST PUSH2 0x4A PUSH1 0x4 DUP1 CALLDATASIZE SUB DUP2 ADD SWAP1 PUSH2 0x45 SWAP2 SWAP1 PUSH2 0x223 JUMP JUMPDEST PUSH2 0x4C JUMP JUMPDEST STOP JUMPDEST PUSH1 0x40 MLOAD DUP1 PUSH1 0x60 ADD PUSH1 0x40 MSTORE DUP1 DUP3 DUP2 MSTORE PUSH1 0x20 ADD CALLER PUSH20 0xFFFFFFFFFFFFFFFFFFFFFFFFFFFFFFFFFFFFFFFF AND DUP2 MSTORE PUSH1 0x20 ADD PUSH1 0x0 DUP2 MSTORE POP PUSH1 0x0 DUP3 PUSH1 0x40 MLOAD PUSH2 0x8E SWAP2 SWAP1 PUSH2 0x29D JUMP JUMPDEST SWAP1 DUP2 MSTORE PUSH1 0x20 ADD PUSH1 0x40 MLOAD DUP1 SWAP2 SUB SWAP1 KECCAK256 PUSH1 0x0 DUP3 ADD MLOAD DUP2 PUSH1 0x0 ADD SWAP1 DUP1 MLOAD SWAP1 PUSH1 0x20 ADD SWAP1 PUSH2 0xB8 SWAP3 SWAP2 SWAP1 PUSH2 0x110 JUMP JUMPDEST POP PUSH1 0x20 DUP3 ADD MLOAD DUP2 PUSH1 0x1 ADD PUSH1 0x0 PUSH2 0x100 EXP DUP2 SLOAD DUP2 PUSH20 0xFFFFFFFFFFFFFFFFFFFFFFFFFFFFFFFFFFFFFFFF MUL NOT AND SWAP1 DUP4 PUSH20 0xFFFFFFFFFFFFFFFFFFFFFFFFFFFFFFFFFFFFFFFF AND MUL OR SWAP1 SSTORE POP PUSH1 0x40 DUP3 ADD MLOAD DUP2 PUSH1 0x2 ADD SSTORE SWAP1 POP POP POP JUMP JUMPDEST DUP3 DUP1 SLOAD PUSH2 0x11C SWAP1 PUSH2 0x362 JUMP JUMPDEST SWAP1 PUSH1 0x0 MSTORE PUSH1 0x20 PUSH1 0x0 KECCAK256 SWAP1 PUSH1 0x1F ADD PUSH1 0x20 SWAP1 DIV DUP2 ADD SWAP3 DUP3 PUSH2 0x13E JUMPI PUSH1 0x0 DUP6 SSTORE PUSH2 0x185 JUMP JUMPDEST DUP3 PUSH1 0x1F LT PUSH2 0x157 JUMPI DUP1 MLOAD PUSH1 0xFF NOT AND DUP4 DUP1 ADD OR DUP6 SSTORE PUSH2 0x185 JUMP JUMPDEST DUP3 DUP1 ADD PUSH1 0x1 ADD DUP6 SSTORE DUP3 ISZERO PUSH2 0x185 JUMPI SWAP2 DUP3 ADD JUMPDEST DUP3 DUP2 GT ISZERO PUSH2 0x184 JUMPI DUP3 MLOAD DUP3 SSTORE SWAP2 PUSH1 0x20 ADD SWAP2 SWAP1 PUSH1 0x1 ADD SWAP1 PUSH2 0x169 JUMP JUMPDEST JUMPDEST POP SWAP1 POP PUSH2 0x192 SWAP2 SWAP1 PUSH2 0x196 JUMP JUMPDEST POP SWAP1 JUMP JUMPDEST JUMPDEST DUP1 DUP3 GT ISZERO PUSH2 0x1AF JUMPI PUSH1 0x0 DUP2 PUSH1 0x0 SWAP1 SSTORE POP PUSH1 0x1 ADD PUSH2 0x197 JUMP JUMPDEST POP SWAP1 JUMP JUMPDEST PUSH1 0x0 PUSH2 0x1C6 PUSH2 0x1C1 DUP5 PUSH2 0x2D9 JUMP JUMPDEST PUSH2 0x2B4 JUMP JUMPDEST SWAP1 POP DUP3 DUP2 MSTORE PUSH1 0x20 DUP2 ADD DUP5 DUP5 DUP5 ADD GT ISZERO PUSH2 0x1E2 JUMPI PUSH2 0x1E1 PUSH2 0x428 JUMP JUMPDEST JUMPDEST PUSH2 0x1ED DUP5 DUP3 DUP6 PUSH2 0x320 JUMP JUMPDEST POP SWAP4 SWAP3 POP POP POP JUMP JUMPDEST PUSH1 0x0 DUP3 PUSH1 0x1F DUP4 ADD SLT PUSH2 0x20A JUMPI PUSH2 0x209 PUSH2 0x423 JUMP JUMPDEST JUMPDEST DUP2 CALLDATALOAD PUSH2 0x21A DUP5 DUP3 PUSH1 0x20 DUP7 ADD PUSH2 0x1B3 JUMP JUMPDEST SWAP2 POP POP SWAP3 SWAP2 POP POP JUMP JUMPDEST PUSH1 0x0 PUSH1 0x20 DUP3 DUP5 SUB SLT ISZERO PUSH2 0x239 JUMPI PUSH2 0x238 PUSH2 0x432 JUMP JUMPDEST JUMPDEST PUSH1 0x0 DUP3 ADD CALLDATALOAD PUSH8 0xFFFFFFFFFFFFFFFF DUP2 GT ISZERO PUSH2 0x257 JUMPI PUSH2 0x256 PUSH2 0x42D JUMP JUMPDEST JUMPDEST PUSH2 0x263 DUP5 DUP3 DUP6 ADD PUSH2 0x1F5 JUMP JUMPDEST SWAP2 POP POP SWAP3 SWAP2 POP POP JUMP JUMPDEST PUSH1 0x0 PUSH2 0x277 DUP3 PUSH2 0x30A JUMP JUMPDEST PUSH2 0x281 DUP2 DUP6 PUSH2 0x315 JUMP JUMPDEST SWAP4 POP PUSH2 0x291 DUP2 DUP6 PUSH1 0x20 DUP7 ADD PUSH2 0x32F JUMP JUMPDEST DUP1 DUP5 ADD SWAP2 POP POP SWAP3 SWAP2 POP POP JUMP JUMPDEST PUSH1 0x0 PUSH2 0x2A9 DUP3 DUP5 PUSH2 0x26C JUMP JUMPDEST SWAP2 POP DUP2 SWAP1 POP SWAP3 SWAP2 POP POP JUMP JUMPDEST PUSH1 0x0 PUSH2 0x2BE PUSH2 0x2CF JUMP JUMPDEST SWAP1 POP PUSH2 0x2CA DUP3 DUP3 PUSH2 0x394 JUMP JUMPDEST SWAP2 SWAP1 POP JUMP JUMPDEST PUSH1 0x0 PUSH1 0x40 MLOAD SWAP1 POP SWAP1 JUMP JUMPDEST PUSH1 0x0 PUSH8 0xFFFFFFFFFFFFFFFF DUP3 GT ISZERO PUSH2 0x2F4 JUMPI PUSH2 0x2F3 PUSH2 0x3F4 JUMP JUMPDEST JUMPDEST PUSH2 0x2FD DUP3 PUSH2 0x437 JUMP JUMPDEST SWAP1 POP PUSH1 0x20 DUP2 ADD SWAP1 POP SWAP2 SWAP1 POP JUMP JUMPDEST PUSH1 0x0 DUP2 MLOAD SWAP1 POP SWAP2 SWAP1 POP JUMP JUMPDEST PUSH1 0x0 DUP2 SWAP1 POP SWAP3 SWAP2 POP POP JUMP JUMPDEST DUP3 DUP2 DUP4 CALLDATACOPY PUSH1 0x0 DUP4 DUP4 ADD MSTORE POP POP POP JUMP JUMPDEST PUSH1 0x0 JUMPDEST DUP4 DUP2 LT ISZERO PUSH2 0x34D JUMPI DUP1 DUP3 ADD MLOAD DUP2 DUP5 ADD MSTORE PUSH1 0x20 DUP2 ADD SWAP1 POP PUSH2 0x332 JUMP JUMPDEST DUP4 DUP2 GT ISZERO PUSH2 0x35C JUMPI PUSH1 0x0 DUP5 DUP5 ADD MSTORE JUMPDEST POP POP POP POP JUMP JUMPDEST PUSH1 0x0 PUSH1 0x2 DUP3 DIV SWAP1 POP PUSH1 0x1 DUP3 AND DUP1 PUSH2 0x37A JUMPI PUSH1 0x7F DUP3 AND SWAP2 POP JUMPDEST PUSH1 0x20 DUP3 LT DUP2 EQ ISZERO PUSH2 0x38E JUMPI PUSH2 0x38D PUSH2 0x3C5 JUMP JUMPDEST JUMPDEST POP SWAP2 SWAP1 POP JUMP JUMPDEST PUSH2 0x39D DUP3 PUSH2 0x437 JUMP JUMPDEST DUP2 ADD DUP2 DUP2 LT PUSH8 0xFFFFFFFFFFFFFFFF DUP3 GT OR ISZERO PUSH2 0x3BC JUMPI PUSH2 0x3BB PUSH2 0x3F4 JUMP JUMPDEST JUMPDEST DUP1 PUSH1 0x40 MSTORE POP POP POP JUMP JUMPDEST PUSH32 0x4E487B7100000000000000000000000000000000000000000000000000000000 PUSH1 0x0 MSTORE PUSH1 0x22 PUSH1 0x4 MSTORE PUSH1 0x24 PUSH1 0x0 REVERT JUMPDEST PUSH32 0x4E487B7100000000000000000000000000000000000000000000000000000000 PUSH1 0x0 MSTORE PUSH1 0x41 PUSH1 0x4 MSTORE PUSH1 0x24 PUSH1 0x0 REVERT JUMPDEST PUSH1 0x0 DUP1 REVERT JUMPDEST PUSH1 0x0 DUP1 REVERT JUMPDEST PUSH1 0x0 DUP1 REVERT JUMPDEST PUSH1 0x0 DUP1 REVERT JUMPDEST PUSH1 0x0 PUSH1 0x1F NOT PUSH1 0x1F DUP4 ADD AND SWAP1 POP SWAP2 SWAP1 POP JUMP INVALID LOG2 PUSH5 0x6970667358 0x22 SLT KECCAK256 CALLVALUE 0xAE 0x2A 0x1F LOG3 CHAINID 0xB7 0xDF PUSH4 0x7A170E02 SIGNEXTEND SWAP8 0xB8 DUP4 SDIV 0xF6 0xF9 BYTE CALL CREATE2 0xAA 0x2B GT SWAP5 PUSH2 0xE4F7 0xB7 SWAP1 PUSH5 0x736F6C6343 STOP ADDMOD SMOD STOP CALLER "
				},
				"gasEstimates": {
					"creation": {
						"codeDepositCost": "230000",
						"executionCost": "269",
						"totalCost": "230269"
					},
					"external": {
						"nuevoCliente(string)": "infinite"
					}
				},
				"methodIdentifiers": {
					"nuevoCliente(string)": "cc0ff645"
				}
			},
			"storageLayout": {
				"storage": [
					{
						"astId": 12,
						"contract": "Interactuando con varios smart contracts/Banco.sol:Banco",
						"label": "clientes",
						"offset": 0,
						"slot": "0",
						"type": "t_mapping(t_string_memory_ptr,t_struct(Cliente)7_storage)"
					}
				],
				"types": {
					"t_address": {
						"encoding": "inplace",
						"label": "address",
						"numberOfBytes": "20"
					},
					"t_mapping(t_string_memory_ptr,t_struct(Cliente)7_storage)": {
						"encoding": "mapping",
						"key": "t_string_memory_ptr",
						"label": "mapping(string => struct Banco.Cliente)",
						"numberOfBytes": "32",
						"value": "t_struct(Cliente)7_storage"
					},
					"t_string_memory_ptr": {
						"encoding": "bytes",
						"label": "string",
						"numberOfBytes": "32"
					},
					"t_string_storage": {
						"encoding": "bytes",
						"label": "string",
						"numberOfBytes": "32"
					},
					"t_struct(Cliente)7_storage": {
						"encoding": "inplace",
						"label": "struct Banco.Cliente",
						"members": [
							{
								"astId": 2,
								"contract": "Interactuando con varios smart contracts/Banco.sol:Banco",
								"label": "nombre",
								"offset": 0,
								"slot": "0",
								"type": "t_string_storage"
							},
							{
								"astId": 4,
								"contract": "Interactuando con varios smart contracts/Banco.sol:Banco",
								"label": "direccion",
								"offset": 0,
								"slot": "1",
								"type": "t_address"
							},
							{
								"astId": 6,
								"contract": "Interactuando con varios smart contracts/Banco.sol:Banco",
								"label": "dinero",
								"offset": 0,
								"slot": "2",
								"type": "t_uint256"
							}
						],
						"numberOfBytes": "96"
					},
					"t_uint256": {
						"encoding": "inplace",
						"label": "uint256",
						"numberOfBytes": "32"
					}
				}
			},
			"userdoc": {
				"kind": "user",
				"methods": {},
				"version": 1
			}
		}
	}
}