{
	"Interactuando con varios smart contracts/librerias.sol": {
		"calculos": {
			"abi": [
				{
					"inputs": [
						{
							"internalType": "uint256",
							"name": "_a",
							"type": "uint256"
						},
						{
							"internalType": "uint256",
							"name": "_b",
							"type": "uint256"
						}
					],
					"name": "calculo",
					"outputs": [
						{
							"internalType": "uint256",
							"name": "",
							"type": "uint256"
						},
						{
							"internalType": "uint256",
							"name": "",
							"type": "uint256"
						}
					],
					"stateMutability": "pure",
					"type": "function"
				}
			],
			"devdoc": {
				"kind": "dev",
				"methods": {},
				"version": 1
			},
			"evm": {
				"assembly": "    /* \"Interactuando con varios smart contracts/librerias.sol\":447:693  contract calculos{... */\n  mstore(0x40, 0x80)\n  callvalue\n  dup1\n  iszero\n  tag_1\n  jumpi\n  0x00\n  dup1\n  revert\ntag_1:\n  pop\n  dataSize(sub_0)\n  dup1\n  dataOffset(sub_0)\n  0x00\n  codecopy\n  0x00\n  return\nstop\n\nsub_0: assembly {\n        /* \"Interactuando con varios smart contracts/librerias.sol\":447:693  contract calculos{... */\n      mstore(0x40, 0x80)\n      callvalue\n      dup1\n      iszero\n      tag_1\n      jumpi\n      0x00\n      dup1\n      revert\n    tag_1:\n      pop\n      jumpi(tag_2, lt(calldatasize, 0x04))\n      shr(0xe0, calldataload(0x00))\n      dup1\n      0x9f01863b\n      eq\n      tag_3\n      jumpi\n    tag_2:\n      0x00\n      dup1\n      revert\n        /* \"Interactuando con varios smart contracts/librerias.sol\":512:681  function calculo(uint _a, uint _b) public pure returns(uint, uint){... */\n    tag_3:\n      tag_4\n      0x04\n      dup1\n      calldatasize\n      sub\n      dup2\n      add\n      swap1\n      tag_5\n      swap2\n      swap1\n      tag_6\n      jump\t// in\n    tag_5:\n      tag_7\n      jump\t// in\n    tag_4:\n      mload(0x40)\n      tag_8\n      swap3\n      swap2\n      swap1\n      tag_9\n      jump\t// in\n    tag_8:\n      mload(0x40)\n      dup1\n      swap2\n      sub\n      swap1\n      return\n    tag_7:\n        /* \"Interactuando con varios smart contracts/librerias.sol\":567:571  uint */\n      0x00\n        /* \"Interactuando con varios smart contracts/librerias.sol\":573:577  uint */\n      dup1\n        /* \"Interactuando con varios smart contracts/librerias.sol\":588:594  uint q */\n      0x00\n        /* \"Interactuando con varios smart contracts/librerias.sol\":597:599  _a */\n      dup5\n        /* \"Interactuando con varios smart contracts/librerias.sol\":597:608  _a.division */\n      linkerSymbol(\"cac818e9d789110fd609f8b781661210bfc8021afe67bb791cbfce7bb49ebd20\")\n      0xe0068052\n      swap1\n      swap2\n        /* \"Interactuando con varios smart contracts/librerias.sol\":609:611  _b */\n      dup7\n        /* \"Interactuando con varios smart contracts/librerias.sol\":597:612  _a.division(_b) */\n      mload(0x40)\n      dup4\n      0xffffffff\n      and\n      0xe0\n      shl\n      dup2\n      mstore\n      0x04\n      add\n      tag_11\n      swap3\n      swap2\n      swap1\n      tag_12\n      jump\t// in\n    tag_11:\n      0x20\n      mload(0x40)\n      dup1\n      dup4\n      sub\n      dup2\n      dup7\n      gas\n      delegatecall\n      iszero\n      dup1\n      iszero\n      tag_14\n      jumpi\n      returndatasize\n      0x00\n      dup1\n      returndatacopy\n      revert(0x00, returndatasize)\n    tag_14:\n      pop\n      pop\n      pop\n      pop\n      mload(0x40)\n      returndatasize\n      not(0x1f)\n      0x1f\n      dup3\n      add\n      and\n      dup3\n      add\n      dup1\n      0x40\n      mstore\n      pop\n      dup2\n      add\n      swap1\n      tag_15\n      swap2\n      swap1\n      tag_16\n      jump\t// in\n    tag_15:\n        /* \"Interactuando con varios smart contracts/librerias.sol\":588:612  uint q = _a.division(_b) */\n      swap1\n      pop\n        /* \"Interactuando con varios smart contracts/librerias.sol\":622:628  uint m */\n      0x00\n        /* \"Interactuando con varios smart contracts/librerias.sol\":631:633  _a */\n      dup6\n        /* \"Interactuando con varios smart contracts/librerias.sol\":631:648  _a.multiplicacion */\n      linkerSymbol(\"cac818e9d789110fd609f8b781661210bfc8021afe67bb791cbfce7bb49ebd20\")\n      0xd17fb9ea\n      swap1\n      swap2\n        /* \"Interactuando con varios smart contracts/librerias.sol\":649:651  _b */\n      dup8\n        /* \"Interactuando con varios smart contracts/librerias.sol\":631:652  _a.multiplicacion(_b) */\n      mload(0x40)\n      dup4\n      0xffffffff\n      and\n      0xe0\n      shl\n      dup2\n      mstore\n      0x04\n      add\n      tag_17\n      swap3\n      swap2\n      swap1\n      tag_12\n      jump\t// in\n    tag_17:\n      0x20\n      mload(0x40)\n      dup1\n      dup4\n      sub\n      dup2\n      dup7\n      gas\n      delegatecall\n      iszero\n      dup1\n      iszero\n      tag_19\n      jumpi\n      returndatasize\n      0x00\n      dup1\n      returndatacopy\n      revert(0x00, returndatasize)\n    tag_19:\n      pop\n      pop\n      pop\n      pop\n      mload(0x40)\n      returndatasize\n      not(0x1f)\n      0x1f\n      dup3\n      add\n      and\n      dup3\n      add\n      dup1\n      0x40\n      mstore\n      pop\n      dup2\n      add\n      swap1\n      tag_20\n      swap2\n      swap1\n      tag_16\n      jump\t// in\n    tag_20:\n        /* \"Interactuando con varios smart contracts/librerias.sol\":622:652  uint m = _a.multiplicacion(_b) */\n      swap1\n      pop\n        /* \"Interactuando con varios smart contracts/librerias.sol\":670:671  q */\n      dup2\n        /* \"Interactuando con varios smart contracts/librerias.sol\":672:673  m */\n      dup2\n        /* \"Interactuando con varios smart contracts/librerias.sol\":662:674  return (q,m) */\n      swap4\n      pop\n      swap4\n      pop\n      pop\n      pop\n        /* \"Interactuando con varios smart contracts/librerias.sol\":512:681  function calculo(uint _a, uint _b) public pure returns(uint, uint){... */\n      swap3\n      pop\n      swap3\n      swap1\n      pop\n      jump\t// out\n        /* \"#utility.yul\":88:205   */\n    tag_22:\n        /* \"#utility.yul\":197:198   */\n      0x00\n        /* \"#utility.yul\":194:195   */\n      dup1\n        /* \"#utility.yul\":187:199   */\n      revert\n        /* \"#utility.yul\":334:411   */\n    tag_24:\n        /* \"#utility.yul\":371:378   */\n      0x00\n        /* \"#utility.yul\":400:405   */\n      dup2\n        /* \"#utility.yul\":389:405   */\n      swap1\n      pop\n        /* \"#utility.yul\":334:411   */\n      swap2\n      swap1\n      pop\n      jump\t// out\n        /* \"#utility.yul\":417:539   */\n    tag_25:\n        /* \"#utility.yul\":490:514   */\n      tag_36\n        /* \"#utility.yul\":508:513   */\n      dup2\n        /* \"#utility.yul\":490:514   */\n      tag_24\n      jump\t// in\n    tag_36:\n        /* \"#utility.yul\":483:488   */\n      dup2\n        /* \"#utility.yul\":480:515   */\n      eq\n        /* \"#utility.yul\":470:533   */\n      tag_37\n      jumpi\n        /* \"#utility.yul\":529:530   */\n      0x00\n        /* \"#utility.yul\":526:527   */\n      dup1\n        /* \"#utility.yul\":519:531   */\n      revert\n        /* \"#utility.yul\":470:533   */\n    tag_37:\n        /* \"#utility.yul\":417:539   */\n      pop\n      jump\t// out\n        /* \"#utility.yul\":545:684   */\n    tag_26:\n        /* \"#utility.yul\":591:596   */\n      0x00\n        /* \"#utility.yul\":629:635   */\n      dup2\n        /* \"#utility.yul\":616:636   */\n      calldataload\n        /* \"#utility.yul\":607:636   */\n      swap1\n      pop\n        /* \"#utility.yul\":645:678   */\n      tag_39\n        /* \"#utility.yul\":672:677   */\n      dup2\n        /* \"#utility.yul\":645:678   */\n      tag_25\n      jump\t// in\n    tag_39:\n        /* \"#utility.yul\":545:684   */\n      swap3\n      swap2\n      pop\n      pop\n      jump\t// out\n        /* \"#utility.yul\":690:1164   */\n    tag_6:\n        /* \"#utility.yul\":758:764   */\n      0x00\n        /* \"#utility.yul\":766:772   */\n      dup1\n        /* \"#utility.yul\":815:817   */\n      0x40\n        /* \"#utility.yul\":803:812   */\n      dup4\n        /* \"#utility.yul\":794:801   */\n      dup6\n        /* \"#utility.yul\":790:813   */\n      sub\n        /* \"#utility.yul\":786:818   */\n      slt\n        /* \"#utility.yul\":783:902   */\n      iszero\n      tag_41\n      jumpi\n        /* \"#utility.yul\":821:900   */\n      tag_42\n      tag_22\n      jump\t// in\n    tag_42:\n        /* \"#utility.yul\":783:902   */\n    tag_41:\n        /* \"#utility.yul\":941:942   */\n      0x00\n        /* \"#utility.yul\":966:1019   */\n      tag_43\n        /* \"#utility.yul\":1011:1018   */\n      dup6\n        /* \"#utility.yul\":1002:1008   */\n      dup3\n        /* \"#utility.yul\":991:1000   */\n      dup7\n        /* \"#utility.yul\":987:1009   */\n      add\n        /* \"#utility.yul\":966:1019   */\n      tag_26\n      jump\t// in\n    tag_43:\n        /* \"#utility.yul\":956:1019   */\n      swap3\n      pop\n        /* \"#utility.yul\":912:1029   */\n      pop\n        /* \"#utility.yul\":1068:1070   */\n      0x20\n        /* \"#utility.yul\":1094:1147   */\n      tag_44\n        /* \"#utility.yul\":1139:1146   */\n      dup6\n        /* \"#utility.yul\":1130:1136   */\n      dup3\n        /* \"#utility.yul\":1119:1128   */\n      dup7\n        /* \"#utility.yul\":1115:1137   */\n      add\n        /* \"#utility.yul\":1094:1147   */\n      tag_26\n      jump\t// in\n    tag_44:\n        /* \"#utility.yul\":1084:1147   */\n      swap2\n      pop\n        /* \"#utility.yul\":1039:1157   */\n      pop\n        /* \"#utility.yul\":690:1164   */\n      swap3\n      pop\n      swap3\n      swap1\n      pop\n      jump\t// out\n        /* \"#utility.yul\":1170:1288   */\n    tag_27:\n        /* \"#utility.yul\":1257:1281   */\n      tag_46\n        /* \"#utility.yul\":1275:1280   */\n      dup2\n        /* \"#utility.yul\":1257:1281   */\n      tag_24\n      jump\t// in\n    tag_46:\n        /* \"#utility.yul\":1252:1255   */\n      dup3\n        /* \"#utility.yul\":1245:1282   */\n      mstore\n        /* \"#utility.yul\":1170:1288   */\n      pop\n      pop\n      jump\t// out\n        /* \"#utility.yul\":1294:1626   */\n    tag_9:\n        /* \"#utility.yul\":1415:1419   */\n      0x00\n        /* \"#utility.yul\":1453:1455   */\n      0x40\n        /* \"#utility.yul\":1442:1451   */\n      dup3\n        /* \"#utility.yul\":1438:1456   */\n      add\n        /* \"#utility.yul\":1430:1456   */\n      swap1\n      pop\n        /* \"#utility.yul\":1466:1537   */\n      tag_48\n        /* \"#utility.yul\":1534:1535   */\n      0x00\n        /* \"#utility.yul\":1523:1532   */\n      dup4\n        /* \"#utility.yul\":1519:1536   */\n      add\n        /* \"#utility.yul\":1510:1516   */\n      dup6\n        /* \"#utility.yul\":1466:1537   */\n      tag_27\n      jump\t// in\n    tag_48:\n        /* \"#utility.yul\":1547:1619   */\n      tag_49\n        /* \"#utility.yul\":1615:1617   */\n      0x20\n        /* \"#utility.yul\":1604:1613   */\n      dup4\n        /* \"#utility.yul\":1600:1618   */\n      add\n        /* \"#utility.yul\":1591:1597   */\n      dup5\n        /* \"#utility.yul\":1547:1619   */\n      tag_27\n      jump\t// in\n    tag_49:\n        /* \"#utility.yul\":1294:1626   */\n      swap4\n      swap3\n      pop\n      pop\n      pop\n      jump\t// out\n        /* \"#utility.yul\":1632:1758   */\n    tag_28:\n        /* \"#utility.yul\":1727:1751   */\n      tag_51\n        /* \"#utility.yul\":1745:1750   */\n      dup2\n        /* \"#utility.yul\":1727:1751   */\n      tag_24\n      jump\t// in\n    tag_51:\n        /* \"#utility.yul\":1722:1725   */\n      dup3\n        /* \"#utility.yul\":1715:1752   */\n      mstore\n        /* \"#utility.yul\":1632:1758   */\n      pop\n      pop\n      jump\t// out\n        /* \"#utility.yul\":1764:2120   */\n    tag_12:\n        /* \"#utility.yul\":1893:1897   */\n      0x00\n        /* \"#utility.yul\":1931:1933   */\n      0x40\n        /* \"#utility.yul\":1920:1929   */\n      dup3\n        /* \"#utility.yul\":1916:1934   */\n      add\n        /* \"#utility.yul\":1908:1934   */\n      swap1\n      pop\n        /* \"#utility.yul\":1944:2023   */\n      tag_53\n        /* \"#utility.yul\":2020:2021   */\n      0x00\n        /* \"#utility.yul\":2009:2018   */\n      dup4\n        /* \"#utility.yul\":2005:2022   */\n      add\n        /* \"#utility.yul\":1996:2002   */\n      dup6\n        /* \"#utility.yul\":1944:2023   */\n      tag_28\n      jump\t// in\n    tag_53:\n        /* \"#utility.yul\":2033:2113   */\n      tag_54\n        /* \"#utility.yul\":2109:2111   */\n      0x20\n        /* \"#utility.yul\":2098:2107   */\n      dup4\n        /* \"#utility.yul\":2094:2112   */\n      add\n        /* \"#utility.yul\":2085:2091   */\n      dup5\n        /* \"#utility.yul\":2033:2113   */\n      tag_28\n      jump\t// in\n    tag_54:\n        /* \"#utility.yul\":1764:2120   */\n      swap4\n      swap3\n      pop\n      pop\n      pop\n      jump\t// out\n        /* \"#utility.yul\":2126:2269   */\n    tag_29:\n        /* \"#utility.yul\":2183:2188   */\n      0x00\n        /* \"#utility.yul\":2214:2220   */\n      dup2\n        /* \"#utility.yul\":2208:2221   */\n      mload\n        /* \"#utility.yul\":2199:2221   */\n      swap1\n      pop\n        /* \"#utility.yul\":2230:2263   */\n      tag_56\n        /* \"#utility.yul\":2257:2262   */\n      dup2\n        /* \"#utility.yul\":2230:2263   */\n      tag_25\n      jump\t// in\n    tag_56:\n        /* \"#utility.yul\":2126:2269   */\n      swap3\n      swap2\n      pop\n      pop\n      jump\t// out\n        /* \"#utility.yul\":2275:2626   */\n    tag_16:\n        /* \"#utility.yul\":2345:2351   */\n      0x00\n        /* \"#utility.yul\":2394:2396   */\n      0x20\n        /* \"#utility.yul\":2382:2391   */\n      dup3\n        /* \"#utility.yul\":2373:2380   */\n      dup5\n        /* \"#utility.yul\":2369:2392   */\n      sub\n        /* \"#utility.yul\":2365:2397   */\n      slt\n        /* \"#utility.yul\":2362:2481   */\n      iszero\n      tag_58\n      jumpi\n        /* \"#utility.yul\":2400:2479   */\n      tag_59\n      tag_22\n      jump\t// in\n    tag_59:\n        /* \"#utility.yul\":2362:2481   */\n    tag_58:\n        /* \"#utility.yul\":2520:2521   */\n      0x00\n        /* \"#utility.yul\":2545:2609   */\n      tag_60\n        /* \"#utility.yul\":2601:2608   */\n      dup5\n        /* \"#utility.yul\":2592:2598   */\n      dup3\n        /* \"#utility.yul\":2581:2590   */\n      dup6\n        /* \"#utility.yul\":2577:2599   */\n      add\n        /* \"#utility.yul\":2545:2609   */\n      tag_29\n      jump\t// in\n    tag_60:\n        /* \"#utility.yul\":2535:2609   */\n      swap2\n      pop\n        /* \"#utility.yul\":2491:2619   */\n      pop\n        /* \"#utility.yul\":2275:2626   */\n      swap3\n      swap2\n      pop\n      pop\n      jump\t// out\n\n    auxdata: 0xa2646970667358221220cbc6b6a8d2d56ce5e798aab273f1bc0a31b1a9db8c5a50d788fb36322314e8bf64736f6c634300080d0033\n}\n",
				"bytecode": {
					"linkReferences": {
						"Interactuando con varios smart contracts/librerias.sol": {
							"Operaciones": [
								{
									"length": 20,
									"start": 137
								},
								{
									"length": 20,
									"start": 265
								}
							]
						}
					},
					"object": "608060405234801561001057600080fd5b506102d6806100206000396000f3fe608060405234801561001057600080fd5b506004361061002b5760003560e01c80639f01863b14610030575b600080fd5b61004a600480360381019061004591906101ae565b610061565b6040516100589291906101fd565b60405180910390f35b60008060008473__$cac818e9d789110fd609f8b781661210bf$__63e00680529091866040518363ffffffff1660e01b81526004016100a1929190610235565b602060405180830381865af41580156100be573d6000803e3d6000fd5b505050506040513d601f19601f820116820180604052508101906100e29190610273565b905060008573__$cac818e9d789110fd609f8b781661210bf$__63d17fb9ea9091876040518363ffffffff1660e01b8152600401610121929190610235565b602060405180830381865af415801561013e573d6000803e3d6000fd5b505050506040513d601f19601f820116820180604052508101906101629190610273565b905081819350935050509250929050565b600080fd5b6000819050919050565b61018b81610178565b811461019657600080fd5b50565b6000813590506101a881610182565b92915050565b600080604083850312156101c5576101c4610173565b5b60006101d385828601610199565b92505060206101e485828601610199565b9150509250929050565b6101f781610178565b82525050565b600060408201905061021260008301856101ee565b61021f60208301846101ee565b9392505050565b61022f81610178565b82525050565b600060408201905061024a6000830185610226565b6102576020830184610226565b9392505050565b60008151905061026d81610182565b92915050565b60006020828403121561028957610288610173565b5b60006102978482850161025e565b9150509291505056fea2646970667358221220cbc6b6a8d2d56ce5e798aab273f1bc0a31b1a9db8c5a50d788fb36322314e8bf64736f6c634300080d0033",
					"opcodes": "PUSH1 0x80 PUSH1 0x40 MSTORE CALLVALUE DUP1 ISZERO PUSH2 0x10 JUMPI PUSH1 0x0 DUP1 REVERT JUMPDEST POP PUSH2 0x2D6 DUP1 PUSH2 0x20 PUSH1 0x0 CODECOPY PUSH1 0x0 RETURN INVALID PUSH1 0x80 PUSH1 0x40 MSTORE CALLVALUE DUP1 ISZERO PUSH2 0x10 JUMPI PUSH1 0x0 DUP1 REVERT JUMPDEST POP PUSH1 0x4 CALLDATASIZE LT PUSH2 0x2B JUMPI PUSH1 0x0 CALLDATALOAD PUSH1 0xE0 SHR DUP1 PUSH4 0x9F01863B EQ PUSH2 0x30 JUMPI JUMPDEST PUSH1 0x0 DUP1 REVERT JUMPDEST PUSH2 0x4A PUSH1 0x4 DUP1 CALLDATASIZE SUB DUP2 ADD SWAP1 PUSH2 0x45 SWAP2 SWAP1 PUSH2 0x1AE JUMP JUMPDEST PUSH2 0x61 JUMP JUMPDEST PUSH1 0x40 MLOAD PUSH2 0x58 SWAP3 SWAP2 SWAP1 PUSH2 0x1FD JUMP JUMPDEST PUSH1 0x40 MLOAD DUP1 SWAP2 SUB SWAP1 RETURN JUMPDEST PUSH1 0x0 DUP1 PUSH1 0x0 DUP5 PUSH20 0x0 PUSH4 0xE0068052 SWAP1 SWAP2 DUP7 PUSH1 0x40 MLOAD DUP4 PUSH4 0xFFFFFFFF AND PUSH1 0xE0 SHL DUP2 MSTORE PUSH1 0x4 ADD PUSH2 0xA1 SWAP3 SWAP2 SWAP1 PUSH2 0x235 JUMP JUMPDEST PUSH1 0x20 PUSH1 0x40 MLOAD DUP1 DUP4 SUB DUP2 DUP7 GAS DELEGATECALL ISZERO DUP1 ISZERO PUSH2 0xBE JUMPI RETURNDATASIZE PUSH1 0x0 DUP1 RETURNDATACOPY RETURNDATASIZE PUSH1 0x0 REVERT JUMPDEST POP POP POP POP PUSH1 0x40 MLOAD RETURNDATASIZE PUSH1 0x1F NOT PUSH1 0x1F DUP3 ADD AND DUP3 ADD DUP1 PUSH1 0x40 MSTORE POP DUP2 ADD SWAP1 PUSH2 0xE2 SWAP2 SWAP1 PUSH2 0x273 JUMP JUMPDEST SWAP1 POP PUSH1 0x0 DUP6 PUSH20 0x0 PUSH4 0xD17FB9EA SWAP1 SWAP2 DUP8 PUSH1 0x40 MLOAD DUP4 PUSH4 0xFFFFFFFF AND PUSH1 0xE0 SHL DUP2 MSTORE PUSH1 0x4 ADD PUSH2 0x121 SWAP3 SWAP2 SWAP1 PUSH2 0x235 JUMP JUMPDEST PUSH1 0x20 PUSH1 0x40 MLOAD DUP1 DUP4 SUB DUP2 DUP7 GAS DELEGATECALL ISZERO DUP1 ISZERO PUSH2 0x13E JUMPI RETURNDATASIZE PUSH1 0x0 DUP1 RETURNDATACOPY RETURNDATASIZE PUSH1 0x0 REVERT JUMPDEST POP POP POP POP PUSH1 0x40 MLOAD RETURNDATASIZE PUSH1 0x1F NOT PUSH1 0x1F DUP3 ADD AND DUP3 ADD DUP1 PUSH1 0x40 MSTORE POP DUP2 ADD SWAP1 PUSH2 0x162 SWAP2 SWAP1 PUSH2 0x273 JUMP JUMPDEST SWAP1 POP DUP2 DUP2 SWAP4 POP SWAP4 POP POP POP SWAP3 POP SWAP3 SWAP1 POP JUMP JUMPDEST PUSH1 0x0 DUP1 REVERT JUMPDEST PUSH1 0x0 DUP2 SWAP1 POP SWAP2 SWAP1 POP JUMP JUMPDEST PUSH2 0x18B DUP2 PUSH2 0x178 JUMP JUMPDEST DUP2 EQ PUSH2 0x196 JUMPI PUSH1 0x0 DUP1 REVERT JUMPDEST POP JUMP JUMPDEST PUSH1 0x0 DUP2 CALLDATALOAD SWAP1 POP PUSH2 0x1A8 DUP2 PUSH2 0x182 JUMP JUMPDEST SWAP3 SWAP2 POP POP JUMP JUMPDEST PUSH1 0x0 DUP1 PUSH1 0x40 DUP4 DUP6 SUB SLT ISZERO PUSH2 0x1C5 JUMPI PUSH2 0x1C4 PUSH2 0x173 JUMP JUMPDEST JUMPDEST PUSH1 0x0 PUSH2 0x1D3 DUP6 DUP3 DUP7 ADD PUSH2 0x199 JUMP JUMPDEST SWAP3 POP POP PUSH1 0x20 PUSH2 0x1E4 DUP6 DUP3 DUP7 ADD PUSH2 0x199 JUMP JUMPDEST SWAP2 POP POP SWAP3 POP SWAP3 SWAP1 POP JUMP JUMPDEST PUSH2 0x1F7 DUP2 PUSH2 0x178 JUMP JUMPDEST DUP3 MSTORE POP POP JUMP JUMPDEST PUSH1 0x0 PUSH1 0x40 DUP3 ADD SWAP1 POP PUSH2 0x212 PUSH1 0x0 DUP4 ADD DUP6 PUSH2 0x1EE JUMP JUMPDEST PUSH2 0x21F PUSH1 0x20 DUP4 ADD DUP5 PUSH2 0x1EE JUMP JUMPDEST SWAP4 SWAP3 POP POP POP JUMP JUMPDEST PUSH2 0x22F DUP2 PUSH2 0x178 JUMP JUMPDEST DUP3 MSTORE POP POP JUMP JUMPDEST PUSH1 0x0 PUSH1 0x40 DUP3 ADD SWAP1 POP PUSH2 0x24A PUSH1 0x0 DUP4 ADD DUP6 PUSH2 0x226 JUMP JUMPDEST PUSH2 0x257 PUSH1 0x20 DUP4 ADD DUP5 PUSH2 0x226 JUMP JUMPDEST SWAP4 SWAP3 POP POP POP JUMP JUMPDEST PUSH1 0x0 DUP2 MLOAD SWAP1 POP PUSH2 0x26D DUP2 PUSH2 0x182 JUMP JUMPDEST SWAP3 SWAP2 POP POP JUMP JUMPDEST PUSH1 0x0 PUSH1 0x20 DUP3 DUP5 SUB SLT ISZERO PUSH2 0x289 JUMPI PUSH2 0x288 PUSH2 0x173 JUMP JUMPDEST JUMPDEST PUSH1 0x0 PUSH2 0x297 DUP5 DUP3 DUP6 ADD PUSH2 0x25E JUMP JUMPDEST SWAP2 POP POP SWAP3 SWAP2 POP POP JUMP INVALID LOG2 PUSH5 0x6970667358 0x22 SLT KECCAK256 0xCB 0xC6 0xB6 0xA8 0xD2 0xD5 PUSH13 0xE5E798AAB273F1BC0A31B1A9DB DUP13 GAS POP 0xD7 DUP9 0xFB CALLDATASIZE ORIGIN 0x23 EQ 0xE8 0xBF PUSH5 0x736F6C6343 STOP ADDMOD 0xD STOP CALLER "
				},
				"gasEstimates": {
					"creation": {
						"codeDepositCost": "145200",
						"executionCost": "190",
						"totalCost": "145390"
					},
					"external": {
						"calculo(uint256,uint256)": "infinite"
					}
				},
				"methodIdentifiers": {
					"calculo(uint256,uint256)": "9f01863b"
				}
			},
			"storageLayout": {
				"storage": [],
				"types": null
			},
			"userdoc": {
				"kind": "user",
				"methods": {},
				"version": 1
			}
		}
	}
}