{
	"Interactuando con varios smart contracts/Herencia.sol": {
		"Cliente": {
			"abi": [
				{
					"inputs": [
						{
							"internalType": "string",
							"name": "_nombre",
							"type": "string"
						}
					],
					"name": "consultarDinero",
					"outputs": [
						{
							"internalType": "uint256",
							"name": "",
							"type": "uint256"
						}
					],
					"stateMutability": "view",
					"type": "function"
				},
				{
					"inputs": [
						{
							"internalType": "string",
							"name": "_nombre",
							"type": "string"
						}
					],
					"name": "crearCliente",
					"outputs": [],
					"stateMutability": "nonpayable",
					"type": "function"
				},
				{
					"inputs": [
						{
							"internalType": "string",
							"name": "_nombre",
							"type": "string"
						},
						{
							"internalType": "uint256",
							"name": "_cantidad",
							"type": "uint256"
						}
					],
					"name": "ingresarDinero",
					"outputs": [],
					"stateMutability": "nonpayable",
					"type": "function"
				},
				{
					"inputs": [
						{
							"internalType": "string",
							"name": "_nombre",
							"type": "string"
						}
					],
					"name": "nuevoCliente",
					"outputs": [],
					"stateMutability": "nonpayable",
					"type": "function"
				},
				{
					"inputs": [
						{
							"internalType": "string",
							"name": "_nombre",
							"type": "string"
						},
						{
							"internalType": "uint256",
							"name": "_cantidad",
							"type": "uint256"
						}
					],
					"name": "retirarDinero",
					"outputs": [
						{
							"internalType": "bool",
							"name": "",
							"type": "bool"
						}
					],
					"stateMutability": "nonpayable",
					"type": "function"
				}
			],
			"devdoc": {
				"kind": "dev",
				"methods": {},
				"version": 1
			},
			"evm": {
				"assembly": "    /* \"Interactuando con varios smart contracts/Herencia.sol\":368:1026  contract Cliente is Banco{... */\n  mstore(0x40, 0x80)\n  callvalue\n  dup1\n  iszero\n  tag_1\n  jumpi\n  0x00\n  dup1\n  revert\ntag_1:\n  pop\n  dataSize(sub_0)\n  dup1\n  dataOffset(sub_0)\n  0x00\n  codecopy\n  0x00\n  return\nstop\n\nsub_0: assembly {\n        /* \"Interactuando con varios smart contracts/Herencia.sol\":368:1026  contract Cliente is Banco{... */\n      mstore(0x40, 0x80)\n      callvalue\n      dup1\n      iszero\n      tag_1\n      jumpi\n      0x00\n      dup1\n      revert\n    tag_1:\n      pop\n      jumpi(tag_2, lt(calldatasize, 0x04))\n      shr(0xe0, calldataload(0x00))\n      dup1\n      0x276a05bf\n      eq\n      tag_3\n      jumpi\n      dup1\n      0x3b5c9dc4\n      eq\n      tag_4\n      jumpi\n      dup1\n      0x47267990\n      eq\n      tag_5\n      jumpi\n      dup1\n      0x50eacac2\n      eq\n      tag_6\n      jumpi\n      dup1\n      0xcc0ff645\n      eq\n      tag_7\n      jumpi\n    tag_2:\n      0x00\n      dup1\n      revert\n        /* \"Interactuando con varios smart contracts/Herencia.sol\":501:626  function ingresarDinero(string memory _nombre, uint _cantidad) public{... */\n    tag_3:\n      tag_8\n      0x04\n      dup1\n      calldatasize\n      sub\n      dup2\n      add\n      swap1\n      tag_9\n      swap2\n      swap1\n      tag_10\n      jump\t// in\n    tag_9:\n      tag_11\n      jump\t// in\n    tag_8:\n      stop\n        /* \"Interactuando con varios smart contracts/Herencia.sol\":634:889  function retirarDinero(string memory _nombre, uint _cantidad) public returns (bool){... */\n    tag_4:\n      tag_12\n      0x04\n      dup1\n      calldatasize\n      sub\n      dup2\n      add\n      swap1\n      tag_13\n      swap2\n      swap1\n      tag_10\n      jump\t// in\n    tag_13:\n      tag_14\n      jump\t// in\n    tag_12:\n      mload(0x40)\n      tag_15\n      swap2\n      swap1\n      tag_16\n      jump\t// in\n    tag_15:\n      mload(0x40)\n      dup1\n      swap2\n      sub\n      swap1\n      return\n        /* \"Interactuando con varios smart contracts/Herencia.sol\":897:1021  function consultarDinero(string memory _nombre) public view returns(uint) {... */\n    tag_5:\n      tag_17\n      0x04\n      dup1\n      calldatasize\n      sub\n      dup2\n      add\n      swap1\n      tag_18\n      swap2\n      swap1\n      tag_19\n      jump\t// in\n    tag_18:\n      tag_20\n      jump\t// in\n    tag_17:\n      mload(0x40)\n      tag_21\n      swap2\n      swap1\n      tag_22\n      jump\t// in\n    tag_21:\n      mload(0x40)\n      dup1\n      swap2\n      sub\n      swap1\n      return\n        /* \"Interactuando con varios smart contracts/Herencia.sol\":402:493  function crearCliente(string memory _nombre) public{... */\n    tag_6:\n      tag_23\n      0x04\n      dup1\n      calldatasize\n      sub\n      dup2\n      add\n      swap1\n      tag_24\n      swap2\n      swap1\n      tag_19\n      jump\t// in\n    tag_24:\n      tag_25\n      jump\t// in\n    tag_23:\n      stop\n        /* \"Interactuando con varios smart contracts/Herencia.sol\":241:361  function nuevoCliente(string memory _nombre) public {... */\n    tag_7:\n      tag_26\n      0x04\n      dup1\n      calldatasize\n      sub\n      dup2\n      add\n      swap1\n      tag_27\n      swap2\n      swap1\n      tag_19\n      jump\t// in\n    tag_27:\n      tag_28\n      jump\t// in\n    tag_26:\n      stop\n        /* \"Interactuando con varios smart contracts/Herencia.sol\":501:626  function ingresarDinero(string memory _nombre, uint _cantidad) public{... */\n    tag_11:\n        /* \"Interactuando con varios smart contracts/Herencia.sol\":609:618  _cantidad */\n      dup1\n        /* \"Interactuando con varios smart contracts/Herencia.sol\":581:589  clientes */\n      0x00\n        /* \"Interactuando con varios smart contracts/Herencia.sol\":590:597  _nombre */\n      dup4\n        /* \"Interactuando con varios smart contracts/Herencia.sol\":581:598  clientes[_nombre] */\n      mload(0x40)\n      tag_30\n      swap2\n      swap1\n      tag_31\n      jump\t// in\n    tag_30:\n      swap1\n      dup2\n      mstore\n      0x20\n      add\n      mload(0x40)\n      dup1\n      swap2\n      sub\n      swap1\n      keccak256\n        /* \"Interactuando con varios smart contracts/Herencia.sol\":581:605  clientes[_nombre].dinero */\n      0x02\n      add\n      0x00\n        /* \"Interactuando con varios smart contracts/Herencia.sol\":581:618  clientes[_nombre].dinero += _cantidad */\n      dup3\n      dup3\n      sload\n      tag_32\n      swap2\n      swap1\n      tag_33\n      jump\t// in\n    tag_32:\n      swap3\n      pop\n      pop\n      dup2\n      swap1\n      sstore\n      pop\n        /* \"Interactuando con varios smart contracts/Herencia.sol\":501:626  function ingresarDinero(string memory _nombre, uint _cantidad) public{... */\n      pop\n      pop\n      jump\t// out\n        /* \"Interactuando con varios smart contracts/Herencia.sol\":634:889  function retirarDinero(string memory _nombre, uint _cantidad) public returns (bool){... */\n    tag_14:\n        /* \"Interactuando con varios smart contracts/Herencia.sol\":712:716  bool */\n      0x00\n        /* \"Interactuando con varios smart contracts/Herencia.sol\":744:752  clientes */\n      dup1\n        /* \"Interactuando con varios smart contracts/Herencia.sol\":753:760  _nombre */\n      dup4\n        /* \"Interactuando con varios smart contracts/Herencia.sol\":744:761  clientes[_nombre] */\n      mload(0x40)\n      tag_35\n      swap2\n      swap1\n      tag_31\n      jump\t// in\n    tag_35:\n      swap1\n      dup2\n      mstore\n      0x20\n      add\n      mload(0x40)\n      dup1\n      swap2\n      sub\n      swap1\n      keccak256\n        /* \"Interactuando con varios smart contracts/Herencia.sol\":744:768  clientes[_nombre].dinero */\n      0x02\n      add\n      sload\n        /* \"Interactuando con varios smart contracts/Herencia.sol\":731:740  _cantidad */\n      dup3\n        /* \"Interactuando con varios smart contracts/Herencia.sol\":731:768  _cantidad <= clientes[_nombre].dinero */\n      gt\n        /* \"Interactuando con varios smart contracts/Herencia.sol\":728:859  if(_cantidad <= clientes[_nombre].dinero){... */\n      tag_36\n      jumpi\n        /* \"Interactuando con varios smart contracts/Herencia.sol\":812:821  _cantidad */\n      dup2\n        /* \"Interactuando con varios smart contracts/Herencia.sol\":784:792  clientes */\n      0x00\n        /* \"Interactuando con varios smart contracts/Herencia.sol\":793:800  _nombre */\n      dup5\n        /* \"Interactuando con varios smart contracts/Herencia.sol\":784:801  clientes[_nombre] */\n      mload(0x40)\n      tag_37\n      swap2\n      swap1\n      tag_31\n      jump\t// in\n    tag_37:\n      swap1\n      dup2\n      mstore\n      0x20\n      add\n      mload(0x40)\n      dup1\n      swap2\n      sub\n      swap1\n      keccak256\n        /* \"Interactuando con varios smart contracts/Herencia.sol\":784:808  clientes[_nombre].dinero */\n      0x02\n      add\n      0x00\n        /* \"Interactuando con varios smart contracts/Herencia.sol\":784:821  clientes[_nombre].dinero -= _cantidad */\n      dup3\n      dup3\n      sload\n      tag_38\n      swap2\n      swap1\n      tag_39\n      jump\t// in\n    tag_38:\n      swap3\n      pop\n      pop\n      dup2\n      swap1\n      sstore\n      pop\n        /* \"Interactuando con varios smart contracts/Herencia.sol\":843:847  true */\n      0x01\n        /* \"Interactuando con varios smart contracts/Herencia.sol\":836:847  return true */\n      swap1\n      pop\n      jump(tag_34)\n        /* \"Interactuando con varios smart contracts/Herencia.sol\":728:859  if(_cantidad <= clientes[_nombre].dinero){... */\n    tag_36:\n        /* \"Interactuando con varios smart contracts/Herencia.sol\":876:881  false */\n      0x00\n        /* \"Interactuando con varios smart contracts/Herencia.sol\":869:881  return false */\n      swap1\n      pop\n        /* \"Interactuando con varios smart contracts/Herencia.sol\":634:889  function retirarDinero(string memory _nombre, uint _cantidad) public returns (bool){... */\n    tag_34:\n      swap3\n      swap2\n      pop\n      pop\n      jump\t// out\n        /* \"Interactuando con varios smart contracts/Herencia.sol\":897:1021  function consultarDinero(string memory _nombre) public view returns(uint) {... */\n    tag_20:\n        /* \"Interactuando con varios smart contracts/Herencia.sol\":965:969  uint */\n      0x00\n        /* \"Interactuando con varios smart contracts/Herencia.sol\":989:997  clientes */\n      dup1\n        /* \"Interactuando con varios smart contracts/Herencia.sol\":998:1005  _nombre */\n      dup3\n        /* \"Interactuando con varios smart contracts/Herencia.sol\":989:1006  clientes[_nombre] */\n      mload(0x40)\n      tag_41\n      swap2\n      swap1\n      tag_31\n      jump\t// in\n    tag_41:\n      swap1\n      dup2\n      mstore\n      0x20\n      add\n      mload(0x40)\n      dup1\n      swap2\n      sub\n      swap1\n      keccak256\n        /* \"Interactuando con varios smart contracts/Herencia.sol\":989:1013  clientes[_nombre].dinero */\n      0x02\n      add\n      sload\n        /* \"Interactuando con varios smart contracts/Herencia.sol\":982:1013  return clientes[_nombre].dinero */\n      swap1\n      pop\n        /* \"Interactuando con varios smart contracts/Herencia.sol\":897:1021  function consultarDinero(string memory _nombre) public view returns(uint) {... */\n      swap2\n      swap1\n      pop\n      jump\t// out\n        /* \"Interactuando con varios smart contracts/Herencia.sol\":402:493  function crearCliente(string memory _nombre) public{... */\n    tag_25:\n        /* \"Interactuando con varios smart contracts/Herencia.sol\":464:485  nuevoCliente(_nombre) */\n      tag_43\n        /* \"Interactuando con varios smart contracts/Herencia.sol\":477:484  _nombre */\n      dup2\n        /* \"Interactuando con varios smart contracts/Herencia.sol\":464:476  nuevoCliente */\n      tag_28\n        /* \"Interactuando con varios smart contracts/Herencia.sol\":464:485  nuevoCliente(_nombre) */\n      jump\t// in\n    tag_43:\n        /* \"Interactuando con varios smart contracts/Herencia.sol\":402:493  function crearCliente(string memory _nombre) public{... */\n      pop\n      jump\t// out\n        /* \"Interactuando con varios smart contracts/Herencia.sol\":241:361  function nuevoCliente(string memory _nombre) public {... */\n    tag_28:\n        /* \"Interactuando con varios smart contracts/Herencia.sol\":324:353  Cliente(_nombre,msg.sender,0) */\n      mload(0x40)\n      dup1\n      0x60\n      add\n      0x40\n      mstore\n      dup1\n        /* \"Interactuando con varios smart contracts/Herencia.sol\":332:339  _nombre */\n      dup3\n        /* \"Interactuando con varios smart contracts/Herencia.sol\":324:353  Cliente(_nombre,msg.sender,0) */\n      dup2\n      mstore\n      0x20\n      add\n        /* \"Interactuando con varios smart contracts/Herencia.sol\":340:350  msg.sender */\n      caller\n        /* \"Interactuando con varios smart contracts/Herencia.sol\":324:353  Cliente(_nombre,msg.sender,0) */\n      0xffffffffffffffffffffffffffffffffffffffff\n      and\n      dup2\n      mstore\n      0x20\n      add\n        /* \"Interactuando con varios smart contracts/Herencia.sol\":351:352  0 */\n      0x00\n        /* \"Interactuando con varios smart contracts/Herencia.sol\":324:353  Cliente(_nombre,msg.sender,0) */\n      dup2\n      mstore\n      pop\n        /* \"Interactuando con varios smart contracts/Herencia.sol\":304:312  clientes */\n      0x00\n        /* \"Interactuando con varios smart contracts/Herencia.sol\":313:320  _nombre */\n      dup3\n        /* \"Interactuando con varios smart contracts/Herencia.sol\":304:321  clientes[_nombre] */\n      mload(0x40)\n      tag_45\n      swap2\n      swap1\n      tag_31\n      jump\t// in\n    tag_45:\n      swap1\n      dup2\n      mstore\n      0x20\n      add\n      mload(0x40)\n      dup1\n      swap2\n      sub\n      swap1\n      keccak256\n        /* \"Interactuando con varios smart contracts/Herencia.sol\":304:353  clientes[_nombre] = Cliente(_nombre,msg.sender,0) */\n      0x00\n      dup3\n      add\n      mload\n      dup2\n      0x00\n      add\n      swap1\n      dup1\n      mload\n      swap1\n      0x20\n      add\n      swap1\n      tag_46\n      swap3\n      swap2\n      swap1\n      tag_47\n      jump\t// in\n    tag_46:\n      pop\n      0x20\n      dup3\n      add\n      mload\n      dup2\n      0x01\n      add\n      exp(0x0100, 0x00)\n      dup2\n      sload\n      dup2\n      0xffffffffffffffffffffffffffffffffffffffff\n      mul\n      not\n      and\n      swap1\n      dup4\n      0xffffffffffffffffffffffffffffffffffffffff\n      and\n      mul\n      or\n      swap1\n      sstore\n      pop\n      0x40\n      dup3\n      add\n      mload\n      dup2\n      0x02\n      add\n      sstore\n      swap1\n      pop\n      pop\n        /* \"Interactuando con varios smart contracts/Herencia.sol\":241:361  function nuevoCliente(string memory _nombre) public {... */\n      pop\n      jump\t// out\n    tag_47:\n      dup3\n      dup1\n      sload\n      tag_48\n      swap1\n      tag_49\n      jump\t// in\n    tag_48:\n      swap1\n      0x00\n      mstore\n      keccak256(0x00, 0x20)\n      swap1\n      0x1f\n      add\n      0x20\n      swap1\n      div\n      dup2\n      add\n      swap3\n      dup3\n      tag_51\n      jumpi\n      0x00\n      dup6\n      sstore\n      jump(tag_50)\n    tag_51:\n      dup3\n      0x1f\n      lt\n      tag_52\n      jumpi\n      dup1\n      mload\n      not(0xff)\n      and\n      dup4\n      dup1\n      add\n      or\n      dup6\n      sstore\n      jump(tag_50)\n    tag_52:\n      dup3\n      dup1\n      add\n      0x01\n      add\n      dup6\n      sstore\n      dup3\n      iszero\n      tag_50\n      jumpi\n      swap2\n      dup3\n      add\n    tag_53:\n      dup3\n      dup2\n      gt\n      iszero\n      tag_54\n      jumpi\n      dup3\n      mload\n      dup3\n      sstore\n      swap2\n      0x20\n      add\n      swap2\n      swap1\n      0x01\n      add\n      swap1\n      jump(tag_53)\n    tag_54:\n    tag_50:\n      pop\n      swap1\n      pop\n      tag_55\n      swap2\n      swap1\n      tag_56\n      jump\t// in\n    tag_55:\n      pop\n      swap1\n      jump\t// out\n    tag_56:\n    tag_57:\n      dup1\n      dup3\n      gt\n      iszero\n      tag_58\n      jumpi\n      0x00\n      dup2\n      0x00\n      swap1\n      sstore\n      pop\n      0x01\n      add\n      jump(tag_57)\n    tag_58:\n      pop\n      swap1\n      jump\t// out\n        /* \"#utility.yul\":7:82   */\n    tag_59:\n        /* \"#utility.yul\":40:46   */\n      0x00\n        /* \"#utility.yul\":73:75   */\n      0x40\n        /* \"#utility.yul\":67:76   */\n      mload\n        /* \"#utility.yul\":57:76   */\n      swap1\n      pop\n        /* \"#utility.yul\":7:82   */\n      swap1\n      jump\t// out\n        /* \"#utility.yul\":88:205   */\n    tag_60:\n        /* \"#utility.yul\":197:198   */\n      0x00\n        /* \"#utility.yul\":194:195   */\n      dup1\n        /* \"#utility.yul\":187:199   */\n      revert\n        /* \"#utility.yul\":211:328   */\n    tag_61:\n        /* \"#utility.yul\":320:321   */\n      0x00\n        /* \"#utility.yul\":317:318   */\n      dup1\n        /* \"#utility.yul\":310:322   */\n      revert\n        /* \"#utility.yul\":334:451   */\n    tag_62:\n        /* \"#utility.yul\":443:444   */\n      0x00\n        /* \"#utility.yul\":440:441   */\n      dup1\n        /* \"#utility.yul\":433:445   */\n      revert\n        /* \"#utility.yul\":457:574   */\n    tag_63:\n        /* \"#utility.yul\":566:567   */\n      0x00\n        /* \"#utility.yul\":563:564   */\n      dup1\n        /* \"#utility.yul\":556:568   */\n      revert\n        /* \"#utility.yul\":580:682   */\n    tag_64:\n        /* \"#utility.yul\":621:627   */\n      0x00\n        /* \"#utility.yul\":672:674   */\n      0x1f\n        /* \"#utility.yul\":668:675   */\n      not\n        /* \"#utility.yul\":663:665   */\n      0x1f\n        /* \"#utility.yul\":656:661   */\n      dup4\n        /* \"#utility.yul\":652:666   */\n      add\n        /* \"#utility.yul\":648:676   */\n      and\n        /* \"#utility.yul\":638:676   */\n      swap1\n      pop\n        /* \"#utility.yul\":580:682   */\n      swap2\n      swap1\n      pop\n      jump\t// out\n        /* \"#utility.yul\":688:868   */\n    tag_65:\n        /* \"#utility.yul\":736:813   */\n      0x4e487b7100000000000000000000000000000000000000000000000000000000\n        /* \"#utility.yul\":733:734   */\n      0x00\n        /* \"#utility.yul\":726:814   */\n      mstore\n        /* \"#utility.yul\":833:837   */\n      0x41\n        /* \"#utility.yul\":830:831   */\n      0x04\n        /* \"#utility.yul\":823:838   */\n      mstore\n        /* \"#utility.yul\":857:861   */\n      0x24\n        /* \"#utility.yul\":854:855   */\n      0x00\n        /* \"#utility.yul\":847:862   */\n      revert\n        /* \"#utility.yul\":874:1155   */\n    tag_66:\n        /* \"#utility.yul\":957:984   */\n      tag_93\n        /* \"#utility.yul\":979:983   */\n      dup3\n        /* \"#utility.yul\":957:984   */\n      tag_64\n      jump\t// in\n    tag_93:\n        /* \"#utility.yul\":949:955   */\n      dup2\n        /* \"#utility.yul\":945:985   */\n      add\n        /* \"#utility.yul\":1087:1093   */\n      dup2\n        /* \"#utility.yul\":1075:1085   */\n      dup2\n        /* \"#utility.yul\":1072:1094   */\n      lt\n        /* \"#utility.yul\":1051:1069   */\n      0xffffffffffffffff\n        /* \"#utility.yul\":1039:1049   */\n      dup3\n        /* \"#utility.yul\":1036:1070   */\n      gt\n        /* \"#utility.yul\":1033:1095   */\n      or\n        /* \"#utility.yul\":1030:1118   */\n      iszero\n      tag_94\n      jumpi\n        /* \"#utility.yul\":1098:1116   */\n      tag_95\n      tag_65\n      jump\t// in\n    tag_95:\n        /* \"#utility.yul\":1030:1118   */\n    tag_94:\n        /* \"#utility.yul\":1138:1148   */\n      dup1\n        /* \"#utility.yul\":1134:1136   */\n      0x40\n        /* \"#utility.yul\":1127:1149   */\n      mstore\n        /* \"#utility.yul\":917:1155   */\n      pop\n        /* \"#utility.yul\":874:1155   */\n      pop\n      pop\n      jump\t// out\n        /* \"#utility.yul\":1161:1290   */\n    tag_67:\n        /* \"#utility.yul\":1195:1201   */\n      0x00\n        /* \"#utility.yul\":1222:1242   */\n      tag_97\n      tag_59\n      jump\t// in\n    tag_97:\n        /* \"#utility.yul\":1212:1242   */\n      swap1\n      pop\n        /* \"#utility.yul\":1251:1284   */\n      tag_98\n        /* \"#utility.yul\":1279:1283   */\n      dup3\n        /* \"#utility.yul\":1271:1277   */\n      dup3\n        /* \"#utility.yul\":1251:1284   */\n      tag_66\n      jump\t// in\n    tag_98:\n        /* \"#utility.yul\":1161:1290   */\n      swap2\n      swap1\n      pop\n      jump\t// out\n        /* \"#utility.yul\":1296:1604   */\n    tag_68:\n        /* \"#utility.yul\":1358:1362   */\n      0x00\n        /* \"#utility.yul\":1448:1466   */\n      0xffffffffffffffff\n        /* \"#utility.yul\":1440:1446   */\n      dup3\n        /* \"#utility.yul\":1437:1467   */\n      gt\n        /* \"#utility.yul\":1434:1490   */\n      iszero\n      tag_100\n      jumpi\n        /* \"#utility.yul\":1470:1488   */\n      tag_101\n      tag_65\n      jump\t// in\n    tag_101:\n        /* \"#utility.yul\":1434:1490   */\n    tag_100:\n        /* \"#utility.yul\":1508:1537   */\n      tag_102\n        /* \"#utility.yul\":1530:1536   */\n      dup3\n        /* \"#utility.yul\":1508:1537   */\n      tag_64\n      jump\t// in\n    tag_102:\n        /* \"#utility.yul\":1500:1537   */\n      swap1\n      pop\n        /* \"#utility.yul\":1592:1596   */\n      0x20\n        /* \"#utility.yul\":1586:1590   */\n      dup2\n        /* \"#utility.yul\":1582:1597   */\n      add\n        /* \"#utility.yul\":1574:1597   */\n      swap1\n      pop\n        /* \"#utility.yul\":1296:1604   */\n      swap2\n      swap1\n      pop\n      jump\t// out\n        /* \"#utility.yul\":1610:1764   */\n    tag_69:\n        /* \"#utility.yul\":1694:1700   */\n      dup3\n        /* \"#utility.yul\":1689:1692   */\n      dup2\n        /* \"#utility.yul\":1684:1687   */\n      dup4\n        /* \"#utility.yul\":1671:1701   */\n      calldatacopy\n        /* \"#utility.yul\":1756:1757   */\n      0x00\n        /* \"#utility.yul\":1747:1753   */\n      dup4\n        /* \"#utility.yul\":1742:1745   */\n      dup4\n        /* \"#utility.yul\":1738:1754   */\n      add\n        /* \"#utility.yul\":1731:1758   */\n      mstore\n        /* \"#utility.yul\":1610:1764   */\n      pop\n      pop\n      pop\n      jump\t// out\n        /* \"#utility.yul\":1770:2182   */\n    tag_70:\n        /* \"#utility.yul\":1848:1853   */\n      0x00\n        /* \"#utility.yul\":1873:1939   */\n      tag_105\n        /* \"#utility.yul\":1889:1938   */\n      tag_106\n        /* \"#utility.yul\":1931:1937   */\n      dup5\n        /* \"#utility.yul\":1889:1938   */\n      tag_68\n      jump\t// in\n    tag_106:\n        /* \"#utility.yul\":1873:1939   */\n      tag_67\n      jump\t// in\n    tag_105:\n        /* \"#utility.yul\":1864:1939   */\n      swap1\n      pop\n        /* \"#utility.yul\":1962:1968   */\n      dup3\n        /* \"#utility.yul\":1955:1960   */\n      dup2\n        /* \"#utility.yul\":1948:1969   */\n      mstore\n        /* \"#utility.yul\":2000:2004   */\n      0x20\n        /* \"#utility.yul\":1993:1998   */\n      dup2\n        /* \"#utility.yul\":1989:2005   */\n      add\n        /* \"#utility.yul\":2038:2041   */\n      dup5\n        /* \"#utility.yul\":2029:2035   */\n      dup5\n        /* \"#utility.yul\":2024:2027   */\n      dup5\n        /* \"#utility.yul\":2020:2036   */\n      add\n        /* \"#utility.yul\":2017:2042   */\n      gt\n        /* \"#utility.yul\":2014:2126   */\n      iszero\n      tag_107\n      jumpi\n        /* \"#utility.yul\":2045:2124   */\n      tag_108\n      tag_63\n      jump\t// in\n    tag_108:\n        /* \"#utility.yul\":2014:2126   */\n    tag_107:\n        /* \"#utility.yul\":2135:2176   */\n      tag_109\n        /* \"#utility.yul\":2169:2175   */\n      dup5\n        /* \"#utility.yul\":2164:2167   */\n      dup3\n        /* \"#utility.yul\":2159:2162   */\n      dup6\n        /* \"#utility.yul\":2135:2176   */\n      tag_69\n      jump\t// in\n    tag_109:\n        /* \"#utility.yul\":1854:2182   */\n      pop\n        /* \"#utility.yul\":1770:2182   */\n      swap4\n      swap3\n      pop\n      pop\n      pop\n      jump\t// out\n        /* \"#utility.yul\":2202:2542   */\n    tag_71:\n        /* \"#utility.yul\":2258:2263   */\n      0x00\n        /* \"#utility.yul\":2307:2310   */\n      dup3\n        /* \"#utility.yul\":2300:2304   */\n      0x1f\n        /* \"#utility.yul\":2292:2298   */\n      dup4\n        /* \"#utility.yul\":2288:2305   */\n      add\n        /* \"#utility.yul\":2284:2311   */\n      slt\n        /* \"#utility.yul\":2274:2396   */\n      tag_111\n      jumpi\n        /* \"#utility.yul\":2315:2394   */\n      tag_112\n      tag_62\n      jump\t// in\n    tag_112:\n        /* \"#utility.yul\":2274:2396   */\n    tag_111:\n        /* \"#utility.yul\":2432:2438   */\n      dup2\n        /* \"#utility.yul\":2419:2439   */\n      calldataload\n        /* \"#utility.yul\":2457:2536   */\n      tag_113\n        /* \"#utility.yul\":2532:2535   */\n      dup5\n        /* \"#utility.yul\":2524:2530   */\n      dup3\n        /* \"#utility.yul\":2517:2521   */\n      0x20\n        /* \"#utility.yul\":2509:2515   */\n      dup7\n        /* \"#utility.yul\":2505:2522   */\n      add\n        /* \"#utility.yul\":2457:2536   */\n      tag_70\n      jump\t// in\n    tag_113:\n        /* \"#utility.yul\":2448:2536   */\n      swap2\n      pop\n        /* \"#utility.yul\":2264:2542   */\n      pop\n        /* \"#utility.yul\":2202:2542   */\n      swap3\n      swap2\n      pop\n      pop\n      jump\t// out\n        /* \"#utility.yul\":2548:2625   */\n    tag_72:\n        /* \"#utility.yul\":2585:2592   */\n      0x00\n        /* \"#utility.yul\":2614:2619   */\n      dup2\n        /* \"#utility.yul\":2603:2619   */\n      swap1\n      pop\n        /* \"#utility.yul\":2548:2625   */\n      swap2\n      swap1\n      pop\n      jump\t// out\n        /* \"#utility.yul\":2631:2753   */\n    tag_73:\n        /* \"#utility.yul\":2704:2728   */\n      tag_116\n        /* \"#utility.yul\":2722:2727   */\n      dup2\n        /* \"#utility.yul\":2704:2728   */\n      tag_72\n      jump\t// in\n    tag_116:\n        /* \"#utility.yul\":2697:2702   */\n      dup2\n        /* \"#utility.yul\":2694:2729   */\n      eq\n        /* \"#utility.yul\":2684:2747   */\n      tag_117\n      jumpi\n        /* \"#utility.yul\":2743:2744   */\n      0x00\n        /* \"#utility.yul\":2740:2741   */\n      dup1\n        /* \"#utility.yul\":2733:2745   */\n      revert\n        /* \"#utility.yul\":2684:2747   */\n    tag_117:\n        /* \"#utility.yul\":2631:2753   */\n      pop\n      jump\t// out\n        /* \"#utility.yul\":2759:2898   */\n    tag_74:\n        /* \"#utility.yul\":2805:2810   */\n      0x00\n        /* \"#utility.yul\":2843:2849   */\n      dup2\n        /* \"#utility.yul\":2830:2850   */\n      calldataload\n        /* \"#utility.yul\":2821:2850   */\n      swap1\n      pop\n        /* \"#utility.yul\":2859:2892   */\n      tag_119\n        /* \"#utility.yul\":2886:2891   */\n      dup2\n        /* \"#utility.yul\":2859:2892   */\n      tag_73\n      jump\t// in\n    tag_119:\n        /* \"#utility.yul\":2759:2898   */\n      swap3\n      swap2\n      pop\n      pop\n      jump\t// out\n        /* \"#utility.yul\":2904:3558   */\n    tag_10:\n        /* \"#utility.yul\":2982:2988   */\n      0x00\n        /* \"#utility.yul\":2990:2996   */\n      dup1\n        /* \"#utility.yul\":3039:3041   */\n      0x40\n        /* \"#utility.yul\":3027:3036   */\n      dup4\n        /* \"#utility.yul\":3018:3025   */\n      dup6\n        /* \"#utility.yul\":3014:3037   */\n      sub\n        /* \"#utility.yul\":3010:3042   */\n      slt\n        /* \"#utility.yul\":3007:3126   */\n      iszero\n      tag_121\n      jumpi\n        /* \"#utility.yul\":3045:3124   */\n      tag_122\n      tag_60\n      jump\t// in\n    tag_122:\n        /* \"#utility.yul\":3007:3126   */\n    tag_121:\n        /* \"#utility.yul\":3193:3194   */\n      0x00\n        /* \"#utility.yul\":3182:3191   */\n      dup4\n        /* \"#utility.yul\":3178:3195   */\n      add\n        /* \"#utility.yul\":3165:3196   */\n      calldataload\n        /* \"#utility.yul\":3223:3241   */\n      0xffffffffffffffff\n        /* \"#utility.yul\":3215:3221   */\n      dup2\n        /* \"#utility.yul\":3212:3242   */\n      gt\n        /* \"#utility.yul\":3209:3326   */\n      iszero\n      tag_123\n      jumpi\n        /* \"#utility.yul\":3245:3324   */\n      tag_124\n      tag_61\n      jump\t// in\n    tag_124:\n        /* \"#utility.yul\":3209:3326   */\n    tag_123:\n        /* \"#utility.yul\":3350:3413   */\n      tag_125\n        /* \"#utility.yul\":3405:3412   */\n      dup6\n        /* \"#utility.yul\":3396:3402   */\n      dup3\n        /* \"#utility.yul\":3385:3394   */\n      dup7\n        /* \"#utility.yul\":3381:3403   */\n      add\n        /* \"#utility.yul\":3350:3413   */\n      tag_71\n      jump\t// in\n    tag_125:\n        /* \"#utility.yul\":3340:3413   */\n      swap3\n      pop\n        /* \"#utility.yul\":3136:3423   */\n      pop\n        /* \"#utility.yul\":3462:3464   */\n      0x20\n        /* \"#utility.yul\":3488:3541   */\n      tag_126\n        /* \"#utility.yul\":3533:3540   */\n      dup6\n        /* \"#utility.yul\":3524:3530   */\n      dup3\n        /* \"#utility.yul\":3513:3522   */\n      dup7\n        /* \"#utility.yul\":3509:3531   */\n      add\n        /* \"#utility.yul\":3488:3541   */\n      tag_74\n      jump\t// in\n    tag_126:\n        /* \"#utility.yul\":3478:3541   */\n      swap2\n      pop\n        /* \"#utility.yul\":3433:3551   */\n      pop\n        /* \"#utility.yul\":2904:3558   */\n      swap3\n      pop\n      swap3\n      swap1\n      pop\n      jump\t// out\n        /* \"#utility.yul\":3564:3654   */\n    tag_75:\n        /* \"#utility.yul\":3598:3605   */\n      0x00\n        /* \"#utility.yul\":3641:3646   */\n      dup2\n        /* \"#utility.yul\":3634:3647   */\n      iszero\n        /* \"#utility.yul\":3627:3648   */\n      iszero\n        /* \"#utility.yul\":3616:3648   */\n      swap1\n      pop\n        /* \"#utility.yul\":3564:3654   */\n      swap2\n      swap1\n      pop\n      jump\t// out\n        /* \"#utility.yul\":3660:3769   */\n    tag_76:\n        /* \"#utility.yul\":3741:3762   */\n      tag_129\n        /* \"#utility.yul\":3756:3761   */\n      dup2\n        /* \"#utility.yul\":3741:3762   */\n      tag_75\n      jump\t// in\n    tag_129:\n        /* \"#utility.yul\":3736:3739   */\n      dup3\n        /* \"#utility.yul\":3729:3763   */\n      mstore\n        /* \"#utility.yul\":3660:3769   */\n      pop\n      pop\n      jump\t// out\n        /* \"#utility.yul\":3775:3985   */\n    tag_16:\n        /* \"#utility.yul\":3862:3866   */\n      0x00\n        /* \"#utility.yul\":3900:3902   */\n      0x20\n        /* \"#utility.yul\":3889:3898   */\n      dup3\n        /* \"#utility.yul\":3885:3903   */\n      add\n        /* \"#utility.yul\":3877:3903   */\n      swap1\n      pop\n        /* \"#utility.yul\":3913:3978   */\n      tag_131\n        /* \"#utility.yul\":3975:3976   */\n      0x00\n        /* \"#utility.yul\":3964:3973   */\n      dup4\n        /* \"#utility.yul\":3960:3977   */\n      add\n        /* \"#utility.yul\":3951:3957   */\n      dup5\n        /* \"#utility.yul\":3913:3978   */\n      tag_76\n      jump\t// in\n    tag_131:\n        /* \"#utility.yul\":3775:3985   */\n      swap3\n      swap2\n      pop\n      pop\n      jump\t// out\n        /* \"#utility.yul\":3991:4500   */\n    tag_19:\n        /* \"#utility.yul\":4060:4066   */\n      0x00\n        /* \"#utility.yul\":4109:4111   */\n      0x20\n        /* \"#utility.yul\":4097:4106   */\n      dup3\n        /* \"#utility.yul\":4088:4095   */\n      dup5\n        /* \"#utility.yul\":4084:4107   */\n      sub\n        /* \"#utility.yul\":4080:4112   */\n      slt\n        /* \"#utility.yul\":4077:4196   */\n      iszero\n      tag_133\n      jumpi\n        /* \"#utility.yul\":4115:4194   */\n      tag_134\n      tag_60\n      jump\t// in\n    tag_134:\n        /* \"#utility.yul\":4077:4196   */\n    tag_133:\n        /* \"#utility.yul\":4263:4264   */\n      0x00\n        /* \"#utility.yul\":4252:4261   */\n      dup3\n        /* \"#utility.yul\":4248:4265   */\n      add\n        /* \"#utility.yul\":4235:4266   */\n      calldataload\n        /* \"#utility.yul\":4293:4311   */\n      0xffffffffffffffff\n        /* \"#utility.yul\":4285:4291   */\n      dup2\n        /* \"#utility.yul\":4282:4312   */\n      gt\n        /* \"#utility.yul\":4279:4396   */\n      iszero\n      tag_135\n      jumpi\n        /* \"#utility.yul\":4315:4394   */\n      tag_136\n      tag_61\n      jump\t// in\n    tag_136:\n        /* \"#utility.yul\":4279:4396   */\n    tag_135:\n        /* \"#utility.yul\":4420:4483   */\n      tag_137\n        /* \"#utility.yul\":4475:4482   */\n      dup5\n        /* \"#utility.yul\":4466:4472   */\n      dup3\n        /* \"#utility.yul\":4455:4464   */\n      dup6\n        /* \"#utility.yul\":4451:4473   */\n      add\n        /* \"#utility.yul\":4420:4483   */\n      tag_71\n      jump\t// in\n    tag_137:\n        /* \"#utility.yul\":4410:4483   */\n      swap2\n      pop\n        /* \"#utility.yul\":4206:4493   */\n      pop\n        /* \"#utility.yul\":3991:4500   */\n      swap3\n      swap2\n      pop\n      pop\n      jump\t// out\n        /* \"#utility.yul\":4506:4624   */\n    tag_77:\n        /* \"#utility.yul\":4593:4617   */\n      tag_139\n        /* \"#utility.yul\":4611:4616   */\n      dup2\n        /* \"#utility.yul\":4593:4617   */\n      tag_72\n      jump\t// in\n    tag_139:\n        /* \"#utility.yul\":4588:4591   */\n      dup3\n        /* \"#utility.yul\":4581:4618   */\n      mstore\n        /* \"#utility.yul\":4506:4624   */\n      pop\n      pop\n      jump\t// out\n        /* \"#utility.yul\":4630:4852   */\n    tag_22:\n        /* \"#utility.yul\":4723:4727   */\n      0x00\n        /* \"#utility.yul\":4761:4763   */\n      0x20\n        /* \"#utility.yul\":4750:4759   */\n      dup3\n        /* \"#utility.yul\":4746:4764   */\n      add\n        /* \"#utility.yul\":4738:4764   */\n      swap1\n      pop\n        /* \"#utility.yul\":4774:4845   */\n      tag_141\n        /* \"#utility.yul\":4842:4843   */\n      0x00\n        /* \"#utility.yul\":4831:4840   */\n      dup4\n        /* \"#utility.yul\":4827:4844   */\n      add\n        /* \"#utility.yul\":4818:4824   */\n      dup5\n        /* \"#utility.yul\":4774:4845   */\n      tag_77\n      jump\t// in\n    tag_141:\n        /* \"#utility.yul\":4630:4852   */\n      swap3\n      swap2\n      pop\n      pop\n      jump\t// out\n        /* \"#utility.yul\":4858:4957   */\n    tag_78:\n        /* \"#utility.yul\":4910:4916   */\n      0x00\n        /* \"#utility.yul\":4944:4949   */\n      dup2\n        /* \"#utility.yul\":4938:4950   */\n      mload\n        /* \"#utility.yul\":4928:4950   */\n      swap1\n      pop\n        /* \"#utility.yul\":4858:4957   */\n      swap2\n      swap1\n      pop\n      jump\t// out\n        /* \"#utility.yul\":4963:5111   */\n    tag_79:\n        /* \"#utility.yul\":5065:5076   */\n      0x00\n        /* \"#utility.yul\":5102:5105   */\n      dup2\n        /* \"#utility.yul\":5087:5105   */\n      swap1\n      pop\n        /* \"#utility.yul\":4963:5111   */\n      swap3\n      swap2\n      pop\n      pop\n      jump\t// out\n        /* \"#utility.yul\":5117:5424   */\n    tag_80:\n        /* \"#utility.yul\":5185:5186   */\n      0x00\n        /* \"#utility.yul\":5195:5308   */\n    tag_145:\n        /* \"#utility.yul\":5209:5215   */\n      dup4\n        /* \"#utility.yul\":5206:5207   */\n      dup2\n        /* \"#utility.yul\":5203:5216   */\n      lt\n        /* \"#utility.yul\":5195:5308   */\n      iszero\n      tag_147\n      jumpi\n        /* \"#utility.yul\":5294:5295   */\n      dup1\n        /* \"#utility.yul\":5289:5292   */\n      dup3\n        /* \"#utility.yul\":5285:5296   */\n      add\n        /* \"#utility.yul\":5279:5297   */\n      mload\n        /* \"#utility.yul\":5275:5276   */\n      dup2\n        /* \"#utility.yul\":5270:5273   */\n      dup5\n        /* \"#utility.yul\":5266:5277   */\n      add\n        /* \"#utility.yul\":5259:5298   */\n      mstore\n        /* \"#utility.yul\":5231:5233   */\n      0x20\n        /* \"#utility.yul\":5228:5229   */\n      dup2\n        /* \"#utility.yul\":5224:5234   */\n      add\n        /* \"#utility.yul\":5219:5234   */\n      swap1\n      pop\n        /* \"#utility.yul\":5195:5308   */\n      jump(tag_145)\n    tag_147:\n        /* \"#utility.yul\":5326:5332   */\n      dup4\n        /* \"#utility.yul\":5323:5324   */\n      dup2\n        /* \"#utility.yul\":5320:5333   */\n      gt\n        /* \"#utility.yul\":5317:5418   */\n      iszero\n      tag_148\n      jumpi\n        /* \"#utility.yul\":5406:5407   */\n      0x00\n        /* \"#utility.yul\":5397:5403   */\n      dup5\n        /* \"#utility.yul\":5392:5395   */\n      dup5\n        /* \"#utility.yul\":5388:5404   */\n      add\n        /* \"#utility.yul\":5381:5408   */\n      mstore\n        /* \"#utility.yul\":5317:5418   */\n    tag_148:\n        /* \"#utility.yul\":5166:5424   */\n      pop\n        /* \"#utility.yul\":5117:5424   */\n      pop\n      pop\n      pop\n      jump\t// out\n        /* \"#utility.yul\":5430:5807   */\n    tag_81:\n        /* \"#utility.yul\":5536:5539   */\n      0x00\n        /* \"#utility.yul\":5564:5603   */\n      tag_150\n        /* \"#utility.yul\":5597:5602   */\n      dup3\n        /* \"#utility.yul\":5564:5603   */\n      tag_78\n      jump\t// in\n    tag_150:\n        /* \"#utility.yul\":5619:5708   */\n      tag_151\n        /* \"#utility.yul\":5701:5707   */\n      dup2\n        /* \"#utility.yul\":5696:5699   */\n      dup6\n        /* \"#utility.yul\":5619:5708   */\n      tag_79\n      jump\t// in\n    tag_151:\n        /* \"#utility.yul\":5612:5708   */\n      swap4\n      pop\n        /* \"#utility.yul\":5717:5769   */\n      tag_152\n        /* \"#utility.yul\":5762:5768   */\n      dup2\n        /* \"#utility.yul\":5757:5760   */\n      dup6\n        /* \"#utility.yul\":5750:5754   */\n      0x20\n        /* \"#utility.yul\":5743:5748   */\n      dup7\n        /* \"#utility.yul\":5739:5755   */\n      add\n        /* \"#utility.yul\":5717:5769   */\n      tag_80\n      jump\t// in\n    tag_152:\n        /* \"#utility.yul\":5794:5800   */\n      dup1\n        /* \"#utility.yul\":5789:5792   */\n      dup5\n        /* \"#utility.yul\":5785:5801   */\n      add\n        /* \"#utility.yul\":5778:5801   */\n      swap2\n      pop\n        /* \"#utility.yul\":5540:5807   */\n      pop\n        /* \"#utility.yul\":5430:5807   */\n      swap3\n      swap2\n      pop\n      pop\n      jump\t// out\n        /* \"#utility.yul\":5813:6088   */\n    tag_31:\n        /* \"#utility.yul\":5945:5948   */\n      0x00\n        /* \"#utility.yul\":5967:6062   */\n      tag_154\n        /* \"#utility.yul\":6058:6061   */\n      dup3\n        /* \"#utility.yul\":6049:6055   */\n      dup5\n        /* \"#utility.yul\":5967:6062   */\n      tag_81\n      jump\t// in\n    tag_154:\n        /* \"#utility.yul\":5960:6062   */\n      swap2\n      pop\n        /* \"#utility.yul\":6079:6082   */\n      dup2\n        /* \"#utility.yul\":6072:6082   */\n      swap1\n      pop\n        /* \"#utility.yul\":5813:6088   */\n      swap3\n      swap2\n      pop\n      pop\n      jump\t// out\n        /* \"#utility.yul\":6094:6274   */\n    tag_82:\n        /* \"#utility.yul\":6142:6219   */\n      0x4e487b7100000000000000000000000000000000000000000000000000000000\n        /* \"#utility.yul\":6139:6140   */\n      0x00\n        /* \"#utility.yul\":6132:6220   */\n      mstore\n        /* \"#utility.yul\":6239:6243   */\n      0x11\n        /* \"#utility.yul\":6236:6237   */\n      0x04\n        /* \"#utility.yul\":6229:6244   */\n      mstore\n        /* \"#utility.yul\":6263:6267   */\n      0x24\n        /* \"#utility.yul\":6260:6261   */\n      0x00\n        /* \"#utility.yul\":6253:6268   */\n      revert\n        /* \"#utility.yul\":6280:6585   */\n    tag_33:\n        /* \"#utility.yul\":6320:6323   */\n      0x00\n        /* \"#utility.yul\":6339:6359   */\n      tag_157\n        /* \"#utility.yul\":6357:6358   */\n      dup3\n        /* \"#utility.yul\":6339:6359   */\n      tag_72\n      jump\t// in\n    tag_157:\n        /* \"#utility.yul\":6334:6359   */\n      swap2\n      pop\n        /* \"#utility.yul\":6373:6393   */\n      tag_158\n        /* \"#utility.yul\":6391:6392   */\n      dup4\n        /* \"#utility.yul\":6373:6393   */\n      tag_72\n      jump\t// in\n    tag_158:\n        /* \"#utility.yul\":6368:6393   */\n      swap3\n      pop\n        /* \"#utility.yul\":6527:6528   */\n      dup3\n        /* \"#utility.yul\":6459:6525   */\n      0xffffffffffffffffffffffffffffffffffffffffffffffffffffffffffffffff\n        /* \"#utility.yul\":6455:6529   */\n      sub\n        /* \"#utility.yul\":6452:6453   */\n      dup3\n        /* \"#utility.yul\":6449:6530   */\n      gt\n        /* \"#utility.yul\":6446:6553   */\n      iszero\n      tag_159\n      jumpi\n        /* \"#utility.yul\":6533:6551   */\n      tag_160\n      tag_82\n      jump\t// in\n    tag_160:\n        /* \"#utility.yul\":6446:6553   */\n    tag_159:\n        /* \"#utility.yul\":6577:6578   */\n      dup3\n        /* \"#utility.yul\":6574:6575   */\n      dup3\n        /* \"#utility.yul\":6570:6579   */\n      add\n        /* \"#utility.yul\":6563:6579   */\n      swap1\n      pop\n        /* \"#utility.yul\":6280:6585   */\n      swap3\n      swap2\n      pop\n      pop\n      jump\t// out\n        /* \"#utility.yul\":6591:6782   */\n    tag_39:\n        /* \"#utility.yul\":6631:6635   */\n      0x00\n        /* \"#utility.yul\":6651:6671   */\n      tag_162\n        /* \"#utility.yul\":6669:6670   */\n      dup3\n        /* \"#utility.yul\":6651:6671   */\n      tag_72\n      jump\t// in\n    tag_162:\n        /* \"#utility.yul\":6646:6671   */\n      swap2\n      pop\n        /* \"#utility.yul\":6685:6705   */\n      tag_163\n        /* \"#utility.yul\":6703:6704   */\n      dup4\n        /* \"#utility.yul\":6685:6705   */\n      tag_72\n      jump\t// in\n    tag_163:\n        /* \"#utility.yul\":6680:6705   */\n      swap3\n      pop\n        /* \"#utility.yul\":6724:6725   */\n      dup3\n        /* \"#utility.yul\":6721:6722   */\n      dup3\n        /* \"#utility.yul\":6718:6726   */\n      lt\n        /* \"#utility.yul\":6715:6749   */\n      iszero\n      tag_164\n      jumpi\n        /* \"#utility.yul\":6729:6747   */\n      tag_165\n      tag_82\n      jump\t// in\n    tag_165:\n        /* \"#utility.yul\":6715:6749   */\n    tag_164:\n        /* \"#utility.yul\":6774:6775   */\n      dup3\n        /* \"#utility.yul\":6771:6772   */\n      dup3\n        /* \"#utility.yul\":6767:6776   */\n      sub\n        /* \"#utility.yul\":6759:6776   */\n      swap1\n      pop\n        /* \"#utility.yul\":6591:6782   */\n      swap3\n      swap2\n      pop\n      pop\n      jump\t// out\n        /* \"#utility.yul\":6788:6968   */\n    tag_83:\n        /* \"#utility.yul\":6836:6913   */\n      0x4e487b7100000000000000000000000000000000000000000000000000000000\n        /* \"#utility.yul\":6833:6834   */\n      0x00\n        /* \"#utility.yul\":6826:6914   */\n      mstore\n        /* \"#utility.yul\":6933:6937   */\n      0x22\n        /* \"#utility.yul\":6930:6931   */\n      0x04\n        /* \"#utility.yul\":6923:6938   */\n      mstore\n        /* \"#utility.yul\":6957:6961   */\n      0x24\n        /* \"#utility.yul\":6954:6955   */\n      0x00\n        /* \"#utility.yul\":6947:6962   */\n      revert\n        /* \"#utility.yul\":6974:7294   */\n    tag_49:\n        /* \"#utility.yul\":7018:7024   */\n      0x00\n        /* \"#utility.yul\":7055:7056   */\n      0x02\n        /* \"#utility.yul\":7049:7053   */\n      dup3\n        /* \"#utility.yul\":7045:7057   */\n      div\n        /* \"#utility.yul\":7035:7057   */\n      swap1\n      pop\n        /* \"#utility.yul\":7102:7103   */\n      0x01\n        /* \"#utility.yul\":7096:7100   */\n      dup3\n        /* \"#utility.yul\":7092:7104   */\n      and\n        /* \"#utility.yul\":7123:7141   */\n      dup1\n        /* \"#utility.yul\":7113:7194   */\n      tag_168\n      jumpi\n        /* \"#utility.yul\":7179:7183   */\n      0x7f\n        /* \"#utility.yul\":7171:7177   */\n      dup3\n        /* \"#utility.yul\":7167:7184   */\n      and\n        /* \"#utility.yul\":7157:7184   */\n      swap2\n      pop\n        /* \"#utility.yul\":7113:7194   */\n    tag_168:\n        /* \"#utility.yul\":7241:7243   */\n      0x20\n        /* \"#utility.yul\":7233:7239   */\n      dup3\n        /* \"#utility.yul\":7230:7244   */\n      lt\n        /* \"#utility.yul\":7210:7228   */\n      dup2\n        /* \"#utility.yul\":7207:7245   */\n      sub\n        /* \"#utility.yul\":7204:7288   */\n      tag_169\n      jumpi\n        /* \"#utility.yul\":7260:7278   */\n      tag_170\n      tag_83\n      jump\t// in\n    tag_170:\n        /* \"#utility.yul\":7204:7288   */\n    tag_169:\n        /* \"#utility.yul\":7025:7294   */\n      pop\n        /* \"#utility.yul\":6974:7294   */\n      swap2\n      swap1\n      pop\n      jump\t// out\n\n    auxdata: 0xa264697066735822122021fe7e6099f8f6f2b7bff4c678f4eeaeb7c84b162d91983e4c6831f498a6446864736f6c634300080d0033\n}\n",
				"bytecode": {
					"linkReferences": {},
					"object": "608060405234801561001057600080fd5b506107d3806100206000396000f3fe608060405234801561001057600080fd5b50600436106100575760003560e01c8063276a05bf1461005c5780633b5c9dc41461007857806347267990146100a857806350eacac2146100d8578063cc0ff645146100f4575b600080fd5b610076600480360381019061007191906104ee565b610110565b005b610092600480360381019061008d91906104ee565b61014c565b60405161009f9190610565565b60405180910390f35b6100c260048036038101906100bd9190610580565b6101c1565b6040516100cf91906105d8565b60405180910390f35b6100f260048036038101906100ed9190610580565b6101eb565b005b61010e60048036038101906101099190610580565b6101f7565b005b80600083604051610121919061066d565b9081526020016040518091039020600201600082825461014191906106b3565b925050819055505050565b6000808360405161015d919061066d565b90815260200160405180910390206002015482116101b65781600084604051610186919061066d565b908152602001604051809103902060020160008282546101a69190610709565b92505081905550600190506101bb565b600090505b92915050565b600080826040516101d2919061066d565b9081526020016040518091039020600201549050919050565b6101f4816101f7565b50565b60405180606001604052808281526020013373ffffffffffffffffffffffffffffffffffffffff1681526020016000815250600082604051610239919061066d565b908152602001604051809103902060008201518160000190805190602001906102639291906102bb565b5060208201518160010160006101000a81548173ffffffffffffffffffffffffffffffffffffffff021916908373ffffffffffffffffffffffffffffffffffffffff1602179055506040820151816002015590505050565b8280546102c79061076c565b90600052602060002090601f0160209004810192826102e95760008555610330565b82601f1061030257805160ff1916838001178555610330565b82800160010185558215610330579182015b8281111561032f578251825591602001919060010190610314565b5b50905061033d9190610341565b5090565b5b8082111561035a576000816000905550600101610342565b5090565b6000604051905090565b600080fd5b600080fd5b600080fd5b600080fd5b6000601f19601f8301169050919050565b7f4e487b7100000000000000000000000000000000000000000000000000000000600052604160045260246000fd5b6103c58261037c565b810181811067ffffffffffffffff821117156103e4576103e361038d565b5b80604052505050565b60006103f761035e565b905061040382826103bc565b919050565b600067ffffffffffffffff8211156104235761042261038d565b5b61042c8261037c565b9050602081019050919050565b82818337600083830152505050565b600061045b61045684610408565b6103ed565b90508281526020810184848401111561047757610476610377565b5b610482848285610439565b509392505050565b600082601f83011261049f5761049e610372565b5b81356104af848260208601610448565b91505092915050565b6000819050919050565b6104cb816104b8565b81146104d657600080fd5b50565b6000813590506104e8816104c2565b92915050565b6000806040838503121561050557610504610368565b5b600083013567ffffffffffffffff8111156105235761052261036d565b5b61052f8582860161048a565b9250506020610540858286016104d9565b9150509250929050565b60008115159050919050565b61055f8161054a565b82525050565b600060208201905061057a6000830184610556565b92915050565b60006020828403121561059657610595610368565b5b600082013567ffffffffffffffff8111156105b4576105b361036d565b5b6105c08482850161048a565b91505092915050565b6105d2816104b8565b82525050565b60006020820190506105ed60008301846105c9565b92915050565b600081519050919050565b600081905092915050565b60005b8381101561062757808201518184015260208101905061060c565b83811115610636576000848401525b50505050565b6000610647826105f3565b61065181856105fe565b9350610661818560208601610609565b80840191505092915050565b6000610679828461063c565b915081905092915050565b7f4e487b7100000000000000000000000000000000000000000000000000000000600052601160045260246000fd5b60006106be826104b8565b91506106c9836104b8565b9250827fffffffffffffffffffffffffffffffffffffffffffffffffffffffffffffffff038211156106fe576106fd610684565b5b828201905092915050565b6000610714826104b8565b915061071f836104b8565b92508282101561073257610731610684565b5b828203905092915050565b7f4e487b7100000000000000000000000000000000000000000000000000000000600052602260045260246000fd5b6000600282049050600182168061078457607f821691505b6020821081036107975761079661073d565b5b5091905056fea264697066735822122021fe7e6099f8f6f2b7bff4c678f4eeaeb7c84b162d91983e4c6831f498a6446864736f6c634300080d0033",
					"opcodes": "PUSH1 0x80 PUSH1 0x40 MSTORE CALLVALUE DUP1 ISZERO PUSH2 0x10 JUMPI PUSH1 0x0 DUP1 REVERT JUMPDEST POP PUSH2 0x7D3 DUP1 PUSH2 0x20 PUSH1 0x0 CODECOPY PUSH1 0x0 RETURN INVALID PUSH1 0x80 PUSH1 0x40 MSTORE CALLVALUE DUP1 ISZERO PUSH2 0x10 JUMPI PUSH1 0x0 DUP1 REVERT JUMPDEST POP PUSH1 0x4 CALLDATASIZE LT PUSH2 0x57 JUMPI PUSH1 0x0 CALLDATALOAD PUSH1 0xE0 SHR DUP1 PUSH4 0x276A05BF EQ PUSH2 0x5C JUMPI DUP1 PUSH4 0x3B5C9DC4 EQ PUSH2 0x78 JUMPI DUP1 PUSH4 0x47267990 EQ PUSH2 0xA8 JUMPI DUP1 PUSH4 0x50EACAC2 EQ PUSH2 0xD8 JUMPI DUP1 PUSH4 0xCC0FF645 EQ PUSH2 0xF4 JUMPI JUMPDEST PUSH1 0x0 DUP1 REVERT JUMPDEST PUSH2 0x76 PUSH1 0x4 DUP1 CALLDATASIZE SUB DUP2 ADD SWAP1 PUSH2 0x71 SWAP2 SWAP1 PUSH2 0x4EE JUMP JUMPDEST PUSH2 0x110 JUMP JUMPDEST STOP JUMPDEST PUSH2 0x92 PUSH1 0x4 DUP1 CALLDATASIZE SUB DUP2 ADD SWAP1 PUSH2 0x8D SWAP2 SWAP1 PUSH2 0x4EE JUMP JUMPDEST PUSH2 0x14C JUMP JUMPDEST PUSH1 0x40 MLOAD PUSH2 0x9F SWAP2 SWAP1 PUSH2 0x565 JUMP JUMPDEST PUSH1 0x40 MLOAD DUP1 SWAP2 SUB SWAP1 RETURN JUMPDEST PUSH2 0xC2 PUSH1 0x4 DUP1 CALLDATASIZE SUB DUP2 ADD SWAP1 PUSH2 0xBD SWAP2 SWAP1 PUSH2 0x580 JUMP JUMPDEST PUSH2 0x1C1 JUMP JUMPDEST PUSH1 0x40 MLOAD PUSH2 0xCF SWAP2 SWAP1 PUSH2 0x5D8 JUMP JUMPDEST PUSH1 0x40 MLOAD DUP1 SWAP2 SUB SWAP1 RETURN JUMPDEST PUSH2 0xF2 PUSH1 0x4 DUP1 CALLDATASIZE SUB DUP2 ADD SWAP1 PUSH2 0xED SWAP2 SWAP1 PUSH2 0x580 JUMP JUMPDEST PUSH2 0x1EB JUMP JUMPDEST STOP JUMPDEST PUSH2 0x10E PUSH1 0x4 DUP1 CALLDATASIZE SUB DUP2 ADD SWAP1 PUSH2 0x109 SWAP2 SWAP1 PUSH2 0x580 JUMP JUMPDEST PUSH2 0x1F7 JUMP JUMPDEST STOP JUMPDEST DUP1 PUSH1 0x0 DUP4 PUSH1 0x40 MLOAD PUSH2 0x121 SWAP2 SWAP1 PUSH2 0x66D JUMP JUMPDEST SWAP1 DUP2 MSTORE PUSH1 0x20 ADD PUSH1 0x40 MLOAD DUP1 SWAP2 SUB SWAP1 KECCAK256 PUSH1 0x2 ADD PUSH1 0x0 DUP3 DUP3 SLOAD PUSH2 0x141 SWAP2 SWAP1 PUSH2 0x6B3 JUMP JUMPDEST SWAP3 POP POP DUP2 SWAP1 SSTORE POP POP POP JUMP JUMPDEST PUSH1 0x0 DUP1 DUP4 PUSH1 0x40 MLOAD PUSH2 0x15D SWAP2 SWAP1 PUSH2 0x66D JUMP JUMPDEST SWAP1 DUP2 MSTORE PUSH1 0x20 ADD PUSH1 0x40 MLOAD DUP1 SWAP2 SUB SWAP1 KECCAK256 PUSH1 0x2 ADD SLOAD DUP3 GT PUSH2 0x1B6 JUMPI DUP2 PUSH1 0x0 DUP5 PUSH1 0x40 MLOAD PUSH2 0x186 SWAP2 SWAP1 PUSH2 0x66D JUMP JUMPDEST SWAP1 DUP2 MSTORE PUSH1 0x20 ADD PUSH1 0x40 MLOAD DUP1 SWAP2 SUB SWAP1 KECCAK256 PUSH1 0x2 ADD PUSH1 0x0 DUP3 DUP3 SLOAD PUSH2 0x1A6 SWAP2 SWAP1 PUSH2 0x709 JUMP JUMPDEST SWAP3 POP POP DUP2 SWAP1 SSTORE POP PUSH1 0x1 SWAP1 POP PUSH2 0x1BB JUMP JUMPDEST PUSH1 0x0 SWAP1 POP JUMPDEST SWAP3 SWAP2 POP POP JUMP JUMPDEST PUSH1 0x0 DUP1 DUP3 PUSH1 0x40 MLOAD PUSH2 0x1D2 SWAP2 SWAP1 PUSH2 0x66D JUMP JUMPDEST SWAP1 DUP2 MSTORE PUSH1 0x20 ADD PUSH1 0x40 MLOAD DUP1 SWAP2 SUB SWAP1 KECCAK256 PUSH1 0x2 ADD SLOAD SWAP1 POP SWAP2 SWAP1 POP JUMP JUMPDEST PUSH2 0x1F4 DUP2 PUSH2 0x1F7 JUMP JUMPDEST POP JUMP JUMPDEST PUSH1 0x40 MLOAD DUP1 PUSH1 0x60 ADD PUSH1 0x40 MSTORE DUP1 DUP3 DUP2 MSTORE PUSH1 0x20 ADD CALLER PUSH20 0xFFFFFFFFFFFFFFFFFFFFFFFFFFFFFFFFFFFFFFFF AND DUP2 MSTORE PUSH1 0x20 ADD PUSH1 0x0 DUP2 MSTORE POP PUSH1 0x0 DUP3 PUSH1 0x40 MLOAD PUSH2 0x239 SWAP2 SWAP1 PUSH2 0x66D JUMP JUMPDEST SWAP1 DUP2 MSTORE PUSH1 0x20 ADD PUSH1 0x40 MLOAD DUP1 SWAP2 SUB SWAP1 KECCAK256 PUSH1 0x0 DUP3 ADD MLOAD DUP2 PUSH1 0x0 ADD SWAP1 DUP1 MLOAD SWAP1 PUSH1 0x20 ADD SWAP1 PUSH2 0x263 SWAP3 SWAP2 SWAP1 PUSH2 0x2BB JUMP JUMPDEST POP PUSH1 0x20 DUP3 ADD MLOAD DUP2 PUSH1 0x1 ADD PUSH1 0x0 PUSH2 0x100 EXP DUP2 SLOAD DUP2 PUSH20 0xFFFFFFFFFFFFFFFFFFFFFFFFFFFFFFFFFFFFFFFF MUL NOT AND SWAP1 DUP4 PUSH20 0xFFFFFFFFFFFFFFFFFFFFFFFFFFFFFFFFFFFFFFFF AND MUL OR SWAP1 SSTORE POP PUSH1 0x40 DUP3 ADD MLOAD DUP2 PUSH1 0x2 ADD SSTORE SWAP1 POP POP POP JUMP JUMPDEST DUP3 DUP1 SLOAD PUSH2 0x2C7 SWAP1 PUSH2 0x76C JUMP JUMPDEST SWAP1 PUSH1 0x0 MSTORE PUSH1 0x20 PUSH1 0x0 KECCAK256 SWAP1 PUSH1 0x1F ADD PUSH1 0x20 SWAP1 DIV DUP2 ADD SWAP3 DUP3 PUSH2 0x2E9 JUMPI PUSH1 0x0 DUP6 SSTORE PUSH2 0x330 JUMP JUMPDEST DUP3 PUSH1 0x1F LT PUSH2 0x302 JUMPI DUP1 MLOAD PUSH1 0xFF NOT AND DUP4 DUP1 ADD OR DUP6 SSTORE PUSH2 0x330 JUMP JUMPDEST DUP3 DUP1 ADD PUSH1 0x1 ADD DUP6 SSTORE DUP3 ISZERO PUSH2 0x330 JUMPI SWAP2 DUP3 ADD JUMPDEST DUP3 DUP2 GT ISZERO PUSH2 0x32F JUMPI DUP3 MLOAD DUP3 SSTORE SWAP2 PUSH1 0x20 ADD SWAP2 SWAP1 PUSH1 0x1 ADD SWAP1 PUSH2 0x314 JUMP JUMPDEST JUMPDEST POP SWAP1 POP PUSH2 0x33D SWAP2 SWAP1 PUSH2 0x341 JUMP JUMPDEST POP SWAP1 JUMP JUMPDEST JUMPDEST DUP1 DUP3 GT ISZERO PUSH2 0x35A JUMPI PUSH1 0x0 DUP2 PUSH1 0x0 SWAP1 SSTORE POP PUSH1 0x1 ADD PUSH2 0x342 JUMP JUMPDEST POP SWAP1 JUMP JUMPDEST PUSH1 0x0 PUSH1 0x40 MLOAD SWAP1 POP SWAP1 JUMP JUMPDEST PUSH1 0x0 DUP1 REVERT JUMPDEST PUSH1 0x0 DUP1 REVERT JUMPDEST PUSH1 0x0 DUP1 REVERT JUMPDEST PUSH1 0x0 DUP1 REVERT JUMPDEST PUSH1 0x0 PUSH1 0x1F NOT PUSH1 0x1F DUP4 ADD AND SWAP1 POP SWAP2 SWAP1 POP JUMP JUMPDEST PUSH32 0x4E487B7100000000000000000000000000000000000000000000000000000000 PUSH1 0x0 MSTORE PUSH1 0x41 PUSH1 0x4 MSTORE PUSH1 0x24 PUSH1 0x0 REVERT JUMPDEST PUSH2 0x3C5 DUP3 PUSH2 0x37C JUMP JUMPDEST DUP2 ADD DUP2 DUP2 LT PUSH8 0xFFFFFFFFFFFFFFFF DUP3 GT OR ISZERO PUSH2 0x3E4 JUMPI PUSH2 0x3E3 PUSH2 0x38D JUMP JUMPDEST JUMPDEST DUP1 PUSH1 0x40 MSTORE POP POP POP JUMP JUMPDEST PUSH1 0x0 PUSH2 0x3F7 PUSH2 0x35E JUMP JUMPDEST SWAP1 POP PUSH2 0x403 DUP3 DUP3 PUSH2 0x3BC JUMP JUMPDEST SWAP2 SWAP1 POP JUMP JUMPDEST PUSH1 0x0 PUSH8 0xFFFFFFFFFFFFFFFF DUP3 GT ISZERO PUSH2 0x423 JUMPI PUSH2 0x422 PUSH2 0x38D JUMP JUMPDEST JUMPDEST PUSH2 0x42C DUP3 PUSH2 0x37C JUMP JUMPDEST SWAP1 POP PUSH1 0x20 DUP2 ADD SWAP1 POP SWAP2 SWAP1 POP JUMP JUMPDEST DUP3 DUP2 DUP4 CALLDATACOPY PUSH1 0x0 DUP4 DUP4 ADD MSTORE POP POP POP JUMP JUMPDEST PUSH1 0x0 PUSH2 0x45B PUSH2 0x456 DUP5 PUSH2 0x408 JUMP JUMPDEST PUSH2 0x3ED JUMP JUMPDEST SWAP1 POP DUP3 DUP2 MSTORE PUSH1 0x20 DUP2 ADD DUP5 DUP5 DUP5 ADD GT ISZERO PUSH2 0x477 JUMPI PUSH2 0x476 PUSH2 0x377 JUMP JUMPDEST JUMPDEST PUSH2 0x482 DUP5 DUP3 DUP6 PUSH2 0x439 JUMP JUMPDEST POP SWAP4 SWAP3 POP POP POP JUMP JUMPDEST PUSH1 0x0 DUP3 PUSH1 0x1F DUP4 ADD SLT PUSH2 0x49F JUMPI PUSH2 0x49E PUSH2 0x372 JUMP JUMPDEST JUMPDEST DUP2 CALLDATALOAD PUSH2 0x4AF DUP5 DUP3 PUSH1 0x20 DUP7 ADD PUSH2 0x448 JUMP JUMPDEST SWAP2 POP POP SWAP3 SWAP2 POP POP JUMP JUMPDEST PUSH1 0x0 DUP2 SWAP1 POP SWAP2 SWAP1 POP JUMP JUMPDEST PUSH2 0x4CB DUP2 PUSH2 0x4B8 JUMP JUMPDEST DUP2 EQ PUSH2 0x4D6 JUMPI PUSH1 0x0 DUP1 REVERT JUMPDEST POP JUMP JUMPDEST PUSH1 0x0 DUP2 CALLDATALOAD SWAP1 POP PUSH2 0x4E8 DUP2 PUSH2 0x4C2 JUMP JUMPDEST SWAP3 SWAP2 POP POP JUMP JUMPDEST PUSH1 0x0 DUP1 PUSH1 0x40 DUP4 DUP6 SUB SLT ISZERO PUSH2 0x505 JUMPI PUSH2 0x504 PUSH2 0x368 JUMP JUMPDEST JUMPDEST PUSH1 0x0 DUP4 ADD CALLDATALOAD PUSH8 0xFFFFFFFFFFFFFFFF DUP2 GT ISZERO PUSH2 0x523 JUMPI PUSH2 0x522 PUSH2 0x36D JUMP JUMPDEST JUMPDEST PUSH2 0x52F DUP6 DUP3 DUP7 ADD PUSH2 0x48A JUMP JUMPDEST SWAP3 POP POP PUSH1 0x20 PUSH2 0x540 DUP6 DUP3 DUP7 ADD PUSH2 0x4D9 JUMP JUMPDEST SWAP2 POP POP SWAP3 POP SWAP3 SWAP1 POP JUMP JUMPDEST PUSH1 0x0 DUP2 ISZERO ISZERO SWAP1 POP SWAP2 SWAP1 POP JUMP JUMPDEST PUSH2 0x55F DUP2 PUSH2 0x54A JUMP JUMPDEST DUP3 MSTORE POP POP JUMP JUMPDEST PUSH1 0x0 PUSH1 0x20 DUP3 ADD SWAP1 POP PUSH2 0x57A PUSH1 0x0 DUP4 ADD DUP5 PUSH2 0x556 JUMP JUMPDEST SWAP3 SWAP2 POP POP JUMP JUMPDEST PUSH1 0x0 PUSH1 0x20 DUP3 DUP5 SUB SLT ISZERO PUSH2 0x596 JUMPI PUSH2 0x595 PUSH2 0x368 JUMP JUMPDEST JUMPDEST PUSH1 0x0 DUP3 ADD CALLDATALOAD PUSH8 0xFFFFFFFFFFFFFFFF DUP2 GT ISZERO PUSH2 0x5B4 JUMPI PUSH2 0x5B3 PUSH2 0x36D JUMP JUMPDEST JUMPDEST PUSH2 0x5C0 DUP5 DUP3 DUP6 ADD PUSH2 0x48A JUMP JUMPDEST SWAP2 POP POP SWAP3 SWAP2 POP POP JUMP JUMPDEST PUSH2 0x5D2 DUP2 PUSH2 0x4B8 JUMP JUMPDEST DUP3 MSTORE POP POP JUMP JUMPDEST PUSH1 0x0 PUSH1 0x20 DUP3 ADD SWAP1 POP PUSH2 0x5ED PUSH1 0x0 DUP4 ADD DUP5 PUSH2 0x5C9 JUMP JUMPDEST SWAP3 SWAP2 POP POP JUMP JUMPDEST PUSH1 0x0 DUP2 MLOAD SWAP1 POP SWAP2 SWAP1 POP JUMP JUMPDEST PUSH1 0x0 DUP2 SWAP1 POP SWAP3 SWAP2 POP POP JUMP JUMPDEST PUSH1 0x0 JUMPDEST DUP4 DUP2 LT ISZERO PUSH2 0x627 JUMPI DUP1 DUP3 ADD MLOAD DUP2 DUP5 ADD MSTORE PUSH1 0x20 DUP2 ADD SWAP1 POP PUSH2 0x60C JUMP JUMPDEST DUP4 DUP2 GT ISZERO PUSH2 0x636 JUMPI PUSH1 0x0 DUP5 DUP5 ADD MSTORE JUMPDEST POP POP POP POP JUMP JUMPDEST PUSH1 0x0 PUSH2 0x647 DUP3 PUSH2 0x5F3 JUMP JUMPDEST PUSH2 0x651 DUP2 DUP6 PUSH2 0x5FE JUMP JUMPDEST SWAP4 POP PUSH2 0x661 DUP2 DUP6 PUSH1 0x20 DUP7 ADD PUSH2 0x609 JUMP JUMPDEST DUP1 DUP5 ADD SWAP2 POP POP SWAP3 SWAP2 POP POP JUMP JUMPDEST PUSH1 0x0 PUSH2 0x679 DUP3 DUP5 PUSH2 0x63C JUMP JUMPDEST SWAP2 POP DUP2 SWAP1 POP SWAP3 SWAP2 POP POP JUMP JUMPDEST PUSH32 0x4E487B7100000000000000000000000000000000000000000000000000000000 PUSH1 0x0 MSTORE PUSH1 0x11 PUSH1 0x4 MSTORE PUSH1 0x24 PUSH1 0x0 REVERT JUMPDEST PUSH1 0x0 PUSH2 0x6BE DUP3 PUSH2 0x4B8 JUMP JUMPDEST SWAP2 POP PUSH2 0x6C9 DUP4 PUSH2 0x4B8 JUMP JUMPDEST SWAP3 POP DUP3 PUSH32 0xFFFFFFFFFFFFFFFFFFFFFFFFFFFFFFFFFFFFFFFFFFFFFFFFFFFFFFFFFFFFFFFF SUB DUP3 GT ISZERO PUSH2 0x6FE JUMPI PUSH2 0x6FD PUSH2 0x684 JUMP JUMPDEST JUMPDEST DUP3 DUP3 ADD SWAP1 POP SWAP3 SWAP2 POP POP JUMP JUMPDEST PUSH1 0x0 PUSH2 0x714 DUP3 PUSH2 0x4B8 JUMP JUMPDEST SWAP2 POP PUSH2 0x71F DUP4 PUSH2 0x4B8 JUMP JUMPDEST SWAP3 POP DUP3 DUP3 LT ISZERO PUSH2 0x732 JUMPI PUSH2 0x731 PUSH2 0x684 JUMP JUMPDEST JUMPDEST DUP3 DUP3 SUB SWAP1 POP SWAP3 SWAP2 POP POP JUMP JUMPDEST PUSH32 0x4E487B7100000000000000000000000000000000000000000000000000000000 PUSH1 0x0 MSTORE PUSH1 0x22 PUSH1 0x4 MSTORE PUSH1 0x24 PUSH1 0x0 REVERT JUMPDEST PUSH1 0x0 PUSH1 0x2 DUP3 DIV SWAP1 POP PUSH1 0x1 DUP3 AND DUP1 PUSH2 0x784 JUMPI PUSH1 0x7F DUP3 AND SWAP2 POP JUMPDEST PUSH1 0x20 DUP3 LT DUP2 SUB PUSH2 0x797 JUMPI PUSH2 0x796 PUSH2 0x73D JUMP JUMPDEST JUMPDEST POP SWAP2 SWAP1 POP JUMP INVALID LOG2 PUSH5 0x6970667358 0x22 SLT KECCAK256 0x21 INVALID PUSH31 0x6099F8F6F2B7BFF4C678F4EEAEB7C84B162D91983E4C6831F498A644686473 PUSH16 0x6C634300080D00330000000000000000 "
				},
				"gasEstimates": {
					"creation": {
						"codeDepositCost": "400600",
						"executionCost": "436",
						"totalCost": "401036"
					},
					"external": {
						"consultarDinero(string)": "infinite",
						"crearCliente(string)": "infinite",
						"ingresarDinero(string,uint256)": "infinite",
						"nuevoCliente(string)": "infinite",
						"retirarDinero(string,uint256)": "infinite"
					}
				},
				"methodIdentifiers": {
					"consultarDinero(string)": "47267990",
					"crearCliente(string)": "50eacac2",
					"ingresarDinero(string,uint256)": "276a05bf",
					"nuevoCliente(string)": "cc0ff645",
					"retirarDinero(string,uint256)": "3b5c9dc4"
				}
			},
			"storageLayout": {
				"storage": [
					{
						"astId": 13,
						"contract": "Interactuando con varios smart contracts/Herencia.sol:Cliente",
						"label": "clientes",
						"offset": 0,
						"slot": "0",
						"type": "t_mapping(t_string_memory_ptr,t_struct(Cliente)8_storage)"
					}
				],
				"types": {
					"t_address": {
						"encoding": "inplace",
						"label": "address",
						"numberOfBytes": "20"
					},
					"t_mapping(t_string_memory_ptr,t_struct(Cliente)8_storage)": {
						"encoding": "mapping",
						"key": "t_string_memory_ptr",
						"label": "mapping(string => struct Banco.Cliente)",
						"numberOfBytes": "32",
						"value": "t_struct(Cliente)8_storage"
					},
					"t_string_memory_ptr": {
						"encoding": "bytes",
						"label": "string",
						"numberOfBytes": "32"
					},
					"t_string_storage": {
						"encoding": "bytes",
						"label": "string",
						"numberOfBytes": "32"
					},
					"t_struct(Cliente)8_storage": {
						"encoding": "inplace",
						"label": "struct Banco.Cliente",
						"members": [
							{
								"astId": 3,
								"contract": "Interactuando con varios smart contracts/Herencia.sol:Cliente",
								"label": "nombre",
								"offset": 0,
								"slot": "0",
								"type": "t_string_storage"
							},
							{
								"astId": 5,
								"contract": "Interactuando con varios smart contracts/Herencia.sol:Cliente",
								"label": "direccion",
								"offset": 0,
								"slot": "1",
								"type": "t_address"
							},
							{
								"astId": 7,
								"contract": "Interactuando con varios smart contracts/Herencia.sol:Cliente",
								"label": "dinero",
								"offset": 0,
								"slot": "2",
								"type": "t_uint256"
							}
						],
						"numberOfBytes": "96"
					},
					"t_uint256": {
						"encoding": "inplace",
						"label": "uint256",
						"numberOfBytes": "32"
					}
				}
			},
			"userdoc": {
				"kind": "user",
				"methods": {},
				"version": 1
			}
		}
	}
}