{
	"data": {
		"bytecode": {
			"linkReferences": {},
			"object": "608060405260008060016101000a81548160ff0219169083600381111561002257fe5b021790555034801561003357600080fd5b50610337806100436000396000f3fe608060405234801561001057600080fd5b506004361061009e5760003560e01c8063902a641b11610066578063902a641b1461013f578063943fad7f14610149578063b46e8d1a14610153578063daf4343f1461017f578063e7260f9a146101895761009e565b80631b92fd22146100a35780632b38329b146100cf5780633e5f5fa8146100fd578063862b71291461012b5780638a60839f14610135575b600080fd5b6100ab610193565b604051808260038111156100bb57fe5b60ff16815260200191505060405180910390f35b6100fb600480360360208110156100e557600080fd5b81019080803590602001909291905050506101a9565b005b6101296004803603602081101561011357600080fd5b81019080803590602001909291905050506101d9565b005b61013361020a565b005b61013d61022f565b005b610147610255565b005b61015161027a565b005b61015b6102a0565b6040518082600181111561016b57fe5b60ff16815260200191505060405180910390f35b6101876102b6565b005b6101916102dc565b005b60008060019054906101000a900460ff16905090565b8060018111156101b557fe5b6000806101000a81548160ff021916908360018111156101d157fe5b021790555050565b8060038111156101e557fe5b600060016101000a81548160ff0219169083600381111561020257fe5b021790555050565b60016000806101000a81548160ff0219169083600181111561022857fe5b0217905550565b6002600060016101000a81548160ff0219169083600381111561024e57fe5b0217905550565b60008060006101000a81548160ff0219169083600181111561027357fe5b0217905550565b6003600060016101000a81548160ff0219169083600381111561029957fe5b0217905550565b60008060009054906101000a900460ff16905090565b6001600060016101000a81548160ff021916908360038111156102d557fe5b0217905550565b60008060016101000a81548160ff021916908360038111156102fa57fe5b021790555056fea26469706673582212200ccb6a52154d377833c9e5fbe5f98e0f1a80ebde5068c99fcda632706eff415d64736f6c63430006050033",
			"opcodes": "PUSH1 0x80 PUSH1 0x40 MSTORE PUSH1 0x0 DUP1 PUSH1 0x1 PUSH2 0x100 EXP DUP2 SLOAD DUP2 PUSH1 0xFF MUL NOT AND SWAP1 DUP4 PUSH1 0x3 DUP2 GT ISZERO PUSH2 0x22 JUMPI INVALID JUMPDEST MUL OR SWAP1 SSTORE POP CALLVALUE DUP1 ISZERO PUSH2 0x33 JUMPI PUSH1 0x0 DUP1 REVERT JUMPDEST POP PUSH2 0x337 DUP1 PUSH2 0x43 PUSH1 0x0 CODECOPY PUSH1 0x0 RETURN INVALID PUSH1 0x80 PUSH1 0x40 MSTORE CALLVALUE DUP1 ISZERO PUSH2 0x10 JUMPI PUSH1 0x0 DUP1 REVERT JUMPDEST POP PUSH1 0x4 CALLDATASIZE LT PUSH2 0x9E JUMPI PUSH1 0x0 CALLDATALOAD PUSH1 0xE0 SHR DUP1 PUSH4 0x902A641B GT PUSH2 0x66 JUMPI DUP1 PUSH4 0x902A641B EQ PUSH2 0x13F JUMPI DUP1 PUSH4 0x943FAD7F EQ PUSH2 0x149 JUMPI DUP1 PUSH4 0xB46E8D1A EQ PUSH2 0x153 JUMPI DUP1 PUSH4 0xDAF4343F EQ PUSH2 0x17F JUMPI DUP1 PUSH4 0xE7260F9A EQ PUSH2 0x189 JUMPI PUSH2 0x9E JUMP JUMPDEST DUP1 PUSH4 0x1B92FD22 EQ PUSH2 0xA3 JUMPI DUP1 PUSH4 0x2B38329B EQ PUSH2 0xCF JUMPI DUP1 PUSH4 0x3E5F5FA8 EQ PUSH2 0xFD JUMPI DUP1 PUSH4 0x862B7129 EQ PUSH2 0x12B JUMPI DUP1 PUSH4 0x8A60839F EQ PUSH2 0x135 JUMPI JUMPDEST PUSH1 0x0 DUP1 REVERT JUMPDEST PUSH2 0xAB PUSH2 0x193 JUMP JUMPDEST PUSH1 0x40 MLOAD DUP1 DUP3 PUSH1 0x3 DUP2 GT ISZERO PUSH2 0xBB JUMPI INVALID JUMPDEST PUSH1 0xFF AND DUP2 MSTORE PUSH1 0x20 ADD SWAP2 POP POP PUSH1 0x40 MLOAD DUP1 SWAP2 SUB SWAP1 RETURN JUMPDEST PUSH2 0xFB PUSH1 0x4 DUP1 CALLDATASIZE SUB PUSH1 0x20 DUP2 LT ISZERO PUSH2 0xE5 JUMPI PUSH1 0x0 DUP1 REVERT JUMPDEST DUP2 ADD SWAP1 DUP1 DUP1 CALLDATALOAD SWAP1 PUSH1 0x20 ADD SWAP1 SWAP3 SWAP2 SWAP1 POP POP POP PUSH2 0x1A9 JUMP JUMPDEST STOP JUMPDEST PUSH2 0x129 PUSH1 0x4 DUP1 CALLDATASIZE SUB PUSH1 0x20 DUP2 LT ISZERO PUSH2 0x113 JUMPI PUSH1 0x0 DUP1 REVERT JUMPDEST DUP2 ADD SWAP1 DUP1 DUP1 CALLDATALOAD SWAP1 PUSH1 0x20 ADD SWAP1 SWAP3 SWAP2 SWAP1 POP POP POP PUSH2 0x1D9 JUMP JUMPDEST STOP JUMPDEST PUSH2 0x133 PUSH2 0x20A JUMP JUMPDEST STOP JUMPDEST PUSH2 0x13D PUSH2 0x22F JUMP JUMPDEST STOP JUMPDEST PUSH2 0x147 PUSH2 0x255 JUMP JUMPDEST STOP JUMPDEST PUSH2 0x151 PUSH2 0x27A JUMP JUMPDEST STOP JUMPDEST PUSH2 0x15B PUSH2 0x2A0 JUMP JUMPDEST PUSH1 0x40 MLOAD DUP1 DUP3 PUSH1 0x1 DUP2 GT ISZERO PUSH2 0x16B JUMPI INVALID JUMPDEST PUSH1 0xFF AND DUP2 MSTORE PUSH1 0x20 ADD SWAP2 POP POP PUSH1 0x40 MLOAD DUP1 SWAP2 SUB SWAP1 RETURN JUMPDEST PUSH2 0x187 PUSH2 0x2B6 JUMP JUMPDEST STOP JUMPDEST PUSH2 0x191 PUSH2 0x2DC JUMP JUMPDEST STOP JUMPDEST PUSH1 0x0 DUP1 PUSH1 0x1 SWAP1 SLOAD SWAP1 PUSH2 0x100 EXP SWAP1 DIV PUSH1 0xFF AND SWAP1 POP SWAP1 JUMP JUMPDEST DUP1 PUSH1 0x1 DUP2 GT ISZERO PUSH2 0x1B5 JUMPI INVALID JUMPDEST PUSH1 0x0 DUP1 PUSH2 0x100 EXP DUP2 SLOAD DUP2 PUSH1 0xFF MUL NOT AND SWAP1 DUP4 PUSH1 0x1 DUP2 GT ISZERO PUSH2 0x1D1 JUMPI INVALID JUMPDEST MUL OR SWAP1 SSTORE POP POP JUMP JUMPDEST DUP1 PUSH1 0x3 DUP2 GT ISZERO PUSH2 0x1E5 JUMPI INVALID JUMPDEST PUSH1 0x0 PUSH1 0x1 PUSH2 0x100 EXP DUP2 SLOAD DUP2 PUSH1 0xFF MUL NOT AND SWAP1 DUP4 PUSH1 0x3 DUP2 GT ISZERO PUSH2 0x202 JUMPI INVALID JUMPDEST MUL OR SWAP1 SSTORE POP POP JUMP JUMPDEST PUSH1 0x1 PUSH1 0x0 DUP1 PUSH2 0x100 EXP DUP2 SLOAD DUP2 PUSH1 0xFF MUL NOT AND SWAP1 DUP4 PUSH1 0x1 DUP2 GT ISZERO PUSH2 0x228 JUMPI INVALID JUMPDEST MUL OR SWAP1 SSTORE POP JUMP JUMPDEST PUSH1 0x2 PUSH1 0x0 PUSH1 0x1 PUSH2 0x100 EXP DUP2 SLOAD DUP2 PUSH1 0xFF MUL NOT AND SWAP1 DUP4 PUSH1 0x3 DUP2 GT ISZERO PUSH2 0x24E JUMPI INVALID JUMPDEST MUL OR SWAP1 SSTORE POP JUMP JUMPDEST PUSH1 0x0 DUP1 PUSH1 0x0 PUSH2 0x100 EXP DUP2 SLOAD DUP2 PUSH1 0xFF MUL NOT AND SWAP1 DUP4 PUSH1 0x1 DUP2 GT ISZERO PUSH2 0x273 JUMPI INVALID JUMPDEST MUL OR SWAP1 SSTORE POP JUMP JUMPDEST PUSH1 0x3 PUSH1 0x0 PUSH1 0x1 PUSH2 0x100 EXP DUP2 SLOAD DUP2 PUSH1 0xFF MUL NOT AND SWAP1 DUP4 PUSH1 0x3 DUP2 GT ISZERO PUSH2 0x299 JUMPI INVALID JUMPDEST MUL OR SWAP1 SSTORE POP JUMP JUMPDEST PUSH1 0x0 DUP1 PUSH1 0x0 SWAP1 SLOAD SWAP1 PUSH2 0x100 EXP SWAP1 DIV PUSH1 0xFF AND SWAP1 POP SWAP1 JUMP JUMPDEST PUSH1 0x1 PUSH1 0x0 PUSH1 0x1 PUSH2 0x100 EXP DUP2 SLOAD DUP2 PUSH1 0xFF MUL NOT AND SWAP1 DUP4 PUSH1 0x3 DUP2 GT ISZERO PUSH2 0x2D5 JUMPI INVALID JUMPDEST MUL OR SWAP1 SSTORE POP JUMP JUMPDEST PUSH1 0x0 DUP1 PUSH1 0x1 PUSH2 0x100 EXP DUP2 SLOAD DUP2 PUSH1 0xFF MUL NOT AND SWAP1 DUP4 PUSH1 0x3 DUP2 GT ISZERO PUSH2 0x2FA JUMPI INVALID JUMPDEST MUL OR SWAP1 SSTORE POP JUMP INVALID LOG2 PUSH5 0x6970667358 0x22 SLT KECCAK256 0xC 0xCB PUSH11 0x52154D377833C9E5FBE5F9 DUP15 0xF BYTE DUP1 0xEB 0xDE POP PUSH9 0xC99FCDA632706EFF41 0x5D PUSH5 0x736F6C6343 STOP MOD SDIV STOP CALLER "
		},
		"gasEstimates": {
			"creation": {
				"codeDepositCost": "164600",
				"executionCost": "21145",
				"totalCost": "185745"
			},
			"external": {
				"Direccion()": "1132",
				"Estado()": "1125",
				"abajo()": "21147",
				"apagar()": "21098",
				"arriba()": "21169",
				"derecha()": "21170",
				"escender()": "21031",
				"fijar_direccion(uint256)": "21236",
				"fijar_estado(uint256)": "21164",
				"izquierda()": "21103"
			}
		},
		"methodIdentifiers": {
			"Direccion()": "1b92fd22",
			"Estado()": "b46e8d1a",
			"abajo()": "daf4343f",
			"apagar()": "862b7129",
			"arriba()": "e7260f9a",
			"derecha()": "8a60839f",
			"escender()": "902a641b",
			"fijar_direccion(uint256)": "3e5f5fa8",
			"fijar_estado(uint256)": "2b38329b",
			"izquierda()": "943fad7f"
		}
	},
	"abi": [
		{
			"inputs": [],
			"name": "Direccion",
			"outputs": [
				{
					"internalType": "enum Ejemplos_enumeraciones.direcciones",
					"name": "",
					"type": "uint8"
				}
			],
			"stateMutability": "view",
			"type": "function"
		},
		{
			"inputs": [],
			"name": "Estado",
			"outputs": [
				{
					"internalType": "enum Ejemplos_enumeraciones.estado",
					"name": "",
					"type": "uint8"
				}
			],
			"stateMutability": "view",
			"type": "function"
		},
		{
			"inputs": [],
			"name": "abajo",
			"outputs": [],
			"stateMutability": "nonpayable",
			"type": "function"
		},
		{
			"inputs": [],
			"name": "apagar",
			"outputs": [],
			"stateMutability": "nonpayable",
			"type": "function"
		},
		{
			"inputs": [],
			"name": "arriba",
			"outputs": [],
			"stateMutability": "nonpayable",
			"type": "function"
		},
		{
			"inputs": [],
			"name": "derecha",
			"outputs": [],
			"stateMutability": "nonpayable",
			"type": "function"
		},
		{
			"inputs": [],
			"name": "escender",
			"outputs": [],
			"stateMutability": "nonpayable",
			"type": "function"
		},
		{
			"inputs": [
				{
					"internalType": "uint256",
					"name": "_k",
					"type": "uint256"
				}
			],
			"name": "fijar_direccion",
			"outputs": [],
			"stateMutability": "nonpayable",
			"type": "function"
		},
		{
			"inputs": [
				{
					"internalType": "uint256",
					"name": "_k",
					"type": "uint256"
				}
			],
			"name": "fijar_estado",
			"outputs": [],
			"stateMutability": "nonpayable",
			"type": "function"
		},
		{
			"inputs": [],
			"name": "izquierda",
			"outputs": [],
			"stateMutability": "nonpayable",
			"type": "function"
		}
	]
}