{
	"data": {
		"bytecode": {
			"linkReferences": {},
			"object": "608060405260206000556004600155600154600054620000209190620001a5565b60025560015460005462000035919062000202565b6003556001546000546200004a91906200026c565b6004556001546000546200005f9190620002a4565b60055560015460005462000074919062000305565b60065560015460005462000089919062000491565b6007556003600855600360095560015460005411600a60006101000a81548160ff02191690831515021790555060015460005410600a60016101000a81548160ff02191690831515021790555060095460085414600a60026101000a81548160ff02191690831515021790555060095460005414600a60036101000a81548160ff0219169083151502179055506001546000541415600a60046101000a81548160ff0219169083151502179055506001546000541015600a60056101000a81548160ff0219169083151502179055503480156200016557600080fd5b50620004e2565b6000819050919050565b7f4e487b7100000000000000000000000000000000000000000000000000000000600052601160045260246000fd5b6000620001b2826200016c565b9150620001bf836200016c565b9250827fffffffffffffffffffffffffffffffffffffffffffffffffffffffffffffffff03821115620001f757620001f662000176565b5b828201905092915050565b60006200020f826200016c565b91506200021c836200016c565b92508282101562000232576200023162000176565b5b828203905092915050565b7f4e487b7100000000000000000000000000000000000000000000000000000000600052601260045260246000fd5b600062000279826200016c565b915062000286836200016c565b9250826200029957620002986200023d565b5b828204905092915050565b6000620002b1826200016c565b9150620002be836200016c565b9250817fffffffffffffffffffffffffffffffffffffffffffffffffffffffffffffffff0483118215151615620002fa57620002f962000176565b5b828202905092915050565b600062000312826200016c565b91506200031f836200016c565b9250826200033257620003316200023d565b5b828206905092915050565b60008160011c9050919050565b6000808291508390505b60018511156200039c5780860481111562000374576200037362000176565b5b6001851615620003845780820291505b808102905062000394856200033d565b945062000354565b94509492505050565b600082620003b757600190506200048a565b81620003c757600090506200048a565b8160018114620003e05760028114620003eb5762000421565b60019150506200048a565b60ff8411156200040057620003ff62000176565b5b8360020a9150848211156200041a576200041962000176565b5b506200048a565b5060208310610133831016604e8410600b84101617156200045b5782820a90508381111562000455576200045462000176565b5b6200048a565b6200046a84848460016200034a565b9250905081840481111562000484576200048362000176565b5b81810290505b9392505050565b60006200049e826200016c565b9150620004ab836200016c565b9250620004da7fffffffffffffffffffffffffffffffffffffffffffffffffffffffffffffffff8484620003a5565b905092915050565b61052480620004f26000396000f3fe608060405234801561001057600080fd5b50600436106100ea5760003560e01c80636c3a28e11161008c578063b9e2fa3511610066578063b9e2fa351461022d578063c76218e61461024b578063e5935e3a14610269578063fa75054e14610287576100ea565b80636c3a28e1146101d35780637e7d8ec6146101f1578063899eb49c1461020f576100ea565b806340ba942c116100c857806340ba942c146101495780634417e597146101675780635507960114610185578063663bc990146101b5576100ea565b80633205f5fc146100ef5780633475a3ed1461010d578063357d49741461012b575b600080fd5b6100f76102b7565b60405161010491906103df565b60405180910390f35b6101156102bd565b60405161012291906103df565b60405180910390f35b6101336102c3565b6040516101409190610415565b60405180910390f35b6101516102d6565b60405161015e91906103df565b60405180910390f35b61016f6102dc565b60405161017c9190610415565b60405180910390f35b61019f600480360381019061019a9190610461565b6102ef565b6040516101ac9190610415565b60405180910390f35b6101bd61032a565b6040516101ca9190610415565b60405180910390f35b6101db61033d565b6040516101e891906103df565b60405180910390f35b6101f9610343565b60405161020691906103df565b60405180910390f35b610217610349565b6040516102249190610415565b60405180910390f35b61023561035c565b6040516102429190610415565b60405180910390f35b61025361036f565b60405161026091906103df565b60405180910390f35b610271610375565b60405161027e9190610415565b60405180910390f35b6102a1600480360381019061029c9190610461565b610388565b6040516102ae9190610415565b60405180910390f35b60045481565b60035481565b600a60059054906101000a900460ff1681565b60075481565b600a60049054906101000a900460ff1681565b600080600a836102ff91906104bd565b905060008114806103105750600581145b1561031f576001915050610325565b60009150505b919050565b600a60009054906101000a900460ff1681565b60065481565b60025481565b600a60019054906101000a900460ff1681565b600a60029054906101000a900460ff1681565b60055481565b600a60039054906101000a900460ff1681565b600080600a8361039891906104bd565b9050600081141580156103ac575060058114155b156103bb5760009150506103c1565b60019150505b919050565b6000819050919050565b6103d9816103c6565b82525050565b60006020820190506103f460008301846103d0565b92915050565b60008115159050919050565b61040f816103fa565b82525050565b600060208201905061042a6000830184610406565b92915050565b600080fd5b61043e816103c6565b811461044957600080fd5b50565b60008135905061045b81610435565b92915050565b60006020828403121561047757610476610430565b5b60006104858482850161044c565b91505092915050565b7f4e487b7100000000000000000000000000000000000000000000000000000000600052601260045260246000fd5b60006104c8826103c6565b91506104d3836103c6565b9250826104e3576104e261048e565b5b82820690509291505056fea2646970667358221220f17dcae745cf61fbbe19a536ae1ba0800329c8181330413f52a9b07cbf147e9a64736f6c634300080d0033",
			"opcodes": "PUSH1 0x80 PUSH1 0x40 MSTORE PUSH1 0x20 PUSH1 0x0 SSTORE PUSH1 0x4 PUSH1 0x1 SSTORE PUSH1 0x1 SLOAD PUSH1 0x0 SLOAD PUSH3 0x20 SWAP2 SWAP1 PUSH3 0x1A5 JUMP JUMPDEST PUSH1 0x2 SSTORE PUSH1 0x1 SLOAD PUSH1 0x0 SLOAD PUSH3 0x35 SWAP2 SWAP1 PUSH3 0x202 JUMP JUMPDEST PUSH1 0x3 SSTORE PUSH1 0x1 SLOAD PUSH1 0x0 SLOAD PUSH3 0x4A SWAP2 SWAP1 PUSH3 0x26C JUMP JUMPDEST PUSH1 0x4 SSTORE PUSH1 0x1 SLOAD PUSH1 0x0 SLOAD PUSH3 0x5F SWAP2 SWAP1 PUSH3 0x2A4 JUMP JUMPDEST PUSH1 0x5 SSTORE PUSH1 0x1 SLOAD PUSH1 0x0 SLOAD PUSH3 0x74 SWAP2 SWAP1 PUSH3 0x305 JUMP JUMPDEST PUSH1 0x6 SSTORE PUSH1 0x1 SLOAD PUSH1 0x0 SLOAD PUSH3 0x89 SWAP2 SWAP1 PUSH3 0x491 JUMP JUMPDEST PUSH1 0x7 SSTORE PUSH1 0x3 PUSH1 0x8 SSTORE PUSH1 0x3 PUSH1 0x9 SSTORE PUSH1 0x1 SLOAD PUSH1 0x0 SLOAD GT PUSH1 0xA PUSH1 0x0 PUSH2 0x100 EXP DUP2 SLOAD DUP2 PUSH1 0xFF MUL NOT AND SWAP1 DUP4 ISZERO ISZERO MUL OR SWAP1 SSTORE POP PUSH1 0x1 SLOAD PUSH1 0x0 SLOAD LT PUSH1 0xA PUSH1 0x1 PUSH2 0x100 EXP DUP2 SLOAD DUP2 PUSH1 0xFF MUL NOT AND SWAP1 DUP4 ISZERO ISZERO MUL OR SWAP1 SSTORE POP PUSH1 0x9 SLOAD PUSH1 0x8 SLOAD EQ PUSH1 0xA PUSH1 0x2 PUSH2 0x100 EXP DUP2 SLOAD DUP2 PUSH1 0xFF MUL NOT AND SWAP1 DUP4 ISZERO ISZERO MUL OR SWAP1 SSTORE POP PUSH1 0x9 SLOAD PUSH1 0x0 SLOAD EQ PUSH1 0xA PUSH1 0x3 PUSH2 0x100 EXP DUP2 SLOAD DUP2 PUSH1 0xFF MUL NOT AND SWAP1 DUP4 ISZERO ISZERO MUL OR SWAP1 SSTORE POP PUSH1 0x1 SLOAD PUSH1 0x0 SLOAD EQ ISZERO PUSH1 0xA PUSH1 0x4 PUSH2 0x100 EXP DUP2 SLOAD DUP2 PUSH1 0xFF MUL NOT AND SWAP1 DUP4 ISZERO ISZERO MUL OR SWAP1 SSTORE POP PUSH1 0x1 SLOAD PUSH1 0x0 SLOAD LT ISZERO PUSH1 0xA PUSH1 0x5 PUSH2 0x100 EXP DUP2 SLOAD DUP2 PUSH1 0xFF MUL NOT AND SWAP1 DUP4 ISZERO ISZERO MUL OR SWAP1 SSTORE POP CALLVALUE DUP1 ISZERO PUSH3 0x165 JUMPI PUSH1 0x0 DUP1 REVERT JUMPDEST POP PUSH3 0x4E2 JUMP JUMPDEST PUSH1 0x0 DUP2 SWAP1 POP SWAP2 SWAP1 POP JUMP JUMPDEST PUSH32 0x4E487B7100000000000000000000000000000000000000000000000000000000 PUSH1 0x0 MSTORE PUSH1 0x11 PUSH1 0x4 MSTORE PUSH1 0x24 PUSH1 0x0 REVERT JUMPDEST PUSH1 0x0 PUSH3 0x1B2 DUP3 PUSH3 0x16C JUMP JUMPDEST SWAP2 POP PUSH3 0x1BF DUP4 PUSH3 0x16C JUMP JUMPDEST SWAP3 POP DUP3 PUSH32 0xFFFFFFFFFFFFFFFFFFFFFFFFFFFFFFFFFFFFFFFFFFFFFFFFFFFFFFFFFFFFFFFF SUB DUP3 GT ISZERO PUSH3 0x1F7 JUMPI PUSH3 0x1F6 PUSH3 0x176 JUMP JUMPDEST JUMPDEST DUP3 DUP3 ADD SWAP1 POP SWAP3 SWAP2 POP POP JUMP JUMPDEST PUSH1 0x0 PUSH3 0x20F DUP3 PUSH3 0x16C JUMP JUMPDEST SWAP2 POP PUSH3 0x21C DUP4 PUSH3 0x16C JUMP JUMPDEST SWAP3 POP DUP3 DUP3 LT ISZERO PUSH3 0x232 JUMPI PUSH3 0x231 PUSH3 0x176 JUMP JUMPDEST JUMPDEST DUP3 DUP3 SUB SWAP1 POP SWAP3 SWAP2 POP POP JUMP JUMPDEST PUSH32 0x4E487B7100000000000000000000000000000000000000000000000000000000 PUSH1 0x0 MSTORE PUSH1 0x12 PUSH1 0x4 MSTORE PUSH1 0x24 PUSH1 0x0 REVERT JUMPDEST PUSH1 0x0 PUSH3 0x279 DUP3 PUSH3 0x16C JUMP JUMPDEST SWAP2 POP PUSH3 0x286 DUP4 PUSH3 0x16C JUMP JUMPDEST SWAP3 POP DUP3 PUSH3 0x299 JUMPI PUSH3 0x298 PUSH3 0x23D JUMP JUMPDEST JUMPDEST DUP3 DUP3 DIV SWAP1 POP SWAP3 SWAP2 POP POP JUMP JUMPDEST PUSH1 0x0 PUSH3 0x2B1 DUP3 PUSH3 0x16C JUMP JUMPDEST SWAP2 POP PUSH3 0x2BE DUP4 PUSH3 0x16C JUMP JUMPDEST SWAP3 POP DUP2 PUSH32 0xFFFFFFFFFFFFFFFFFFFFFFFFFFFFFFFFFFFFFFFFFFFFFFFFFFFFFFFFFFFFFFFF DIV DUP4 GT DUP3 ISZERO ISZERO AND ISZERO PUSH3 0x2FA JUMPI PUSH3 0x2F9 PUSH3 0x176 JUMP JUMPDEST JUMPDEST DUP3 DUP3 MUL SWAP1 POP SWAP3 SWAP2 POP POP JUMP JUMPDEST PUSH1 0x0 PUSH3 0x312 DUP3 PUSH3 0x16C JUMP JUMPDEST SWAP2 POP PUSH3 0x31F DUP4 PUSH3 0x16C JUMP JUMPDEST SWAP3 POP DUP3 PUSH3 0x332 JUMPI PUSH3 0x331 PUSH3 0x23D JUMP JUMPDEST JUMPDEST DUP3 DUP3 MOD SWAP1 POP SWAP3 SWAP2 POP POP JUMP JUMPDEST PUSH1 0x0 DUP2 PUSH1 0x1 SHR SWAP1 POP SWAP2 SWAP1 POP JUMP JUMPDEST PUSH1 0x0 DUP1 DUP3 SWAP2 POP DUP4 SWAP1 POP JUMPDEST PUSH1 0x1 DUP6 GT ISZERO PUSH3 0x39C JUMPI DUP1 DUP7 DIV DUP2 GT ISZERO PUSH3 0x374 JUMPI PUSH3 0x373 PUSH3 0x176 JUMP JUMPDEST JUMPDEST PUSH1 0x1 DUP6 AND ISZERO PUSH3 0x384 JUMPI DUP1 DUP3 MUL SWAP2 POP JUMPDEST DUP1 DUP2 MUL SWAP1 POP PUSH3 0x394 DUP6 PUSH3 0x33D JUMP JUMPDEST SWAP5 POP PUSH3 0x354 JUMP JUMPDEST SWAP5 POP SWAP5 SWAP3 POP POP POP JUMP JUMPDEST PUSH1 0x0 DUP3 PUSH3 0x3B7 JUMPI PUSH1 0x1 SWAP1 POP PUSH3 0x48A JUMP JUMPDEST DUP2 PUSH3 0x3C7 JUMPI PUSH1 0x0 SWAP1 POP PUSH3 0x48A JUMP JUMPDEST DUP2 PUSH1 0x1 DUP2 EQ PUSH3 0x3E0 JUMPI PUSH1 0x2 DUP2 EQ PUSH3 0x3EB JUMPI PUSH3 0x421 JUMP JUMPDEST PUSH1 0x1 SWAP2 POP POP PUSH3 0x48A JUMP JUMPDEST PUSH1 0xFF DUP5 GT ISZERO PUSH3 0x400 JUMPI PUSH3 0x3FF PUSH3 0x176 JUMP JUMPDEST JUMPDEST DUP4 PUSH1 0x2 EXP SWAP2 POP DUP5 DUP3 GT ISZERO PUSH3 0x41A JUMPI PUSH3 0x419 PUSH3 0x176 JUMP JUMPDEST JUMPDEST POP PUSH3 0x48A JUMP JUMPDEST POP PUSH1 0x20 DUP4 LT PUSH2 0x133 DUP4 LT AND PUSH1 0x4E DUP5 LT PUSH1 0xB DUP5 LT AND OR ISZERO PUSH3 0x45B JUMPI DUP3 DUP3 EXP SWAP1 POP DUP4 DUP2 GT ISZERO PUSH3 0x455 JUMPI PUSH3 0x454 PUSH3 0x176 JUMP JUMPDEST JUMPDEST PUSH3 0x48A JUMP JUMPDEST PUSH3 0x46A DUP5 DUP5 DUP5 PUSH1 0x1 PUSH3 0x34A JUMP JUMPDEST SWAP3 POP SWAP1 POP DUP2 DUP5 DIV DUP2 GT ISZERO PUSH3 0x484 JUMPI PUSH3 0x483 PUSH3 0x176 JUMP JUMPDEST JUMPDEST DUP2 DUP2 MUL SWAP1 POP JUMPDEST SWAP4 SWAP3 POP POP POP JUMP JUMPDEST PUSH1 0x0 PUSH3 0x49E DUP3 PUSH3 0x16C JUMP JUMPDEST SWAP2 POP PUSH3 0x4AB DUP4 PUSH3 0x16C JUMP JUMPDEST SWAP3 POP PUSH3 0x4DA PUSH32 0xFFFFFFFFFFFFFFFFFFFFFFFFFFFFFFFFFFFFFFFFFFFFFFFFFFFFFFFFFFFFFFFF DUP5 DUP5 PUSH3 0x3A5 JUMP JUMPDEST SWAP1 POP SWAP3 SWAP2 POP POP JUMP JUMPDEST PUSH2 0x524 DUP1 PUSH3 0x4F2 PUSH1 0x0 CODECOPY PUSH1 0x0 RETURN INVALID PUSH1 0x80 PUSH1 0x40 MSTORE CALLVALUE DUP1 ISZERO PUSH2 0x10 JUMPI PUSH1 0x0 DUP1 REVERT JUMPDEST POP PUSH1 0x4 CALLDATASIZE LT PUSH2 0xEA JUMPI PUSH1 0x0 CALLDATALOAD PUSH1 0xE0 SHR DUP1 PUSH4 0x6C3A28E1 GT PUSH2 0x8C JUMPI DUP1 PUSH4 0xB9E2FA35 GT PUSH2 0x66 JUMPI DUP1 PUSH4 0xB9E2FA35 EQ PUSH2 0x22D JUMPI DUP1 PUSH4 0xC76218E6 EQ PUSH2 0x24B JUMPI DUP1 PUSH4 0xE5935E3A EQ PUSH2 0x269 JUMPI DUP1 PUSH4 0xFA75054E EQ PUSH2 0x287 JUMPI PUSH2 0xEA JUMP JUMPDEST DUP1 PUSH4 0x6C3A28E1 EQ PUSH2 0x1D3 JUMPI DUP1 PUSH4 0x7E7D8EC6 EQ PUSH2 0x1F1 JUMPI DUP1 PUSH4 0x899EB49C EQ PUSH2 0x20F JUMPI PUSH2 0xEA JUMP JUMPDEST DUP1 PUSH4 0x40BA942C GT PUSH2 0xC8 JUMPI DUP1 PUSH4 0x40BA942C EQ PUSH2 0x149 JUMPI DUP1 PUSH4 0x4417E597 EQ PUSH2 0x167 JUMPI DUP1 PUSH4 0x55079601 EQ PUSH2 0x185 JUMPI DUP1 PUSH4 0x663BC990 EQ PUSH2 0x1B5 JUMPI PUSH2 0xEA JUMP JUMPDEST DUP1 PUSH4 0x3205F5FC EQ PUSH2 0xEF JUMPI DUP1 PUSH4 0x3475A3ED EQ PUSH2 0x10D JUMPI DUP1 PUSH4 0x357D4974 EQ PUSH2 0x12B JUMPI JUMPDEST PUSH1 0x0 DUP1 REVERT JUMPDEST PUSH2 0xF7 PUSH2 0x2B7 JUMP JUMPDEST PUSH1 0x40 MLOAD PUSH2 0x104 SWAP2 SWAP1 PUSH2 0x3DF JUMP JUMPDEST PUSH1 0x40 MLOAD DUP1 SWAP2 SUB SWAP1 RETURN JUMPDEST PUSH2 0x115 PUSH2 0x2BD JUMP JUMPDEST PUSH1 0x40 MLOAD PUSH2 0x122 SWAP2 SWAP1 PUSH2 0x3DF JUMP JUMPDEST PUSH1 0x40 MLOAD DUP1 SWAP2 SUB SWAP1 RETURN JUMPDEST PUSH2 0x133 PUSH2 0x2C3 JUMP JUMPDEST PUSH1 0x40 MLOAD PUSH2 0x140 SWAP2 SWAP1 PUSH2 0x415 JUMP JUMPDEST PUSH1 0x40 MLOAD DUP1 SWAP2 SUB SWAP1 RETURN JUMPDEST PUSH2 0x151 PUSH2 0x2D6 JUMP JUMPDEST PUSH1 0x40 MLOAD PUSH2 0x15E SWAP2 SWAP1 PUSH2 0x3DF JUMP JUMPDEST PUSH1 0x40 MLOAD DUP1 SWAP2 SUB SWAP1 RETURN JUMPDEST PUSH2 0x16F PUSH2 0x2DC JUMP JUMPDEST PUSH1 0x40 MLOAD PUSH2 0x17C SWAP2 SWAP1 PUSH2 0x415 JUMP JUMPDEST PUSH1 0x40 MLOAD DUP1 SWAP2 SUB SWAP1 RETURN JUMPDEST PUSH2 0x19F PUSH1 0x4 DUP1 CALLDATASIZE SUB DUP2 ADD SWAP1 PUSH2 0x19A SWAP2 SWAP1 PUSH2 0x461 JUMP JUMPDEST PUSH2 0x2EF JUMP JUMPDEST PUSH1 0x40 MLOAD PUSH2 0x1AC SWAP2 SWAP1 PUSH2 0x415 JUMP JUMPDEST PUSH1 0x40 MLOAD DUP1 SWAP2 SUB SWAP1 RETURN JUMPDEST PUSH2 0x1BD PUSH2 0x32A JUMP JUMPDEST PUSH1 0x40 MLOAD PUSH2 0x1CA SWAP2 SWAP1 PUSH2 0x415 JUMP JUMPDEST PUSH1 0x40 MLOAD DUP1 SWAP2 SUB SWAP1 RETURN JUMPDEST PUSH2 0x1DB PUSH2 0x33D JUMP JUMPDEST PUSH1 0x40 MLOAD PUSH2 0x1E8 SWAP2 SWAP1 PUSH2 0x3DF JUMP JUMPDEST PUSH1 0x40 MLOAD DUP1 SWAP2 SUB SWAP1 RETURN JUMPDEST PUSH2 0x1F9 PUSH2 0x343 JUMP JUMPDEST PUSH1 0x40 MLOAD PUSH2 0x206 SWAP2 SWAP1 PUSH2 0x3DF JUMP JUMPDEST PUSH1 0x40 MLOAD DUP1 SWAP2 SUB SWAP1 RETURN JUMPDEST PUSH2 0x217 PUSH2 0x349 JUMP JUMPDEST PUSH1 0x40 MLOAD PUSH2 0x224 SWAP2 SWAP1 PUSH2 0x415 JUMP JUMPDEST PUSH1 0x40 MLOAD DUP1 SWAP2 SUB SWAP1 RETURN JUMPDEST PUSH2 0x235 PUSH2 0x35C JUMP JUMPDEST PUSH1 0x40 MLOAD PUSH2 0x242 SWAP2 SWAP1 PUSH2 0x415 JUMP JUMPDEST PUSH1 0x40 MLOAD DUP1 SWAP2 SUB SWAP1 RETURN JUMPDEST PUSH2 0x253 PUSH2 0x36F JUMP JUMPDEST PUSH1 0x40 MLOAD PUSH2 0x260 SWAP2 SWAP1 PUSH2 0x3DF JUMP JUMPDEST PUSH1 0x40 MLOAD DUP1 SWAP2 SUB SWAP1 RETURN JUMPDEST PUSH2 0x271 PUSH2 0x375 JUMP JUMPDEST PUSH1 0x40 MLOAD PUSH2 0x27E SWAP2 SWAP1 PUSH2 0x415 JUMP JUMPDEST PUSH1 0x40 MLOAD DUP1 SWAP2 SUB SWAP1 RETURN JUMPDEST PUSH2 0x2A1 PUSH1 0x4 DUP1 CALLDATASIZE SUB DUP2 ADD SWAP1 PUSH2 0x29C SWAP2 SWAP1 PUSH2 0x461 JUMP JUMPDEST PUSH2 0x388 JUMP JUMPDEST PUSH1 0x40 MLOAD PUSH2 0x2AE SWAP2 SWAP1 PUSH2 0x415 JUMP JUMPDEST PUSH1 0x40 MLOAD DUP1 SWAP2 SUB SWAP1 RETURN JUMPDEST PUSH1 0x4 SLOAD DUP2 JUMP JUMPDEST PUSH1 0x3 SLOAD DUP2 JUMP JUMPDEST PUSH1 0xA PUSH1 0x5 SWAP1 SLOAD SWAP1 PUSH2 0x100 EXP SWAP1 DIV PUSH1 0xFF AND DUP2 JUMP JUMPDEST PUSH1 0x7 SLOAD DUP2 JUMP JUMPDEST PUSH1 0xA PUSH1 0x4 SWAP1 SLOAD SWAP1 PUSH2 0x100 EXP SWAP1 DIV PUSH1 0xFF AND DUP2 JUMP JUMPDEST PUSH1 0x0 DUP1 PUSH1 0xA DUP4 PUSH2 0x2FF SWAP2 SWAP1 PUSH2 0x4BD JUMP JUMPDEST SWAP1 POP PUSH1 0x0 DUP2 EQ DUP1 PUSH2 0x310 JUMPI POP PUSH1 0x5 DUP2 EQ JUMPDEST ISZERO PUSH2 0x31F JUMPI PUSH1 0x1 SWAP2 POP POP PUSH2 0x325 JUMP JUMPDEST PUSH1 0x0 SWAP2 POP POP JUMPDEST SWAP2 SWAP1 POP JUMP JUMPDEST PUSH1 0xA PUSH1 0x0 SWAP1 SLOAD SWAP1 PUSH2 0x100 EXP SWAP1 DIV PUSH1 0xFF AND DUP2 JUMP JUMPDEST PUSH1 0x6 SLOAD DUP2 JUMP JUMPDEST PUSH1 0x2 SLOAD DUP2 JUMP JUMPDEST PUSH1 0xA PUSH1 0x1 SWAP1 SLOAD SWAP1 PUSH2 0x100 EXP SWAP1 DIV PUSH1 0xFF AND DUP2 JUMP JUMPDEST PUSH1 0xA PUSH1 0x2 SWAP1 SLOAD SWAP1 PUSH2 0x100 EXP SWAP1 DIV PUSH1 0xFF AND DUP2 JUMP JUMPDEST PUSH1 0x5 SLOAD DUP2 JUMP JUMPDEST PUSH1 0xA PUSH1 0x3 SWAP1 SLOAD SWAP1 PUSH2 0x100 EXP SWAP1 DIV PUSH1 0xFF AND DUP2 JUMP JUMPDEST PUSH1 0x0 DUP1 PUSH1 0xA DUP4 PUSH2 0x398 SWAP2 SWAP1 PUSH2 0x4BD JUMP JUMPDEST SWAP1 POP PUSH1 0x0 DUP2 EQ ISZERO DUP1 ISZERO PUSH2 0x3AC JUMPI POP PUSH1 0x5 DUP2 EQ ISZERO JUMPDEST ISZERO PUSH2 0x3BB JUMPI PUSH1 0x0 SWAP2 POP POP PUSH2 0x3C1 JUMP JUMPDEST PUSH1 0x1 SWAP2 POP POP JUMPDEST SWAP2 SWAP1 POP JUMP JUMPDEST PUSH1 0x0 DUP2 SWAP1 POP SWAP2 SWAP1 POP JUMP JUMPDEST PUSH2 0x3D9 DUP2 PUSH2 0x3C6 JUMP JUMPDEST DUP3 MSTORE POP POP JUMP JUMPDEST PUSH1 0x0 PUSH1 0x20 DUP3 ADD SWAP1 POP PUSH2 0x3F4 PUSH1 0x0 DUP4 ADD DUP5 PUSH2 0x3D0 JUMP JUMPDEST SWAP3 SWAP2 POP POP JUMP JUMPDEST PUSH1 0x0 DUP2 ISZERO ISZERO SWAP1 POP SWAP2 SWAP1 POP JUMP JUMPDEST PUSH2 0x40F DUP2 PUSH2 0x3FA JUMP JUMPDEST DUP3 MSTORE POP POP JUMP JUMPDEST PUSH1 0x0 PUSH1 0x20 DUP3 ADD SWAP1 POP PUSH2 0x42A PUSH1 0x0 DUP4 ADD DUP5 PUSH2 0x406 JUMP JUMPDEST SWAP3 SWAP2 POP POP JUMP JUMPDEST PUSH1 0x0 DUP1 REVERT JUMPDEST PUSH2 0x43E DUP2 PUSH2 0x3C6 JUMP JUMPDEST DUP2 EQ PUSH2 0x449 JUMPI PUSH1 0x0 DUP1 REVERT JUMPDEST POP JUMP JUMPDEST PUSH1 0x0 DUP2 CALLDATALOAD SWAP1 POP PUSH2 0x45B DUP2 PUSH2 0x435 JUMP JUMPDEST SWAP3 SWAP2 POP POP JUMP JUMPDEST PUSH1 0x0 PUSH1 0x20 DUP3 DUP5 SUB SLT ISZERO PUSH2 0x477 JUMPI PUSH2 0x476 PUSH2 0x430 JUMP JUMPDEST JUMPDEST PUSH1 0x0 PUSH2 0x485 DUP5 DUP3 DUP6 ADD PUSH2 0x44C JUMP JUMPDEST SWAP2 POP POP SWAP3 SWAP2 POP POP JUMP JUMPDEST PUSH32 0x4E487B7100000000000000000000000000000000000000000000000000000000 PUSH1 0x0 MSTORE PUSH1 0x12 PUSH1 0x4 MSTORE PUSH1 0x24 PUSH1 0x0 REVERT JUMPDEST PUSH1 0x0 PUSH2 0x4C8 DUP3 PUSH2 0x3C6 JUMP JUMPDEST SWAP2 POP PUSH2 0x4D3 DUP4 PUSH2 0x3C6 JUMP JUMPDEST SWAP3 POP DUP3 PUSH2 0x4E3 JUMPI PUSH2 0x4E2 PUSH2 0x48E JUMP JUMPDEST JUMPDEST DUP3 DUP3 MOD SWAP1 POP SWAP3 SWAP2 POP POP JUMP INVALID LOG2 PUSH5 0x6970667358 0x22 SLT KECCAK256 CALL PUSH30 0xCAE745CF61FBBE19A536AE1BA0800329C8181330413F52A9B07CBF147E9A PUSH5 0x736F6C6343 STOP ADDMOD 0xD STOP CALLER "
		},
		"gasEstimates": {
			"creation": {
				"codeDepositCost": "263200",
				"executionCost": "infinite",
				"totalCost": "infinite"
			},
			"external": {
				"divisibilidad(uint256)": "infinite",
				"divisibilidadV2(uint256)": "infinite",
				"division()": "2453",
				"exponenciacion()": "2452",
				"multiplicacion()": "2473",
				"residuo()": "2452",
				"resta()": "2475",
				"suma()": "2474",
				"test_1()": "2560",
				"test_2()": "2588",
				"test_3()": "2543",
				"test_4()": "2587",
				"test_5()": "2566",
				"test_6()": "2589"
			}
		},
		"methodIdentifiers": {
			"divisibilidad(uint256)": "55079601",
			"divisibilidadV2(uint256)": "fa75054e",
			"division()": "3205f5fc",
			"exponenciacion()": "40ba942c",
			"multiplicacion()": "c76218e6",
			"residuo()": "6c3a28e1",
			"resta()": "3475a3ed",
			"suma()": "7e7d8ec6",
			"test_1()": "663bc990",
			"test_2()": "899eb49c",
			"test_3()": "b9e2fa35",
			"test_4()": "e5935e3a",
			"test_5()": "4417e597",
			"test_6()": "357d4974"
		}
	},
	"abi": [
		{
			"inputs": [
				{
					"internalType": "uint256",
					"name": "_k",
					"type": "uint256"
				}
			],
			"name": "divisibilidad",
			"outputs": [
				{
					"internalType": "bool",
					"name": "",
					"type": "bool"
				}
			],
			"stateMutability": "pure",
			"type": "function"
		},
		{
			"inputs": [
				{
					"internalType": "uint256",
					"name": "_k",
					"type": "uint256"
				}
			],
			"name": "divisibilidadV2",
			"outputs": [
				{
					"internalType": "bool",
					"name": "",
					"type": "bool"
				}
			],
			"stateMutability": "pure",
			"type": "function"
		},
		{
			"inputs": [],
			"name": "division",
			"outputs": [
				{
					"internalType": "uint256",
					"name": "",
					"type": "uint256"
				}
			],
			"stateMutability": "view",
			"type": "function"
		},
		{
			"inputs": [],
			"name": "exponenciacion",
			"outputs": [
				{
					"internalType": "uint256",
					"name": "",
					"type": "uint256"
				}
			],
			"stateMutability": "view",
			"type": "function"
		},
		{
			"inputs": [],
			"name": "multiplicacion",
			"outputs": [
				{
					"internalType": "uint256",
					"name": "",
					"type": "uint256"
				}
			],
			"stateMutability": "view",
			"type": "function"
		},
		{
			"inputs": [],
			"name": "residuo",
			"outputs": [
				{
					"internalType": "uint256",
					"name": "",
					"type": "uint256"
				}
			],
			"stateMutability": "view",
			"type": "function"
		},
		{
			"inputs": [],
			"name": "resta",
			"outputs": [
				{
					"internalType": "uint256",
					"name": "",
					"type": "uint256"
				}
			],
			"stateMutability": "view",
			"type": "function"
		},
		{
			"inputs": [],
			"name": "suma",
			"outputs": [
				{
					"internalType": "uint256",
					"name": "",
					"type": "uint256"
				}
			],
			"stateMutability": "view",
			"type": "function"
		},
		{
			"inputs": [],
			"name": "test_1",
			"outputs": [
				{
					"internalType": "bool",
					"name": "",
					"type": "bool"
				}
			],
			"stateMutability": "view",
			"type": "function"
		},
		{
			"inputs": [],
			"name": "test_2",
			"outputs": [
				{
					"internalType": "bool",
					"name": "",
					"type": "bool"
				}
			],
			"stateMutability": "view",
			"type": "function"
		},
		{
			"inputs": [],
			"name": "test_3",
			"outputs": [
				{
					"internalType": "bool",
					"name": "",
					"type": "bool"
				}
			],
			"stateMutability": "view",
			"type": "function"
		},
		{
			"inputs": [],
			"name": "test_4",
			"outputs": [
				{
					"internalType": "bool",
					"name": "",
					"type": "bool"
				}
			],
			"stateMutability": "view",
			"type": "function"
		},
		{
			"inputs": [],
			"name": "test_5",
			"outputs": [
				{
					"internalType": "bool",
					"name": "",
					"type": "bool"
				}
			],
			"stateMutability": "view",
			"type": "function"
		},
		{
			"inputs": [],
			"name": "test_6",
			"outputs": [
				{
					"internalType": "bool",
					"name": "",
					"type": "bool"
				}
			],
			"stateMutability": "view",
			"type": "function"
		}
	]
}