{
	"Estructuras de datos/mappings.sol": {
		"Mappings": {
			"abi": [
				{
					"inputs": [
						{
							"internalType": "string",
							"name": "_nombre",
							"type": "string"
						}
					],
					"name": "consultarDinero",
					"outputs": [
						{
							"internalType": "uint256",
							"name": "",
							"type": "uint256"
						}
					],
					"stateMutability": "view",
					"type": "function"
				},
				{
					"inputs": [],
					"name": "consultarNumero",
					"outputs": [
						{
							"internalType": "uint256",
							"name": "",
							"type": "uint256"
						}
					],
					"stateMutability": "view",
					"type": "function"
				},
				{
					"inputs": [
						{
							"internalType": "address",
							"name": "",
							"type": "address"
						}
					],
					"name": "direccion_edad",
					"outputs": [
						{
							"internalType": "uint256",
							"name": "",
							"type": "uint256"
						}
					],
					"stateMutability": "view",
					"type": "function"
				},
				{
					"inputs": [
						{
							"internalType": "uint256",
							"name": "_numero",
							"type": "uint256"
						}
					],
					"name": "elegirNumero",
					"outputs": [],
					"stateMutability": "nonpayable",
					"type": "function"
				},
				{
					"inputs": [
						{
							"internalType": "string",
							"name": "_nombre",
							"type": "string"
						},
						{
							"internalType": "uint256",
							"name": "_cantidad",
							"type": "uint256"
						}
					],
					"name": "ingresarDinero",
					"outputs": [],
					"stateMutability": "nonpayable",
					"type": "function"
				},
				{
					"inputs": [
						{
							"internalType": "uint256",
							"name": "_dni",
							"type": "uint256"
						},
						{
							"internalType": "uint256",
							"name": "_id",
							"type": "uint256"
						},
						{
							"internalType": "string",
							"name": "_nombre",
							"type": "string"
						},
						{
							"internalType": "uint256",
							"name": "_edad",
							"type": "uint256"
						}
					],
					"name": "ingresarPersona",
					"outputs": [],
					"stateMutability": "nonpayable",
					"type": "function"
				}
			],
			"devdoc": {
				"methods": {}
			},
			"evm": {
				"assembly": "    /* \"Estructuras de datos/mappings.sol\":70:1071  contract Mappings{\r... */\n  mstore(0x40, 0x80)\n  callvalue\n    /* \"--CODEGEN--\":5:14   */\n  dup1\n    /* \"--CODEGEN--\":2:4   */\n  iszero\n  tag_1\n  jumpi\n    /* \"--CODEGEN--\":27:28   */\n  0x00\n    /* \"--CODEGEN--\":24:25   */\n  dup1\n    /* \"--CODEGEN--\":17:29   */\n  revert\n    /* \"--CODEGEN--\":2:4   */\ntag_1:\n    /* \"Estructuras de datos/mappings.sol\":70:1071  contract Mappings{\r... */\n  pop\n  dataSize(sub_0)\n  dup1\n  dataOffset(sub_0)\n  0x00\n  codecopy\n  0x00\n  return\nstop\n\nsub_0: assembly {\n        /* \"Estructuras de datos/mappings.sol\":70:1071  contract Mappings{\r... */\n      mstore(0x40, 0x80)\n      callvalue\n        /* \"--CODEGEN--\":5:14   */\n      dup1\n        /* \"--CODEGEN--\":2:4   */\n      iszero\n      tag_1\n      jumpi\n        /* \"--CODEGEN--\":27:28   */\n      0x00\n        /* \"--CODEGEN--\":24:25   */\n      dup1\n        /* \"--CODEGEN--\":17:29   */\n      revert\n        /* \"--CODEGEN--\":2:4   */\n    tag_1:\n        /* \"Estructuras de datos/mappings.sol\":70:1071  contract Mappings{\r... */\n      pop\n      jumpi(tag_2, lt(calldatasize, 0x04))\n      shr(0xe0, calldataload(0x00))\n      dup1\n      0x276a05bf\n      eq\n      tag_3\n      jumpi\n      dup1\n      0x47267990\n      eq\n      tag_4\n      jumpi\n      dup1\n      0x92174b49\n      eq\n      tag_5\n      jumpi\n      dup1\n      0xd0427d5a\n      eq\n      tag_6\n      jumpi\n      dup1\n      0xe7089298\n      eq\n      tag_7\n      jumpi\n      dup1\n      0xeb001a72\n      eq\n      tag_8\n      jumpi\n    tag_2:\n        /* \"--CODEGEN--\":12:13   */\n      0x00\n        /* \"--CODEGEN--\":9:10   */\n      dup1\n        /* \"--CODEGEN--\":2:14   */\n      revert\n        /* \"Estructuras de datos/mappings.sol\":541:662  function ingresarDinero(string memory _nombre, uint _cantidad) public {\r... */\n    tag_3:\n      tag_9\n      0x04\n      dup1\n      calldatasize\n      sub\n      dup2\n      add\n      swap1\n      tag_10\n      swap2\n      swap1\n      jump(tag_11)\n    tag_10:\n      tag_12\n      jump\t// in\n    tag_9:\n      stop\n        /* \"Estructuras de datos/mappings.sol\":668:787  function consultarDinero(string memory _nombre) public view returns (uint){\r... */\n    tag_4:\n      tag_13\n      0x04\n      dup1\n      calldatasize\n      sub\n      dup2\n      add\n      swap1\n      tag_14\n      swap2\n      swap1\n      jump(tag_15)\n    tag_14:\n      tag_16\n      jump\t// in\n    tag_13:\n      mload(0x40)\n      tag_17\n      swap2\n      swap1\n      jump(tag_18)\n    tag_17:\n      mload(0x40)\n      dup1\n      swap2\n      sub\n      swap1\n      return\n        /* \"Estructuras de datos/mappings.sol\":298:397  function consultarNumero()public view returns(uint){\r... */\n    tag_5:\n      tag_19\n      tag_20\n      jump\t// in\n    tag_19:\n      mload(0x40)\n      tag_21\n      swap2\n      swap1\n      jump(tag_18)\n    tag_21:\n      mload(0x40)\n      dup1\n      swap2\n      sub\n      swap1\n      return\n        /* \"Estructuras de datos/mappings.sol\":201:292  function elegirNumero(uint _numero) public{\r... */\n    tag_6:\n      tag_22\n      0x04\n      dup1\n      calldatasize\n      sub\n      dup2\n      add\n      swap1\n      tag_23\n      swap2\n      swap1\n      jump(tag_24)\n    tag_23:\n      tag_25\n      jump\t// in\n    tag_22:\n      stop\n        /* \"Estructuras de datos/mappings.sol\":147:194  mapping (address => uint) public direccion_edad */\n    tag_7:\n      tag_26\n      0x04\n      dup1\n      calldatasize\n      sub\n      dup2\n      add\n      swap1\n      tag_27\n      swap2\n      swap1\n      jump(tag_28)\n    tag_27:\n      tag_29\n      jump\t// in\n    tag_26:\n      mload(0x40)\n      tag_30\n      swap2\n      swap1\n      jump(tag_18)\n    tag_30:\n      mload(0x40)\n      dup1\n      swap2\n      sub\n      swap1\n      return\n        /* \"Estructuras de datos/mappings.sol\":915:1063  function ingresarPersona(uint _dni, uint _id, string memory _nombre, uint _edad) public {\r... */\n    tag_8:\n      tag_31\n      0x04\n      dup1\n      calldatasize\n      sub\n      dup2\n      add\n      swap1\n      tag_32\n      swap2\n      swap1\n      jump(tag_33)\n    tag_32:\n      tag_34\n      jump\t// in\n    tag_31:\n      stop\n        /* \"Estructuras de datos/mappings.sol\":541:662  function ingresarDinero(string memory _nombre, uint _cantidad) public {\r... */\n    tag_12:\n        /* \"Estructuras de datos/mappings.sol\":646:655  _cantidad */\n      dup1\n        /* \"Estructuras de datos/mappings.sol\":620:634  cantidadDinero */\n      0x01\n        /* \"Estructuras de datos/mappings.sol\":635:642  _nombre */\n      dup4\n        /* \"Estructuras de datos/mappings.sol\":620:643  cantidadDinero[_nombre] */\n      mload(0x40)\n      tag_36\n      swap2\n      swap1\n      jump(tag_37)\n    tag_36:\n      swap1\n      dup2\n      mstore\n      0x20\n      add\n      mload(0x40)\n      dup1\n      swap2\n      sub\n      swap1\n      keccak256\n        /* \"Estructuras de datos/mappings.sol\":620:655  cantidadDinero[_nombre] = _cantidad */\n      dup2\n      swap1\n      sstore\n      pop\n        /* \"Estructuras de datos/mappings.sol\":541:662  function ingresarDinero(string memory _nombre, uint _cantidad) public {\r... */\n      pop\n      pop\n      jump\t// out\n        /* \"Estructuras de datos/mappings.sol\":668:787  function consultarDinero(string memory _nombre) public view returns (uint){\r... */\n    tag_16:\n        /* \"Estructuras de datos/mappings.sol\":737:741  uint */\n      0x00\n        /* \"Estructuras de datos/mappings.sol\":758:772  cantidadDinero */\n      0x01\n        /* \"Estructuras de datos/mappings.sol\":773:780  _nombre */\n      dup3\n        /* \"Estructuras de datos/mappings.sol\":758:781  cantidadDinero[_nombre] */\n      mload(0x40)\n      tag_39\n      swap2\n      swap1\n      jump(tag_37)\n    tag_39:\n      swap1\n      dup2\n      mstore\n      0x20\n      add\n      mload(0x40)\n      dup1\n      swap2\n      sub\n      swap1\n      keccak256\n      sload\n        /* \"Estructuras de datos/mappings.sol\":751:781  return cantidadDinero[_nombre] */\n      swap1\n      pop\n        /* \"Estructuras de datos/mappings.sol\":668:787  function consultarDinero(string memory _nombre) public view returns (uint){\r... */\n      swap2\n      swap1\n      pop\n      jump\t// out\n        /* \"Estructuras de datos/mappings.sol\":298:397  function consultarNumero()public view returns(uint){\r... */\n    tag_20:\n        /* \"Estructuras de datos/mappings.sol\":344:348  uint */\n      0x00\n        /* \"Estructuras de datos/mappings.sol\":365:379  direccion_edad */\n      dup1\n        /* \"Estructuras de datos/mappings.sol\":365:391  direccion_edad[msg.sender] */\n      0x00\n        /* \"Estructuras de datos/mappings.sol\":380:390  msg.sender */\n      caller\n        /* \"Estructuras de datos/mappings.sol\":365:391  direccion_edad[msg.sender] */\n      0xffffffffffffffffffffffffffffffffffffffff\n      and\n      0xffffffffffffffffffffffffffffffffffffffff\n      and\n      dup2\n      mstore\n      0x20\n      add\n      swap1\n      dup2\n      mstore\n      0x20\n      add\n      0x00\n      keccak256\n      sload\n        /* \"Estructuras de datos/mappings.sol\":358:391  return direccion_edad[msg.sender] */\n      swap1\n      pop\n        /* \"Estructuras de datos/mappings.sol\":298:397  function consultarNumero()public view returns(uint){\r... */\n      swap1\n      jump\t// out\n        /* \"Estructuras de datos/mappings.sol\":201:292  function elegirNumero(uint _numero) public{\r... */\n    tag_25:\n        /* \"Estructuras de datos/mappings.sol\":279:286  _numero */\n      dup1\n        /* \"Estructuras de datos/mappings.sol\":250:264  direccion_edad */\n      0x00\n        /* \"Estructuras de datos/mappings.sol\":250:276  direccion_edad[msg.sender] */\n      dup1\n        /* \"Estructuras de datos/mappings.sol\":265:275  msg.sender */\n      caller\n        /* \"Estructuras de datos/mappings.sol\":250:276  direccion_edad[msg.sender] */\n      0xffffffffffffffffffffffffffffffffffffffff\n      and\n      0xffffffffffffffffffffffffffffffffffffffff\n      and\n      dup2\n      mstore\n      0x20\n      add\n      swap1\n      dup2\n      mstore\n      0x20\n      add\n      0x00\n      keccak256\n        /* \"Estructuras de datos/mappings.sol\":250:286  direccion_edad[msg.sender] = _numero */\n      dup2\n      swap1\n      sstore\n      pop\n        /* \"Estructuras de datos/mappings.sol\":201:292  function elegirNumero(uint _numero) public{\r... */\n      pop\n      jump\t// out\n        /* \"Estructuras de datos/mappings.sol\":147:194  mapping (address => uint) public direccion_edad */\n    tag_29:\n      mstore(0x20, 0x00)\n      dup1\n      0x00\n      mstore\n      keccak256(0x00, 0x40)\n      0x00\n      swap2\n      pop\n      swap1\n      pop\n      sload\n      dup2\n      jump\t// out\n        /* \"Estructuras de datos/mappings.sol\":915:1063  function ingresarPersona(uint _dni, uint _id, string memory _nombre, uint _edad) public {\r... */\n    tag_34:\n        /* \"Estructuras de datos/mappings.sol\":1029:1057  Persona(_id, _nombre, _edad) */\n      mload(0x40)\n      dup1\n      0x60\n      add\n      0x40\n      mstore\n      dup1\n        /* \"Estructuras de datos/mappings.sol\":1037:1040  _id */\n      dup5\n        /* \"Estructuras de datos/mappings.sol\":1029:1057  Persona(_id, _nombre, _edad) */\n      dup2\n      mstore\n      0x20\n      add\n        /* \"Estructuras de datos/mappings.sol\":1042:1049  _nombre */\n      dup4\n        /* \"Estructuras de datos/mappings.sol\":1029:1057  Persona(_id, _nombre, _edad) */\n      dup2\n      mstore\n      0x20\n      add\n        /* \"Estructuras de datos/mappings.sol\":1051:1056  _edad */\n      dup3\n        /* \"Estructuras de datos/mappings.sol\":1029:1057  Persona(_id, _nombre, _edad) */\n      dup2\n      mstore\n      pop\n        /* \"Estructuras de datos/mappings.sol\":1012:1020  personas */\n      0x02\n        /* \"Estructuras de datos/mappings.sol\":1012:1026  personas[_dni] */\n      0x00\n        /* \"Estructuras de datos/mappings.sol\":1021:1025  _dni */\n      dup7\n        /* \"Estructuras de datos/mappings.sol\":1012:1026  personas[_dni] */\n      dup2\n      mstore\n      0x20\n      add\n      swap1\n      dup2\n      mstore\n      0x20\n      add\n      0x00\n      keccak256\n        /* \"Estructuras de datos/mappings.sol\":1012:1057  personas[_dni] = Persona(_id, _nombre, _edad) */\n      0x00\n      dup3\n      add\n      mload\n      dup2\n      0x00\n      add\n      sstore\n      0x20\n      dup3\n      add\n      mload\n      dup2\n      0x01\n      add\n      swap1\n      dup1\n      mload\n      swap1\n      0x20\n      add\n      swap1\n      tag_43\n      swap3\n      swap2\n      swap1\n      tag_44\n      jump\t// in\n    tag_43:\n      pop\n      0x40\n      dup3\n      add\n      mload\n      dup2\n      0x02\n      add\n      sstore\n      swap1\n      pop\n      pop\n        /* \"Estructuras de datos/mappings.sol\":915:1063  function ingresarPersona(uint _dni, uint _id, string memory _nombre, uint _edad) public {\r... */\n      pop\n      pop\n      pop\n      pop\n      jump\t// out\n        /* \"Estructuras de datos/mappings.sol\":70:1071  contract Mappings{\r... */\n    tag_44:\n      dup3\n      dup1\n      sload\n      0x01\n      dup2\n      0x01\n      and\n      iszero\n      0x0100\n      mul\n      sub\n      and\n      0x02\n      swap1\n      div\n      swap1\n      0x00\n      mstore\n      keccak256(0x00, 0x20)\n      swap1\n      0x1f\n      add\n      0x20\n      swap1\n      div\n      dup2\n      add\n      swap3\n      dup3\n      0x1f\n      lt\n      tag_46\n      jumpi\n      dup1\n      mload\n      not(0xff)\n      and\n      dup4\n      dup1\n      add\n      or\n      dup6\n      sstore\n      jump(tag_45)\n    tag_46:\n      dup3\n      dup1\n      add\n      0x01\n      add\n      dup6\n      sstore\n      dup3\n      iszero\n      tag_45\n      jumpi\n      swap2\n      dup3\n      add\n    tag_47:\n      dup3\n      dup2\n      gt\n      iszero\n      tag_48\n      jumpi\n      dup3\n      mload\n      dup3\n      sstore\n      swap2\n      0x20\n      add\n      swap2\n      swap1\n      0x01\n      add\n      swap1\n      jump(tag_47)\n    tag_48:\n    tag_45:\n      pop\n      swap1\n      pop\n      tag_49\n      swap2\n      swap1\n      tag_50\n      jump\t// in\n    tag_49:\n      pop\n      swap1\n      jump\t// out\n    tag_50:\n      tag_51\n      swap2\n      swap1\n    tag_52:\n      dup1\n      dup3\n      gt\n      iszero\n      tag_53\n      jumpi\n      0x00\n      dup2\n      0x00\n      swap1\n      sstore\n      pop\n      0x01\n      add\n      jump(tag_52)\n    tag_53:\n      pop\n      swap1\n      jump\n    tag_51:\n      swap1\n      jump\t// out\n        /* \"--CODEGEN--\":5:135   */\n    tag_55:\n      0x00\n        /* \"--CODEGEN--\":85:91   */\n      dup2\n        /* \"--CODEGEN--\":72:92   */\n      calldataload\n        /* \"--CODEGEN--\":63:92   */\n      swap1\n      pop\n        /* \"--CODEGEN--\":97:130   */\n      tag_57\n        /* \"--CODEGEN--\":124:129   */\n      dup2\n        /* \"--CODEGEN--\":97:130   */\n      jump(tag_58)\n    tag_57:\n        /* \"--CODEGEN--\":57:135   */\n      swap3\n      swap2\n      pop\n      pop\n      jump\n        /* \"--CODEGEN--\":143:585   */\n    tag_59:\n      0x00\n        /* \"--CODEGEN--\":245:248   */\n      dup3\n        /* \"--CODEGEN--\":238:242   */\n      0x1f\n        /* \"--CODEGEN--\":230:236   */\n      dup4\n        /* \"--CODEGEN--\":226:243   */\n      add\n        /* \"--CODEGEN--\":222:249   */\n      slt\n        /* \"--CODEGEN--\":212:214   */\n      tag_61\n      jumpi\n        /* \"--CODEGEN--\":263:264   */\n      0x00\n        /* \"--CODEGEN--\":260:261   */\n      dup1\n        /* \"--CODEGEN--\":253:265   */\n      revert\n        /* \"--CODEGEN--\":212:214   */\n    tag_61:\n        /* \"--CODEGEN--\":300:306   */\n      dup2\n        /* \"--CODEGEN--\":287:307   */\n      calldataload\n        /* \"--CODEGEN--\":322:387   */\n      tag_62\n        /* \"--CODEGEN--\":337:386   */\n      tag_63\n        /* \"--CODEGEN--\":379:385   */\n      dup3\n        /* \"--CODEGEN--\":337:386   */\n      jump(tag_64)\n    tag_63:\n        /* \"--CODEGEN--\":322:387   */\n      jump(tag_65)\n    tag_62:\n        /* \"--CODEGEN--\":313:387   */\n      swap2\n      pop\n        /* \"--CODEGEN--\":407:413   */\n      dup1\n        /* \"--CODEGEN--\":400:405   */\n      dup3\n        /* \"--CODEGEN--\":393:414   */\n      mstore\n        /* \"--CODEGEN--\":443:447   */\n      0x20\n        /* \"--CODEGEN--\":435:441   */\n      dup4\n        /* \"--CODEGEN--\":431:448   */\n      add\n        /* \"--CODEGEN--\":476:480   */\n      0x20\n        /* \"--CODEGEN--\":469:474   */\n      dup4\n        /* \"--CODEGEN--\":465:481   */\n      add\n        /* \"--CODEGEN--\":511:514   */\n      dup6\n        /* \"--CODEGEN--\":502:508   */\n      dup4\n        /* \"--CODEGEN--\":497:500   */\n      dup4\n        /* \"--CODEGEN--\":493:509   */\n      add\n        /* \"--CODEGEN--\":490:515   */\n      gt\n        /* \"--CODEGEN--\":487:489   */\n      iszero\n      tag_66\n      jumpi\n        /* \"--CODEGEN--\":528:529   */\n      0x00\n        /* \"--CODEGEN--\":525:526   */\n      dup1\n        /* \"--CODEGEN--\":518:530   */\n      revert\n        /* \"--CODEGEN--\":487:489   */\n    tag_66:\n        /* \"--CODEGEN--\":538:579   */\n      tag_67\n        /* \"--CODEGEN--\":572:578   */\n      dup4\n        /* \"--CODEGEN--\":567:570   */\n      dup3\n        /* \"--CODEGEN--\":562:565   */\n      dup5\n        /* \"--CODEGEN--\":538:579   */\n      jump(tag_68)\n    tag_67:\n        /* \"--CODEGEN--\":205:585   */\n      pop\n      pop\n      pop\n      swap3\n      swap2\n      pop\n      pop\n      jump\n        /* \"--CODEGEN--\":593:723   */\n    tag_69:\n      0x00\n        /* \"--CODEGEN--\":673:679   */\n      dup2\n        /* \"--CODEGEN--\":660:680   */\n      calldataload\n        /* \"--CODEGEN--\":651:680   */\n      swap1\n      pop\n        /* \"--CODEGEN--\":685:718   */\n      tag_71\n        /* \"--CODEGEN--\":712:717   */\n      dup2\n        /* \"--CODEGEN--\":685:718   */\n      jump(tag_72)\n    tag_71:\n        /* \"--CODEGEN--\":645:723   */\n      swap3\n      swap2\n      pop\n      pop\n      jump\n        /* \"--CODEGEN--\":730:971   */\n    tag_28:\n      0x00\n        /* \"--CODEGEN--\":834:836   */\n      0x20\n        /* \"--CODEGEN--\":822:831   */\n      dup3\n        /* \"--CODEGEN--\":813:820   */\n      dup5\n        /* \"--CODEGEN--\":809:832   */\n      sub\n        /* \"--CODEGEN--\":805:837   */\n      slt\n        /* \"--CODEGEN--\":802:804   */\n      iszero\n      tag_74\n      jumpi\n        /* \"--CODEGEN--\":850:851   */\n      0x00\n        /* \"--CODEGEN--\":847:848   */\n      dup1\n        /* \"--CODEGEN--\":840:852   */\n      revert\n        /* \"--CODEGEN--\":802:804   */\n    tag_74:\n        /* \"--CODEGEN--\":885:886   */\n      0x00\n        /* \"--CODEGEN--\":902:955   */\n      tag_75\n        /* \"--CODEGEN--\":947:954   */\n      dup5\n        /* \"--CODEGEN--\":938:944   */\n      dup3\n        /* \"--CODEGEN--\":927:936   */\n      dup6\n        /* \"--CODEGEN--\":923:945   */\n      add\n        /* \"--CODEGEN--\":902:955   */\n      jump(tag_55)\n    tag_75:\n        /* \"--CODEGEN--\":892:955   */\n      swap2\n      pop\n        /* \"--CODEGEN--\":864:961   */\n      pop\n        /* \"--CODEGEN--\":796:971   */\n      swap3\n      swap2\n      pop\n      pop\n      jump\n        /* \"--CODEGEN--\":978:1325   */\n    tag_15:\n      0x00\n        /* \"--CODEGEN--\":1092:1094   */\n      0x20\n        /* \"--CODEGEN--\":1080:1089   */\n      dup3\n        /* \"--CODEGEN--\":1071:1078   */\n      dup5\n        /* \"--CODEGEN--\":1067:1090   */\n      sub\n        /* \"--CODEGEN--\":1063:1095   */\n      slt\n        /* \"--CODEGEN--\":1060:1062   */\n      iszero\n      tag_77\n      jumpi\n        /* \"--CODEGEN--\":1108:1109   */\n      0x00\n        /* \"--CODEGEN--\":1105:1106   */\n      dup1\n        /* \"--CODEGEN--\":1098:1110   */\n      revert\n        /* \"--CODEGEN--\":1060:1062   */\n    tag_77:\n        /* \"--CODEGEN--\":1171:1172   */\n      0x00\n        /* \"--CODEGEN--\":1160:1169   */\n      dup3\n        /* \"--CODEGEN--\":1156:1173   */\n      add\n        /* \"--CODEGEN--\":1143:1174   */\n      calldataload\n        /* \"--CODEGEN--\":1194:1212   */\n      0xffffffffffffffff\n        /* \"--CODEGEN--\":1186:1192   */\n      dup2\n        /* \"--CODEGEN--\":1183:1213   */\n      gt\n        /* \"--CODEGEN--\":1180:1182   */\n      iszero\n      tag_78\n      jumpi\n        /* \"--CODEGEN--\":1226:1227   */\n      0x00\n        /* \"--CODEGEN--\":1223:1224   */\n      dup1\n        /* \"--CODEGEN--\":1216:1228   */\n      revert\n        /* \"--CODEGEN--\":1180:1182   */\n    tag_78:\n        /* \"--CODEGEN--\":1246:1309   */\n      tag_79\n        /* \"--CODEGEN--\":1301:1308   */\n      dup5\n        /* \"--CODEGEN--\":1292:1298   */\n      dup3\n        /* \"--CODEGEN--\":1281:1290   */\n      dup6\n        /* \"--CODEGEN--\":1277:1299   */\n      add\n        /* \"--CODEGEN--\":1246:1309   */\n      jump(tag_59)\n    tag_79:\n        /* \"--CODEGEN--\":1236:1309   */\n      swap2\n      pop\n        /* \"--CODEGEN--\":1122:1315   */\n      pop\n        /* \"--CODEGEN--\":1054:1325   */\n      swap3\n      swap2\n      pop\n      pop\n      jump\n        /* \"--CODEGEN--\":1332:1804   */\n    tag_11:\n      0x00\n      dup1\n        /* \"--CODEGEN--\":1463:1465   */\n      0x40\n        /* \"--CODEGEN--\":1451:1460   */\n      dup4\n        /* \"--CODEGEN--\":1442:1449   */\n      dup6\n        /* \"--CODEGEN--\":1438:1461   */\n      sub\n        /* \"--CODEGEN--\":1434:1466   */\n      slt\n        /* \"--CODEGEN--\":1431:1433   */\n      iszero\n      tag_81\n      jumpi\n        /* \"--CODEGEN--\":1479:1480   */\n      0x00\n        /* \"--CODEGEN--\":1476:1477   */\n      dup1\n        /* \"--CODEGEN--\":1469:1481   */\n      revert\n        /* \"--CODEGEN--\":1431:1433   */\n    tag_81:\n        /* \"--CODEGEN--\":1542:1543   */\n      0x00\n        /* \"--CODEGEN--\":1531:1540   */\n      dup4\n        /* \"--CODEGEN--\":1527:1544   */\n      add\n        /* \"--CODEGEN--\":1514:1545   */\n      calldataload\n        /* \"--CODEGEN--\":1565:1583   */\n      0xffffffffffffffff\n        /* \"--CODEGEN--\":1557:1563   */\n      dup2\n        /* \"--CODEGEN--\":1554:1584   */\n      gt\n        /* \"--CODEGEN--\":1551:1553   */\n      iszero\n      tag_82\n      jumpi\n        /* \"--CODEGEN--\":1597:1598   */\n      0x00\n        /* \"--CODEGEN--\":1594:1595   */\n      dup1\n        /* \"--CODEGEN--\":1587:1599   */\n      revert\n        /* \"--CODEGEN--\":1551:1553   */\n    tag_82:\n        /* \"--CODEGEN--\":1617:1680   */\n      tag_83\n        /* \"--CODEGEN--\":1672:1679   */\n      dup6\n        /* \"--CODEGEN--\":1663:1669   */\n      dup3\n        /* \"--CODEGEN--\":1652:1661   */\n      dup7\n        /* \"--CODEGEN--\":1648:1670   */\n      add\n        /* \"--CODEGEN--\":1617:1680   */\n      jump(tag_59)\n    tag_83:\n        /* \"--CODEGEN--\":1607:1680   */\n      swap3\n      pop\n        /* \"--CODEGEN--\":1493:1686   */\n      pop\n        /* \"--CODEGEN--\":1717:1719   */\n      0x20\n        /* \"--CODEGEN--\":1735:1788   */\n      tag_84\n        /* \"--CODEGEN--\":1780:1787   */\n      dup6\n        /* \"--CODEGEN--\":1771:1777   */\n      dup3\n        /* \"--CODEGEN--\":1760:1769   */\n      dup7\n        /* \"--CODEGEN--\":1756:1778   */\n      add\n        /* \"--CODEGEN--\":1735:1788   */\n      jump(tag_69)\n    tag_84:\n        /* \"--CODEGEN--\":1725:1788   */\n      swap2\n      pop\n        /* \"--CODEGEN--\":1696:1794   */\n      pop\n        /* \"--CODEGEN--\":1425:1804   */\n      swap3\n      pop\n      swap3\n      swap1\n      pop\n      jump\n        /* \"--CODEGEN--\":1811:2052   */\n    tag_24:\n      0x00\n        /* \"--CODEGEN--\":1915:1917   */\n      0x20\n        /* \"--CODEGEN--\":1903:1912   */\n      dup3\n        /* \"--CODEGEN--\":1894:1901   */\n      dup5\n        /* \"--CODEGEN--\":1890:1913   */\n      sub\n        /* \"--CODEGEN--\":1886:1918   */\n      slt\n        /* \"--CODEGEN--\":1883:1885   */\n      iszero\n      tag_86\n      jumpi\n        /* \"--CODEGEN--\":1931:1932   */\n      0x00\n        /* \"--CODEGEN--\":1928:1929   */\n      dup1\n        /* \"--CODEGEN--\":1921:1933   */\n      revert\n        /* \"--CODEGEN--\":1883:1885   */\n    tag_86:\n        /* \"--CODEGEN--\":1966:1967   */\n      0x00\n        /* \"--CODEGEN--\":1983:2036   */\n      tag_87\n        /* \"--CODEGEN--\":2028:2035   */\n      dup5\n        /* \"--CODEGEN--\":2019:2025   */\n      dup3\n        /* \"--CODEGEN--\":2008:2017   */\n      dup6\n        /* \"--CODEGEN--\":2004:2026   */\n      add\n        /* \"--CODEGEN--\":1983:2036   */\n      jump(tag_69)\n    tag_87:\n        /* \"--CODEGEN--\":1973:2036   */\n      swap2\n      pop\n        /* \"--CODEGEN--\":1945:2042   */\n      pop\n        /* \"--CODEGEN--\":1877:2052   */\n      swap3\n      swap2\n      pop\n      pop\n      jump\n        /* \"--CODEGEN--\":2059:2782   */\n    tag_33:\n      0x00\n      dup1\n      0x00\n      dup1\n        /* \"--CODEGEN--\":2224:2227   */\n      0x80\n        /* \"--CODEGEN--\":2212:2221   */\n      dup6\n        /* \"--CODEGEN--\":2203:2210   */\n      dup8\n        /* \"--CODEGEN--\":2199:2222   */\n      sub\n        /* \"--CODEGEN--\":2195:2228   */\n      slt\n        /* \"--CODEGEN--\":2192:2194   */\n      iszero\n      tag_89\n      jumpi\n        /* \"--CODEGEN--\":2241:2242   */\n      0x00\n        /* \"--CODEGEN--\":2238:2239   */\n      dup1\n        /* \"--CODEGEN--\":2231:2243   */\n      revert\n        /* \"--CODEGEN--\":2192:2194   */\n    tag_89:\n        /* \"--CODEGEN--\":2276:2277   */\n      0x00\n        /* \"--CODEGEN--\":2293:2346   */\n      tag_90\n        /* \"--CODEGEN--\":2338:2345   */\n      dup8\n        /* \"--CODEGEN--\":2329:2335   */\n      dup3\n        /* \"--CODEGEN--\":2318:2327   */\n      dup9\n        /* \"--CODEGEN--\":2314:2336   */\n      add\n        /* \"--CODEGEN--\":2293:2346   */\n      jump(tag_69)\n    tag_90:\n        /* \"--CODEGEN--\":2283:2346   */\n      swap5\n      pop\n        /* \"--CODEGEN--\":2255:2352   */\n      pop\n        /* \"--CODEGEN--\":2383:2385   */\n      0x20\n        /* \"--CODEGEN--\":2401:2454   */\n      tag_91\n        /* \"--CODEGEN--\":2446:2453   */\n      dup8\n        /* \"--CODEGEN--\":2437:2443   */\n      dup3\n        /* \"--CODEGEN--\":2426:2435   */\n      dup9\n        /* \"--CODEGEN--\":2422:2444   */\n      add\n        /* \"--CODEGEN--\":2401:2454   */\n      jump(tag_69)\n    tag_91:\n        /* \"--CODEGEN--\":2391:2454   */\n      swap4\n      pop\n        /* \"--CODEGEN--\":2362:2460   */\n      pop\n        /* \"--CODEGEN--\":2519:2521   */\n      0x40\n        /* \"--CODEGEN--\":2508:2517   */\n      dup6\n        /* \"--CODEGEN--\":2504:2522   */\n      add\n        /* \"--CODEGEN--\":2491:2523   */\n      calldataload\n        /* \"--CODEGEN--\":2543:2561   */\n      0xffffffffffffffff\n        /* \"--CODEGEN--\":2535:2541   */\n      dup2\n        /* \"--CODEGEN--\":2532:2562   */\n      gt\n        /* \"--CODEGEN--\":2529:2531   */\n      iszero\n      tag_92\n      jumpi\n        /* \"--CODEGEN--\":2575:2576   */\n      0x00\n        /* \"--CODEGEN--\":2572:2573   */\n      dup1\n        /* \"--CODEGEN--\":2565:2577   */\n      revert\n        /* \"--CODEGEN--\":2529:2531   */\n    tag_92:\n        /* \"--CODEGEN--\":2595:2658   */\n      tag_93\n        /* \"--CODEGEN--\":2650:2657   */\n      dup8\n        /* \"--CODEGEN--\":2641:2647   */\n      dup3\n        /* \"--CODEGEN--\":2630:2639   */\n      dup9\n        /* \"--CODEGEN--\":2626:2648   */\n      add\n        /* \"--CODEGEN--\":2595:2658   */\n      jump(tag_59)\n    tag_93:\n        /* \"--CODEGEN--\":2585:2658   */\n      swap3\n      pop\n        /* \"--CODEGEN--\":2470:2664   */\n      pop\n        /* \"--CODEGEN--\":2695:2697   */\n      0x60\n        /* \"--CODEGEN--\":2713:2766   */\n      tag_94\n        /* \"--CODEGEN--\":2758:2765   */\n      dup8\n        /* \"--CODEGEN--\":2749:2755   */\n      dup3\n        /* \"--CODEGEN--\":2738:2747   */\n      dup9\n        /* \"--CODEGEN--\":2734:2756   */\n      add\n        /* \"--CODEGEN--\":2713:2766   */\n      jump(tag_69)\n    tag_94:\n        /* \"--CODEGEN--\":2703:2766   */\n      swap2\n      pop\n        /* \"--CODEGEN--\":2674:2772   */\n      pop\n        /* \"--CODEGEN--\":2186:2782   */\n      swap3\n      swap6\n      swap2\n      swap5\n      pop\n      swap3\n      pop\n      jump\n        /* \"--CODEGEN--\":2789:3149   */\n    tag_95:\n      0x00\n        /* \"--CODEGEN--\":2919:2958   */\n      tag_97\n        /* \"--CODEGEN--\":2952:2957   */\n      dup3\n        /* \"--CODEGEN--\":2919:2958   */\n      jump(tag_98)\n    tag_97:\n        /* \"--CODEGEN--\":2970:3059   */\n      tag_99\n        /* \"--CODEGEN--\":3052:3058   */\n      dup2\n        /* \"--CODEGEN--\":3047:3050   */\n      dup6\n        /* \"--CODEGEN--\":2970:3059   */\n      jump(tag_100)\n    tag_99:\n        /* \"--CODEGEN--\":2963:3059   */\n      swap4\n      pop\n        /* \"--CODEGEN--\":3064:3116   */\n      tag_101\n        /* \"--CODEGEN--\":3109:3115   */\n      dup2\n        /* \"--CODEGEN--\":3104:3107   */\n      dup6\n        /* \"--CODEGEN--\":3097:3101   */\n      0x20\n        /* \"--CODEGEN--\":3090:3095   */\n      dup7\n        /* \"--CODEGEN--\":3086:3102   */\n      add\n        /* \"--CODEGEN--\":3064:3116   */\n      jump(tag_102)\n    tag_101:\n        /* \"--CODEGEN--\":3137:3143   */\n      dup1\n        /* \"--CODEGEN--\":3132:3135   */\n      dup5\n        /* \"--CODEGEN--\":3128:3144   */\n      add\n        /* \"--CODEGEN--\":3121:3144   */\n      swap2\n      pop\n        /* \"--CODEGEN--\":2899:3149   */\n      pop\n      swap3\n      swap2\n      pop\n      pop\n      jump\n        /* \"--CODEGEN--\":3156:3269   */\n    tag_103:\n        /* \"--CODEGEN--\":3239:3263   */\n      tag_105\n        /* \"--CODEGEN--\":3257:3262   */\n      dup2\n        /* \"--CODEGEN--\":3239:3263   */\n      jump(tag_106)\n    tag_105:\n        /* \"--CODEGEN--\":3234:3237   */\n      dup3\n        /* \"--CODEGEN--\":3227:3264   */\n      mstore\n        /* \"--CODEGEN--\":3221:3269   */\n      pop\n      pop\n      jump\n        /* \"--CODEGEN--\":3276:3542   */\n    tag_37:\n      0x00\n        /* \"--CODEGEN--\":3422:3517   */\n      tag_108\n        /* \"--CODEGEN--\":3513:3516   */\n      dup3\n        /* \"--CODEGEN--\":3504:3510   */\n      dup5\n        /* \"--CODEGEN--\":3422:3517   */\n      jump(tag_95)\n    tag_108:\n        /* \"--CODEGEN--\":3415:3517   */\n      swap2\n      pop\n        /* \"--CODEGEN--\":3534:3537   */\n      dup2\n        /* \"--CODEGEN--\":3527:3537   */\n      swap1\n      pop\n        /* \"--CODEGEN--\":3403:3542   */\n      swap3\n      swap2\n      pop\n      pop\n      jump\n        /* \"--CODEGEN--\":3549:3762   */\n    tag_18:\n      0x00\n        /* \"--CODEGEN--\":3667:3669   */\n      0x20\n        /* \"--CODEGEN--\":3656:3665   */\n      dup3\n        /* \"--CODEGEN--\":3652:3670   */\n      add\n        /* \"--CODEGEN--\":3644:3670   */\n      swap1\n      pop\n        /* \"--CODEGEN--\":3681:3752   */\n      tag_110\n        /* \"--CODEGEN--\":3749:3750   */\n      0x00\n        /* \"--CODEGEN--\":3738:3747   */\n      dup4\n        /* \"--CODEGEN--\":3734:3751   */\n      add\n        /* \"--CODEGEN--\":3725:3731   */\n      dup5\n        /* \"--CODEGEN--\":3681:3752   */\n      jump(tag_103)\n    tag_110:\n        /* \"--CODEGEN--\":3638:3762   */\n      swap3\n      swap2\n      pop\n      pop\n      jump\n        /* \"--CODEGEN--\":3769:4025   */\n    tag_65:\n      0x00\n        /* \"--CODEGEN--\":3831:3833   */\n      0x40\n        /* \"--CODEGEN--\":3825:3834   */\n      mload\n        /* \"--CODEGEN--\":3815:3834   */\n      swap1\n      pop\n        /* \"--CODEGEN--\":3869:3873   */\n      dup2\n        /* \"--CODEGEN--\":3861:3867   */\n      dup2\n        /* \"--CODEGEN--\":3857:3874   */\n      add\n        /* \"--CODEGEN--\":3968:3974   */\n      dup2\n        /* \"--CODEGEN--\":3956:3966   */\n      dup2\n        /* \"--CODEGEN--\":3953:3975   */\n      lt\n        /* \"--CODEGEN--\":3932:3950   */\n      0xffffffffffffffff\n        /* \"--CODEGEN--\":3920:3930   */\n      dup3\n        /* \"--CODEGEN--\":3917:3951   */\n      gt\n        /* \"--CODEGEN--\":3914:3976   */\n      or\n        /* \"--CODEGEN--\":3911:3913   */\n      iszero\n      tag_112\n      jumpi\n        /* \"--CODEGEN--\":3989:3990   */\n      0x00\n        /* \"--CODEGEN--\":3986:3987   */\n      dup1\n        /* \"--CODEGEN--\":3979:3991   */\n      revert\n        /* \"--CODEGEN--\":3911:3913   */\n    tag_112:\n        /* \"--CODEGEN--\":4009:4019   */\n      dup1\n        /* \"--CODEGEN--\":4005:4007   */\n      0x40\n        /* \"--CODEGEN--\":3998:4020   */\n      mstore\n        /* \"--CODEGEN--\":3809:4025   */\n      pop\n      swap2\n      swap1\n      pop\n      jump\n        /* \"--CODEGEN--\":4032:4354   */\n    tag_64:\n      0x00\n        /* \"--CODEGEN--\":4176:4194   */\n      0xffffffffffffffff\n        /* \"--CODEGEN--\":4168:4174   */\n      dup3\n        /* \"--CODEGEN--\":4165:4195   */\n      gt\n        /* \"--CODEGEN--\":4162:4164   */\n      iszero\n      tag_114\n      jumpi\n        /* \"--CODEGEN--\":4208:4209   */\n      0x00\n        /* \"--CODEGEN--\":4205:4206   */\n      dup1\n        /* \"--CODEGEN--\":4198:4210   */\n      revert\n        /* \"--CODEGEN--\":4162:4164   */\n    tag_114:\n        /* \"--CODEGEN--\":4275:4279   */\n      0x1f\n        /* \"--CODEGEN--\":4271:4280   */\n      not\n        /* \"--CODEGEN--\":4264:4268   */\n      0x1f\n        /* \"--CODEGEN--\":4256:4262   */\n      dup4\n        /* \"--CODEGEN--\":4252:4269   */\n      add\n        /* \"--CODEGEN--\":4248:4281   */\n      and\n        /* \"--CODEGEN--\":4240:4281   */\n      swap1\n      pop\n        /* \"--CODEGEN--\":4339:4343   */\n      0x20\n        /* \"--CODEGEN--\":4333:4337   */\n      dup2\n        /* \"--CODEGEN--\":4329:4344   */\n      add\n        /* \"--CODEGEN--\":4321:4344   */\n      swap1\n      pop\n        /* \"--CODEGEN--\":4099:4354   */\n      swap2\n      swap1\n      pop\n      jump\n        /* \"--CODEGEN--\":4361:4483   */\n    tag_98:\n      0x00\n        /* \"--CODEGEN--\":4455:4460   */\n      dup2\n        /* \"--CODEGEN--\":4449:4461   */\n      mload\n        /* \"--CODEGEN--\":4439:4461   */\n      swap1\n      pop\n        /* \"--CODEGEN--\":4420:4483   */\n      swap2\n      swap1\n      pop\n      jump\n        /* \"--CODEGEN--\":4491:4636   */\n    tag_100:\n      0x00\n        /* \"--CODEGEN--\":4627:4630   */\n      dup2\n        /* \"--CODEGEN--\":4612:4630   */\n      swap1\n      pop\n        /* \"--CODEGEN--\":4605:4636   */\n      swap3\n      swap2\n      pop\n      pop\n      jump\n        /* \"--CODEGEN--\":4644:4735   */\n    tag_117:\n      0x00\n        /* \"--CODEGEN--\":4706:4730   */\n      tag_119\n        /* \"--CODEGEN--\":4724:4729   */\n      dup3\n        /* \"--CODEGEN--\":4706:4730   */\n      jump(tag_120)\n    tag_119:\n        /* \"--CODEGEN--\":4695:4730   */\n      swap1\n      pop\n        /* \"--CODEGEN--\":4689:4735   */\n      swap2\n      swap1\n      pop\n      jump\n        /* \"--CODEGEN--\":4742:4863   */\n    tag_120:\n      0x00\n        /* \"--CODEGEN--\":4815:4857   */\n      0xffffffffffffffffffffffffffffffffffffffff\n        /* \"--CODEGEN--\":4808:4813   */\n      dup3\n        /* \"--CODEGEN--\":4804:4858   */\n      and\n        /* \"--CODEGEN--\":4793:4858   */\n      swap1\n      pop\n        /* \"--CODEGEN--\":4787:4863   */\n      swap2\n      swap1\n      pop\n      jump\n        /* \"--CODEGEN--\":4870:4942   */\n    tag_106:\n      0x00\n        /* \"--CODEGEN--\":4932:4937   */\n      dup2\n        /* \"--CODEGEN--\":4921:4937   */\n      swap1\n      pop\n        /* \"--CODEGEN--\":4915:4942   */\n      swap2\n      swap1\n      pop\n      jump\n        /* \"--CODEGEN--\":4950:5095   */\n    tag_68:\n        /* \"--CODEGEN--\":5031:5037   */\n      dup3\n        /* \"--CODEGEN--\":5026:5029   */\n      dup2\n        /* \"--CODEGEN--\":5021:5024   */\n      dup4\n        /* \"--CODEGEN--\":5008:5038   */\n      calldatacopy\n        /* \"--CODEGEN--\":5087:5088   */\n      0x00\n        /* \"--CODEGEN--\":5078:5084   */\n      dup4\n        /* \"--CODEGEN--\":5073:5076   */\n      dup4\n        /* \"--CODEGEN--\":5069:5085   */\n      add\n        /* \"--CODEGEN--\":5062:5089   */\n      mstore\n        /* \"--CODEGEN--\":5001:5095   */\n      pop\n      pop\n      pop\n      jump\n        /* \"--CODEGEN--\":5104:5372   */\n    tag_102:\n        /* \"--CODEGEN--\":5169:5170   */\n      0x00\n        /* \"--CODEGEN--\":5176:5277   */\n    tag_125:\n        /* \"--CODEGEN--\":5190:5196   */\n      dup4\n        /* \"--CODEGEN--\":5187:5188   */\n      dup2\n        /* \"--CODEGEN--\":5184:5197   */\n      lt\n        /* \"--CODEGEN--\":5176:5277   */\n      iszero\n      tag_127\n      jumpi\n        /* \"--CODEGEN--\":5266:5267   */\n      dup1\n        /* \"--CODEGEN--\":5261:5264   */\n      dup3\n        /* \"--CODEGEN--\":5257:5268   */\n      add\n        /* \"--CODEGEN--\":5251:5269   */\n      mload\n        /* \"--CODEGEN--\":5247:5248   */\n      dup2\n        /* \"--CODEGEN--\":5242:5245   */\n      dup5\n        /* \"--CODEGEN--\":5238:5249   */\n      add\n        /* \"--CODEGEN--\":5231:5270   */\n      mstore\n        /* \"--CODEGEN--\":5212:5214   */\n      0x20\n        /* \"--CODEGEN--\":5209:5210   */\n      dup2\n        /* \"--CODEGEN--\":5205:5215   */\n      add\n        /* \"--CODEGEN--\":5200:5215   */\n      swap1\n      pop\n        /* \"--CODEGEN--\":5176:5277   */\n      jump(tag_125)\n    tag_127:\n        /* \"--CODEGEN--\":5292:5298   */\n      dup4\n        /* \"--CODEGEN--\":5289:5290   */\n      dup2\n        /* \"--CODEGEN--\":5286:5299   */\n      gt\n        /* \"--CODEGEN--\":5283:5285   */\n      iszero\n      tag_128\n      jumpi\n        /* \"--CODEGEN--\":5357:5358   */\n      0x00\n        /* \"--CODEGEN--\":5348:5354   */\n      dup5\n        /* \"--CODEGEN--\":5343:5346   */\n      dup5\n        /* \"--CODEGEN--\":5339:5355   */\n      add\n        /* \"--CODEGEN--\":5332:5359   */\n      mstore\n        /* \"--CODEGEN--\":5283:5285   */\n    tag_128:\n        /* \"--CODEGEN--\":5153:5372   */\n      pop\n      pop\n      pop\n      pop\n      jump\n        /* \"--CODEGEN--\":5380:5497   */\n    tag_58:\n        /* \"--CODEGEN--\":5449:5473   */\n      tag_130\n        /* \"--CODEGEN--\":5467:5472   */\n      dup2\n        /* \"--CODEGEN--\":5449:5473   */\n      jump(tag_117)\n    tag_130:\n        /* \"--CODEGEN--\":5442:5447   */\n      dup2\n        /* \"--CODEGEN--\":5439:5474   */\n      eq\n        /* \"--CODEGEN--\":5429:5431   */\n      tag_131\n      jumpi\n        /* \"--CODEGEN--\":5488:5489   */\n      0x00\n        /* \"--CODEGEN--\":5485:5486   */\n      dup1\n        /* \"--CODEGEN--\":5478:5490   */\n      revert\n        /* \"--CODEGEN--\":5429:5431   */\n    tag_131:\n        /* \"--CODEGEN--\":5423:5497   */\n      pop\n      jump\n        /* \"--CODEGEN--\":5504:5621   */\n    tag_72:\n        /* \"--CODEGEN--\":5573:5597   */\n      tag_133\n        /* \"--CODEGEN--\":5591:5596   */\n      dup2\n        /* \"--CODEGEN--\":5573:5597   */\n      jump(tag_106)\n    tag_133:\n        /* \"--CODEGEN--\":5566:5571   */\n      dup2\n        /* \"--CODEGEN--\":5563:5598   */\n      eq\n        /* \"--CODEGEN--\":5553:5555   */\n      tag_134\n      jumpi\n        /* \"--CODEGEN--\":5612:5613   */\n      0x00\n        /* \"--CODEGEN--\":5609:5610   */\n      dup1\n        /* \"--CODEGEN--\":5602:5614   */\n      revert\n        /* \"--CODEGEN--\":5553:5555   */\n    tag_134:\n        /* \"--CODEGEN--\":5547:5621   */\n      pop\n      jump\n\n    auxdata: 0xa2646970667358221220aa2e88cad3b964ca741596a2c8088c3cff96b25478792e2e051a5772a43b045b64736f6c63430006050033\n}\n",
				"bytecode": {
					"linkReferences": {},
					"object": "608060405234801561001057600080fd5b506106dc806100206000396000f3fe608060405234801561001057600080fd5b50600436106100625760003560e01c8063276a05bf14610067578063472679901461008357806392174b49146100b3578063d0427d5a146100d1578063e7089298146100ed578063eb001a721461011d575b600080fd5b610081600480360381019061007c9190610421565b610139565b005b61009d600480360381019061009891906103e0565b610160565b6040516100aa9190610570565b60405180910390f35b6100bb610188565b6040516100c89190610570565b60405180910390f35b6100eb60048036038101906100e69190610475565b6101ce565b005b610107600480360381019061010291906103b7565b610214565b6040516101149190610570565b60405180910390f35b6101376004803603810190610132919061049e565b61022c565b005b8060018360405161014a9190610559565b9081526020016040518091039020819055505050565b60006001826040516101729190610559565b9081526020016040518091039020549050919050565b60008060003373ffffffffffffffffffffffffffffffffffffffff1673ffffffffffffffffffffffffffffffffffffffff16815260200190815260200160002054905090565b806000803373ffffffffffffffffffffffffffffffffffffffff1673ffffffffffffffffffffffffffffffffffffffff1681526020019081526020016000208190555050565b60006020528060005260406000206000915090505481565b60405180606001604052808481526020018381526020018281525060026000868152602001908152602001600020600082015181600001556020820151816001019080519060200190610280929190610294565b506040820151816002015590505050505050565b828054600181600116156101000203166002900490600052602060002090601f016020900481019282601f106102d557805160ff1916838001178555610303565b82800160010185558215610303579182015b828111156103025782518255916020019190600101906102e7565b5b5090506103109190610314565b5090565b61033691905b8082111561033257600081600090555060010161031a565b5090565b90565b60008135905061034881610678565b92915050565b600082601f83011261035f57600080fd5b813561037261036d826105b8565b61058b565b9150808252602083016020830185838301111561038e57600080fd5b610399838284610636565b50505092915050565b6000813590506103b18161068f565b92915050565b6000602082840312156103c957600080fd5b60006103d784828501610339565b91505092915050565b6000602082840312156103f257600080fd5b600082013567ffffffffffffffff81111561040c57600080fd5b6104188482850161034e565b91505092915050565b6000806040838503121561043457600080fd5b600083013567ffffffffffffffff81111561044e57600080fd5b61045a8582860161034e565b925050602061046b858286016103a2565b9150509250929050565b60006020828403121561048757600080fd5b6000610495848285016103a2565b91505092915050565b600080600080608085870312156104b457600080fd5b60006104c2878288016103a2565b94505060206104d3878288016103a2565b935050604085013567ffffffffffffffff8111156104f057600080fd5b6104fc8782880161034e565b925050606061050d878288016103a2565b91505092959194509250565b6000610524826105e4565b61052e81856105ef565b935061053e818560208601610645565b80840191505092915050565b6105538161062c565b82525050565b60006105658284610519565b915081905092915050565b6000602082019050610585600083018461054a565b92915050565b6000604051905081810181811067ffffffffffffffff821117156105ae57600080fd5b8060405250919050565b600067ffffffffffffffff8211156105cf57600080fd5b601f19601f8301169050602081019050919050565b600081519050919050565b600081905092915050565b60006106058261060c565b9050919050565b600073ffffffffffffffffffffffffffffffffffffffff82169050919050565b6000819050919050565b82818337600083830152505050565b60005b83811015610663578082015181840152602081019050610648565b83811115610672576000848401525b50505050565b610681816105fa565b811461068c57600080fd5b50565b6106988161062c565b81146106a357600080fd5b5056fea2646970667358221220aa2e88cad3b964ca741596a2c8088c3cff96b25478792e2e051a5772a43b045b64736f6c63430006050033",
					"opcodes": "PUSH1 0x80 PUSH1 0x40 MSTORE CALLVALUE DUP1 ISZERO PUSH2 0x10 JUMPI PUSH1 0x0 DUP1 REVERT JUMPDEST POP PUSH2 0x6DC DUP1 PUSH2 0x20 PUSH1 0x0 CODECOPY PUSH1 0x0 RETURN INVALID PUSH1 0x80 PUSH1 0x40 MSTORE CALLVALUE DUP1 ISZERO PUSH2 0x10 JUMPI PUSH1 0x0 DUP1 REVERT JUMPDEST POP PUSH1 0x4 CALLDATASIZE LT PUSH2 0x62 JUMPI PUSH1 0x0 CALLDATALOAD PUSH1 0xE0 SHR DUP1 PUSH4 0x276A05BF EQ PUSH2 0x67 JUMPI DUP1 PUSH4 0x47267990 EQ PUSH2 0x83 JUMPI DUP1 PUSH4 0x92174B49 EQ PUSH2 0xB3 JUMPI DUP1 PUSH4 0xD0427D5A EQ PUSH2 0xD1 JUMPI DUP1 PUSH4 0xE7089298 EQ PUSH2 0xED JUMPI DUP1 PUSH4 0xEB001A72 EQ PUSH2 0x11D JUMPI JUMPDEST PUSH1 0x0 DUP1 REVERT JUMPDEST PUSH2 0x81 PUSH1 0x4 DUP1 CALLDATASIZE SUB DUP2 ADD SWAP1 PUSH2 0x7C SWAP2 SWAP1 PUSH2 0x421 JUMP JUMPDEST PUSH2 0x139 JUMP JUMPDEST STOP JUMPDEST PUSH2 0x9D PUSH1 0x4 DUP1 CALLDATASIZE SUB DUP2 ADD SWAP1 PUSH2 0x98 SWAP2 SWAP1 PUSH2 0x3E0 JUMP JUMPDEST PUSH2 0x160 JUMP JUMPDEST PUSH1 0x40 MLOAD PUSH2 0xAA SWAP2 SWAP1 PUSH2 0x570 JUMP JUMPDEST PUSH1 0x40 MLOAD DUP1 SWAP2 SUB SWAP1 RETURN JUMPDEST PUSH2 0xBB PUSH2 0x188 JUMP JUMPDEST PUSH1 0x40 MLOAD PUSH2 0xC8 SWAP2 SWAP1 PUSH2 0x570 JUMP JUMPDEST PUSH1 0x40 MLOAD DUP1 SWAP2 SUB SWAP1 RETURN JUMPDEST PUSH2 0xEB PUSH1 0x4 DUP1 CALLDATASIZE SUB DUP2 ADD SWAP1 PUSH2 0xE6 SWAP2 SWAP1 PUSH2 0x475 JUMP JUMPDEST PUSH2 0x1CE JUMP JUMPDEST STOP JUMPDEST PUSH2 0x107 PUSH1 0x4 DUP1 CALLDATASIZE SUB DUP2 ADD SWAP1 PUSH2 0x102 SWAP2 SWAP1 PUSH2 0x3B7 JUMP JUMPDEST PUSH2 0x214 JUMP JUMPDEST PUSH1 0x40 MLOAD PUSH2 0x114 SWAP2 SWAP1 PUSH2 0x570 JUMP JUMPDEST PUSH1 0x40 MLOAD DUP1 SWAP2 SUB SWAP1 RETURN JUMPDEST PUSH2 0x137 PUSH1 0x4 DUP1 CALLDATASIZE SUB DUP2 ADD SWAP1 PUSH2 0x132 SWAP2 SWAP1 PUSH2 0x49E JUMP JUMPDEST PUSH2 0x22C JUMP JUMPDEST STOP JUMPDEST DUP1 PUSH1 0x1 DUP4 PUSH1 0x40 MLOAD PUSH2 0x14A SWAP2 SWAP1 PUSH2 0x559 JUMP JUMPDEST SWAP1 DUP2 MSTORE PUSH1 0x20 ADD PUSH1 0x40 MLOAD DUP1 SWAP2 SUB SWAP1 KECCAK256 DUP2 SWAP1 SSTORE POP POP POP JUMP JUMPDEST PUSH1 0x0 PUSH1 0x1 DUP3 PUSH1 0x40 MLOAD PUSH2 0x172 SWAP2 SWAP1 PUSH2 0x559 JUMP JUMPDEST SWAP1 DUP2 MSTORE PUSH1 0x20 ADD PUSH1 0x40 MLOAD DUP1 SWAP2 SUB SWAP1 KECCAK256 SLOAD SWAP1 POP SWAP2 SWAP1 POP JUMP JUMPDEST PUSH1 0x0 DUP1 PUSH1 0x0 CALLER PUSH20 0xFFFFFFFFFFFFFFFFFFFFFFFFFFFFFFFFFFFFFFFF AND PUSH20 0xFFFFFFFFFFFFFFFFFFFFFFFFFFFFFFFFFFFFFFFF AND DUP2 MSTORE PUSH1 0x20 ADD SWAP1 DUP2 MSTORE PUSH1 0x20 ADD PUSH1 0x0 KECCAK256 SLOAD SWAP1 POP SWAP1 JUMP JUMPDEST DUP1 PUSH1 0x0 DUP1 CALLER PUSH20 0xFFFFFFFFFFFFFFFFFFFFFFFFFFFFFFFFFFFFFFFF AND PUSH20 0xFFFFFFFFFFFFFFFFFFFFFFFFFFFFFFFFFFFFFFFF AND DUP2 MSTORE PUSH1 0x20 ADD SWAP1 DUP2 MSTORE PUSH1 0x20 ADD PUSH1 0x0 KECCAK256 DUP2 SWAP1 SSTORE POP POP JUMP JUMPDEST PUSH1 0x0 PUSH1 0x20 MSTORE DUP1 PUSH1 0x0 MSTORE PUSH1 0x40 PUSH1 0x0 KECCAK256 PUSH1 0x0 SWAP2 POP SWAP1 POP SLOAD DUP2 JUMP JUMPDEST PUSH1 0x40 MLOAD DUP1 PUSH1 0x60 ADD PUSH1 0x40 MSTORE DUP1 DUP5 DUP2 MSTORE PUSH1 0x20 ADD DUP4 DUP2 MSTORE PUSH1 0x20 ADD DUP3 DUP2 MSTORE POP PUSH1 0x2 PUSH1 0x0 DUP7 DUP2 MSTORE PUSH1 0x20 ADD SWAP1 DUP2 MSTORE PUSH1 0x20 ADD PUSH1 0x0 KECCAK256 PUSH1 0x0 DUP3 ADD MLOAD DUP2 PUSH1 0x0 ADD SSTORE PUSH1 0x20 DUP3 ADD MLOAD DUP2 PUSH1 0x1 ADD SWAP1 DUP1 MLOAD SWAP1 PUSH1 0x20 ADD SWAP1 PUSH2 0x280 SWAP3 SWAP2 SWAP1 PUSH2 0x294 JUMP JUMPDEST POP PUSH1 0x40 DUP3 ADD MLOAD DUP2 PUSH1 0x2 ADD SSTORE SWAP1 POP POP POP POP POP POP JUMP JUMPDEST DUP3 DUP1 SLOAD PUSH1 0x1 DUP2 PUSH1 0x1 AND ISZERO PUSH2 0x100 MUL SUB AND PUSH1 0x2 SWAP1 DIV SWAP1 PUSH1 0x0 MSTORE PUSH1 0x20 PUSH1 0x0 KECCAK256 SWAP1 PUSH1 0x1F ADD PUSH1 0x20 SWAP1 DIV DUP2 ADD SWAP3 DUP3 PUSH1 0x1F LT PUSH2 0x2D5 JUMPI DUP1 MLOAD PUSH1 0xFF NOT AND DUP4 DUP1 ADD OR DUP6 SSTORE PUSH2 0x303 JUMP JUMPDEST DUP3 DUP1 ADD PUSH1 0x1 ADD DUP6 SSTORE DUP3 ISZERO PUSH2 0x303 JUMPI SWAP2 DUP3 ADD JUMPDEST DUP3 DUP2 GT ISZERO PUSH2 0x302 JUMPI DUP3 MLOAD DUP3 SSTORE SWAP2 PUSH1 0x20 ADD SWAP2 SWAP1 PUSH1 0x1 ADD SWAP1 PUSH2 0x2E7 JUMP JUMPDEST JUMPDEST POP SWAP1 POP PUSH2 0x310 SWAP2 SWAP1 PUSH2 0x314 JUMP JUMPDEST POP SWAP1 JUMP JUMPDEST PUSH2 0x336 SWAP2 SWAP1 JUMPDEST DUP1 DUP3 GT ISZERO PUSH2 0x332 JUMPI PUSH1 0x0 DUP2 PUSH1 0x0 SWAP1 SSTORE POP PUSH1 0x1 ADD PUSH2 0x31A JUMP JUMPDEST POP SWAP1 JUMP JUMPDEST SWAP1 JUMP JUMPDEST PUSH1 0x0 DUP2 CALLDATALOAD SWAP1 POP PUSH2 0x348 DUP2 PUSH2 0x678 JUMP JUMPDEST SWAP3 SWAP2 POP POP JUMP JUMPDEST PUSH1 0x0 DUP3 PUSH1 0x1F DUP4 ADD SLT PUSH2 0x35F JUMPI PUSH1 0x0 DUP1 REVERT JUMPDEST DUP2 CALLDATALOAD PUSH2 0x372 PUSH2 0x36D DUP3 PUSH2 0x5B8 JUMP JUMPDEST PUSH2 0x58B JUMP JUMPDEST SWAP2 POP DUP1 DUP3 MSTORE PUSH1 0x20 DUP4 ADD PUSH1 0x20 DUP4 ADD DUP6 DUP4 DUP4 ADD GT ISZERO PUSH2 0x38E JUMPI PUSH1 0x0 DUP1 REVERT JUMPDEST PUSH2 0x399 DUP4 DUP3 DUP5 PUSH2 0x636 JUMP JUMPDEST POP POP POP SWAP3 SWAP2 POP POP JUMP JUMPDEST PUSH1 0x0 DUP2 CALLDATALOAD SWAP1 POP PUSH2 0x3B1 DUP2 PUSH2 0x68F JUMP JUMPDEST SWAP3 SWAP2 POP POP JUMP JUMPDEST PUSH1 0x0 PUSH1 0x20 DUP3 DUP5 SUB SLT ISZERO PUSH2 0x3C9 JUMPI PUSH1 0x0 DUP1 REVERT JUMPDEST PUSH1 0x0 PUSH2 0x3D7 DUP5 DUP3 DUP6 ADD PUSH2 0x339 JUMP JUMPDEST SWAP2 POP POP SWAP3 SWAP2 POP POP JUMP JUMPDEST PUSH1 0x0 PUSH1 0x20 DUP3 DUP5 SUB SLT ISZERO PUSH2 0x3F2 JUMPI PUSH1 0x0 DUP1 REVERT JUMPDEST PUSH1 0x0 DUP3 ADD CALLDATALOAD PUSH8 0xFFFFFFFFFFFFFFFF DUP2 GT ISZERO PUSH2 0x40C JUMPI PUSH1 0x0 DUP1 REVERT JUMPDEST PUSH2 0x418 DUP5 DUP3 DUP6 ADD PUSH2 0x34E JUMP JUMPDEST SWAP2 POP POP SWAP3 SWAP2 POP POP JUMP JUMPDEST PUSH1 0x0 DUP1 PUSH1 0x40 DUP4 DUP6 SUB SLT ISZERO PUSH2 0x434 JUMPI PUSH1 0x0 DUP1 REVERT JUMPDEST PUSH1 0x0 DUP4 ADD CALLDATALOAD PUSH8 0xFFFFFFFFFFFFFFFF DUP2 GT ISZERO PUSH2 0x44E JUMPI PUSH1 0x0 DUP1 REVERT JUMPDEST PUSH2 0x45A DUP6 DUP3 DUP7 ADD PUSH2 0x34E JUMP JUMPDEST SWAP3 POP POP PUSH1 0x20 PUSH2 0x46B DUP6 DUP3 DUP7 ADD PUSH2 0x3A2 JUMP JUMPDEST SWAP2 POP POP SWAP3 POP SWAP3 SWAP1 POP JUMP JUMPDEST PUSH1 0x0 PUSH1 0x20 DUP3 DUP5 SUB SLT ISZERO PUSH2 0x487 JUMPI PUSH1 0x0 DUP1 REVERT JUMPDEST PUSH1 0x0 PUSH2 0x495 DUP5 DUP3 DUP6 ADD PUSH2 0x3A2 JUMP JUMPDEST SWAP2 POP POP SWAP3 SWAP2 POP POP JUMP JUMPDEST PUSH1 0x0 DUP1 PUSH1 0x0 DUP1 PUSH1 0x80 DUP6 DUP8 SUB SLT ISZERO PUSH2 0x4B4 JUMPI PUSH1 0x0 DUP1 REVERT JUMPDEST PUSH1 0x0 PUSH2 0x4C2 DUP8 DUP3 DUP9 ADD PUSH2 0x3A2 JUMP JUMPDEST SWAP5 POP POP PUSH1 0x20 PUSH2 0x4D3 DUP8 DUP3 DUP9 ADD PUSH2 0x3A2 JUMP JUMPDEST SWAP4 POP POP PUSH1 0x40 DUP6 ADD CALLDATALOAD PUSH8 0xFFFFFFFFFFFFFFFF DUP2 GT ISZERO PUSH2 0x4F0 JUMPI PUSH1 0x0 DUP1 REVERT JUMPDEST PUSH2 0x4FC DUP8 DUP3 DUP9 ADD PUSH2 0x34E JUMP JUMPDEST SWAP3 POP POP PUSH1 0x60 PUSH2 0x50D DUP8 DUP3 DUP9 ADD PUSH2 0x3A2 JUMP JUMPDEST SWAP2 POP POP SWAP3 SWAP6 SWAP2 SWAP5 POP SWAP3 POP JUMP JUMPDEST PUSH1 0x0 PUSH2 0x524 DUP3 PUSH2 0x5E4 JUMP JUMPDEST PUSH2 0x52E DUP2 DUP6 PUSH2 0x5EF JUMP JUMPDEST SWAP4 POP PUSH2 0x53E DUP2 DUP6 PUSH1 0x20 DUP7 ADD PUSH2 0x645 JUMP JUMPDEST DUP1 DUP5 ADD SWAP2 POP POP SWAP3 SWAP2 POP POP JUMP JUMPDEST PUSH2 0x553 DUP2 PUSH2 0x62C JUMP JUMPDEST DUP3 MSTORE POP POP JUMP JUMPDEST PUSH1 0x0 PUSH2 0x565 DUP3 DUP5 PUSH2 0x519 JUMP JUMPDEST SWAP2 POP DUP2 SWAP1 POP SWAP3 SWAP2 POP POP JUMP JUMPDEST PUSH1 0x0 PUSH1 0x20 DUP3 ADD SWAP1 POP PUSH2 0x585 PUSH1 0x0 DUP4 ADD DUP5 PUSH2 0x54A JUMP JUMPDEST SWAP3 SWAP2 POP POP JUMP JUMPDEST PUSH1 0x0 PUSH1 0x40 MLOAD SWAP1 POP DUP2 DUP2 ADD DUP2 DUP2 LT PUSH8 0xFFFFFFFFFFFFFFFF DUP3 GT OR ISZERO PUSH2 0x5AE JUMPI PUSH1 0x0 DUP1 REVERT JUMPDEST DUP1 PUSH1 0x40 MSTORE POP SWAP2 SWAP1 POP JUMP JUMPDEST PUSH1 0x0 PUSH8 0xFFFFFFFFFFFFFFFF DUP3 GT ISZERO PUSH2 0x5CF JUMPI PUSH1 0x0 DUP1 REVERT JUMPDEST PUSH1 0x1F NOT PUSH1 0x1F DUP4 ADD AND SWAP1 POP PUSH1 0x20 DUP2 ADD SWAP1 POP SWAP2 SWAP1 POP JUMP JUMPDEST PUSH1 0x0 DUP2 MLOAD SWAP1 POP SWAP2 SWAP1 POP JUMP JUMPDEST PUSH1 0x0 DUP2 SWAP1 POP SWAP3 SWAP2 POP POP JUMP JUMPDEST PUSH1 0x0 PUSH2 0x605 DUP3 PUSH2 0x60C JUMP JUMPDEST SWAP1 POP SWAP2 SWAP1 POP JUMP JUMPDEST PUSH1 0x0 PUSH20 0xFFFFFFFFFFFFFFFFFFFFFFFFFFFFFFFFFFFFFFFF DUP3 AND SWAP1 POP SWAP2 SWAP1 POP JUMP JUMPDEST PUSH1 0x0 DUP2 SWAP1 POP SWAP2 SWAP1 POP JUMP JUMPDEST DUP3 DUP2 DUP4 CALLDATACOPY PUSH1 0x0 DUP4 DUP4 ADD MSTORE POP POP POP JUMP JUMPDEST PUSH1 0x0 JUMPDEST DUP4 DUP2 LT ISZERO PUSH2 0x663 JUMPI DUP1 DUP3 ADD MLOAD DUP2 DUP5 ADD MSTORE PUSH1 0x20 DUP2 ADD SWAP1 POP PUSH2 0x648 JUMP JUMPDEST DUP4 DUP2 GT ISZERO PUSH2 0x672 JUMPI PUSH1 0x0 DUP5 DUP5 ADD MSTORE JUMPDEST POP POP POP POP JUMP JUMPDEST PUSH2 0x681 DUP2 PUSH2 0x5FA JUMP JUMPDEST DUP2 EQ PUSH2 0x68C JUMPI PUSH1 0x0 DUP1 REVERT JUMPDEST POP JUMP JUMPDEST PUSH2 0x698 DUP2 PUSH2 0x62C JUMP JUMPDEST DUP2 EQ PUSH2 0x6A3 JUMPI PUSH1 0x0 DUP1 REVERT JUMPDEST POP JUMP INVALID LOG2 PUSH5 0x6970667358 0x22 SLT KECCAK256 0xAA 0x2E DUP9 0xCA 0xD3 0xB9 PUSH5 0xCA741596A2 0xC8 ADDMOD DUP13 EXTCODECOPY SELFDESTRUCT SWAP7 0xB2 SLOAD PUSH25 0x792E2E051A5772A43B045B64736F6C63430006050033000000 "
				},
				"gasEstimates": {
					"creation": {
						"codeDepositCost": "351200",
						"executionCost": "386",
						"totalCost": "351586"
					},
					"external": {
						"consultarDinero(string)": "infinite",
						"consultarNumero()": "1248",
						"direccion_edad(address)": "1580",
						"elegirNumero(uint256)": "20553",
						"ingresarDinero(string,uint256)": "infinite",
						"ingresarPersona(uint256,uint256,string,uint256)": "infinite"
					}
				},
				"methodIdentifiers": {
					"consultarDinero(string)": "47267990",
					"consultarNumero()": "92174b49",
					"direccion_edad(address)": "e7089298",
					"elegirNumero(uint256)": "d0427d5a",
					"ingresarDinero(string,uint256)": "276a05bf",
					"ingresarPersona(uint256,uint256,string,uint256)": "eb001a72"
				}
			},
			"storageLayout": {
				"storage": [
					{
						"astId": 6,
						"contract": "Estructuras de datos/mappings.sol:Mappings",
						"label": "direccion_edad",
						"offset": 0,
						"slot": "0",
						"type": "t_mapping(t_address,t_uint256)"
					},
					{
						"astId": 34,
						"contract": "Estructuras de datos/mappings.sol:Mappings",
						"label": "cantidadDinero",
						"offset": 0,
						"slot": "1",
						"type": "t_mapping(t_string_memory_ptr,t_uint256)"
					},
					{
						"astId": 71,
						"contract": "Estructuras de datos/mappings.sol:Mappings",
						"label": "personas",
						"offset": 0,
						"slot": "2",
						"type": "t_mapping(t_uint256,t_struct(Persona)67_storage)"
					}
				],
				"types": {
					"t_address": {
						"encoding": "inplace",
						"label": "address",
						"numberOfBytes": "20"
					},
					"t_mapping(t_address,t_uint256)": {
						"encoding": "mapping",
						"key": "t_address",
						"label": "mapping(address => uint256)",
						"numberOfBytes": "32",
						"value": "t_uint256"
					},
					"t_mapping(t_string_memory_ptr,t_uint256)": {
						"encoding": "mapping",
						"key": "t_string_memory_ptr",
						"label": "mapping(string => uint256)",
						"numberOfBytes": "32",
						"value": "t_uint256"
					},
					"t_mapping(t_uint256,t_struct(Persona)67_storage)": {
						"encoding": "mapping",
						"key": "t_uint256",
						"label": "mapping(uint256 => struct Mappings.Persona)",
						"numberOfBytes": "32",
						"value": "t_struct(Persona)67_storage"
					},
					"t_string_memory_ptr": {
						"encoding": "bytes",
						"label": "string",
						"numberOfBytes": "32"
					},
					"t_string_storage": {
						"encoding": "bytes",
						"label": "string",
						"numberOfBytes": "32"
					},
					"t_struct(Persona)67_storage": {
						"encoding": "inplace",
						"label": "struct Mappings.Persona",
						"members": [
							{
								"astId": 62,
								"contract": "Estructuras de datos/mappings.sol:Mappings",
								"label": "id",
								"offset": 0,
								"slot": "0",
								"type": "t_uint256"
							},
							{
								"astId": 64,
								"contract": "Estructuras de datos/mappings.sol:Mappings",
								"label": "nombre",
								"offset": 0,
								"slot": "1",
								"type": "t_string_storage"
							},
							{
								"astId": 66,
								"contract": "Estructuras de datos/mappings.sol:Mappings",
								"label": "edad",
								"offset": 0,
								"slot": "2",
								"type": "t_uint256"
							}
						],
						"numberOfBytes": "96"
					},
					"t_uint256": {
						"encoding": "inplace",
						"label": "uint256",
						"numberOfBytes": "32"
					}
				}
			},
			"userdoc": {
				"methods": {}
			}
		}
	}
}