{
	"Estructuras de datos/mappings.sol": {
		"Mappings": {
			"abi": [
				{
					"inputs": [
						{
							"internalType": "string",
							"name": "_nombre",
							"type": "string"
						}
					],
					"name": "consultarDinero",
					"outputs": [
						{
							"internalType": "uint256",
							"name": "",
							"type": "uint256"
						}
					],
					"stateMutability": "view",
					"type": "function"
				},
				{
					"inputs": [],
					"name": "consultarNumero",
					"outputs": [
						{
							"internalType": "uint256",
							"name": "",
							"type": "uint256"
						}
					],
					"stateMutability": "view",
					"type": "function"
				},
				{
					"inputs": [
						{
							"internalType": "address",
							"name": "",
							"type": "address"
						}
					],
					"name": "direccion_edad",
					"outputs": [
						{
							"internalType": "uint256",
							"name": "",
							"type": "uint256"
						}
					],
					"stateMutability": "view",
					"type": "function"
				},
				{
					"inputs": [
						{
							"internalType": "uint256",
							"name": "_numero",
							"type": "uint256"
						}
					],
					"name": "elegirNumero",
					"outputs": [],
					"stateMutability": "nonpayable",
					"type": "function"
				},
				{
					"inputs": [
						{
							"internalType": "string",
							"name": "_nombre",
							"type": "string"
						},
						{
							"internalType": "uint256",
							"name": "_cantidad",
							"type": "uint256"
						}
					],
					"name": "ingresarDinero",
					"outputs": [],
					"stateMutability": "nonpayable",
					"type": "function"
				},
				{
					"inputs": [
						{
							"internalType": "uint256",
							"name": "_dni",
							"type": "uint256"
						},
						{
							"internalType": "uint256",
							"name": "_id",
							"type": "uint256"
						},
						{
							"internalType": "string",
							"name": "_nombre",
							"type": "string"
						},
						{
							"internalType": "uint256",
							"name": "_edad",
							"type": "uint256"
						}
					],
					"name": "ingresarPersona",
					"outputs": [],
					"stateMutability": "nonpayable",
					"type": "function"
				},
				{
					"inputs": [
						{
							"internalType": "uint256",
							"name": "_dni",
							"type": "uint256"
						}
					],
					"name": "obtenerPersona",
					"outputs": [
						{
							"components": [
								{
									"internalType": "uint256",
									"name": "id",
									"type": "uint256"
								},
								{
									"internalType": "string",
									"name": "nombre",
									"type": "string"
								},
								{
									"internalType": "uint256",
									"name": "edad",
									"type": "uint256"
								}
							],
							"internalType": "struct Mappings.Persona",
							"name": "",
							"type": "tuple"
						}
					],
					"stateMutability": "view",
					"type": "function"
				}
			],
			"devdoc": {
				"kind": "dev",
				"methods": {},
				"version": 1
			},
			"evm": {
				"assembly": "    /* \"Estructuras de datos/mappings.sol\":103:1214  contract Mappings{... */\n  mstore(0x40, 0x80)\n  callvalue\n  dup1\n  iszero\n  tag_1\n  jumpi\n  0x00\n  dup1\n  revert\ntag_1:\n  pop\n  dataSize(sub_0)\n  dup1\n  dataOffset(sub_0)\n  0x00\n  codecopy\n  0x00\n  return\nstop\n\nsub_0: assembly {\n        /* \"Estructuras de datos/mappings.sol\":103:1214  contract Mappings{... */\n      mstore(0x40, 0x80)\n      callvalue\n      dup1\n      iszero\n      tag_1\n      jumpi\n      0x00\n      dup1\n      revert\n    tag_1:\n      pop\n      jumpi(tag_2, lt(calldatasize, 0x04))\n      shr(0xe0, calldataload(0x00))\n      dup1\n      0x92174b49\n      gt\n      tag_10\n      jumpi\n      dup1\n      0x92174b49\n      eq\n      tag_6\n      jumpi\n      dup1\n      0xd0427d5a\n      eq\n      tag_7\n      jumpi\n      dup1\n      0xe7089298\n      eq\n      tag_8\n      jumpi\n      dup1\n      0xeb001a72\n      eq\n      tag_9\n      jumpi\n      jump(tag_2)\n    tag_10:\n      dup1\n      0x276a05bf\n      eq\n      tag_3\n      jumpi\n      dup1\n      0x47267990\n      eq\n      tag_4\n      jumpi\n      dup1\n      0x7f1937fb\n      eq\n      tag_5\n      jumpi\n    tag_2:\n      0x00\n      dup1\n      revert\n        /* \"Estructuras de datos/mappings.sol\":574:695  function ingresarDinero(string memory _nombre, uint _cantidad) public {... */\n    tag_3:\n      tag_11\n      0x04\n      dup1\n      calldatasize\n      sub\n      dup2\n      add\n      swap1\n      tag_12\n      swap2\n      swap1\n      tag_13\n      jump\t// in\n    tag_12:\n      tag_14\n      jump\t// in\n    tag_11:\n      stop\n        /* \"Estructuras de datos/mappings.sol\":701:820  function consultarDinero(string memory _nombre) public view returns (uint){... */\n    tag_4:\n      tag_15\n      0x04\n      dup1\n      calldatasize\n      sub\n      dup2\n      add\n      swap1\n      tag_16\n      swap2\n      swap1\n      tag_17\n      jump\t// in\n    tag_16:\n      tag_18\n      jump\t// in\n    tag_15:\n      mload(0x40)\n      tag_19\n      swap2\n      swap1\n      tag_20\n      jump\t// in\n    tag_19:\n      mload(0x40)\n      dup1\n      swap2\n      sub\n      swap1\n      return\n        /* \"Estructuras de datos/mappings.sol\":1102:1211  function obtenerPersona(uint _dni) public view  returns  (Persona memory){... */\n    tag_5:\n      tag_21\n      0x04\n      dup1\n      calldatasize\n      sub\n      dup2\n      add\n      swap1\n      tag_22\n      swap2\n      swap1\n      tag_23\n      jump\t// in\n    tag_22:\n      tag_24\n      jump\t// in\n    tag_21:\n      mload(0x40)\n      tag_25\n      swap2\n      swap1\n      tag_26\n      jump\t// in\n    tag_25:\n      mload(0x40)\n      dup1\n      swap2\n      sub\n      swap1\n      return\n        /* \"Estructuras de datos/mappings.sol\":331:430  function consultarNumero()public view returns(uint){... */\n    tag_6:\n      tag_27\n      tag_28\n      jump\t// in\n    tag_27:\n      mload(0x40)\n      tag_29\n      swap2\n      swap1\n      tag_20\n      jump\t// in\n    tag_29:\n      mload(0x40)\n      dup1\n      swap2\n      sub\n      swap1\n      return\n        /* \"Estructuras de datos/mappings.sol\":234:325  function elegirNumero(uint _numero) public{... */\n    tag_7:\n      tag_30\n      0x04\n      dup1\n      calldatasize\n      sub\n      dup2\n      add\n      swap1\n      tag_31\n      swap2\n      swap1\n      tag_23\n      jump\t// in\n    tag_31:\n      tag_32\n      jump\t// in\n    tag_30:\n      stop\n        /* \"Estructuras de datos/mappings.sol\":180:227  mapping (address => uint) public direccion_edad */\n    tag_8:\n      tag_33\n      0x04\n      dup1\n      calldatasize\n      sub\n      dup2\n      add\n      swap1\n      tag_34\n      swap2\n      swap1\n      tag_35\n      jump\t// in\n    tag_34:\n      tag_36\n      jump\t// in\n    tag_33:\n      mload(0x40)\n      tag_37\n      swap2\n      swap1\n      tag_20\n      jump\t// in\n    tag_37:\n      mload(0x40)\n      dup1\n      swap2\n      sub\n      swap1\n      return\n        /* \"Estructuras de datos/mappings.sol\":948:1096  function ingresarPersona(uint _dni, uint _id, string memory _nombre, uint _edad) public {... */\n    tag_9:\n      tag_38\n      0x04\n      dup1\n      calldatasize\n      sub\n      dup2\n      add\n      swap1\n      tag_39\n      swap2\n      swap1\n      tag_40\n      jump\t// in\n    tag_39:\n      tag_41\n      jump\t// in\n    tag_38:\n      stop\n        /* \"Estructuras de datos/mappings.sol\":574:695  function ingresarDinero(string memory _nombre, uint _cantidad) public {... */\n    tag_14:\n        /* \"Estructuras de datos/mappings.sol\":679:688  _cantidad */\n      dup1\n        /* \"Estructuras de datos/mappings.sol\":653:667  cantidadDinero */\n      0x01\n        /* \"Estructuras de datos/mappings.sol\":668:675  _nombre */\n      dup4\n        /* \"Estructuras de datos/mappings.sol\":653:676  cantidadDinero[_nombre] */\n      mload(0x40)\n      tag_43\n      swap2\n      swap1\n      tag_44\n      jump\t// in\n    tag_43:\n      swap1\n      dup2\n      mstore\n      0x20\n      add\n      mload(0x40)\n      dup1\n      swap2\n      sub\n      swap1\n      keccak256\n        /* \"Estructuras de datos/mappings.sol\":653:688  cantidadDinero[_nombre] = _cantidad */\n      dup2\n      swap1\n      sstore\n      pop\n        /* \"Estructuras de datos/mappings.sol\":574:695  function ingresarDinero(string memory _nombre, uint _cantidad) public {... */\n      pop\n      pop\n      jump\t// out\n        /* \"Estructuras de datos/mappings.sol\":701:820  function consultarDinero(string memory _nombre) public view returns (uint){... */\n    tag_18:\n        /* \"Estructuras de datos/mappings.sol\":770:774  uint */\n      0x00\n        /* \"Estructuras de datos/mappings.sol\":791:805  cantidadDinero */\n      0x01\n        /* \"Estructuras de datos/mappings.sol\":806:813  _nombre */\n      dup3\n        /* \"Estructuras de datos/mappings.sol\":791:814  cantidadDinero[_nombre] */\n      mload(0x40)\n      tag_46\n      swap2\n      swap1\n      tag_44\n      jump\t// in\n    tag_46:\n      swap1\n      dup2\n      mstore\n      0x20\n      add\n      mload(0x40)\n      dup1\n      swap2\n      sub\n      swap1\n      keccak256\n      sload\n        /* \"Estructuras de datos/mappings.sol\":784:814  return cantidadDinero[_nombre] */\n      swap1\n      pop\n        /* \"Estructuras de datos/mappings.sol\":701:820  function consultarDinero(string memory _nombre) public view returns (uint){... */\n      swap2\n      swap1\n      pop\n      jump\t// out\n        /* \"Estructuras de datos/mappings.sol\":1102:1211  function obtenerPersona(uint _dni) public view  returns  (Persona memory){... */\n    tag_24:\n        /* \"Estructuras de datos/mappings.sol\":1160:1174  Persona memory */\n      tag_47\n      tag_48\n      jump\t// in\n    tag_47:\n        /* \"Estructuras de datos/mappings.sol\":1191:1199  personas */\n      0x02\n        /* \"Estructuras de datos/mappings.sol\":1191:1205  personas[_dni] */\n      0x00\n        /* \"Estructuras de datos/mappings.sol\":1200:1204  _dni */\n      dup4\n        /* \"Estructuras de datos/mappings.sol\":1191:1205  personas[_dni] */\n      dup2\n      mstore\n      0x20\n      add\n      swap1\n      dup2\n      mstore\n      0x20\n      add\n      0x00\n      keccak256\n        /* \"Estructuras de datos/mappings.sol\":1184:1205  return personas[_dni] */\n      mload(0x40)\n      dup1\n      0x60\n      add\n      0x40\n      mstore\n      swap1\n      dup2\n      0x00\n      dup3\n      add\n      sload\n      dup2\n      mstore\n      0x20\n      add\n      0x01\n      dup3\n      add\n      dup1\n      sload\n      tag_50\n      swap1\n      tag_51\n      jump\t// in\n    tag_50:\n      dup1\n      0x1f\n      add\n      0x20\n      dup1\n      swap2\n      div\n      mul\n      0x20\n      add\n      mload(0x40)\n      swap1\n      dup2\n      add\n      0x40\n      mstore\n      dup1\n      swap3\n      swap2\n      swap1\n      dup2\n      dup2\n      mstore\n      0x20\n      add\n      dup3\n      dup1\n      sload\n      tag_52\n      swap1\n      tag_51\n      jump\t// in\n    tag_52:\n      dup1\n      iszero\n      tag_53\n      jumpi\n      dup1\n      0x1f\n      lt\n      tag_54\n      jumpi\n      0x0100\n      dup1\n      dup4\n      sload\n      div\n      mul\n      dup4\n      mstore\n      swap2\n      0x20\n      add\n      swap2\n      jump(tag_53)\n    tag_54:\n      dup3\n      add\n      swap2\n      swap1\n      0x00\n      mstore\n      keccak256(0x00, 0x20)\n      swap1\n    tag_55:\n      dup2\n      sload\n      dup2\n      mstore\n      swap1\n      0x01\n      add\n      swap1\n      0x20\n      add\n      dup1\n      dup4\n      gt\n      tag_55\n      jumpi\n      dup3\n      swap1\n      sub\n      0x1f\n      and\n      dup3\n      add\n      swap2\n    tag_53:\n      pop\n      pop\n      pop\n      pop\n      pop\n      dup2\n      mstore\n      0x20\n      add\n      0x02\n      dup3\n      add\n      sload\n      dup2\n      mstore\n      pop\n      pop\n      swap1\n      pop\n        /* \"Estructuras de datos/mappings.sol\":1102:1211  function obtenerPersona(uint _dni) public view  returns  (Persona memory){... */\n      swap2\n      swap1\n      pop\n      jump\t// out\n        /* \"Estructuras de datos/mappings.sol\":331:430  function consultarNumero()public view returns(uint){... */\n    tag_28:\n        /* \"Estructuras de datos/mappings.sol\":377:381  uint */\n      0x00\n        /* \"Estructuras de datos/mappings.sol\":398:412  direccion_edad */\n      dup1\n        /* \"Estructuras de datos/mappings.sol\":398:424  direccion_edad[msg.sender] */\n      0x00\n        /* \"Estructuras de datos/mappings.sol\":413:423  msg.sender */\n      caller\n        /* \"Estructuras de datos/mappings.sol\":398:424  direccion_edad[msg.sender] */\n      0xffffffffffffffffffffffffffffffffffffffff\n      and\n      0xffffffffffffffffffffffffffffffffffffffff\n      and\n      dup2\n      mstore\n      0x20\n      add\n      swap1\n      dup2\n      mstore\n      0x20\n      add\n      0x00\n      keccak256\n      sload\n        /* \"Estructuras de datos/mappings.sol\":391:424  return direccion_edad[msg.sender] */\n      swap1\n      pop\n        /* \"Estructuras de datos/mappings.sol\":331:430  function consultarNumero()public view returns(uint){... */\n      swap1\n      jump\t// out\n        /* \"Estructuras de datos/mappings.sol\":234:325  function elegirNumero(uint _numero) public{... */\n    tag_32:\n        /* \"Estructuras de datos/mappings.sol\":312:319  _numero */\n      dup1\n        /* \"Estructuras de datos/mappings.sol\":283:297  direccion_edad */\n      0x00\n        /* \"Estructuras de datos/mappings.sol\":283:309  direccion_edad[msg.sender] */\n      dup1\n        /* \"Estructuras de datos/mappings.sol\":298:308  msg.sender */\n      caller\n        /* \"Estructuras de datos/mappings.sol\":283:309  direccion_edad[msg.sender] */\n      0xffffffffffffffffffffffffffffffffffffffff\n      and\n      0xffffffffffffffffffffffffffffffffffffffff\n      and\n      dup2\n      mstore\n      0x20\n      add\n      swap1\n      dup2\n      mstore\n      0x20\n      add\n      0x00\n      keccak256\n        /* \"Estructuras de datos/mappings.sol\":283:319  direccion_edad[msg.sender] = _numero */\n      dup2\n      swap1\n      sstore\n      pop\n        /* \"Estructuras de datos/mappings.sol\":234:325  function elegirNumero(uint _numero) public{... */\n      pop\n      jump\t// out\n        /* \"Estructuras de datos/mappings.sol\":180:227  mapping (address => uint) public direccion_edad */\n    tag_36:\n      mstore(0x20, 0x00)\n      dup1\n      0x00\n      mstore\n      keccak256(0x00, 0x40)\n      0x00\n      swap2\n      pop\n      swap1\n      pop\n      sload\n      dup2\n      jump\t// out\n        /* \"Estructuras de datos/mappings.sol\":948:1096  function ingresarPersona(uint _dni, uint _id, string memory _nombre, uint _edad) public {... */\n    tag_41:\n        /* \"Estructuras de datos/mappings.sol\":1062:1090  Persona(_id, _nombre, _edad) */\n      mload(0x40)\n      dup1\n      0x60\n      add\n      0x40\n      mstore\n      dup1\n        /* \"Estructuras de datos/mappings.sol\":1070:1073  _id */\n      dup5\n        /* \"Estructuras de datos/mappings.sol\":1062:1090  Persona(_id, _nombre, _edad) */\n      dup2\n      mstore\n      0x20\n      add\n        /* \"Estructuras de datos/mappings.sol\":1075:1082  _nombre */\n      dup4\n        /* \"Estructuras de datos/mappings.sol\":1062:1090  Persona(_id, _nombre, _edad) */\n      dup2\n      mstore\n      0x20\n      add\n        /* \"Estructuras de datos/mappings.sol\":1084:1089  _edad */\n      dup3\n        /* \"Estructuras de datos/mappings.sol\":1062:1090  Persona(_id, _nombre, _edad) */\n      dup2\n      mstore\n      pop\n        /* \"Estructuras de datos/mappings.sol\":1045:1053  personas */\n      0x02\n        /* \"Estructuras de datos/mappings.sol\":1045:1059  personas[_dni] */\n      0x00\n        /* \"Estructuras de datos/mappings.sol\":1054:1058  _dni */\n      dup7\n        /* \"Estructuras de datos/mappings.sol\":1045:1059  personas[_dni] */\n      dup2\n      mstore\n      0x20\n      add\n      swap1\n      dup2\n      mstore\n      0x20\n      add\n      0x00\n      keccak256\n        /* \"Estructuras de datos/mappings.sol\":1045:1090  personas[_dni] = Persona(_id, _nombre, _edad) */\n      0x00\n      dup3\n      add\n      mload\n      dup2\n      0x00\n      add\n      sstore\n      0x20\n      dup3\n      add\n      mload\n      dup2\n      0x01\n      add\n      swap1\n      dup1\n      mload\n      swap1\n      0x20\n      add\n      swap1\n      tag_59\n      swap3\n      swap2\n      swap1\n      tag_60\n      jump\t// in\n    tag_59:\n      pop\n      0x40\n      dup3\n      add\n      mload\n      dup2\n      0x02\n      add\n      sstore\n      swap1\n      pop\n      pop\n        /* \"Estructuras de datos/mappings.sol\":948:1096  function ingresarPersona(uint _dni, uint _id, string memory _nombre, uint _edad) public {... */\n      pop\n      pop\n      pop\n      pop\n      jump\t// out\n    tag_48:\n      mload(0x40)\n      dup1\n      0x60\n      add\n      0x40\n      mstore\n      dup1\n      0x00\n      dup2\n      mstore\n      0x20\n      add\n      0x60\n      dup2\n      mstore\n      0x20\n      add\n      0x00\n      dup2\n      mstore\n      pop\n      swap1\n      jump\t// out\n    tag_60:\n      dup3\n      dup1\n      sload\n      tag_61\n      swap1\n      tag_51\n      jump\t// in\n    tag_61:\n      swap1\n      0x00\n      mstore\n      keccak256(0x00, 0x20)\n      swap1\n      0x1f\n      add\n      0x20\n      swap1\n      div\n      dup2\n      add\n      swap3\n      dup3\n      tag_63\n      jumpi\n      0x00\n      dup6\n      sstore\n      jump(tag_62)\n    tag_63:\n      dup3\n      0x1f\n      lt\n      tag_64\n      jumpi\n      dup1\n      mload\n      not(0xff)\n      and\n      dup4\n      dup1\n      add\n      or\n      dup6\n      sstore\n      jump(tag_62)\n    tag_64:\n      dup3\n      dup1\n      add\n      0x01\n      add\n      dup6\n      sstore\n      dup3\n      iszero\n      tag_62\n      jumpi\n      swap2\n      dup3\n      add\n    tag_65:\n      dup3\n      dup2\n      gt\n      iszero\n      tag_66\n      jumpi\n      dup3\n      mload\n      dup3\n      sstore\n      swap2\n      0x20\n      add\n      swap2\n      swap1\n      0x01\n      add\n      swap1\n      jump(tag_65)\n    tag_66:\n    tag_62:\n      pop\n      swap1\n      pop\n      tag_67\n      swap2\n      swap1\n      tag_68\n      jump\t// in\n    tag_67:\n      pop\n      swap1\n      jump\t// out\n    tag_68:\n    tag_69:\n      dup1\n      dup3\n      gt\n      iszero\n      tag_70\n      jumpi\n      0x00\n      dup2\n      0x00\n      swap1\n      sstore\n      pop\n      0x01\n      add\n      jump(tag_69)\n    tag_70:\n      pop\n      swap1\n      jump\t// out\n        /* \"#utility.yul\":7:82   */\n    tag_71:\n        /* \"#utility.yul\":40:46   */\n      0x00\n        /* \"#utility.yul\":73:75   */\n      0x40\n        /* \"#utility.yul\":67:76   */\n      mload\n        /* \"#utility.yul\":57:76   */\n      swap1\n      pop\n        /* \"#utility.yul\":7:82   */\n      swap1\n      jump\t// out\n        /* \"#utility.yul\":88:205   */\n    tag_72:\n        /* \"#utility.yul\":197:198   */\n      0x00\n        /* \"#utility.yul\":194:195   */\n      dup1\n        /* \"#utility.yul\":187:199   */\n      revert\n        /* \"#utility.yul\":211:328   */\n    tag_73:\n        /* \"#utility.yul\":320:321   */\n      0x00\n        /* \"#utility.yul\":317:318   */\n      dup1\n        /* \"#utility.yul\":310:322   */\n      revert\n        /* \"#utility.yul\":334:451   */\n    tag_74:\n        /* \"#utility.yul\":443:444   */\n      0x00\n        /* \"#utility.yul\":440:441   */\n      dup1\n        /* \"#utility.yul\":433:445   */\n      revert\n        /* \"#utility.yul\":457:574   */\n    tag_75:\n        /* \"#utility.yul\":566:567   */\n      0x00\n        /* \"#utility.yul\":563:564   */\n      dup1\n        /* \"#utility.yul\":556:568   */\n      revert\n        /* \"#utility.yul\":580:682   */\n    tag_76:\n        /* \"#utility.yul\":621:627   */\n      0x00\n        /* \"#utility.yul\":672:674   */\n      0x1f\n        /* \"#utility.yul\":668:675   */\n      not\n        /* \"#utility.yul\":663:665   */\n      0x1f\n        /* \"#utility.yul\":656:661   */\n      dup4\n        /* \"#utility.yul\":652:666   */\n      add\n        /* \"#utility.yul\":648:676   */\n      and\n        /* \"#utility.yul\":638:676   */\n      swap1\n      pop\n        /* \"#utility.yul\":580:682   */\n      swap2\n      swap1\n      pop\n      jump\t// out\n        /* \"#utility.yul\":688:868   */\n    tag_77:\n        /* \"#utility.yul\":736:813   */\n      0x4e487b7100000000000000000000000000000000000000000000000000000000\n        /* \"#utility.yul\":733:734   */\n      0x00\n        /* \"#utility.yul\":726:814   */\n      mstore\n        /* \"#utility.yul\":833:837   */\n      0x41\n        /* \"#utility.yul\":830:831   */\n      0x04\n        /* \"#utility.yul\":823:838   */\n      mstore\n        /* \"#utility.yul\":857:861   */\n      0x24\n        /* \"#utility.yul\":854:855   */\n      0x00\n        /* \"#utility.yul\":847:862   */\n      revert\n        /* \"#utility.yul\":874:1155   */\n    tag_78:\n        /* \"#utility.yul\":957:984   */\n      tag_110\n        /* \"#utility.yul\":979:983   */\n      dup3\n        /* \"#utility.yul\":957:984   */\n      tag_76\n      jump\t// in\n    tag_110:\n        /* \"#utility.yul\":949:955   */\n      dup2\n        /* \"#utility.yul\":945:985   */\n      add\n        /* \"#utility.yul\":1087:1093   */\n      dup2\n        /* \"#utility.yul\":1075:1085   */\n      dup2\n        /* \"#utility.yul\":1072:1094   */\n      lt\n        /* \"#utility.yul\":1051:1069   */\n      0xffffffffffffffff\n        /* \"#utility.yul\":1039:1049   */\n      dup3\n        /* \"#utility.yul\":1036:1070   */\n      gt\n        /* \"#utility.yul\":1033:1095   */\n      or\n        /* \"#utility.yul\":1030:1118   */\n      iszero\n      tag_111\n      jumpi\n        /* \"#utility.yul\":1098:1116   */\n      tag_112\n      tag_77\n      jump\t// in\n    tag_112:\n        /* \"#utility.yul\":1030:1118   */\n    tag_111:\n        /* \"#utility.yul\":1138:1148   */\n      dup1\n        /* \"#utility.yul\":1134:1136   */\n      0x40\n        /* \"#utility.yul\":1127:1149   */\n      mstore\n        /* \"#utility.yul\":917:1155   */\n      pop\n        /* \"#utility.yul\":874:1155   */\n      pop\n      pop\n      jump\t// out\n        /* \"#utility.yul\":1161:1290   */\n    tag_79:\n        /* \"#utility.yul\":1195:1201   */\n      0x00\n        /* \"#utility.yul\":1222:1242   */\n      tag_114\n      tag_71\n      jump\t// in\n    tag_114:\n        /* \"#utility.yul\":1212:1242   */\n      swap1\n      pop\n        /* \"#utility.yul\":1251:1284   */\n      tag_115\n        /* \"#utility.yul\":1279:1283   */\n      dup3\n        /* \"#utility.yul\":1271:1277   */\n      dup3\n        /* \"#utility.yul\":1251:1284   */\n      tag_78\n      jump\t// in\n    tag_115:\n        /* \"#utility.yul\":1161:1290   */\n      swap2\n      swap1\n      pop\n      jump\t// out\n        /* \"#utility.yul\":1296:1604   */\n    tag_80:\n        /* \"#utility.yul\":1358:1362   */\n      0x00\n        /* \"#utility.yul\":1448:1466   */\n      0xffffffffffffffff\n        /* \"#utility.yul\":1440:1446   */\n      dup3\n        /* \"#utility.yul\":1437:1467   */\n      gt\n        /* \"#utility.yul\":1434:1490   */\n      iszero\n      tag_117\n      jumpi\n        /* \"#utility.yul\":1470:1488   */\n      tag_118\n      tag_77\n      jump\t// in\n    tag_118:\n        /* \"#utility.yul\":1434:1490   */\n    tag_117:\n        /* \"#utility.yul\":1508:1537   */\n      tag_119\n        /* \"#utility.yul\":1530:1536   */\n      dup3\n        /* \"#utility.yul\":1508:1537   */\n      tag_76\n      jump\t// in\n    tag_119:\n        /* \"#utility.yul\":1500:1537   */\n      swap1\n      pop\n        /* \"#utility.yul\":1592:1596   */\n      0x20\n        /* \"#utility.yul\":1586:1590   */\n      dup2\n        /* \"#utility.yul\":1582:1597   */\n      add\n        /* \"#utility.yul\":1574:1597   */\n      swap1\n      pop\n        /* \"#utility.yul\":1296:1604   */\n      swap2\n      swap1\n      pop\n      jump\t// out\n        /* \"#utility.yul\":1610:1764   */\n    tag_81:\n        /* \"#utility.yul\":1694:1700   */\n      dup3\n        /* \"#utility.yul\":1689:1692   */\n      dup2\n        /* \"#utility.yul\":1684:1687   */\n      dup4\n        /* \"#utility.yul\":1671:1701   */\n      calldatacopy\n        /* \"#utility.yul\":1756:1757   */\n      0x00\n        /* \"#utility.yul\":1747:1753   */\n      dup4\n        /* \"#utility.yul\":1742:1745   */\n      dup4\n        /* \"#utility.yul\":1738:1754   */\n      add\n        /* \"#utility.yul\":1731:1758   */\n      mstore\n        /* \"#utility.yul\":1610:1764   */\n      pop\n      pop\n      pop\n      jump\t// out\n        /* \"#utility.yul\":1770:2182   */\n    tag_82:\n        /* \"#utility.yul\":1848:1853   */\n      0x00\n        /* \"#utility.yul\":1873:1939   */\n      tag_122\n        /* \"#utility.yul\":1889:1938   */\n      tag_123\n        /* \"#utility.yul\":1931:1937   */\n      dup5\n        /* \"#utility.yul\":1889:1938   */\n      tag_80\n      jump\t// in\n    tag_123:\n        /* \"#utility.yul\":1873:1939   */\n      tag_79\n      jump\t// in\n    tag_122:\n        /* \"#utility.yul\":1864:1939   */\n      swap1\n      pop\n        /* \"#utility.yul\":1962:1968   */\n      dup3\n        /* \"#utility.yul\":1955:1960   */\n      dup2\n        /* \"#utility.yul\":1948:1969   */\n      mstore\n        /* \"#utility.yul\":2000:2004   */\n      0x20\n        /* \"#utility.yul\":1993:1998   */\n      dup2\n        /* \"#utility.yul\":1989:2005   */\n      add\n        /* \"#utility.yul\":2038:2041   */\n      dup5\n        /* \"#utility.yul\":2029:2035   */\n      dup5\n        /* \"#utility.yul\":2024:2027   */\n      dup5\n        /* \"#utility.yul\":2020:2036   */\n      add\n        /* \"#utility.yul\":2017:2042   */\n      gt\n        /* \"#utility.yul\":2014:2126   */\n      iszero\n      tag_124\n      jumpi\n        /* \"#utility.yul\":2045:2124   */\n      tag_125\n      tag_75\n      jump\t// in\n    tag_125:\n        /* \"#utility.yul\":2014:2126   */\n    tag_124:\n        /* \"#utility.yul\":2135:2176   */\n      tag_126\n        /* \"#utility.yul\":2169:2175   */\n      dup5\n        /* \"#utility.yul\":2164:2167   */\n      dup3\n        /* \"#utility.yul\":2159:2162   */\n      dup6\n        /* \"#utility.yul\":2135:2176   */\n      tag_81\n      jump\t// in\n    tag_126:\n        /* \"#utility.yul\":1854:2182   */\n      pop\n        /* \"#utility.yul\":1770:2182   */\n      swap4\n      swap3\n      pop\n      pop\n      pop\n      jump\t// out\n        /* \"#utility.yul\":2202:2542   */\n    tag_83:\n        /* \"#utility.yul\":2258:2263   */\n      0x00\n        /* \"#utility.yul\":2307:2310   */\n      dup3\n        /* \"#utility.yul\":2300:2304   */\n      0x1f\n        /* \"#utility.yul\":2292:2298   */\n      dup4\n        /* \"#utility.yul\":2288:2305   */\n      add\n        /* \"#utility.yul\":2284:2311   */\n      slt\n        /* \"#utility.yul\":2274:2396   */\n      tag_128\n      jumpi\n        /* \"#utility.yul\":2315:2394   */\n      tag_129\n      tag_74\n      jump\t// in\n    tag_129:\n        /* \"#utility.yul\":2274:2396   */\n    tag_128:\n        /* \"#utility.yul\":2432:2438   */\n      dup2\n        /* \"#utility.yul\":2419:2439   */\n      calldataload\n        /* \"#utility.yul\":2457:2536   */\n      tag_130\n        /* \"#utility.yul\":2532:2535   */\n      dup5\n        /* \"#utility.yul\":2524:2530   */\n      dup3\n        /* \"#utility.yul\":2517:2521   */\n      0x20\n        /* \"#utility.yul\":2509:2515   */\n      dup7\n        /* \"#utility.yul\":2505:2522   */\n      add\n        /* \"#utility.yul\":2457:2536   */\n      tag_82\n      jump\t// in\n    tag_130:\n        /* \"#utility.yul\":2448:2536   */\n      swap2\n      pop\n        /* \"#utility.yul\":2264:2542   */\n      pop\n        /* \"#utility.yul\":2202:2542   */\n      swap3\n      swap2\n      pop\n      pop\n      jump\t// out\n        /* \"#utility.yul\":2548:2625   */\n    tag_84:\n        /* \"#utility.yul\":2585:2592   */\n      0x00\n        /* \"#utility.yul\":2614:2619   */\n      dup2\n        /* \"#utility.yul\":2603:2619   */\n      swap1\n      pop\n        /* \"#utility.yul\":2548:2625   */\n      swap2\n      swap1\n      pop\n      jump\t// out\n        /* \"#utility.yul\":2631:2753   */\n    tag_85:\n        /* \"#utility.yul\":2704:2728   */\n      tag_133\n        /* \"#utility.yul\":2722:2727   */\n      dup2\n        /* \"#utility.yul\":2704:2728   */\n      tag_84\n      jump\t// in\n    tag_133:\n        /* \"#utility.yul\":2697:2702   */\n      dup2\n        /* \"#utility.yul\":2694:2729   */\n      eq\n        /* \"#utility.yul\":2684:2747   */\n      tag_134\n      jumpi\n        /* \"#utility.yul\":2743:2744   */\n      0x00\n        /* \"#utility.yul\":2740:2741   */\n      dup1\n        /* \"#utility.yul\":2733:2745   */\n      revert\n        /* \"#utility.yul\":2684:2747   */\n    tag_134:\n        /* \"#utility.yul\":2631:2753   */\n      pop\n      jump\t// out\n        /* \"#utility.yul\":2759:2898   */\n    tag_86:\n        /* \"#utility.yul\":2805:2810   */\n      0x00\n        /* \"#utility.yul\":2843:2849   */\n      dup2\n        /* \"#utility.yul\":2830:2850   */\n      calldataload\n        /* \"#utility.yul\":2821:2850   */\n      swap1\n      pop\n        /* \"#utility.yul\":2859:2892   */\n      tag_136\n        /* \"#utility.yul\":2886:2891   */\n      dup2\n        /* \"#utility.yul\":2859:2892   */\n      tag_85\n      jump\t// in\n    tag_136:\n        /* \"#utility.yul\":2759:2898   */\n      swap3\n      swap2\n      pop\n      pop\n      jump\t// out\n        /* \"#utility.yul\":2904:3558   */\n    tag_13:\n        /* \"#utility.yul\":2982:2988   */\n      0x00\n        /* \"#utility.yul\":2990:2996   */\n      dup1\n        /* \"#utility.yul\":3039:3041   */\n      0x40\n        /* \"#utility.yul\":3027:3036   */\n      dup4\n        /* \"#utility.yul\":3018:3025   */\n      dup6\n        /* \"#utility.yul\":3014:3037   */\n      sub\n        /* \"#utility.yul\":3010:3042   */\n      slt\n        /* \"#utility.yul\":3007:3126   */\n      iszero\n      tag_138\n      jumpi\n        /* \"#utility.yul\":3045:3124   */\n      tag_139\n      tag_72\n      jump\t// in\n    tag_139:\n        /* \"#utility.yul\":3007:3126   */\n    tag_138:\n        /* \"#utility.yul\":3193:3194   */\n      0x00\n        /* \"#utility.yul\":3182:3191   */\n      dup4\n        /* \"#utility.yul\":3178:3195   */\n      add\n        /* \"#utility.yul\":3165:3196   */\n      calldataload\n        /* \"#utility.yul\":3223:3241   */\n      0xffffffffffffffff\n        /* \"#utility.yul\":3215:3221   */\n      dup2\n        /* \"#utility.yul\":3212:3242   */\n      gt\n        /* \"#utility.yul\":3209:3326   */\n      iszero\n      tag_140\n      jumpi\n        /* \"#utility.yul\":3245:3324   */\n      tag_141\n      tag_73\n      jump\t// in\n    tag_141:\n        /* \"#utility.yul\":3209:3326   */\n    tag_140:\n        /* \"#utility.yul\":3350:3413   */\n      tag_142\n        /* \"#utility.yul\":3405:3412   */\n      dup6\n        /* \"#utility.yul\":3396:3402   */\n      dup3\n        /* \"#utility.yul\":3385:3394   */\n      dup7\n        /* \"#utility.yul\":3381:3403   */\n      add\n        /* \"#utility.yul\":3350:3413   */\n      tag_83\n      jump\t// in\n    tag_142:\n        /* \"#utility.yul\":3340:3413   */\n      swap3\n      pop\n        /* \"#utility.yul\":3136:3423   */\n      pop\n        /* \"#utility.yul\":3462:3464   */\n      0x20\n        /* \"#utility.yul\":3488:3541   */\n      tag_143\n        /* \"#utility.yul\":3533:3540   */\n      dup6\n        /* \"#utility.yul\":3524:3530   */\n      dup3\n        /* \"#utility.yul\":3513:3522   */\n      dup7\n        /* \"#utility.yul\":3509:3531   */\n      add\n        /* \"#utility.yul\":3488:3541   */\n      tag_86\n      jump\t// in\n    tag_143:\n        /* \"#utility.yul\":3478:3541   */\n      swap2\n      pop\n        /* \"#utility.yul\":3433:3551   */\n      pop\n        /* \"#utility.yul\":2904:3558   */\n      swap3\n      pop\n      swap3\n      swap1\n      pop\n      jump\t// out\n        /* \"#utility.yul\":3564:4073   */\n    tag_17:\n        /* \"#utility.yul\":3633:3639   */\n      0x00\n        /* \"#utility.yul\":3682:3684   */\n      0x20\n        /* \"#utility.yul\":3670:3679   */\n      dup3\n        /* \"#utility.yul\":3661:3668   */\n      dup5\n        /* \"#utility.yul\":3657:3680   */\n      sub\n        /* \"#utility.yul\":3653:3685   */\n      slt\n        /* \"#utility.yul\":3650:3769   */\n      iszero\n      tag_145\n      jumpi\n        /* \"#utility.yul\":3688:3767   */\n      tag_146\n      tag_72\n      jump\t// in\n    tag_146:\n        /* \"#utility.yul\":3650:3769   */\n    tag_145:\n        /* \"#utility.yul\":3836:3837   */\n      0x00\n        /* \"#utility.yul\":3825:3834   */\n      dup3\n        /* \"#utility.yul\":3821:3838   */\n      add\n        /* \"#utility.yul\":3808:3839   */\n      calldataload\n        /* \"#utility.yul\":3866:3884   */\n      0xffffffffffffffff\n        /* \"#utility.yul\":3858:3864   */\n      dup2\n        /* \"#utility.yul\":3855:3885   */\n      gt\n        /* \"#utility.yul\":3852:3969   */\n      iszero\n      tag_147\n      jumpi\n        /* \"#utility.yul\":3888:3967   */\n      tag_148\n      tag_73\n      jump\t// in\n    tag_148:\n        /* \"#utility.yul\":3852:3969   */\n    tag_147:\n        /* \"#utility.yul\":3993:4056   */\n      tag_149\n        /* \"#utility.yul\":4048:4055   */\n      dup5\n        /* \"#utility.yul\":4039:4045   */\n      dup3\n        /* \"#utility.yul\":4028:4037   */\n      dup6\n        /* \"#utility.yul\":4024:4046   */\n      add\n        /* \"#utility.yul\":3993:4056   */\n      tag_83\n      jump\t// in\n    tag_149:\n        /* \"#utility.yul\":3983:4056   */\n      swap2\n      pop\n        /* \"#utility.yul\":3779:4066   */\n      pop\n        /* \"#utility.yul\":3564:4073   */\n      swap3\n      swap2\n      pop\n      pop\n      jump\t// out\n        /* \"#utility.yul\":4079:4197   */\n    tag_87:\n        /* \"#utility.yul\":4166:4190   */\n      tag_151\n        /* \"#utility.yul\":4184:4189   */\n      dup2\n        /* \"#utility.yul\":4166:4190   */\n      tag_84\n      jump\t// in\n    tag_151:\n        /* \"#utility.yul\":4161:4164   */\n      dup3\n        /* \"#utility.yul\":4154:4191   */\n      mstore\n        /* \"#utility.yul\":4079:4197   */\n      pop\n      pop\n      jump\t// out\n        /* \"#utility.yul\":4203:4425   */\n    tag_20:\n        /* \"#utility.yul\":4296:4300   */\n      0x00\n        /* \"#utility.yul\":4334:4336   */\n      0x20\n        /* \"#utility.yul\":4323:4332   */\n      dup3\n        /* \"#utility.yul\":4319:4337   */\n      add\n        /* \"#utility.yul\":4311:4337   */\n      swap1\n      pop\n        /* \"#utility.yul\":4347:4418   */\n      tag_153\n        /* \"#utility.yul\":4415:4416   */\n      0x00\n        /* \"#utility.yul\":4404:4413   */\n      dup4\n        /* \"#utility.yul\":4400:4417   */\n      add\n        /* \"#utility.yul\":4391:4397   */\n      dup5\n        /* \"#utility.yul\":4347:4418   */\n      tag_87\n      jump\t// in\n    tag_153:\n        /* \"#utility.yul\":4203:4425   */\n      swap3\n      swap2\n      pop\n      pop\n      jump\t// out\n        /* \"#utility.yul\":4431:4760   */\n    tag_23:\n        /* \"#utility.yul\":4490:4496   */\n      0x00\n        /* \"#utility.yul\":4539:4541   */\n      0x20\n        /* \"#utility.yul\":4527:4536   */\n      dup3\n        /* \"#utility.yul\":4518:4525   */\n      dup5\n        /* \"#utility.yul\":4514:4537   */\n      sub\n        /* \"#utility.yul\":4510:4542   */\n      slt\n        /* \"#utility.yul\":4507:4626   */\n      iszero\n      tag_155\n      jumpi\n        /* \"#utility.yul\":4545:4624   */\n      tag_156\n      tag_72\n      jump\t// in\n    tag_156:\n        /* \"#utility.yul\":4507:4626   */\n    tag_155:\n        /* \"#utility.yul\":4665:4666   */\n      0x00\n        /* \"#utility.yul\":4690:4743   */\n      tag_157\n        /* \"#utility.yul\":4735:4742   */\n      dup5\n        /* \"#utility.yul\":4726:4732   */\n      dup3\n        /* \"#utility.yul\":4715:4724   */\n      dup6\n        /* \"#utility.yul\":4711:4733   */\n      add\n        /* \"#utility.yul\":4690:4743   */\n      tag_86\n      jump\t// in\n    tag_157:\n        /* \"#utility.yul\":4680:4743   */\n      swap2\n      pop\n        /* \"#utility.yul\":4636:4753   */\n      pop\n        /* \"#utility.yul\":4431:4760   */\n      swap3\n      swap2\n      pop\n      pop\n      jump\t// out\n        /* \"#utility.yul\":4766:4874   */\n    tag_88:\n        /* \"#utility.yul\":4843:4867   */\n      tag_159\n        /* \"#utility.yul\":4861:4866   */\n      dup2\n        /* \"#utility.yul\":4843:4867   */\n      tag_84\n      jump\t// in\n    tag_159:\n        /* \"#utility.yul\":4838:4841   */\n      dup3\n        /* \"#utility.yul\":4831:4868   */\n      mstore\n        /* \"#utility.yul\":4766:4874   */\n      pop\n      pop\n      jump\t// out\n        /* \"#utility.yul\":4880:4979   */\n    tag_89:\n        /* \"#utility.yul\":4932:4938   */\n      0x00\n        /* \"#utility.yul\":4966:4971   */\n      dup2\n        /* \"#utility.yul\":4960:4972   */\n      mload\n        /* \"#utility.yul\":4950:4972   */\n      swap1\n      pop\n        /* \"#utility.yul\":4880:4979   */\n      swap2\n      swap1\n      pop\n      jump\t// out\n        /* \"#utility.yul\":4985:5144   */\n    tag_90:\n        /* \"#utility.yul\":5059:5070   */\n      0x00\n        /* \"#utility.yul\":5093:5099   */\n      dup3\n        /* \"#utility.yul\":5088:5091   */\n      dup3\n        /* \"#utility.yul\":5081:5100   */\n      mstore\n        /* \"#utility.yul\":5133:5137   */\n      0x20\n        /* \"#utility.yul\":5128:5131   */\n      dup3\n        /* \"#utility.yul\":5124:5138   */\n      add\n        /* \"#utility.yul\":5109:5138   */\n      swap1\n      pop\n        /* \"#utility.yul\":4985:5144   */\n      swap3\n      swap2\n      pop\n      pop\n      jump\t// out\n        /* \"#utility.yul\":5150:5457   */\n    tag_91:\n        /* \"#utility.yul\":5218:5219   */\n      0x00\n        /* \"#utility.yul\":5228:5341   */\n    tag_163:\n        /* \"#utility.yul\":5242:5248   */\n      dup4\n        /* \"#utility.yul\":5239:5240   */\n      dup2\n        /* \"#utility.yul\":5236:5249   */\n      lt\n        /* \"#utility.yul\":5228:5341   */\n      iszero\n      tag_165\n      jumpi\n        /* \"#utility.yul\":5327:5328   */\n      dup1\n        /* \"#utility.yul\":5322:5325   */\n      dup3\n        /* \"#utility.yul\":5318:5329   */\n      add\n        /* \"#utility.yul\":5312:5330   */\n      mload\n        /* \"#utility.yul\":5308:5309   */\n      dup2\n        /* \"#utility.yul\":5303:5306   */\n      dup5\n        /* \"#utility.yul\":5299:5310   */\n      add\n        /* \"#utility.yul\":5292:5331   */\n      mstore\n        /* \"#utility.yul\":5264:5266   */\n      0x20\n        /* \"#utility.yul\":5261:5262   */\n      dup2\n        /* \"#utility.yul\":5257:5267   */\n      add\n        /* \"#utility.yul\":5252:5267   */\n      swap1\n      pop\n        /* \"#utility.yul\":5228:5341   */\n      jump(tag_163)\n    tag_165:\n        /* \"#utility.yul\":5359:5365   */\n      dup4\n        /* \"#utility.yul\":5356:5357   */\n      dup2\n        /* \"#utility.yul\":5353:5366   */\n      gt\n        /* \"#utility.yul\":5350:5451   */\n      iszero\n      tag_166\n      jumpi\n        /* \"#utility.yul\":5439:5440   */\n      0x00\n        /* \"#utility.yul\":5430:5436   */\n      dup5\n        /* \"#utility.yul\":5425:5428   */\n      dup5\n        /* \"#utility.yul\":5421:5437   */\n      add\n        /* \"#utility.yul\":5414:5441   */\n      mstore\n        /* \"#utility.yul\":5350:5451   */\n    tag_166:\n        /* \"#utility.yul\":5199:5457   */\n      pop\n        /* \"#utility.yul\":5150:5457   */\n      pop\n      pop\n      pop\n      jump\t// out\n        /* \"#utility.yul\":5463:5807   */\n    tag_92:\n        /* \"#utility.yul\":5541:5544   */\n      0x00\n        /* \"#utility.yul\":5569:5608   */\n      tag_168\n        /* \"#utility.yul\":5602:5607   */\n      dup3\n        /* \"#utility.yul\":5569:5608   */\n      tag_89\n      jump\t// in\n    tag_168:\n        /* \"#utility.yul\":5624:5685   */\n      tag_169\n        /* \"#utility.yul\":5678:5684   */\n      dup2\n        /* \"#utility.yul\":5673:5676   */\n      dup6\n        /* \"#utility.yul\":5624:5685   */\n      tag_90\n      jump\t// in\n    tag_169:\n        /* \"#utility.yul\":5617:5685   */\n      swap4\n      pop\n        /* \"#utility.yul\":5694:5746   */\n      tag_170\n        /* \"#utility.yul\":5739:5745   */\n      dup2\n        /* \"#utility.yul\":5734:5737   */\n      dup6\n        /* \"#utility.yul\":5727:5731   */\n      0x20\n        /* \"#utility.yul\":5720:5725   */\n      dup7\n        /* \"#utility.yul\":5716:5732   */\n      add\n        /* \"#utility.yul\":5694:5746   */\n      tag_91\n      jump\t// in\n    tag_170:\n        /* \"#utility.yul\":5771:5800   */\n      tag_171\n        /* \"#utility.yul\":5793:5799   */\n      dup2\n        /* \"#utility.yul\":5771:5800   */\n      tag_76\n      jump\t// in\n    tag_171:\n        /* \"#utility.yul\":5766:5769   */\n      dup5\n        /* \"#utility.yul\":5762:5801   */\n      add\n        /* \"#utility.yul\":5755:5801   */\n      swap2\n      pop\n        /* \"#utility.yul\":5545:5807   */\n      pop\n        /* \"#utility.yul\":5463:5807   */\n      swap3\n      swap2\n      pop\n      pop\n      jump\t// out\n        /* \"#utility.yul\":5871:6647   */\n    tag_93:\n        /* \"#utility.yul\":5986:5989   */\n      0x00\n        /* \"#utility.yul\":6022:6026   */\n      0x60\n        /* \"#utility.yul\":6017:6020   */\n      dup4\n        /* \"#utility.yul\":6013:6027   */\n      add\n        /* \"#utility.yul\":6107:6111   */\n      0x00\n        /* \"#utility.yul\":6100:6105   */\n      dup4\n        /* \"#utility.yul\":6096:6112   */\n      add\n        /* \"#utility.yul\":6090:6113   */\n      mload\n        /* \"#utility.yul\":6126:6189   */\n      tag_173\n        /* \"#utility.yul\":6183:6187   */\n      0x00\n        /* \"#utility.yul\":6178:6181   */\n      dup7\n        /* \"#utility.yul\":6174:6188   */\n      add\n        /* \"#utility.yul\":6160:6172   */\n      dup3\n        /* \"#utility.yul\":6126:6189   */\n      tag_88\n      jump\t// in\n    tag_173:\n        /* \"#utility.yul\":6037:6199   */\n      pop\n        /* \"#utility.yul\":6283:6287   */\n      0x20\n        /* \"#utility.yul\":6276:6281   */\n      dup4\n        /* \"#utility.yul\":6272:6288   */\n      add\n        /* \"#utility.yul\":6266:6289   */\n      mload\n        /* \"#utility.yul\":6336:6339   */\n      dup5\n        /* \"#utility.yul\":6330:6334   */\n      dup3\n        /* \"#utility.yul\":6326:6340   */\n      sub\n        /* \"#utility.yul\":6319:6323   */\n      0x20\n        /* \"#utility.yul\":6314:6317   */\n      dup7\n        /* \"#utility.yul\":6310:6324   */\n      add\n        /* \"#utility.yul\":6303:6341   */\n      mstore\n        /* \"#utility.yul\":6362:6435   */\n      tag_174\n        /* \"#utility.yul\":6430:6434   */\n      dup3\n        /* \"#utility.yul\":6416:6428   */\n      dup3\n        /* \"#utility.yul\":6362:6435   */\n      tag_92\n      jump\t// in\n    tag_174:\n        /* \"#utility.yul\":6354:6435   */\n      swap2\n      pop\n        /* \"#utility.yul\":6209:6446   */\n      pop\n        /* \"#utility.yul\":6528:6532   */\n      0x40\n        /* \"#utility.yul\":6521:6526   */\n      dup4\n        /* \"#utility.yul\":6517:6533   */\n      add\n        /* \"#utility.yul\":6511:6534   */\n      mload\n        /* \"#utility.yul\":6547:6610   */\n      tag_175\n        /* \"#utility.yul\":6604:6608   */\n      0x40\n        /* \"#utility.yul\":6599:6602   */\n      dup7\n        /* \"#utility.yul\":6595:6609   */\n      add\n        /* \"#utility.yul\":6581:6593   */\n      dup3\n        /* \"#utility.yul\":6547:6610   */\n      tag_88\n      jump\t// in\n    tag_175:\n        /* \"#utility.yul\":6456:6620   */\n      pop\n        /* \"#utility.yul\":6637:6641   */\n      dup1\n        /* \"#utility.yul\":6630:6641   */\n      swap2\n      pop\n        /* \"#utility.yul\":5991:6647   */\n      pop\n        /* \"#utility.yul\":5871:6647   */\n      swap3\n      swap2\n      pop\n      pop\n      jump\t// out\n        /* \"#utility.yul\":6653:7018   */\n    tag_26:\n        /* \"#utility.yul\":6792:6796   */\n      0x00\n        /* \"#utility.yul\":6830:6832   */\n      0x20\n        /* \"#utility.yul\":6819:6828   */\n      dup3\n        /* \"#utility.yul\":6815:6833   */\n      add\n        /* \"#utility.yul\":6807:6833   */\n      swap1\n      pop\n        /* \"#utility.yul\":6879:6888   */\n      dup2\n        /* \"#utility.yul\":6873:6877   */\n      dup2\n        /* \"#utility.yul\":6869:6889   */\n      sub\n        /* \"#utility.yul\":6865:6866   */\n      0x00\n        /* \"#utility.yul\":6854:6863   */\n      dup4\n        /* \"#utility.yul\":6850:6867   */\n      add\n        /* \"#utility.yul\":6843:6890   */\n      mstore\n        /* \"#utility.yul\":6907:7011   */\n      tag_177\n        /* \"#utility.yul\":7006:7010   */\n      dup2\n        /* \"#utility.yul\":6997:7003   */\n      dup5\n        /* \"#utility.yul\":6907:7011   */\n      tag_93\n      jump\t// in\n    tag_177:\n        /* \"#utility.yul\":6899:7011   */\n      swap1\n      pop\n        /* \"#utility.yul\":6653:7018   */\n      swap3\n      swap2\n      pop\n      pop\n      jump\t// out\n        /* \"#utility.yul\":7024:7150   */\n    tag_94:\n        /* \"#utility.yul\":7061:7068   */\n      0x00\n        /* \"#utility.yul\":7101:7143   */\n      0xffffffffffffffffffffffffffffffffffffffff\n        /* \"#utility.yul\":7094:7099   */\n      dup3\n        /* \"#utility.yul\":7090:7144   */\n      and\n        /* \"#utility.yul\":7079:7144   */\n      swap1\n      pop\n        /* \"#utility.yul\":7024:7150   */\n      swap2\n      swap1\n      pop\n      jump\t// out\n        /* \"#utility.yul\":7156:7252   */\n    tag_95:\n        /* \"#utility.yul\":7193:7200   */\n      0x00\n        /* \"#utility.yul\":7222:7246   */\n      tag_180\n        /* \"#utility.yul\":7240:7245   */\n      dup3\n        /* \"#utility.yul\":7222:7246   */\n      tag_94\n      jump\t// in\n    tag_180:\n        /* \"#utility.yul\":7211:7246   */\n      swap1\n      pop\n        /* \"#utility.yul\":7156:7252   */\n      swap2\n      swap1\n      pop\n      jump\t// out\n        /* \"#utility.yul\":7258:7380   */\n    tag_96:\n        /* \"#utility.yul\":7331:7355   */\n      tag_182\n        /* \"#utility.yul\":7349:7354   */\n      dup2\n        /* \"#utility.yul\":7331:7355   */\n      tag_95\n      jump\t// in\n    tag_182:\n        /* \"#utility.yul\":7324:7329   */\n      dup2\n        /* \"#utility.yul\":7321:7356   */\n      eq\n        /* \"#utility.yul\":7311:7374   */\n      tag_183\n      jumpi\n        /* \"#utility.yul\":7370:7371   */\n      0x00\n        /* \"#utility.yul\":7367:7368   */\n      dup1\n        /* \"#utility.yul\":7360:7372   */\n      revert\n        /* \"#utility.yul\":7311:7374   */\n    tag_183:\n        /* \"#utility.yul\":7258:7380   */\n      pop\n      jump\t// out\n        /* \"#utility.yul\":7386:7525   */\n    tag_97:\n        /* \"#utility.yul\":7432:7437   */\n      0x00\n        /* \"#utility.yul\":7470:7476   */\n      dup2\n        /* \"#utility.yul\":7457:7477   */\n      calldataload\n        /* \"#utility.yul\":7448:7477   */\n      swap1\n      pop\n        /* \"#utility.yul\":7486:7519   */\n      tag_185\n        /* \"#utility.yul\":7513:7518   */\n      dup2\n        /* \"#utility.yul\":7486:7519   */\n      tag_96\n      jump\t// in\n    tag_185:\n        /* \"#utility.yul\":7386:7525   */\n      swap3\n      swap2\n      pop\n      pop\n      jump\t// out\n        /* \"#utility.yul\":7531:7860   */\n    tag_35:\n        /* \"#utility.yul\":7590:7596   */\n      0x00\n        /* \"#utility.yul\":7639:7641   */\n      0x20\n        /* \"#utility.yul\":7627:7636   */\n      dup3\n        /* \"#utility.yul\":7618:7625   */\n      dup5\n        /* \"#utility.yul\":7614:7637   */\n      sub\n        /* \"#utility.yul\":7610:7642   */\n      slt\n        /* \"#utility.yul\":7607:7726   */\n      iszero\n      tag_187\n      jumpi\n        /* \"#utility.yul\":7645:7724   */\n      tag_188\n      tag_72\n      jump\t// in\n    tag_188:\n        /* \"#utility.yul\":7607:7726   */\n    tag_187:\n        /* \"#utility.yul\":7765:7766   */\n      0x00\n        /* \"#utility.yul\":7790:7843   */\n      tag_189\n        /* \"#utility.yul\":7835:7842   */\n      dup5\n        /* \"#utility.yul\":7826:7832   */\n      dup3\n        /* \"#utility.yul\":7815:7824   */\n      dup6\n        /* \"#utility.yul\":7811:7833   */\n      add\n        /* \"#utility.yul\":7790:7843   */\n      tag_97\n      jump\t// in\n    tag_189:\n        /* \"#utility.yul\":7780:7843   */\n      swap2\n      pop\n        /* \"#utility.yul\":7736:7853   */\n      pop\n        /* \"#utility.yul\":7531:7860   */\n      swap3\n      swap2\n      pop\n      pop\n      jump\t// out\n        /* \"#utility.yul\":7866:8811   */\n    tag_40:\n        /* \"#utility.yul\":7962:7968   */\n      0x00\n        /* \"#utility.yul\":7970:7976   */\n      dup1\n        /* \"#utility.yul\":7978:7984   */\n      0x00\n        /* \"#utility.yul\":7986:7992   */\n      dup1\n        /* \"#utility.yul\":8035:8038   */\n      0x80\n        /* \"#utility.yul\":8023:8032   */\n      dup6\n        /* \"#utility.yul\":8014:8021   */\n      dup8\n        /* \"#utility.yul\":8010:8033   */\n      sub\n        /* \"#utility.yul\":8006:8039   */\n      slt\n        /* \"#utility.yul\":8003:8123   */\n      iszero\n      tag_191\n      jumpi\n        /* \"#utility.yul\":8042:8121   */\n      tag_192\n      tag_72\n      jump\t// in\n    tag_192:\n        /* \"#utility.yul\":8003:8123   */\n    tag_191:\n        /* \"#utility.yul\":8162:8163   */\n      0x00\n        /* \"#utility.yul\":8187:8240   */\n      tag_193\n        /* \"#utility.yul\":8232:8239   */\n      dup8\n        /* \"#utility.yul\":8223:8229   */\n      dup3\n        /* \"#utility.yul\":8212:8221   */\n      dup9\n        /* \"#utility.yul\":8208:8230   */\n      add\n        /* \"#utility.yul\":8187:8240   */\n      tag_86\n      jump\t// in\n    tag_193:\n        /* \"#utility.yul\":8177:8240   */\n      swap5\n      pop\n        /* \"#utility.yul\":8133:8250   */\n      pop\n        /* \"#utility.yul\":8289:8291   */\n      0x20\n        /* \"#utility.yul\":8315:8368   */\n      tag_194\n        /* \"#utility.yul\":8360:8367   */\n      dup8\n        /* \"#utility.yul\":8351:8357   */\n      dup3\n        /* \"#utility.yul\":8340:8349   */\n      dup9\n        /* \"#utility.yul\":8336:8358   */\n      add\n        /* \"#utility.yul\":8315:8368   */\n      tag_86\n      jump\t// in\n    tag_194:\n        /* \"#utility.yul\":8305:8368   */\n      swap4\n      pop\n        /* \"#utility.yul\":8260:8378   */\n      pop\n        /* \"#utility.yul\":8445:8447   */\n      0x40\n        /* \"#utility.yul\":8434:8443   */\n      dup6\n        /* \"#utility.yul\":8430:8448   */\n      add\n        /* \"#utility.yul\":8417:8449   */\n      calldataload\n        /* \"#utility.yul\":8476:8494   */\n      0xffffffffffffffff\n        /* \"#utility.yul\":8468:8474   */\n      dup2\n        /* \"#utility.yul\":8465:8495   */\n      gt\n        /* \"#utility.yul\":8462:8579   */\n      iszero\n      tag_195\n      jumpi\n        /* \"#utility.yul\":8498:8577   */\n      tag_196\n      tag_73\n      jump\t// in\n    tag_196:\n        /* \"#utility.yul\":8462:8579   */\n    tag_195:\n        /* \"#utility.yul\":8603:8666   */\n      tag_197\n        /* \"#utility.yul\":8658:8665   */\n      dup8\n        /* \"#utility.yul\":8649:8655   */\n      dup3\n        /* \"#utility.yul\":8638:8647   */\n      dup9\n        /* \"#utility.yul\":8634:8656   */\n      add\n        /* \"#utility.yul\":8603:8666   */\n      tag_83\n      jump\t// in\n    tag_197:\n        /* \"#utility.yul\":8593:8666   */\n      swap3\n      pop\n        /* \"#utility.yul\":8388:8676   */\n      pop\n        /* \"#utility.yul\":8715:8717   */\n      0x60\n        /* \"#utility.yul\":8741:8794   */\n      tag_198\n        /* \"#utility.yul\":8786:8793   */\n      dup8\n        /* \"#utility.yul\":8777:8783   */\n      dup3\n        /* \"#utility.yul\":8766:8775   */\n      dup9\n        /* \"#utility.yul\":8762:8784   */\n      add\n        /* \"#utility.yul\":8741:8794   */\n      tag_86\n      jump\t// in\n    tag_198:\n        /* \"#utility.yul\":8731:8794   */\n      swap2\n      pop\n        /* \"#utility.yul\":8686:8804   */\n      pop\n        /* \"#utility.yul\":7866:8811   */\n      swap3\n      swap6\n      swap2\n      swap5\n      pop\n      swap3\n      pop\n      jump\t// out\n        /* \"#utility.yul\":8817:8965   */\n    tag_98:\n        /* \"#utility.yul\":8919:8930   */\n      0x00\n        /* \"#utility.yul\":8956:8959   */\n      dup2\n        /* \"#utility.yul\":8941:8959   */\n      swap1\n      pop\n        /* \"#utility.yul\":8817:8965   */\n      swap3\n      swap2\n      pop\n      pop\n      jump\t// out\n        /* \"#utility.yul\":8971:9348   */\n    tag_99:\n        /* \"#utility.yul\":9077:9080   */\n      0x00\n        /* \"#utility.yul\":9105:9144   */\n      tag_201\n        /* \"#utility.yul\":9138:9143   */\n      dup3\n        /* \"#utility.yul\":9105:9144   */\n      tag_89\n      jump\t// in\n    tag_201:\n        /* \"#utility.yul\":9160:9249   */\n      tag_202\n        /* \"#utility.yul\":9242:9248   */\n      dup2\n        /* \"#utility.yul\":9237:9240   */\n      dup6\n        /* \"#utility.yul\":9160:9249   */\n      tag_98\n      jump\t// in\n    tag_202:\n        /* \"#utility.yul\":9153:9249   */\n      swap4\n      pop\n        /* \"#utility.yul\":9258:9310   */\n      tag_203\n        /* \"#utility.yul\":9303:9309   */\n      dup2\n        /* \"#utility.yul\":9298:9301   */\n      dup6\n        /* \"#utility.yul\":9291:9295   */\n      0x20\n        /* \"#utility.yul\":9284:9289   */\n      dup7\n        /* \"#utility.yul\":9280:9296   */\n      add\n        /* \"#utility.yul\":9258:9310   */\n      tag_91\n      jump\t// in\n    tag_203:\n        /* \"#utility.yul\":9335:9341   */\n      dup1\n        /* \"#utility.yul\":9330:9333   */\n      dup5\n        /* \"#utility.yul\":9326:9342   */\n      add\n        /* \"#utility.yul\":9319:9342   */\n      swap2\n      pop\n        /* \"#utility.yul\":9081:9348   */\n      pop\n        /* \"#utility.yul\":8971:9348   */\n      swap3\n      swap2\n      pop\n      pop\n      jump\t// out\n        /* \"#utility.yul\":9354:9629   */\n    tag_44:\n        /* \"#utility.yul\":9486:9489   */\n      0x00\n        /* \"#utility.yul\":9508:9603   */\n      tag_205\n        /* \"#utility.yul\":9599:9602   */\n      dup3\n        /* \"#utility.yul\":9590:9596   */\n      dup5\n        /* \"#utility.yul\":9508:9603   */\n      tag_99\n      jump\t// in\n    tag_205:\n        /* \"#utility.yul\":9501:9603   */\n      swap2\n      pop\n        /* \"#utility.yul\":9620:9623   */\n      dup2\n        /* \"#utility.yul\":9613:9623   */\n      swap1\n      pop\n        /* \"#utility.yul\":9354:9629   */\n      swap3\n      swap2\n      pop\n      pop\n      jump\t// out\n        /* \"#utility.yul\":9635:9815   */\n    tag_100:\n        /* \"#utility.yul\":9683:9760   */\n      0x4e487b7100000000000000000000000000000000000000000000000000000000\n        /* \"#utility.yul\":9680:9681   */\n      0x00\n        /* \"#utility.yul\":9673:9761   */\n      mstore\n        /* \"#utility.yul\":9780:9784   */\n      0x22\n        /* \"#utility.yul\":9777:9778   */\n      0x04\n        /* \"#utility.yul\":9770:9785   */\n      mstore\n        /* \"#utility.yul\":9804:9808   */\n      0x24\n        /* \"#utility.yul\":9801:9802   */\n      0x00\n        /* \"#utility.yul\":9794:9809   */\n      revert\n        /* \"#utility.yul\":9821:10141   */\n    tag_51:\n        /* \"#utility.yul\":9865:9871   */\n      0x00\n        /* \"#utility.yul\":9902:9903   */\n      0x02\n        /* \"#utility.yul\":9896:9900   */\n      dup3\n        /* \"#utility.yul\":9892:9904   */\n      div\n        /* \"#utility.yul\":9882:9904   */\n      swap1\n      pop\n        /* \"#utility.yul\":9949:9950   */\n      0x01\n        /* \"#utility.yul\":9943:9947   */\n      dup3\n        /* \"#utility.yul\":9939:9951   */\n      and\n        /* \"#utility.yul\":9970:9988   */\n      dup1\n        /* \"#utility.yul\":9960:10041   */\n      tag_208\n      jumpi\n        /* \"#utility.yul\":10026:10030   */\n      0x7f\n        /* \"#utility.yul\":10018:10024   */\n      dup3\n        /* \"#utility.yul\":10014:10031   */\n      and\n        /* \"#utility.yul\":10004:10031   */\n      swap2\n      pop\n        /* \"#utility.yul\":9960:10041   */\n    tag_208:\n        /* \"#utility.yul\":10088:10090   */\n      0x20\n        /* \"#utility.yul\":10080:10086   */\n      dup3\n        /* \"#utility.yul\":10077:10091   */\n      lt\n        /* \"#utility.yul\":10057:10075   */\n      dup2\n        /* \"#utility.yul\":10054:10092   */\n      sub\n        /* \"#utility.yul\":10051:10135   */\n      tag_209\n      jumpi\n        /* \"#utility.yul\":10107:10125   */\n      tag_210\n      tag_100\n      jump\t// in\n    tag_210:\n        /* \"#utility.yul\":10051:10135   */\n    tag_209:\n        /* \"#utility.yul\":9872:10141   */\n      pop\n        /* \"#utility.yul\":9821:10141   */\n      swap2\n      swap1\n      pop\n      jump\t// out\n\n    auxdata: 0xa2646970667358221220e605a27f20977fd688c2f7e55cb886e2ece6dd8b1675f0160f2fe2e6b15f166e64736f6c634300080d0033\n}\n",
				"bytecode": {
					"linkReferences": {},
					"object": "608060405234801561001057600080fd5b50610a02806100206000396000f3fe608060405234801561001057600080fd5b506004361061007d5760003560e01c806392174b491161005b57806392174b49146100fe578063d0427d5a1461011c578063e708929814610138578063eb001a72146101685761007d565b8063276a05bf14610082578063472679901461009e5780637f1937fb146100ce575b600080fd5b61009c60048036038101906100979190610606565b610184565b005b6100b860048036038101906100b39190610662565b6101ab565b6040516100c591906106ba565b60405180910390f35b6100e860048036038101906100e391906106d5565b6101d3565b6040516100f591906107e9565b60405180910390f35b6101066102a6565b60405161011391906106ba565b60405180910390f35b610136600480360381019061013191906106d5565b6102ec565b005b610152600480360381019061014d9190610869565b610332565b60405161015f91906106ba565b60405180910390f35b610182600480360381019061017d9190610896565b61034a565b005b806001836040516101959190610955565b9081526020016040518091039020819055505050565b60006001826040516101bd9190610955565b9081526020016040518091039020549050919050565b6101db6103b2565b60026000838152602001908152602001600020604051806060016040529081600082015481526020016001820180546102139061099b565b80601f016020809104026020016040519081016040528092919081815260200182805461023f9061099b565b801561028c5780601f106102615761010080835404028352916020019161028c565b820191906000526020600020905b81548152906001019060200180831161026f57829003601f168201915b505050505081526020016002820154815250509050919050565b60008060003373ffffffffffffffffffffffffffffffffffffffff1673ffffffffffffffffffffffffffffffffffffffff16815260200190815260200160002054905090565b806000803373ffffffffffffffffffffffffffffffffffffffff1673ffffffffffffffffffffffffffffffffffffffff1681526020019081526020016000208190555050565b60006020528060005260406000206000915090505481565b6040518060600160405280848152602001838152602001828152506002600086815260200190815260200160002060008201518160000155602082015181600101908051906020019061039e9291906103d3565b506040820151816002015590505050505050565b60405180606001604052806000815260200160608152602001600081525090565b8280546103df9061099b565b90600052602060002090601f0160209004810192826104015760008555610448565b82601f1061041a57805160ff1916838001178555610448565b82800160010185558215610448579182015b8281111561044757825182559160200191906001019061042c565b5b5090506104559190610459565b5090565b5b8082111561047257600081600090555060010161045a565b5090565b6000604051905090565b600080fd5b600080fd5b600080fd5b600080fd5b6000601f19601f8301169050919050565b7f4e487b7100000000000000000000000000000000000000000000000000000000600052604160045260246000fd5b6104dd82610494565b810181811067ffffffffffffffff821117156104fc576104fb6104a5565b5b80604052505050565b600061050f610476565b905061051b82826104d4565b919050565b600067ffffffffffffffff82111561053b5761053a6104a5565b5b61054482610494565b9050602081019050919050565b82818337600083830152505050565b600061057361056e84610520565b610505565b90508281526020810184848401111561058f5761058e61048f565b5b61059a848285610551565b509392505050565b600082601f8301126105b7576105b661048a565b5b81356105c7848260208601610560565b91505092915050565b6000819050919050565b6105e3816105d0565b81146105ee57600080fd5b50565b600081359050610600816105da565b92915050565b6000806040838503121561061d5761061c610480565b5b600083013567ffffffffffffffff81111561063b5761063a610485565b5b610647858286016105a2565b9250506020610658858286016105f1565b9150509250929050565b60006020828403121561067857610677610480565b5b600082013567ffffffffffffffff81111561069657610695610485565b5b6106a2848285016105a2565b91505092915050565b6106b4816105d0565b82525050565b60006020820190506106cf60008301846106ab565b92915050565b6000602082840312156106eb576106ea610480565b5b60006106f9848285016105f1565b91505092915050565b61070b816105d0565b82525050565b600081519050919050565b600082825260208201905092915050565b60005b8381101561074b578082015181840152602081019050610730565b8381111561075a576000848401525b50505050565b600061076b82610711565b610775818561071c565b935061078581856020860161072d565b61078e81610494565b840191505092915050565b60006060830160008301516107b16000860182610702565b50602083015184820360208601526107c98282610760565b91505060408301516107de6040860182610702565b508091505092915050565b600060208201905081810360008301526108038184610799565b905092915050565b600073ffffffffffffffffffffffffffffffffffffffff82169050919050565b60006108368261080b565b9050919050565b6108468161082b565b811461085157600080fd5b50565b6000813590506108638161083d565b92915050565b60006020828403121561087f5761087e610480565b5b600061088d84828501610854565b91505092915050565b600080600080608085870312156108b0576108af610480565b5b60006108be878288016105f1565b94505060206108cf878288016105f1565b935050604085013567ffffffffffffffff8111156108f0576108ef610485565b5b6108fc878288016105a2565b925050606061090d878288016105f1565b91505092959194509250565b600081905092915050565b600061092f82610711565b6109398185610919565b935061094981856020860161072d565b80840191505092915050565b60006109618284610924565b915081905092915050565b7f4e487b7100000000000000000000000000000000000000000000000000000000600052602260045260246000fd5b600060028204905060018216806109b357607f821691505b6020821081036109c6576109c561096c565b5b5091905056fea2646970667358221220e605a27f20977fd688c2f7e55cb886e2ece6dd8b1675f0160f2fe2e6b15f166e64736f6c634300080d0033",
					"opcodes": "PUSH1 0x80 PUSH1 0x40 MSTORE CALLVALUE DUP1 ISZERO PUSH2 0x10 JUMPI PUSH1 0x0 DUP1 REVERT JUMPDEST POP PUSH2 0xA02 DUP1 PUSH2 0x20 PUSH1 0x0 CODECOPY PUSH1 0x0 RETURN INVALID PUSH1 0x80 PUSH1 0x40 MSTORE CALLVALUE DUP1 ISZERO PUSH2 0x10 JUMPI PUSH1 0x0 DUP1 REVERT JUMPDEST POP PUSH1 0x4 CALLDATASIZE LT PUSH2 0x7D JUMPI PUSH1 0x0 CALLDATALOAD PUSH1 0xE0 SHR DUP1 PUSH4 0x92174B49 GT PUSH2 0x5B JUMPI DUP1 PUSH4 0x92174B49 EQ PUSH2 0xFE JUMPI DUP1 PUSH4 0xD0427D5A EQ PUSH2 0x11C JUMPI DUP1 PUSH4 0xE7089298 EQ PUSH2 0x138 JUMPI DUP1 PUSH4 0xEB001A72 EQ PUSH2 0x168 JUMPI PUSH2 0x7D JUMP JUMPDEST DUP1 PUSH4 0x276A05BF EQ PUSH2 0x82 JUMPI DUP1 PUSH4 0x47267990 EQ PUSH2 0x9E JUMPI DUP1 PUSH4 0x7F1937FB EQ PUSH2 0xCE JUMPI JUMPDEST PUSH1 0x0 DUP1 REVERT JUMPDEST PUSH2 0x9C PUSH1 0x4 DUP1 CALLDATASIZE SUB DUP2 ADD SWAP1 PUSH2 0x97 SWAP2 SWAP1 PUSH2 0x606 JUMP JUMPDEST PUSH2 0x184 JUMP JUMPDEST STOP JUMPDEST PUSH2 0xB8 PUSH1 0x4 DUP1 CALLDATASIZE SUB DUP2 ADD SWAP1 PUSH2 0xB3 SWAP2 SWAP1 PUSH2 0x662 JUMP JUMPDEST PUSH2 0x1AB JUMP JUMPDEST PUSH1 0x40 MLOAD PUSH2 0xC5 SWAP2 SWAP1 PUSH2 0x6BA JUMP JUMPDEST PUSH1 0x40 MLOAD DUP1 SWAP2 SUB SWAP1 RETURN JUMPDEST PUSH2 0xE8 PUSH1 0x4 DUP1 CALLDATASIZE SUB DUP2 ADD SWAP1 PUSH2 0xE3 SWAP2 SWAP1 PUSH2 0x6D5 JUMP JUMPDEST PUSH2 0x1D3 JUMP JUMPDEST PUSH1 0x40 MLOAD PUSH2 0xF5 SWAP2 SWAP1 PUSH2 0x7E9 JUMP JUMPDEST PUSH1 0x40 MLOAD DUP1 SWAP2 SUB SWAP1 RETURN JUMPDEST PUSH2 0x106 PUSH2 0x2A6 JUMP JUMPDEST PUSH1 0x40 MLOAD PUSH2 0x113 SWAP2 SWAP1 PUSH2 0x6BA JUMP JUMPDEST PUSH1 0x40 MLOAD DUP1 SWAP2 SUB SWAP1 RETURN JUMPDEST PUSH2 0x136 PUSH1 0x4 DUP1 CALLDATASIZE SUB DUP2 ADD SWAP1 PUSH2 0x131 SWAP2 SWAP1 PUSH2 0x6D5 JUMP JUMPDEST PUSH2 0x2EC JUMP JUMPDEST STOP JUMPDEST PUSH2 0x152 PUSH1 0x4 DUP1 CALLDATASIZE SUB DUP2 ADD SWAP1 PUSH2 0x14D SWAP2 SWAP1 PUSH2 0x869 JUMP JUMPDEST PUSH2 0x332 JUMP JUMPDEST PUSH1 0x40 MLOAD PUSH2 0x15F SWAP2 SWAP1 PUSH2 0x6BA JUMP JUMPDEST PUSH1 0x40 MLOAD DUP1 SWAP2 SUB SWAP1 RETURN JUMPDEST PUSH2 0x182 PUSH1 0x4 DUP1 CALLDATASIZE SUB DUP2 ADD SWAP1 PUSH2 0x17D SWAP2 SWAP1 PUSH2 0x896 JUMP JUMPDEST PUSH2 0x34A JUMP JUMPDEST STOP JUMPDEST DUP1 PUSH1 0x1 DUP4 PUSH1 0x40 MLOAD PUSH2 0x195 SWAP2 SWAP1 PUSH2 0x955 JUMP JUMPDEST SWAP1 DUP2 MSTORE PUSH1 0x20 ADD PUSH1 0x40 MLOAD DUP1 SWAP2 SUB SWAP1 KECCAK256 DUP2 SWAP1 SSTORE POP POP POP JUMP JUMPDEST PUSH1 0x0 PUSH1 0x1 DUP3 PUSH1 0x40 MLOAD PUSH2 0x1BD SWAP2 SWAP1 PUSH2 0x955 JUMP JUMPDEST SWAP1 DUP2 MSTORE PUSH1 0x20 ADD PUSH1 0x40 MLOAD DUP1 SWAP2 SUB SWAP1 KECCAK256 SLOAD SWAP1 POP SWAP2 SWAP1 POP JUMP JUMPDEST PUSH2 0x1DB PUSH2 0x3B2 JUMP JUMPDEST PUSH1 0x2 PUSH1 0x0 DUP4 DUP2 MSTORE PUSH1 0x20 ADD SWAP1 DUP2 MSTORE PUSH1 0x20 ADD PUSH1 0x0 KECCAK256 PUSH1 0x40 MLOAD DUP1 PUSH1 0x60 ADD PUSH1 0x40 MSTORE SWAP1 DUP2 PUSH1 0x0 DUP3 ADD SLOAD DUP2 MSTORE PUSH1 0x20 ADD PUSH1 0x1 DUP3 ADD DUP1 SLOAD PUSH2 0x213 SWAP1 PUSH2 0x99B JUMP JUMPDEST DUP1 PUSH1 0x1F ADD PUSH1 0x20 DUP1 SWAP2 DIV MUL PUSH1 0x20 ADD PUSH1 0x40 MLOAD SWAP1 DUP2 ADD PUSH1 0x40 MSTORE DUP1 SWAP3 SWAP2 SWAP1 DUP2 DUP2 MSTORE PUSH1 0x20 ADD DUP3 DUP1 SLOAD PUSH2 0x23F SWAP1 PUSH2 0x99B JUMP JUMPDEST DUP1 ISZERO PUSH2 0x28C JUMPI DUP1 PUSH1 0x1F LT PUSH2 0x261 JUMPI PUSH2 0x100 DUP1 DUP4 SLOAD DIV MUL DUP4 MSTORE SWAP2 PUSH1 0x20 ADD SWAP2 PUSH2 0x28C JUMP JUMPDEST DUP3 ADD SWAP2 SWAP1 PUSH1 0x0 MSTORE PUSH1 0x20 PUSH1 0x0 KECCAK256 SWAP1 JUMPDEST DUP2 SLOAD DUP2 MSTORE SWAP1 PUSH1 0x1 ADD SWAP1 PUSH1 0x20 ADD DUP1 DUP4 GT PUSH2 0x26F JUMPI DUP3 SWAP1 SUB PUSH1 0x1F AND DUP3 ADD SWAP2 JUMPDEST POP POP POP POP POP DUP2 MSTORE PUSH1 0x20 ADD PUSH1 0x2 DUP3 ADD SLOAD DUP2 MSTORE POP POP SWAP1 POP SWAP2 SWAP1 POP JUMP JUMPDEST PUSH1 0x0 DUP1 PUSH1 0x0 CALLER PUSH20 0xFFFFFFFFFFFFFFFFFFFFFFFFFFFFFFFFFFFFFFFF AND PUSH20 0xFFFFFFFFFFFFFFFFFFFFFFFFFFFFFFFFFFFFFFFF AND DUP2 MSTORE PUSH1 0x20 ADD SWAP1 DUP2 MSTORE PUSH1 0x20 ADD PUSH1 0x0 KECCAK256 SLOAD SWAP1 POP SWAP1 JUMP JUMPDEST DUP1 PUSH1 0x0 DUP1 CALLER PUSH20 0xFFFFFFFFFFFFFFFFFFFFFFFFFFFFFFFFFFFFFFFF AND PUSH20 0xFFFFFFFFFFFFFFFFFFFFFFFFFFFFFFFFFFFFFFFF AND DUP2 MSTORE PUSH1 0x20 ADD SWAP1 DUP2 MSTORE PUSH1 0x20 ADD PUSH1 0x0 KECCAK256 DUP2 SWAP1 SSTORE POP POP JUMP JUMPDEST PUSH1 0x0 PUSH1 0x20 MSTORE DUP1 PUSH1 0x0 MSTORE PUSH1 0x40 PUSH1 0x0 KECCAK256 PUSH1 0x0 SWAP2 POP SWAP1 POP SLOAD DUP2 JUMP JUMPDEST PUSH1 0x40 MLOAD DUP1 PUSH1 0x60 ADD PUSH1 0x40 MSTORE DUP1 DUP5 DUP2 MSTORE PUSH1 0x20 ADD DUP4 DUP2 MSTORE PUSH1 0x20 ADD DUP3 DUP2 MSTORE POP PUSH1 0x2 PUSH1 0x0 DUP7 DUP2 MSTORE PUSH1 0x20 ADD SWAP1 DUP2 MSTORE PUSH1 0x20 ADD PUSH1 0x0 KECCAK256 PUSH1 0x0 DUP3 ADD MLOAD DUP2 PUSH1 0x0 ADD SSTORE PUSH1 0x20 DUP3 ADD MLOAD DUP2 PUSH1 0x1 ADD SWAP1 DUP1 MLOAD SWAP1 PUSH1 0x20 ADD SWAP1 PUSH2 0x39E SWAP3 SWAP2 SWAP1 PUSH2 0x3D3 JUMP JUMPDEST POP PUSH1 0x40 DUP3 ADD MLOAD DUP2 PUSH1 0x2 ADD SSTORE SWAP1 POP POP POP POP POP POP JUMP JUMPDEST PUSH1 0x40 MLOAD DUP1 PUSH1 0x60 ADD PUSH1 0x40 MSTORE DUP1 PUSH1 0x0 DUP2 MSTORE PUSH1 0x20 ADD PUSH1 0x60 DUP2 MSTORE PUSH1 0x20 ADD PUSH1 0x0 DUP2 MSTORE POP SWAP1 JUMP JUMPDEST DUP3 DUP1 SLOAD PUSH2 0x3DF SWAP1 PUSH2 0x99B JUMP JUMPDEST SWAP1 PUSH1 0x0 MSTORE PUSH1 0x20 PUSH1 0x0 KECCAK256 SWAP1 PUSH1 0x1F ADD PUSH1 0x20 SWAP1 DIV DUP2 ADD SWAP3 DUP3 PUSH2 0x401 JUMPI PUSH1 0x0 DUP6 SSTORE PUSH2 0x448 JUMP JUMPDEST DUP3 PUSH1 0x1F LT PUSH2 0x41A JUMPI DUP1 MLOAD PUSH1 0xFF NOT AND DUP4 DUP1 ADD OR DUP6 SSTORE PUSH2 0x448 JUMP JUMPDEST DUP3 DUP1 ADD PUSH1 0x1 ADD DUP6 SSTORE DUP3 ISZERO PUSH2 0x448 JUMPI SWAP2 DUP3 ADD JUMPDEST DUP3 DUP2 GT ISZERO PUSH2 0x447 JUMPI DUP3 MLOAD DUP3 SSTORE SWAP2 PUSH1 0x20 ADD SWAP2 SWAP1 PUSH1 0x1 ADD SWAP1 PUSH2 0x42C JUMP JUMPDEST JUMPDEST POP SWAP1 POP PUSH2 0x455 SWAP2 SWAP1 PUSH2 0x459 JUMP JUMPDEST POP SWAP1 JUMP JUMPDEST JUMPDEST DUP1 DUP3 GT ISZERO PUSH2 0x472 JUMPI PUSH1 0x0 DUP2 PUSH1 0x0 SWAP1 SSTORE POP PUSH1 0x1 ADD PUSH2 0x45A JUMP JUMPDEST POP SWAP1 JUMP JUMPDEST PUSH1 0x0 PUSH1 0x40 MLOAD SWAP1 POP SWAP1 JUMP JUMPDEST PUSH1 0x0 DUP1 REVERT JUMPDEST PUSH1 0x0 DUP1 REVERT JUMPDEST PUSH1 0x0 DUP1 REVERT JUMPDEST PUSH1 0x0 DUP1 REVERT JUMPDEST PUSH1 0x0 PUSH1 0x1F NOT PUSH1 0x1F DUP4 ADD AND SWAP1 POP SWAP2 SWAP1 POP JUMP JUMPDEST PUSH32 0x4E487B7100000000000000000000000000000000000000000000000000000000 PUSH1 0x0 MSTORE PUSH1 0x41 PUSH1 0x4 MSTORE PUSH1 0x24 PUSH1 0x0 REVERT JUMPDEST PUSH2 0x4DD DUP3 PUSH2 0x494 JUMP JUMPDEST DUP2 ADD DUP2 DUP2 LT PUSH8 0xFFFFFFFFFFFFFFFF DUP3 GT OR ISZERO PUSH2 0x4FC JUMPI PUSH2 0x4FB PUSH2 0x4A5 JUMP JUMPDEST JUMPDEST DUP1 PUSH1 0x40 MSTORE POP POP POP JUMP JUMPDEST PUSH1 0x0 PUSH2 0x50F PUSH2 0x476 JUMP JUMPDEST SWAP1 POP PUSH2 0x51B DUP3 DUP3 PUSH2 0x4D4 JUMP JUMPDEST SWAP2 SWAP1 POP JUMP JUMPDEST PUSH1 0x0 PUSH8 0xFFFFFFFFFFFFFFFF DUP3 GT ISZERO PUSH2 0x53B JUMPI PUSH2 0x53A PUSH2 0x4A5 JUMP JUMPDEST JUMPDEST PUSH2 0x544 DUP3 PUSH2 0x494 JUMP JUMPDEST SWAP1 POP PUSH1 0x20 DUP2 ADD SWAP1 POP SWAP2 SWAP1 POP JUMP JUMPDEST DUP3 DUP2 DUP4 CALLDATACOPY PUSH1 0x0 DUP4 DUP4 ADD MSTORE POP POP POP JUMP JUMPDEST PUSH1 0x0 PUSH2 0x573 PUSH2 0x56E DUP5 PUSH2 0x520 JUMP JUMPDEST PUSH2 0x505 JUMP JUMPDEST SWAP1 POP DUP3 DUP2 MSTORE PUSH1 0x20 DUP2 ADD DUP5 DUP5 DUP5 ADD GT ISZERO PUSH2 0x58F JUMPI PUSH2 0x58E PUSH2 0x48F JUMP JUMPDEST JUMPDEST PUSH2 0x59A DUP5 DUP3 DUP6 PUSH2 0x551 JUMP JUMPDEST POP SWAP4 SWAP3 POP POP POP JUMP JUMPDEST PUSH1 0x0 DUP3 PUSH1 0x1F DUP4 ADD SLT PUSH2 0x5B7 JUMPI PUSH2 0x5B6 PUSH2 0x48A JUMP JUMPDEST JUMPDEST DUP2 CALLDATALOAD PUSH2 0x5C7 DUP5 DUP3 PUSH1 0x20 DUP7 ADD PUSH2 0x560 JUMP JUMPDEST SWAP2 POP POP SWAP3 SWAP2 POP POP JUMP JUMPDEST PUSH1 0x0 DUP2 SWAP1 POP SWAP2 SWAP1 POP JUMP JUMPDEST PUSH2 0x5E3 DUP2 PUSH2 0x5D0 JUMP JUMPDEST DUP2 EQ PUSH2 0x5EE JUMPI PUSH1 0x0 DUP1 REVERT JUMPDEST POP JUMP JUMPDEST PUSH1 0x0 DUP2 CALLDATALOAD SWAP1 POP PUSH2 0x600 DUP2 PUSH2 0x5DA JUMP JUMPDEST SWAP3 SWAP2 POP POP JUMP JUMPDEST PUSH1 0x0 DUP1 PUSH1 0x40 DUP4 DUP6 SUB SLT ISZERO PUSH2 0x61D JUMPI PUSH2 0x61C PUSH2 0x480 JUMP JUMPDEST JUMPDEST PUSH1 0x0 DUP4 ADD CALLDATALOAD PUSH8 0xFFFFFFFFFFFFFFFF DUP2 GT ISZERO PUSH2 0x63B JUMPI PUSH2 0x63A PUSH2 0x485 JUMP JUMPDEST JUMPDEST PUSH2 0x647 DUP6 DUP3 DUP7 ADD PUSH2 0x5A2 JUMP JUMPDEST SWAP3 POP POP PUSH1 0x20 PUSH2 0x658 DUP6 DUP3 DUP7 ADD PUSH2 0x5F1 JUMP JUMPDEST SWAP2 POP POP SWAP3 POP SWAP3 SWAP1 POP JUMP JUMPDEST PUSH1 0x0 PUSH1 0x20 DUP3 DUP5 SUB SLT ISZERO PUSH2 0x678 JUMPI PUSH2 0x677 PUSH2 0x480 JUMP JUMPDEST JUMPDEST PUSH1 0x0 DUP3 ADD CALLDATALOAD PUSH8 0xFFFFFFFFFFFFFFFF DUP2 GT ISZERO PUSH2 0x696 JUMPI PUSH2 0x695 PUSH2 0x485 JUMP JUMPDEST JUMPDEST PUSH2 0x6A2 DUP5 DUP3 DUP6 ADD PUSH2 0x5A2 JUMP JUMPDEST SWAP2 POP POP SWAP3 SWAP2 POP POP JUMP JUMPDEST PUSH2 0x6B4 DUP2 PUSH2 0x5D0 JUMP JUMPDEST DUP3 MSTORE POP POP JUMP JUMPDEST PUSH1 0x0 PUSH1 0x20 DUP3 ADD SWAP1 POP PUSH2 0x6CF PUSH1 0x0 DUP4 ADD DUP5 PUSH2 0x6AB JUMP JUMPDEST SWAP3 SWAP2 POP POP JUMP JUMPDEST PUSH1 0x0 PUSH1 0x20 DUP3 DUP5 SUB SLT ISZERO PUSH2 0x6EB JUMPI PUSH2 0x6EA PUSH2 0x480 JUMP JUMPDEST JUMPDEST PUSH1 0x0 PUSH2 0x6F9 DUP5 DUP3 DUP6 ADD PUSH2 0x5F1 JUMP JUMPDEST SWAP2 POP POP SWAP3 SWAP2 POP POP JUMP JUMPDEST PUSH2 0x70B DUP2 PUSH2 0x5D0 JUMP JUMPDEST DUP3 MSTORE POP POP JUMP JUMPDEST PUSH1 0x0 DUP2 MLOAD SWAP1 POP SWAP2 SWAP1 POP JUMP JUMPDEST PUSH1 0x0 DUP3 DUP3 MSTORE PUSH1 0x20 DUP3 ADD SWAP1 POP SWAP3 SWAP2 POP POP JUMP JUMPDEST PUSH1 0x0 JUMPDEST DUP4 DUP2 LT ISZERO PUSH2 0x74B JUMPI DUP1 DUP3 ADD MLOAD DUP2 DUP5 ADD MSTORE PUSH1 0x20 DUP2 ADD SWAP1 POP PUSH2 0x730 JUMP JUMPDEST DUP4 DUP2 GT ISZERO PUSH2 0x75A JUMPI PUSH1 0x0 DUP5 DUP5 ADD MSTORE JUMPDEST POP POP POP POP JUMP JUMPDEST PUSH1 0x0 PUSH2 0x76B DUP3 PUSH2 0x711 JUMP JUMPDEST PUSH2 0x775 DUP2 DUP6 PUSH2 0x71C JUMP JUMPDEST SWAP4 POP PUSH2 0x785 DUP2 DUP6 PUSH1 0x20 DUP7 ADD PUSH2 0x72D JUMP JUMPDEST PUSH2 0x78E DUP2 PUSH2 0x494 JUMP JUMPDEST DUP5 ADD SWAP2 POP POP SWAP3 SWAP2 POP POP JUMP JUMPDEST PUSH1 0x0 PUSH1 0x60 DUP4 ADD PUSH1 0x0 DUP4 ADD MLOAD PUSH2 0x7B1 PUSH1 0x0 DUP7 ADD DUP3 PUSH2 0x702 JUMP JUMPDEST POP PUSH1 0x20 DUP4 ADD MLOAD DUP5 DUP3 SUB PUSH1 0x20 DUP7 ADD MSTORE PUSH2 0x7C9 DUP3 DUP3 PUSH2 0x760 JUMP JUMPDEST SWAP2 POP POP PUSH1 0x40 DUP4 ADD MLOAD PUSH2 0x7DE PUSH1 0x40 DUP7 ADD DUP3 PUSH2 0x702 JUMP JUMPDEST POP DUP1 SWAP2 POP POP SWAP3 SWAP2 POP POP JUMP JUMPDEST PUSH1 0x0 PUSH1 0x20 DUP3 ADD SWAP1 POP DUP2 DUP2 SUB PUSH1 0x0 DUP4 ADD MSTORE PUSH2 0x803 DUP2 DUP5 PUSH2 0x799 JUMP JUMPDEST SWAP1 POP SWAP3 SWAP2 POP POP JUMP JUMPDEST PUSH1 0x0 PUSH20 0xFFFFFFFFFFFFFFFFFFFFFFFFFFFFFFFFFFFFFFFF DUP3 AND SWAP1 POP SWAP2 SWAP1 POP JUMP JUMPDEST PUSH1 0x0 PUSH2 0x836 DUP3 PUSH2 0x80B JUMP JUMPDEST SWAP1 POP SWAP2 SWAP1 POP JUMP JUMPDEST PUSH2 0x846 DUP2 PUSH2 0x82B JUMP JUMPDEST DUP2 EQ PUSH2 0x851 JUMPI PUSH1 0x0 DUP1 REVERT JUMPDEST POP JUMP JUMPDEST PUSH1 0x0 DUP2 CALLDATALOAD SWAP1 POP PUSH2 0x863 DUP2 PUSH2 0x83D JUMP JUMPDEST SWAP3 SWAP2 POP POP JUMP JUMPDEST PUSH1 0x0 PUSH1 0x20 DUP3 DUP5 SUB SLT ISZERO PUSH2 0x87F JUMPI PUSH2 0x87E PUSH2 0x480 JUMP JUMPDEST JUMPDEST PUSH1 0x0 PUSH2 0x88D DUP5 DUP3 DUP6 ADD PUSH2 0x854 JUMP JUMPDEST SWAP2 POP POP SWAP3 SWAP2 POP POP JUMP JUMPDEST PUSH1 0x0 DUP1 PUSH1 0x0 DUP1 PUSH1 0x80 DUP6 DUP8 SUB SLT ISZERO PUSH2 0x8B0 JUMPI PUSH2 0x8AF PUSH2 0x480 JUMP JUMPDEST JUMPDEST PUSH1 0x0 PUSH2 0x8BE DUP8 DUP3 DUP9 ADD PUSH2 0x5F1 JUMP JUMPDEST SWAP5 POP POP PUSH1 0x20 PUSH2 0x8CF DUP8 DUP3 DUP9 ADD PUSH2 0x5F1 JUMP JUMPDEST SWAP4 POP POP PUSH1 0x40 DUP6 ADD CALLDATALOAD PUSH8 0xFFFFFFFFFFFFFFFF DUP2 GT ISZERO PUSH2 0x8F0 JUMPI PUSH2 0x8EF PUSH2 0x485 JUMP JUMPDEST JUMPDEST PUSH2 0x8FC DUP8 DUP3 DUP9 ADD PUSH2 0x5A2 JUMP JUMPDEST SWAP3 POP POP PUSH1 0x60 PUSH2 0x90D DUP8 DUP3 DUP9 ADD PUSH2 0x5F1 JUMP JUMPDEST SWAP2 POP POP SWAP3 SWAP6 SWAP2 SWAP5 POP SWAP3 POP JUMP JUMPDEST PUSH1 0x0 DUP2 SWAP1 POP SWAP3 SWAP2 POP POP JUMP JUMPDEST PUSH1 0x0 PUSH2 0x92F DUP3 PUSH2 0x711 JUMP JUMPDEST PUSH2 0x939 DUP2 DUP6 PUSH2 0x919 JUMP JUMPDEST SWAP4 POP PUSH2 0x949 DUP2 DUP6 PUSH1 0x20 DUP7 ADD PUSH2 0x72D JUMP JUMPDEST DUP1 DUP5 ADD SWAP2 POP POP SWAP3 SWAP2 POP POP JUMP JUMPDEST PUSH1 0x0 PUSH2 0x961 DUP3 DUP5 PUSH2 0x924 JUMP JUMPDEST SWAP2 POP DUP2 SWAP1 POP SWAP3 SWAP2 POP POP JUMP JUMPDEST PUSH32 0x4E487B7100000000000000000000000000000000000000000000000000000000 PUSH1 0x0 MSTORE PUSH1 0x22 PUSH1 0x4 MSTORE PUSH1 0x24 PUSH1 0x0 REVERT JUMPDEST PUSH1 0x0 PUSH1 0x2 DUP3 DIV SWAP1 POP PUSH1 0x1 DUP3 AND DUP1 PUSH2 0x9B3 JUMPI PUSH1 0x7F DUP3 AND SWAP2 POP JUMPDEST PUSH1 0x20 DUP3 LT DUP2 SUB PUSH2 0x9C6 JUMPI PUSH2 0x9C5 PUSH2 0x96C JUMP JUMPDEST JUMPDEST POP SWAP2 SWAP1 POP JUMP INVALID LOG2 PUSH5 0x6970667358 0x22 SLT KECCAK256 0xE6 SDIV LOG2 PUSH32 0x20977FD688C2F7E55CB886E2ECE6DD8B1675F0160F2FE2E6B15F166E64736F6C PUSH4 0x4300080D STOP CALLER "
				},
				"gasEstimates": {
					"creation": {
						"codeDepositCost": "512400",
						"executionCost": "549",
						"totalCost": "512949"
					},
					"external": {
						"consultarDinero(string)": "infinite",
						"consultarNumero()": "2526",
						"direccion_edad(address)": "2858",
						"elegirNumero(uint256)": "22631",
						"ingresarDinero(string,uint256)": "infinite",
						"ingresarPersona(uint256,uint256,string,uint256)": "infinite",
						"obtenerPersona(uint256)": "infinite"
					}
				},
				"methodIdentifiers": {
					"consultarDinero(string)": "47267990",
					"consultarNumero()": "92174b49",
					"direccion_edad(address)": "e7089298",
					"elegirNumero(uint256)": "d0427d5a",
					"ingresarDinero(string,uint256)": "276a05bf",
					"ingresarPersona(uint256,uint256,string,uint256)": "eb001a72",
					"obtenerPersona(uint256)": "7f1937fb"
				}
			},
			"storageLayout": {
				"storage": [
					{
						"astId": 6,
						"contract": "Estructuras de datos/mappings.sol:Mappings",
						"label": "direccion_edad",
						"offset": 0,
						"slot": "0",
						"type": "t_mapping(t_address,t_uint256)"
					},
					{
						"astId": 34,
						"contract": "Estructuras de datos/mappings.sol:Mappings",
						"label": "cantidadDinero",
						"offset": 0,
						"slot": "1",
						"type": "t_mapping(t_string_memory_ptr,t_uint256)"
					},
					{
						"astId": 72,
						"contract": "Estructuras de datos/mappings.sol:Mappings",
						"label": "personas",
						"offset": 0,
						"slot": "2",
						"type": "t_mapping(t_uint256,t_struct(Persona)67_storage)"
					}
				],
				"types": {
					"t_address": {
						"encoding": "inplace",
						"label": "address",
						"numberOfBytes": "20"
					},
					"t_mapping(t_address,t_uint256)": {
						"encoding": "mapping",
						"key": "t_address",
						"label": "mapping(address => uint256)",
						"numberOfBytes": "32",
						"value": "t_uint256"
					},
					"t_mapping(t_string_memory_ptr,t_uint256)": {
						"encoding": "mapping",
						"key": "t_string_memory_ptr",
						"label": "mapping(string => uint256)",
						"numberOfBytes": "32",
						"value": "t_uint256"
					},
					"t_mapping(t_uint256,t_struct(Persona)67_storage)": {
						"encoding": "mapping",
						"key": "t_uint256",
						"label": "mapping(uint256 => struct Mappings.Persona)",
						"numberOfBytes": "32",
						"value": "t_struct(Persona)67_storage"
					},
					"t_string_memory_ptr": {
						"encoding": "bytes",
						"label": "string",
						"numberOfBytes": "32"
					},
					"t_string_storage": {
						"encoding": "bytes",
						"label": "string",
						"numberOfBytes": "32"
					},
					"t_struct(Persona)67_storage": {
						"encoding": "inplace",
						"label": "struct Mappings.Persona",
						"members": [
							{
								"astId": 62,
								"contract": "Estructuras de datos/mappings.sol:Mappings",
								"label": "id",
								"offset": 0,
								"slot": "0",
								"type": "t_uint256"
							},
							{
								"astId": 64,
								"contract": "Estructuras de datos/mappings.sol:Mappings",
								"label": "nombre",
								"offset": 0,
								"slot": "1",
								"type": "t_string_storage"
							},
							{
								"astId": 66,
								"contract": "Estructuras de datos/mappings.sol:Mappings",
								"label": "edad",
								"offset": 0,
								"slot": "2",
								"type": "t_uint256"
							}
						],
						"numberOfBytes": "96"
					},
					"t_uint256": {
						"encoding": "inplace",
						"label": "uint256",
						"numberOfBytes": "32"
					}
				}
			},
			"userdoc": {
				"kind": "user",
				"methods": {},
				"version": 1
			}
		}
	}
}