{
	"Estructuras de datos/arrays.sol": {
		"Arrays": {
			"abi": [
				{
					"inputs": [
						{
							"internalType": "uint256",
							"name": "",
							"type": "uint256"
						}
					],
					"name": "array_dinamico_enteros",
					"outputs": [
						{
							"internalType": "uint256",
							"name": "",
							"type": "uint256"
						}
					],
					"stateMutability": "view",
					"type": "function"
				},
				{
					"inputs": [
						{
							"internalType": "uint256",
							"name": "",
							"type": "uint256"
						}
					],
					"name": "array_dinamico_personas",
					"outputs": [
						{
							"internalType": "string",
							"name": "nombre",
							"type": "string"
						},
						{
							"internalType": "uint256",
							"name": "edad",
							"type": "uint256"
						}
					],
					"stateMutability": "view",
					"type": "function"
				},
				{
					"inputs": [
						{
							"internalType": "uint256",
							"name": "",
							"type": "uint256"
						}
					],
					"name": "array_enteros",
					"outputs": [
						{
							"internalType": "uint256",
							"name": "",
							"type": "uint256"
						}
					],
					"stateMutability": "view",
					"type": "function"
				},
				{
					"inputs": [],
					"name": "modificar_array",
					"outputs": [],
					"stateMutability": "nonpayable",
					"type": "function"
				},
				{
					"inputs": [],
					"name": "test",
					"outputs": [
						{
							"internalType": "uint256",
							"name": "",
							"type": "uint256"
						}
					],
					"stateMutability": "view",
					"type": "function"
				}
			],
			"devdoc": {
				"kind": "dev",
				"methods": {},
				"version": 1
			},
			"evm": {
				"assembly": "    /* \"Estructuras de datos/arrays.sol\":67:848  contract Arrays{... */\n  mstore(0x40, 0x80)\n    /* \"Estructuras de datos/arrays.sol\":136:174  uint[5] public array_enteros = [1,2,3] */\n  mload(0x40)\n  dup1\n  0x60\n  add\n  0x40\n  mstore\n  dup1\n    /* \"Estructuras de datos/arrays.sol\":168:169  1 */\n  0x01\n    /* \"Estructuras de datos/arrays.sol\":136:174  uint[5] public array_enteros = [1,2,3] */\n  0xff\n  and\n  dup2\n  mstore\n  0x20\n  add\n    /* \"Estructuras de datos/arrays.sol\":170:171  2 */\n  0x02\n    /* \"Estructuras de datos/arrays.sol\":136:174  uint[5] public array_enteros = [1,2,3] */\n  0xff\n  and\n  dup2\n  mstore\n  0x20\n  add\n    /* \"Estructuras de datos/arrays.sol\":172:173  3 */\n  0x03\n    /* \"Estructuras de datos/arrays.sol\":136:174  uint[5] public array_enteros = [1,2,3] */\n  0xff\n  and\n  dup2\n  mstore\n  pop\n  0x00\n  swap1\n  0x03\n  tag_1\n  swap3\n  swap2\n  swap1\n  tag_2\n  jump\t// in\ntag_1:\n  pop\n    /* \"Estructuras de datos/arrays.sol\":824:837  array_enteros */\n  0x00\n    /* \"Estructuras de datos/arrays.sol\":838:839  2 */\n  0x02\n    /* \"Estructuras de datos/arrays.sol\":824:840  array_enteros[2] */\n  0x05\n  dup2\n  lt\n  tag_3\n  jumpi\n  tag_4\n  tag_5\n  jump\t// in\ntag_4:\ntag_3:\n  add\n  sload\n    /* \"Estructuras de datos/arrays.sol\":805:840  uint public test = array_enteros[2] */\n  0x17\n  sstore\n    /* \"Estructuras de datos/arrays.sol\":67:848  contract Arrays{... */\n  callvalue\n  dup1\n  iszero\n  tag_7\n  jumpi\n  0x00\n  dup1\n  revert\ntag_7:\n  pop\n  jump(tag_8)\ntag_2:\n  dup3\n  0x05\n  dup2\n  add\n  swap3\n  dup3\n  iszero\n  tag_9\n  jumpi\n  swap2\n  0x20\n  mul\n  dup3\n  add\ntag_10:\n  dup3\n  dup2\n  gt\n  iszero\n  tag_11\n  jumpi\n  dup3\n  mload\n  dup3\n  swap1\n  0xff\n  and\n  swap1\n  sstore\n  swap2\n  0x20\n  add\n  swap2\n  swap1\n  0x01\n  add\n  swap1\n  jump(tag_10)\ntag_11:\ntag_9:\n  pop\n  swap1\n  pop\n  tag_12\n  swap2\n  swap1\n  tag_13\n  jump\t// in\ntag_12:\n  pop\n  swap1\n  jump\t// out\ntag_13:\ntag_14:\n  dup1\n  dup3\n  gt\n  iszero\n  tag_15\n  jumpi\n  0x00\n  dup2\n  0x00\n  swap1\n  sstore\n  pop\n  0x01\n  add\n  jump(tag_14)\ntag_15:\n  pop\n  swap1\n  jump\t// out\n    /* \"#utility.yul\":7:187   */\ntag_5:\n    /* \"#utility.yul\":55:132   */\n  0x4e487b7100000000000000000000000000000000000000000000000000000000\n    /* \"#utility.yul\":52:53   */\n  0x00\n    /* \"#utility.yul\":45:133   */\n  mstore\n    /* \"#utility.yul\":152:156   */\n  0x32\n    /* \"#utility.yul\":149:150   */\n  0x04\n    /* \"#utility.yul\":142:157   */\n  mstore\n    /* \"#utility.yul\":176:180   */\n  0x24\n    /* \"#utility.yul\":173:174   */\n  0x00\n    /* \"#utility.yul\":166:181   */\n  revert\n    /* \"Estructuras de datos/arrays.sol\":67:848  contract Arrays{... */\ntag_8:\n  dataSize(sub_0)\n  dup1\n  dataOffset(sub_0)\n  0x00\n  codecopy\n  0x00\n  return\nstop\n\nsub_0: assembly {\n        /* \"Estructuras de datos/arrays.sol\":67:848  contract Arrays{... */\n      mstore(0x40, 0x80)\n      callvalue\n      dup1\n      iszero\n      tag_1\n      jumpi\n      0x00\n      dup1\n      revert\n    tag_1:\n      pop\n      jumpi(tag_2, lt(calldatasize, 0x04))\n      shr(0xe0, calldataload(0x00))\n      dup1\n      0x21109cf2\n      eq\n      tag_3\n      jumpi\n      dup1\n      0x43689a6a\n      eq\n      tag_4\n      jumpi\n      dup1\n      0xcafc9d28\n      eq\n      tag_5\n      jumpi\n      dup1\n      0xf0539020\n      eq\n      tag_6\n      jumpi\n      dup1\n      0xf8a8fd6d\n      eq\n      tag_7\n      jumpi\n    tag_2:\n      0x00\n      dup1\n      revert\n        /* \"Estructuras de datos/arrays.sol\":616:795  function modificar_array() public{... */\n    tag_3:\n      tag_8\n      tag_9\n      jump\t// in\n    tag_8:\n      stop\n        /* \"Estructuras de datos/arrays.sol\":136:174  uint[5] public array_enteros = [1,2,3] */\n    tag_4:\n      tag_10\n      0x04\n      dup1\n      calldatasize\n      sub\n      dup2\n      add\n      swap1\n      tag_11\n      swap2\n      swap1\n      tag_12\n      jump\t// in\n    tag_11:\n      tag_13\n      jump\t// in\n    tag_10:\n      mload(0x40)\n      tag_14\n      swap2\n      swap1\n      tag_15\n      jump\t// in\n    tag_14:\n      mload(0x40)\n      dup1\n      swap2\n      sub\n      swap1\n      return\n        /* \"Estructuras de datos/arrays.sol\":405:442  uint [] public array_dinamico_enteros */\n    tag_5:\n      tag_16\n      0x04\n      dup1\n      calldatasize\n      sub\n      dup2\n      add\n      swap1\n      tag_17\n      swap2\n      swap1\n      tag_12\n      jump\t// in\n    tag_17:\n      tag_18\n      jump\t// in\n    tag_16:\n      mload(0x40)\n      tag_19\n      swap2\n      swap1\n      tag_15\n      jump\t// in\n    tag_19:\n      mload(0x40)\n      dup1\n      swap2\n      sub\n      swap1\n      return\n        /* \"Estructuras de datos/arrays.sol\":564:605  Persona [] public array_dinamico_personas */\n    tag_6:\n      tag_20\n      0x04\n      dup1\n      calldatasize\n      sub\n      dup2\n      add\n      swap1\n      tag_21\n      swap2\n      swap1\n      tag_12\n      jump\t// in\n    tag_21:\n      tag_22\n      jump\t// in\n    tag_20:\n      mload(0x40)\n      tag_23\n      swap3\n      swap2\n      swap1\n      tag_24\n      jump\t// in\n    tag_23:\n      mload(0x40)\n      dup1\n      swap2\n      sub\n      swap1\n      return\n        /* \"Estructuras de datos/arrays.sol\":805:840  uint public test = array_enteros[2] */\n    tag_7:\n      tag_25\n      tag_26\n      jump\t// in\n    tag_25:\n      mload(0x40)\n      tag_27\n      swap2\n      swap1\n      tag_15\n      jump\t// in\n    tag_27:\n      mload(0x40)\n      dup1\n      swap2\n      sub\n      swap1\n      return\n        /* \"Estructuras de datos/arrays.sol\":616:795  function modificar_array() public{... */\n    tag_9:\n        /* \"Estructuras de datos/arrays.sol\":786:788  56 */\n      0x38\n        /* \"Estructuras de datos/arrays.sol\":769:782  array_enteros */\n      0x00\n        /* \"Estructuras de datos/arrays.sol\":783:784  2 */\n      0x02\n        /* \"Estructuras de datos/arrays.sol\":769:785  array_enteros[2] */\n      0x05\n      dup2\n      lt\n      tag_29\n      jumpi\n      tag_30\n      tag_31\n      jump\t// in\n    tag_30:\n    tag_29:\n      add\n        /* \"Estructuras de datos/arrays.sol\":769:788  array_enteros[2]=56 */\n      dup2\n      swap1\n      sstore\n      pop\n        /* \"Estructuras de datos/arrays.sol\":616:795  function modificar_array() public{... */\n      jump\t// out\n        /* \"Estructuras de datos/arrays.sol\":136:174  uint[5] public array_enteros = [1,2,3] */\n    tag_13:\n      0x00\n      dup2\n      0x05\n      dup2\n      lt\n      tag_33\n      jumpi\n      0x00\n      dup1\n      revert\n    tag_33:\n      add\n      0x00\n      swap2\n      pop\n      swap1\n      pop\n      sload\n      dup2\n      jump\t// out\n        /* \"Estructuras de datos/arrays.sol\":405:442  uint [] public array_dinamico_enteros */\n    tag_18:\n      0x15\n      dup2\n      dup2\n      sload\n      dup2\n      lt\n      tag_35\n      jumpi\n      0x00\n      dup1\n      revert\n    tag_35:\n      swap1\n      0x00\n      mstore\n      keccak256(0x00, 0x20)\n      add\n      0x00\n      swap2\n      pop\n      swap1\n      pop\n      sload\n      dup2\n      jump\t// out\n        /* \"Estructuras de datos/arrays.sol\":564:605  Persona [] public array_dinamico_personas */\n    tag_22:\n      0x16\n      dup2\n      dup2\n      sload\n      dup2\n      lt\n      tag_37\n      jumpi\n      0x00\n      dup1\n      revert\n    tag_37:\n      swap1\n      0x00\n      mstore\n      keccak256(0x00, 0x20)\n      swap1\n      0x02\n      mul\n      add\n      0x00\n      swap2\n      pop\n      swap1\n      pop\n      dup1\n      0x00\n      add\n      dup1\n      sload\n      tag_39\n      swap1\n      tag_40\n      jump\t// in\n    tag_39:\n      dup1\n      0x1f\n      add\n      0x20\n      dup1\n      swap2\n      div\n      mul\n      0x20\n      add\n      mload(0x40)\n      swap1\n      dup2\n      add\n      0x40\n      mstore\n      dup1\n      swap3\n      swap2\n      swap1\n      dup2\n      dup2\n      mstore\n      0x20\n      add\n      dup3\n      dup1\n      sload\n      tag_41\n      swap1\n      tag_40\n      jump\t// in\n    tag_41:\n      dup1\n      iszero\n      tag_42\n      jumpi\n      dup1\n      0x1f\n      lt\n      tag_43\n      jumpi\n      0x0100\n      dup1\n      dup4\n      sload\n      div\n      mul\n      dup4\n      mstore\n      swap2\n      0x20\n      add\n      swap2\n      jump(tag_42)\n    tag_43:\n      dup3\n      add\n      swap2\n      swap1\n      0x00\n      mstore\n      keccak256(0x00, 0x20)\n      swap1\n    tag_44:\n      dup2\n      sload\n      dup2\n      mstore\n      swap1\n      0x01\n      add\n      swap1\n      0x20\n      add\n      dup1\n      dup4\n      gt\n      tag_44\n      jumpi\n      dup3\n      swap1\n      sub\n      0x1f\n      and\n      dup3\n      add\n      swap2\n    tag_42:\n      pop\n      pop\n      pop\n      pop\n      pop\n      swap1\n      dup1\n      0x01\n      add\n      sload\n      swap1\n      pop\n      dup3\n      jump\t// out\n        /* \"Estructuras de datos/arrays.sol\":805:840  uint public test = array_enteros[2] */\n    tag_26:\n      sload(0x17)\n      dup2\n      jump\t// out\n        /* \"#utility.yul\":88:205   */\n    tag_46:\n        /* \"#utility.yul\":197:198   */\n      0x00\n        /* \"#utility.yul\":194:195   */\n      dup1\n        /* \"#utility.yul\":187:199   */\n      revert\n        /* \"#utility.yul\":334:411   */\n    tag_48:\n        /* \"#utility.yul\":371:378   */\n      0x00\n        /* \"#utility.yul\":400:405   */\n      dup2\n        /* \"#utility.yul\":389:405   */\n      swap1\n      pop\n        /* \"#utility.yul\":334:411   */\n      swap2\n      swap1\n      pop\n      jump\t// out\n        /* \"#utility.yul\":417:539   */\n    tag_49:\n        /* \"#utility.yul\":490:514   */\n      tag_64\n        /* \"#utility.yul\":508:513   */\n      dup2\n        /* \"#utility.yul\":490:514   */\n      tag_48\n      jump\t// in\n    tag_64:\n        /* \"#utility.yul\":483:488   */\n      dup2\n        /* \"#utility.yul\":480:515   */\n      eq\n        /* \"#utility.yul\":470:533   */\n      tag_65\n      jumpi\n        /* \"#utility.yul\":529:530   */\n      0x00\n        /* \"#utility.yul\":526:527   */\n      dup1\n        /* \"#utility.yul\":519:531   */\n      revert\n        /* \"#utility.yul\":470:533   */\n    tag_65:\n        /* \"#utility.yul\":417:539   */\n      pop\n      jump\t// out\n        /* \"#utility.yul\":545:684   */\n    tag_50:\n        /* \"#utility.yul\":591:596   */\n      0x00\n        /* \"#utility.yul\":629:635   */\n      dup2\n        /* \"#utility.yul\":616:636   */\n      calldataload\n        /* \"#utility.yul\":607:636   */\n      swap1\n      pop\n        /* \"#utility.yul\":645:678   */\n      tag_67\n        /* \"#utility.yul\":672:677   */\n      dup2\n        /* \"#utility.yul\":645:678   */\n      tag_49\n      jump\t// in\n    tag_67:\n        /* \"#utility.yul\":545:684   */\n      swap3\n      swap2\n      pop\n      pop\n      jump\t// out\n        /* \"#utility.yul\":690:1019   */\n    tag_12:\n        /* \"#utility.yul\":749:755   */\n      0x00\n        /* \"#utility.yul\":798:800   */\n      0x20\n        /* \"#utility.yul\":786:795   */\n      dup3\n        /* \"#utility.yul\":777:784   */\n      dup5\n        /* \"#utility.yul\":773:796   */\n      sub\n        /* \"#utility.yul\":769:801   */\n      slt\n        /* \"#utility.yul\":766:885   */\n      iszero\n      tag_69\n      jumpi\n        /* \"#utility.yul\":804:883   */\n      tag_70\n      tag_46\n      jump\t// in\n    tag_70:\n        /* \"#utility.yul\":766:885   */\n    tag_69:\n        /* \"#utility.yul\":924:925   */\n      0x00\n        /* \"#utility.yul\":949:1002   */\n      tag_71\n        /* \"#utility.yul\":994:1001   */\n      dup5\n        /* \"#utility.yul\":985:991   */\n      dup3\n        /* \"#utility.yul\":974:983   */\n      dup6\n        /* \"#utility.yul\":970:992   */\n      add\n        /* \"#utility.yul\":949:1002   */\n      tag_50\n      jump\t// in\n    tag_71:\n        /* \"#utility.yul\":939:1002   */\n      swap2\n      pop\n        /* \"#utility.yul\":895:1012   */\n      pop\n        /* \"#utility.yul\":690:1019   */\n      swap3\n      swap2\n      pop\n      pop\n      jump\t// out\n        /* \"#utility.yul\":1025:1143   */\n    tag_51:\n        /* \"#utility.yul\":1112:1136   */\n      tag_73\n        /* \"#utility.yul\":1130:1135   */\n      dup2\n        /* \"#utility.yul\":1112:1136   */\n      tag_48\n      jump\t// in\n    tag_73:\n        /* \"#utility.yul\":1107:1110   */\n      dup3\n        /* \"#utility.yul\":1100:1137   */\n      mstore\n        /* \"#utility.yul\":1025:1143   */\n      pop\n      pop\n      jump\t// out\n        /* \"#utility.yul\":1149:1371   */\n    tag_15:\n        /* \"#utility.yul\":1242:1246   */\n      0x00\n        /* \"#utility.yul\":1280:1282   */\n      0x20\n        /* \"#utility.yul\":1269:1278   */\n      dup3\n        /* \"#utility.yul\":1265:1283   */\n      add\n        /* \"#utility.yul\":1257:1283   */\n      swap1\n      pop\n        /* \"#utility.yul\":1293:1364   */\n      tag_75\n        /* \"#utility.yul\":1361:1362   */\n      0x00\n        /* \"#utility.yul\":1350:1359   */\n      dup4\n        /* \"#utility.yul\":1346:1363   */\n      add\n        /* \"#utility.yul\":1337:1343   */\n      dup5\n        /* \"#utility.yul\":1293:1364   */\n      tag_51\n      jump\t// in\n    tag_75:\n        /* \"#utility.yul\":1149:1371   */\n      swap3\n      swap2\n      pop\n      pop\n      jump\t// out\n        /* \"#utility.yul\":1377:1476   */\n    tag_52:\n        /* \"#utility.yul\":1429:1435   */\n      0x00\n        /* \"#utility.yul\":1463:1468   */\n      dup2\n        /* \"#utility.yul\":1457:1469   */\n      mload\n        /* \"#utility.yul\":1447:1469   */\n      swap1\n      pop\n        /* \"#utility.yul\":1377:1476   */\n      swap2\n      swap1\n      pop\n      jump\t// out\n        /* \"#utility.yul\":1482:1651   */\n    tag_53:\n        /* \"#utility.yul\":1566:1577   */\n      0x00\n        /* \"#utility.yul\":1600:1606   */\n      dup3\n        /* \"#utility.yul\":1595:1598   */\n      dup3\n        /* \"#utility.yul\":1588:1607   */\n      mstore\n        /* \"#utility.yul\":1640:1644   */\n      0x20\n        /* \"#utility.yul\":1635:1638   */\n      dup3\n        /* \"#utility.yul\":1631:1645   */\n      add\n        /* \"#utility.yul\":1616:1645   */\n      swap1\n      pop\n        /* \"#utility.yul\":1482:1651   */\n      swap3\n      swap2\n      pop\n      pop\n      jump\t// out\n        /* \"#utility.yul\":1657:1964   */\n    tag_54:\n        /* \"#utility.yul\":1725:1726   */\n      0x00\n        /* \"#utility.yul\":1735:1848   */\n    tag_79:\n        /* \"#utility.yul\":1749:1755   */\n      dup4\n        /* \"#utility.yul\":1746:1747   */\n      dup2\n        /* \"#utility.yul\":1743:1756   */\n      lt\n        /* \"#utility.yul\":1735:1848   */\n      iszero\n      tag_81\n      jumpi\n        /* \"#utility.yul\":1834:1835   */\n      dup1\n        /* \"#utility.yul\":1829:1832   */\n      dup3\n        /* \"#utility.yul\":1825:1836   */\n      add\n        /* \"#utility.yul\":1819:1837   */\n      mload\n        /* \"#utility.yul\":1815:1816   */\n      dup2\n        /* \"#utility.yul\":1810:1813   */\n      dup5\n        /* \"#utility.yul\":1806:1817   */\n      add\n        /* \"#utility.yul\":1799:1838   */\n      mstore\n        /* \"#utility.yul\":1771:1773   */\n      0x20\n        /* \"#utility.yul\":1768:1769   */\n      dup2\n        /* \"#utility.yul\":1764:1774   */\n      add\n        /* \"#utility.yul\":1759:1774   */\n      swap1\n      pop\n        /* \"#utility.yul\":1735:1848   */\n      jump(tag_79)\n    tag_81:\n        /* \"#utility.yul\":1866:1872   */\n      dup4\n        /* \"#utility.yul\":1863:1864   */\n      dup2\n        /* \"#utility.yul\":1860:1873   */\n      gt\n        /* \"#utility.yul\":1857:1958   */\n      iszero\n      tag_82\n      jumpi\n        /* \"#utility.yul\":1946:1947   */\n      0x00\n        /* \"#utility.yul\":1937:1943   */\n      dup5\n        /* \"#utility.yul\":1932:1935   */\n      dup5\n        /* \"#utility.yul\":1928:1944   */\n      add\n        /* \"#utility.yul\":1921:1948   */\n      mstore\n        /* \"#utility.yul\":1857:1958   */\n    tag_82:\n        /* \"#utility.yul\":1706:1964   */\n      pop\n        /* \"#utility.yul\":1657:1964   */\n      pop\n      pop\n      pop\n      jump\t// out\n        /* \"#utility.yul\":1970:2072   */\n    tag_55:\n        /* \"#utility.yul\":2011:2017   */\n      0x00\n        /* \"#utility.yul\":2062:2064   */\n      0x1f\n        /* \"#utility.yul\":2058:2065   */\n      not\n        /* \"#utility.yul\":2053:2055   */\n      0x1f\n        /* \"#utility.yul\":2046:2051   */\n      dup4\n        /* \"#utility.yul\":2042:2056   */\n      add\n        /* \"#utility.yul\":2038:2066   */\n      and\n        /* \"#utility.yul\":2028:2066   */\n      swap1\n      pop\n        /* \"#utility.yul\":1970:2072   */\n      swap2\n      swap1\n      pop\n      jump\t// out\n        /* \"#utility.yul\":2078:2442   */\n    tag_56:\n        /* \"#utility.yul\":2166:2169   */\n      0x00\n        /* \"#utility.yul\":2194:2233   */\n      tag_85\n        /* \"#utility.yul\":2227:2232   */\n      dup3\n        /* \"#utility.yul\":2194:2233   */\n      tag_52\n      jump\t// in\n    tag_85:\n        /* \"#utility.yul\":2249:2320   */\n      tag_86\n        /* \"#utility.yul\":2313:2319   */\n      dup2\n        /* \"#utility.yul\":2308:2311   */\n      dup6\n        /* \"#utility.yul\":2249:2320   */\n      tag_53\n      jump\t// in\n    tag_86:\n        /* \"#utility.yul\":2242:2320   */\n      swap4\n      pop\n        /* \"#utility.yul\":2329:2381   */\n      tag_87\n        /* \"#utility.yul\":2374:2380   */\n      dup2\n        /* \"#utility.yul\":2369:2372   */\n      dup6\n        /* \"#utility.yul\":2362:2366   */\n      0x20\n        /* \"#utility.yul\":2355:2360   */\n      dup7\n        /* \"#utility.yul\":2351:2367   */\n      add\n        /* \"#utility.yul\":2329:2381   */\n      tag_54\n      jump\t// in\n    tag_87:\n        /* \"#utility.yul\":2406:2435   */\n      tag_88\n        /* \"#utility.yul\":2428:2434   */\n      dup2\n        /* \"#utility.yul\":2406:2435   */\n      tag_55\n      jump\t// in\n    tag_88:\n        /* \"#utility.yul\":2401:2404   */\n      dup5\n        /* \"#utility.yul\":2397:2436   */\n      add\n        /* \"#utility.yul\":2390:2436   */\n      swap2\n      pop\n        /* \"#utility.yul\":2170:2442   */\n      pop\n        /* \"#utility.yul\":2078:2442   */\n      swap3\n      swap2\n      pop\n      pop\n      jump\t// out\n        /* \"#utility.yul\":2448:2871   */\n    tag_24:\n        /* \"#utility.yul\":2589:2593   */\n      0x00\n        /* \"#utility.yul\":2627:2629   */\n      0x40\n        /* \"#utility.yul\":2616:2625   */\n      dup3\n        /* \"#utility.yul\":2612:2630   */\n      add\n        /* \"#utility.yul\":2604:2630   */\n      swap1\n      pop\n        /* \"#utility.yul\":2676:2685   */\n      dup2\n        /* \"#utility.yul\":2670:2674   */\n      dup2\n        /* \"#utility.yul\":2666:2686   */\n      sub\n        /* \"#utility.yul\":2662:2663   */\n      0x00\n        /* \"#utility.yul\":2651:2660   */\n      dup4\n        /* \"#utility.yul\":2647:2664   */\n      add\n        /* \"#utility.yul\":2640:2687   */\n      mstore\n        /* \"#utility.yul\":2704:2782   */\n      tag_90\n        /* \"#utility.yul\":2777:2781   */\n      dup2\n        /* \"#utility.yul\":2768:2774   */\n      dup6\n        /* \"#utility.yul\":2704:2782   */\n      tag_56\n      jump\t// in\n    tag_90:\n        /* \"#utility.yul\":2696:2782   */\n      swap1\n      pop\n        /* \"#utility.yul\":2792:2864   */\n      tag_91\n        /* \"#utility.yul\":2860:2862   */\n      0x20\n        /* \"#utility.yul\":2849:2858   */\n      dup4\n        /* \"#utility.yul\":2845:2863   */\n      add\n        /* \"#utility.yul\":2836:2842   */\n      dup5\n        /* \"#utility.yul\":2792:2864   */\n      tag_51\n      jump\t// in\n    tag_91:\n        /* \"#utility.yul\":2448:2871   */\n      swap4\n      swap3\n      pop\n      pop\n      pop\n      jump\t// out\n        /* \"#utility.yul\":2877:3057   */\n    tag_31:\n        /* \"#utility.yul\":2925:3002   */\n      0x4e487b7100000000000000000000000000000000000000000000000000000000\n        /* \"#utility.yul\":2922:2923   */\n      0x00\n        /* \"#utility.yul\":2915:3003   */\n      mstore\n        /* \"#utility.yul\":3022:3026   */\n      0x32\n        /* \"#utility.yul\":3019:3020   */\n      0x04\n        /* \"#utility.yul\":3012:3027   */\n      mstore\n        /* \"#utility.yul\":3046:3050   */\n      0x24\n        /* \"#utility.yul\":3043:3044   */\n      0x00\n        /* \"#utility.yul\":3036:3051   */\n      revert\n        /* \"#utility.yul\":3063:3243   */\n    tag_57:\n        /* \"#utility.yul\":3111:3188   */\n      0x4e487b7100000000000000000000000000000000000000000000000000000000\n        /* \"#utility.yul\":3108:3109   */\n      0x00\n        /* \"#utility.yul\":3101:3189   */\n      mstore\n        /* \"#utility.yul\":3208:3212   */\n      0x22\n        /* \"#utility.yul\":3205:3206   */\n      0x04\n        /* \"#utility.yul\":3198:3213   */\n      mstore\n        /* \"#utility.yul\":3232:3236   */\n      0x24\n        /* \"#utility.yul\":3229:3230   */\n      0x00\n        /* \"#utility.yul\":3222:3237   */\n      revert\n        /* \"#utility.yul\":3249:3569   */\n    tag_40:\n        /* \"#utility.yul\":3293:3299   */\n      0x00\n        /* \"#utility.yul\":3330:3331   */\n      0x02\n        /* \"#utility.yul\":3324:3328   */\n      dup3\n        /* \"#utility.yul\":3320:3332   */\n      div\n        /* \"#utility.yul\":3310:3332   */\n      swap1\n      pop\n        /* \"#utility.yul\":3377:3378   */\n      0x01\n        /* \"#utility.yul\":3371:3375   */\n      dup3\n        /* \"#utility.yul\":3367:3379   */\n      and\n        /* \"#utility.yul\":3398:3416   */\n      dup1\n        /* \"#utility.yul\":3388:3469   */\n      tag_95\n      jumpi\n        /* \"#utility.yul\":3454:3458   */\n      0x7f\n        /* \"#utility.yul\":3446:3452   */\n      dup3\n        /* \"#utility.yul\":3442:3459   */\n      and\n        /* \"#utility.yul\":3432:3459   */\n      swap2\n      pop\n        /* \"#utility.yul\":3388:3469   */\n    tag_95:\n        /* \"#utility.yul\":3516:3518   */\n      0x20\n        /* \"#utility.yul\":3508:3514   */\n      dup3\n        /* \"#utility.yul\":3505:3519   */\n      lt\n        /* \"#utility.yul\":3485:3503   */\n      dup2\n        /* \"#utility.yul\":3482:3520   */\n      sub\n        /* \"#utility.yul\":3479:3563   */\n      tag_96\n      jumpi\n        /* \"#utility.yul\":3535:3553   */\n      tag_97\n      tag_57\n      jump\t// in\n    tag_97:\n        /* \"#utility.yul\":3479:3563   */\n    tag_96:\n        /* \"#utility.yul\":3300:3569   */\n      pop\n        /* \"#utility.yul\":3249:3569   */\n      swap2\n      swap1\n      pop\n      jump\t// out\n\n    auxdata: 0xa26469706673582212202996f44b91c5670c5e7482ba79c763a2727f8ccdac54797071e1853362a0b42164736f6c634300080d0033\n}\n",
				"bytecode": {
					"linkReferences": {},
					"object": "60806040526040518060600160405280600160ff168152602001600260ff168152602001600360ff16815250600090600361003b929190610068565b506000600260058110610051576100506100ca565b5b015460175534801561006257600080fd5b506100f9565b826005810192821561009c579160200282015b8281111561009b578251829060ff1690559160200191906001019061007b565b5b5090506100a991906100ad565b5090565b5b808211156100c65760008160009055506001016100ae565b5090565b7f4e487b7100000000000000000000000000000000000000000000000000000000600052603260045260246000fd5b610454806101086000396000f3fe608060405234801561001057600080fd5b50600436106100575760003560e01c806321109cf21461005c57806343689a6a14610066578063cafc9d2814610096578063f0539020146100c6578063f8a8fd6d146100f7575b600080fd5b610064610115565b005b610080600480360381019061007b919061026f565b610133565b60405161008d91906102ab565b60405180910390f35b6100b060048036038101906100ab919061026f565b61014e565b6040516100bd91906102ab565b60405180910390f35b6100e060048036038101906100db919061026f565b610172565b6040516100ee92919061035f565b60405180910390f35b6100ff61022e565b60405161010c91906102ab565b60405180910390f35b6038600060026005811061012c5761012b61038f565b5b0181905550565b6000816005811061014357600080fd5b016000915090505481565b6015818154811061015e57600080fd5b906000526020600020016000915090505481565b6016818154811061018257600080fd5b90600052602060002090600202016000915090508060000180546101a5906103ed565b80601f01602080910402602001604051908101604052809291908181526020018280546101d1906103ed565b801561021e5780601f106101f35761010080835404028352916020019161021e565b820191906000526020600020905b81548152906001019060200180831161020157829003601f168201915b5050505050908060010154905082565b60175481565b600080fd5b6000819050919050565b61024c81610239565b811461025757600080fd5b50565b60008135905061026981610243565b92915050565b60006020828403121561028557610284610234565b5b60006102938482850161025a565b91505092915050565b6102a581610239565b82525050565b60006020820190506102c0600083018461029c565b92915050565b600081519050919050565b600082825260208201905092915050565b60005b838110156103005780820151818401526020810190506102e5565b8381111561030f576000848401525b50505050565b6000601f19601f8301169050919050565b6000610331826102c6565b61033b81856102d1565b935061034b8185602086016102e2565b61035481610315565b840191505092915050565b600060408201905081810360008301526103798185610326565b9050610388602083018461029c565b9392505050565b7f4e487b7100000000000000000000000000000000000000000000000000000000600052603260045260246000fd5b7f4e487b7100000000000000000000000000000000000000000000000000000000600052602260045260246000fd5b6000600282049050600182168061040557607f821691505b602082108103610418576104176103be565b5b5091905056fea26469706673582212202996f44b91c5670c5e7482ba79c763a2727f8ccdac54797071e1853362a0b42164736f6c634300080d0033",
					"opcodes": "PUSH1 0x80 PUSH1 0x40 MSTORE PUSH1 0x40 MLOAD DUP1 PUSH1 0x60 ADD PUSH1 0x40 MSTORE DUP1 PUSH1 0x1 PUSH1 0xFF AND DUP2 MSTORE PUSH1 0x20 ADD PUSH1 0x2 PUSH1 0xFF AND DUP2 MSTORE PUSH1 0x20 ADD PUSH1 0x3 PUSH1 0xFF AND DUP2 MSTORE POP PUSH1 0x0 SWAP1 PUSH1 0x3 PUSH2 0x3B SWAP3 SWAP2 SWAP1 PUSH2 0x68 JUMP JUMPDEST POP PUSH1 0x0 PUSH1 0x2 PUSH1 0x5 DUP2 LT PUSH2 0x51 JUMPI PUSH2 0x50 PUSH2 0xCA JUMP JUMPDEST JUMPDEST ADD SLOAD PUSH1 0x17 SSTORE CALLVALUE DUP1 ISZERO PUSH2 0x62 JUMPI PUSH1 0x0 DUP1 REVERT JUMPDEST POP PUSH2 0xF9 JUMP JUMPDEST DUP3 PUSH1 0x5 DUP2 ADD SWAP3 DUP3 ISZERO PUSH2 0x9C JUMPI SWAP2 PUSH1 0x20 MUL DUP3 ADD JUMPDEST DUP3 DUP2 GT ISZERO PUSH2 0x9B JUMPI DUP3 MLOAD DUP3 SWAP1 PUSH1 0xFF AND SWAP1 SSTORE SWAP2 PUSH1 0x20 ADD SWAP2 SWAP1 PUSH1 0x1 ADD SWAP1 PUSH2 0x7B JUMP JUMPDEST JUMPDEST POP SWAP1 POP PUSH2 0xA9 SWAP2 SWAP1 PUSH2 0xAD JUMP JUMPDEST POP SWAP1 JUMP JUMPDEST JUMPDEST DUP1 DUP3 GT ISZERO PUSH2 0xC6 JUMPI PUSH1 0x0 DUP2 PUSH1 0x0 SWAP1 SSTORE POP PUSH1 0x1 ADD PUSH2 0xAE JUMP JUMPDEST POP SWAP1 JUMP JUMPDEST PUSH32 0x4E487B7100000000000000000000000000000000000000000000000000000000 PUSH1 0x0 MSTORE PUSH1 0x32 PUSH1 0x4 MSTORE PUSH1 0x24 PUSH1 0x0 REVERT JUMPDEST PUSH2 0x454 DUP1 PUSH2 0x108 PUSH1 0x0 CODECOPY PUSH1 0x0 RETURN INVALID PUSH1 0x80 PUSH1 0x40 MSTORE CALLVALUE DUP1 ISZERO PUSH2 0x10 JUMPI PUSH1 0x0 DUP1 REVERT JUMPDEST POP PUSH1 0x4 CALLDATASIZE LT PUSH2 0x57 JUMPI PUSH1 0x0 CALLDATALOAD PUSH1 0xE0 SHR DUP1 PUSH4 0x21109CF2 EQ PUSH2 0x5C JUMPI DUP1 PUSH4 0x43689A6A EQ PUSH2 0x66 JUMPI DUP1 PUSH4 0xCAFC9D28 EQ PUSH2 0x96 JUMPI DUP1 PUSH4 0xF0539020 EQ PUSH2 0xC6 JUMPI DUP1 PUSH4 0xF8A8FD6D EQ PUSH2 0xF7 JUMPI JUMPDEST PUSH1 0x0 DUP1 REVERT JUMPDEST PUSH2 0x64 PUSH2 0x115 JUMP JUMPDEST STOP JUMPDEST PUSH2 0x80 PUSH1 0x4 DUP1 CALLDATASIZE SUB DUP2 ADD SWAP1 PUSH2 0x7B SWAP2 SWAP1 PUSH2 0x26F JUMP JUMPDEST PUSH2 0x133 JUMP JUMPDEST PUSH1 0x40 MLOAD PUSH2 0x8D SWAP2 SWAP1 PUSH2 0x2AB JUMP JUMPDEST PUSH1 0x40 MLOAD DUP1 SWAP2 SUB SWAP1 RETURN JUMPDEST PUSH2 0xB0 PUSH1 0x4 DUP1 CALLDATASIZE SUB DUP2 ADD SWAP1 PUSH2 0xAB SWAP2 SWAP1 PUSH2 0x26F JUMP JUMPDEST PUSH2 0x14E JUMP JUMPDEST PUSH1 0x40 MLOAD PUSH2 0xBD SWAP2 SWAP1 PUSH2 0x2AB JUMP JUMPDEST PUSH1 0x40 MLOAD DUP1 SWAP2 SUB SWAP1 RETURN JUMPDEST PUSH2 0xE0 PUSH1 0x4 DUP1 CALLDATASIZE SUB DUP2 ADD SWAP1 PUSH2 0xDB SWAP2 SWAP1 PUSH2 0x26F JUMP JUMPDEST PUSH2 0x172 JUMP JUMPDEST PUSH1 0x40 MLOAD PUSH2 0xEE SWAP3 SWAP2 SWAP1 PUSH2 0x35F JUMP JUMPDEST PUSH1 0x40 MLOAD DUP1 SWAP2 SUB SWAP1 RETURN JUMPDEST PUSH2 0xFF PUSH2 0x22E JUMP JUMPDEST PUSH1 0x40 MLOAD PUSH2 0x10C SWAP2 SWAP1 PUSH2 0x2AB JUMP JUMPDEST PUSH1 0x40 MLOAD DUP1 SWAP2 SUB SWAP1 RETURN JUMPDEST PUSH1 0x38 PUSH1 0x0 PUSH1 0x2 PUSH1 0x5 DUP2 LT PUSH2 0x12C JUMPI PUSH2 0x12B PUSH2 0x38F JUMP JUMPDEST JUMPDEST ADD DUP2 SWAP1 SSTORE POP JUMP JUMPDEST PUSH1 0x0 DUP2 PUSH1 0x5 DUP2 LT PUSH2 0x143 JUMPI PUSH1 0x0 DUP1 REVERT JUMPDEST ADD PUSH1 0x0 SWAP2 POP SWAP1 POP SLOAD DUP2 JUMP JUMPDEST PUSH1 0x15 DUP2 DUP2 SLOAD DUP2 LT PUSH2 0x15E JUMPI PUSH1 0x0 DUP1 REVERT JUMPDEST SWAP1 PUSH1 0x0 MSTORE PUSH1 0x20 PUSH1 0x0 KECCAK256 ADD PUSH1 0x0 SWAP2 POP SWAP1 POP SLOAD DUP2 JUMP JUMPDEST PUSH1 0x16 DUP2 DUP2 SLOAD DUP2 LT PUSH2 0x182 JUMPI PUSH1 0x0 DUP1 REVERT JUMPDEST SWAP1 PUSH1 0x0 MSTORE PUSH1 0x20 PUSH1 0x0 KECCAK256 SWAP1 PUSH1 0x2 MUL ADD PUSH1 0x0 SWAP2 POP SWAP1 POP DUP1 PUSH1 0x0 ADD DUP1 SLOAD PUSH2 0x1A5 SWAP1 PUSH2 0x3ED JUMP JUMPDEST DUP1 PUSH1 0x1F ADD PUSH1 0x20 DUP1 SWAP2 DIV MUL PUSH1 0x20 ADD PUSH1 0x40 MLOAD SWAP1 DUP2 ADD PUSH1 0x40 MSTORE DUP1 SWAP3 SWAP2 SWAP1 DUP2 DUP2 MSTORE PUSH1 0x20 ADD DUP3 DUP1 SLOAD PUSH2 0x1D1 SWAP1 PUSH2 0x3ED JUMP JUMPDEST DUP1 ISZERO PUSH2 0x21E JUMPI DUP1 PUSH1 0x1F LT PUSH2 0x1F3 JUMPI PUSH2 0x100 DUP1 DUP4 SLOAD DIV MUL DUP4 MSTORE SWAP2 PUSH1 0x20 ADD SWAP2 PUSH2 0x21E JUMP JUMPDEST DUP3 ADD SWAP2 SWAP1 PUSH1 0x0 MSTORE PUSH1 0x20 PUSH1 0x0 KECCAK256 SWAP1 JUMPDEST DUP2 SLOAD DUP2 MSTORE SWAP1 PUSH1 0x1 ADD SWAP1 PUSH1 0x20 ADD DUP1 DUP4 GT PUSH2 0x201 JUMPI DUP3 SWAP1 SUB PUSH1 0x1F AND DUP3 ADD SWAP2 JUMPDEST POP POP POP POP POP SWAP1 DUP1 PUSH1 0x1 ADD SLOAD SWAP1 POP DUP3 JUMP JUMPDEST PUSH1 0x17 SLOAD DUP2 JUMP JUMPDEST PUSH1 0x0 DUP1 REVERT JUMPDEST PUSH1 0x0 DUP2 SWAP1 POP SWAP2 SWAP1 POP JUMP JUMPDEST PUSH2 0x24C DUP2 PUSH2 0x239 JUMP JUMPDEST DUP2 EQ PUSH2 0x257 JUMPI PUSH1 0x0 DUP1 REVERT JUMPDEST POP JUMP JUMPDEST PUSH1 0x0 DUP2 CALLDATALOAD SWAP1 POP PUSH2 0x269 DUP2 PUSH2 0x243 JUMP JUMPDEST SWAP3 SWAP2 POP POP JUMP JUMPDEST PUSH1 0x0 PUSH1 0x20 DUP3 DUP5 SUB SLT ISZERO PUSH2 0x285 JUMPI PUSH2 0x284 PUSH2 0x234 JUMP JUMPDEST JUMPDEST PUSH1 0x0 PUSH2 0x293 DUP5 DUP3 DUP6 ADD PUSH2 0x25A JUMP JUMPDEST SWAP2 POP POP SWAP3 SWAP2 POP POP JUMP JUMPDEST PUSH2 0x2A5 DUP2 PUSH2 0x239 JUMP JUMPDEST DUP3 MSTORE POP POP JUMP JUMPDEST PUSH1 0x0 PUSH1 0x20 DUP3 ADD SWAP1 POP PUSH2 0x2C0 PUSH1 0x0 DUP4 ADD DUP5 PUSH2 0x29C JUMP JUMPDEST SWAP3 SWAP2 POP POP JUMP JUMPDEST PUSH1 0x0 DUP2 MLOAD SWAP1 POP SWAP2 SWAP1 POP JUMP JUMPDEST PUSH1 0x0 DUP3 DUP3 MSTORE PUSH1 0x20 DUP3 ADD SWAP1 POP SWAP3 SWAP2 POP POP JUMP JUMPDEST PUSH1 0x0 JUMPDEST DUP4 DUP2 LT ISZERO PUSH2 0x300 JUMPI DUP1 DUP3 ADD MLOAD DUP2 DUP5 ADD MSTORE PUSH1 0x20 DUP2 ADD SWAP1 POP PUSH2 0x2E5 JUMP JUMPDEST DUP4 DUP2 GT ISZERO PUSH2 0x30F JUMPI PUSH1 0x0 DUP5 DUP5 ADD MSTORE JUMPDEST POP POP POP POP JUMP JUMPDEST PUSH1 0x0 PUSH1 0x1F NOT PUSH1 0x1F DUP4 ADD AND SWAP1 POP SWAP2 SWAP1 POP JUMP JUMPDEST PUSH1 0x0 PUSH2 0x331 DUP3 PUSH2 0x2C6 JUMP JUMPDEST PUSH2 0x33B DUP2 DUP6 PUSH2 0x2D1 JUMP JUMPDEST SWAP4 POP PUSH2 0x34B DUP2 DUP6 PUSH1 0x20 DUP7 ADD PUSH2 0x2E2 JUMP JUMPDEST PUSH2 0x354 DUP2 PUSH2 0x315 JUMP JUMPDEST DUP5 ADD SWAP2 POP POP SWAP3 SWAP2 POP POP JUMP JUMPDEST PUSH1 0x0 PUSH1 0x40 DUP3 ADD SWAP1 POP DUP2 DUP2 SUB PUSH1 0x0 DUP4 ADD MSTORE PUSH2 0x379 DUP2 DUP6 PUSH2 0x326 JUMP JUMPDEST SWAP1 POP PUSH2 0x388 PUSH1 0x20 DUP4 ADD DUP5 PUSH2 0x29C JUMP JUMPDEST SWAP4 SWAP3 POP POP POP JUMP JUMPDEST PUSH32 0x4E487B7100000000000000000000000000000000000000000000000000000000 PUSH1 0x0 MSTORE PUSH1 0x32 PUSH1 0x4 MSTORE PUSH1 0x24 PUSH1 0x0 REVERT JUMPDEST PUSH32 0x4E487B7100000000000000000000000000000000000000000000000000000000 PUSH1 0x0 MSTORE PUSH1 0x22 PUSH1 0x4 MSTORE PUSH1 0x24 PUSH1 0x0 REVERT JUMPDEST PUSH1 0x0 PUSH1 0x2 DUP3 DIV SWAP1 POP PUSH1 0x1 DUP3 AND DUP1 PUSH2 0x405 JUMPI PUSH1 0x7F DUP3 AND SWAP2 POP JUMPDEST PUSH1 0x20 DUP3 LT DUP2 SUB PUSH2 0x418 JUMPI PUSH2 0x417 PUSH2 0x3BE JUMP JUMPDEST JUMPDEST POP SWAP2 SWAP1 POP JUMP INVALID LOG2 PUSH5 0x6970667358 0x22 SLT KECCAK256 0x29 SWAP7 DELEGATECALL 0x4B SWAP2 0xC5 PUSH8 0xC5E7482BA79C763 LOG2 PUSH19 0x7F8CCDAC54797071E1853362A0B42164736F6C PUSH4 0x4300080D STOP CALLER "
				},
				"gasEstimates": {
					"creation": {
						"codeDepositCost": "221600",
						"executionCost": "infinite",
						"totalCost": "infinite"
					},
					"external": {
						"array_dinamico_enteros(uint256)": "infinite",
						"array_dinamico_personas(uint256)": "infinite",
						"array_enteros(uint256)": "infinite",
						"modificar_array()": "22265",
						"test()": "2495"
					}
				},
				"methodIdentifiers": {
					"array_dinamico_enteros(uint256)": "cafc9d28",
					"array_dinamico_personas(uint256)": "f0539020",
					"array_enteros(uint256)": "43689a6a",
					"modificar_array()": "21109cf2",
					"test()": "f8a8fd6d"
				}
			},
			"storageLayout": {
				"storage": [
					{
						"astId": 9,
						"contract": "Estructuras de datos/arrays.sol:Arrays",
						"label": "array_enteros",
						"offset": 0,
						"slot": "0",
						"type": "t_array(t_uint256)5_storage"
					},
					{
						"astId": 13,
						"contract": "Estructuras de datos/arrays.sol:Arrays",
						"label": "array_enteros_32_bits",
						"offset": 0,
						"slot": "5",
						"type": "t_array(t_uint32)7_storage"
					},
					{
						"astId": 17,
						"contract": "Estructuras de datos/arrays.sol:Arrays",
						"label": "arra_strings",
						"offset": 0,
						"slot": "6",
						"type": "t_array(t_string_storage)15_storage"
					},
					{
						"astId": 20,
						"contract": "Estructuras de datos/arrays.sol:Arrays",
						"label": "array_dinamico_enteros",
						"offset": 0,
						"slot": "21",
						"type": "t_array(t_uint256)dyn_storage"
					},
					{
						"astId": 29,
						"contract": "Estructuras de datos/arrays.sol:Arrays",
						"label": "array_dinamico_personas",
						"offset": 0,
						"slot": "22",
						"type": "t_array(t_struct(Persona)25_storage)dyn_storage"
					},
					{
						"astId": 44,
						"contract": "Estructuras de datos/arrays.sol:Arrays",
						"label": "test",
						"offset": 0,
						"slot": "23",
						"type": "t_uint256"
					}
				],
				"types": {
					"t_array(t_string_storage)15_storage": {
						"base": "t_string_storage",
						"encoding": "inplace",
						"label": "string[15]",
						"numberOfBytes": "480"
					},
					"t_array(t_struct(Persona)25_storage)dyn_storage": {
						"base": "t_struct(Persona)25_storage",
						"encoding": "dynamic_array",
						"label": "struct Arrays.Persona[]",
						"numberOfBytes": "32"
					},
					"t_array(t_uint256)5_storage": {
						"base": "t_uint256",
						"encoding": "inplace",
						"label": "uint256[5]",
						"numberOfBytes": "160"
					},
					"t_array(t_uint256)dyn_storage": {
						"base": "t_uint256",
						"encoding": "dynamic_array",
						"label": "uint256[]",
						"numberOfBytes": "32"
					},
					"t_array(t_uint32)7_storage": {
						"base": "t_uint32",
						"encoding": "inplace",
						"label": "uint32[7]",
						"numberOfBytes": "32"
					},
					"t_string_storage": {
						"encoding": "bytes",
						"label": "string",
						"numberOfBytes": "32"
					},
					"t_struct(Persona)25_storage": {
						"encoding": "inplace",
						"label": "struct Arrays.Persona",
						"members": [
							{
								"astId": 22,
								"contract": "Estructuras de datos/arrays.sol:Arrays",
								"label": "nombre",
								"offset": 0,
								"slot": "0",
								"type": "t_string_storage"
							},
							{
								"astId": 24,
								"contract": "Estructuras de datos/arrays.sol:Arrays",
								"label": "edad",
								"offset": 0,
								"slot": "1",
								"type": "t_uint256"
							}
						],
						"numberOfBytes": "64"
					},
					"t_uint256": {
						"encoding": "inplace",
						"label": "uint256",
						"numberOfBytes": "32"
					},
					"t_uint32": {
						"encoding": "inplace",
						"label": "uint32",
						"numberOfBytes": "4"
					}
				}
			},
			"userdoc": {
				"kind": "user",
				"methods": {},
				"version": 1
			}
		}
	}
}