{
	"Estructuras de datos/mappings.sol": {
		"Mappings": {
			"abi": [
				{
					"inputs": [
						{
							"internalType": "string",
							"name": "_nombre",
							"type": "string"
						}
					],
					"name": "consultarDinero",
					"outputs": [
						{
							"internalType": "uint256",
							"name": "",
							"type": "uint256"
						}
					],
					"stateMutability": "view",
					"type": "function"
				},
				{
					"inputs": [],
					"name": "consultarNumero",
					"outputs": [
						{
							"internalType": "uint256",
							"name": "",
							"type": "uint256"
						}
					],
					"stateMutability": "view",
					"type": "function"
				},
				{
					"inputs": [
						{
							"internalType": "address",
							"name": "",
							"type": "address"
						}
					],
					"name": "direccion_edad",
					"outputs": [
						{
							"internalType": "uint256",
							"name": "",
							"type": "uint256"
						}
					],
					"stateMutability": "view",
					"type": "function"
				},
				{
					"inputs": [
						{
							"internalType": "uint256",
							"name": "_numero",
							"type": "uint256"
						}
					],
					"name": "elegirNumero",
					"outputs": [],
					"stateMutability": "nonpayable",
					"type": "function"
				},
				{
					"inputs": [
						{
							"internalType": "string",
							"name": "_nombre",
							"type": "string"
						},
						{
							"internalType": "uint256",
							"name": "_cantidad",
							"type": "uint256"
						}
					],
					"name": "ingresarDinero",
					"outputs": [],
					"stateMutability": "nonpayable",
					"type": "function"
				},
				{
					"inputs": [
						{
							"internalType": "uint256",
							"name": "_dni",
							"type": "uint256"
						},
						{
							"internalType": "uint256",
							"name": "_id",
							"type": "uint256"
						},
						{
							"internalType": "string",
							"name": "_nombre",
							"type": "string"
						},
						{
							"internalType": "uint256",
							"name": "_edad",
							"type": "uint256"
						}
					],
					"name": "ingresarPersona",
					"outputs": [],
					"stateMutability": "nonpayable",
					"type": "function"
				},
				{
					"inputs": [
						{
							"internalType": "uint256",
							"name": "_dni",
							"type": "uint256"
						}
					],
					"name": "obtenerPersona",
					"outputs": [
						{
							"components": [
								{
									"internalType": "uint256",
									"name": "id",
									"type": "uint256"
								},
								{
									"internalType": "string",
									"name": "nombre",
									"type": "string"
								},
								{
									"internalType": "uint256",
									"name": "edad",
									"type": "uint256"
								}
							],
							"internalType": "struct Mappings.Persona",
							"name": "",
							"type": "tuple"
						}
					],
					"stateMutability": "view",
					"type": "function"
				}
			],
			"devdoc": {
				"methods": {}
			},
			"evm": {
				"assembly": "    /* \"Estructuras de datos/mappings.sol\":70:1181  contract Mappings{\r... */\n  mstore(0x40, 0x80)\n  callvalue\n    /* \"--CODEGEN--\":5:14   */\n  dup1\n    /* \"--CODEGEN--\":2:4   */\n  iszero\n  tag_1\n  jumpi\n    /* \"--CODEGEN--\":27:28   */\n  0x00\n    /* \"--CODEGEN--\":24:25   */\n  dup1\n    /* \"--CODEGEN--\":17:29   */\n  revert\n    /* \"--CODEGEN--\":2:4   */\ntag_1:\n    /* \"Estructuras de datos/mappings.sol\":70:1181  contract Mappings{\r... */\n  pop\n  dataSize(sub_0)\n  dup1\n  dataOffset(sub_0)\n  0x00\n  codecopy\n  0x00\n  return\nstop\n\nsub_0: assembly {\n        /* \"Estructuras de datos/mappings.sol\":70:1181  contract Mappings{\r... */\n      mstore(0x40, 0x80)\n      callvalue\n        /* \"--CODEGEN--\":5:14   */\n      dup1\n        /* \"--CODEGEN--\":2:4   */\n      iszero\n      tag_1\n      jumpi\n        /* \"--CODEGEN--\":27:28   */\n      0x00\n        /* \"--CODEGEN--\":24:25   */\n      dup1\n        /* \"--CODEGEN--\":17:29   */\n      revert\n        /* \"--CODEGEN--\":2:4   */\n    tag_1:\n        /* \"Estructuras de datos/mappings.sol\":70:1181  contract Mappings{\r... */\n      pop\n      jumpi(tag_2, lt(calldatasize, 0x04))\n      shr(0xe0, calldataload(0x00))\n      dup1\n      0x92174b49\n      gt\n      tag_10\n      jumpi\n      dup1\n      0x92174b49\n      eq\n      tag_6\n      jumpi\n      dup1\n      0xd0427d5a\n      eq\n      tag_7\n      jumpi\n      dup1\n      0xe7089298\n      eq\n      tag_8\n      jumpi\n      dup1\n      0xeb001a72\n      eq\n      tag_9\n      jumpi\n      jump(tag_2)\n    tag_10:\n      dup1\n      0x276a05bf\n      eq\n      tag_3\n      jumpi\n      dup1\n      0x47267990\n      eq\n      tag_4\n      jumpi\n      dup1\n      0x7f1937fb\n      eq\n      tag_5\n      jumpi\n    tag_2:\n        /* \"--CODEGEN--\":12:13   */\n      0x00\n        /* \"--CODEGEN--\":9:10   */\n      dup1\n        /* \"--CODEGEN--\":2:14   */\n      revert\n        /* \"Estructuras de datos/mappings.sol\":541:662  function ingresarDinero(string memory _nombre, uint _cantidad) public {\r... */\n    tag_3:\n      tag_11\n      0x04\n      dup1\n      calldatasize\n      sub\n      dup2\n      add\n      swap1\n      tag_12\n      swap2\n      swap1\n      jump(tag_13)\n    tag_12:\n      tag_14\n      jump\t// in\n    tag_11:\n      stop\n        /* \"Estructuras de datos/mappings.sol\":668:787  function consultarDinero(string memory _nombre) public view returns (uint){\r... */\n    tag_4:\n      tag_15\n      0x04\n      dup1\n      calldatasize\n      sub\n      dup2\n      add\n      swap1\n      tag_16\n      swap2\n      swap1\n      jump(tag_17)\n    tag_16:\n      tag_18\n      jump\t// in\n    tag_15:\n      mload(0x40)\n      tag_19\n      swap2\n      swap1\n      jump(tag_20)\n    tag_19:\n      mload(0x40)\n      dup1\n      swap2\n      sub\n      swap1\n      return\n        /* \"Estructuras de datos/mappings.sol\":1069:1178  function obtenerPersona(uint _dni) public view  returns  (Persona memory){\r... */\n    tag_5:\n      tag_21\n      0x04\n      dup1\n      calldatasize\n      sub\n      dup2\n      add\n      swap1\n      tag_22\n      swap2\n      swap1\n      jump(tag_23)\n    tag_22:\n      tag_24\n      jump\t// in\n    tag_21:\n      mload(0x40)\n      tag_25\n      swap2\n      swap1\n      jump(tag_26)\n    tag_25:\n      mload(0x40)\n      dup1\n      swap2\n      sub\n      swap1\n      return\n        /* \"Estructuras de datos/mappings.sol\":298:397  function consultarNumero()public view returns(uint){\r... */\n    tag_6:\n      tag_27\n      tag_28\n      jump\t// in\n    tag_27:\n      mload(0x40)\n      tag_29\n      swap2\n      swap1\n      jump(tag_20)\n    tag_29:\n      mload(0x40)\n      dup1\n      swap2\n      sub\n      swap1\n      return\n        /* \"Estructuras de datos/mappings.sol\":201:292  function elegirNumero(uint _numero) public{\r... */\n    tag_7:\n      tag_30\n      0x04\n      dup1\n      calldatasize\n      sub\n      dup2\n      add\n      swap1\n      tag_31\n      swap2\n      swap1\n      jump(tag_23)\n    tag_31:\n      tag_32\n      jump\t// in\n    tag_30:\n      stop\n        /* \"Estructuras de datos/mappings.sol\":147:194  mapping (address => uint) public direccion_edad */\n    tag_8:\n      tag_33\n      0x04\n      dup1\n      calldatasize\n      sub\n      dup2\n      add\n      swap1\n      tag_34\n      swap2\n      swap1\n      jump(tag_35)\n    tag_34:\n      tag_36\n      jump\t// in\n    tag_33:\n      mload(0x40)\n      tag_37\n      swap2\n      swap1\n      jump(tag_20)\n    tag_37:\n      mload(0x40)\n      dup1\n      swap2\n      sub\n      swap1\n      return\n        /* \"Estructuras de datos/mappings.sol\":915:1063  function ingresarPersona(uint _dni, uint _id, string memory _nombre, uint _edad) public {\r... */\n    tag_9:\n      tag_38\n      0x04\n      dup1\n      calldatasize\n      sub\n      dup2\n      add\n      swap1\n      tag_39\n      swap2\n      swap1\n      jump(tag_40)\n    tag_39:\n      tag_41\n      jump\t// in\n    tag_38:\n      stop\n        /* \"Estructuras de datos/mappings.sol\":541:662  function ingresarDinero(string memory _nombre, uint _cantidad) public {\r... */\n    tag_14:\n        /* \"Estructuras de datos/mappings.sol\":646:655  _cantidad */\n      dup1\n        /* \"Estructuras de datos/mappings.sol\":620:634  cantidadDinero */\n      0x01\n        /* \"Estructuras de datos/mappings.sol\":635:642  _nombre */\n      dup4\n        /* \"Estructuras de datos/mappings.sol\":620:643  cantidadDinero[_nombre] */\n      mload(0x40)\n      tag_43\n      swap2\n      swap1\n      jump(tag_44)\n    tag_43:\n      swap1\n      dup2\n      mstore\n      0x20\n      add\n      mload(0x40)\n      dup1\n      swap2\n      sub\n      swap1\n      keccak256\n        /* \"Estructuras de datos/mappings.sol\":620:655  cantidadDinero[_nombre] = _cantidad */\n      dup2\n      swap1\n      sstore\n      pop\n        /* \"Estructuras de datos/mappings.sol\":541:662  function ingresarDinero(string memory _nombre, uint _cantidad) public {\r... */\n      pop\n      pop\n      jump\t// out\n        /* \"Estructuras de datos/mappings.sol\":668:787  function consultarDinero(string memory _nombre) public view returns (uint){\r... */\n    tag_18:\n        /* \"Estructuras de datos/mappings.sol\":737:741  uint */\n      0x00\n        /* \"Estructuras de datos/mappings.sol\":758:772  cantidadDinero */\n      0x01\n        /* \"Estructuras de datos/mappings.sol\":773:780  _nombre */\n      dup3\n        /* \"Estructuras de datos/mappings.sol\":758:781  cantidadDinero[_nombre] */\n      mload(0x40)\n      tag_46\n      swap2\n      swap1\n      jump(tag_44)\n    tag_46:\n      swap1\n      dup2\n      mstore\n      0x20\n      add\n      mload(0x40)\n      dup1\n      swap2\n      sub\n      swap1\n      keccak256\n      sload\n        /* \"Estructuras de datos/mappings.sol\":751:781  return cantidadDinero[_nombre] */\n      swap1\n      pop\n        /* \"Estructuras de datos/mappings.sol\":668:787  function consultarDinero(string memory _nombre) public view returns (uint){\r... */\n      swap2\n      swap1\n      pop\n      jump\t// out\n        /* \"Estructuras de datos/mappings.sol\":1069:1178  function obtenerPersona(uint _dni) public view  returns  (Persona memory){\r... */\n    tag_24:\n        /* \"Estructuras de datos/mappings.sol\":1127:1141  Persona memory */\n      tag_47\n      tag_48\n      jump\t// in\n    tag_47:\n        /* \"Estructuras de datos/mappings.sol\":1158:1166  personas */\n      0x02\n        /* \"Estructuras de datos/mappings.sol\":1158:1172  personas[_dni] */\n      0x00\n        /* \"Estructuras de datos/mappings.sol\":1167:1171  _dni */\n      dup4\n        /* \"Estructuras de datos/mappings.sol\":1158:1172  personas[_dni] */\n      dup2\n      mstore\n      0x20\n      add\n      swap1\n      dup2\n      mstore\n      0x20\n      add\n      0x00\n      keccak256\n        /* \"Estructuras de datos/mappings.sol\":1151:1172  return personas[_dni] */\n      mload(0x40)\n      dup1\n      0x60\n      add\n      0x40\n      mstore\n      swap1\n      dup2\n      0x00\n      dup3\n      add\n      sload\n      dup2\n      mstore\n      0x20\n      add\n      0x01\n      dup3\n      add\n      dup1\n      sload\n      0x01\n      dup2\n      0x01\n      and\n      iszero\n      0x0100\n      mul\n      sub\n      and\n      0x02\n      swap1\n      div\n      dup1\n      0x1f\n      add\n      0x20\n      dup1\n      swap2\n      div\n      mul\n      0x20\n      add\n      mload(0x40)\n      swap1\n      dup2\n      add\n      0x40\n      mstore\n      dup1\n      swap3\n      swap2\n      swap1\n      dup2\n      dup2\n      mstore\n      0x20\n      add\n      dup3\n      dup1\n      sload\n      0x01\n      dup2\n      0x01\n      and\n      iszero\n      0x0100\n      mul\n      sub\n      and\n      0x02\n      swap1\n      div\n      dup1\n      iszero\n      tag_50\n      jumpi\n      dup1\n      0x1f\n      lt\n      tag_51\n      jumpi\n      0x0100\n      dup1\n      dup4\n      sload\n      div\n      mul\n      dup4\n      mstore\n      swap2\n      0x20\n      add\n      swap2\n      jump(tag_50)\n    tag_51:\n      dup3\n      add\n      swap2\n      swap1\n      0x00\n      mstore\n      keccak256(0x00, 0x20)\n      swap1\n    tag_52:\n      dup2\n      sload\n      dup2\n      mstore\n      swap1\n      0x01\n      add\n      swap1\n      0x20\n      add\n      dup1\n      dup4\n      gt\n      tag_52\n      jumpi\n      dup3\n      swap1\n      sub\n      0x1f\n      and\n      dup3\n      add\n      swap2\n    tag_50:\n      pop\n      pop\n      pop\n      pop\n      pop\n      dup2\n      mstore\n      0x20\n      add\n      0x02\n      dup3\n      add\n      sload\n      dup2\n      mstore\n      pop\n      pop\n      swap1\n      pop\n        /* \"Estructuras de datos/mappings.sol\":1069:1178  function obtenerPersona(uint _dni) public view  returns  (Persona memory){\r... */\n      swap2\n      swap1\n      pop\n      jump\t// out\n        /* \"Estructuras de datos/mappings.sol\":298:397  function consultarNumero()public view returns(uint){\r... */\n    tag_28:\n        /* \"Estructuras de datos/mappings.sol\":344:348  uint */\n      0x00\n        /* \"Estructuras de datos/mappings.sol\":365:379  direccion_edad */\n      dup1\n        /* \"Estructuras de datos/mappings.sol\":365:391  direccion_edad[msg.sender] */\n      0x00\n        /* \"Estructuras de datos/mappings.sol\":380:390  msg.sender */\n      caller\n        /* \"Estructuras de datos/mappings.sol\":365:391  direccion_edad[msg.sender] */\n      0xffffffffffffffffffffffffffffffffffffffff\n      and\n      0xffffffffffffffffffffffffffffffffffffffff\n      and\n      dup2\n      mstore\n      0x20\n      add\n      swap1\n      dup2\n      mstore\n      0x20\n      add\n      0x00\n      keccak256\n      sload\n        /* \"Estructuras de datos/mappings.sol\":358:391  return direccion_edad[msg.sender] */\n      swap1\n      pop\n        /* \"Estructuras de datos/mappings.sol\":298:397  function consultarNumero()public view returns(uint){\r... */\n      swap1\n      jump\t// out\n        /* \"Estructuras de datos/mappings.sol\":201:292  function elegirNumero(uint _numero) public{\r... */\n    tag_32:\n        /* \"Estructuras de datos/mappings.sol\":279:286  _numero */\n      dup1\n        /* \"Estructuras de datos/mappings.sol\":250:264  direccion_edad */\n      0x00\n        /* \"Estructuras de datos/mappings.sol\":250:276  direccion_edad[msg.sender] */\n      dup1\n        /* \"Estructuras de datos/mappings.sol\":265:275  msg.sender */\n      caller\n        /* \"Estructuras de datos/mappings.sol\":250:276  direccion_edad[msg.sender] */\n      0xffffffffffffffffffffffffffffffffffffffff\n      and\n      0xffffffffffffffffffffffffffffffffffffffff\n      and\n      dup2\n      mstore\n      0x20\n      add\n      swap1\n      dup2\n      mstore\n      0x20\n      add\n      0x00\n      keccak256\n        /* \"Estructuras de datos/mappings.sol\":250:286  direccion_edad[msg.sender] = _numero */\n      dup2\n      swap1\n      sstore\n      pop\n        /* \"Estructuras de datos/mappings.sol\":201:292  function elegirNumero(uint _numero) public{\r... */\n      pop\n      jump\t// out\n        /* \"Estructuras de datos/mappings.sol\":147:194  mapping (address => uint) public direccion_edad */\n    tag_36:\n      mstore(0x20, 0x00)\n      dup1\n      0x00\n      mstore\n      keccak256(0x00, 0x40)\n      0x00\n      swap2\n      pop\n      swap1\n      pop\n      sload\n      dup2\n      jump\t// out\n        /* \"Estructuras de datos/mappings.sol\":915:1063  function ingresarPersona(uint _dni, uint _id, string memory _nombre, uint _edad) public {\r... */\n    tag_41:\n        /* \"Estructuras de datos/mappings.sol\":1029:1057  Persona(_id, _nombre, _edad) */\n      mload(0x40)\n      dup1\n      0x60\n      add\n      0x40\n      mstore\n      dup1\n        /* \"Estructuras de datos/mappings.sol\":1037:1040  _id */\n      dup5\n        /* \"Estructuras de datos/mappings.sol\":1029:1057  Persona(_id, _nombre, _edad) */\n      dup2\n      mstore\n      0x20\n      add\n        /* \"Estructuras de datos/mappings.sol\":1042:1049  _nombre */\n      dup4\n        /* \"Estructuras de datos/mappings.sol\":1029:1057  Persona(_id, _nombre, _edad) */\n      dup2\n      mstore\n      0x20\n      add\n        /* \"Estructuras de datos/mappings.sol\":1051:1056  _edad */\n      dup3\n        /* \"Estructuras de datos/mappings.sol\":1029:1057  Persona(_id, _nombre, _edad) */\n      dup2\n      mstore\n      pop\n        /* \"Estructuras de datos/mappings.sol\":1012:1020  personas */\n      0x02\n        /* \"Estructuras de datos/mappings.sol\":1012:1026  personas[_dni] */\n      0x00\n        /* \"Estructuras de datos/mappings.sol\":1021:1025  _dni */\n      dup7\n        /* \"Estructuras de datos/mappings.sol\":1012:1026  personas[_dni] */\n      dup2\n      mstore\n      0x20\n      add\n      swap1\n      dup2\n      mstore\n      0x20\n      add\n      0x00\n      keccak256\n        /* \"Estructuras de datos/mappings.sol\":1012:1057  personas[_dni] = Persona(_id, _nombre, _edad) */\n      0x00\n      dup3\n      add\n      mload\n      dup2\n      0x00\n      add\n      sstore\n      0x20\n      dup3\n      add\n      mload\n      dup2\n      0x01\n      add\n      swap1\n      dup1\n      mload\n      swap1\n      0x20\n      add\n      swap1\n      tag_56\n      swap3\n      swap2\n      swap1\n      tag_57\n      jump\t// in\n    tag_56:\n      pop\n      0x40\n      dup3\n      add\n      mload\n      dup2\n      0x02\n      add\n      sstore\n      swap1\n      pop\n      pop\n        /* \"Estructuras de datos/mappings.sol\":915:1063  function ingresarPersona(uint _dni, uint _id, string memory _nombre, uint _edad) public {\r... */\n      pop\n      pop\n      pop\n      pop\n      jump\t// out\n        /* \"Estructuras de datos/mappings.sol\":70:1181  contract Mappings{\r... */\n    tag_48:\n      mload(0x40)\n      dup1\n      0x60\n      add\n      0x40\n      mstore\n      dup1\n      0x00\n      dup2\n      mstore\n      0x20\n      add\n      0x60\n      dup2\n      mstore\n      0x20\n      add\n      0x00\n      dup2\n      mstore\n      pop\n      swap1\n      jump\t// out\n    tag_57:\n      dup3\n      dup1\n      sload\n      0x01\n      dup2\n      0x01\n      and\n      iszero\n      0x0100\n      mul\n      sub\n      and\n      0x02\n      swap1\n      div\n      swap1\n      0x00\n      mstore\n      keccak256(0x00, 0x20)\n      swap1\n      0x1f\n      add\n      0x20\n      swap1\n      div\n      dup2\n      add\n      swap3\n      dup3\n      0x1f\n      lt\n      tag_59\n      jumpi\n      dup1\n      mload\n      not(0xff)\n      and\n      dup4\n      dup1\n      add\n      or\n      dup6\n      sstore\n      jump(tag_58)\n    tag_59:\n      dup3\n      dup1\n      add\n      0x01\n      add\n      dup6\n      sstore\n      dup3\n      iszero\n      tag_58\n      jumpi\n      swap2\n      dup3\n      add\n    tag_60:\n      dup3\n      dup2\n      gt\n      iszero\n      tag_61\n      jumpi\n      dup3\n      mload\n      dup3\n      sstore\n      swap2\n      0x20\n      add\n      swap2\n      swap1\n      0x01\n      add\n      swap1\n      jump(tag_60)\n    tag_61:\n    tag_58:\n      pop\n      swap1\n      pop\n      tag_62\n      swap2\n      swap1\n      tag_63\n      jump\t// in\n    tag_62:\n      pop\n      swap1\n      jump\t// out\n    tag_63:\n      tag_64\n      swap2\n      swap1\n    tag_65:\n      dup1\n      dup3\n      gt\n      iszero\n      tag_66\n      jumpi\n      0x00\n      dup2\n      0x00\n      swap1\n      sstore\n      pop\n      0x01\n      add\n      jump(tag_65)\n    tag_66:\n      pop\n      swap1\n      jump\n    tag_64:\n      swap1\n      jump\t// out\n        /* \"--CODEGEN--\":5:135   */\n    tag_68:\n      0x00\n        /* \"--CODEGEN--\":85:91   */\n      dup2\n        /* \"--CODEGEN--\":72:92   */\n      calldataload\n        /* \"--CODEGEN--\":63:92   */\n      swap1\n      pop\n        /* \"--CODEGEN--\":97:130   */\n      tag_70\n        /* \"--CODEGEN--\":124:129   */\n      dup2\n        /* \"--CODEGEN--\":97:130   */\n      jump(tag_71)\n    tag_70:\n        /* \"--CODEGEN--\":57:135   */\n      swap3\n      swap2\n      pop\n      pop\n      jump\n        /* \"--CODEGEN--\":143:585   */\n    tag_72:\n      0x00\n        /* \"--CODEGEN--\":245:248   */\n      dup3\n        /* \"--CODEGEN--\":238:242   */\n      0x1f\n        /* \"--CODEGEN--\":230:236   */\n      dup4\n        /* \"--CODEGEN--\":226:243   */\n      add\n        /* \"--CODEGEN--\":222:249   */\n      slt\n        /* \"--CODEGEN--\":212:214   */\n      tag_74\n      jumpi\n        /* \"--CODEGEN--\":263:264   */\n      0x00\n        /* \"--CODEGEN--\":260:261   */\n      dup1\n        /* \"--CODEGEN--\":253:265   */\n      revert\n        /* \"--CODEGEN--\":212:214   */\n    tag_74:\n        /* \"--CODEGEN--\":300:306   */\n      dup2\n        /* \"--CODEGEN--\":287:307   */\n      calldataload\n        /* \"--CODEGEN--\":322:387   */\n      tag_75\n        /* \"--CODEGEN--\":337:386   */\n      tag_76\n        /* \"--CODEGEN--\":379:385   */\n      dup3\n        /* \"--CODEGEN--\":337:386   */\n      jump(tag_77)\n    tag_76:\n        /* \"--CODEGEN--\":322:387   */\n      jump(tag_78)\n    tag_75:\n        /* \"--CODEGEN--\":313:387   */\n      swap2\n      pop\n        /* \"--CODEGEN--\":407:413   */\n      dup1\n        /* \"--CODEGEN--\":400:405   */\n      dup3\n        /* \"--CODEGEN--\":393:414   */\n      mstore\n        /* \"--CODEGEN--\":443:447   */\n      0x20\n        /* \"--CODEGEN--\":435:441   */\n      dup4\n        /* \"--CODEGEN--\":431:448   */\n      add\n        /* \"--CODEGEN--\":476:480   */\n      0x20\n        /* \"--CODEGEN--\":469:474   */\n      dup4\n        /* \"--CODEGEN--\":465:481   */\n      add\n        /* \"--CODEGEN--\":511:514   */\n      dup6\n        /* \"--CODEGEN--\":502:508   */\n      dup4\n        /* \"--CODEGEN--\":497:500   */\n      dup4\n        /* \"--CODEGEN--\":493:509   */\n      add\n        /* \"--CODEGEN--\":490:515   */\n      gt\n        /* \"--CODEGEN--\":487:489   */\n      iszero\n      tag_79\n      jumpi\n        /* \"--CODEGEN--\":528:529   */\n      0x00\n        /* \"--CODEGEN--\":525:526   */\n      dup1\n        /* \"--CODEGEN--\":518:530   */\n      revert\n        /* \"--CODEGEN--\":487:489   */\n    tag_79:\n        /* \"--CODEGEN--\":538:579   */\n      tag_80\n        /* \"--CODEGEN--\":572:578   */\n      dup4\n        /* \"--CODEGEN--\":567:570   */\n      dup3\n        /* \"--CODEGEN--\":562:565   */\n      dup5\n        /* \"--CODEGEN--\":538:579   */\n      jump(tag_81)\n    tag_80:\n        /* \"--CODEGEN--\":205:585   */\n      pop\n      pop\n      pop\n      swap3\n      swap2\n      pop\n      pop\n      jump\n        /* \"--CODEGEN--\":593:723   */\n    tag_82:\n      0x00\n        /* \"--CODEGEN--\":673:679   */\n      dup2\n        /* \"--CODEGEN--\":660:680   */\n      calldataload\n        /* \"--CODEGEN--\":651:680   */\n      swap1\n      pop\n        /* \"--CODEGEN--\":685:718   */\n      tag_84\n        /* \"--CODEGEN--\":712:717   */\n      dup2\n        /* \"--CODEGEN--\":685:718   */\n      jump(tag_85)\n    tag_84:\n        /* \"--CODEGEN--\":645:723   */\n      swap3\n      swap2\n      pop\n      pop\n      jump\n        /* \"--CODEGEN--\":730:971   */\n    tag_35:\n      0x00\n        /* \"--CODEGEN--\":834:836   */\n      0x20\n        /* \"--CODEGEN--\":822:831   */\n      dup3\n        /* \"--CODEGEN--\":813:820   */\n      dup5\n        /* \"--CODEGEN--\":809:832   */\n      sub\n        /* \"--CODEGEN--\":805:837   */\n      slt\n        /* \"--CODEGEN--\":802:804   */\n      iszero\n      tag_87\n      jumpi\n        /* \"--CODEGEN--\":850:851   */\n      0x00\n        /* \"--CODEGEN--\":847:848   */\n      dup1\n        /* \"--CODEGEN--\":840:852   */\n      revert\n        /* \"--CODEGEN--\":802:804   */\n    tag_87:\n        /* \"--CODEGEN--\":885:886   */\n      0x00\n        /* \"--CODEGEN--\":902:955   */\n      tag_88\n        /* \"--CODEGEN--\":947:954   */\n      dup5\n        /* \"--CODEGEN--\":938:944   */\n      dup3\n        /* \"--CODEGEN--\":927:936   */\n      dup6\n        /* \"--CODEGEN--\":923:945   */\n      add\n        /* \"--CODEGEN--\":902:955   */\n      jump(tag_68)\n    tag_88:\n        /* \"--CODEGEN--\":892:955   */\n      swap2\n      pop\n        /* \"--CODEGEN--\":864:961   */\n      pop\n        /* \"--CODEGEN--\":796:971   */\n      swap3\n      swap2\n      pop\n      pop\n      jump\n        /* \"--CODEGEN--\":978:1325   */\n    tag_17:\n      0x00\n        /* \"--CODEGEN--\":1092:1094   */\n      0x20\n        /* \"--CODEGEN--\":1080:1089   */\n      dup3\n        /* \"--CODEGEN--\":1071:1078   */\n      dup5\n        /* \"--CODEGEN--\":1067:1090   */\n      sub\n        /* \"--CODEGEN--\":1063:1095   */\n      slt\n        /* \"--CODEGEN--\":1060:1062   */\n      iszero\n      tag_90\n      jumpi\n        /* \"--CODEGEN--\":1108:1109   */\n      0x00\n        /* \"--CODEGEN--\":1105:1106   */\n      dup1\n        /* \"--CODEGEN--\":1098:1110   */\n      revert\n        /* \"--CODEGEN--\":1060:1062   */\n    tag_90:\n        /* \"--CODEGEN--\":1171:1172   */\n      0x00\n        /* \"--CODEGEN--\":1160:1169   */\n      dup3\n        /* \"--CODEGEN--\":1156:1173   */\n      add\n        /* \"--CODEGEN--\":1143:1174   */\n      calldataload\n        /* \"--CODEGEN--\":1194:1212   */\n      0xffffffffffffffff\n        /* \"--CODEGEN--\":1186:1192   */\n      dup2\n        /* \"--CODEGEN--\":1183:1213   */\n      gt\n        /* \"--CODEGEN--\":1180:1182   */\n      iszero\n      tag_91\n      jumpi\n        /* \"--CODEGEN--\":1226:1227   */\n      0x00\n        /* \"--CODEGEN--\":1223:1224   */\n      dup1\n        /* \"--CODEGEN--\":1216:1228   */\n      revert\n        /* \"--CODEGEN--\":1180:1182   */\n    tag_91:\n        /* \"--CODEGEN--\":1246:1309   */\n      tag_92\n        /* \"--CODEGEN--\":1301:1308   */\n      dup5\n        /* \"--CODEGEN--\":1292:1298   */\n      dup3\n        /* \"--CODEGEN--\":1281:1290   */\n      dup6\n        /* \"--CODEGEN--\":1277:1299   */\n      add\n        /* \"--CODEGEN--\":1246:1309   */\n      jump(tag_72)\n    tag_92:\n        /* \"--CODEGEN--\":1236:1309   */\n      swap2\n      pop\n        /* \"--CODEGEN--\":1122:1315   */\n      pop\n        /* \"--CODEGEN--\":1054:1325   */\n      swap3\n      swap2\n      pop\n      pop\n      jump\n        /* \"--CODEGEN--\":1332:1804   */\n    tag_13:\n      0x00\n      dup1\n        /* \"--CODEGEN--\":1463:1465   */\n      0x40\n        /* \"--CODEGEN--\":1451:1460   */\n      dup4\n        /* \"--CODEGEN--\":1442:1449   */\n      dup6\n        /* \"--CODEGEN--\":1438:1461   */\n      sub\n        /* \"--CODEGEN--\":1434:1466   */\n      slt\n        /* \"--CODEGEN--\":1431:1433   */\n      iszero\n      tag_94\n      jumpi\n        /* \"--CODEGEN--\":1479:1480   */\n      0x00\n        /* \"--CODEGEN--\":1476:1477   */\n      dup1\n        /* \"--CODEGEN--\":1469:1481   */\n      revert\n        /* \"--CODEGEN--\":1431:1433   */\n    tag_94:\n        /* \"--CODEGEN--\":1542:1543   */\n      0x00\n        /* \"--CODEGEN--\":1531:1540   */\n      dup4\n        /* \"--CODEGEN--\":1527:1544   */\n      add\n        /* \"--CODEGEN--\":1514:1545   */\n      calldataload\n        /* \"--CODEGEN--\":1565:1583   */\n      0xffffffffffffffff\n        /* \"--CODEGEN--\":1557:1563   */\n      dup2\n        /* \"--CODEGEN--\":1554:1584   */\n      gt\n        /* \"--CODEGEN--\":1551:1553   */\n      iszero\n      tag_95\n      jumpi\n        /* \"--CODEGEN--\":1597:1598   */\n      0x00\n        /* \"--CODEGEN--\":1594:1595   */\n      dup1\n        /* \"--CODEGEN--\":1587:1599   */\n      revert\n        /* \"--CODEGEN--\":1551:1553   */\n    tag_95:\n        /* \"--CODEGEN--\":1617:1680   */\n      tag_96\n        /* \"--CODEGEN--\":1672:1679   */\n      dup6\n        /* \"--CODEGEN--\":1663:1669   */\n      dup3\n        /* \"--CODEGEN--\":1652:1661   */\n      dup7\n        /* \"--CODEGEN--\":1648:1670   */\n      add\n        /* \"--CODEGEN--\":1617:1680   */\n      jump(tag_72)\n    tag_96:\n        /* \"--CODEGEN--\":1607:1680   */\n      swap3\n      pop\n        /* \"--CODEGEN--\":1493:1686   */\n      pop\n        /* \"--CODEGEN--\":1717:1719   */\n      0x20\n        /* \"--CODEGEN--\":1735:1788   */\n      tag_97\n        /* \"--CODEGEN--\":1780:1787   */\n      dup6\n        /* \"--CODEGEN--\":1771:1777   */\n      dup3\n        /* \"--CODEGEN--\":1760:1769   */\n      dup7\n        /* \"--CODEGEN--\":1756:1778   */\n      add\n        /* \"--CODEGEN--\":1735:1788   */\n      jump(tag_82)\n    tag_97:\n        /* \"--CODEGEN--\":1725:1788   */\n      swap2\n      pop\n        /* \"--CODEGEN--\":1696:1794   */\n      pop\n        /* \"--CODEGEN--\":1425:1804   */\n      swap3\n      pop\n      swap3\n      swap1\n      pop\n      jump\n        /* \"--CODEGEN--\":1811:2052   */\n    tag_23:\n      0x00\n        /* \"--CODEGEN--\":1915:1917   */\n      0x20\n        /* \"--CODEGEN--\":1903:1912   */\n      dup3\n        /* \"--CODEGEN--\":1894:1901   */\n      dup5\n        /* \"--CODEGEN--\":1890:1913   */\n      sub\n        /* \"--CODEGEN--\":1886:1918   */\n      slt\n        /* \"--CODEGEN--\":1883:1885   */\n      iszero\n      tag_99\n      jumpi\n        /* \"--CODEGEN--\":1931:1932   */\n      0x00\n        /* \"--CODEGEN--\":1928:1929   */\n      dup1\n        /* \"--CODEGEN--\":1921:1933   */\n      revert\n        /* \"--CODEGEN--\":1883:1885   */\n    tag_99:\n        /* \"--CODEGEN--\":1966:1967   */\n      0x00\n        /* \"--CODEGEN--\":1983:2036   */\n      tag_100\n        /* \"--CODEGEN--\":2028:2035   */\n      dup5\n        /* \"--CODEGEN--\":2019:2025   */\n      dup3\n        /* \"--CODEGEN--\":2008:2017   */\n      dup6\n        /* \"--CODEGEN--\":2004:2026   */\n      add\n        /* \"--CODEGEN--\":1983:2036   */\n      jump(tag_82)\n    tag_100:\n        /* \"--CODEGEN--\":1973:2036   */\n      swap2\n      pop\n        /* \"--CODEGEN--\":1945:2042   */\n      pop\n        /* \"--CODEGEN--\":1877:2052   */\n      swap3\n      swap2\n      pop\n      pop\n      jump\n        /* \"--CODEGEN--\":2059:2782   */\n    tag_40:\n      0x00\n      dup1\n      0x00\n      dup1\n        /* \"--CODEGEN--\":2224:2227   */\n      0x80\n        /* \"--CODEGEN--\":2212:2221   */\n      dup6\n        /* \"--CODEGEN--\":2203:2210   */\n      dup8\n        /* \"--CODEGEN--\":2199:2222   */\n      sub\n        /* \"--CODEGEN--\":2195:2228   */\n      slt\n        /* \"--CODEGEN--\":2192:2194   */\n      iszero\n      tag_102\n      jumpi\n        /* \"--CODEGEN--\":2241:2242   */\n      0x00\n        /* \"--CODEGEN--\":2238:2239   */\n      dup1\n        /* \"--CODEGEN--\":2231:2243   */\n      revert\n        /* \"--CODEGEN--\":2192:2194   */\n    tag_102:\n        /* \"--CODEGEN--\":2276:2277   */\n      0x00\n        /* \"--CODEGEN--\":2293:2346   */\n      tag_103\n        /* \"--CODEGEN--\":2338:2345   */\n      dup8\n        /* \"--CODEGEN--\":2329:2335   */\n      dup3\n        /* \"--CODEGEN--\":2318:2327   */\n      dup9\n        /* \"--CODEGEN--\":2314:2336   */\n      add\n        /* \"--CODEGEN--\":2293:2346   */\n      jump(tag_82)\n    tag_103:\n        /* \"--CODEGEN--\":2283:2346   */\n      swap5\n      pop\n        /* \"--CODEGEN--\":2255:2352   */\n      pop\n        /* \"--CODEGEN--\":2383:2385   */\n      0x20\n        /* \"--CODEGEN--\":2401:2454   */\n      tag_104\n        /* \"--CODEGEN--\":2446:2453   */\n      dup8\n        /* \"--CODEGEN--\":2437:2443   */\n      dup3\n        /* \"--CODEGEN--\":2426:2435   */\n      dup9\n        /* \"--CODEGEN--\":2422:2444   */\n      add\n        /* \"--CODEGEN--\":2401:2454   */\n      jump(tag_82)\n    tag_104:\n        /* \"--CODEGEN--\":2391:2454   */\n      swap4\n      pop\n        /* \"--CODEGEN--\":2362:2460   */\n      pop\n        /* \"--CODEGEN--\":2519:2521   */\n      0x40\n        /* \"--CODEGEN--\":2508:2517   */\n      dup6\n        /* \"--CODEGEN--\":2504:2522   */\n      add\n        /* \"--CODEGEN--\":2491:2523   */\n      calldataload\n        /* \"--CODEGEN--\":2543:2561   */\n      0xffffffffffffffff\n        /* \"--CODEGEN--\":2535:2541   */\n      dup2\n        /* \"--CODEGEN--\":2532:2562   */\n      gt\n        /* \"--CODEGEN--\":2529:2531   */\n      iszero\n      tag_105\n      jumpi\n        /* \"--CODEGEN--\":2575:2576   */\n      0x00\n        /* \"--CODEGEN--\":2572:2573   */\n      dup1\n        /* \"--CODEGEN--\":2565:2577   */\n      revert\n        /* \"--CODEGEN--\":2529:2531   */\n    tag_105:\n        /* \"--CODEGEN--\":2595:2658   */\n      tag_106\n        /* \"--CODEGEN--\":2650:2657   */\n      dup8\n        /* \"--CODEGEN--\":2641:2647   */\n      dup3\n        /* \"--CODEGEN--\":2630:2639   */\n      dup9\n        /* \"--CODEGEN--\":2626:2648   */\n      add\n        /* \"--CODEGEN--\":2595:2658   */\n      jump(tag_72)\n    tag_106:\n        /* \"--CODEGEN--\":2585:2658   */\n      swap3\n      pop\n        /* \"--CODEGEN--\":2470:2664   */\n      pop\n        /* \"--CODEGEN--\":2695:2697   */\n      0x60\n        /* \"--CODEGEN--\":2713:2766   */\n      tag_107\n        /* \"--CODEGEN--\":2758:2765   */\n      dup8\n        /* \"--CODEGEN--\":2749:2755   */\n      dup3\n        /* \"--CODEGEN--\":2738:2747   */\n      dup9\n        /* \"--CODEGEN--\":2734:2756   */\n      add\n        /* \"--CODEGEN--\":2713:2766   */\n      jump(tag_82)\n    tag_107:\n        /* \"--CODEGEN--\":2703:2766   */\n      swap2\n      pop\n        /* \"--CODEGEN--\":2674:2772   */\n      pop\n        /* \"--CODEGEN--\":2186:2782   */\n      swap3\n      swap6\n      swap2\n      swap5\n      pop\n      swap3\n      pop\n      jump\n        /* \"--CODEGEN--\":2789:3116   */\n    tag_108:\n      0x00\n        /* \"--CODEGEN--\":2891:2930   */\n      tag_110\n        /* \"--CODEGEN--\":2924:2929   */\n      dup3\n        /* \"--CODEGEN--\":2891:2930   */\n      jump(tag_111)\n    tag_110:\n        /* \"--CODEGEN--\":2942:3003   */\n      tag_112\n        /* \"--CODEGEN--\":2996:3002   */\n      dup2\n        /* \"--CODEGEN--\":2991:2994   */\n      dup6\n        /* \"--CODEGEN--\":2942:3003   */\n      jump(tag_113)\n    tag_112:\n        /* \"--CODEGEN--\":2935:3003   */\n      swap4\n      pop\n        /* \"--CODEGEN--\":3008:3060   */\n      tag_114\n        /* \"--CODEGEN--\":3053:3059   */\n      dup2\n        /* \"--CODEGEN--\":3048:3051   */\n      dup6\n        /* \"--CODEGEN--\":3041:3045   */\n      0x20\n        /* \"--CODEGEN--\":3034:3039   */\n      dup7\n        /* \"--CODEGEN--\":3030:3046   */\n      add\n        /* \"--CODEGEN--\":3008:3060   */\n      jump(tag_115)\n    tag_114:\n        /* \"--CODEGEN--\":3081:3110   */\n      tag_116\n        /* \"--CODEGEN--\":3103:3109   */\n      dup2\n        /* \"--CODEGEN--\":3081:3110   */\n      jump(tag_117)\n    tag_116:\n        /* \"--CODEGEN--\":3076:3079   */\n      dup5\n        /* \"--CODEGEN--\":3072:3111   */\n      add\n        /* \"--CODEGEN--\":3065:3111   */\n      swap2\n      pop\n        /* \"--CODEGEN--\":2871:3116   */\n      pop\n      swap3\n      swap2\n      pop\n      pop\n      jump\n        /* \"--CODEGEN--\":3123:3483   */\n    tag_118:\n      0x00\n        /* \"--CODEGEN--\":3253:3292   */\n      tag_120\n        /* \"--CODEGEN--\":3286:3291   */\n      dup3\n        /* \"--CODEGEN--\":3253:3292   */\n      jump(tag_111)\n    tag_120:\n        /* \"--CODEGEN--\":3304:3393   */\n      tag_121\n        /* \"--CODEGEN--\":3386:3392   */\n      dup2\n        /* \"--CODEGEN--\":3381:3384   */\n      dup6\n        /* \"--CODEGEN--\":3304:3393   */\n      jump(tag_122)\n    tag_121:\n        /* \"--CODEGEN--\":3297:3393   */\n      swap4\n      pop\n        /* \"--CODEGEN--\":3398:3450   */\n      tag_123\n        /* \"--CODEGEN--\":3443:3449   */\n      dup2\n        /* \"--CODEGEN--\":3438:3441   */\n      dup6\n        /* \"--CODEGEN--\":3431:3435   */\n      0x20\n        /* \"--CODEGEN--\":3424:3429   */\n      dup7\n        /* \"--CODEGEN--\":3420:3436   */\n      add\n        /* \"--CODEGEN--\":3398:3450   */\n      jump(tag_115)\n    tag_123:\n        /* \"--CODEGEN--\":3471:3477   */\n      dup1\n        /* \"--CODEGEN--\":3466:3469   */\n      dup5\n        /* \"--CODEGEN--\":3462:3478   */\n      add\n        /* \"--CODEGEN--\":3455:3478   */\n      swap2\n      pop\n        /* \"--CODEGEN--\":3233:3483   */\n      pop\n      swap3\n      swap2\n      pop\n      pop\n      jump\n        /* \"--CODEGEN--\":3547:4268   */\n    tag_124:\n      0x00\n        /* \"--CODEGEN--\":3694:3698   */\n      0x60\n        /* \"--CODEGEN--\":3689:3692   */\n      dup4\n        /* \"--CODEGEN--\":3685:3699   */\n      add\n        /* \"--CODEGEN--\":3775:3779   */\n      0x00\n        /* \"--CODEGEN--\":3768:3773   */\n      dup4\n        /* \"--CODEGEN--\":3764:3780   */\n      add\n        /* \"--CODEGEN--\":3758:3781   */\n      mload\n        /* \"--CODEGEN--\":3787:3850   */\n      tag_126\n        /* \"--CODEGEN--\":3844:3848   */\n      0x00\n        /* \"--CODEGEN--\":3839:3842   */\n      dup7\n        /* \"--CODEGEN--\":3835:3849   */\n      add\n        /* \"--CODEGEN--\":3821:3833   */\n      dup3\n        /* \"--CODEGEN--\":3787:3850   */\n      jump(tag_127)\n    tag_126:\n        /* \"--CODEGEN--\":3714:3856   */\n      pop\n        /* \"--CODEGEN--\":3931:3935   */\n      0x20\n        /* \"--CODEGEN--\":3924:3929   */\n      dup4\n        /* \"--CODEGEN--\":3920:3936   */\n      add\n        /* \"--CODEGEN--\":3914:3937   */\n      mload\n        /* \"--CODEGEN--\":3983:3986   */\n      dup5\n        /* \"--CODEGEN--\":3977:3981   */\n      dup3\n        /* \"--CODEGEN--\":3973:3987   */\n      sub\n        /* \"--CODEGEN--\":3966:3970   */\n      0x20\n        /* \"--CODEGEN--\":3961:3964   */\n      dup7\n        /* \"--CODEGEN--\":3957:3971   */\n      add\n        /* \"--CODEGEN--\":3950:3988   */\n      mstore\n        /* \"--CODEGEN--\":4003:4076   */\n      tag_128\n        /* \"--CODEGEN--\":4071:4075   */\n      dup3\n        /* \"--CODEGEN--\":4057:4069   */\n      dup3\n        /* \"--CODEGEN--\":4003:4076   */\n      jump(tag_108)\n    tag_128:\n        /* \"--CODEGEN--\":3995:4076   */\n      swap2\n      pop\n        /* \"--CODEGEN--\":3866:4088   */\n      pop\n        /* \"--CODEGEN--\":4161:4165   */\n      0x40\n        /* \"--CODEGEN--\":4154:4159   */\n      dup4\n        /* \"--CODEGEN--\":4150:4166   */\n      add\n        /* \"--CODEGEN--\":4144:4167   */\n      mload\n        /* \"--CODEGEN--\":4173:4236   */\n      tag_129\n        /* \"--CODEGEN--\":4230:4234   */\n      0x40\n        /* \"--CODEGEN--\":4225:4228   */\n      dup7\n        /* \"--CODEGEN--\":4221:4235   */\n      add\n        /* \"--CODEGEN--\":4207:4219   */\n      dup3\n        /* \"--CODEGEN--\":4173:4236   */\n      jump(tag_127)\n    tag_129:\n        /* \"--CODEGEN--\":4098:4242   */\n      pop\n        /* \"--CODEGEN--\":4259:4263   */\n      dup1\n        /* \"--CODEGEN--\":4252:4263   */\n      swap2\n      pop\n        /* \"--CODEGEN--\":3667:4268   */\n      pop\n      swap3\n      swap2\n      pop\n      pop\n      jump\n        /* \"--CODEGEN--\":4275:4378   */\n    tag_127:\n        /* \"--CODEGEN--\":4348:4372   */\n      tag_131\n        /* \"--CODEGEN--\":4366:4371   */\n      dup2\n        /* \"--CODEGEN--\":4348:4372   */\n      jump(tag_132)\n    tag_131:\n        /* \"--CODEGEN--\":4343:4346   */\n      dup3\n        /* \"--CODEGEN--\":4336:4373   */\n      mstore\n        /* \"--CODEGEN--\":4330:4378   */\n      pop\n      pop\n      jump\n        /* \"--CODEGEN--\":4385:4498   */\n    tag_133:\n        /* \"--CODEGEN--\":4468:4492   */\n      tag_135\n        /* \"--CODEGEN--\":4486:4491   */\n      dup2\n        /* \"--CODEGEN--\":4468:4492   */\n      jump(tag_132)\n    tag_135:\n        /* \"--CODEGEN--\":4463:4466   */\n      dup3\n        /* \"--CODEGEN--\":4456:4493   */\n      mstore\n        /* \"--CODEGEN--\":4450:4498   */\n      pop\n      pop\n      jump\n        /* \"--CODEGEN--\":4505:4771   */\n    tag_44:\n      0x00\n        /* \"--CODEGEN--\":4651:4746   */\n      tag_137\n        /* \"--CODEGEN--\":4742:4745   */\n      dup3\n        /* \"--CODEGEN--\":4733:4739   */\n      dup5\n        /* \"--CODEGEN--\":4651:4746   */\n      jump(tag_118)\n    tag_137:\n        /* \"--CODEGEN--\":4644:4746   */\n      swap2\n      pop\n        /* \"--CODEGEN--\":4763:4766   */\n      dup2\n        /* \"--CODEGEN--\":4756:4766   */\n      swap1\n      pop\n        /* \"--CODEGEN--\":4632:4771   */\n      swap3\n      swap2\n      pop\n      pop\n      jump\n        /* \"--CODEGEN--\":4778:5131   */\n    tag_26:\n      0x00\n        /* \"--CODEGEN--\":4942:4944   */\n      0x20\n        /* \"--CODEGEN--\":4931:4940   */\n      dup3\n        /* \"--CODEGEN--\":4927:4945   */\n      add\n        /* \"--CODEGEN--\":4919:4945   */\n      swap1\n      pop\n        /* \"--CODEGEN--\":4992:5001   */\n      dup2\n        /* \"--CODEGEN--\":4986:4990   */\n      dup2\n        /* \"--CODEGEN--\":4982:5002   */\n      sub\n        /* \"--CODEGEN--\":4978:4979   */\n      0x00\n        /* \"--CODEGEN--\":4967:4976   */\n      dup4\n        /* \"--CODEGEN--\":4963:4980   */\n      add\n        /* \"--CODEGEN--\":4956:5003   */\n      mstore\n        /* \"--CODEGEN--\":5017:5121   */\n      tag_139\n        /* \"--CODEGEN--\":5116:5120   */\n      dup2\n        /* \"--CODEGEN--\":5107:5113   */\n      dup5\n        /* \"--CODEGEN--\":5017:5121   */\n      jump(tag_124)\n    tag_139:\n        /* \"--CODEGEN--\":5009:5121   */\n      swap1\n      pop\n        /* \"--CODEGEN--\":4913:5131   */\n      swap3\n      swap2\n      pop\n      pop\n      jump\n        /* \"--CODEGEN--\":5138:5351   */\n    tag_20:\n      0x00\n        /* \"--CODEGEN--\":5256:5258   */\n      0x20\n        /* \"--CODEGEN--\":5245:5254   */\n      dup3\n        /* \"--CODEGEN--\":5241:5259   */\n      add\n        /* \"--CODEGEN--\":5233:5259   */\n      swap1\n      pop\n        /* \"--CODEGEN--\":5270:5341   */\n      tag_141\n        /* \"--CODEGEN--\":5338:5339   */\n      0x00\n        /* \"--CODEGEN--\":5327:5336   */\n      dup4\n        /* \"--CODEGEN--\":5323:5340   */\n      add\n        /* \"--CODEGEN--\":5314:5320   */\n      dup5\n        /* \"--CODEGEN--\":5270:5341   */\n      jump(tag_133)\n    tag_141:\n        /* \"--CODEGEN--\":5227:5351   */\n      swap3\n      swap2\n      pop\n      pop\n      jump\n        /* \"--CODEGEN--\":5358:5614   */\n    tag_78:\n      0x00\n        /* \"--CODEGEN--\":5420:5422   */\n      0x40\n        /* \"--CODEGEN--\":5414:5423   */\n      mload\n        /* \"--CODEGEN--\":5404:5423   */\n      swap1\n      pop\n        /* \"--CODEGEN--\":5458:5462   */\n      dup2\n        /* \"--CODEGEN--\":5450:5456   */\n      dup2\n        /* \"--CODEGEN--\":5446:5463   */\n      add\n        /* \"--CODEGEN--\":5557:5563   */\n      dup2\n        /* \"--CODEGEN--\":5545:5555   */\n      dup2\n        /* \"--CODEGEN--\":5542:5564   */\n      lt\n        /* \"--CODEGEN--\":5521:5539   */\n      0xffffffffffffffff\n        /* \"--CODEGEN--\":5509:5519   */\n      dup3\n        /* \"--CODEGEN--\":5506:5540   */\n      gt\n        /* \"--CODEGEN--\":5503:5565   */\n      or\n        /* \"--CODEGEN--\":5500:5502   */\n      iszero\n      tag_143\n      jumpi\n        /* \"--CODEGEN--\":5578:5579   */\n      0x00\n        /* \"--CODEGEN--\":5575:5576   */\n      dup1\n        /* \"--CODEGEN--\":5568:5580   */\n      revert\n        /* \"--CODEGEN--\":5500:5502   */\n    tag_143:\n        /* \"--CODEGEN--\":5598:5608   */\n      dup1\n        /* \"--CODEGEN--\":5594:5596   */\n      0x40\n        /* \"--CODEGEN--\":5587:5609   */\n      mstore\n        /* \"--CODEGEN--\":5398:5614   */\n      pop\n      swap2\n      swap1\n      pop\n      jump\n        /* \"--CODEGEN--\":5621:5943   */\n    tag_77:\n      0x00\n        /* \"--CODEGEN--\":5765:5783   */\n      0xffffffffffffffff\n        /* \"--CODEGEN--\":5757:5763   */\n      dup3\n        /* \"--CODEGEN--\":5754:5784   */\n      gt\n        /* \"--CODEGEN--\":5751:5753   */\n      iszero\n      tag_145\n      jumpi\n        /* \"--CODEGEN--\":5797:5798   */\n      0x00\n        /* \"--CODEGEN--\":5794:5795   */\n      dup1\n        /* \"--CODEGEN--\":5787:5799   */\n      revert\n        /* \"--CODEGEN--\":5751:5753   */\n    tag_145:\n        /* \"--CODEGEN--\":5864:5868   */\n      0x1f\n        /* \"--CODEGEN--\":5860:5869   */\n      not\n        /* \"--CODEGEN--\":5853:5857   */\n      0x1f\n        /* \"--CODEGEN--\":5845:5851   */\n      dup4\n        /* \"--CODEGEN--\":5841:5858   */\n      add\n        /* \"--CODEGEN--\":5837:5870   */\n      and\n        /* \"--CODEGEN--\":5829:5870   */\n      swap1\n      pop\n        /* \"--CODEGEN--\":5928:5932   */\n      0x20\n        /* \"--CODEGEN--\":5922:5926   */\n      dup2\n        /* \"--CODEGEN--\":5918:5933   */\n      add\n        /* \"--CODEGEN--\":5910:5933   */\n      swap1\n      pop\n        /* \"--CODEGEN--\":5688:5943   */\n      swap2\n      swap1\n      pop\n      jump\n        /* \"--CODEGEN--\":5950:6072   */\n    tag_111:\n      0x00\n        /* \"--CODEGEN--\":6044:6049   */\n      dup2\n        /* \"--CODEGEN--\":6038:6050   */\n      mload\n        /* \"--CODEGEN--\":6028:6050   */\n      swap1\n      pop\n        /* \"--CODEGEN--\":6009:6072   */\n      swap2\n      swap1\n      pop\n      jump\n        /* \"--CODEGEN--\":6080:6233   */\n    tag_113:\n      0x00\n        /* \"--CODEGEN--\":6185:6191   */\n      dup3\n        /* \"--CODEGEN--\":6180:6183   */\n      dup3\n        /* \"--CODEGEN--\":6173:6192   */\n      mstore\n        /* \"--CODEGEN--\":6222:6226   */\n      0x20\n        /* \"--CODEGEN--\":6217:6220   */\n      dup3\n        /* \"--CODEGEN--\":6213:6227   */\n      add\n        /* \"--CODEGEN--\":6198:6227   */\n      swap1\n      pop\n        /* \"--CODEGEN--\":6166:6233   */\n      swap3\n      swap2\n      pop\n      pop\n      jump\n        /* \"--CODEGEN--\":6242:6387   */\n    tag_122:\n      0x00\n        /* \"--CODEGEN--\":6378:6381   */\n      dup2\n        /* \"--CODEGEN--\":6363:6381   */\n      swap1\n      pop\n        /* \"--CODEGEN--\":6356:6387   */\n      swap3\n      swap2\n      pop\n      pop\n      jump\n        /* \"--CODEGEN--\":6395:6486   */\n    tag_149:\n      0x00\n        /* \"--CODEGEN--\":6457:6481   */\n      tag_151\n        /* \"--CODEGEN--\":6475:6480   */\n      dup3\n        /* \"--CODEGEN--\":6457:6481   */\n      jump(tag_152)\n    tag_151:\n        /* \"--CODEGEN--\":6446:6481   */\n      swap1\n      pop\n        /* \"--CODEGEN--\":6440:6486   */\n      swap2\n      swap1\n      pop\n      jump\n        /* \"--CODEGEN--\":6493:6614   */\n    tag_152:\n      0x00\n        /* \"--CODEGEN--\":6566:6608   */\n      0xffffffffffffffffffffffffffffffffffffffff\n        /* \"--CODEGEN--\":6559:6564   */\n      dup3\n        /* \"--CODEGEN--\":6555:6609   */\n      and\n        /* \"--CODEGEN--\":6544:6609   */\n      swap1\n      pop\n        /* \"--CODEGEN--\":6538:6614   */\n      swap2\n      swap1\n      pop\n      jump\n        /* \"--CODEGEN--\":6621:6693   */\n    tag_132:\n      0x00\n        /* \"--CODEGEN--\":6683:6688   */\n      dup2\n        /* \"--CODEGEN--\":6672:6688   */\n      swap1\n      pop\n        /* \"--CODEGEN--\":6666:6693   */\n      swap2\n      swap1\n      pop\n      jump\n        /* \"--CODEGEN--\":6701:6846   */\n    tag_81:\n        /* \"--CODEGEN--\":6782:6788   */\n      dup3\n        /* \"--CODEGEN--\":6777:6780   */\n      dup2\n        /* \"--CODEGEN--\":6772:6775   */\n      dup4\n        /* \"--CODEGEN--\":6759:6789   */\n      calldatacopy\n        /* \"--CODEGEN--\":6838:6839   */\n      0x00\n        /* \"--CODEGEN--\":6829:6835   */\n      dup4\n        /* \"--CODEGEN--\":6824:6827   */\n      dup4\n        /* \"--CODEGEN--\":6820:6836   */\n      add\n        /* \"--CODEGEN--\":6813:6840   */\n      mstore\n        /* \"--CODEGEN--\":6752:6846   */\n      pop\n      pop\n      pop\n      jump\n        /* \"--CODEGEN--\":6855:7123   */\n    tag_115:\n        /* \"--CODEGEN--\":6920:6921   */\n      0x00\n        /* \"--CODEGEN--\":6927:7028   */\n    tag_157:\n        /* \"--CODEGEN--\":6941:6947   */\n      dup4\n        /* \"--CODEGEN--\":6938:6939   */\n      dup2\n        /* \"--CODEGEN--\":6935:6948   */\n      lt\n        /* \"--CODEGEN--\":6927:7028   */\n      iszero\n      tag_159\n      jumpi\n        /* \"--CODEGEN--\":7017:7018   */\n      dup1\n        /* \"--CODEGEN--\":7012:7015   */\n      dup3\n        /* \"--CODEGEN--\":7008:7019   */\n      add\n        /* \"--CODEGEN--\":7002:7020   */\n      mload\n        /* \"--CODEGEN--\":6998:6999   */\n      dup2\n        /* \"--CODEGEN--\":6993:6996   */\n      dup5\n        /* \"--CODEGEN--\":6989:7000   */\n      add\n        /* \"--CODEGEN--\":6982:7021   */\n      mstore\n        /* \"--CODEGEN--\":6963:6965   */\n      0x20\n        /* \"--CODEGEN--\":6960:6961   */\n      dup2\n        /* \"--CODEGEN--\":6956:6966   */\n      add\n        /* \"--CODEGEN--\":6951:6966   */\n      swap1\n      pop\n        /* \"--CODEGEN--\":6927:7028   */\n      jump(tag_157)\n    tag_159:\n        /* \"--CODEGEN--\":7043:7049   */\n      dup4\n        /* \"--CODEGEN--\":7040:7041   */\n      dup2\n        /* \"--CODEGEN--\":7037:7050   */\n      gt\n        /* \"--CODEGEN--\":7034:7036   */\n      iszero\n      tag_160\n      jumpi\n        /* \"--CODEGEN--\":7108:7109   */\n      0x00\n        /* \"--CODEGEN--\":7099:7105   */\n      dup5\n        /* \"--CODEGEN--\":7094:7097   */\n      dup5\n        /* \"--CODEGEN--\":7090:7106   */\n      add\n        /* \"--CODEGEN--\":7083:7110   */\n      mstore\n        /* \"--CODEGEN--\":7034:7036   */\n    tag_160:\n        /* \"--CODEGEN--\":6904:7123   */\n      pop\n      pop\n      pop\n      pop\n      jump\n        /* \"--CODEGEN--\":7131:7228   */\n    tag_117:\n      0x00\n        /* \"--CODEGEN--\":7219:7221   */\n      0x1f\n        /* \"--CODEGEN--\":7215:7222   */\n      not\n        /* \"--CODEGEN--\":7210:7212   */\n      0x1f\n        /* \"--CODEGEN--\":7203:7208   */\n      dup4\n        /* \"--CODEGEN--\":7199:7213   */\n      add\n        /* \"--CODEGEN--\":7195:7223   */\n      and\n        /* \"--CODEGEN--\":7185:7223   */\n      swap1\n      pop\n        /* \"--CODEGEN--\":7179:7228   */\n      swap2\n      swap1\n      pop\n      jump\n        /* \"--CODEGEN--\":7236:7353   */\n    tag_71:\n        /* \"--CODEGEN--\":7305:7329   */\n      tag_163\n        /* \"--CODEGEN--\":7323:7328   */\n      dup2\n        /* \"--CODEGEN--\":7305:7329   */\n      jump(tag_149)\n    tag_163:\n        /* \"--CODEGEN--\":7298:7303   */\n      dup2\n        /* \"--CODEGEN--\":7295:7330   */\n      eq\n        /* \"--CODEGEN--\":7285:7287   */\n      tag_164\n      jumpi\n        /* \"--CODEGEN--\":7344:7345   */\n      0x00\n        /* \"--CODEGEN--\":7341:7342   */\n      dup1\n        /* \"--CODEGEN--\":7334:7346   */\n      revert\n        /* \"--CODEGEN--\":7285:7287   */\n    tag_164:\n        /* \"--CODEGEN--\":7279:7353   */\n      pop\n      jump\n        /* \"--CODEGEN--\":7360:7477   */\n    tag_85:\n        /* \"--CODEGEN--\":7429:7453   */\n      tag_166\n        /* \"--CODEGEN--\":7447:7452   */\n      dup2\n        /* \"--CODEGEN--\":7429:7453   */\n      jump(tag_132)\n    tag_166:\n        /* \"--CODEGEN--\":7422:7427   */\n      dup2\n        /* \"--CODEGEN--\":7419:7454   */\n      eq\n        /* \"--CODEGEN--\":7409:7411   */\n      tag_167\n      jumpi\n        /* \"--CODEGEN--\":7468:7469   */\n      0x00\n        /* \"--CODEGEN--\":7465:7466   */\n      dup1\n        /* \"--CODEGEN--\":7458:7470   */\n      revert\n        /* \"--CODEGEN--\":7409:7411   */\n    tag_167:\n        /* \"--CODEGEN--\":7403:7477   */\n      pop\n      jump\n\n    auxdata: 0xa264697066735822122006431ef76e623af480781442eff156b32d6711235d3e1afedcb12ac685228aaa64736f6c63430006050033\n}\n",
				"bytecode": {
					"linkReferences": {},
					"object": "608060405234801561001057600080fd5b50610907806100206000396000f3fe608060405234801561001057600080fd5b506004361061007d5760003560e01c806392174b491161005b57806392174b49146100fe578063d0427d5a1461011c578063e708929814610138578063eb001a72146101685761007d565b8063276a05bf14610082578063472679901461009e5780637f1937fb146100ce575b600080fd5b61009c60048036038101906100979190610570565b610184565b005b6100b860048036038101906100b3919061052f565b6101ab565b6040516100c59190610779565b60405180910390f35b6100e860048036038101906100e391906105c4565b6101d3565b6040516100f59190610757565b60405180910390f35b6101066102b6565b6040516101139190610779565b60405180910390f35b610136600480360381019061013191906105c4565b6102fc565b005b610152600480360381019061014d9190610506565b610342565b60405161015f9190610779565b60405180910390f35b610182600480360381019061017d91906105ed565b61035a565b005b806001836040516101959190610740565b9081526020016040518091039020819055505050565b60006001826040516101bd9190610740565b9081526020016040518091039020549050919050565b6101db6103c2565b6002600083815260200190815260200160002060405180606001604052908160008201548152602001600182018054600181600116156101000203166002900480601f01602080910402602001604051908101604052809291908181526020018280546001816001161561010002031660029004801561029c5780601f106102715761010080835404028352916020019161029c565b820191906000526020600020905b81548152906001019060200180831161027f57829003601f168201915b505050505081526020016002820154815250509050919050565b60008060003373ffffffffffffffffffffffffffffffffffffffff1673ffffffffffffffffffffffffffffffffffffffff16815260200190815260200160002054905090565b806000803373ffffffffffffffffffffffffffffffffffffffff1673ffffffffffffffffffffffffffffffffffffffff1681526020019081526020016000208190555050565b60006020528060005260406000206000915090505481565b604051806060016040528084815260200183815260200182815250600260008681526020019081526020016000206000820151816000015560208201518160010190805190602001906103ae9291906103e3565b506040820151816002015590505050505050565b60405180606001604052806000815260200160608152602001600081525090565b828054600181600116156101000203166002900490600052602060002090601f016020900481019282601f1061042457805160ff1916838001178555610452565b82800160010185558215610452579182015b82811115610451578251825591602001919060010190610436565b5b50905061045f9190610463565b5090565b61048591905b80821115610481576000816000905550600101610469565b5090565b90565b600081359050610497816108a3565b92915050565b600082601f8301126104ae57600080fd5b81356104c16104bc826107c1565b610794565b915080825260208301602083018583830111156104dd57600080fd5b6104e8838284610850565b50505092915050565b600081359050610500816108ba565b92915050565b60006020828403121561051857600080fd5b600061052684828501610488565b91505092915050565b60006020828403121561054157600080fd5b600082013567ffffffffffffffff81111561055b57600080fd5b6105678482850161049d565b91505092915050565b6000806040838503121561058357600080fd5b600083013567ffffffffffffffff81111561059d57600080fd5b6105a98582860161049d565b92505060206105ba858286016104f1565b9150509250929050565b6000602082840312156105d657600080fd5b60006105e4848285016104f1565b91505092915050565b6000806000806080858703121561060357600080fd5b6000610611878288016104f1565b9450506020610622878288016104f1565b935050604085013567ffffffffffffffff81111561063f57600080fd5b61064b8782880161049d565b925050606061065c878288016104f1565b91505092959194509250565b6000610673826107ed565b61067d81856107f8565b935061068d81856020860161085f565b61069681610892565b840191505092915050565b60006106ac826107ed565b6106b68185610809565b93506106c681856020860161085f565b80840191505092915050565b60006060830160008301516106ea6000860182610722565b50602083015184820360208601526107028282610668565b91505060408301516107176040860182610722565b508091505092915050565b61072b81610846565b82525050565b61073a81610846565b82525050565b600061074c82846106a1565b915081905092915050565b6000602082019050818103600083015261077181846106d2565b905092915050565b600060208201905061078e6000830184610731565b92915050565b6000604051905081810181811067ffffffffffffffff821117156107b757600080fd5b8060405250919050565b600067ffffffffffffffff8211156107d857600080fd5b601f19601f8301169050602081019050919050565b600081519050919050565b600082825260208201905092915050565b600081905092915050565b600061081f82610826565b9050919050565b600073ffffffffffffffffffffffffffffffffffffffff82169050919050565b6000819050919050565b82818337600083830152505050565b60005b8381101561087d578082015181840152602081019050610862565b8381111561088c576000848401525b50505050565b6000601f19601f8301169050919050565b6108ac81610814565b81146108b757600080fd5b50565b6108c381610846565b81146108ce57600080fd5b5056fea264697066735822122006431ef76e623af480781442eff156b32d6711235d3e1afedcb12ac685228aaa64736f6c63430006050033",
					"opcodes": "PUSH1 0x80 PUSH1 0x40 MSTORE CALLVALUE DUP1 ISZERO PUSH2 0x10 JUMPI PUSH1 0x0 DUP1 REVERT JUMPDEST POP PUSH2 0x907 DUP1 PUSH2 0x20 PUSH1 0x0 CODECOPY PUSH1 0x0 RETURN INVALID PUSH1 0x80 PUSH1 0x40 MSTORE CALLVALUE DUP1 ISZERO PUSH2 0x10 JUMPI PUSH1 0x0 DUP1 REVERT JUMPDEST POP PUSH1 0x4 CALLDATASIZE LT PUSH2 0x7D JUMPI PUSH1 0x0 CALLDATALOAD PUSH1 0xE0 SHR DUP1 PUSH4 0x92174B49 GT PUSH2 0x5B JUMPI DUP1 PUSH4 0x92174B49 EQ PUSH2 0xFE JUMPI DUP1 PUSH4 0xD0427D5A EQ PUSH2 0x11C JUMPI DUP1 PUSH4 0xE7089298 EQ PUSH2 0x138 JUMPI DUP1 PUSH4 0xEB001A72 EQ PUSH2 0x168 JUMPI PUSH2 0x7D JUMP JUMPDEST DUP1 PUSH4 0x276A05BF EQ PUSH2 0x82 JUMPI DUP1 PUSH4 0x47267990 EQ PUSH2 0x9E JUMPI DUP1 PUSH4 0x7F1937FB EQ PUSH2 0xCE JUMPI JUMPDEST PUSH1 0x0 DUP1 REVERT JUMPDEST PUSH2 0x9C PUSH1 0x4 DUP1 CALLDATASIZE SUB DUP2 ADD SWAP1 PUSH2 0x97 SWAP2 SWAP1 PUSH2 0x570 JUMP JUMPDEST PUSH2 0x184 JUMP JUMPDEST STOP JUMPDEST PUSH2 0xB8 PUSH1 0x4 DUP1 CALLDATASIZE SUB DUP2 ADD SWAP1 PUSH2 0xB3 SWAP2 SWAP1 PUSH2 0x52F JUMP JUMPDEST PUSH2 0x1AB JUMP JUMPDEST PUSH1 0x40 MLOAD PUSH2 0xC5 SWAP2 SWAP1 PUSH2 0x779 JUMP JUMPDEST PUSH1 0x40 MLOAD DUP1 SWAP2 SUB SWAP1 RETURN JUMPDEST PUSH2 0xE8 PUSH1 0x4 DUP1 CALLDATASIZE SUB DUP2 ADD SWAP1 PUSH2 0xE3 SWAP2 SWAP1 PUSH2 0x5C4 JUMP JUMPDEST PUSH2 0x1D3 JUMP JUMPDEST PUSH1 0x40 MLOAD PUSH2 0xF5 SWAP2 SWAP1 PUSH2 0x757 JUMP JUMPDEST PUSH1 0x40 MLOAD DUP1 SWAP2 SUB SWAP1 RETURN JUMPDEST PUSH2 0x106 PUSH2 0x2B6 JUMP JUMPDEST PUSH1 0x40 MLOAD PUSH2 0x113 SWAP2 SWAP1 PUSH2 0x779 JUMP JUMPDEST PUSH1 0x40 MLOAD DUP1 SWAP2 SUB SWAP1 RETURN JUMPDEST PUSH2 0x136 PUSH1 0x4 DUP1 CALLDATASIZE SUB DUP2 ADD SWAP1 PUSH2 0x131 SWAP2 SWAP1 PUSH2 0x5C4 JUMP JUMPDEST PUSH2 0x2FC JUMP JUMPDEST STOP JUMPDEST PUSH2 0x152 PUSH1 0x4 DUP1 CALLDATASIZE SUB DUP2 ADD SWAP1 PUSH2 0x14D SWAP2 SWAP1 PUSH2 0x506 JUMP JUMPDEST PUSH2 0x342 JUMP JUMPDEST PUSH1 0x40 MLOAD PUSH2 0x15F SWAP2 SWAP1 PUSH2 0x779 JUMP JUMPDEST PUSH1 0x40 MLOAD DUP1 SWAP2 SUB SWAP1 RETURN JUMPDEST PUSH2 0x182 PUSH1 0x4 DUP1 CALLDATASIZE SUB DUP2 ADD SWAP1 PUSH2 0x17D SWAP2 SWAP1 PUSH2 0x5ED JUMP JUMPDEST PUSH2 0x35A JUMP JUMPDEST STOP JUMPDEST DUP1 PUSH1 0x1 DUP4 PUSH1 0x40 MLOAD PUSH2 0x195 SWAP2 SWAP1 PUSH2 0x740 JUMP JUMPDEST SWAP1 DUP2 MSTORE PUSH1 0x20 ADD PUSH1 0x40 MLOAD DUP1 SWAP2 SUB SWAP1 KECCAK256 DUP2 SWAP1 SSTORE POP POP POP JUMP JUMPDEST PUSH1 0x0 PUSH1 0x1 DUP3 PUSH1 0x40 MLOAD PUSH2 0x1BD SWAP2 SWAP1 PUSH2 0x740 JUMP JUMPDEST SWAP1 DUP2 MSTORE PUSH1 0x20 ADD PUSH1 0x40 MLOAD DUP1 SWAP2 SUB SWAP1 KECCAK256 SLOAD SWAP1 POP SWAP2 SWAP1 POP JUMP JUMPDEST PUSH2 0x1DB PUSH2 0x3C2 JUMP JUMPDEST PUSH1 0x2 PUSH1 0x0 DUP4 DUP2 MSTORE PUSH1 0x20 ADD SWAP1 DUP2 MSTORE PUSH1 0x20 ADD PUSH1 0x0 KECCAK256 PUSH1 0x40 MLOAD DUP1 PUSH1 0x60 ADD PUSH1 0x40 MSTORE SWAP1 DUP2 PUSH1 0x0 DUP3 ADD SLOAD DUP2 MSTORE PUSH1 0x20 ADD PUSH1 0x1 DUP3 ADD DUP1 SLOAD PUSH1 0x1 DUP2 PUSH1 0x1 AND ISZERO PUSH2 0x100 MUL SUB AND PUSH1 0x2 SWAP1 DIV DUP1 PUSH1 0x1F ADD PUSH1 0x20 DUP1 SWAP2 DIV MUL PUSH1 0x20 ADD PUSH1 0x40 MLOAD SWAP1 DUP2 ADD PUSH1 0x40 MSTORE DUP1 SWAP3 SWAP2 SWAP1 DUP2 DUP2 MSTORE PUSH1 0x20 ADD DUP3 DUP1 SLOAD PUSH1 0x1 DUP2 PUSH1 0x1 AND ISZERO PUSH2 0x100 MUL SUB AND PUSH1 0x2 SWAP1 DIV DUP1 ISZERO PUSH2 0x29C JUMPI DUP1 PUSH1 0x1F LT PUSH2 0x271 JUMPI PUSH2 0x100 DUP1 DUP4 SLOAD DIV MUL DUP4 MSTORE SWAP2 PUSH1 0x20 ADD SWAP2 PUSH2 0x29C JUMP JUMPDEST DUP3 ADD SWAP2 SWAP1 PUSH1 0x0 MSTORE PUSH1 0x20 PUSH1 0x0 KECCAK256 SWAP1 JUMPDEST DUP2 SLOAD DUP2 MSTORE SWAP1 PUSH1 0x1 ADD SWAP1 PUSH1 0x20 ADD DUP1 DUP4 GT PUSH2 0x27F JUMPI DUP3 SWAP1 SUB PUSH1 0x1F AND DUP3 ADD SWAP2 JUMPDEST POP POP POP POP POP DUP2 MSTORE PUSH1 0x20 ADD PUSH1 0x2 DUP3 ADD SLOAD DUP2 MSTORE POP POP SWAP1 POP SWAP2 SWAP1 POP JUMP JUMPDEST PUSH1 0x0 DUP1 PUSH1 0x0 CALLER PUSH20 0xFFFFFFFFFFFFFFFFFFFFFFFFFFFFFFFFFFFFFFFF AND PUSH20 0xFFFFFFFFFFFFFFFFFFFFFFFFFFFFFFFFFFFFFFFF AND DUP2 MSTORE PUSH1 0x20 ADD SWAP1 DUP2 MSTORE PUSH1 0x20 ADD PUSH1 0x0 KECCAK256 SLOAD SWAP1 POP SWAP1 JUMP JUMPDEST DUP1 PUSH1 0x0 DUP1 CALLER PUSH20 0xFFFFFFFFFFFFFFFFFFFFFFFFFFFFFFFFFFFFFFFF AND PUSH20 0xFFFFFFFFFFFFFFFFFFFFFFFFFFFFFFFFFFFFFFFF AND DUP2 MSTORE PUSH1 0x20 ADD SWAP1 DUP2 MSTORE PUSH1 0x20 ADD PUSH1 0x0 KECCAK256 DUP2 SWAP1 SSTORE POP POP JUMP JUMPDEST PUSH1 0x0 PUSH1 0x20 MSTORE DUP1 PUSH1 0x0 MSTORE PUSH1 0x40 PUSH1 0x0 KECCAK256 PUSH1 0x0 SWAP2 POP SWAP1 POP SLOAD DUP2 JUMP JUMPDEST PUSH1 0x40 MLOAD DUP1 PUSH1 0x60 ADD PUSH1 0x40 MSTORE DUP1 DUP5 DUP2 MSTORE PUSH1 0x20 ADD DUP4 DUP2 MSTORE PUSH1 0x20 ADD DUP3 DUP2 MSTORE POP PUSH1 0x2 PUSH1 0x0 DUP7 DUP2 MSTORE PUSH1 0x20 ADD SWAP1 DUP2 MSTORE PUSH1 0x20 ADD PUSH1 0x0 KECCAK256 PUSH1 0x0 DUP3 ADD MLOAD DUP2 PUSH1 0x0 ADD SSTORE PUSH1 0x20 DUP3 ADD MLOAD DUP2 PUSH1 0x1 ADD SWAP1 DUP1 MLOAD SWAP1 PUSH1 0x20 ADD SWAP1 PUSH2 0x3AE SWAP3 SWAP2 SWAP1 PUSH2 0x3E3 JUMP JUMPDEST POP PUSH1 0x40 DUP3 ADD MLOAD DUP2 PUSH1 0x2 ADD SSTORE SWAP1 POP POP POP POP POP POP JUMP JUMPDEST PUSH1 0x40 MLOAD DUP1 PUSH1 0x60 ADD PUSH1 0x40 MSTORE DUP1 PUSH1 0x0 DUP2 MSTORE PUSH1 0x20 ADD PUSH1 0x60 DUP2 MSTORE PUSH1 0x20 ADD PUSH1 0x0 DUP2 MSTORE POP SWAP1 JUMP JUMPDEST DUP3 DUP1 SLOAD PUSH1 0x1 DUP2 PUSH1 0x1 AND ISZERO PUSH2 0x100 MUL SUB AND PUSH1 0x2 SWAP1 DIV SWAP1 PUSH1 0x0 MSTORE PUSH1 0x20 PUSH1 0x0 KECCAK256 SWAP1 PUSH1 0x1F ADD PUSH1 0x20 SWAP1 DIV DUP2 ADD SWAP3 DUP3 PUSH1 0x1F LT PUSH2 0x424 JUMPI DUP1 MLOAD PUSH1 0xFF NOT AND DUP4 DUP1 ADD OR DUP6 SSTORE PUSH2 0x452 JUMP JUMPDEST DUP3 DUP1 ADD PUSH1 0x1 ADD DUP6 SSTORE DUP3 ISZERO PUSH2 0x452 JUMPI SWAP2 DUP3 ADD JUMPDEST DUP3 DUP2 GT ISZERO PUSH2 0x451 JUMPI DUP3 MLOAD DUP3 SSTORE SWAP2 PUSH1 0x20 ADD SWAP2 SWAP1 PUSH1 0x1 ADD SWAP1 PUSH2 0x436 JUMP JUMPDEST JUMPDEST POP SWAP1 POP PUSH2 0x45F SWAP2 SWAP1 PUSH2 0x463 JUMP JUMPDEST POP SWAP1 JUMP JUMPDEST PUSH2 0x485 SWAP2 SWAP1 JUMPDEST DUP1 DUP3 GT ISZERO PUSH2 0x481 JUMPI PUSH1 0x0 DUP2 PUSH1 0x0 SWAP1 SSTORE POP PUSH1 0x1 ADD PUSH2 0x469 JUMP JUMPDEST POP SWAP1 JUMP JUMPDEST SWAP1 JUMP JUMPDEST PUSH1 0x0 DUP2 CALLDATALOAD SWAP1 POP PUSH2 0x497 DUP2 PUSH2 0x8A3 JUMP JUMPDEST SWAP3 SWAP2 POP POP JUMP JUMPDEST PUSH1 0x0 DUP3 PUSH1 0x1F DUP4 ADD SLT PUSH2 0x4AE JUMPI PUSH1 0x0 DUP1 REVERT JUMPDEST DUP2 CALLDATALOAD PUSH2 0x4C1 PUSH2 0x4BC DUP3 PUSH2 0x7C1 JUMP JUMPDEST PUSH2 0x794 JUMP JUMPDEST SWAP2 POP DUP1 DUP3 MSTORE PUSH1 0x20 DUP4 ADD PUSH1 0x20 DUP4 ADD DUP6 DUP4 DUP4 ADD GT ISZERO PUSH2 0x4DD JUMPI PUSH1 0x0 DUP1 REVERT JUMPDEST PUSH2 0x4E8 DUP4 DUP3 DUP5 PUSH2 0x850 JUMP JUMPDEST POP POP POP SWAP3 SWAP2 POP POP JUMP JUMPDEST PUSH1 0x0 DUP2 CALLDATALOAD SWAP1 POP PUSH2 0x500 DUP2 PUSH2 0x8BA JUMP JUMPDEST SWAP3 SWAP2 POP POP JUMP JUMPDEST PUSH1 0x0 PUSH1 0x20 DUP3 DUP5 SUB SLT ISZERO PUSH2 0x518 JUMPI PUSH1 0x0 DUP1 REVERT JUMPDEST PUSH1 0x0 PUSH2 0x526 DUP5 DUP3 DUP6 ADD PUSH2 0x488 JUMP JUMPDEST SWAP2 POP POP SWAP3 SWAP2 POP POP JUMP JUMPDEST PUSH1 0x0 PUSH1 0x20 DUP3 DUP5 SUB SLT ISZERO PUSH2 0x541 JUMPI PUSH1 0x0 DUP1 REVERT JUMPDEST PUSH1 0x0 DUP3 ADD CALLDATALOAD PUSH8 0xFFFFFFFFFFFFFFFF DUP2 GT ISZERO PUSH2 0x55B JUMPI PUSH1 0x0 DUP1 REVERT JUMPDEST PUSH2 0x567 DUP5 DUP3 DUP6 ADD PUSH2 0x49D JUMP JUMPDEST SWAP2 POP POP SWAP3 SWAP2 POP POP JUMP JUMPDEST PUSH1 0x0 DUP1 PUSH1 0x40 DUP4 DUP6 SUB SLT ISZERO PUSH2 0x583 JUMPI PUSH1 0x0 DUP1 REVERT JUMPDEST PUSH1 0x0 DUP4 ADD CALLDATALOAD PUSH8 0xFFFFFFFFFFFFFFFF DUP2 GT ISZERO PUSH2 0x59D JUMPI PUSH1 0x0 DUP1 REVERT JUMPDEST PUSH2 0x5A9 DUP6 DUP3 DUP7 ADD PUSH2 0x49D JUMP JUMPDEST SWAP3 POP POP PUSH1 0x20 PUSH2 0x5BA DUP6 DUP3 DUP7 ADD PUSH2 0x4F1 JUMP JUMPDEST SWAP2 POP POP SWAP3 POP SWAP3 SWAP1 POP JUMP JUMPDEST PUSH1 0x0 PUSH1 0x20 DUP3 DUP5 SUB SLT ISZERO PUSH2 0x5D6 JUMPI PUSH1 0x0 DUP1 REVERT JUMPDEST PUSH1 0x0 PUSH2 0x5E4 DUP5 DUP3 DUP6 ADD PUSH2 0x4F1 JUMP JUMPDEST SWAP2 POP POP SWAP3 SWAP2 POP POP JUMP JUMPDEST PUSH1 0x0 DUP1 PUSH1 0x0 DUP1 PUSH1 0x80 DUP6 DUP8 SUB SLT ISZERO PUSH2 0x603 JUMPI PUSH1 0x0 DUP1 REVERT JUMPDEST PUSH1 0x0 PUSH2 0x611 DUP8 DUP3 DUP9 ADD PUSH2 0x4F1 JUMP JUMPDEST SWAP5 POP POP PUSH1 0x20 PUSH2 0x622 DUP8 DUP3 DUP9 ADD PUSH2 0x4F1 JUMP JUMPDEST SWAP4 POP POP PUSH1 0x40 DUP6 ADD CALLDATALOAD PUSH8 0xFFFFFFFFFFFFFFFF DUP2 GT ISZERO PUSH2 0x63F JUMPI PUSH1 0x0 DUP1 REVERT JUMPDEST PUSH2 0x64B DUP8 DUP3 DUP9 ADD PUSH2 0x49D JUMP JUMPDEST SWAP3 POP POP PUSH1 0x60 PUSH2 0x65C DUP8 DUP3 DUP9 ADD PUSH2 0x4F1 JUMP JUMPDEST SWAP2 POP POP SWAP3 SWAP6 SWAP2 SWAP5 POP SWAP3 POP JUMP JUMPDEST PUSH1 0x0 PUSH2 0x673 DUP3 PUSH2 0x7ED JUMP JUMPDEST PUSH2 0x67D DUP2 DUP6 PUSH2 0x7F8 JUMP JUMPDEST SWAP4 POP PUSH2 0x68D DUP2 DUP6 PUSH1 0x20 DUP7 ADD PUSH2 0x85F JUMP JUMPDEST PUSH2 0x696 DUP2 PUSH2 0x892 JUMP JUMPDEST DUP5 ADD SWAP2 POP POP SWAP3 SWAP2 POP POP JUMP JUMPDEST PUSH1 0x0 PUSH2 0x6AC DUP3 PUSH2 0x7ED JUMP JUMPDEST PUSH2 0x6B6 DUP2 DUP6 PUSH2 0x809 JUMP JUMPDEST SWAP4 POP PUSH2 0x6C6 DUP2 DUP6 PUSH1 0x20 DUP7 ADD PUSH2 0x85F JUMP JUMPDEST DUP1 DUP5 ADD SWAP2 POP POP SWAP3 SWAP2 POP POP JUMP JUMPDEST PUSH1 0x0 PUSH1 0x60 DUP4 ADD PUSH1 0x0 DUP4 ADD MLOAD PUSH2 0x6EA PUSH1 0x0 DUP7 ADD DUP3 PUSH2 0x722 JUMP JUMPDEST POP PUSH1 0x20 DUP4 ADD MLOAD DUP5 DUP3 SUB PUSH1 0x20 DUP7 ADD MSTORE PUSH2 0x702 DUP3 DUP3 PUSH2 0x668 JUMP JUMPDEST SWAP2 POP POP PUSH1 0x40 DUP4 ADD MLOAD PUSH2 0x717 PUSH1 0x40 DUP7 ADD DUP3 PUSH2 0x722 JUMP JUMPDEST POP DUP1 SWAP2 POP POP SWAP3 SWAP2 POP POP JUMP JUMPDEST PUSH2 0x72B DUP2 PUSH2 0x846 JUMP JUMPDEST DUP3 MSTORE POP POP JUMP JUMPDEST PUSH2 0x73A DUP2 PUSH2 0x846 JUMP JUMPDEST DUP3 MSTORE POP POP JUMP JUMPDEST PUSH1 0x0 PUSH2 0x74C DUP3 DUP5 PUSH2 0x6A1 JUMP JUMPDEST SWAP2 POP DUP2 SWAP1 POP SWAP3 SWAP2 POP POP JUMP JUMPDEST PUSH1 0x0 PUSH1 0x20 DUP3 ADD SWAP1 POP DUP2 DUP2 SUB PUSH1 0x0 DUP4 ADD MSTORE PUSH2 0x771 DUP2 DUP5 PUSH2 0x6D2 JUMP JUMPDEST SWAP1 POP SWAP3 SWAP2 POP POP JUMP JUMPDEST PUSH1 0x0 PUSH1 0x20 DUP3 ADD SWAP1 POP PUSH2 0x78E PUSH1 0x0 DUP4 ADD DUP5 PUSH2 0x731 JUMP JUMPDEST SWAP3 SWAP2 POP POP JUMP JUMPDEST PUSH1 0x0 PUSH1 0x40 MLOAD SWAP1 POP DUP2 DUP2 ADD DUP2 DUP2 LT PUSH8 0xFFFFFFFFFFFFFFFF DUP3 GT OR ISZERO PUSH2 0x7B7 JUMPI PUSH1 0x0 DUP1 REVERT JUMPDEST DUP1 PUSH1 0x40 MSTORE POP SWAP2 SWAP1 POP JUMP JUMPDEST PUSH1 0x0 PUSH8 0xFFFFFFFFFFFFFFFF DUP3 GT ISZERO PUSH2 0x7D8 JUMPI PUSH1 0x0 DUP1 REVERT JUMPDEST PUSH1 0x1F NOT PUSH1 0x1F DUP4 ADD AND SWAP1 POP PUSH1 0x20 DUP2 ADD SWAP1 POP SWAP2 SWAP1 POP JUMP JUMPDEST PUSH1 0x0 DUP2 MLOAD SWAP1 POP SWAP2 SWAP1 POP JUMP JUMPDEST PUSH1 0x0 DUP3 DUP3 MSTORE PUSH1 0x20 DUP3 ADD SWAP1 POP SWAP3 SWAP2 POP POP JUMP JUMPDEST PUSH1 0x0 DUP2 SWAP1 POP SWAP3 SWAP2 POP POP JUMP JUMPDEST PUSH1 0x0 PUSH2 0x81F DUP3 PUSH2 0x826 JUMP JUMPDEST SWAP1 POP SWAP2 SWAP1 POP JUMP JUMPDEST PUSH1 0x0 PUSH20 0xFFFFFFFFFFFFFFFFFFFFFFFFFFFFFFFFFFFFFFFF DUP3 AND SWAP1 POP SWAP2 SWAP1 POP JUMP JUMPDEST PUSH1 0x0 DUP2 SWAP1 POP SWAP2 SWAP1 POP JUMP JUMPDEST DUP3 DUP2 DUP4 CALLDATACOPY PUSH1 0x0 DUP4 DUP4 ADD MSTORE POP POP POP JUMP JUMPDEST PUSH1 0x0 JUMPDEST DUP4 DUP2 LT ISZERO PUSH2 0x87D JUMPI DUP1 DUP3 ADD MLOAD DUP2 DUP5 ADD MSTORE PUSH1 0x20 DUP2 ADD SWAP1 POP PUSH2 0x862 JUMP JUMPDEST DUP4 DUP2 GT ISZERO PUSH2 0x88C JUMPI PUSH1 0x0 DUP5 DUP5 ADD MSTORE JUMPDEST POP POP POP POP JUMP JUMPDEST PUSH1 0x0 PUSH1 0x1F NOT PUSH1 0x1F DUP4 ADD AND SWAP1 POP SWAP2 SWAP1 POP JUMP JUMPDEST PUSH2 0x8AC DUP2 PUSH2 0x814 JUMP JUMPDEST DUP2 EQ PUSH2 0x8B7 JUMPI PUSH1 0x0 DUP1 REVERT JUMPDEST POP JUMP JUMPDEST PUSH2 0x8C3 DUP2 PUSH2 0x846 JUMP JUMPDEST DUP2 EQ PUSH2 0x8CE JUMPI PUSH1 0x0 DUP1 REVERT JUMPDEST POP JUMP INVALID LOG2 PUSH5 0x6970667358 0x22 SLT KECCAK256 MOD NUMBER 0x1E 0xF7 PUSH15 0x623AF480781442EFF156B32D671123 0x5D RETURNDATACOPY BYTE INVALID 0xDC 0xB1 0x2A 0xC6 DUP6 0x22 DUP11 0xAA PUSH5 0x736F6C6343 STOP MOD SDIV STOP CALLER "
				},
				"gasEstimates": {
					"creation": {
						"codeDepositCost": "462200",
						"executionCost": "499",
						"totalCost": "462699"
					},
					"external": {
						"consultarDinero(string)": "infinite",
						"consultarNumero()": "1226",
						"direccion_edad(address)": "1558",
						"elegirNumero(uint256)": "20531",
						"ingresarDinero(string,uint256)": "infinite",
						"ingresarPersona(uint256,uint256,string,uint256)": "infinite",
						"obtenerPersona(uint256)": "infinite"
					}
				},
				"methodIdentifiers": {
					"consultarDinero(string)": "47267990",
					"consultarNumero()": "92174b49",
					"direccion_edad(address)": "e7089298",
					"elegirNumero(uint256)": "d0427d5a",
					"ingresarDinero(string,uint256)": "276a05bf",
					"ingresarPersona(uint256,uint256,string,uint256)": "eb001a72",
					"obtenerPersona(uint256)": "7f1937fb"
				}
			},
			"storageLayout": {
				"storage": [
					{
						"astId": 6,
						"contract": "Estructuras de datos/mappings.sol:Mappings",
						"label": "direccion_edad",
						"offset": 0,
						"slot": "0",
						"type": "t_mapping(t_address,t_uint256)"
					},
					{
						"astId": 34,
						"contract": "Estructuras de datos/mappings.sol:Mappings",
						"label": "cantidadDinero",
						"offset": 0,
						"slot": "1",
						"type": "t_mapping(t_string_memory_ptr,t_uint256)"
					},
					{
						"astId": 71,
						"contract": "Estructuras de datos/mappings.sol:Mappings",
						"label": "personas",
						"offset": 0,
						"slot": "2",
						"type": "t_mapping(t_uint256,t_struct(Persona)67_storage)"
					}
				],
				"types": {
					"t_address": {
						"encoding": "inplace",
						"label": "address",
						"numberOfBytes": "20"
					},
					"t_mapping(t_address,t_uint256)": {
						"encoding": "mapping",
						"key": "t_address",
						"label": "mapping(address => uint256)",
						"numberOfBytes": "32",
						"value": "t_uint256"
					},
					"t_mapping(t_string_memory_ptr,t_uint256)": {
						"encoding": "mapping",
						"key": "t_string_memory_ptr",
						"label": "mapping(string => uint256)",
						"numberOfBytes": "32",
						"value": "t_uint256"
					},
					"t_mapping(t_uint256,t_struct(Persona)67_storage)": {
						"encoding": "mapping",
						"key": "t_uint256",
						"label": "mapping(uint256 => struct Mappings.Persona)",
						"numberOfBytes": "32",
						"value": "t_struct(Persona)67_storage"
					},
					"t_string_memory_ptr": {
						"encoding": "bytes",
						"label": "string",
						"numberOfBytes": "32"
					},
					"t_string_storage": {
						"encoding": "bytes",
						"label": "string",
						"numberOfBytes": "32"
					},
					"t_struct(Persona)67_storage": {
						"encoding": "inplace",
						"label": "struct Mappings.Persona",
						"members": [
							{
								"astId": 62,
								"contract": "Estructuras de datos/mappings.sol:Mappings",
								"label": "id",
								"offset": 0,
								"slot": "0",
								"type": "t_uint256"
							},
							{
								"astId": 64,
								"contract": "Estructuras de datos/mappings.sol:Mappings",
								"label": "nombre",
								"offset": 0,
								"slot": "1",
								"type": "t_string_storage"
							},
							{
								"astId": 66,
								"contract": "Estructuras de datos/mappings.sol:Mappings",
								"label": "edad",
								"offset": 0,
								"slot": "2",
								"type": "t_uint256"
							}
						],
						"numberOfBytes": "96"
					},
					"t_uint256": {
						"encoding": "inplace",
						"label": "uint256",
						"numberOfBytes": "32"
					}
				}
			},
			"userdoc": {
				"methods": {}
			}
		}
	}
}