{
	"data": {
		"bytecode": {
			"linkReferences": {},
			"object": "608060405234801561001057600080fd5b50610c8d806100206000396000f3fe608060405234801561001057600080fd5b506004361061009e5760003560e01c80639e26bc4f116100665780639e26bc4f1461014a578063a7469ee314610166578063b4f5747314610182578063c74efaef146101a0578063dd1eb06b146101c05761009e565b806309bd5a60146100a357806333c83dbd146100c157806342d73314146100dd578063547cbcad146100e757806369ddcade14610117575b600080fd5b6100ab6101f0565b6040516100b89190610a40565b60405180910390f35b6100db60048036038101906100d6919061082e565b6101f6565b005b6100e5610293565b005b61010160048036038101906100fc919061086f565b6102f8565b60405161010e9190610a25565b60405180910390f35b610131600480360381019061012c919061086f565b610334565b6040516101419493929190610a5b565b60405180910390f35b610164600480360381019061015f9190610898565b610429565b005b610180600480360381019061017b919061082e565b61053b565b005b61018a61056b565b6040516101979190610a40565b60405180910390f35b6101a8610571565b6040516101b793929190610aa7565b60405180910390f35b6101da60048036038101906101d5919061082e565b6106b9565b6040516101e79190610a40565b60405180910390f35b60015481565b6040518060600160405280600181526020016040518060400160405280600b81526020017f48616d6275726775657361000000000000000000000000000000000000000000815250815260200182815250600260008201518160000155602082015181600101908051906020019061026f929190610720565b50604082015181600201908051906020019061028c929190610720565b5090505050565b6000339080600181540180825580915050600190039060005260206000200160009091909190916101000a81548173ffffffffffffffffffffffffffffffffffffffff021916908373ffffffffffffffffffffffffffffffffffffffff160217905550565b6000818154811061030557fe5b906000526020600020016000915054906101000a900473ffffffffffffffffffffffffffffffffffffffff1681565b6006818154811061034157fe5b9060005260206000209060040201600091509050806000015490806001018054600181600116156101000203166002900480601f0160208091040260200160405190810160405280929190818152602001828054600181600116156101000203166002900480156103f35780601f106103c8576101008083540402835291602001916103f3565b820191906000526020600020905b8154815290600101906020018083116103d657829003601f168201915b5050505050908060020160009054906101000a900473ffffffffffffffffffffffffffffffffffffffff16908060030154905084565b600660405180608001604052808581526020018481526020013373ffffffffffffffffffffffffffffffffffffffff1681526020018381525090806001815401808255809150506001900390600052602060002090600402016000909190919091506000820151816000015560208201518160010190805190602001906104b1929190610720565b5060408201518160020160006101000a81548173ffffffffffffffffffffffffffffffffffffffff021916908373ffffffffffffffffffffffffffffffffffffffff160217905550606082015181600301555050610511838333846106e7565b60055460078360405161052491906109c4565b908152602001604051809103902081905550505050565b8060405160200161054c91906109c4565b6040516020818303038152906040528051906020012060018190555050565b60055481565b6002806000015490806001018054600181600116156101000203166002900480601f0160208091040260200160405190810160405280929190818152602001828054600181600116156101000203166002900480156106115780601f106105e657610100808354040283529160200191610611565b820191906000526020600020905b8154815290600101906020018083116105f457829003601f168201915b505050505090806002018054600181600116156101000203166002900480601f0160208091040260200160405190810160405280929190818152602001828054600181600116156101000203166002900480156106af5780601f10610684576101008083540402835291602001916106af565b820191906000526020600020905b81548152906001019060200180831161069257829003601f168201915b5050505050905083565b6007818051602081018201805184825260208301602085012081835280955050505050506000915090505481565b838383836040516020016106fe94939291906109db565b6040516020818303038152906040528051906020012060058190555050505050565b828054600181600116156101000203166002900490600052602060002090601f016020900481019282601f1061076157805160ff191683800117855561078f565b8280016001018555821561078f579182015b8281111561078e578251825591602001919060010190610773565b5b50905061079c91906107a0565b5090565b6107c291905b808211156107be5760008160009055506001016107a6565b5090565b90565b600082601f8301126107d657600080fd5b81356107e96107e482610b19565b610aec565b9150808252602083016020830185838301111561080557600080fd5b610810838284610bb2565b50505092915050565b60008135905061082881610c40565b92915050565b60006020828403121561084057600080fd5b600082013567ffffffffffffffff81111561085a57600080fd5b610866848285016107c5565b91505092915050565b60006020828403121561088157600080fd5b600061088f84828501610819565b91505092915050565b6000806000606084860312156108ad57600080fd5b60006108bb86828701610819565b935050602084013567ffffffffffffffff8111156108d857600080fd5b6108e4868287016107c5565b92505060406108f586828701610819565b9150509250925092565b61090881610b6c565b82525050565b61091f61091a82610b6c565b610bf4565b82525050565b61092e81610b7e565b82525050565b600061093f82610b45565b6109498185610b50565b9350610959818560208601610bc1565b61096281610c22565b840191505092915050565b600061097882610b45565b6109828185610b61565b9350610992818560208601610bc1565b80840191505092915050565b6109a781610ba8565b82525050565b6109be6109b982610ba8565b610c18565b82525050565b60006109d0828461096d565b915081905092915050565b60006109e782876109ad565b6020820191506109f7828661096d565b9150610a03828561090e565b601482019150610a1382846109ad565b60208201915081905095945050505050565b6000602082019050610a3a60008301846108ff565b92915050565b6000602082019050610a556000830184610925565b92915050565b6000608082019050610a70600083018761099e565b8181036020830152610a828186610934565b9050610a9160408301856108ff565b610a9e606083018461099e565b95945050505050565b6000606082019050610abc600083018661099e565b8181036020830152610ace8185610934565b90508181036040830152610ae28184610934565b9050949350505050565b6000604051905081810181811067ffffffffffffffff82111715610b0f57600080fd5b8060405250919050565b600067ffffffffffffffff821115610b3057600080fd5b601f19601f8301169050602081019050919050565b600081519050919050565b600082825260208201905092915050565b600081905092915050565b6000610b7782610b88565b9050919050565b6000819050919050565b600073ffffffffffffffffffffffffffffffffffffffff82169050919050565b6000819050919050565b82818337600083830152505050565b60005b83811015610bdf578082015181840152602081019050610bc4565b83811115610bee576000848401525b50505050565b6000610bff82610c06565b9050919050565b6000610c1182610c33565b9050919050565b6000819050919050565b6000601f19601f8301169050919050565b60008160601b9050919050565b610c4981610ba8565b8114610c5457600080fd5b5056fea2646970667358221220cf1fe54e4b7c8e43f5aac815c112e62af2a4d6efc5c6395d894a4755b5464b7b64736f6c63430006050033",
			"opcodes": "PUSH1 0x80 PUSH1 0x40 MSTORE CALLVALUE DUP1 ISZERO PUSH2 0x10 JUMPI PUSH1 0x0 DUP1 REVERT JUMPDEST POP PUSH2 0xC8D DUP1 PUSH2 0x20 PUSH1 0x0 CODECOPY PUSH1 0x0 RETURN INVALID PUSH1 0x80 PUSH1 0x40 MSTORE CALLVALUE DUP1 ISZERO PUSH2 0x10 JUMPI PUSH1 0x0 DUP1 REVERT JUMPDEST POP PUSH1 0x4 CALLDATASIZE LT PUSH2 0x9E JUMPI PUSH1 0x0 CALLDATALOAD PUSH1 0xE0 SHR DUP1 PUSH4 0x9E26BC4F GT PUSH2 0x66 JUMPI DUP1 PUSH4 0x9E26BC4F EQ PUSH2 0x14A JUMPI DUP1 PUSH4 0xA7469EE3 EQ PUSH2 0x166 JUMPI DUP1 PUSH4 0xB4F57473 EQ PUSH2 0x182 JUMPI DUP1 PUSH4 0xC74EFAEF EQ PUSH2 0x1A0 JUMPI DUP1 PUSH4 0xDD1EB06B EQ PUSH2 0x1C0 JUMPI PUSH2 0x9E JUMP JUMPDEST DUP1 PUSH4 0x9BD5A60 EQ PUSH2 0xA3 JUMPI DUP1 PUSH4 0x33C83DBD EQ PUSH2 0xC1 JUMPI DUP1 PUSH4 0x42D73314 EQ PUSH2 0xDD JUMPI DUP1 PUSH4 0x547CBCAD EQ PUSH2 0xE7 JUMPI DUP1 PUSH4 0x69DDCADE EQ PUSH2 0x117 JUMPI JUMPDEST PUSH1 0x0 DUP1 REVERT JUMPDEST PUSH2 0xAB PUSH2 0x1F0 JUMP JUMPDEST PUSH1 0x40 MLOAD PUSH2 0xB8 SWAP2 SWAP1 PUSH2 0xA40 JUMP JUMPDEST PUSH1 0x40 MLOAD DUP1 SWAP2 SUB SWAP1 RETURN JUMPDEST PUSH2 0xDB PUSH1 0x4 DUP1 CALLDATASIZE SUB DUP2 ADD SWAP1 PUSH2 0xD6 SWAP2 SWAP1 PUSH2 0x82E JUMP JUMPDEST PUSH2 0x1F6 JUMP JUMPDEST STOP JUMPDEST PUSH2 0xE5 PUSH2 0x293 JUMP JUMPDEST STOP JUMPDEST PUSH2 0x101 PUSH1 0x4 DUP1 CALLDATASIZE SUB DUP2 ADD SWAP1 PUSH2 0xFC SWAP2 SWAP1 PUSH2 0x86F JUMP JUMPDEST PUSH2 0x2F8 JUMP JUMPDEST PUSH1 0x40 MLOAD PUSH2 0x10E SWAP2 SWAP1 PUSH2 0xA25 JUMP JUMPDEST PUSH1 0x40 MLOAD DUP1 SWAP2 SUB SWAP1 RETURN JUMPDEST PUSH2 0x131 PUSH1 0x4 DUP1 CALLDATASIZE SUB DUP2 ADD SWAP1 PUSH2 0x12C SWAP2 SWAP1 PUSH2 0x86F JUMP JUMPDEST PUSH2 0x334 JUMP JUMPDEST PUSH1 0x40 MLOAD PUSH2 0x141 SWAP5 SWAP4 SWAP3 SWAP2 SWAP1 PUSH2 0xA5B JUMP JUMPDEST PUSH1 0x40 MLOAD DUP1 SWAP2 SUB SWAP1 RETURN JUMPDEST PUSH2 0x164 PUSH1 0x4 DUP1 CALLDATASIZE SUB DUP2 ADD SWAP1 PUSH2 0x15F SWAP2 SWAP1 PUSH2 0x898 JUMP JUMPDEST PUSH2 0x429 JUMP JUMPDEST STOP JUMPDEST PUSH2 0x180 PUSH1 0x4 DUP1 CALLDATASIZE SUB DUP2 ADD SWAP1 PUSH2 0x17B SWAP2 SWAP1 PUSH2 0x82E JUMP JUMPDEST PUSH2 0x53B JUMP JUMPDEST STOP JUMPDEST PUSH2 0x18A PUSH2 0x56B JUMP JUMPDEST PUSH1 0x40 MLOAD PUSH2 0x197 SWAP2 SWAP1 PUSH2 0xA40 JUMP JUMPDEST PUSH1 0x40 MLOAD DUP1 SWAP2 SUB SWAP1 RETURN JUMPDEST PUSH2 0x1A8 PUSH2 0x571 JUMP JUMPDEST PUSH1 0x40 MLOAD PUSH2 0x1B7 SWAP4 SWAP3 SWAP2 SWAP1 PUSH2 0xAA7 JUMP JUMPDEST PUSH1 0x40 MLOAD DUP1 SWAP2 SUB SWAP1 RETURN JUMPDEST PUSH2 0x1DA PUSH1 0x4 DUP1 CALLDATASIZE SUB DUP2 ADD SWAP1 PUSH2 0x1D5 SWAP2 SWAP1 PUSH2 0x82E JUMP JUMPDEST PUSH2 0x6B9 JUMP JUMPDEST PUSH1 0x40 MLOAD PUSH2 0x1E7 SWAP2 SWAP1 PUSH2 0xA40 JUMP JUMPDEST PUSH1 0x40 MLOAD DUP1 SWAP2 SUB SWAP1 RETURN JUMPDEST PUSH1 0x1 SLOAD DUP2 JUMP JUMPDEST PUSH1 0x40 MLOAD DUP1 PUSH1 0x60 ADD PUSH1 0x40 MSTORE DUP1 PUSH1 0x1 DUP2 MSTORE PUSH1 0x20 ADD PUSH1 0x40 MLOAD DUP1 PUSH1 0x40 ADD PUSH1 0x40 MSTORE DUP1 PUSH1 0xB DUP2 MSTORE PUSH1 0x20 ADD PUSH32 0x48616D6275726775657361000000000000000000000000000000000000000000 DUP2 MSTORE POP DUP2 MSTORE PUSH1 0x20 ADD DUP3 DUP2 MSTORE POP PUSH1 0x2 PUSH1 0x0 DUP3 ADD MLOAD DUP2 PUSH1 0x0 ADD SSTORE PUSH1 0x20 DUP3 ADD MLOAD DUP2 PUSH1 0x1 ADD SWAP1 DUP1 MLOAD SWAP1 PUSH1 0x20 ADD SWAP1 PUSH2 0x26F SWAP3 SWAP2 SWAP1 PUSH2 0x720 JUMP JUMPDEST POP PUSH1 0x40 DUP3 ADD MLOAD DUP2 PUSH1 0x2 ADD SWAP1 DUP1 MLOAD SWAP1 PUSH1 0x20 ADD SWAP1 PUSH2 0x28C SWAP3 SWAP2 SWAP1 PUSH2 0x720 JUMP JUMPDEST POP SWAP1 POP POP POP JUMP JUMPDEST PUSH1 0x0 CALLER SWAP1 DUP1 PUSH1 0x1 DUP2 SLOAD ADD DUP1 DUP3 SSTORE DUP1 SWAP2 POP POP PUSH1 0x1 SWAP1 SUB SWAP1 PUSH1 0x0 MSTORE PUSH1 0x20 PUSH1 0x0 KECCAK256 ADD PUSH1 0x0 SWAP1 SWAP2 SWAP1 SWAP2 SWAP1 SWAP2 PUSH2 0x100 EXP DUP2 SLOAD DUP2 PUSH20 0xFFFFFFFFFFFFFFFFFFFFFFFFFFFFFFFFFFFFFFFF MUL NOT AND SWAP1 DUP4 PUSH20 0xFFFFFFFFFFFFFFFFFFFFFFFFFFFFFFFFFFFFFFFF AND MUL OR SWAP1 SSTORE POP JUMP JUMPDEST PUSH1 0x0 DUP2 DUP2 SLOAD DUP2 LT PUSH2 0x305 JUMPI INVALID JUMPDEST SWAP1 PUSH1 0x0 MSTORE PUSH1 0x20 PUSH1 0x0 KECCAK256 ADD PUSH1 0x0 SWAP2 POP SLOAD SWAP1 PUSH2 0x100 EXP SWAP1 DIV PUSH20 0xFFFFFFFFFFFFFFFFFFFFFFFFFFFFFFFFFFFFFFFF AND DUP2 JUMP JUMPDEST PUSH1 0x6 DUP2 DUP2 SLOAD DUP2 LT PUSH2 0x341 JUMPI INVALID JUMPDEST SWAP1 PUSH1 0x0 MSTORE PUSH1 0x20 PUSH1 0x0 KECCAK256 SWAP1 PUSH1 0x4 MUL ADD PUSH1 0x0 SWAP2 POP SWAP1 POP DUP1 PUSH1 0x0 ADD SLOAD SWAP1 DUP1 PUSH1 0x1 ADD DUP1 SLOAD PUSH1 0x1 DUP2 PUSH1 0x1 AND ISZERO PUSH2 0x100 MUL SUB AND PUSH1 0x2 SWAP1 DIV DUP1 PUSH1 0x1F ADD PUSH1 0x20 DUP1 SWAP2 DIV MUL PUSH1 0x20 ADD PUSH1 0x40 MLOAD SWAP1 DUP2 ADD PUSH1 0x40 MSTORE DUP1 SWAP3 SWAP2 SWAP1 DUP2 DUP2 MSTORE PUSH1 0x20 ADD DUP3 DUP1 SLOAD PUSH1 0x1 DUP2 PUSH1 0x1 AND ISZERO PUSH2 0x100 MUL SUB AND PUSH1 0x2 SWAP1 DIV DUP1 ISZERO PUSH2 0x3F3 JUMPI DUP1 PUSH1 0x1F LT PUSH2 0x3C8 JUMPI PUSH2 0x100 DUP1 DUP4 SLOAD DIV MUL DUP4 MSTORE SWAP2 PUSH1 0x20 ADD SWAP2 PUSH2 0x3F3 JUMP JUMPDEST DUP3 ADD SWAP2 SWAP1 PUSH1 0x0 MSTORE PUSH1 0x20 PUSH1 0x0 KECCAK256 SWAP1 JUMPDEST DUP2 SLOAD DUP2 MSTORE SWAP1 PUSH1 0x1 ADD SWAP1 PUSH1 0x20 ADD DUP1 DUP4 GT PUSH2 0x3D6 JUMPI DUP3 SWAP1 SUB PUSH1 0x1F AND DUP3 ADD SWAP2 JUMPDEST POP POP POP POP POP SWAP1 DUP1 PUSH1 0x2 ADD PUSH1 0x0 SWAP1 SLOAD SWAP1 PUSH2 0x100 EXP SWAP1 DIV PUSH20 0xFFFFFFFFFFFFFFFFFFFFFFFFFFFFFFFFFFFFFFFF AND SWAP1 DUP1 PUSH1 0x3 ADD SLOAD SWAP1 POP DUP5 JUMP JUMPDEST PUSH1 0x6 PUSH1 0x40 MLOAD DUP1 PUSH1 0x80 ADD PUSH1 0x40 MSTORE DUP1 DUP6 DUP2 MSTORE PUSH1 0x20 ADD DUP5 DUP2 MSTORE PUSH1 0x20 ADD CALLER PUSH20 0xFFFFFFFFFFFFFFFFFFFFFFFFFFFFFFFFFFFFFFFF AND DUP2 MSTORE PUSH1 0x20 ADD DUP4 DUP2 MSTORE POP SWAP1 DUP1 PUSH1 0x1 DUP2 SLOAD ADD DUP1 DUP3 SSTORE DUP1 SWAP2 POP POP PUSH1 0x1 SWAP1 SUB SWAP1 PUSH1 0x0 MSTORE PUSH1 0x20 PUSH1 0x0 KECCAK256 SWAP1 PUSH1 0x4 MUL ADD PUSH1 0x0 SWAP1 SWAP2 SWAP1 SWAP2 SWAP1 SWAP2 POP PUSH1 0x0 DUP3 ADD MLOAD DUP2 PUSH1 0x0 ADD SSTORE PUSH1 0x20 DUP3 ADD MLOAD DUP2 PUSH1 0x1 ADD SWAP1 DUP1 MLOAD SWAP1 PUSH1 0x20 ADD SWAP1 PUSH2 0x4B1 SWAP3 SWAP2 SWAP1 PUSH2 0x720 JUMP JUMPDEST POP PUSH1 0x40 DUP3 ADD MLOAD DUP2 PUSH1 0x2 ADD PUSH1 0x0 PUSH2 0x100 EXP DUP2 SLOAD DUP2 PUSH20 0xFFFFFFFFFFFFFFFFFFFFFFFFFFFFFFFFFFFFFFFF MUL NOT AND SWAP1 DUP4 PUSH20 0xFFFFFFFFFFFFFFFFFFFFFFFFFFFFFFFFFFFFFFFF AND MUL OR SWAP1 SSTORE POP PUSH1 0x60 DUP3 ADD MLOAD DUP2 PUSH1 0x3 ADD SSTORE POP POP PUSH2 0x511 DUP4 DUP4 CALLER DUP5 PUSH2 0x6E7 JUMP JUMPDEST PUSH1 0x5 SLOAD PUSH1 0x7 DUP4 PUSH1 0x40 MLOAD PUSH2 0x524 SWAP2 SWAP1 PUSH2 0x9C4 JUMP JUMPDEST SWAP1 DUP2 MSTORE PUSH1 0x20 ADD PUSH1 0x40 MLOAD DUP1 SWAP2 SUB SWAP1 KECCAK256 DUP2 SWAP1 SSTORE POP POP POP POP JUMP JUMPDEST DUP1 PUSH1 0x40 MLOAD PUSH1 0x20 ADD PUSH2 0x54C SWAP2 SWAP1 PUSH2 0x9C4 JUMP JUMPDEST PUSH1 0x40 MLOAD PUSH1 0x20 DUP2 DUP4 SUB SUB DUP2 MSTORE SWAP1 PUSH1 0x40 MSTORE DUP1 MLOAD SWAP1 PUSH1 0x20 ADD KECCAK256 PUSH1 0x1 DUP2 SWAP1 SSTORE POP POP JUMP JUMPDEST PUSH1 0x5 SLOAD DUP2 JUMP JUMPDEST PUSH1 0x2 DUP1 PUSH1 0x0 ADD SLOAD SWAP1 DUP1 PUSH1 0x1 ADD DUP1 SLOAD PUSH1 0x1 DUP2 PUSH1 0x1 AND ISZERO PUSH2 0x100 MUL SUB AND PUSH1 0x2 SWAP1 DIV DUP1 PUSH1 0x1F ADD PUSH1 0x20 DUP1 SWAP2 DIV MUL PUSH1 0x20 ADD PUSH1 0x40 MLOAD SWAP1 DUP2 ADD PUSH1 0x40 MSTORE DUP1 SWAP3 SWAP2 SWAP1 DUP2 DUP2 MSTORE PUSH1 0x20 ADD DUP3 DUP1 SLOAD PUSH1 0x1 DUP2 PUSH1 0x1 AND ISZERO PUSH2 0x100 MUL SUB AND PUSH1 0x2 SWAP1 DIV DUP1 ISZERO PUSH2 0x611 JUMPI DUP1 PUSH1 0x1F LT PUSH2 0x5E6 JUMPI PUSH2 0x100 DUP1 DUP4 SLOAD DIV MUL DUP4 MSTORE SWAP2 PUSH1 0x20 ADD SWAP2 PUSH2 0x611 JUMP JUMPDEST DUP3 ADD SWAP2 SWAP1 PUSH1 0x0 MSTORE PUSH1 0x20 PUSH1 0x0 KECCAK256 SWAP1 JUMPDEST DUP2 SLOAD DUP2 MSTORE SWAP1 PUSH1 0x1 ADD SWAP1 PUSH1 0x20 ADD DUP1 DUP4 GT PUSH2 0x5F4 JUMPI DUP3 SWAP1 SUB PUSH1 0x1F AND DUP3 ADD SWAP2 JUMPDEST POP POP POP POP POP SWAP1 DUP1 PUSH1 0x2 ADD DUP1 SLOAD PUSH1 0x1 DUP2 PUSH1 0x1 AND ISZERO PUSH2 0x100 MUL SUB AND PUSH1 0x2 SWAP1 DIV DUP1 PUSH1 0x1F ADD PUSH1 0x20 DUP1 SWAP2 DIV MUL PUSH1 0x20 ADD PUSH1 0x40 MLOAD SWAP1 DUP2 ADD PUSH1 0x40 MSTORE DUP1 SWAP3 SWAP2 SWAP1 DUP2 DUP2 MSTORE PUSH1 0x20 ADD DUP3 DUP1 SLOAD PUSH1 0x1 DUP2 PUSH1 0x1 AND ISZERO PUSH2 0x100 MUL SUB AND PUSH1 0x2 SWAP1 DIV DUP1 ISZERO PUSH2 0x6AF JUMPI DUP1 PUSH1 0x1F LT PUSH2 0x684 JUMPI PUSH2 0x100 DUP1 DUP4 SLOAD DIV MUL DUP4 MSTORE SWAP2 PUSH1 0x20 ADD SWAP2 PUSH2 0x6AF JUMP JUMPDEST DUP3 ADD SWAP2 SWAP1 PUSH1 0x0 MSTORE PUSH1 0x20 PUSH1 0x0 KECCAK256 SWAP1 JUMPDEST DUP2 SLOAD DUP2 MSTORE SWAP1 PUSH1 0x1 ADD SWAP1 PUSH1 0x20 ADD DUP1 DUP4 GT PUSH2 0x692 JUMPI DUP3 SWAP1 SUB PUSH1 0x1F AND DUP3 ADD SWAP2 JUMPDEST POP POP POP POP POP SWAP1 POP DUP4 JUMP JUMPDEST PUSH1 0x7 DUP2 DUP1 MLOAD PUSH1 0x20 DUP2 ADD DUP3 ADD DUP1 MLOAD DUP5 DUP3 MSTORE PUSH1 0x20 DUP4 ADD PUSH1 0x20 DUP6 ADD KECCAK256 DUP2 DUP4 MSTORE DUP1 SWAP6 POP POP POP POP POP POP PUSH1 0x0 SWAP2 POP SWAP1 POP SLOAD DUP2 JUMP JUMPDEST DUP4 DUP4 DUP4 DUP4 PUSH1 0x40 MLOAD PUSH1 0x20 ADD PUSH2 0x6FE SWAP5 SWAP4 SWAP3 SWAP2 SWAP1 PUSH2 0x9DB JUMP JUMPDEST PUSH1 0x40 MLOAD PUSH1 0x20 DUP2 DUP4 SUB SUB DUP2 MSTORE SWAP1 PUSH1 0x40 MSTORE DUP1 MLOAD SWAP1 PUSH1 0x20 ADD KECCAK256 PUSH1 0x5 DUP2 SWAP1 SSTORE POP POP POP POP POP JUMP JUMPDEST DUP3 DUP1 SLOAD PUSH1 0x1 DUP2 PUSH1 0x1 AND ISZERO PUSH2 0x100 MUL SUB AND PUSH1 0x2 SWAP1 DIV SWAP1 PUSH1 0x0 MSTORE PUSH1 0x20 PUSH1 0x0 KECCAK256 SWAP1 PUSH1 0x1F ADD PUSH1 0x20 SWAP1 DIV DUP2 ADD SWAP3 DUP3 PUSH1 0x1F LT PUSH2 0x761 JUMPI DUP1 MLOAD PUSH1 0xFF NOT AND DUP4 DUP1 ADD OR DUP6 SSTORE PUSH2 0x78F JUMP JUMPDEST DUP3 DUP1 ADD PUSH1 0x1 ADD DUP6 SSTORE DUP3 ISZERO PUSH2 0x78F JUMPI SWAP2 DUP3 ADD JUMPDEST DUP3 DUP2 GT ISZERO PUSH2 0x78E JUMPI DUP3 MLOAD DUP3 SSTORE SWAP2 PUSH1 0x20 ADD SWAP2 SWAP1 PUSH1 0x1 ADD SWAP1 PUSH2 0x773 JUMP JUMPDEST JUMPDEST POP SWAP1 POP PUSH2 0x79C SWAP2 SWAP1 PUSH2 0x7A0 JUMP JUMPDEST POP SWAP1 JUMP JUMPDEST PUSH2 0x7C2 SWAP2 SWAP1 JUMPDEST DUP1 DUP3 GT ISZERO PUSH2 0x7BE JUMPI PUSH1 0x0 DUP2 PUSH1 0x0 SWAP1 SSTORE POP PUSH1 0x1 ADD PUSH2 0x7A6 JUMP JUMPDEST POP SWAP1 JUMP JUMPDEST SWAP1 JUMP JUMPDEST PUSH1 0x0 DUP3 PUSH1 0x1F DUP4 ADD SLT PUSH2 0x7D6 JUMPI PUSH1 0x0 DUP1 REVERT JUMPDEST DUP2 CALLDATALOAD PUSH2 0x7E9 PUSH2 0x7E4 DUP3 PUSH2 0xB19 JUMP JUMPDEST PUSH2 0xAEC JUMP JUMPDEST SWAP2 POP DUP1 DUP3 MSTORE PUSH1 0x20 DUP4 ADD PUSH1 0x20 DUP4 ADD DUP6 DUP4 DUP4 ADD GT ISZERO PUSH2 0x805 JUMPI PUSH1 0x0 DUP1 REVERT JUMPDEST PUSH2 0x810 DUP4 DUP3 DUP5 PUSH2 0xBB2 JUMP JUMPDEST POP POP POP SWAP3 SWAP2 POP POP JUMP JUMPDEST PUSH1 0x0 DUP2 CALLDATALOAD SWAP1 POP PUSH2 0x828 DUP2 PUSH2 0xC40 JUMP JUMPDEST SWAP3 SWAP2 POP POP JUMP JUMPDEST PUSH1 0x0 PUSH1 0x20 DUP3 DUP5 SUB SLT ISZERO PUSH2 0x840 JUMPI PUSH1 0x0 DUP1 REVERT JUMPDEST PUSH1 0x0 DUP3 ADD CALLDATALOAD PUSH8 0xFFFFFFFFFFFFFFFF DUP2 GT ISZERO PUSH2 0x85A JUMPI PUSH1 0x0 DUP1 REVERT JUMPDEST PUSH2 0x866 DUP5 DUP3 DUP6 ADD PUSH2 0x7C5 JUMP JUMPDEST SWAP2 POP POP SWAP3 SWAP2 POP POP JUMP JUMPDEST PUSH1 0x0 PUSH1 0x20 DUP3 DUP5 SUB SLT ISZERO PUSH2 0x881 JUMPI PUSH1 0x0 DUP1 REVERT JUMPDEST PUSH1 0x0 PUSH2 0x88F DUP5 DUP3 DUP6 ADD PUSH2 0x819 JUMP JUMPDEST SWAP2 POP POP SWAP3 SWAP2 POP POP JUMP JUMPDEST PUSH1 0x0 DUP1 PUSH1 0x0 PUSH1 0x60 DUP5 DUP7 SUB SLT ISZERO PUSH2 0x8AD JUMPI PUSH1 0x0 DUP1 REVERT JUMPDEST PUSH1 0x0 PUSH2 0x8BB DUP7 DUP3 DUP8 ADD PUSH2 0x819 JUMP JUMPDEST SWAP4 POP POP PUSH1 0x20 DUP5 ADD CALLDATALOAD PUSH8 0xFFFFFFFFFFFFFFFF DUP2 GT ISZERO PUSH2 0x8D8 JUMPI PUSH1 0x0 DUP1 REVERT JUMPDEST PUSH2 0x8E4 DUP7 DUP3 DUP8 ADD PUSH2 0x7C5 JUMP JUMPDEST SWAP3 POP POP PUSH1 0x40 PUSH2 0x8F5 DUP7 DUP3 DUP8 ADD PUSH2 0x819 JUMP JUMPDEST SWAP2 POP POP SWAP3 POP SWAP3 POP SWAP3 JUMP JUMPDEST PUSH2 0x908 DUP2 PUSH2 0xB6C JUMP JUMPDEST DUP3 MSTORE POP POP JUMP JUMPDEST PUSH2 0x91F PUSH2 0x91A DUP3 PUSH2 0xB6C JUMP JUMPDEST PUSH2 0xBF4 JUMP JUMPDEST DUP3 MSTORE POP POP JUMP JUMPDEST PUSH2 0x92E DUP2 PUSH2 0xB7E JUMP JUMPDEST DUP3 MSTORE POP POP JUMP JUMPDEST PUSH1 0x0 PUSH2 0x93F DUP3 PUSH2 0xB45 JUMP JUMPDEST PUSH2 0x949 DUP2 DUP6 PUSH2 0xB50 JUMP JUMPDEST SWAP4 POP PUSH2 0x959 DUP2 DUP6 PUSH1 0x20 DUP7 ADD PUSH2 0xBC1 JUMP JUMPDEST PUSH2 0x962 DUP2 PUSH2 0xC22 JUMP JUMPDEST DUP5 ADD SWAP2 POP POP SWAP3 SWAP2 POP POP JUMP JUMPDEST PUSH1 0x0 PUSH2 0x978 DUP3 PUSH2 0xB45 JUMP JUMPDEST PUSH2 0x982 DUP2 DUP6 PUSH2 0xB61 JUMP JUMPDEST SWAP4 POP PUSH2 0x992 DUP2 DUP6 PUSH1 0x20 DUP7 ADD PUSH2 0xBC1 JUMP JUMPDEST DUP1 DUP5 ADD SWAP2 POP POP SWAP3 SWAP2 POP POP JUMP JUMPDEST PUSH2 0x9A7 DUP2 PUSH2 0xBA8 JUMP JUMPDEST DUP3 MSTORE POP POP JUMP JUMPDEST PUSH2 0x9BE PUSH2 0x9B9 DUP3 PUSH2 0xBA8 JUMP JUMPDEST PUSH2 0xC18 JUMP JUMPDEST DUP3 MSTORE POP POP JUMP JUMPDEST PUSH1 0x0 PUSH2 0x9D0 DUP3 DUP5 PUSH2 0x96D JUMP JUMPDEST SWAP2 POP DUP2 SWAP1 POP SWAP3 SWAP2 POP POP JUMP JUMPDEST PUSH1 0x0 PUSH2 0x9E7 DUP3 DUP8 PUSH2 0x9AD JUMP JUMPDEST PUSH1 0x20 DUP3 ADD SWAP2 POP PUSH2 0x9F7 DUP3 DUP7 PUSH2 0x96D JUMP JUMPDEST SWAP2 POP PUSH2 0xA03 DUP3 DUP6 PUSH2 0x90E JUMP JUMPDEST PUSH1 0x14 DUP3 ADD SWAP2 POP PUSH2 0xA13 DUP3 DUP5 PUSH2 0x9AD JUMP JUMPDEST PUSH1 0x20 DUP3 ADD SWAP2 POP DUP2 SWAP1 POP SWAP6 SWAP5 POP POP POP POP POP JUMP JUMPDEST PUSH1 0x0 PUSH1 0x20 DUP3 ADD SWAP1 POP PUSH2 0xA3A PUSH1 0x0 DUP4 ADD DUP5 PUSH2 0x8FF JUMP JUMPDEST SWAP3 SWAP2 POP POP JUMP JUMPDEST PUSH1 0x0 PUSH1 0x20 DUP3 ADD SWAP1 POP PUSH2 0xA55 PUSH1 0x0 DUP4 ADD DUP5 PUSH2 0x925 JUMP JUMPDEST SWAP3 SWAP2 POP POP JUMP JUMPDEST PUSH1 0x0 PUSH1 0x80 DUP3 ADD SWAP1 POP PUSH2 0xA70 PUSH1 0x0 DUP4 ADD DUP8 PUSH2 0x99E JUMP JUMPDEST DUP2 DUP2 SUB PUSH1 0x20 DUP4 ADD MSTORE PUSH2 0xA82 DUP2 DUP7 PUSH2 0x934 JUMP JUMPDEST SWAP1 POP PUSH2 0xA91 PUSH1 0x40 DUP4 ADD DUP6 PUSH2 0x8FF JUMP JUMPDEST PUSH2 0xA9E PUSH1 0x60 DUP4 ADD DUP5 PUSH2 0x99E JUMP JUMPDEST SWAP6 SWAP5 POP POP POP POP POP JUMP JUMPDEST PUSH1 0x0 PUSH1 0x60 DUP3 ADD SWAP1 POP PUSH2 0xABC PUSH1 0x0 DUP4 ADD DUP7 PUSH2 0x99E JUMP JUMPDEST DUP2 DUP2 SUB PUSH1 0x20 DUP4 ADD MSTORE PUSH2 0xACE DUP2 DUP6 PUSH2 0x934 JUMP JUMPDEST SWAP1 POP DUP2 DUP2 SUB PUSH1 0x40 DUP4 ADD MSTORE PUSH2 0xAE2 DUP2 DUP5 PUSH2 0x934 JUMP JUMPDEST SWAP1 POP SWAP5 SWAP4 POP POP POP POP JUMP JUMPDEST PUSH1 0x0 PUSH1 0x40 MLOAD SWAP1 POP DUP2 DUP2 ADD DUP2 DUP2 LT PUSH8 0xFFFFFFFFFFFFFFFF DUP3 GT OR ISZERO PUSH2 0xB0F JUMPI PUSH1 0x0 DUP1 REVERT JUMPDEST DUP1 PUSH1 0x40 MSTORE POP SWAP2 SWAP1 POP JUMP JUMPDEST PUSH1 0x0 PUSH8 0xFFFFFFFFFFFFFFFF DUP3 GT ISZERO PUSH2 0xB30 JUMPI PUSH1 0x0 DUP1 REVERT JUMPDEST PUSH1 0x1F NOT PUSH1 0x1F DUP4 ADD AND SWAP1 POP PUSH1 0x20 DUP2 ADD SWAP1 POP SWAP2 SWAP1 POP JUMP JUMPDEST PUSH1 0x0 DUP2 MLOAD SWAP1 POP SWAP2 SWAP1 POP JUMP JUMPDEST PUSH1 0x0 DUP3 DUP3 MSTORE PUSH1 0x20 DUP3 ADD SWAP1 POP SWAP3 SWAP2 POP POP JUMP JUMPDEST PUSH1 0x0 DUP2 SWAP1 POP SWAP3 SWAP2 POP POP JUMP JUMPDEST PUSH1 0x0 PUSH2 0xB77 DUP3 PUSH2 0xB88 JUMP JUMPDEST SWAP1 POP SWAP2 SWAP1 POP JUMP JUMPDEST PUSH1 0x0 DUP2 SWAP1 POP SWAP2 SWAP1 POP JUMP JUMPDEST PUSH1 0x0 PUSH20 0xFFFFFFFFFFFFFFFFFFFFFFFFFFFFFFFFFFFFFFFF DUP3 AND SWAP1 POP SWAP2 SWAP1 POP JUMP JUMPDEST PUSH1 0x0 DUP2 SWAP1 POP SWAP2 SWAP1 POP JUMP JUMPDEST DUP3 DUP2 DUP4 CALLDATACOPY PUSH1 0x0 DUP4 DUP4 ADD MSTORE POP POP POP JUMP JUMPDEST PUSH1 0x0 JUMPDEST DUP4 DUP2 LT ISZERO PUSH2 0xBDF JUMPI DUP1 DUP3 ADD MLOAD DUP2 DUP5 ADD MSTORE PUSH1 0x20 DUP2 ADD SWAP1 POP PUSH2 0xBC4 JUMP JUMPDEST DUP4 DUP2 GT ISZERO PUSH2 0xBEE JUMPI PUSH1 0x0 DUP5 DUP5 ADD MSTORE JUMPDEST POP POP POP POP JUMP JUMPDEST PUSH1 0x0 PUSH2 0xBFF DUP3 PUSH2 0xC06 JUMP JUMPDEST SWAP1 POP SWAP2 SWAP1 POP JUMP JUMPDEST PUSH1 0x0 PUSH2 0xC11 DUP3 PUSH2 0xC33 JUMP JUMPDEST SWAP1 POP SWAP2 SWAP1 POP JUMP JUMPDEST PUSH1 0x0 DUP2 SWAP1 POP SWAP2 SWAP1 POP JUMP JUMPDEST PUSH1 0x0 PUSH1 0x1F NOT PUSH1 0x1F DUP4 ADD AND SWAP1 POP SWAP2 SWAP1 POP JUMP JUMPDEST PUSH1 0x0 DUP2 PUSH1 0x60 SHL SWAP1 POP SWAP2 SWAP1 POP JUMP JUMPDEST PUSH2 0xC49 DUP2 PUSH2 0xBA8 JUMP JUMPDEST DUP2 EQ PUSH2 0xC54 JUMPI PUSH1 0x0 DUP1 REVERT JUMPDEST POP JUMP INVALID LOG2 PUSH5 0x6970667358 0x22 SLT KECCAK256 0xCF 0x1F 0xE5 0x4E 0x4B PUSH29 0x8E43F5AAC815C112E62AF2A4D6EFC5C6395D894A4755B5464B7B64736F PUSH13 0x63430006050033000000000000 "
		},
		"gasEstimates": {
			"creation": {
				"codeDepositCost": "642600",
				"executionCost": "676",
				"totalCost": "643276"
			},
			"external": {
				"alumno_hash(string)": "infinite",
				"alumnos(uint256)": "infinite",
				"calularHash(string)": "infinite",
				"crearHamburguesa(string)": "infinite",
				"direcciones(uint256)": "2423",
				"hamburguesa()": "infinite",
				"hash()": "1130",
				"hash_id_alumno()": "1173",
				"nuevaDireccion()": "41967",
				"nuevoAlumno(uint256,string,uint256)": "infinite"
			},
			"internal": {
				"hashIdAlumno(uint256,string memory,address,uint256)": "infinite"
			}
		},
		"methodIdentifiers": {
			"alumno_hash(string)": "dd1eb06b",
			"alumnos(uint256)": "69ddcade",
			"calularHash(string)": "a7469ee3",
			"crearHamburguesa(string)": "33c83dbd",
			"direcciones(uint256)": "547cbcad",
			"hamburguesa()": "c74efaef",
			"hash()": "09bd5a60",
			"hash_id_alumno()": "b4f57473",
			"nuevaDireccion()": "42d73314",
			"nuevoAlumno(uint256,string,uint256)": "9e26bc4f"
		}
	},
	"abi": [
		{
			"inputs": [
				{
					"internalType": "string",
					"name": "",
					"type": "string"
				}
			],
			"name": "alumno_hash",
			"outputs": [
				{
					"internalType": "bytes32",
					"name": "",
					"type": "bytes32"
				}
			],
			"stateMutability": "view",
			"type": "function"
		},
		{
			"inputs": [
				{
					"internalType": "uint256",
					"name": "",
					"type": "uint256"
				}
			],
			"name": "alumnos",
			"outputs": [
				{
					"internalType": "uint256",
					"name": "id",
					"type": "uint256"
				},
				{
					"internalType": "string",
					"name": "nombre",
					"type": "string"
				},
				{
					"internalType": "address",
					"name": "direccion",
					"type": "address"
				},
				{
					"internalType": "uint256",
					"name": "edad",
					"type": "uint256"
				}
			],
			"stateMutability": "view",
			"type": "function"
		},
		{
			"inputs": [
				{
					"internalType": "string",
					"name": "_datos",
					"type": "string"
				}
			],
			"name": "calularHash",
			"outputs": [],
			"stateMutability": "nonpayable",
			"type": "function"
		},
		{
			"inputs": [
				{
					"internalType": "string",
					"name": "_ingredientes",
					"type": "string"
				}
			],
			"name": "crearHamburguesa",
			"outputs": [],
			"stateMutability": "nonpayable",
			"type": "function"
		},
		{
			"inputs": [
				{
					"internalType": "uint256",
					"name": "",
					"type": "uint256"
				}
			],
			"name": "direcciones",
			"outputs": [
				{
					"internalType": "address",
					"name": "",
					"type": "address"
				}
			],
			"stateMutability": "view",
			"type": "function"
		},
		{
			"inputs": [],
			"name": "hamburguesa",
			"outputs": [
				{
					"internalType": "uint256",
					"name": "id",
					"type": "uint256"
				},
				{
					"internalType": "string",
					"name": "nombre",
					"type": "string"
				},
				{
					"internalType": "string",
					"name": "ingredientes",
					"type": "string"
				}
			],
			"stateMutability": "view",
			"type": "function"
		},
		{
			"inputs": [],
			"name": "hash",
			"outputs": [
				{
					"internalType": "bytes32",
					"name": "",
					"type": "bytes32"
				}
			],
			"stateMutability": "view",
			"type": "function"
		},
		{
			"inputs": [],
			"name": "hash_id_alumno",
			"outputs": [
				{
					"internalType": "bytes32",
					"name": "",
					"type": "bytes32"
				}
			],
			"stateMutability": "view",
			"type": "function"
		},
		{
			"inputs": [],
			"name": "nuevaDireccion",
			"outputs": [],
			"stateMutability": "nonpayable",
			"type": "function"
		},
		{
			"inputs": [
				{
					"internalType": "uint256",
					"name": "_id",
					"type": "uint256"
				},
				{
					"internalType": "string",
					"name": "_nombre",
					"type": "string"
				},
				{
					"internalType": "uint256",
					"name": "_edad",
					"type": "uint256"
				}
			],
			"name": "nuevoAlumno",
			"outputs": [],
			"stateMutability": "nonpayable",
			"type": "function"
		}
	]
}